{
  "address": "0x2309296c3945e56ab0c18df71ff35e59c7987b82",
  "abi": [
    {
      "inputs": [],
      "name": "Inventory_ArcadianNotUnique",
      "type": "error"
    },
    {
      "inputs": [],
      "name": "Inventory_CouponNeededToModifyBaseSlots",
      "type": "error"
    },
    {
      "inputs": [],
      "name": "Inventory_InputDataMismatch",
      "type": "error"
    },
    {
      "inputs": [],
      "name": "Inventory_InsufficientItemBalance",
      "type": "error"
    },
    {
      "inputs": [],
      "name": "Inventory_InvalidERC1155Contract",
      "type": "error"
    },
    {
      "inputs": [],
      "name": "Inventory_InvalidSlotId",
      "type": "error"
    },
    {
      "inputs": [],
      "name": "Inventory_ItemAlreadyEquippedInSlot",
      "type": "error"
    },
    {
      "inputs": [],
      "name": "Inventory_ItemDoesNotHaveSlotAssigned",
      "type": "error"
    },
    {
      "inputs": [],
      "name": "Inventory_NonBaseSlot",
      "type": "error"
    },
    {
      "inputs": [],
      "name": "Inventory_NotAllBaseSlotsEquipped",
      "type": "error"
    },
    {
      "inputs": [],
      "name": "Inventory_NotArcadianOwner",
      "type": "error"
    },
    {
      "inputs": [],
      "name": "Inventory_UnequippingBaseSlot",
      "type": "error"
    },
    {
      "inputs": [],
      "name": "Inventory_UnequippingEmptySlot",
      "type": "error"
    },
    {
      "inputs": [],
      "name": "Inventory_UnequippingPermanentSlot",
      "type": "error"
    },
    {
      "inputs": [],
      "name": "ReentrancyGuard__ReentrantCall",
      "type": "error"
    },
    {
      "inputs": [],
      "name": "Roles_MissingAdminRole",
      "type": "error"
    },
    {
      "inputs": [],
      "name": "Roles_MissingAutomationRole",
      "type": "error"
    },
    {
      "inputs": [],
      "name": "Roles_MissingManagerRole",
      "type": "error"
    },
    {
      "anonymous": false,
      "inputs": [
        {
          "indexed": true,
          "internalType": "address",
          "name": "by",
          "type": "address"
        },
        {
          "indexed": true,
          "internalType": "address",
          "name": "to",
          "type": "address"
        },
        {
          "indexed": false,
          "internalType": "uint8[]",
          "name": "slotsIds",
          "type": "uint8[]"
        },
        {
          "indexed": false,
          "internalType": "uint256[]",
          "name": "amounts",
          "type": "uint256[]"
        }
      ],
      "name": "BaseModifierCouponAdded",
      "type": "event"
    },
    {
      "anonymous": false,
      "inputs": [
        {
          "indexed": true,
          "internalType": "address",
          "name": "account",
          "type": "address"
        },
        {
          "indexed": true,
          "internalType": "uint256",
          "name": "arcadianId",
          "type": "uint256"
        },
        {
          "indexed": false,
          "internalType": "uint8[]",
          "name": "slotsIds",
          "type": "uint8[]"
        }
      ],
      "name": "BaseModifierCouponConsumed",
      "type": "event"
    },
    {
      "anonymous": false,
      "inputs": [
        {
          "indexed": true,
          "internalType": "address",
          "name": "by",
          "type": "address"
        },
        {
          "components": [
            {
              "internalType": "address",
              "name": "erc1155Contract",
              "type": "address"
            },
            {
              "internalType": "uint256",
              "name": "id",
              "type": "uint256"
            }
          ],
          "indexed": false,
          "internalType": "struct InventoryStorage.Item[]",
          "name": "items",
          "type": "tuple[]"
        }
      ],
      "name": "ItemsAllowedInSlotUpdated",
      "type": "event"
    },
    {
      "anonymous": false,
      "inputs": [
        {
          "indexed": true,
          "internalType": "address",
          "name": "by",
          "type": "address"
        },
        {
          "indexed": true,
          "internalType": "uint256",
          "name": "arcadianId",
          "type": "uint256"
        },
        {
          "indexed": false,
          "internalType": "uint8[]",
          "name": "slots",
          "type": "uint8[]"
        }
      ],
      "name": "ItemsEquipped",
      "type": "event"
    },
    {
      "anonymous": false,
      "inputs": [
        {
          "indexed": true,
          "internalType": "address",
          "name": "by",
          "type": "address"
        },
        {
          "indexed": true,
          "internalType": "uint256",
          "name": "arcadianId",
          "type": "uint256"
        },
        {
          "indexed": false,
          "internalType": "uint8[]",
          "name": "slotsIds",
          "type": "uint8[]"
        }
      ],
      "name": "ItemsUnequipped",
      "type": "event"
    },
    {
      "anonymous": false,
      "inputs": [
        {
          "indexed": true,
          "internalType": "bytes32",
          "name": "role",
          "type": "bytes32"
        },
        {
          "indexed": true,
          "internalType": "bytes32",
          "name": "previousAdminRole",
          "type": "bytes32"
        },
        {
          "indexed": true,
          "internalType": "bytes32",
          "name": "newAdminRole",
          "type": "bytes32"
        }
      ],
      "name": "RoleAdminChanged",
      "type": "event"
    },
    {
      "anonymous": false,
      "inputs": [
        {
          "indexed": true,
          "internalType": "bytes32",
          "name": "role",
          "type": "bytes32"
        },
        {
          "indexed": true,
          "internalType": "address",
          "name": "account",
          "type": "address"
        },
        {
          "indexed": true,
          "internalType": "address",
          "name": "sender",
          "type": "address"
        }
      ],
      "name": "RoleGranted",
      "type": "event"
    },
    {
      "anonymous": false,
      "inputs": [
        {
          "indexed": true,
          "internalType": "bytes32",
          "name": "role",
          "type": "bytes32"
        },
        {
          "indexed": true,
          "internalType": "address",
          "name": "account",
          "type": "address"
        },
        {
          "indexed": true,
          "internalType": "address",
          "name": "sender",
          "type": "address"
        }
      ],
      "name": "RoleRevoked",
      "type": "event"
    },
    {
      "anonymous": false,
      "inputs": [
        {
          "indexed": true,
          "internalType": "address",
          "name": "by",
          "type": "address"
        },
        {
          "indexed": true,
          "internalType": "uint8",
          "name": "slotId",
          "type": "uint8"
        },
        {
          "indexed": false,
          "internalType": "bool",
          "name": "permanent",
          "type": "bool"
        },
        {
          "indexed": false,
          "internalType": "bool",
          "name": "isBase",
          "type": "bool"
        }
      ],
      "name": "SlotCreated",
      "type": "event"
    },
    {
      "inputs": [
        {
          "internalType": "address",
          "name": "account",
          "type": "address"
        },
        {
          "internalType": "uint8[]",
          "name": "slotsIds",
          "type": "uint8[]"
        },
        {
          "internalType": "uint256[]",
          "name": "amounts",
          "type": "uint256[]"
        }
      ],
      "name": "addBaseModifierCoupons",
      "outputs": [],
      "stateMutability": "nonpayable",
      "type": "function"
    },
    {
      "inputs": [
        {
          "internalType": "uint8",
          "name": "slotId",
          "type": "uint8"
        },
        {
          "components": [
            {
              "internalType": "address",
              "name": "erc1155Contract",
              "type": "address"
            },
            {
              "internalType": "uint256",
              "name": "id",
              "type": "uint256"
            }
          ],
          "internalType": "struct InventoryStorage.Item[]",
          "name": "items",
          "type": "tuple[]"
        }
      ],
      "name": "allowItemsInSlot",
      "outputs": [],
      "stateMutability": "nonpayable",
      "type": "function"
    },
    {
      "inputs": [
        {
          "components": [
            {
              "internalType": "address",
              "name": "erc1155Contract",
              "type": "address"
            },
            {
              "internalType": "uint256",
              "name": "id",
              "type": "uint256"
            }
          ],
          "internalType": "struct InventoryStorage.Item",
          "name": "item",
          "type": "tuple"
        }
      ],
      "name": "allowedSlot",
      "outputs": [
        {
          "internalType": "uint256",
          "name": "",
          "type": "uint256"
        }
      ],
      "stateMutability": "view",
      "type": "function"
    },
    {
      "inputs": [
        {
          "internalType": "uint256",
          "name": "arcadianId",
          "type": "uint256"
        }
      ],
      "name": "arcadianToBaseItemHash",
      "outputs": [
        {
          "internalType": "bytes32",
          "name": "",
          "type": "bytes32"
        }
      ],
      "stateMutability": "view",
      "type": "function"
    },
    {
      "inputs": [
        {
          "internalType": "bool",
          "name": "permanent",
          "type": "bool"
        },
        {
          "internalType": "bool",
          "name": "isBase",
          "type": "bool"
        },
        {
          "components": [
            {
              "internalType": "address",
              "name": "erc1155Contract",
              "type": "address"
            },
            {
              "internalType": "uint256",
              "name": "id",
              "type": "uint256"
            }
          ],
          "internalType": "struct InventoryStorage.Item[]",
          "name": "items",
          "type": "tuple[]"
        }
      ],
      "name": "createSlot",
      "outputs": [],
      "stateMutability": "nonpayable",
      "type": "function"
    },
    {
      "inputs": [
        {
          "components": [
            {
              "internalType": "address",
              "name": "erc1155Contract",
              "type": "address"
            },
            {
              "internalType": "uint256",
              "name": "id",
              "type": "uint256"
            }
          ],
          "internalType": "struct InventoryStorage.Item[]",
          "name": "items",
          "type": "tuple[]"
        }
      ],
      "name": "disallowItems",
      "outputs": [],
      "stateMutability": "nonpayable",
      "type": "function"
    },
    {
      "inputs": [
        {
          "internalType": "uint256",
          "name": "arcadianId",
          "type": "uint256"
        },
        {
          "components": [
            {
              "internalType": "address",
              "name": "erc1155Contract",
              "type": "address"
            },
            {
              "internalType": "uint256",
              "name": "id",
              "type": "uint256"
            }
          ],
          "internalType": "struct InventoryStorage.Item[]",
          "name": "items",
          "type": "tuple[]"
        }
      ],
      "name": "equip",
      "outputs": [],
      "stateMutability": "nonpayable",
      "type": "function"
    },
    {
      "inputs": [
        {
          "internalType": "uint256",
          "name": "arcadianId",
          "type": "uint256"
        },
        {
          "internalType": "uint8",
          "name": "slotId",
          "type": "uint8"
        }
      ],
      "name": "equipped",
      "outputs": [
        {
          "components": [
            {
              "internalType": "uint8",
              "name": "slotId",
              "type": "uint8"
            },
            {
              "internalType": "address",
              "name": "erc1155Contract",
              "type": "address"
            },
            {
              "internalType": "uint256",
              "name": "itemId",
              "type": "uint256"
            }
          ],
          "internalType": "struct InventoryInternal.ItemInSlot",
          "name": "item",
          "type": "tuple"
        }
      ],
      "stateMutability": "view",
      "type": "function"
    },
    {
      "inputs": [
        {
          "internalType": "uint256",
          "name": "arcadianId",
          "type": "uint256"
        }
      ],
      "name": "equippedAll",
      "outputs": [
        {
          "components": [
            {
              "internalType": "uint8",
              "name": "slotId",
              "type": "uint8"
            },
            {
              "internalType": "address",
              "name": "erc1155Contract",
              "type": "address"
            },
            {
              "internalType": "uint256",
              "name": "itemId",
              "type": "uint256"
            }
          ],
          "internalType": "struct InventoryInternal.ItemInSlot[]",
          "name": "equippedSlot",
          "type": "tuple[]"
        }
      ],
      "stateMutability": "view",
      "type": "function"
    },
    {
      "inputs": [
        {
          "internalType": "uint256",
          "name": "arcadianId",
          "type": "uint256"
        },
        {
          "internalType": "uint8[]",
          "name": "slotsIds",
          "type": "uint8[]"
        }
      ],
      "name": "equippedBatch",
      "outputs": [
        {
          "components": [
            {
              "internalType": "uint8",
              "name": "slotId",
              "type": "uint8"
            },
            {
              "internalType": "address",
              "name": "erc1155Contract",
              "type": "address"
            },
            {
              "internalType": "uint256",
              "name": "itemId",
              "type": "uint256"
            }
          ],
          "internalType": "struct InventoryInternal.ItemInSlot[]",
          "name": "equippedSlot",
          "type": "tuple[]"
        }
      ],
      "stateMutability": "view",
      "type": "function"
    },
    {
      "inputs": [
        {
          "internalType": "address",
          "name": "account",
          "type": "address"
        },
        {
          "internalType": "uint8",
          "name": "slotId",
          "type": "uint8"
        }
      ],
      "name": "getBaseModifierCoupon",
      "outputs": [
        {
          "internalType": "uint256",
          "name": "",
          "type": "uint256"
        }
      ],
      "stateMutability": "view",
      "type": "function"
    },
    {
      "inputs": [
        {
          "internalType": "address",
          "name": "account",
          "type": "address"
        }
      ],
      "name": "getBaseModifierCouponAll",
      "outputs": [
        {
          "components": [
            {
              "internalType": "uint8",
              "name": "slotId",
              "type": "uint8"
            },
            {
              "internalType": "uint256",
              "name": "amount",
              "type": "uint256"
            }
          ],
          "internalType": "struct InventoryInternal.BaseModifierCoupon[]",
          "name": "",
          "type": "tuple[]"
        }
      ],
      "stateMutability": "view",
      "type": "function"
    },
    {
      "inputs": [],
      "name": "getBaseSlotsIds",
      "outputs": [
        {
          "internalType": "uint8[]",
          "name": "",
          "type": "uint8[]"
        }
      ],
      "stateMutability": "view",
      "type": "function"
    },
    {
      "inputs": [
        {
          "internalType": "uint256",
          "name": "arcadianId",
          "type": "uint256"
        },
        {
          "components": [
            {
              "internalType": "address",
              "name": "erc1155Contract",
              "type": "address"
            },
            {
              "internalType": "uint256",
              "name": "id",
              "type": "uint256"
            }
          ],
          "internalType": "struct InventoryStorage.Item[]",
          "name": "items",
          "type": "tuple[]"
        }
      ],
      "name": "isArcadianUnique",
      "outputs": [
        {
          "internalType": "bool",
          "name": "",
          "type": "bool"
        }
      ],
      "stateMutability": "view",
      "type": "function"
    },
    {
      "inputs": [],
      "name": "numSlots",
      "outputs": [
        {
          "internalType": "uint256",
          "name": "",
          "type": "uint256"
        }
      ],
      "stateMutability": "view",
      "type": "function"
    },
    {
      "inputs": [
        {
          "internalType": "address",
          "name": "",
          "type": "address"
        },
        {
          "internalType": "address",
          "name": "",
          "type": "address"
        },
        {
          "internalType": "uint256[]",
          "name": "",
          "type": "uint256[]"
        },
        {
          "internalType": "uint256[]",
          "name": "",
          "type": "uint256[]"
        },
        {
          "internalType": "bytes",
          "name": "",
          "type": "bytes"
        }
      ],
      "name": "onERC1155BatchReceived",
      "outputs": [
        {
          "internalType": "bytes4",
          "name": "",
          "type": "bytes4"
        }
      ],
      "stateMutability": "nonpayable",
      "type": "function"
    },
    {
      "inputs": [
        {
          "internalType": "address",
          "name": "",
          "type": "address"
        },
        {
          "internalType": "address",
          "name": "",
          "type": "address"
        },
        {
          "internalType": "uint256",
          "name": "",
          "type": "uint256"
        },
        {
          "internalType": "uint256",
          "name": "",
          "type": "uint256"
        },
        {
          "internalType": "bytes",
          "name": "",
          "type": "bytes"
        }
      ],
      "name": "onERC1155Received",
      "outputs": [
        {
          "internalType": "bytes4",
          "name": "",
          "type": "bytes4"
        }
      ],
      "stateMutability": "nonpayable",
      "type": "function"
    },
    {
      "inputs": [
        {
          "components": [
            {
              "internalType": "address",
              "name": "erc1155Contract",
              "type": "address"
            },
            {
              "internalType": "uint256",
              "name": "id",
              "type": "uint256"
            }
          ],
          "internalType": "struct InventoryStorage.Item[]",
          "name": "items",
          "type": "tuple[]"
        },
        {
          "internalType": "bool[]",
          "name": "requiresTransfer",
          "type": "bool[]"
        }
      ],
      "name": "setItemsTransferRequired",
      "outputs": [],
      "stateMutability": "nonpayable",
      "type": "function"
    },
    {
      "inputs": [
        {
          "internalType": "uint8",
          "name": "slotId",
          "type": "uint8"
        },
        {
          "internalType": "bool",
          "name": "isBase",
          "type": "bool"
        }
      ],
      "name": "setSlotBase",
      "outputs": [],
      "stateMutability": "nonpayable",
      "type": "function"
    },
    {
      "inputs": [
        {
          "internalType": "uint8",
          "name": "slotId",
          "type": "uint8"
        },
        {
          "internalType": "bool",
          "name": "permanent",
          "type": "bool"
        }
      ],
      "name": "setSlotPermanent",
      "outputs": [],
      "stateMutability": "nonpayable",
      "type": "function"
    },
    {
      "inputs": [
        {
          "internalType": "uint8",
          "name": "slotId",
          "type": "uint8"
        }
      ],
      "name": "slot",
      "outputs": [
        {
          "components": [
            {
              "internalType": "uint8",
              "name": "id",
              "type": "uint8"
            },
            {
              "internalType": "bool",
              "name": "permanent",
              "type": "bool"
            },
            {
              "internalType": "bool",
              "name": "isBase",
              "type": "bool"
            }
          ],
          "internalType": "struct InventoryStorage.Slot",
          "name": "existentSlot",
          "type": "tuple"
        }
      ],
      "stateMutability": "view",
      "type": "function"
    },
    {
      "inputs": [],
      "name": "slotsAll",
      "outputs": [
        {
          "components": [
            {
              "internalType": "uint8",
              "name": "id",
              "type": "uint8"
            },
            {
              "internalType": "bool",
              "name": "permanent",
              "type": "bool"
            },
            {
              "internalType": "bool",
              "name": "isBase",
              "type": "bool"
            }
          ],
          "internalType": "struct InventoryStorage.Slot[]",
          "name": "existentSlots",
          "type": "tuple[]"
        }
      ],
      "stateMutability": "view",
      "type": "function"
    },
    {
      "inputs": [
        {
          "internalType": "bytes4",
          "name": "interfaceId",
          "type": "bytes4"
        }
      ],
      "name": "supportsInterface",
      "outputs": [
        {
          "internalType": "bool",
          "name": "",
          "type": "bool"
        }
      ],
      "stateMutability": "view",
      "type": "function"
    },
    {
      "inputs": [
        {
          "internalType": "uint256",
          "name": "arcadianId",
          "type": "uint256"
        },
        {
          "internalType": "uint8[]",
          "name": "slotsIds",
          "type": "uint8[]"
        }
      ],
      "name": "unequip",
      "outputs": [],
      "stateMutability": "nonpayable",
      "type": "function"
    }
  ],
  "transactionHash": "0x1a2df66738cec18be784bba28aff35daa8015052263ffa61e1419db671f2c0b6",
  "args": [],
  "numDeployments": 2,
  "solcInputHash": "3e3d4f461e0f2b62facd0504ca9078d8",
  "bytecode": "0x608060405234801561001057600080fd5b506136dd806100206000396000f3fe608060405234801561001057600080fd5b50600436106101585760003560e01c80638d0e5a9a116100c3578063acb5fe3d1161007c578063acb5fe3d146103a9578063b1b2fef4146103bc578063bc197c81146103d1578063c33d7d1614610409578063ddac20081461041c578063f23a6e611461042f57600080fd5b80638d0e5a9a146102bb5780638e980d4d146103555780638ed4110014610368578063947687e71461037b5780639621ff251461038e5780639e3ccb2a1461039657600080fd5b806351bb1e051161011557806351bb1e051461020e5780635cf715ee14610221578063603f40ec146102415780637a8455a1146102805780637b2ddc1d146102935780638074edd5146102a657600080fd5b806301ffc9a71461015d5780630416c01f146101855780631da7c70a1461019a57806320b82e68146101ba5780632f8bd3c8146101da5780634605777d146101fb575b600080fd5b61017061016b366004612b49565b61044e565b60405190151581526020015b60405180910390f35b610198610193366004612b99565b610485565b005b6101ad6101a8366004612be4565b6104cf565b60405161017c9190612c01565b6101cd6101c8366004612c53565b6104da565b60405161017c9190612c76565b6101ed6101e8366004612ca3565b610571565b60405190815260200161017c565b610198610209366004612d4a565b61057c565b61019861021c366004612db5565b6105c4565b61023461022f366004612e37565b610644565b60405161017c9190612e82565b6101ed61024f366004612ef0565b60009081527ff672b8dc84d117c1e14949d8bc3977392b5ab7de9d01b854d389cdc31bf0d43d602052604090205490565b61017061028e366004612f09565b610659565b6101986102a1366004612e37565b610666565b6102ae6106c1565b60405161017c9190612f47565b6103486102c9366004612f82565b604080516060810182526000808252602080830182905282840182905260ff851682527ff672b8dc84d117c1e14949d8bc3977392b5ab7de9d01b854d389cdc31bf0d43790529190912060408051606081018252915460ff80821684526101008204811615156020850152620100009091041615159082015292915050565b60405161017c9190612f9d565b610198610363366004612f09565b6106d0565b610198610376366004612b99565b610724565b610198610389366004612fc5565b610764565b6101ed6107a6565b6102346103a4366004612ef0565b6107c1565b6101986103b7366004613019565b6107cc565b6103c4610812565b60405161017c9190613052565b6103f06103df3660046131d8565b63bc197c8160e01b95945050505050565b6040516001600160e01b0319909116815260200161017c565b6101ed610417366004613285565b61081c565b61019861042a3660046132b1565b610828565b6103f061043d3660046132f2565b63f23a6e6160e01b95945050505050565b60006001600160e01b03198216630271189760e51b148061047f57506301ffc9a760e01b6001600160e01b03198316145b92915050565b6104a461049e6000805160206136688339815191525490565b33610868565b6104c15760405163d0befa1d60e01b815260040160405180910390fd5b6104cb828261089f565b5050565b606061047f8261092f565b6040805160608082018352600080835260208084018290528385018290528451808401865282815280820183905285018290528682527ff672b8dc84d117c1e14949d8bc3977392b5ab7de9d01b854d389cdc31bf0d438815284822060ff8716808452908252918590208551938401865291835281546001600160a01b0316908301526001015492810192909252905b9392505050565b600061047f82610aaa565b61059561049e6000805160206136688339815191525490565b6105b25760405163d0befa1d60e01b815260040160405180910390fd5b6105be84848484610b0f565b50505050565b6105dd61049e6000805160206136688339815191525490565b158015610612575061061061049e7ff6deb63e40d71b08820818e006e23fcceb1fce7a499bc15b71b2526cbf9efa735490565b155b1561063057604051630b24262960e31b815260040160405180910390fd5b61063d8585858585610c1c565b5050505050565b6060610651848484610e47565b949350505050565b6000610651848484610fa5565b7f09acf4e54214992e70883cf7dcd6957ff2c71cd9e14df4bec4383bc0d11607dc80546002036106a957604051635db5c7cd60e11b815260040160405180910390fd5b600281556106b88484846111cc565b60019055505050565b60606106cb611465565b905090565b7f09acf4e54214992e70883cf7dcd6957ff2c71cd9e14df4bec4383bc0d11607dc805460020361071357604051635db5c7cd60e11b815260040160405180910390fd5b600281556106b884848460006114eb565b61073d61049e6000805160206136688339815191525490565b61075a5760405163d0befa1d60e01b815260040160405180910390fd5b6104cb82826119b9565b61077d61049e6000805160206136688339815191525490565b61079a5760405163d0befa1d60e01b815260040160405180910390fd5b6105be84848484611c1f565b60006106cb6000805160206136888339815191525460ff1690565b606061047f82611cfe565b6107e561049e6000805160206136688339815191525490565b6108025760405163d0befa1d60e01b815260040160405180910390fd5b61080d838383611e2a565b505050565b60606106cb611fd0565b600061056a83836120f4565b61084161049e6000805160206136688339815191525490565b61085e5760405163d0befa1d60e01b815260040160405180910390fd5b6104cb82826121e1565b60008281527fd3889cc5458b268d0544e5534672df1296288ca3f93cbd39bd6f497a5c6228116020526040812061056a90836122dc565b8160ff811615806108c557506000805160206136888339815191525460ff908116908216115b156108e35760405163d751397d60e01b815260040160405180910390fd5b5060ff9190911660009081527ff672b8dc84d117c1e14949d8bc3977392b5ab7de9d01b854d389cdc31bf0d4376020526040902080549115156101000261ff0019909216919091179055565b7ff672b8dc84d117c1e14949d8bc3977392b5ab7de9d01b854d389cdc31bf0d43f54606090600080516020613688833981519152906000816001600160401b0381111561097e5761097e6130af565b6040519080825280602002602001820160405280156109c357816020015b604080518082019091526000808252602082015281526020019060019003908161099c5790505b5090506000805b838160ff161015610a9f576000856009018260ff16815481106109ef576109ef61335a565b90600052602060002090602091828204019190069054906101000a900460ff16905080848481518110610a2457610a2461335a565b60209081029190910181015160ff92831690526001600160a01b038a166000908152600889018252604080822093851682529290915220548451859085908110610a7057610a7061335a565b602090810291909101810151015282610a8881613386565b935050508080610a979061339f565b9150506109ca565b509095945050505050565b60007ff672b8dc84d117c1e14949d8bc3977392b5ab7de9d01b854d389cdc31bf0d43981610adb6020850185612be4565b6001600160a01b0316815260208082019290925260409081016000908120948301358152939091529091205460ff16919050565b828114610b2f576040516303f7219d60e41b815260040160405180910390fd5b60008051602061368883398151915260005b84811015610c1457838382818110610b5b57610b5b61335a565b9050602002016020810190610b7091906133be565b826004016000888885818110610b8857610b8861335a565b610b9e9260206040909202019081019150612be4565b6001600160a01b03166001600160a01b031681526020019081526020016000206000888885818110610bd257610bd261335a565b90506040020160200135815260200190815260200160002060006101000a81548160ff0219169083151502179055508080610c0c90613386565b915050610b41565b505050505050565b828114610c3c576040516303f7219d60e41b815260040160405180910390fd5b600080516020613688833981519152805460ff1660005b85811015610dec57868682818110610c6d57610c6d61335a565b9050602002016020810190610c829190612f82565b60ff16158015610cbd57508160ff16878783818110610ca357610ca361335a565b9050602002016020810190610cb89190612f82565b60ff16115b15610cdb5760405163d751397d60e01b815260040160405180910390fd5b826001016000888884818110610cf357610cf361335a565b9050602002016020810190610d089190612f82565b60ff908116825260208201929092526040016000205462010000900416610d42576040516332fa2abb60e01b815260040160405180910390fd5b848482818110610d5457610d5461335a565b90506020020135610d7060008051602061368883398151915290565b6001600160a01b038a1660009081526008919091016020526040812090898985818110610d9f57610d9f61335a565b9050602002016020810190610db49190612f82565b60ff1681526020019081526020016000206000828254610dd491906133d9565b90915550819050610de481613386565b915050610c53565b50866001600160a01b0316336001600160a01b03167f9d7a20d7eaa55f66adf8df546f4264a6d863831fcf5a590c02a66c132f8c10cc88888888604051610e36949392919061342d565b60405180910390a350505050505050565b6060600080516020613688833981519152826001600160401b03811115610e7057610e706130af565b604051908082528060200260200182016040528015610ebb57816020015b6040805160608101825260008082526020808301829052928201528252600019909201910181610e8e5790505b50915060005b83811015610f9c576000868152600283016020526040812081878785818110610eec57610eec61335a565b9050602002016020810190610f019190612f82565b60ff1660ff16815260200190815260200160002090506040518060600160405280878785818110610f3457610f3461335a565b9050602002016020810190610f499190612f82565b60ff16815282546001600160a01b0316602082015260018301546040909101528451859084908110610f7d57610f7d61335a565b6020026020010181905250508080610f9490613386565b915050610ec1565b50509392505050565b7ff672b8dc84d117c1e14949d8bc3977392b5ab7de9d01b854d389cdc31bf0d43f5460009060008051602061368883398151915290606090835b818160ff161015611184576000846009018260ff16815481106110045761100461335a565b60009182526020808320818304015460408051808201909152848152918201849052601f9092166101000a90910460ff169250905b888110156110ab578260ff166110658b8b8481811061105a5761105a61335a565b905060400201610aaa565b036110995789898281811061107c5761107c61335a565b9050604002018036038101906110929190613479565b91506110ab565b806110a381613386565b915050611039565b5080516001600160a01b03166111435760008a8152600287016020908152604080832060ff861684529091529020546001600160a01b03161561112a57506000898152600286016020908152604080832060ff85168452825291829020825180840190935280546001600160a01b031683526001015490820152611143565b60405163a9614f1560e01b815260040160405180910390fd5b805160208083015160405161115e93899387939192016134d0565b60405160208183030381529060405294505050808061117c9061339f565b915050610fdf565b5081805190602001208360070160008981526020019081526020016000205414806111c15750815160208301206111bf9060058501906122fe565b155b979650505050505050565b6040516331a9108f60e11b815260048101849052839030908190636352211e90602401602060405180830381865afa15801561120c573d6000803e3d6000fd5b505050506040513d601f19601f820116820180604052508101906112309190613531565b6001600160a01b0316336001600160a01b0316146112615760405163aee05b5d60e01b815260040160405180910390fd5b600080516020613688833981519152600084900361127f575061063d565b60005b8481101561140e578160010160008787848181106112a2576112a261335a565b90506020020160208101906112b79190612f82565b60ff9081168252602082019290925260400160002054610100900416156112f15760405163bd8a5e1560e01b815260040160405180910390fd5b60008781526002830160205260408120818888858181106113145761131461335a565b90506020020160208101906113299190612f82565b60ff1681526020810191909152604001600020546001600160a01b03160361136457604051632755285560e01b815260040160405180910390fd5b81600101600087878481811061137c5761137c61335a565b90506020020160208101906113919190612f82565b60ff908116825260208201929092526040016000205462010000900416156113cc5760405163abfc1e6160e01b815260040160405180910390fd5b6113fc878787848181106113e2576113e261335a565b90506020020160208101906113f79190612f82565b612316565b8061140681613386565b915050611282565b5061141886612475565b5085336001600160a01b03167fa3319ad5631c1ffca6596869c7a4151599263f1ab87e5bff0b2a61730d9e7f52878760405161145592919061354e565b60405180910390a3505050505050565b60606000805160206136888339815191526009018054806020026020016040519081016040528092919081815260200182805480156114e157602002820191906000526020600020906000905b825461010083900a900460ff168152602060019283018181049485019490930390920291018084116114b25790505b5050505050905090565b6040516331a9108f60e11b815260048101859052849030908190636352211e90602401602060405180830381865afa15801561152b573d6000803e3d6000fd5b505050506040513d601f19601f8201168201806040525081019061154f9190613531565b6001600160a01b0316336001600160a01b0316146115805760405163aee05b5d60e01b815260040160405180910390fd5b8315610c1457600080516020613688833981519152600080866001600160401b038111156115b0576115b06130af565b6040519080825280602002602001820160405280156115d9578160200160208202803683370190505b50905060005b8781101561178a5760008460030160008b8b858181106116015761160161335a565b6116179260206040909202019081019150612be4565b6001600160a01b03166001600160a01b0316815260200190815260200160002060008b8b8581811061164b5761164b61335a565b90506040020160200135815260200190815260200160002060009054906101000a900460ff169050808383815181106116865761168661335a565b60ff92831660209182029290920181019190915260008d81526002880182526040808220938516825292909152208a8a848181106116c6576116c661335a565b6116dc9260206040909202019081019150612be4565b81546001600160a01b03908116911614801561171657508a8a848181106117055761170561335a565b905060400201602001358160010154145b15611722575050611778565b6117448c8c8c868181106117385761173861335a565b9050604002018b6125d8565b5060ff8083166000908152600188016020526040902054620100009004161561177557846117718161339f565b9550505b50505b8061178281613386565b9150506115df565b5061179489612964565b6117b15760405163a9614f1560e01b815260040160405180910390fd5b60ff82161561196c576117c389612475565b6117df5760405162ecf30560e51b815260040160405180910390fd5b8561196c5760008260ff166001600160401b03811115611801576118016130af565b60405190808252806020026020018201604052801561182a578160200160208202803683370190505b5090506000805b898110156119265760008660030160008d8d858181106118535761185361335a565b6118699260206040909202019081019150612be4565b6001600160a01b03166001600160a01b0316815260200190815260200160002060008d8d8581811061189d5761189d61335a565b60206040918202939093018301358452838301949094525090820160009081205460ff90811680835260018c0190935292902054909250620100009004161561191357808484815181106118f3576118f361335a565b60ff909216602092830291909101909101528261190f81613386565b9350505b508061191e81613386565b915050611831565b508a336001600160a01b03167f26f48489610b9379e1312f6d4ab3e8ae7daaeb6e9c3fc4fd435e31efe4b5b905846040516119619190612f47565b60405180910390a350505b88336001600160a01b03167f9327c3082659d71242f39580f98c14533249a2555a5e35f7c1dd6114c014acbd836040516119a69190612f47565b60405180910390a3505050505050505050565b8160ff811615806119df57506000805160206136888339815191525460ff908116908216115b156119fd5760405163d751397d60e01b815260040160405180910390fd5b7ff672b8dc84d117c1e14949d8bc3977392b5ab7de9d01b854d389cdc31bf0d43f805460008051602061368883398151915291908415611ada576000805b82811015611a99578760ff16848281548110611a5957611a5961335a565b60009182526020918290209181049091015460ff601f9092166101000a90041603611a875760019150611a99565b80611a9181613386565b915050611a3b565b5080611ad4578254600181018455600084815260209081902090820401805460ff808b16601f9094166101000a938402930219169190911790555b50611beb565b60005b81811015611be9578660ff16838281548110611afb57611afb61335a565b60009182526020918290209181049091015460ff601f9092166101000a90041603611bd75782611b2c600184613562565b81548110611b3c57611b3c61335a565b90600052602060002090602091828204019190069054906101000a900460ff16838281548110611b6e57611b6e61335a565b90600052602060002090602091828204019190066101000a81548160ff021916908360ff16021790555082805480611ba857611ba8613575565b60019003818190600052602060002090602091828204019190066101000a81549060ff02191690559055611be9565b80611be181613386565b915050611add565b505b505060ff909316600090815260019093016020525060409091208054911515620100000262ff000019909216919091179055565b60008051602061368883398151915280546001908290600090611c4690849060ff1661358b565b825461010092830a60ff818102199092169282160291909117909255835490911660008181526001850160205260409020805462ffff00191689151590930262ff000019169290921762010000881515021760ff191681179091559050611cad81866119b9565b8215611cbe57611cbe818585611e2a565b604080518715158152861515602082015260ff83169133917f6cc736ebc0a380aff8bb8965c1da3507f88c72faaa11d947a8cee380437eee389101611455565b60008051602061368883398151915280546060919060ff16806001600160401b03811115611d2e57611d2e6130af565b604051908082528060200260200182016040528015611d7957816020015b6040805160608101825260008082526020808301829052928201528252600019909201910181611d4c5790505b50925060005b8160ff168160ff161015611e22576000611d9a82600161358b565b6000878152600286016020908152604080832060ff80861680865291845293829020825160608101845291825280546001600160a01b0316938201939093526001830154918101919091528851939450909290918891908616908110611e0257611e0261335a565b602002602001018190525050508080611e1a9061339f565b915050611d7f565b505050919050565b8260ff81161580611e5057506000805160206136888339815191525460ff908116908216115b15611e6e5760405163d751397d60e01b815260040160405180910390fd5b60008051602061368883398151915260005b83811015611f8557611ec2858583818110611e9d57611e9d61335a565b611eb39260206040909202019081019150612be4565b6001600160a01b03163b151590565b611edf57604051633c65e02b60e21b815260040160405180910390fd5b85826003016000878785818110611ef857611ef861335a565b611f0e9260206040909202019081019150612be4565b6001600160a01b03166001600160a01b031681526020019081526020016000206000878785818110611f4257611f4261335a565b90506040020160200135815260200190815260200160002060006101000a81548160ff021916908360ff1602179055508080611f7d90613386565b915050611e80565b50336001600160a01b03167fe4b3865dba5d4ccb0b3d6c20155d67038ad51ad7205218a541036a99804571b78585604051611fc19291906135a4565b60405180910390a25050505050565b60008051602061368883398151915280546060919060ff16806001600160401b03811115612000576120006130af565b60405190808252806020026020018201604052801561204b57816020015b604080516060810182526000808252602080830182905292820152825260001990920191018161201e5790505b50925060005b8160ff168160ff1610156120ee57600061206c82600161358b565b60ff808216600090815260018701602090815260409182902082516060810184529054808516825261010081048516151592820192909252620100009091048316151591810191909152875192935091879185169081106120cf576120cf61335a565b60200260200101819052505080806120e69061339f565b915050612051565b50505090565b60008160ff8116158061211c57506000805160206136888339815191525460ff908116908216115b1561213a5760405163d751397d60e01b815260040160405180910390fd5b60ff83811660009081527ff672b8dc84d117c1e14949d8bc3977392b5ab7de9d01b854d389cdc31bf0d437602052604090205462010000900416612191576040516332fa2abb60e01b815260040160405180910390fd5b6001600160a01b03841660009081527ff672b8dc84d117c1e14949d8bc3977392b5ab7de9d01b854d389cdc31bf0d43e6020908152604080832060ff8716845290915290205491505b5092915050565b60008051602061368883398151915260005b82811015612293578160030160008585848181106122135761221361335a565b6122299260206040909202019081019150612be4565b6001600160a01b03166001600160a01b03168152602001908152602001600020600085858481811061225d5761225d61335a565b602060409182029390930183013584529183019390935201600020805460ff19169055508061228b81613386565b9150506121f3565b50336001600160a01b03167fe4b3865dba5d4ccb0b3d6c20155d67038ad51ad7205218a541036a99804571b784846040516122cf9291906135a4565b60405180910390a2505050565b6001600160a01b0381166000908152600183016020526040812054151561056a565b6000818152600183016020526040812054151561056a565b60008281527ff672b8dc84d117c1e14949d8bc3977392b5ab7de9d01b854d389cdc31bf0d4386020908152604080832060ff858116855290835281842080546001600160a01b031685527ff672b8dc84d117c1e14949d8bc3977392b5ab7de9d01b854d389cdc31bf0d43a84528285206001820154865290935292205460008051602061368883398151915292168015612434578154600180840154604051637921219560e11b81523060048201523360248201526044810191909152606481019190915260a06084820152600060a48201526001600160a01b0390911690819063f242432a9060c401600060405180830381600087803b15801561241a57600080fd5b505af115801561242e573d6000803e3d6000fd5b50505050505b505060009283526002016020908152604080842060ff90931684529190528120805473ffffffffffffffffffffffffffffffffffffffff1916815560010155565b7ff672b8dc84d117c1e14949d8bc3977392b5ab7de9d01b854d389cdc31bf0d43f5460009060008051602061368883398151915290606090835b818160ff161015612557576000846009018260ff16815481106124d4576124d461335a565b6000918252602080832081830401548a84526002890182526040808520601f9094166101000a90910460ff1680855292825292839020805460018201549451939550909361253193899387936001600160a01b03169291016134d0565b60405160208183030381529060405294505050808061254f9061339f565b9150506124af565b50815160208084019190912060008781526007860190925260409091205481148061258c575061258a60058501826122fe565b155b60008781526007860160205260409020549095506125ae906005860190612a34565b506125bc6005850182612a40565b5060009586526007909301602052505060409092209190915590565b60006000805160206136888339815191527ff672b8dc84d117c1e14949d8bc3977392b5ab7de9d01b854d389cdc31bf0d439826126186020870187612be4565b6001600160a01b031681526020808201929092526040908101600090812087840135825290925290205460ff16915081158061266957506000805160206136888339815191525460ff908116908316115b15612687576040516363efa0e360e01b815260040160405180910390fd5b821580156126ae575060ff8083166000908152600183016020526040902054620100009004165b1561272357336000908152600882016020908152604080832060ff8616845290915281205490036126f25760405163bbd28dfd60e01b815260040160405180910390fd5b336000908152600882016020908152604080832060ff86168452909152812080549161271d836135fd565b91905055505b6000858152600282016020908152604080832060ff808716855290835281842060018601909352922054909161010090910416801561276b575080546001600160a01b031615155b156127895760405163bd8a5e1560e01b815260040160405180910390fd5b6000868152600283016020908152604080832060ff871684529091529020546001600160a01b0316156127c0576127c08684612316565b600060048301816127d46020890189612be4565b6001600160a01b031681526020808201929092526040908101600090812089840135825290925290205460ff169050801561292d5760006128186020880188612be4565b604051627eeac760e11b8152336004820152602089013560248201529091506001906001600160a01b0383169062fdd58e90604401602060405180830381865afa15801561286a573d6000803e3d6000fd5b505050506040513d601f19601f8201168201806040525081019061288e9190613614565b10156128ad576040516335ba250d60e11b815260040160405180910390fd5b604051637921219560e11b8152336004820152306024820152602088013560448201526001606482015260a06084820152600060a48201526001600160a01b0382169063f242432a9060c401600060405180830381600087803b15801561291357600080fd5b505af1158015612927573d6000803e3d6000fd5b50505050505b6000878152600284016020908152604080832060ff8816845290915290208690612957828261362d565b9050505050509392505050565b60008051602061368883398151915280546000919060ff16825b8160ff168160ff161015612a2957600061299982600161358b565b60ff80821660009081526001870160205260409020805492935091620100009004161580156129cf57508054610100900460ff16155b156129db575050612a17565b6000878152600286016020908152604080832060ff861684529091529020546001600160a01b0316612a14575060009695505050505050565b50505b80612a218161339f565b91505061297e565b506001949350505050565b600061056a8383612a4c565b600061056a8383612b06565b600081815260018301602052604081205480156121da57835460009085906000198101908110612a7e57612a7e61335a565b9060005260206000200154905080856000016001840381548110612aa457612aa461335a565b6000918252602080832090910192909255918252600186019052604090208190558354849080612ad657612ad6613575565b60008281526020808220830160001990810183905590920190925593815260019485019093525050604081205590565b600081815260018301602052604081205461047f575081546001808201845560008481526020808220909301849055845493815293810190915260409092205590565b600060208284031215612b5b57600080fd5b81356001600160e01b03198116811461056a57600080fd5b803560ff81168114612b8457600080fd5b919050565b80358015158114612b8457600080fd5b60008060408385031215612bac57600080fd5b612bb583612b73565b9150612bc360208401612b89565b90509250929050565b6001600160a01b0381168114612be157600080fd5b50565b600060208284031215612bf657600080fd5b813561056a81612bcc565b602080825282518282018190526000919060409081850190868401855b82811015612c46578151805160ff168552860151868501529284019290850190600101612c1e565b5091979650505050505050565b60008060408385031215612c6657600080fd5b82359150612bc360208401612b73565b815160ff1681526020808301516001600160a01b031690820152604080830151908201526060810161047f565b600060408284031215612cb557600080fd5b50919050565b60008083601f840112612ccd57600080fd5b5081356001600160401b03811115612ce457600080fd5b6020830191508360208260061b8501011115612cff57600080fd5b9250929050565b60008083601f840112612d1857600080fd5b5081356001600160401b03811115612d2f57600080fd5b6020830191508360208260051b8501011115612cff57600080fd5b60008060008060408587031215612d6057600080fd5b84356001600160401b0380821115612d7757600080fd5b612d8388838901612cbb565b90965094506020870135915080821115612d9c57600080fd5b50612da987828801612d06565b95989497509550505050565b600080600080600060608688031215612dcd57600080fd5b8535612dd881612bcc565b945060208601356001600160401b0380821115612df457600080fd5b612e0089838a01612d06565b90965094506040880135915080821115612e1957600080fd5b50612e2688828901612d06565b969995985093965092949392505050565b600080600060408486031215612e4c57600080fd5b8335925060208401356001600160401b03811115612e6957600080fd5b612e7586828701612d06565b9497909650939450505050565b6020808252825182820181905260009190848201906040850190845b81811015612ee457612ed1838551805160ff1682526020808201516001600160a01b031690830152604090810151910152565b9284019260609290920191600101612e9e565b50909695505050505050565b600060208284031215612f0257600080fd5b5035919050565b600080600060408486031215612f1e57600080fd5b8335925060208401356001600160401b03811115612f3b57600080fd5b612e7586828701612cbb565b6020808252825182820181905260009190848201906040850190845b81811015612ee457835160ff1683529284019291840191600101612f63565b600060208284031215612f9457600080fd5b61056a82612b73565b815160ff1681526020808301511515908201526040808301511515908201526060810161047f565b60008060008060608587031215612fdb57600080fd5b612fe485612b89565b9350612ff260208601612b89565b925060408501356001600160401b0381111561300d57600080fd5b612da987828801612cbb565b60008060006040848603121561302e57600080fd5b61303784612b73565b925060208401356001600160401b03811115612f3b57600080fd5b6020808252825182820181905260009190848201906040850190845b81811015612ee45761309c838551805160ff1682526020808201511515908301526040908101511515910152565b928401926060929092019160010161306e565b634e487b7160e01b600052604160045260246000fd5b604051601f8201601f191681016001600160401b03811182821017156130ed576130ed6130af565b604052919050565b600082601f83011261310657600080fd5b813560206001600160401b03821115613121576131216130af565b8160051b6131308282016130c5565b928352848101820192828101908785111561314a57600080fd5b83870192505b848310156111c157823582529183019190830190613150565b600082601f83011261317a57600080fd5b81356001600160401b03811115613193576131936130af565b6131a6601f8201601f19166020016130c5565b8181528460208386010111156131bb57600080fd5b816020850160208301376000918101602001919091529392505050565b600080600080600060a086880312156131f057600080fd5b85356131fb81612bcc565b9450602086013561320b81612bcc565b935060408601356001600160401b038082111561322757600080fd5b61323389838a016130f5565b9450606088013591508082111561324957600080fd5b61325589838a016130f5565b9350608088013591508082111561326b57600080fd5b5061327888828901613169565b9150509295509295909350565b6000806040838503121561329857600080fd5b82356132a381612bcc565b9150612bc360208401612b73565b600080602083850312156132c457600080fd5b82356001600160401b038111156132da57600080fd5b6132e685828601612cbb565b90969095509350505050565b600080600080600060a0868803121561330a57600080fd5b853561331581612bcc565b9450602086013561332581612bcc565b9350604086013592506060860135915060808601356001600160401b0381111561334e57600080fd5b61327888828901613169565b634e487b7160e01b600052603260045260246000fd5b634e487b7160e01b600052601160045260246000fd5b60006001820161339857613398613370565b5060010190565b600060ff821660ff81036133b5576133b5613370565b60010192915050565b6000602082840312156133d057600080fd5b61056a82612b89565b8082018082111561047f5761047f613370565b8183526000602080850194508260005b858110156134225760ff61340f83612b73565b16875295820195908201906001016133fc565b509495945050505050565b6040815260006134416040830186886133ec565b82810360208401528381526001600160fb1b0384111561346057600080fd5b8360051b80866020840137016020019695505050505050565b60006040828403121561348b57600080fd5b604051604081018181106001600160401b03821117156134ad576134ad6130af565b60405282356134bb81612bcc565b81526020928301359281019290925250919050565b6000855160005b818110156134f157602081890181015185830152016134d7565b5060f89590951b6001600160f81b0319169190940190815260609290921b6bffffffffffffffffffffffff19166001830152601582015260350192915050565b60006020828403121561354357600080fd5b815161056a81612bcc565b6020815260006106516020830184866133ec565b8181038181111561047f5761047f613370565b634e487b7160e01b600052603160045260246000fd5b60ff818116838216019081111561047f5761047f613370565b6020808252818101839052600090604080840186845b878110156135f05781356135cd81612bcc565b6001600160a01b03168352818501358584015291830191908301906001016135ba565b5090979650505050505050565b60008161360c5761360c613370565b506000190190565b60006020828403121561362657600080fd5b5051919050565b813561363881612bcc565b6001600160a01b0381166bffffffffffffffffffffffff60a01b8354161782555060208201356001820155505056fef6deb63e40d71b08820818e006e23fcceb1fce7a499bc15b71b2526cbf9efa72f672b8dc84d117c1e14949d8bc3977392b5ab7de9d01b854d389cdc31bf0d436a2646970667358221220ba278967f04d8c19b588d260f5e49cc1b6d2143958ed5bc24f8ac77e6f999d9f64736f6c63430008130033",
  "devdoc": {
    "details": "This contract is responsible for managing the inventory system for the Arcadians using slots.  It defines the functionality to equip and unequip items to Arcadians, check if a combination of items  are unique, and retrieve the inventory slots and allowed items for a slot.  This contract also implements ERC1155Holder to handle ERC1155 token transfers This contract can be used as a facet of a diamond which follows the EIP-2535 diamond standard. It also uses the ReentrancyGuard and Multicall contracts for security and gas efficiency.",
    "kind": "dev",
    "methods": {
      "addBaseModifierCoupons(address,uint8[],uint256[])": {
        "params": {
          "account": "The account to increase the number of coupons",
          "amounts": "the amounts of coupons to increase",
          "slotsIds": "The slots ids to increase the number of coupons"
        }
      },
      "allowItemsInSlot(uint8,(address,uint256)[])": {
        "params": {
          "items": "The list of items to allow in the slot",
          "slotId": "The slot id"
        }
      },
      "allowedSlot((address,uint256))": {
        "params": {
          "item": "The item to check"
        },
        "returns": {
          "_0": "The allowed slot id for the item. Slots are 1-indexed."
        }
      },
      "createSlot(bool,bool,(address,uint256)[])": {
        "details": "This function is only accessible to the manager roleSlots are 1-indexed",
        "params": {
          "isBase": "If the slot is base",
          "items": "The list of items to allow in the slot",
          "permanent": "Whether or not the slot can be unequipped once equipped"
        }
      },
      "disallowItems((address,uint256)[])": {
        "params": {
          "items": "The list of items to disallow in the slot"
        }
      },
      "equip(uint256,(address,uint256)[])": {
        "params": {
          "arcadianId": "The ID of the Arcadian NFT to equip the items for",
          "items": "An array of items to equip in the corresponding slots"
        }
      },
      "equipped(uint256,uint8)": {
        "params": {
          "arcadianId": "The ID of the Arcadian NFT to query",
          "slotId": "The slot id to query"
        }
      },
      "equippedAll(uint256)": {
        "params": {
          "arcadianId": "The ID of the Arcadian NFT to query"
        }
      },
      "equippedBatch(uint256,uint8[])": {
        "params": {
          "arcadianId": "The ID of the Arcadian NFT to query",
          "slotsIds": "The slots ids to query"
        }
      },
      "getBaseModifierCoupon(address,uint8)": {
        "params": {
          "account": "The accounts to increase the number of coupons",
          "slotId": "The slot to get the coupon amount from"
        }
      },
      "getBaseModifierCouponAll(address)": {
        "params": {
          "account": "The accounts to increase the number of coupons"
        }
      },
      "getBaseSlotsIds()": {
        "returns": {
          "_0": "List of base slots ids"
        }
      },
      "isArcadianUnique(uint256,(address,uint256)[])": {
        "details": "The uniqueness is calculated using the existent arcadian items and the input items as wellOnly items equipped in 'base' slots are considered for uniqueness",
        "params": {
          "arcadianId": "The ID of the Arcadian NFT to query",
          "items": "An array of items to check for uniqueness after \"equipped\" over the existent arcadian items."
        }
      },
      "numSlots()": {
        "details": "Slots are 1-indexed",
        "returns": {
          "_0": "The number of inventory slots "
        }
      },
      "setItemsTransferRequired((address,uint256)[],bool[])": {
        "params": {
          "items": "The list of items",
          "requiresTransfer": "If it requires item transfer to be equipped"
        }
      },
      "setSlotBase(uint8,bool)": {
        "details": "This function is only accessible to the manager roleSlots are 1-indexed",
        "params": {
          "isBase": "Whether or not the slot is base"
        }
      },
      "setSlotPermanent(uint8,bool)": {
        "details": "This function is only accessible to the manager roleSlots are 1-indexed",
        "params": {
          "permanent": "Whether or not the slot is permanent"
        }
      },
      "slot(uint8)": {
        "details": "Slots are 1-indexed",
        "params": {
          "slotId": "The ID of the inventory slot"
        },
        "returns": {
          "existentSlot": "The details of the inventory slot"
        }
      },
      "slotsAll()": {
        "details": "Slots are 1-indexed",
        "returns": {
          "existentSlots": "The details of all the inventory slots"
        }
      },
      "supportsInterface(bytes4)": {
        "details": "See {IERC165-supportsInterface}."
      },
      "unequip(uint256,uint8[])": {
        "params": {
          "arcadianId": "The ID of the Arcadian NFT to equip the item for",
          "slotsIds": "The slots ids in which the items will be unequipped"
        }
      }
    },
    "title": "InventoryFacet",
    "version": 1
  },
  "userdoc": {
    "kind": "user",
    "methods": {
      "addBaseModifierCoupons(address,uint8[],uint256[])": {
        "notice": "Adds coupons to accounts that allow to modify the base traits"
      },
      "allowItemsInSlot(uint8,(address,uint256)[])": {
        "notice": "Adds items to the list of allowed items for an inventory slot"
      },
      "allowedSlot((address,uint256))": {
        "notice": "Returns the allowed slot for a given item"
      },
      "createSlot(bool,bool,(address,uint256)[])": {
        "notice": "Creates a new inventory slot"
      },
      "disallowItems((address,uint256)[])": {
        "notice": "Removes items from the list of allowed items"
      },
      "equip(uint256,(address,uint256)[])": {
        "notice": "Equips multiple items to multiple slots for a specified Arcadian NFT"
      },
      "equipped(uint256,uint8)": {
        "notice": "Retrieves the equipped item in a slot for a specified Arcadian NFT"
      },
      "equippedAll(uint256)": {
        "notice": "Retrieves all the equipped items for a specified Arcadian NFT"
      },
      "equippedBatch(uint256,uint8[])": {
        "notice": "Retrieves the equipped items in the slot of an Arcadian NFT"
      },
      "getBaseModifierCoupon(address,uint8)": {
        "notice": "Returns the number coupons available for an account that allow to modify the base traits"
      },
      "getBaseModifierCouponAll(address)": {
        "notice": "Returns the number coupons available for an account that allow to modify the base traits"
      },
      "getBaseSlotsIds()": {
        "notice": "Returns all the base slots ids"
      },
      "isArcadianUnique(uint256,(address,uint256)[])": {
        "notice": "Indicates if a list of items applied to an the arcadian is unique"
      },
      "numSlots()": {
        "notice": "Returns the number of inventory slots"
      },
      "setItemsTransferRequired((address,uint256)[],bool[])": {
        "notice": "Sets the items transfer required on equip"
      },
      "setSlotBase(uint8,bool)": {
        "notice": "Sets the slot base property"
      },
      "setSlotPermanent(uint8,bool)": {
        "notice": "Sets the slot permanent property"
      },
      "slot(uint8)": {
        "notice": "Returns the details of an inventory slot given its ID"
      },
      "slotsAll()": {
        "notice": "Returns the details of all the existent slots"
      },
      "unequip(uint256,uint8[])": {
        "notice": "Unequips the items equipped in multiple slots for a specified Arcadian NFT"
      }
    },
    "version": 1
  },
  "storageLayout": {
    "storage": [],
    "types": null
  }
}