{
  "address": "0xf605734752638eB2858459290b390BA84e5C6F51",
  "abi": [
    {
      "inputs": [],
      "name": "ERC1155Base__ArrayLengthMismatch",
      "type": "error"
    },
    {
      "inputs": [],
      "name": "ERC1155Base__BalanceQueryZeroAddress",
      "type": "error"
    },
    {
      "inputs": [],
      "name": "ERC1155Base__BurnExceedsBalance",
      "type": "error"
    },
    {
      "inputs": [],
      "name": "ERC1155Base__BurnFromZeroAddress",
      "type": "error"
    },
    {
      "inputs": [],
      "name": "ERC1155Base__ERC1155ReceiverNotImplemented",
      "type": "error"
    },
    {
      "inputs": [],
      "name": "ERC1155Base__ERC1155ReceiverRejected",
      "type": "error"
    },
    {
      "inputs": [],
      "name": "ERC1155Base__MintToZeroAddress",
      "type": "error"
    },
    {
      "inputs": [],
      "name": "ERC1155Base__NotOwnerOrApproved",
      "type": "error"
    },
    {
      "inputs": [],
      "name": "ERC1155Base__SelfApproval",
      "type": "error"
    },
    {
      "inputs": [],
      "name": "ERC1155Base__TransferExceedsBalance",
      "type": "error"
    },
    {
      "inputs": [],
      "name": "ERC1155Base__TransferToZeroAddress",
      "type": "error"
    },
    {
      "inputs": [],
      "name": "EnumerableSet__IndexOutOfBounds",
      "type": "error"
    },
    {
      "inputs": [],
      "name": "Items_InputsLengthMistatch",
      "type": "error"
    },
    {
      "inputs": [],
      "name": "Items_InvalidItemId",
      "type": "error"
    },
    {
      "inputs": [],
      "name": "Items_ItemsBasicStatusAlreadyUpdated",
      "type": "error"
    },
    {
      "inputs": [],
      "name": "Items_MaximumItemMintsExceeded",
      "type": "error"
    },
    {
      "inputs": [],
      "name": "Items_MintingNonBasicItem",
      "type": "error"
    },
    {
      "inputs": [],
      "name": "ReentrancyGuard__ReentrantCall",
      "type": "error"
    },
    {
      "inputs": [],
      "name": "Roles_MissingAdminRole",
      "type": "error"
    },
    {
      "inputs": [],
      "name": "Roles_MissingAutomationRole",
      "type": "error"
    },
    {
      "inputs": [],
      "name": "Roles_MissingManagerRole",
      "type": "error"
    },
    {
      "anonymous": false,
      "inputs": [
        {
          "indexed": true,
          "internalType": "address",
          "name": "account",
          "type": "address"
        },
        {
          "indexed": true,
          "internalType": "address",
          "name": "operator",
          "type": "address"
        },
        {
          "indexed": false,
          "internalType": "bool",
          "name": "approved",
          "type": "bool"
        }
      ],
      "name": "ApprovalForAll",
      "type": "event"
    },
    {
      "anonymous": false,
      "inputs": [
        {
          "indexed": true,
          "internalType": "bytes32",
          "name": "role",
          "type": "bytes32"
        },
        {
          "indexed": true,
          "internalType": "bytes32",
          "name": "previousAdminRole",
          "type": "bytes32"
        },
        {
          "indexed": true,
          "internalType": "bytes32",
          "name": "newAdminRole",
          "type": "bytes32"
        }
      ],
      "name": "RoleAdminChanged",
      "type": "event"
    },
    {
      "anonymous": false,
      "inputs": [
        {
          "indexed": true,
          "internalType": "bytes32",
          "name": "role",
          "type": "bytes32"
        },
        {
          "indexed": true,
          "internalType": "address",
          "name": "account",
          "type": "address"
        },
        {
          "indexed": true,
          "internalType": "address",
          "name": "sender",
          "type": "address"
        }
      ],
      "name": "RoleGranted",
      "type": "event"
    },
    {
      "anonymous": false,
      "inputs": [
        {
          "indexed": true,
          "internalType": "bytes32",
          "name": "role",
          "type": "bytes32"
        },
        {
          "indexed": true,
          "internalType": "address",
          "name": "account",
          "type": "address"
        },
        {
          "indexed": true,
          "internalType": "address",
          "name": "sender",
          "type": "address"
        }
      ],
      "name": "RoleRevoked",
      "type": "event"
    },
    {
      "anonymous": false,
      "inputs": [
        {
          "indexed": true,
          "internalType": "address",
          "name": "operator",
          "type": "address"
        },
        {
          "indexed": true,
          "internalType": "address",
          "name": "from",
          "type": "address"
        },
        {
          "indexed": true,
          "internalType": "address",
          "name": "to",
          "type": "address"
        },
        {
          "indexed": false,
          "internalType": "uint256[]",
          "name": "ids",
          "type": "uint256[]"
        },
        {
          "indexed": false,
          "internalType": "uint256[]",
          "name": "values",
          "type": "uint256[]"
        }
      ],
      "name": "TransferBatch",
      "type": "event"
    },
    {
      "anonymous": false,
      "inputs": [
        {
          "indexed": true,
          "internalType": "address",
          "name": "operator",
          "type": "address"
        },
        {
          "indexed": true,
          "internalType": "address",
          "name": "from",
          "type": "address"
        },
        {
          "indexed": true,
          "internalType": "address",
          "name": "to",
          "type": "address"
        },
        {
          "indexed": false,
          "internalType": "uint256",
          "name": "id",
          "type": "uint256"
        },
        {
          "indexed": false,
          "internalType": "uint256",
          "name": "value",
          "type": "uint256"
        }
      ],
      "name": "TransferSingle",
      "type": "event"
    },
    {
      "anonymous": false,
      "inputs": [
        {
          "indexed": false,
          "internalType": "string",
          "name": "value",
          "type": "string"
        },
        {
          "indexed": true,
          "internalType": "uint256",
          "name": "tokenId",
          "type": "uint256"
        }
      ],
      "name": "URI",
      "type": "event"
    },
    {
      "inputs": [
        {
          "internalType": "uint256",
          "name": "id",
          "type": "uint256"
        }
      ],
      "name": "accountsByToken",
      "outputs": [
        {
          "internalType": "address[]",
          "name": "",
          "type": "address[]"
        }
      ],
      "stateMutability": "view",
      "type": "function"
    },
    {
      "inputs": [
        {
          "internalType": "address",
          "name": "account",
          "type": "address"
        },
        {
          "internalType": "uint256",
          "name": "id",
          "type": "uint256"
        }
      ],
      "name": "balanceOf",
      "outputs": [
        {
          "internalType": "uint256",
          "name": "",
          "type": "uint256"
        }
      ],
      "stateMutability": "view",
      "type": "function"
    },
    {
      "inputs": [
        {
          "internalType": "address[]",
          "name": "accounts",
          "type": "address[]"
        },
        {
          "internalType": "uint256[]",
          "name": "ids",
          "type": "uint256[]"
        }
      ],
      "name": "balanceOfBatch",
      "outputs": [
        {
          "internalType": "uint256[]",
          "name": "",
          "type": "uint256[]"
        }
      ],
      "stateMutability": "view",
      "type": "function"
    },
    {
      "inputs": [
        {
          "internalType": "uint256",
          "name": "itemId",
          "type": "uint256"
        },
        {
          "internalType": "uint256",
          "name": "amount",
          "type": "uint256"
        }
      ],
      "name": "burn",
      "outputs": [],
      "stateMutability": "nonpayable",
      "type": "function"
    },
    {
      "inputs": [
        {
          "internalType": "uint256[]",
          "name": "itemIds",
          "type": "uint256[]"
        },
        {
          "internalType": "uint256[]",
          "name": "amounts",
          "type": "uint256[]"
        }
      ],
      "name": "burnBatch",
      "outputs": [],
      "stateMutability": "nonpayable",
      "type": "function"
    },
    {
      "inputs": [],
      "name": "getInventoryAddress",
      "outputs": [
        {
          "internalType": "address",
          "name": "",
          "type": "address"
        }
      ],
      "stateMutability": "view",
      "type": "function"
    },
    {
      "inputs": [
        {
          "internalType": "address",
          "name": "account",
          "type": "address"
        },
        {
          "internalType": "address",
          "name": "operator",
          "type": "address"
        }
      ],
      "name": "isApprovedForAll",
      "outputs": [
        {
          "internalType": "bool",
          "name": "",
          "type": "bool"
        }
      ],
      "stateMutability": "view",
      "type": "function"
    },
    {
      "inputs": [
        {
          "internalType": "string",
          "name": "newBaseURI",
          "type": "string"
        },
        {
          "internalType": "bool",
          "name": "migrate",
          "type": "bool"
        }
      ],
      "name": "migrateToIPFS",
      "outputs": [],
      "stateMutability": "nonpayable",
      "type": "function"
    },
    {
      "inputs": [
        {
          "internalType": "address",
          "name": "to",
          "type": "address"
        },
        {
          "internalType": "uint256",
          "name": "itemId",
          "type": "uint256"
        },
        {
          "internalType": "uint256",
          "name": "amount",
          "type": "uint256"
        }
      ],
      "name": "mint",
      "outputs": [],
      "stateMutability": "nonpayable",
      "type": "function"
    },
    {
      "inputs": [
        {
          "internalType": "address",
          "name": "to",
          "type": "address"
        },
        {
          "internalType": "uint256[]",
          "name": "itemIds",
          "type": "uint256[]"
        },
        {
          "internalType": "uint256[]",
          "name": "amounts",
          "type": "uint256[]"
        }
      ],
      "name": "mintBatch",
      "outputs": [],
      "stateMutability": "nonpayable",
      "type": "function"
    },
    {
      "inputs": [
        {
          "internalType": "bytes[]",
          "name": "data",
          "type": "bytes[]"
        }
      ],
      "name": "multicall",
      "outputs": [
        {
          "internalType": "bytes[]",
          "name": "results",
          "type": "bytes[]"
        }
      ],
      "stateMutability": "nonpayable",
      "type": "function"
    },
    {
      "inputs": [
        {
          "internalType": "address",
          "name": "from",
          "type": "address"
        },
        {
          "internalType": "address",
          "name": "to",
          "type": "address"
        },
        {
          "internalType": "uint256[]",
          "name": "ids",
          "type": "uint256[]"
        },
        {
          "internalType": "uint256[]",
          "name": "amounts",
          "type": "uint256[]"
        },
        {
          "internalType": "bytes",
          "name": "data",
          "type": "bytes"
        }
      ],
      "name": "safeBatchTransferFrom",
      "outputs": [],
      "stateMutability": "nonpayable",
      "type": "function"
    },
    {
      "inputs": [
        {
          "internalType": "address",
          "name": "from",
          "type": "address"
        },
        {
          "internalType": "address",
          "name": "to",
          "type": "address"
        },
        {
          "internalType": "uint256",
          "name": "id",
          "type": "uint256"
        },
        {
          "internalType": "uint256",
          "name": "amount",
          "type": "uint256"
        },
        {
          "internalType": "bytes",
          "name": "data",
          "type": "bytes"
        }
      ],
      "name": "safeTransferFrom",
      "outputs": [],
      "stateMutability": "nonpayable",
      "type": "function"
    },
    {
      "inputs": [
        {
          "internalType": "address",
          "name": "operator",
          "type": "address"
        },
        {
          "internalType": "bool",
          "name": "status",
          "type": "bool"
        }
      ],
      "name": "setApprovalForAll",
      "outputs": [],
      "stateMutability": "nonpayable",
      "type": "function"
    },
    {
      "inputs": [
        {
          "internalType": "string",
          "name": "baseURI",
          "type": "string"
        }
      ],
      "name": "setBaseURI",
      "outputs": [],
      "stateMutability": "nonpayable",
      "type": "function"
    },
    {
      "inputs": [
        {
          "internalType": "address",
          "name": "inventoryAddress",
          "type": "address"
        }
      ],
      "name": "setInventoryAddress",
      "outputs": [],
      "stateMutability": "nonpayable",
      "type": "function"
    },
    {
      "inputs": [
        {
          "internalType": "uint256",
          "name": "tokenId",
          "type": "uint256"
        },
        {
          "internalType": "string",
          "name": "tokenURI",
          "type": "string"
        }
      ],
      "name": "setTokenURI",
      "outputs": [],
      "stateMutability": "nonpayable",
      "type": "function"
    },
    {
      "inputs": [
        {
          "internalType": "bytes4",
          "name": "_interface",
          "type": "bytes4"
        }
      ],
      "name": "supportsInterface",
      "outputs": [
        {
          "internalType": "bool",
          "name": "",
          "type": "bool"
        }
      ],
      "stateMutability": "pure",
      "type": "function"
    },
    {
      "inputs": [
        {
          "internalType": "address",
          "name": "account",
          "type": "address"
        }
      ],
      "name": "tokensByAccount",
      "outputs": [
        {
          "internalType": "uint256[]",
          "name": "",
          "type": "uint256[]"
        }
      ],
      "stateMutability": "view",
      "type": "function"
    },
    {
      "inputs": [
        {
          "internalType": "uint256",
          "name": "id",
          "type": "uint256"
        }
      ],
      "name": "totalHolders",
      "outputs": [
        {
          "internalType": "uint256",
          "name": "",
          "type": "uint256"
        }
      ],
      "stateMutability": "view",
      "type": "function"
    },
    {
      "inputs": [
        {
          "internalType": "uint256",
          "name": "id",
          "type": "uint256"
        }
      ],
      "name": "totalSupply",
      "outputs": [
        {
          "internalType": "uint256",
          "name": "",
          "type": "uint256"
        }
      ],
      "stateMutability": "view",
      "type": "function"
    },
    {
      "inputs": [
        {
          "internalType": "uint256",
          "name": "tokenId",
          "type": "uint256"
        }
      ],
      "name": "uri",
      "outputs": [
        {
          "internalType": "string",
          "name": "",
          "type": "string"
        }
      ],
      "stateMutability": "view",
      "type": "function"
    }
  ],
  "transactionHash": "0x4283f48fe91d3790a9351133f9ca27d30acdc41568e1e76b734a6aa7c0ecc154",
  "args": [],
  "numDeployments": 2,
  "solcInputHash": "3e3d4f461e0f2b62facd0504ca9078d8",
  "bytecode": "0x608060405234801561001057600080fd5b50612dc2806100206000396000f3fe608060405234801561001057600080fd5b50600436106101415760003560e01c806385bff2e7116100b8578063bd85b0391161007c578063bd85b039146102ed578063c22cbb5d14610300578063cdc11b1114610313578063d81d0a1514610326578063e985e9c514610339578063f242432a1461034c57600080fd5b806385bff2e714610274578063a22cb46514610287578063ac9650d81461029a578063b390c0ab146102ba578063ba58bb17146102cd57600080fd5b8063162094c41161010a578063162094c4146101e85780632eb2c2d6146101fb5780634e1273f41461020e57806355f804b31461022e5780636dcfd8411461024157806383ca4b6f1461026157600080fd5b8062fdd58e1461014657806301ffc9a71461016c5780630e89341c146101a057806313ba55df146101c0578063156e29f6146101d3575b600080fd5b6101596101543660046120c9565b61035f565b6040519081526020015b60405180910390f35b61019061017a366004612109565b6001600160e01b031916636cdb3d1360e11b1490565b6040519015158152602001610163565b6101b36101ae36600461212d565b610374565b6040516101639190612196565b6101596101ce36600461212d565b6103de565b6101e66101e13660046121a9565b6103e9565b005b6101e66101f6366004612224565b610435565b6101e66102093660046123b8565b6104ab565b61022161021c366004612461565b6104fd565b6040516101639190612566565b6101e661023c366004612579565b610667565b61025461024f36600461212d565b6106e0565b60405161016391906125ba565b6101e661026f366004612607565b6106eb565b610221610282366004612653565b6106f6565b6101e661029536600461267e565b610701565b6102ad6102a83660046126f5565b6107b5565b604051610163919061272a565b6101e66102c836600461278c565b6108cf565b6102d56108da565b6040516001600160a01b039091168152602001610163565b6101596102fb36600461212d565b610912565b6101e661030e366004612653565b610945565b6101e66103213660046127ae565b6109c8565b6101e6610334366004612801565b610a09565b610190610347366004612881565b610a4c565b6101e661035a3660046128ab565b610a99565b600061036b8383610b29565b90505b92915050565b7f333d4b734a9ca3847483bf4c14a14709d21907ff5f12a881347e2fb2ad8906d75460609060ff16156103d0576103aa82610b87565b6040516020016103ba919061290f565b6040516020818303038152906040529050919050565b61036e82610b87565b919050565b600061036e82610d56565b610408610402600080516020612d4d8339815191525490565b33610d8c565b6104255760405163d0befa1d60e01b815260040160405180910390fd5b610430838383610dc3565b505050565b61044e610402600080516020612d4d8339815191525490565b61046b5760405163d0befa1d60e01b815260040160405180910390fd5b6104308383838080601f016020809104026020016040519081016040528093929190818152602001838380828437600092019190915250610e0092505050565b6001600160a01b03851633148015906104cb57506104c98533610a4c565b155b156104e8576040516212efed60e91b815260040160405180910390fd5b6104f6338686868686610e74565b5050505050565b6060815183511461052157604051633e7e0b6d60e11b815260040160405180910390fd5b8251600080516020612d6d833981519152906000906001600160401b0381111561054d5761054d61226f565b604051908082528060200260200182016040528015610576578160200160208202803683370190505b50905060005b855181101561065e5760006001600160a01b03168682815181106105a2576105a2612938565b60200260200101516001600160a01b0316036105d15760405163db5d879760e01b815260040160405180910390fd5b8260008683815181106105e6576105e6612938565b60200260200101518152602001908152602001600020600087838151811061061057610610612938565b60200260200101516001600160a01b03166001600160a01b031681526020019081526020016000205482828151811061064b5761064b612938565b602090810291909101015260010161057c565b50949350505050565b610680610402600080516020612d4d8339815191525490565b61069d5760405163d0befa1d60e01b815260040160405180910390fd5b6106dc82828080601f016020809104026020016040519081016040528093929190818152602001838380828437600092019190915250610e9892505050565b5050565b606061036e82610ec3565b6106dc338383610f96565b606061036e82611150565b6001600160a01b038216330361072a57604051637b30a93360e11b815260040160405180910390fd5b3360008181527f1799cf914cb0cb442ca7c7ac709ee40d0cb89e87351dc08d517fbda27d50c68c602090815260408083206001600160a01b03871680855290835292819020805460ff191686151590811790915590519081529192917f17307eab39ab6107e8899845ad3d59bd9653f200f220920489ca2b5937696c31910160405180910390a35050565b6060816001600160401b038111156107cf576107cf61226f565b60405190808252806020026020018201604052801561080257816020015b60608152602001906001900390816107ed5790505b50905060005b828110156108c8576000803086868581811061082657610826612938565b9050602002810190610838919061294e565b604051610846929190612994565b600060405180830381855af49150503d8060008114610881576040519150601f19603f3d011682016040523d82523d6000602084013e610886565b606091505b509150915081156108b457808484815181106108a4576108a4612938565b60200260200101819052506108be565b3d6000803e3d6000fd5b5050600101610808565b5092915050565b6106dc338383611218565b600061090d7f333d4b734a9ca3847483bf4c14a14709d21907ff5f12a881347e2fb2ad8906da546001600160a01b031690565b905090565b60008181527fb31c2c74f86ca3ce94d901f5f5bbe66f7161eec2f7b5aa0b75a86371436424ea602052604081205461036e565b61095e610402600080516020612d4d8339815191525490565b61097b5760405163d0befa1d60e01b815260040160405180910390fd5b7f333d4b734a9ca3847483bf4c14a14709d21907ff5f12a881347e2fb2ad8906da805473ffffffffffffffffffffffffffffffffffffffff19166001600160a01b03831617905550565b50565b6109e1610402600080516020612d4d8339815191525490565b6109fe5760405163d0befa1d60e01b815260040160405180910390fd5b610430838383611317565b610a22610402600080516020612d4d8339815191525490565b610a3f5760405163d0befa1d60e01b815260040160405180910390fd5b6104f6858585858561138a565b6001600160a01b0391821660009081527f1799cf914cb0cb442ca7c7ac709ee40d0cb89e87351dc08d517fbda27d50c68c6020908152604080832093909416825291909152205460ff1690565b6001600160a01b0385163314801590610ab95750610ab78533610a4c565b155b8015610afe575033610af27f333d4b734a9ca3847483bf4c14a14709d21907ff5f12a881347e2fb2ad8906da546001600160a01b031690565b6001600160a01b031614155b15610b1b576040516212efed60e91b815260040160405180910390fd5b6104f6338686868686611463565b60006001600160a01b038316610b525760405163db5d879760e01b815260040160405180910390fd5b600080516020612d6d8339815191526000928352602090815260408084206001600160a01b0395909516845293905250205490565b60008181527f4281b61aefbe70b3d3f684b428efca5f33077bc240e76f2808f9177c307617f56020526040812080546060927f4281b61aefbe70b3d3f684b428efca5f33077bc240e76f2808f9177c307617f4929091610be6906129a4565b80601f0160208091040260200160405190810160405280929190818152602001828054610c12906129a4565b8015610c5f5780601f10610c3457610100808354040283529160200191610c5f565b820191906000526020600020905b815481529060010190602001808311610c4257829003601f168201915b505050505090506000826000018054610c77906129a4565b80601f0160208091040260200160405190810160405280929190818152602001828054610ca3906129a4565b8015610cf05780601f10610cc557610100808354040283529160200191610cf0565b820191906000526020600020905b815481529060010190602001808311610cd357829003601f168201915b505050505090508051600003610d0857509392505050565b815115610d3b578082604051602001610d229291906129de565b6040516020818303038152906040529350505050919050565b80610d458661147f565b604051602001610d229291906129de565b60008181527fb31c2c74f86ca3ce94d901f5f5bbe66f7161eec2f7b5aa0b75a86371436424eb6020526040812061036e90611587565b60008281527fd3889cc5458b268d0544e5534672df1296288ca3f93cbd39bd6f497a5c6228116020526040812061036b9083611591565b6001821015610de55760405163225c19bb60e11b815260040160405180910390fd5b610430838383604051806020016040528060008152506115b3565b60008281527f4281b61aefbe70b3d3f684b428efca5f33077bc240e76f2808f9177c307617f560205260409020610e378282612a53565b50817f6bb7ff708619ba0610cba295a58592e0451dee2622938c8755667688daf3529b82604051610e689190612196565b60405180910390a25050565b610e82868686868686611683565b610e9086868686868661182c565b505050505050565b7f4281b61aefbe70b3d3f684b428efca5f33077bc240e76f2808f9177c307617f46106dc8282612a53565b60008181527fb31c2c74f86ca3ce94d901f5f5bbe66f7161eec2f7b5aa0b75a86371436424eb60205260408120606091610efc82611587565b6001600160401b03811115610f1357610f1361226f565b604051908082528060200260200182016040528015610f3c578160200160208202803683370190505b50905060005b610f4b83611587565b811015610f8e57610f5c838261194e565b828281518110610f6e57610f6e612938565b6001600160a01b0390921660209283029190910190910152600101610f42565b509392505050565b6001600160a01b038316610fbd5760405163baa75df760e01b815260040160405180910390fd5b8051825114610fdf57604051633e7e0b6d60e11b815260040160405180910390fd5b610ffd3384600085856040518060200160405280600081525061195a565b600080516020612d6d83398151915260005b83518110156110f157600084828151811061102c5761102c612938565b602002602001015190508260008281526020019081526020016000206000876001600160a01b03166001600160a01b031681526020019081526020016000205484838151811061107e5761107e612938565b602002602001015111156110a557604051634190713d60e01b815260040160405180910390fd5b8382815181106110b7576110b7612938565b602090810291909101810151600092835284825260408084206001600160a01b038a1685529092529120805491909103905560010161100f565b5060006001600160a01b0316846001600160a01b0316336001600160a01b03167f4a39dc06d4c0dbc64b70af90fd698a233a518aa5d07e595d983b8c0526c8f7fb8686604051611142929190612b12565b60405180910390a450505050565b6001600160a01b03811660009081527fb31c2c74f86ca3ce94d901f5f5bbe66f7161eec2f7b5aa0b75a86371436424ec6020526040812060609161119382611587565b6001600160401b038111156111aa576111aa61226f565b6040519080825280602002602001820160405280156111d3578160200160208202803683370190505b50905060005b6111e283611587565b811015610f8e576111f3838261194e565b82828151811061120557611205612938565b60209081029190910101526001016111d9565b6001600160a01b03831661123f5760405163baa75df760e01b815260040160405180910390fd5b61126d3384600061124f86611968565b61125886611968565b6040518060200160405280600081525061195a565b6000828152600080516020612d6d833981519152602090815260408083206001600160a01b038716845291829052909120548211156112bf57604051634190713d60e01b815260040160405180910390fd5b6001600160a01b03841660008181526020838152604080832080548790039055805187815291820186905291929133917fc3d58168c5ae7397731d063d5bbf3d657854427343f4c083240f7aacaa2d0f629101611142565b61135683838080601f016020809104026020016040519081016040528093929190818152602001838380828437600092019190915250610e9892505050565b7f333d4b734a9ca3847483bf4c14a14709d21907ff5f12a881347e2fb2ad8906d7805460ff19169115159190911790555050565b60016113c88585808060200260200160405190810160405280939291908181526020018383602002808284376000920191909152506119b392505050565b10156113e75760405163225c19bb60e11b815260040160405180910390fd5b6104f68585858080602002602001604051908101604052809392919081815260200183836020028082843760009201919091525050604080516020808902828101820190935288825290935088925087918291850190849080828437600092018290525060408051602081019091529081529250611a09915050565b611471868686868686611b60565b610e90868686868686611c76565b6060816000036114a65750506040805180820190915260018152600360fc1b602082015290565b8160005b81156114d057806114ba81612b56565b91506114c99050600a83612b85565b91506114aa565b6000816001600160401b038111156114ea576114ea61226f565b6040519080825280601f01601f191660200182016040528015611514576020820181803683370190505b5090505b841561157f57611529600183612b99565b9150611536600a86612bac565b611541906030612bc0565b60f81b81838151811061155657611556612938565b60200101906001600160f81b031916908160001a905350611578600a86612b85565b9450611518565b949350505050565b600061036e825490565b6001600160a01b0381166000908152600183016020526040812054151561036b565b6001600160a01b0384166115da576040516301c8efbf60e11b815260040160405180910390fd5b6115f9336000866115ea87611968565b6115f387611968565b8661195a565b6000838152600080516020612d6d833981519152602090815260408083206001600160a01b038816845290915281208054849290611638908490612bc0565b909155505060408051848152602081018490526001600160a01b0386169160009133917fc3d58168c5ae7397731d063d5bbf3d657854427343f4c083240f7aacaa2d0f629101611142565b6001600160a01b0384166116aa5760405163f5cadad560e01b815260040160405180910390fd5b81518351146116cc57604051633e7e0b6d60e11b815260040160405180910390fd5b6116da86868686868661195a565b600080516020612d6d83398151915260005b84518110156117cb57600085828151811061170957611709612938565b60200260200101519050600085838151811061172757611727612938565b602090810291909101810151600084815286835260408082206001600160a01b038e1683529093529190912054909150808211156117785760405163119ac6bb60e31b815260040160405180910390fd5b6000838152602086815260408083206001600160a01b038e811685529252808320938590039093558a1681529081208054600195909501948392906117be908490612bc0565b909155506116ec92505050565b50846001600160a01b0316866001600160a01b0316886001600160a01b03167f4a39dc06d4c0dbc64b70af90fd698a233a518aa5d07e595d983b8c0526c8f7fb878760405161181b929190612b12565b60405180910390a450505050505050565b6001600160a01b0384163b15610e905760405163bc197c8160e01b81526001600160a01b0385169063bc197c81906118709089908990889088908890600401612bd3565b6020604051808303816000875af19250505080156118ab575060408051601f3d908101601f191682019092526118a891810190612c31565b60015b611914576118b7612c4e565b806308c379a0036118f957506118cb612c6a565b806118d657506118fb565b8060405162461bcd60e51b81526004016118f09190612196565b60405180910390fd5b505b60405163380147a960e01b815260040160405180910390fd5b6001600160e01b0319811663bc197c8160e01b1461194557604051633744db2960e01b815260040160405180910390fd5b50505050505050565b600061036b8383611d32565b610e90868686868686611d7e565b604080516001808252818301909252606091600091906020808301908036833701905050905082816000815181106119a2576119a2612938565b602090810291909101015292915050565b6000600019815b83518110156108c857818482815181106119d6576119d6612938565b60200260200101511015611a01578381815181106119f6576119f6612938565b602002602001015191505b6001016119ba565b6001600160a01b038416611a30576040516301c8efbf60e11b815260040160405180910390fd5b8151835114611a5257604051633e7e0b6d60e11b815260040160405180910390fd5b611a613360008686868661195a565b600080516020612d6d83398151915260005b8451811015611b0057838181518110611a8e57611a8e612938565b6020026020010151826000878481518110611aab57611aab612938565b602002602001015181526020019081526020016000206000886001600160a01b03166001600160a01b031681526020019081526020016000206000828254611af39190612bc0565b9091555050600101611a73565b50846001600160a01b031660006001600160a01b0316336001600160a01b03167f4a39dc06d4c0dbc64b70af90fd698a233a518aa5d07e595d983b8c0526c8f7fb8787604051611b51929190612b12565b60405180910390a45050505050565b6001600160a01b038416611b875760405163f5cadad560e01b815260040160405180910390fd5b611b968686866115ea87611968565b6000838152600080516020612d6d833981519152602081815260408084206001600160a01b038a1685529091529091205480841115611be85760405163119ac6bb60e31b815260040160405180910390fd5b6000858152602083815260408083206001600160a01b038b81168552925280832093879003909355871681529081208054859290611c27908490612bc0565b909155505060408051858152602081018590526001600160a01b038088169289821692918b16917fc3d58168c5ae7397731d063d5bbf3d657854427343f4c083240f7aacaa2d0f62910161181b565b6001600160a01b0384163b15610e905760405163f23a6e6160e01b81526001600160a01b0385169063f23a6e6190611cba9089908990889088908890600401612cf3565b6020604051808303816000875af1925050508015611cf5575060408051601f3d908101601f19168201909252611cf291810190612c31565b60015b611d01576118b7612c4e565b6001600160e01b0319811663f23a6e6160e01b1461194557604051633744db2960e01b815260040160405180910390fd5b81546000908210611d565760405163e637bf3b60e01b815260040160405180910390fd5b826000018281548110611d6b57611d6b612938565b9060005260206000200154905092915050565b610e90868686868686836001600160a01b0316856001600160a01b031614610e90576001600160a01b0385811660009081527fb31c2c74f86ca3ce94d901f5f5bbe66f7161eec2f7b5aa0b75a86371436424ec6020526040808220928716825281207fb31c2c74f86ca3ce94d901f5f5bbe66f7161eec2f7b5aa0b75a86371436424ea927fb31c2c74f86ca3ce94d901f5f5bbe66f7161eec2f7b5aa0b75a86371436424eb929091905b8751811015611f66576000878281518110611e4557611e45612938565b602002602001015190506000811115611f5d576000898381518110611e6c57611e6c612938565b6020026020010151905060006001600160a01b03168c6001600160a01b031603611eb95760008181526020889052604081208054849290611eae908490612bc0565b90915550611eee9050565b81611ec48d83610b29565b03611eee576000818152602087905260409020611ee1908d611f73565b50611eec8582611f88565b505b6001600160a01b038b16611f255760008181526020889052604081208054849290611f1a908490612b99565b90915550611f5b9050565b611f2f8b82610b29565b600003611f5b576000818152602087905260409020611f4e908c611f94565b50611f598482611fa9565b505b505b50600101611e28565b5050505050505050505050565b600061036b836001600160a01b038416611fb5565b600061036b8383611fb5565b600061036b836001600160a01b03841661206f565b600061036b838361206f565b600081815260018301602052604081205480156108c857835460009085906000198101908110611fe757611fe7612938565b906000526020600020015490508085600001600184038154811061200d5761200d612938565b600091825260208083209091019290925591825260018601905260409020819055835484908061203f5761203f612d36565b60008281526020808220830160001990810183905590920190925593815260019485019093525050604081205590565b600081815260018301602052604081205461036e575081546001808201845560008481526020808220909301849055845493815293810190915260409092205590565b80356001600160a01b03811681146103d957600080fd5b600080604083850312156120dc57600080fd5b6120e5836120b2565b946020939093013593505050565b6001600160e01b0319811681146109c557600080fd5b60006020828403121561211b57600080fd5b8135612126816120f3565b9392505050565b60006020828403121561213f57600080fd5b5035919050565b60005b83811015612161578181015183820152602001612149565b50506000910152565b60008151808452612182816020860160208601612146565b601f01601f19169290920160200192915050565b60208152600061036b602083018461216a565b6000806000606084860312156121be57600080fd5b6121c7846120b2565b95602085013595506040909401359392505050565b60008083601f8401126121ee57600080fd5b5081356001600160401b0381111561220557600080fd5b60208301915083602082850101111561221d57600080fd5b9250929050565b60008060006040848603121561223957600080fd5b8335925060208401356001600160401b0381111561225657600080fd5b612262868287016121dc565b9497909650939450505050565b634e487b7160e01b600052604160045260246000fd5b601f8201601f191681016001600160401b03811182821017156122aa576122aa61226f565b6040525050565b60006001600160401b038211156122ca576122ca61226f565b5060051b60200190565b600082601f8301126122e557600080fd5b813560206122f2826122b1565b6040516122ff8282612285565b83815260059390931b850182019282810191508684111561231f57600080fd5b8286015b8481101561233a5780358352918301918301612323565b509695505050505050565b600082601f83011261235657600080fd5b81356001600160401b0381111561236f5761236f61226f565b604051612386601f8301601f191660200182612285565b81815284602083860101111561239b57600080fd5b816020850160208301376000918101602001919091529392505050565b600080600080600060a086880312156123d057600080fd5b6123d9866120b2565b94506123e7602087016120b2565b935060408601356001600160401b038082111561240357600080fd5b61240f89838a016122d4565b9450606088013591508082111561242557600080fd5b61243189838a016122d4565b9350608088013591508082111561244757600080fd5b5061245488828901612345565b9150509295509295909350565b6000806040838503121561247457600080fd5b82356001600160401b038082111561248b57600080fd5b818501915085601f83011261249f57600080fd5b813560206124ac826122b1565b6040516124b98282612285565b83815260059390931b85018201928281019150898411156124d957600080fd5b948201945b838610156124fe576124ef866120b2565b825294820194908201906124de565b9650508601359250508082111561251457600080fd5b50612521858286016122d4565b9150509250929050565b600081518084526020808501945080840160005b8381101561255b5781518752958201959082019060010161253f565b509495945050505050565b60208152600061036b602083018461252b565b6000806020838503121561258c57600080fd5b82356001600160401b038111156125a257600080fd5b6125ae858286016121dc565b90969095509350505050565b6020808252825182820181905260009190848201906040850190845b818110156125fb5783516001600160a01b0316835292840192918401916001016125d6565b50909695505050505050565b6000806040838503121561261a57600080fd5b82356001600160401b038082111561263157600080fd5b61263d868387016122d4565b9350602085013591508082111561251457600080fd5b60006020828403121561266557600080fd5b61036b826120b2565b803580151581146103d957600080fd5b6000806040838503121561269157600080fd5b61269a836120b2565b91506126a86020840161266e565b90509250929050565b60008083601f8401126126c357600080fd5b5081356001600160401b038111156126da57600080fd5b6020830191508360208260051b850101111561221d57600080fd5b6000806020838503121561270857600080fd5b82356001600160401b0381111561271e57600080fd5b6125ae858286016126b1565b6000602080830181845280855180835260408601915060408160051b870101925083870160005b8281101561277f57603f1988860301845261276d85835161216a565b94509285019290850190600101612751565b5092979650505050505050565b6000806040838503121561279f57600080fd5b50508035926020909101359150565b6000806000604084860312156127c357600080fd5b83356001600160401b038111156127d957600080fd5b6127e5868287016121dc565b90945092506127f890506020850161266e565b90509250925092565b60008060008060006060868803121561281957600080fd5b612822866120b2565b945060208601356001600160401b038082111561283e57600080fd5b61284a89838a016126b1565b9096509450604088013591508082111561286357600080fd5b50612870888289016126b1565b969995985093965092949392505050565b6000806040838503121561289457600080fd5b61289d836120b2565b91506126a8602084016120b2565b600080600080600060a086880312156128c357600080fd5b6128cc866120b2565b94506128da602087016120b2565b9350604086013592506060860135915060808601356001600160401b0381111561290357600080fd5b61245488828901612345565b60008251612921818460208701612146565b64173539b7b760d91b920191825250600501919050565b634e487b7160e01b600052603260045260246000fd5b6000808335601e1984360301811261296557600080fd5b8301803591506001600160401b0382111561297f57600080fd5b60200191503681900382131561221d57600080fd5b8183823760009101908152919050565b600181811c908216806129b857607f821691505b6020821081036129d857634e487b7160e01b600052602260045260246000fd5b50919050565b600083516129f0818460208801612146565b835190830190612a04818360208801612146565b01949350505050565b601f82111561043057600081815260208120601f850160051c81016020861015612a345750805b601f850160051c820191505b81811015610e9057828155600101612a40565b81516001600160401b03811115612a6c57612a6c61226f565b612a8081612a7a84546129a4565b84612a0d565b602080601f831160018114612ab55760008415612a9d5750858301515b600019600386901b1c1916600185901b178555610e90565b600085815260208120601f198616915b82811015612ae457888601518255948401946001909101908401612ac5565b5085821015612b025787850151600019600388901b60f8161c191681555b5050505050600190811b01905550565b604081526000612b25604083018561252b565b8281036020840152612b37818561252b565b95945050505050565b634e487b7160e01b600052601160045260246000fd5b600060018201612b6857612b68612b40565b5060010190565b634e487b7160e01b600052601260045260246000fd5b600082612b9457612b94612b6f565b500490565b8181038181111561036e5761036e612b40565b600082612bbb57612bbb612b6f565b500690565b8082018082111561036e5761036e612b40565b60006001600160a01b03808816835280871660208401525060a06040830152612bff60a083018661252b565b8281036060840152612c11818661252b565b90508281036080840152612c25818561216a565b98975050505050505050565b600060208284031215612c4357600080fd5b8151612126816120f3565b600060033d1115612c675760046000803e5060005160e01c5b90565b600060443d1015612c785790565b6040516003193d81016004833e81513d6001600160401b038160248401118184111715612ca757505050505090565b8285019150815181811115612cbf5750505050505090565b843d8701016020828501011115612cd95750505050505090565b612ce860208286010187612285565b509095945050505050565b60006001600160a01b03808816835280871660208401525084604083015283606083015260a06080830152612d2b60a083018461216a565b979650505050505050565b634e487b7160e01b600052603160045260246000fdfef6deb63e40d71b08820818e006e23fcceb1fce7a499bc15b71b2526cbf9efa721799cf914cb0cb442ca7c7ac709ee40d0cb89e87351dc08d517fbda27d50c68ba2646970667358221220660e06dff5a93b450d5cade08516d68459130955cd4cf9487add558684d1270564736f6c63430008130033",
  "devdoc": {
    "details": "This contract handles the creation and management of items It uses ERC1155 tokens to represent items and provides methods to mint new items, claim items via Merkle tree or a whitelist, and set the base and URIs for the items. It also uses the ReentrancyGuard and Multicall contracts for security and gas efficiency.",
    "kind": "dev",
    "methods": {
      "accountsByToken(uint256)": {
        "params": {
          "id": "token id to query"
        },
        "returns": {
          "_0": "list of holder addresses"
        }
      },
      "balanceOf(address,uint256)": {
        "params": {
          "account": "address to query",
          "id": "token to query"
        },
        "returns": {
          "_0": "token balance"
        }
      },
      "balanceOfBatch(address[],uint256[])": {
        "params": {
          "accounts": "addresss to query",
          "ids": "tokens to query"
        },
        "returns": {
          "_0": "token balances"
        }
      },
      "burn(uint256,uint256)": {
        "params": {
          "amount": "The item amount to burn",
          "itemId": "The ID of the item to burn"
        }
      },
      "burnBatch(uint256[],uint256[])": {
        "params": {
          "amounts": "The item amounts to be minted",
          "itemIds": "The item ID burn"
        }
      },
      "getInventoryAddress()": {
        "details": "Returns the current inventory address",
        "returns": {
          "_0": "The address of the inventory contract"
        }
      },
      "isApprovedForAll(address,address)": {
        "params": {
          "account": "address to query for approval granted",
          "operator": "address to query for approval received"
        },
        "returns": {
          "_0": "whether operator is approved to spend tokens held by account"
        }
      },
      "migrateToIPFS(string,bool)": {
        "details": "Only the manager role can call this function",
        "params": {
          "migrate": "Should migrate to IPFS",
          "newBaseURI": "The new base URI"
        }
      },
      "mint(address,uint256,uint256)": {
        "params": {
          "amount": "The item amount to be minted",
          "itemId": "The ID of the item to mint",
          "to": "The address to mint the item to"
        }
      },
      "mintBatch(address,uint256[],uint256[])": {
        "params": {
          "amounts": "The items amounts to be minted",
          "itemIds": "An array of items IDs to be minted",
          "to": "The address to receive the minted items"
        }
      },
      "multicall(bytes[])": {
        "params": {
          "data": "array of function call data payloads"
        },
        "returns": {
          "results": "array of function call results"
        }
      },
      "safeBatchTransferFrom(address,address,uint256[],uint256[],bytes)": {
        "params": {
          "amounts": "list of quantities of tokens to transfer",
          "data": "data payload",
          "from": "sender of tokens",
          "ids": "list of token IDs",
          "to": "receiver of tokens"
        }
      },
      "safeTransferFrom(address,address,uint256,uint256,bytes)": {
        "params": {
          "amount": "quantity of tokens to transfer",
          "data": "data payload",
          "from": "sender of tokens",
          "id": "token ID",
          "to": "receiver of tokens"
        }
      },
      "setApprovalForAll(address,bool)": {
        "params": {
          "operator": "address whose approval status to update",
          "status": "whether operator should be considered approved"
        }
      },
      "setBaseURI(string)": {
        "details": "Only the manager role can call this function",
        "params": {
          "baseURI": "The new base URI"
        }
      },
      "setInventoryAddress(address)": {
        "details": "Sets the inventory address",
        "params": {
          "inventoryAddress": "The new address of the inventory contract"
        }
      },
      "setTokenURI(uint256,string)": {
        "details": "Only the manager role can call this function",
        "params": {
          "tokenId": "The ID of the item to set the URI for",
          "tokenURI": "The new item URI"
        }
      },
      "tokensByAccount(address)": {
        "params": {
          "account": "address to query"
        },
        "returns": {
          "_0": "list of token ids"
        }
      },
      "totalHolders(uint256)": {
        "params": {
          "id": "token id to query"
        },
        "returns": {
          "_0": "quantity of holders"
        }
      },
      "totalSupply(uint256)": {
        "params": {
          "id": "token id to query"
        },
        "returns": {
          "_0": "token supply"
        }
      }
    },
    "title": "ItemsFacet",
    "version": 1
  },
  "userdoc": {
    "kind": "user",
    "methods": {
      "accountsByToken(uint256)": {
        "notice": "query holders of given token"
      },
      "balanceOf(address,uint256)": {
        "notice": "query the balance of given token held by given address"
      },
      "balanceOfBatch(address[],uint256[])": {
        "notice": "query the balances of given tokens held by given addresses"
      },
      "burn(uint256,uint256)": {
        "notice": "Burn an amount of an item"
      },
      "burnBatch(uint256[],uint256[])": {
        "notice": "Burn amounts of items"
      },
      "isApprovedForAll(address,address)": {
        "notice": "query approval status of given operator with respect to given address"
      },
      "migrateToIPFS(string,bool)": {
        "notice": "Set the base URI for all items metadata"
      },
      "mint(address,uint256,uint256)": {
        "notice": "Mints a new item. Only minter role account can mint"
      },
      "mintBatch(address,uint256[],uint256[])": {
        "notice": "Mint a batch of items to a specific address. Only minter role account can mint"
      },
      "multicall(bytes[])": {
        "notice": "batch function calls to the contract and return the results of each"
      },
      "safeBatchTransferFrom(address,address,uint256[],uint256[],bytes)": {
        "notice": "transfer batch of tokens between given addresses, checking for ERC1155Receiver implementation if applicable"
      },
      "safeTransferFrom(address,address,uint256,uint256,bytes)": {
        "notice": "transfer tokens between given addresses, checking for ERC1155Receiver implementation if applicable"
      },
      "setApprovalForAll(address,bool)": {
        "notice": "grant approval to or revoke approval from given operator to spend held tokens"
      },
      "setBaseURI(string)": {
        "notice": "Set the base URI for all items metadata"
      },
      "setTokenURI(uint256,string)": {
        "notice": "Set the URI for a specific item ID"
      },
      "tokensByAccount(address)": {
        "notice": "query tokens held by given address"
      },
      "totalHolders(uint256)": {
        "notice": "query total number of holders for given token"
      },
      "totalSupply(uint256)": {
        "notice": "query total minted supply of given token"
      },
      "uri(uint256)": {
        "notice": "Override ERC1155Metadata"
      }
    },
    "version": 1
  },
  "storageLayout": {
    "storage": [],
    "types": null
  }
}