{
  "address": "0x30E8b4aCF975700EBdAB9391DA208bD8aa7bF7e8",
  "abi": [
    {
      "inputs": [],
      "name": "ERC1155Base__ArrayLengthMismatch",
      "type": "error"
    },
    {
      "inputs": [],
      "name": "ERC1155Base__BalanceQueryZeroAddress",
      "type": "error"
    },
    {
      "inputs": [],
      "name": "ERC1155Base__BurnExceedsBalance",
      "type": "error"
    },
    {
      "inputs": [],
      "name": "ERC1155Base__BurnFromZeroAddress",
      "type": "error"
    },
    {
      "inputs": [],
      "name": "ERC1155Base__ERC1155ReceiverNotImplemented",
      "type": "error"
    },
    {
      "inputs": [],
      "name": "ERC1155Base__ERC1155ReceiverRejected",
      "type": "error"
    },
    {
      "inputs": [],
      "name": "ERC1155Base__MintToZeroAddress",
      "type": "error"
    },
    {
      "inputs": [],
      "name": "ERC1155Base__NotOwnerOrApproved",
      "type": "error"
    },
    {
      "inputs": [],
      "name": "ERC1155Base__SelfApproval",
      "type": "error"
    },
    {
      "inputs": [],
      "name": "ERC1155Base__TransferExceedsBalance",
      "type": "error"
    },
    {
      "inputs": [],
      "name": "ERC1155Base__TransferToZeroAddress",
      "type": "error"
    },
    {
      "inputs": [],
      "name": "EnumerableSet__IndexOutOfBounds",
      "type": "error"
    },
    {
      "inputs": [],
      "name": "Items_InputsLengthMistatch",
      "type": "error"
    },
    {
      "inputs": [],
      "name": "Items_InvalidItemId",
      "type": "error"
    },
    {
      "inputs": [],
      "name": "Items_ItemsBasicStatusAlreadyUpdated",
      "type": "error"
    },
    {
      "inputs": [],
      "name": "Items_MaximumItemMintsExceeded",
      "type": "error"
    },
    {
      "inputs": [],
      "name": "Items_MintingNonBasicItem",
      "type": "error"
    },
    {
      "inputs": [],
      "name": "Merkle_AlreadyClaimed",
      "type": "error"
    },
    {
      "inputs": [],
      "name": "Merkle_ClaimInactive",
      "type": "error"
    },
    {
      "inputs": [],
      "name": "Merkle_ClaimStateAlreadyUpdated",
      "type": "error"
    },
    {
      "inputs": [],
      "name": "Merkle_InvalidClaimAmount",
      "type": "error"
    },
    {
      "inputs": [],
      "name": "Merkle_NotIncludedInMerkleTree",
      "type": "error"
    },
    {
      "inputs": [],
      "name": "ReentrancyGuard__ReentrantCall",
      "type": "error"
    },
    {
      "inputs": [],
      "name": "Roles_MissingAdminRole",
      "type": "error"
    },
    {
      "inputs": [],
      "name": "Roles_MissingAutomationRole",
      "type": "error"
    },
    {
      "inputs": [],
      "name": "Roles_MissingManagerRole",
      "type": "error"
    },
    {
      "inputs": [],
      "name": "Whitelist_ClaimInactive",
      "type": "error"
    },
    {
      "inputs": [],
      "name": "Whitelist_ClaimStateAlreadyUpdated",
      "type": "error"
    },
    {
      "inputs": [],
      "name": "Whitelist_ExceedsElegibleAmount",
      "type": "error"
    },
    {
      "inputs": [],
      "name": "Whitelist_InputDataMismatch",
      "type": "error"
    },
    {
      "anonymous": false,
      "inputs": [
        {
          "indexed": true,
          "internalType": "address",
          "name": "account",
          "type": "address"
        },
        {
          "indexed": true,
          "internalType": "address",
          "name": "operator",
          "type": "address"
        },
        {
          "indexed": false,
          "internalType": "bool",
          "name": "approved",
          "type": "bool"
        }
      ],
      "name": "ApprovalForAll",
      "type": "event"
    },
    {
      "anonymous": false,
      "inputs": [
        {
          "indexed": true,
          "internalType": "address",
          "name": "to",
          "type": "address"
        },
        {
          "indexed": true,
          "internalType": "uint256",
          "name": "itemId",
          "type": "uint256"
        },
        {
          "indexed": false,
          "internalType": "uint256",
          "name": "amount",
          "type": "uint256"
        }
      ],
      "name": "ItemClaimedMerkle",
      "type": "event"
    },
    {
      "anonymous": false,
      "inputs": [
        {
          "indexed": true,
          "internalType": "bytes32",
          "name": "role",
          "type": "bytes32"
        },
        {
          "indexed": true,
          "internalType": "bytes32",
          "name": "previousAdminRole",
          "type": "bytes32"
        },
        {
          "indexed": true,
          "internalType": "bytes32",
          "name": "newAdminRole",
          "type": "bytes32"
        }
      ],
      "name": "RoleAdminChanged",
      "type": "event"
    },
    {
      "anonymous": false,
      "inputs": [
        {
          "indexed": true,
          "internalType": "bytes32",
          "name": "role",
          "type": "bytes32"
        },
        {
          "indexed": true,
          "internalType": "address",
          "name": "account",
          "type": "address"
        },
        {
          "indexed": true,
          "internalType": "address",
          "name": "sender",
          "type": "address"
        }
      ],
      "name": "RoleGranted",
      "type": "event"
    },
    {
      "anonymous": false,
      "inputs": [
        {
          "indexed": true,
          "internalType": "bytes32",
          "name": "role",
          "type": "bytes32"
        },
        {
          "indexed": true,
          "internalType": "address",
          "name": "account",
          "type": "address"
        },
        {
          "indexed": true,
          "internalType": "address",
          "name": "sender",
          "type": "address"
        }
      ],
      "name": "RoleRevoked",
      "type": "event"
    },
    {
      "anonymous": false,
      "inputs": [
        {
          "indexed": true,
          "internalType": "address",
          "name": "operator",
          "type": "address"
        },
        {
          "indexed": true,
          "internalType": "address",
          "name": "from",
          "type": "address"
        },
        {
          "indexed": true,
          "internalType": "address",
          "name": "to",
          "type": "address"
        },
        {
          "indexed": false,
          "internalType": "uint256[]",
          "name": "ids",
          "type": "uint256[]"
        },
        {
          "indexed": false,
          "internalType": "uint256[]",
          "name": "values",
          "type": "uint256[]"
        }
      ],
      "name": "TransferBatch",
      "type": "event"
    },
    {
      "anonymous": false,
      "inputs": [
        {
          "indexed": true,
          "internalType": "address",
          "name": "operator",
          "type": "address"
        },
        {
          "indexed": true,
          "internalType": "address",
          "name": "from",
          "type": "address"
        },
        {
          "indexed": true,
          "internalType": "address",
          "name": "to",
          "type": "address"
        },
        {
          "indexed": false,
          "internalType": "uint256",
          "name": "id",
          "type": "uint256"
        },
        {
          "indexed": false,
          "internalType": "uint256",
          "name": "value",
          "type": "uint256"
        }
      ],
      "name": "TransferSingle",
      "type": "event"
    },
    {
      "anonymous": false,
      "inputs": [
        {
          "indexed": false,
          "internalType": "string",
          "name": "value",
          "type": "string"
        },
        {
          "indexed": true,
          "internalType": "uint256",
          "name": "tokenId",
          "type": "uint256"
        }
      ],
      "name": "URI",
      "type": "event"
    },
    {
      "anonymous": false,
      "inputs": [
        {
          "indexed": false,
          "internalType": "address",
          "name": "account",
          "type": "address"
        },
        {
          "indexed": false,
          "internalType": "enum WhitelistStorage.PoolId",
          "name": "poolId",
          "type": "uint8"
        },
        {
          "indexed": false,
          "internalType": "uint256",
          "name": "totalElegibleAmount",
          "type": "uint256"
        },
        {
          "indexed": false,
          "internalType": "uint256",
          "name": "totalClaimedAmount",
          "type": "uint256"
        }
      ],
      "name": "WhitelistBalanceChanged",
      "type": "event"
    },
    {
      "inputs": [
        {
          "internalType": "uint256",
          "name": "id",
          "type": "uint256"
        }
      ],
      "name": "accountsByToken",
      "outputs": [
        {
          "internalType": "address[]",
          "name": "",
          "type": "address[]"
        }
      ],
      "stateMutability": "view",
      "type": "function"
    },
    {
      "inputs": [
        {
          "internalType": "address",
          "name": "account",
          "type": "address"
        },
        {
          "internalType": "uint256",
          "name": "id",
          "type": "uint256"
        }
      ],
      "name": "balanceOf",
      "outputs": [
        {
          "internalType": "uint256",
          "name": "",
          "type": "uint256"
        }
      ],
      "stateMutability": "view",
      "type": "function"
    },
    {
      "inputs": [
        {
          "internalType": "address[]",
          "name": "accounts",
          "type": "address[]"
        },
        {
          "internalType": "uint256[]",
          "name": "ids",
          "type": "uint256[]"
        }
      ],
      "name": "balanceOfBatch",
      "outputs": [
        {
          "internalType": "uint256[]",
          "name": "",
          "type": "uint256[]"
        }
      ],
      "stateMutability": "view",
      "type": "function"
    },
    {
      "inputs": [],
      "name": "basicItems",
      "outputs": [
        {
          "internalType": "uint256[]",
          "name": "itemIds",
          "type": "uint256[]"
        }
      ],
      "stateMutability": "view",
      "type": "function"
    },
    {
      "inputs": [
        {
          "internalType": "uint256",
          "name": "itemId",
          "type": "uint256"
        },
        {
          "internalType": "uint256",
          "name": "amount",
          "type": "uint256"
        },
        {
          "internalType": "bytes32[]",
          "name": "proof",
          "type": "bytes32[]"
        }
      ],
      "name": "claimMerkle",
      "outputs": [],
      "stateMutability": "nonpayable",
      "type": "function"
    },
    {
      "inputs": [
        {
          "internalType": "uint256[]",
          "name": "itemsIds",
          "type": "uint256[]"
        },
        {
          "internalType": "uint256[]",
          "name": "amounts",
          "type": "uint256[]"
        },
        {
          "internalType": "bytes32[][]",
          "name": "proofs",
          "type": "bytes32[][]"
        }
      ],
      "name": "claimMerkleBatch",
      "outputs": [],
      "stateMutability": "nonpayable",
      "type": "function"
    },
    {
      "inputs": [
        {
          "internalType": "uint256[]",
          "name": "itemIds",
          "type": "uint256[]"
        },
        {
          "internalType": "uint256[]",
          "name": "amounts",
          "type": "uint256[]"
        }
      ],
      "name": "claimWhitelist",
      "outputs": [],
      "stateMutability": "nonpayable",
      "type": "function"
    },
    {
      "inputs": [
        {
          "internalType": "address",
          "name": "account",
          "type": "address"
        },
        {
          "internalType": "uint256",
          "name": "itemId",
          "type": "uint256"
        }
      ],
      "name": "claimedAmount",
      "outputs": [
        {
          "internalType": "uint256",
          "name": "amount",
          "type": "uint256"
        }
      ],
      "stateMutability": "view",
      "type": "function"
    },
    {
      "inputs": [],
      "name": "getInventoryAddress",
      "outputs": [
        {
          "internalType": "address",
          "name": "",
          "type": "address"
        }
      ],
      "stateMutability": "view",
      "type": "function"
    },
    {
      "inputs": [
        {
          "internalType": "address",
          "name": "account",
          "type": "address"
        },
        {
          "internalType": "address",
          "name": "operator",
          "type": "address"
        }
      ],
      "name": "isApprovedForAll",
      "outputs": [
        {
          "internalType": "bool",
          "name": "",
          "type": "bool"
        }
      ],
      "stateMutability": "view",
      "type": "function"
    },
    {
      "inputs": [
        {
          "internalType": "uint256",
          "name": "itemId",
          "type": "uint256"
        }
      ],
      "name": "isBasic",
      "outputs": [
        {
          "internalType": "bool",
          "name": "",
          "type": "bool"
        }
      ],
      "stateMutability": "view",
      "type": "function"
    },
    {
      "inputs": [
        {
          "internalType": "string",
          "name": "newBaseURI",
          "type": "string"
        },
        {
          "internalType": "bool",
          "name": "migrate",
          "type": "bool"
        }
      ],
      "name": "migrateToIPFS",
      "outputs": [],
      "stateMutability": "nonpayable",
      "type": "function"
    },
    {
      "inputs": [
        {
          "internalType": "address",
          "name": "to",
          "type": "address"
        },
        {
          "internalType": "uint256",
          "name": "itemId",
          "type": "uint256"
        },
        {
          "internalType": "uint256",
          "name": "amount",
          "type": "uint256"
        }
      ],
      "name": "mint",
      "outputs": [],
      "stateMutability": "nonpayable",
      "type": "function"
    },
    {
      "inputs": [
        {
          "internalType": "address",
          "name": "to",
          "type": "address"
        },
        {
          "internalType": "uint256[]",
          "name": "itemIds",
          "type": "uint256[]"
        },
        {
          "internalType": "uint256[]",
          "name": "amounts",
          "type": "uint256[]"
        }
      ],
      "name": "mintBatch",
      "outputs": [],
      "stateMutability": "nonpayable",
      "type": "function"
    },
    {
      "inputs": [
        {
          "internalType": "bytes[]",
          "name": "data",
          "type": "bytes[]"
        }
      ],
      "name": "multicall",
      "outputs": [
        {
          "internalType": "bytes[]",
          "name": "results",
          "type": "bytes[]"
        }
      ],
      "stateMutability": "nonpayable",
      "type": "function"
    },
    {
      "inputs": [
        {
          "internalType": "address",
          "name": "from",
          "type": "address"
        },
        {
          "internalType": "address",
          "name": "to",
          "type": "address"
        },
        {
          "internalType": "uint256[]",
          "name": "ids",
          "type": "uint256[]"
        },
        {
          "internalType": "uint256[]",
          "name": "amounts",
          "type": "uint256[]"
        },
        {
          "internalType": "bytes",
          "name": "data",
          "type": "bytes"
        }
      ],
      "name": "safeBatchTransferFrom",
      "outputs": [],
      "stateMutability": "nonpayable",
      "type": "function"
    },
    {
      "inputs": [
        {
          "internalType": "address",
          "name": "from",
          "type": "address"
        },
        {
          "internalType": "address",
          "name": "to",
          "type": "address"
        },
        {
          "internalType": "uint256",
          "name": "id",
          "type": "uint256"
        },
        {
          "internalType": "uint256",
          "name": "amount",
          "type": "uint256"
        },
        {
          "internalType": "bytes",
          "name": "data",
          "type": "bytes"
        }
      ],
      "name": "safeTransferFrom",
      "outputs": [],
      "stateMutability": "nonpayable",
      "type": "function"
    },
    {
      "inputs": [
        {
          "internalType": "address",
          "name": "operator",
          "type": "address"
        },
        {
          "internalType": "bool",
          "name": "status",
          "type": "bool"
        }
      ],
      "name": "setApprovalForAll",
      "outputs": [],
      "stateMutability": "nonpayable",
      "type": "function"
    },
    {
      "inputs": [
        {
          "internalType": "string",
          "name": "baseURI",
          "type": "string"
        }
      ],
      "name": "setBaseURI",
      "outputs": [],
      "stateMutability": "nonpayable",
      "type": "function"
    },
    {
      "inputs": [
        {
          "internalType": "uint256",
          "name": "itemId",
          "type": "uint256"
        },
        {
          "internalType": "bool",
          "name": "basic",
          "type": "bool"
        }
      ],
      "name": "setBasic",
      "outputs": [],
      "stateMutability": "nonpayable",
      "type": "function"
    },
    {
      "inputs": [
        {
          "internalType": "uint256[]",
          "name": "itemIds",
          "type": "uint256[]"
        },
        {
          "internalType": "bool[]",
          "name": "basic",
          "type": "bool[]"
        }
      ],
      "name": "setBasicBatch",
      "outputs": [],
      "stateMutability": "nonpayable",
      "type": "function"
    },
    {
      "inputs": [
        {
          "internalType": "address",
          "name": "inventoryAddress",
          "type": "address"
        }
      ],
      "name": "setInventoryAddress",
      "outputs": [],
      "stateMutability": "nonpayable",
      "type": "function"
    },
    {
      "inputs": [
        {
          "internalType": "uint256",
          "name": "tokenId",
          "type": "uint256"
        },
        {
          "internalType": "string",
          "name": "tokenURI",
          "type": "string"
        }
      ],
      "name": "setTokenURI",
      "outputs": [],
      "stateMutability": "nonpayable",
      "type": "function"
    },
    {
      "inputs": [
        {
          "internalType": "bytes4",
          "name": "_interface",
          "type": "bytes4"
        }
      ],
      "name": "supportsInterface",
      "outputs": [
        {
          "internalType": "bool",
          "name": "",
          "type": "bool"
        }
      ],
      "stateMutability": "pure",
      "type": "function"
    },
    {
      "inputs": [
        {
          "internalType": "address",
          "name": "account",
          "type": "address"
        }
      ],
      "name": "tokensByAccount",
      "outputs": [
        {
          "internalType": "uint256[]",
          "name": "",
          "type": "uint256[]"
        }
      ],
      "stateMutability": "view",
      "type": "function"
    },
    {
      "inputs": [
        {
          "internalType": "uint256",
          "name": "id",
          "type": "uint256"
        }
      ],
      "name": "totalHolders",
      "outputs": [
        {
          "internalType": "uint256",
          "name": "",
          "type": "uint256"
        }
      ],
      "stateMutability": "view",
      "type": "function"
    },
    {
      "inputs": [
        {
          "internalType": "uint256",
          "name": "id",
          "type": "uint256"
        }
      ],
      "name": "totalSupply",
      "outputs": [
        {
          "internalType": "uint256",
          "name": "",
          "type": "uint256"
        }
      ],
      "stateMutability": "view",
      "type": "function"
    },
    {
      "inputs": [
        {
          "internalType": "uint256",
          "name": "tokenId",
          "type": "uint256"
        }
      ],
      "name": "uri",
      "outputs": [
        {
          "internalType": "string",
          "name": "",
          "type": "string"
        }
      ],
      "stateMutability": "view",
      "type": "function"
    }
  ],
  "transactionHash": "0x7878f1f5ddb57daca577171fff74674f1b130a8317a57122e021fa9cd196e420",
  "args": [],
  "numDeployments": 1,
  "solcInputHash": "dfed9b36465c28e43c92f377bfc2803f",
  "bytecode": "0x608060405234801561001057600080fd5b50613be9806100206000396000f3fe608060405234801561001057600080fd5b50600436106101c35760003560e01c80636dcfd841116100f9578063bd85b03911610097578063ceb60ee611610071578063ceb60ee6146103fc578063d81d0a151461040f578063e985e9c514610422578063f242432a1461043557600080fd5b8063bd85b039146103c3578063c22cbb5d146103d6578063cdc11b11146103e957600080fd5b80639cbf4615116100d35780639cbf461514610368578063a22cb46514610370578063ac9650d814610383578063ba58bb17146103a357600080fd5b80636dcfd8411461032257806384118c5d1461034257806385bff2e71461035557600080fd5b80632eb2c2d6116101665780634e1273f4116101405780634e1273f4146102c95780634f7fb332146102e957806355b4b1a4146102fc57806355f804b31461030f57600080fd5b80632eb2c2d61461029057806346fac3ee146102a3578063471cf1bc146102b657600080fd5b80630fd6d21b116101a25780630fd6d21b1461024257806313ba55df14610257578063156e29f61461026a578063162094c41461027d57600080fd5b8062fdd58e146101c857806301ffc9a7146101ee5780630e89341c14610222575b600080fd5b6101db6101d6366004612cd8565b610448565b6040519081526020015b60405180910390f35b6102126101fc366004612d18565b6001600160e01b031916636cdb3d1360e11b1490565b60405190151581526020016101e5565b610235610230366004612d3c565b61045d565b6040516101e59190612da5565b610255610250366004612dc8565b6104c7565b005b6101db610265366004612d3c565b610511565b610255610278366004612df4565b61051c565b61025561028b366004612e6f565b61052c565b61025561029e366004613003565b6105a2565b6102126102b1366004612d3c565b6105f4565b6102556102c43660046130f0565b61062a565b6102dc6102d736600461315b565b610672565b6040516101e59190613260565b6102556102f7366004613273565b6107dc565b6101db61030a366004612cd8565b61083e565b61025561031d36600461330c565b610874565b610335610330366004612d3c565b6108e9565b6040516101e5919061334d565b61025561035036600461339a565b6108f4565b6102dc6103633660046133e0565b610984565b6102dc61098f565b61025561037e3660046133fb565b610a06565b610396610391366004613425565b610aba565b6040516101e5919061345a565b6103ab610bd4565b6040516001600160a01b0390911681526020016101e5565b6101db6103d1366004612d3c565b610c0c565b6102556103e43660046133e0565b610c3f565b6102556103f73660046134bc565b610cc2565b61025561040a3660046130f0565b610d03565b61025561041d36600461350f565b610d0f565b61021261043036600461358f565b610d1c565b6102556104433660046135b9565b610d69565b60006104548383610df9565b90505b92915050565b7f333d4b734a9ca3847483bf4c14a14709d21907ff5f12a881347e2fb2ad8906d75460609060ff16156104b95761049382610e57565b6040516020016104a3919061361d565b6040516020818303038152906040529050919050565b61045782610e57565b919050565b6104e66104e0600080516020613b548339815191525490565b33611026565b6105035760405163d0befa1d60e01b815260040160405180910390fd5b61050d828261105d565b5050565b600061045782611075565b6105278383836110ab565b505050565b6105456104e0600080516020613b548339815191525490565b6105625760405163d0befa1d60e01b815260040160405180910390fd5b6105278383838080601f01602080910402602001604051908101604052809392919081815260200183838082843760009201919091525061118992505050565b6001600160a01b03851633148015906105c257506105c08533610d1c565b155b156105df576040516212efed60e91b815260040160405180910390fd5b6105ed3386868686866111fd565b5050505050565b60008181527f333d4b734a9ca3847483bf4c14a14709d21907ff5f12a881347e2fb2ad8906d8602052604081205460ff16610457565b6106436104e0600080516020613b548339815191525490565b6106605760405163d0befa1d60e01b815260040160405180910390fd5b61066c84848484611221565b50505050565b6060815183511461069657604051633e7e0b6d60e11b815260040160405180910390fd5b8251600080516020613b94833981519152906000906001600160401b038111156106c2576106c2612eba565b6040519080825280602002602001820160405280156106eb578160200160208202803683370190505b50905060005b85518110156107d35760006001600160a01b031686828151811061071757610717613646565b60200260200101516001600160a01b0316036107465760405163db5d879760e01b815260040160405180910390fd5b82600086838151811061075b5761075b613646565b60200260200101518152602001908152602001600020600087838151811061078557610785613646565b60200260200101516001600160a01b03166001600160a01b03168152602001908152602001600020548282815181106107c0576107c0613646565b60209081029190910101526001016106f1565b50949350505050565b7f09acf4e54214992e70883cf7dcd6957ff2c71cd9e14df4bec4383bc0d11607dc805460020361081f57604051635db5c7cd60e11b815260040160405180910390fd5b6002815561083233888888888888611286565b60019055505050505050565b6001600160a01b0382166000908152600080516020613b7483398151915260209081526040808320848452909152812054610454565b61088d6104e0600080516020613b548339815191525490565b6108aa5760405163d0befa1d60e01b815260040160405180910390fd5b61050d82828080601f01602080910402602001604051908101604052809392919081815260200183838082843760009201919091525061135e92505050565b606061045782611389565b7f09acf4e54214992e70883cf7dcd6957ff2c71cd9e14df4bec4383bc0d11607dc805460020361093757604051635db5c7cd60e11b815260040160405180910390fd5b60028155604080516020808502828101820190935284825261097a9233928992899289918991829185019084908082843760009201919091525061145c92505050565b6001905550505050565b606061045782611564565b60607f333d4b734a9ca3847483bf4c14a14709d21907ff5f12a881347e2fb2ad8906d98054806020026020016040519081016040528092919081815260200182805480156109fc57602002820191906000526020600020905b8154815260200190600101908083116109e8575b5050505050905090565b6001600160a01b0382163303610a2f57604051637b30a93360e11b815260040160405180910390fd5b3360008181527f1799cf914cb0cb442ca7c7ac709ee40d0cb89e87351dc08d517fbda27d50c68c602090815260408083206001600160a01b03871680855290835292819020805460ff191686151590811790915590519081529192917f17307eab39ab6107e8899845ad3d59bd9653f200f220920489ca2b5937696c31910160405180910390a35050565b6060816001600160401b03811115610ad457610ad4612eba565b604051908082528060200260200182016040528015610b0757816020015b6060815260200190600190039081610af25790505b50905060005b82811015610bcd5760008030868685818110610b2b57610b2b613646565b9050602002810190610b3d919061365c565b604051610b4b9291906136a2565b600060405180830381855af49150503d8060008114610b86576040519150601f19603f3d011682016040523d82523d6000602084013e610b8b565b606091505b50915091508115610bb95780848481518110610ba957610ba9613646565b6020026020010181905250610bc3565b3d6000803e3d6000fd5b5050600101610b0d565b5092915050565b6000610c077f333d4b734a9ca3847483bf4c14a14709d21907ff5f12a881347e2fb2ad8906da546001600160a01b031690565b905090565b60008181527fb31c2c74f86ca3ce94d901f5f5bbe66f7161eec2f7b5aa0b75a86371436424ea6020526040812054610457565b610c586104e0600080516020613b548339815191525490565b610c755760405163d0befa1d60e01b815260040160405180910390fd5b7f333d4b734a9ca3847483bf4c14a14709d21907ff5f12a881347e2fb2ad8906da805473ffffffffffffffffffffffffffffffffffffffff19166001600160a01b03831617905550565b50565b610cdb6104e0600080516020613b548339815191525490565b610cf85760405163d0befa1d60e01b815260040160405180910390fd5b61052783838361162c565b61066c8484848461169f565b6105ed8585858585611795565b6001600160a01b0391821660009081527f1799cf914cb0cb442ca7c7ac709ee40d0cb89e87351dc08d517fbda27d50c68c6020908152604080832093909416825291909152205460ff1690565b6001600160a01b0385163314801590610d895750610d878533610d1c565b155b8015610dce575033610dc27f333d4b734a9ca3847483bf4c14a14709d21907ff5f12a881347e2fb2ad8906da546001600160a01b031690565b6001600160a01b031614155b15610deb576040516212efed60e91b815260040160405180910390fd5b6105ed338686868686611972565b60006001600160a01b038316610e225760405163db5d879760e01b815260040160405180910390fd5b600080516020613b948339815191526000928352602090815260408084206001600160a01b0395909516845293905250205490565b60008181527f4281b61aefbe70b3d3f684b428efca5f33077bc240e76f2808f9177c307617f56020526040812080546060927f4281b61aefbe70b3d3f684b428efca5f33077bc240e76f2808f9177c307617f4929091610eb6906136b2565b80601f0160208091040260200160405190810160405280929190818152602001828054610ee2906136b2565b8015610f2f5780601f10610f0457610100808354040283529160200191610f2f565b820191906000526020600020905b815481529060010190602001808311610f1257829003601f168201915b505050505090506000826000018054610f47906136b2565b80601f0160208091040260200160405190810160405280929190818152602001828054610f73906136b2565b8015610fc05780601f10610f9557610100808354040283529160200191610fc0565b820191906000526020600020905b815481529060010190602001808311610fa357829003601f168201915b505050505090508051600003610fd857509392505050565b81511561100b578082604051602001610ff29291906136ec565b6040516020818303038152906040529350505050919050565b806110158661198e565b604051602001610ff29291906136ec565b60008281527fd3889cc5458b268d0544e5534672df1296288ca3f93cbd39bd6f497a5c622811602052604081206104549083611a96565b801561106c5761050d82611ab8565b61050d82611b31565b60008181527fb31c2c74f86ca3ce94d901f5f5bbe66f7161eec2f7b5aa0b75a86371436424eb6020526040812061045790611c56565b60018210156110cd5760405163225c19bb60e11b815260040160405180910390fd5b6110e66104e0600080516020613b548339815191525490565b61116e5760008281527f333d4b734a9ca3847483bf4c14a14709d21907ff5f12a881347e2fb2ad8906d8602052604090205460ff16611138576040516339fe614360e01b815260040160405180910390fd5b6003816111453385610df9565b61114f9190613731565b111561116e576040516344dfbe5360e11b815260040160405180910390fd5b61052783838360405180602001604052806000815250611c60565b60008281527f4281b61aefbe70b3d3f684b428efca5f33077bc240e76f2808f9177c307617f5602052604090206111c0828261378a565b50817f6bb7ff708619ba0610cba295a58592e0451dee2622938c8755667688daf3529b826040516111f19190612da5565b60405180910390a25050565b61120b868686868686611d39565b611219868686868686611ee2565b505050505050565b60005b838110156105ed5761127485858381811061124157611241613646565b9050602002013584848481811061125a5761125a613646565b905060200201602081019061126f9190613849565b61105d565b8061127e81613864565b915050611224565b8483146112a657604051634e98d26360e01b815260040160405180910390fd5b60005b8581101561135457611342888888848181106112c7576112c7613646565b905060200201358787858181106112e0576112e0613646565b905060200201358686868181106112f9576112f9613646565b905060200281019061130b919061387d565b8080602002602001604051908101604052809392919081815260200183836020028082843760009201919091525061145c92505050565b8061134c81613864565b9150506112a9565b5050505050505050565b7f4281b61aefbe70b3d3f684b428efca5f33077bc240e76f2808f9177c307617f461050d828261378a565b60008181527fb31c2c74f86ca3ce94d901f5f5bbe66f7161eec2f7b5aa0b75a86371436424eb602052604081206060916113c282611c56565b6001600160401b038111156113d9576113d9612eba565b604051908082528060200260200182016040528015611402578160200160208202803683370190505b50905060005b61141183611c56565b811015611454576114228382612004565b82828151811061143457611434613646565b6001600160a01b0390921660209283029190910190910152600101611408565b509392505050565b600183101561147e5760405163225c19bb60e11b815260040160405180910390fd5b604080516001600160a01b03861660208201528082018590526060808201859052825180830390910181526080909101909152600080516020613b74833981519152906114cb8382612010565b6114e686868660405180602001604052806000815250611c60565b6001600160a01b03861660009081526020838152604080832088845290915281208054869290611517908490613731565b909155505060405184815285906001600160a01b038816907fd4307fb1338aefb2a030cf5ea0f582a10d28ffee99fe253e5d48946f9a74a59f9060200160405180910390a3505050505050565b6001600160a01b03811660009081527fb31c2c74f86ca3ce94d901f5f5bbe66f7161eec2f7b5aa0b75a86371436424ec602052604081206060916115a782611c56565b6001600160401b038111156115be576115be612eba565b6040519080825280602002602001820160405280156115e7578160200160208202803683370190505b50905060005b6115f683611c56565b811015611454576116078382612004565b82828151811061161957611619613646565b60209081029190910101526001016115ed565b61166b83838080601f01602080910402602001604051908101604052809392919081815260200183838082843760009201919091525061135e92505050565b7f333d4b734a9ca3847483bf4c14a14709d21907ff5f12a881347e2fb2ad8906d7805460ff19169115159190911790555050565b8281146116bf57604051634e98d26360e01b815260040160405180910390fd5b6000805b848110156117885760018686838181106116df576116df613646565b9050602002013510156117055760405163225c19bb60e11b815260040160405180910390fd5b6117503387878481811061171b5761171b613646565b9050602002013586868581811061173457611734613646565b9050602002013560405180602001604052806000815250611c60565b83838281811061176257611762613646565b90506020020135826117749190613731565b91508061178081613864565b9150506116c3565b506105ed6000338361215a565b60016117d38585808060200260200160405190810160405280939291908181526020018383602002808284376000920191909152506124c492505050565b10156117f25760405163225c19bb60e11b815260040160405180910390fd5b61180b6104e0600080516020613b548339815191525490565b6118f657600080516020613b7483398151915260005b848110156118f35781600201600087878481811061184157611841613646565b602090810292909201358352508101919091526040016000205460ff1661187b576040516339fe614360e01b815260040160405180910390fd5b600384848381811061188f5761188f613646565b905060200201356118b8338989868181106118ac576118ac613646565b90506020020135610df9565b6118c29190613731565b11156118e1576040516344dfbe5360e11b815260040160405180910390fd5b806118eb81613864565b915050611821565b50505b6105ed858585808060200260200160405190810160405280939291908181526020018383602002808284376000920191909152505060408051602080890282810182019093528882529093508892508791829185019084908082843760009201829052506040805160208101909152908152925061251a915050565b611980868686868686612671565b611219868686868686612787565b6060816000036119b55750506040805180820190915260018152600360fc1b602082015290565b8160005b81156119df57806119c981613864565b91506119d89050600a836138dc565b91506119b9565b6000816001600160401b038111156119f9576119f9612eba565b6040519080825280601f01601f191660200182016040528015611a23576020820181803683370190505b5090505b8415611a8e57611a386001836138f0565b9150611a45600a86613903565b611a50906030613731565b60f81b818381518110611a6557611a65613646565b60200101906001600160f81b031916908160001a905350611a87600a866138dc565b9450611a27565b949350505050565b6001600160a01b03811660009081526001830160205260408120541515610454565b60008181527f333d4b734a9ca3847483bf4c14a14709d21907ff5f12a881347e2fb2ad8906d86020526040902054600080516020613b748339815191529060ff1661050d57600082815260028201602090815260408220805460ff19166001908117909155600390930180549384018155825290200155565b60008181527f333d4b734a9ca3847483bf4c14a14709d21907ff5f12a881347e2fb2ad8906d86020526040902054600080516020613b748339815191529060ff16611b7a575050565b600381015460005b81811015611c3b5783836003018281548110611ba057611ba0613646565b906000526020600020015403611c295760038301611bbf6001846138f0565b81548110611bcf57611bcf613646565b9060005260206000200154836003018281548110611bef57611bef613646565b60009182526020909120015560038301805480611c0e57611c0e613917565b60019003818190600052602060002001600090559055611c3b565b80611c3381613864565b915050611b82565b5050600091825260020160205260409020805460ff19169055565b6000610457825490565b6001600160a01b038416611c87576040516301c8efbf60e11b815260040160405180910390fd5b611ca633600086611c9787612843565b611ca087612843565b8661288e565b6000838152600080516020613b94833981519152602090815260408083206001600160a01b038816845290915281208054849290611ce5908490613731565b909155505060408051848152602081018490526001600160a01b0386169160009133917fc3d58168c5ae7397731d063d5bbf3d657854427343f4c083240f7aacaa2d0f62910160405180910390a450505050565b6001600160a01b038416611d605760405163f5cadad560e01b815260040160405180910390fd5b8151835114611d8257604051633e7e0b6d60e11b815260040160405180910390fd5b611d9086868686868661288e565b600080516020613b9483398151915260005b8451811015611e81576000858281518110611dbf57611dbf613646565b602002602001015190506000858381518110611ddd57611ddd613646565b602090810291909101810151600084815286835260408082206001600160a01b038e168352909352919091205490915080821115611e2e5760405163119ac6bb60e31b815260040160405180910390fd5b6000838152602086815260408083206001600160a01b038e811685529252808320938590039093558a168152908120805460019590950194839290611e74908490613731565b90915550611da292505050565b50846001600160a01b0316866001600160a01b0316886001600160a01b03167f4a39dc06d4c0dbc64b70af90fd698a233a518aa5d07e595d983b8c0526c8f7fb8787604051611ed192919061392d565b60405180910390a450505050505050565b6001600160a01b0384163b156112195760405163bc197c8160e01b81526001600160a01b0385169063bc197c8190611f26908990899088908890889060040161395b565b6020604051808303816000875af1925050508015611f61575060408051601f3d908101601f19168201909252611f5e918101906139b9565b60015b611fca57611f6d6139d6565b806308c379a003611faf5750611f816139f2565b80611f8c5750611fb1565b8060405162461bcd60e51b8152600401611fa69190612da5565b60405180910390fd5b505b60405163380147a960e01b815260040160405180910390fd5b6001600160e01b0319811663bc197c8160e01b14611ffb57604051633744db2960e01b815260040160405180910390fd5b50505050505050565b6000610454838361289c565b7f7a07c093b55ad04e200605cb287859fe4640b7310d62fdbb044e26399da78c09547f7a07c093b55ad04e200605cb287859fe4640b7310d62fdbb044e26399da78c089060ff16156120755760405163a2f902f160e01b815260040160405180910390fd5b6000836040516020016120889190613a7b565b60408051601f19818403018152918152815160209283012060008181526002860190935291205490915060ff16156120d35760405163dea0a45b60e01b815260040160405180910390fd5b600083805190602001206040516020016120ef91815260200190565b6040516020818303038152906040528051906020012090506000612118868560000154846128e8565b90508061213857604051631006f83b60e31b815260040160405180910390fd5b50506000908152600290910160205260409020805460ff191660011790555050565b7ff38d3885e664c9638de25f02e645e1955ebebe901d7be2c2037db6a5bcbb358880600085600181111561219057612190613ab1565b60018111156121a1576121a1613ab1565b815260208101919091526040016000206004015460ff166121d557604051633137c0e960e11b815260040160405180910390fd5b818160008660018111156121eb576121eb613ab1565b60018111156121fc576121fc613ab1565b81526020019081526020016000206001016000856001600160a01b03166001600160a01b0316815260200190815260200160002054101561225057604051630f8a2c5f60e31b815260040160405180910390fd5b8181600086600181111561226657612266613ab1565b600181111561227757612277613ab1565b81526020019081526020016000206001016000856001600160a01b03166001600160a01b0316815260200190815260200160002060008282546122ba91906138f0565b909155508290508160008660018111156122d6576122d6613ab1565b60018111156122e7576122e7613ab1565b81526020019081526020016000206000016000856001600160a01b03166001600160a01b03168152602001908152602001600020600082825461232a9190613731565b9091555082905081600086600181111561234657612346613ab1565b600181111561235757612357613ab1565b815260200190815260200160002060020160008282546123779190613731565b9091555082905081600086600181111561239357612393613ab1565b60018111156123a4576123a4613ab1565b815260200190815260200160002060030160008282546123c491906138f0565b909155507f6526db8cb857c3bc972db45a7984e99efaed17f7a4e51afb85c64450133cb55c9050838583600082600181111561240257612402613ab1565b600181111561241357612413613ab1565b81526020019081526020016000206001016000876001600160a01b03166001600160a01b031681526020019081526020016000205484600001600089600181111561246057612460613ab1565b600181111561247157612471613ab1565b81526020019081526020016000206000016000886001600160a01b03166001600160a01b03168152602001908152602001600020546040516124b69493929190613ac7565b60405180910390a150505050565b6000600019815b8351811015610bcd57818482815181106124e7576124e7613646565b602002602001015110156125125783818151811061250757612507613646565b602002602001015191505b6001016124cb565b6001600160a01b038416612541576040516301c8efbf60e11b815260040160405180910390fd5b815183511461256357604051633e7e0b6d60e11b815260040160405180910390fd5b6125723360008686868661288e565b600080516020613b9483398151915260005b84518110156126115783818151811061259f5761259f613646565b60200260200101518260008784815181106125bc576125bc613646565b602002602001015181526020019081526020016000206000886001600160a01b03166001600160a01b0316815260200190815260200160002060008282546126049190613731565b9091555050600101612584565b50846001600160a01b031660006001600160a01b0316336001600160a01b03167f4a39dc06d4c0dbc64b70af90fd698a233a518aa5d07e595d983b8c0526c8f7fb878760405161266292919061392d565b60405180910390a45050505050565b6001600160a01b0384166126985760405163f5cadad560e01b815260040160405180910390fd5b6126a7868686611c9787612843565b6000838152600080516020613b94833981519152602081815260408084206001600160a01b038a16855290915290912054808411156126f95760405163119ac6bb60e31b815260040160405180910390fd5b6000858152602083815260408083206001600160a01b038b81168552925280832093879003909355871681529081208054859290612738908490613731565b909155505060408051858152602081018590526001600160a01b038088169289821692918b16917fc3d58168c5ae7397731d063d5bbf3d657854427343f4c083240f7aacaa2d0f629101611ed1565b6001600160a01b0384163b156112195760405163f23a6e6160e01b81526001600160a01b0385169063f23a6e61906127cb9089908990889088908890600401613b10565b6020604051808303816000875af1925050508015612806575060408051601f3d908101601f19168201909252612803918101906139b9565b60015b61281257611f6d6139d6565b6001600160e01b0319811663f23a6e6160e01b14611ffb57604051633744db2960e01b815260040160405180910390fd5b6040805160018082528183019092526060916000919060208083019080368337019050509050828160008151811061287d5761287d613646565b602090810291909101015292915050565b61121986868686868661298d565b815460009082106128c05760405163e637bf3b60e01b815260040160405180910390fd5b8260000182815481106128d5576128d5613646565b9060005260206000200154905092915050565b600081815b855181101561298257600086828151811061290a5761290a613646565b6020026020010151905080831161294c576040805160208101859052908101829052606001604051602081830303815290604052805190602001209250612979565b60408051602081018390529081018490526060016040516020818303038152906040528051906020012092505b506001016128ed565b509092149392505050565b611219868686868686836001600160a01b0316856001600160a01b031614611219576001600160a01b0385811660009081527fb31c2c74f86ca3ce94d901f5f5bbe66f7161eec2f7b5aa0b75a86371436424ec6020526040808220928716825281207fb31c2c74f86ca3ce94d901f5f5bbe66f7161eec2f7b5aa0b75a86371436424ea927fb31c2c74f86ca3ce94d901f5f5bbe66f7161eec2f7b5aa0b75a86371436424eb929091905b8751811015612b75576000878281518110612a5457612a54613646565b602002602001015190506000811115612b6c576000898381518110612a7b57612a7b613646565b6020026020010151905060006001600160a01b03168c6001600160a01b031603612ac85760008181526020889052604081208054849290612abd908490613731565b90915550612afd9050565b81612ad38d83610df9565b03612afd576000818152602087905260409020612af0908d612b82565b50612afb8582612b97565b505b6001600160a01b038b16612b345760008181526020889052604081208054849290612b299084906138f0565b90915550612b6a9050565b612b3e8b82610df9565b600003612b6a576000818152602087905260409020612b5d908c612ba3565b50612b688482612bb8565b505b505b50600101612a37565b5050505050505050505050565b6000610454836001600160a01b038416612bc4565b60006104548383612bc4565b6000610454836001600160a01b038416612c7e565b60006104548383612c7e565b60008181526001830160205260408120548015610bcd57835460009085906000198101908110612bf657612bf6613646565b9060005260206000200154905080856000016001840381548110612c1c57612c1c613646565b6000918252602080832090910192909255918252600186019052604090208190558354849080612c4e57612c4e613917565b60008281526020808220830160001990810183905590920190925593815260019485019093525050604081205590565b6000818152600183016020526040812054610457575081546001808201845560008481526020808220909301849055845493815293810190915260409092205590565b80356001600160a01b03811681146104c257600080fd5b60008060408385031215612ceb57600080fd5b612cf483612cc1565b946020939093013593505050565b6001600160e01b031981168114610cbf57600080fd5b600060208284031215612d2a57600080fd5b8135612d3581612d02565b9392505050565b600060208284031215612d4e57600080fd5b5035919050565b60005b83811015612d70578181015183820152602001612d58565b50506000910152565b60008151808452612d91816020860160208601612d55565b601f01601f19169290920160200192915050565b6020815260006104546020830184612d79565b803580151581146104c257600080fd5b60008060408385031215612ddb57600080fd5b82359150612deb60208401612db8565b90509250929050565b600080600060608486031215612e0957600080fd5b612e1284612cc1565b95602085013595506040909401359392505050565b60008083601f840112612e3957600080fd5b5081356001600160401b03811115612e5057600080fd5b602083019150836020828501011115612e6857600080fd5b9250929050565b600080600060408486031215612e8457600080fd5b8335925060208401356001600160401b03811115612ea157600080fd5b612ead86828701612e27565b9497909650939450505050565b634e487b7160e01b600052604160045260246000fd5b601f8201601f191681016001600160401b0381118282101715612ef557612ef5612eba565b6040525050565b60006001600160401b03821115612f1557612f15612eba565b5060051b60200190565b600082601f830112612f3057600080fd5b81356020612f3d82612efc565b604051612f4a8282612ed0565b83815260059390931b8501820192828101915086841115612f6a57600080fd5b8286015b84811015612f855780358352918301918301612f6e565b509695505050505050565b600082601f830112612fa157600080fd5b81356001600160401b03811115612fba57612fba612eba565b604051612fd1601f8301601f191660200182612ed0565b818152846020838601011115612fe657600080fd5b816020850160208301376000918101602001919091529392505050565b600080600080600060a0868803121561301b57600080fd5b61302486612cc1565b945061303260208701612cc1565b935060408601356001600160401b038082111561304e57600080fd5b61305a89838a01612f1f565b9450606088013591508082111561307057600080fd5b61307c89838a01612f1f565b9350608088013591508082111561309257600080fd5b5061309f88828901612f90565b9150509295509295909350565b60008083601f8401126130be57600080fd5b5081356001600160401b038111156130d557600080fd5b6020830191508360208260051b8501011115612e6857600080fd5b6000806000806040858703121561310657600080fd5b84356001600160401b038082111561311d57600080fd5b613129888389016130ac565b9096509450602087013591508082111561314257600080fd5b5061314f878288016130ac565b95989497509550505050565b6000806040838503121561316e57600080fd5b82356001600160401b038082111561318557600080fd5b818501915085601f83011261319957600080fd5b813560206131a682612efc565b6040516131b38282612ed0565b83815260059390931b85018201928281019150898411156131d357600080fd5b948201945b838610156131f8576131e986612cc1565b825294820194908201906131d8565b9650508601359250508082111561320e57600080fd5b5061321b85828601612f1f565b9150509250929050565b600081518084526020808501945080840160005b8381101561325557815187529582019590820190600101613239565b509495945050505050565b6020815260006104546020830184613225565b6000806000806000806060878903121561328c57600080fd5b86356001600160401b03808211156132a357600080fd5b6132af8a838b016130ac565b909850965060208901359150808211156132c857600080fd5b6132d48a838b016130ac565b909650945060408901359150808211156132ed57600080fd5b506132fa89828a016130ac565b979a9699509497509295939492505050565b6000806020838503121561331f57600080fd5b82356001600160401b0381111561333557600080fd5b61334185828601612e27565b90969095509350505050565b6020808252825182820181905260009190848201906040850190845b8181101561338e5783516001600160a01b031683529284019291840191600101613369565b50909695505050505050565b600080600080606085870312156133b057600080fd5b843593506020850135925060408501356001600160401b038111156133d457600080fd5b61314f878288016130ac565b6000602082840312156133f257600080fd5b61045482612cc1565b6000806040838503121561340e57600080fd5b61341783612cc1565b9150612deb60208401612db8565b6000806020838503121561343857600080fd5b82356001600160401b0381111561344e57600080fd5b613341858286016130ac565b6000602080830181845280855180835260408601915060408160051b870101925083870160005b828110156134af57603f1988860301845261349d858351612d79565b94509285019290850190600101613481565b5092979650505050505050565b6000806000604084860312156134d157600080fd5b83356001600160401b038111156134e757600080fd5b6134f386828701612e27565b9094509250613506905060208501612db8565b90509250925092565b60008060008060006060868803121561352757600080fd5b61353086612cc1565b945060208601356001600160401b038082111561354c57600080fd5b61355889838a016130ac565b9096509450604088013591508082111561357157600080fd5b5061357e888289016130ac565b969995985093965092949392505050565b600080604083850312156135a257600080fd5b6135ab83612cc1565b9150612deb60208401612cc1565b600080600080600060a086880312156135d157600080fd5b6135da86612cc1565b94506135e860208701612cc1565b9350604086013592506060860135915060808601356001600160401b0381111561361157600080fd5b61309f88828901612f90565b6000825161362f818460208701612d55565b64173539b7b760d91b920191825250600501919050565b634e487b7160e01b600052603260045260246000fd5b6000808335601e1984360301811261367357600080fd5b8301803591506001600160401b0382111561368d57600080fd5b602001915036819003821315612e6857600080fd5b8183823760009101908152919050565b600181811c908216806136c657607f821691505b6020821081036136e657634e487b7160e01b600052602260045260246000fd5b50919050565b600083516136fe818460208801612d55565b835190830190613712818360208801612d55565b01949350505050565b634e487b7160e01b600052601160045260246000fd5b808201808211156104575761045761371b565b601f82111561052757600081815260208120601f850160051c8101602086101561376b5750805b601f850160051c820191505b8181101561121957828155600101613777565b81516001600160401b038111156137a3576137a3612eba565b6137b7816137b184546136b2565b84613744565b602080601f8311600181146137ec57600084156137d45750858301515b600019600386901b1c1916600185901b178555611219565b600085815260208120601f198616915b8281101561381b578886015182559484019460019091019084016137fc565b50858210156138395787850151600019600388901b60f8161c191681555b5050505050600190811b01905550565b60006020828403121561385b57600080fd5b61045482612db8565b6000600182016138765761387661371b565b5060010190565b6000808335601e1984360301811261389457600080fd5b8301803591506001600160401b038211156138ae57600080fd5b6020019150600581901b3603821315612e6857600080fd5b634e487b7160e01b600052601260045260246000fd5b6000826138eb576138eb6138c6565b500490565b818103818111156104575761045761371b565b600082613912576139126138c6565b500690565b634e487b7160e01b600052603160045260246000fd5b6040815260006139406040830185613225565b82810360208401526139528185613225565b95945050505050565b60006001600160a01b03808816835280871660208401525060a0604083015261398760a0830186613225565b82810360608401526139998186613225565b905082810360808401526139ad8185612d79565b98975050505050505050565b6000602082840312156139cb57600080fd5b8151612d3581612d02565b600060033d11156139ef5760046000803e5060005160e01c5b90565b600060443d1015613a005790565b6040516003193d81016004833e81513d6001600160401b038160248401118184111715613a2f57505050505090565b8285019150815181811115613a475750505050505090565b843d8701016020828501011115613a615750505050505090565b613a7060208286010187612ed0565b509095945050505050565b815160009082906020808601845b83811015613aa557815185529382019390820190600101613a89565b50929695505050505050565b634e487b7160e01b600052602160045260246000fd5b6001600160a01b03851681526080810160028510613af557634e487b7160e01b600052602160045260246000fd5b84602083015283604083015282606083015295945050505050565b60006001600160a01b03808816835280871660208401525084604083015283606083015260a06080830152613b4860a0830184612d79565b97965050505050505056fef6deb63e40d71b08820818e006e23fcceb1fce7a499bc15b71b2526cbf9efa72333d4b734a9ca3847483bf4c14a14709d21907ff5f12a881347e2fb2ad8906d61799cf914cb0cb442ca7c7ac709ee40d0cb89e87351dc08d517fbda27d50c68ba264697066735822122057d8cee8020b6acac70c2811be8085fba9b8b03e7649671cd6cd63049af18e5e64736f6c63430008130033",
  "devdoc": {
    "details": "This contract handles the creation and management of items It uses ERC1155 tokens to represent items and provides methods to mint new items, claim items via Merkle tree or a whitelist, and set the base and URIs for the items. It also uses the ReentrancyGuard and Multicall contracts for security and gas efficiency.",
    "kind": "dev",
    "methods": {
      "accountsByToken(uint256)": {
        "params": {
          "id": "token id to query"
        },
        "returns": {
          "_0": "list of holder addresses"
        }
      },
      "balanceOf(address,uint256)": {
        "params": {
          "account": "address to query",
          "id": "token to query"
        },
        "returns": {
          "_0": "token balance"
        }
      },
      "balanceOfBatch(address[],uint256[])": {
        "params": {
          "accounts": "addresss to query",
          "ids": "tokens to query"
        },
        "returns": {
          "_0": "token balances"
        }
      },
      "basicItems()": {
        "returns": {
          "itemIds": "The IDs of all the basic items"
        }
      },
      "claimMerkle(uint256,uint256,bytes32[])": {
        "params": {
          "amount": "The amount of the item to claim",
          "itemId": "The ID of the item to claim",
          "proof": "The Merkle proof for the item"
        }
      },
      "claimMerkleBatch(uint256[],uint256[],bytes32[][])": {
        "params": {
          "amounts": "The amounts of the items to claim",
          "itemsIds": "The IDs of the items to claim",
          "proofs": "The Merkle proofs for the items"
        }
      },
      "claimWhitelist(uint256[],uint256[])": {
        "params": {
          "amounts": "The amounts of the items to claim",
          "itemIds": "The IDs of the items to claim"
        }
      },
      "claimedAmount(address,uint256)": {
        "params": {
          "account": "the account to query",
          "itemId": "the item id to query"
        },
        "returns": {
          "amount": "returns the claimed amount given an account and an item id"
        }
      },
      "getInventoryAddress()": {
        "details": "Returns the current inventory address",
        "returns": {
          "_0": "The address of the inventory contract"
        }
      },
      "isApprovedForAll(address,address)": {
        "params": {
          "account": "address to query for approval granted",
          "operator": "address to query for approval received"
        },
        "returns": {
          "_0": "whether operator is approved to spend tokens held by account"
        }
      },
      "isBasic(uint256)": {
        "params": {
          "itemId": "The item ID to query "
        },
        "returns": {
          "_0": "isBasic Bool that indicates if an item is basic"
        }
      },
      "migrateToIPFS(string,bool)": {
        "details": "Only the manager role can call this function",
        "params": {
          "migrate": "Should migrate to IPFS",
          "newBaseURI": "The new base URI"
        }
      },
      "mint(address,uint256,uint256)": {
        "params": {
          "amount": "The item amount to be minted",
          "itemId": "The ID of the item to mint",
          "to": "The address to mint the item to"
        }
      },
      "mintBatch(address,uint256[],uint256[])": {
        "params": {
          "amounts": "The items amounts to be minted",
          "itemIds": "An array of items IDs to be minted",
          "to": "The address to receive the minted items"
        }
      },
      "multicall(bytes[])": {
        "params": {
          "data": "array of function call data payloads"
        },
        "returns": {
          "results": "array of function call results"
        }
      },
      "safeBatchTransferFrom(address,address,uint256[],uint256[],bytes)": {
        "params": {
          "amounts": "list of quantities of tokens to transfer",
          "data": "data payload",
          "from": "sender of tokens",
          "ids": "list of token IDs",
          "to": "receiver of tokens"
        }
      },
      "safeTransferFrom(address,address,uint256,uint256,bytes)": {
        "params": {
          "amount": "quantity of tokens to transfer",
          "data": "data payload",
          "from": "sender of tokens",
          "id": "token ID",
          "to": "receiver of tokens"
        }
      },
      "setApprovalForAll(address,bool)": {
        "params": {
          "operator": "address whose approval status to update",
          "status": "whether operator should be considered approved"
        }
      },
      "setBaseURI(string)": {
        "details": "Only the manager role can call this function",
        "params": {
          "baseURI": "The new base URI"
        }
      },
      "setBasic(uint256,bool)": {
        "params": {
          "basic": "A boolean representing if a item shoud be set as basic",
          "itemId": "The item ID"
        }
      },
      "setBasicBatch(uint256[],bool[])": {
        "params": {
          "basic": "An array of boolean's representing if the items shoud be set as basic",
          "itemIds": "The IDs of the items to set as basic"
        }
      },
      "setInventoryAddress(address)": {
        "details": "Sets the inventory address",
        "params": {
          "inventoryAddress": "The new address of the inventory contract"
        }
      },
      "setTokenURI(uint256,string)": {
        "details": "Only the manager role can call this function",
        "params": {
          "tokenId": "The ID of the item to set the URI for",
          "tokenURI": "The new item URI"
        }
      },
      "tokensByAccount(address)": {
        "params": {
          "account": "address to query"
        },
        "returns": {
          "_0": "list of token ids"
        }
      },
      "totalHolders(uint256)": {
        "params": {
          "id": "token id to query"
        },
        "returns": {
          "_0": "quantity of holders"
        }
      },
      "totalSupply(uint256)": {
        "params": {
          "id": "token id to query"
        },
        "returns": {
          "_0": "token supply"
        }
      }
    },
    "title": "ItemsFacet",
    "version": 1
  },
  "userdoc": {
    "kind": "user",
    "methods": {
      "accountsByToken(uint256)": {
        "notice": "query holders of given token"
      },
      "balanceOf(address,uint256)": {
        "notice": "query the balance of given token held by given address"
      },
      "balanceOfBatch(address[],uint256[])": {
        "notice": "query the balances of given tokens held by given addresses"
      },
      "basicItems()": {
        "notice": "Returns all the basic items"
      },
      "claimMerkle(uint256,uint256,bytes32[])": {
        "notice": "Claims an item if present in the Merkle tree"
      },
      "claimMerkleBatch(uint256[],uint256[],bytes32[][])": {
        "notice": "Claims items if present in the Merkle tree"
      },
      "claimWhitelist(uint256[],uint256[])": {
        "notice": "Claims items from a whitelist"
      },
      "claimedAmount(address,uint256)": {
        "notice": "Amount claimed by an address of a specific item"
      },
      "isApprovedForAll(address,address)": {
        "notice": "query approval status of given operator with respect to given address"
      },
      "isBasic(uint256)": {
        "notice": "Returns true if an item is basic, false otherwise"
      },
      "migrateToIPFS(string,bool)": {
        "notice": "Set the base URI for all items metadata"
      },
      "mint(address,uint256,uint256)": {
        "notice": "Mints a new item. Only minter role account can mint non-basic items"
      },
      "mintBatch(address,uint256[],uint256[])": {
        "notice": "Mint a batch of items to a specific address. Only minter role account can mint non-basic items"
      },
      "multicall(bytes[])": {
        "notice": "batch function calls to the contract and return the results of each"
      },
      "safeBatchTransferFrom(address,address,uint256[],uint256[],bytes)": {
        "notice": "transfer batch of tokens between given addresses, checking for ERC1155Receiver implementation if applicable"
      },
      "safeTransferFrom(address,address,uint256,uint256,bytes)": {
        "notice": "transfer tokens between given addresses, checking for ERC1155Receiver implementation if applicable"
      },
      "setApprovalForAll(address,bool)": {
        "notice": "grant approval to or revoke approval from given operator to spend held tokens"
      },
      "setBaseURI(string)": {
        "notice": "Set the base URI for all items metadata"
      },
      "setBasic(uint256,bool)": {
        "notice": "Add an item to the basic item pool"
      },
      "setBasicBatch(uint256[],bool[])": {
        "notice": "Add items to the basic item pool"
      },
      "setTokenURI(uint256,string)": {
        "notice": "Set the URI for a specific item ID"
      },
      "tokensByAccount(address)": {
        "notice": "query tokens held by given address"
      },
      "totalHolders(uint256)": {
        "notice": "query total number of holders for given token"
      },
      "totalSupply(uint256)": {
        "notice": "query total minted supply of given token"
      },
      "uri(uint256)": {
        "notice": "Override ERC1155Metadata"
      }
    },
    "version": 1
  },
  "storageLayout": {
    "storage": [],
    "types": null
  }
}