{
  "address": "0x9fE46736679d2D9a65F0992F2272dE9f3c7fa6e0",
  "abi": [
    {
      "inputs": [],
      "name": "AddressUtils__NotContract",
      "type": "error"
    },
    {
      "inputs": [],
      "name": "ERC165Base__InvalidInterfaceId",
      "type": "error"
    },
    {
      "inputs": [],
      "name": "ERC721Base__BalanceQueryZeroAddress",
      "type": "error"
    },
    {
      "inputs": [],
      "name": "ERC721Base__ERC721ReceiverNotImplemented",
      "type": "error"
    },
    {
      "inputs": [],
      "name": "ERC721Base__InvalidOwner",
      "type": "error"
    },
    {
      "inputs": [],
      "name": "ERC721Base__MintToZeroAddress",
      "type": "error"
    },
    {
      "inputs": [],
      "name": "ERC721Base__NonExistentToken",
      "type": "error"
    },
    {
      "inputs": [],
      "name": "ERC721Base__NotOwnerOrApproved",
      "type": "error"
    },
    {
      "inputs": [],
      "name": "ERC721Base__NotTokenOwner",
      "type": "error"
    },
    {
      "inputs": [],
      "name": "ERC721Base__SelfApproval",
      "type": "error"
    },
    {
      "inputs": [],
      "name": "ERC721Base__TokenAlreadyMinted",
      "type": "error"
    },
    {
      "inputs": [],
      "name": "ERC721Base__TransferToZeroAddress",
      "type": "error"
    },
    {
      "inputs": [],
      "name": "ERC721Metadata__NonExistentToken",
      "type": "error"
    },
    {
      "inputs": [],
      "name": "EnumerableMap__IndexOutOfBounds",
      "type": "error"
    },
    {
      "inputs": [],
      "name": "EnumerableMap__NonExistentKey",
      "type": "error"
    },
    {
      "inputs": [],
      "name": "EnumerableSet__IndexOutOfBounds",
      "type": "error"
    },
    {
      "inputs": [],
      "name": "ReentrancyGuard__ReentrantCall",
      "type": "error"
    },
    {
      "inputs": [],
      "name": "SolidStateERC721__PayableApproveNotSupported",
      "type": "error"
    },
    {
      "inputs": [],
      "name": "SolidStateERC721__PayableTransferNotSupported",
      "type": "error"
    },
    {
      "inputs": [],
      "name": "UintUtils__InsufficientHexLength",
      "type": "error"
    },
    {
      "anonymous": false,
      "inputs": [
        {
          "indexed": true,
          "internalType": "address",
          "name": "owner",
          "type": "address"
        },
        {
          "indexed": true,
          "internalType": "address",
          "name": "operator",
          "type": "address"
        },
        {
          "indexed": true,
          "internalType": "uint256",
          "name": "tokenId",
          "type": "uint256"
        }
      ],
      "name": "Approval",
      "type": "event"
    },
    {
      "anonymous": false,
      "inputs": [
        {
          "indexed": true,
          "internalType": "address",
          "name": "owner",
          "type": "address"
        },
        {
          "indexed": true,
          "internalType": "address",
          "name": "operator",
          "type": "address"
        },
        {
          "indexed": false,
          "internalType": "bool",
          "name": "approved",
          "type": "bool"
        }
      ],
      "name": "ApprovalForAll",
      "type": "event"
    },
    {
      "anonymous": false,
      "inputs": [
        {
          "indexed": true,
          "internalType": "address",
          "name": "to",
          "type": "address"
        },
        {
          "indexed": true,
          "internalType": "uint256",
          "name": "amount",
          "type": "uint256"
        }
      ],
      "name": "ArcadianClaimedMerkle",
      "type": "event"
    },
    {
      "anonymous": false,
      "inputs": [
        {
          "indexed": true,
          "internalType": "address",
          "name": "oldArcadiansAddress",
          "type": "address"
        },
        {
          "indexed": true,
          "internalType": "address",
          "name": "newArcadiansAddress",
          "type": "address"
        }
      ],
      "name": "ArcadiansAddressChanged",
      "type": "event"
    },
    {
      "anonymous": false,
      "inputs": [
        {
          "indexed": true,
          "internalType": "address",
          "name": "by",
          "type": "address"
        },
        {
          "indexed": false,
          "internalType": "string",
          "name": "oldBaseURI",
          "type": "string"
        },
        {
          "indexed": false,
          "internalType": "string",
          "name": "newBaseURI",
          "type": "string"
        }
      ],
      "name": "BaseURIChanged",
      "type": "event"
    },
    {
      "anonymous": false,
      "inputs": [
        {
          "indexed": true,
          "internalType": "address",
          "name": "by",
          "type": "address"
        },
        {
          "indexed": true,
          "internalType": "address",
          "name": "oldInventoryAddress",
          "type": "address"
        },
        {
          "indexed": true,
          "internalType": "address",
          "name": "newInventoryAddress",
          "type": "address"
        }
      ],
      "name": "InventoryAddressChanged",
      "type": "event"
    },
    {
      "anonymous": false,
      "inputs": [
        {
          "indexed": true,
          "internalType": "address",
          "name": "by",
          "type": "address"
        },
        {
          "indexed": false,
          "internalType": "address",
          "name": "itemAddress",
          "type": "address"
        },
        {
          "indexed": false,
          "internalType": "uint256",
          "name": "itemId",
          "type": "uint256"
        },
        {
          "indexed": false,
          "internalType": "uint256",
          "name": "slot",
          "type": "uint256"
        }
      ],
      "name": "ItemAllowedInSlot",
      "type": "event"
    },
    {
      "anonymous": false,
      "inputs": [
        {
          "indexed": true,
          "internalType": "address",
          "name": "by",
          "type": "address"
        },
        {
          "indexed": true,
          "internalType": "uint256",
          "name": "arcadianId",
          "type": "uint256"
        },
        {
          "indexed": true,
          "internalType": "address",
          "name": "itemAddress",
          "type": "address"
        },
        {
          "indexed": false,
          "internalType": "uint256",
          "name": "itemId",
          "type": "uint256"
        },
        {
          "indexed": false,
          "internalType": "uint256",
          "name": "amount",
          "type": "uint256"
        },
        {
          "indexed": false,
          "internalType": "uint256",
          "name": "slot",
          "type": "uint256"
        }
      ],
      "name": "ItemEquipped",
      "type": "event"
    },
    {
      "anonymous": false,
      "inputs": [
        {
          "indexed": true,
          "internalType": "address",
          "name": "by",
          "type": "address"
        },
        {
          "indexed": true,
          "internalType": "uint256",
          "name": "arcadianId",
          "type": "uint256"
        },
        {
          "indexed": false,
          "internalType": "uint256",
          "name": "slot",
          "type": "uint256"
        },
        {
          "indexed": false,
          "internalType": "uint256",
          "name": "amount",
          "type": "uint256"
        }
      ],
      "name": "ItemUnequipped",
      "type": "event"
    },
    {
      "anonymous": false,
      "inputs": [
        {
          "indexed": true,
          "internalType": "address",
          "name": "by",
          "type": "address"
        },
        {
          "indexed": false,
          "internalType": "uint256",
          "name": "oldMaxMintPerUser",
          "type": "uint256"
        },
        {
          "indexed": false,
          "internalType": "uint256",
          "name": "newMaxMintPerUser",
          "type": "uint256"
        }
      ],
      "name": "MaxMintPerUserChanged",
      "type": "event"
    },
    {
      "anonymous": false,
      "inputs": [
        {
          "indexed": true,
          "internalType": "address",
          "name": "by",
          "type": "address"
        },
        {
          "indexed": false,
          "internalType": "uint256",
          "name": "oldMintPrice",
          "type": "uint256"
        },
        {
          "indexed": false,
          "internalType": "uint256",
          "name": "newMintPrice",
          "type": "uint256"
        }
      ],
      "name": "MintPriceChanged",
      "type": "event"
    },
    {
      "anonymous": false,
      "inputs": [
        {
          "indexed": true,
          "internalType": "bytes32",
          "name": "role",
          "type": "bytes32"
        },
        {
          "indexed": true,
          "internalType": "bytes32",
          "name": "previousAdminRole",
          "type": "bytes32"
        },
        {
          "indexed": true,
          "internalType": "bytes32",
          "name": "newAdminRole",
          "type": "bytes32"
        }
      ],
      "name": "RoleAdminChanged",
      "type": "event"
    },
    {
      "anonymous": false,
      "inputs": [
        {
          "indexed": true,
          "internalType": "bytes32",
          "name": "role",
          "type": "bytes32"
        },
        {
          "indexed": true,
          "internalType": "address",
          "name": "account",
          "type": "address"
        },
        {
          "indexed": true,
          "internalType": "address",
          "name": "sender",
          "type": "address"
        }
      ],
      "name": "RoleGranted",
      "type": "event"
    },
    {
      "anonymous": false,
      "inputs": [
        {
          "indexed": true,
          "internalType": "bytes32",
          "name": "role",
          "type": "bytes32"
        },
        {
          "indexed": true,
          "internalType": "address",
          "name": "account",
          "type": "address"
        },
        {
          "indexed": true,
          "internalType": "address",
          "name": "sender",
          "type": "address"
        }
      ],
      "name": "RoleRevoked",
      "type": "event"
    },
    {
      "anonymous": false,
      "inputs": [
        {
          "indexed": true,
          "internalType": "address",
          "name": "by",
          "type": "address"
        },
        {
          "indexed": false,
          "internalType": "uint256",
          "name": "capacity",
          "type": "uint256"
        },
        {
          "indexed": false,
          "internalType": "bool",
          "name": "unequippable",
          "type": "bool"
        },
        {
          "indexed": false,
          "internalType": "uint256",
          "name": "slot",
          "type": "uint256"
        }
      ],
      "name": "SlotCreated",
      "type": "event"
    },
    {
      "anonymous": false,
      "inputs": [
        {
          "indexed": true,
          "internalType": "address",
          "name": "from",
          "type": "address"
        },
        {
          "indexed": true,
          "internalType": "address",
          "name": "to",
          "type": "address"
        },
        {
          "indexed": true,
          "internalType": "uint256",
          "name": "tokenId",
          "type": "uint256"
        }
      ],
      "name": "Transfer",
      "type": "event"
    },
    {
      "anonymous": false,
      "inputs": [
        {
          "indexed": false,
          "internalType": "address",
          "name": "account",
          "type": "address"
        },
        {
          "indexed": false,
          "internalType": "int256",
          "name": "amount",
          "type": "int256"
        },
        {
          "indexed": false,
          "internalType": "uint256",
          "name": "totalElegibleAmount",
          "type": "uint256"
        },
        {
          "indexed": false,
          "internalType": "uint256",
          "name": "totalClaimedAmount",
          "type": "uint256"
        }
      ],
      "name": "WhitelistBalanceChanged",
      "type": "event"
    },
    {
      "inputs": [
        {
          "internalType": "address",
          "name": "operator",
          "type": "address"
        },
        {
          "internalType": "uint256",
          "name": "tokenId",
          "type": "uint256"
        }
      ],
      "name": "approve",
      "outputs": [],
      "stateMutability": "payable",
      "type": "function"
    },
    {
      "inputs": [
        {
          "internalType": "address",
          "name": "account",
          "type": "address"
        }
      ],
      "name": "balanceOf",
      "outputs": [
        {
          "internalType": "uint256",
          "name": "",
          "type": "uint256"
        }
      ],
      "stateMutability": "view",
      "type": "function"
    },
    {
      "inputs": [
        {
          "internalType": "uint256",
          "name": "totalAmount",
          "type": "uint256"
        },
        {
          "internalType": "bytes32[]",
          "name": "proof",
          "type": "bytes32[]"
        }
      ],
      "name": "claimMerkle",
      "outputs": [],
      "stateMutability": "nonpayable",
      "type": "function"
    },
    {
      "inputs": [
        {
          "internalType": "uint256",
          "name": "amount",
          "type": "uint256"
        }
      ],
      "name": "claimWhitelist",
      "outputs": [],
      "stateMutability": "nonpayable",
      "type": "function"
    },
    {
      "inputs": [
        {
          "internalType": "uint256",
          "name": "tokenId",
          "type": "uint256"
        }
      ],
      "name": "getApproved",
      "outputs": [
        {
          "internalType": "address",
          "name": "",
          "type": "address"
        }
      ],
      "stateMutability": "view",
      "type": "function"
    },
    {
      "inputs": [],
      "name": "getBaseURI",
      "outputs": [
        {
          "internalType": "string",
          "name": "",
          "type": "string"
        }
      ],
      "stateMutability": "view",
      "type": "function"
    },
    {
      "inputs": [
        {
          "internalType": "address",
          "name": "account",
          "type": "address"
        }
      ],
      "name": "getClaimedAmountMerkle",
      "outputs": [
        {
          "internalType": "uint256",
          "name": "",
          "type": "uint256"
        }
      ],
      "stateMutability": "view",
      "type": "function"
    },
    {
      "inputs": [],
      "name": "getMaxMintPerUser",
      "outputs": [
        {
          "internalType": "uint256",
          "name": "",
          "type": "uint256"
        }
      ],
      "stateMutability": "view",
      "type": "function"
    },
    {
      "inputs": [],
      "name": "getMintPrice",
      "outputs": [
        {
          "internalType": "uint256",
          "name": "",
          "type": "uint256"
        }
      ],
      "stateMutability": "view",
      "type": "function"
    },
    {
      "inputs": [
        {
          "internalType": "address",
          "name": "account",
          "type": "address"
        },
        {
          "internalType": "address",
          "name": "operator",
          "type": "address"
        }
      ],
      "name": "isApprovedForAll",
      "outputs": [
        {
          "internalType": "bool",
          "name": "",
          "type": "bool"
        }
      ],
      "stateMutability": "view",
      "type": "function"
    },
    {
      "inputs": [],
      "name": "mint",
      "outputs": [],
      "stateMutability": "payable",
      "type": "function"
    },
    {
      "inputs": [],
      "name": "name",
      "outputs": [
        {
          "internalType": "string",
          "name": "",
          "type": "string"
        }
      ],
      "stateMutability": "view",
      "type": "function"
    },
    {
      "inputs": [
        {
          "internalType": "uint256",
          "name": "tokenId",
          "type": "uint256"
        }
      ],
      "name": "ownerOf",
      "outputs": [
        {
          "internalType": "address",
          "name": "",
          "type": "address"
        }
      ],
      "stateMutability": "view",
      "type": "function"
    },
    {
      "inputs": [
        {
          "internalType": "address",
          "name": "from",
          "type": "address"
        },
        {
          "internalType": "address",
          "name": "to",
          "type": "address"
        },
        {
          "internalType": "uint256",
          "name": "tokenId",
          "type": "uint256"
        }
      ],
      "name": "safeTransferFrom",
      "outputs": [],
      "stateMutability": "payable",
      "type": "function"
    },
    {
      "inputs": [
        {
          "internalType": "address",
          "name": "from",
          "type": "address"
        },
        {
          "internalType": "address",
          "name": "to",
          "type": "address"
        },
        {
          "internalType": "uint256",
          "name": "tokenId",
          "type": "uint256"
        },
        {
          "internalType": "bytes",
          "name": "data",
          "type": "bytes"
        }
      ],
      "name": "safeTransferFrom",
      "outputs": [],
      "stateMutability": "payable",
      "type": "function"
    },
    {
      "inputs": [
        {
          "internalType": "address",
          "name": "operator",
          "type": "address"
        },
        {
          "internalType": "bool",
          "name": "status",
          "type": "bool"
        }
      ],
      "name": "setApprovalForAll",
      "outputs": [],
      "stateMutability": "nonpayable",
      "type": "function"
    },
    {
      "inputs": [
        {
          "internalType": "string",
          "name": "baseURI",
          "type": "string"
        }
      ],
      "name": "setBaseURI",
      "outputs": [],
      "stateMutability": "nonpayable",
      "type": "function"
    },
    {
      "inputs": [
        {
          "internalType": "uint256",
          "name": "newMaxMintPerUser",
          "type": "uint256"
        }
      ],
      "name": "setMaxMintPerUser",
      "outputs": [],
      "stateMutability": "nonpayable",
      "type": "function"
    },
    {
      "inputs": [
        {
          "internalType": "uint256",
          "name": "newMintPrice",
          "type": "uint256"
        }
      ],
      "name": "setMintPrice",
      "outputs": [],
      "stateMutability": "nonpayable",
      "type": "function"
    },
    {
      "inputs": [
        {
          "internalType": "bytes4",
          "name": "interfaceId",
          "type": "bytes4"
        }
      ],
      "name": "supportsInterface",
      "outputs": [
        {
          "internalType": "bool",
          "name": "",
          "type": "bool"
        }
      ],
      "stateMutability": "view",
      "type": "function"
    },
    {
      "inputs": [],
      "name": "symbol",
      "outputs": [
        {
          "internalType": "string",
          "name": "",
          "type": "string"
        }
      ],
      "stateMutability": "view",
      "type": "function"
    },
    {
      "inputs": [
        {
          "internalType": "uint256",
          "name": "index",
          "type": "uint256"
        }
      ],
      "name": "tokenByIndex",
      "outputs": [
        {
          "internalType": "uint256",
          "name": "",
          "type": "uint256"
        }
      ],
      "stateMutability": "view",
      "type": "function"
    },
    {
      "inputs": [
        {
          "internalType": "address",
          "name": "owner",
          "type": "address"
        },
        {
          "internalType": "uint256",
          "name": "index",
          "type": "uint256"
        }
      ],
      "name": "tokenOfOwnerByIndex",
      "outputs": [
        {
          "internalType": "uint256",
          "name": "",
          "type": "uint256"
        }
      ],
      "stateMutability": "view",
      "type": "function"
    },
    {
      "inputs": [
        {
          "internalType": "uint256",
          "name": "tokenId",
          "type": "uint256"
        }
      ],
      "name": "tokenURI",
      "outputs": [
        {
          "internalType": "string",
          "name": "",
          "type": "string"
        }
      ],
      "stateMutability": "view",
      "type": "function"
    },
    {
      "inputs": [],
      "name": "totalSupply",
      "outputs": [
        {
          "internalType": "uint256",
          "name": "",
          "type": "uint256"
        }
      ],
      "stateMutability": "view",
      "type": "function"
    },
    {
      "inputs": [
        {
          "internalType": "address",
          "name": "from",
          "type": "address"
        },
        {
          "internalType": "address",
          "name": "to",
          "type": "address"
        },
        {
          "internalType": "uint256",
          "name": "tokenId",
          "type": "uint256"
        }
      ],
      "name": "transferFrom",
      "outputs": [],
      "stateMutability": "payable",
      "type": "function"
    }
  ],
  "transactionHash": "0xaa060ce5d60f443df2ac6779b6b3f9fcf511c9bd1b965509eaaf37744d8f03a2",
  "args": [],
  "numDeployments": 1,
  "solcInputHash": "1403a44eb90e55040374472b530a7dff",
  "bytecode": "0x608060405234801561001057600080fd5b50612d64806100206000396000f3fe6080604052600436106101815760003560e01c8063714c5398116100d1578063a7f93ebd1161008a578063ccb4f8d611610064578063ccb4f8d61461040d578063db718c941461042d578063e985e9c514610442578063f4a0a5281461046257600080fd5b8063a7f93ebd146103c5578063b88d4fde146103da578063c87b56dd146103ed57600080fd5b8063714c53981461031b57806383ccaef7146103305780638e10d55414610350578063958944f11461037057806395d89b4114610390578063a22cb465146103a557600080fd5b806323b872dd1161013e5780634f6ccce7116101185780634f6ccce71461029b57806355f804b3146102bb5780636352211e146102db57806370a08231146102fb57600080fd5b806323b872dd146102555780632f745c591461026857806342842e0e1461028857600080fd5b806301ffc9a71461018657806306fdde03146101bb578063081812fc146101dd578063095ea7b3146102155780631249c58b1461022a57806318160ddd14610232575b600080fd5b34801561019257600080fd5b506101a66101a13660046124eb565b610482565b60405190151581526020015b60405180910390f35b3480156101c757600080fd5b506101d06104c5565b6040516101b29190612558565b3480156101e957600080fd5b506101fd6101f836600461256b565b6104d4565b6040516001600160a01b0390911681526020016101b2565b610228610223366004612599565b6104df565b005b6102286104ed565b34801561023e57600080fd5b50610247610686565b6040519081526020016101b2565b6102286102633660046125c5565b610690565b34801561027457600080fd5b50610247610283366004612599565b6106a0565b6102286102963660046125c5565b6106b3565b3480156102a757600080fd5b506102476102b636600461256b565b6106be565b3480156102c757600080fd5b506102286102d63660046126a5565b6106c9565b3480156102e757600080fd5b506101fd6102f636600461256b565b610705565b34801561030757600080fd5b506102476103163660046126ee565b610710565b34801561032757600080fd5b506101d061071b565b34801561033c57600080fd5b5061022861034b36600461256b565b610725565b34801561035c57600080fd5b5061022861036b36600461256b565b610759565b34801561037c57600080fd5b5061022861038b36600461270b565b61078c565b34801561039c57600080fd5b506101d0610905565b3480156103b157600080fd5b506102286103c03660046127bd565b61090f565b3480156103d157600080fd5b50610247610919565b6102286103e83660046127fb565b610943565b3480156103f957600080fd5b506101d061040836600461256b565b610955565b34801561041957600080fd5b506102476104283660046126ee565b610960565b34801561043957600080fd5b5061024761098b565b34801561044e57600080fd5b506101a661045d36600461287b565b6109b5565b34801561046e57600080fd5b5061022861047d36600461256b565b6109c1565b6001600160e01b0319811660009081527ffc606c433378e3a7e0a6a531deac289b66caa1b4aa8554fd4ab2c6f1570f92d8602052604081205460ff165b92915050565b60606104cf6109f5565b905090565b60006104bf82610a94565b6104e98282610af7565b5050565b7f09acf4e54214992e70883cf7dcd6957ff2c71cd9e14df4bec4383bc0d11607dc805460020361053057604051635db5c7cd60e11b815260040160405180910390fd5b600281557f87a01bd38845081b30641ebc639dfadf787bd49017c45985af2341fe932c746554600080516020612cef8339815191529034146105cd5760405162461bcd60e51b815260206004820152602b60248201527f417263616469616e73496e7465726e616c2e5f6d696e743a20496e76616c696460448201526a081c185e48185b5bdd5b9d60aa1b60648201526084015b60405180910390fd5b3360008181526020839052604081205490916105e890610bfa565b6105f291906128bf565b90508160010154811061066d5760405162461bcd60e51b815260206004820152603b60248201527f417263616469616e73496e7465726e616c2e5f6d696e743a2055736572206d6160448201527f78696d756d206d696e74656420746f6b656e732072656163686564000000000060648201526084016105c4565b61067e33610679610c63565b610c7c565b505060019055565b60006104cf610c63565b61069b838383610c96565b505050565b60006106ac8383610cd4565b9392505050565b61069b838383610d15565b60006104bf82610d30565b6106f96106f47ff6deb63e40d71b08820818e006e23fcceb1fce7a499bc15b71b2526cbf9efa725490565b610d51565b61070281610d5b565b50565b60006104bf82610dd5565b60006104bf82610bfa565b60606104cf610e19565b6107506106f47ff6deb63e40d71b08820818e006e23fcceb1fce7a499bc15b71b2526cbf9efa725490565b61070281610e38565b6107633382610eab565b60005b818110156104e95761077a33610679610c63565b80610784816128d2565b915050610766565b7f09acf4e54214992e70883cf7dcd6957ff2c71cd9e14df4bec4383bc0d11607dc80546002036107cf57604051635db5c7cd60e11b815260040160405180910390fd5b60028155336000908152600080516020612cef833981519152602081905260409091205484116108365760405162461bcd60e51b8152602060048201526012602482015271105b1b081d1bdad95b9cc818db185a5b595960721b60448201526064016105c4565b6040805133602082015280820186905281518082038301815260609091019091526108618482611054565b503360009081526020839052604081205461087c90876128bf565b905060005b818110156108a75761089533610679610c63565b8061089f816128d2565b915050610881565b5033600090815260208490526040812080548392906108c79084906128eb565b9091555050604051819033907fc169c3974ad5176ea41e766768be74079ba8c86a136ed66c5ac85e602782db7d90600090a350506001909155505050565b60606104cf61110a565b6104e98282611129565b60006104cf7f87a01bd38845081b30641ebc639dfadf787bd49017c45985af2341fe932c74655490565b61094f848484846111dd565b50505050565b60606104bf8261121c565b6001600160a01b0381166000908152600080516020612cef83398151915260205260408120546104bf565b60006104cf7f87a01bd38845081b30641ebc639dfadf787bd49017c45985af2341fe932c74645490565b60006106ac83836113fd565b6109ec6106f47ff6deb63e40d71b08820818e006e23fcceb1fce7a499bc15b71b2526cbf9efa725490565b6107028161144a565b6060600080516020612d0f8339815191528054610a11906128fe565b80601f0160208091040260200160405190810160405280929190818152602001828054610a3d906128fe565b8015610a8a5780601f10610a5f57610100808354040283529160200191610a8a565b820191906000526020600020905b815481529060010190602001808311610a6d57829003601f168201915b5050505050905090565b6000610a9f826114bd565b610abc5760405163c1b843ef60e01b815260040160405180910390fd5b5060009081527f3c7bf052874fa81625121783266a03507bd2cd48b16e571c01a04e8dd3fb07a960205260409020546001600160a01b031690565b610b028282346114d7565b6000610b0d82610dd5565b9050806001600160a01b0316836001600160a01b031603610b415760405163424a22cb60e01b815260040160405180910390fd5b336001600160a01b03821614801590610b615750610b5f81336113fd565b155b15610b7f57604051632f5de44f60e01b815260040160405180910390fd5b60008281527f3c7bf052874fa81625121783266a03507bd2cd48b16e571c01a04e8dd3fb07a9602052604080822080546001600160a01b0319166001600160a01b0387811691821790925591518593918516917f8c5be1e5ebec7d5bd14f71427d1e84f3dd0314c0f7b2291e5b200ac8c7c3b92591a4505050565b60006001600160a01b038216610c2357604051630810ff9760e41b815260040160405180910390fd5b6001600160a01b03821660009081527f3c7bf052874fa81625121783266a03507bd2cd48b16e571c01a04e8dd3fb07a8602052604090206104bf90611501565b60006104cf600080516020612ccf833981519152611501565b6104e982826040518060200160405280600081525061150b565b610ca28383833461153f565b610cac338261156a565b610cc957604051632f5de44f60e01b815260040160405180910390fd5b61069b8383836115f0565b6001600160a01b03821660009081527f3c7bf052874fa81625121783266a03507bd2cd48b16e571c01a04e8dd3fb07a8602052604081206106ac908361177f565b61069b838383604051806020016040528060008152506111dd565b6000610d4a600080516020612ccf8339815191528361178b565b5092915050565b61070281336117a7565b604051600080516020612d0f8339815191529033907f92bf6a7b8937c17e6781a68d61f9fe6a5ce08604b96ca2206f311049a3a295ea90610dbf907f99574a7094154bb123ae6ae102096f0bf9679b85a5cd1e727aaa0ae5f132e6b3908690612938565b60405180910390a26002810161069b8382612a25565b600080610df0600080516020612ccf83398151915284611809565b90506001600160a01b0381166104bf57604051637e1a7d8b60e01b815260040160405180910390fd5b6060600080516020612d0f8339815191526002018054610a11906128fe565b7f87a01bd38845081b30641ebc639dfadf787bd49017c45985af2341fe932c74645460408051918252602082018390528051600080516020612cef8339815191529233927f9a201d4a67373d8576462c238c27108c61b3deec32a932aac079a84cc3b7742c92918290030190a260010155565b6001600160a01b03821660009081527ff38d3885e664c9638de25f02e645e1955ebebe901d7be2c2037db6a5bcbb358960205260409020547ff38d3885e664c9638de25f02e645e1955ebebe901d7be2c2037db6a5bcbb358890821115610f865760405162461bcd60e51b815260206004820152604360248201527f57686974656c697374496e7465726e616c2e5f636f6e73756d6557686974656c60448201527f6973743a20616d6f756e74206578636565647320656c656769626c6520616d6f6064820152621d5b9d60ea1b608482015260a4016105c4565b6001600160a01b038316600090815260018201602052604081208054849290610fb09084906128bf565b90915550506001600160a01b03831660009081526020829052604081208054849290610fdd9084906128eb565b90915550506001600160a01b0383166000908152600182016020908152604080832054848352928190205481513381529283018690529082019290925260608101919091527fdb4f4d78cc1c961ddedd2f43596d41d07e607b7517c7106d83f6421215e1f6a79060800160405180910390a1505050565b600080828051906020012060405160200161107191815260200190565b6040516020818303038152906040528051906020012090506110bb846110b47f7a07c093b55ad04e200605cb287859fe4640b7310d62fdbb044e26399da78c0890565b5483611815565b915081610d4a5760405162461bcd60e51b815260206004820152601b60248201527f44617461206e6f7420696e636c7564656420696e206d65726b6c65000000000060448201526064016105c4565b6060600080516020612d0f8339815191526001018054610a11906128fe565b336001600160a01b038316036111525760405163424a22cb60e01b815260040160405180910390fd5b3360008181527f3c7bf052874fa81625121783266a03507bd2cd48b16e571c01a04e8dd3fb07aa602090815260408083206001600160a01b03871680855290835292819020805460ff191686151590811790915590519081529192917f17307eab39ab6107e8899845ad3d59bd9653f200f220920489ca2b5937696c31910160405180910390a35050565b6111e98484843461153f565b6111f3338361156a565b61121057604051632f5de44f60e01b815260040160405180910390fd5b61094f848484846118ba565b6060611227826114bd565b61124357604051624705a760e71b815260040160405180910390fd5b60008281527f99574a7094154bb123ae6ae102096f0bf9679b85a5cd1e727aaa0ae5f132e6b4602052604081208054600080516020612d0f83398151915292919061128d906128fe565b80601f01602080910402602001604051908101604052809291908181526020018280546112b9906128fe565b80156113065780601f106112db57610100808354040283529160200191611306565b820191906000526020600020905b8154815290600101906020018083116112e957829003601f168201915b50505050509050600082600201805461131e906128fe565b80601f016020809104026020016040519081016040528092919081815260200182805461134a906128fe565b80156113975780601f1061136c57610100808354040283529160200191611397565b820191906000526020600020905b81548152906001019060200180831161137a57829003601f168201915b5050505050905080516000036113af57509392505050565b8151156113e25780826040516020016113c9929190612ae5565b6040516020818303038152906040529350505050919050565b806113ec866118ee565b6040516020016113c9929190612ae5565b6001600160a01b0391821660009081527f3c7bf052874fa81625121783266a03507bd2cd48b16e571c01a04e8dd3fb07aa6020908152604080832093909416825291909152205460ff1690565b7f87a01bd38845081b30641ebc639dfadf787bd49017c45985af2341fe932c74655460408051918252602082018390528051600080516020612cef8339815191529233927fed96032e9c101f4508a9696e8861f06aa3674be1b735fc685aed0efb83db76e992918290030190a260020155565b60006104bf600080516020612ccf833981519152836119ef565b80156114f65760405163b56d7c1b60e01b815260040160405180910390fd5b61069b838383611a07565b60006104bf825490565b6115158383611a26565b6115226000848484611b1b565b61069b57604051639ff10cdd60e01b815260040160405180910390fd5b801561155e576040516322b1813960e01b815260040160405180910390fd5b61094f84848484611bec565b6000611575826114bd565b6115925760405163c1b843ef60e01b815260040160405180910390fd5b600061159d83610dd5565b9050806001600160a01b0316846001600160a01b031614806115d85750836001600160a01b03166115cd84610a94565b6001600160a01b0316145b806115e857506115e881856113fd565b949350505050565b60006115fb82610dd5565b9050836001600160a01b0316816001600160a01b03161461162f57604051630f2db4ad60e01b815260040160405180910390fd5b6001600160a01b038316611656576040516340311a0960e01b815260040160405180910390fd5b611661848484611c10565b6001600160a01b03841660009081527f3c7bf052874fa81625121783266a03507bd2cd48b16e571c01a04e8dd3fb07a860205260409020600080516020612ccf833981519152906116b29084611c24565b506001600160a01b038416600090815260028201602052604090206116d79084611c30565b506116e3818486611c3c565b50600083815260038201602052604080822080546001600160a01b0319169055518491906001600160a01b038516907f8c5be1e5ebec7d5bd14f71427d1e84f3dd0314c0f7b2291e5b200ac8c7c3b925908390a482846001600160a01b0316866001600160a01b03167fddf252ad1be2c89b69c2b068fc378daa952ba7f163c4a11628f55a4df523b3ef60405160405180910390a45050505050565b60006106ac8383611c52565b600080808061179a8686611c9e565b9097909650945050505050565b6117b18282611d01565b6104e9576117c7816001600160a01b0316611d38565b6117d2836020611d4a565b6040516020016117e3929190612b14565b60408051601f198184030181529082905262461bcd60e51b82526105c491600401612558565b60006106ac8383611e9d565b600081815b85518110156118af57600086828151811061183757611837612b89565b602002602001015190508083116118795760408051602081018590529081018290526060016040516020818303038152906040528051906020012092506118a6565b60408051602081018390529081018490526060016040516020818303038152906040528051906020012092505b5060010161181a565b509092149392505050565b6118c58484846115f0565b6118d184848484611b1b565b61094f57604051639ff10cdd60e01b815260040160405180910390fd5b6060816000036119155750506040805180820190915260018152600360fc1b602082015290565b8160005b811561193f5780611929816128d2565b91506119389050600a83612bb5565b9150611919565b60008167ffffffffffffffff81111561195a5761195a612606565b6040519080825280601f01601f191660200182016040528015611984576020820181803683370190505b5090505b84156115e8576119996001836128bf565b91506119a6600a86612bc9565b6119b19060306128eb565b60f81b8183815181106119c6576119c6612b89565b60200101906001600160f81b031916908160001a9053506119e8600a86612bb5565b9450611988565b600081815260018301602052604081205415156106ac565b801561069b5760405163b56d7c1b60e01b815260040160405180910390fd5b6001600160a01b038216611a4d576040516311f2988d60e11b815260040160405180910390fd5b611a56816114bd565b15611a7457604051630d86bb7b60e31b815260040160405180910390fd5b611a8060008383611c10565b6001600160a01b03821660009081527f3c7bf052874fa81625121783266a03507bd2cd48b16e571c01a04e8dd3fb07a860205260409020600080516020612ccf83398151915290611ad19083611c30565b50611add818385611c3c565b5060405182906001600160a01b038516906000907fddf252ad1be2c89b69c2b068fc378daa952ba7f163c4a11628f55a4df523b3ef908290a4505050565b60006001600160a01b0384163b611b34575060016115e8565b6000611bb563150b7a0260e01b33888787604051602401611b589493929190612bdd565b604051602081830303815290604052906001600160e01b0319166020820180516001600160e01b038381831617835250505050604051806060016040528060328152602001612c9d603291396001600160a01b0388169190611f01565b9050600081806020019051810190611bcd9190612c19565b6001600160e01b031916630a85bd0160e11b1492505050949350505050565b8015611c0b576040516322b1813960e01b815260040160405180910390fd5b61094f565b611c1981611f10565b61069b8383836121bc565b60006106ac83836121c7565b60006106ac8383612281565b60006115e884846001600160a01b0385166122c4565b81546000908210611c765760405163e637bf3b60e01b815260040160405180910390fd5b826000018281548110611c8b57611c8b612b89565b9060005260206000200154905092915050565b815460009081908310611cc45760405163022fd82760e31b815260040160405180910390fd5b6000846000018481548110611cdb57611cdb612b89565b906000526020600020906002020190508060000154816001015492509250509250929050565b60008281527fd3889cc5458b268d0544e5534672df1296288ca3f93cbd39bd6f497a5c622811602052604081206106ac9083612363565b60606104bf6001600160a01b03831660145b60606000611d59836002612c36565b611d649060026128eb565b67ffffffffffffffff811115611d7c57611d7c612606565b6040519080825280601f01601f191660200182016040528015611da6576020820181803683370190505b509050600360fc1b81600081518110611dc157611dc1612b89565b60200101906001600160f81b031916908160001a905350600f60fb1b81600181518110611df057611df0612b89565b60200101906001600160f81b031916908160001a905350600160028402015b6001811115611e7d576f181899199a1a9b1b9c1cb0b131b232b360811b85600f1660108110611e4057611e40612b89565b1a60f81b828281518110611e5657611e56612b89565b60200101906001600160f81b031916908160001a90535060049490941c9360001901611e0f565b5083156106ac5760405163c913478560e01b815260040160405180910390fd5b6000818152600183016020526040812054808203611ece57604051633d547ec560e21b815260040160405180910390fd5b836000016001820381548110611ee657611ee6612b89565b90600052602060002090600202016001015491505092915050565b60606115e88484600085612385565b6040516331a9108f60e11b81526004810182905230908190636352211e90602401602060405180830381865afa925050508015611f6a575060408051601f3d908101601f19168201909252611f6791810190612c4d565b60015b156104e957336001600160a01b038216146120135760405162461bcd60e51b815260206004820152605c60248201527f496e76656e746f727946616365742e5f756e6571756970416c6c4974656d733a60448201527f2043616c6c6572206e6f7420417263616469616e7320636f6e7472616374206e60648201527f656974686572206f722074686520617263616469616e206f776e657200000000608482015260a4016105c4565b7ff672b8dc84d117c1e14949d8bc3977392b5ab7de9d01b854d389cdc31bf0d43660005b81548110156121b557600061204d8260016128eb565b6000878152600285016020908152604080832084845282528083206001808901909352922001549192509060ff1615801561208c575060008160020154115b156121a057805460018201546002830154604051637921219560e11b81523060048201523360248201526044810192909252606482015260a06084820152600060a48201526001600160a01b0390911690819063f242432a9060c401600060405180830381600087803b15801561210257600080fd5b505af1158015612116573d6000803e3d6000fd5b5050505087866001600160a01b03167faac45c254099c6998eb1c782987885f75442801e720e4387e6c4ade122529b70858560020154604051612163929190918252602082015260400190565b60405180910390a3506000878152600280860160209081526040808420868552909152822080546001600160a01b03191681556001810183905501555b505080806121ad906128d2565b915050612037565b5050505050565b61069b838383612442565b60008181526001830160205260408120548015610d4a578354600090859060001981019081106121f9576121f9612b89565b906000526020600020015490508085600001600184038154811061221f5761221f612b89565b600091825260208083209091019290925591825260018601905260409020819055835484908061225157612251612c6a565b60008281526020808220830160001990810183905590920190925593815260019485019093525050604081205590565b60008181526001830160205260408120546104bf575081546001808201845560008481526020808220909301849055845493815293810190915260409092205590565b600082815260018401602052604081205480820361232b5750506040805180820182528381526020808201848152865460018181018955600089815284812095516002909302909501918255915190820155865486845281880190925292909120556106ac565b8285600001600183038154811061234457612344612b89565b90600052602060002090600202016001018190555060009150506106ac565b6001600160a01b038116600090815260018301602052604081205415156106ac565b6060843b6123a657604051632270d6bf60e21b815260040160405180910390fd5b600080866001600160a01b031685876040516123c29190612c80565b60006040518083038185875af1925050503d80600081146123ff576040519150601f19603f3d011682016040523d82523d6000602084013e612404565b606091505b509150915081156124185791506115e89050565b8051156124285780518082602001fd5b8360405162461bcd60e51b81526004016105c49190612558565b61069b8383836001600160a01b03821661069b5760008181527f99574a7094154bb123ae6ae102096f0bf9679b85a5cd1e727aaa0ae5f132e6b460205260409020805461069b9190612493906128fe565b6000825580601f106124a3575050565b601f01602090049060005260206000209081019061070291905b808211156124d157600081556001016124bd565b5090565b6001600160e01b03198116811461070257600080fd5b6000602082840312156124fd57600080fd5b81356106ac816124d5565b60005b8381101561252357818101518382015260200161250b565b50506000910152565b60008151808452612544816020860160208601612508565b601f01601f19169290920160200192915050565b6020815260006106ac602083018461252c565b60006020828403121561257d57600080fd5b5035919050565b6001600160a01b038116811461070257600080fd5b600080604083850312156125ac57600080fd5b82356125b781612584565b946020939093013593505050565b6000806000606084860312156125da57600080fd5b83356125e581612584565b925060208401356125f581612584565b929592945050506040919091013590565b634e487b7160e01b600052604160045260246000fd5b604051601f8201601f1916810167ffffffffffffffff8111828210171561264557612645612606565b604052919050565b600067ffffffffffffffff83111561266757612667612606565b61267a601f8401601f191660200161261c565b905082815283838301111561268e57600080fd5b828260208301376000602084830101529392505050565b6000602082840312156126b757600080fd5b813567ffffffffffffffff8111156126ce57600080fd5b8201601f810184136126df57600080fd5b6115e88482356020840161264d565b60006020828403121561270057600080fd5b81356106ac81612584565b6000806040838503121561271e57600080fd5b8235915060208084013567ffffffffffffffff8082111561273e57600080fd5b818601915086601f83011261275257600080fd5b81358181111561276457612764612606565b8060051b915061277584830161261c565b818152918301840191848101908984111561278f57600080fd5b938501935b838510156127ad57843582529385019390850190612794565b8096505050505050509250929050565b600080604083850312156127d057600080fd5b82356127db81612584565b9150602083013580151581146127f057600080fd5b809150509250929050565b6000806000806080858703121561281157600080fd5b843561281c81612584565b9350602085013561282c81612584565b925060408501359150606085013567ffffffffffffffff81111561284f57600080fd5b8501601f8101871361286057600080fd5b61286f8782356020840161264d565b91505092959194509250565b6000806040838503121561288e57600080fd5b823561289981612584565b915060208301356127f081612584565b634e487b7160e01b600052601160045260246000fd5b818103818111156104bf576104bf6128a9565b6000600182016128e4576128e46128a9565b5060010190565b808201808211156104bf576104bf6128a9565b600181811c9082168061291257607f821691505b60208210810361293257634e487b7160e01b600052602260045260246000fd5b50919050565b60408152600080845461294a816128fe565b806040860152606060018084166000811461296c5760018114612986576129b7565b60ff1985168884015283151560051b8801830195506129b7565b8960005260208060002060005b868110156129ae5781548b8201870152908401908201612993565b8a018501975050505b505050505082810360208401526129ce818561252c565b95945050505050565b601f82111561069b57600081815260208120601f850160051c810160208610156129fe5750805b601f850160051c820191505b81811015612a1d57828155600101612a0a565b505050505050565b815167ffffffffffffffff811115612a3f57612a3f612606565b612a5381612a4d84546128fe565b846129d7565b602080601f831160018114612a885760008415612a705750858301515b600019600386901b1c1916600185901b178555612a1d565b600085815260208120601f198616915b82811015612ab757888601518255948401946001909101908401612a98565b5085821015612ad55787850151600019600388901b60f8161c191681555b5050505050600190811b01905550565b60008351612af7818460208801612508565b835190830190612b0b818360208801612508565b01949350505050565b7f416363657373436f6e74726f6c3a206163636f756e7420000000000000000000815260008351612b4c816017850160208801612508565b7001034b99036b4b9b9b4b733903937b6329607d1b6017918401918201528351612b7d816028840160208801612508565b01602801949350505050565b634e487b7160e01b600052603260045260246000fd5b634e487b7160e01b600052601260045260246000fd5b600082612bc457612bc4612b9f565b500490565b600082612bd857612bd8612b9f565b500690565b60006001600160a01b03808716835280861660208401525083604083015260806060830152612c0f608083018461252c565b9695505050505050565b600060208284031215612c2b57600080fd5b81516106ac816124d5565b80820281158282048414176104bf576104bf6128a9565b600060208284031215612c5f57600080fd5b81516106ac81612584565b634e487b7160e01b600052603160045260246000fd5b60008251612c92818460208701612508565b919091019291505056fe4552433732313a207472616e7366657220746f206e6f6e20455243373231526563656976657220696d706c656d656e7465723c7bf052874fa81625121783266a03507bd2cd48b16e571c01a04e8dd3fb07a687a01bd38845081b30641ebc639dfadf787bd49017c45985af2341fe932c746399574a7094154bb123ae6ae102096f0bf9679b85a5cd1e727aaa0ae5f132e6b1a26469706673582212204192d7561b8d3d3613312b21c00530cad2b6d1f8063e38fc87f50776c26bdfc564736f6c63430008130033",
  "devdoc": {
    "kind": "dev",
    "methods": {
      "approve(address,uint256)": {
        "params": {
          "operator": "address to be approved",
          "tokenId": "token to approve"
        }
      },
      "balanceOf(address)": {
        "returns": {
          "_0": "quantity of tokens held"
        }
      },
      "getApproved(uint256)": {
        "params": {
          "tokenId": "token to query"
        },
        "returns": {
          "_0": "address approved to spend token"
        }
      },
      "isApprovedForAll(address,address)": {
        "params": {
          "account": "address to query for approval granted",
          "operator": "address to query for approval received"
        },
        "returns": {
          "_0": "whether operator is approved to spend tokens held by account"
        }
      },
      "ownerOf(uint256)": {
        "params": {
          "tokenId": "token to query"
        },
        "returns": {
          "_0": "token owner"
        }
      },
      "safeTransferFrom(address,address,uint256)": {
        "params": {
          "from": "sender of token",
          "to": "receiver of token",
          "tokenId": "token id"
        }
      },
      "safeTransferFrom(address,address,uint256,bytes)": {
        "params": {
          "data": "data payload",
          "from": "sender of token",
          "to": "receiver of token",
          "tokenId": "token id"
        }
      },
      "setApprovalForAll(address,bool)": {
        "params": {
          "operator": "address to be approved",
          "status": "approval status"
        }
      },
      "supportsInterface(bytes4)": {
        "params": {
          "interfaceId": "interface id"
        },
        "returns": {
          "_0": "bool whether interface is supported"
        }
      },
      "tokenByIndex(uint256)": {
        "params": {
          "index": "position in global token list to query"
        },
        "returns": {
          "_0": "id of retrieved token"
        }
      },
      "tokenOfOwnerByIndex(address,uint256)": {
        "params": {
          "index": "position in owner's token list to query",
          "owner": "token holder to query"
        },
        "returns": {
          "_0": "id of retrieved token"
        }
      },
      "totalSupply()": {
        "returns": {
          "_0": "total supply"
        }
      },
      "transferFrom(address,address,uint256)": {
        "params": {
          "from": "sender of token",
          "to": "receiver of token",
          "tokenId": "token id"
        }
      }
    },
    "version": 1
  },
  "userdoc": {
    "kind": "user",
    "methods": {
      "approve(address,uint256)": {
        "notice": "grant approval to given account to spend token"
      },
      "balanceOf(address)": {
        "notice": "query the balance of given address"
      },
      "getApproved(uint256)": {
        "notice": "get approval status for given token"
      },
      "isApprovedForAll(address,address)": {
        "notice": "query approval status of given operator with respect to given address"
      },
      "name()": {
        "notice": "inheritdoc IERC721Metadata"
      },
      "ownerOf(uint256)": {
        "notice": "query the owner of given token"
      },
      "safeTransferFrom(address,address,uint256)": {
        "notice": "transfer token between given addresses, checking for ERC721Receiver implementation if applicable"
      },
      "safeTransferFrom(address,address,uint256,bytes)": {
        "notice": "transfer token between given addresses, checking for ERC721Receiver implementation if applicable"
      },
      "setApprovalForAll(address,bool)": {
        "notice": "grant approval to or revoke approval from given account to spend all tokens held by sender"
      },
      "supportsInterface(bytes4)": {
        "notice": "query whether contract has registered support for given interface"
      },
      "symbol()": {
        "notice": "inheritdoc IERC721Metadata"
      },
      "tokenByIndex(uint256)": {
        "notice": "get token at given internal storage index"
      },
      "tokenOfOwnerByIndex(address,uint256)": {
        "notice": "get token of given owner at given internal storage index"
      },
      "totalSupply()": {
        "notice": "get total token supply"
      },
      "transferFrom(address,address,uint256)": {
        "notice": "transfer token between given addresses, without checking for ERC721Receiver implementation if applicable"
      }
    },
    "version": 1
  },
  "storageLayout": {
    "storage": [],
    "types": null
  }
}