{
  "address": "0x0165878A594ca255338adfa4d48449f69242Eb8F",
  "abi": [
    {
      "inputs": [],
      "name": "ReentrancyGuard__ReentrantCall",
      "type": "error"
    },
    {
      "inputs": [],
      "name": "UintUtils__InsufficientHexLength",
      "type": "error"
    },
    {
      "anonymous": false,
      "inputs": [
        {
          "indexed": true,
          "internalType": "address",
          "name": "oldArcadiansAddress",
          "type": "address"
        },
        {
          "indexed": true,
          "internalType": "address",
          "name": "newArcadiansAddress",
          "type": "address"
        }
      ],
      "name": "ArcadiansAddressChanged",
      "type": "event"
    },
    {
      "anonymous": false,
      "inputs": [
        {
          "indexed": true,
          "internalType": "address",
          "name": "by",
          "type": "address"
        },
        {
          "indexed": false,
          "internalType": "address",
          "name": "itemAddress",
          "type": "address"
        },
        {
          "indexed": false,
          "internalType": "uint256",
          "name": "itemId",
          "type": "uint256"
        },
        {
          "indexed": false,
          "internalType": "uint256",
          "name": "slot",
          "type": "uint256"
        }
      ],
      "name": "ItemAllowedInSlot",
      "type": "event"
    },
    {
      "anonymous": false,
      "inputs": [
        {
          "indexed": true,
          "internalType": "address",
          "name": "by",
          "type": "address"
        },
        {
          "indexed": true,
          "internalType": "uint256",
          "name": "arcadianId",
          "type": "uint256"
        },
        {
          "indexed": true,
          "internalType": "address",
          "name": "itemAddress",
          "type": "address"
        },
        {
          "indexed": false,
          "internalType": "uint256",
          "name": "itemId",
          "type": "uint256"
        },
        {
          "indexed": false,
          "internalType": "uint256",
          "name": "amount",
          "type": "uint256"
        },
        {
          "indexed": false,
          "internalType": "uint256",
          "name": "slot",
          "type": "uint256"
        }
      ],
      "name": "ItemEquipped",
      "type": "event"
    },
    {
      "anonymous": false,
      "inputs": [
        {
          "indexed": true,
          "internalType": "address",
          "name": "by",
          "type": "address"
        },
        {
          "indexed": true,
          "internalType": "uint256",
          "name": "arcadianId",
          "type": "uint256"
        },
        {
          "indexed": false,
          "internalType": "uint256",
          "name": "slot",
          "type": "uint256"
        },
        {
          "indexed": false,
          "internalType": "uint256",
          "name": "amount",
          "type": "uint256"
        }
      ],
      "name": "ItemUnequipped",
      "type": "event"
    },
    {
      "anonymous": false,
      "inputs": [
        {
          "indexed": true,
          "internalType": "bytes32",
          "name": "role",
          "type": "bytes32"
        },
        {
          "indexed": true,
          "internalType": "bytes32",
          "name": "previousAdminRole",
          "type": "bytes32"
        },
        {
          "indexed": true,
          "internalType": "bytes32",
          "name": "newAdminRole",
          "type": "bytes32"
        }
      ],
      "name": "RoleAdminChanged",
      "type": "event"
    },
    {
      "anonymous": false,
      "inputs": [
        {
          "indexed": true,
          "internalType": "bytes32",
          "name": "role",
          "type": "bytes32"
        },
        {
          "indexed": true,
          "internalType": "address",
          "name": "account",
          "type": "address"
        },
        {
          "indexed": true,
          "internalType": "address",
          "name": "sender",
          "type": "address"
        }
      ],
      "name": "RoleGranted",
      "type": "event"
    },
    {
      "anonymous": false,
      "inputs": [
        {
          "indexed": true,
          "internalType": "bytes32",
          "name": "role",
          "type": "bytes32"
        },
        {
          "indexed": true,
          "internalType": "address",
          "name": "account",
          "type": "address"
        },
        {
          "indexed": true,
          "internalType": "address",
          "name": "sender",
          "type": "address"
        }
      ],
      "name": "RoleRevoked",
      "type": "event"
    },
    {
      "anonymous": false,
      "inputs": [
        {
          "indexed": true,
          "internalType": "address",
          "name": "by",
          "type": "address"
        },
        {
          "indexed": false,
          "internalType": "uint256",
          "name": "capacity",
          "type": "uint256"
        },
        {
          "indexed": false,
          "internalType": "bool",
          "name": "unequippable",
          "type": "bool"
        },
        {
          "indexed": false,
          "internalType": "uint256",
          "name": "slot",
          "type": "uint256"
        }
      ],
      "name": "SlotCreated",
      "type": "event"
    },
    {
      "inputs": [
        {
          "internalType": "address",
          "name": "itemAddress",
          "type": "address"
        },
        {
          "internalType": "uint256",
          "name": "itemId",
          "type": "uint256"
        },
        {
          "internalType": "uint256",
          "name": "slot",
          "type": "uint256"
        }
      ],
      "name": "allowItemInSlot",
      "outputs": [],
      "stateMutability": "nonpayable",
      "type": "function"
    },
    {
      "inputs": [
        {
          "internalType": "address",
          "name": "itemAddress",
          "type": "address"
        },
        {
          "internalType": "uint256[]",
          "name": "allowedItemIds",
          "type": "uint256[]"
        },
        {
          "internalType": "uint256",
          "name": "capacity",
          "type": "uint256"
        },
        {
          "internalType": "bool",
          "name": "unequippable",
          "type": "bool"
        }
      ],
      "name": "createSlot",
      "outputs": [],
      "stateMutability": "nonpayable",
      "type": "function"
    },
    {
      "inputs": [
        {
          "internalType": "uint256",
          "name": "arcadianId",
          "type": "uint256"
        },
        {
          "internalType": "address",
          "name": "itemAddress",
          "type": "address"
        },
        {
          "internalType": "uint256",
          "name": "itemId",
          "type": "uint256"
        },
        {
          "internalType": "uint256",
          "name": "amount",
          "type": "uint256"
        },
        {
          "internalType": "uint256",
          "name": "slot",
          "type": "uint256"
        }
      ],
      "name": "equip",
      "outputs": [],
      "stateMutability": "nonpayable",
      "type": "function"
    },
    {
      "inputs": [
        {
          "internalType": "uint256",
          "name": "arcadianId",
          "type": "uint256"
        },
        {
          "internalType": "address",
          "name": "itemAddress",
          "type": "address"
        },
        {
          "internalType": "uint256[]",
          "name": "itemIds",
          "type": "uint256[]"
        },
        {
          "internalType": "uint256[]",
          "name": "amounts",
          "type": "uint256[]"
        },
        {
          "internalType": "uint256[]",
          "name": "slots",
          "type": "uint256[]"
        }
      ],
      "name": "equipBatch",
      "outputs": [],
      "stateMutability": "nonpayable",
      "type": "function"
    },
    {
      "inputs": [
        {
          "internalType": "uint256",
          "name": "arcadianId",
          "type": "uint256"
        },
        {
          "internalType": "uint256",
          "name": "slot",
          "type": "uint256"
        }
      ],
      "name": "equipped",
      "outputs": [
        {
          "components": [
            {
              "internalType": "address",
              "name": "itemAddress",
              "type": "address"
            },
            {
              "internalType": "uint256",
              "name": "id",
              "type": "uint256"
            },
            {
              "internalType": "uint256",
              "name": "amount",
              "type": "uint256"
            }
          ],
          "internalType": "struct InventoryStorage.EquippedItem",
          "name": "item",
          "type": "tuple"
        }
      ],
      "stateMutability": "view",
      "type": "function"
    },
    {
      "inputs": [
        {
          "internalType": "uint256",
          "name": "arcadianId",
          "type": "uint256"
        }
      ],
      "name": "equippedAll",
      "outputs": [
        {
          "components": [
            {
              "internalType": "address",
              "name": "itemAddress",
              "type": "address"
            },
            {
              "internalType": "uint256",
              "name": "id",
              "type": "uint256"
            },
            {
              "internalType": "uint256",
              "name": "amount",
              "type": "uint256"
            }
          ],
          "internalType": "struct InventoryStorage.EquippedItem[]",
          "name": "item",
          "type": "tuple[]"
        }
      ],
      "stateMutability": "view",
      "type": "function"
    },
    {
      "inputs": [
        {
          "internalType": "address",
          "name": "itemAddress",
          "type": "address"
        },
        {
          "internalType": "uint256",
          "name": "itemId",
          "type": "uint256"
        }
      ],
      "name": "getItemAllowedSlots",
      "outputs": [
        {
          "internalType": "uint256[]",
          "name": "",
          "type": "uint256[]"
        }
      ],
      "stateMutability": "view",
      "type": "function"
    },
    {
      "inputs": [
        {
          "internalType": "uint256",
          "name": "slot",
          "type": "uint256"
        }
      ],
      "name": "getSlot",
      "outputs": [
        {
          "components": [
            {
              "internalType": "uint256",
              "name": "capacity",
              "type": "uint256"
            },
            {
              "internalType": "bool",
              "name": "isUnequippable",
              "type": "bool"
            },
            {
              "internalType": "uint256[]",
              "name": "allowedItemsIds",
              "type": "uint256[]"
            }
          ],
          "internalType": "struct InventoryStorage.Slot",
          "name": "",
          "type": "tuple"
        }
      ],
      "stateMutability": "view",
      "type": "function"
    },
    {
      "inputs": [],
      "name": "numSlots",
      "outputs": [
        {
          "internalType": "uint256",
          "name": "",
          "type": "uint256"
        }
      ],
      "stateMutability": "view",
      "type": "function"
    },
    {
      "inputs": [
        {
          "internalType": "address",
          "name": "",
          "type": "address"
        },
        {
          "internalType": "address",
          "name": "",
          "type": "address"
        },
        {
          "internalType": "uint256[]",
          "name": "",
          "type": "uint256[]"
        },
        {
          "internalType": "uint256[]",
          "name": "",
          "type": "uint256[]"
        },
        {
          "internalType": "bytes",
          "name": "",
          "type": "bytes"
        }
      ],
      "name": "onERC1155BatchReceived",
      "outputs": [
        {
          "internalType": "bytes4",
          "name": "",
          "type": "bytes4"
        }
      ],
      "stateMutability": "nonpayable",
      "type": "function"
    },
    {
      "inputs": [
        {
          "internalType": "address",
          "name": "",
          "type": "address"
        },
        {
          "internalType": "address",
          "name": "",
          "type": "address"
        },
        {
          "internalType": "uint256",
          "name": "",
          "type": "uint256"
        },
        {
          "internalType": "uint256",
          "name": "",
          "type": "uint256"
        },
        {
          "internalType": "bytes",
          "name": "",
          "type": "bytes"
        }
      ],
      "name": "onERC1155Received",
      "outputs": [
        {
          "internalType": "bytes4",
          "name": "",
          "type": "bytes4"
        }
      ],
      "stateMutability": "nonpayable",
      "type": "function"
    },
    {
      "inputs": [
        {
          "internalType": "address",
          "name": "",
          "type": "address"
        },
        {
          "internalType": "address",
          "name": "",
          "type": "address"
        },
        {
          "internalType": "uint256",
          "name": "",
          "type": "uint256"
        },
        {
          "internalType": "bytes",
          "name": "",
          "type": "bytes"
        }
      ],
      "name": "onERC721Received",
      "outputs": [
        {
          "internalType": "bytes4",
          "name": "",
          "type": "bytes4"
        }
      ],
      "stateMutability": "nonpayable",
      "type": "function"
    },
    {
      "inputs": [
        {
          "internalType": "bytes4",
          "name": "interfaceId",
          "type": "bytes4"
        }
      ],
      "name": "supportsInterface",
      "outputs": [
        {
          "internalType": "bool",
          "name": "",
          "type": "bool"
        }
      ],
      "stateMutability": "view",
      "type": "function"
    },
    {
      "inputs": [
        {
          "internalType": "uint256",
          "name": "arcadianId",
          "type": "uint256"
        },
        {
          "internalType": "uint256",
          "name": "slot",
          "type": "uint256"
        },
        {
          "internalType": "bool",
          "name": "unequipAll",
          "type": "bool"
        },
        {
          "internalType": "uint256",
          "name": "amount",
          "type": "uint256"
        }
      ],
      "name": "unequip",
      "outputs": [],
      "stateMutability": "nonpayable",
      "type": "function"
    },
    {
      "inputs": [
        {
          "internalType": "uint256",
          "name": "arcadianId",
          "type": "uint256"
        }
      ],
      "name": "unequipAllItems",
      "outputs": [],
      "stateMutability": "nonpayable",
      "type": "function"
    },
    {
      "inputs": [
        {
          "internalType": "uint256",
          "name": "arcadianId",
          "type": "uint256"
        },
        {
          "internalType": "uint256[]",
          "name": "slots",
          "type": "uint256[]"
        },
        {
          "internalType": "bool[]",
          "name": "unequipAll",
          "type": "bool[]"
        },
        {
          "internalType": "uint256[]",
          "name": "amounts",
          "type": "uint256[]"
        }
      ],
      "name": "unequipBatch",
      "outputs": [],
      "stateMutability": "nonpayable",
      "type": "function"
    }
  ],
  "transactionHash": "0x2196fabdd7bc3f2495a038abf3675483d093cad5963cf68085e6ed1ce8e57bfb",
  "args": [],
  "numDeployments": 1,
  "solcInputHash": "1403a44eb90e55040374472b530a7dff",
  "bytecode": "0x608060405234801561001057600080fd5b50612ce4806100206000396000f3fe608060405234801561001057600080fd5b50600436106101005760003560e01c80639621ff2511610097578063ca461d9511610066578063ca461d951461025a578063dd7ef3eb1461026d578063ef0bf7de14610280578063f23a6e61146102a057600080fd5b80639621ff25146101f25780639e3ccb2a14610208578063bc197c8114610228578063c45aabf61461024757600080fd5b806325472687116100d3578063254726871461018c5780634b46daef1461019f57806352dc63ac146101b25780637eba7ba6146101d257600080fd5b806301ffc9a71461010557806303a8fe4b1461012d5780631002105614610142578063150b7a0214610155575b600080fd5b6101186101133660046121c8565b6102bf565b60405190151581526020015b60405180910390f35b61014061013b366004612253565b6102f6565b005b61014061015036600461231e565b61035b565b610173610163366004612445565b630a85bd0160e11b949350505050565b6040516001600160e01b03199091168152602001610124565b61014061019a3660046124b1565b61037f565b6101406101ad3660046124e6565b61038f565b6101c56101c036600461252e565b6103ee565b604051610124919061255a565b6101e56101e036600461259e565b610482565b60405161012491906125b7565b6101fa61054d565b604051908152602001610124565b61021b61021636600461259e565b61055c565b604051610124919061261f565b6101736102363660046126fe565b63bc197c8160e01b95945050505050565b61014061025536600461259e565b610567565b6101406102683660046127ac565b610573565b61014061027b3660046127e9565b6105d0565b61029361028e36600461288d565b6105e8565b60405161012491906128af565b6101736102ae3660046128d9565b63f23a6e6160e01b95945050505050565b60006001600160e01b03198216630271189760e51b14806102f057506301ffc9a760e01b6001600160e01b03198316145b92915050565b7f09acf4e54214992e70883cf7dcd6957ff2c71cd9e14df4bec4383bc0d11607dc805460020361033957604051635db5c7cd60e11b815260040160405180910390fd5b6002815561034d8989898989898989610626565b600190555050505050505050565b61036b610366610c8d565b610cb7565b6103788585858585610cc1565b5050505050565b61038a838383610de0565b505050565b7f09acf4e54214992e70883cf7dcd6957ff2c71cd9e14df4bec4383bc0d11607dc80546002036103d257604051635db5c7cd60e11b815260040160405180910390fd5b600281556103e38686868686610e84565b600190555050505050565b6001600160a01b03821660009081527ff672b8dc84d117c1e14949d8bc3977392b5ab7de9d01b854d389cdc31bf0d43a6020908152604080832084845282529182902080548351818402810184019094528084526060939283018282801561047557602002820191906000526020600020905b815481526020019060010190808311610461575b5050505050905092915050565b604080516060808201835260008083526020830152918101919091526104d28260009081527ff672b8dc84d117c1e14949d8bc3977392b5ab7de9d01b854d389cdc31bf0d4376020526040902090565b6040805160608101825282548152600183015460ff16151560208083019190915260028401805484518184028101840186528181529395948601939283018282801561053d57602002820191906000526020600020905b815481526020019060010190808311610529575b5050505050815250509050919050565b60006105576112a9565b905090565b60606102f0826112bf565b610570816113a5565b50565b7f09acf4e54214992e70883cf7dcd6957ff2c71cd9e14df4bec4383bc0d11607dc80546002036105b657604051635db5c7cd60e11b815260040160405180910390fd5b600281556105c685858585611624565b6001905550505050565b6105df8787878787878761192c565b50505050505050565b610615604051806060016040528060006001600160a01b0316815260200160008152602001600081525090565b61061f8383611d10565b9392505050565b6040516331a9108f60e11b815260048101899052889030908190636352211e90602401602060405180830381865afa158015610666573d6000803e3d6000fd5b505050506040513d601f19601f8201168201806040525081019061068a9190612942565b6001600160a01b0316336001600160a01b0316146106c35760405162461bcd60e51b81526004016106ba9061295f565b60405180910390fd5b82871480156106d157508685145b6107435760405162461bcd60e51b815260206004820152603660248201527f496e76656e746f727946616365742e5f657175697042617463683a20496e707560448201527f742064617461206c656e677468206d69736d617463680000000000000000000060648201526084016106ba565b600080516020612c8f8339815191528960005b89811015610c1657826003016000888884818110610776576107766129bc565b90506020020135815260200190815260200160002060008d6001600160a01b03166001600160a01b0316815260200190815260200160002060008c8c848181106107c2576107c26129bc565b602090810292909201358352508101919091526040016000205460ff166108515760405162461bcd60e51b815260206004820152603660248201527f496e76656e746f727946616365742e5f657175697042617463683a204974656d60448201527f206e6f7420656c656769626c6520666f7220736c6f740000000000000000000060648201526084016106ba565b888882818110610863576108636129bc565b90506020020135836001016000898985818110610882576108826129bc565b90506020020135815260200190815260200160002060000154101561090f5760405162461bcd60e51b815260206004820152603d60248201527f496e76656e746f727946616365742e5f657175697042617463683a204974656d60448201527f20616d6f756e74206578636565647320736c6f7420636170616369747900000060648201526084016106ba565b888882818110610921576109216129bc565b90506020020135826001600160a01b031662fdd58e338e8e86818110610949576109496129bc565b6040516001600160e01b031960e087901b1681526001600160a01b0390941660048501526020029190910135602483015250604401602060405180830381865afa15801561099b573d6000803e3d6000fd5b505050506040513d601f19601f820116820180604052508101906109bf91906129d2565b1015610a335760405162461bcd60e51b815260206004820152603a60248201527f496e76656e746f727946616365742e65717569703a2053656e6465722068617360448201527f20696e73756666696369656e74206974656d2062616c616e636500000000000060648201526084016106ba565b60008d8152600284016020526040812081898985818110610a5657610a566129bc565b905060200201358152602001908152602001600020600201541115610a9b57610a9b8d888884818110610a8b57610a8b6129bc565b9050602002013560016000611624565b6001600160a01b038c168d337fca5f4ab066342b47da5386168ff3e83e4adf2fac5830bc49703b70908525ab468e8e86818110610ada57610ada6129bc565b905060200201358d8d87818110610af357610af36129bc565b905060200201358c8c88818110610b0c57610b0c6129bc565b90506020020135604051610b33939291909283526020830191909152604082015260600190565b60405180910390a460405180606001604052808d6001600160a01b031681526020018c8c84818110610b6757610b676129bc565b9050602002013581526020018a8a84818110610b8557610b856129bc565b905060200201358152508360020160008f81526020019081526020016000206000898985818110610bb857610bb86129bc565b60209081029290920135835250818101929092526040908101600020835181546001600160a01b0319166001600160a01b03909116178155918301516001830155919091015160029091015580610c0e81612a01565b915050610756565b50604051631759616b60e11b81526001600160a01b03821690632eb2c2d690610c4d90339030908f908f908f908f90600401612a4c565b600060405180830381600087803b158015610c6757600080fd5b505af1158015610c7b573d6000803e3d6000fd5b50505050505050505050505050505050565b60007ff6deb63e40d71b08820818e006e23fcceb1fce7a499bc15b71b2526cbf9efa725b54919050565b6105708133611da4565b846001600160a01b0381163b610d315760405162461bcd60e51b815260206004820152602f60248201527f496e76656e746f727946616365743a204164647265737320676976656e20697360448201526e081b9bdd08184818dbdb9d1c9858dd608a1b60648201526084016106ba565b600080516020612c8f83398151915280546001908290600090610d55908490612aab565b90915550508054600081815260018084016020526040909120908101805460ff19168615151790558590558515610d9257610d9288888884611e06565b60408051868152851515602082015290810182905233907fa28f3b4b2c47e1665e89d0bf14b7d48fb80b040942c93ab375bfb714e12e9bf99060600160405180910390a25050505050505050565b8080600003610e015760405162461bcd60e51b81526004016106ba90612abe565b600080516020612c8f83398151915254811115610e305760405162461bcd60e51b81526004016106ba90612b03565b836001600160a01b038116610e795760405162461bcd60e51b815260206004820152600f60248201526e496e76616c6964204164647265737360881b60448201526064016106ba565b610378858585611edf565b6040516331a9108f60e11b815260048101869052859030908190636352211e90602401602060405180830381865afa158015610ec4573d6000803e3d6000fd5b505050506040513d601f19601f82011682018060405250810190610ee89190612942565b6001600160a01b0316336001600160a01b031614610f185760405162461bcd60e51b81526004016106ba9061295f565b60008381527ff672b8dc84d117c1e14949d8bc3977392b5ab7de9d01b854d389cdc31bf0d439602090815260408083206001600160a01b038a1684528252808320888452909152902054600080516020612c8f8339815191529060ff16610fda5760405162461bcd60e51b815260206004820152603060248201527f496e76656e746f727946616365742e65717569703a204974656d206e6f74206560448201526f1b1959da589b1948199bdc881cdb1bdd60821b60648201526084016106ba565b60008481526001820160205260409020548511156110605760405162461bcd60e51b815260206004820152603760248201527f496e76656e746f727946616365742e65717569703a204974656d20616d6f756e60448201527f74206578636565647320736c6f7420636170616369747900000000000000000060648201526084016106ba565b600088815260028083016020908152604080842088855290915290912001541561109257611092888560016000611624565b604051627eeac760e11b815233600482015260248101879052879086906001600160a01b0383169062fdd58e90604401602060405180830381865afa1580156110df573d6000803e3d6000fd5b505050506040513d601f19601f8201168201806040525081019061110391906129d2565b101561118e5760405162461bcd60e51b815260206004820152604e60248201527f496e76656e746f727946616365742e65717569703a204d65737361676520736560448201527f6e64657220646f6573206e6f74206f776e20656e6f756768206f66207468617460648201526d0206974656d20746f2065717569760941b608482015260a4016106ba565b604051637921219560e11b81526001600160a01b0382169063f242432a906111c090339030908c908c90600401612b45565b600060405180830381600087803b1580156111da57600080fd5b505af11580156111ee573d6000803e3d6000fd5b5050604080518a8152602081018a90529081018890526001600160a01b038b1692508b915033907fca5f4ab066342b47da5386168ff3e83e4adf2fac5830bc49703b70908525ab469060600160405180910390a450604080516060810182526001600160a01b039889168152602080820198895281830197885260009a8b5260029384018152828b20968b5295909552909720925183546001600160a01b031916961695909517825550915160018301555192019190915550565b6000600080516020612c8f833981519152610cb1565b600080516020612c8f8339815191525460609060008167ffffffffffffffff8111156112ed576112ed61238e565b60405190808252806020026020018201604052801561134b57816020015b611338604051806060016040528060006001600160a01b0316815260200160008152602001600081525090565b81526020019060019003908161130b5790505b50905060005b8281101561139d5761136d85611368836001612aab565b611d10565b82828151811061137f5761137f6129bc565b6020026020010181905250808061139590612a01565b915050611351565b509392505050565b6040516331a9108f60e11b81526004810182905230908190636352211e90602401602060405180830381865afa9250505080156113ff575060408051601f3d908101601f191682019092526113fc91810190612942565b60015b1561162057336001600160a01b038216146114a85760405162461bcd60e51b815260206004820152605c60248201527f496e76656e746f727946616365742e5f756e6571756970416c6c4974656d733a60448201527f2043616c6c6572206e6f7420417263616469616e7320636f6e7472616374206e60648201527f656974686572206f722074686520617263616469616e206f776e657200000000608482015260a4016106ba565b600080516020612c8f83398151915260005b81548110156103785760006114d0826001612aab565b6000878152600285016020908152604080832084845282528083206001808901909352922001549192509060ff1615801561150f575060008160020154115b1561160b57805460018201546002830154604051637921219560e11b81526001600160a01b0390931692839263f242432a9261155392309233929091600401612b45565b600060405180830381600087803b15801561156d57600080fd5b505af1158015611581573d6000803e3d6000fd5b5050505087866001600160a01b03167faac45c254099c6998eb1c782987885f75442801e720e4387e6c4ade122529b708585600201546040516115ce929190918252602082015260400190565b60405180910390a3506000878152600280860160209081526040808420868552909152822080546001600160a01b03191681556001810183905501555b5050808061161890612a01565b9150506114ba565b5050565b6040516331a9108f60e11b815260048101859052849030908190636352211e90602401602060405180830381865afa158015611664573d6000803e3d6000fd5b505050506040513d601f19601f820116820180604052508101906116889190612942565b6001600160a01b0316336001600160a01b0316146116b85760405162461bcd60e51b81526004016106ba9061295f565b60008581527ff672b8dc84d117c1e14949d8bc3977392b5ab7de9d01b854d389cdc31bf0d4376020526040902060010154600080516020612c8f8339815191529060ff16156117635760405162461bcd60e51b815260206004820152603160248201527f496e76656e746f727946616365742e5f756e65717569703a20536c6f74206973604482015270206e6f7420756e65717569707061626c6560781b60648201526084016106ba565b6000878152600282016020908152604080832089845290915290208515611790578060020154945061181e565b806002015485111561181e5760405162461bcd60e51b815260206004820152604b60248201527f496e76656e746f727946616365742e5f756e65717569703a20417474656d707460448201527f696e6720746f20756e657175697020746f6f206d616e79206974656d7320667260648201526a1bdb481d1a19481cdb1bdd60aa1b608482015260a4016106ba565b80546001820154604051637921219560e11b81526001600160a01b0390921691829163f242432a916118599130913391908c90600401612b45565b600060405180830381600087803b15801561187357600080fd5b505af1158015611887573d6000803e3d6000fd5b5050604080518b8152602081018a90528c93503392507faac45c254099c6998eb1c782987885f75442801e720e4387e6c4ade122529b70910160405180910390a3858260020160008282546118dc9190612b7d565b909155505060028201546000036119215760008981526002808501602090815260408084208c8552909152822080546001600160a01b03191681556001810183905501555b505050505050505050565b6040516331a9108f60e11b815260048101889052879030908190636352211e90602401602060405180830381865afa15801561196c573d6000803e3d6000fd5b505050506040513d601f19601f820116820180604052508101906119909190612942565b6001600160a01b0316336001600160a01b0316146119c05760405162461bcd60e51b81526004016106ba9061295f565b600080516020612c8f83398151915260005b88811015611d035760008686838181106119ee576119ee6129bc565b9050602002013590508260010160008c8c85818110611a0f57611a0f6129bc565b602090810292909201358352508101919091526040016000206001015460ff1615611aa25760405162461bcd60e51b815260206004820152603660248201527f496e76656e746f727946616365742e5f756e657175697042617463683a20536c60448201527f6f74206973206e6f7420756e65717569707061626c650000000000000000000060648201526084016106ba565b60008c81526002840160205260408120818d8d86818110611ac557611ac56129bc565b9050602002013581526020019081526020016000209050898984818110611aee57611aee6129bc565b9050602002016020810190611b039190612b90565b15611b145780600201549150611ba7565b8060020154821115611ba75760405162461bcd60e51b815260206004820152605060248201527f496e76656e746f727946616365742e5f756e657175697042617463683a20417460448201527f74656d7074696e6720746f20756e657175697020746f6f206d616e792069746560648201526f1b5cc8199c9bdb481d1a19481cdb1bdd60821b608482015260a4016106ba565b80546001820154604051637921219560e11b81526001600160a01b0390921691829163f242432a91611be29130913391908990600401612b45565b600060405180830381600087803b158015611bfc57600080fd5b505af1158015611c10573d6000803e3d6000fd5b5050505082826002016000828254611c289190612b7d565b90915550506002820154600003611c915760008e81526002860160205260408120908e8e87818110611c5c57611c5c6129bc565b60209081029290920135835250810191909152604001600090812080546001600160a01b031916815560018101829055600201555b8d337faac45c254099c6998eb1c782987885f75442801e720e4387e6c4ade122529b708f8f88818110611cc657611cc66129bc565b9050602002013586604051611ce5929190918252602082015260400190565b60405180910390a35050508080611cfb90612a01565b9150506119d2565b5050505050505050505050565b611d3d604051806060016040528060006001600160a01b0316815260200160008152602001600081525090565b5060009182527ff672b8dc84d117c1e14949d8bc3977392b5ab7de9d01b854d389cdc31bf0d4386020908152604080842092845291815291819020815160608101835281546001600160a01b03168152600182015493810193909352600201549082015290565b611dae828261200a565b61162057611dc4816001600160a01b0316612063565b611dcf836020612075565b604051602001611de0929190612bcf565b60408051601f198184030181529082905262461bcd60e51b82526106ba91600401612c44565b8080600003611e275760405162461bcd60e51b81526004016106ba90612abe565b600080516020612c8f83398151915254811115611e565760405162461bcd60e51b81526004016106ba90612b03565b846001600160a01b038116611e9f5760405162461bcd60e51b815260206004820152600f60248201526e496e76616c6964204164647265737360881b60448201526064016106ba565b60005b848110156105df57611ecd87878784818110611ec057611ec06129bc565b9050602002013586611edf565b80611ed781612a01565b915050611ea2565b60008181527ff672b8dc84d117c1e14949d8bc3977392b5ab7de9d01b854d389cdc31bf0d43760209081526040808320600201805460018181018355918552838520018690556001600160a01b0387168085527ff672b8dc84d117c1e14949d8bc3977392b5ab7de9d01b854d389cdc31bf0d43a8452828520878652845282852080548084018255908652848620018690558585527ff672b8dc84d117c1e14949d8bc3977392b5ab7de9d01b854d389cdc31bf0d43984528285208186528452828520878652845293829020805460ff19169091179055805192835290820184905281810183905251600080516020612c8f8339815191529133917f06a91fc4263d54ad68fef9c0c9e5396bdf5c7bf36ca80c14dcacee462847a5b39181900360600190a250505050565b600061061f827fd3889cc5458b268d0544e5534672df1296288ca3f93cbd39bd6f497a5c622811600086815260209190915260409020906001600160a01b0381166000908152600183016020526040812054151561061f565b60606102f06001600160a01b03831660145b60606000612084836002612c77565b61208f906002612aab565b67ffffffffffffffff8111156120a7576120a761238e565b6040519080825280601f01601f1916602001820160405280156120d1576020820181803683370190505b509050600360fc1b816000815181106120ec576120ec6129bc565b60200101906001600160f81b031916908160001a905350600f60fb1b8160018151811061211b5761211b6129bc565b60200101906001600160f81b031916908160001a905350600160028402015b60018111156121a8576f181899199a1a9b1b9c1cb0b131b232b360811b85600f166010811061216b5761216b6129bc565b1a60f81b828281518110612181576121816129bc565b60200101906001600160f81b031916908160001a90535060049490941c936000190161213a565b50831561061f5760405163c913478560e01b815260040160405180910390fd5b6000602082840312156121da57600080fd5b81356001600160e01b03198116811461061f57600080fd5b6001600160a01b038116811461057057600080fd5b60008083601f84011261221957600080fd5b50813567ffffffffffffffff81111561223157600080fd5b6020830191508360208260051b850101111561224c57600080fd5b9250929050565b60008060008060008060008060a0898b03121561226f57600080fd5b883597506020890135612281816121f2565b9650604089013567ffffffffffffffff8082111561229e57600080fd5b6122aa8c838d01612207565b909850965060608b01359150808211156122c357600080fd5b6122cf8c838d01612207565b909650945060808b01359150808211156122e857600080fd5b506122f58b828c01612207565b999c989b5096995094979396929594505050565b8035801515811461231957600080fd5b919050565b60008060008060006080868803121561233657600080fd5b8535612341816121f2565b9450602086013567ffffffffffffffff81111561235d57600080fd5b61236988828901612207565b9095509350506040860135915061238260608701612309565b90509295509295909350565b634e487b7160e01b600052604160045260246000fd5b604051601f8201601f1916810167ffffffffffffffff811182821017156123cd576123cd61238e565b604052919050565b600082601f8301126123e657600080fd5b813567ffffffffffffffff8111156124005761240061238e565b612413601f8201601f19166020016123a4565b81815284602083860101111561242857600080fd5b816020850160208301376000918101602001919091529392505050565b6000806000806080858703121561245b57600080fd5b8435612466816121f2565b93506020850135612476816121f2565b925060408501359150606085013567ffffffffffffffff81111561249957600080fd5b6124a5878288016123d5565b91505092959194509250565b6000806000606084860312156124c657600080fd5b83356124d1816121f2565b95602085013595506040909401359392505050565b600080600080600060a086880312156124fe57600080fd5b853594506020860135612510816121f2565b94979496505050506040830135926060810135926080909101359150565b6000806040838503121561254157600080fd5b823561254c816121f2565b946020939093013593505050565b6020808252825182820181905260009190848201906040850190845b8181101561259257835183529284019291840191600101612576565b50909695505050505050565b6000602082840312156125b057600080fd5b5035919050565b60006020808352608083018451828501528185015115156040850152604085015160608086015281815180845260a0870191508483019350600092505b8083101561261457835182529284019260019290920191908401906125f4565b509695505050505050565b6020808252825182820181905260009190848201906040850190845b818110156125925761266b83855180516001600160a01b0316825260208082015190830152604090810151910152565b928401926060929092019160010161263b565b600082601f83011261268f57600080fd5b8135602067ffffffffffffffff8211156126ab576126ab61238e565b8160051b6126ba8282016123a4565b92835284810182019282810190878511156126d457600080fd5b83870192505b848310156126f3578235825291830191908301906126da565b979650505050505050565b600080600080600060a0868803121561271657600080fd5b8535612721816121f2565b94506020860135612731816121f2565b9350604086013567ffffffffffffffff8082111561274e57600080fd5b61275a89838a0161267e565b9450606088013591508082111561277057600080fd5b61277c89838a0161267e565b9350608088013591508082111561279257600080fd5b5061279f888289016123d5565b9150509295509295909350565b600080600080608085870312156127c257600080fd5b84359350602085013592506127d960408601612309565b9396929550929360600135925050565b60008060008060008060006080888a03121561280457600080fd5b87359650602088013567ffffffffffffffff8082111561282357600080fd5b61282f8b838c01612207565b909850965060408a013591508082111561284857600080fd5b6128548b838c01612207565b909650945060608a013591508082111561286d57600080fd5b5061287a8a828b01612207565b989b979a50959850939692959293505050565b600080604083850312156128a057600080fd5b50508035926020909101359150565b81516001600160a01b031681526020808301519082015260408083015190820152606081016102f0565b600080600080600060a086880312156128f157600080fd5b85356128fc816121f2565b9450602086013561290c816121f2565b93506040860135925060608601359150608086013567ffffffffffffffff81111561293657600080fd5b61279f888289016123d5565b60006020828403121561295457600080fd5b815161061f816121f2565b6020808252603b908201527f496e76656e746f727946616365743a204d6573736167652073656e646572206960408201527f73206e6f74206f776e6572206f662074686520617263616469616e0000000000606082015260800190565b634e487b7160e01b600052603260045260246000fd5b6000602082840312156129e457600080fd5b5051919050565b634e487b7160e01b600052601160045260246000fd5b600060018201612a1357612a136129eb565b5060010190565b81835260006001600160fb1b03831115612a3357600080fd5b8260051b80836020870137939093016020019392505050565b60006001600160a01b03808916835280881660208401525060a06040830152612a7960a083018688612a1a565b8281036060840152612a8c818587612a1a565b8381036080909401939093525050600081526020019695505050505050565b808201808211156102f0576102f06129eb565b60208082526025908201527f496e76656e746f727946616365743a20536c6f742069642063616e2774206265604082015264207a65726f60d81b606082015260800190565b60208082526022908201527f496e76656e746f727946616365743a20496e6578697374656e7420736c6f74206040820152611a5960f21b606082015260800190565b6001600160a01b0394851681529290931660208301526040820152606081019190915260a06080820181905260009082015260c00190565b818103818111156102f0576102f06129eb565b600060208284031215612ba257600080fd5b61061f82612309565b60005b83811015612bc6578181015183820152602001612bae565b50506000910152565b7f416363657373436f6e74726f6c3a206163636f756e7420000000000000000000815260008351612c07816017850160208801612bab565b7001034b99036b4b9b9b4b733903937b6329607d1b6017918401918201528351612c38816028840160208801612bab565b01602801949350505050565b6020815260008251806020840152612c63816040850160208701612bab565b601f01601f19169190910160400192915050565b80820281158282048414176102f0576102f06129eb56fef672b8dc84d117c1e14949d8bc3977392b5ab7de9d01b854d389cdc31bf0d436a26469706673582212208de2424e4f37e362ccd667d8c8c3cc9b555d6d55a7a4c426a8f94613b58d372564736f6c63430008130033",
  "devdoc": {
    "kind": "dev",
    "methods": {
      "onERC721Received(address,address,uint256,bytes)": {
        "details": "See {IERC721Receiver-onERC721Received}. Always returns `IERC721Receiver.onERC721Received.selector`."
      },
      "supportsInterface(bytes4)": {
        "details": "See {IERC165-supportsInterface}."
      }
    },
    "version": 1
  },
  "userdoc": {
    "kind": "user",
    "methods": {},
    "version": 1
  },
  "storageLayout": {
    "storage": [],
    "types": null
  }
}