{
  "address": "0x8A791620dd6260079BF849Dc5567aDC3F2FdC318",
  "abi": [
    {
      "inputs": [],
      "name": "ERC1155Base__ArrayLengthMismatch",
      "type": "error"
    },
    {
      "inputs": [],
      "name": "ERC1155Base__BalanceQueryZeroAddress",
      "type": "error"
    },
    {
      "inputs": [],
      "name": "ERC1155Base__BurnExceedsBalance",
      "type": "error"
    },
    {
      "inputs": [],
      "name": "ERC1155Base__BurnFromZeroAddress",
      "type": "error"
    },
    {
      "inputs": [],
      "name": "ERC1155Base__ERC1155ReceiverNotImplemented",
      "type": "error"
    },
    {
      "inputs": [],
      "name": "ERC1155Base__ERC1155ReceiverRejected",
      "type": "error"
    },
    {
      "inputs": [],
      "name": "ERC1155Base__MintToZeroAddress",
      "type": "error"
    },
    {
      "inputs": [],
      "name": "ERC1155Base__NotOwnerOrApproved",
      "type": "error"
    },
    {
      "inputs": [],
      "name": "ERC1155Base__SelfApproval",
      "type": "error"
    },
    {
      "inputs": [],
      "name": "ERC1155Base__TransferExceedsBalance",
      "type": "error"
    },
    {
      "inputs": [],
      "name": "ERC1155Base__TransferToZeroAddress",
      "type": "error"
    },
    {
      "inputs": [],
      "name": "EnumerableSet__IndexOutOfBounds",
      "type": "error"
    },
    {
      "inputs": [],
      "name": "ReentrancyGuard__ReentrantCall",
      "type": "error"
    },
    {
      "inputs": [],
      "name": "UintUtils__InsufficientHexLength",
      "type": "error"
    },
    {
      "anonymous": false,
      "inputs": [
        {
          "indexed": true,
          "internalType": "address",
          "name": "account",
          "type": "address"
        },
        {
          "indexed": true,
          "internalType": "address",
          "name": "operator",
          "type": "address"
        },
        {
          "indexed": false,
          "internalType": "bool",
          "name": "approved",
          "type": "bool"
        }
      ],
      "name": "ApprovalForAll",
      "type": "event"
    },
    {
      "anonymous": false,
      "inputs": [
        {
          "indexed": true,
          "internalType": "address",
          "name": "to",
          "type": "address"
        },
        {
          "indexed": true,
          "internalType": "uint256",
          "name": "itemId",
          "type": "uint256"
        },
        {
          "indexed": false,
          "internalType": "uint256",
          "name": "amount",
          "type": "uint256"
        }
      ],
      "name": "ItemClaimedMerkle",
      "type": "event"
    },
    {
      "anonymous": false,
      "inputs": [
        {
          "indexed": true,
          "internalType": "bytes32",
          "name": "role",
          "type": "bytes32"
        },
        {
          "indexed": true,
          "internalType": "bytes32",
          "name": "previousAdminRole",
          "type": "bytes32"
        },
        {
          "indexed": true,
          "internalType": "bytes32",
          "name": "newAdminRole",
          "type": "bytes32"
        }
      ],
      "name": "RoleAdminChanged",
      "type": "event"
    },
    {
      "anonymous": false,
      "inputs": [
        {
          "indexed": true,
          "internalType": "bytes32",
          "name": "role",
          "type": "bytes32"
        },
        {
          "indexed": true,
          "internalType": "address",
          "name": "account",
          "type": "address"
        },
        {
          "indexed": true,
          "internalType": "address",
          "name": "sender",
          "type": "address"
        }
      ],
      "name": "RoleGranted",
      "type": "event"
    },
    {
      "anonymous": false,
      "inputs": [
        {
          "indexed": true,
          "internalType": "bytes32",
          "name": "role",
          "type": "bytes32"
        },
        {
          "indexed": true,
          "internalType": "address",
          "name": "account",
          "type": "address"
        },
        {
          "indexed": true,
          "internalType": "address",
          "name": "sender",
          "type": "address"
        }
      ],
      "name": "RoleRevoked",
      "type": "event"
    },
    {
      "anonymous": false,
      "inputs": [
        {
          "indexed": true,
          "internalType": "address",
          "name": "operator",
          "type": "address"
        },
        {
          "indexed": true,
          "internalType": "address",
          "name": "from",
          "type": "address"
        },
        {
          "indexed": true,
          "internalType": "address",
          "name": "to",
          "type": "address"
        },
        {
          "indexed": false,
          "internalType": "uint256[]",
          "name": "ids",
          "type": "uint256[]"
        },
        {
          "indexed": false,
          "internalType": "uint256[]",
          "name": "values",
          "type": "uint256[]"
        }
      ],
      "name": "TransferBatch",
      "type": "event"
    },
    {
      "anonymous": false,
      "inputs": [
        {
          "indexed": true,
          "internalType": "address",
          "name": "operator",
          "type": "address"
        },
        {
          "indexed": true,
          "internalType": "address",
          "name": "from",
          "type": "address"
        },
        {
          "indexed": true,
          "internalType": "address",
          "name": "to",
          "type": "address"
        },
        {
          "indexed": false,
          "internalType": "uint256",
          "name": "id",
          "type": "uint256"
        },
        {
          "indexed": false,
          "internalType": "uint256",
          "name": "value",
          "type": "uint256"
        }
      ],
      "name": "TransferSingle",
      "type": "event"
    },
    {
      "anonymous": false,
      "inputs": [
        {
          "indexed": false,
          "internalType": "string",
          "name": "value",
          "type": "string"
        },
        {
          "indexed": true,
          "internalType": "uint256",
          "name": "tokenId",
          "type": "uint256"
        }
      ],
      "name": "URI",
      "type": "event"
    },
    {
      "anonymous": false,
      "inputs": [
        {
          "indexed": false,
          "internalType": "address",
          "name": "account",
          "type": "address"
        },
        {
          "indexed": false,
          "internalType": "int256",
          "name": "amount",
          "type": "int256"
        },
        {
          "indexed": false,
          "internalType": "uint256",
          "name": "totalElegibleAmount",
          "type": "uint256"
        },
        {
          "indexed": false,
          "internalType": "uint256",
          "name": "totalClaimedAmount",
          "type": "uint256"
        }
      ],
      "name": "WhitelistBalanceChanged",
      "type": "event"
    },
    {
      "inputs": [
        {
          "internalType": "uint256",
          "name": "id",
          "type": "uint256"
        }
      ],
      "name": "accountsByToken",
      "outputs": [
        {
          "internalType": "address[]",
          "name": "",
          "type": "address[]"
        }
      ],
      "stateMutability": "view",
      "type": "function"
    },
    {
      "inputs": [
        {
          "internalType": "address",
          "name": "account",
          "type": "address"
        },
        {
          "internalType": "uint256",
          "name": "id",
          "type": "uint256"
        }
      ],
      "name": "balanceOf",
      "outputs": [
        {
          "internalType": "uint256",
          "name": "",
          "type": "uint256"
        }
      ],
      "stateMutability": "view",
      "type": "function"
    },
    {
      "inputs": [
        {
          "internalType": "address[]",
          "name": "accounts",
          "type": "address[]"
        },
        {
          "internalType": "uint256[]",
          "name": "ids",
          "type": "uint256[]"
        }
      ],
      "name": "balanceOfBatch",
      "outputs": [
        {
          "internalType": "uint256[]",
          "name": "",
          "type": "uint256[]"
        }
      ],
      "stateMutability": "view",
      "type": "function"
    },
    {
      "inputs": [
        {
          "internalType": "uint256",
          "name": "tokenId",
          "type": "uint256"
        },
        {
          "internalType": "uint256",
          "name": "amount",
          "type": "uint256"
        },
        {
          "internalType": "bytes32[]",
          "name": "proof",
          "type": "bytes32[]"
        }
      ],
      "name": "claimMerkle",
      "outputs": [],
      "stateMutability": "nonpayable",
      "type": "function"
    },
    {
      "inputs": [
        {
          "internalType": "uint256[]",
          "name": "tokenIds",
          "type": "uint256[]"
        },
        {
          "internalType": "uint256[]",
          "name": "amounts",
          "type": "uint256[]"
        },
        {
          "internalType": "bytes32[][]",
          "name": "proofs",
          "type": "bytes32[][]"
        }
      ],
      "name": "claimMerkleBatch",
      "outputs": [],
      "stateMutability": "nonpayable",
      "type": "function"
    },
    {
      "inputs": [
        {
          "internalType": "uint256[]",
          "name": "itemIds",
          "type": "uint256[]"
        },
        {
          "internalType": "uint256[]",
          "name": "amounts",
          "type": "uint256[]"
        }
      ],
      "name": "claimWhitelist",
      "outputs": [],
      "stateMutability": "nonpayable",
      "type": "function"
    },
    {
      "inputs": [
        {
          "internalType": "address",
          "name": "account",
          "type": "address"
        },
        {
          "internalType": "address",
          "name": "operator",
          "type": "address"
        }
      ],
      "name": "isApprovedForAll",
      "outputs": [
        {
          "internalType": "bool",
          "name": "",
          "type": "bool"
        }
      ],
      "stateMutability": "view",
      "type": "function"
    },
    {
      "inputs": [
        {
          "internalType": "address",
          "name": "to",
          "type": "address"
        },
        {
          "internalType": "uint256",
          "name": "id",
          "type": "uint256"
        },
        {
          "internalType": "uint256",
          "name": "amount",
          "type": "uint256"
        }
      ],
      "name": "mint",
      "outputs": [],
      "stateMutability": "nonpayable",
      "type": "function"
    },
    {
      "inputs": [
        {
          "internalType": "address",
          "name": "to",
          "type": "address"
        },
        {
          "internalType": "uint256[]",
          "name": "ids",
          "type": "uint256[]"
        },
        {
          "internalType": "uint256[]",
          "name": "amounts",
          "type": "uint256[]"
        }
      ],
      "name": "mintBatch",
      "outputs": [],
      "stateMutability": "nonpayable",
      "type": "function"
    },
    {
      "inputs": [
        {
          "internalType": "address",
          "name": "from",
          "type": "address"
        },
        {
          "internalType": "address",
          "name": "to",
          "type": "address"
        },
        {
          "internalType": "uint256[]",
          "name": "ids",
          "type": "uint256[]"
        },
        {
          "internalType": "uint256[]",
          "name": "amounts",
          "type": "uint256[]"
        },
        {
          "internalType": "bytes",
          "name": "data",
          "type": "bytes"
        }
      ],
      "name": "safeBatchTransferFrom",
      "outputs": [],
      "stateMutability": "nonpayable",
      "type": "function"
    },
    {
      "inputs": [
        {
          "internalType": "address",
          "name": "from",
          "type": "address"
        },
        {
          "internalType": "address",
          "name": "to",
          "type": "address"
        },
        {
          "internalType": "uint256",
          "name": "id",
          "type": "uint256"
        },
        {
          "internalType": "uint256",
          "name": "amount",
          "type": "uint256"
        },
        {
          "internalType": "bytes",
          "name": "data",
          "type": "bytes"
        }
      ],
      "name": "safeTransferFrom",
      "outputs": [],
      "stateMutability": "nonpayable",
      "type": "function"
    },
    {
      "inputs": [
        {
          "internalType": "address",
          "name": "operator",
          "type": "address"
        },
        {
          "internalType": "bool",
          "name": "status",
          "type": "bool"
        }
      ],
      "name": "setApprovalForAll",
      "outputs": [],
      "stateMutability": "nonpayable",
      "type": "function"
    },
    {
      "inputs": [
        {
          "internalType": "string",
          "name": "baseURI",
          "type": "string"
        }
      ],
      "name": "setBaseURI",
      "outputs": [],
      "stateMutability": "nonpayable",
      "type": "function"
    },
    {
      "inputs": [
        {
          "internalType": "uint256",
          "name": "tokenId",
          "type": "uint256"
        },
        {
          "internalType": "string",
          "name": "tokenURI",
          "type": "string"
        }
      ],
      "name": "setTokenURI",
      "outputs": [],
      "stateMutability": "nonpayable",
      "type": "function"
    },
    {
      "inputs": [
        {
          "internalType": "bytes4",
          "name": "",
          "type": "bytes4"
        }
      ],
      "name": "supportsInterface",
      "outputs": [
        {
          "internalType": "bool",
          "name": "",
          "type": "bool"
        }
      ],
      "stateMutability": "pure",
      "type": "function"
    },
    {
      "inputs": [
        {
          "internalType": "address",
          "name": "account",
          "type": "address"
        }
      ],
      "name": "tokensByAccount",
      "outputs": [
        {
          "internalType": "uint256[]",
          "name": "",
          "type": "uint256[]"
        }
      ],
      "stateMutability": "view",
      "type": "function"
    },
    {
      "inputs": [
        {
          "internalType": "uint256",
          "name": "id",
          "type": "uint256"
        }
      ],
      "name": "totalHolders",
      "outputs": [
        {
          "internalType": "uint256",
          "name": "",
          "type": "uint256"
        }
      ],
      "stateMutability": "view",
      "type": "function"
    },
    {
      "inputs": [
        {
          "internalType": "uint256",
          "name": "id",
          "type": "uint256"
        }
      ],
      "name": "totalSupply",
      "outputs": [
        {
          "internalType": "uint256",
          "name": "",
          "type": "uint256"
        }
      ],
      "stateMutability": "view",
      "type": "function"
    },
    {
      "inputs": [
        {
          "internalType": "uint256",
          "name": "tokenId",
          "type": "uint256"
        }
      ],
      "name": "uri",
      "outputs": [
        {
          "internalType": "string",
          "name": "",
          "type": "string"
        }
      ],
      "stateMutability": "view",
      "type": "function"
    }
  ],
  "transactionHash": "0x0c546ed4a6696fea58b32e27a32dd9b870e7dae89c2bbb2743cad40aea621748",
  "args": [],
  "numDeployments": 1,
  "solcInputHash": "3beb7b27e054bd7a90c52ca132ff4085",
  "bytecode": "0x608060405234801561001057600080fd5b50612fc2806100206000396000f3fe608060405234801561001057600080fd5b50600436106101205760003560e01c806355f804b3116100ad578063bd85b03911610071578063bd85b0391461027c578063ceb60ee61461028f578063d81d0a15146102a2578063e985e9c5146102b5578063f242432a146102c857600080fd5b806355f804b3146102105780636dcfd8411461022357806384118c5d1461024357806385bff2e714610256578063a22cb4651461026957600080fd5b8063156e29f6116100f4578063156e29f6146101a2578063162094c4146101b75780632eb2c2d6146101ca5780634e1273f4146101dd5780634f7fb332146101fd57600080fd5b8062fdd58e1461012557806301ffc9a71461014b5780630e89341c1461016f57806313ba55df1461018f575b600080fd5b6101386101333660046122a6565b6102db565b6040519081526020015b60405180910390f35b61015f6101593660046122e6565b50600090565b6040519015158152602001610142565b61018261017d366004612303565b6102f0565b604051610142919061236c565b61013861019d366004612303565b6104bf565b6101b56101b036600461237f565b6104ca565b005b6101b56101c53660046123fa565b61050a565b6101b56101d836600461258e565b610575565b6101f06101eb366004612637565b6105c7565b604051610142919061273c565b6101b561020b366004612793565b610731565b6101b561021e36600461282c565b610792565b610236610231366004612303565b610800565b604051610142919061286d565b6101b56102513660046128ba565b61080b565b6101f061026436600461290c565b6108a0565b6101b5610277366004612927565b6108ab565b61013861028a366004612303565b61095f565b6101b561029d366004612963565b610992565b6101b56102b03660046129c2565b6109a4565b61015f6102c3366004612a42565b6109dc565b6101b56102d6366004612a75565b610a29565b60006102e78383610a74565b90505b92915050565b60008181527f4281b61aefbe70b3d3f684b428efca5f33077bc240e76f2808f9177c307617f56020526040812080546060927f4281b61aefbe70b3d3f684b428efca5f33077bc240e76f2808f9177c307617f492909161034f90612ad9565b80601f016020809104026020016040519081016040528092919081815260200182805461037b90612ad9565b80156103c85780601f1061039d576101008083540402835291602001916103c8565b820191906000526020600020905b8154815290600101906020018083116103ab57829003601f168201915b5050505050905060008260000180546103e090612ad9565b80601f016020809104026020016040519081016040528092919081815260200182805461040c90612ad9565b80156104595780601f1061042e57610100808354040283529160200191610459565b820191906000526020600020905b81548152906001019060200180831161043c57829003601f168201915b50505050509050805160000361047157509392505050565b8151156104a457808260405160200161048b929190612b13565b6040516020818303038152906040529350505050919050565b806104ae86610ad2565b60405160200161048b929190612b13565b60006102ea82610bda565b6104fa6104f57ff6deb63e40d71b08820818e006e23fcceb1fce7a499bc15b71b2526cbf9efa735490565b610c10565b610505838383610c1d565b505050565b6105356104f57ff6deb63e40d71b08820818e006e23fcceb1fce7a499bc15b71b2526cbf9efa725490565b6105058383838080601f016020809104026020016040519081016040528093929190818152602001838380828437600092019190915250610c3892505050565b6001600160a01b0385163314801590610595575061059385336109dc565b155b156105b2576040516212efed60e91b815260040160405180910390fd5b6105c0338686868686610cac565b5050505050565b606081518351146105eb57604051633e7e0b6d60e11b815260040160405180910390fd5b8251600080516020612f6d833981519152906000906001600160401b0381111561061757610617612445565b604051908082528060200260200182016040528015610640578160200160208202803683370190505b50905060005b85518110156107285760006001600160a01b031686828151811061066c5761066c612b42565b60200260200101516001600160a01b03160361069b5760405163db5d879760e01b815260040160405180910390fd5b8260008683815181106106b0576106b0612b42565b6020026020010151815260200190815260200160002060008783815181106106da576106da612b42565b60200260200101516001600160a01b03166001600160a01b031681526020019081526020016000205482828151811061071557610715612b42565b6020908102919091010152600101610646565b50949350505050565b7f09acf4e54214992e70883cf7dcd6957ff2c71cd9e14df4bec4383bc0d11607dc805460020361077457604051635db5c7cd60e11b815260040160405180910390fd5b60028155610786878787878787610cd0565b60019055505050505050565b6107bd6104f57ff6deb63e40d71b08820818e006e23fcceb1fce7a499bc15b71b2526cbf9efa725490565b6107fc82828080601f016020809104026020016040519081016040528093929190818152602001838380828437600092019190915250610e0092505050565b5050565b60606102ea82610e2b565b7f09acf4e54214992e70883cf7dcd6957ff2c71cd9e14df4bec4383bc0d11607dc805460020361084e57604051635db5c7cd60e11b815260040160405180910390fd5b600281600001819055506108968585858580806020026020016040519081016040528093929190818152602001838360200280828437600092019190915250610efe92505050565b6001905550505050565b60606102ea8261104f565b6001600160a01b03821633036108d457604051637b30a93360e11b815260040160405180910390fd5b3360008181527f1799cf914cb0cb442ca7c7ac709ee40d0cb89e87351dc08d517fbda27d50c68c602090815260408083206001600160a01b03871680855290835292819020805460ff191686151590811790915590519081529192917f17307eab39ab6107e8899845ad3d59bd9653f200f220920489ca2b5937696c31910160405180910390a35050565b60008181527fb31c2c74f86ca3ce94d901f5f5bbe66f7161eec2f7b5aa0b75a86371436424ea60205260408120546102ea565b61099e84848484611117565b50505050565b6109cf6104f57ff6deb63e40d71b08820818e006e23fcceb1fce7a499bc15b71b2526cbf9efa735490565b6105c0858585858561121e565b6001600160a01b0391821660009081527f1799cf914cb0cb442ca7c7ac709ee40d0cb89e87351dc08d517fbda27d50c68c6020908152604080832093909416825291909152205460ff1690565b6001600160a01b0385163314801590610a495750610a4785336109dc565b155b15610a66576040516212efed60e91b815260040160405180910390fd5b6105c033868686868661129a565b60006001600160a01b038316610a9d5760405163db5d879760e01b815260040160405180910390fd5b600080516020612f6d8339815191526000928352602090815260408084206001600160a01b0395909516845293905250205490565b606081600003610af95750506040805180820190915260018152600360fc1b602082015290565b8160005b8115610b235780610b0d81612b6e565b9150610b1c9050600a83612b9d565b9150610afd565b6000816001600160401b03811115610b3d57610b3d612445565b6040519080825280601f01601f191660200182016040528015610b67576020820181803683370190505b5090505b8415610bd257610b7c600183612bb1565b9150610b89600a86612bc4565b610b94906030612bd8565b60f81b818381518110610ba957610ba9612b42565b60200101906001600160f81b031916908160001a905350610bcb600a86612b9d565b9450610b6b565b949350505050565b60008181527fb31c2c74f86ca3ce94d901f5f5bbe66f7161eec2f7b5aa0b75a86371436424eb602052604081206102ea906112b6565b610c1a81336112c0565b50565b61050583838360405180602001604052806000815250611322565b60008281527f4281b61aefbe70b3d3f684b428efca5f33077bc240e76f2808f9177c307617f560205260409020610c6f8282612c31565b50817f6bb7ff708619ba0610cba295a58592e0451dee2622938c8755667688daf3529b82604051610ca0919061236c565b60405180910390a25050565b610cba8686868686866113fb565b610cc88686868686866115a4565b505050505050565b848314610d4a5760405162461bcd60e51b815260206004820152603760248201527f4974656d73496e7465726e616c2e5f636c61696d4d65726b6c6542617463683a60448201527f20496e70757473206c656e677468206d69736d6174636800000000000000000060648201526084015b60405180910390fd5b60005b85811015610df757610de5878783818110610d6a57610d6a612b42565b90506020020135868684818110610d8357610d83612b42565b90506020020135858585818110610d9c57610d9c612b42565b9050602002810190610dae9190612cf0565b80806020026020016040519081016040528093929190818152602001838360200280828437600092019190915250610efe92505050565b80610def81612b6e565b915050610d4d565b50505050505050565b7f4281b61aefbe70b3d3f684b428efca5f33077bc240e76f2808f9177c307617f46107fc8282612c31565b60008181527fb31c2c74f86ca3ce94d901f5f5bbe66f7161eec2f7b5aa0b75a86371436424eb60205260408120606091610e64826112b6565b6001600160401b03811115610e7b57610e7b612445565b604051908082528060200260200182016040528015610ea4578160200160208202803683370190505b50905060005b610eb3836112b6565b811015610ef657610ec483826116b4565b828281518110610ed657610ed6612b42565b6001600160a01b0390921660209283029190910190910152600101610eaa565b509392505050565b3360009081527f333d4b734a9ca3847483bf4c14a14709d21907ff5f12a881347e2fb2ad8906d6602081815260408084208785529091529091205460ff1615610f9d5760405162461bcd60e51b815260206004820152602b60248201527f4974656d73496e7465726e616c2e5f636c61696d4d65726b6c653a20416c726560448201526a18591e4818db185a5b595960aa1b6064820152608401610d41565b336000818152602083815260408083208884528252808320805460ff1916600117905580519182019390935291820186905260608201859052906080016040516020818303038152906040529050610ff583826116c0565b5061101133868660405180602001604052806000815250611322565b604051848152859033907fd4307fb1338aefb2a030cf5ea0f582a10d28ffee99fe253e5d48946f9a74a59f9060200160405180910390a35050505050565b6001600160a01b03811660009081527fb31c2c74f86ca3ce94d901f5f5bbe66f7161eec2f7b5aa0b75a86371436424ec60205260408120606091611092826112b6565b6001600160401b038111156110a9576110a9612445565b6040519080825280602002602001820160405280156110d2578160200160208202803683370190505b50905060005b6110e1836112b6565b811015610ef6576110f283826116b4565b82828151811061110457611104612b42565b60209081029190910101526001016110d8565b8281146111845760405162461bcd60e51b815260206004820152603560248201527f4974656d73496e7465726e616c2e5f636c61696d57686974656c6973743a20496044820152740dce0eae8e640d8cadccee8d040dad2e6dac2e8c6d605b1b6064820152608401610d41565b6000805b84811015611213576111db338787848181106111a6576111a6612b42565b905060200201358686858181106111bf576111bf612b42565b9050602002013560405180602001604052806000815250611322565b8383828181106111ed576111ed612b42565b90506020020135826111ff9190612bd8565b91508061120b81612b6e565b915050611188565b506105c0338261177d565b6105c08585858080602002602001604051908101604052809392919081815260200183836020028082843760009201919091525050604080516020808902828101820190935288825290935088925087918291850190849080828437600092018290525060408051602081019091529081529250611926915050565b6112a8868686868686611a7d565b610cc8868686868686611b93565b60006102ea825490565b6112ca8282611c4f565b6107fc576112e0816001600160a01b0316611c86565b6112eb836020611c98565b6040516020016112fc929190612d39565b60408051601f198184030181529082905262461bcd60e51b8252610d419160040161236c565b6001600160a01b038416611349576040516301c8efbf60e11b815260040160405180910390fd5b6113683360008661135987611dea565b61136287611dea565b86611e35565b6000838152600080516020612f6d833981519152602090815260408083206001600160a01b0388168452909152812080548492906113a7908490612bd8565b909155505060408051848152602081018490526001600160a01b0386169160009133917fc3d58168c5ae7397731d063d5bbf3d657854427343f4c083240f7aacaa2d0f62910160405180910390a450505050565b6001600160a01b0384166114225760405163f5cadad560e01b815260040160405180910390fd5b815183511461144457604051633e7e0b6d60e11b815260040160405180910390fd5b611452868686868686611e35565b600080516020612f6d83398151915260005b845181101561154357600085828151811061148157611481612b42565b60200260200101519050600085838151811061149f5761149f612b42565b602090810291909101810151600084815286835260408082206001600160a01b038e1683529093529190912054909150808211156114f05760405163119ac6bb60e31b815260040160405180910390fd5b6000838152602086815260408083206001600160a01b038e811685529252808320938590039093558a168152908120805460019590950194839290611536908490612bd8565b9091555061146492505050565b50846001600160a01b0316866001600160a01b0316886001600160a01b03167f4a39dc06d4c0dbc64b70af90fd698a233a518aa5d07e595d983b8c0526c8f7fb8787604051611593929190612dae565b60405180910390a450505050505050565b6001600160a01b0384163b15610cc85760405163bc197c8160e01b81526001600160a01b0385169063bc197c81906115e89089908990889088908890600401612ddc565b6020604051808303816000875af1925050508015611623575060408051601f3d908101601f1916820190925261162091810190612e3a565b60015b6116835761162f612e57565b806308c379a0036116685750611643612e73565b8061164e575061166a565b8060405162461bcd60e51b8152600401610d41919061236c565b505b60405163380147a960e01b815260040160405180910390fd5b6001600160e01b0319811663bc197c8160e01b14610df757604051633744db2960e01b815260040160405180910390fd5b60006102e78383611e43565b60008082805190602001206040516020016116dd91815260200190565b604051602081830303815290604052805190602001209050611727846117207f7a07c093b55ad04e200605cb287859fe4640b7310d62fdbb044e26399da78c0890565b5483611e8f565b9150816117765760405162461bcd60e51b815260206004820152601b60248201527f44617461206e6f7420696e636c7564656420696e206d65726b6c6500000000006044820152606401610d41565b5092915050565b6001600160a01b03821660009081527ff38d3885e664c9638de25f02e645e1955ebebe901d7be2c2037db6a5bcbb358960205260409020547ff38d3885e664c9638de25f02e645e1955ebebe901d7be2c2037db6a5bcbb3588908211156118585760405162461bcd60e51b815260206004820152604360248201527f57686974656c697374496e7465726e616c2e5f636f6e73756d6557686974656c60448201527f6973743a20616d6f756e74206578636565647320656c656769626c6520616d6f6064820152621d5b9d60ea1b608482015260a401610d41565b6001600160a01b038316600090815260018201602052604081208054849290611882908490612bb1565b90915550506001600160a01b038316600090815260208290526040812080548492906118af908490612bd8565b90915550506001600160a01b0383166000908152600182016020908152604080832054848352928190205481513381529283018690529082019290925260608101919091527fdb4f4d78cc1c961ddedd2f43596d41d07e607b7517c7106d83f6421215e1f6a79060800160405180910390a1505050565b6001600160a01b03841661194d576040516301c8efbf60e11b815260040160405180910390fd5b815183511461196f57604051633e7e0b6d60e11b815260040160405180910390fd5b61197e33600086868686611e35565b600080516020612f6d83398151915260005b8451811015611a1d578381815181106119ab576119ab612b42565b60200260200101518260008784815181106119c8576119c8612b42565b602002602001015181526020019081526020016000206000886001600160a01b03166001600160a01b031681526020019081526020016000206000828254611a109190612bd8565b9091555050600101611990565b50846001600160a01b031660006001600160a01b0316336001600160a01b03167f4a39dc06d4c0dbc64b70af90fd698a233a518aa5d07e595d983b8c0526c8f7fb8787604051611a6e929190612dae565b60405180910390a45050505050565b6001600160a01b038416611aa45760405163f5cadad560e01b815260040160405180910390fd5b611ab386868661135987611dea565b6000838152600080516020612f6d833981519152602081815260408084206001600160a01b038a1685529091529091205480841115611b055760405163119ac6bb60e31b815260040160405180910390fd5b6000858152602083815260408083206001600160a01b038b81168552925280832093879003909355871681529081208054859290611b44908490612bd8565b909155505060408051858152602081018590526001600160a01b038088169289821692918b16917fc3d58168c5ae7397731d063d5bbf3d657854427343f4c083240f7aacaa2d0f629101611593565b6001600160a01b0384163b15610cc85760405163f23a6e6160e01b81526001600160a01b0385169063f23a6e6190611bd79089908990889088908890600401612efc565b6020604051808303816000875af1925050508015611c12575060408051601f3d908101601f19168201909252611c0f91810190612e3a565b60015b611c1e5761162f612e57565b6001600160e01b0319811663f23a6e6160e01b14610df757604051633744db2960e01b815260040160405180910390fd5b60008281527fd3889cc5458b268d0544e5534672df1296288ca3f93cbd39bd6f497a5c622811602052604081206102e79083611f34565b60606102ea6001600160a01b03831660145b60606000611ca7836002612f3f565b611cb2906002612bd8565b6001600160401b03811115611cc957611cc9612445565b6040519080825280601f01601f191660200182016040528015611cf3576020820181803683370190505b509050600360fc1b81600081518110611d0e57611d0e612b42565b60200101906001600160f81b031916908160001a905350600f60fb1b81600181518110611d3d57611d3d612b42565b60200101906001600160f81b031916908160001a905350600160028402015b6001811115611dca576f181899199a1a9b1b9c1cb0b131b232b360811b85600f1660108110611d8d57611d8d612b42565b1a60f81b828281518110611da357611da3612b42565b60200101906001600160f81b031916908160001a90535060049490941c9360001901611d5c565b5083156102e75760405163c913478560e01b815260040160405180910390fd5b60408051600180825281830190925260609160009190602080830190803683370190505090508281600081518110611e2457611e24612b42565b602090810291909101015292915050565b610cc8868686868686611f56565b81546000908210611e675760405163e637bf3b60e01b815260040160405180910390fd5b826000018281548110611e7c57611e7c612b42565b9060005260206000200154905092915050565b600081815b8551811015611f29576000868281518110611eb157611eb1612b42565b60200260200101519050808311611ef3576040805160208101859052908101829052606001604051602081830303815290604052805190602001209250611f20565b60408051602081018390529081018490526060016040516020818303038152906040528051906020012092505b50600101611e94565b509092149392505050565b6001600160a01b038116600090815260018301602052604081205415156102e7565b610cc8868686868686836001600160a01b0316856001600160a01b031614610cc8576001600160a01b0385811660009081527fb31c2c74f86ca3ce94d901f5f5bbe66f7161eec2f7b5aa0b75a86371436424ec6020526040808220928716825281207fb31c2c74f86ca3ce94d901f5f5bbe66f7161eec2f7b5aa0b75a86371436424ea927fb31c2c74f86ca3ce94d901f5f5bbe66f7161eec2f7b5aa0b75a86371436424eb929091905b875181101561213e57600087828151811061201d5761201d612b42565b60200260200101519050600081111561213557600089838151811061204457612044612b42565b6020026020010151905060006001600160a01b03168c6001600160a01b0316036120915760008181526020889052604081208054849290612086908490612bd8565b909155506120c69050565b8161209c8d83610a74565b036120c65760008181526020879052604090206120b9908d61214b565b506120c48582612160565b505b6001600160a01b038b166120fd57600081815260208890526040812080548492906120f2908490612bb1565b909155506121339050565b6121078b82610a74565b600003612133576000818152602087905260409020612126908c61216c565b506121318482612181565b505b505b50600101612000565b5050505050505050505050565b60006102e7836001600160a01b03841661218d565b60006102e7838361218d565b60006102e7836001600160a01b038416612247565b60006102e78383612247565b60008181526001830160205260408120548015611776578354600090859060001981019081106121bf576121bf612b42565b90600052602060002001549050808560000160018403815481106121e5576121e5612b42565b600091825260208083209091019290925591825260018601905260409020819055835484908061221757612217612f56565b60008281526020808220830160001990810183905590920190925593815260019485019093525050604081205590565b60008181526001830160205260408120546102ea575081546001808201845560008481526020808220909301849055845493815293810190915260409092205590565b80356001600160a01b03811681146122a157600080fd5b919050565b600080604083850312156122b957600080fd5b6122c28361228a565b946020939093013593505050565b6001600160e01b031981168114610c1a57600080fd5b6000602082840312156122f857600080fd5b81356102e7816122d0565b60006020828403121561231557600080fd5b5035919050565b60005b8381101561233757818101518382015260200161231f565b50506000910152565b6000815180845261235881602086016020860161231c565b601f01601f19169290920160200192915050565b6020815260006102e76020830184612340565b60008060006060848603121561239457600080fd5b61239d8461228a565b95602085013595506040909401359392505050565b60008083601f8401126123c457600080fd5b5081356001600160401b038111156123db57600080fd5b6020830191508360208285010111156123f357600080fd5b9250929050565b60008060006040848603121561240f57600080fd5b8335925060208401356001600160401b0381111561242c57600080fd5b612438868287016123b2565b9497909650939450505050565b634e487b7160e01b600052604160045260246000fd5b601f8201601f191681016001600160401b038111828210171561248057612480612445565b6040525050565b60006001600160401b038211156124a0576124a0612445565b5060051b60200190565b600082601f8301126124bb57600080fd5b813560206124c882612487565b6040516124d5828261245b565b83815260059390931b85018201928281019150868411156124f557600080fd5b8286015b8481101561251057803583529183019183016124f9565b509695505050505050565b600082601f83011261252c57600080fd5b81356001600160401b0381111561254557612545612445565b60405161255c601f8301601f19166020018261245b565b81815284602083860101111561257157600080fd5b816020850160208301376000918101602001919091529392505050565b600080600080600060a086880312156125a657600080fd5b6125af8661228a565b94506125bd6020870161228a565b935060408601356001600160401b03808211156125d957600080fd5b6125e589838a016124aa565b945060608801359150808211156125fb57600080fd5b61260789838a016124aa565b9350608088013591508082111561261d57600080fd5b5061262a8882890161251b565b9150509295509295909350565b6000806040838503121561264a57600080fd5b82356001600160401b038082111561266157600080fd5b818501915085601f83011261267557600080fd5b8135602061268282612487565b60405161268f828261245b565b83815260059390931b85018201928281019150898411156126af57600080fd5b948201945b838610156126d4576126c58661228a565b825294820194908201906126b4565b965050860135925050808211156126ea57600080fd5b506126f7858286016124aa565b9150509250929050565b600081518084526020808501945080840160005b8381101561273157815187529582019590820190600101612715565b509495945050505050565b6020815260006102e76020830184612701565b60008083601f84011261276157600080fd5b5081356001600160401b0381111561277857600080fd5b6020830191508360208260051b85010111156123f357600080fd5b600080600080600080606087890312156127ac57600080fd5b86356001600160401b03808211156127c357600080fd5b6127cf8a838b0161274f565b909850965060208901359150808211156127e857600080fd5b6127f48a838b0161274f565b9096509450604089013591508082111561280d57600080fd5b5061281a89828a0161274f565b979a9699509497509295939492505050565b6000806020838503121561283f57600080fd5b82356001600160401b0381111561285557600080fd5b612861858286016123b2565b90969095509350505050565b6020808252825182820181905260009190848201906040850190845b818110156128ae5783516001600160a01b031683529284019291840191600101612889565b50909695505050505050565b600080600080606085870312156128d057600080fd5b843593506020850135925060408501356001600160401b038111156128f457600080fd5b6129008782880161274f565b95989497509550505050565b60006020828403121561291e57600080fd5b6102e78261228a565b6000806040838503121561293a57600080fd5b6129438361228a565b91506020830135801515811461295857600080fd5b809150509250929050565b6000806000806040858703121561297957600080fd5b84356001600160401b038082111561299057600080fd5b61299c8883890161274f565b909650945060208701359150808211156129b557600080fd5b506129008782880161274f565b6000806000806000606086880312156129da57600080fd5b6129e38661228a565b945060208601356001600160401b03808211156129ff57600080fd5b612a0b89838a0161274f565b90965094506040880135915080821115612a2457600080fd5b50612a318882890161274f565b969995985093965092949392505050565b60008060408385031215612a5557600080fd5b612a5e8361228a565b9150612a6c6020840161228a565b90509250929050565b600080600080600060a08688031215612a8d57600080fd5b612a968661228a565b9450612aa46020870161228a565b9350604086013592506060860135915060808601356001600160401b03811115612acd57600080fd5b61262a8882890161251b565b600181811c90821680612aed57607f821691505b602082108103612b0d57634e487b7160e01b600052602260045260246000fd5b50919050565b60008351612b2581846020880161231c565b835190830190612b3981836020880161231c565b01949350505050565b634e487b7160e01b600052603260045260246000fd5b634e487b7160e01b600052601160045260246000fd5b600060018201612b8057612b80612b58565b5060010190565b634e487b7160e01b600052601260045260246000fd5b600082612bac57612bac612b87565b500490565b818103818111156102ea576102ea612b58565b600082612bd357612bd3612b87565b500690565b808201808211156102ea576102ea612b58565b601f82111561050557600081815260208120601f850160051c81016020861015612c125750805b601f850160051c820191505b81811015610cc857828155600101612c1e565b81516001600160401b03811115612c4a57612c4a612445565b612c5e81612c588454612ad9565b84612beb565b602080601f831160018114612c935760008415612c7b5750858301515b600019600386901b1c1916600185901b178555610cc8565b600085815260208120601f198616915b82811015612cc257888601518255948401946001909101908401612ca3565b5085821015612ce05787850151600019600388901b60f8161c191681555b5050505050600190811b01905550565b6000808335601e19843603018112612d0757600080fd5b8301803591506001600160401b03821115612d2157600080fd5b6020019150600581901b36038213156123f357600080fd5b7f416363657373436f6e74726f6c3a206163636f756e7420000000000000000000815260008351612d7181601785016020880161231c565b7001034b99036b4b9b9b4b733903937b6329607d1b6017918401918201528351612da281602884016020880161231c565b01602801949350505050565b604081526000612dc16040830185612701565b8281036020840152612dd38185612701565b95945050505050565b60006001600160a01b03808816835280871660208401525060a06040830152612e0860a0830186612701565b8281036060840152612e1a8186612701565b90508281036080840152612e2e8185612340565b98975050505050505050565b600060208284031215612e4c57600080fd5b81516102e7816122d0565b600060033d1115612e705760046000803e5060005160e01c5b90565b600060443d1015612e815790565b6040516003193d81016004833e81513d6001600160401b038160248401118184111715612eb057505050505090565b8285019150815181811115612ec85750505050505090565b843d8701016020828501011115612ee25750505050505090565b612ef16020828601018761245b565b509095945050505050565b60006001600160a01b03808816835280871660208401525084604083015283606083015260a06080830152612f3460a0830184612340565b979650505050505050565b80820281158282048414176102ea576102ea612b58565b634e487b7160e01b600052603160045260246000fdfe1799cf914cb0cb442ca7c7ac709ee40d0cb89e87351dc08d517fbda27d50c68ba2646970667358221220709d1588a61100b07c223100c85d7996709675b9db75547fce8352525b53115964736f6c63430008130033",
  "devdoc": {
    "kind": "dev",
    "methods": {
      "accountsByToken(uint256)": {
        "params": {
          "id": "token id to query"
        },
        "returns": {
          "_0": "list of holder addresses"
        }
      },
      "balanceOf(address,uint256)": {
        "params": {
          "account": "address to query",
          "id": "token to query"
        },
        "returns": {
          "_0": "token balance"
        }
      },
      "balanceOfBatch(address[],uint256[])": {
        "params": {
          "accounts": "addresss to query",
          "ids": "tokens to query"
        },
        "returns": {
          "_0": "token balances"
        }
      },
      "isApprovedForAll(address,address)": {
        "params": {
          "account": "address to query for approval granted",
          "operator": "address to query for approval received"
        },
        "returns": {
          "_0": "whether operator is approved to spend tokens held by account"
        }
      },
      "safeBatchTransferFrom(address,address,uint256[],uint256[],bytes)": {
        "params": {
          "amounts": "list of quantities of tokens to transfer",
          "data": "data payload",
          "from": "sender of tokens",
          "ids": "list of token IDs",
          "to": "receiver of tokens"
        }
      },
      "safeTransferFrom(address,address,uint256,uint256,bytes)": {
        "params": {
          "amount": "quantity of tokens to transfer",
          "data": "data payload",
          "from": "sender of tokens",
          "id": "token ID",
          "to": "receiver of tokens"
        }
      },
      "setApprovalForAll(address,bool)": {
        "params": {
          "operator": "address whose approval status to update",
          "status": "whether operator should be considered approved"
        }
      },
      "tokensByAccount(address)": {
        "params": {
          "account": "address to query"
        },
        "returns": {
          "_0": "list of token ids"
        }
      },
      "totalHolders(uint256)": {
        "params": {
          "id": "token id to query"
        },
        "returns": {
          "_0": "quantity of holders"
        }
      },
      "totalSupply(uint256)": {
        "params": {
          "id": "token id to query"
        },
        "returns": {
          "_0": "token supply"
        }
      }
    },
    "version": 1
  },
  "userdoc": {
    "kind": "user",
    "methods": {
      "accountsByToken(uint256)": {
        "notice": "query holders of given token"
      },
      "balanceOf(address,uint256)": {
        "notice": "query the balance of given token held by given address"
      },
      "balanceOfBatch(address[],uint256[])": {
        "notice": "query the balances of given tokens held by given addresses"
      },
      "isApprovedForAll(address,address)": {
        "notice": "query approval status of given operator with respect to given address"
      },
      "safeBatchTransferFrom(address,address,uint256[],uint256[],bytes)": {
        "notice": "transfer batch of tokens between given addresses, checking for ERC1155Receiver implementation if applicable"
      },
      "safeTransferFrom(address,address,uint256,uint256,bytes)": {
        "notice": "transfer tokens between given addresses, checking for ERC1155Receiver implementation if applicable"
      },
      "setApprovalForAll(address,bool)": {
        "notice": "grant approval to or revoke approval from given operator to spend held tokens"
      },
      "tokensByAccount(address)": {
        "notice": "query tokens held by given address"
      },
      "totalHolders(uint256)": {
        "notice": "query total number of holders for given token"
      },
      "totalSupply(uint256)": {
        "notice": "query total minted supply of given token"
      },
      "uri(uint256)": {
        "notice": "inheritdoc IERC1155Metadata"
      }
    },
    "version": 1
  },
  "storageLayout": {
    "storage": [],
    "types": null
  }
}