{
  "address": "0x5FC8d32690cc91D4c39d9d3abcBD16989F875707",
  "abi": [
    {
      "inputs": [],
      "name": "UintUtils__InsufficientHexLength",
      "type": "error"
    },
    {
      "anonymous": false,
      "inputs": [
        {
          "indexed": true,
          "internalType": "bytes32",
          "name": "role",
          "type": "bytes32"
        },
        {
          "indexed": true,
          "internalType": "bytes32",
          "name": "previousAdminRole",
          "type": "bytes32"
        },
        {
          "indexed": true,
          "internalType": "bytes32",
          "name": "newAdminRole",
          "type": "bytes32"
        }
      ],
      "name": "RoleAdminChanged",
      "type": "event"
    },
    {
      "anonymous": false,
      "inputs": [
        {
          "indexed": true,
          "internalType": "bytes32",
          "name": "role",
          "type": "bytes32"
        },
        {
          "indexed": true,
          "internalType": "address",
          "name": "account",
          "type": "address"
        },
        {
          "indexed": true,
          "internalType": "address",
          "name": "sender",
          "type": "address"
        }
      ],
      "name": "RoleGranted",
      "type": "event"
    },
    {
      "anonymous": false,
      "inputs": [
        {
          "indexed": true,
          "internalType": "bytes32",
          "name": "role",
          "type": "bytes32"
        },
        {
          "indexed": true,
          "internalType": "address",
          "name": "account",
          "type": "address"
        },
        {
          "indexed": true,
          "internalType": "address",
          "name": "sender",
          "type": "address"
        }
      ],
      "name": "RoleRevoked",
      "type": "event"
    },
    {
      "anonymous": false,
      "inputs": [
        {
          "indexed": false,
          "internalType": "address",
          "name": "account",
          "type": "address"
        },
        {
          "indexed": false,
          "internalType": "int256",
          "name": "amount",
          "type": "int256"
        },
        {
          "indexed": false,
          "internalType": "uint256",
          "name": "totalElegibleAmount",
          "type": "uint256"
        },
        {
          "indexed": false,
          "internalType": "uint256",
          "name": "totalClaimedAmount",
          "type": "uint256"
        }
      ],
      "name": "WhitelistBalanceChanged",
      "type": "event"
    },
    {
      "inputs": [
        {
          "internalType": "address",
          "name": "account",
          "type": "address"
        },
        {
          "internalType": "uint256",
          "name": "amount",
          "type": "uint256"
        }
      ],
      "name": "addToWhitelist",
      "outputs": [],
      "stateMutability": "nonpayable",
      "type": "function"
    },
    {
      "inputs": [
        {
          "internalType": "address[]",
          "name": "accounts",
          "type": "address[]"
        },
        {
          "internalType": "uint256[]",
          "name": "amounts",
          "type": "uint256[]"
        }
      ],
      "name": "addToWhitelistBatch",
      "outputs": [],
      "stateMutability": "nonpayable",
      "type": "function"
    },
    {
      "inputs": [
        {
          "internalType": "address",
          "name": "account",
          "type": "address"
        }
      ],
      "name": "getWhitelistBalance",
      "outputs": [
        {
          "internalType": "uint256",
          "name": "",
          "type": "uint256"
        }
      ],
      "stateMutability": "view",
      "type": "function"
    },
    {
      "inputs": [
        {
          "internalType": "address",
          "name": "account",
          "type": "address"
        }
      ],
      "name": "getWhitelistClaimed",
      "outputs": [
        {
          "internalType": "uint256",
          "name": "",
          "type": "uint256"
        }
      ],
      "stateMutability": "view",
      "type": "function"
    }
  ],
  "transactionHash": "0x016d147a20e4b58532d847ae2e9b0a2cfc149d992e9ca48c8fbbc7fdcefef952",
  "args": [],
  "numDeployments": 1,
  "solcInputHash": "3beb7b27e054bd7a90c52ca132ff4085",
  "bytecode": "0x608060405234801561001057600080fd5b506109b1806100206000396000f3fe608060405234801561001057600080fd5b506004361061004c5760003560e01c8063214405fc146100515780633fb7153c14610066578063601288dc1461008b578063752ddfed1461009e575b600080fd5b61006461005f36600461072d565b6100b1565b005b610079610074366004610757565b6100bf565b60405190815260200160405180910390f35b6100646100993660046107be565b6100fe565b6100796100ac366004610757565b610110565b6100bb828261014d565b5050565b6001600160a01b03811660009081527ff38d3885e664c9638de25f02e645e1955ebebe901d7be2c2037db6a5bcbb358860205260408120545b92915050565b61010a8484848461025d565b50505050565b6001600160a01b03811660009081527ff38d3885e664c9638de25f02e645e1955ebebe901d7be2c2037db6a5bcbb358960205260408120546100f8565b61017d6101787ff6deb63e40d71b08820818e006e23fcceb1fce7a499bc15b71b2526cbf9efa725490565b6104e1565b6001600160a01b03821660009081527ff38d3885e664c9638de25f02e645e1955ebebe901d7be2c2037db6a5bcbb35896020526040812080547ff38d3885e664c9638de25f02e645e1955ebebe901d7be2c2037db6a5bcbb3588928492916101e6908490610840565b90915550506001600160a01b0383166000908152600182016020908152604080832054848352928190205481513381529283018690529082019290925260608101919091527fdb4f4d78cc1c961ddedd2f43596d41d07e607b7517c7106d83f6421215e1f6a79060800160405180910390a1505050565b6102886101787ff6deb63e40d71b08820818e006e23fcceb1fce7a499bc15b71b2526cbf9efa725490565b8281146103025760405162461bcd60e51b815260206004820152603e60248201527f57686974656c697374496e7465726e616c2e5f616464546f57686974656c697360448201527f7442617463683a20496e70757473206c656e677468206d69736d61746368000060648201526084015b60405180910390fd5b7ff38d3885e664c9638de25f02e645e1955ebebe901d7be2c2037db6a5bcbb358860005b848110156104d95783838281811061034057610340610853565b9050602002013561036e7ff38d3885e664c9638de25f02e645e1955ebebe901d7be2c2037db6a5bcbb358890565b600101600088888581811061038557610385610853565b905060200201602081019061039a9190610757565b6001600160a01b03166001600160a01b0316815260200190815260200160002060008282546103c99190610840565b909155507fdb4f4d78cc1c961ddedd2f43596d41d07e607b7517c7106d83f6421215e1f6a790503385858481811061040357610403610853565b905060200201358460010160008a8a8781811061042257610422610853565b90506020020160208101906104379190610757565b6001600160a01b03166001600160a01b03168152602001908152602001600020548560000160008b8b8881811061047057610470610853565b90506020020160208101906104859190610757565b6001600160a01b03908116825260208083019390935260409182016000205482519690911686529185019390935291830152606082015260800160405180910390a1806104d181610869565b915050610326565b505050505050565b6104eb81336104ee565b50565b6104f88282610550565b6100bb5761050e816001600160a01b03166105ac565b6105198360206105be565b60405160200161052a9291906108a6565b60408051601f198184030181529082905262461bcd60e51b82526102f99160040161091b565b60006105a5827fd3889cc5458b268d0544e5534672df1296288ca3f93cbd39bd6f497a5c622811600086815260209190915260409020906001600160a01b038116600090815260018301602052604081205415155b9392505050565b60606100f86001600160a01b03831660145b606060006105cd83600261094e565b6105d8906002610840565b67ffffffffffffffff8111156105f0576105f0610965565b6040519080825280601f01601f19166020018201604052801561061a576020820181803683370190505b509050600360fc1b8160008151811061063557610635610853565b60200101906001600160f81b031916908160001a905350600f60fb1b8160018151811061066457610664610853565b60200101906001600160f81b031916908160001a905350600160028402015b60018111156106f1576f181899199a1a9b1b9c1cb0b131b232b360811b85600f16601081106106b4576106b4610853565b1a60f81b8282815181106106ca576106ca610853565b60200101906001600160f81b031916908160001a90535060049490941c9360001901610683565b5083156105a55760405163c913478560e01b815260040160405180910390fd5b80356001600160a01b038116811461072857600080fd5b919050565b6000806040838503121561074057600080fd5b61074983610711565b946020939093013593505050565b60006020828403121561076957600080fd5b6105a582610711565b60008083601f84011261078457600080fd5b50813567ffffffffffffffff81111561079c57600080fd5b6020830191508360208260051b85010111156107b757600080fd5b9250929050565b600080600080604085870312156107d457600080fd5b843567ffffffffffffffff808211156107ec57600080fd5b6107f888838901610772565b9096509450602087013591508082111561081157600080fd5b5061081e87828801610772565b95989497509550505050565b634e487b7160e01b600052601160045260246000fd5b808201808211156100f8576100f861082a565b634e487b7160e01b600052603260045260246000fd5b60006001820161087b5761087b61082a565b5060010190565b60005b8381101561089d578181015183820152602001610885565b50506000910152565b7f416363657373436f6e74726f6c3a206163636f756e74200000000000000000008152600083516108de816017850160208801610882565b7001034b99036b4b9b9b4b733903937b6329607d1b601791840191820152835161090f816028840160208801610882565b01602801949350505050565b602081526000825180602084015261093a816040850160208701610882565b601f01601f19169190910160400192915050565b80820281158282048414176100f8576100f861082a565b634e487b7160e01b600052604160045260246000fdfea2646970667358221220fc0f030a29f68b80e0d795078a56930a392306e24a0881e0d6c272ed7364486064736f6c63430008130033",
  "devdoc": {
    "kind": "dev",
    "methods": {},
    "version": 1
  },
  "userdoc": {
    "kind": "user",
    "methods": {},
    "version": 1
  },
  "storageLayout": {
    "storage": [],
    "types": null
  }
}