{
  "address": "0xa988F90816A2d4F2C1e06EB78B60Fde48a417A60",
  "abi": [
    {
      "inputs": [],
      "name": "AddressUtils__NotContract",
      "type": "error"
    },
    {
      "inputs": [],
      "name": "Arcadians_InvalidPayAmount",
      "type": "error"
    },
    {
      "inputs": [],
      "name": "Arcadians_MaximumArcadiansSupplyReached",
      "type": "error"
    },
    {
      "inputs": [],
      "name": "Arcadians_NotElegibleToMint",
      "type": "error"
    },
    {
      "inputs": [],
      "name": "ERC165Base__InvalidInterfaceId",
      "type": "error"
    },
    {
      "inputs": [],
      "name": "ERC721Base__BalanceQueryZeroAddress",
      "type": "error"
    },
    {
      "inputs": [],
      "name": "ERC721Base__ERC721ReceiverNotImplemented",
      "type": "error"
    },
    {
      "inputs": [],
      "name": "ERC721Base__InvalidOwner",
      "type": "error"
    },
    {
      "inputs": [],
      "name": "ERC721Base__MintToZeroAddress",
      "type": "error"
    },
    {
      "inputs": [],
      "name": "ERC721Base__NonExistentToken",
      "type": "error"
    },
    {
      "inputs": [],
      "name": "ERC721Base__NotOwnerOrApproved",
      "type": "error"
    },
    {
      "inputs": [],
      "name": "ERC721Base__NotTokenOwner",
      "type": "error"
    },
    {
      "inputs": [],
      "name": "ERC721Base__SelfApproval",
      "type": "error"
    },
    {
      "inputs": [],
      "name": "ERC721Base__TokenAlreadyMinted",
      "type": "error"
    },
    {
      "inputs": [],
      "name": "ERC721Base__TransferToZeroAddress",
      "type": "error"
    },
    {
      "inputs": [],
      "name": "ERC721Metadata__NonExistentToken",
      "type": "error"
    },
    {
      "inputs": [],
      "name": "EnumerableMap__IndexOutOfBounds",
      "type": "error"
    },
    {
      "inputs": [],
      "name": "EnumerableMap__NonExistentKey",
      "type": "error"
    },
    {
      "inputs": [],
      "name": "EnumerableSet__IndexOutOfBounds",
      "type": "error"
    },
    {
      "inputs": [],
      "name": "Inventory_ArcadianNotUnique",
      "type": "error"
    },
    {
      "inputs": [],
      "name": "Inventory_CouponNeededToModifyBaseSlots",
      "type": "error"
    },
    {
      "inputs": [],
      "name": "Inventory_InputDataMismatch",
      "type": "error"
    },
    {
      "inputs": [],
      "name": "Inventory_InsufficientItemBalance",
      "type": "error"
    },
    {
      "inputs": [],
      "name": "Inventory_InvalidERC1155Contract",
      "type": "error"
    },
    {
      "inputs": [],
      "name": "Inventory_InvalidSlotId",
      "type": "error"
    },
    {
      "inputs": [],
      "name": "Inventory_ItemAlreadyEquippedInSlot",
      "type": "error"
    },
    {
      "inputs": [],
      "name": "Inventory_ItemDoesNotHaveSlotAssigned",
      "type": "error"
    },
    {
      "inputs": [],
      "name": "Inventory_NonBaseSlot",
      "type": "error"
    },
    {
      "inputs": [],
      "name": "Inventory_NotAllBaseSlotsEquipped",
      "type": "error"
    },
    {
      "inputs": [],
      "name": "Inventory_NotArcadianOwner",
      "type": "error"
    },
    {
      "inputs": [],
      "name": "Inventory_UnequippingBaseSlot",
      "type": "error"
    },
    {
      "inputs": [],
      "name": "Inventory_UnequippingEmptySlot",
      "type": "error"
    },
    {
      "inputs": [],
      "name": "Inventory_UnequippingPermanentSlot",
      "type": "error"
    },
    {
      "inputs": [],
      "name": "MintPass_ClaimInactive",
      "type": "error"
    },
    {
      "inputs": [],
      "name": "ReentrancyGuard__ReentrantCall",
      "type": "error"
    },
    {
      "inputs": [],
      "name": "Roles_MissingAdminRole",
      "type": "error"
    },
    {
      "inputs": [],
      "name": "Roles_MissingAutomationRole",
      "type": "error"
    },
    {
      "inputs": [],
      "name": "Roles_MissingManagerRole",
      "type": "error"
    },
    {
      "inputs": [],
      "name": "SolidStateERC721__PayableApproveNotSupported",
      "type": "error"
    },
    {
      "inputs": [],
      "name": "SolidStateERC721__PayableTransferNotSupported",
      "type": "error"
    },
    {
      "inputs": [],
      "name": "Whitelist_ClaimInactive",
      "type": "error"
    },
    {
      "inputs": [],
      "name": "Whitelist_ClaimStateAlreadyUpdated",
      "type": "error"
    },
    {
      "inputs": [],
      "name": "Whitelist_ExceedsElegibleAmount",
      "type": "error"
    },
    {
      "inputs": [],
      "name": "Whitelist_InputDataMismatch",
      "type": "error"
    },
    {
      "anonymous": false,
      "inputs": [
        {
          "indexed": true,
          "internalType": "address",
          "name": "owner",
          "type": "address"
        },
        {
          "indexed": true,
          "internalType": "address",
          "name": "operator",
          "type": "address"
        },
        {
          "indexed": true,
          "internalType": "uint256",
          "name": "tokenId",
          "type": "uint256"
        }
      ],
      "name": "Approval",
      "type": "event"
    },
    {
      "anonymous": false,
      "inputs": [
        {
          "indexed": true,
          "internalType": "address",
          "name": "owner",
          "type": "address"
        },
        {
          "indexed": true,
          "internalType": "address",
          "name": "operator",
          "type": "address"
        },
        {
          "indexed": false,
          "internalType": "bool",
          "name": "approved",
          "type": "bool"
        }
      ],
      "name": "ApprovalForAll",
      "type": "event"
    },
    {
      "anonymous": false,
      "inputs": [
        {
          "indexed": true,
          "internalType": "address",
          "name": "by",
          "type": "address"
        },
        {
          "indexed": true,
          "internalType": "address",
          "name": "to",
          "type": "address"
        },
        {
          "indexed": false,
          "internalType": "uint8[]",
          "name": "slotsIds",
          "type": "uint8[]"
        },
        {
          "indexed": false,
          "internalType": "uint256[]",
          "name": "amounts",
          "type": "uint256[]"
        }
      ],
      "name": "BaseModifierCouponAdded",
      "type": "event"
    },
    {
      "anonymous": false,
      "inputs": [
        {
          "indexed": true,
          "internalType": "address",
          "name": "account",
          "type": "address"
        },
        {
          "indexed": true,
          "internalType": "uint256",
          "name": "arcadianId",
          "type": "uint256"
        },
        {
          "indexed": false,
          "internalType": "uint8[]",
          "name": "slotsIds",
          "type": "uint8[]"
        }
      ],
      "name": "BaseModifierCouponConsumed",
      "type": "event"
    },
    {
      "anonymous": false,
      "inputs": [
        {
          "indexed": true,
          "internalType": "address",
          "name": "by",
          "type": "address"
        },
        {
          "indexed": false,
          "internalType": "string",
          "name": "oldBaseURI",
          "type": "string"
        },
        {
          "indexed": false,
          "internalType": "string",
          "name": "newBaseURI",
          "type": "string"
        }
      ],
      "name": "BaseURIChanged",
      "type": "event"
    },
    {
      "anonymous": false,
      "inputs": [
        {
          "indexed": true,
          "internalType": "address",
          "name": "by",
          "type": "address"
        },
        {
          "components": [
            {
              "internalType": "address",
              "name": "erc1155Contract",
              "type": "address"
            },
            {
              "internalType": "uint256",
              "name": "id",
              "type": "uint256"
            }
          ],
          "indexed": false,
          "internalType": "struct InventoryStorage.Item[]",
          "name": "items",
          "type": "tuple[]"
        }
      ],
      "name": "ItemsAllowedInSlotUpdated",
      "type": "event"
    },
    {
      "anonymous": false,
      "inputs": [
        {
          "indexed": true,
          "internalType": "address",
          "name": "by",
          "type": "address"
        },
        {
          "indexed": true,
          "internalType": "uint256",
          "name": "arcadianId",
          "type": "uint256"
        },
        {
          "indexed": false,
          "internalType": "uint8[]",
          "name": "slots",
          "type": "uint8[]"
        }
      ],
      "name": "ItemsEquipped",
      "type": "event"
    },
    {
      "anonymous": false,
      "inputs": [
        {
          "indexed": true,
          "internalType": "address",
          "name": "by",
          "type": "address"
        },
        {
          "indexed": true,
          "internalType": "uint256",
          "name": "arcadianId",
          "type": "uint256"
        },
        {
          "indexed": false,
          "internalType": "uint8[]",
          "name": "slotsIds",
          "type": "uint8[]"
        }
      ],
      "name": "ItemsUnequipped",
      "type": "event"
    },
    {
      "anonymous": false,
      "inputs": [
        {
          "indexed": true,
          "internalType": "address",
          "name": "by",
          "type": "address"
        },
        {
          "indexed": false,
          "internalType": "uint256",
          "name": "oldMaxMintPerUser",
          "type": "uint256"
        },
        {
          "indexed": false,
          "internalType": "uint256",
          "name": "newMaxMintPerUser",
          "type": "uint256"
        }
      ],
      "name": "MaxMintPerUserChanged",
      "type": "event"
    },
    {
      "anonymous": false,
      "inputs": [
        {
          "indexed": true,
          "internalType": "address",
          "name": "account",
          "type": "address"
        },
        {
          "indexed": false,
          "internalType": "uint256",
          "name": "tokenId",
          "type": "uint256"
        }
      ],
      "name": "MintPassConsumed",
      "type": "event"
    },
    {
      "anonymous": false,
      "inputs": [
        {
          "indexed": true,
          "internalType": "address",
          "name": "by",
          "type": "address"
        },
        {
          "indexed": false,
          "internalType": "uint256",
          "name": "oldMintPrice",
          "type": "uint256"
        },
        {
          "indexed": false,
          "internalType": "uint256",
          "name": "newMintPrice",
          "type": "uint256"
        }
      ],
      "name": "MintPriceChanged",
      "type": "event"
    },
    {
      "anonymous": false,
      "inputs": [
        {
          "indexed": true,
          "internalType": "bytes32",
          "name": "role",
          "type": "bytes32"
        },
        {
          "indexed": true,
          "internalType": "bytes32",
          "name": "previousAdminRole",
          "type": "bytes32"
        },
        {
          "indexed": true,
          "internalType": "bytes32",
          "name": "newAdminRole",
          "type": "bytes32"
        }
      ],
      "name": "RoleAdminChanged",
      "type": "event"
    },
    {
      "anonymous": false,
      "inputs": [
        {
          "indexed": true,
          "internalType": "bytes32",
          "name": "role",
          "type": "bytes32"
        },
        {
          "indexed": true,
          "internalType": "address",
          "name": "account",
          "type": "address"
        },
        {
          "indexed": true,
          "internalType": "address",
          "name": "sender",
          "type": "address"
        }
      ],
      "name": "RoleGranted",
      "type": "event"
    },
    {
      "anonymous": false,
      "inputs": [
        {
          "indexed": true,
          "internalType": "bytes32",
          "name": "role",
          "type": "bytes32"
        },
        {
          "indexed": true,
          "internalType": "address",
          "name": "account",
          "type": "address"
        },
        {
          "indexed": true,
          "internalType": "address",
          "name": "sender",
          "type": "address"
        }
      ],
      "name": "RoleRevoked",
      "type": "event"
    },
    {
      "anonymous": false,
      "inputs": [
        {
          "indexed": true,
          "internalType": "address",
          "name": "by",
          "type": "address"
        },
        {
          "indexed": true,
          "internalType": "uint8",
          "name": "slotId",
          "type": "uint8"
        },
        {
          "indexed": false,
          "internalType": "bool",
          "name": "permanent",
          "type": "bool"
        },
        {
          "indexed": false,
          "internalType": "bool",
          "name": "isBase",
          "type": "bool"
        }
      ],
      "name": "SlotCreated",
      "type": "event"
    },
    {
      "anonymous": false,
      "inputs": [
        {
          "indexed": true,
          "internalType": "address",
          "name": "from",
          "type": "address"
        },
        {
          "indexed": true,
          "internalType": "address",
          "name": "to",
          "type": "address"
        },
        {
          "indexed": true,
          "internalType": "uint256",
          "name": "tokenId",
          "type": "uint256"
        }
      ],
      "name": "Transfer",
      "type": "event"
    },
    {
      "anonymous": false,
      "inputs": [
        {
          "indexed": true,
          "internalType": "address",
          "name": "account",
          "type": "address"
        },
        {
          "indexed": false,
          "internalType": "enum WhitelistStorage.PoolId",
          "name": "poolId",
          "type": "uint8"
        },
        {
          "indexed": false,
          "internalType": "uint256",
          "name": "totalElegibleAmount",
          "type": "uint256"
        },
        {
          "indexed": false,
          "internalType": "uint256",
          "name": "totalClaimedAmount",
          "type": "uint256"
        }
      ],
      "name": "WhitelistBalanceChanged",
      "type": "event"
    },
    {
      "inputs": [
        {
          "internalType": "address",
          "name": "operator",
          "type": "address"
        },
        {
          "internalType": "uint256",
          "name": "tokenId",
          "type": "uint256"
        }
      ],
      "name": "approve",
      "outputs": [],
      "stateMutability": "payable",
      "type": "function"
    },
    {
      "inputs": [
        {
          "internalType": "address",
          "name": "account",
          "type": "address"
        }
      ],
      "name": "availableMints",
      "outputs": [
        {
          "internalType": "uint256",
          "name": "balance",
          "type": "uint256"
        }
      ],
      "stateMutability": "view",
      "type": "function"
    },
    {
      "inputs": [
        {
          "internalType": "address",
          "name": "account",
          "type": "address"
        }
      ],
      "name": "balanceOf",
      "outputs": [
        {
          "internalType": "uint256",
          "name": "",
          "type": "uint256"
        }
      ],
      "stateMutability": "view",
      "type": "function"
    },
    {
      "inputs": [],
      "name": "baseURI",
      "outputs": [
        {
          "internalType": "string",
          "name": "",
          "type": "string"
        }
      ],
      "stateMutability": "view",
      "type": "function"
    },
    {
      "inputs": [
        {
          "internalType": "uint256",
          "name": "tokenId",
          "type": "uint256"
        }
      ],
      "name": "getApproved",
      "outputs": [
        {
          "internalType": "address",
          "name": "",
          "type": "address"
        }
      ],
      "stateMutability": "view",
      "type": "function"
    },
    {
      "inputs": [
        {
          "internalType": "address",
          "name": "account",
          "type": "address"
        },
        {
          "internalType": "address",
          "name": "operator",
          "type": "address"
        }
      ],
      "name": "isApprovedForAll",
      "outputs": [
        {
          "internalType": "bool",
          "name": "",
          "type": "bool"
        }
      ],
      "stateMutability": "view",
      "type": "function"
    },
    {
      "inputs": [],
      "name": "maxMintPerUser",
      "outputs": [
        {
          "internalType": "uint256",
          "name": "",
          "type": "uint256"
        }
      ],
      "stateMutability": "view",
      "type": "function"
    },
    {
      "inputs": [],
      "name": "maxSupply",
      "outputs": [
        {
          "internalType": "uint256",
          "name": "",
          "type": "uint256"
        }
      ],
      "stateMutability": "view",
      "type": "function"
    },
    {
      "inputs": [
        {
          "components": [
            {
              "internalType": "address",
              "name": "erc1155Contract",
              "type": "address"
            },
            {
              "internalType": "uint256",
              "name": "id",
              "type": "uint256"
            }
          ],
          "internalType": "struct InventoryStorage.Item[]",
          "name": "itemsToEquip",
          "type": "tuple[]"
        }
      ],
      "name": "mintAndEquip",
      "outputs": [],
      "stateMutability": "payable",
      "type": "function"
    },
    {
      "inputs": [],
      "name": "mintPrice",
      "outputs": [
        {
          "internalType": "uint256",
          "name": "",
          "type": "uint256"
        }
      ],
      "stateMutability": "view",
      "type": "function"
    },
    {
      "inputs": [
        {
          "internalType": "bytes[]",
          "name": "data",
          "type": "bytes[]"
        }
      ],
      "name": "multicall",
      "outputs": [
        {
          "internalType": "bytes[]",
          "name": "results",
          "type": "bytes[]"
        }
      ],
      "stateMutability": "nonpayable",
      "type": "function"
    },
    {
      "inputs": [],
      "name": "name",
      "outputs": [
        {
          "internalType": "string",
          "name": "",
          "type": "string"
        }
      ],
      "stateMutability": "view",
      "type": "function"
    },
    {
      "inputs": [
        {
          "internalType": "uint256",
          "name": "tokenId",
          "type": "uint256"
        }
      ],
      "name": "ownerOf",
      "outputs": [
        {
          "internalType": "address",
          "name": "",
          "type": "address"
        }
      ],
      "stateMutability": "view",
      "type": "function"
    },
    {
      "inputs": [],
      "name": "publicMintOpen",
      "outputs": [
        {
          "internalType": "bool",
          "name": "",
          "type": "bool"
        }
      ],
      "stateMutability": "view",
      "type": "function"
    },
    {
      "inputs": [
        {
          "internalType": "address",
          "name": "from",
          "type": "address"
        },
        {
          "internalType": "address",
          "name": "to",
          "type": "address"
        },
        {
          "internalType": "uint256",
          "name": "tokenId",
          "type": "uint256"
        }
      ],
      "name": "safeTransferFrom",
      "outputs": [],
      "stateMutability": "payable",
      "type": "function"
    },
    {
      "inputs": [
        {
          "internalType": "address",
          "name": "from",
          "type": "address"
        },
        {
          "internalType": "address",
          "name": "to",
          "type": "address"
        },
        {
          "internalType": "uint256",
          "name": "tokenId",
          "type": "uint256"
        },
        {
          "internalType": "bytes",
          "name": "data",
          "type": "bytes"
        }
      ],
      "name": "safeTransferFrom",
      "outputs": [],
      "stateMutability": "payable",
      "type": "function"
    },
    {
      "inputs": [
        {
          "internalType": "address",
          "name": "operator",
          "type": "address"
        },
        {
          "internalType": "bool",
          "name": "status",
          "type": "bool"
        }
      ],
      "name": "setApprovalForAll",
      "outputs": [],
      "stateMutability": "nonpayable",
      "type": "function"
    },
    {
      "inputs": [
        {
          "internalType": "string",
          "name": "newBaseURI",
          "type": "string"
        }
      ],
      "name": "setBaseURI",
      "outputs": [],
      "stateMutability": "nonpayable",
      "type": "function"
    },
    {
      "inputs": [
        {
          "internalType": "uint256",
          "name": "newMaxMintPerUser",
          "type": "uint256"
        }
      ],
      "name": "setMaxMintPerUser",
      "outputs": [],
      "stateMutability": "nonpayable",
      "type": "function"
    },
    {
      "inputs": [
        {
          "internalType": "uint256",
          "name": "maxArcadiansSupply",
          "type": "uint256"
        }
      ],
      "name": "setMaxSupply",
      "outputs": [],
      "stateMutability": "nonpayable",
      "type": "function"
    },
    {
      "inputs": [
        {
          "internalType": "uint256",
          "name": "newMintPrice",
          "type": "uint256"
        }
      ],
      "name": "setMintPrice",
      "outputs": [],
      "stateMutability": "nonpayable",
      "type": "function"
    },
    {
      "inputs": [
        {
          "internalType": "bool",
          "name": "isOpen",
          "type": "bool"
        }
      ],
      "name": "setPublicMintOpen",
      "outputs": [],
      "stateMutability": "nonpayable",
      "type": "function"
    },
    {
      "inputs": [
        {
          "internalType": "bytes4",
          "name": "interfaceId",
          "type": "bytes4"
        }
      ],
      "name": "supportsInterface",
      "outputs": [
        {
          "internalType": "bool",
          "name": "",
          "type": "bool"
        }
      ],
      "stateMutability": "view",
      "type": "function"
    },
    {
      "inputs": [],
      "name": "symbol",
      "outputs": [
        {
          "internalType": "string",
          "name": "",
          "type": "string"
        }
      ],
      "stateMutability": "view",
      "type": "function"
    },
    {
      "inputs": [
        {
          "internalType": "uint256",
          "name": "index",
          "type": "uint256"
        }
      ],
      "name": "tokenByIndex",
      "outputs": [
        {
          "internalType": "uint256",
          "name": "",
          "type": "uint256"
        }
      ],
      "stateMutability": "view",
      "type": "function"
    },
    {
      "inputs": [
        {
          "internalType": "address",
          "name": "owner",
          "type": "address"
        },
        {
          "internalType": "uint256",
          "name": "index",
          "type": "uint256"
        }
      ],
      "name": "tokenOfOwnerByIndex",
      "outputs": [
        {
          "internalType": "uint256",
          "name": "",
          "type": "uint256"
        }
      ],
      "stateMutability": "view",
      "type": "function"
    },
    {
      "inputs": [
        {
          "internalType": "uint256",
          "name": "tokenId",
          "type": "uint256"
        }
      ],
      "name": "tokenURI",
      "outputs": [
        {
          "internalType": "string",
          "name": "",
          "type": "string"
        }
      ],
      "stateMutability": "view",
      "type": "function"
    },
    {
      "inputs": [],
      "name": "totalMinted",
      "outputs": [
        {
          "internalType": "uint256",
          "name": "",
          "type": "uint256"
        }
      ],
      "stateMutability": "view",
      "type": "function"
    },
    {
      "inputs": [],
      "name": "totalSupply",
      "outputs": [
        {
          "internalType": "uint256",
          "name": "",
          "type": "uint256"
        }
      ],
      "stateMutability": "view",
      "type": "function"
    },
    {
      "inputs": [
        {
          "internalType": "address",
          "name": "from",
          "type": "address"
        },
        {
          "internalType": "address",
          "name": "to",
          "type": "address"
        },
        {
          "internalType": "uint256",
          "name": "tokenId",
          "type": "uint256"
        }
      ],
      "name": "transferFrom",
      "outputs": [],
      "stateMutability": "payable",
      "type": "function"
    }
  ],
  "transactionHash": "0x168d814928885be1e1a2099d4e1ae9731de0d7457b055c1a443c1cefc8035da9",
  "args": [],
  "numDeployments": 1,
  "solcInputHash": "692ed4f6b91b86486088887c9936297f",
  "bytecode": "0x608060405234801561001057600080fd5b50613d69806100206000396000f3fe6080604052600436106101cd5760003560e01c80636f8b44b0116100f7578063b88d4fde11610095578063d5abeb0111610064578063d5abeb01146104dd578063d66b3eda14610511578063e985e9c514610531578063f4a0a5281461055157600080fd5b8063b88d4fde1461045e578063bcc9ca5b14610471578063c87b56dd146104a8578063d304c4bc146104c857600080fd5b806395d89b41116100d157806395d89b41146103fc578063a22cb46514610411578063a2309ff814610289578063ac9650d81461043157600080fd5b80636f8b44b01461039c57806370a08231146103bc57806383ccaef7146103dc57600080fd5b80632f745c591161016f5780636352211e1161013e5780636352211e146103325780636387f804146103525780636817c76c146103725780636c0360eb1461038757600080fd5b80632f745c59146102bf57806342842e0e146102df5780634f6ccce7146102f257806355f804b31461031257600080fd5b8063095ea7b3116101ab578063095ea7b3146102615780630a0678991461027657806318160ddd1461028957806323b872dd146102ac57600080fd5b806301ffc9a7146101d257806306fdde0314610207578063081812fc14610229575b600080fd5b3480156101de57600080fd5b506101f26101ed366004613227565b610571565b60405190151581526020015b60405180910390f35b34801561021357600080fd5b5061021c6105b4565b6040516101fe9190613294565b34801561023557600080fd5b506102496102443660046132a7565b6105c3565b6040516001600160a01b0390911681526020016101fe565b61027461026f3660046132d5565b6105ce565b005b610274610284366004613301565b6105dc565b34801561029557600080fd5b5061029e610645565b6040519081526020016101fe565b6102746102ba366004613376565b61064f565b3480156102cb57600080fd5b5061029e6102da3660046132d5565b61065f565b6102746102ed366004613376565b610672565b3480156102fe57600080fd5b5061029e61030d3660046132a7565b61067d565b34801561031e57600080fd5b5061027461032d366004613456565b610688565b34801561033e57600080fd5b5061024961034d3660046132a7565b6106c2565b34801561035e57600080fd5b5061027461036d3660046134b4565b6106cd565b34801561037e57600080fd5b5061029e610727565b34801561039357600080fd5b5061021c610751565b3480156103a857600080fd5b506102746103b73660046132a7565b61075b565b3480156103c857600080fd5b5061029e6103d73660046134cf565b6107ab565b3480156103e857600080fd5b506102746103f73660046132a7565b6107b6565b34801561040857600080fd5b5061021c6107e7565b34801561041d57600080fd5b5061027461042c3660046134ec565b6107f1565b34801561043d57600080fd5b5061045161044c366004613521565b6107fb565b6040516101fe9190613584565b61027461046c3660046135e6565b610916565b34801561047d57600080fd5b507f87a01bd38845081b30641ebc639dfadf787bd49017c45985af2341fe932c74655460ff166101f2565b3480156104b457600080fd5b5061021c6104c33660046132a7565b610928565b3480156104d457600080fd5b5061029e610933565b3480156104e957600080fd5b507f87a01bd38845081b30641ebc639dfadf787bd49017c45985af2341fe932c74675461029e565b34801561051d57600080fd5b5061029e61052c3660046134cf565b61093d565b34801561053d57600080fd5b506101f261054c366004613666565b610ace565b34801561055d57600080fd5b5061027461056c3660046132a7565b610ada565b6001600160e01b0319811660009081527ffc606c433378e3a7e0a6a531deac289b66caa1b4aa8554fd4ab2c6f1570f92d8602052604081205460ff165b92915050565b60606105be610b0b565b905090565b60006105ae82610baa565b6105d88282610c0d565b5050565b7f09acf4e54214992e70883cf7dcd6957ff2c71cd9e14df4bec4383bc0d11607dc805460020361061f57604051635db5c7cd60e11b815260040160405180910390fd5b60028155600061062d610d10565b905061063c8185856001610eec565b50600190555050565b60006105be6113bd565b61065a8383836113d6565b505050565b600061066b8383611414565b9392505050565b61065a838383611455565b60006105ae82611470565b61069961069361148a565b336114b4565b6106b65760405163d0befa1d60e01b815260040160405180910390fd5b6106bf816114eb565b50565b60006105ae82611565565b6106d861069361148a565b6106f55760405163d0befa1d60e01b815260040160405180910390fd5b7f87a01bd38845081b30641ebc639dfadf787bd49017c45985af2341fe932c7465805460ff1916911515919091179055565b60006105be7f87a01bd38845081b30641ebc639dfadf787bd49017c45985af2341fe932c74645490565b60606105be6115a9565b61076661069361148a565b6107835760405163d0befa1d60e01b815260040160405180910390fd5b6106bf817f87a01bd38845081b30641ebc639dfadf787bd49017c45985af2341fe932c746755565b60006105ae826115c8565b6107c161069361148a565b6107de5760405163d0befa1d60e01b815260040160405180910390fd5b6106bf81611631565b60606105be611680565b6105d8828261169f565b60608167ffffffffffffffff811115610816576108166133b7565b60405190808252806020026020018201604052801561084957816020015b60608152602001906001900390816108345790505b50905060005b8281101561090f576000803086868581811061086d5761086d61369f565b905060200281019061087f91906136b5565b60405161088d9291906136fc565b600060405180830381855af49150503d80600081146108c8576040519150601f19603f3d011682016040523d82523d6000602084013e6108cd565b606091505b509150915081156108fb57808484815181106108eb576108eb61369f565b6020026020010181905250610905565b3d6000803e3d6000fd5b505060010161084f565b5092915050565b61092284848484611753565b50505050565b60606105ae82611792565b60006105be611973565b600080516020613cd48339815191528054600091908261095d6001611989565b1561097a5761096d6001866119ee565b6109779082613722565b90505b7fa3ab50e899f598cf35254e9a97be2f97034673b13bdb3ad1ddfaf5a13d0a216b5460ff16156109ba576109ad85611a73565b6109b79082613722565b90505b600283015460ff16156109f9576001600160a01b03851660009081526003840160205260409020546109ec9083613735565b6109f69082613722565b90505b6001600160a01b03851660009081526003840160209081526040808320547fa3ab50e899f598cf35254e9a97be2f97034673b13bdb3ad1ddfaf5a13d0a2168909252822054610a49600189611b8a565b610a539190613722565b610a5d9190613722565b9050828110610a6f5760009150610a90565b6000610a7b8285613735565b9050808311610a8a5782610a8c565b805b9250505b6000610a9c6000611989565b15610ab957610aac6000886119ee565b610ab69082613722565b90505b610ac38382613722565b979650505050505050565b600061066b8383611c01565b610ae561069361148a565b610b025760405163d0befa1d60e01b815260040160405180910390fd5b6106bf81611c4e565b6060600080516020613cf48339815191528054610b2790613748565b80601f0160208091040260200160405190810160405280929190818152602001828054610b5390613748565b8015610ba05780601f10610b7557610100808354040283529160200191610ba0565b820191906000526020600020905b815481529060010190602001808311610b8357829003601f168201915b5050505050905090565b6000610bb582611cc1565b610bd25760405163c1b843ef60e01b815260040160405180910390fd5b5060009081527f3c7bf052874fa81625121783266a03507bd2cd48b16e571c01a04e8dd3fb07a960205260409020546001600160a01b031690565b610c18828234611cdb565b6000610c2382611565565b9050806001600160a01b0316836001600160a01b031603610c575760405163424a22cb60e01b815260040160405180910390fd5b336001600160a01b03821614801590610c775750610c758133611c01565b155b15610c9557604051632f5de44f60e01b815260040160405180910390fd5b60008281527f3c7bf052874fa81625121783266a03507bd2cd48b16e571c01a04e8dd3fb07a9602052604080822080546001600160a01b0319166001600160a01b0387811691821790925591518593918516917f8c5be1e5ebec7d5bd14f71427d1e84f3dd0314c0f7b2291e5b200ac8c7c3b92591a4505050565b6000600080516020613cd4833981519152610d29611cfa565b91508060040154821115610d50576040516320df598b60e21b815260040160405180910390fd5b3360009081526003820160209081526040808320547fa3ab50e899f598cf35254e9a97be2f97034673b13bdb3ad1ddfaf5a13d0a2168909252822054610d97600133611b8a565b610da19190613722565b610dab9190613722565b9050610db76000611989565b8015610dcd57506000610dcb6000336119ee565b115b15610de457610ddf6000336001611d0f565b610edd565b8154811015610ec4577fa3ab50e899f598cf35254e9a97be2f97034673b13bdb3ad1ddfaf5a13d0a216b5460ff168015610e2657506000610e2433611a73565b115b15610e3a57610e3433611ec4565b50610edd565b610e446001611989565b8015610e5a57506000610e586001336119ee565b115b15610e6c57610ddf6001336001611d0f565b600282015460ff1615610ec45781600101543414610e9d5760405163104bb3ad60e11b815260040160405180910390fd5b3360009081526003830160205260408120805491610eba83613782565b9190505550610edd565b604051630e64914f60e31b815260040160405180910390fd5b610ee733846120aa565b505090565b6040516331a9108f60e11b815260048101859052849030908190636352211e90602401602060405180830381865afa158015610f2c573d6000803e3d6000fd5b505050506040513d601f19601f82011682018060405250810190610f50919061379b565b6001600160a01b0316336001600160a01b031614610f815760405163aee05b5d60e01b815260040160405180910390fd5b83156113b557600080516020613d148339815191526000808667ffffffffffffffff811115610fb257610fb26133b7565b604051908082528060200260200182016040528015610fdb578160200160208202803683370190505b50905060005b8781101561118c5760008460030160008b8b858181106110035761100361369f565b61101992602060409092020190810191506134cf565b6001600160a01b03166001600160a01b0316815260200190815260200160002060008b8b8581811061104d5761104d61369f565b90506040020160200135815260200190815260200160002060009054906101000a900460ff169050808383815181106110885761108861369f565b60ff92831660209182029290920181019190915260008d81526002880182526040808220938516825292909152208a8a848181106110c8576110c861369f565b6110de92602060409092020190810191506134cf565b81546001600160a01b03908116911614801561111857508a8a848181106111075761110761369f565b905060400201602001358160010154145b1561112457505061117a565b6111468c8c8c8681811061113a5761113a61369f565b9050604002018b6120c4565b5060ff808316600090815260018801602052604090205462010000900416156111775784611173816137b8565b9550505b50505b8061118481613782565b915050610fe1565b5061119689612450565b6111b35760405163a9614f1560e01b815260040160405180910390fd5b60ff82161561136f576111c589612520565b6111e15760405162ecf30560e51b815260040160405180910390fd5b8561136f5760008260ff1667ffffffffffffffff811115611204576112046133b7565b60405190808252806020026020018201604052801561122d578160200160208202803683370190505b5090506000805b898110156113295760008660030160008d8d858181106112565761125661369f565b61126c92602060409092020190810191506134cf565b6001600160a01b03166001600160a01b0316815260200190815260200160002060008d8d858181106112a0576112a061369f565b60206040918202939093018301358452838301949094525090820160009081205460ff90811680835260018c0190935292902054909250620100009004161561131657808484815181106112f6576112f661369f565b60ff909216602092830291909101909101528261131281613782565b9350505b508061132181613782565b915050611234565b508a336001600160a01b03167f26f48489610b9379e1312f6d4ab3e8ae7daaeb6e9c3fc4fd435e31efe4b5b9058460405161136491906137d7565b60405180910390a350505b88336001600160a01b03167f9327c3082659d71242f39580f98c14533249a2555a5e35f7c1dd6114c014acbd836040516113a991906137d7565b60405180910390a35050505b505050505050565b60006105be600080516020613cb4833981519152612683565b6113e28383833461268d565b6113ec33826126b1565b61140957604051632f5de44f60e01b815260040160405180910390fd5b61065a838383612737565b6001600160a01b03821660009081527f3c7bf052874fa81625121783266a03507bd2cd48b16e571c01a04e8dd3fb07a86020526040812061066b90836128c6565b61065a83838360405180602001604052806000815250611753565b600061090f600080516020613cb4833981519152836128d2565b60007ff6deb63e40d71b08820818e006e23fcceb1fce7a499bc15b71b2526cbf9efa725b54919050565b60008281527fd3889cc5458b268d0544e5534672df1296288ca3f93cbd39bd6f497a5c6228116020526040812061066b90836128f0565b604051600080516020613cf48339815191529033907f92bf6a7b8937c17e6781a68d61f9fe6a5ce08604b96ca2206f311049a3a295ea9061154f907f99574a7094154bb123ae6ae102096f0bf9679b85a5cd1e727aaa0ae5f132e6b390869061381e565b60405180910390a26002810161065a8382613903565b600080611580600080516020613cb483398151915284612912565b90506001600160a01b0381166105ae57604051637e1a7d8b60e01b815260040160405180910390fd5b6060600080516020613cf48339815191526002018054610b2790613748565b60006001600160a01b0382166115f157604051630810ff9760e41b815260040160405180910390fd5b6001600160a01b03821660009081527f3c7bf052874fa81625121783266a03507bd2cd48b16e571c01a04e8dd3fb07a8602052604090206105ae90612683565b600080516020613cd483398151915280546040805191825260208201849052805133927f9a201d4a67373d8576462c238c27108c61b3deec32a932aac079a84cc3b7742c92908290030190a255565b6060600080516020613cf48339815191526001018054610b2790613748565b336001600160a01b038316036116c85760405163424a22cb60e01b815260040160405180910390fd5b3360008181527f3c7bf052874fa81625121783266a03507bd2cd48b16e571c01a04e8dd3fb07aa602090815260408083206001600160a01b03871680855290835292819020805460ff191686151590811790915590519081529192917f17307eab39ab6107e8899845ad3d59bd9653f200f220920489ca2b5937696c31910160405180910390a35050565b61175f8484843461268d565b61176933836126b1565b61178657604051632f5de44f60e01b815260040160405180910390fd5b6109228484848461291e565b606061179d82611cc1565b6117b957604051624705a760e71b815260040160405180910390fd5b60008281527f99574a7094154bb123ae6ae102096f0bf9679b85a5cd1e727aaa0ae5f132e6b4602052604081208054600080516020613cf483398151915292919061180390613748565b80601f016020809104026020016040519081016040528092919081815260200182805461182f90613748565b801561187c5780601f106118515761010080835404028352916020019161187c565b820191906000526020600020905b81548152906001019060200180831161185f57829003601f168201915b50505050509050600082600201805461189490613748565b80601f01602080910402602001604051908101604052809291908181526020018280546118c090613748565b801561190d5780601f106118e25761010080835404028352916020019161190d565b820191906000526020600020905b8154815290600101906020018083116118f057829003601f168201915b50505050509050805160000361192557509392505050565b81511561195857808260405160200161193f9291906139c3565b6040516020818303038152906040529350505050919050565b8061196286612952565b60405160200161193f9291906139c3565b6000600080516020613cd48339815191526114ae565b60007ff38d3885e664c9638de25f02e645e1955ebebe901d7be2c2037db6a5bcbb358860008360018111156119c0576119c06139f2565b60018111156119d1576119d16139f2565b815260208101919091526040016000206004015460ff1692915050565b60007ff38d3885e664c9638de25f02e645e1955ebebe901d7be2c2037db6a5bcbb35886000846001811115611a2557611a256139f2565b6001811115611a3657611a366139f2565b81526020019081526020016000206001016000836001600160a01b03166001600160a01b0316815260200190815260200160002054905092915050565b6000807fa3ab50e899f598cf35254e9a97be2f97034673b13bdb3ad1ddfaf5a13d0a2167600481810154604051632118854760e21b81526001600160a01b0387811693820193909352929350610100900416906000908290638462151c90602401600060405180830381865afa158015611af1573d6000803e3d6000fd5b505050506040513d6000823e601f3d908101601f19168201604052611b199190810190613a08565b905060005b8151811015611b8157836000016000838381518110611b3f57611b3f61369f565b60209081029190910181015182528101919091526040016000205460ff16611b6f5784611b6b81613782565b9550505b80611b7981613782565b915050611b1e565b50505050919050565b60007ff38d3885e664c9638de25f02e645e1955ebebe901d7be2c2037db6a5bcbb35886000846001811115611bc157611bc16139f2565b6001811115611bd257611bd26139f2565b8152602080820192909252604090810160009081206001600160a01b0386168252909252902054905092915050565b6001600160a01b0391821660009081527f3c7bf052874fa81625121783266a03507bd2cd48b16e571c01a04e8dd3fb07aa6020908152604080832093909416825291909152205460ff1690565b7f87a01bd38845081b30641ebc639dfadf787bd49017c45985af2341fe932c74645460408051918252602082018390528051600080516020613cd48339815191529233927fed96032e9c101f4508a9696e8861f06aa3674be1b735fc685aed0efb83db76e992918290030190a260010155565b60006105ae600080516020613cb483398151915283612a53565b801561065a5760405163b56d7c1b60e01b815260040160405180910390fd5b6000611d046113bd565b6105be906001613722565b7ff38d3885e664c9638de25f02e645e1955ebebe901d7be2c2037db6a5bcbb358860008181866001811115611d4657611d466139f2565b6001811115611d5757611d576139f2565b81526020810191909152604001600020600481015490915060ff16611d8f57604051633137c0e960e11b815260040160405180910390fd5b6001600160a01b0384166000908152600182016020526040902054831115611dca57604051630f8a2c5f60e31b815260040160405180910390fd5b6001600160a01b038416600090815260018201602052604081208054859290611df4908490613735565b90915550506001600160a01b03841660009081526020829052604081208054859290611e21908490613722565b9250508190555082816002016000828254611e3c9190613722565b9250508190555082816003016000828254611e579190613735565b90915550506001600160a01b038416600081815260018301602090815260408083205491859052918290205491517f6526db8cb857c3bc972db45a7984e99efaed17f7a4e51afb85c64450133cb55c92611eb5928a92909190613aae565b60405180910390a25050505050565b7fa3ab50e899f598cf35254e9a97be2f97034673b13bdb3ad1ddfaf5a13d0a216b546000907fa3ab50e899f598cf35254e9a97be2f97034673b13bdb3ad1ddfaf5a13d0a2167906001600160a01b036101008204169060ff16611f3a576040516397adb44560e01b815260040160405180910390fd5b604051632118854760e21b81526001600160a01b03858116600483015260009190831690638462151c90602401600060405180830381865afa158015611f84573d6000803e3d6000fd5b505050506040513d6000823e601f3d908101601f19168201604052611fac9190810190613a08565b905060005b8151811015611b81576000828281518110611fce57611fce61369f565b60209081029190910181015160008181529187905260409091205490915060ff16612097576001600160a01b0387166000908152600186016020526040812080549161201983613782565b909155505060028501805490600061203083613782565b909155505060008181526020868152604091829020805460ff1916600190811790915591518281529197506001600160a01b038916917f635ab7979864b411fa5ddec44b7c3680bacf7584d39d4e9bd33b709b14001eb3910160405180910390a250611b81565b50806120a281613782565b915050611fb1565b6105d8828260405180602001604052806000815250612a6b565b6000600080516020613d148339815191527ff672b8dc84d117c1e14949d8bc3977392b5ab7de9d01b854d389cdc31bf0d4398261210460208701876134cf565b6001600160a01b031681526020808201929092526040908101600090812087840135825290925290205460ff1691508115806121555750600080516020613d148339815191525460ff908116908316115b15612173576040516363efa0e360e01b815260040160405180910390fd5b8215801561219a575060ff8083166000908152600183016020526040902054620100009004165b1561220f57336000908152600882016020908152604080832060ff8616845290915281205490036121de5760405163bbd28dfd60e01b815260040160405180910390fd5b336000908152600882016020908152604080832060ff86168452909152812080549161220983613ae4565b91905055505b6000858152600282016020908152604080832060ff8087168552908352818420600186019093529220549091610100909104168015612257575080546001600160a01b031615155b156122755760405163bd8a5e1560e01b815260040160405180910390fd5b6000868152600283016020908152604080832060ff871684529091529020546001600160a01b0316156122ac576122ac8684612a9f565b600060048301816122c060208901896134cf565b6001600160a01b031681526020808201929092526040908101600090812089840135825290925290205460ff169050801561241957600061230460208801886134cf565b604051627eeac760e11b8152336004820152602089013560248201529091506001906001600160a01b0383169062fdd58e90604401602060405180830381865afa158015612356573d6000803e3d6000fd5b505050506040513d601f19601f8201168201806040525081019061237a9190613afb565b1015612399576040516335ba250d60e11b815260040160405180910390fd5b604051637921219560e11b8152336004820152306024820152602088013560448201526001606482015260a06084820152600060a48201526001600160a01b0382169063f242432a9060c401600060405180830381600087803b1580156123ff57600080fd5b505af1158015612413573d6000803e3d6000fd5b50505050505b6000878152600284016020908152604080832060ff88168452909152902086906124438282613b14565b9050505050509392505050565b600080516020613d1483398151915280546000919060ff16825b8160ff168160ff161015612515576000612485826001613b4e565b60ff80821660009081526001870160205260409020805492935091620100009004161580156124bb57508054610100900460ff16155b156124c7575050612503565b6000878152600286016020908152604080832060ff861684529091529020546001600160a01b0316612500575060009695505050505050565b50505b8061250d816137b8565b91505061246a565b506001949350505050565b7ff672b8dc84d117c1e14949d8bc3977392b5ab7de9d01b854d389cdc31bf0d43f54600090600080516020613d1483398151915290606090835b818160ff161015612602576000846009018260ff168154811061257f5761257f61369f565b6000918252602080832081830401548a84526002890182526040808520601f9094166101000a90910460ff168085529282529283902080546001820154945193955090936125dc93899387936001600160a01b0316929101613b67565b6040516020818303038152906040529450505080806125fa906137b8565b91505061255a565b50815160208084019190912060008781526007860190925260409091205481148061263757506126356005850182612a53565b155b6000878152600786016020526040902054909550612659906005860190612bf1565b506126676005850182612bfd565b5060009586526007909301602052505060409092209190915590565b60006105ae825490565b80156126ac576040516322b1813960e01b815260040160405180910390fd5b610922565b60006126bc82611cc1565b6126d95760405163c1b843ef60e01b815260040160405180910390fd5b60006126e483611565565b9050806001600160a01b0316846001600160a01b0316148061271f5750836001600160a01b031661271484610baa565b6001600160a01b0316145b8061272f575061272f8185611c01565b949350505050565b600061274282611565565b9050836001600160a01b0316816001600160a01b03161461277657604051630f2db4ad60e01b815260040160405180910390fd5b6001600160a01b03831661279d576040516340311a0960e01b815260040160405180910390fd5b6127a8848484612c09565b6001600160a01b03841660009081527f3c7bf052874fa81625121783266a03507bd2cd48b16e571c01a04e8dd3fb07a860205260409020600080516020613cb4833981519152906127f99084612bf1565b506001600160a01b0384166000908152600282016020526040902061281e9084612bfd565b5061282a818486612c14565b50600083815260038201602052604080822080546001600160a01b0319169055518491906001600160a01b038516907f8c5be1e5ebec7d5bd14f71427d1e84f3dd0314c0f7b2291e5b200ac8c7c3b925908390a482846001600160a01b0316866001600160a01b03167fddf252ad1be2c89b69c2b068fc378daa952ba7f163c4a11628f55a4df523b3ef60405160405180910390a45050505050565b600061066b8383612c2a565b60008080806128e18686612c76565b909450925050505b9250929050565b6001600160a01b0381166000908152600183016020526040812054151561066b565b600061066b8383612cd9565b612929848484612737565b61293584848484612d3d565b61092257604051639ff10cdd60e01b815260040160405180910390fd5b6060816000036129795750506040805180820190915260018152600360fc1b602082015290565b8160005b81156129a3578061298d81613782565b915061299c9050600a83613bce565b915061297d565b60008167ffffffffffffffff8111156129be576129be6133b7565b6040519080825280601f01601f1916602001820160405280156129e8576020820181803683370190505b5090505b841561272f576129fd600183613735565b9150612a0a600a86613be2565b612a15906030613722565b60f81b818381518110612a2a57612a2a61369f565b60200101906001600160f81b031916908160001a905350612a4c600a86613bce565b94506129ec565b6000818152600183016020526040812054151561066b565b612a758383612e0e565b612a826000848484612d3d565b61065a57604051639ff10cdd60e01b815260040160405180910390fd5b60008281527ff672b8dc84d117c1e14949d8bc3977392b5ab7de9d01b854d389cdc31bf0d4386020908152604080832060ff858116855290835281842080546001600160a01b031685527ff672b8dc84d117c1e14949d8bc3977392b5ab7de9d01b854d389cdc31bf0d43a845282852060018201548652909352922054600080516020613d1483398151915292168015612bbd578154600180840154604051637921219560e11b81523060048201523360248201526044810191909152606481019190915260a06084820152600060a48201526001600160a01b0390911690819063f242432a9060c401600060405180830381600087803b158015612ba357600080fd5b505af1158015612bb7573d6000803e3d6000fd5b50505050505b505060009283526002016020908152604080842060ff9093168452919052812080546001600160a01b031916815560010155565b600061066b8383612f03565b600061066b8383612fbd565b61065a838383613000565b600061272f84846001600160a01b03851661300b565b81546000908210612c4e5760405163e637bf3b60e01b815260040160405180910390fd5b826000018281548110612c6357612c6361369f565b9060005260206000200154905092915050565b815460009081908310612c9c5760405163022fd82760e31b815260040160405180910390fd5b6000846000018481548110612cb357612cb361369f565b906000526020600020906002020190508060000154816001015492509250509250929050565b6000818152600183016020526040812054808203612d0a57604051633d547ec560e21b815260040160405180910390fd5b836000016001820381548110612d2257612d2261369f565b90600052602060002090600202016001015491505092915050565b60006001600160a01b0384163b612d565750600161272f565b6000612dd763150b7a0260e01b33888787604051602401612d7a9493929190613bf6565b604051602081830303815290604052906001600160e01b0319166020820180516001600160e01b038381831617835250505050604051806060016040528060328152602001613c82603291396001600160a01b03881691906130aa565b9050600081806020019051810190612def9190613c32565b6001600160e01b031916630a85bd0160e11b1492505050949350505050565b6001600160a01b038216612e35576040516311f2988d60e11b815260040160405180910390fd5b612e3e81611cc1565b15612e5c57604051630d86bb7b60e31b815260040160405180910390fd5b612e6860008383612c09565b6001600160a01b03821660009081527f3c7bf052874fa81625121783266a03507bd2cd48b16e571c01a04e8dd3fb07a860205260409020600080516020613cb483398151915290612eb99083612bfd565b50612ec5818385612c14565b5060405182906001600160a01b038516906000907fddf252ad1be2c89b69c2b068fc378daa952ba7f163c4a11628f55a4df523b3ef908290a4505050565b6000818152600183016020526040812054801561090f57835460009085906000198101908110612f3557612f3561369f565b9060005260206000200154905080856000016001840381548110612f5b57612f5b61369f565b6000918252602080832090910192909255918252600186019052604090208190558354849080612f8d57612f8d613c4f565b60008281526020808220830160001990810183905590920190925593815260019485019093525050604081205590565b60008181526001830160205260408120546105ae575081546001808201845560008481526020808220909301849055845493815293810190915260409092205590565b61065a8383836130b9565b600082815260018401602052604081205480820361307257505060408051808201825283815260208082018481528654600181810189556000898152848120955160029093029095019182559151908201558654868452818801909252929091205561066b565b8285600001600183038154811061308b5761308b61369f565b906000526020600020906002020160010181905550600091505061066b565b606061272f84846000856130fd565b6001600160a01b03821661065a5760008181527f99574a7094154bb123ae6ae102096f0bf9679b85a5cd1e727aaa0ae5f132e6b46020526040812061065a916131c3565b6060843b61311e57604051632270d6bf60e21b815260040160405180910390fd5b600080866001600160a01b0316858760405161313a9190613c65565b60006040518083038185875af1925050503d8060008114613177576040519150601f19603f3d011682016040523d82523d6000602084013e61317c565b606091505b5091509150811561319057915061272f9050565b8051156131a05780518082602001fd5b8360405162461bcd60e51b81526004016131ba9190613294565b60405180910390fd5b5080546131cf90613748565b6000825580601f106131df575050565b601f0160209004906000526020600020908101906106bf91905b8082111561320d57600081556001016131f9565b5090565b6001600160e01b0319811681146106bf57600080fd5b60006020828403121561323957600080fd5b813561066b81613211565b60005b8381101561325f578181015183820152602001613247565b50506000910152565b60008151808452613280816020860160208601613244565b601f01601f19169290920160200192915050565b60208152600061066b6020830184613268565b6000602082840312156132b957600080fd5b5035919050565b6001600160a01b03811681146106bf57600080fd5b600080604083850312156132e857600080fd5b82356132f3816132c0565b946020939093013593505050565b6000806020838503121561331457600080fd5b823567ffffffffffffffff8082111561332c57600080fd5b818501915085601f83011261334057600080fd5b81358181111561334f57600080fd5b8660208260061b850101111561336457600080fd5b60209290920196919550909350505050565b60008060006060848603121561338b57600080fd5b8335613396816132c0565b925060208401356133a6816132c0565b929592945050506040919091013590565b634e487b7160e01b600052604160045260246000fd5b604051601f8201601f1916810167ffffffffffffffff811182821017156133f6576133f66133b7565b604052919050565b600067ffffffffffffffff831115613418576134186133b7565b61342b601f8401601f19166020016133cd565b905082815283838301111561343f57600080fd5b828260208301376000602084830101529392505050565b60006020828403121561346857600080fd5b813567ffffffffffffffff81111561347f57600080fd5b8201601f8101841361349057600080fd5b61272f848235602084016133fe565b803580151581146134af57600080fd5b919050565b6000602082840312156134c657600080fd5b61066b8261349f565b6000602082840312156134e157600080fd5b813561066b816132c0565b600080604083850312156134ff57600080fd5b823561350a816132c0565b91506135186020840161349f565b90509250929050565b6000806020838503121561353457600080fd5b823567ffffffffffffffff8082111561354c57600080fd5b818501915085601f83011261356057600080fd5b81358181111561356f57600080fd5b8660208260051b850101111561336457600080fd5b6000602080830181845280855180835260408601915060408160051b870101925083870160005b828110156135d957603f198886030184526135c7858351613268565b945092850192908501906001016135ab565b5092979650505050505050565b600080600080608085870312156135fc57600080fd5b8435613607816132c0565b93506020850135613617816132c0565b925060408501359150606085013567ffffffffffffffff81111561363a57600080fd5b8501601f8101871361364b57600080fd5b61365a878235602084016133fe565b91505092959194509250565b6000806040838503121561367957600080fd5b8235613684816132c0565b91506020830135613694816132c0565b809150509250929050565b634e487b7160e01b600052603260045260246000fd5b6000808335601e198436030181126136cc57600080fd5b83018035915067ffffffffffffffff8211156136e757600080fd5b6020019150368190038213156128e957600080fd5b8183823760009101908152919050565b634e487b7160e01b600052601160045260246000fd5b808201808211156105ae576105ae61370c565b818103818111156105ae576105ae61370c565b600181811c9082168061375c57607f821691505b60208210810361377c57634e487b7160e01b600052602260045260246000fd5b50919050565b6000600182016137945761379461370c565b5060010190565b6000602082840312156137ad57600080fd5b815161066b816132c0565b600060ff821660ff81036137ce576137ce61370c565b60010192915050565b6020808252825182820181905260009190848201906040850190845b8181101561381257835160ff16835292840192918401916001016137f3565b50909695505050505050565b60408152600080845461383081613748565b8060408601526060600180841660008114613852576001811461386c5761389d565b60ff1985168884015283151560051b88018301955061389d565b8960005260208060002060005b868110156138945781548b8201870152908401908201613879565b8a018501975050505b505050505082810360208401526138b48185613268565b95945050505050565b601f82111561065a57600081815260208120601f850160051c810160208610156138e45750805b601f850160051c820191505b818110156113b5578281556001016138f0565b815167ffffffffffffffff81111561391d5761391d6133b7565b6139318161392b8454613748565b846138bd565b602080601f831160018114613966576000841561394e5750858301515b600019600386901b1c1916600185901b1785556113b5565b600085815260208120601f198616915b8281101561399557888601518255948401946001909101908401613976565b50858210156139b35787850151600019600388901b60f8161c191681555b5050505050600190811b01905550565b600083516139d5818460208801613244565b8351908301906139e9818360208801613244565b01949350505050565b634e487b7160e01b600052602160045260246000fd5b60006020808385031215613a1b57600080fd5b825167ffffffffffffffff80821115613a3357600080fd5b818501915085601f830112613a4757600080fd5b815181811115613a5957613a596133b7565b8060051b9150613a6a8483016133cd565b8181529183018401918481019088841115613a8457600080fd5b938501935b83851015613aa257845182529385019390850190613a89565b98975050505050505050565b6060810160028510613ad057634e487b7160e01b600052602160045260246000fd5b938152602081019290925260409091015290565b600081613af357613af361370c565b506000190190565b600060208284031215613b0d57600080fd5b5051919050565b8135613b1f816132c0565b6001600160a01b0381166bffffffffffffffffffffffff60a01b83541617825550602082013560018201555050565b60ff81811683821601908111156105ae576105ae61370c565b60008551613b79818460208a01613244565b60f89590951b6001600160f81b0319169190940190815260609290921b6bffffffffffffffffffffffff19166001830152601582015260350192915050565b634e487b7160e01b600052601260045260246000fd5b600082613bdd57613bdd613bb8565b500490565b600082613bf157613bf1613bb8565b500690565b60006001600160a01b03808716835280861660208401525083604083015260806060830152613c286080830184613268565b9695505050505050565b600060208284031215613c4457600080fd5b815161066b81613211565b634e487b7160e01b600052603160045260246000fd5b60008251613c77818460208701613244565b919091019291505056fe4552433732313a207472616e7366657220746f206e6f6e20455243373231526563656976657220696d706c656d656e7465723c7bf052874fa81625121783266a03507bd2cd48b16e571c01a04e8dd3fb07a687a01bd38845081b30641ebc639dfadf787bd49017c45985af2341fe932c746399574a7094154bb123ae6ae102096f0bf9679b85a5cd1e727aaa0ae5f132e6b1f672b8dc84d117c1e14949d8bc3977392b5ab7de9d01b854d389cdc31bf0d436a2646970667358221220d0d2b7e464bbc3d6be39ed226bceb5b688abbf52c18cd560120388b8ceca7aaf64736f6c63430008130033",
  "devdoc": {
    "details": "ReentrancyGuard and Multicall contracts are used for security and gas efficiency.",
    "kind": "dev",
    "methods": {
      "approve(address,uint256)": {
        "params": {
          "operator": "address to be approved",
          "tokenId": "token to approve"
        }
      },
      "availableMints(address)": {
        "params": {
          "account": "account to query"
        },
        "returns": {
          "balance": "amount of arcadians that can be minted"
        }
      },
      "balanceOf(address)": {
        "returns": {
          "_0": "quantity of tokens held"
        }
      },
      "baseURI()": {
        "details": "This function returns the base URI",
        "returns": {
          "_0": "The base URI"
        }
      },
      "getApproved(uint256)": {
        "params": {
          "tokenId": "token to query"
        },
        "returns": {
          "_0": "address approved to spend token"
        }
      },
      "isApprovedForAll(address,address)": {
        "params": {
          "account": "address to query for approval granted",
          "operator": "address to query for approval received"
        },
        "returns": {
          "_0": "whether operator is approved to spend tokens held by account"
        }
      },
      "maxMintPerUser()": {
        "details": "This function gets the current maximum number of arcadians that a user can mint",
        "returns": {
          "_0": "The current maximum number of arcadians that a user can mint"
        }
      },
      "maxSupply()": {
        "details": "This function returns the maximum supply of arcadians",
        "returns": {
          "_0": "The current maximum supply of arcadians"
        }
      },
      "mintAndEquip((address,uint256)[])": {
        "params": {
          "itemsToEquip": "array of items to equip in the correspondent slot"
        }
      },
      "mintPrice()": {
        "returns": {
          "_0": "The current mint price"
        }
      },
      "multicall(bytes[])": {
        "params": {
          "data": "array of function call data payloads"
        },
        "returns": {
          "results": "array of function call results"
        }
      },
      "ownerOf(uint256)": {
        "params": {
          "tokenId": "token to query"
        },
        "returns": {
          "_0": "token owner"
        }
      },
      "safeTransferFrom(address,address,uint256)": {
        "params": {
          "from": "sender of token",
          "to": "receiver of token",
          "tokenId": "token id"
        }
      },
      "safeTransferFrom(address,address,uint256,bytes)": {
        "params": {
          "data": "data payload",
          "from": "sender of token",
          "to": "receiver of token",
          "tokenId": "token id"
        }
      },
      "setApprovalForAll(address,bool)": {
        "params": {
          "operator": "address to be approved",
          "status": "approval status"
        }
      },
      "setBaseURI(string)": {
        "params": {
          "newBaseURI": "The new base URI for all token metadata"
        }
      },
      "setMaxMintPerUser(uint256)": {
        "params": {
          "newMaxMintPerUser": "The new maximum number of arcadians that a user can mint"
        }
      },
      "setMaxSupply(uint256)": {
        "params": {
          "maxArcadiansSupply": "The max supply of arcadians that can be minted"
        }
      },
      "setMintPrice(uint256)": {
        "params": {
          "newMintPrice": "The new mint price to be set"
        }
      },
      "supportsInterface(bytes4)": {
        "params": {
          "interfaceId": "interface id"
        },
        "returns": {
          "_0": "bool whether interface is supported"
        }
      },
      "tokenByIndex(uint256)": {
        "params": {
          "index": "position in global token list to query"
        },
        "returns": {
          "_0": "id of retrieved token"
        }
      },
      "tokenOfOwnerByIndex(address,uint256)": {
        "params": {
          "index": "position in owner's token list to query",
          "owner": "token holder to query"
        },
        "returns": {
          "_0": "id of retrieved token"
        }
      },
      "tokenURI(uint256)": {
        "params": {
          "tokenId": "ID of the token to query"
        },
        "returns": {
          "_0": "The URI for the given token ID"
        }
      },
      "totalMinted()": {
        "returns": {
          "_0": "uint total amount of arcadians minted"
        }
      },
      "totalSupply()": {
        "returns": {
          "_0": "total supply"
        }
      },
      "transferFrom(address,address,uint256)": {
        "params": {
          "from": "sender of token",
          "to": "receiver of token",
          "tokenId": "token id"
        }
      }
    },
    "title": "ArcadiansFacet",
    "version": 1
  },
  "userdoc": {
    "kind": "user",
    "methods": {
      "approve(address,uint256)": {
        "notice": "grant approval to given account to spend token"
      },
      "availableMints(address)": {
        "notice": "Returns the amount of arcadians that can be minted by an account"
      },
      "balanceOf(address)": {
        "notice": "query the balance of given address"
      },
      "getApproved(uint256)": {
        "notice": "get approval status for given token"
      },
      "isApprovedForAll(address,address)": {
        "notice": "query approval status of given operator with respect to given address"
      },
      "mintAndEquip((address,uint256)[])": {
        "notice": "Mint a token and equip it with the given items"
      },
      "mintPrice()": {
        "notice": "This function gets the current price to mint an arcadian"
      },
      "multicall(bytes[])": {
        "notice": "batch function calls to the contract and return the results of each"
      },
      "name()": {
        "notice": "inheritdoc IERC721Metadata"
      },
      "ownerOf(uint256)": {
        "notice": "query the owner of given token"
      },
      "publicMintOpen()": {
        "notice": "Returns true if the public mint is open, false otherwise"
      },
      "safeTransferFrom(address,address,uint256)": {
        "notice": "transfer token between given addresses, checking for ERC721Receiver implementation if applicable"
      },
      "safeTransferFrom(address,address,uint256,bytes)": {
        "notice": "transfer token between given addresses, checking for ERC721Receiver implementation if applicable"
      },
      "setApprovalForAll(address,bool)": {
        "notice": "grant approval to or revoke approval from given account to spend all tokens held by sender"
      },
      "setBaseURI(string)": {
        "notice": "Set the base URI for all Arcadians metadataOnly the manager role can call this function"
      },
      "setMaxMintPerUser(uint256)": {
        "notice": "This function sets the new maximum number of arcadians that a user can mint"
      },
      "setMaxSupply(uint256)": {
        "notice": "Sets the max arcadians supply"
      },
      "setMintPrice(uint256)": {
        "notice": "This function updates the price to mint an arcadian"
      },
      "setPublicMintOpen(bool)": {
        "notice": "This function sets the public mint as open/closed"
      },
      "supportsInterface(bytes4)": {
        "notice": "query whether contract has registered support for given interface"
      },
      "symbol()": {
        "notice": "inheritdoc IERC721Metadata"
      },
      "tokenByIndex(uint256)": {
        "notice": "get token at given internal storage index"
      },
      "tokenOfOwnerByIndex(address,uint256)": {
        "notice": "get token of given owner at given internal storage index"
      },
      "tokenURI(uint256)": {
        "notice": "Returns the URI for a given arcadian"
      },
      "totalMinted()": {
        "notice": "Returns the total amount of arcadians minted"
      },
      "totalSupply()": {
        "notice": "get total token supply"
      },
      "transferFrom(address,address,uint256)": {
        "notice": "transfer token between given addresses, without checking for ERC721Receiver implementation if applicable"
      }
    },
    "notice": "This contract is an ERC721 responsible for minting and claiming Arcadian tokens.",
    "version": 1
  },
  "storageLayout": {
    "storage": [],
    "types": null
  }
}