{
  "address": "0x0ba97a97a7f9Be0554540245657E1cdf53953DF8",
  "abi": [
    {
      "inputs": [],
      "name": "AddressUtils__NotContract",
      "type": "error"
    },
    {
      "inputs": [],
      "name": "Arcadians_InvalidPayAmount",
      "type": "error"
    },
    {
      "inputs": [],
      "name": "Arcadians_MaximumMintedArcadiansReached",
      "type": "error"
    },
    {
      "inputs": [],
      "name": "ERC165Base__InvalidInterfaceId",
      "type": "error"
    },
    {
      "inputs": [],
      "name": "ERC721Base__BalanceQueryZeroAddress",
      "type": "error"
    },
    {
      "inputs": [],
      "name": "ERC721Base__ERC721ReceiverNotImplemented",
      "type": "error"
    },
    {
      "inputs": [],
      "name": "ERC721Base__InvalidOwner",
      "type": "error"
    },
    {
      "inputs": [],
      "name": "ERC721Base__MintToZeroAddress",
      "type": "error"
    },
    {
      "inputs": [],
      "name": "ERC721Base__NonExistentToken",
      "type": "error"
    },
    {
      "inputs": [],
      "name": "ERC721Base__NotOwnerOrApproved",
      "type": "error"
    },
    {
      "inputs": [],
      "name": "ERC721Base__NotTokenOwner",
      "type": "error"
    },
    {
      "inputs": [],
      "name": "ERC721Base__SelfApproval",
      "type": "error"
    },
    {
      "inputs": [],
      "name": "ERC721Base__TokenAlreadyMinted",
      "type": "error"
    },
    {
      "inputs": [],
      "name": "ERC721Base__TransferToZeroAddress",
      "type": "error"
    },
    {
      "inputs": [],
      "name": "ERC721Metadata__NonExistentToken",
      "type": "error"
    },
    {
      "inputs": [],
      "name": "EnumerableMap__IndexOutOfBounds",
      "type": "error"
    },
    {
      "inputs": [],
      "name": "EnumerableMap__NonExistentKey",
      "type": "error"
    },
    {
      "inputs": [],
      "name": "EnumerableSet__IndexOutOfBounds",
      "type": "error"
    },
    {
      "inputs": [],
      "name": "Inventory_ArcadianNotUnique",
      "type": "error"
    },
    {
      "inputs": [],
      "name": "Inventory_InputDataMismatch",
      "type": "error"
    },
    {
      "inputs": [],
      "name": "Inventory_InsufficientItemBalance",
      "type": "error"
    },
    {
      "inputs": [],
      "name": "Inventory_InvalidERC1155Contract",
      "type": "error"
    },
    {
      "inputs": [],
      "name": "Inventory_InvalidSlotId",
      "type": "error"
    },
    {
      "inputs": [],
      "name": "Inventory_ItemAlreadyAllowedInSlot",
      "type": "error"
    },
    {
      "inputs": [],
      "name": "Inventory_ItemAlreadyDisallowedInSlot",
      "type": "error"
    },
    {
      "inputs": [],
      "name": "Inventory_ItemAlreadyEquippedInSlot",
      "type": "error"
    },
    {
      "inputs": [],
      "name": "Inventory_ItemNotElegibleForSlot",
      "type": "error"
    },
    {
      "inputs": [],
      "name": "Inventory_NotArcadianOwner",
      "type": "error"
    },
    {
      "inputs": [],
      "name": "Inventory_SlotAlreadyEquipped",
      "type": "error"
    },
    {
      "inputs": [],
      "name": "Inventory_SlotNotSpecified",
      "type": "error"
    },
    {
      "inputs": [],
      "name": "Inventory_UnequippingEmptySlot",
      "type": "error"
    },
    {
      "inputs": [],
      "name": "Inventory_UnequippingPermanentSlot",
      "type": "error"
    },
    {
      "inputs": [],
      "name": "Merkle_AlreadyClaimed",
      "type": "error"
    },
    {
      "inputs": [],
      "name": "Merkle_ClaimInactive",
      "type": "error"
    },
    {
      "inputs": [],
      "name": "Merkle_ClaimStateAlreadyUpdated",
      "type": "error"
    },
    {
      "inputs": [],
      "name": "Merkle_InvalidClaimAmount",
      "type": "error"
    },
    {
      "inputs": [],
      "name": "Merkle_NotIncludedInMerkleTree",
      "type": "error"
    },
    {
      "inputs": [],
      "name": "ReentrancyGuard__ReentrantCall",
      "type": "error"
    },
    {
      "inputs": [],
      "name": "SolidStateERC721__PayableApproveNotSupported",
      "type": "error"
    },
    {
      "inputs": [],
      "name": "SolidStateERC721__PayableTransferNotSupported",
      "type": "error"
    },
    {
      "inputs": [],
      "name": "UintUtils__InsufficientHexLength",
      "type": "error"
    },
    {
      "inputs": [],
      "name": "Whitelist_ClaimInactive",
      "type": "error"
    },
    {
      "inputs": [],
      "name": "Whitelist_ClaimStateAlreadyUpdated",
      "type": "error"
    },
    {
      "inputs": [],
      "name": "Whitelist_ExceedsElegibleAmount",
      "type": "error"
    },
    {
      "inputs": [],
      "name": "Whitelist_InputDataMismatch",
      "type": "error"
    },
    {
      "anonymous": false,
      "inputs": [
        {
          "indexed": true,
          "internalType": "address",
          "name": "owner",
          "type": "address"
        },
        {
          "indexed": true,
          "internalType": "address",
          "name": "operator",
          "type": "address"
        },
        {
          "indexed": true,
          "internalType": "uint256",
          "name": "tokenId",
          "type": "uint256"
        }
      ],
      "name": "Approval",
      "type": "event"
    },
    {
      "anonymous": false,
      "inputs": [
        {
          "indexed": true,
          "internalType": "address",
          "name": "owner",
          "type": "address"
        },
        {
          "indexed": true,
          "internalType": "address",
          "name": "operator",
          "type": "address"
        },
        {
          "indexed": false,
          "internalType": "bool",
          "name": "approved",
          "type": "bool"
        }
      ],
      "name": "ApprovalForAll",
      "type": "event"
    },
    {
      "anonymous": false,
      "inputs": [
        {
          "indexed": true,
          "internalType": "address",
          "name": "to",
          "type": "address"
        },
        {
          "indexed": true,
          "internalType": "uint256",
          "name": "claimedAmount",
          "type": "uint256"
        }
      ],
      "name": "ArcadianClaimedMerkle",
      "type": "event"
    },
    {
      "anonymous": false,
      "inputs": [
        {
          "indexed": true,
          "internalType": "address",
          "name": "oldArcadiansAddress",
          "type": "address"
        },
        {
          "indexed": true,
          "internalType": "address",
          "name": "newArcadiansAddress",
          "type": "address"
        }
      ],
      "name": "ArcadiansAddressChanged",
      "type": "event"
    },
    {
      "anonymous": false,
      "inputs": [
        {
          "indexed": true,
          "internalType": "address",
          "name": "by",
          "type": "address"
        },
        {
          "indexed": false,
          "internalType": "string",
          "name": "oldBaseURI",
          "type": "string"
        },
        {
          "indexed": false,
          "internalType": "string",
          "name": "newBaseURI",
          "type": "string"
        }
      ],
      "name": "BaseURIChanged",
      "type": "event"
    },
    {
      "anonymous": false,
      "inputs": [
        {
          "indexed": true,
          "internalType": "address",
          "name": "by",
          "type": "address"
        },
        {
          "indexed": true,
          "internalType": "address",
          "name": "oldInventoryAddress",
          "type": "address"
        },
        {
          "indexed": true,
          "internalType": "address",
          "name": "newInventoryAddress",
          "type": "address"
        }
      ],
      "name": "InventoryAddressChanged",
      "type": "event"
    },
    {
      "anonymous": false,
      "inputs": [
        {
          "indexed": true,
          "internalType": "address",
          "name": "by",
          "type": "address"
        },
        {
          "indexed": false,
          "internalType": "uint256",
          "name": "slotId",
          "type": "uint256"
        }
      ],
      "name": "ItemsAllowedInSlotUpdated",
      "type": "event"
    },
    {
      "anonymous": false,
      "inputs": [
        {
          "indexed": true,
          "internalType": "address",
          "name": "by",
          "type": "address"
        },
        {
          "indexed": true,
          "internalType": "uint256",
          "name": "arcadianId",
          "type": "uint256"
        },
        {
          "indexed": false,
          "internalType": "uint256[]",
          "name": "slots",
          "type": "uint256[]"
        }
      ],
      "name": "ItemsEquipped",
      "type": "event"
    },
    {
      "anonymous": false,
      "inputs": [
        {
          "indexed": true,
          "internalType": "address",
          "name": "by",
          "type": "address"
        },
        {
          "indexed": true,
          "internalType": "uint256",
          "name": "arcadianId",
          "type": "uint256"
        },
        {
          "indexed": false,
          "internalType": "uint256[]",
          "name": "slots",
          "type": "uint256[]"
        }
      ],
      "name": "ItemsUnequipped",
      "type": "event"
    },
    {
      "anonymous": false,
      "inputs": [
        {
          "indexed": true,
          "internalType": "address",
          "name": "by",
          "type": "address"
        },
        {
          "indexed": false,
          "internalType": "uint256",
          "name": "oldMaxMintPerUser",
          "type": "uint256"
        },
        {
          "indexed": false,
          "internalType": "uint256",
          "name": "newMaxMintPerUser",
          "type": "uint256"
        }
      ],
      "name": "MaxMintPerUserChanged",
      "type": "event"
    },
    {
      "anonymous": false,
      "inputs": [
        {
          "indexed": true,
          "internalType": "address",
          "name": "by",
          "type": "address"
        },
        {
          "indexed": false,
          "internalType": "uint256",
          "name": "oldMintPrice",
          "type": "uint256"
        },
        {
          "indexed": false,
          "internalType": "uint256",
          "name": "newMintPrice",
          "type": "uint256"
        }
      ],
      "name": "MintPriceChanged",
      "type": "event"
    },
    {
      "anonymous": false,
      "inputs": [
        {
          "indexed": true,
          "internalType": "bytes32",
          "name": "role",
          "type": "bytes32"
        },
        {
          "indexed": true,
          "internalType": "bytes32",
          "name": "previousAdminRole",
          "type": "bytes32"
        },
        {
          "indexed": true,
          "internalType": "bytes32",
          "name": "newAdminRole",
          "type": "bytes32"
        }
      ],
      "name": "RoleAdminChanged",
      "type": "event"
    },
    {
      "anonymous": false,
      "inputs": [
        {
          "indexed": true,
          "internalType": "bytes32",
          "name": "role",
          "type": "bytes32"
        },
        {
          "indexed": true,
          "internalType": "address",
          "name": "account",
          "type": "address"
        },
        {
          "indexed": true,
          "internalType": "address",
          "name": "sender",
          "type": "address"
        }
      ],
      "name": "RoleGranted",
      "type": "event"
    },
    {
      "anonymous": false,
      "inputs": [
        {
          "indexed": true,
          "internalType": "bytes32",
          "name": "role",
          "type": "bytes32"
        },
        {
          "indexed": true,
          "internalType": "address",
          "name": "account",
          "type": "address"
        },
        {
          "indexed": true,
          "internalType": "address",
          "name": "sender",
          "type": "address"
        }
      ],
      "name": "RoleRevoked",
      "type": "event"
    },
    {
      "anonymous": false,
      "inputs": [
        {
          "indexed": true,
          "internalType": "address",
          "name": "by",
          "type": "address"
        },
        {
          "indexed": false,
          "internalType": "uint256",
          "name": "slotId",
          "type": "uint256"
        },
        {
          "indexed": false,
          "internalType": "bool",
          "name": "permanent",
          "type": "bool"
        },
        {
          "indexed": false,
          "internalType": "enum InventoryStorage.SlotCategory",
          "name": "category",
          "type": "uint8"
        }
      ],
      "name": "SlotCreated",
      "type": "event"
    },
    {
      "anonymous": false,
      "inputs": [
        {
          "indexed": true,
          "internalType": "address",
          "name": "from",
          "type": "address"
        },
        {
          "indexed": true,
          "internalType": "address",
          "name": "to",
          "type": "address"
        },
        {
          "indexed": true,
          "internalType": "uint256",
          "name": "tokenId",
          "type": "uint256"
        }
      ],
      "name": "Transfer",
      "type": "event"
    },
    {
      "anonymous": false,
      "inputs": [
        {
          "indexed": false,
          "internalType": "address",
          "name": "account",
          "type": "address"
        },
        {
          "indexed": false,
          "internalType": "uint256",
          "name": "totalElegibleAmount",
          "type": "uint256"
        },
        {
          "indexed": false,
          "internalType": "uint256",
          "name": "totalClaimedAmount",
          "type": "uint256"
        }
      ],
      "name": "WhitelistBalanceChanged",
      "type": "event"
    },
    {
      "inputs": [
        {
          "internalType": "address",
          "name": "operator",
          "type": "address"
        },
        {
          "internalType": "uint256",
          "name": "tokenId",
          "type": "uint256"
        }
      ],
      "name": "approve",
      "outputs": [],
      "stateMutability": "payable",
      "type": "function"
    },
    {
      "inputs": [
        {
          "internalType": "address",
          "name": "account",
          "type": "address"
        }
      ],
      "name": "balanceOf",
      "outputs": [
        {
          "internalType": "uint256",
          "name": "",
          "type": "uint256"
        }
      ],
      "stateMutability": "view",
      "type": "function"
    },
    {
      "inputs": [],
      "name": "baseURI",
      "outputs": [
        {
          "internalType": "string",
          "name": "",
          "type": "string"
        }
      ],
      "stateMutability": "view",
      "type": "function"
    },
    {
      "inputs": [
        {
          "internalType": "uint256",
          "name": "amount",
          "type": "uint256"
        },
        {
          "internalType": "bytes32[]",
          "name": "proof",
          "type": "bytes32[]"
        }
      ],
      "name": "claimMerkle",
      "outputs": [],
      "stateMutability": "nonpayable",
      "type": "function"
    },
    {
      "inputs": [
        {
          "internalType": "uint256",
          "name": "amount",
          "type": "uint256"
        }
      ],
      "name": "claimWhitelist",
      "outputs": [],
      "stateMutability": "nonpayable",
      "type": "function"
    },
    {
      "inputs": [
        {
          "internalType": "address",
          "name": "account",
          "type": "address"
        }
      ],
      "name": "claimedAmountMerkle",
      "outputs": [
        {
          "internalType": "uint256",
          "name": "",
          "type": "uint256"
        }
      ],
      "stateMutability": "view",
      "type": "function"
    },
    {
      "inputs": [
        {
          "internalType": "uint256",
          "name": "tokenId",
          "type": "uint256"
        }
      ],
      "name": "getApproved",
      "outputs": [
        {
          "internalType": "address",
          "name": "",
          "type": "address"
        }
      ],
      "stateMutability": "view",
      "type": "function"
    },
    {
      "inputs": [
        {
          "internalType": "address",
          "name": "account",
          "type": "address"
        },
        {
          "internalType": "address",
          "name": "operator",
          "type": "address"
        }
      ],
      "name": "isApprovedForAll",
      "outputs": [
        {
          "internalType": "bool",
          "name": "",
          "type": "bool"
        }
      ],
      "stateMutability": "view",
      "type": "function"
    },
    {
      "inputs": [],
      "name": "maxMintPerUser",
      "outputs": [
        {
          "internalType": "uint256",
          "name": "",
          "type": "uint256"
        }
      ],
      "stateMutability": "view",
      "type": "function"
    },
    {
      "inputs": [],
      "name": "mint",
      "outputs": [],
      "stateMutability": "payable",
      "type": "function"
    },
    {
      "inputs": [
        {
          "internalType": "uint256[]",
          "name": "slotIds",
          "type": "uint256[]"
        },
        {
          "components": [
            {
              "internalType": "address",
              "name": "erc721Contract",
              "type": "address"
            },
            {
              "internalType": "uint256",
              "name": "id",
              "type": "uint256"
            }
          ],
          "internalType": "struct InventoryStorage.Item[]",
          "name": "itemsToEquip",
          "type": "tuple[]"
        }
      ],
      "name": "mintAndEquip",
      "outputs": [],
      "stateMutability": "payable",
      "type": "function"
    },
    {
      "inputs": [],
      "name": "mintPrice",
      "outputs": [
        {
          "internalType": "uint256",
          "name": "",
          "type": "uint256"
        }
      ],
      "stateMutability": "view",
      "type": "function"
    },
    {
      "inputs": [
        {
          "internalType": "bytes[]",
          "name": "data",
          "type": "bytes[]"
        }
      ],
      "name": "multicall",
      "outputs": [
        {
          "internalType": "bytes[]",
          "name": "results",
          "type": "bytes[]"
        }
      ],
      "stateMutability": "nonpayable",
      "type": "function"
    },
    {
      "inputs": [],
      "name": "name",
      "outputs": [
        {
          "internalType": "string",
          "name": "",
          "type": "string"
        }
      ],
      "stateMutability": "view",
      "type": "function"
    },
    {
      "inputs": [
        {
          "internalType": "uint256",
          "name": "tokenId",
          "type": "uint256"
        }
      ],
      "name": "ownerOf",
      "outputs": [
        {
          "internalType": "address",
          "name": "",
          "type": "address"
        }
      ],
      "stateMutability": "view",
      "type": "function"
    },
    {
      "inputs": [
        {
          "internalType": "address",
          "name": "from",
          "type": "address"
        },
        {
          "internalType": "address",
          "name": "to",
          "type": "address"
        },
        {
          "internalType": "uint256",
          "name": "tokenId",
          "type": "uint256"
        }
      ],
      "name": "safeTransferFrom",
      "outputs": [],
      "stateMutability": "payable",
      "type": "function"
    },
    {
      "inputs": [
        {
          "internalType": "address",
          "name": "from",
          "type": "address"
        },
        {
          "internalType": "address",
          "name": "to",
          "type": "address"
        },
        {
          "internalType": "uint256",
          "name": "tokenId",
          "type": "uint256"
        },
        {
          "internalType": "bytes",
          "name": "data",
          "type": "bytes"
        }
      ],
      "name": "safeTransferFrom",
      "outputs": [],
      "stateMutability": "payable",
      "type": "function"
    },
    {
      "inputs": [
        {
          "internalType": "address",
          "name": "operator",
          "type": "address"
        },
        {
          "internalType": "bool",
          "name": "status",
          "type": "bool"
        }
      ],
      "name": "setApprovalForAll",
      "outputs": [],
      "stateMutability": "nonpayable",
      "type": "function"
    },
    {
      "inputs": [
        {
          "internalType": "string",
          "name": "newBaseURI",
          "type": "string"
        }
      ],
      "name": "setBaseURI",
      "outputs": [],
      "stateMutability": "nonpayable",
      "type": "function"
    },
    {
      "inputs": [
        {
          "internalType": "uint256",
          "name": "newMaxMintPerUser",
          "type": "uint256"
        }
      ],
      "name": "setMaxMintPerUser",
      "outputs": [],
      "stateMutability": "nonpayable",
      "type": "function"
    },
    {
      "inputs": [
        {
          "internalType": "uint256",
          "name": "newMintPrice",
          "type": "uint256"
        }
      ],
      "name": "setMintPrice",
      "outputs": [],
      "stateMutability": "nonpayable",
      "type": "function"
    },
    {
      "inputs": [
        {
          "internalType": "bytes4",
          "name": "interfaceId",
          "type": "bytes4"
        }
      ],
      "name": "supportsInterface",
      "outputs": [
        {
          "internalType": "bool",
          "name": "",
          "type": "bool"
        }
      ],
      "stateMutability": "view",
      "type": "function"
    },
    {
      "inputs": [],
      "name": "symbol",
      "outputs": [
        {
          "internalType": "string",
          "name": "",
          "type": "string"
        }
      ],
      "stateMutability": "view",
      "type": "function"
    },
    {
      "inputs": [
        {
          "internalType": "uint256",
          "name": "index",
          "type": "uint256"
        }
      ],
      "name": "tokenByIndex",
      "outputs": [
        {
          "internalType": "uint256",
          "name": "",
          "type": "uint256"
        }
      ],
      "stateMutability": "view",
      "type": "function"
    },
    {
      "inputs": [
        {
          "internalType": "address",
          "name": "owner",
          "type": "address"
        },
        {
          "internalType": "uint256",
          "name": "index",
          "type": "uint256"
        }
      ],
      "name": "tokenOfOwnerByIndex",
      "outputs": [
        {
          "internalType": "uint256",
          "name": "",
          "type": "uint256"
        }
      ],
      "stateMutability": "view",
      "type": "function"
    },
    {
      "inputs": [
        {
          "internalType": "uint256",
          "name": "tokenId",
          "type": "uint256"
        }
      ],
      "name": "tokenURI",
      "outputs": [
        {
          "internalType": "string",
          "name": "",
          "type": "string"
        }
      ],
      "stateMutability": "view",
      "type": "function"
    },
    {
      "inputs": [],
      "name": "totalClaimedMerkle",
      "outputs": [
        {
          "internalType": "uint256",
          "name": "",
          "type": "uint256"
        }
      ],
      "stateMutability": "view",
      "type": "function"
    },
    {
      "inputs": [],
      "name": "totalSupply",
      "outputs": [
        {
          "internalType": "uint256",
          "name": "",
          "type": "uint256"
        }
      ],
      "stateMutability": "view",
      "type": "function"
    },
    {
      "inputs": [
        {
          "internalType": "address",
          "name": "from",
          "type": "address"
        },
        {
          "internalType": "address",
          "name": "to",
          "type": "address"
        },
        {
          "internalType": "uint256",
          "name": "tokenId",
          "type": "uint256"
        }
      ],
      "name": "transferFrom",
      "outputs": [],
      "stateMutability": "payable",
      "type": "function"
    }
  ],
  "transactionHash": "0xb7afa4f2a9df363c7a2e485cf813ab599a015145b1d61adb0b6980a0fde8acbd",
  "args": [],
  "numDeployments": 9,
  "solcInputHash": "769e5ab6dc92426c40d23bbacd734a6e",
  "bytecode": "0x608060405234801561001057600080fd5b5061381c806100206000396000f3fe6080604052600436106101c25760003560e01c80636c0360eb116100f7578063ac9650d811610095578063d279d40111610064578063d279d401146104ae578063d304c4bc146104c3578063e985e9c5146104d8578063f4a0a528146104f857600080fd5b8063ac9650d81461043b578063b88d4fde14610468578063c87b56dd1461047b578063cc6261f11461049b57600080fd5b80638e10d554116100d15780638e10d554146103c6578063958944f1146103e657806395d89b4114610406578063a22cb4651461041b57600080fd5b80636c0360eb1461037157806370a082311461038657806383ccaef7146103a657600080fd5b806323b872dd116101645780634f6ccce71161013e5780634f6ccce7146102fc57806355f804b31461031c5780636352211e1461033c5780636817c76c1461035c57600080fd5b806323b872dd146102b65780632f745c59146102c957806342842e0e146102e957600080fd5b8063095ea7b3116101a0578063095ea7b3146102565780631249c58b1461026b57806318160ddd146102735780631fa44f0e1461029657600080fd5b806301ffc9a7146101c757806306fdde03146101fc578063081812fc1461021e575b600080fd5b3480156101d357600080fd5b506101e76101e2366004612ce3565b610518565b60405190151581526020015b60405180910390f35b34801561020857600080fd5b5061021161055b565b6040516101f39190612d50565b34801561022a57600080fd5b5061023e610239366004612d63565b61056a565b6040516001600160a01b0390911681526020016101f3565b610269610264366004612d91565b610575565b005b610269610583565b34801561027f57600080fd5b5061028861067f565b6040519081526020016101f3565b3480156102a257600080fd5b506102886102b1366004612dbd565b610689565b6102696102c4366004612dda565b6106b4565b3480156102d557600080fd5b506102886102e4366004612d91565b6106c4565b6102696102f7366004612dda565b6106d7565b34801561030857600080fd5b50610288610317366004612d63565b6106e2565b34801561032857600080fd5b50610269610337366004612eba565b6106ed565b34801561034857600080fd5b5061023e610357366004612d63565b610729565b34801561036857600080fd5b50610288610734565b34801561037d57600080fd5b5061021161075e565b34801561039257600080fd5b506102886103a1366004612dbd565b610768565b3480156103b257600080fd5b506102696103c1366004612d63565b610773565b3480156103d257600080fd5b506102696103e1366004612d63565b6107a7565b3480156103f257600080fd5b50610269610401366004612f03565b610829565b34801561041257600080fd5b5061021161096c565b34801561042757600080fd5b50610269610436366004612fb5565b610976565b34801561044757600080fd5b5061045b610456366004613038565b610980565b6040516101f3919061307a565b6102696104763660046130dc565b610a9b565b34801561048757600080fd5b50610211610496366004612d63565b610aad565b6102696104a936600461315c565b610ab8565b3480156104ba57600080fd5b50610288610c69565b3480156104cf57600080fd5b50610288610c93565b3480156104e457600080fd5b506101e76104f33660046131f6565b610cbd565b34801561050457600080fd5b50610269610513366004612d63565b610cc9565b6001600160e01b0319811660009081527ffc606c433378e3a7e0a6a531deac289b66caa1b4aa8554fd4ab2c6f1570f92d8602052604081205460ff165b92915050565b6060610565610cfd565b905090565b600061055582610d9c565b61057f8282610dff565b5050565b7f09acf4e54214992e70883cf7dcd6957ff2c71cd9e14df4bec4383bc0d11607dc80546002036105c657604051635db5c7cd60e11b815260040160405180910390fd5b600281557f87a01bd38845081b30641ebc639dfadf787bd49017c45985af2341fe932c7466546000805160206137a783398151915290341461061b5760405163104bb3ad60e11b815260040160405180910390fd5b33600081815260208390526040812054909161063690610f02565b610640919061323a565b905081600201548110610666576040516302dd778760e11b815260040160405180910390fd5b61067733610672610f6b565b610f84565b505060019055565b6000610565610f6b565b6001600160a01b03811660009081526000805160206137a78339815191526020526040812054610555565b6106bf838383610f9e565b505050565b60006106d08383610fdc565b9392505050565b6106bf83838361101d565b600061055582611038565b61071d6107187ff6deb63e40d71b08820818e006e23fcceb1fce7a499bc15b71b2526cbf9efa725490565b611052565b6107268161105c565b50565b6000610555826110d6565b60006105657f87a01bd38845081b30641ebc639dfadf787bd49017c45985af2341fe932c74665490565b606061056561111a565b600061055582610f02565b61079e6107187ff6deb63e40d71b08820818e006e23fcceb1fce7a499bc15b71b2526cbf9efa725490565b61072681611139565b7f09acf4e54214992e70883cf7dcd6957ff2c71cd9e14df4bec4383bc0d11607dc80546002036107ea57604051635db5c7cd60e11b815260040160405180910390fd5b600281556107f833836111ac565b60005b828110156108215761080f33610672610f6b565b806108198161324d565b9150506107fb565b506001905550565b7f09acf4e54214992e70883cf7dcd6957ff2c71cd9e14df4bec4383bc0d11607dc805460020361086c57604051635db5c7cd60e11b815260040160405180910390fd5b600281556000805160206137a783398151915260008490036108a1576040516304d8f6d960e41b815260040160405180910390fd5b6040805133602082015280820186905281518082038301815260609091019091526108cc8482611348565b60005b858110156108f5576108e333610672610f6b565b806108ed8161324d565b9150506108cf565b503360009081526020839052604081208054879290610915908490613266565b92505081905550848260010160008282546109309190613266565b9091555050604051859033907fc169c3974ad5176ea41e766768be74079ba8c86a136ed66c5ac85e602782db7d90600090a35050600190555050565b6060610565611492565b61057f82826114b1565b60608167ffffffffffffffff81111561099b5761099b612e1b565b6040519080825280602002602001820160405280156109ce57816020015b60608152602001906001900390816109b95790505b50905060005b82811015610a9457600080308686858181106109f2576109f2613279565b9050602002810190610a04919061328f565b604051610a129291906132d6565b600060405180830381855af49150503d8060008114610a4d576040519150601f19603f3d011682016040523d82523d6000602084013e610a52565b606091505b50915091508115610a805780848481518110610a7057610a70613279565b6020026020010181905250610a8a565b3d6000803e3d6000fd5b50506001016109d4565b5092915050565b610aa784848484611565565b50505050565b6060610555826115a4565b7f09acf4e54214992e70883cf7dcd6957ff2c71cd9e14df4bec4383bc0d11607dc8054600203610afb57604051635db5c7cd60e11b815260040160405180910390fd5b600281557f87a01bd38845081b30641ebc639dfadf787bd49017c45985af2341fe932c7466546000805160206137a7833981519152903414610b985760405162461bcd60e51b815260206004820152602b60248201527f417263616469616e73496e7465726e616c2e5f6d696e743a20496e76616c696460448201526a081c185e48185b5bdd5b9d60aa1b60648201526084015b60405180910390fd5b336000818152602083905260408120549091610bb390610f02565b610bbd919061323a565b905081600201548110610c385760405162461bcd60e51b815260206004820152603b60248201527f417263616469616e73496e7465726e616c2e5f6d696e743a2055736572206d6160448201527f78696d756d206d696e74656420746f6b656e73207265616368656400000000006064820152608401610b8f565b6000610c42610f6b565b9050610c4e3382610f84565b610c5b8189898989611785565b505060019091555050505050565b60006105657f87a01bd38845081b30641ebc639dfadf787bd49017c45985af2341fe932c74645490565b60006105657f87a01bd38845081b30641ebc639dfadf787bd49017c45985af2341fe932c74655490565b60006106d08383611c2a565b610cf46107187ff6deb63e40d71b08820818e006e23fcceb1fce7a499bc15b71b2526cbf9efa725490565b61072681611c77565b60606000805160206137c78339815191528054610d19906132e6565b80601f0160208091040260200160405190810160405280929190818152602001828054610d45906132e6565b8015610d925780601f10610d6757610100808354040283529160200191610d92565b820191906000526020600020905b815481529060010190602001808311610d7557829003601f168201915b5050505050905090565b6000610da782611cea565b610dc45760405163c1b843ef60e01b815260040160405180910390fd5b5060009081527f3c7bf052874fa81625121783266a03507bd2cd48b16e571c01a04e8dd3fb07a960205260409020546001600160a01b031690565b610e0a828234611d04565b6000610e15826110d6565b9050806001600160a01b0316836001600160a01b031603610e495760405163424a22cb60e01b815260040160405180910390fd5b336001600160a01b03821614801590610e695750610e678133611c2a565b155b15610e8757604051632f5de44f60e01b815260040160405180910390fd5b60008281527f3c7bf052874fa81625121783266a03507bd2cd48b16e571c01a04e8dd3fb07a9602052604080822080546001600160a01b0319166001600160a01b0387811691821790925591518593918516917f8c5be1e5ebec7d5bd14f71427d1e84f3dd0314c0f7b2291e5b200ac8c7c3b92591a4505050565b60006001600160a01b038216610f2b57604051630810ff9760e41b815260040160405180910390fd5b6001600160a01b03821660009081527f3c7bf052874fa81625121783266a03507bd2cd48b16e571c01a04e8dd3fb07a86020526040902061055590611d2e565b6000610565600080516020613787833981519152611d2e565b61057f828260405180602001604052806000815250611d38565b610faa83838334611d6c565b610fb43382611d97565b610fd157604051632f5de44f60e01b815260040160405180910390fd5b6106bf838383611e1d565b6001600160a01b03821660009081527f3c7bf052874fa81625121783266a03507bd2cd48b16e571c01a04e8dd3fb07a8602052604081206106d09083611fac565b6106bf83838360405180602001604052806000815250611565565b6000610a9460008051602061378783398151915283611fb8565b6107268133611fd6565b6040516000805160206137c78339815191529033907f92bf6a7b8937c17e6781a68d61f9fe6a5ce08604b96ca2206f311049a3a295ea906110c0907f99574a7094154bb123ae6ae102096f0bf9679b85a5cd1e727aaa0ae5f132e6b3908690613320565b60405180910390a2600281016106bf838261340d565b6000806110f160008051602061378783398151915284612038565b90506001600160a01b03811661055557604051637e1a7d8b60e01b815260040160405180910390fd5b60606000805160206137c78339815191526002018054610d19906132e6565b7f87a01bd38845081b30641ebc639dfadf787bd49017c45985af2341fe932c746554604080519182526020820183905280516000805160206137a78339815191529233927f9a201d4a67373d8576462c238c27108c61b3deec32a932aac079a84cc3b7742c92918290030190a260020155565b7ff38d3885e664c9638de25f02e645e1955ebebe901d7be2c2037db6a5bcbb358c547ff38d3885e664c9638de25f02e645e1955ebebe901d7be2c2037db6a5bcbb35889060ff161561121157604051633137c0e960e11b815260040160405180910390fd5b6001600160a01b038316600090815260018201602052604090205482111561124c57604051630f8a2c5f60e31b815260040160405180910390fd5b6001600160a01b03831660009081526001820160205260408120805484929061127690849061323a565b90915550506001600160a01b038316600090815260208290526040812080548492906112a3908490613266565b92505081905550818160020160008282546112be9190613266565b92505081905550818160030160008282546112d9919061323a565b90915550506001600160a01b038316600090815260018201602090815260408083205484835292819020548151338152928301939093528101919091527fc7ba59c487358e9747ee9c691c213a9b2d30e01bb1b022a3e11d4b1984cd98459060600160405180910390a1505050565b7f7a07c093b55ad04e200605cb287859fe4640b7310d62fdbb044e26399da78c09547f7a07c093b55ad04e200605cb287859fe4640b7310d62fdbb044e26399da78c089060ff16156113ad5760405163a2f902f160e01b815260040160405180910390fd5b6000836040516020016113c091906134cd565b60408051601f19818403018152918152815160209283012060008181526002860190935291205490915060ff161561140b5760405163dea0a45b60e01b815260040160405180910390fd5b6000838051906020012060405160200161142791815260200190565b604051602081830303815290604052805190602001209050600061145086856000015484612044565b90508061147057604051631006f83b60e31b815260040160405180910390fd5b50506000908152600290910160205260409020805460ff191660011790555050565b60606000805160206137c78339815191526001018054610d19906132e6565b336001600160a01b038316036114da5760405163424a22cb60e01b815260040160405180910390fd5b3360008181527f3c7bf052874fa81625121783266a03507bd2cd48b16e571c01a04e8dd3fb07aa602090815260408083206001600160a01b03871680855290835292819020805460ff191686151590811790915590519081529192917f17307eab39ab6107e8899845ad3d59bd9653f200f220920489ca2b5937696c31910160405180910390a35050565b61157184848434611d6c565b61157b3383611d97565b61159857604051632f5de44f60e01b815260040160405180910390fd5b610aa7848484846120e9565b60606115af82611cea565b6115cb57604051624705a760e71b815260040160405180910390fd5b60008281527f99574a7094154bb123ae6ae102096f0bf9679b85a5cd1e727aaa0ae5f132e6b46020526040812080546000805160206137c7833981519152929190611615906132e6565b80601f0160208091040260200160405190810160405280929190818152602001828054611641906132e6565b801561168e5780601f106116635761010080835404028352916020019161168e565b820191906000526020600020905b81548152906001019060200180831161167157829003601f168201915b5050505050905060008260020180546116a6906132e6565b80601f01602080910402602001604051908101604052809291908181526020018280546116d2906132e6565b801561171f5780601f106116f45761010080835404028352916020019161171f565b820191906000526020600020905b81548152906001019060200180831161170257829003601f168201915b50505050509050805160000361173757509392505050565b81511561176a578082604051602001611751929190613503565b6040516020818303038152906040529350505050919050565b806117748661211d565b604051602001611751929190613503565b60008390036117a757604051635740c67760e11b815260040160405180910390fd5b8281146117c7576040516303f7219d60e41b815260040160405180910390fd5b7ff672b8dc84d117c1e14949d8bc3977392b5ab7de9d01b854d389cdc31bf0d436805460005b85811015611bb757600087878381811061180957611809613279565b90506020020135905080600014801561182157508281115b1561183f5760405163d751397d60e01b815260040160405180910390fd5b8084600401600088888681811061185857611858613279565b61186e9260206040909202019081019150612dbd565b6001600160a01b03166001600160a01b0316815260200190815260200160002060008888868181106118a2576118a2613279565b90506040020160200135815260200190815260200160002054146118d95760405163711f88b160e11b815260040160405180910390fd5b60008981526003850160209081526040808320848452909152902086868481811061190657611906613279565b61191c9260206040909202019081019150612dbd565b81546001600160a01b039081169116148015611956575086868481811061194557611945613279565b905060400201602001358160010154145b156119745760405163c80df0cb60e01b815260040160405180910390fd5b600082815260018087016020526040909120015460ff1680156119a0575080546001600160a01b031615155b156119be5760405163bd8a5e1560e01b815260040160405180910390fd5b6119c88a8361221e565b8686848181106119da576119da613279565b60008d8152600389016020908152604080832088845290915290819020910292909201919050611a0a8282613532565b9050506000878785818110611a2157611a21613279565b611a379260206040909202019081019150612dbd565b90506001816001600160a01b031662fdd58e338b8b89818110611a5c57611a5c613279565b905060400201602001356040518363ffffffff1660e01b8152600401611a979291906001600160a01b03929092168252602082015260400190565b602060405180830381865afa158015611ab4573d6000803e3d6000fd5b505050506040513d601f19601f82011682018060405250810190611ad8919061356c565b1015611af7576040516335ba250d60e11b815260040160405180910390fd5b806001600160a01b031663f242432a33308b8b89818110611b1a57611b1a613279565b6040805160e088901b6001600160e01b03191681526001600160a01b039687166004820152949095166024850152909302016020013560448201526001606482015260a06084820152600060a482015260c4019050600060405180830381600087803b158015611b8957600080fd5b505af1158015611b9d573d6000803e3d6000fd5b505050505050508080611baf9061324d565b9150506117ed565b50611bc187612343565b611bdd5760405162ecf30560e51b815260040160405180910390fd5b86336001600160a01b03167f557dc03f902756383ba5a748ab63ec6ec44b2880dba84ad33dc6ffe670f188618888604051611c19929190613585565b60405180910390a350505050505050565b6001600160a01b0391821660009081527f3c7bf052874fa81625121783266a03507bd2cd48b16e571c01a04e8dd3fb07aa6020908152604080832093909416825291909152205460ff1690565b7f87a01bd38845081b30641ebc639dfadf787bd49017c45985af2341fe932c746654604080519182526020820183905280516000805160206137a78339815191529233927fed96032e9c101f4508a9696e8861f06aa3674be1b735fc685aed0efb83db76e992918290030190a260030155565b60006105556000805160206137878339815191528361249c565b8015611d235760405163b56d7c1b60e01b815260040160405180910390fd5b6106bf8383836124b4565b6000610555825490565b611d4283836124d3565b611d4f60008484846125c8565b6106bf57604051639ff10cdd60e01b815260040160405180910390fd5b8015611d8b576040516322b1813960e01b815260040160405180910390fd5b610aa784848484612699565b6000611da282611cea565b611dbf5760405163c1b843ef60e01b815260040160405180910390fd5b6000611dca836110d6565b9050806001600160a01b0316846001600160a01b03161480611e055750836001600160a01b0316611dfa84610d9c565b6001600160a01b0316145b80611e155750611e158185611c2a565b949350505050565b6000611e28826110d6565b9050836001600160a01b0316816001600160a01b031614611e5c57604051630f2db4ad60e01b815260040160405180910390fd5b6001600160a01b038316611e83576040516340311a0960e01b815260040160405180910390fd5b611e8e8484846126bd565b6001600160a01b03841660009081527f3c7bf052874fa81625121783266a03507bd2cd48b16e571c01a04e8dd3fb07a86020526040902060008051602061378783398151915290611edf90846126c8565b506001600160a01b03841660009081526002820160205260409020611f0490846126d4565b50611f108184866126e0565b50600083815260038201602052604080822080546001600160a01b0319169055518491906001600160a01b038516907f8c5be1e5ebec7d5bd14f71427d1e84f3dd0314c0f7b2291e5b200ac8c7c3b925908390a482846001600160a01b0316866001600160a01b03167fddf252ad1be2c89b69c2b068fc378daa952ba7f163c4a11628f55a4df523b3ef60405160405180910390a45050505050565b60006106d083836126f6565b6000808080611fc78686612742565b909450925050505b9250929050565b611fe082826127a5565b61057f57611ff6816001600160a01b03166127dc565b6120018360206127ee565b6040516020016120129291906135be565b60408051601f198184030181529082905262461bcd60e51b8252610b8f91600401612d50565b60006106d08383612941565b600081815b85518110156120de57600086828151811061206657612066613279565b602002602001015190508083116120a85760408051602081018590529081018290526060016040516020818303038152906040528051906020012092506120d5565b60408051602081018390529081018490526060016040516020818303038152906040528051906020012092505b50600101612049565b509092149392505050565b6120f4848484611e1d565b612100848484846125c8565b610aa757604051639ff10cdd60e01b815260040160405180910390fd5b6060816000036121445750506040805180820190915260018152600360fc1b602082015290565b8160005b811561216e57806121588161324d565b91506121679050600a83613649565b9150612148565b60008167ffffffffffffffff81111561218957612189612e1b565b6040519080825280601f01601f1916602001820160405280156121b3576020820181803683370190505b5090505b8415611e15576121c860018361323a565b91506121d5600a8661365d565b6121e0906030613266565b60f81b8183815181106121f5576121f5613279565b60200101906001600160f81b031916908160001a905350612217600a86613649565b94506121b7565b60008281527ff672b8dc84d117c1e14949d8bc3977392b5ab7de9d01b854d389cdc31bf0d43960209081526040808320848452909152902080547ff672b8dc84d117c1e14949d8bc3977392b5ab7de9d01b854d389cdc31bf0d43691906001600160a01b031680612290575050505050565b600182810154604051637921219560e11b81523060048201523360248201526044810191909152606481019190915260a06084820152600060a48201526001600160a01b0382169063f242432a9060c401600060405180830381600087803b1580156122fb57600080fd5b505af115801561230f573d6000803e3d6000fd5b505050600095865250505060030160209081526040808420928452919052812080546001600160a01b031916815560010155565b60008080527ff672b8dc84d117c1e14949d8bc3977392b5ab7de9d01b854d389cdc31bf0d4386020527ff672b8dc84d117c1e14949d8bc3977392b5ab7de9d01b854d389cdc31bf0d4367f845ff02802177e9909faef63e536d995d5be20fadd26c667f4235942a02dfdd96060836123ba83611d2e565b905060005b8181101561243b5760006123d38583611fac565b60008981526003880160209081526040808320848452825291829020805460018201549351949550909361241593899387936001600160a01b03169201613671565b6040516020818303038152906040529450505080806124339061324d565b9150506123bf565b5081516020830120612450600686018261249c565b6000888152600887016020526040902054901596506124739060068701906126c8565b5061248160068601826126d4565b50600096875260089094016020525050604090932055919050565b600081815260018301602052604081205415156106d0565b80156106bf5760405163b56d7c1b60e01b815260040160405180910390fd5b6001600160a01b0382166124fa576040516311f2988d60e11b815260040160405180910390fd5b61250381611cea565b1561252157604051630d86bb7b60e31b815260040160405180910390fd5b61252d600083836126bd565b6001600160a01b03821660009081527f3c7bf052874fa81625121783266a03507bd2cd48b16e571c01a04e8dd3fb07a8602052604090206000805160206137878339815191529061257e90836126d4565b5061258a8183856126e0565b5060405182906001600160a01b038516906000907fddf252ad1be2c89b69c2b068fc378daa952ba7f163c4a11628f55a4df523b3ef908290a4505050565b60006001600160a01b0384163b6125e157506001611e15565b600061266263150b7a0260e01b3388878760405160240161260594939291906136b2565b604051602081830303815290604052906001600160e01b0319166020820180516001600160e01b038381831617835250505050604051806060016040528060328152602001613755603291396001600160a01b03881691906129a5565b905060008180602001905181019061267a91906136ee565b6001600160e01b031916630a85bd0160e11b1492505050949350505050565b80156126b8576040516322b1813960e01b815260040160405180910390fd5b610aa7565b6106bf8383836129b4565b60006106d083836129bf565b60006106d08383612a79565b6000611e1584846001600160a01b038516612abc565b8154600090821061271a5760405163e637bf3b60e01b815260040160405180910390fd5b82600001828154811061272f5761272f613279565b9060005260206000200154905092915050565b8154600090819083106127685760405163022fd82760e31b815260040160405180910390fd5b600084600001848154811061277f5761277f613279565b906000526020600020906002020190508060000154816001015492509250509250929050565b60008281527fd3889cc5458b268d0544e5534672df1296288ca3f93cbd39bd6f497a5c622811602052604081206106d09083612b5b565b60606105556001600160a01b03831660145b606060006127fd83600261370b565b612808906002613266565b67ffffffffffffffff81111561282057612820612e1b565b6040519080825280601f01601f19166020018201604052801561284a576020820181803683370190505b509050600360fc1b8160008151811061286557612865613279565b60200101906001600160f81b031916908160001a905350600f60fb1b8160018151811061289457612894613279565b60200101906001600160f81b031916908160001a905350600160028402015b6001811115612921576f181899199a1a9b1b9c1cb0b131b232b360811b85600f16601081106128e4576128e4613279565b1a60f81b8282815181106128fa576128fa613279565b60200101906001600160f81b031916908160001a90535060049490941c93600019016128b3565b5083156106d05760405163c913478560e01b815260040160405180910390fd5b600081815260018301602052604081205480820361297257604051633d547ec560e21b815260040160405180910390fd5b83600001600182038154811061298a5761298a613279565b90600052602060002090600202016001015491505092915050565b6060611e158484600085612b7d565b6106bf838383612c3a565b60008181526001830160205260408120548015610a94578354600090859060001981019081106129f1576129f1613279565b9060005260206000200154905080856000016001840381548110612a1757612a17613279565b6000918252602080832090910192909255918252600186019052604090208190558354849080612a4957612a49613722565b60008281526020808220830160001990810183905590920190925593815260019485019093525050604081205590565b6000818152600183016020526040812054610555575081546001808201845560008481526020808220909301849055845493815293810190915260409092205590565b6000828152600184016020526040812054808203612b235750506040805180820182528381526020808201848152865460018181018955600089815284812095516002909302909501918255915190820155865486845281880190925292909120556106d0565b82856000016001830381548110612b3c57612b3c613279565b90600052602060002090600202016001018190555060009150506106d0565b6001600160a01b038116600090815260018301602052604081205415156106d0565b6060843b612b9e57604051632270d6bf60e21b815260040160405180910390fd5b600080866001600160a01b03168587604051612bba9190613738565b60006040518083038185875af1925050503d8060008114612bf7576040519150601f19603f3d011682016040523d82523d6000602084013e612bfc565b606091505b50915091508115612c10579150611e159050565b805115612c205780518082602001fd5b8360405162461bcd60e51b8152600401610b8f9190612d50565b6106bf8383836001600160a01b0382166106bf5760008181527f99574a7094154bb123ae6ae102096f0bf9679b85a5cd1e727aaa0ae5f132e6b46020526040902080546106bf9190612c8b906132e6565b6000825580601f10612c9b575050565b601f01602090049060005260206000209081019061072691905b80821115612cc95760008155600101612cb5565b5090565b6001600160e01b03198116811461072657600080fd5b600060208284031215612cf557600080fd5b81356106d081612ccd565b60005b83811015612d1b578181015183820152602001612d03565b50506000910152565b60008151808452612d3c816020860160208601612d00565b601f01601f19169290920160200192915050565b6020815260006106d06020830184612d24565b600060208284031215612d7557600080fd5b5035919050565b6001600160a01b038116811461072657600080fd5b60008060408385031215612da457600080fd5b8235612daf81612d7c565b946020939093013593505050565b600060208284031215612dcf57600080fd5b81356106d081612d7c565b600080600060608486031215612def57600080fd5b8335612dfa81612d7c565b92506020840135612e0a81612d7c565b929592945050506040919091013590565b634e487b7160e01b600052604160045260246000fd5b604051601f8201601f1916810167ffffffffffffffff81118282101715612e5a57612e5a612e1b565b604052919050565b600067ffffffffffffffff831115612e7c57612e7c612e1b565b612e8f601f8401601f1916602001612e31565b9050828152838383011115612ea357600080fd5b828260208301376000602084830101529392505050565b600060208284031215612ecc57600080fd5b813567ffffffffffffffff811115612ee357600080fd5b8201601f81018413612ef457600080fd5b611e1584823560208401612e62565b60008060408385031215612f1657600080fd5b8235915060208084013567ffffffffffffffff80821115612f3657600080fd5b818601915086601f830112612f4a57600080fd5b813581811115612f5c57612f5c612e1b565b8060051b9150612f6d848301612e31565b8181529183018401918481019089841115612f8757600080fd5b938501935b83851015612fa557843582529385019390850190612f8c565b8096505050505050509250929050565b60008060408385031215612fc857600080fd5b8235612fd381612d7c565b915060208301358015158114612fe857600080fd5b809150509250929050565b60008083601f84011261300557600080fd5b50813567ffffffffffffffff81111561301d57600080fd5b6020830191508360208260051b8501011115611fcf57600080fd5b6000806020838503121561304b57600080fd5b823567ffffffffffffffff81111561306257600080fd5b61306e85828601612ff3565b90969095509350505050565b6000602080830181845280855180835260408601915060408160051b870101925083870160005b828110156130cf57603f198886030184526130bd858351612d24565b945092850192908501906001016130a1565b5092979650505050505050565b600080600080608085870312156130f257600080fd5b84356130fd81612d7c565b9350602085013561310d81612d7c565b925060408501359150606085013567ffffffffffffffff81111561313057600080fd5b8501601f8101871361314157600080fd5b61315087823560208401612e62565b91505092959194509250565b6000806000806040858703121561317257600080fd5b843567ffffffffffffffff8082111561318a57600080fd5b61319688838901612ff3565b909650945060208701359150808211156131af57600080fd5b818701915087601f8301126131c357600080fd5b8135818111156131d257600080fd5b8860208260061b85010111156131e757600080fd5b95989497505060200194505050565b6000806040838503121561320957600080fd5b823561321481612d7c565b91506020830135612fe881612d7c565b634e487b7160e01b600052601160045260246000fd5b8181038181111561055557610555613224565b60006001820161325f5761325f613224565b5060010190565b8082018082111561055557610555613224565b634e487b7160e01b600052603260045260246000fd5b6000808335601e198436030181126132a657600080fd5b83018035915067ffffffffffffffff8211156132c157600080fd5b602001915036819003821315611fcf57600080fd5b8183823760009101908152919050565b600181811c908216806132fa57607f821691505b60208210810361331a57634e487b7160e01b600052602260045260246000fd5b50919050565b604081526000808454613332816132e6565b8060408601526060600180841660008114613354576001811461336e5761339f565b60ff1985168884015283151560051b88018301955061339f565b8960005260208060002060005b868110156133965781548b820187015290840190820161337b565b8a018501975050505b505050505082810360208401526133b68185612d24565b95945050505050565b601f8211156106bf57600081815260208120601f850160051c810160208610156133e65750805b601f850160051c820191505b81811015613405578281556001016133f2565b505050505050565b815167ffffffffffffffff81111561342757613427612e1b565b61343b8161343584546132e6565b846133bf565b602080601f83116001811461347057600084156134585750858301515b600019600386901b1c1916600185901b178555613405565b600085815260208120601f198616915b8281101561349f57888601518255948401946001909101908401613480565b50858210156134bd5787850151600019600388901b60f8161c191681555b5050505050600190811b01905550565b815160009082906020808601845b838110156134f7578151855293820193908201906001016134db565b50929695505050505050565b60008351613515818460208801612d00565b835190830190613529818360208801612d00565b01949350505050565b813561353d81612d7c565b6001600160a01b0381166bffffffffffffffffffffffff60a01b83541617825550602082013560018201555050565b60006020828403121561357e57600080fd5b5051919050565b6020808252810182905260006001600160fb1b038311156135a557600080fd5b8260051b80856040850137919091016040019392505050565b7f416363657373436f6e74726f6c3a206163636f756e74200000000000000000008152600083516135f6816017850160208801612d00565b7001034b99036b4b9b9b4b733903937b6329607d1b6017918401918201528351613627816028840160208801612d00565b01602801949350505050565b634e487b7160e01b600052601260045260246000fd5b60008261365857613658613633565b500490565b60008261366c5761366c613633565b500690565b60008551613683818460208a01612d00565b919091019384525060609190911b6bffffffffffffffffffffffff191660208301526034820152605401919050565b60006001600160a01b038087168352808616602084015250836040830152608060608301526136e46080830184612d24565b9695505050505050565b60006020828403121561370057600080fd5b81516106d081612ccd565b808202811582820484141761055557610555613224565b634e487b7160e01b600052603160045260246000fd5b6000825161374a818460208701612d00565b919091019291505056fe4552433732313a207472616e7366657220746f206e6f6e20455243373231526563656976657220696d706c656d656e7465723c7bf052874fa81625121783266a03507bd2cd48b16e571c01a04e8dd3fb07a687a01bd38845081b30641ebc639dfadf787bd49017c45985af2341fe932c746399574a7094154bb123ae6ae102096f0bf9679b85a5cd1e727aaa0ae5f132e6b1a26469706673582212200dc218b247b818770fae4196ee62c44ac447d93eeff1b440c9a473b739bd785e64736f6c63430008130033",
  "devdoc": {
    "details": "ReentrancyGuard and Multicall contracts are used for security and gas efficiency.",
    "kind": "dev",
    "methods": {
      "approve(address,uint256)": {
        "params": {
          "operator": "address to be approved",
          "tokenId": "token to approve"
        }
      },
      "balanceOf(address)": {
        "returns": {
          "_0": "quantity of tokens held"
        }
      },
      "claimMerkle(uint256,bytes32[])": {
        "params": {
          "amount": "amount of arcadians that the caller wants to claim",
          "proof": "Merkle proof to validate if the caller is eligible to claim the amount given"
        }
      },
      "claimWhitelist(uint256)": {
        "params": {
          "amount": "amount of tokens to claim"
        }
      },
      "claimedAmountMerkle(address)": {
        "params": {
          "account": "address to check"
        },
        "returns": {
          "_0": "uint amount of tokens claimed by the address"
        }
      },
      "getApproved(uint256)": {
        "params": {
          "tokenId": "token to query"
        },
        "returns": {
          "_0": "address approved to spend token"
        }
      },
      "isApprovedForAll(address,address)": {
        "params": {
          "account": "address to query for approval granted",
          "operator": "address to query for approval received"
        },
        "returns": {
          "_0": "whether operator is approved to spend tokens held by account"
        }
      },
      "maxMintPerUser()": {
        "details": "This function gets the current maximum number of arcadians that a user can mint",
        "returns": {
          "_0": "The current maximum number of arcadians that a user can mint"
        }
      },
      "mintAndEquip(uint256[],(address,uint256)[])": {
        "params": {
          "itemsToEquip": "array of items to equip in the correspondent slot",
          "slotIds": "IDs of the inventory slots to equip"
        }
      },
      "mintPrice()": {
        "returns": {
          "_0": "The current mint price"
        }
      },
      "multicall(bytes[])": {
        "params": {
          "data": "array of function call data payloads"
        },
        "returns": {
          "results": "array of function call results"
        }
      },
      "ownerOf(uint256)": {
        "params": {
          "tokenId": "token to query"
        },
        "returns": {
          "_0": "token owner"
        }
      },
      "safeTransferFrom(address,address,uint256)": {
        "params": {
          "from": "sender of token",
          "to": "receiver of token",
          "tokenId": "token id"
        }
      },
      "safeTransferFrom(address,address,uint256,bytes)": {
        "params": {
          "data": "data payload",
          "from": "sender of token",
          "to": "receiver of token",
          "tokenId": "token id"
        }
      },
      "setApprovalForAll(address,bool)": {
        "params": {
          "operator": "address to be approved",
          "status": "approval status"
        }
      },
      "setBaseURI(string)": {
        "params": {
          "newBaseURI": "The new base URI for all token metadata"
        }
      },
      "setMaxMintPerUser(uint256)": {
        "params": {
          "newMaxMintPerUser": "The new maximum number of arcadians that a user can mint"
        }
      },
      "setMintPrice(uint256)": {
        "params": {
          "newMintPrice": "The new mint price to be set"
        }
      },
      "supportsInterface(bytes4)": {
        "params": {
          "interfaceId": "interface id"
        },
        "returns": {
          "_0": "bool whether interface is supported"
        }
      },
      "tokenByIndex(uint256)": {
        "params": {
          "index": "position in global token list to query"
        },
        "returns": {
          "_0": "id of retrieved token"
        }
      },
      "tokenOfOwnerByIndex(address,uint256)": {
        "params": {
          "index": "position in owner's token list to query",
          "owner": "token holder to query"
        },
        "returns": {
          "_0": "id of retrieved token"
        }
      },
      "tokenURI(uint256)": {
        "params": {
          "tokenId": "ID of the token to query"
        },
        "returns": {
          "_0": "The URI for the given token ID"
        }
      },
      "totalClaimedMerkle()": {
        "returns": {
          "_0": "The total claimed amount"
        }
      },
      "totalSupply()": {
        "returns": {
          "_0": "total supply"
        }
      },
      "transferFrom(address,address,uint256)": {
        "params": {
          "from": "sender of token",
          "to": "receiver of token",
          "tokenId": "token id"
        }
      }
    },
    "title": "ArcadiansFacet",
    "version": 1
  },
  "userdoc": {
    "kind": "user",
    "methods": {
      "approve(address,uint256)": {
        "notice": "grant approval to given account to spend token"
      },
      "balanceOf(address)": {
        "notice": "query the balance of given address"
      },
      "claimMerkle(uint256,bytes32[])": {
        "notice": "Allow the caller of the transaction to claim the amount of arcadians present in the Merkle tree"
      },
      "claimWhitelist(uint256)": {
        "notice": "Allow caller to claims tokens from the whitelist"
      },
      "claimedAmountMerkle(address)": {
        "notice": "Returns the amount of arcadians claimed by an address through the Merkle tree"
      },
      "getApproved(uint256)": {
        "notice": "get approval status for given token"
      },
      "isApprovedForAll(address,address)": {
        "notice": "query approval status of given operator with respect to given address"
      },
      "mint()": {
        "notice": "Mint a token and transfer it to the caller."
      },
      "mintAndEquip(uint256[],(address,uint256)[])": {
        "notice": "Mint a token and equip it with given items"
      },
      "mintPrice()": {
        "notice": "This function gets the current price to mint an arcadian"
      },
      "multicall(bytes[])": {
        "notice": "batch function calls to the contract and return the results of each"
      },
      "name()": {
        "notice": "inheritdoc IERC721Metadata"
      },
      "ownerOf(uint256)": {
        "notice": "query the owner of given token"
      },
      "safeTransferFrom(address,address,uint256)": {
        "notice": "transfer token between given addresses, checking for ERC721Receiver implementation if applicable"
      },
      "safeTransferFrom(address,address,uint256,bytes)": {
        "notice": "transfer token between given addresses, checking for ERC721Receiver implementation if applicable"
      },
      "setApprovalForAll(address,bool)": {
        "notice": "grant approval to or revoke approval from given account to spend all tokens held by sender"
      },
      "setBaseURI(string)": {
        "notice": "Set the base URI for all Arcadians metadataOnly the manager role can call this function"
      },
      "setMaxMintPerUser(uint256)": {
        "notice": "This function sets the new maximum number of arcadians that a user can mint"
      },
      "setMintPrice(uint256)": {
        "notice": "This function updates the price to mint an arcadian"
      },
      "supportsInterface(bytes4)": {
        "notice": "query whether contract has registered support for given interface"
      },
      "symbol()": {
        "notice": "inheritdoc IERC721Metadata"
      },
      "tokenByIndex(uint256)": {
        "notice": "get token at given internal storage index"
      },
      "tokenOfOwnerByIndex(address,uint256)": {
        "notice": "get token of given owner at given internal storage index"
      },
      "tokenURI(uint256)": {
        "notice": "Returns the URI for a given arcadian"
      },
      "totalClaimedMerkle()": {
        "notice": "Returns the total claimed amount from the merkle tree"
      },
      "totalSupply()": {
        "notice": "get total token supply"
      },
      "transferFrom(address,address,uint256)": {
        "notice": "transfer token between given addresses, without checking for ERC721Receiver implementation if applicable"
      }
    },
    "notice": "This contract is an ERC721 responsible for minting and claiming Arcadian tokens.",
    "version": 1
  },
  "storageLayout": {
    "storage": [],
    "types": null
  }
}