{
  "address": "0xA9a6f084fe3b6031690e39953e7601c02a094433",
  "abi": [
    {
      "inputs": [],
      "name": "AddressUtils__NotContract",
      "type": "error"
    },
    {
      "inputs": [],
      "name": "ERC165Base__InvalidInterfaceId",
      "type": "error"
    },
    {
      "inputs": [],
      "name": "ERC721Base__BalanceQueryZeroAddress",
      "type": "error"
    },
    {
      "inputs": [],
      "name": "ERC721Base__ERC721ReceiverNotImplemented",
      "type": "error"
    },
    {
      "inputs": [],
      "name": "ERC721Base__InvalidOwner",
      "type": "error"
    },
    {
      "inputs": [],
      "name": "ERC721Base__MintToZeroAddress",
      "type": "error"
    },
    {
      "inputs": [],
      "name": "ERC721Base__NonExistentToken",
      "type": "error"
    },
    {
      "inputs": [],
      "name": "ERC721Base__NotOwnerOrApproved",
      "type": "error"
    },
    {
      "inputs": [],
      "name": "ERC721Base__NotTokenOwner",
      "type": "error"
    },
    {
      "inputs": [],
      "name": "ERC721Base__SelfApproval",
      "type": "error"
    },
    {
      "inputs": [],
      "name": "ERC721Base__TokenAlreadyMinted",
      "type": "error"
    },
    {
      "inputs": [],
      "name": "ERC721Base__TransferToZeroAddress",
      "type": "error"
    },
    {
      "inputs": [],
      "name": "ERC721Metadata__NonExistentToken",
      "type": "error"
    },
    {
      "inputs": [],
      "name": "EnumerableMap__IndexOutOfBounds",
      "type": "error"
    },
    {
      "inputs": [],
      "name": "EnumerableMap__NonExistentKey",
      "type": "error"
    },
    {
      "inputs": [],
      "name": "EnumerableSet__IndexOutOfBounds",
      "type": "error"
    },
    {
      "inputs": [],
      "name": "ReentrancyGuard__ReentrantCall",
      "type": "error"
    },
    {
      "inputs": [],
      "name": "SolidStateERC721__PayableApproveNotSupported",
      "type": "error"
    },
    {
      "inputs": [],
      "name": "SolidStateERC721__PayableTransferNotSupported",
      "type": "error"
    },
    {
      "inputs": [],
      "name": "UintUtils__InsufficientHexLength",
      "type": "error"
    },
    {
      "anonymous": false,
      "inputs": [
        {
          "indexed": true,
          "internalType": "address",
          "name": "owner",
          "type": "address"
        },
        {
          "indexed": true,
          "internalType": "address",
          "name": "operator",
          "type": "address"
        },
        {
          "indexed": true,
          "internalType": "uint256",
          "name": "tokenId",
          "type": "uint256"
        }
      ],
      "name": "Approval",
      "type": "event"
    },
    {
      "anonymous": false,
      "inputs": [
        {
          "indexed": true,
          "internalType": "address",
          "name": "owner",
          "type": "address"
        },
        {
          "indexed": true,
          "internalType": "address",
          "name": "operator",
          "type": "address"
        },
        {
          "indexed": false,
          "internalType": "bool",
          "name": "approved",
          "type": "bool"
        }
      ],
      "name": "ApprovalForAll",
      "type": "event"
    },
    {
      "anonymous": false,
      "inputs": [
        {
          "indexed": true,
          "internalType": "address",
          "name": "to",
          "type": "address"
        },
        {
          "indexed": true,
          "internalType": "uint256",
          "name": "amount",
          "type": "uint256"
        }
      ],
      "name": "ArcadianClaimedMerkle",
      "type": "event"
    },
    {
      "anonymous": false,
      "inputs": [
        {
          "indexed": true,
          "internalType": "address",
          "name": "oldArcadiansAddress",
          "type": "address"
        },
        {
          "indexed": true,
          "internalType": "address",
          "name": "newArcadiansAddress",
          "type": "address"
        }
      ],
      "name": "ArcadiansAddressChanged",
      "type": "event"
    },
    {
      "anonymous": false,
      "inputs": [
        {
          "indexed": true,
          "internalType": "address",
          "name": "by",
          "type": "address"
        },
        {
          "indexed": false,
          "internalType": "string",
          "name": "oldBaseURI",
          "type": "string"
        },
        {
          "indexed": false,
          "internalType": "string",
          "name": "newBaseURI",
          "type": "string"
        }
      ],
      "name": "BaseURIChanged",
      "type": "event"
    },
    {
      "anonymous": false,
      "inputs": [
        {
          "indexed": true,
          "internalType": "address",
          "name": "by",
          "type": "address"
        },
        {
          "indexed": true,
          "internalType": "address",
          "name": "oldInventoryAddress",
          "type": "address"
        },
        {
          "indexed": true,
          "internalType": "address",
          "name": "newInventoryAddress",
          "type": "address"
        }
      ],
      "name": "InventoryAddressChanged",
      "type": "event"
    },
    {
      "anonymous": false,
      "inputs": [
        {
          "indexed": true,
          "internalType": "address",
          "name": "by",
          "type": "address"
        },
        {
          "indexed": false,
          "internalType": "uint256",
          "name": "slotId",
          "type": "uint256"
        }
      ],
      "name": "ItemsAllowedInSlotUpdated",
      "type": "event"
    },
    {
      "anonymous": false,
      "inputs": [
        {
          "indexed": true,
          "internalType": "address",
          "name": "by",
          "type": "address"
        },
        {
          "indexed": true,
          "internalType": "uint256",
          "name": "arcadianId",
          "type": "uint256"
        },
        {
          "indexed": false,
          "internalType": "uint256[]",
          "name": "slots",
          "type": "uint256[]"
        }
      ],
      "name": "ItemsEquipped",
      "type": "event"
    },
    {
      "anonymous": false,
      "inputs": [
        {
          "indexed": true,
          "internalType": "address",
          "name": "by",
          "type": "address"
        },
        {
          "indexed": true,
          "internalType": "uint256",
          "name": "arcadianId",
          "type": "uint256"
        },
        {
          "indexed": false,
          "internalType": "uint256[]",
          "name": "slots",
          "type": "uint256[]"
        }
      ],
      "name": "ItemsUnequipped",
      "type": "event"
    },
    {
      "anonymous": false,
      "inputs": [
        {
          "indexed": true,
          "internalType": "address",
          "name": "by",
          "type": "address"
        },
        {
          "indexed": false,
          "internalType": "uint256",
          "name": "oldMaxMintPerUser",
          "type": "uint256"
        },
        {
          "indexed": false,
          "internalType": "uint256",
          "name": "newMaxMintPerUser",
          "type": "uint256"
        }
      ],
      "name": "MaxMintPerUserChanged",
      "type": "event"
    },
    {
      "anonymous": false,
      "inputs": [
        {
          "indexed": true,
          "internalType": "address",
          "name": "by",
          "type": "address"
        },
        {
          "indexed": false,
          "internalType": "uint256",
          "name": "oldMintPrice",
          "type": "uint256"
        },
        {
          "indexed": false,
          "internalType": "uint256",
          "name": "newMintPrice",
          "type": "uint256"
        }
      ],
      "name": "MintPriceChanged",
      "type": "event"
    },
    {
      "anonymous": false,
      "inputs": [
        {
          "indexed": true,
          "internalType": "bytes32",
          "name": "role",
          "type": "bytes32"
        },
        {
          "indexed": true,
          "internalType": "bytes32",
          "name": "previousAdminRole",
          "type": "bytes32"
        },
        {
          "indexed": true,
          "internalType": "bytes32",
          "name": "newAdminRole",
          "type": "bytes32"
        }
      ],
      "name": "RoleAdminChanged",
      "type": "event"
    },
    {
      "anonymous": false,
      "inputs": [
        {
          "indexed": true,
          "internalType": "bytes32",
          "name": "role",
          "type": "bytes32"
        },
        {
          "indexed": true,
          "internalType": "address",
          "name": "account",
          "type": "address"
        },
        {
          "indexed": true,
          "internalType": "address",
          "name": "sender",
          "type": "address"
        }
      ],
      "name": "RoleGranted",
      "type": "event"
    },
    {
      "anonymous": false,
      "inputs": [
        {
          "indexed": true,
          "internalType": "bytes32",
          "name": "role",
          "type": "bytes32"
        },
        {
          "indexed": true,
          "internalType": "address",
          "name": "account",
          "type": "address"
        },
        {
          "indexed": true,
          "internalType": "address",
          "name": "sender",
          "type": "address"
        }
      ],
      "name": "RoleRevoked",
      "type": "event"
    },
    {
      "anonymous": false,
      "inputs": [
        {
          "indexed": true,
          "internalType": "address",
          "name": "by",
          "type": "address"
        },
        {
          "indexed": false,
          "internalType": "uint256",
          "name": "slotId",
          "type": "uint256"
        },
        {
          "indexed": false,
          "internalType": "bool",
          "name": "unequippable",
          "type": "bool"
        },
        {
          "indexed": false,
          "internalType": "enum InventoryStorage.SlotCategory",
          "name": "category",
          "type": "uint8"
        }
      ],
      "name": "SlotCreated",
      "type": "event"
    },
    {
      "anonymous": false,
      "inputs": [
        {
          "indexed": true,
          "internalType": "address",
          "name": "from",
          "type": "address"
        },
        {
          "indexed": true,
          "internalType": "address",
          "name": "to",
          "type": "address"
        },
        {
          "indexed": true,
          "internalType": "uint256",
          "name": "tokenId",
          "type": "uint256"
        }
      ],
      "name": "Transfer",
      "type": "event"
    },
    {
      "anonymous": false,
      "inputs": [
        {
          "indexed": false,
          "internalType": "address",
          "name": "account",
          "type": "address"
        },
        {
          "indexed": false,
          "internalType": "int256",
          "name": "amount",
          "type": "int256"
        },
        {
          "indexed": false,
          "internalType": "uint256",
          "name": "totalElegibleAmount",
          "type": "uint256"
        },
        {
          "indexed": false,
          "internalType": "uint256",
          "name": "totalClaimedAmount",
          "type": "uint256"
        }
      ],
      "name": "WhitelistBalanceChanged",
      "type": "event"
    },
    {
      "inputs": [
        {
          "internalType": "address",
          "name": "operator",
          "type": "address"
        },
        {
          "internalType": "uint256",
          "name": "tokenId",
          "type": "uint256"
        }
      ],
      "name": "approve",
      "outputs": [],
      "stateMutability": "payable",
      "type": "function"
    },
    {
      "inputs": [
        {
          "internalType": "address",
          "name": "account",
          "type": "address"
        }
      ],
      "name": "balanceOf",
      "outputs": [
        {
          "internalType": "uint256",
          "name": "",
          "type": "uint256"
        }
      ],
      "stateMutability": "view",
      "type": "function"
    },
    {
      "inputs": [],
      "name": "baseURI",
      "outputs": [
        {
          "internalType": "string",
          "name": "",
          "type": "string"
        }
      ],
      "stateMutability": "view",
      "type": "function"
    },
    {
      "inputs": [
        {
          "internalType": "uint256",
          "name": "totalAmount",
          "type": "uint256"
        },
        {
          "internalType": "bytes32[]",
          "name": "proof",
          "type": "bytes32[]"
        }
      ],
      "name": "claimMerkle",
      "outputs": [],
      "stateMutability": "nonpayable",
      "type": "function"
    },
    {
      "inputs": [
        {
          "internalType": "uint256",
          "name": "amount",
          "type": "uint256"
        }
      ],
      "name": "claimWhitelist",
      "outputs": [],
      "stateMutability": "nonpayable",
      "type": "function"
    },
    {
      "inputs": [
        {
          "internalType": "address",
          "name": "account",
          "type": "address"
        }
      ],
      "name": "claimedAmountMerkle",
      "outputs": [
        {
          "internalType": "uint256",
          "name": "",
          "type": "uint256"
        }
      ],
      "stateMutability": "view",
      "type": "function"
    },
    {
      "inputs": [
        {
          "internalType": "uint256",
          "name": "tokenId",
          "type": "uint256"
        }
      ],
      "name": "getApproved",
      "outputs": [
        {
          "internalType": "address",
          "name": "",
          "type": "address"
        }
      ],
      "stateMutability": "view",
      "type": "function"
    },
    {
      "inputs": [
        {
          "internalType": "address",
          "name": "account",
          "type": "address"
        },
        {
          "internalType": "address",
          "name": "operator",
          "type": "address"
        }
      ],
      "name": "isApprovedForAll",
      "outputs": [
        {
          "internalType": "bool",
          "name": "",
          "type": "bool"
        }
      ],
      "stateMutability": "view",
      "type": "function"
    },
    {
      "inputs": [],
      "name": "maxMintPerUser",
      "outputs": [
        {
          "internalType": "uint256",
          "name": "",
          "type": "uint256"
        }
      ],
      "stateMutability": "view",
      "type": "function"
    },
    {
      "inputs": [],
      "name": "mint",
      "outputs": [],
      "stateMutability": "payable",
      "type": "function"
    },
    {
      "inputs": [
        {
          "internalType": "uint256[]",
          "name": "slotIds",
          "type": "uint256[]"
        },
        {
          "components": [
            {
              "internalType": "address",
              "name": "contractAddress",
              "type": "address"
            },
            {
              "internalType": "uint256",
              "name": "id",
              "type": "uint256"
            }
          ],
          "internalType": "struct InventoryStorage.Item[]",
          "name": "itemsToEquip",
          "type": "tuple[]"
        }
      ],
      "name": "mintAndEquip",
      "outputs": [],
      "stateMutability": "payable",
      "type": "function"
    },
    {
      "inputs": [],
      "name": "mintPrice",
      "outputs": [
        {
          "internalType": "uint256",
          "name": "",
          "type": "uint256"
        }
      ],
      "stateMutability": "view",
      "type": "function"
    },
    {
      "inputs": [
        {
          "internalType": "bytes[]",
          "name": "data",
          "type": "bytes[]"
        }
      ],
      "name": "multicall",
      "outputs": [
        {
          "internalType": "bytes[]",
          "name": "results",
          "type": "bytes[]"
        }
      ],
      "stateMutability": "nonpayable",
      "type": "function"
    },
    {
      "inputs": [],
      "name": "name",
      "outputs": [
        {
          "internalType": "string",
          "name": "",
          "type": "string"
        }
      ],
      "stateMutability": "view",
      "type": "function"
    },
    {
      "inputs": [
        {
          "internalType": "uint256",
          "name": "tokenId",
          "type": "uint256"
        }
      ],
      "name": "ownerOf",
      "outputs": [
        {
          "internalType": "address",
          "name": "",
          "type": "address"
        }
      ],
      "stateMutability": "view",
      "type": "function"
    },
    {
      "inputs": [
        {
          "internalType": "address",
          "name": "from",
          "type": "address"
        },
        {
          "internalType": "address",
          "name": "to",
          "type": "address"
        },
        {
          "internalType": "uint256",
          "name": "tokenId",
          "type": "uint256"
        }
      ],
      "name": "safeTransferFrom",
      "outputs": [],
      "stateMutability": "payable",
      "type": "function"
    },
    {
      "inputs": [
        {
          "internalType": "address",
          "name": "from",
          "type": "address"
        },
        {
          "internalType": "address",
          "name": "to",
          "type": "address"
        },
        {
          "internalType": "uint256",
          "name": "tokenId",
          "type": "uint256"
        },
        {
          "internalType": "bytes",
          "name": "data",
          "type": "bytes"
        }
      ],
      "name": "safeTransferFrom",
      "outputs": [],
      "stateMutability": "payable",
      "type": "function"
    },
    {
      "inputs": [
        {
          "internalType": "address",
          "name": "operator",
          "type": "address"
        },
        {
          "internalType": "bool",
          "name": "status",
          "type": "bool"
        }
      ],
      "name": "setApprovalForAll",
      "outputs": [],
      "stateMutability": "nonpayable",
      "type": "function"
    },
    {
      "inputs": [
        {
          "internalType": "string",
          "name": "newBaseURI",
          "type": "string"
        }
      ],
      "name": "setBaseURI",
      "outputs": [],
      "stateMutability": "nonpayable",
      "type": "function"
    },
    {
      "inputs": [
        {
          "internalType": "uint256",
          "name": "newMaxMintPerUser",
          "type": "uint256"
        }
      ],
      "name": "setMaxMintPerUser",
      "outputs": [],
      "stateMutability": "nonpayable",
      "type": "function"
    },
    {
      "inputs": [
        {
          "internalType": "uint256",
          "name": "newMintPrice",
          "type": "uint256"
        }
      ],
      "name": "setMintPrice",
      "outputs": [],
      "stateMutability": "nonpayable",
      "type": "function"
    },
    {
      "inputs": [
        {
          "internalType": "bytes4",
          "name": "interfaceId",
          "type": "bytes4"
        }
      ],
      "name": "supportsInterface",
      "outputs": [
        {
          "internalType": "bool",
          "name": "",
          "type": "bool"
        }
      ],
      "stateMutability": "view",
      "type": "function"
    },
    {
      "inputs": [],
      "name": "symbol",
      "outputs": [
        {
          "internalType": "string",
          "name": "",
          "type": "string"
        }
      ],
      "stateMutability": "view",
      "type": "function"
    },
    {
      "inputs": [
        {
          "internalType": "uint256",
          "name": "index",
          "type": "uint256"
        }
      ],
      "name": "tokenByIndex",
      "outputs": [
        {
          "internalType": "uint256",
          "name": "",
          "type": "uint256"
        }
      ],
      "stateMutability": "view",
      "type": "function"
    },
    {
      "inputs": [
        {
          "internalType": "address",
          "name": "owner",
          "type": "address"
        },
        {
          "internalType": "uint256",
          "name": "index",
          "type": "uint256"
        }
      ],
      "name": "tokenOfOwnerByIndex",
      "outputs": [
        {
          "internalType": "uint256",
          "name": "",
          "type": "uint256"
        }
      ],
      "stateMutability": "view",
      "type": "function"
    },
    {
      "inputs": [
        {
          "internalType": "uint256",
          "name": "tokenId",
          "type": "uint256"
        }
      ],
      "name": "tokenURI",
      "outputs": [
        {
          "internalType": "string",
          "name": "",
          "type": "string"
        }
      ],
      "stateMutability": "view",
      "type": "function"
    },
    {
      "inputs": [],
      "name": "totalSupply",
      "outputs": [
        {
          "internalType": "uint256",
          "name": "",
          "type": "uint256"
        }
      ],
      "stateMutability": "view",
      "type": "function"
    },
    {
      "inputs": [
        {
          "internalType": "address",
          "name": "from",
          "type": "address"
        },
        {
          "internalType": "address",
          "name": "to",
          "type": "address"
        },
        {
          "internalType": "uint256",
          "name": "tokenId",
          "type": "uint256"
        }
      ],
      "name": "transferFrom",
      "outputs": [],
      "stateMutability": "payable",
      "type": "function"
    }
  ],
  "transactionHash": "0x6651fbf0ce1790bc9a01c22fe7c80573d62ff8b71f5f86d4917c6161d39b0a3d",
  "args": [],
  "numDeployments": 7,
  "solcInputHash": "ceec884e4f0fd5652164bc56988e9b64",
  "bytecode": "0x608060405234801561001057600080fd5b50613ba2806100206000396000f3fe6080604052600436106101b75760003560e01c80636c0360eb116100ec578063ac9650d81161008a578063cc6261f111610064578063cc6261f114610490578063d304c4bc146104a3578063e985e9c5146104b8578063f4a0a528146104d857600080fd5b8063ac9650d814610430578063b88d4fde1461045d578063c87b56dd1461047057600080fd5b80638e10d554116100c65780638e10d554146103bb578063958944f1146103db57806395d89b41146103fb578063a22cb4651461041057600080fd5b80636c0360eb1461036657806370a082311461037b57806383ccaef71461039b57600080fd5b806323b872dd116101595780634f6ccce7116101335780634f6ccce7146102f157806355f804b3146103115780636352211e146103315780636817c76c1461035157600080fd5b806323b872dd146102ab5780632f745c59146102be57806342842e0e146102de57600080fd5b8063095ea7b311610195578063095ea7b31461024b5780631249c58b1461026057806318160ddd146102685780631fa44f0e1461028b57600080fd5b806301ffc9a7146101bc57806306fdde03146101f1578063081812fc14610213575b600080fd5b3480156101c857600080fd5b506101dc6101d7366004612fbb565b6104f8565b60405190151581526020015b60405180910390f35b3480156101fd57600080fd5b5061020661053b565b6040516101e89190613028565b34801561021f57600080fd5b5061023361022e36600461303b565b61054a565b6040516001600160a01b0390911681526020016101e8565b61025e610259366004613069565b610555565b005b61025e610563565b34801561027457600080fd5b5061027d610666565b6040519081526020016101e8565b34801561029757600080fd5b5061027d6102a6366004613095565b610670565b61025e6102b93660046130b2565b61069b565b3480156102ca57600080fd5b5061027d6102d9366004613069565b6106ab565b61025e6102ec3660046130b2565b6106be565b3480156102fd57600080fd5b5061027d61030c36600461303b565b6106c9565b34801561031d57600080fd5b5061025e61032c366004613192565b6106d4565b34801561033d57600080fd5b5061023361034c36600461303b565b610710565b34801561035d57600080fd5b5061027d61071b565b34801561037257600080fd5b50610206610745565b34801561038757600080fd5b5061027d610396366004613095565b61074f565b3480156103a757600080fd5b5061025e6103b636600461303b565b61075a565b3480156103c757600080fd5b5061025e6103d636600461303b565b61078e565b3480156103e757600080fd5b5061025e6103f63660046131db565b610810565b34801561040757600080fd5b50610206610989565b34801561041c57600080fd5b5061025e61042b36600461328d565b610993565b34801561043c57600080fd5b5061045061044b366004613310565b61099d565b6040516101e89190613352565b61025e61046b3660046133b4565b610ab8565b34801561047c57600080fd5b5061020661048b36600461303b565b610aca565b61025e61049e366004613434565b610ad5565b3480156104af57600080fd5b5061027d610be7565b3480156104c457600080fd5b506101dc6104d33660046134ce565b610c11565b3480156104e457600080fd5b5061025e6104f336600461303b565b610c1d565b6001600160e01b0319811660009081527ffc606c433378e3a7e0a6a531deac289b66caa1b4aa8554fd4ab2c6f1570f92d8602052604081205460ff165b92915050565b6060610545610c51565b905090565b600061053582610cf0565b61055f8282610d53565b5050565b7f09acf4e54214992e70883cf7dcd6957ff2c71cd9e14df4bec4383bc0d11607dc80546002036105a657604051635db5c7cd60e11b815260040160405180910390fd5b600281557f87a01bd38845081b30641ebc639dfadf787bd49017c45985af2341fe932c746554600080516020613b2d8339815191529034146106035760405162461bcd60e51b81526004016105fa906134fc565b60405180910390fd5b33600081815260208390526040812054909161061e90610e56565b610628919061355d565b90508160010154811061064d5760405162461bcd60e51b81526004016105fa90613570565b61065e33610659610ebf565b610ed8565b505060019055565b6000610545610ebf565b6001600160a01b0381166000908152600080516020613b2d8339815191526020526040812054610535565b6106a6838383610ef2565b505050565b60006106b78383610f30565b9392505050565b6106a6838383610f71565b600061053582610f8c565b6107046106ff7ff6deb63e40d71b08820818e006e23fcceb1fce7a499bc15b71b2526cbf9efa725490565b610fa6565b61070d81610fb0565b50565b60006105358261102a565b60006105457f87a01bd38845081b30641ebc639dfadf787bd49017c45985af2341fe932c74655490565b606061054561106e565b600061053582610e56565b6107856106ff7ff6deb63e40d71b08820818e006e23fcceb1fce7a499bc15b71b2526cbf9efa725490565b61070d8161108d565b7f09acf4e54214992e70883cf7dcd6957ff2c71cd9e14df4bec4383bc0d11607dc80546002036107d157604051635db5c7cd60e11b815260040160405180910390fd5b600281556107df3383611100565b60005b82811015610808576107f633610659610ebf565b80610800816135cd565b9150506107e2565b506001905550565b7f09acf4e54214992e70883cf7dcd6957ff2c71cd9e14df4bec4383bc0d11607dc805460020361085357604051635db5c7cd60e11b815260040160405180910390fd5b60028155336000908152600080516020613b2d833981519152602081905260409091205484116108ba5760405162461bcd60e51b8152602060048201526012602482015271105b1b081d1bdad95b9cc818db185a5b595960721b60448201526064016105fa565b6040805133602082015280820186905281518082038301815260609091019091526108e584826112a9565b5033600090815260208390526040812054610900908761355d565b905060005b8181101561092b5761091933610659610ebf565b80610923816135cd565b915050610905565b50336000908152602084905260408120805483929061094b9084906135e6565b9091555050604051819033907fc169c3974ad5176ea41e766768be74079ba8c86a136ed66c5ac85e602782db7d90600090a350506001909155505050565b606061054561135f565b61055f828261137e565b60608167ffffffffffffffff8111156109b8576109b86130f3565b6040519080825280602002602001820160405280156109eb57816020015b60608152602001906001900390816109d65790505b50905060005b82811015610ab15760008030868685818110610a0f57610a0f6135f9565b9050602002810190610a21919061360f565b604051610a2f929190613656565b600060405180830381855af49150503d8060008114610a6a576040519150601f19603f3d011682016040523d82523d6000602084013e610a6f565b606091505b50915091508115610a9d5780848481518110610a8d57610a8d6135f9565b6020026020010181905250610aa7565b3d6000803e3d6000fd5b50506001016109f1565b5092915050565b610ac484848484611432565b50505050565b606061053582611471565b7f09acf4e54214992e70883cf7dcd6957ff2c71cd9e14df4bec4383bc0d11607dc8054600203610b1857604051635db5c7cd60e11b815260040160405180910390fd5b600281557f87a01bd38845081b30641ebc639dfadf787bd49017c45985af2341fe932c746554600080516020613b2d833981519152903414610b6c5760405162461bcd60e51b81526004016105fa906134fc565b336000818152602083905260408120549091610b8790610e56565b610b91919061355d565b905081600101548110610bb65760405162461bcd60e51b81526004016105fa90613570565b6000610bc0610ebf565b9050610bcc3382610ed8565b610bd98189898989611652565b505060019091555050505050565b60006105457f87a01bd38845081b30641ebc639dfadf787bd49017c45985af2341fe932c74645490565b60006106b78383611d1a565b610c486106ff7ff6deb63e40d71b08820818e006e23fcceb1fce7a499bc15b71b2526cbf9efa725490565b61070d81611d67565b6060600080516020613b4d8339815191528054610c6d90613666565b80601f0160208091040260200160405190810160405280929190818152602001828054610c9990613666565b8015610ce65780601f10610cbb57610100808354040283529160200191610ce6565b820191906000526020600020905b815481529060010190602001808311610cc957829003601f168201915b5050505050905090565b6000610cfb82611dda565b610d185760405163c1b843ef60e01b815260040160405180910390fd5b5060009081527f3c7bf052874fa81625121783266a03507bd2cd48b16e571c01a04e8dd3fb07a960205260409020546001600160a01b031690565b610d5e828234611df4565b6000610d698261102a565b9050806001600160a01b0316836001600160a01b031603610d9d5760405163424a22cb60e01b815260040160405180910390fd5b336001600160a01b03821614801590610dbd5750610dbb8133611d1a565b155b15610ddb57604051632f5de44f60e01b815260040160405180910390fd5b60008281527f3c7bf052874fa81625121783266a03507bd2cd48b16e571c01a04e8dd3fb07a9602052604080822080546001600160a01b0319166001600160a01b0387811691821790925591518593918516917f8c5be1e5ebec7d5bd14f71427d1e84f3dd0314c0f7b2291e5b200ac8c7c3b92591a4505050565b60006001600160a01b038216610e7f57604051630810ff9760e41b815260040160405180910390fd5b6001600160a01b03821660009081527f3c7bf052874fa81625121783266a03507bd2cd48b16e571c01a04e8dd3fb07a86020526040902061053590611e1e565b6000610545600080516020613b0d833981519152611e1e565b61055f828260405180602001604052806000815250611e28565b610efe83838334611e5c565b610f083382611e87565b610f2557604051632f5de44f60e01b815260040160405180910390fd5b6106a6838383611f0d565b6001600160a01b03821660009081527f3c7bf052874fa81625121783266a03507bd2cd48b16e571c01a04e8dd3fb07a8602052604081206106b7908361209c565b6106a683838360405180602001604052806000815250611432565b6000610ab1600080516020613b0d833981519152836120a8565b61070d81336120c6565b604051600080516020613b4d8339815191529033907f92bf6a7b8937c17e6781a68d61f9fe6a5ce08604b96ca2206f311049a3a295ea90611014907f99574a7094154bb123ae6ae102096f0bf9679b85a5cd1e727aaa0ae5f132e6b39086906136a0565b60405180910390a2600281016106a68382613785565b600080611045600080516020613b0d83398151915284612128565b90506001600160a01b03811661053557604051637e1a7d8b60e01b815260040160405180910390fd5b6060600080516020613b4d8339815191526002018054610c6d90613666565b7f87a01bd38845081b30641ebc639dfadf787bd49017c45985af2341fe932c74645460408051918252602082018390528051600080516020613b2d8339815191529233927f9a201d4a67373d8576462c238c27108c61b3deec32a932aac079a84cc3b7742c92918290030190a260010155565b6001600160a01b03821660009081527ff38d3885e664c9638de25f02e645e1955ebebe901d7be2c2037db6a5bcbb358960205260409020547ff38d3885e664c9638de25f02e645e1955ebebe901d7be2c2037db6a5bcbb3588908211156111db5760405162461bcd60e51b815260206004820152604360248201527f57686974656c697374496e7465726e616c2e5f636f6e73756d6557686974656c60448201527f6973743a20616d6f756e74206578636565647320656c656769626c6520616d6f6064820152621d5b9d60ea1b608482015260a4016105fa565b6001600160a01b03831660009081526001820160205260408120805484929061120590849061355d565b90915550506001600160a01b038316600090815260208290526040812080548492906112329084906135e6565b90915550506001600160a01b0383166000908152600182016020908152604080832054848352928190205481513381529283018690529082019290925260608101919091527fdb4f4d78cc1c961ddedd2f43596d41d07e607b7517c7106d83f6421215e1f6a79060800160405180910390a1505050565b60008082805190602001206040516020016112c691815260200190565b604051602081830303815290604052805190602001209050611310846113097f7a07c093b55ad04e200605cb287859fe4640b7310d62fdbb044e26399da78c0890565b5483612134565b915081610ab15760405162461bcd60e51b815260206004820152601b60248201527f44617461206e6f7420696e636c7564656420696e206d65726b6c65000000000060448201526064016105fa565b6060600080516020613b4d8339815191526001018054610c6d90613666565b336001600160a01b038316036113a75760405163424a22cb60e01b815260040160405180910390fd5b3360008181527f3c7bf052874fa81625121783266a03507bd2cd48b16e571c01a04e8dd3fb07aa602090815260408083206001600160a01b03871680855290835292819020805460ff191686151590811790915590519081529192917f17307eab39ab6107e8899845ad3d59bd9653f200f220920489ca2b5937696c31910160405180910390a35050565b61143e84848434611e5c565b6114483383611e87565b61146557604051632f5de44f60e01b815260040160405180910390fd5b610ac4848484846121d9565b606061147c82611dda565b61149857604051624705a760e71b815260040160405180910390fd5b60008281527f99574a7094154bb123ae6ae102096f0bf9679b85a5cd1e727aaa0ae5f132e6b4602052604081208054600080516020613b4d8339815191529291906114e290613666565b80601f016020809104026020016040519081016040528092919081815260200182805461150e90613666565b801561155b5780601f106115305761010080835404028352916020019161155b565b820191906000526020600020905b81548152906001019060200180831161153e57829003601f168201915b50505050509050600082600201805461157390613666565b80601f016020809104026020016040519081016040528092919081815260200182805461159f90613666565b80156115ec5780601f106115c1576101008083540402835291602001916115ec565b820191906000526020600020905b8154815290600101906020018083116115cf57829003601f168201915b50505050509050805160000361160457509392505050565b81511561163757808260405160200161161e929190613845565b6040516020818303038152906040529350505050919050565b806116418661220d565b60405160200161161e929190613845565b826116c55760405162461bcd60e51b815260206004820152603c60248201527f496e76656e746f727946616365742e5f657175697042617463683a2053686f7560448201527f6c642073706563696679206174206c65617374206f6e6520736c6f740000000060648201526084016105fa565b82811461173a5760405162461bcd60e51b815260206004820152603660248201527f496e76656e746f727946616365742e5f657175697042617463683a20496e707560448201527f742064617461206c656e677468206d69736d617463680000000000000000000060648201526084016105fa565b7ff672b8dc84d117c1e14949d8bc3977392b5ab7de9d01b854d389cdc31bf0d436805460005b85811015611c5957600087878381811061177c5761177c6135f9565b9050602002013590506000811180156117955750828111155b6117f25760405162461bcd60e51b815260206004820152602860248201527f496e76656e746f727946616365742e5f657175697042617463683a20496e76616044820152671b1a59081cdb1bdd60c21b60648201526084016105fa565b8084600401600088888681811061180b5761180b6135f9565b6118219260206040909202019081019150613095565b6001600160a01b03166001600160a01b031681526020019081526020016000206000888886818110611855576118556135f9565b90506040020160200135815260200190815260200160002054146118e15760405162461bcd60e51b815260206004820152603660248201527f496e76656e746f727946616365742e5f657175697042617463683a204974656d60448201527f206e6f7420656c656769626c6520666f7220736c6f740000000000000000000060648201526084016105fa565b60008686848181106118f5576118f56135f9565b61190b9260206040909202019081019150613095565b90506000816001600160a01b031662fdd58e338a8a88818110611930576119306135f9565b905060400201602001356040518363ffffffff1660e01b815260040161196b9291906001600160a01b03929092168252602082015260400190565b602060405180830381865afa158015611988573d6000803e3d6000fd5b505050506040513d601f19601f820116820180604052508101906119ac9190613874565b11611a21576040805162461bcd60e51b81526020600482015260248101919091527f496e76656e746f727946616365742e5f657175697042617463683a2053656e6460448201527f65722068617320696e73756666696369656e74206974656d2062616c616e636560648201526084016105fa565b60008a8152600386016020908152604080832085845282528083206001808a019093529220015460ff161580611a5f575080546001600160a01b0316155b611adc5760405162461bcd60e51b815260206004820152604260248201527f496e76656e746f727946616365742e5f657175697042617463683a20556e657160448201527f7569707061626c6520736c6f747320616c72656164792068617320616e206974606482015261656d60f01b608482015260a4016105fa565b878785818110611aee57611aee6135f9565b611b049260206040909202019081019150613095565b81546001600160a01b039081169116148015611b3e5750878785818110611b2d57611b2d6135f9565b905060400201602001358160010154145b15611b4b57505050611c47565b611b558b8461230e565b878785818110611b6757611b676135f9565b60008e815260038a016020908152604080832089845290915290819020910292909201919050611b97828261388d565b50506001600160a01b03821663f242432a33308b8b89818110611bbc57611bbc6135f9565b6040805160e088901b6001600160e01b03191681526001600160a01b039687166004820152949095166024850152909302016020013560448201526001606482015260a06084820152600060a482015260c4019050600060405180830381600087803b158015611c2b57600080fd5b505af1158015611c3f573d6000803e3d6000fd5b505050505050505b80611c51816135cd565b915050611760565b50611c6387612432565b611ccd5760405162461bcd60e51b815260206004820152603560248201527f496e76656e746f727946616365742e5f657175697042617463683a2042617365604482015274206974656d7320617265206e6f7420756e6971756560581b60648201526084016105fa565b86336001600160a01b03167f557dc03f902756383ba5a748ab63ec6ec44b2880dba84ad33dc6ffe670f188618888604051611d099291906138c7565b60405180910390a350505050505050565b6001600160a01b0391821660009081527f3c7bf052874fa81625121783266a03507bd2cd48b16e571c01a04e8dd3fb07aa6020908152604080832093909416825291909152205460ff1690565b7f87a01bd38845081b30641ebc639dfadf787bd49017c45985af2341fe932c74655460408051918252602082018390528051600080516020613b2d8339815191529233927fed96032e9c101f4508a9696e8861f06aa3674be1b735fc685aed0efb83db76e992918290030190a260020155565b6000610535600080516020613b0d8339815191528361258b565b8015611e135760405163b56d7c1b60e01b815260040160405180910390fd5b6106a68383836125a3565b6000610535825490565b611e3283836125c2565b611e3f60008484846126b7565b6106a657604051639ff10cdd60e01b815260040160405180910390fd5b8015611e7b576040516322b1813960e01b815260040160405180910390fd5b610ac484848484612788565b6000611e9282611dda565b611eaf5760405163c1b843ef60e01b815260040160405180910390fd5b6000611eba8361102a565b9050806001600160a01b0316846001600160a01b03161480611ef55750836001600160a01b0316611eea84610cf0565b6001600160a01b0316145b80611f055750611f058185611d1a565b949350505050565b6000611f188261102a565b9050836001600160a01b0316816001600160a01b031614611f4c57604051630f2db4ad60e01b815260040160405180910390fd5b6001600160a01b038316611f73576040516340311a0960e01b815260040160405180910390fd5b611f7e8484846127ac565b6001600160a01b03841660009081527f3c7bf052874fa81625121783266a03507bd2cd48b16e571c01a04e8dd3fb07a860205260409020600080516020613b0d83398151915290611fcf90846127c0565b506001600160a01b03841660009081526002820160205260409020611ff490846127cc565b506120008184866127d8565b50600083815260038201602052604080822080546001600160a01b0319169055518491906001600160a01b038516907f8c5be1e5ebec7d5bd14f71427d1e84f3dd0314c0f7b2291e5b200ac8c7c3b925908390a482846001600160a01b0316866001600160a01b03167fddf252ad1be2c89b69c2b068fc378daa952ba7f163c4a11628f55a4df523b3ef60405160405180910390a45050505050565b60006106b783836127ee565b60008080806120b7868661283a565b909450925050505b9250929050565b6120d0828261289d565b61055f576120e6816001600160a01b03166128d4565b6120f18360206128e6565b604051602001612102929190613900565b60408051601f198184030181529082905262461bcd60e51b82526105fa91600401613028565b60006106b78383612a39565b600081815b85518110156121ce576000868281518110612156576121566135f9565b602002602001015190508083116121985760408051602081018590529081018290526060016040516020818303038152906040528051906020012092506121c5565b60408051602081018390529081018490526060016040516020818303038152906040528051906020012092505b50600101612139565b509092149392505050565b6121e4848484611f0d565b6121f0848484846126b7565b610ac457604051639ff10cdd60e01b815260040160405180910390fd5b6060816000036122345750506040805180820190915260018152600360fc1b602082015290565b8160005b811561225e5780612248816135cd565b91506122579050600a8361398b565b9150612238565b60008167ffffffffffffffff811115612279576122796130f3565b6040519080825280601f01601f1916602001820160405280156122a3576020820181803683370190505b5090505b8415611f05576122b860018361355d565b91506122c5600a8661399f565b6122d09060306135e6565b60f81b8183815181106122e5576122e56135f9565b60200101906001600160f81b031916908160001a905350612307600a8661398b565b94506122a7565b60008281527ff672b8dc84d117c1e14949d8bc3977392b5ab7de9d01b854d389cdc31bf0d43960209081526040808320848452909152902080547ff672b8dc84d117c1e14949d8bc3977392b5ab7de9d01b854d389cdc31bf0d43691906001600160a01b0316801561242b57600182810154604051637921219560e11b81523060048201523360248201526044810191909152606481019190915260a06084820152600060a48201526001600160a01b0382169063f242432a9060c401600060405180830381600087803b1580156123e557600080fd5b505af11580156123f9573d6000803e3d6000fd5b50505060008681526003850160209081526040808320888452909152812080546001600160a01b031916815560010155505b5050505050565b60008080527ff672b8dc84d117c1e14949d8bc3977392b5ab7de9d01b854d389cdc31bf0d4386020527ff672b8dc84d117c1e14949d8bc3977392b5ab7de9d01b854d389cdc31bf0d4367f845ff02802177e9909faef63e536d995d5be20fadd26c667f4235942a02dfdd96060836124a983611e1e565b905060005b8181101561252a5760006124c2858361209c565b60008981526003880160209081526040808320848452825291829020805460018201549351949550909361250493899387936001600160a01b031692016139b3565b604051602081830303815290604052945050508080612522906135cd565b9150506124ae565b508151602083012061253f600586018261258b565b6000888152600787016020526040902054901596506125629060058701906127c0565b5061257060058601826127cc565b50600096875260079094016020525050604090932055919050565b600081815260018301602052604081205415156106b7565b80156106a65760405163b56d7c1b60e01b815260040160405180910390fd5b6001600160a01b0382166125e9576040516311f2988d60e11b815260040160405180910390fd5b6125f281611dda565b1561261057604051630d86bb7b60e31b815260040160405180910390fd5b61261c600083836127ac565b6001600160a01b03821660009081527f3c7bf052874fa81625121783266a03507bd2cd48b16e571c01a04e8dd3fb07a860205260409020600080516020613b0d8339815191529061266d90836127cc565b506126798183856127d8565b5060405182906001600160a01b038516906000907fddf252ad1be2c89b69c2b068fc378daa952ba7f163c4a11628f55a4df523b3ef908290a4505050565b60006001600160a01b0384163b6126d057506001611f05565b600061275163150b7a0260e01b338887876040516024016126f494939291906139f4565b604051602081830303815290604052906001600160e01b0319166020820180516001600160e01b038381831617835250505050604051806060016040528060328152602001613adb603291396001600160a01b0388169190612a9d565b90506000818060200190518101906127699190613a30565b6001600160e01b031916630a85bd0160e11b1492505050949350505050565b80156127a7576040516322b1813960e01b815260040160405180910390fd5b610ac4565b6127b581612aac565b6106a6838383612c8c565b60006106b78383612c97565b60006106b78383612d51565b6000611f0584846001600160a01b038516612d94565b815460009082106128125760405163e637bf3b60e01b815260040160405180910390fd5b826000018281548110612827576128276135f9565b9060005260206000200154905092915050565b8154600090819083106128605760405163022fd82760e31b815260040160405180910390fd5b6000846000018481548110612877576128776135f9565b906000526020600020906002020190508060000154816001015492509250509250929050565b60008281527fd3889cc5458b268d0544e5534672df1296288ca3f93cbd39bd6f497a5c622811602052604081206106b79083612e33565b60606105356001600160a01b03831660145b606060006128f5836002613a4d565b6129009060026135e6565b67ffffffffffffffff811115612918576129186130f3565b6040519080825280601f01601f191660200182016040528015612942576020820181803683370190505b509050600360fc1b8160008151811061295d5761295d6135f9565b60200101906001600160f81b031916908160001a905350600f60fb1b8160018151811061298c5761298c6135f9565b60200101906001600160f81b031916908160001a905350600160028402015b6001811115612a19576f181899199a1a9b1b9c1cb0b131b232b360811b85600f16601081106129dc576129dc6135f9565b1a60f81b8282815181106129f2576129f26135f9565b60200101906001600160f81b031916908160001a90535060049490941c93600019016129ab565b5083156106b75760405163c913478560e01b815260040160405180910390fd5b6000818152600183016020526040812054808203612a6a57604051633d547ec560e21b815260040160405180910390fd5b836000016001820381548110612a8257612a826135f9565b90600052602060002090600202016001015491505092915050565b6060611f058484600085612e55565b7ff672b8dc84d117c1e14949d8bc3977392b5ab7de9d01b854d389cdc31bf0d4368054600060015b828111612b4757600081815260018086016020526040909120015460ff16158015612b225750600085815260038501602090815260408083208484529091529020546001600160a01b031615155b15612b355781612b31816135cd565b9250505b80612b3f816135cd565b915050612ad4565b5060008167ffffffffffffffff811115612b6357612b636130f3565b604051908082528060200260200182016040528015612b8c578160200160208202803683370190505b509050600060015b848111612c2f57600081815260018088016020526040909120015460ff16158015612be25750600087815260038701602090815260408083208484529091529020546001600160a01b031615155b15612c1d57612bf1878261230e565b80838381518110612c0457612c046135f9565b602090810291909101015281612c19816135cd565b9250505b80612c27816135cd565b915050612b94565b50815115612c8457612c4086612432565b5085336001600160a01b03167f3822f2cd6d118934e31e6171da74d9d46131fb402be1861b3cb4460440aeab6384604051612c7b9190613a64565b60405180910390a35b505050505050565b6106a6838383612f12565b60008181526001830160205260408120548015610ab157835460009085906000198101908110612cc957612cc96135f9565b9060005260206000200154905080856000016001840381548110612cef57612cef6135f9565b6000918252602080832090910192909255918252600186019052604090208190558354849080612d2157612d21613aa8565b60008281526020808220830160001990810183905590920190925593815260019485019093525050604081205590565b6000818152600183016020526040812054610535575081546001808201845560008481526020808220909301849055845493815293810190915260409092205590565b6000828152600184016020526040812054808203612dfb5750506040805180820182528381526020808201848152865460018181018955600089815284812095516002909302909501918255915190820155865486845281880190925292909120556106b7565b82856000016001830381548110612e1457612e146135f9565b90600052602060002090600202016001018190555060009150506106b7565b6001600160a01b038116600090815260018301602052604081205415156106b7565b6060843b612e7657604051632270d6bf60e21b815260040160405180910390fd5b600080866001600160a01b03168587604051612e929190613abe565b60006040518083038185875af1925050503d8060008114612ecf576040519150601f19603f3d011682016040523d82523d6000602084013e612ed4565b606091505b50915091508115612ee8579150611f059050565b805115612ef85780518082602001fd5b8360405162461bcd60e51b81526004016105fa9190613028565b6106a68383836001600160a01b0382166106a65760008181527f99574a7094154bb123ae6ae102096f0bf9679b85a5cd1e727aaa0ae5f132e6b46020526040902080546106a69190612f6390613666565b6000825580601f10612f73575050565b601f01602090049060005260206000209081019061070d91905b80821115612fa15760008155600101612f8d565b5090565b6001600160e01b03198116811461070d57600080fd5b600060208284031215612fcd57600080fd5b81356106b781612fa5565b60005b83811015612ff3578181015183820152602001612fdb565b50506000910152565b60008151808452613014816020860160208601612fd8565b601f01601f19169290920160200192915050565b6020815260006106b76020830184612ffc565b60006020828403121561304d57600080fd5b5035919050565b6001600160a01b038116811461070d57600080fd5b6000806040838503121561307c57600080fd5b823561308781613054565b946020939093013593505050565b6000602082840312156130a757600080fd5b81356106b781613054565b6000806000606084860312156130c757600080fd5b83356130d281613054565b925060208401356130e281613054565b929592945050506040919091013590565b634e487b7160e01b600052604160045260246000fd5b604051601f8201601f1916810167ffffffffffffffff81118282101715613132576131326130f3565b604052919050565b600067ffffffffffffffff831115613154576131546130f3565b613167601f8401601f1916602001613109565b905082815283838301111561317b57600080fd5b828260208301376000602084830101529392505050565b6000602082840312156131a457600080fd5b813567ffffffffffffffff8111156131bb57600080fd5b8201601f810184136131cc57600080fd5b611f058482356020840161313a565b600080604083850312156131ee57600080fd5b8235915060208084013567ffffffffffffffff8082111561320e57600080fd5b818601915086601f83011261322257600080fd5b813581811115613234576132346130f3565b8060051b9150613245848301613109565b818152918301840191848101908984111561325f57600080fd5b938501935b8385101561327d57843582529385019390850190613264565b8096505050505050509250929050565b600080604083850312156132a057600080fd5b82356132ab81613054565b9150602083013580151581146132c057600080fd5b809150509250929050565b60008083601f8401126132dd57600080fd5b50813567ffffffffffffffff8111156132f557600080fd5b6020830191508360208260051b85010111156120bf57600080fd5b6000806020838503121561332357600080fd5b823567ffffffffffffffff81111561333a57600080fd5b613346858286016132cb565b90969095509350505050565b6000602080830181845280855180835260408601915060408160051b870101925083870160005b828110156133a757603f19888603018452613395858351612ffc565b94509285019290850190600101613379565b5092979650505050505050565b600080600080608085870312156133ca57600080fd5b84356133d581613054565b935060208501356133e581613054565b925060408501359150606085013567ffffffffffffffff81111561340857600080fd5b8501601f8101871361341957600080fd5b6134288782356020840161313a565b91505092959194509250565b6000806000806040858703121561344a57600080fd5b843567ffffffffffffffff8082111561346257600080fd5b61346e888389016132cb565b9096509450602087013591508082111561348757600080fd5b818701915087601f83011261349b57600080fd5b8135818111156134aa57600080fd5b8860208260061b85010111156134bf57600080fd5b95989497505060200194505050565b600080604083850312156134e157600080fd5b82356134ec81613054565b915060208301356132c081613054565b6020808252602b908201527f417263616469616e73496e7465726e616c2e5f6d696e743a20496e76616c696460408201526a081c185e48185b5bdd5b9d60aa1b606082015260800190565b634e487b7160e01b600052601160045260246000fd5b8181038181111561053557610535613547565b6020808252603b908201527f417263616469616e73496e7465726e616c2e5f6d696e743a2055736572206d6160408201527f78696d756d206d696e74656420746f6b656e7320726561636865640000000000606082015260800190565b6000600182016135df576135df613547565b5060010190565b8082018082111561053557610535613547565b634e487b7160e01b600052603260045260246000fd5b6000808335601e1984360301811261362657600080fd5b83018035915067ffffffffffffffff82111561364157600080fd5b6020019150368190038213156120bf57600080fd5b8183823760009101908152919050565b600181811c9082168061367a57607f821691505b60208210810361369a57634e487b7160e01b600052602260045260246000fd5b50919050565b6040815260008084546136b281613666565b80604086015260606001808416600081146136d457600181146136ee5761371f565b60ff1985168884015283151560051b88018301955061371f565b8960005260208060002060005b868110156137165781548b82018701529084019082016136fb565b8a018501975050505b505050505082810360208401526137368185612ffc565b95945050505050565b601f8211156106a657600081815260208120601f850160051c810160208610156137665750805b601f850160051c820191505b81811015612c8457828155600101613772565b815167ffffffffffffffff81111561379f5761379f6130f3565b6137b3816137ad8454613666565b8461373f565b602080601f8311600181146137e857600084156137d05750858301515b600019600386901b1c1916600185901b178555612c84565b600085815260208120601f198616915b82811015613817578886015182559484019460019091019084016137f8565b50858210156138355787850151600019600388901b60f8161c191681555b5050505050600190811b01905550565b60008351613857818460208801612fd8565b83519083019061386b818360208801612fd8565b01949350505050565b60006020828403121561388657600080fd5b5051919050565b813561389881613054565b6001600160a01b0381166bffffffffffffffffffffffff60a01b83541617825550602082013560018201555050565b6020808252810182905260006001600160fb1b038311156138e757600080fd5b8260051b80856040850137919091016040019392505050565b7f416363657373436f6e74726f6c3a206163636f756e7420000000000000000000815260008351613938816017850160208801612fd8565b7001034b99036b4b9b9b4b733903937b6329607d1b6017918401918201528351613969816028840160208801612fd8565b01602801949350505050565b634e487b7160e01b600052601260045260246000fd5b60008261399a5761399a613975565b500490565b6000826139ae576139ae613975565b500690565b600085516139c5818460208a01612fd8565b919091019384525060609190911b6bffffffffffffffffffffffff191660208301526034820152605401919050565b60006001600160a01b03808716835280861660208401525083604083015260806060830152613a266080830184612ffc565b9695505050505050565b600060208284031215613a4257600080fd5b81516106b781612fa5565b808202811582820484141761053557610535613547565b6020808252825182820181905260009190848201906040850190845b81811015613a9c57835183529284019291840191600101613a80565b50909695505050505050565b634e487b7160e01b600052603160045260246000fd5b60008251613ad0818460208701612fd8565b919091019291505056fe4552433732313a207472616e7366657220746f206e6f6e20455243373231526563656976657220696d706c656d656e7465723c7bf052874fa81625121783266a03507bd2cd48b16e571c01a04e8dd3fb07a687a01bd38845081b30641ebc639dfadf787bd49017c45985af2341fe932c746399574a7094154bb123ae6ae102096f0bf9679b85a5cd1e727aaa0ae5f132e6b1a2646970667358221220f8464366675a53b7579a42690cd3f2346d54d9f7d38ca8bd4fb8f4c69b5ea9ab64736f6c63430008130033",
  "devdoc": {
    "details": "ReentrancyGuard and Multicall contracts are used for security and gas efficiency.",
    "kind": "dev",
    "methods": {
      "approve(address,uint256)": {
        "params": {
          "operator": "address to be approved",
          "tokenId": "token to approve"
        }
      },
      "balanceOf(address)": {
        "returns": {
          "_0": "quantity of tokens held"
        }
      },
      "claimMerkle(uint256,bytes32[])": {
        "params": {
          "proof": "Merkle proof to validate if the caller is eligible to claim the amount given",
          "totalAmount": "total amount of arcadians that the caller can claim"
        }
      },
      "claimWhitelist(uint256)": {
        "params": {
          "amount": "amount of tokens to claim"
        }
      },
      "claimedAmountMerkle(address)": {
        "params": {
          "account": "address to check"
        },
        "returns": {
          "_0": "uint amount of tokens claimed by the address"
        }
      },
      "getApproved(uint256)": {
        "params": {
          "tokenId": "token to query"
        },
        "returns": {
          "_0": "address approved to spend token"
        }
      },
      "isApprovedForAll(address,address)": {
        "params": {
          "account": "address to query for approval granted",
          "operator": "address to query for approval received"
        },
        "returns": {
          "_0": "whether operator is approved to spend tokens held by account"
        }
      },
      "maxMintPerUser()": {
        "details": "This function gets the current maximum number of arcadians that a user can mint",
        "returns": {
          "_0": "The current maximum number of arcadians that a user can mint"
        }
      },
      "mintAndEquip(uint256[],(address,uint256)[])": {
        "params": {
          "itemsToEquip": "array of items to equip in the correspondent slot",
          "slotIds": "IDs of the inventory slots to equip"
        }
      },
      "mintPrice()": {
        "returns": {
          "_0": "The current mint price"
        }
      },
      "multicall(bytes[])": {
        "params": {
          "data": "array of function call data payloads"
        },
        "returns": {
          "results": "array of function call results"
        }
      },
      "ownerOf(uint256)": {
        "params": {
          "tokenId": "token to query"
        },
        "returns": {
          "_0": "token owner"
        }
      },
      "safeTransferFrom(address,address,uint256)": {
        "params": {
          "from": "sender of token",
          "to": "receiver of token",
          "tokenId": "token id"
        }
      },
      "safeTransferFrom(address,address,uint256,bytes)": {
        "params": {
          "data": "data payload",
          "from": "sender of token",
          "to": "receiver of token",
          "tokenId": "token id"
        }
      },
      "setApprovalForAll(address,bool)": {
        "params": {
          "operator": "address to be approved",
          "status": "approval status"
        }
      },
      "setBaseURI(string)": {
        "params": {
          "newBaseURI": "The new base URI for all token metadata"
        }
      },
      "setMaxMintPerUser(uint256)": {
        "params": {
          "newMaxMintPerUser": "The new maximum number of arcadians that a user can mint"
        }
      },
      "setMintPrice(uint256)": {
        "params": {
          "newMintPrice": "The new mint price to be set"
        }
      },
      "supportsInterface(bytes4)": {
        "params": {
          "interfaceId": "interface id"
        },
        "returns": {
          "_0": "bool whether interface is supported"
        }
      },
      "tokenByIndex(uint256)": {
        "params": {
          "index": "position in global token list to query"
        },
        "returns": {
          "_0": "id of retrieved token"
        }
      },
      "tokenOfOwnerByIndex(address,uint256)": {
        "params": {
          "index": "position in owner's token list to query",
          "owner": "token holder to query"
        },
        "returns": {
          "_0": "id of retrieved token"
        }
      },
      "tokenURI(uint256)": {
        "params": {
          "tokenId": "ID of the token to query"
        },
        "returns": {
          "_0": "The URI for the given token ID"
        }
      },
      "totalSupply()": {
        "returns": {
          "_0": "total supply"
        }
      },
      "transferFrom(address,address,uint256)": {
        "params": {
          "from": "sender of token",
          "to": "receiver of token",
          "tokenId": "token id"
        }
      }
    },
    "title": "ArcadiansFacet",
    "version": 1
  },
  "userdoc": {
    "kind": "user",
    "methods": {
      "approve(address,uint256)": {
        "notice": "grant approval to given account to spend token"
      },
      "balanceOf(address)": {
        "notice": "query the balance of given address"
      },
      "claimMerkle(uint256,bytes32[])": {
        "notice": "Allow the caller of the transaction to claim the amount of arcadians present in the Merkle tree"
      },
      "claimWhitelist(uint256)": {
        "notice": "Allow caller to claims tokens from the whitelist"
      },
      "claimedAmountMerkle(address)": {
        "notice": "Returns the amount of arcadians claimed by an address through the Merkle tree"
      },
      "getApproved(uint256)": {
        "notice": "get approval status for given token"
      },
      "isApprovedForAll(address,address)": {
        "notice": "query approval status of given operator with respect to given address"
      },
      "mint()": {
        "notice": "Mint a token and transfer it to the caller."
      },
      "mintAndEquip(uint256[],(address,uint256)[])": {
        "notice": "Mint a token and equip it with given items"
      },
      "mintPrice()": {
        "notice": "This function gets the current price to mint an arcadian"
      },
      "multicall(bytes[])": {
        "notice": "batch function calls to the contract and return the results of each"
      },
      "name()": {
        "notice": "inheritdoc IERC721Metadata"
      },
      "ownerOf(uint256)": {
        "notice": "query the owner of given token"
      },
      "safeTransferFrom(address,address,uint256)": {
        "notice": "transfer token between given addresses, checking for ERC721Receiver implementation if applicable"
      },
      "safeTransferFrom(address,address,uint256,bytes)": {
        "notice": "transfer token between given addresses, checking for ERC721Receiver implementation if applicable"
      },
      "setApprovalForAll(address,bool)": {
        "notice": "grant approval to or revoke approval from given account to spend all tokens held by sender"
      },
      "setBaseURI(string)": {
        "notice": "Set the base URI for all Arcadians metadataOnly the manager role can call this function"
      },
      "setMaxMintPerUser(uint256)": {
        "notice": "This function sets the new maximum number of arcadians that a user can mint"
      },
      "setMintPrice(uint256)": {
        "notice": "This function updates the price to mint an arcadian"
      },
      "supportsInterface(bytes4)": {
        "notice": "query whether contract has registered support for given interface"
      },
      "symbol()": {
        "notice": "inheritdoc IERC721Metadata"
      },
      "tokenByIndex(uint256)": {
        "notice": "get token at given internal storage index"
      },
      "tokenOfOwnerByIndex(address,uint256)": {
        "notice": "get token of given owner at given internal storage index"
      },
      "tokenURI(uint256)": {
        "notice": "Returns the URI for a given arcadian"
      },
      "totalSupply()": {
        "notice": "get total token supply"
      },
      "transferFrom(address,address,uint256)": {
        "notice": "transfer token between given addresses, without checking for ERC721Receiver implementation if applicable"
      }
    },
    "notice": "This contract is an ERC721 responsible for minting and claiming Arcadian tokens.",
    "version": 1
  },
  "storageLayout": {
    "storage": [],
    "types": null
  }
}