{
  "address": "0x938567dB56a96f923FaDa69207f5b0cAa1791eF8",
  "abi": [
    {
      "inputs": [],
      "name": "AddressUtils__NotContract",
      "type": "error"
    },
    {
      "inputs": [],
      "name": "Arcadians_InvalidPayAmount",
      "type": "error"
    },
    {
      "inputs": [],
      "name": "Arcadians_MaximumArcadiansSupplyReached",
      "type": "error"
    },
    {
      "inputs": [],
      "name": "Arcadians_MaximumMintedArcadiansPerUserReached",
      "type": "error"
    },
    {
      "inputs": [],
      "name": "Arcadians_NotElegibleToMint",
      "type": "error"
    },
    {
      "inputs": [],
      "name": "ERC165Base__InvalidInterfaceId",
      "type": "error"
    },
    {
      "inputs": [],
      "name": "ERC721Base__BalanceQueryZeroAddress",
      "type": "error"
    },
    {
      "inputs": [],
      "name": "ERC721Base__ERC721ReceiverNotImplemented",
      "type": "error"
    },
    {
      "inputs": [],
      "name": "ERC721Base__InvalidOwner",
      "type": "error"
    },
    {
      "inputs": [],
      "name": "ERC721Base__MintToZeroAddress",
      "type": "error"
    },
    {
      "inputs": [],
      "name": "ERC721Base__NonExistentToken",
      "type": "error"
    },
    {
      "inputs": [],
      "name": "ERC721Base__NotOwnerOrApproved",
      "type": "error"
    },
    {
      "inputs": [],
      "name": "ERC721Base__NotTokenOwner",
      "type": "error"
    },
    {
      "inputs": [],
      "name": "ERC721Base__SelfApproval",
      "type": "error"
    },
    {
      "inputs": [],
      "name": "ERC721Base__TokenAlreadyMinted",
      "type": "error"
    },
    {
      "inputs": [],
      "name": "ERC721Base__TransferToZeroAddress",
      "type": "error"
    },
    {
      "inputs": [],
      "name": "ERC721Metadata__NonExistentToken",
      "type": "error"
    },
    {
      "inputs": [],
      "name": "EnumerableMap__IndexOutOfBounds",
      "type": "error"
    },
    {
      "inputs": [],
      "name": "EnumerableMap__NonExistentKey",
      "type": "error"
    },
    {
      "inputs": [],
      "name": "EnumerableSet__IndexOutOfBounds",
      "type": "error"
    },
    {
      "inputs": [],
      "name": "Inventory_ArcadianNotUnique",
      "type": "error"
    },
    {
      "inputs": [],
      "name": "Inventory_InputDataMismatch",
      "type": "error"
    },
    {
      "inputs": [],
      "name": "Inventory_InsufficientItemBalance",
      "type": "error"
    },
    {
      "inputs": [],
      "name": "Inventory_InvalidERC1155Contract",
      "type": "error"
    },
    {
      "inputs": [],
      "name": "Inventory_InvalidSlotId",
      "type": "error"
    },
    {
      "inputs": [],
      "name": "Inventory_ItemAlreadyAllowedInSlot",
      "type": "error"
    },
    {
      "inputs": [],
      "name": "Inventory_ItemAlreadyDisallowedInSlot",
      "type": "error"
    },
    {
      "inputs": [],
      "name": "Inventory_ItemAlreadyEquippedInSlot",
      "type": "error"
    },
    {
      "inputs": [],
      "name": "Inventory_ItemDoesNotHaveSlotAssigned",
      "type": "error"
    },
    {
      "inputs": [],
      "name": "Inventory_ItemNotSpecified",
      "type": "error"
    },
    {
      "inputs": [],
      "name": "Inventory_NonBaseSlot",
      "type": "error"
    },
    {
      "inputs": [],
      "name": "Inventory_NotAllBaseSlotsEquipped",
      "type": "error"
    },
    {
      "inputs": [],
      "name": "Inventory_NotArcadianOwner",
      "type": "error"
    },
    {
      "inputs": [],
      "name": "Inventory_SlotNotSpecified",
      "type": "error"
    },
    {
      "inputs": [],
      "name": "Inventory_TicketNeededToModifyBaseSlots",
      "type": "error"
    },
    {
      "inputs": [],
      "name": "Inventory_UnequippingBaseSlot",
      "type": "error"
    },
    {
      "inputs": [],
      "name": "Inventory_UnequippingEmptySlot",
      "type": "error"
    },
    {
      "inputs": [],
      "name": "Inventory_UnequippingPermanentSlot",
      "type": "error"
    },
    {
      "inputs": [],
      "name": "ReentrancyGuard__ReentrantCall",
      "type": "error"
    },
    {
      "inputs": [],
      "name": "SolidStateERC721__PayableApproveNotSupported",
      "type": "error"
    },
    {
      "inputs": [],
      "name": "SolidStateERC721__PayableTransferNotSupported",
      "type": "error"
    },
    {
      "inputs": [],
      "name": "UintUtils__InsufficientHexLength",
      "type": "error"
    },
    {
      "inputs": [],
      "name": "Whitelist_ClaimInactive",
      "type": "error"
    },
    {
      "inputs": [],
      "name": "Whitelist_ClaimStateAlreadyUpdated",
      "type": "error"
    },
    {
      "inputs": [],
      "name": "Whitelist_ExceedsElegibleAmount",
      "type": "error"
    },
    {
      "inputs": [],
      "name": "Whitelist_InputDataMismatch",
      "type": "error"
    },
    {
      "anonymous": false,
      "inputs": [
        {
          "indexed": true,
          "internalType": "address",
          "name": "owner",
          "type": "address"
        },
        {
          "indexed": true,
          "internalType": "address",
          "name": "operator",
          "type": "address"
        },
        {
          "indexed": true,
          "internalType": "uint256",
          "name": "tokenId",
          "type": "uint256"
        }
      ],
      "name": "Approval",
      "type": "event"
    },
    {
      "anonymous": false,
      "inputs": [
        {
          "indexed": true,
          "internalType": "address",
          "name": "owner",
          "type": "address"
        },
        {
          "indexed": true,
          "internalType": "address",
          "name": "operator",
          "type": "address"
        },
        {
          "indexed": false,
          "internalType": "bool",
          "name": "approved",
          "type": "bool"
        }
      ],
      "name": "ApprovalForAll",
      "type": "event"
    },
    {
      "anonymous": false,
      "inputs": [
        {
          "indexed": true,
          "internalType": "address",
          "name": "by",
          "type": "address"
        },
        {
          "indexed": false,
          "internalType": "string",
          "name": "oldBaseURI",
          "type": "string"
        },
        {
          "indexed": false,
          "internalType": "string",
          "name": "newBaseURI",
          "type": "string"
        }
      ],
      "name": "BaseURIChanged",
      "type": "event"
    },
    {
      "anonymous": false,
      "inputs": [
        {
          "indexed": true,
          "internalType": "address",
          "name": "by",
          "type": "address"
        },
        {
          "indexed": false,
          "internalType": "uint256",
          "name": "slotId",
          "type": "uint256"
        }
      ],
      "name": "ItemsAllowedInSlotUpdated",
      "type": "event"
    },
    {
      "anonymous": false,
      "inputs": [
        {
          "indexed": true,
          "internalType": "address",
          "name": "by",
          "type": "address"
        },
        {
          "indexed": true,
          "internalType": "uint256",
          "name": "arcadianId",
          "type": "uint256"
        },
        {
          "indexed": false,
          "internalType": "uint256[]",
          "name": "slots",
          "type": "uint256[]"
        }
      ],
      "name": "ItemsEquipped",
      "type": "event"
    },
    {
      "anonymous": false,
      "inputs": [
        {
          "indexed": true,
          "internalType": "address",
          "name": "by",
          "type": "address"
        },
        {
          "indexed": true,
          "internalType": "uint256",
          "name": "arcadianId",
          "type": "uint256"
        },
        {
          "indexed": false,
          "internalType": "uint256[]",
          "name": "slots",
          "type": "uint256[]"
        }
      ],
      "name": "ItemsUnequipped",
      "type": "event"
    },
    {
      "anonymous": false,
      "inputs": [
        {
          "indexed": true,
          "internalType": "address",
          "name": "by",
          "type": "address"
        },
        {
          "indexed": false,
          "internalType": "uint256",
          "name": "oldMaxMintPerUser",
          "type": "uint256"
        },
        {
          "indexed": false,
          "internalType": "uint256",
          "name": "newMaxMintPerUser",
          "type": "uint256"
        }
      ],
      "name": "MaxMintPerUserChanged",
      "type": "event"
    },
    {
      "anonymous": false,
      "inputs": [
        {
          "indexed": true,
          "internalType": "address",
          "name": "by",
          "type": "address"
        },
        {
          "indexed": false,
          "internalType": "uint256",
          "name": "oldMintPrice",
          "type": "uint256"
        },
        {
          "indexed": false,
          "internalType": "uint256",
          "name": "newMintPrice",
          "type": "uint256"
        }
      ],
      "name": "MintPriceChanged",
      "type": "event"
    },
    {
      "anonymous": false,
      "inputs": [
        {
          "indexed": true,
          "internalType": "bytes32",
          "name": "role",
          "type": "bytes32"
        },
        {
          "indexed": true,
          "internalType": "bytes32",
          "name": "previousAdminRole",
          "type": "bytes32"
        },
        {
          "indexed": true,
          "internalType": "bytes32",
          "name": "newAdminRole",
          "type": "bytes32"
        }
      ],
      "name": "RoleAdminChanged",
      "type": "event"
    },
    {
      "anonymous": false,
      "inputs": [
        {
          "indexed": true,
          "internalType": "bytes32",
          "name": "role",
          "type": "bytes32"
        },
        {
          "indexed": true,
          "internalType": "address",
          "name": "account",
          "type": "address"
        },
        {
          "indexed": true,
          "internalType": "address",
          "name": "sender",
          "type": "address"
        }
      ],
      "name": "RoleGranted",
      "type": "event"
    },
    {
      "anonymous": false,
      "inputs": [
        {
          "indexed": true,
          "internalType": "bytes32",
          "name": "role",
          "type": "bytes32"
        },
        {
          "indexed": true,
          "internalType": "address",
          "name": "account",
          "type": "address"
        },
        {
          "indexed": true,
          "internalType": "address",
          "name": "sender",
          "type": "address"
        }
      ],
      "name": "RoleRevoked",
      "type": "event"
    },
    {
      "anonymous": false,
      "inputs": [
        {
          "indexed": true,
          "internalType": "address",
          "name": "by",
          "type": "address"
        },
        {
          "indexed": false,
          "internalType": "uint256",
          "name": "slotId",
          "type": "uint256"
        },
        {
          "indexed": false,
          "internalType": "bool",
          "name": "permanent",
          "type": "bool"
        },
        {
          "indexed": false,
          "internalType": "enum InventoryStorage.SlotCategory",
          "name": "category",
          "type": "uint8"
        }
      ],
      "name": "SlotCreated",
      "type": "event"
    },
    {
      "anonymous": false,
      "inputs": [
        {
          "indexed": true,
          "internalType": "address",
          "name": "from",
          "type": "address"
        },
        {
          "indexed": true,
          "internalType": "address",
          "name": "to",
          "type": "address"
        },
        {
          "indexed": true,
          "internalType": "uint256",
          "name": "tokenId",
          "type": "uint256"
        }
      ],
      "name": "Transfer",
      "type": "event"
    },
    {
      "anonymous": false,
      "inputs": [
        {
          "indexed": false,
          "internalType": "address",
          "name": "account",
          "type": "address"
        },
        {
          "indexed": false,
          "internalType": "enum WhitelistStorage.PoolId",
          "name": "poolId",
          "type": "uint8"
        },
        {
          "indexed": false,
          "internalType": "uint256",
          "name": "totalElegibleAmount",
          "type": "uint256"
        },
        {
          "indexed": false,
          "internalType": "uint256",
          "name": "totalClaimedAmount",
          "type": "uint256"
        }
      ],
      "name": "WhitelistBalanceChanged",
      "type": "event"
    },
    {
      "inputs": [
        {
          "internalType": "address",
          "name": "operator",
          "type": "address"
        },
        {
          "internalType": "uint256",
          "name": "tokenId",
          "type": "uint256"
        }
      ],
      "name": "approve",
      "outputs": [],
      "stateMutability": "payable",
      "type": "function"
    },
    {
      "inputs": [
        {
          "internalType": "address",
          "name": "account",
          "type": "address"
        }
      ],
      "name": "balanceOf",
      "outputs": [
        {
          "internalType": "uint256",
          "name": "",
          "type": "uint256"
        }
      ],
      "stateMutability": "view",
      "type": "function"
    },
    {
      "inputs": [],
      "name": "baseURI",
      "outputs": [
        {
          "internalType": "string",
          "name": "",
          "type": "string"
        }
      ],
      "stateMutability": "view",
      "type": "function"
    },
    {
      "inputs": [],
      "name": "closePublicMint",
      "outputs": [],
      "stateMutability": "nonpayable",
      "type": "function"
    },
    {
      "inputs": [
        {
          "internalType": "uint256",
          "name": "tokenId",
          "type": "uint256"
        }
      ],
      "name": "getApproved",
      "outputs": [
        {
          "internalType": "address",
          "name": "",
          "type": "address"
        }
      ],
      "stateMutability": "view",
      "type": "function"
    },
    {
      "inputs": [
        {
          "internalType": "address",
          "name": "account",
          "type": "address"
        },
        {
          "internalType": "address",
          "name": "operator",
          "type": "address"
        }
      ],
      "name": "isApprovedForAll",
      "outputs": [
        {
          "internalType": "bool",
          "name": "",
          "type": "bool"
        }
      ],
      "stateMutability": "view",
      "type": "function"
    },
    {
      "inputs": [],
      "name": "maxMintPerUser",
      "outputs": [
        {
          "internalType": "uint256",
          "name": "",
          "type": "uint256"
        }
      ],
      "stateMutability": "view",
      "type": "function"
    },
    {
      "inputs": [],
      "name": "maxSupply",
      "outputs": [
        {
          "internalType": "uint256",
          "name": "",
          "type": "uint256"
        }
      ],
      "stateMutability": "pure",
      "type": "function"
    },
    {
      "inputs": [
        {
          "components": [
            {
              "internalType": "address",
              "name": "erc721Contract",
              "type": "address"
            },
            {
              "internalType": "uint256",
              "name": "id",
              "type": "uint256"
            }
          ],
          "internalType": "struct InventoryStorage.Item[]",
          "name": "itemsToEquip",
          "type": "tuple[]"
        }
      ],
      "name": "mintAndEquip",
      "outputs": [],
      "stateMutability": "payable",
      "type": "function"
    },
    {
      "inputs": [],
      "name": "mintPrice",
      "outputs": [
        {
          "internalType": "uint256",
          "name": "",
          "type": "uint256"
        }
      ],
      "stateMutability": "view",
      "type": "function"
    },
    {
      "inputs": [
        {
          "internalType": "bytes[]",
          "name": "data",
          "type": "bytes[]"
        }
      ],
      "name": "multicall",
      "outputs": [
        {
          "internalType": "bytes[]",
          "name": "results",
          "type": "bytes[]"
        }
      ],
      "stateMutability": "nonpayable",
      "type": "function"
    },
    {
      "inputs": [],
      "name": "name",
      "outputs": [
        {
          "internalType": "string",
          "name": "",
          "type": "string"
        }
      ],
      "stateMutability": "view",
      "type": "function"
    },
    {
      "inputs": [],
      "name": "openPublicMint",
      "outputs": [],
      "stateMutability": "nonpayable",
      "type": "function"
    },
    {
      "inputs": [
        {
          "internalType": "uint256",
          "name": "tokenId",
          "type": "uint256"
        }
      ],
      "name": "ownerOf",
      "outputs": [
        {
          "internalType": "address",
          "name": "",
          "type": "address"
        }
      ],
      "stateMutability": "view",
      "type": "function"
    },
    {
      "inputs": [],
      "name": "publicMintOpen",
      "outputs": [
        {
          "internalType": "bool",
          "name": "",
          "type": "bool"
        }
      ],
      "stateMutability": "view",
      "type": "function"
    },
    {
      "inputs": [
        {
          "internalType": "address",
          "name": "from",
          "type": "address"
        },
        {
          "internalType": "address",
          "name": "to",
          "type": "address"
        },
        {
          "internalType": "uint256",
          "name": "tokenId",
          "type": "uint256"
        }
      ],
      "name": "safeTransferFrom",
      "outputs": [],
      "stateMutability": "payable",
      "type": "function"
    },
    {
      "inputs": [
        {
          "internalType": "address",
          "name": "from",
          "type": "address"
        },
        {
          "internalType": "address",
          "name": "to",
          "type": "address"
        },
        {
          "internalType": "uint256",
          "name": "tokenId",
          "type": "uint256"
        },
        {
          "internalType": "bytes",
          "name": "data",
          "type": "bytes"
        }
      ],
      "name": "safeTransferFrom",
      "outputs": [],
      "stateMutability": "payable",
      "type": "function"
    },
    {
      "inputs": [
        {
          "internalType": "address",
          "name": "operator",
          "type": "address"
        },
        {
          "internalType": "bool",
          "name": "status",
          "type": "bool"
        }
      ],
      "name": "setApprovalForAll",
      "outputs": [],
      "stateMutability": "nonpayable",
      "type": "function"
    },
    {
      "inputs": [
        {
          "internalType": "string",
          "name": "newBaseURI",
          "type": "string"
        }
      ],
      "name": "setBaseURI",
      "outputs": [],
      "stateMutability": "nonpayable",
      "type": "function"
    },
    {
      "inputs": [
        {
          "internalType": "uint256",
          "name": "newMaxMintPerUser",
          "type": "uint256"
        }
      ],
      "name": "setMaxMintPerUser",
      "outputs": [],
      "stateMutability": "nonpayable",
      "type": "function"
    },
    {
      "inputs": [
        {
          "internalType": "uint256",
          "name": "newMintPrice",
          "type": "uint256"
        }
      ],
      "name": "setMintPrice",
      "outputs": [],
      "stateMutability": "nonpayable",
      "type": "function"
    },
    {
      "inputs": [
        {
          "internalType": "bytes4",
          "name": "interfaceId",
          "type": "bytes4"
        }
      ],
      "name": "supportsInterface",
      "outputs": [
        {
          "internalType": "bool",
          "name": "",
          "type": "bool"
        }
      ],
      "stateMutability": "view",
      "type": "function"
    },
    {
      "inputs": [],
      "name": "symbol",
      "outputs": [
        {
          "internalType": "string",
          "name": "",
          "type": "string"
        }
      ],
      "stateMutability": "view",
      "type": "function"
    },
    {
      "inputs": [
        {
          "internalType": "uint256",
          "name": "index",
          "type": "uint256"
        }
      ],
      "name": "tokenByIndex",
      "outputs": [
        {
          "internalType": "uint256",
          "name": "",
          "type": "uint256"
        }
      ],
      "stateMutability": "view",
      "type": "function"
    },
    {
      "inputs": [
        {
          "internalType": "address",
          "name": "owner",
          "type": "address"
        },
        {
          "internalType": "uint256",
          "name": "index",
          "type": "uint256"
        }
      ],
      "name": "tokenOfOwnerByIndex",
      "outputs": [
        {
          "internalType": "uint256",
          "name": "",
          "type": "uint256"
        }
      ],
      "stateMutability": "view",
      "type": "function"
    },
    {
      "inputs": [
        {
          "internalType": "uint256",
          "name": "tokenId",
          "type": "uint256"
        }
      ],
      "name": "tokenURI",
      "outputs": [
        {
          "internalType": "string",
          "name": "",
          "type": "string"
        }
      ],
      "stateMutability": "view",
      "type": "function"
    },
    {
      "inputs": [],
      "name": "totalMinted",
      "outputs": [
        {
          "internalType": "uint256",
          "name": "",
          "type": "uint256"
        }
      ],
      "stateMutability": "view",
      "type": "function"
    },
    {
      "inputs": [],
      "name": "totalSupply",
      "outputs": [
        {
          "internalType": "uint256",
          "name": "",
          "type": "uint256"
        }
      ],
      "stateMutability": "view",
      "type": "function"
    },
    {
      "inputs": [
        {
          "internalType": "address",
          "name": "from",
          "type": "address"
        },
        {
          "internalType": "address",
          "name": "to",
          "type": "address"
        },
        {
          "internalType": "uint256",
          "name": "tokenId",
          "type": "uint256"
        }
      ],
      "name": "transferFrom",
      "outputs": [],
      "stateMutability": "payable",
      "type": "function"
    }
  ],
  "transactionHash": "0xefc7f5b74e1fcc9089595cfddc13f4c8cf2ec94636650f15f062b87aca8d5975",
  "args": [],
  "numDeployments": 5,
  "solcInputHash": "3ade1aa40c2e331fece1c2f98aafc02c",
  "bytecode": "0x608060405234801561001057600080fd5b5061381f806100206000396000f3fe6080604052600436106101c25760003560e01c80636817c76c116100f7578063ac9650d811610095578063d304c4bc11610064578063d304c4bc146104a7578063d5abeb01146104bc578063e985e9c5146104d1578063f4a0a528146104f157600080fd5b8063ac9650d814610410578063b88d4fde1461043d578063bcc9ca5b14610450578063c87b56dd1461048757600080fd5b806383ccaef7116100d157806383ccaef7146103bb57806395d89b41146103db578063a22cb465146103f0578063a2309ff81461027e57600080fd5b80636817c76c146103715780636c0360eb1461038657806370a082311461039b57600080fd5b80632f745c59116101645780634f6ccce71161013e5780634f6ccce7146102fc578063557d694c1461031c57806355f804b3146103315780636352211e1461035157600080fd5b80632f745c59146102b457806342842e0e146102d457806345f7e06e146102e757600080fd5b8063095ea7b3116101a0578063095ea7b3146102565780630a0678991461026b57806318160ddd1461027e57806323b872dd146102a157600080fd5b806301ffc9a7146101c757806306fdde03146101fc578063081812fc1461021e575b600080fd5b3480156101d357600080fd5b506101e76101e2366004612d8c565b610511565b60405190151581526020015b60405180910390f35b34801561020857600080fd5b50610211610554565b6040516101f39190612df9565b34801561022a57600080fd5b5061023e610239366004612e0c565b610563565b6040516001600160a01b0390911681526020016101f3565b610269610264366004612e3a565b61056e565b005b610269610279366004612e66565b61057c565b34801561028a57600080fd5b506102936105e5565b6040519081526020016101f3565b6102696102af366004612edb565b6105ef565b3480156102c057600080fd5b506102936102cf366004612e3a565b6105ff565b6102696102e2366004612edb565b610612565b3480156102f357600080fd5b5061026961061d565b34801561030857600080fd5b50610293610317366004612e0c565b61065b565b34801561032857600080fd5b50610269610666565b34801561033d57600080fd5b5061026961034c366004612fa8565b61069c565b34801561035d57600080fd5b5061023e61036c366004612e0c565b6106b3565b34801561037d57600080fd5b506102936106be565b34801561039257600080fd5b506102116106e8565b3480156103a757600080fd5b506102936103b6366004612ff1565b6106f2565b3480156103c757600080fd5b506102696103d6366004612e0c565b6106fd565b3480156103e757600080fd5b50610211610711565b3480156103fc57600080fd5b5061026961040b36600461300e565b61071b565b34801561041c57600080fd5b5061043061042b36600461304c565b610725565b6040516101f391906130af565b61026961044b366004613111565b610840565b34801561045c57600080fd5b507f87a01bd38845081b30641ebc639dfadf787bd49017c45985af2341fe932c74655460ff166101e7565b34801561049357600080fd5b506102116104a2366004612e0c565b610852565b3480156104b357600080fd5b5061029361085d565b3480156104c857600080fd5b50611a0a610293565b3480156104dd57600080fd5b506101e76104ec366004613191565b610867565b3480156104fd57600080fd5b5061026961050c366004612e0c565b610873565b6001600160e01b0319811660009081527ffc606c433378e3a7e0a6a531deac289b66caa1b4aa8554fd4ab2c6f1570f92d8602052604081205460ff165b92915050565b606061055e610887565b905090565b600061054e82610926565b6105788282610989565b5050565b7f09acf4e54214992e70883cf7dcd6957ff2c71cd9e14df4bec4383bc0d11607dc80546002036105bf57604051635db5c7cd60e11b815260040160405180910390fd5b6002815560006105cd610a8c565b90506105dc8185856001610c4e565b50600190555050565b600061055e610e99565b6105fa838383610eb2565b505050565b600061060b8383610ef0565b9392505050565b6105fa838383610f31565b61062d610628610f4c565b610f76565b7f87a01bd38845081b30641ebc639dfadf787bd49017c45985af2341fe932c7465805460ff19166001179055565b600061054e82610f80565b610671610628610f4c565b7f87a01bd38845081b30641ebc639dfadf787bd49017c45985af2341fe932c7465805460ff19169055565b6106a7610628610f4c565b6106b081610f9a565b50565b600061054e82611014565b600061055e7f87a01bd38845081b30641ebc639dfadf787bd49017c45985af2341fe932c74645490565b606061055e611058565b600061054e82611077565b610708610628610f4c565b6106b0816110e0565b606061055e611141565b6105788282611160565b60608167ffffffffffffffff81111561074057610740612f1c565b60405190808252806020026020018201604052801561077357816020015b606081526020019060019003908161075e5790505b50905060005b828110156108395760008030868685818110610797576107976131bf565b90506020028101906107a991906131d5565b6040516107b792919061321c565b600060405180830381855af49150503d80600081146107f2576040519150601f19603f3d011682016040523d82523d6000602084013e6107f7565b606091505b509150915081156108255780848481518110610815576108156131bf565b602002602001018190525061082f565b3d6000803e3d6000fd5b5050600101610779565b5092915050565b61084c84848484611214565b50505050565b606061054e82611253565b600061055e611434565b600061060b838361145c565b61087e610628610f4c565b6106b0816114a9565b60606000805160206137aa83398151915280546108a39061322c565b80601f01602080910402602001604051908101604052809291908181526020018280546108cf9061322c565b801561091c5780601f106108f15761010080835404028352916020019161091c565b820191906000526020600020905b8154815290600101906020018083116108ff57829003601f168201915b5050505050905090565b60006109318261152e565b61094e5760405163c1b843ef60e01b815260040160405180910390fd5b5060009081527f3c7bf052874fa81625121783266a03507bd2cd48b16e571c01a04e8dd3fb07a960205260409020546001600160a01b031690565b610994828234611548565b600061099f82611014565b9050806001600160a01b0316836001600160a01b0316036109d35760405163424a22cb60e01b815260040160405180910390fd5b336001600160a01b038216148015906109f357506109f1813361145c565b155b15610a1157604051632f5de44f60e01b815260040160405180910390fd5b60008281527f3c7bf052874fa81625121783266a03507bd2cd48b16e571c01a04e8dd3fb07a9602052604080822080546001600160a01b0319166001600160a01b0387811691821790925591518593918516917f8c5be1e5ebec7d5bd14f71427d1e84f3dd0314c0f7b2291e5b200ac8c7c3b92591a4505050565b6000610a96611572565b90507f87a01bd38845081b30641ebc639dfadf787bd49017c45985af2341fe932c7463610ac36000611587565b8015610ad957506000610ad76000336115ec565b115b15610af057610aeb6000336001611671565b610c40565b610afa6001611587565b8015610b1057506000610b0e6001336115ec565b115b15610b8f57610b226001336001611671565b611a0a821115610b45576040516320df598b60e21b815260040160405180910390fd5b6000610b526000336119db565b610b5b33611077565b610b65919061327c565b82549091508110610b895760405163768674b960e01b815260040160405180910390fd5b50610c40565b600281015460ff1615610c2757611a0a821115610bbf576040516320df598b60e21b815260040160405180910390fd5b6000610bcc6000336119db565b610bd533611077565b610bdf919061327c565b82549091508110610c035760405163768674b960e01b815260040160405180910390fd5b81600101543414610b895760405163104bb3ad60e11b815260040160405180910390fd5b604051630e64914f60e31b815260040160405180910390fd5b610c4a3383611a52565b5090565b6040516331a9108f60e11b815260048101859052849030908190636352211e90602401602060405180830381865afa158015610c8e573d6000803e3d6000fd5b505050506040513d601f19601f82011682018060405250810190610cb2919061328f565b6001600160a01b0316336001600160a01b031614610ce35760405163aee05b5d60e01b815260040160405180910390fd5b6000849003610d055760405163627652c960e11b815260040160405180910390fd5b6000805160206137ca8339815191526000808667ffffffffffffffff811115610d3057610d30612f1c565b604051908082528060200260200182016040528015610d59578160200160208202803683370190505b50905060005b87811015610df5576000610d8b8b8b8b85818110610d7f57610d7f6131bf565b9050604002018a611a6c565b90508380610dc2575060008181526001868101602052604082200154610100900460ff166002811115610dc057610dc06132ac565b145b935080838381518110610dd757610dd76131bf565b60209081029190910101525080610ded816132c2565b915050610d5f565b50610dff89611dee565b610e1c5760405163a9614f1560e01b815260040160405180910390fd5b818015610e2f5750610e2d89611ebb565b155b15610e4c5760405162ecf30560e51b815260040160405180910390fd5b88336001600160a01b03167f557dc03f902756383ba5a748ab63ec6ec44b2880dba84ad33dc6ffe670f1886183604051610e8691906132db565b60405180910390a3505050505050505050565b600061055e60008051602061378a83398151915261200b565b610ebe83838334612015565b610ec83382612040565b610ee557604051632f5de44f60e01b815260040160405180910390fd5b6105fa8383836120c6565b6001600160a01b03821660009081527f3c7bf052874fa81625121783266a03507bd2cd48b16e571c01a04e8dd3fb07a86020526040812061060b9083612255565b6105fa83838360405180602001604052806000815250611214565b60007ff6deb63e40d71b08820818e006e23fcceb1fce7a499bc15b71b2526cbf9efa725b54919050565b6106b08133612261565b600061083960008051602061378a833981519152836122cc565b6040516000805160206137aa8339815191529033907f92bf6a7b8937c17e6781a68d61f9fe6a5ce08604b96ca2206f311049a3a295ea90610ffe907f99574a7094154bb123ae6ae102096f0bf9679b85a5cd1e727aaa0ae5f132e6b390869061331f565b60405180910390a2600281016105fa838261340c565b60008061102f60008051602061378a833981519152846122ea565b90506001600160a01b03811661054e57604051637e1a7d8b60e01b815260040160405180910390fd5b60606000805160206137aa83398151915260020180546108a39061322c565b60006001600160a01b0382166110a057604051630810ff9760e41b815260040160405180910390fd5b6001600160a01b03821660009081527f3c7bf052874fa81625121783266a03507bd2cd48b16e571c01a04e8dd3fb07a86020526040902061054e9061200b565b7f87a01bd38845081b30641ebc639dfadf787bd49017c45985af2341fe932c746380546040805191825260208201849052805133927f9a201d4a67373d8576462c238c27108c61b3deec32a932aac079a84cc3b7742c92908290030190a255565b60606000805160206137aa83398151915260010180546108a39061322c565b336001600160a01b038316036111895760405163424a22cb60e01b815260040160405180910390fd5b3360008181527f3c7bf052874fa81625121783266a03507bd2cd48b16e571c01a04e8dd3fb07aa602090815260408083206001600160a01b03871680855290835292819020805460ff191686151590811790915590519081529192917f17307eab39ab6107e8899845ad3d59bd9653f200f220920489ca2b5937696c31910160405180910390a35050565b61122084848434612015565b61122a3383612040565b61124757604051632f5de44f60e01b815260040160405180910390fd5b61084c848484846122f6565b606061125e8261152e565b61127a57604051624705a760e71b815260040160405180910390fd5b60008281527f99574a7094154bb123ae6ae102096f0bf9679b85a5cd1e727aaa0ae5f132e6b46020526040812080546000805160206137aa8339815191529291906112c49061322c565b80601f01602080910402602001604051908101604052809291908181526020018280546112f09061322c565b801561133d5780601f106113125761010080835404028352916020019161133d565b820191906000526020600020905b81548152906001019060200180831161132057829003601f168201915b5050505050905060008260020180546113559061322c565b80601f01602080910402602001604051908101604052809291908181526020018280546113819061322c565b80156113ce5780601f106113a3576101008083540402835291602001916113ce565b820191906000526020600020905b8154815290600101906020018083116113b157829003601f168201915b5050505050905080516000036113e657509392505050565b8151156114195780826040516020016114009291906134cc565b6040516020818303038152906040529350505050919050565b806114238661232a565b6040516020016114009291906134cc565b60007f87a01bd38845081b30641ebc639dfadf787bd49017c45985af2341fe932c7463610f70565b6001600160a01b0391821660009081527f3c7bf052874fa81625121783266a03507bd2cd48b16e571c01a04e8dd3fb07aa6020908152604080832093909416825291909152205460ff1690565b7f87a01bd38845081b30641ebc639dfadf787bd49017c45985af2341fe932c746454604080519182526020820183905280517f87a01bd38845081b30641ebc639dfadf787bd49017c45985af2341fe932c74639233927fed96032e9c101f4508a9696e8861f06aa3674be1b735fc685aed0efb83db76e992918290030190a260010155565b600061054e60008051602061378a8339815191528361242b565b80156115675760405163b56d7c1b60e01b815260040160405180910390fd5b6105fa838383612443565b600061157c610e99565b61055e9060016134fb565b60007ff38d3885e664c9638de25f02e645e1955ebebe901d7be2c2037db6a5bcbb358860008360018111156115be576115be6132ac565b60018111156115cf576115cf6132ac565b815260208101919091526040016000206004015460ff1692915050565b60007ff38d3885e664c9638de25f02e645e1955ebebe901d7be2c2037db6a5bcbb35886000846001811115611623576116236132ac565b6001811115611634576116346132ac565b81526020019081526020016000206001016000836001600160a01b03166001600160a01b0316815260200190815260200160002054905092915050565b7ff38d3885e664c9638de25f02e645e1955ebebe901d7be2c2037db6a5bcbb35888060008560018111156116a7576116a76132ac565b60018111156116b8576116b86132ac565b815260208101919091526040016000206004015460ff166116ec57604051633137c0e960e11b815260040160405180910390fd5b81816000866001811115611702576117026132ac565b6001811115611713576117136132ac565b81526020019081526020016000206001016000856001600160a01b03166001600160a01b0316815260200190815260200160002054101561176757604051630f8a2c5f60e31b815260040160405180910390fd5b8181600086600181111561177d5761177d6132ac565b600181111561178e5761178e6132ac565b81526020019081526020016000206001016000856001600160a01b03166001600160a01b0316815260200190815260200160002060008282546117d1919061327c565b909155508290508160008660018111156117ed576117ed6132ac565b60018111156117fe576117fe6132ac565b81526020019081526020016000206000016000856001600160a01b03166001600160a01b03168152602001908152602001600020600082825461184191906134fb565b9091555082905081600086600181111561185d5761185d6132ac565b600181111561186e5761186e6132ac565b8152602001908152602001600020600201600082825461188e91906134fb565b909155508290508160008660018111156118aa576118aa6132ac565b60018111156118bb576118bb6132ac565b815260200190815260200160002060030160008282546118db919061327c565b909155507f6526db8cb857c3bc972db45a7984e99efaed17f7a4e51afb85c64450133cb55c90508385836000826001811115611919576119196132ac565b600181111561192a5761192a6132ac565b81526020019081526020016000206001016000876001600160a01b03166001600160a01b0316815260200190815260200160002054846000016000896001811115611977576119776132ac565b6001811115611988576119886132ac565b81526020019081526020016000206000016000886001600160a01b03166001600160a01b03168152602001908152602001600020546040516119cd949392919061350e565b60405180910390a150505050565b60007ff38d3885e664c9638de25f02e645e1955ebebe901d7be2c2037db6a5bcbb35886000846001811115611a1257611a126132ac565b6001811115611a2357611a236132ac565b8152602080820192909252604090810160009081206001600160a01b0386168252909252902054905092915050565b610578828260405180602001604052806000815250612462565b60006000805160206137ca8339815191527ff672b8dc84d117c1e14949d8bc3977392b5ab7de9d01b854d389cdc31bf0d43a82611aac6020870187612ff1565b6001600160a01b03168152602080820192909252604090810160009081208784013582529092529020549150811580611af357506000805160206137ca8339815191525482115b15611b11576040516363efa0e360e01b815260040160405180910390fd5b82158015611b48575060008281526001828101602052604082200154610100900460ff166002811115611b4657611b466132ac565b145b15611bb957336000908152600982016020908152604080832085845290915290205460011115611b8b5760405163d5bdfa5960e01b815260040160405180910390fd5b33600090815260098201602090815260408083208584529091528120805491611bb383613557565b91905055505b60008581526003820160209081526040808320858452825280832060018086019093529220015460ff168015611bf8575080546001600160a01b031615155b15611c165760405163bd8a5e1560e01b815260040160405180910390fd5b611c236020860186612ff1565b81546001600160a01b039081169116148015611c46575084602001358160010154145b15611c645760405163c80df0cb60e01b815260040160405180910390fd5b600086815260038301602090815260408083208684529091529020546001600160a01b031615611c9857611c988684612496565b6000611ca76020870187612ff1565b604051627eeac760e11b8152336004820152602088013560248201529091506001906001600160a01b0383169062fdd58e90604401602060405180830381865afa158015611cf9573d6000803e3d6000fd5b505050506040513d601f19601f82011682018060405250810190611d1d919061356e565b1015611d3c576040516335ba250d60e11b815260040160405180910390fd5b604051637921219560e11b8152336004820152306024820152602087013560448201526001606482015260a06084820152600060a48201526001600160a01b0382169063f242432a9060c401600060405180830381600087803b158015611da257600080fd5b505af1158015611db6573d6000803e3d6000fd5b505050600088815260038501602090815260408083208884529091529020879150611de18282613587565b9050505050509392505050565b60008080527ff672b8dc84d117c1e14949d8bc3977392b5ab7de9d01b854d389cdc31bf0d4386020526000805160206137ca8339815191527f845ff02802177e9909faef63e536d995d5be20fadd26c667f4235942a02dfdd9825b611e528261200b565b811015611eb0576000858152600384016020526040812081611e748585612255565b81526020810191909152604001600020546001600160a01b031603611e9e57506000949350505050565b80611ea8816132c2565b915050611e49565b506001949350505050565b60008080527ff672b8dc84d117c1e14949d8bc3977392b5ab7de9d01b854d389cdc31bf0d4386020526000805160206137ca8339815191527f845ff02802177e9909faef63e536d995d5be20fadd26c667f4235942a02dfdd9606083611f208361200b565b905060005b81811015611fa1576000611f398583612255565b600089815260038801602090815260408083208484528252918290208054600182015493519495509093611f7b93899387936001600160a01b031692016135c1565b604051602081830303815290604052945050508080611f99906132c2565b915050611f25565b5081516020830120611fb6600686018261242b565b1580611fc0575081155b6000888152600887016020526040902054909650611fe290600687019061257b565b50611ff06006860182612587565b50600096875260089094016020525050604090932055919050565b600061054e825490565b8015612034576040516322b1813960e01b815260040160405180910390fd5b61084c84848484612593565b600061204b8261152e565b6120685760405163c1b843ef60e01b815260040160405180910390fd5b600061207383611014565b9050806001600160a01b0316846001600160a01b031614806120ae5750836001600160a01b03166120a384610926565b6001600160a01b0316145b806120be57506120be818561145c565b949350505050565b60006120d182611014565b9050836001600160a01b0316816001600160a01b03161461210557604051630f2db4ad60e01b815260040160405180910390fd5b6001600160a01b03831661212c576040516340311a0960e01b815260040160405180910390fd5b6121378484846125b7565b6001600160a01b03841660009081527f3c7bf052874fa81625121783266a03507bd2cd48b16e571c01a04e8dd3fb07a86020526040902060008051602061378a83398151915290612188908461257b565b506001600160a01b038416600090815260028201602052604090206121ad9084612587565b506121b98184866125c2565b50600083815260038201602052604080822080546001600160a01b0319169055518491906001600160a01b038516907f8c5be1e5ebec7d5bd14f71427d1e84f3dd0314c0f7b2291e5b200ac8c7c3b925908390a482846001600160a01b0316866001600160a01b03167fddf252ad1be2c89b69c2b068fc378daa952ba7f163c4a11628f55a4df523b3ef60405160405180910390a45050505050565b600061060b83836125d8565b61226b8282612624565b61057857612281816001600160a01b031661265b565b61228c83602061266d565b60405160200161229d929190613602565b60408051601f198184030181529082905262461bcd60e51b82526122c391600401612df9565b60405180910390fd5b60008080806122db86866127c0565b909450925050505b9250929050565b600061060b8383612823565b6123018484846120c6565b61230d84848484612887565b61084c57604051639ff10cdd60e01b815260040160405180910390fd5b6060816000036123515750506040805180820190915260018152600360fc1b602082015290565b8160005b811561237b5780612365816132c2565b91506123749050600a8361368d565b9150612355565b60008167ffffffffffffffff81111561239657612396612f1c565b6040519080825280601f01601f1916602001820160405280156123c0576020820181803683370190505b5090505b84156120be576123d560018361327c565b91506123e2600a866136a1565b6123ed9060306134fb565b60f81b818381518110612402576124026131bf565b60200101906001600160f81b031916908160001a905350612424600a8661368d565b94506123c4565b6000818152600183016020526040812054151561060b565b80156105fa5760405163b56d7c1b60e01b815260040160405180910390fd5b61246c8383612958565b6124796000848484612887565b6105fa57604051639ff10cdd60e01b815260040160405180910390fd5b60006000805160206137ca8339815191526000848152600382016020908152604080832086845290915280822080546001808301549351637921219560e11b81523060048201523360248201526044810194909452606484015260a0608484015260a48301939093529293506001600160a01b0390911690819063f242432a9060c401600060405180830381600087803b15801561253357600080fd5b505af1158015612547573d6000803e3d6000fd5b505050600095865250505060030160209081526040808420928452919052812080546001600160a01b031916815560010155565b600061060b8383612a4d565b600061060b8383612b07565b80156125b2576040516322b1813960e01b815260040160405180910390fd5b61084c565b6105fa838383612b4a565b60006120be84846001600160a01b038516612b55565b815460009082106125fc5760405163e637bf3b60e01b815260040160405180910390fd5b826000018281548110612611576126116131bf565b9060005260206000200154905092915050565b60008281527fd3889cc5458b268d0544e5534672df1296288ca3f93cbd39bd6f497a5c6228116020526040812061060b9083612bf4565b606061054e6001600160a01b03831660145b6060600061267c8360026136b5565b6126879060026134fb565b67ffffffffffffffff81111561269f5761269f612f1c565b6040519080825280601f01601f1916602001820160405280156126c9576020820181803683370190505b509050600360fc1b816000815181106126e4576126e46131bf565b60200101906001600160f81b031916908160001a905350600f60fb1b81600181518110612713576127136131bf565b60200101906001600160f81b031916908160001a905350600160028402015b60018111156127a0576f181899199a1a9b1b9c1cb0b131b232b360811b85600f1660108110612763576127636131bf565b1a60f81b828281518110612779576127796131bf565b60200101906001600160f81b031916908160001a90535060049490941c9360001901612732565b50831561060b5760405163c913478560e01b815260040160405180910390fd5b8154600090819083106127e65760405163022fd82760e31b815260040160405180910390fd5b60008460000184815481106127fd576127fd6131bf565b906000526020600020906002020190508060000154816001015492509250509250929050565b600081815260018301602052604081205480820361285457604051633d547ec560e21b815260040160405180910390fd5b83600001600182038154811061286c5761286c6131bf565b90600052602060002090600202016001015491505092915050565b60006001600160a01b0384163b6128a0575060016120be565b600061292163150b7a0260e01b338887876040516024016128c494939291906136cc565b604051602081830303815290604052906001600160e01b0319166020820180516001600160e01b038381831617835250505050604051806060016040528060328152602001613758603291396001600160a01b0388169190612c16565b90506000818060200190518101906129399190613708565b6001600160e01b031916630a85bd0160e11b1492505050949350505050565b6001600160a01b03821661297f576040516311f2988d60e11b815260040160405180910390fd5b6129888161152e565b156129a657604051630d86bb7b60e31b815260040160405180910390fd5b6129b2600083836125b7565b6001600160a01b03821660009081527f3c7bf052874fa81625121783266a03507bd2cd48b16e571c01a04e8dd3fb07a86020526040902060008051602061378a83398151915290612a039083612587565b50612a0f8183856125c2565b5060405182906001600160a01b038516906000907fddf252ad1be2c89b69c2b068fc378daa952ba7f163c4a11628f55a4df523b3ef908290a4505050565b6000818152600183016020526040812054801561083957835460009085906000198101908110612a7f57612a7f6131bf565b9060005260206000200154905080856000016001840381548110612aa557612aa56131bf565b6000918252602080832090910192909255918252600186019052604090208190558354849080612ad757612ad7613725565b60008281526020808220830160001990810183905590920190925593815260019485019093525050604081205590565b600081815260018301602052604081205461054e575081546001808201845560008481526020808220909301849055845493815293810190915260409092205590565b6105fa838383612c25565b6000828152600184016020526040812054808203612bbc57505060408051808201825283815260208082018481528654600181810189556000898152848120955160029093029095019182559151908201558654868452818801909252929091205561060b565b82856000016001830381548110612bd557612bd56131bf565b906000526020600020906002020160010181905550600091505061060b565b6001600160a01b0381166000908152600183016020526040812054151561060b565b60606120be8484600085612c30565b6105fa838383612ced565b6060843b612c5157604051632270d6bf60e21b815260040160405180910390fd5b600080866001600160a01b03168587604051612c6d919061373b565b60006040518083038185875af1925050503d8060008114612caa576040519150601f19603f3d011682016040523d82523d6000602084013e612caf565b606091505b50915091508115612cc35791506120be9050565b805115612cd35780518082602001fd5b8360405162461bcd60e51b81526004016122c39190612df9565b6001600160a01b0382166105fa5760008181527f99574a7094154bb123ae6ae102096f0bf9679b85a5cd1e727aaa0ae5f132e6b46020526040902080546105fa9190612d389061322c565b6000825580601f10612d48575050565b601f0160209004906000526020600020908101906106b091905b80821115610c4a5760008155600101612d62565b6001600160e01b0319811681146106b057600080fd5b600060208284031215612d9e57600080fd5b813561060b81612d76565b60005b83811015612dc4578181015183820152602001612dac565b50506000910152565b60008151808452612de5816020860160208601612da9565b601f01601f19169290920160200192915050565b60208152600061060b6020830184612dcd565b600060208284031215612e1e57600080fd5b5035919050565b6001600160a01b03811681146106b057600080fd5b60008060408385031215612e4d57600080fd5b8235612e5881612e25565b946020939093013593505050565b60008060208385031215612e7957600080fd5b823567ffffffffffffffff80821115612e9157600080fd5b818501915085601f830112612ea557600080fd5b813581811115612eb457600080fd5b8660208260061b8501011115612ec957600080fd5b60209290920196919550909350505050565b600080600060608486031215612ef057600080fd5b8335612efb81612e25565b92506020840135612f0b81612e25565b929592945050506040919091013590565b634e487b7160e01b600052604160045260246000fd5b600067ffffffffffffffff80841115612f4d57612f4d612f1c565b604051601f8501601f19908116603f01168101908282118183101715612f7557612f75612f1c565b81604052809350858152868686011115612f8e57600080fd5b858560208301376000602087830101525050509392505050565b600060208284031215612fba57600080fd5b813567ffffffffffffffff811115612fd157600080fd5b8201601f81018413612fe257600080fd5b6120be84823560208401612f32565b60006020828403121561300357600080fd5b813561060b81612e25565b6000806040838503121561302157600080fd5b823561302c81612e25565b91506020830135801515811461304157600080fd5b809150509250929050565b6000806020838503121561305f57600080fd5b823567ffffffffffffffff8082111561307757600080fd5b818501915085601f83011261308b57600080fd5b81358181111561309a57600080fd5b8660208260051b8501011115612ec957600080fd5b6000602080830181845280855180835260408601915060408160051b870101925083870160005b8281101561310457603f198886030184526130f2858351612dcd565b945092850192908501906001016130d6565b5092979650505050505050565b6000806000806080858703121561312757600080fd5b843561313281612e25565b9350602085013561314281612e25565b925060408501359150606085013567ffffffffffffffff81111561316557600080fd5b8501601f8101871361317657600080fd5b61318587823560208401612f32565b91505092959194509250565b600080604083850312156131a457600080fd5b82356131af81612e25565b9150602083013561304181612e25565b634e487b7160e01b600052603260045260246000fd5b6000808335601e198436030181126131ec57600080fd5b83018035915067ffffffffffffffff82111561320757600080fd5b6020019150368190038213156122e357600080fd5b8183823760009101908152919050565b600181811c9082168061324057607f821691505b60208210810361326057634e487b7160e01b600052602260045260246000fd5b50919050565b634e487b7160e01b600052601160045260246000fd5b8181038181111561054e5761054e613266565b6000602082840312156132a157600080fd5b815161060b81612e25565b634e487b7160e01b600052602160045260246000fd5b6000600182016132d4576132d4613266565b5060010190565b6020808252825182820181905260009190848201906040850190845b81811015613313578351835292840192918401916001016132f7565b50909695505050505050565b6040815260008084546133318161322c565b8060408601526060600180841660008114613353576001811461336d5761339e565b60ff1985168884015283151560051b88018301955061339e565b8960005260208060002060005b868110156133955781548b820187015290840190820161337a565b8a018501975050505b505050505082810360208401526133b58185612dcd565b95945050505050565b601f8211156105fa57600081815260208120601f850160051c810160208610156133e55750805b601f850160051c820191505b81811015613404578281556001016133f1565b505050505050565b815167ffffffffffffffff81111561342657613426612f1c565b61343a81613434845461322c565b846133be565b602080601f83116001811461346f57600084156134575750858301515b600019600386901b1c1916600185901b178555613404565b600085815260208120601f198616915b8281101561349e5788860151825594840194600190910190840161347f565b50858210156134bc5787850151600019600388901b60f8161c191681555b5050505050600190811b01905550565b600083516134de818460208801612da9565b8351908301906134f2818360208801612da9565b01949350505050565b8082018082111561054e5761054e613266565b6001600160a01b0385168152608081016002851061353c57634e487b7160e01b600052602160045260246000fd5b84602083015283604083015282606083015295945050505050565b60008161356657613566613266565b506000190190565b60006020828403121561358057600080fd5b5051919050565b813561359281612e25565b6001600160a01b0381166bffffffffffffffffffffffff60a01b83541617825550602082013560018201555050565b600085516135d3818460208a01612da9565b919091019384525060609190911b6bffffffffffffffffffffffff191660208301526034820152605401919050565b7f416363657373436f6e74726f6c3a206163636f756e742000000000000000000081526000835161363a816017850160208801612da9565b7001034b99036b4b9b9b4b733903937b6329607d1b601791840191820152835161366b816028840160208801612da9565b01602801949350505050565b634e487b7160e01b600052601260045260246000fd5b60008261369c5761369c613677565b500490565b6000826136b0576136b0613677565b500690565b808202811582820484141761054e5761054e613266565b60006001600160a01b038087168352808616602084015250836040830152608060608301526136fe6080830184612dcd565b9695505050505050565b60006020828403121561371a57600080fd5b815161060b81612d76565b634e487b7160e01b600052603160045260246000fd5b6000825161374d818460208701612da9565b919091019291505056fe4552433732313a207472616e7366657220746f206e6f6e20455243373231526563656976657220696d706c656d656e7465723c7bf052874fa81625121783266a03507bd2cd48b16e571c01a04e8dd3fb07a699574a7094154bb123ae6ae102096f0bf9679b85a5cd1e727aaa0ae5f132e6b1f672b8dc84d117c1e14949d8bc3977392b5ab7de9d01b854d389cdc31bf0d436a2646970667358221220263650a5c42cbf9ced76416f9de57153f0e748b4012f988ee1f9f07ff3404a8764736f6c63430008130033",
  "devdoc": {
    "details": "ReentrancyGuard and Multicall contracts are used for security and gas efficiency.",
    "kind": "dev",
    "methods": {
      "approve(address,uint256)": {
        "params": {
          "operator": "address to be approved",
          "tokenId": "token to approve"
        }
      },
      "balanceOf(address)": {
        "returns": {
          "_0": "quantity of tokens held"
        }
      },
      "baseURI()": {
        "details": "This function returns the base URI",
        "returns": {
          "_0": "The base URI"
        }
      },
      "getApproved(uint256)": {
        "params": {
          "tokenId": "token to query"
        },
        "returns": {
          "_0": "address approved to spend token"
        }
      },
      "isApprovedForAll(address,address)": {
        "params": {
          "account": "address to query for approval granted",
          "operator": "address to query for approval received"
        },
        "returns": {
          "_0": "whether operator is approved to spend tokens held by account"
        }
      },
      "maxMintPerUser()": {
        "details": "This function gets the current maximum number of arcadians that a user can mint",
        "returns": {
          "_0": "The current maximum number of arcadians that a user can mint"
        }
      },
      "maxSupply()": {
        "details": "This function returns the maximum supply of arcadians",
        "returns": {
          "_0": "The current maximum supply of arcadians"
        }
      },
      "mintAndEquip((address,uint256)[])": {
        "params": {
          "itemsToEquip": "array of items to equip in the correspondent slot"
        }
      },
      "mintPrice()": {
        "returns": {
          "_0": "The current mint price"
        }
      },
      "multicall(bytes[])": {
        "params": {
          "data": "array of function call data payloads"
        },
        "returns": {
          "results": "array of function call results"
        }
      },
      "ownerOf(uint256)": {
        "params": {
          "tokenId": "token to query"
        },
        "returns": {
          "_0": "token owner"
        }
      },
      "safeTransferFrom(address,address,uint256)": {
        "params": {
          "from": "sender of token",
          "to": "receiver of token",
          "tokenId": "token id"
        }
      },
      "safeTransferFrom(address,address,uint256,bytes)": {
        "params": {
          "data": "data payload",
          "from": "sender of token",
          "to": "receiver of token",
          "tokenId": "token id"
        }
      },
      "setApprovalForAll(address,bool)": {
        "params": {
          "operator": "address to be approved",
          "status": "approval status"
        }
      },
      "setBaseURI(string)": {
        "params": {
          "newBaseURI": "The new base URI for all token metadata"
        }
      },
      "setMaxMintPerUser(uint256)": {
        "params": {
          "newMaxMintPerUser": "The new maximum number of arcadians that a user can mint"
        }
      },
      "setMintPrice(uint256)": {
        "params": {
          "newMintPrice": "The new mint price to be set"
        }
      },
      "supportsInterface(bytes4)": {
        "params": {
          "interfaceId": "interface id"
        },
        "returns": {
          "_0": "bool whether interface is supported"
        }
      },
      "tokenByIndex(uint256)": {
        "params": {
          "index": "position in global token list to query"
        },
        "returns": {
          "_0": "id of retrieved token"
        }
      },
      "tokenOfOwnerByIndex(address,uint256)": {
        "params": {
          "index": "position in owner's token list to query",
          "owner": "token holder to query"
        },
        "returns": {
          "_0": "id of retrieved token"
        }
      },
      "tokenURI(uint256)": {
        "params": {
          "tokenId": "ID of the token to query"
        },
        "returns": {
          "_0": "The URI for the given token ID"
        }
      },
      "totalMinted()": {
        "returns": {
          "_0": "uint total amount of arcadians minted"
        }
      },
      "totalSupply()": {
        "returns": {
          "_0": "total supply"
        }
      },
      "transferFrom(address,address,uint256)": {
        "params": {
          "from": "sender of token",
          "to": "receiver of token",
          "tokenId": "token id"
        }
      }
    },
    "title": "ArcadiansFacet",
    "version": 1
  },
  "userdoc": {
    "kind": "user",
    "methods": {
      "approve(address,uint256)": {
        "notice": "grant approval to given account to spend token"
      },
      "balanceOf(address)": {
        "notice": "query the balance of given address"
      },
      "closePublicMint()": {
        "notice": "This function closes the public mint"
      },
      "getApproved(uint256)": {
        "notice": "get approval status for given token"
      },
      "isApprovedForAll(address,address)": {
        "notice": "query approval status of given operator with respect to given address"
      },
      "mintAndEquip((address,uint256)[])": {
        "notice": "Mint a token and equip it with the given items"
      },
      "mintPrice()": {
        "notice": "This function gets the current price to mint an arcadian"
      },
      "multicall(bytes[])": {
        "notice": "batch function calls to the contract and return the results of each"
      },
      "name()": {
        "notice": "inheritdoc IERC721Metadata"
      },
      "openPublicMint()": {
        "notice": "This function opens the public mint"
      },
      "ownerOf(uint256)": {
        "notice": "query the owner of given token"
      },
      "publicMintOpen()": {
        "notice": "Returns true if the public mint is open, false otherwise"
      },
      "safeTransferFrom(address,address,uint256)": {
        "notice": "transfer token between given addresses, checking for ERC721Receiver implementation if applicable"
      },
      "safeTransferFrom(address,address,uint256,bytes)": {
        "notice": "transfer token between given addresses, checking for ERC721Receiver implementation if applicable"
      },
      "setApprovalForAll(address,bool)": {
        "notice": "grant approval to or revoke approval from given account to spend all tokens held by sender"
      },
      "setBaseURI(string)": {
        "notice": "Set the base URI for all Arcadians metadataOnly the manager role can call this function"
      },
      "setMaxMintPerUser(uint256)": {
        "notice": "This function sets the new maximum number of arcadians that a user can mint"
      },
      "setMintPrice(uint256)": {
        "notice": "This function updates the price to mint an arcadian"
      },
      "supportsInterface(bytes4)": {
        "notice": "query whether contract has registered support for given interface"
      },
      "symbol()": {
        "notice": "inheritdoc IERC721Metadata"
      },
      "tokenByIndex(uint256)": {
        "notice": "get token at given internal storage index"
      },
      "tokenOfOwnerByIndex(address,uint256)": {
        "notice": "get token of given owner at given internal storage index"
      },
      "tokenURI(uint256)": {
        "notice": "Returns the URI for a given arcadian"
      },
      "totalMinted()": {
        "notice": "Returns the total amount of arcadians minted"
      },
      "totalSupply()": {
        "notice": "get total token supply"
      },
      "transferFrom(address,address,uint256)": {
        "notice": "transfer token between given addresses, without checking for ERC721Receiver implementation if applicable"
      }
    },
    "notice": "This contract is an ERC721 responsible for minting and claiming Arcadian tokens.",
    "version": 1
  },
  "storageLayout": {
    "storage": [],
    "types": null
  }
}