{
  "address": "0xFF811A1D98F34845990cD7A3f8D3611A859F7C84",
  "abi": [
    {
      "inputs": [],
      "name": "AddressUtils__NotContract",
      "type": "error"
    },
    {
      "inputs": [],
      "name": "ERC165Base__InvalidInterfaceId",
      "type": "error"
    },
    {
      "inputs": [],
      "name": "ERC721Base__BalanceQueryZeroAddress",
      "type": "error"
    },
    {
      "inputs": [],
      "name": "ERC721Base__ERC721ReceiverNotImplemented",
      "type": "error"
    },
    {
      "inputs": [],
      "name": "ERC721Base__InvalidOwner",
      "type": "error"
    },
    {
      "inputs": [],
      "name": "ERC721Base__MintToZeroAddress",
      "type": "error"
    },
    {
      "inputs": [],
      "name": "ERC721Base__NonExistentToken",
      "type": "error"
    },
    {
      "inputs": [],
      "name": "ERC721Base__NotOwnerOrApproved",
      "type": "error"
    },
    {
      "inputs": [],
      "name": "ERC721Base__NotTokenOwner",
      "type": "error"
    },
    {
      "inputs": [],
      "name": "ERC721Base__SelfApproval",
      "type": "error"
    },
    {
      "inputs": [],
      "name": "ERC721Base__TokenAlreadyMinted",
      "type": "error"
    },
    {
      "inputs": [],
      "name": "ERC721Base__TransferToZeroAddress",
      "type": "error"
    },
    {
      "inputs": [],
      "name": "ERC721Metadata__NonExistentToken",
      "type": "error"
    },
    {
      "inputs": [],
      "name": "EnumerableMap__IndexOutOfBounds",
      "type": "error"
    },
    {
      "inputs": [],
      "name": "EnumerableMap__NonExistentKey",
      "type": "error"
    },
    {
      "inputs": [],
      "name": "EnumerableSet__IndexOutOfBounds",
      "type": "error"
    },
    {
      "inputs": [],
      "name": "ReentrancyGuard__ReentrantCall",
      "type": "error"
    },
    {
      "inputs": [],
      "name": "SolidStateERC721__PayableApproveNotSupported",
      "type": "error"
    },
    {
      "inputs": [],
      "name": "SolidStateERC721__PayableTransferNotSupported",
      "type": "error"
    },
    {
      "inputs": [],
      "name": "UintUtils__InsufficientHexLength",
      "type": "error"
    },
    {
      "anonymous": false,
      "inputs": [
        {
          "indexed": true,
          "internalType": "address",
          "name": "owner",
          "type": "address"
        },
        {
          "indexed": true,
          "internalType": "address",
          "name": "operator",
          "type": "address"
        },
        {
          "indexed": true,
          "internalType": "uint256",
          "name": "tokenId",
          "type": "uint256"
        }
      ],
      "name": "Approval",
      "type": "event"
    },
    {
      "anonymous": false,
      "inputs": [
        {
          "indexed": true,
          "internalType": "address",
          "name": "owner",
          "type": "address"
        },
        {
          "indexed": true,
          "internalType": "address",
          "name": "operator",
          "type": "address"
        },
        {
          "indexed": false,
          "internalType": "bool",
          "name": "approved",
          "type": "bool"
        }
      ],
      "name": "ApprovalForAll",
      "type": "event"
    },
    {
      "anonymous": false,
      "inputs": [
        {
          "indexed": true,
          "internalType": "address",
          "name": "to",
          "type": "address"
        },
        {
          "indexed": true,
          "internalType": "uint256",
          "name": "amount",
          "type": "uint256"
        }
      ],
      "name": "ArcadianClaimedMerkle",
      "type": "event"
    },
    {
      "anonymous": false,
      "inputs": [
        {
          "indexed": true,
          "internalType": "address",
          "name": "oldArcadiansAddress",
          "type": "address"
        },
        {
          "indexed": true,
          "internalType": "address",
          "name": "newArcadiansAddress",
          "type": "address"
        }
      ],
      "name": "ArcadiansAddressChanged",
      "type": "event"
    },
    {
      "anonymous": false,
      "inputs": [
        {
          "indexed": true,
          "internalType": "address",
          "name": "by",
          "type": "address"
        },
        {
          "indexed": false,
          "internalType": "string",
          "name": "oldBaseURI",
          "type": "string"
        },
        {
          "indexed": false,
          "internalType": "string",
          "name": "newBaseURI",
          "type": "string"
        }
      ],
      "name": "BaseURIChanged",
      "type": "event"
    },
    {
      "anonymous": false,
      "inputs": [
        {
          "indexed": true,
          "internalType": "address",
          "name": "by",
          "type": "address"
        },
        {
          "indexed": true,
          "internalType": "address",
          "name": "oldInventoryAddress",
          "type": "address"
        },
        {
          "indexed": true,
          "internalType": "address",
          "name": "newInventoryAddress",
          "type": "address"
        }
      ],
      "name": "InventoryAddressChanged",
      "type": "event"
    },
    {
      "anonymous": false,
      "inputs": [
        {
          "indexed": true,
          "internalType": "address",
          "name": "by",
          "type": "address"
        },
        {
          "indexed": false,
          "internalType": "uint256",
          "name": "slotId",
          "type": "uint256"
        }
      ],
      "name": "ItemsAllowedInSlotUpdated",
      "type": "event"
    },
    {
      "anonymous": false,
      "inputs": [
        {
          "indexed": true,
          "internalType": "address",
          "name": "by",
          "type": "address"
        },
        {
          "indexed": true,
          "internalType": "uint256",
          "name": "arcadianId",
          "type": "uint256"
        },
        {
          "indexed": false,
          "internalType": "uint256[]",
          "name": "slots",
          "type": "uint256[]"
        }
      ],
      "name": "ItemsEquipped",
      "type": "event"
    },
    {
      "anonymous": false,
      "inputs": [
        {
          "indexed": true,
          "internalType": "address",
          "name": "by",
          "type": "address"
        },
        {
          "indexed": true,
          "internalType": "uint256",
          "name": "arcadianId",
          "type": "uint256"
        },
        {
          "indexed": false,
          "internalType": "uint256[]",
          "name": "slots",
          "type": "uint256[]"
        }
      ],
      "name": "ItemsUnequipped",
      "type": "event"
    },
    {
      "anonymous": false,
      "inputs": [
        {
          "indexed": true,
          "internalType": "address",
          "name": "by",
          "type": "address"
        },
        {
          "indexed": false,
          "internalType": "uint256",
          "name": "oldMaxMintPerUser",
          "type": "uint256"
        },
        {
          "indexed": false,
          "internalType": "uint256",
          "name": "newMaxMintPerUser",
          "type": "uint256"
        }
      ],
      "name": "MaxMintPerUserChanged",
      "type": "event"
    },
    {
      "anonymous": false,
      "inputs": [
        {
          "indexed": true,
          "internalType": "address",
          "name": "by",
          "type": "address"
        },
        {
          "indexed": false,
          "internalType": "uint256",
          "name": "oldMintPrice",
          "type": "uint256"
        },
        {
          "indexed": false,
          "internalType": "uint256",
          "name": "newMintPrice",
          "type": "uint256"
        }
      ],
      "name": "MintPriceChanged",
      "type": "event"
    },
    {
      "anonymous": false,
      "inputs": [
        {
          "indexed": true,
          "internalType": "bytes32",
          "name": "role",
          "type": "bytes32"
        },
        {
          "indexed": true,
          "internalType": "bytes32",
          "name": "previousAdminRole",
          "type": "bytes32"
        },
        {
          "indexed": true,
          "internalType": "bytes32",
          "name": "newAdminRole",
          "type": "bytes32"
        }
      ],
      "name": "RoleAdminChanged",
      "type": "event"
    },
    {
      "anonymous": false,
      "inputs": [
        {
          "indexed": true,
          "internalType": "bytes32",
          "name": "role",
          "type": "bytes32"
        },
        {
          "indexed": true,
          "internalType": "address",
          "name": "account",
          "type": "address"
        },
        {
          "indexed": true,
          "internalType": "address",
          "name": "sender",
          "type": "address"
        }
      ],
      "name": "RoleGranted",
      "type": "event"
    },
    {
      "anonymous": false,
      "inputs": [
        {
          "indexed": true,
          "internalType": "bytes32",
          "name": "role",
          "type": "bytes32"
        },
        {
          "indexed": true,
          "internalType": "address",
          "name": "account",
          "type": "address"
        },
        {
          "indexed": true,
          "internalType": "address",
          "name": "sender",
          "type": "address"
        }
      ],
      "name": "RoleRevoked",
      "type": "event"
    },
    {
      "anonymous": false,
      "inputs": [
        {
          "indexed": true,
          "internalType": "address",
          "name": "by",
          "type": "address"
        },
        {
          "indexed": false,
          "internalType": "uint256",
          "name": "slotId",
          "type": "uint256"
        },
        {
          "indexed": false,
          "internalType": "bool",
          "name": "unequippable",
          "type": "bool"
        },
        {
          "indexed": false,
          "internalType": "enum InventoryStorage.SlotCategory",
          "name": "category",
          "type": "uint8"
        }
      ],
      "name": "SlotCreated",
      "type": "event"
    },
    {
      "anonymous": false,
      "inputs": [
        {
          "indexed": true,
          "internalType": "address",
          "name": "from",
          "type": "address"
        },
        {
          "indexed": true,
          "internalType": "address",
          "name": "to",
          "type": "address"
        },
        {
          "indexed": true,
          "internalType": "uint256",
          "name": "tokenId",
          "type": "uint256"
        }
      ],
      "name": "Transfer",
      "type": "event"
    },
    {
      "anonymous": false,
      "inputs": [
        {
          "indexed": false,
          "internalType": "address",
          "name": "account",
          "type": "address"
        },
        {
          "indexed": false,
          "internalType": "int256",
          "name": "amount",
          "type": "int256"
        },
        {
          "indexed": false,
          "internalType": "uint256",
          "name": "totalElegibleAmount",
          "type": "uint256"
        },
        {
          "indexed": false,
          "internalType": "uint256",
          "name": "totalClaimedAmount",
          "type": "uint256"
        }
      ],
      "name": "WhitelistBalanceChanged",
      "type": "event"
    },
    {
      "inputs": [
        {
          "internalType": "address",
          "name": "operator",
          "type": "address"
        },
        {
          "internalType": "uint256",
          "name": "tokenId",
          "type": "uint256"
        }
      ],
      "name": "approve",
      "outputs": [],
      "stateMutability": "payable",
      "type": "function"
    },
    {
      "inputs": [
        {
          "internalType": "address",
          "name": "account",
          "type": "address"
        }
      ],
      "name": "balanceOf",
      "outputs": [
        {
          "internalType": "uint256",
          "name": "",
          "type": "uint256"
        }
      ],
      "stateMutability": "view",
      "type": "function"
    },
    {
      "inputs": [],
      "name": "baseURI",
      "outputs": [
        {
          "internalType": "string",
          "name": "",
          "type": "string"
        }
      ],
      "stateMutability": "view",
      "type": "function"
    },
    {
      "inputs": [
        {
          "internalType": "uint256",
          "name": "totalAmount",
          "type": "uint256"
        },
        {
          "internalType": "bytes32[]",
          "name": "proof",
          "type": "bytes32[]"
        }
      ],
      "name": "claimMerkle",
      "outputs": [],
      "stateMutability": "nonpayable",
      "type": "function"
    },
    {
      "inputs": [
        {
          "internalType": "uint256",
          "name": "amount",
          "type": "uint256"
        }
      ],
      "name": "claimWhitelist",
      "outputs": [],
      "stateMutability": "nonpayable",
      "type": "function"
    },
    {
      "inputs": [
        {
          "internalType": "address",
          "name": "account",
          "type": "address"
        }
      ],
      "name": "claimedAmountMerkle",
      "outputs": [
        {
          "internalType": "uint256",
          "name": "",
          "type": "uint256"
        }
      ],
      "stateMutability": "view",
      "type": "function"
    },
    {
      "inputs": [
        {
          "internalType": "uint256",
          "name": "tokenId",
          "type": "uint256"
        }
      ],
      "name": "getApproved",
      "outputs": [
        {
          "internalType": "address",
          "name": "",
          "type": "address"
        }
      ],
      "stateMutability": "view",
      "type": "function"
    },
    {
      "inputs": [
        {
          "internalType": "address",
          "name": "account",
          "type": "address"
        },
        {
          "internalType": "address",
          "name": "operator",
          "type": "address"
        }
      ],
      "name": "isApprovedForAll",
      "outputs": [
        {
          "internalType": "bool",
          "name": "",
          "type": "bool"
        }
      ],
      "stateMutability": "view",
      "type": "function"
    },
    {
      "inputs": [],
      "name": "maxMintPerUser",
      "outputs": [
        {
          "internalType": "uint256",
          "name": "",
          "type": "uint256"
        }
      ],
      "stateMutability": "view",
      "type": "function"
    },
    {
      "inputs": [],
      "name": "mint",
      "outputs": [],
      "stateMutability": "payable",
      "type": "function"
    },
    {
      "inputs": [
        {
          "internalType": "uint256[]",
          "name": "slotIds",
          "type": "uint256[]"
        },
        {
          "components": [
            {
              "internalType": "address",
              "name": "contractAddress",
              "type": "address"
            },
            {
              "internalType": "uint256",
              "name": "id",
              "type": "uint256"
            }
          ],
          "internalType": "struct InventoryStorage.Item[]",
          "name": "itemsToEquip",
          "type": "tuple[]"
        }
      ],
      "name": "mintAndEquipp",
      "outputs": [],
      "stateMutability": "payable",
      "type": "function"
    },
    {
      "inputs": [],
      "name": "mintPrice",
      "outputs": [
        {
          "internalType": "uint256",
          "name": "",
          "type": "uint256"
        }
      ],
      "stateMutability": "view",
      "type": "function"
    },
    {
      "inputs": [
        {
          "internalType": "bytes[]",
          "name": "data",
          "type": "bytes[]"
        }
      ],
      "name": "multicall",
      "outputs": [
        {
          "internalType": "bytes[]",
          "name": "results",
          "type": "bytes[]"
        }
      ],
      "stateMutability": "nonpayable",
      "type": "function"
    },
    {
      "inputs": [],
      "name": "name",
      "outputs": [
        {
          "internalType": "string",
          "name": "",
          "type": "string"
        }
      ],
      "stateMutability": "view",
      "type": "function"
    },
    {
      "inputs": [
        {
          "internalType": "uint256",
          "name": "tokenId",
          "type": "uint256"
        }
      ],
      "name": "ownerOf",
      "outputs": [
        {
          "internalType": "address",
          "name": "",
          "type": "address"
        }
      ],
      "stateMutability": "view",
      "type": "function"
    },
    {
      "inputs": [
        {
          "internalType": "address",
          "name": "from",
          "type": "address"
        },
        {
          "internalType": "address",
          "name": "to",
          "type": "address"
        },
        {
          "internalType": "uint256",
          "name": "tokenId",
          "type": "uint256"
        }
      ],
      "name": "safeTransferFrom",
      "outputs": [],
      "stateMutability": "payable",
      "type": "function"
    },
    {
      "inputs": [
        {
          "internalType": "address",
          "name": "from",
          "type": "address"
        },
        {
          "internalType": "address",
          "name": "to",
          "type": "address"
        },
        {
          "internalType": "uint256",
          "name": "tokenId",
          "type": "uint256"
        },
        {
          "internalType": "bytes",
          "name": "data",
          "type": "bytes"
        }
      ],
      "name": "safeTransferFrom",
      "outputs": [],
      "stateMutability": "payable",
      "type": "function"
    },
    {
      "inputs": [
        {
          "internalType": "address",
          "name": "operator",
          "type": "address"
        },
        {
          "internalType": "bool",
          "name": "status",
          "type": "bool"
        }
      ],
      "name": "setApprovalForAll",
      "outputs": [],
      "stateMutability": "nonpayable",
      "type": "function"
    },
    {
      "inputs": [
        {
          "internalType": "string",
          "name": "newBaseURI",
          "type": "string"
        }
      ],
      "name": "setBaseURI",
      "outputs": [],
      "stateMutability": "nonpayable",
      "type": "function"
    },
    {
      "inputs": [
        {
          "internalType": "uint256",
          "name": "newMaxMintPerUser",
          "type": "uint256"
        }
      ],
      "name": "setMaxMintPerUser",
      "outputs": [],
      "stateMutability": "nonpayable",
      "type": "function"
    },
    {
      "inputs": [
        {
          "internalType": "uint256",
          "name": "newMintPrice",
          "type": "uint256"
        }
      ],
      "name": "setMintPrice",
      "outputs": [],
      "stateMutability": "nonpayable",
      "type": "function"
    },
    {
      "inputs": [
        {
          "internalType": "bytes4",
          "name": "interfaceId",
          "type": "bytes4"
        }
      ],
      "name": "supportsInterface",
      "outputs": [
        {
          "internalType": "bool",
          "name": "",
          "type": "bool"
        }
      ],
      "stateMutability": "view",
      "type": "function"
    },
    {
      "inputs": [],
      "name": "symbol",
      "outputs": [
        {
          "internalType": "string",
          "name": "",
          "type": "string"
        }
      ],
      "stateMutability": "view",
      "type": "function"
    },
    {
      "inputs": [
        {
          "internalType": "uint256",
          "name": "index",
          "type": "uint256"
        }
      ],
      "name": "tokenByIndex",
      "outputs": [
        {
          "internalType": "uint256",
          "name": "",
          "type": "uint256"
        }
      ],
      "stateMutability": "view",
      "type": "function"
    },
    {
      "inputs": [
        {
          "internalType": "address",
          "name": "owner",
          "type": "address"
        },
        {
          "internalType": "uint256",
          "name": "index",
          "type": "uint256"
        }
      ],
      "name": "tokenOfOwnerByIndex",
      "outputs": [
        {
          "internalType": "uint256",
          "name": "",
          "type": "uint256"
        }
      ],
      "stateMutability": "view",
      "type": "function"
    },
    {
      "inputs": [
        {
          "internalType": "uint256",
          "name": "tokenId",
          "type": "uint256"
        }
      ],
      "name": "tokenURI",
      "outputs": [
        {
          "internalType": "string",
          "name": "",
          "type": "string"
        }
      ],
      "stateMutability": "view",
      "type": "function"
    },
    {
      "inputs": [],
      "name": "totalSupply",
      "outputs": [
        {
          "internalType": "uint256",
          "name": "",
          "type": "uint256"
        }
      ],
      "stateMutability": "view",
      "type": "function"
    },
    {
      "inputs": [
        {
          "internalType": "address",
          "name": "from",
          "type": "address"
        },
        {
          "internalType": "address",
          "name": "to",
          "type": "address"
        },
        {
          "internalType": "uint256",
          "name": "tokenId",
          "type": "uint256"
        }
      ],
      "name": "transferFrom",
      "outputs": [],
      "stateMutability": "payable",
      "type": "function"
    }
  ],
  "transactionHash": "0x58830e2f240bd19be5f7b8ca7d6bf9e09b4fd1ec543740fbc12abe92f5bf48b7",
  "args": [],
  "numDeployments": 5,
  "solcInputHash": "f1e3877b8f8ef72bb892491c6379771c",
  "bytecode": "0x608060405234801561001057600080fd5b50613cff806100206000396000f3fe6080604052600436106101b75760003560e01c80636c0360eb116100ec578063a22cb4651161008a578063c87b56dd11610064578063c87b56dd14610483578063d304c4bc146104a3578063e985e9c5146104b8578063f4a0a528146104d857600080fd5b8063a22cb46514610423578063ac9650d814610443578063b88d4fde1461047057600080fd5b806383ccaef7116100c657806383ccaef7146103ae5780638e10d554146103ce578063958944f1146103ee57806395d89b411461040e57600080fd5b80636c0360eb1461036657806370a082311461037b57806382d91c3b1461039b57600080fd5b806323b872dd116101595780634f6ccce7116101335780634f6ccce7146102f157806355f804b3146103115780636352211e146103315780636817c76c1461035157600080fd5b806323b872dd146102ab5780632f745c59146102be57806342842e0e146102de57600080fd5b8063095ea7b311610195578063095ea7b31461024b5780631249c58b1461026057806318160ddd146102685780631fa44f0e1461028b57600080fd5b806301ffc9a7146101bc57806306fdde03146101f1578063081812fc14610213575b600080fd5b3480156101c857600080fd5b506101dc6101d73660046130bb565b6104f8565b60405190151581526020015b60405180910390f35b3480156101fd57600080fd5b5061020661053b565b6040516101e89190613128565b34801561021f57600080fd5b5061023361022e36600461313b565b61054a565b6040516001600160a01b0390911681526020016101e8565b61025e610259366004613169565b610555565b005b61025e610563565b34801561027457600080fd5b5061027d610666565b6040519081526020016101e8565b34801561029757600080fd5b5061027d6102a6366004613195565b610670565b61025e6102b93660046131b2565b61069b565b3480156102ca57600080fd5b5061027d6102d9366004613169565b6106ab565b61025e6102ec3660046131b2565b6106be565b3480156102fd57600080fd5b5061027d61030c36600461313b565b6106c9565b34801561031d57600080fd5b5061025e61032c366004613292565b6106d4565b34801561033d57600080fd5b5061023361034c36600461313b565b610710565b34801561035d57600080fd5b5061027d61071b565b34801561037257600080fd5b50610206610745565b34801561038757600080fd5b5061027d610396366004613195565b61074f565b61025e6103a9366004613320565b61075a565b3480156103ba57600080fd5b5061025e6103c936600461313b565b61086c565b3480156103da57600080fd5b5061025e6103e936600461313b565b6108a0565b3480156103fa57600080fd5b5061025e6104093660046133ba565b610922565b34801561041a57600080fd5b50610206610a9b565b34801561042f57600080fd5b5061025e61043e36600461346c565b610aa5565b34801561044f57600080fd5b5061046361045e3660046134aa565b610aaf565b6040516101e891906134ec565b61025e61047e36600461354e565b610bca565b34801561048f57600080fd5b5061020661049e36600461313b565b610bdc565b3480156104af57600080fd5b5061027d610be7565b3480156104c457600080fd5b506101dc6104d33660046135ce565b610c11565b3480156104e457600080fd5b5061025e6104f336600461313b565b610c1d565b6001600160e01b0319811660009081527ffc606c433378e3a7e0a6a531deac289b66caa1b4aa8554fd4ab2c6f1570f92d8602052604081205460ff165b92915050565b6060610545610c51565b905090565b600061053582610cf0565b61055f8282610d53565b5050565b7f09acf4e54214992e70883cf7dcd6957ff2c71cd9e14df4bec4383bc0d11607dc80546002036105a657604051635db5c7cd60e11b815260040160405180910390fd5b600281557f87a01bd38845081b30641ebc639dfadf787bd49017c45985af2341fe932c746554600080516020613c8a8339815191529034146106035760405162461bcd60e51b81526004016105fa906135fc565b60405180910390fd5b33600081815260208390526040812054909161061e90610e56565b610628919061365d565b90508160010154811061064d5760405162461bcd60e51b81526004016105fa90613670565b61065e33610659610ebf565b610ed8565b505060019055565b6000610545610ebf565b6001600160a01b0381166000908152600080516020613c8a8339815191526020526040812054610535565b6106a6838383610ef2565b505050565b60006106b78383610f30565b9392505050565b6106a6838383610f71565b600061053582610f8c565b6107046106ff7ff6deb63e40d71b08820818e006e23fcceb1fce7a499bc15b71b2526cbf9efa725490565b610fa6565b61070d81610fb0565b50565b60006105358261102a565b60006105457f87a01bd38845081b30641ebc639dfadf787bd49017c45985af2341fe932c74655490565b606061054561106e565b600061053582610e56565b7f09acf4e54214992e70883cf7dcd6957ff2c71cd9e14df4bec4383bc0d11607dc805460020361079d57604051635db5c7cd60e11b815260040160405180910390fd5b600281557f87a01bd38845081b30641ebc639dfadf787bd49017c45985af2341fe932c746554600080516020613c8a8339815191529034146107f15760405162461bcd60e51b81526004016105fa906135fc565b33600081815260208390526040812054909161080c90610e56565b610816919061365d565b90508160010154811061083b5760405162461bcd60e51b81526004016105fa90613670565b6000610845610ebf565b90506108513382610ed8565b61085e818989898961108d565b505060019091555050505050565b6108976106ff7ff6deb63e40d71b08820818e006e23fcceb1fce7a499bc15b71b2526cbf9efa725490565b61070d8161187f565b7f09acf4e54214992e70883cf7dcd6957ff2c71cd9e14df4bec4383bc0d11607dc80546002036108e357604051635db5c7cd60e11b815260040160405180910390fd5b600281556108f133836118f2565b60005b8281101561091a5761090833610659610ebf565b80610912816136cd565b9150506108f4565b506001905550565b7f09acf4e54214992e70883cf7dcd6957ff2c71cd9e14df4bec4383bc0d11607dc805460020361096557604051635db5c7cd60e11b815260040160405180910390fd5b60028155336000908152600080516020613c8a833981519152602081905260409091205484116109cc5760405162461bcd60e51b8152602060048201526012602482015271105b1b081d1bdad95b9cc818db185a5b595960721b60448201526064016105fa565b6040805133602082015280820186905281518082038301815260609091019091526109f78482611a9b565b5033600090815260208390526040812054610a12908761365d565b905060005b81811015610a3d57610a2b33610659610ebf565b80610a35816136cd565b915050610a17565b503360009081526020849052604081208054839290610a5d9084906136e6565b9091555050604051819033907fc169c3974ad5176ea41e766768be74079ba8c86a136ed66c5ac85e602782db7d90600090a350506001909155505050565b6060610545611b51565b61055f8282611b70565b60608167ffffffffffffffff811115610aca57610aca6131f3565b604051908082528060200260200182016040528015610afd57816020015b6060815260200190600190039081610ae85790505b50905060005b82811015610bc35760008030868685818110610b2157610b216136f9565b9050602002810190610b33919061370f565b604051610b41929190613756565b600060405180830381855af49150503d8060008114610b7c576040519150601f19603f3d011682016040523d82523d6000602084013e610b81565b606091505b50915091508115610baf5780848481518110610b9f57610b9f6136f9565b6020026020010181905250610bb9565b3d6000803e3d6000fd5b5050600101610b03565b5092915050565b610bd684848484611c24565b50505050565b606061053582611c63565b60006105457f87a01bd38845081b30641ebc639dfadf787bd49017c45985af2341fe932c74645490565b60006106b78383611e44565b610c486106ff7ff6deb63e40d71b08820818e006e23fcceb1fce7a499bc15b71b2526cbf9efa725490565b61070d81611e91565b6060600080516020613caa8339815191528054610c6d90613766565b80601f0160208091040260200160405190810160405280929190818152602001828054610c9990613766565b8015610ce65780601f10610cbb57610100808354040283529160200191610ce6565b820191906000526020600020905b815481529060010190602001808311610cc957829003601f168201915b5050505050905090565b6000610cfb82611f04565b610d185760405163c1b843ef60e01b815260040160405180910390fd5b5060009081527f3c7bf052874fa81625121783266a03507bd2cd48b16e571c01a04e8dd3fb07a960205260409020546001600160a01b031690565b610d5e828234611f1e565b6000610d698261102a565b9050806001600160a01b0316836001600160a01b031603610d9d5760405163424a22cb60e01b815260040160405180910390fd5b336001600160a01b03821614801590610dbd5750610dbb8133611e44565b155b15610ddb57604051632f5de44f60e01b815260040160405180910390fd5b60008281527f3c7bf052874fa81625121783266a03507bd2cd48b16e571c01a04e8dd3fb07a9602052604080822080546001600160a01b0319166001600160a01b0387811691821790925591518593918516917f8c5be1e5ebec7d5bd14f71427d1e84f3dd0314c0f7b2291e5b200ac8c7c3b92591a4505050565b60006001600160a01b038216610e7f57604051630810ff9760e41b815260040160405180910390fd5b6001600160a01b03821660009081527f3c7bf052874fa81625121783266a03507bd2cd48b16e571c01a04e8dd3fb07a86020526040902061053590611f48565b6000610545600080516020613c6a833981519152611f48565b61055f828260405180602001604052806000815250611f52565b610efe83838334611f86565b610f083382611fb1565b610f2557604051632f5de44f60e01b815260040160405180910390fd5b6106a6838383612037565b6001600160a01b03821660009081527f3c7bf052874fa81625121783266a03507bd2cd48b16e571c01a04e8dd3fb07a8602052604081206106b790836121c6565b6106a683838360405180602001604052806000815250611c24565b6000610bc3600080516020613c6a833981519152836121d2565b61070d81336121f0565b604051600080516020613caa8339815191529033907f92bf6a7b8937c17e6781a68d61f9fe6a5ce08604b96ca2206f311049a3a295ea90611014907f99574a7094154bb123ae6ae102096f0bf9679b85a5cd1e727aaa0ae5f132e6b39086906137a0565b60405180910390a2600281016106a6838261388d565b600080611045600080516020613c6a83398151915284612252565b90506001600160a01b03811661053557604051637e1a7d8b60e01b815260040160405180910390fd5b6060600080516020613caa8339815191526002018054610c6d90613766565b6040516331a9108f60e11b815260048101869052859030908190636352211e90602401602060405180830381865afa1580156110cd573d6000803e3d6000fd5b505050506040513d601f19601f820116820180604052508101906110f1919061394d565b6001600160a01b0316336001600160a01b0316146111775760405162461bcd60e51b815260206004820152603b60248201527f496e76656e746f727946616365743a204d6573736167652073656e646572206960448201527f73206e6f74206f776e6572206f662074686520617263616469616e000000000060648201526084016105fa565b846111ea5760405162461bcd60e51b815260206004820152603960248201527f496e76656e746f727946616365742e5f756e65717569703a2053686f756c642060448201527f73706563696679206174206c65617374206f6e6520736c6f740000000000000060648201526084016105fa565b84831461125f5760405162461bcd60e51b815260206004820152603660248201527f496e76656e746f727946616365742e5f657175697042617463683a20496e707560448201527f742064617461206c656e677468206d69736d617463680000000000000000000060648201526084016105fa565b7ff672b8dc84d117c1e14949d8bc3977392b5ab7de9d01b854d389cdc31bf0d436805460005b878110156117bc5760008989838181106112a1576112a16136f9565b9050602002013590506000811180156112ba5750828111155b6113175760405162461bcd60e51b815260206004820152602860248201527f496e76656e746f727946616365742e5f657175697042617463683a20496e76616044820152671b1a59081cdb1bdd60c21b60648201526084016105fa565b808460050160008a8a86818110611330576113306136f9565b6113469260206040909202019081019150613195565b6001600160a01b03166001600160a01b0316815260200190815260200160002060008a8a8681811061137a5761137a6136f9565b90506040020160200135815260200190815260200160002054146114065760405162461bcd60e51b815260206004820152603660248201527f496e76656e746f727946616365742e5f657175697042617463683a204974656d60448201527f206e6f7420656c656769626c6520666f7220736c6f740000000000000000000060648201526084016105fa565b600088888481811061141a5761141a6136f9565b6114309260206040909202019081019150613195565b90506000816001600160a01b031662fdd58e338c8c88818110611455576114556136f9565b905060400201602001356040518363ffffffff1660e01b81526004016114909291906001600160a01b03929092168252602082015260400190565b602060405180830381865afa1580156114ad573d6000803e3d6000fd5b505050506040513d601f19601f820116820180604052508101906114d1919061396a565b116115445760405162461bcd60e51b815260206004820152603a60248201527f496e76656e746f727946616365742e65717569703a2053656e6465722068617360448201527f20696e73756666696369656e74206974656d2062616c616e636500000000000060648201526084016105fa565b60008c815260038601602090815260408083208584528252808320600189019092529091205460ff161580611581575080546001600160a01b0316155b6115f35760405162461bcd60e51b815260206004820152603c60248201527f496e76656e746f727946616365742e65717569703a20556e657175697070616260448201527f6c6520736c6f747320616c72656164792068617320616e206974656d0000000060648201526084016105fa565b898985818110611605576116056136f9565b61161b9260206040909202019081019150613195565b81546001600160a01b0390811691161480156116555750898985818110611644576116446136f9565b905060400201602001358160010154145b15611662575050506117aa565b80546001600160a01b0316156116da57600180820154604051637921219560e11b81526001600160a01b0385169263f242432a926116a7923092339291600401613983565b600060405180830381600087803b1580156116c157600080fd5b505af11580156116d5573d6000803e3d6000fd5b505050505b8989858181106116ec576116ec6136f9565b9050604002018660030160008f81526020019081526020016000206000858152602001908152602001600020818161172491906139bb565b50506001600160a01b03821663f242432a33308d8d89818110611749576117496136f9565b9050604002016020013560016040518563ffffffff1660e01b81526004016117749493929190613983565b600060405180830381600087803b15801561178e57600080fd5b505af11580156117a2573d6000803e3d6000fd5b505050505050505b806117b4816136cd565b915050611285565b5088336001600160a01b03167f557dc03f902756383ba5a748ab63ec6ec44b2880dba84ad33dc6ffe670f188618a8a6040516117f99291906139f5565b60405180910390a361180a8961225e565b6118745760405162461bcd60e51b815260206004820152603560248201527f496e76656e746f727946616365742e5f657175697042617463683a2042617365604482015274206974656d7320617265206e6f7420756e6971756560581b60648201526084016105fa565b505050505050505050565b7f87a01bd38845081b30641ebc639dfadf787bd49017c45985af2341fe932c74645460408051918252602082018390528051600080516020613c8a8339815191529233927f9a201d4a67373d8576462c238c27108c61b3deec32a932aac079a84cc3b7742c92918290030190a260010155565b6001600160a01b03821660009081527ff38d3885e664c9638de25f02e645e1955ebebe901d7be2c2037db6a5bcbb358960205260409020547ff38d3885e664c9638de25f02e645e1955ebebe901d7be2c2037db6a5bcbb3588908211156119cd5760405162461bcd60e51b815260206004820152604360248201527f57686974656c697374496e7465726e616c2e5f636f6e73756d6557686974656c60448201527f6973743a20616d6f756e74206578636565647320656c656769626c6520616d6f6064820152621d5b9d60ea1b608482015260a4016105fa565b6001600160a01b0383166000908152600182016020526040812080548492906119f790849061365d565b90915550506001600160a01b03831660009081526020829052604081208054849290611a249084906136e6565b90915550506001600160a01b0383166000908152600182016020908152604080832054848352928190205481513381529283018690529082019290925260608101919091527fdb4f4d78cc1c961ddedd2f43596d41d07e607b7517c7106d83f6421215e1f6a79060800160405180910390a1505050565b6000808280519060200120604051602001611ab891815260200190565b604051602081830303815290604052805190602001209050611b0284611afb7f7a07c093b55ad04e200605cb287859fe4640b7310d62fdbb044e26399da78c0890565b54836123b7565b915081610bc35760405162461bcd60e51b815260206004820152601b60248201527f44617461206e6f7420696e636c7564656420696e206d65726b6c65000000000060448201526064016105fa565b6060600080516020613caa8339815191526001018054610c6d90613766565b336001600160a01b03831603611b995760405163424a22cb60e01b815260040160405180910390fd5b3360008181527f3c7bf052874fa81625121783266a03507bd2cd48b16e571c01a04e8dd3fb07aa602090815260408083206001600160a01b03871680855290835292819020805460ff191686151590811790915590519081529192917f17307eab39ab6107e8899845ad3d59bd9653f200f220920489ca2b5937696c31910160405180910390a35050565b611c3084848434611f86565b611c3a3383611fb1565b611c5757604051632f5de44f60e01b815260040160405180910390fd5b610bd68484848461245c565b6060611c6e82611f04565b611c8a57604051624705a760e71b815260040160405180910390fd5b60008281527f99574a7094154bb123ae6ae102096f0bf9679b85a5cd1e727aaa0ae5f132e6b4602052604081208054600080516020613caa833981519152929190611cd490613766565b80601f0160208091040260200160405190810160405280929190818152602001828054611d0090613766565b8015611d4d5780601f10611d2257610100808354040283529160200191611d4d565b820191906000526020600020905b815481529060010190602001808311611d3057829003601f168201915b505050505090506000826002018054611d6590613766565b80601f0160208091040260200160405190810160405280929190818152602001828054611d9190613766565b8015611dde5780601f10611db357610100808354040283529160200191611dde565b820191906000526020600020905b815481529060010190602001808311611dc157829003601f168201915b505050505090508051600003611df657509392505050565b815115611e29578082604051602001611e10929190613a2e565b6040516020818303038152906040529350505050919050565b80611e3386612490565b604051602001611e10929190613a2e565b6001600160a01b0391821660009081527f3c7bf052874fa81625121783266a03507bd2cd48b16e571c01a04e8dd3fb07aa6020908152604080832093909416825291909152205460ff1690565b7f87a01bd38845081b30641ebc639dfadf787bd49017c45985af2341fe932c74655460408051918252602082018390528051600080516020613c8a8339815191529233927fed96032e9c101f4508a9696e8861f06aa3674be1b735fc685aed0efb83db76e992918290030190a260020155565b6000610535600080516020613c6a83398151915283612591565b8015611f3d5760405163b56d7c1b60e01b815260040160405180910390fd5b6106a68383836125a9565b6000610535825490565b611f5c83836125c8565b611f6960008484846126bd565b6106a657604051639ff10cdd60e01b815260040160405180910390fd5b8015611fa5576040516322b1813960e01b815260040160405180910390fd5b610bd68484848461278e565b6000611fbc82611f04565b611fd95760405163c1b843ef60e01b815260040160405180910390fd5b6000611fe48361102a565b9050806001600160a01b0316846001600160a01b0316148061201f5750836001600160a01b031661201484610cf0565b6001600160a01b0316145b8061202f575061202f8185611e44565b949350505050565b60006120428261102a565b9050836001600160a01b0316816001600160a01b03161461207657604051630f2db4ad60e01b815260040160405180910390fd5b6001600160a01b03831661209d576040516340311a0960e01b815260040160405180910390fd5b6120a88484846127b2565b6001600160a01b03841660009081527f3c7bf052874fa81625121783266a03507bd2cd48b16e571c01a04e8dd3fb07a860205260409020600080516020613c6a833981519152906120f990846127c6565b506001600160a01b0384166000908152600282016020526040902061211e90846127d2565b5061212a8184866127de565b50600083815260038201602052604080822080546001600160a01b0319169055518491906001600160a01b038516907f8c5be1e5ebec7d5bd14f71427d1e84f3dd0314c0f7b2291e5b200ac8c7c3b925908390a482846001600160a01b0316866001600160a01b03167fddf252ad1be2c89b69c2b068fc378daa952ba7f163c4a11628f55a4df523b3ef60405160405180910390a45050505050565b60006106b783836127f4565b60008080806121e18686612840565b909450925050505b9250929050565b6121fa82826128a3565b61055f57612210816001600160a01b03166128da565b61221b8360206128ec565b60405160200161222c929190613a5d565b60408051601f198184030181529082905262461bcd60e51b82526105fa91600401613128565b60006106b78383612a3f565b60008080527ff672b8dc84d117c1e14949d8bc3977392b5ab7de9d01b854d389cdc31bf0d4386020527ff672b8dc84d117c1e14949d8bc3977392b5ab7de9d01b854d389cdc31bf0d43660607f845ff02802177e9909faef63e536d995d5be20fadd26c667f4235942a02dfdd9836122d582611f48565b905060005b818110156123565760006122ee84836121c6565b600089815260038801602090815260408083208484528252918290208054600182015493519495509093612330938a9387936001600160a01b03169201613ad2565b60405160208183030381529060405295505050808061234e906136cd565b9150506122da565b508251602084012061236b6006860182612591565b60008881526008870160205260409020549015965061238e9060068701906127c6565b5061239c60068601826127d2565b50600096875260089094016020525050604090932055919050565b600081815b85518110156124515760008682815181106123d9576123d96136f9565b6020026020010151905080831161241b576040805160208101859052908101829052606001604051602081830303815290604052805190602001209250612448565b60408051602081018390529081018490526060016040516020818303038152906040528051906020012092505b506001016123bc565b509092149392505050565b612467848484612037565b612473848484846126bd565b610bd657604051639ff10cdd60e01b815260040160405180910390fd5b6060816000036124b75750506040805180820190915260018152600360fc1b602082015290565b8160005b81156124e157806124cb816136cd565b91506124da9050600a83613b29565b91506124bb565b60008167ffffffffffffffff8111156124fc576124fc6131f3565b6040519080825280601f01601f191660200182016040528015612526576020820181803683370190505b5090505b841561202f5761253b60018361365d565b9150612548600a86613b3d565b6125539060306136e6565b60f81b818381518110612568576125686136f9565b60200101906001600160f81b031916908160001a90535061258a600a86613b29565b945061252a565b600081815260018301602052604081205415156106b7565b80156106a65760405163b56d7c1b60e01b815260040160405180910390fd5b6001600160a01b0382166125ef576040516311f2988d60e11b815260040160405180910390fd5b6125f881611f04565b1561261657604051630d86bb7b60e31b815260040160405180910390fd5b612622600083836127b2565b6001600160a01b03821660009081527f3c7bf052874fa81625121783266a03507bd2cd48b16e571c01a04e8dd3fb07a860205260409020600080516020613c6a8339815191529061267390836127d2565b5061267f8183856127de565b5060405182906001600160a01b038516906000907fddf252ad1be2c89b69c2b068fc378daa952ba7f163c4a11628f55a4df523b3ef908290a4505050565b60006001600160a01b0384163b6126d65750600161202f565b600061275763150b7a0260e01b338887876040516024016126fa9493929190613b51565b604051602081830303815290604052906001600160e01b0319166020820180516001600160e01b038381831617835250505050604051806060016040528060328152602001613c38603291396001600160a01b0388169190612aa3565b905060008180602001905181019061276f9190613b8d565b6001600160e01b031916630a85bd0160e11b1492505050949350505050565b80156127ad576040516322b1813960e01b815260040160405180910390fd5b610bd6565b6127bb81612ab2565b6106a6838383612c84565b60006106b78383612c8f565b60006106b78383612d49565b600061202f84846001600160a01b038516612d8c565b815460009082106128185760405163e637bf3b60e01b815260040160405180910390fd5b82600001828154811061282d5761282d6136f9565b9060005260206000200154905092915050565b8154600090819083106128665760405163022fd82760e31b815260040160405180910390fd5b600084600001848154811061287d5761287d6136f9565b906000526020600020906002020190508060000154816001015492509250509250929050565b60008281527fd3889cc5458b268d0544e5534672df1296288ca3f93cbd39bd6f497a5c622811602052604081206106b79083612e2b565b60606105356001600160a01b03831660145b606060006128fb836002613baa565b6129069060026136e6565b67ffffffffffffffff81111561291e5761291e6131f3565b6040519080825280601f01601f191660200182016040528015612948576020820181803683370190505b509050600360fc1b81600081518110612963576129636136f9565b60200101906001600160f81b031916908160001a905350600f60fb1b81600181518110612992576129926136f9565b60200101906001600160f81b031916908160001a905350600160028402015b6001811115612a1f576f181899199a1a9b1b9c1cb0b131b232b360811b85600f16601081106129e2576129e26136f9565b1a60f81b8282815181106129f8576129f86136f9565b60200101906001600160f81b031916908160001a90535060049490941c93600019016129b1565b5083156106b75760405163c913478560e01b815260040160405180910390fd5b6000818152600183016020526040812054808203612a7057604051633d547ec560e21b815260040160405180910390fd5b836000016001820381548110612a8857612a886136f9565b90600052602060002090600202016001015491505092915050565b606061202f8484600085612e4d565b7ff672b8dc84d117c1e14949d8bc3977392b5ab7de9d01b854d389cdc31bf0d4368054600060015b828111612b4a57600081815260018501602052604090205460ff16158015612b255750600085815260038501602090815260408083208484529091529020546001600160a01b031615155b15612b385781612b34816136cd565b9250505b80612b42816136cd565b915050612ada565b5060008167ffffffffffffffff811115612b6657612b666131f3565b604051908082528060200260200182016040528015612b8f578160200160208202803683370190505b509050600060015b848111612c2f57600081815260018701602052604090205460ff16158015612be25750600087815260038701602090815260408083208484529091529020546001600160a01b031615155b15612c1d57612bf18782612f0a565b80838381518110612c0457612c046136f9565b602090810291909101015281612c19816136cd565b9250505b80612c27816136cd565b915050612b97565b5085336001600160a01b03167f3822f2cd6d118934e31e6171da74d9d46131fb402be1861b3cb4460440aeab6384604051612c6a9190613bc1565b60405180910390a3612c7b8661225e565b50505050505050565b6106a6838383613012565b60008181526001830160205260408120548015610bc357835460009085906000198101908110612cc157612cc16136f9565b9060005260206000200154905080856000016001840381548110612ce757612ce76136f9565b6000918252602080832090910192909255918252600186019052604090208190558354849080612d1957612d19613c05565b60008281526020808220830160001990810183905590920190925593815260019485019093525050604081205590565b6000818152600183016020526040812054610535575081546001808201845560008481526020808220909301849055845493815293810190915260409092205590565b6000828152600184016020526040812054808203612df35750506040805180820182528381526020808201848152865460018181018955600089815284812095516002909302909501918255915190820155865486845281880190925292909120556106b7565b82856000016001830381548110612e0c57612e0c6136f9565b90600052602060002090600202016001018190555060009150506106b7565b6001600160a01b038116600090815260018301602052604081205415156106b7565b6060843b612e6e57604051632270d6bf60e21b815260040160405180910390fd5b600080866001600160a01b03168587604051612e8a9190613c1b565b60006040518083038185875af1925050503d8060008114612ec7576040519150601f19603f3d011682016040523d82523d6000602084013e612ecc565b606091505b50915091508115612ee057915061202f9050565b805115612ef05780518082602001fd5b8360405162461bcd60e51b81526004016105fa9190613128565b60008281527ff672b8dc84d117c1e14949d8bc3977392b5ab7de9d01b854d389cdc31bf0d43960209081526040808320848452909152902080547ff672b8dc84d117c1e14949d8bc3977392b5ab7de9d01b854d389cdc31bf0d43691906001600160a01b0316801561300b57600180830154604051637921219560e11b81526001600160a01b0384169263f242432a92612fab923092339291600401613983565b600060405180830381600087803b158015612fc557600080fd5b505af1158015612fd9573d6000803e3d6000fd5b50505060008681526003850160209081526040808320888452909152812080546001600160a01b031916815560010155505b5050505050565b6106a68383836001600160a01b0382166106a65760008181527f99574a7094154bb123ae6ae102096f0bf9679b85a5cd1e727aaa0ae5f132e6b46020526040902080546106a6919061306390613766565b6000825580601f10613073575050565b601f01602090049060005260206000209081019061070d91905b808211156130a1576000815560010161308d565b5090565b6001600160e01b03198116811461070d57600080fd5b6000602082840312156130cd57600080fd5b81356106b7816130a5565b60005b838110156130f35781810151838201526020016130db565b50506000910152565b600081518084526131148160208601602086016130d8565b601f01601f19169290920160200192915050565b6020815260006106b760208301846130fc565b60006020828403121561314d57600080fd5b5035919050565b6001600160a01b038116811461070d57600080fd5b6000806040838503121561317c57600080fd5b823561318781613154565b946020939093013593505050565b6000602082840312156131a757600080fd5b81356106b781613154565b6000806000606084860312156131c757600080fd5b83356131d281613154565b925060208401356131e281613154565b929592945050506040919091013590565b634e487b7160e01b600052604160045260246000fd5b604051601f8201601f1916810167ffffffffffffffff81118282101715613232576132326131f3565b604052919050565b600067ffffffffffffffff831115613254576132546131f3565b613267601f8401601f1916602001613209565b905082815283838301111561327b57600080fd5b828260208301376000602084830101529392505050565b6000602082840312156132a457600080fd5b813567ffffffffffffffff8111156132bb57600080fd5b8201601f810184136132cc57600080fd5b61202f8482356020840161323a565b60008083601f8401126132ed57600080fd5b50813567ffffffffffffffff81111561330557600080fd5b6020830191508360208260051b85010111156121e957600080fd5b6000806000806040858703121561333657600080fd5b843567ffffffffffffffff8082111561334e57600080fd5b61335a888389016132db565b9096509450602087013591508082111561337357600080fd5b818701915087601f83011261338757600080fd5b81358181111561339657600080fd5b8860208260061b85010111156133ab57600080fd5b95989497505060200194505050565b600080604083850312156133cd57600080fd5b8235915060208084013567ffffffffffffffff808211156133ed57600080fd5b818601915086601f83011261340157600080fd5b813581811115613413576134136131f3565b8060051b9150613424848301613209565b818152918301840191848101908984111561343e57600080fd5b938501935b8385101561345c57843582529385019390850190613443565b8096505050505050509250929050565b6000806040838503121561347f57600080fd5b823561348a81613154565b91506020830135801515811461349f57600080fd5b809150509250929050565b600080602083850312156134bd57600080fd5b823567ffffffffffffffff8111156134d457600080fd5b6134e0858286016132db565b90969095509350505050565b6000602080830181845280855180835260408601915060408160051b870101925083870160005b8281101561354157603f1988860301845261352f8583516130fc565b94509285019290850190600101613513565b5092979650505050505050565b6000806000806080858703121561356457600080fd5b843561356f81613154565b9350602085013561357f81613154565b925060408501359150606085013567ffffffffffffffff8111156135a257600080fd5b8501601f810187136135b357600080fd5b6135c28782356020840161323a565b91505092959194509250565b600080604083850312156135e157600080fd5b82356135ec81613154565b9150602083013561349f81613154565b6020808252602b908201527f417263616469616e73496e7465726e616c2e5f6d696e743a20496e76616c696460408201526a081c185e48185b5bdd5b9d60aa1b606082015260800190565b634e487b7160e01b600052601160045260246000fd5b8181038181111561053557610535613647565b6020808252603b908201527f417263616469616e73496e7465726e616c2e5f6d696e743a2055736572206d6160408201527f78696d756d206d696e74656420746f6b656e7320726561636865640000000000606082015260800190565b6000600182016136df576136df613647565b5060010190565b8082018082111561053557610535613647565b634e487b7160e01b600052603260045260246000fd5b6000808335601e1984360301811261372657600080fd5b83018035915067ffffffffffffffff82111561374157600080fd5b6020019150368190038213156121e957600080fd5b8183823760009101908152919050565b600181811c9082168061377a57607f821691505b60208210810361379a57634e487b7160e01b600052602260045260246000fd5b50919050565b6040815260008084546137b281613766565b80604086015260606001808416600081146137d457600181146137ee5761381f565b60ff1985168884015283151560051b88018301955061381f565b8960005260208060002060005b868110156138165781548b82018701529084019082016137fb565b8a018501975050505b5050505050828103602084015261383681856130fc565b95945050505050565b601f8211156106a657600081815260208120601f850160051c810160208610156138665750805b601f850160051c820191505b8181101561388557828155600101613872565b505050505050565b815167ffffffffffffffff8111156138a7576138a76131f3565b6138bb816138b58454613766565b8461383f565b602080601f8311600181146138f057600084156138d85750858301515b600019600386901b1c1916600185901b178555613885565b600085815260208120601f198616915b8281101561391f57888601518255948401946001909101908401613900565b508582101561393d5787850151600019600388901b60f8161c191681555b5050505050600190811b01905550565b60006020828403121561395f57600080fd5b81516106b781613154565b60006020828403121561397c57600080fd5b5051919050565b6001600160a01b0394851681529290931660208301526040820152606081019190915260a06080820181905260009082015260c00190565b81356139c681613154565b6001600160a01b0381166bffffffffffffffffffffffff60a01b83541617825550602082013560018201555050565b6020808252810182905260006001600160fb1b03831115613a1557600080fd5b8260051b80856040850137919091016040019392505050565b60008351613a408184602088016130d8565b835190830190613a548183602088016130d8565b01949350505050565b7f416363657373436f6e74726f6c3a206163636f756e7420000000000000000000815260008351613a958160178501602088016130d8565b7001034b99036b4b9b9b4b733903937b6329607d1b6017918401918201528351613ac68160288401602088016130d8565b01602801949350505050565b60008551613ae4818460208a016130d8565b919091019384525060609190911b6bffffffffffffffffffffffff191660208301526034820152605401919050565b634e487b7160e01b600052601260045260246000fd5b600082613b3857613b38613b13565b500490565b600082613b4c57613b4c613b13565b500690565b60006001600160a01b03808716835280861660208401525083604083015260806060830152613b8360808301846130fc565b9695505050505050565b600060208284031215613b9f57600080fd5b81516106b7816130a5565b808202811582820484141761053557610535613647565b6020808252825182820181905260009190848201906040850190845b81811015613bf957835183529284019291840191600101613bdd565b50909695505050505050565b634e487b7160e01b600052603160045260246000fd5b60008251613c2d8184602087016130d8565b919091019291505056fe4552433732313a207472616e7366657220746f206e6f6e20455243373231526563656976657220696d706c656d656e7465723c7bf052874fa81625121783266a03507bd2cd48b16e571c01a04e8dd3fb07a687a01bd38845081b30641ebc639dfadf787bd49017c45985af2341fe932c746399574a7094154bb123ae6ae102096f0bf9679b85a5cd1e727aaa0ae5f132e6b1a2646970667358221220e552bc316a79cd23276f2f1fc561f4296555ccc6ff9e3b1fdebb6f9d34d8f8fa64736f6c63430008130033",
  "devdoc": {
    "kind": "dev",
    "methods": {
      "approve(address,uint256)": {
        "params": {
          "operator": "address to be approved",
          "tokenId": "token to approve"
        }
      },
      "balanceOf(address)": {
        "returns": {
          "_0": "quantity of tokens held"
        }
      },
      "getApproved(uint256)": {
        "params": {
          "tokenId": "token to query"
        },
        "returns": {
          "_0": "address approved to spend token"
        }
      },
      "isApprovedForAll(address,address)": {
        "params": {
          "account": "address to query for approval granted",
          "operator": "address to query for approval received"
        },
        "returns": {
          "_0": "whether operator is approved to spend tokens held by account"
        }
      },
      "multicall(bytes[])": {
        "params": {
          "data": "array of function call data payloads"
        },
        "returns": {
          "results": "array of function call results"
        }
      },
      "ownerOf(uint256)": {
        "params": {
          "tokenId": "token to query"
        },
        "returns": {
          "_0": "token owner"
        }
      },
      "safeTransferFrom(address,address,uint256)": {
        "params": {
          "from": "sender of token",
          "to": "receiver of token",
          "tokenId": "token id"
        }
      },
      "safeTransferFrom(address,address,uint256,bytes)": {
        "params": {
          "data": "data payload",
          "from": "sender of token",
          "to": "receiver of token",
          "tokenId": "token id"
        }
      },
      "setApprovalForAll(address,bool)": {
        "params": {
          "operator": "address to be approved",
          "status": "approval status"
        }
      },
      "supportsInterface(bytes4)": {
        "params": {
          "interfaceId": "interface id"
        },
        "returns": {
          "_0": "bool whether interface is supported"
        }
      },
      "tokenByIndex(uint256)": {
        "params": {
          "index": "position in global token list to query"
        },
        "returns": {
          "_0": "id of retrieved token"
        }
      },
      "tokenOfOwnerByIndex(address,uint256)": {
        "params": {
          "index": "position in owner's token list to query",
          "owner": "token holder to query"
        },
        "returns": {
          "_0": "id of retrieved token"
        }
      },
      "totalSupply()": {
        "returns": {
          "_0": "total supply"
        }
      },
      "transferFrom(address,address,uint256)": {
        "params": {
          "from": "sender of token",
          "to": "receiver of token",
          "tokenId": "token id"
        }
      }
    },
    "version": 1
  },
  "userdoc": {
    "kind": "user",
    "methods": {
      "approve(address,uint256)": {
        "notice": "grant approval to given account to spend token"
      },
      "balanceOf(address)": {
        "notice": "query the balance of given address"
      },
      "getApproved(uint256)": {
        "notice": "get approval status for given token"
      },
      "isApprovedForAll(address,address)": {
        "notice": "query approval status of given operator with respect to given address"
      },
      "multicall(bytes[])": {
        "notice": "batch function calls to the contract and return the results of each"
      },
      "name()": {
        "notice": "inheritdoc IERC721Metadata"
      },
      "ownerOf(uint256)": {
        "notice": "query the owner of given token"
      },
      "safeTransferFrom(address,address,uint256)": {
        "notice": "transfer token between given addresses, checking for ERC721Receiver implementation if applicable"
      },
      "safeTransferFrom(address,address,uint256,bytes)": {
        "notice": "transfer token between given addresses, checking for ERC721Receiver implementation if applicable"
      },
      "setApprovalForAll(address,bool)": {
        "notice": "grant approval to or revoke approval from given account to spend all tokens held by sender"
      },
      "supportsInterface(bytes4)": {
        "notice": "query whether contract has registered support for given interface"
      },
      "symbol()": {
        "notice": "inheritdoc IERC721Metadata"
      },
      "tokenByIndex(uint256)": {
        "notice": "get token at given internal storage index"
      },
      "tokenOfOwnerByIndex(address,uint256)": {
        "notice": "get token of given owner at given internal storage index"
      },
      "totalSupply()": {
        "notice": "get total token supply"
      },
      "transferFrom(address,address,uint256)": {
        "notice": "transfer token between given addresses, without checking for ERC721Receiver implementation if applicable"
      }
    },
    "version": 1
  },
  "storageLayout": {
    "storage": [],
    "types": null
  }
}