{
  "address": "0x13ba7eF92D2cFD23c6d6bCd10853DF4BCDa32416",
  "abi": [
    {
      "inputs": [],
      "name": "AddressUtils__NotContract",
      "type": "error"
    },
    {
      "inputs": [],
      "name": "Arcadians_InvalidPayAmount",
      "type": "error"
    },
    {
      "inputs": [],
      "name": "Arcadians_MaximumArcadiansSupplyReached",
      "type": "error"
    },
    {
      "inputs": [],
      "name": "Arcadians_MaximumMintedArcadiansPerUserReached",
      "type": "error"
    },
    {
      "inputs": [],
      "name": "Arcadians_NotElegibleToMint",
      "type": "error"
    },
    {
      "inputs": [],
      "name": "ERC165Base__InvalidInterfaceId",
      "type": "error"
    },
    {
      "inputs": [],
      "name": "ERC721Base__BalanceQueryZeroAddress",
      "type": "error"
    },
    {
      "inputs": [],
      "name": "ERC721Base__ERC721ReceiverNotImplemented",
      "type": "error"
    },
    {
      "inputs": [],
      "name": "ERC721Base__InvalidOwner",
      "type": "error"
    },
    {
      "inputs": [],
      "name": "ERC721Base__MintToZeroAddress",
      "type": "error"
    },
    {
      "inputs": [],
      "name": "ERC721Base__NonExistentToken",
      "type": "error"
    },
    {
      "inputs": [],
      "name": "ERC721Base__NotOwnerOrApproved",
      "type": "error"
    },
    {
      "inputs": [],
      "name": "ERC721Base__NotTokenOwner",
      "type": "error"
    },
    {
      "inputs": [],
      "name": "ERC721Base__SelfApproval",
      "type": "error"
    },
    {
      "inputs": [],
      "name": "ERC721Base__TokenAlreadyMinted",
      "type": "error"
    },
    {
      "inputs": [],
      "name": "ERC721Base__TransferToZeroAddress",
      "type": "error"
    },
    {
      "inputs": [],
      "name": "ERC721Metadata__NonExistentToken",
      "type": "error"
    },
    {
      "inputs": [],
      "name": "EnumerableMap__IndexOutOfBounds",
      "type": "error"
    },
    {
      "inputs": [],
      "name": "EnumerableMap__NonExistentKey",
      "type": "error"
    },
    {
      "inputs": [],
      "name": "EnumerableSet__IndexOutOfBounds",
      "type": "error"
    },
    {
      "inputs": [],
      "name": "Inventory_ArcadianNotUnique",
      "type": "error"
    },
    {
      "inputs": [],
      "name": "Inventory_CouponNeededToModifyBaseSlots",
      "type": "error"
    },
    {
      "inputs": [],
      "name": "Inventory_InputDataMismatch",
      "type": "error"
    },
    {
      "inputs": [],
      "name": "Inventory_InsufficientItemBalance",
      "type": "error"
    },
    {
      "inputs": [],
      "name": "Inventory_InvalidERC1155Contract",
      "type": "error"
    },
    {
      "inputs": [],
      "name": "Inventory_InvalidSlotId",
      "type": "error"
    },
    {
      "inputs": [],
      "name": "Inventory_ItemAlreadyEquippedInSlot",
      "type": "error"
    },
    {
      "inputs": [],
      "name": "Inventory_ItemDoesNotHaveSlotAssigned",
      "type": "error"
    },
    {
      "inputs": [],
      "name": "Inventory_ItemNotSpecified",
      "type": "error"
    },
    {
      "inputs": [],
      "name": "Inventory_NonBaseSlot",
      "type": "error"
    },
    {
      "inputs": [],
      "name": "Inventory_NotAllBaseSlotsEquipped",
      "type": "error"
    },
    {
      "inputs": [],
      "name": "Inventory_NotArcadianOwner",
      "type": "error"
    },
    {
      "inputs": [],
      "name": "Inventory_SlotNotSpecified",
      "type": "error"
    },
    {
      "inputs": [],
      "name": "Inventory_UnequippingBaseSlot",
      "type": "error"
    },
    {
      "inputs": [],
      "name": "Inventory_UnequippingEmptySlot",
      "type": "error"
    },
    {
      "inputs": [],
      "name": "Inventory_UnequippingPermanentSlot",
      "type": "error"
    },
    {
      "inputs": [],
      "name": "ReentrancyGuard__ReentrantCall",
      "type": "error"
    },
    {
      "inputs": [],
      "name": "Roles_MissingAdminRole",
      "type": "error"
    },
    {
      "inputs": [],
      "name": "Roles_MissingAutomationRole",
      "type": "error"
    },
    {
      "inputs": [],
      "name": "Roles_MissingManagerRole",
      "type": "error"
    },
    {
      "inputs": [],
      "name": "SolidStateERC721__PayableApproveNotSupported",
      "type": "error"
    },
    {
      "inputs": [],
      "name": "SolidStateERC721__PayableTransferNotSupported",
      "type": "error"
    },
    {
      "inputs": [],
      "name": "Whitelist_ClaimInactive",
      "type": "error"
    },
    {
      "inputs": [],
      "name": "Whitelist_ClaimStateAlreadyUpdated",
      "type": "error"
    },
    {
      "inputs": [],
      "name": "Whitelist_ExceedsElegibleAmount",
      "type": "error"
    },
    {
      "inputs": [],
      "name": "Whitelist_InputDataMismatch",
      "type": "error"
    },
    {
      "anonymous": false,
      "inputs": [
        {
          "indexed": true,
          "internalType": "address",
          "name": "owner",
          "type": "address"
        },
        {
          "indexed": true,
          "internalType": "address",
          "name": "operator",
          "type": "address"
        },
        {
          "indexed": true,
          "internalType": "uint256",
          "name": "tokenId",
          "type": "uint256"
        }
      ],
      "name": "Approval",
      "type": "event"
    },
    {
      "anonymous": false,
      "inputs": [
        {
          "indexed": true,
          "internalType": "address",
          "name": "owner",
          "type": "address"
        },
        {
          "indexed": true,
          "internalType": "address",
          "name": "operator",
          "type": "address"
        },
        {
          "indexed": false,
          "internalType": "bool",
          "name": "approved",
          "type": "bool"
        }
      ],
      "name": "ApprovalForAll",
      "type": "event"
    },
    {
      "anonymous": false,
      "inputs": [
        {
          "indexed": true,
          "internalType": "address",
          "name": "by",
          "type": "address"
        },
        {
          "indexed": true,
          "internalType": "address",
          "name": "to",
          "type": "address"
        },
        {
          "indexed": false,
          "internalType": "uint256[]",
          "name": "slotsIds",
          "type": "uint256[]"
        },
        {
          "indexed": false,
          "internalType": "uint256[]",
          "name": "amounts",
          "type": "uint256[]"
        }
      ],
      "name": "BaseModifierCouponAdded",
      "type": "event"
    },
    {
      "anonymous": false,
      "inputs": [
        {
          "indexed": true,
          "internalType": "address",
          "name": "account",
          "type": "address"
        },
        {
          "indexed": false,
          "internalType": "uint256[]",
          "name": "slotsIds",
          "type": "uint256[]"
        }
      ],
      "name": "BaseModifierCouponConsumed",
      "type": "event"
    },
    {
      "anonymous": false,
      "inputs": [
        {
          "indexed": true,
          "internalType": "address",
          "name": "by",
          "type": "address"
        },
        {
          "indexed": false,
          "internalType": "string",
          "name": "oldBaseURI",
          "type": "string"
        },
        {
          "indexed": false,
          "internalType": "string",
          "name": "newBaseURI",
          "type": "string"
        }
      ],
      "name": "BaseURIChanged",
      "type": "event"
    },
    {
      "anonymous": false,
      "inputs": [
        {
          "indexed": true,
          "internalType": "address",
          "name": "by",
          "type": "address"
        },
        {
          "indexed": false,
          "internalType": "uint256",
          "name": "slotId",
          "type": "uint256"
        }
      ],
      "name": "ItemsAllowedInSlotUpdated",
      "type": "event"
    },
    {
      "anonymous": false,
      "inputs": [
        {
          "indexed": true,
          "internalType": "address",
          "name": "by",
          "type": "address"
        },
        {
          "indexed": true,
          "internalType": "uint256",
          "name": "arcadianId",
          "type": "uint256"
        },
        {
          "indexed": false,
          "internalType": "uint256[]",
          "name": "slots",
          "type": "uint256[]"
        }
      ],
      "name": "ItemsEquipped",
      "type": "event"
    },
    {
      "anonymous": false,
      "inputs": [
        {
          "indexed": true,
          "internalType": "address",
          "name": "by",
          "type": "address"
        },
        {
          "indexed": true,
          "internalType": "uint256",
          "name": "arcadianId",
          "type": "uint256"
        },
        {
          "indexed": false,
          "internalType": "uint256[]",
          "name": "slots",
          "type": "uint256[]"
        }
      ],
      "name": "ItemsUnequipped",
      "type": "event"
    },
    {
      "anonymous": false,
      "inputs": [
        {
          "indexed": true,
          "internalType": "address",
          "name": "by",
          "type": "address"
        },
        {
          "indexed": false,
          "internalType": "uint256",
          "name": "oldMaxMintPerUser",
          "type": "uint256"
        },
        {
          "indexed": false,
          "internalType": "uint256",
          "name": "newMaxMintPerUser",
          "type": "uint256"
        }
      ],
      "name": "MaxMintPerUserChanged",
      "type": "event"
    },
    {
      "anonymous": false,
      "inputs": [
        {
          "indexed": true,
          "internalType": "address",
          "name": "by",
          "type": "address"
        },
        {
          "indexed": false,
          "internalType": "uint256",
          "name": "oldMintPrice",
          "type": "uint256"
        },
        {
          "indexed": false,
          "internalType": "uint256",
          "name": "newMintPrice",
          "type": "uint256"
        }
      ],
      "name": "MintPriceChanged",
      "type": "event"
    },
    {
      "anonymous": false,
      "inputs": [
        {
          "indexed": true,
          "internalType": "bytes32",
          "name": "role",
          "type": "bytes32"
        },
        {
          "indexed": true,
          "internalType": "bytes32",
          "name": "previousAdminRole",
          "type": "bytes32"
        },
        {
          "indexed": true,
          "internalType": "bytes32",
          "name": "newAdminRole",
          "type": "bytes32"
        }
      ],
      "name": "RoleAdminChanged",
      "type": "event"
    },
    {
      "anonymous": false,
      "inputs": [
        {
          "indexed": true,
          "internalType": "bytes32",
          "name": "role",
          "type": "bytes32"
        },
        {
          "indexed": true,
          "internalType": "address",
          "name": "account",
          "type": "address"
        },
        {
          "indexed": true,
          "internalType": "address",
          "name": "sender",
          "type": "address"
        }
      ],
      "name": "RoleGranted",
      "type": "event"
    },
    {
      "anonymous": false,
      "inputs": [
        {
          "indexed": true,
          "internalType": "bytes32",
          "name": "role",
          "type": "bytes32"
        },
        {
          "indexed": true,
          "internalType": "address",
          "name": "account",
          "type": "address"
        },
        {
          "indexed": true,
          "internalType": "address",
          "name": "sender",
          "type": "address"
        }
      ],
      "name": "RoleRevoked",
      "type": "event"
    },
    {
      "anonymous": false,
      "inputs": [
        {
          "indexed": true,
          "internalType": "address",
          "name": "by",
          "type": "address"
        },
        {
          "indexed": false,
          "internalType": "uint256",
          "name": "slotId",
          "type": "uint256"
        },
        {
          "indexed": false,
          "internalType": "bool",
          "name": "permanent",
          "type": "bool"
        },
        {
          "indexed": false,
          "internalType": "bool",
          "name": "isBase",
          "type": "bool"
        }
      ],
      "name": "SlotCreated",
      "type": "event"
    },
    {
      "anonymous": false,
      "inputs": [
        {
          "indexed": true,
          "internalType": "address",
          "name": "from",
          "type": "address"
        },
        {
          "indexed": true,
          "internalType": "address",
          "name": "to",
          "type": "address"
        },
        {
          "indexed": true,
          "internalType": "uint256",
          "name": "tokenId",
          "type": "uint256"
        }
      ],
      "name": "Transfer",
      "type": "event"
    },
    {
      "anonymous": false,
      "inputs": [
        {
          "indexed": false,
          "internalType": "address",
          "name": "account",
          "type": "address"
        },
        {
          "indexed": false,
          "internalType": "enum WhitelistStorage.PoolId",
          "name": "poolId",
          "type": "uint8"
        },
        {
          "indexed": false,
          "internalType": "uint256",
          "name": "totalElegibleAmount",
          "type": "uint256"
        },
        {
          "indexed": false,
          "internalType": "uint256",
          "name": "totalClaimedAmount",
          "type": "uint256"
        }
      ],
      "name": "WhitelistBalanceChanged",
      "type": "event"
    },
    {
      "inputs": [
        {
          "internalType": "address",
          "name": "operator",
          "type": "address"
        },
        {
          "internalType": "uint256",
          "name": "tokenId",
          "type": "uint256"
        }
      ],
      "name": "approve",
      "outputs": [],
      "stateMutability": "payable",
      "type": "function"
    },
    {
      "inputs": [
        {
          "internalType": "address",
          "name": "account",
          "type": "address"
        }
      ],
      "name": "availableMints",
      "outputs": [
        {
          "internalType": "uint256",
          "name": "balance",
          "type": "uint256"
        }
      ],
      "stateMutability": "view",
      "type": "function"
    },
    {
      "inputs": [
        {
          "internalType": "address",
          "name": "account",
          "type": "address"
        }
      ],
      "name": "balanceOf",
      "outputs": [
        {
          "internalType": "uint256",
          "name": "",
          "type": "uint256"
        }
      ],
      "stateMutability": "view",
      "type": "function"
    },
    {
      "inputs": [],
      "name": "baseURI",
      "outputs": [
        {
          "internalType": "string",
          "name": "",
          "type": "string"
        }
      ],
      "stateMutability": "view",
      "type": "function"
    },
    {
      "inputs": [],
      "name": "closePublicMint",
      "outputs": [],
      "stateMutability": "nonpayable",
      "type": "function"
    },
    {
      "inputs": [
        {
          "internalType": "uint256",
          "name": "tokenId",
          "type": "uint256"
        }
      ],
      "name": "getApproved",
      "outputs": [
        {
          "internalType": "address",
          "name": "",
          "type": "address"
        }
      ],
      "stateMutability": "view",
      "type": "function"
    },
    {
      "inputs": [
        {
          "internalType": "address",
          "name": "account",
          "type": "address"
        },
        {
          "internalType": "address",
          "name": "operator",
          "type": "address"
        }
      ],
      "name": "isApprovedForAll",
      "outputs": [
        {
          "internalType": "bool",
          "name": "",
          "type": "bool"
        }
      ],
      "stateMutability": "view",
      "type": "function"
    },
    {
      "inputs": [],
      "name": "maxMintPerUser",
      "outputs": [
        {
          "internalType": "uint256",
          "name": "",
          "type": "uint256"
        }
      ],
      "stateMutability": "view",
      "type": "function"
    },
    {
      "inputs": [],
      "name": "maxSupply",
      "outputs": [
        {
          "internalType": "uint256",
          "name": "",
          "type": "uint256"
        }
      ],
      "stateMutability": "pure",
      "type": "function"
    },
    {
      "inputs": [
        {
          "components": [
            {
              "internalType": "address",
              "name": "erc721Contract",
              "type": "address"
            },
            {
              "internalType": "uint256",
              "name": "id",
              "type": "uint256"
            }
          ],
          "internalType": "struct InventoryStorage.Item[]",
          "name": "itemsToEquip",
          "type": "tuple[]"
        }
      ],
      "name": "mintAndEquip",
      "outputs": [],
      "stateMutability": "payable",
      "type": "function"
    },
    {
      "inputs": [],
      "name": "mintPrice",
      "outputs": [
        {
          "internalType": "uint256",
          "name": "",
          "type": "uint256"
        }
      ],
      "stateMutability": "view",
      "type": "function"
    },
    {
      "inputs": [
        {
          "internalType": "bytes[]",
          "name": "data",
          "type": "bytes[]"
        }
      ],
      "name": "multicall",
      "outputs": [
        {
          "internalType": "bytes[]",
          "name": "results",
          "type": "bytes[]"
        }
      ],
      "stateMutability": "nonpayable",
      "type": "function"
    },
    {
      "inputs": [],
      "name": "name",
      "outputs": [
        {
          "internalType": "string",
          "name": "",
          "type": "string"
        }
      ],
      "stateMutability": "view",
      "type": "function"
    },
    {
      "inputs": [],
      "name": "openPublicMint",
      "outputs": [],
      "stateMutability": "nonpayable",
      "type": "function"
    },
    {
      "inputs": [
        {
          "internalType": "uint256",
          "name": "tokenId",
          "type": "uint256"
        }
      ],
      "name": "ownerOf",
      "outputs": [
        {
          "internalType": "address",
          "name": "",
          "type": "address"
        }
      ],
      "stateMutability": "view",
      "type": "function"
    },
    {
      "inputs": [],
      "name": "publicMintOpen",
      "outputs": [
        {
          "internalType": "bool",
          "name": "",
          "type": "bool"
        }
      ],
      "stateMutability": "view",
      "type": "function"
    },
    {
      "inputs": [
        {
          "internalType": "address",
          "name": "from",
          "type": "address"
        },
        {
          "internalType": "address",
          "name": "to",
          "type": "address"
        },
        {
          "internalType": "uint256",
          "name": "tokenId",
          "type": "uint256"
        }
      ],
      "name": "safeTransferFrom",
      "outputs": [],
      "stateMutability": "payable",
      "type": "function"
    },
    {
      "inputs": [
        {
          "internalType": "address",
          "name": "from",
          "type": "address"
        },
        {
          "internalType": "address",
          "name": "to",
          "type": "address"
        },
        {
          "internalType": "uint256",
          "name": "tokenId",
          "type": "uint256"
        },
        {
          "internalType": "bytes",
          "name": "data",
          "type": "bytes"
        }
      ],
      "name": "safeTransferFrom",
      "outputs": [],
      "stateMutability": "payable",
      "type": "function"
    },
    {
      "inputs": [
        {
          "internalType": "address",
          "name": "operator",
          "type": "address"
        },
        {
          "internalType": "bool",
          "name": "status",
          "type": "bool"
        }
      ],
      "name": "setApprovalForAll",
      "outputs": [],
      "stateMutability": "nonpayable",
      "type": "function"
    },
    {
      "inputs": [
        {
          "internalType": "string",
          "name": "newBaseURI",
          "type": "string"
        }
      ],
      "name": "setBaseURI",
      "outputs": [],
      "stateMutability": "nonpayable",
      "type": "function"
    },
    {
      "inputs": [
        {
          "internalType": "uint256",
          "name": "newMaxMintPerUser",
          "type": "uint256"
        }
      ],
      "name": "setMaxMintPerUser",
      "outputs": [],
      "stateMutability": "nonpayable",
      "type": "function"
    },
    {
      "inputs": [
        {
          "internalType": "uint256",
          "name": "newMintPrice",
          "type": "uint256"
        }
      ],
      "name": "setMintPrice",
      "outputs": [],
      "stateMutability": "nonpayable",
      "type": "function"
    },
    {
      "inputs": [
        {
          "internalType": "bytes4",
          "name": "interfaceId",
          "type": "bytes4"
        }
      ],
      "name": "supportsInterface",
      "outputs": [
        {
          "internalType": "bool",
          "name": "",
          "type": "bool"
        }
      ],
      "stateMutability": "view",
      "type": "function"
    },
    {
      "inputs": [],
      "name": "symbol",
      "outputs": [
        {
          "internalType": "string",
          "name": "",
          "type": "string"
        }
      ],
      "stateMutability": "view",
      "type": "function"
    },
    {
      "inputs": [
        {
          "internalType": "uint256",
          "name": "index",
          "type": "uint256"
        }
      ],
      "name": "tokenByIndex",
      "outputs": [
        {
          "internalType": "uint256",
          "name": "",
          "type": "uint256"
        }
      ],
      "stateMutability": "view",
      "type": "function"
    },
    {
      "inputs": [
        {
          "internalType": "address",
          "name": "owner",
          "type": "address"
        },
        {
          "internalType": "uint256",
          "name": "index",
          "type": "uint256"
        }
      ],
      "name": "tokenOfOwnerByIndex",
      "outputs": [
        {
          "internalType": "uint256",
          "name": "",
          "type": "uint256"
        }
      ],
      "stateMutability": "view",
      "type": "function"
    },
    {
      "inputs": [
        {
          "internalType": "uint256",
          "name": "tokenId",
          "type": "uint256"
        }
      ],
      "name": "tokenURI",
      "outputs": [
        {
          "internalType": "string",
          "name": "",
          "type": "string"
        }
      ],
      "stateMutability": "view",
      "type": "function"
    },
    {
      "inputs": [],
      "name": "totalMinted",
      "outputs": [
        {
          "internalType": "uint256",
          "name": "",
          "type": "uint256"
        }
      ],
      "stateMutability": "view",
      "type": "function"
    },
    {
      "inputs": [],
      "name": "totalSupply",
      "outputs": [
        {
          "internalType": "uint256",
          "name": "",
          "type": "uint256"
        }
      ],
      "stateMutability": "view",
      "type": "function"
    },
    {
      "inputs": [
        {
          "internalType": "address",
          "name": "from",
          "type": "address"
        },
        {
          "internalType": "address",
          "name": "to",
          "type": "address"
        },
        {
          "internalType": "uint256",
          "name": "tokenId",
          "type": "uint256"
        }
      ],
      "name": "transferFrom",
      "outputs": [],
      "stateMutability": "payable",
      "type": "function"
    }
  ],
  "transactionHash": "0xfdb866a4d8d3cb9fd8af013766caa0642b78d281c57a117209d17a2a6f75fa59",
  "args": [],
  "numDeployments": 8,
  "solcInputHash": "645d4793aba1021aa461a371a9993d81",
  "bytecode": "0x608060405234801561001057600080fd5b506137e1806100206000396000f3fe6080604052600436106101cd5760003560e01c80636c0360eb116100f7578063b88d4fde11610095578063d5abeb0111610064578063d5abeb01146104c7578063d66b3eda146104dc578063e985e9c5146104fc578063f4a0a5281461051c57600080fd5b8063b88d4fde14610448578063bcc9ca5b1461045b578063c87b56dd14610492578063d304c4bc146104b257600080fd5b806395d89b41116100d157806395d89b41146103e6578063a22cb465146103fb578063a2309ff814610289578063ac9650d81461041b57600080fd5b80636c0360eb1461039157806370a08231146103a657806383ccaef7146103c657600080fd5b80632f745c591161016f578063557d694c1161013e578063557d694c1461032757806355f804b31461033c5780636352211e1461035c5780636817c76c1461037c57600080fd5b80632f745c59146102bf57806342842e0e146102df57806345f7e06e146102f25780634f6ccce71461030757600080fd5b8063095ea7b3116101ab578063095ea7b3146102615780630a0678991461027657806318160ddd1461028957806323b872dd146102ac57600080fd5b806301ffc9a7146101d257806306fdde0314610207578063081812fc14610229575b600080fd5b3480156101de57600080fd5b506101f26101ed366004612dba565b61053c565b60405190151581526020015b60405180910390f35b34801561021357600080fd5b5061021c61057f565b6040516101fe9190612e27565b34801561023557600080fd5b50610249610244366004612e3a565b61058e565b6040516001600160a01b0390911681526020016101fe565b61027461026f366004612e68565b610599565b005b610274610284366004612e94565b6105a7565b34801561029557600080fd5b5061029e610610565b6040519081526020016101fe565b6102746102ba366004612f09565b61061a565b3480156102cb57600080fd5b5061029e6102da366004612e68565b61062a565b6102746102ed366004612f09565b61063d565b3480156102fe57600080fd5b50610274610648565b34801561031357600080fd5b5061029e610322366004612e3a565b6106a4565b34801561033357600080fd5b506102746106af565b34801561034857600080fd5b50610274610357366004612fd6565b610702565b34801561036857600080fd5b50610249610377366004612e3a565b610736565b34801561038857600080fd5b5061029e610741565b34801561039d57600080fd5b5061021c61076b565b3480156103b257600080fd5b5061029e6103c136600461301f565b610775565b3480156103d257600080fd5b506102746103e1366004612e3a565b610780565b3480156103f257600080fd5b5061021c6107b1565b34801561040757600080fd5b5061027461041636600461303c565b6107bb565b34801561042757600080fd5b5061043b61043636600461307a565b6107c5565b6040516101fe91906130dd565b61027461045636600461313f565b6108e0565b34801561046757600080fd5b507f87a01bd38845081b30641ebc639dfadf787bd49017c45985af2341fe932c74655460ff166101f2565b34801561049e57600080fd5b5061021c6104ad366004612e3a565b6108f2565b3480156104be57600080fd5b5061029e6108fd565b3480156104d357600080fd5b50611a0a61029e565b3480156104e857600080fd5b5061029e6104f736600461301f565b610907565b34801561050857600080fd5b506101f26105173660046131bf565b610956565b34801561052857600080fd5b50610274610537366004612e3a565b610962565b6001600160e01b0319811660009081527ffc606c433378e3a7e0a6a531deac289b66caa1b4aa8554fd4ab2c6f1570f92d8602052604081205460ff165b92915050565b6060610589610993565b905090565b600061057982610a32565b6105a38282610a95565b5050565b7f09acf4e54214992e70883cf7dcd6957ff2c71cd9e14df4bec4383bc0d11607dc80546002036105ea57604051635db5c7cd60e11b815260040160405180910390fd5b6002815560006105f8610b98565b90506106078185856001610d48565b50600190555050565b600061058961110d565b610625838383611126565b505050565b60006106368383611164565b9392505050565b6106258383836111a5565b6106596106536111c0565b336111ea565b6106765760405163d0befa1d60e01b815260040160405180910390fd5b7f87a01bd38845081b30641ebc639dfadf787bd49017c45985af2341fe932c7465805460ff19166001179055565b600061057982611221565b6106ba6106536111c0565b6106d75760405163d0befa1d60e01b815260040160405180910390fd5b7f87a01bd38845081b30641ebc639dfadf787bd49017c45985af2341fe932c7465805460ff19169055565b61070d6106536111c0565b61072a5760405163d0befa1d60e01b815260040160405180910390fd5b6107338161123b565b50565b6000610579826112b5565b60006105897f87a01bd38845081b30641ebc639dfadf787bd49017c45985af2341fe932c74645490565b60606105896112f9565b600061057982611318565b61078b6106536111c0565b6107a85760405163d0befa1d60e01b815260040160405180910390fd5b61073381611381565b60606105896113d0565b6105a382826113ef565b60608167ffffffffffffffff8111156107e0576107e0612f4a565b60405190808252806020026020018201604052801561081357816020015b60608152602001906001900390816107fe5790505b50905060005b828110156108d95760008030868685818110610837576108376131ed565b90506020028101906108499190613203565b60405161085792919061324a565b600060405180830381855af49150503d8060008114610892576040519150601f19603f3d011682016040523d82523d6000602084013e610897565b606091505b509150915081156108c557808484815181106108b5576108b56131ed565b60200260200101819052506108cf565b3d6000803e3d6000fd5b5050600101610819565b5092915050565b6108ec848484846114a3565b50505050565b6060610579826114e2565b60006105896116c3565b60006109146000836116d9565b61091f60008461175e565b61092884611318565b6109329190613270565b60008051602061374c8339815191525461094c9190613270565b6105799190613283565b600061063683836117d5565b61096d6106536111c0565b61098a5760405163d0befa1d60e01b815260040160405180910390fd5b61073381611822565b606060008051602061376c83398151915280546109af90613296565b80601f01602080910402602001604051908101604052809291908181526020018280546109db90613296565b8015610a285780601f106109fd57610100808354040283529160200191610a28565b820191906000526020600020905b815481529060010190602001808311610a0b57829003601f168201915b5050505050905090565b6000610a3d82611895565b610a5a5760405163c1b843ef60e01b815260040160405180910390fd5b5060009081527f3c7bf052874fa81625121783266a03507bd2cd48b16e571c01a04e8dd3fb07a960205260409020546001600160a01b031690565b610aa08282346118af565b6000610aab826112b5565b9050806001600160a01b0316836001600160a01b031603610adf5760405163424a22cb60e01b815260040160405180910390fd5b336001600160a01b03821614801590610aff5750610afd81336117d5565b155b15610b1d57604051632f5de44f60e01b815260040160405180910390fd5b60008281527f3c7bf052874fa81625121783266a03507bd2cd48b16e571c01a04e8dd3fb07a9602052604080822080546001600160a01b0319166001600160a01b0387811691821790925591518593918516917f8c5be1e5ebec7d5bd14f71427d1e84f3dd0314c0f7b2291e5b200ac8c7c3b92591a4505050565b6000610ba26118d9565b905060008051602061374c833981519152610bbd60006118ee565b8015610bd357506000610bd16000336116d9565b115b15610bea57610be56000336001611953565b610d3a565b610bf460016118ee565b8015610c0a57506000610c086001336116d9565b115b15610c8957610c1c6001336001611953565b611a0a821115610c3f576040516320df598b60e21b815260040160405180910390fd5b6000610c4c60003361175e565b610c5533611318565b610c5f9190613270565b82549091508110610c835760405163768674b960e01b815260040160405180910390fd5b50610d3a565b600281015460ff1615610d2157611a0a821115610cb9576040516320df598b60e21b815260040160405180910390fd5b6000610cc660003361175e565b610ccf33611318565b610cd99190613270565b82549091508110610cfd5760405163768674b960e01b815260040160405180910390fd5b81600101543414610c835760405163104bb3ad60e11b815260040160405180910390fd5b604051630e64914f60e31b815260040160405180910390fd5b610d443383611cbd565b5090565b6040516331a9108f60e11b815260048101859052849030908190636352211e90602401602060405180830381865afa158015610d88573d6000803e3d6000fd5b505050506040513d601f19601f82011682018060405250810190610dac91906132d0565b6001600160a01b0316336001600160a01b031614610ddd5760405163aee05b5d60e01b815260040160405180910390fd5b6000849003610dff5760405163627652c960e11b815260040160405180910390fd5b60008051602061378c8339815191526000808667ffffffffffffffff811115610e2a57610e2a612f4a565b604051908082528060200260200182016040528015610e53578160200160208202803683370190505b50905060005b87811015610ee8576000610e858b8b8b85818110610e7957610e796131ed565b9050604002018a611cd7565b6000818152600187810160205260409091200154909150610100900460ff1615610eb75783610eb3816132ed565b9450505b80838381518110610eca57610eca6131ed565b60209081029190910101525080610ee0816132ed565b915050610e59565b50610ef289612048565b610f0f5760405163a9614f1560e01b815260040160405180910390fd5b81156110c057610f1e89612117565b610f3a5760405162ecf30560e51b815260040160405180910390fd5b856110c05760008267ffffffffffffffff811115610f5a57610f5a612f4a565b604051908082528060200260200182016040528015610f83578160200160208202803683370190505b5090506000805b8981101561107b5760008660030160008d8d85818110610fac57610fac6131ed565b610fc2926020604090920201908101915061301f565b6001600160a01b03166001600160a01b0316815260200190815260200160002060008d8d85818110610ff657610ff66131ed565b90506040020160200135815260200190815260200160002054905086600101600082815260200190815260200160002060010160019054906101000a900460ff1615611068578084848151811061104f5761104f6131ed565b602090810291909101015282611064816132ed565b9350505b5080611073816132ed565b915050610f8a565b50336001600160a01b03167f89bd170ed02db0339b3c90b91de53c2a07b48ad36cd559f2d04dd3c72521dacd836040516110b59190613306565b60405180910390a250505b88336001600160a01b03167f557dc03f902756383ba5a748ab63ec6ec44b2880dba84ad33dc6ffe670f18861836040516110fa9190613306565b60405180910390a3505050505050505050565b600061058960008051602061372c833981519152612237565b61113283838334612241565b61113c338261226c565b61115957604051632f5de44f60e01b815260040160405180910390fd5b6106258383836122f2565b6001600160a01b03821660009081527f3c7bf052874fa81625121783266a03507bd2cd48b16e571c01a04e8dd3fb07a8602052604081206106369083612481565b610625838383604051806020016040528060008152506114a3565b60007ff6deb63e40d71b08820818e006e23fcceb1fce7a499bc15b71b2526cbf9efa725b54919050565b60008281527fd3889cc5458b268d0544e5534672df1296288ca3f93cbd39bd6f497a5c62281160205260408120610636908361248d565b60006108d960008051602061372c833981519152836124af565b60405160008051602061376c8339815191529033907f92bf6a7b8937c17e6781a68d61f9fe6a5ce08604b96ca2206f311049a3a295ea9061129f907f99574a7094154bb123ae6ae102096f0bf9679b85a5cd1e727aaa0ae5f132e6b390869061334a565b60405180910390a2600281016106258382613437565b6000806112d060008051602061372c833981519152846124cd565b90506001600160a01b03811661057957604051637e1a7d8b60e01b815260040160405180910390fd5b606060008051602061376c83398151915260020180546109af90613296565b60006001600160a01b03821661134157604051630810ff9760e41b815260040160405180910390fd5b6001600160a01b03821660009081527f3c7bf052874fa81625121783266a03507bd2cd48b16e571c01a04e8dd3fb07a86020526040902061057990612237565b60008051602061374c83398151915280546040805191825260208201849052805133927f9a201d4a67373d8576462c238c27108c61b3deec32a932aac079a84cc3b7742c92908290030190a255565b606060008051602061376c83398151915260010180546109af90613296565b336001600160a01b038316036114185760405163424a22cb60e01b815260040160405180910390fd5b3360008181527f3c7bf052874fa81625121783266a03507bd2cd48b16e571c01a04e8dd3fb07aa602090815260408083206001600160a01b03871680855290835292819020805460ff191686151590811790915590519081529192917f17307eab39ab6107e8899845ad3d59bd9653f200f220920489ca2b5937696c31910160405180910390a35050565b6114af84848434612241565b6114b9338361226c565b6114d657604051632f5de44f60e01b815260040160405180910390fd5b6108ec848484846124d9565b60606114ed82611895565b61150957604051624705a760e71b815260040160405180910390fd5b60008281527f99574a7094154bb123ae6ae102096f0bf9679b85a5cd1e727aaa0ae5f132e6b460205260408120805460008051602061376c83398151915292919061155390613296565b80601f016020809104026020016040519081016040528092919081815260200182805461157f90613296565b80156115cc5780601f106115a1576101008083540402835291602001916115cc565b820191906000526020600020905b8154815290600101906020018083116115af57829003601f168201915b5050505050905060008260020180546115e490613296565b80601f016020809104026020016040519081016040528092919081815260200182805461161090613296565b801561165d5780601f106116325761010080835404028352916020019161165d565b820191906000526020600020905b81548152906001019060200180831161164057829003601f168201915b50505050509050805160000361167557509392505050565b8151156116a857808260405160200161168f9291906134f7565b6040516020818303038152906040529350505050919050565b806116b28661250d565b60405160200161168f9291906134f7565b600060008051602061374c8339815191526111e4565b60007ff38d3885e664c9638de25f02e645e1955ebebe901d7be2c2037db6a5bcbb3588600084600181111561171057611710613526565b600181111561172157611721613526565b81526020019081526020016000206001016000836001600160a01b03166001600160a01b0316815260200190815260200160002054905092915050565b60007ff38d3885e664c9638de25f02e645e1955ebebe901d7be2c2037db6a5bcbb3588600084600181111561179557611795613526565b60018111156117a6576117a6613526565b8152602080820192909252604090810160009081206001600160a01b0386168252909252902054905092915050565b6001600160a01b0391821660009081527f3c7bf052874fa81625121783266a03507bd2cd48b16e571c01a04e8dd3fb07aa6020908152604080832093909416825291909152205460ff1690565b7f87a01bd38845081b30641ebc639dfadf787bd49017c45985af2341fe932c7464546040805191825260208201839052805160008051602061374c8339815191529233927fed96032e9c101f4508a9696e8861f06aa3674be1b735fc685aed0efb83db76e992918290030190a260010155565b600061057960008051602061372c8339815191528361260e565b80156118ce5760405163b56d7c1b60e01b815260040160405180910390fd5b610625838383612626565b60006118e361110d565b610589906001613283565b60007ff38d3885e664c9638de25f02e645e1955ebebe901d7be2c2037db6a5bcbb3588600083600181111561192557611925613526565b600181111561193657611936613526565b815260208101919091526040016000206004015460ff1692915050565b7ff38d3885e664c9638de25f02e645e1955ebebe901d7be2c2037db6a5bcbb358880600085600181111561198957611989613526565b600181111561199a5761199a613526565b815260208101919091526040016000206004015460ff166119ce57604051633137c0e960e11b815260040160405180910390fd5b818160008660018111156119e4576119e4613526565b60018111156119f5576119f5613526565b81526020019081526020016000206001016000856001600160a01b03166001600160a01b03168152602001908152602001600020541015611a4957604051630f8a2c5f60e31b815260040160405180910390fd5b81816000866001811115611a5f57611a5f613526565b6001811115611a7057611a70613526565b81526020019081526020016000206001016000856001600160a01b03166001600160a01b031681526020019081526020016000206000828254611ab39190613270565b90915550829050816000866001811115611acf57611acf613526565b6001811115611ae057611ae0613526565b81526020019081526020016000206000016000856001600160a01b03166001600160a01b031681526020019081526020016000206000828254611b239190613283565b90915550829050816000866001811115611b3f57611b3f613526565b6001811115611b5057611b50613526565b81526020019081526020016000206002016000828254611b709190613283565b90915550829050816000866001811115611b8c57611b8c613526565b6001811115611b9d57611b9d613526565b81526020019081526020016000206003016000828254611bbd9190613270565b909155507f6526db8cb857c3bc972db45a7984e99efaed17f7a4e51afb85c64450133cb55c90508385836000826001811115611bfb57611bfb613526565b6001811115611c0c57611c0c613526565b81526020019081526020016000206001016000876001600160a01b03166001600160a01b0316815260200190815260200160002054846000016000896001811115611c5957611c59613526565b6001811115611c6a57611c6a613526565b81526020019081526020016000206000016000886001600160a01b03166001600160a01b0316815260200190815260200160002054604051611caf949392919061353c565b60405180910390a150505050565b6105a3828260405180602001604052806000815250612645565b600060008051602061378c8339815191527ff672b8dc84d117c1e14949d8bc3977392b5ab7de9d01b854d389cdc31bf0d43982611d17602087018761301f565b6001600160a01b03168152602080820192909252604090810160009081208784013582529092529020549150811580611d5e575060008051602061378c8339815191525482115b15611d7c576040516363efa0e360e01b815260040160405180910390fd5b82158015611da257506000828152600182810160205260409091200154610100900460ff165b15611e1357336000908152600882016020908152604080832085845290915290205460011115611de55760405163bbd28dfd60e01b815260040160405180910390fd5b33600090815260088201602090815260408083208584529091528120805491611e0d83613585565b91905055505b60008581526002820160209081526040808320858452825280832060018086019093529220015460ff168015611e52575080546001600160a01b031615155b15611e705760405163bd8a5e1560e01b815260040160405180910390fd5b611e7d602086018661301f565b81546001600160a01b039081169116148015611ea0575084602001358160010154145b15611ebe5760405163c80df0cb60e01b815260040160405180910390fd5b600086815260028301602090815260408083208684529091529020546001600160a01b031615611ef257611ef28684612679565b6000611f01602087018761301f565b604051627eeac760e11b8152336004820152602088013560248201529091506001906001600160a01b0383169062fdd58e90604401602060405180830381865afa158015611f53573d6000803e3d6000fd5b505050506040513d601f19601f82011682018060405250810190611f77919061359c565b1015611f96576040516335ba250d60e11b815260040160405180910390fd5b604051637921219560e11b8152336004820152306024820152602087013560448201526001606482015260a06084820152600060a48201526001600160a01b0382169063f242432a9060c401600060405180830381600087803b158015611ffc57600080fd5b505af1158015612010573d6000803e3d6000fd5b50505060008881526002850160209081526040808320888452909152902087915061203b82826135b5565b9050505050509392505050565b60008051602061378c833981519152805460009190825b8181101561210c576000612074826001613283565b6000818152600186810160205260409091200154909150610100900460ff1661209d57506120fa565b6000818152600185810160205260409091200154610100900460ff1680156120e75750600086815260028501602090815260408083208484529091529020546001600160a01b0316155b156120f85750600095945050505050565b505b80612104816132ed565b91505061205f565b506001949350505050565b60008051602061378c833981519152805460009190606090835b818110156121d5576000612146826001613283565b6000818152600187810160205260409091200154909150610100900460ff1661216f57506121c3565b6000878152600286016020908152604080832084845282529182902080546001820154935191936121af93899387936001600160a01b03169291016135ef565b604051602081830303815290604052945050505b806121cd816132ed565b915050612131565b50815160208301206121ea600585018261260e565b60008781526007860160205260409020549015955061220d90600586019061275e565b5061221b600585018261276a565b5060009586526007909301602052505060409092209190915590565b6000610579825490565b8015612260576040516322b1813960e01b815260040160405180910390fd5b6108ec84848484612776565b600061227782611895565b6122945760405163c1b843ef60e01b815260040160405180910390fd5b600061229f836112b5565b9050806001600160a01b0316846001600160a01b031614806122da5750836001600160a01b03166122cf84610a32565b6001600160a01b0316145b806122ea57506122ea81856117d5565b949350505050565b60006122fd826112b5565b9050836001600160a01b0316816001600160a01b03161461233157604051630f2db4ad60e01b815260040160405180910390fd5b6001600160a01b038316612358576040516340311a0960e01b815260040160405180910390fd5b61236384848461279a565b6001600160a01b03841660009081527f3c7bf052874fa81625121783266a03507bd2cd48b16e571c01a04e8dd3fb07a86020526040902060008051602061372c833981519152906123b4908461275e565b506001600160a01b038416600090815260028201602052604090206123d9908461276a565b506123e58184866127a5565b50600083815260038201602052604080822080546001600160a01b0319169055518491906001600160a01b038516907f8c5be1e5ebec7d5bd14f71427d1e84f3dd0314c0f7b2291e5b200ac8c7c3b925908390a482846001600160a01b0316866001600160a01b03167fddf252ad1be2c89b69c2b068fc378daa952ba7f163c4a11628f55a4df523b3ef60405160405180910390a45050505050565b600061063683836127bb565b6001600160a01b03811660009081526001830160205260408120541515610636565b60008080806124be8686612807565b909450925050505b9250929050565b6000610636838361286a565b6124e48484846122f2565b6124f0848484846128ce565b6108ec57604051639ff10cdd60e01b815260040160405180910390fd5b6060816000036125345750506040805180820190915260018152600360fc1b602082015290565b8160005b811561255e5780612548816132ed565b91506125579050600a83613646565b9150612538565b60008167ffffffffffffffff81111561257957612579612f4a565b6040519080825280601f01601f1916602001820160405280156125a3576020820181803683370190505b5090505b84156122ea576125b8600183613270565b91506125c5600a8661365a565b6125d0906030613283565b60f81b8183815181106125e5576125e56131ed565b60200101906001600160f81b031916908160001a905350612607600a86613646565b94506125a7565b60008181526001830160205260408120541515610636565b80156106255760405163b56d7c1b60e01b815260040160405180910390fd5b61264f838361299f565b61265c60008484846128ce565b61062557604051639ff10cdd60e01b815260040160405180910390fd5b600060008051602061378c8339815191526000848152600282016020908152604080832086845290915280822080546001808301549351637921219560e11b81523060048201523360248201526044810194909452606484015260a0608484015260a48301939093529293506001600160a01b0390911690819063f242432a9060c401600060405180830381600087803b15801561271657600080fd5b505af115801561272a573d6000803e3d6000fd5b505050600095865250505060020160209081526040808420928452919052812080546001600160a01b031916815560010155565b60006106368383612a94565b60006106368383612b4e565b8015612795576040516322b1813960e01b815260040160405180910390fd5b6108ec565b610625838383612b91565b60006122ea84846001600160a01b038516612b9c565b815460009082106127df5760405163e637bf3b60e01b815260040160405180910390fd5b8260000182815481106127f4576127f46131ed565b9060005260206000200154905092915050565b81546000908190831061282d5760405163022fd82760e31b815260040160405180910390fd5b6000846000018481548110612844576128446131ed565b906000526020600020906002020190508060000154816001015492509250509250929050565b600081815260018301602052604081205480820361289b57604051633d547ec560e21b815260040160405180910390fd5b8360000160018203815481106128b3576128b36131ed565b90600052602060002090600202016001015491505092915050565b60006001600160a01b0384163b6128e7575060016122ea565b600061296863150b7a0260e01b3388878760405160240161290b949392919061366e565b604051602081830303815290604052906001600160e01b0319166020820180516001600160e01b0383818316178352505050506040518060600160405280603281526020016136fa603291396001600160a01b0388169190612c3b565b905060008180602001905181019061298091906136aa565b6001600160e01b031916630a85bd0160e11b1492505050949350505050565b6001600160a01b0382166129c6576040516311f2988d60e11b815260040160405180910390fd5b6129cf81611895565b156129ed57604051630d86bb7b60e31b815260040160405180910390fd5b6129f96000838361279a565b6001600160a01b03821660009081527f3c7bf052874fa81625121783266a03507bd2cd48b16e571c01a04e8dd3fb07a86020526040902060008051602061372c83398151915290612a4a908361276a565b50612a568183856127a5565b5060405182906001600160a01b038516906000907fddf252ad1be2c89b69c2b068fc378daa952ba7f163c4a11628f55a4df523b3ef908290a4505050565b600081815260018301602052604081205480156108d957835460009085906000198101908110612ac657612ac66131ed565b9060005260206000200154905080856000016001840381548110612aec57612aec6131ed565b6000918252602080832090910192909255918252600186019052604090208190558354849080612b1e57612b1e6136c7565b60008281526020808220830160001990810183905590920190925593815260019485019093525050604081205590565b6000818152600183016020526040812054610579575081546001808201845560008481526020808220909301849055845493815293810190915260409092205590565b610625838383612c4a565b6000828152600184016020526040812054808203612c03575050604080518082018252838152602080820184815286546001818101895560008981528481209551600290930290950191825591519082015586548684528188019092529290912055610636565b82856000016001830381548110612c1c57612c1c6131ed565b9060005260206000209060020201600101819055506000915050610636565b60606122ea8484600085612c55565b610625838383612d1b565b6060843b612c7657604051632270d6bf60e21b815260040160405180910390fd5b600080866001600160a01b03168587604051612c9291906136dd565b60006040518083038185875af1925050503d8060008114612ccf576040519150601f19603f3d011682016040523d82523d6000602084013e612cd4565b606091505b50915091508115612ce85791506122ea9050565b805115612cf85780518082602001fd5b8360405162461bcd60e51b8152600401612d129190612e27565b60405180910390fd5b6001600160a01b0382166106255760008181527f99574a7094154bb123ae6ae102096f0bf9679b85a5cd1e727aaa0ae5f132e6b46020526040902080546106259190612d6690613296565b6000825580601f10612d76575050565b601f01602090049060005260206000209081019061073391905b80821115610d445760008155600101612d90565b6001600160e01b03198116811461073357600080fd5b600060208284031215612dcc57600080fd5b813561063681612da4565b60005b83811015612df2578181015183820152602001612dda565b50506000910152565b60008151808452612e13816020860160208601612dd7565b601f01601f19169290920160200192915050565b6020815260006106366020830184612dfb565b600060208284031215612e4c57600080fd5b5035919050565b6001600160a01b038116811461073357600080fd5b60008060408385031215612e7b57600080fd5b8235612e8681612e53565b946020939093013593505050565b60008060208385031215612ea757600080fd5b823567ffffffffffffffff80821115612ebf57600080fd5b818501915085601f830112612ed357600080fd5b813581811115612ee257600080fd5b8660208260061b8501011115612ef757600080fd5b60209290920196919550909350505050565b600080600060608486031215612f1e57600080fd5b8335612f2981612e53565b92506020840135612f3981612e53565b929592945050506040919091013590565b634e487b7160e01b600052604160045260246000fd5b600067ffffffffffffffff80841115612f7b57612f7b612f4a565b604051601f8501601f19908116603f01168101908282118183101715612fa357612fa3612f4a565b81604052809350858152868686011115612fbc57600080fd5b858560208301376000602087830101525050509392505050565b600060208284031215612fe857600080fd5b813567ffffffffffffffff811115612fff57600080fd5b8201601f8101841361301057600080fd5b6122ea84823560208401612f60565b60006020828403121561303157600080fd5b813561063681612e53565b6000806040838503121561304f57600080fd5b823561305a81612e53565b91506020830135801515811461306f57600080fd5b809150509250929050565b6000806020838503121561308d57600080fd5b823567ffffffffffffffff808211156130a557600080fd5b818501915085601f8301126130b957600080fd5b8135818111156130c857600080fd5b8660208260051b8501011115612ef757600080fd5b6000602080830181845280855180835260408601915060408160051b870101925083870160005b8281101561313257603f19888603018452613120858351612dfb565b94509285019290850190600101613104565b5092979650505050505050565b6000806000806080858703121561315557600080fd5b843561316081612e53565b9350602085013561317081612e53565b925060408501359150606085013567ffffffffffffffff81111561319357600080fd5b8501601f810187136131a457600080fd5b6131b387823560208401612f60565b91505092959194509250565b600080604083850312156131d257600080fd5b82356131dd81612e53565b9150602083013561306f81612e53565b634e487b7160e01b600052603260045260246000fd5b6000808335601e1984360301811261321a57600080fd5b83018035915067ffffffffffffffff82111561323557600080fd5b6020019150368190038213156124c657600080fd5b8183823760009101908152919050565b634e487b7160e01b600052601160045260246000fd5b818103818111156105795761057961325a565b808201808211156105795761057961325a565b600181811c908216806132aa57607f821691505b6020821081036132ca57634e487b7160e01b600052602260045260246000fd5b50919050565b6000602082840312156132e257600080fd5b815161063681612e53565b6000600182016132ff576132ff61325a565b5060010190565b6020808252825182820181905260009190848201906040850190845b8181101561333e57835183529284019291840191600101613322565b50909695505050505050565b60408152600080845461335c81613296565b806040860152606060018084166000811461337e5760018114613398576133c9565b60ff1985168884015283151560051b8801830195506133c9565b8960005260208060002060005b868110156133c05781548b82018701529084019082016133a5565b8a018501975050505b505050505082810360208401526133e08185612dfb565b95945050505050565b601f82111561062557600081815260208120601f850160051c810160208610156134105750805b601f850160051c820191505b8181101561342f5782815560010161341c565b505050505050565b815167ffffffffffffffff81111561345157613451612f4a565b6134658161345f8454613296565b846133e9565b602080601f83116001811461349a57600084156134825750858301515b600019600386901b1c1916600185901b17855561342f565b600085815260208120601f198616915b828110156134c9578886015182559484019460019091019084016134aa565b50858210156134e75787850151600019600388901b60f8161c191681555b5050505050600190811b01905550565b60008351613509818460208801612dd7565b83519083019061351d818360208801612dd7565b01949350505050565b634e487b7160e01b600052602160045260246000fd5b6001600160a01b0385168152608081016002851061356a57634e487b7160e01b600052602160045260246000fd5b84602083015283604083015282606083015295945050505050565b6000816135945761359461325a565b506000190190565b6000602082840312156135ae57600080fd5b5051919050565b81356135c081612e53565b6001600160a01b0381166bffffffffffffffffffffffff60a01b83541617825550602082013560018201555050565b60008551613601818460208a01612dd7565b919091019384525060609190911b6bffffffffffffffffffffffff191660208301526034820152605401919050565b634e487b7160e01b600052601260045260246000fd5b60008261365557613655613630565b500490565b60008261366957613669613630565b500690565b60006001600160a01b038087168352808616602084015250836040830152608060608301526136a06080830184612dfb565b9695505050505050565b6000602082840312156136bc57600080fd5b815161063681612da4565b634e487b7160e01b600052603160045260246000fd5b600082516136ef818460208701612dd7565b919091019291505056fe4552433732313a207472616e7366657220746f206e6f6e20455243373231526563656976657220696d706c656d656e7465723c7bf052874fa81625121783266a03507bd2cd48b16e571c01a04e8dd3fb07a687a01bd38845081b30641ebc639dfadf787bd49017c45985af2341fe932c746399574a7094154bb123ae6ae102096f0bf9679b85a5cd1e727aaa0ae5f132e6b1f672b8dc84d117c1e14949d8bc3977392b5ab7de9d01b854d389cdc31bf0d436a26469706673582212202c16ff33aa4f0bbcb029c8174b72741ca5ad2c4f93f71723e967173482d5d3a664736f6c63430008130033",
  "devdoc": {
    "details": "ReentrancyGuard and Multicall contracts are used for security and gas efficiency.",
    "kind": "dev",
    "methods": {
      "approve(address,uint256)": {
        "params": {
          "operator": "address to be approved",
          "tokenId": "token to approve"
        }
      },
      "availableMints(address)": {
        "params": {
          "account": "account to query"
        },
        "returns": {
          "balance": "amount of arcadians that can be minted"
        }
      },
      "balanceOf(address)": {
        "returns": {
          "_0": "quantity of tokens held"
        }
      },
      "baseURI()": {
        "details": "This function returns the base URI",
        "returns": {
          "_0": "The base URI"
        }
      },
      "getApproved(uint256)": {
        "params": {
          "tokenId": "token to query"
        },
        "returns": {
          "_0": "address approved to spend token"
        }
      },
      "isApprovedForAll(address,address)": {
        "params": {
          "account": "address to query for approval granted",
          "operator": "address to query for approval received"
        },
        "returns": {
          "_0": "whether operator is approved to spend tokens held by account"
        }
      },
      "maxMintPerUser()": {
        "details": "This function gets the current maximum number of arcadians that a user can mint",
        "returns": {
          "_0": "The current maximum number of arcadians that a user can mint"
        }
      },
      "maxSupply()": {
        "details": "This function returns the maximum supply of arcadians",
        "returns": {
          "_0": "The current maximum supply of arcadians"
        }
      },
      "mintAndEquip((address,uint256)[])": {
        "params": {
          "itemsToEquip": "array of items to equip in the correspondent slot"
        }
      },
      "mintPrice()": {
        "returns": {
          "_0": "The current mint price"
        }
      },
      "multicall(bytes[])": {
        "params": {
          "data": "array of function call data payloads"
        },
        "returns": {
          "results": "array of function call results"
        }
      },
      "ownerOf(uint256)": {
        "params": {
          "tokenId": "token to query"
        },
        "returns": {
          "_0": "token owner"
        }
      },
      "safeTransferFrom(address,address,uint256)": {
        "params": {
          "from": "sender of token",
          "to": "receiver of token",
          "tokenId": "token id"
        }
      },
      "safeTransferFrom(address,address,uint256,bytes)": {
        "params": {
          "data": "data payload",
          "from": "sender of token",
          "to": "receiver of token",
          "tokenId": "token id"
        }
      },
      "setApprovalForAll(address,bool)": {
        "params": {
          "operator": "address to be approved",
          "status": "approval status"
        }
      },
      "setBaseURI(string)": {
        "params": {
          "newBaseURI": "The new base URI for all token metadata"
        }
      },
      "setMaxMintPerUser(uint256)": {
        "params": {
          "newMaxMintPerUser": "The new maximum number of arcadians that a user can mint"
        }
      },
      "setMintPrice(uint256)": {
        "params": {
          "newMintPrice": "The new mint price to be set"
        }
      },
      "supportsInterface(bytes4)": {
        "params": {
          "interfaceId": "interface id"
        },
        "returns": {
          "_0": "bool whether interface is supported"
        }
      },
      "tokenByIndex(uint256)": {
        "params": {
          "index": "position in global token list to query"
        },
        "returns": {
          "_0": "id of retrieved token"
        }
      },
      "tokenOfOwnerByIndex(address,uint256)": {
        "params": {
          "index": "position in owner's token list to query",
          "owner": "token holder to query"
        },
        "returns": {
          "_0": "id of retrieved token"
        }
      },
      "tokenURI(uint256)": {
        "params": {
          "tokenId": "ID of the token to query"
        },
        "returns": {
          "_0": "The URI for the given token ID"
        }
      },
      "totalMinted()": {
        "returns": {
          "_0": "uint total amount of arcadians minted"
        }
      },
      "totalSupply()": {
        "returns": {
          "_0": "total supply"
        }
      },
      "transferFrom(address,address,uint256)": {
        "params": {
          "from": "sender of token",
          "to": "receiver of token",
          "tokenId": "token id"
        }
      }
    },
    "title": "ArcadiansFacet",
    "version": 1
  },
  "userdoc": {
    "kind": "user",
    "methods": {
      "approve(address,uint256)": {
        "notice": "grant approval to given account to spend token"
      },
      "availableMints(address)": {
        "notice": "Returns the amount of arcadians that can be minted by an account"
      },
      "balanceOf(address)": {
        "notice": "query the balance of given address"
      },
      "closePublicMint()": {
        "notice": "This function closes the public mint"
      },
      "getApproved(uint256)": {
        "notice": "get approval status for given token"
      },
      "isApprovedForAll(address,address)": {
        "notice": "query approval status of given operator with respect to given address"
      },
      "mintAndEquip((address,uint256)[])": {
        "notice": "Mint a token and equip it with the given items"
      },
      "mintPrice()": {
        "notice": "This function gets the current price to mint an arcadian"
      },
      "multicall(bytes[])": {
        "notice": "batch function calls to the contract and return the results of each"
      },
      "name()": {
        "notice": "inheritdoc IERC721Metadata"
      },
      "openPublicMint()": {
        "notice": "This function opens the public mint"
      },
      "ownerOf(uint256)": {
        "notice": "query the owner of given token"
      },
      "publicMintOpen()": {
        "notice": "Returns true if the public mint is open, false otherwise"
      },
      "safeTransferFrom(address,address,uint256)": {
        "notice": "transfer token between given addresses, checking for ERC721Receiver implementation if applicable"
      },
      "safeTransferFrom(address,address,uint256,bytes)": {
        "notice": "transfer token between given addresses, checking for ERC721Receiver implementation if applicable"
      },
      "setApprovalForAll(address,bool)": {
        "notice": "grant approval to or revoke approval from given account to spend all tokens held by sender"
      },
      "setBaseURI(string)": {
        "notice": "Set the base URI for all Arcadians metadataOnly the manager role can call this function"
      },
      "setMaxMintPerUser(uint256)": {
        "notice": "This function sets the new maximum number of arcadians that a user can mint"
      },
      "setMintPrice(uint256)": {
        "notice": "This function updates the price to mint an arcadian"
      },
      "supportsInterface(bytes4)": {
        "notice": "query whether contract has registered support for given interface"
      },
      "symbol()": {
        "notice": "inheritdoc IERC721Metadata"
      },
      "tokenByIndex(uint256)": {
        "notice": "get token at given internal storage index"
      },
      "tokenOfOwnerByIndex(address,uint256)": {
        "notice": "get token of given owner at given internal storage index"
      },
      "tokenURI(uint256)": {
        "notice": "Returns the URI for a given arcadian"
      },
      "totalMinted()": {
        "notice": "Returns the total amount of arcadians minted"
      },
      "totalSupply()": {
        "notice": "get total token supply"
      },
      "transferFrom(address,address,uint256)": {
        "notice": "transfer token between given addresses, without checking for ERC721Receiver implementation if applicable"
      }
    },
    "notice": "This contract is an ERC721 responsible for minting and claiming Arcadian tokens.",
    "version": 1
  },
  "storageLayout": {
    "storage": [],
    "types": null
  }
}