{
  "address": "0x265c18CA03FB74F134C321736e2CA870C98f6DBF",
  "abi": [
    {
      "inputs": [],
      "name": "AddressUtils__NotContract",
      "type": "error"
    },
    {
      "inputs": [],
      "name": "ERC165Base__InvalidInterfaceId",
      "type": "error"
    },
    {
      "inputs": [],
      "name": "ERC721Base__BalanceQueryZeroAddress",
      "type": "error"
    },
    {
      "inputs": [],
      "name": "ERC721Base__ERC721ReceiverNotImplemented",
      "type": "error"
    },
    {
      "inputs": [],
      "name": "ERC721Base__InvalidOwner",
      "type": "error"
    },
    {
      "inputs": [],
      "name": "ERC721Base__MintToZeroAddress",
      "type": "error"
    },
    {
      "inputs": [],
      "name": "ERC721Base__NonExistentToken",
      "type": "error"
    },
    {
      "inputs": [],
      "name": "ERC721Base__NotOwnerOrApproved",
      "type": "error"
    },
    {
      "inputs": [],
      "name": "ERC721Base__NotTokenOwner",
      "type": "error"
    },
    {
      "inputs": [],
      "name": "ERC721Base__SelfApproval",
      "type": "error"
    },
    {
      "inputs": [],
      "name": "ERC721Base__TokenAlreadyMinted",
      "type": "error"
    },
    {
      "inputs": [],
      "name": "ERC721Base__TransferToZeroAddress",
      "type": "error"
    },
    {
      "inputs": [],
      "name": "ERC721Metadata__NonExistentToken",
      "type": "error"
    },
    {
      "inputs": [],
      "name": "EnumerableMap__IndexOutOfBounds",
      "type": "error"
    },
    {
      "inputs": [],
      "name": "EnumerableMap__NonExistentKey",
      "type": "error"
    },
    {
      "inputs": [],
      "name": "EnumerableSet__IndexOutOfBounds",
      "type": "error"
    },
    {
      "inputs": [],
      "name": "ReentrancyGuard__ReentrantCall",
      "type": "error"
    },
    {
      "inputs": [],
      "name": "SolidStateERC721__PayableApproveNotSupported",
      "type": "error"
    },
    {
      "inputs": [],
      "name": "SolidStateERC721__PayableTransferNotSupported",
      "type": "error"
    },
    {
      "inputs": [],
      "name": "UintUtils__InsufficientHexLength",
      "type": "error"
    },
    {
      "anonymous": false,
      "inputs": [
        {
          "indexed": true,
          "internalType": "address",
          "name": "owner",
          "type": "address"
        },
        {
          "indexed": true,
          "internalType": "address",
          "name": "operator",
          "type": "address"
        },
        {
          "indexed": true,
          "internalType": "uint256",
          "name": "tokenId",
          "type": "uint256"
        }
      ],
      "name": "Approval",
      "type": "event"
    },
    {
      "anonymous": false,
      "inputs": [
        {
          "indexed": true,
          "internalType": "address",
          "name": "owner",
          "type": "address"
        },
        {
          "indexed": true,
          "internalType": "address",
          "name": "operator",
          "type": "address"
        },
        {
          "indexed": false,
          "internalType": "bool",
          "name": "approved",
          "type": "bool"
        }
      ],
      "name": "ApprovalForAll",
      "type": "event"
    },
    {
      "anonymous": false,
      "inputs": [
        {
          "indexed": true,
          "internalType": "address",
          "name": "to",
          "type": "address"
        },
        {
          "indexed": true,
          "internalType": "uint256",
          "name": "amount",
          "type": "uint256"
        }
      ],
      "name": "ArcadianClaimedMerkle",
      "type": "event"
    },
    {
      "anonymous": false,
      "inputs": [
        {
          "indexed": true,
          "internalType": "address",
          "name": "oldArcadiansAddress",
          "type": "address"
        },
        {
          "indexed": true,
          "internalType": "address",
          "name": "newArcadiansAddress",
          "type": "address"
        }
      ],
      "name": "ArcadiansAddressChanged",
      "type": "event"
    },
    {
      "anonymous": false,
      "inputs": [
        {
          "indexed": true,
          "internalType": "address",
          "name": "by",
          "type": "address"
        },
        {
          "indexed": false,
          "internalType": "string",
          "name": "oldBaseURI",
          "type": "string"
        },
        {
          "indexed": false,
          "internalType": "string",
          "name": "newBaseURI",
          "type": "string"
        }
      ],
      "name": "BaseURIChanged",
      "type": "event"
    },
    {
      "anonymous": false,
      "inputs": [
        {
          "indexed": true,
          "internalType": "address",
          "name": "by",
          "type": "address"
        },
        {
          "indexed": true,
          "internalType": "address",
          "name": "oldInventoryAddress",
          "type": "address"
        },
        {
          "indexed": true,
          "internalType": "address",
          "name": "newInventoryAddress",
          "type": "address"
        }
      ],
      "name": "InventoryAddressChanged",
      "type": "event"
    },
    {
      "anonymous": false,
      "inputs": [
        {
          "indexed": true,
          "internalType": "address",
          "name": "by",
          "type": "address"
        },
        {
          "indexed": false,
          "internalType": "uint256",
          "name": "slot",
          "type": "uint256"
        },
        {
          "indexed": false,
          "internalType": "address",
          "name": "itemAddress",
          "type": "address"
        },
        {
          "indexed": false,
          "internalType": "uint256[]",
          "name": "allowedItems",
          "type": "uint256[]"
        }
      ],
      "name": "ItemsAllowedInSlotUpdated",
      "type": "event"
    },
    {
      "anonymous": false,
      "inputs": [
        {
          "indexed": true,
          "internalType": "address",
          "name": "by",
          "type": "address"
        },
        {
          "indexed": true,
          "internalType": "uint256",
          "name": "arcadianId",
          "type": "uint256"
        },
        {
          "indexed": false,
          "internalType": "uint256[]",
          "name": "slots",
          "type": "uint256[]"
        },
        {
          "components": [
            {
              "internalType": "address",
              "name": "itemAddress",
              "type": "address"
            },
            {
              "internalType": "uint256",
              "name": "id",
              "type": "uint256"
            },
            {
              "internalType": "uint256",
              "name": "amount",
              "type": "uint256"
            }
          ],
          "indexed": false,
          "internalType": "struct InventoryStorage.EquippedItem[]",
          "name": "equippedItems",
          "type": "tuple[]"
        }
      ],
      "name": "ItemsEquipped",
      "type": "event"
    },
    {
      "anonymous": false,
      "inputs": [
        {
          "indexed": true,
          "internalType": "address",
          "name": "by",
          "type": "address"
        },
        {
          "indexed": true,
          "internalType": "uint256",
          "name": "arcadianId",
          "type": "uint256"
        },
        {
          "indexed": false,
          "internalType": "uint256[]",
          "name": "slots",
          "type": "uint256[]"
        }
      ],
      "name": "ItemsUnequipped",
      "type": "event"
    },
    {
      "anonymous": false,
      "inputs": [
        {
          "indexed": true,
          "internalType": "address",
          "name": "by",
          "type": "address"
        },
        {
          "indexed": false,
          "internalType": "uint256",
          "name": "oldMaxMintPerUser",
          "type": "uint256"
        },
        {
          "indexed": false,
          "internalType": "uint256",
          "name": "newMaxMintPerUser",
          "type": "uint256"
        }
      ],
      "name": "MaxMintPerUserChanged",
      "type": "event"
    },
    {
      "anonymous": false,
      "inputs": [
        {
          "indexed": true,
          "internalType": "address",
          "name": "by",
          "type": "address"
        },
        {
          "indexed": false,
          "internalType": "uint256",
          "name": "oldMintPrice",
          "type": "uint256"
        },
        {
          "indexed": false,
          "internalType": "uint256",
          "name": "newMintPrice",
          "type": "uint256"
        }
      ],
      "name": "MintPriceChanged",
      "type": "event"
    },
    {
      "anonymous": false,
      "inputs": [
        {
          "indexed": true,
          "internalType": "bytes32",
          "name": "role",
          "type": "bytes32"
        },
        {
          "indexed": true,
          "internalType": "bytes32",
          "name": "previousAdminRole",
          "type": "bytes32"
        },
        {
          "indexed": true,
          "internalType": "bytes32",
          "name": "newAdminRole",
          "type": "bytes32"
        }
      ],
      "name": "RoleAdminChanged",
      "type": "event"
    },
    {
      "anonymous": false,
      "inputs": [
        {
          "indexed": true,
          "internalType": "bytes32",
          "name": "role",
          "type": "bytes32"
        },
        {
          "indexed": true,
          "internalType": "address",
          "name": "account",
          "type": "address"
        },
        {
          "indexed": true,
          "internalType": "address",
          "name": "sender",
          "type": "address"
        }
      ],
      "name": "RoleGranted",
      "type": "event"
    },
    {
      "anonymous": false,
      "inputs": [
        {
          "indexed": true,
          "internalType": "bytes32",
          "name": "role",
          "type": "bytes32"
        },
        {
          "indexed": true,
          "internalType": "address",
          "name": "account",
          "type": "address"
        },
        {
          "indexed": true,
          "internalType": "address",
          "name": "sender",
          "type": "address"
        }
      ],
      "name": "RoleRevoked",
      "type": "event"
    },
    {
      "anonymous": false,
      "inputs": [
        {
          "indexed": true,
          "internalType": "address",
          "name": "by",
          "type": "address"
        },
        {
          "indexed": false,
          "internalType": "uint256",
          "name": "capacity",
          "type": "uint256"
        },
        {
          "indexed": false,
          "internalType": "bool",
          "name": "unequippable",
          "type": "bool"
        },
        {
          "indexed": false,
          "internalType": "uint256",
          "name": "slot",
          "type": "uint256"
        }
      ],
      "name": "SlotCreated",
      "type": "event"
    },
    {
      "anonymous": false,
      "inputs": [
        {
          "indexed": true,
          "internalType": "address",
          "name": "from",
          "type": "address"
        },
        {
          "indexed": true,
          "internalType": "address",
          "name": "to",
          "type": "address"
        },
        {
          "indexed": true,
          "internalType": "uint256",
          "name": "tokenId",
          "type": "uint256"
        }
      ],
      "name": "Transfer",
      "type": "event"
    },
    {
      "anonymous": false,
      "inputs": [
        {
          "indexed": false,
          "internalType": "address",
          "name": "account",
          "type": "address"
        },
        {
          "indexed": false,
          "internalType": "int256",
          "name": "amount",
          "type": "int256"
        },
        {
          "indexed": false,
          "internalType": "uint256",
          "name": "totalElegibleAmount",
          "type": "uint256"
        },
        {
          "indexed": false,
          "internalType": "uint256",
          "name": "totalClaimedAmount",
          "type": "uint256"
        }
      ],
      "name": "WhitelistBalanceChanged",
      "type": "event"
    },
    {
      "inputs": [
        {
          "internalType": "address",
          "name": "operator",
          "type": "address"
        },
        {
          "internalType": "uint256",
          "name": "tokenId",
          "type": "uint256"
        }
      ],
      "name": "approve",
      "outputs": [],
      "stateMutability": "payable",
      "type": "function"
    },
    {
      "inputs": [
        {
          "internalType": "address",
          "name": "account",
          "type": "address"
        }
      ],
      "name": "balanceOf",
      "outputs": [
        {
          "internalType": "uint256",
          "name": "",
          "type": "uint256"
        }
      ],
      "stateMutability": "view",
      "type": "function"
    },
    {
      "inputs": [
        {
          "internalType": "uint256",
          "name": "totalAmount",
          "type": "uint256"
        },
        {
          "internalType": "bytes32[]",
          "name": "proof",
          "type": "bytes32[]"
        }
      ],
      "name": "claimMerkle",
      "outputs": [],
      "stateMutability": "nonpayable",
      "type": "function"
    },
    {
      "inputs": [
        {
          "internalType": "uint256",
          "name": "amount",
          "type": "uint256"
        }
      ],
      "name": "claimWhitelist",
      "outputs": [],
      "stateMutability": "nonpayable",
      "type": "function"
    },
    {
      "inputs": [
        {
          "internalType": "uint256",
          "name": "tokenId",
          "type": "uint256"
        }
      ],
      "name": "getApproved",
      "outputs": [
        {
          "internalType": "address",
          "name": "",
          "type": "address"
        }
      ],
      "stateMutability": "view",
      "type": "function"
    },
    {
      "inputs": [],
      "name": "getBaseURI",
      "outputs": [
        {
          "internalType": "string",
          "name": "",
          "type": "string"
        }
      ],
      "stateMutability": "view",
      "type": "function"
    },
    {
      "inputs": [
        {
          "internalType": "address",
          "name": "account",
          "type": "address"
        }
      ],
      "name": "getClaimedAmountMerkle",
      "outputs": [
        {
          "internalType": "uint256",
          "name": "",
          "type": "uint256"
        }
      ],
      "stateMutability": "view",
      "type": "function"
    },
    {
      "inputs": [],
      "name": "getMaxMintPerUser",
      "outputs": [
        {
          "internalType": "uint256",
          "name": "",
          "type": "uint256"
        }
      ],
      "stateMutability": "view",
      "type": "function"
    },
    {
      "inputs": [],
      "name": "getMintPrice",
      "outputs": [
        {
          "internalType": "uint256",
          "name": "",
          "type": "uint256"
        }
      ],
      "stateMutability": "view",
      "type": "function"
    },
    {
      "inputs": [
        {
          "internalType": "address",
          "name": "account",
          "type": "address"
        },
        {
          "internalType": "address",
          "name": "operator",
          "type": "address"
        }
      ],
      "name": "isApprovedForAll",
      "outputs": [
        {
          "internalType": "bool",
          "name": "",
          "type": "bool"
        }
      ],
      "stateMutability": "view",
      "type": "function"
    },
    {
      "inputs": [],
      "name": "mint",
      "outputs": [],
      "stateMutability": "payable",
      "type": "function"
    },
    {
      "inputs": [
        {
          "internalType": "bytes[]",
          "name": "data",
          "type": "bytes[]"
        }
      ],
      "name": "multicall",
      "outputs": [
        {
          "internalType": "bytes[]",
          "name": "results",
          "type": "bytes[]"
        }
      ],
      "stateMutability": "nonpayable",
      "type": "function"
    },
    {
      "inputs": [],
      "name": "name",
      "outputs": [
        {
          "internalType": "string",
          "name": "",
          "type": "string"
        }
      ],
      "stateMutability": "view",
      "type": "function"
    },
    {
      "inputs": [
        {
          "internalType": "uint256",
          "name": "tokenId",
          "type": "uint256"
        }
      ],
      "name": "ownerOf",
      "outputs": [
        {
          "internalType": "address",
          "name": "",
          "type": "address"
        }
      ],
      "stateMutability": "view",
      "type": "function"
    },
    {
      "inputs": [
        {
          "internalType": "address",
          "name": "from",
          "type": "address"
        },
        {
          "internalType": "address",
          "name": "to",
          "type": "address"
        },
        {
          "internalType": "uint256",
          "name": "tokenId",
          "type": "uint256"
        }
      ],
      "name": "safeTransferFrom",
      "outputs": [],
      "stateMutability": "payable",
      "type": "function"
    },
    {
      "inputs": [
        {
          "internalType": "address",
          "name": "from",
          "type": "address"
        },
        {
          "internalType": "address",
          "name": "to",
          "type": "address"
        },
        {
          "internalType": "uint256",
          "name": "tokenId",
          "type": "uint256"
        },
        {
          "internalType": "bytes",
          "name": "data",
          "type": "bytes"
        }
      ],
      "name": "safeTransferFrom",
      "outputs": [],
      "stateMutability": "payable",
      "type": "function"
    },
    {
      "inputs": [
        {
          "internalType": "address",
          "name": "operator",
          "type": "address"
        },
        {
          "internalType": "bool",
          "name": "status",
          "type": "bool"
        }
      ],
      "name": "setApprovalForAll",
      "outputs": [],
      "stateMutability": "nonpayable",
      "type": "function"
    },
    {
      "inputs": [
        {
          "internalType": "string",
          "name": "baseURI",
          "type": "string"
        }
      ],
      "name": "setBaseURI",
      "outputs": [],
      "stateMutability": "nonpayable",
      "type": "function"
    },
    {
      "inputs": [
        {
          "internalType": "uint256",
          "name": "newMaxMintPerUser",
          "type": "uint256"
        }
      ],
      "name": "setMaxMintPerUser",
      "outputs": [],
      "stateMutability": "nonpayable",
      "type": "function"
    },
    {
      "inputs": [
        {
          "internalType": "uint256",
          "name": "newMintPrice",
          "type": "uint256"
        }
      ],
      "name": "setMintPrice",
      "outputs": [],
      "stateMutability": "nonpayable",
      "type": "function"
    },
    {
      "inputs": [
        {
          "internalType": "bytes4",
          "name": "interfaceId",
          "type": "bytes4"
        }
      ],
      "name": "supportsInterface",
      "outputs": [
        {
          "internalType": "bool",
          "name": "",
          "type": "bool"
        }
      ],
      "stateMutability": "view",
      "type": "function"
    },
    {
      "inputs": [],
      "name": "symbol",
      "outputs": [
        {
          "internalType": "string",
          "name": "",
          "type": "string"
        }
      ],
      "stateMutability": "view",
      "type": "function"
    },
    {
      "inputs": [
        {
          "internalType": "uint256",
          "name": "index",
          "type": "uint256"
        }
      ],
      "name": "tokenByIndex",
      "outputs": [
        {
          "internalType": "uint256",
          "name": "",
          "type": "uint256"
        }
      ],
      "stateMutability": "view",
      "type": "function"
    },
    {
      "inputs": [
        {
          "internalType": "address",
          "name": "owner",
          "type": "address"
        },
        {
          "internalType": "uint256",
          "name": "index",
          "type": "uint256"
        }
      ],
      "name": "tokenOfOwnerByIndex",
      "outputs": [
        {
          "internalType": "uint256",
          "name": "",
          "type": "uint256"
        }
      ],
      "stateMutability": "view",
      "type": "function"
    },
    {
      "inputs": [
        {
          "internalType": "uint256",
          "name": "tokenId",
          "type": "uint256"
        }
      ],
      "name": "tokenURI",
      "outputs": [
        {
          "internalType": "string",
          "name": "",
          "type": "string"
        }
      ],
      "stateMutability": "view",
      "type": "function"
    },
    {
      "inputs": [],
      "name": "totalSupply",
      "outputs": [
        {
          "internalType": "uint256",
          "name": "",
          "type": "uint256"
        }
      ],
      "stateMutability": "view",
      "type": "function"
    },
    {
      "inputs": [
        {
          "internalType": "address",
          "name": "from",
          "type": "address"
        },
        {
          "internalType": "address",
          "name": "to",
          "type": "address"
        },
        {
          "internalType": "uint256",
          "name": "tokenId",
          "type": "uint256"
        }
      ],
      "name": "transferFrom",
      "outputs": [],
      "stateMutability": "payable",
      "type": "function"
    }
  ],
  "transactionHash": "0xbe896c18de6dbade1487ad48bef2fbb7e0017d96706dcf63ac237956898d6fef",
  "args": [],
  "numDeployments": 3,
  "solcInputHash": "36c22ead28225540fc85e58fc9faf39e",
  "bytecode": "0x608060405234801561001057600080fd5b50613209806100206000396000f3fe60806040526004361061019c5760003560e01c8063714c5398116100ec578063ac9650d81161008a578063ccb4f8d611610064578063ccb4f8d614610455578063db718c9414610475578063e985e9c51461048a578063f4a0a528146104aa57600080fd5b8063ac9650d8146103f5578063b88d4fde14610422578063c87b56dd1461043557600080fd5b8063958944f1116100c6578063958944f11461038b57806395d89b41146103ab578063a22cb465146103c0578063a7f93ebd146103e057600080fd5b8063714c53981461033657806383ccaef71461034b5780638e10d5541461036b57600080fd5b806323b872dd116101595780634f6ccce7116101335780634f6ccce7146102b657806355f804b3146102d65780636352211e146102f657806370a082311461031657600080fd5b806323b872dd146102705780632f745c591461028357806342842e0e146102a357600080fd5b806301ffc9a7146101a157806306fdde03146101d6578063081812fc146101f8578063095ea7b3146102305780631249c58b1461024557806318160ddd1461024d575b600080fd5b3480156101ad57600080fd5b506101c16101bc3660046127fd565b6104ca565b60405190151581526020015b60405180910390f35b3480156101e257600080fd5b506101eb61050d565b6040516101cd919061286a565b34801561020457600080fd5b5061021861021336600461287d565b61051c565b6040516001600160a01b0390911681526020016101cd565b61024361023e3660046128b2565b610527565b005b610243610535565b34801561025957600080fd5b506102626106ce565b6040519081526020016101cd565b61024361027e3660046128dc565b6106d8565b34801561028f57600080fd5b5061026261029e3660046128b2565b6106e8565b6102436102b13660046128dc565b6106fb565b3480156102c257600080fd5b506102626102d136600461287d565b610706565b3480156102e257600080fd5b506102436102f13660046129b7565b610711565b34801561030257600080fd5b5061021861031136600461287d565b61074d565b34801561032257600080fd5b50610262610331366004612a00565b610758565b34801561034257600080fd5b506101eb610763565b34801561035757600080fd5b5061024361036636600461287d565b61076d565b34801561037757600080fd5b5061024361038636600461287d565b6107a1565b34801561039757600080fd5b506102436103a6366004612a1b565b6107d4565b3480156103b757600080fd5b506101eb61094d565b3480156103cc57600080fd5b506102436103db366004612acd565b610957565b3480156103ec57600080fd5b50610262610961565b34801561040157600080fd5b50610415610410366004612b09565b61098b565b6040516101cd9190612b7e565b610243610430366004612be0565b610aa6565b34801561044157600080fd5b506101eb61045036600461287d565b610ab8565b34801561046157600080fd5b50610262610470366004612a00565b610ac3565b34801561048157600080fd5b50610262610aee565b34801561049657600080fd5b506101c16104a5366004612c5c565b610b18565b3480156104b657600080fd5b506102436104c536600461287d565b610b24565b6001600160e01b0319811660009081527ffc606c433378e3a7e0a6a531deac289b66caa1b4aa8554fd4ab2c6f1570f92d8602052604081205460ff165b92915050565b6060610517610b58565b905090565b600061050782610bf7565b6105318282610c5a565b5050565b7f09acf4e54214992e70883cf7dcd6957ff2c71cd9e14df4bec4383bc0d11607dc805460020361057857604051635db5c7cd60e11b815260040160405180910390fd5b600281557f87a01bd38845081b30641ebc639dfadf787bd49017c45985af2341fe932c7465546000805160206131948339815191529034146106155760405162461bcd60e51b815260206004820152602b60248201527f417263616469616e73496e7465726e616c2e5f6d696e743a20496e76616c696460448201526a081c185e48185b5bdd5b9d60aa1b60648201526084015b60405180910390fd5b33600081815260208390526040812054909161063090610d5d565b61063a9190612ca5565b9050816001015481106106b55760405162461bcd60e51b815260206004820152603b60248201527f417263616469616e73496e7465726e616c2e5f6d696e743a2055736572206d6160448201527f78696d756d206d696e74656420746f6b656e7320726561636865640000000000606482015260840161060c565b6106c6336106c1610dc6565b610ddf565b505060019055565b6000610517610dc6565b6106e3838383610df9565b505050565b60006106f48383610e37565b9392505050565b6106e3838383610e78565b600061050782610e93565b61074161073c7ff6deb63e40d71b08820818e006e23fcceb1fce7a499bc15b71b2526cbf9efa725490565b610ead565b61074a81610eb7565b50565b600061050782610f31565b600061050782610d5d565b6060610517610f75565b61079861073c7ff6deb63e40d71b08820818e006e23fcceb1fce7a499bc15b71b2526cbf9efa725490565b61074a81610f94565b6107ab3382611007565b60005b81811015610531576107c2336106c1610dc6565b806107cc81612cb8565b9150506107ae565b7f09acf4e54214992e70883cf7dcd6957ff2c71cd9e14df4bec4383bc0d11607dc805460020361081757604051635db5c7cd60e11b815260040160405180910390fd5b600281553360009081526000805160206131948339815191526020819052604090912054841161087e5760405162461bcd60e51b8152602060048201526012602482015271105b1b081d1bdad95b9cc818db185a5b595960721b604482015260640161060c565b6040805133602082015280820186905281518082038301815260609091019091526108a984826111b0565b50336000908152602083905260408120546108c49087612ca5565b905060005b818110156108ef576108dd336106c1610dc6565b806108e781612cb8565b9150506108c9565b50336000908152602084905260408120805483929061090f908490612cd1565b9091555050604051819033907fc169c3974ad5176ea41e766768be74079ba8c86a136ed66c5ac85e602782db7d90600090a350506001909155505050565b6060610517611266565b6105318282611285565b60006105177f87a01bd38845081b30641ebc639dfadf787bd49017c45985af2341fe932c74655490565b60608167ffffffffffffffff8111156109a6576109a6612918565b6040519080825280602002602001820160405280156109d957816020015b60608152602001906001900390816109c45790505b50905060005b82811015610a9f57600080308686858181106109fd576109fd612ce4565b9050602002810190610a0f9190612cfa565b604051610a1d929190612d41565b600060405180830381855af49150503d8060008114610a58576040519150601f19603f3d011682016040523d82523d6000602084013e610a5d565b606091505b50915091508115610a8b5780848481518110610a7b57610a7b612ce4565b6020026020010181905250610a95565b3d6000803e3d6000fd5b50506001016109df565b5092915050565b610ab284848484611339565b50505050565b606061050782611378565b6001600160a01b03811660009081526000805160206131948339815191526020526040812054610507565b60006105177f87a01bd38845081b30641ebc639dfadf787bd49017c45985af2341fe932c74645490565b60006106f48383611559565b610b4f61073c7ff6deb63e40d71b08820818e006e23fcceb1fce7a499bc15b71b2526cbf9efa725490565b61074a816115a6565b60606000805160206131b48339815191528054610b7490612d51565b80601f0160208091040260200160405190810160405280929190818152602001828054610ba090612d51565b8015610bed5780601f10610bc257610100808354040283529160200191610bed565b820191906000526020600020905b815481529060010190602001808311610bd057829003601f168201915b5050505050905090565b6000610c0282611619565b610c1f5760405163c1b843ef60e01b815260040160405180910390fd5b5060009081527f3c7bf052874fa81625121783266a03507bd2cd48b16e571c01a04e8dd3fb07a960205260409020546001600160a01b031690565b610c65828234611633565b6000610c7082610f31565b9050806001600160a01b0316836001600160a01b031603610ca45760405163424a22cb60e01b815260040160405180910390fd5b336001600160a01b03821614801590610cc45750610cc28133611559565b155b15610ce257604051632f5de44f60e01b815260040160405180910390fd5b60008281527f3c7bf052874fa81625121783266a03507bd2cd48b16e571c01a04e8dd3fb07a9602052604080822080546001600160a01b0319166001600160a01b0387811691821790925591518593918516917f8c5be1e5ebec7d5bd14f71427d1e84f3dd0314c0f7b2291e5b200ac8c7c3b92591a4505050565b60006001600160a01b038216610d8657604051630810ff9760e41b815260040160405180910390fd5b6001600160a01b03821660009081527f3c7bf052874fa81625121783266a03507bd2cd48b16e571c01a04e8dd3fb07a8602052604090206105079061165d565b600061051760008051602061317483398151915261165d565b610531828260405180602001604052806000815250611667565b610e058383833461169b565b610e0f33826116c6565b610e2c57604051632f5de44f60e01b815260040160405180910390fd5b6106e383838361174c565b6001600160a01b03821660009081527f3c7bf052874fa81625121783266a03507bd2cd48b16e571c01a04e8dd3fb07a8602052604081206106f490836118db565b6106e383838360405180602001604052806000815250611339565b6000610a9f600080516020613174833981519152836118e7565b61074a8133611905565b6040516000805160206131b48339815191529033907f92bf6a7b8937c17e6781a68d61f9fe6a5ce08604b96ca2206f311049a3a295ea90610f1b907f99574a7094154bb123ae6ae102096f0bf9679b85a5cd1e727aaa0ae5f132e6b3908690612d8b565b60405180910390a2600281016106e38382612e78565b600080610f4c60008051602061317483398151915284611967565b90506001600160a01b03811661050757604051637e1a7d8b60e01b815260040160405180910390fd5b60606000805160206131b48339815191526002018054610b7490612d51565b7f87a01bd38845081b30641ebc639dfadf787bd49017c45985af2341fe932c746454604080519182526020820183905280516000805160206131948339815191529233927f9a201d4a67373d8576462c238c27108c61b3deec32a932aac079a84cc3b7742c92918290030190a260010155565b6001600160a01b03821660009081527ff38d3885e664c9638de25f02e645e1955ebebe901d7be2c2037db6a5bcbb358960205260409020547ff38d3885e664c9638de25f02e645e1955ebebe901d7be2c2037db6a5bcbb3588908211156110e25760405162461bcd60e51b815260206004820152604360248201527f57686974656c697374496e7465726e616c2e5f636f6e73756d6557686974656c60448201527f6973743a20616d6f756e74206578636565647320656c656769626c6520616d6f6064820152621d5b9d60ea1b608482015260a40161060c565b6001600160a01b03831660009081526001820160205260408120805484929061110c908490612ca5565b90915550506001600160a01b03831660009081526020829052604081208054849290611139908490612cd1565b90915550506001600160a01b0383166000908152600182016020908152604080832054848352928190205481513381529283018690529082019290925260608101919091527fdb4f4d78cc1c961ddedd2f43596d41d07e607b7517c7106d83f6421215e1f6a79060800160405180910390a1505050565b60008082805190602001206040516020016111cd91815260200190565b604051602081830303815290604052805190602001209050611217846112107f7a07c093b55ad04e200605cb287859fe4640b7310d62fdbb044e26399da78c0890565b5483611973565b915081610a9f5760405162461bcd60e51b815260206004820152601b60248201527f44617461206e6f7420696e636c7564656420696e206d65726b6c650000000000604482015260640161060c565b60606000805160206131b48339815191526001018054610b7490612d51565b336001600160a01b038316036112ae5760405163424a22cb60e01b815260040160405180910390fd5b3360008181527f3c7bf052874fa81625121783266a03507bd2cd48b16e571c01a04e8dd3fb07aa602090815260408083206001600160a01b03871680855290835292819020805460ff191686151590811790915590519081529192917f17307eab39ab6107e8899845ad3d59bd9653f200f220920489ca2b5937696c31910160405180910390a35050565b6113458484843461169b565b61134f33836116c6565b61136c57604051632f5de44f60e01b815260040160405180910390fd5b610ab284848484611a18565b606061138382611619565b61139f57604051624705a760e71b815260040160405180910390fd5b60008281527f99574a7094154bb123ae6ae102096f0bf9679b85a5cd1e727aaa0ae5f132e6b46020526040812080546000805160206131b48339815191529291906113e990612d51565b80601f016020809104026020016040519081016040528092919081815260200182805461141590612d51565b80156114625780601f1061143757610100808354040283529160200191611462565b820191906000526020600020905b81548152906001019060200180831161144557829003601f168201915b50505050509050600082600201805461147a90612d51565b80601f01602080910402602001604051908101604052809291908181526020018280546114a690612d51565b80156114f35780601f106114c8576101008083540402835291602001916114f3565b820191906000526020600020905b8154815290600101906020018083116114d657829003601f168201915b50505050509050805160000361150b57509392505050565b81511561153e578082604051602001611525929190612f38565b6040516020818303038152906040529350505050919050565b8061154886611a4c565b604051602001611525929190612f38565b6001600160a01b0391821660009081527f3c7bf052874fa81625121783266a03507bd2cd48b16e571c01a04e8dd3fb07aa6020908152604080832093909416825291909152205460ff1690565b7f87a01bd38845081b30641ebc639dfadf787bd49017c45985af2341fe932c746554604080519182526020820183905280516000805160206131948339815191529233927fed96032e9c101f4508a9696e8861f06aa3674be1b735fc685aed0efb83db76e992918290030190a260020155565b600061050760008051602061317483398151915283611b4d565b80156116525760405163b56d7c1b60e01b815260040160405180910390fd5b6106e3838383611b65565b6000610507825490565b6116718383611b84565b61167e6000848484611c79565b6106e357604051639ff10cdd60e01b815260040160405180910390fd5b80156116ba576040516322b1813960e01b815260040160405180910390fd5b610ab284848484611d4a565b60006116d182611619565b6116ee5760405163c1b843ef60e01b815260040160405180910390fd5b60006116f983610f31565b9050806001600160a01b0316846001600160a01b031614806117345750836001600160a01b031661172984610bf7565b6001600160a01b0316145b8061174457506117448185611559565b949350505050565b600061175782610f31565b9050836001600160a01b0316816001600160a01b03161461178b57604051630f2db4ad60e01b815260040160405180910390fd5b6001600160a01b0383166117b2576040516340311a0960e01b815260040160405180910390fd5b6117bd848484611d6e565b6001600160a01b03841660009081527f3c7bf052874fa81625121783266a03507bd2cd48b16e571c01a04e8dd3fb07a8602052604090206000805160206131748339815191529061180e9084611d82565b506001600160a01b038416600090815260028201602052604090206118339084611d8e565b5061183f818486611d9a565b50600083815260038201602052604080822080546001600160a01b0319169055518491906001600160a01b038516907f8c5be1e5ebec7d5bd14f71427d1e84f3dd0314c0f7b2291e5b200ac8c7c3b925908390a482846001600160a01b0316866001600160a01b03167fddf252ad1be2c89b69c2b068fc378daa952ba7f163c4a11628f55a4df523b3ef60405160405180910390a45050505050565b60006106f48383611db0565b60008080806118f68686611dfc565b909450925050505b9250929050565b61190f8282611e5f565b61053157611925816001600160a01b0316611e96565b611930836020611ea8565b604051602001611941929190612f67565b60408051601f198184030181529082905262461bcd60e51b825261060c9160040161286a565b60006106f48383611ffb565b600081815b8551811015611a0d57600086828151811061199557611995612ce4565b602002602001015190508083116119d7576040805160208101859052908101829052606001604051602081830303815290604052805190602001209250611a04565b60408051602081018390529081018490526060016040516020818303038152906040528051906020012092505b50600101611978565b509092149392505050565b611a2384848461174c565b611a2f84848484611c79565b610ab257604051639ff10cdd60e01b815260040160405180910390fd5b606081600003611a735750506040805180820190915260018152600360fc1b602082015290565b8160005b8115611a9d5780611a8781612cb8565b9150611a969050600a83612ff2565b9150611a77565b60008167ffffffffffffffff811115611ab857611ab8612918565b6040519080825280601f01601f191660200182016040528015611ae2576020820181803683370190505b5090505b841561174457611af7600183612ca5565b9150611b04600a86613006565b611b0f906030612cd1565b60f81b818381518110611b2457611b24612ce4565b60200101906001600160f81b031916908160001a905350611b46600a86612ff2565b9450611ae6565b600081815260018301602052604081205415156106f4565b80156106e35760405163b56d7c1b60e01b815260040160405180910390fd5b6001600160a01b038216611bab576040516311f2988d60e11b815260040160405180910390fd5b611bb481611619565b15611bd257604051630d86bb7b60e31b815260040160405180910390fd5b611bde60008383611d6e565b6001600160a01b03821660009081527f3c7bf052874fa81625121783266a03507bd2cd48b16e571c01a04e8dd3fb07a86020526040902060008051602061317483398151915290611c2f9083611d8e565b50611c3b818385611d9a565b5060405182906001600160a01b038516906000907fddf252ad1be2c89b69c2b068fc378daa952ba7f163c4a11628f55a4df523b3ef908290a4505050565b60006001600160a01b0384163b611c9257506001611744565b6000611d1363150b7a0260e01b33888787604051602401611cb6949392919061301a565b604051602081830303815290604052906001600160e01b0319166020820180516001600160e01b038381831617835250505050604051806060016040528060328152602001613142603291396001600160a01b038816919061205f565b9050600081806020019051810190611d2b9190613056565b6001600160e01b031916630a85bd0160e11b1492505050949350505050565b8015611d69576040516322b1813960e01b815260040160405180910390fd5b610ab2565b611d778161206e565b6106e383838361225c565b60006106f48383612267565b60006106f48383612321565b600061174484846001600160a01b038516612364565b81546000908210611dd45760405163e637bf3b60e01b815260040160405180910390fd5b826000018281548110611de957611de9612ce4565b9060005260206000200154905092915050565b815460009081908310611e225760405163022fd82760e31b815260040160405180910390fd5b6000846000018481548110611e3957611e39612ce4565b906000526020600020906002020190508060000154816001015492509250509250929050565b60008281527fd3889cc5458b268d0544e5534672df1296288ca3f93cbd39bd6f497a5c622811602052604081206106f49083612403565b60606105076001600160a01b03831660145b60606000611eb7836002613073565b611ec2906002612cd1565b67ffffffffffffffff811115611eda57611eda612918565b6040519080825280601f01601f191660200182016040528015611f04576020820181803683370190505b509050600360fc1b81600081518110611f1f57611f1f612ce4565b60200101906001600160f81b031916908160001a905350600f60fb1b81600181518110611f4e57611f4e612ce4565b60200101906001600160f81b031916908160001a905350600160028402015b6001811115611fdb576f181899199a1a9b1b9c1cb0b131b232b360811b85600f1660108110611f9e57611f9e612ce4565b1a60f81b828281518110611fb457611fb4612ce4565b60200101906001600160f81b031916908160001a90535060049490941c9360001901611f6d565b5083156106f45760405163c913478560e01b815260040160405180910390fd5b600081815260018301602052604081205480820361202c57604051633d547ec560e21b815260040160405180910390fd5b83600001600182038154811061204457612044612ce4565b90600052602060002090600202016001015491505092915050565b60606117448484600085612425565b7ff672b8dc84d117c1e14949d8bc3977392b5ab7de9d01b854d389cdc31bf0d43680546000805b828110156121145760006120aa826001612cd1565b600081815260018088016020526040909120015490915060ff161580156120ee57506000868152600386016020908152604080832084845290915290206002015415155b1561210157826120fd81612cb8565b9350505b508061210c81612cb8565b915050612095565b5060008167ffffffffffffffff81111561213057612130612918565b604051908082528060200260200182016040528015612159578160200160208202803683370190505b5090506000805b84811015612207576000612175826001612cd1565b60008181526001808a016020526040909120015490915060ff161580156121b957506000888152600388016020908152604080832084845290915290206002015415155b156121f4576121c888826124e2565b808484815181106121db576121db612ce4565b6020908102919091010152826121f081612cb8565b9350505b50806121ff81612cb8565b915050612160565b5085336001600160a01b03167f3822f2cd6d118934e31e6171da74d9d46131fb402be1861b3cb4460440aeab6384604051612242919061308a565b60405180910390a3612253866125ff565b50505050505050565b6106e3838383612754565b60008181526001830160205260408120548015610a9f5783546000908590600019810190811061229957612299612ce4565b90600052602060002001549050808560000160018403815481106122bf576122bf612ce4565b60009182526020808320909101929092559182526001860190526040902081905583548490806122f1576122f16130ce565b60008281526020808220830160001990810183905590920190925593815260019485019093525050604081205590565b6000818152600183016020526040812054610507575081546001808201845560008481526020808220909301849055845493815293810190915260409092205590565b60008281526001840160205260408120548082036123cb5750506040805180820182528381526020808201848152865460018181018955600089815284812095516002909302909501918255915190820155865486845281880190925292909120556106f4565b828560000160018303815481106123e4576123e4612ce4565b90600052602060002090600202016001018190555060009150506106f4565b6001600160a01b038116600090815260018301602052604081205415156106f4565b6060843b61244657604051632270d6bf60e21b815260040160405180910390fd5b600080866001600160a01b0316858760405161246291906130e4565b60006040518083038185875af1925050503d806000811461249f576040519150601f19603f3d011682016040523d82523d6000602084013e6124a4565b606091505b509150915081156124b85791506117449050565b8051156124c85780518082602001fd5b8360405162461bcd60e51b815260040161060c919061286a565b60008281527ff672b8dc84d117c1e14949d8bc3977392b5ab7de9d01b854d389cdc31bf0d439602090815260408083208484529091528082208054600182015460028301548451637921219560e11b81523060048201523360248201526044810192909252606482015260a0608482015260a4810185905292517ff672b8dc84d117c1e14949d8bc3977392b5ab7de9d01b854d389cdc31bf0d4369492936001600160a01b0390921692839263f242432a9260c4808301939282900301818387803b1580156125b057600080fd5b505af11580156125c4573d6000803e3d6000fd5b505050600095865250505060030160209081526040808420928452919052812080546001600160a01b03191681556001810182905560020155565b60008080527ff672b8dc84d117c1e14949d8bc3977392b5ab7de9d01b854d389cdc31bf0d4386020527ff672b8dc84d117c1e14949d8bc3977392b5ab7de9d01b854d389cdc31bf0d43660607f845ff02802177e9909faef63e536d995d5be20fadd26c667f4235942a02dfdd9835b6126778261165d565b8110156126f257600061268a83836118db565b6000888152600387016020908152604080832084845282529182902080546001820154935194955090936126cc93899387936001600160a01b03169201613100565b6040516020818303038152906040529450505080806126ea90612cb8565b91505061266e565b50815160208301206127076006850182611b4d565b60008781526008860160205260409020549015955061272a906006860190611d82565b506127386006850182611d8e565b5060009586526008909301602052505060409092209190915590565b6106e38383836001600160a01b0382166106e35760008181527f99574a7094154bb123ae6ae102096f0bf9679b85a5cd1e727aaa0ae5f132e6b46020526040902080546106e391906127a590612d51565b6000825580601f106127b5575050565b601f01602090049060005260206000209081019061074a91905b808211156127e357600081556001016127cf565b5090565b6001600160e01b03198116811461074a57600080fd5b60006020828403121561280f57600080fd5b81356106f4816127e7565b60005b8381101561283557818101518382015260200161281d565b50506000910152565b6000815180845261285681602086016020860161281a565b601f01601f19169290920160200192915050565b6020815260006106f4602083018461283e565b60006020828403121561288f57600080fd5b5035919050565b80356001600160a01b03811681146128ad57600080fd5b919050565b600080604083850312156128c557600080fd5b6128ce83612896565b946020939093013593505050565b6000806000606084860312156128f157600080fd5b6128fa84612896565b925061290860208501612896565b9150604084013590509250925092565b634e487b7160e01b600052604160045260246000fd5b604051601f8201601f1916810167ffffffffffffffff8111828210171561295757612957612918565b604052919050565b600067ffffffffffffffff83111561297957612979612918565b61298c601f8401601f191660200161292e565b90508281528383830111156129a057600080fd5b828260208301376000602084830101529392505050565b6000602082840312156129c957600080fd5b813567ffffffffffffffff8111156129e057600080fd5b8201601f810184136129f157600080fd5b6117448482356020840161295f565b600060208284031215612a1257600080fd5b6106f482612896565b60008060408385031215612a2e57600080fd5b8235915060208084013567ffffffffffffffff80821115612a4e57600080fd5b818601915086601f830112612a6257600080fd5b813581811115612a7457612a74612918565b8060051b9150612a8584830161292e565b8181529183018401918481019089841115612a9f57600080fd5b938501935b83851015612abd57843582529385019390850190612aa4565b8096505050505050509250929050565b60008060408385031215612ae057600080fd5b612ae983612896565b915060208301358015158114612afe57600080fd5b809150509250929050565b60008060208385031215612b1c57600080fd5b823567ffffffffffffffff80821115612b3457600080fd5b818501915085601f830112612b4857600080fd5b813581811115612b5757600080fd5b8660208260051b8501011115612b6c57600080fd5b60209290920196919550909350505050565b6000602080830181845280855180835260408601915060408160051b870101925083870160005b82811015612bd357603f19888603018452612bc185835161283e565b94509285019290850190600101612ba5565b5092979650505050505050565b60008060008060808587031215612bf657600080fd5b612bff85612896565b9350612c0d60208601612896565b925060408501359150606085013567ffffffffffffffff811115612c3057600080fd5b8501601f81018713612c4157600080fd5b612c508782356020840161295f565b91505092959194509250565b60008060408385031215612c6f57600080fd5b612c7883612896565b9150612c8660208401612896565b90509250929050565b634e487b7160e01b600052601160045260246000fd5b8181038181111561050757610507612c8f565b600060018201612cca57612cca612c8f565b5060010190565b8082018082111561050757610507612c8f565b634e487b7160e01b600052603260045260246000fd5b6000808335601e19843603018112612d1157600080fd5b83018035915067ffffffffffffffff821115612d2c57600080fd5b6020019150368190038213156118fe57600080fd5b8183823760009101908152919050565b600181811c90821680612d6557607f821691505b602082108103612d8557634e487b7160e01b600052602260045260246000fd5b50919050565b604081526000808454612d9d81612d51565b8060408601526060600180841660008114612dbf5760018114612dd957612e0a565b60ff1985168884015283151560051b880183019550612e0a565b8960005260208060002060005b86811015612e015781548b8201870152908401908201612de6565b8a018501975050505b50505050508281036020840152612e21818561283e565b95945050505050565b601f8211156106e357600081815260208120601f850160051c81016020861015612e515750805b601f850160051c820191505b81811015612e7057828155600101612e5d565b505050505050565b815167ffffffffffffffff811115612e9257612e92612918565b612ea681612ea08454612d51565b84612e2a565b602080601f831160018114612edb5760008415612ec35750858301515b600019600386901b1c1916600185901b178555612e70565b600085815260208120601f198616915b82811015612f0a57888601518255948401946001909101908401612eeb565b5085821015612f285787850151600019600388901b60f8161c191681555b5050505050600190811b01905550565b60008351612f4a81846020880161281a565b835190830190612f5e81836020880161281a565b01949350505050565b7f416363657373436f6e74726f6c3a206163636f756e7420000000000000000000815260008351612f9f81601785016020880161281a565b7001034b99036b4b9b9b4b733903937b6329607d1b6017918401918201528351612fd081602884016020880161281a565b01602801949350505050565b634e487b7160e01b600052601260045260246000fd5b60008261300157613001612fdc565b500490565b60008261301557613015612fdc565b500690565b60006001600160a01b0380871683528086166020840152508360408301526080606083015261304c608083018461283e565b9695505050505050565b60006020828403121561306857600080fd5b81516106f4816127e7565b808202811582820484141761050757610507612c8f565b6020808252825182820181905260009190848201906040850190845b818110156130c2578351835292840192918401916001016130a6565b50909695505050505050565b634e487b7160e01b600052603160045260246000fd5b600082516130f681846020870161281a565b9190910192915050565b60008551613112818460208a0161281a565b919091019384525060609190911b6bffffffffffffffffffffffff19166020830152603482015260540191905056fe4552433732313a207472616e7366657220746f206e6f6e20455243373231526563656976657220696d706c656d656e7465723c7bf052874fa81625121783266a03507bd2cd48b16e571c01a04e8dd3fb07a687a01bd38845081b30641ebc639dfadf787bd49017c45985af2341fe932c746399574a7094154bb123ae6ae102096f0bf9679b85a5cd1e727aaa0ae5f132e6b1a264697066735822122010196668600672b93346f7bf572f0239f7ebda8bde87db2ed058c4840ae7f47b64736f6c63430008130033",
  "devdoc": {
    "kind": "dev",
    "methods": {
      "approve(address,uint256)": {
        "params": {
          "operator": "address to be approved",
          "tokenId": "token to approve"
        }
      },
      "balanceOf(address)": {
        "returns": {
          "_0": "quantity of tokens held"
        }
      },
      "getApproved(uint256)": {
        "params": {
          "tokenId": "token to query"
        },
        "returns": {
          "_0": "address approved to spend token"
        }
      },
      "isApprovedForAll(address,address)": {
        "params": {
          "account": "address to query for approval granted",
          "operator": "address to query for approval received"
        },
        "returns": {
          "_0": "whether operator is approved to spend tokens held by account"
        }
      },
      "multicall(bytes[])": {
        "params": {
          "data": "array of function call data payloads"
        },
        "returns": {
          "results": "array of function call results"
        }
      },
      "ownerOf(uint256)": {
        "params": {
          "tokenId": "token to query"
        },
        "returns": {
          "_0": "token owner"
        }
      },
      "safeTransferFrom(address,address,uint256)": {
        "params": {
          "from": "sender of token",
          "to": "receiver of token",
          "tokenId": "token id"
        }
      },
      "safeTransferFrom(address,address,uint256,bytes)": {
        "params": {
          "data": "data payload",
          "from": "sender of token",
          "to": "receiver of token",
          "tokenId": "token id"
        }
      },
      "setApprovalForAll(address,bool)": {
        "params": {
          "operator": "address to be approved",
          "status": "approval status"
        }
      },
      "supportsInterface(bytes4)": {
        "params": {
          "interfaceId": "interface id"
        },
        "returns": {
          "_0": "bool whether interface is supported"
        }
      },
      "tokenByIndex(uint256)": {
        "params": {
          "index": "position in global token list to query"
        },
        "returns": {
          "_0": "id of retrieved token"
        }
      },
      "tokenOfOwnerByIndex(address,uint256)": {
        "params": {
          "index": "position in owner's token list to query",
          "owner": "token holder to query"
        },
        "returns": {
          "_0": "id of retrieved token"
        }
      },
      "totalSupply()": {
        "returns": {
          "_0": "total supply"
        }
      },
      "transferFrom(address,address,uint256)": {
        "params": {
          "from": "sender of token",
          "to": "receiver of token",
          "tokenId": "token id"
        }
      }
    },
    "version": 1
  },
  "userdoc": {
    "kind": "user",
    "methods": {
      "approve(address,uint256)": {
        "notice": "grant approval to given account to spend token"
      },
      "balanceOf(address)": {
        "notice": "query the balance of given address"
      },
      "getApproved(uint256)": {
        "notice": "get approval status for given token"
      },
      "isApprovedForAll(address,address)": {
        "notice": "query approval status of given operator with respect to given address"
      },
      "multicall(bytes[])": {
        "notice": "batch function calls to the contract and return the results of each"
      },
      "name()": {
        "notice": "inheritdoc IERC721Metadata"
      },
      "ownerOf(uint256)": {
        "notice": "query the owner of given token"
      },
      "safeTransferFrom(address,address,uint256)": {
        "notice": "transfer token between given addresses, checking for ERC721Receiver implementation if applicable"
      },
      "safeTransferFrom(address,address,uint256,bytes)": {
        "notice": "transfer token between given addresses, checking for ERC721Receiver implementation if applicable"
      },
      "setApprovalForAll(address,bool)": {
        "notice": "grant approval to or revoke approval from given account to spend all tokens held by sender"
      },
      "supportsInterface(bytes4)": {
        "notice": "query whether contract has registered support for given interface"
      },
      "symbol()": {
        "notice": "inheritdoc IERC721Metadata"
      },
      "tokenByIndex(uint256)": {
        "notice": "get token at given internal storage index"
      },
      "tokenOfOwnerByIndex(address,uint256)": {
        "notice": "get token of given owner at given internal storage index"
      },
      "totalSupply()": {
        "notice": "get total token supply"
      },
      "transferFrom(address,address,uint256)": {
        "notice": "transfer token between given addresses, without checking for ERC721Receiver implementation if applicable"
      }
    },
    "version": 1
  },
  "storageLayout": {
    "storage": [],
    "types": null
  }
}