{
  "address": "0x5CBF56Db686C3B785C38Ba1C849f51D4BcBB1878",
  "abi": [
    {
      "inputs": [],
      "name": "AddressUtils__NotContract",
      "type": "error"
    },
    {
      "inputs": [],
      "name": "Arcadians_InvalidPayAmount",
      "type": "error"
    },
    {
      "inputs": [],
      "name": "Arcadians_MaximumMintedArcadiansReached",
      "type": "error"
    },
    {
      "inputs": [],
      "name": "ERC165Base__InvalidInterfaceId",
      "type": "error"
    },
    {
      "inputs": [],
      "name": "ERC721Base__BalanceQueryZeroAddress",
      "type": "error"
    },
    {
      "inputs": [],
      "name": "ERC721Base__ERC721ReceiverNotImplemented",
      "type": "error"
    },
    {
      "inputs": [],
      "name": "ERC721Base__InvalidOwner",
      "type": "error"
    },
    {
      "inputs": [],
      "name": "ERC721Base__MintToZeroAddress",
      "type": "error"
    },
    {
      "inputs": [],
      "name": "ERC721Base__NonExistentToken",
      "type": "error"
    },
    {
      "inputs": [],
      "name": "ERC721Base__NotOwnerOrApproved",
      "type": "error"
    },
    {
      "inputs": [],
      "name": "ERC721Base__NotTokenOwner",
      "type": "error"
    },
    {
      "inputs": [],
      "name": "ERC721Base__SelfApproval",
      "type": "error"
    },
    {
      "inputs": [],
      "name": "ERC721Base__TokenAlreadyMinted",
      "type": "error"
    },
    {
      "inputs": [],
      "name": "ERC721Base__TransferToZeroAddress",
      "type": "error"
    },
    {
      "inputs": [],
      "name": "ERC721Metadata__NonExistentToken",
      "type": "error"
    },
    {
      "inputs": [],
      "name": "EnumerableMap__IndexOutOfBounds",
      "type": "error"
    },
    {
      "inputs": [],
      "name": "EnumerableMap__NonExistentKey",
      "type": "error"
    },
    {
      "inputs": [],
      "name": "EnumerableSet__IndexOutOfBounds",
      "type": "error"
    },
    {
      "inputs": [],
      "name": "Inventory_ArcadianNotUnique",
      "type": "error"
    },
    {
      "inputs": [],
      "name": "Inventory_InputDataMismatch",
      "type": "error"
    },
    {
      "inputs": [],
      "name": "Inventory_InsufficientItemBalance",
      "type": "error"
    },
    {
      "inputs": [],
      "name": "Inventory_InvalidERC1155Contract",
      "type": "error"
    },
    {
      "inputs": [],
      "name": "Inventory_InvalidSlotId",
      "type": "error"
    },
    {
      "inputs": [],
      "name": "Inventory_ItemAlreadyAllowedInSlot",
      "type": "error"
    },
    {
      "inputs": [],
      "name": "Inventory_ItemAlreadyDisallowedInSlot",
      "type": "error"
    },
    {
      "inputs": [],
      "name": "Inventory_ItemAlreadyEquippedInSlot",
      "type": "error"
    },
    {
      "inputs": [],
      "name": "Inventory_ItemNotElegibleForSlot",
      "type": "error"
    },
    {
      "inputs": [],
      "name": "Inventory_NotArcadianOwner",
      "type": "error"
    },
    {
      "inputs": [],
      "name": "Inventory_SlotAlreadyEquipped",
      "type": "error"
    },
    {
      "inputs": [],
      "name": "Inventory_SlotNotSpecified",
      "type": "error"
    },
    {
      "inputs": [],
      "name": "Inventory_UnequippingEmptySlot",
      "type": "error"
    },
    {
      "inputs": [],
      "name": "Inventory_UnequippingPermanentSlot",
      "type": "error"
    },
    {
      "inputs": [],
      "name": "Merkle_AlreadyClaimed",
      "type": "error"
    },
    {
      "inputs": [],
      "name": "Merkle_ClaimInactive",
      "type": "error"
    },
    {
      "inputs": [],
      "name": "Merkle_ClaimStateAlreadyUpdated",
      "type": "error"
    },
    {
      "inputs": [],
      "name": "Merkle_InvalidClaimAmount",
      "type": "error"
    },
    {
      "inputs": [],
      "name": "Merkle_NotIncludedInMerkleTree",
      "type": "error"
    },
    {
      "inputs": [],
      "name": "ReentrancyGuard__ReentrantCall",
      "type": "error"
    },
    {
      "inputs": [],
      "name": "SolidStateERC721__PayableApproveNotSupported",
      "type": "error"
    },
    {
      "inputs": [],
      "name": "SolidStateERC721__PayableTransferNotSupported",
      "type": "error"
    },
    {
      "inputs": [],
      "name": "UintUtils__InsufficientHexLength",
      "type": "error"
    },
    {
      "inputs": [],
      "name": "Whitelist_ClaimInactive",
      "type": "error"
    },
    {
      "inputs": [],
      "name": "Whitelist_ClaimStateAlreadyUpdated",
      "type": "error"
    },
    {
      "inputs": [],
      "name": "Whitelist_ExceedsElegibleAmount",
      "type": "error"
    },
    {
      "inputs": [],
      "name": "Whitelist_InputDataMismatch",
      "type": "error"
    },
    {
      "anonymous": false,
      "inputs": [
        {
          "indexed": true,
          "internalType": "address",
          "name": "owner",
          "type": "address"
        },
        {
          "indexed": true,
          "internalType": "address",
          "name": "operator",
          "type": "address"
        },
        {
          "indexed": true,
          "internalType": "uint256",
          "name": "tokenId",
          "type": "uint256"
        }
      ],
      "name": "Approval",
      "type": "event"
    },
    {
      "anonymous": false,
      "inputs": [
        {
          "indexed": true,
          "internalType": "address",
          "name": "owner",
          "type": "address"
        },
        {
          "indexed": true,
          "internalType": "address",
          "name": "operator",
          "type": "address"
        },
        {
          "indexed": false,
          "internalType": "bool",
          "name": "approved",
          "type": "bool"
        }
      ],
      "name": "ApprovalForAll",
      "type": "event"
    },
    {
      "anonymous": false,
      "inputs": [
        {
          "indexed": true,
          "internalType": "address",
          "name": "to",
          "type": "address"
        },
        {
          "indexed": true,
          "internalType": "uint256",
          "name": "claimedAmount",
          "type": "uint256"
        }
      ],
      "name": "ArcadianClaimedMerkle",
      "type": "event"
    },
    {
      "anonymous": false,
      "inputs": [
        {
          "indexed": true,
          "internalType": "address",
          "name": "oldArcadiansAddress",
          "type": "address"
        },
        {
          "indexed": true,
          "internalType": "address",
          "name": "newArcadiansAddress",
          "type": "address"
        }
      ],
      "name": "ArcadiansAddressChanged",
      "type": "event"
    },
    {
      "anonymous": false,
      "inputs": [
        {
          "indexed": true,
          "internalType": "address",
          "name": "by",
          "type": "address"
        },
        {
          "indexed": false,
          "internalType": "string",
          "name": "oldBaseURI",
          "type": "string"
        },
        {
          "indexed": false,
          "internalType": "string",
          "name": "newBaseURI",
          "type": "string"
        }
      ],
      "name": "BaseURIChanged",
      "type": "event"
    },
    {
      "anonymous": false,
      "inputs": [
        {
          "indexed": true,
          "internalType": "address",
          "name": "by",
          "type": "address"
        },
        {
          "indexed": true,
          "internalType": "address",
          "name": "oldInventoryAddress",
          "type": "address"
        },
        {
          "indexed": true,
          "internalType": "address",
          "name": "newInventoryAddress",
          "type": "address"
        }
      ],
      "name": "InventoryAddressChanged",
      "type": "event"
    },
    {
      "anonymous": false,
      "inputs": [
        {
          "indexed": true,
          "internalType": "address",
          "name": "by",
          "type": "address"
        },
        {
          "indexed": false,
          "internalType": "uint256",
          "name": "slotId",
          "type": "uint256"
        }
      ],
      "name": "ItemsAllowedInSlotUpdated",
      "type": "event"
    },
    {
      "anonymous": false,
      "inputs": [
        {
          "indexed": true,
          "internalType": "address",
          "name": "by",
          "type": "address"
        },
        {
          "indexed": true,
          "internalType": "uint256",
          "name": "arcadianId",
          "type": "uint256"
        },
        {
          "indexed": false,
          "internalType": "uint256[]",
          "name": "slots",
          "type": "uint256[]"
        }
      ],
      "name": "ItemsEquipped",
      "type": "event"
    },
    {
      "anonymous": false,
      "inputs": [
        {
          "indexed": true,
          "internalType": "address",
          "name": "by",
          "type": "address"
        },
        {
          "indexed": true,
          "internalType": "uint256",
          "name": "arcadianId",
          "type": "uint256"
        },
        {
          "indexed": false,
          "internalType": "uint256[]",
          "name": "slots",
          "type": "uint256[]"
        }
      ],
      "name": "ItemsUnequipped",
      "type": "event"
    },
    {
      "anonymous": false,
      "inputs": [
        {
          "indexed": true,
          "internalType": "address",
          "name": "by",
          "type": "address"
        },
        {
          "indexed": false,
          "internalType": "uint256",
          "name": "oldMaxMintPerUser",
          "type": "uint256"
        },
        {
          "indexed": false,
          "internalType": "uint256",
          "name": "newMaxMintPerUser",
          "type": "uint256"
        }
      ],
      "name": "MaxMintPerUserChanged",
      "type": "event"
    },
    {
      "anonymous": false,
      "inputs": [
        {
          "indexed": true,
          "internalType": "address",
          "name": "by",
          "type": "address"
        },
        {
          "indexed": false,
          "internalType": "uint256",
          "name": "oldMintPrice",
          "type": "uint256"
        },
        {
          "indexed": false,
          "internalType": "uint256",
          "name": "newMintPrice",
          "type": "uint256"
        }
      ],
      "name": "MintPriceChanged",
      "type": "event"
    },
    {
      "anonymous": false,
      "inputs": [
        {
          "indexed": true,
          "internalType": "bytes32",
          "name": "role",
          "type": "bytes32"
        },
        {
          "indexed": true,
          "internalType": "bytes32",
          "name": "previousAdminRole",
          "type": "bytes32"
        },
        {
          "indexed": true,
          "internalType": "bytes32",
          "name": "newAdminRole",
          "type": "bytes32"
        }
      ],
      "name": "RoleAdminChanged",
      "type": "event"
    },
    {
      "anonymous": false,
      "inputs": [
        {
          "indexed": true,
          "internalType": "bytes32",
          "name": "role",
          "type": "bytes32"
        },
        {
          "indexed": true,
          "internalType": "address",
          "name": "account",
          "type": "address"
        },
        {
          "indexed": true,
          "internalType": "address",
          "name": "sender",
          "type": "address"
        }
      ],
      "name": "RoleGranted",
      "type": "event"
    },
    {
      "anonymous": false,
      "inputs": [
        {
          "indexed": true,
          "internalType": "bytes32",
          "name": "role",
          "type": "bytes32"
        },
        {
          "indexed": true,
          "internalType": "address",
          "name": "account",
          "type": "address"
        },
        {
          "indexed": true,
          "internalType": "address",
          "name": "sender",
          "type": "address"
        }
      ],
      "name": "RoleRevoked",
      "type": "event"
    },
    {
      "anonymous": false,
      "inputs": [
        {
          "indexed": true,
          "internalType": "address",
          "name": "by",
          "type": "address"
        },
        {
          "indexed": false,
          "internalType": "uint256",
          "name": "slotId",
          "type": "uint256"
        },
        {
          "indexed": false,
          "internalType": "bool",
          "name": "permanent",
          "type": "bool"
        },
        {
          "indexed": false,
          "internalType": "enum InventoryStorage.SlotCategory",
          "name": "category",
          "type": "uint8"
        }
      ],
      "name": "SlotCreated",
      "type": "event"
    },
    {
      "anonymous": false,
      "inputs": [
        {
          "indexed": true,
          "internalType": "address",
          "name": "from",
          "type": "address"
        },
        {
          "indexed": true,
          "internalType": "address",
          "name": "to",
          "type": "address"
        },
        {
          "indexed": true,
          "internalType": "uint256",
          "name": "tokenId",
          "type": "uint256"
        }
      ],
      "name": "Transfer",
      "type": "event"
    },
    {
      "anonymous": false,
      "inputs": [
        {
          "indexed": false,
          "internalType": "address",
          "name": "account",
          "type": "address"
        },
        {
          "indexed": false,
          "internalType": "uint256",
          "name": "totalElegibleAmount",
          "type": "uint256"
        },
        {
          "indexed": false,
          "internalType": "uint256",
          "name": "totalClaimedAmount",
          "type": "uint256"
        }
      ],
      "name": "WhitelistBalanceChanged",
      "type": "event"
    },
    {
      "inputs": [
        {
          "internalType": "address",
          "name": "operator",
          "type": "address"
        },
        {
          "internalType": "uint256",
          "name": "tokenId",
          "type": "uint256"
        }
      ],
      "name": "approve",
      "outputs": [],
      "stateMutability": "payable",
      "type": "function"
    },
    {
      "inputs": [
        {
          "internalType": "address",
          "name": "account",
          "type": "address"
        }
      ],
      "name": "balanceOf",
      "outputs": [
        {
          "internalType": "uint256",
          "name": "",
          "type": "uint256"
        }
      ],
      "stateMutability": "view",
      "type": "function"
    },
    {
      "inputs": [],
      "name": "baseURI",
      "outputs": [
        {
          "internalType": "string",
          "name": "",
          "type": "string"
        }
      ],
      "stateMutability": "view",
      "type": "function"
    },
    {
      "inputs": [
        {
          "internalType": "uint256",
          "name": "amount",
          "type": "uint256"
        },
        {
          "internalType": "bytes32[]",
          "name": "proof",
          "type": "bytes32[]"
        }
      ],
      "name": "claimMerkle",
      "outputs": [],
      "stateMutability": "nonpayable",
      "type": "function"
    },
    {
      "inputs": [
        {
          "internalType": "address",
          "name": "to",
          "type": "address"
        },
        {
          "internalType": "uint256",
          "name": "amount",
          "type": "uint256"
        },
        {
          "internalType": "bytes32[]",
          "name": "proof",
          "type": "bytes32[]"
        }
      ],
      "name": "claimMerkleTEST",
      "outputs": [],
      "stateMutability": "nonpayable",
      "type": "function"
    },
    {
      "inputs": [
        {
          "internalType": "uint256",
          "name": "amount",
          "type": "uint256"
        }
      ],
      "name": "claimWhitelist",
      "outputs": [],
      "stateMutability": "nonpayable",
      "type": "function"
    },
    {
      "inputs": [
        {
          "internalType": "address",
          "name": "account",
          "type": "address"
        }
      ],
      "name": "claimedAmountMerkle",
      "outputs": [
        {
          "internalType": "uint256",
          "name": "",
          "type": "uint256"
        }
      ],
      "stateMutability": "view",
      "type": "function"
    },
    {
      "inputs": [
        {
          "internalType": "uint256",
          "name": "tokenId",
          "type": "uint256"
        }
      ],
      "name": "getApproved",
      "outputs": [
        {
          "internalType": "address",
          "name": "",
          "type": "address"
        }
      ],
      "stateMutability": "view",
      "type": "function"
    },
    {
      "inputs": [
        {
          "internalType": "address",
          "name": "account",
          "type": "address"
        },
        {
          "internalType": "address",
          "name": "operator",
          "type": "address"
        }
      ],
      "name": "isApprovedForAll",
      "outputs": [
        {
          "internalType": "bool",
          "name": "",
          "type": "bool"
        }
      ],
      "stateMutability": "view",
      "type": "function"
    },
    {
      "inputs": [],
      "name": "maxMintPerUser",
      "outputs": [
        {
          "internalType": "uint256",
          "name": "",
          "type": "uint256"
        }
      ],
      "stateMutability": "view",
      "type": "function"
    },
    {
      "inputs": [],
      "name": "mint",
      "outputs": [],
      "stateMutability": "payable",
      "type": "function"
    },
    {
      "inputs": [
        {
          "internalType": "uint256[]",
          "name": "slotIds",
          "type": "uint256[]"
        },
        {
          "components": [
            {
              "internalType": "address",
              "name": "erc721Contract",
              "type": "address"
            },
            {
              "internalType": "uint256",
              "name": "id",
              "type": "uint256"
            }
          ],
          "internalType": "struct InventoryStorage.Item[]",
          "name": "itemsToEquip",
          "type": "tuple[]"
        }
      ],
      "name": "mintAndEquip",
      "outputs": [],
      "stateMutability": "payable",
      "type": "function"
    },
    {
      "inputs": [],
      "name": "mintPrice",
      "outputs": [
        {
          "internalType": "uint256",
          "name": "",
          "type": "uint256"
        }
      ],
      "stateMutability": "view",
      "type": "function"
    },
    {
      "inputs": [
        {
          "internalType": "bytes[]",
          "name": "data",
          "type": "bytes[]"
        }
      ],
      "name": "multicall",
      "outputs": [
        {
          "internalType": "bytes[]",
          "name": "results",
          "type": "bytes[]"
        }
      ],
      "stateMutability": "nonpayable",
      "type": "function"
    },
    {
      "inputs": [],
      "name": "name",
      "outputs": [
        {
          "internalType": "string",
          "name": "",
          "type": "string"
        }
      ],
      "stateMutability": "view",
      "type": "function"
    },
    {
      "inputs": [
        {
          "internalType": "uint256",
          "name": "tokenId",
          "type": "uint256"
        }
      ],
      "name": "ownerOf",
      "outputs": [
        {
          "internalType": "address",
          "name": "",
          "type": "address"
        }
      ],
      "stateMutability": "view",
      "type": "function"
    },
    {
      "inputs": [
        {
          "internalType": "address",
          "name": "from",
          "type": "address"
        },
        {
          "internalType": "address",
          "name": "to",
          "type": "address"
        },
        {
          "internalType": "uint256",
          "name": "tokenId",
          "type": "uint256"
        }
      ],
      "name": "safeTransferFrom",
      "outputs": [],
      "stateMutability": "payable",
      "type": "function"
    },
    {
      "inputs": [
        {
          "internalType": "address",
          "name": "from",
          "type": "address"
        },
        {
          "internalType": "address",
          "name": "to",
          "type": "address"
        },
        {
          "internalType": "uint256",
          "name": "tokenId",
          "type": "uint256"
        },
        {
          "internalType": "bytes",
          "name": "data",
          "type": "bytes"
        }
      ],
      "name": "safeTransferFrom",
      "outputs": [],
      "stateMutability": "payable",
      "type": "function"
    },
    {
      "inputs": [
        {
          "internalType": "address",
          "name": "operator",
          "type": "address"
        },
        {
          "internalType": "bool",
          "name": "status",
          "type": "bool"
        }
      ],
      "name": "setApprovalForAll",
      "outputs": [],
      "stateMutability": "nonpayable",
      "type": "function"
    },
    {
      "inputs": [
        {
          "internalType": "string",
          "name": "newBaseURI",
          "type": "string"
        }
      ],
      "name": "setBaseURI",
      "outputs": [],
      "stateMutability": "nonpayable",
      "type": "function"
    },
    {
      "inputs": [
        {
          "internalType": "uint256",
          "name": "newMaxMintPerUser",
          "type": "uint256"
        }
      ],
      "name": "setMaxMintPerUser",
      "outputs": [],
      "stateMutability": "nonpayable",
      "type": "function"
    },
    {
      "inputs": [
        {
          "internalType": "uint256",
          "name": "newMintPrice",
          "type": "uint256"
        }
      ],
      "name": "setMintPrice",
      "outputs": [],
      "stateMutability": "nonpayable",
      "type": "function"
    },
    {
      "inputs": [
        {
          "internalType": "bytes4",
          "name": "interfaceId",
          "type": "bytes4"
        }
      ],
      "name": "supportsInterface",
      "outputs": [
        {
          "internalType": "bool",
          "name": "",
          "type": "bool"
        }
      ],
      "stateMutability": "view",
      "type": "function"
    },
    {
      "inputs": [],
      "name": "symbol",
      "outputs": [
        {
          "internalType": "string",
          "name": "",
          "type": "string"
        }
      ],
      "stateMutability": "view",
      "type": "function"
    },
    {
      "inputs": [
        {
          "internalType": "uint256",
          "name": "index",
          "type": "uint256"
        }
      ],
      "name": "tokenByIndex",
      "outputs": [
        {
          "internalType": "uint256",
          "name": "",
          "type": "uint256"
        }
      ],
      "stateMutability": "view",
      "type": "function"
    },
    {
      "inputs": [
        {
          "internalType": "address",
          "name": "owner",
          "type": "address"
        },
        {
          "internalType": "uint256",
          "name": "index",
          "type": "uint256"
        }
      ],
      "name": "tokenOfOwnerByIndex",
      "outputs": [
        {
          "internalType": "uint256",
          "name": "",
          "type": "uint256"
        }
      ],
      "stateMutability": "view",
      "type": "function"
    },
    {
      "inputs": [
        {
          "internalType": "uint256",
          "name": "tokenId",
          "type": "uint256"
        }
      ],
      "name": "tokenURI",
      "outputs": [
        {
          "internalType": "string",
          "name": "",
          "type": "string"
        }
      ],
      "stateMutability": "view",
      "type": "function"
    },
    {
      "inputs": [],
      "name": "totalClaimedMerkle",
      "outputs": [
        {
          "internalType": "uint256",
          "name": "",
          "type": "uint256"
        }
      ],
      "stateMutability": "view",
      "type": "function"
    },
    {
      "inputs": [],
      "name": "totalSupply",
      "outputs": [
        {
          "internalType": "uint256",
          "name": "",
          "type": "uint256"
        }
      ],
      "stateMutability": "view",
      "type": "function"
    },
    {
      "inputs": [
        {
          "internalType": "address",
          "name": "from",
          "type": "address"
        },
        {
          "internalType": "address",
          "name": "to",
          "type": "address"
        },
        {
          "internalType": "uint256",
          "name": "tokenId",
          "type": "uint256"
        }
      ],
      "name": "transferFrom",
      "outputs": [],
      "stateMutability": "payable",
      "type": "function"
    }
  ],
  "transactionHash": "0x75e9045ae4987fffb312247a9221ec4fdebc462a2b282de88c9ca9e8588d04da",
  "args": [],
  "numDeployments": 10,
  "solcInputHash": "9f5f28c71accd459e87ba3e6bcfa0741",
  "bytecode": "0x608060405234801561001057600080fd5b506139da806100206000396000f3fe6080604052600436106101cd5760003560e01c80636c0360eb116100f7578063ac9650d811610095578063d279d40111610064578063d279d401146104d9578063d304c4bc146104ee578063e985e9c514610503578063f4a0a5281461052357600080fd5b8063ac9650d814610466578063b88d4fde14610493578063c87b56dd146104a6578063cc6261f1146104c657600080fd5b80638e10d554116100d15780638e10d554146103f1578063958944f11461041157806395d89b4114610431578063a22cb4651461044657600080fd5b80636c0360eb1461039c57806370a08231146103b157806383ccaef7146103d157600080fd5b80631fa44f0e1161016f5780634f6ccce71161013e5780634f6ccce71461032757806355f804b3146103475780636352211e146103675780636817c76c1461038757600080fd5b80631fa44f0e146102c157806323b872dd146102e15780632f745c59146102f457806342842e0e1461031457600080fd5b8063081812fc116101ab578063081812fc1461024b578063095ea7b3146102835780631249c58b1461029657806318160ddd1461029e57600080fd5b806301ffc9a7146101d2578063066bab1b1461020757806306fdde0314610229575b600080fd5b3480156101de57600080fd5b506101f26101ed366004612e13565b610543565b60405190151581526020015b60405180910390f35b34801561021357600080fd5b50610227610222366004612f0c565b610586565b005b34801561023557600080fd5b5061023e6106d8565b6040516101fe9190612fb5565b34801561025757600080fd5b5061026b610266366004612fc8565b6106e7565b6040516001600160a01b0390911681526020016101fe565b610227610291366004612fe1565b6106f2565b610227610700565b3480156102aa57600080fd5b506102b36107e5565b6040519081526020016101fe565b3480156102cd57600080fd5b506102b36102dc36600461300d565b6107ef565b6102276102ef36600461302a565b61081a565b34801561030057600080fd5b506102b361030f366004612fe1565b61082a565b61022761032236600461302a565b61083d565b34801561033357600080fd5b506102b3610342366004612fc8565b610848565b34801561035357600080fd5b506102276103623660046130c3565b610853565b34801561037357600080fd5b5061026b610382366004612fc8565b61088f565b34801561039357600080fd5b506102b361089a565b3480156103a857600080fd5b5061023e6108c4565b3480156103bd57600080fd5b506102b36103cc36600461300d565b6108ce565b3480156103dd57600080fd5b506102276103ec366004612fc8565b6108d9565b3480156103fd57600080fd5b5061022761040c366004612fc8565b61090d565b34801561041d57600080fd5b5061022761042c36600461310c565b61097d565b34801561043d57600080fd5b5061023e610aae565b34801561045257600080fd5b50610227610461366004613153565b610ab8565b34801561047257600080fd5b506104866104813660046131d6565b610ac2565b6040516101fe9190613218565b6102276104a136600461327a565b610bdd565b3480156104b257600080fd5b5061023e6104c1366004612fc8565b610bef565b6102276104d43660046132fa565b610bfa565b3480156104e557600080fd5b506102b3610d99565b3480156104fa57600080fd5b506102b3610dc3565b34801561050f57600080fd5b506101f261051e366004613394565b610ded565b34801561052f57600080fd5b5061022761053e366004612fc8565b610df9565b6001600160e01b0319811660009081527ffc606c433378e3a7e0a6a531deac289b66caa1b4aa8554fd4ab2c6f1570f92d8602052604081205460ff165b92915050565b60008051602061398583398151915280546002036105b757604051635db5c7cd60e11b815260040160405180910390fd5b6002815560008051602061394583398151915260008490036105ec576040516304d8f6d960e41b815260040160405180910390fd5b604080516001600160a01b038716602082015280820186905281518082038301815260609091019091526106208482610e2d565b60005b8581101561064e5761063c87610637610f77565b610f90565b80610646816133d8565b915050610623565b506001600160a01b038616600090815260208390526040812080548792906106779084906133f1565b925050819055508482600101600082825461069291906133f1565b909155505060405185906001600160a01b038816907fc169c3974ad5176ea41e766768be74079ba8c86a136ed66c5ac85e602782db7d90600090a3505060019055505050565b60606106e2610faa565b905090565b600061058082611049565b6106fc82826110ac565b5050565b600080516020613985833981519152805460020361073157604051635db5c7cd60e11b815260040160405180910390fd5b600281557f87a01bd38845081b30641ebc639dfadf787bd49017c45985af2341fe932c7466546000805160206139458339815191529034146107865760405163104bb3ad60e11b815260040160405180910390fd5b3360008181526020839052604081205490916107a1906111af565b6107ab9190613404565b9050816002015481106107d1576040516302dd778760e11b815260040160405180910390fd5b6107dd33610637610f77565b505060019055565b60006106e2610f77565b6001600160a01b03811660009081526000805160206139458339815191526020526040812054610580565b610825838383611218565b505050565b60006108368383611256565b9392505050565b610825838383611297565b6000610580826112b2565b61088361087e7ff6deb63e40d71b08820818e006e23fcceb1fce7a499bc15b71b2526cbf9efa725490565b6112cc565b61088c816112d6565b50565b600061058082611350565b60006106e27f87a01bd38845081b30641ebc639dfadf787bd49017c45985af2341fe932c74665490565b60606106e2611394565b6000610580826111af565b61090461087e7ff6deb63e40d71b08820818e006e23fcceb1fce7a499bc15b71b2526cbf9efa725490565b61088c816113b3565b600080516020613985833981519152805460020361093e57604051635db5c7cd60e11b815260040160405180910390fd5b6002815561094c3383611426565b60005b828110156109755761096333610637610f77565b8061096d816133d8565b91505061094f565b506001905550565b60008051602061398583398151915280546002036109ae57604051635db5c7cd60e11b815260040160405180910390fd5b6002815560008051602061394583398151915260008490036109e3576040516304d8f6d960e41b815260040160405180910390fd5b604080513360208201528082018690528151808203830181526060909101909152610a0e8482610e2d565b60005b85811015610a3757610a2533610637610f77565b80610a2f816133d8565b915050610a11565b503360009081526020839052604081208054879290610a579084906133f1565b9250508190555084826001016000828254610a7291906133f1565b9091555050604051859033907fc169c3974ad5176ea41e766768be74079ba8c86a136ed66c5ac85e602782db7d90600090a35050600190555050565b60606106e26115c2565b6106fc82826115e1565b60608167ffffffffffffffff811115610add57610add612e45565b604051908082528060200260200182016040528015610b1057816020015b6060815260200190600190039081610afb5790505b50905060005b82811015610bd65760008030868685818110610b3457610b34613417565b9050602002810190610b46919061342d565b604051610b54929190613474565b600060405180830381855af49150503d8060008114610b8f576040519150601f19603f3d011682016040523d82523d6000602084013e610b94565b606091505b50915091508115610bc25780848481518110610bb257610bb2613417565b6020026020010181905250610bcc565b3d6000803e3d6000fd5b5050600101610b16565b5092915050565b610be984848484611695565b50505050565b6060610580826116d4565b6000805160206139858339815191528054600203610c2b57604051635db5c7cd60e11b815260040160405180910390fd5b600281557f87a01bd38845081b30641ebc639dfadf787bd49017c45985af2341fe932c746654600080516020613945833981519152903414610cc85760405162461bcd60e51b815260206004820152602b60248201527f417263616469616e73496e7465726e616c2e5f6d696e743a20496e76616c696460448201526a081c185e48185b5bdd5b9d60aa1b60648201526084015b60405180910390fd5b336000818152602083905260408120549091610ce3906111af565b610ced9190613404565b905081600201548110610d685760405162461bcd60e51b815260206004820152603b60248201527f417263616469616e73496e7465726e616c2e5f6d696e743a2055736572206d6160448201527f78696d756d206d696e74656420746f6b656e73207265616368656400000000006064820152608401610cbf565b6000610d72610f77565b9050610d7e3382610f90565b610d8b81898989896118b5565b505060019091555050505050565b60006106e27f87a01bd38845081b30641ebc639dfadf787bd49017c45985af2341fe932c74645490565b60006106e27f87a01bd38845081b30641ebc639dfadf787bd49017c45985af2341fe932c74655490565b60006108368383611d5a565b610e2461087e7ff6deb63e40d71b08820818e006e23fcceb1fce7a499bc15b71b2526cbf9efa725490565b61088c81611da7565b7f7a07c093b55ad04e200605cb287859fe4640b7310d62fdbb044e26399da78c09547f7a07c093b55ad04e200605cb287859fe4640b7310d62fdbb044e26399da78c089060ff1615610e925760405163a2f902f160e01b815260040160405180910390fd5b600083604051602001610ea59190613484565b60408051601f19818403018152918152815160209283012060008181526002860190935291205490915060ff1615610ef05760405163dea0a45b60e01b815260040160405180910390fd5b60008380519060200120604051602001610f0c91815260200190565b6040516020818303038152906040528051906020012090506000610f3586856000015484611e1a565b905080610f5557604051631006f83b60e31b815260040160405180910390fd5b50506000908152600290910160205260409020805460ff191660011790555050565b60006106e2600080516020613925833981519152611ebf565b6106fc828260405180602001604052806000815250611ec9565b60606000805160206139658339815191528054610fc6906134ba565b80601f0160208091040260200160405190810160405280929190818152602001828054610ff2906134ba565b801561103f5780601f106110145761010080835404028352916020019161103f565b820191906000526020600020905b81548152906001019060200180831161102257829003601f168201915b5050505050905090565b600061105482611efd565b6110715760405163c1b843ef60e01b815260040160405180910390fd5b5060009081527f3c7bf052874fa81625121783266a03507bd2cd48b16e571c01a04e8dd3fb07a960205260409020546001600160a01b031690565b6110b7828234611f17565b60006110c282611350565b9050806001600160a01b0316836001600160a01b0316036110f65760405163424a22cb60e01b815260040160405180910390fd5b336001600160a01b0382161480159061111657506111148133611d5a565b155b1561113457604051632f5de44f60e01b815260040160405180910390fd5b60008281527f3c7bf052874fa81625121783266a03507bd2cd48b16e571c01a04e8dd3fb07a9602052604080822080546001600160a01b0319166001600160a01b0387811691821790925591518593918516917f8c5be1e5ebec7d5bd14f71427d1e84f3dd0314c0f7b2291e5b200ac8c7c3b92591a4505050565b60006001600160a01b0382166111d857604051630810ff9760e41b815260040160405180910390fd5b6001600160a01b03821660009081527f3c7bf052874fa81625121783266a03507bd2cd48b16e571c01a04e8dd3fb07a86020526040902061058090611ebf565b61122483838334611f41565b61122e3382611f6c565b61124b57604051632f5de44f60e01b815260040160405180910390fd5b610825838383611ff2565b6001600160a01b03821660009081527f3c7bf052874fa81625121783266a03507bd2cd48b16e571c01a04e8dd3fb07a8602052604081206108369083612181565b61082583838360405180602001604052806000815250611695565b6000610bd66000805160206139258339815191528361218d565b61088c81336121ab565b6040516000805160206139658339815191529033907f92bf6a7b8937c17e6781a68d61f9fe6a5ce08604b96ca2206f311049a3a295ea9061133a907f99574a7094154bb123ae6ae102096f0bf9679b85a5cd1e727aaa0ae5f132e6b39086906134f4565b60405180910390a26002810161082583826135e1565b60008061136b6000805160206139258339815191528461220d565b90506001600160a01b03811661058057604051637e1a7d8b60e01b815260040160405180910390fd5b60606000805160206139658339815191526002018054610fc6906134ba565b7f87a01bd38845081b30641ebc639dfadf787bd49017c45985af2341fe932c746554604080519182526020820183905280516000805160206139458339815191529233927f9a201d4a67373d8576462c238c27108c61b3deec32a932aac079a84cc3b7742c92918290030190a260020155565b7ff38d3885e664c9638de25f02e645e1955ebebe901d7be2c2037db6a5bcbb358c547ff38d3885e664c9638de25f02e645e1955ebebe901d7be2c2037db6a5bcbb35889060ff161561148b57604051633137c0e960e11b815260040160405180910390fd5b6001600160a01b03831660009081526001820160205260409020548211156114c657604051630f8a2c5f60e31b815260040160405180910390fd5b6001600160a01b0383166000908152600182016020526040812080548492906114f0908490613404565b90915550506001600160a01b0383166000908152602082905260408120805484929061151d9084906133f1565b925050819055508181600201600082825461153891906133f1565b92505081905550818160030160008282546115539190613404565b90915550506001600160a01b038316600090815260018201602090815260408083205484835292819020548151338152928301939093528101919091527fc7ba59c487358e9747ee9c691c213a9b2d30e01bb1b022a3e11d4b1984cd98459060600160405180910390a1505050565b60606000805160206139658339815191526001018054610fc6906134ba565b336001600160a01b0383160361160a5760405163424a22cb60e01b815260040160405180910390fd5b3360008181527f3c7bf052874fa81625121783266a03507bd2cd48b16e571c01a04e8dd3fb07aa602090815260408083206001600160a01b03871680855290835292819020805460ff191686151590811790915590519081529192917f17307eab39ab6107e8899845ad3d59bd9653f200f220920489ca2b5937696c31910160405180910390a35050565b6116a184848434611f41565b6116ab3383611f6c565b6116c857604051632f5de44f60e01b815260040160405180910390fd5b610be984848484612219565b60606116df82611efd565b6116fb57604051624705a760e71b815260040160405180910390fd5b60008281527f99574a7094154bb123ae6ae102096f0bf9679b85a5cd1e727aaa0ae5f132e6b4602052604081208054600080516020613965833981519152929190611745906134ba565b80601f0160208091040260200160405190810160405280929190818152602001828054611771906134ba565b80156117be5780601f10611793576101008083540402835291602001916117be565b820191906000526020600020905b8154815290600101906020018083116117a157829003601f168201915b5050505050905060008260020180546117d6906134ba565b80601f0160208091040260200160405190810160405280929190818152602001828054611802906134ba565b801561184f5780601f106118245761010080835404028352916020019161184f565b820191906000526020600020905b81548152906001019060200180831161183257829003601f168201915b50505050509050805160000361186757509392505050565b81511561189a5780826040516020016118819291906136a1565b6040516020818303038152906040529350505050919050565b806118a48661224d565b6040516020016118819291906136a1565b60008390036118d757604051635740c67760e11b815260040160405180910390fd5b8281146118f7576040516303f7219d60e41b815260040160405180910390fd5b7ff672b8dc84d117c1e14949d8bc3977392b5ab7de9d01b854d389cdc31bf0d436805460005b85811015611ce757600087878381811061193957611939613417565b90506020020135905080600014801561195157508281115b1561196f5760405163d751397d60e01b815260040160405180910390fd5b8084600401600088888681811061198857611988613417565b61199e926020604090920201908101915061300d565b6001600160a01b03166001600160a01b0316815260200190815260200160002060008888868181106119d2576119d2613417565b9050604002016020013581526020019081526020016000205414611a095760405163711f88b160e11b815260040160405180910390fd5b600089815260038501602090815260408083208484529091529020868684818110611a3657611a36613417565b611a4c926020604090920201908101915061300d565b81546001600160a01b039081169116148015611a865750868684818110611a7557611a75613417565b905060400201602001358160010154145b15611aa45760405163c80df0cb60e01b815260040160405180910390fd5b600082815260018087016020526040909120015460ff168015611ad0575080546001600160a01b031615155b15611aee5760405163bd8a5e1560e01b815260040160405180910390fd5b611af88a8361234e565b868684818110611b0a57611b0a613417565b60008d8152600389016020908152604080832088845290915290819020910292909201919050611b3a82826136d0565b9050506000878785818110611b5157611b51613417565b611b67926020604090920201908101915061300d565b90506001816001600160a01b031662fdd58e338b8b89818110611b8c57611b8c613417565b905060400201602001356040518363ffffffff1660e01b8152600401611bc79291906001600160a01b03929092168252602082015260400190565b602060405180830381865afa158015611be4573d6000803e3d6000fd5b505050506040513d601f19601f82011682018060405250810190611c08919061370a565b1015611c27576040516335ba250d60e11b815260040160405180910390fd5b806001600160a01b031663f242432a33308b8b89818110611c4a57611c4a613417565b6040805160e088901b6001600160e01b03191681526001600160a01b039687166004820152949095166024850152909302016020013560448201526001606482015260a06084820152600060a482015260c4019050600060405180830381600087803b158015611cb957600080fd5b505af1158015611ccd573d6000803e3d6000fd5b505050505050508080611cdf906133d8565b91505061191d565b50611cf187612473565b611d0d5760405162ecf30560e51b815260040160405180910390fd5b86336001600160a01b03167f557dc03f902756383ba5a748ab63ec6ec44b2880dba84ad33dc6ffe670f188618888604051611d49929190613723565b60405180910390a350505050505050565b6001600160a01b0391821660009081527f3c7bf052874fa81625121783266a03507bd2cd48b16e571c01a04e8dd3fb07aa6020908152604080832093909416825291909152205460ff1690565b7f87a01bd38845081b30641ebc639dfadf787bd49017c45985af2341fe932c746654604080519182526020820183905280516000805160206139458339815191529233927fed96032e9c101f4508a9696e8861f06aa3674be1b735fc685aed0efb83db76e992918290030190a260030155565b600081815b8551811015611eb4576000868281518110611e3c57611e3c613417565b60200260200101519050808311611e7e576040805160208101859052908101829052606001604051602081830303815290604052805190602001209250611eab565b60408051602081018390529081018490526060016040516020818303038152906040528051906020012092505b50600101611e1f565b509092149392505050565b6000610580825490565b611ed383836125cc565b611ee060008484846126c1565b61082557604051639ff10cdd60e01b815260040160405180910390fd5b600061058060008051602061392583398151915283612792565b8015611f365760405163b56d7c1b60e01b815260040160405180910390fd5b6108258383836127aa565b8015611f60576040516322b1813960e01b815260040160405180910390fd5b610be9848484846127c9565b6000611f7782611efd565b611f945760405163c1b843ef60e01b815260040160405180910390fd5b6000611f9f83611350565b9050806001600160a01b0316846001600160a01b03161480611fda5750836001600160a01b0316611fcf84611049565b6001600160a01b0316145b80611fea5750611fea8185611d5a565b949350505050565b6000611ffd82611350565b9050836001600160a01b0316816001600160a01b03161461203157604051630f2db4ad60e01b815260040160405180910390fd5b6001600160a01b038316612058576040516340311a0960e01b815260040160405180910390fd5b6120638484846127ed565b6001600160a01b03841660009081527f3c7bf052874fa81625121783266a03507bd2cd48b16e571c01a04e8dd3fb07a860205260409020600080516020613925833981519152906120b490846127f8565b506001600160a01b038416600090815260028201602052604090206120d99084612804565b506120e5818486612810565b50600083815260038201602052604080822080546001600160a01b0319169055518491906001600160a01b038516907f8c5be1e5ebec7d5bd14f71427d1e84f3dd0314c0f7b2291e5b200ac8c7c3b925908390a482846001600160a01b0316866001600160a01b03167fddf252ad1be2c89b69c2b068fc378daa952ba7f163c4a11628f55a4df523b3ef60405160405180910390a45050505050565b60006108368383612826565b600080808061219c8686612872565b909450925050505b9250929050565b6121b582826128d5565b6106fc576121cb816001600160a01b031661290c565b6121d683602061291e565b6040516020016121e792919061375c565b60408051601f198184030181529082905262461bcd60e51b8252610cbf91600401612fb5565b60006108368383612a71565b612224848484611ff2565b612230848484846126c1565b610be957604051639ff10cdd60e01b815260040160405180910390fd5b6060816000036122745750506040805180820190915260018152600360fc1b602082015290565b8160005b811561229e5780612288816133d8565b91506122979050600a836137e7565b9150612278565b60008167ffffffffffffffff8111156122b9576122b9612e45565b6040519080825280601f01601f1916602001820160405280156122e3576020820181803683370190505b5090505b8415611fea576122f8600183613404565b9150612305600a866137fb565b6123109060306133f1565b60f81b81838151811061232557612325613417565b60200101906001600160f81b031916908160001a905350612347600a866137e7565b94506122e7565b60008281527ff672b8dc84d117c1e14949d8bc3977392b5ab7de9d01b854d389cdc31bf0d43960209081526040808320848452909152902080547ff672b8dc84d117c1e14949d8bc3977392b5ab7de9d01b854d389cdc31bf0d43691906001600160a01b0316806123c0575050505050565b600182810154604051637921219560e11b81523060048201523360248201526044810191909152606481019190915260a06084820152600060a48201526001600160a01b0382169063f242432a9060c401600060405180830381600087803b15801561242b57600080fd5b505af115801561243f573d6000803e3d6000fd5b505050600095865250505060030160209081526040808420928452919052812080546001600160a01b031916815560010155565b60008080527ff672b8dc84d117c1e14949d8bc3977392b5ab7de9d01b854d389cdc31bf0d4386020527ff672b8dc84d117c1e14949d8bc3977392b5ab7de9d01b854d389cdc31bf0d4367f845ff02802177e9909faef63e536d995d5be20fadd26c667f4235942a02dfdd96060836124ea83611ebf565b905060005b8181101561256b5760006125038583612181565b60008981526003880160209081526040808320848452825291829020805460018201549351949550909361254593899387936001600160a01b0316920161380f565b604051602081830303815290604052945050508080612563906133d8565b9150506124ef565b50815160208301206125806006860182612792565b6000888152600887016020526040902054901596506125a39060068701906127f8565b506125b16006860182612804565b50600096875260089094016020525050604090932055919050565b6001600160a01b0382166125f3576040516311f2988d60e11b815260040160405180910390fd5b6125fc81611efd565b1561261a57604051630d86bb7b60e31b815260040160405180910390fd5b612626600083836127ed565b6001600160a01b03821660009081527f3c7bf052874fa81625121783266a03507bd2cd48b16e571c01a04e8dd3fb07a860205260409020600080516020613925833981519152906126779083612804565b50612683818385612810565b5060405182906001600160a01b038516906000907fddf252ad1be2c89b69c2b068fc378daa952ba7f163c4a11628f55a4df523b3ef908290a4505050565b60006001600160a01b0384163b6126da57506001611fea565b600061275b63150b7a0260e01b338887876040516024016126fe9493929190613850565b604051602081830303815290604052906001600160e01b0319166020820180516001600160e01b0383818316178352505050506040518060600160405280603281526020016138f3603291396001600160a01b0388169190612ad5565b9050600081806020019051810190612773919061388c565b6001600160e01b031916630a85bd0160e11b1492505050949350505050565b60008181526001830160205260408120541515610836565b80156108255760405163b56d7c1b60e01b815260040160405180910390fd5b80156127e8576040516322b1813960e01b815260040160405180910390fd5b610be9565b610825838383612ae4565b60006108368383612aef565b60006108368383612ba9565b6000611fea84846001600160a01b038516612bec565b8154600090821061284a5760405163e637bf3b60e01b815260040160405180910390fd5b82600001828154811061285f5761285f613417565b9060005260206000200154905092915050565b8154600090819083106128985760405163022fd82760e31b815260040160405180910390fd5b60008460000184815481106128af576128af613417565b906000526020600020906002020190508060000154816001015492509250509250929050565b60008281527fd3889cc5458b268d0544e5534672df1296288ca3f93cbd39bd6f497a5c622811602052604081206108369083612c8b565b60606105806001600160a01b03831660145b6060600061292d8360026138a9565b6129389060026133f1565b67ffffffffffffffff81111561295057612950612e45565b6040519080825280601f01601f19166020018201604052801561297a576020820181803683370190505b509050600360fc1b8160008151811061299557612995613417565b60200101906001600160f81b031916908160001a905350600f60fb1b816001815181106129c4576129c4613417565b60200101906001600160f81b031916908160001a905350600160028402015b6001811115612a51576f181899199a1a9b1b9c1cb0b131b232b360811b85600f1660108110612a1457612a14613417565b1a60f81b828281518110612a2a57612a2a613417565b60200101906001600160f81b031916908160001a90535060049490941c93600019016129e3565b5083156108365760405163c913478560e01b815260040160405180910390fd5b6000818152600183016020526040812054808203612aa257604051633d547ec560e21b815260040160405180910390fd5b836000016001820381548110612aba57612aba613417565b90600052602060002090600202016001015491505092915050565b6060611fea8484600085612cad565b610825838383612d6a565b60008181526001830160205260408120548015610bd657835460009085906000198101908110612b2157612b21613417565b9060005260206000200154905080856000016001840381548110612b4757612b47613417565b6000918252602080832090910192909255918252600186019052604090208190558354849080612b7957612b796138c0565b60008281526020808220830160001990810183905590920190925593815260019485019093525050604081205590565b6000818152600183016020526040812054610580575081546001808201845560008481526020808220909301849055845493815293810190915260409092205590565b6000828152600184016020526040812054808203612c53575050604080518082018252838152602080820184815286546001818101895560008981528481209551600290930290950191825591519082015586548684528188019092529290912055610836565b82856000016001830381548110612c6c57612c6c613417565b9060005260206000209060020201600101819055506000915050610836565b6001600160a01b03811660009081526001830160205260408120541515610836565b6060843b612cce57604051632270d6bf60e21b815260040160405180910390fd5b600080866001600160a01b03168587604051612cea91906138d6565b60006040518083038185875af1925050503d8060008114612d27576040519150601f19603f3d011682016040523d82523d6000602084013e612d2c565b606091505b50915091508115612d40579150611fea9050565b805115612d505780518082602001fd5b8360405162461bcd60e51b8152600401610cbf9190612fb5565b6108258383836001600160a01b0382166108255760008181527f99574a7094154bb123ae6ae102096f0bf9679b85a5cd1e727aaa0ae5f132e6b46020526040902080546108259190612dbb906134ba565b6000825580601f10612dcb575050565b601f01602090049060005260206000209081019061088c91905b80821115612df95760008155600101612de5565b5090565b6001600160e01b03198116811461088c57600080fd5b600060208284031215612e2557600080fd5b813561083681612dfd565b6001600160a01b038116811461088c57600080fd5b634e487b7160e01b600052604160045260246000fd5b604051601f8201601f1916810167ffffffffffffffff81118282101715612e8457612e84612e45565b604052919050565b600082601f830112612e9d57600080fd5b8135602067ffffffffffffffff821115612eb957612eb9612e45565b8160051b612ec8828201612e5b565b9283528481018201928281019087851115612ee257600080fd5b83870192505b84831015612f0157823582529183019190830190612ee8565b979650505050505050565b600080600060608486031215612f2157600080fd5b8335612f2c81612e30565b925060208401359150604084013567ffffffffffffffff811115612f4f57600080fd5b612f5b86828701612e8c565b9150509250925092565b60005b83811015612f80578181015183820152602001612f68565b50506000910152565b60008151808452612fa1816020860160208601612f65565b601f01601f19169290920160200192915050565b6020815260006108366020830184612f89565b600060208284031215612fda57600080fd5b5035919050565b60008060408385031215612ff457600080fd5b8235612fff81612e30565b946020939093013593505050565b60006020828403121561301f57600080fd5b813561083681612e30565b60008060006060848603121561303f57600080fd5b833561304a81612e30565b9250602084013561305a81612e30565b929592945050506040919091013590565b600067ffffffffffffffff83111561308557613085612e45565b613098601f8401601f1916602001612e5b565b90508281528383830111156130ac57600080fd5b828260208301376000602084830101529392505050565b6000602082840312156130d557600080fd5b813567ffffffffffffffff8111156130ec57600080fd5b8201601f810184136130fd57600080fd5b611fea8482356020840161306b565b6000806040838503121561311f57600080fd5b82359150602083013567ffffffffffffffff81111561313d57600080fd5b61314985828601612e8c565b9150509250929050565b6000806040838503121561316657600080fd5b823561317181612e30565b91506020830135801515811461318657600080fd5b809150509250929050565b60008083601f8401126131a357600080fd5b50813567ffffffffffffffff8111156131bb57600080fd5b6020830191508360208260051b85010111156121a457600080fd5b600080602083850312156131e957600080fd5b823567ffffffffffffffff81111561320057600080fd5b61320c85828601613191565b90969095509350505050565b6000602080830181845280855180835260408601915060408160051b870101925083870160005b8281101561326d57603f1988860301845261325b858351612f89565b9450928501929085019060010161323f565b5092979650505050505050565b6000806000806080858703121561329057600080fd5b843561329b81612e30565b935060208501356132ab81612e30565b925060408501359150606085013567ffffffffffffffff8111156132ce57600080fd5b8501601f810187136132df57600080fd5b6132ee8782356020840161306b565b91505092959194509250565b6000806000806040858703121561331057600080fd5b843567ffffffffffffffff8082111561332857600080fd5b61333488838901613191565b9096509450602087013591508082111561334d57600080fd5b818701915087601f83011261336157600080fd5b81358181111561337057600080fd5b8860208260061b850101111561338557600080fd5b95989497505060200194505050565b600080604083850312156133a757600080fd5b82356133b281612e30565b9150602083013561318681612e30565b634e487b7160e01b600052601160045260246000fd5b6000600182016133ea576133ea6133c2565b5060010190565b80820180821115610580576105806133c2565b81810381811115610580576105806133c2565b634e487b7160e01b600052603260045260246000fd5b6000808335601e1984360301811261344457600080fd5b83018035915067ffffffffffffffff82111561345f57600080fd5b6020019150368190038213156121a457600080fd5b8183823760009101908152919050565b815160009082906020808601845b838110156134ae57815185529382019390820190600101613492565b50929695505050505050565b600181811c908216806134ce57607f821691505b6020821081036134ee57634e487b7160e01b600052602260045260246000fd5b50919050565b604081526000808454613506816134ba565b8060408601526060600180841660008114613528576001811461354257613573565b60ff1985168884015283151560051b880183019550613573565b8960005260208060002060005b8681101561356a5781548b820187015290840190820161354f565b8a018501975050505b5050505050828103602084015261358a8185612f89565b95945050505050565b601f82111561082557600081815260208120601f850160051c810160208610156135ba5750805b601f850160051c820191505b818110156135d9578281556001016135c6565b505050505050565b815167ffffffffffffffff8111156135fb576135fb612e45565b61360f8161360984546134ba565b84613593565b602080601f831160018114613644576000841561362c5750858301515b600019600386901b1c1916600185901b1785556135d9565b600085815260208120601f198616915b8281101561367357888601518255948401946001909101908401613654565b50858210156136915787850151600019600388901b60f8161c191681555b5050505050600190811b01905550565b600083516136b3818460208801612f65565b8351908301906136c7818360208801612f65565b01949350505050565b81356136db81612e30565b6001600160a01b0381166bffffffffffffffffffffffff60a01b83541617825550602082013560018201555050565b60006020828403121561371c57600080fd5b5051919050565b6020808252810182905260006001600160fb1b0383111561374357600080fd5b8260051b80856040850137919091016040019392505050565b7f416363657373436f6e74726f6c3a206163636f756e7420000000000000000000815260008351613794816017850160208801612f65565b7001034b99036b4b9b9b4b733903937b6329607d1b60179184019182015283516137c5816028840160208801612f65565b01602801949350505050565b634e487b7160e01b600052601260045260246000fd5b6000826137f6576137f66137d1565b500490565b60008261380a5761380a6137d1565b500690565b60008551613821818460208a01612f65565b919091019384525060609190911b6bffffffffffffffffffffffff191660208301526034820152605401919050565b60006001600160a01b038087168352808616602084015250836040830152608060608301526138826080830184612f89565b9695505050505050565b60006020828403121561389e57600080fd5b815161083681612dfd565b8082028115828204841417610580576105806133c2565b634e487b7160e01b600052603160045260246000fd5b600082516138e8818460208701612f65565b919091019291505056fe4552433732313a207472616e7366657220746f206e6f6e20455243373231526563656976657220696d706c656d656e7465723c7bf052874fa81625121783266a03507bd2cd48b16e571c01a04e8dd3fb07a687a01bd38845081b30641ebc639dfadf787bd49017c45985af2341fe932c746399574a7094154bb123ae6ae102096f0bf9679b85a5cd1e727aaa0ae5f132e6b109acf4e54214992e70883cf7dcd6957ff2c71cd9e14df4bec4383bc0d11607dca26469706673582212204c0ac7f3b8b49d2f53a1a502ad779820e62f25fb1821fea9d58fb4dabb2124d264736f6c63430008130033",
  "devdoc": {
    "details": "ReentrancyGuard and Multicall contracts are used for security and gas efficiency.",
    "kind": "dev",
    "methods": {
      "approve(address,uint256)": {
        "params": {
          "operator": "address to be approved",
          "tokenId": "token to approve"
        }
      },
      "balanceOf(address)": {
        "returns": {
          "_0": "quantity of tokens held"
        }
      },
      "claimMerkle(uint256,bytes32[])": {
        "params": {
          "amount": "amount of arcadians that the caller wants to claim",
          "proof": "Merkle proof to validate if the caller is eligible to claim the amount given"
        }
      },
      "claimMerkleTEST(address,uint256,bytes32[])": {
        "details": "TODO: DELETE THIS FUNCTION",
        "params": {
          "amount": "amount of arcadians that the caller wants to claim",
          "proof": "Merkle proof to validate if the caller is eligible to claim the amount given",
          "to": "address to claim"
        }
      },
      "claimWhitelist(uint256)": {
        "params": {
          "amount": "amount of tokens to claim"
        }
      },
      "claimedAmountMerkle(address)": {
        "params": {
          "account": "address to check"
        },
        "returns": {
          "_0": "uint amount of tokens claimed by the address"
        }
      },
      "getApproved(uint256)": {
        "params": {
          "tokenId": "token to query"
        },
        "returns": {
          "_0": "address approved to spend token"
        }
      },
      "isApprovedForAll(address,address)": {
        "params": {
          "account": "address to query for approval granted",
          "operator": "address to query for approval received"
        },
        "returns": {
          "_0": "whether operator is approved to spend tokens held by account"
        }
      },
      "maxMintPerUser()": {
        "details": "This function gets the current maximum number of arcadians that a user can mint",
        "returns": {
          "_0": "The current maximum number of arcadians that a user can mint"
        }
      },
      "mintAndEquip(uint256[],(address,uint256)[])": {
        "params": {
          "itemsToEquip": "array of items to equip in the correspondent slot",
          "slotIds": "IDs of the inventory slots to equip"
        }
      },
      "mintPrice()": {
        "returns": {
          "_0": "The current mint price"
        }
      },
      "multicall(bytes[])": {
        "params": {
          "data": "array of function call data payloads"
        },
        "returns": {
          "results": "array of function call results"
        }
      },
      "ownerOf(uint256)": {
        "params": {
          "tokenId": "token to query"
        },
        "returns": {
          "_0": "token owner"
        }
      },
      "safeTransferFrom(address,address,uint256)": {
        "params": {
          "from": "sender of token",
          "to": "receiver of token",
          "tokenId": "token id"
        }
      },
      "safeTransferFrom(address,address,uint256,bytes)": {
        "params": {
          "data": "data payload",
          "from": "sender of token",
          "to": "receiver of token",
          "tokenId": "token id"
        }
      },
      "setApprovalForAll(address,bool)": {
        "params": {
          "operator": "address to be approved",
          "status": "approval status"
        }
      },
      "setBaseURI(string)": {
        "params": {
          "newBaseURI": "The new base URI for all token metadata"
        }
      },
      "setMaxMintPerUser(uint256)": {
        "params": {
          "newMaxMintPerUser": "The new maximum number of arcadians that a user can mint"
        }
      },
      "setMintPrice(uint256)": {
        "params": {
          "newMintPrice": "The new mint price to be set"
        }
      },
      "supportsInterface(bytes4)": {
        "params": {
          "interfaceId": "interface id"
        },
        "returns": {
          "_0": "bool whether interface is supported"
        }
      },
      "tokenByIndex(uint256)": {
        "params": {
          "index": "position in global token list to query"
        },
        "returns": {
          "_0": "id of retrieved token"
        }
      },
      "tokenOfOwnerByIndex(address,uint256)": {
        "params": {
          "index": "position in owner's token list to query",
          "owner": "token holder to query"
        },
        "returns": {
          "_0": "id of retrieved token"
        }
      },
      "tokenURI(uint256)": {
        "params": {
          "tokenId": "ID of the token to query"
        },
        "returns": {
          "_0": "The URI for the given token ID"
        }
      },
      "totalClaimedMerkle()": {
        "returns": {
          "_0": "The total claimed amount"
        }
      },
      "totalSupply()": {
        "returns": {
          "_0": "total supply"
        }
      },
      "transferFrom(address,address,uint256)": {
        "params": {
          "from": "sender of token",
          "to": "receiver of token",
          "tokenId": "token id"
        }
      }
    },
    "title": "ArcadiansFacet",
    "version": 1
  },
  "userdoc": {
    "kind": "user",
    "methods": {
      "approve(address,uint256)": {
        "notice": "grant approval to given account to spend token"
      },
      "balanceOf(address)": {
        "notice": "query the balance of given address"
      },
      "claimMerkle(uint256,bytes32[])": {
        "notice": "Allow the caller of the transaction to claim the amount of arcadians present in the Merkle tree"
      },
      "claimMerkleTEST(address,uint256,bytes32[])": {
        "notice": "Test function: Allow the caller of the transaction to claim the amount of arcadians present in the Merkle tree"
      },
      "claimWhitelist(uint256)": {
        "notice": "Allow caller to claims tokens from the whitelist"
      },
      "claimedAmountMerkle(address)": {
        "notice": "Returns the amount of arcadians claimed by an address through the Merkle tree"
      },
      "getApproved(uint256)": {
        "notice": "get approval status for given token"
      },
      "isApprovedForAll(address,address)": {
        "notice": "query approval status of given operator with respect to given address"
      },
      "mint()": {
        "notice": "Mint a token and transfer it to the caller."
      },
      "mintAndEquip(uint256[],(address,uint256)[])": {
        "notice": "Mint a token and equip it with given items"
      },
      "mintPrice()": {
        "notice": "This function gets the current price to mint an arcadian"
      },
      "multicall(bytes[])": {
        "notice": "batch function calls to the contract and return the results of each"
      },
      "name()": {
        "notice": "inheritdoc IERC721Metadata"
      },
      "ownerOf(uint256)": {
        "notice": "query the owner of given token"
      },
      "safeTransferFrom(address,address,uint256)": {
        "notice": "transfer token between given addresses, checking for ERC721Receiver implementation if applicable"
      },
      "safeTransferFrom(address,address,uint256,bytes)": {
        "notice": "transfer token between given addresses, checking for ERC721Receiver implementation if applicable"
      },
      "setApprovalForAll(address,bool)": {
        "notice": "grant approval to or revoke approval from given account to spend all tokens held by sender"
      },
      "setBaseURI(string)": {
        "notice": "Set the base URI for all Arcadians metadataOnly the manager role can call this function"
      },
      "setMaxMintPerUser(uint256)": {
        "notice": "This function sets the new maximum number of arcadians that a user can mint"
      },
      "setMintPrice(uint256)": {
        "notice": "This function updates the price to mint an arcadian"
      },
      "supportsInterface(bytes4)": {
        "notice": "query whether contract has registered support for given interface"
      },
      "symbol()": {
        "notice": "inheritdoc IERC721Metadata"
      },
      "tokenByIndex(uint256)": {
        "notice": "get token at given internal storage index"
      },
      "tokenOfOwnerByIndex(address,uint256)": {
        "notice": "get token of given owner at given internal storage index"
      },
      "tokenURI(uint256)": {
        "notice": "Returns the URI for a given arcadian"
      },
      "totalClaimedMerkle()": {
        "notice": "Returns the total claimed amount from the merkle tree"
      },
      "totalSupply()": {
        "notice": "get total token supply"
      },
      "transferFrom(address,address,uint256)": {
        "notice": "transfer token between given addresses, without checking for ERC721Receiver implementation if applicable"
      }
    },
    "notice": "This contract is an ERC721 responsible for minting and claiming Arcadian tokens.",
    "version": 1
  },
  "storageLayout": {
    "storage": [],
    "types": null
  }
}