{
  "address": "0xE0B0C4B176130626d528858c95F2E78f663998b2",
  "abi": [
    {
      "inputs": [],
      "name": "AddressUtils__NotContract",
      "type": "error"
    },
    {
      "inputs": [],
      "name": "ERC165Base__InvalidInterfaceId",
      "type": "error"
    },
    {
      "inputs": [],
      "name": "ERC721Base__BalanceQueryZeroAddress",
      "type": "error"
    },
    {
      "inputs": [],
      "name": "ERC721Base__ERC721ReceiverNotImplemented",
      "type": "error"
    },
    {
      "inputs": [],
      "name": "ERC721Base__InvalidOwner",
      "type": "error"
    },
    {
      "inputs": [],
      "name": "ERC721Base__MintToZeroAddress",
      "type": "error"
    },
    {
      "inputs": [],
      "name": "ERC721Base__NonExistentToken",
      "type": "error"
    },
    {
      "inputs": [],
      "name": "ERC721Base__NotOwnerOrApproved",
      "type": "error"
    },
    {
      "inputs": [],
      "name": "ERC721Base__NotTokenOwner",
      "type": "error"
    },
    {
      "inputs": [],
      "name": "ERC721Base__SelfApproval",
      "type": "error"
    },
    {
      "inputs": [],
      "name": "ERC721Base__TokenAlreadyMinted",
      "type": "error"
    },
    {
      "inputs": [],
      "name": "ERC721Base__TransferToZeroAddress",
      "type": "error"
    },
    {
      "inputs": [],
      "name": "ERC721Metadata__NonExistentToken",
      "type": "error"
    },
    {
      "inputs": [],
      "name": "EnumerableMap__IndexOutOfBounds",
      "type": "error"
    },
    {
      "inputs": [],
      "name": "EnumerableMap__NonExistentKey",
      "type": "error"
    },
    {
      "inputs": [],
      "name": "EnumerableSet__IndexOutOfBounds",
      "type": "error"
    },
    {
      "inputs": [],
      "name": "ReentrancyGuard__ReentrantCall",
      "type": "error"
    },
    {
      "inputs": [],
      "name": "SolidStateERC721__PayableApproveNotSupported",
      "type": "error"
    },
    {
      "inputs": [],
      "name": "SolidStateERC721__PayableTransferNotSupported",
      "type": "error"
    },
    {
      "inputs": [],
      "name": "UintUtils__InsufficientHexLength",
      "type": "error"
    },
    {
      "anonymous": false,
      "inputs": [
        {
          "indexed": true,
          "internalType": "address",
          "name": "owner",
          "type": "address"
        },
        {
          "indexed": true,
          "internalType": "address",
          "name": "operator",
          "type": "address"
        },
        {
          "indexed": true,
          "internalType": "uint256",
          "name": "tokenId",
          "type": "uint256"
        }
      ],
      "name": "Approval",
      "type": "event"
    },
    {
      "anonymous": false,
      "inputs": [
        {
          "indexed": true,
          "internalType": "address",
          "name": "owner",
          "type": "address"
        },
        {
          "indexed": true,
          "internalType": "address",
          "name": "operator",
          "type": "address"
        },
        {
          "indexed": false,
          "internalType": "bool",
          "name": "approved",
          "type": "bool"
        }
      ],
      "name": "ApprovalForAll",
      "type": "event"
    },
    {
      "anonymous": false,
      "inputs": [
        {
          "indexed": true,
          "internalType": "address",
          "name": "to",
          "type": "address"
        },
        {
          "indexed": true,
          "internalType": "uint256",
          "name": "amount",
          "type": "uint256"
        }
      ],
      "name": "ArcadianClaimed",
      "type": "event"
    },
    {
      "anonymous": false,
      "inputs": [
        {
          "indexed": true,
          "internalType": "address",
          "name": "by",
          "type": "address"
        },
        {
          "indexed": false,
          "internalType": "string",
          "name": "oldBaseURI",
          "type": "string"
        },
        {
          "indexed": false,
          "internalType": "string",
          "name": "newBaseURI",
          "type": "string"
        }
      ],
      "name": "BaseURIChanged",
      "type": "event"
    },
    {
      "anonymous": false,
      "inputs": [
        {
          "indexed": true,
          "internalType": "address",
          "name": "by",
          "type": "address"
        },
        {
          "indexed": true,
          "internalType": "address",
          "name": "oldInventoryAddress",
          "type": "address"
        },
        {
          "indexed": true,
          "internalType": "address",
          "name": "newInventoryAddress",
          "type": "address"
        }
      ],
      "name": "InventoryAddressChanged",
      "type": "event"
    },
    {
      "anonymous": false,
      "inputs": [
        {
          "indexed": true,
          "internalType": "address",
          "name": "by",
          "type": "address"
        },
        {
          "indexed": false,
          "internalType": "uint256",
          "name": "oldMaxMintPerUser",
          "type": "uint256"
        },
        {
          "indexed": false,
          "internalType": "uint256",
          "name": "newMaxMintPerUser",
          "type": "uint256"
        }
      ],
      "name": "MaxMintPerUserChanged",
      "type": "event"
    },
    {
      "anonymous": false,
      "inputs": [
        {
          "indexed": true,
          "internalType": "address",
          "name": "by",
          "type": "address"
        },
        {
          "indexed": false,
          "internalType": "uint256",
          "name": "oldMintPrice",
          "type": "uint256"
        },
        {
          "indexed": false,
          "internalType": "uint256",
          "name": "newMintPrice",
          "type": "uint256"
        }
      ],
      "name": "MintPriceChanged",
      "type": "event"
    },
    {
      "anonymous": false,
      "inputs": [
        {
          "indexed": true,
          "internalType": "bytes32",
          "name": "role",
          "type": "bytes32"
        },
        {
          "indexed": true,
          "internalType": "bytes32",
          "name": "previousAdminRole",
          "type": "bytes32"
        },
        {
          "indexed": true,
          "internalType": "bytes32",
          "name": "newAdminRole",
          "type": "bytes32"
        }
      ],
      "name": "RoleAdminChanged",
      "type": "event"
    },
    {
      "anonymous": false,
      "inputs": [
        {
          "indexed": true,
          "internalType": "bytes32",
          "name": "role",
          "type": "bytes32"
        },
        {
          "indexed": true,
          "internalType": "address",
          "name": "account",
          "type": "address"
        },
        {
          "indexed": true,
          "internalType": "address",
          "name": "sender",
          "type": "address"
        }
      ],
      "name": "RoleGranted",
      "type": "event"
    },
    {
      "anonymous": false,
      "inputs": [
        {
          "indexed": true,
          "internalType": "bytes32",
          "name": "role",
          "type": "bytes32"
        },
        {
          "indexed": true,
          "internalType": "address",
          "name": "account",
          "type": "address"
        },
        {
          "indexed": true,
          "internalType": "address",
          "name": "sender",
          "type": "address"
        }
      ],
      "name": "RoleRevoked",
      "type": "event"
    },
    {
      "anonymous": false,
      "inputs": [
        {
          "indexed": true,
          "internalType": "address",
          "name": "from",
          "type": "address"
        },
        {
          "indexed": true,
          "internalType": "address",
          "name": "to",
          "type": "address"
        },
        {
          "indexed": true,
          "internalType": "uint256",
          "name": "tokenId",
          "type": "uint256"
        }
      ],
      "name": "Transfer",
      "type": "event"
    },
    {
      "inputs": [
        {
          "internalType": "address",
          "name": "operator",
          "type": "address"
        },
        {
          "internalType": "uint256",
          "name": "tokenId",
          "type": "uint256"
        }
      ],
      "name": "approve",
      "outputs": [],
      "stateMutability": "payable",
      "type": "function"
    },
    {
      "inputs": [
        {
          "internalType": "address",
          "name": "account",
          "type": "address"
        }
      ],
      "name": "balanceOf",
      "outputs": [
        {
          "internalType": "uint256",
          "name": "",
          "type": "uint256"
        }
      ],
      "stateMutability": "view",
      "type": "function"
    },
    {
      "inputs": [
        {
          "internalType": "uint256",
          "name": "totalAmount",
          "type": "uint256"
        },
        {
          "internalType": "bytes32[]",
          "name": "proof",
          "type": "bytes32[]"
        }
      ],
      "name": "claim",
      "outputs": [],
      "stateMutability": "nonpayable",
      "type": "function"
    },
    {
      "inputs": [
        {
          "internalType": "uint256",
          "name": "tokenId",
          "type": "uint256"
        }
      ],
      "name": "getApproved",
      "outputs": [
        {
          "internalType": "address",
          "name": "",
          "type": "address"
        }
      ],
      "stateMutability": "view",
      "type": "function"
    },
    {
      "inputs": [],
      "name": "getBaseURI",
      "outputs": [
        {
          "internalType": "string",
          "name": "",
          "type": "string"
        }
      ],
      "stateMutability": "view",
      "type": "function"
    },
    {
      "inputs": [
        {
          "internalType": "address",
          "name": "account",
          "type": "address"
        }
      ],
      "name": "getClaimedAmount",
      "outputs": [
        {
          "internalType": "uint256",
          "name": "",
          "type": "uint256"
        }
      ],
      "stateMutability": "view",
      "type": "function"
    },
    {
      "inputs": [],
      "name": "getInventoryAddress",
      "outputs": [
        {
          "internalType": "address",
          "name": "",
          "type": "address"
        }
      ],
      "stateMutability": "view",
      "type": "function"
    },
    {
      "inputs": [],
      "name": "getMaxMintPerUser",
      "outputs": [
        {
          "internalType": "uint256",
          "name": "",
          "type": "uint256"
        }
      ],
      "stateMutability": "view",
      "type": "function"
    },
    {
      "inputs": [],
      "name": "getMintPrice",
      "outputs": [
        {
          "internalType": "uint256",
          "name": "",
          "type": "uint256"
        }
      ],
      "stateMutability": "view",
      "type": "function"
    },
    {
      "inputs": [
        {
          "internalType": "address",
          "name": "account",
          "type": "address"
        },
        {
          "internalType": "address",
          "name": "operator",
          "type": "address"
        }
      ],
      "name": "isApprovedForAll",
      "outputs": [
        {
          "internalType": "bool",
          "name": "",
          "type": "bool"
        }
      ],
      "stateMutability": "view",
      "type": "function"
    },
    {
      "inputs": [],
      "name": "mint",
      "outputs": [],
      "stateMutability": "payable",
      "type": "function"
    },
    {
      "inputs": [],
      "name": "name",
      "outputs": [
        {
          "internalType": "string",
          "name": "",
          "type": "string"
        }
      ],
      "stateMutability": "view",
      "type": "function"
    },
    {
      "inputs": [
        {
          "internalType": "uint256",
          "name": "tokenId",
          "type": "uint256"
        }
      ],
      "name": "ownerOf",
      "outputs": [
        {
          "internalType": "address",
          "name": "",
          "type": "address"
        }
      ],
      "stateMutability": "view",
      "type": "function"
    },
    {
      "inputs": [
        {
          "internalType": "address",
          "name": "from",
          "type": "address"
        },
        {
          "internalType": "address",
          "name": "to",
          "type": "address"
        },
        {
          "internalType": "uint256",
          "name": "tokenId",
          "type": "uint256"
        }
      ],
      "name": "safeTransferFrom",
      "outputs": [],
      "stateMutability": "payable",
      "type": "function"
    },
    {
      "inputs": [
        {
          "internalType": "address",
          "name": "from",
          "type": "address"
        },
        {
          "internalType": "address",
          "name": "to",
          "type": "address"
        },
        {
          "internalType": "uint256",
          "name": "tokenId",
          "type": "uint256"
        },
        {
          "internalType": "bytes",
          "name": "data",
          "type": "bytes"
        }
      ],
      "name": "safeTransferFrom",
      "outputs": [],
      "stateMutability": "payable",
      "type": "function"
    },
    {
      "inputs": [
        {
          "internalType": "address",
          "name": "operator",
          "type": "address"
        },
        {
          "internalType": "bool",
          "name": "status",
          "type": "bool"
        }
      ],
      "name": "setApprovalForAll",
      "outputs": [],
      "stateMutability": "nonpayable",
      "type": "function"
    },
    {
      "inputs": [
        {
          "internalType": "string",
          "name": "baseURI",
          "type": "string"
        }
      ],
      "name": "setBaseURI",
      "outputs": [],
      "stateMutability": "nonpayable",
      "type": "function"
    },
    {
      "inputs": [
        {
          "internalType": "address",
          "name": "newInventoryAddress",
          "type": "address"
        }
      ],
      "name": "setInventoryAddress",
      "outputs": [],
      "stateMutability": "nonpayable",
      "type": "function"
    },
    {
      "inputs": [
        {
          "internalType": "uint256",
          "name": "newMaxMintPerUser",
          "type": "uint256"
        }
      ],
      "name": "setMaxMintPerUser",
      "outputs": [],
      "stateMutability": "nonpayable",
      "type": "function"
    },
    {
      "inputs": [
        {
          "internalType": "uint256",
          "name": "newMintPrice",
          "type": "uint256"
        }
      ],
      "name": "setMintPrice",
      "outputs": [],
      "stateMutability": "nonpayable",
      "type": "function"
    },
    {
      "inputs": [
        {
          "internalType": "bytes4",
          "name": "interfaceId",
          "type": "bytes4"
        }
      ],
      "name": "supportsInterface",
      "outputs": [
        {
          "internalType": "bool",
          "name": "",
          "type": "bool"
        }
      ],
      "stateMutability": "view",
      "type": "function"
    },
    {
      "inputs": [],
      "name": "symbol",
      "outputs": [
        {
          "internalType": "string",
          "name": "",
          "type": "string"
        }
      ],
      "stateMutability": "view",
      "type": "function"
    },
    {
      "inputs": [
        {
          "internalType": "uint256",
          "name": "index",
          "type": "uint256"
        }
      ],
      "name": "tokenByIndex",
      "outputs": [
        {
          "internalType": "uint256",
          "name": "",
          "type": "uint256"
        }
      ],
      "stateMutability": "view",
      "type": "function"
    },
    {
      "inputs": [
        {
          "internalType": "address",
          "name": "owner",
          "type": "address"
        },
        {
          "internalType": "uint256",
          "name": "index",
          "type": "uint256"
        }
      ],
      "name": "tokenOfOwnerByIndex",
      "outputs": [
        {
          "internalType": "uint256",
          "name": "",
          "type": "uint256"
        }
      ],
      "stateMutability": "view",
      "type": "function"
    },
    {
      "inputs": [
        {
          "internalType": "uint256",
          "name": "tokenId",
          "type": "uint256"
        }
      ],
      "name": "tokenURI",
      "outputs": [
        {
          "internalType": "string",
          "name": "",
          "type": "string"
        }
      ],
      "stateMutability": "view",
      "type": "function"
    },
    {
      "inputs": [],
      "name": "totalSupply",
      "outputs": [
        {
          "internalType": "uint256",
          "name": "",
          "type": "uint256"
        }
      ],
      "stateMutability": "view",
      "type": "function"
    },
    {
      "inputs": [
        {
          "internalType": "address",
          "name": "from",
          "type": "address"
        },
        {
          "internalType": "address",
          "name": "to",
          "type": "address"
        },
        {
          "internalType": "uint256",
          "name": "tokenId",
          "type": "uint256"
        }
      ],
      "name": "transferFrom",
      "outputs": [],
      "stateMutability": "payable",
      "type": "function"
    }
  ],
  "transactionHash": "0xd0a0de7338231b1a4628e3437b1ba703b17a86393a0c822be18face89e03b916",
  "args": [],
  "numDeployments": 1,
  "solcInputHash": "150ebcc09713912e53c59e3de982ee04",
  "bytecode": "0x608060405234801561001057600080fd5b50612ccc806100206000396000f3fe60806040526004361061019c5760003560e01c806370a08231116100ec578063b88d4fde1161008a578063c87b56dd11610064578063c87b56dd1461043d578063db718c941461045d578063e985e9c514610472578063f4a0a5281461049257600080fd5b8063b88d4fde146103f5578063ba58bb1714610408578063c22cbb5d1461041d57600080fd5b80638df40be8116100c65780638df40be81461038b57806395d89b41146103ab578063a22cb465146103c0578063a7f93ebd146103e057600080fd5b806370a0823114610336578063714c53981461035657806383ccaef71461036b57600080fd5b806323b872dd1161015957806342842e0e1161013357806342842e0e146102c35780634f6ccce7146102d657806355f804b3146102f65780636352211e1461031657600080fd5b806323b872dd146102705780632f52ebb7146102835780632f745c59146102a357600080fd5b806301ffc9a7146101a157806306fdde03146101d6578063081812fc146101f8578063095ea7b3146102305780631249c58b1461024557806318160ddd1461024d575b600080fd5b3480156101ad57600080fd5b506101c16101bc3660046122e1565b6104b2565b60405190151581526020015b60405180910390f35b3480156101e257600080fd5b506101eb6104f5565b6040516101cd919061234e565b34801561020457600080fd5b50610218610213366004612361565b610504565b6040516001600160a01b0390911681526020016101cd565b61024361023e36600461238f565b61050f565b005b61024361051d565b34801561025957600080fd5b50610262610573565b6040519081526020016101cd565b61024361027e3660046123bb565b61057d565b34801561028f57600080fd5b5061024361029e366004612490565b61058d565b3480156102af57600080fd5b506102626102be36600461238f565b61074a565b6102436102d13660046123bb565b61075d565b3480156102e257600080fd5b506102626102f1366004612361565b610768565b34801561030257600080fd5b5061024361031136600461258a565b610773565b34801561032257600080fd5b50610218610331366004612361565b61079d565b34801561034257600080fd5b506102626103513660046125d3565b6107a8565b34801561036257600080fd5b506101eb6107b3565b34801561037757600080fd5b50610243610386366004612361565b6107bd565b34801561039757600080fd5b506102626103a63660046125d3565b6107df565b3480156103b757600080fd5b506101eb61081c565b3480156103cc57600080fd5b506102436103db3660046125f0565b610826565b3480156103ec57600080fd5b50610262610830565b61024361040336600461262e565b61085a565b34801561041457600080fd5b5061021861086c565b34801561042957600080fd5b506102436104383660046125d3565b61088d565b34801561044957600080fd5b506101eb610458366004612361565b6108af565b34801561046957600080fd5b506102626108ba565b34801561047e57600080fd5b506101c161048d3660046126ae565b6108e4565b34801561049e57600080fd5b506102436104ad366004612361565b6108f0565b6001600160e01b0319811660009081527ffc606c433378e3a7e0a6a531deac289b66caa1b4aa8554fd4ab2c6f1570f92d8602052604081205460ff165b92915050565b60606104ff610912565b905090565b60006104ef826109b1565b6105198282610a14565b5050565b7f09acf4e54214992e70883cf7dcd6957ff2c71cd9e14df4bec4383bc0d11607dc805460020361056057604051635db5c7cd60e11b815260040160405180910390fd5b6002815561056d33610b17565b60019055565b60006104ff610c44565b610588838383610c5d565b505050565b7f09acf4e54214992e70883cf7dcd6957ff2c71cd9e14df4bec4383bc0d11607dc80546002036105d057604051635db5c7cd60e11b815260040160405180910390fd5b600281553360009081527f87a01bd38845081b30641ebc639dfadf787bd49017c45985af2341fe932c74646020526040902054600080516020612c5783398151915290841161065b5760405162461bcd60e51b8152602060048201526012602482015271105b1b081d1bdad95b9cc818db185a5b595960721b60448201526064015b60405180910390fd5b6040805133602082015280820186905281518082038301815260609091019091526106868482610c9b565b503360009081526001830160205260408120546106a390876126f2565b905060005b818110156106ea5760028401546106bf3382610d58565b6002850180549060006106d183612705565b91905055505080806106e290612705565b9150506106a8565b503360009081526001840160205260408120805483929061070c90849061271e565b9091555050604051819033907fd12dbe98ee2acccf8e61fdca25dfcfdc19c578ac57d0302d6b2a177ac4a47e8690600090a350506001909155505050565b60006107568383610e4d565b9392505050565b610588838383610e8e565b60006104ef82610ea9565b61079161078c600080516020612be58339815191525490565b610ec3565b61079a81610ecd565b50565b60006104ef82610f47565b60006104ef82610f8b565b60606104ff610ff4565b6107d661078c600080516020612be58339815191525490565b61079a81611013565b6001600160a01b03811660009081527f87a01bd38845081b30641ebc639dfadf787bd49017c45985af2341fe932c746460205260408120546104ef565b60606104ff611086565b61051982826110a5565b60006104ff7f87a01bd38845081b30641ebc639dfadf787bd49017c45985af2341fe932c74675490565b61086684848484611159565b50505050565b60006104ff600080516020612c57833981519152546001600160a01b031690565b6108a661078c600080516020612be58339815191525490565b61079a81611198565b60606104ef82611276565b60006104ff7f87a01bd38845081b30641ebc639dfadf787bd49017c45985af2341fe932c74665490565b600061075683836113e6565b61090961078c600080516020612be58339815191525490565b61079a81611433565b6060600080516020612c77833981519152805461092e90612731565b80601f016020809104026020016040519081016040528092919081815260200182805461095a90612731565b80156109a75780601f1061097c576101008083540402835291602001916109a7565b820191906000526020600020905b81548152906001019060200180831161098a57829003601f168201915b5050505050905090565b60006109bc826114a6565b6109d95760405163c1b843ef60e01b815260040160405180910390fd5b5060009081527f3c7bf052874fa81625121783266a03507bd2cd48b16e571c01a04e8dd3fb07a960205260409020546001600160a01b031690565b610a1f8282346114c0565b6000610a2a82610f47565b9050806001600160a01b0316836001600160a01b031603610a5e5760405163424a22cb60e01b815260040160405180910390fd5b336001600160a01b03821614801590610a7e5750610a7c81336113e6565b155b15610a9c57604051632f5de44f60e01b815260040160405180910390fd5b60008281527f3c7bf052874fa81625121783266a03507bd2cd48b16e571c01a04e8dd3fb07a9602052604080822080546001600160a01b0319166001600160a01b0387811691821790925591518593918516917f8c5be1e5ebec7d5bd14f71427d1e84f3dd0314c0f7b2291e5b200ac8c7c3b92591a4505050565b7f87a01bd38845081b30641ebc639dfadf787bd49017c45985af2341fe932c746754600080516020612c57833981519152903414610b8c5760405162461bcd60e51b8152602060048201526012602482015271125b9d985b1a59081c185e48185b5bdd5b9d60721b6044820152606401610652565b6001600160a01b0382166000908152600182016020526040812054610bb084610f8b565b610bba91906126f2565b905081600301548110610c1a5760405162461bcd60e51b815260206004820152602260248201527f55736572206d6178696d756d206d696e74656420746f6b656e73207265616368604482015261195960f21b6064820152608401610652565b610c28838360020154610d58565b600282018054906000610c3a83612705565b9190505550505050565b60006104ff600080516020612c378339815191526114ea565b610c69838383346114f4565b610c73338261151f565b610c9057604051632f5de44f60e01b815260040160405180910390fd5b6105888383836115a5565b6000808280519060200120604051602001610cb891815260200190565b604051602081830303815290604052805190602001209050610d0284610cfb7f7a07c093b55ad04e200605cb287859fe4640b7310d62fdbb044e26399da78c0890565b5483611734565b915081610d515760405162461bcd60e51b815260206004820152601b60248201527f44617461206e6f7420696e636c7564656420696e206d65726b6c6500000000006044820152606401610652565b5092915050565b6001600160a01b038216610d7f576040516311f2988d60e11b815260040160405180910390fd5b610d88816114a6565b15610da657604051630d86bb7b60e31b815260040160405180910390fd5b610db2600083836117d9565b6001600160a01b03821660009081527f3c7bf052874fa81625121783266a03507bd2cd48b16e571c01a04e8dd3fb07a860205260409020600080516020612c3783398151915290610e0390836117e4565b50610e0f8183856117f0565b5060405182906001600160a01b038516906000907fddf252ad1be2c89b69c2b068fc378daa952ba7f163c4a11628f55a4df523b3ef908290a4505050565b6001600160a01b03821660009081527f3c7bf052874fa81625121783266a03507bd2cd48b16e571c01a04e8dd3fb07a8602052604081206107569083611806565b61058883838360405180602001604052806000815250611159565b6000610d51600080516020612c3783398151915283611812565b61079a813361182e565b604051600080516020612c778339815191529033907f92bf6a7b8937c17e6781a68d61f9fe6a5ce08604b96ca2206f311049a3a295ea90610f31907f99574a7094154bb123ae6ae102096f0bf9679b85a5cd1e727aaa0ae5f132e6b390869061276b565b60405180910390a2600281016105888382612858565b600080610f62600080516020612c3783398151915284611890565b90506001600160a01b0381166104ef57604051637e1a7d8b60e01b815260040160405180910390fd5b60006001600160a01b038216610fb457604051630810ff9760e41b815260040160405180910390fd5b6001600160a01b03821660009081527f3c7bf052874fa81625121783266a03507bd2cd48b16e571c01a04e8dd3fb07a8602052604090206104ef906114ea565b6060600080516020612c77833981519152600201805461092e90612731565b7f87a01bd38845081b30641ebc639dfadf787bd49017c45985af2341fe932c74665460408051918252602082018390528051600080516020612c578339815191529233927f9a201d4a67373d8576462c238c27108c61b3deec32a932aac079a84cc3b7742c92918290030190a260030155565b6060600080516020612c77833981519152600101805461092e90612731565b336001600160a01b038316036110ce5760405163424a22cb60e01b815260040160405180910390fd5b3360008181527f3c7bf052874fa81625121783266a03507bd2cd48b16e571c01a04e8dd3fb07aa602090815260408083206001600160a01b03871680855290835292819020805460ff191686151590811790915590519081529192917f17307eab39ab6107e8899845ad3d59bd9653f200f220920489ca2b5937696c31910160405180910390a35050565b611165848484346114f4565b61116f338361151f565b61118c57604051632f5de44f60e01b815260040160405180910390fd5b6108668484848461189c565b6111b161078c600080516020612be58339815191525490565b6001600160a01b0381166111f95760405162461bcd60e51b815260206004820152600f60248201526e496e76616c6964206164647265737360881b6044820152606401610652565b600080516020612c5783398151915280546001600160a01b038381169116146105195780546040516001600160a01b0380851692169033907faca128ed2b41b1471dae948d022df19c0d331f9329070f1935e8db313046d84c90600090a480546001600160a01b0383166001600160a01b03199091161781555050565b60606000611299600080516020612c57833981519152546001600160a01b031690565b905060006112a6846118d0565b60405163fdf3250160e01b8152600481018690529091506000906001600160a01b0384169063fdf3250190602401600060405180830381865afa1580156112f1573d6000803e3d6000fd5b505050506040513d6000823e601f3d908101601f191682016040526113199190810190612918565b90508160405160200161132c91906129df565b604051602081830303815290604052915060005b81518110156113dc57600061137183838151811061136057611360612a0e565b602002602001015160200151611ab1565b9050816000036113a457838160405160200161138e929190612a24565b60405160208183030381529060405293506113c9565b83816040516020016113b7929190612a53565b60405160208183030381529060405293505b50806113d481612705565b915050611340565b5090949350505050565b6001600160a01b0391821660009081527f3c7bf052874fa81625121783266a03507bd2cd48b16e571c01a04e8dd3fb07aa6020908152604080832093909416825291909152205460ff1690565b7f87a01bd38845081b30641ebc639dfadf787bd49017c45985af2341fe932c74675460408051918252602082018390528051600080516020612c578339815191529233927fed96032e9c101f4508a9696e8861f06aa3674be1b735fc685aed0efb83db76e992918290030190a260040155565b60006104ef600080516020612c3783398151915283611bb2565b80156114df5760405163b56d7c1b60e01b815260040160405180910390fd5b610588838383611bca565b60006104ef825490565b8015611513576040516322b1813960e01b815260040160405180910390fd5b61086684848484611be9565b600061152a826114a6565b6115475760405163c1b843ef60e01b815260040160405180910390fd5b600061155283610f47565b9050806001600160a01b0316846001600160a01b0316148061158d5750836001600160a01b0316611582846109b1565b6001600160a01b0316145b8061159d575061159d81856113e6565b949350505050565b60006115b082610f47565b9050836001600160a01b0316816001600160a01b0316146115e457604051630f2db4ad60e01b815260040160405180910390fd5b6001600160a01b03831661160b576040516340311a0960e01b815260040160405180910390fd5b6116168484846117d9565b6001600160a01b03841660009081527f3c7bf052874fa81625121783266a03507bd2cd48b16e571c01a04e8dd3fb07a860205260409020600080516020612c37833981519152906116679084611c0d565b506001600160a01b0384166000908152600282016020526040902061168c90846117e4565b506116988184866117f0565b50600083815260038201602052604080822080546001600160a01b0319169055518491906001600160a01b038516907f8c5be1e5ebec7d5bd14f71427d1e84f3dd0314c0f7b2291e5b200ac8c7c3b925908390a482846001600160a01b0316866001600160a01b03167fddf252ad1be2c89b69c2b068fc378daa952ba7f163c4a11628f55a4df523b3ef60405160405180910390a45050505050565b600081815b85518110156117ce57600086828151811061175657611756612a0e565b602002602001015190508083116117985760408051602081018590529081018290526060016040516020818303038152906040528051906020012092506117c5565b60408051602081018390529081018490526060016040516020818303038152906040528051906020012092505b50600101611739565b509092149392505050565b610588838383611c19565b60006107568383611c24565b600061159d84846001600160a01b038516611c67565b60006107568383611d06565b60008080806118218686611d52565b9097909650945050505050565b6118388282611db5565b6105195761184e816001600160a01b0316611dec565b611859836020611dfe565b60405160200161186a929190612a8f565b60408051601f198184030181529082905262461bcd60e51b82526106529160040161234e565b60006107568383611f51565b6118a78484846115a5565b6118b384848484611fb5565b61086657604051639ff10cdd60e01b815260040160405180910390fd5b60606118db826114a6565b6118f757604051624705a760e71b815260040160405180910390fd5b60008281527f99574a7094154bb123ae6ae102096f0bf9679b85a5cd1e727aaa0ae5f132e6b4602052604081208054600080516020612c7783398151915292919061194190612731565b80601f016020809104026020016040519081016040528092919081815260200182805461196d90612731565b80156119ba5780601f1061198f576101008083540402835291602001916119ba565b820191906000526020600020905b81548152906001019060200180831161199d57829003601f168201915b5050505050905060008260020180546119d290612731565b80601f01602080910402602001604051908101604052809291908181526020018280546119fe90612731565b8015611a4b5780601f10611a2057610100808354040283529160200191611a4b565b820191906000526020600020905b815481529060010190602001808311611a2e57829003601f168201915b505050505090508051600003611a6357509392505050565b815115611a96578082604051602001611a7d929190612a24565b6040516020818303038152906040529350505050919050565b80611aa086611ab1565b604051602001611a7d929190612a24565b606081600003611ad85750506040805180820190915260018152600360fc1b602082015290565b8160005b8115611b025780611aec81612705565b9150611afb9050600a83612b1a565b9150611adc565b60008167ffffffffffffffff811115611b1d57611b1d6123fc565b6040519080825280601f01601f191660200182016040528015611b47576020820181803683370190505b5090505b841561159d57611b5c6001836126f2565b9150611b69600a86612b2e565b611b7490603061271e565b60f81b818381518110611b8957611b89612a0e565b60200101906001600160f81b031916908160001a905350611bab600a86612b1a565b9450611b4b565b60008181526001830160205260408120541515610756565b80156105885760405163b56d7c1b60e01b815260040160405180910390fd5b8015611c08576040516322b1813960e01b815260040160405180910390fd5b610866565b60006107568383612086565b610588838383612140565b60008181526001830160205260408120546104ef575081546001808201845560008481526020808220909301849055845493815293810190915260409092205590565b6000828152600184016020526040812054808203611cce575050604080518082018252838152602080820184815286546001818101895560008981528481209551600290930290950191825591519082015586548684528188019092529290912055610756565b82856000016001830381548110611ce757611ce7612a0e565b9060005260206000209060020201600101819055506000915050610756565b81546000908210611d2a5760405163e637bf3b60e01b815260040160405180910390fd5b826000018281548110611d3f57611d3f612a0e565b9060005260206000200154905092915050565b815460009081908310611d785760405163022fd82760e31b815260040160405180910390fd5b6000846000018481548110611d8f57611d8f612a0e565b906000526020600020906002020190508060000154816001015492509250509250929050565b60008281527fd3889cc5458b268d0544e5534672df1296288ca3f93cbd39bd6f497a5c62281160205260408120610756908361214b565b60606104ef6001600160a01b03831660145b60606000611e0d836002612b42565b611e1890600261271e565b67ffffffffffffffff811115611e3057611e306123fc565b6040519080825280601f01601f191660200182016040528015611e5a576020820181803683370190505b509050600360fc1b81600081518110611e7557611e75612a0e565b60200101906001600160f81b031916908160001a905350600f60fb1b81600181518110611ea457611ea4612a0e565b60200101906001600160f81b031916908160001a905350600160028402015b6001811115611f31576f181899199a1a9b1b9c1cb0b131b232b360811b85600f1660108110611ef457611ef4612a0e565b1a60f81b828281518110611f0a57611f0a612a0e565b60200101906001600160f81b031916908160001a90535060049490941c9360001901611ec3565b5083156107565760405163c913478560e01b815260040160405180910390fd5b6000818152600183016020526040812054808203611f8257604051633d547ec560e21b815260040160405180910390fd5b836000016001820381548110611f9a57611f9a612a0e565b90600052602060002090600202016001015491505092915050565b60006001600160a01b0384163b611fce5750600161159d565b600061204f63150b7a0260e01b33888787604051602401611ff29493929190612b59565b604051602081830303815290604052906001600160e01b0319166020820180516001600160e01b038381831617835250505050604051806060016040528060328152602001612c05603291396001600160a01b038816919061216d565b90506000818060200190518101906120679190612b95565b6001600160e01b031916630a85bd0160e11b1492505050949350505050565b60008181526001830160205260408120548015610d51578354600090859060001981019081106120b8576120b8612a0e565b90600052602060002001549050808560000160018403815481106120de576120de612a0e565b600091825260208083209091019290925591825260018601905260409020819055835484908061211057612110612bb2565b60008281526020808220830160001990810183905590920190925593815260019485019093525050604081205590565b61058883838361217c565b6001600160a01b03811660009081526001830160205260408120541515610756565b606061159d84846000856121c0565b6001600160a01b0382166105885760008181527f99574a7094154bb123ae6ae102096f0bf9679b85a5cd1e727aaa0ae5f132e6b4602052604081206105889161227d565b6060843b6121e157604051632270d6bf60e21b815260040160405180910390fd5b600080866001600160a01b031685876040516121fd9190612bc8565b60006040518083038185875af1925050503d806000811461223a576040519150601f19603f3d011682016040523d82523d6000602084013e61223f565b606091505b5091509150811561225357915061159d9050565b8051156122635780518082602001fd5b8360405162461bcd60e51b8152600401610652919061234e565b50805461228990612731565b6000825580601f10612299575050565b601f01602090049060005260206000209081019061079a91905b808211156122c757600081556001016122b3565b5090565b6001600160e01b03198116811461079a57600080fd5b6000602082840312156122f357600080fd5b8135610756816122cb565b60005b83811015612319578181015183820152602001612301565b50506000910152565b6000815180845261233a8160208601602086016122fe565b601f01601f19169290920160200192915050565b6020815260006107566020830184612322565b60006020828403121561237357600080fd5b5035919050565b6001600160a01b038116811461079a57600080fd5b600080604083850312156123a257600080fd5b82356123ad8161237a565b946020939093013593505050565b6000806000606084860312156123d057600080fd5b83356123db8161237a565b925060208401356123eb8161237a565b929592945050506040919091013590565b634e487b7160e01b600052604160045260246000fd5b6040516060810167ffffffffffffffff81118282101715612435576124356123fc565b60405290565b604051601f8201601f1916810167ffffffffffffffff81118282101715612464576124646123fc565b604052919050565b600067ffffffffffffffff821115612486576124866123fc565b5060051b60200190565b600080604083850312156124a357600080fd5b8235915060208084013567ffffffffffffffff8111156124c257600080fd5b8401601f810186136124d357600080fd5b80356124e66124e18261246c565b61243b565b81815260059190911b8201830190838101908883111561250557600080fd5b928401925b828410156125235783358252928401929084019061250a565b80955050505050509250929050565b600067ffffffffffffffff83111561254c5761254c6123fc565b61255f601f8401601f191660200161243b565b905082815283838301111561257357600080fd5b828260208301376000602084830101529392505050565b60006020828403121561259c57600080fd5b813567ffffffffffffffff8111156125b357600080fd5b8201601f810184136125c457600080fd5b61159d84823560208401612532565b6000602082840312156125e557600080fd5b81356107568161237a565b6000806040838503121561260357600080fd5b823561260e8161237a565b91506020830135801515811461262357600080fd5b809150509250929050565b6000806000806080858703121561264457600080fd5b843561264f8161237a565b9350602085013561265f8161237a565b925060408501359150606085013567ffffffffffffffff81111561268257600080fd5b8501601f8101871361269357600080fd5b6126a287823560208401612532565b91505092959194509250565b600080604083850312156126c157600080fd5b82356126cc8161237a565b915060208301356126238161237a565b634e487b7160e01b600052601160045260246000fd5b818103818111156104ef576104ef6126dc565b600060018201612717576127176126dc565b5060010190565b808201808211156104ef576104ef6126dc565b600181811c9082168061274557607f821691505b60208210810361276557634e487b7160e01b600052602260045260246000fd5b50919050565b60408152600080845461277d81612731565b806040860152606060018084166000811461279f57600181146127b9576127ea565b60ff1985168884015283151560051b8801830195506127ea565b8960005260208060002060005b868110156127e15781548b82018701529084019082016127c6565b8a018501975050505b505050505082810360208401526128018185612322565b95945050505050565b601f82111561058857600081815260208120601f850160051c810160208610156128315750805b601f850160051c820191505b818110156128505782815560010161283d565b505050505050565b815167ffffffffffffffff811115612872576128726123fc565b612886816128808454612731565b8461280a565b602080601f8311600181146128bb57600084156128a35750858301515b600019600386901b1c1916600185901b178555612850565b600085815260208120601f198616915b828110156128ea578886015182559484019460019091019084016128cb565b50858210156129085787850151600019600388901b60f8161c191681555b5050505050600190811b01905550565b6000602080838503121561292b57600080fd5b825167ffffffffffffffff81111561294257600080fd5b8301601f8101851361295357600080fd5b80516129616124e18261246c565b8181526060918202830184019184820191908884111561298057600080fd5b938501935b838510156129d35780858a03121561299d5760008081fd5b6129a5612412565b85516129b08161237a565b815285870151878201526040808701519082015283529384019391850191612985565b50979650505050505050565b600082516129f18184602087016122fe565b6a2f3f746f6b656e4964733d60a81b920191825250600b01919050565b634e487b7160e01b600052603260045260246000fd5b60008351612a368184602088016122fe565b835190830190612a4a8183602088016122fe565b01949350505050565b60008351612a658184602088016122fe565b600b60fa1b9083019081528351612a838160018401602088016122fe565b01600101949350505050565b7f416363657373436f6e74726f6c3a206163636f756e7420000000000000000000815260008351612ac78160178501602088016122fe565b7001034b99036b4b9b9b4b733903937b6329607d1b6017918401918201528351612af88160288401602088016122fe565b01602801949350505050565b634e487b7160e01b600052601260045260246000fd5b600082612b2957612b29612b04565b500490565b600082612b3d57612b3d612b04565b500690565b80820281158282048414176104ef576104ef6126dc565b60006001600160a01b03808716835280861660208401525083604083015260806060830152612b8b6080830184612322565b9695505050505050565b600060208284031215612ba757600080fd5b8151610756816122cb565b634e487b7160e01b600052603160045260246000fd5b60008251612bda8184602087016122fe565b919091019291505056fef6deb63e40d71b08820818e006e23fcceb1fce7a499bc15b71b2526cbf9efa724552433732313a207472616e7366657220746f206e6f6e20455243373231526563656976657220696d706c656d656e7465723c7bf052874fa81625121783266a03507bd2cd48b16e571c01a04e8dd3fb07a687a01bd38845081b30641ebc639dfadf787bd49017c45985af2341fe932c746399574a7094154bb123ae6ae102096f0bf9679b85a5cd1e727aaa0ae5f132e6b1a2646970667358221220b51c560da1a19caf62bc43f544f68407304f629af831a070b3d57f37c5b52dc564736f6c63430008130033",
  "devdoc": {
    "kind": "dev",
    "methods": {
      "approve(address,uint256)": {
        "params": {
          "operator": "address to be approved",
          "tokenId": "token to approve"
        }
      },
      "balanceOf(address)": {
        "returns": {
          "_0": "quantity of tokens held"
        }
      },
      "getApproved(uint256)": {
        "params": {
          "tokenId": "token to query"
        },
        "returns": {
          "_0": "address approved to spend token"
        }
      },
      "isApprovedForAll(address,address)": {
        "params": {
          "account": "address to query for approval granted",
          "operator": "address to query for approval received"
        },
        "returns": {
          "_0": "whether operator is approved to spend tokens held by account"
        }
      },
      "ownerOf(uint256)": {
        "params": {
          "tokenId": "token to query"
        },
        "returns": {
          "_0": "token owner"
        }
      },
      "safeTransferFrom(address,address,uint256)": {
        "params": {
          "from": "sender of token",
          "to": "receiver of token",
          "tokenId": "token id"
        }
      },
      "safeTransferFrom(address,address,uint256,bytes)": {
        "params": {
          "data": "data payload",
          "from": "sender of token",
          "to": "receiver of token",
          "tokenId": "token id"
        }
      },
      "setApprovalForAll(address,bool)": {
        "params": {
          "operator": "address to be approved",
          "status": "approval status"
        }
      },
      "supportsInterface(bytes4)": {
        "params": {
          "interfaceId": "interface id"
        },
        "returns": {
          "_0": "bool whether interface is supported"
        }
      },
      "tokenByIndex(uint256)": {
        "params": {
          "index": "position in global token list to query"
        },
        "returns": {
          "_0": "id of retrieved token"
        }
      },
      "tokenOfOwnerByIndex(address,uint256)": {
        "params": {
          "index": "position in owner's token list to query",
          "owner": "token holder to query"
        },
        "returns": {
          "_0": "id of retrieved token"
        }
      },
      "totalSupply()": {
        "returns": {
          "_0": "total supply"
        }
      },
      "transferFrom(address,address,uint256)": {
        "params": {
          "from": "sender of token",
          "to": "receiver of token",
          "tokenId": "token id"
        }
      }
    },
    "version": 1
  },
  "userdoc": {
    "kind": "user",
    "methods": {
      "approve(address,uint256)": {
        "notice": "grant approval to given account to spend token"
      },
      "balanceOf(address)": {
        "notice": "query the balance of given address"
      },
      "getApproved(uint256)": {
        "notice": "get approval status for given token"
      },
      "isApprovedForAll(address,address)": {
        "notice": "query approval status of given operator with respect to given address"
      },
      "name()": {
        "notice": "inheritdoc IERC721Metadata"
      },
      "ownerOf(uint256)": {
        "notice": "query the owner of given token"
      },
      "safeTransferFrom(address,address,uint256)": {
        "notice": "transfer token between given addresses, checking for ERC721Receiver implementation if applicable"
      },
      "safeTransferFrom(address,address,uint256,bytes)": {
        "notice": "transfer token between given addresses, checking for ERC721Receiver implementation if applicable"
      },
      "setApprovalForAll(address,bool)": {
        "notice": "grant approval to or revoke approval from given account to spend all tokens held by sender"
      },
      "supportsInterface(bytes4)": {
        "notice": "query whether contract has registered support for given interface"
      },
      "symbol()": {
        "notice": "inheritdoc IERC721Metadata"
      },
      "tokenByIndex(uint256)": {
        "notice": "get token at given internal storage index"
      },
      "tokenOfOwnerByIndex(address,uint256)": {
        "notice": "get token of given owner at given internal storage index"
      },
      "totalSupply()": {
        "notice": "get total token supply"
      },
      "transferFrom(address,address,uint256)": {
        "notice": "transfer token between given addresses, without checking for ERC721Receiver implementation if applicable"
      }
    },
    "version": 1
  },
  "storageLayout": {
    "storage": [],
    "types": null
  }
}