{
  "address": "0x2F1aBC8aEbB2D95B38667B5c19E26e00bE790E8C",
  "abi": [
    {
      "inputs": [],
      "name": "AddressUtils__NotContract",
      "type": "error"
    },
    {
      "inputs": [],
      "name": "Arcadians_InvalidPayAmount",
      "type": "error"
    },
    {
      "inputs": [],
      "name": "Arcadians_InvalidSupplies",
      "type": "error"
    },
    {
      "inputs": [],
      "name": "Arcadians_MaximumArcadiansSupplyReached",
      "type": "error"
    },
    {
      "inputs": [],
      "name": "Arcadians_NotElegibleToMint",
      "type": "error"
    },
    {
      "inputs": [],
      "name": "ERC165Base__InvalidInterfaceId",
      "type": "error"
    },
    {
      "inputs": [],
      "name": "ERC721Base__BalanceQueryZeroAddress",
      "type": "error"
    },
    {
      "inputs": [],
      "name": "ERC721Base__ERC721ReceiverNotImplemented",
      "type": "error"
    },
    {
      "inputs": [],
      "name": "ERC721Base__InvalidOwner",
      "type": "error"
    },
    {
      "inputs": [],
      "name": "ERC721Base__MintToZeroAddress",
      "type": "error"
    },
    {
      "inputs": [],
      "name": "ERC721Base__NonExistentToken",
      "type": "error"
    },
    {
      "inputs": [],
      "name": "ERC721Base__NotOwnerOrApproved",
      "type": "error"
    },
    {
      "inputs": [],
      "name": "ERC721Base__NotTokenOwner",
      "type": "error"
    },
    {
      "inputs": [],
      "name": "ERC721Base__SelfApproval",
      "type": "error"
    },
    {
      "inputs": [],
      "name": "ERC721Base__TokenAlreadyMinted",
      "type": "error"
    },
    {
      "inputs": [],
      "name": "ERC721Base__TransferToZeroAddress",
      "type": "error"
    },
    {
      "inputs": [],
      "name": "ERC721Metadata__NonExistentToken",
      "type": "error"
    },
    {
      "inputs": [],
      "name": "EnumerableMap__IndexOutOfBounds",
      "type": "error"
    },
    {
      "inputs": [],
      "name": "EnumerableMap__NonExistentKey",
      "type": "error"
    },
    {
      "inputs": [],
      "name": "EnumerableSet__IndexOutOfBounds",
      "type": "error"
    },
    {
      "inputs": [],
      "name": "Inventory_ArcadianNotUnique",
      "type": "error"
    },
    {
      "inputs": [],
      "name": "Inventory_CouponNeededToModifyBaseSlots",
      "type": "error"
    },
    {
      "inputs": [],
      "name": "Inventory_InputDataMismatch",
      "type": "error"
    },
    {
      "inputs": [],
      "name": "Inventory_InsufficientItemBalance",
      "type": "error"
    },
    {
      "inputs": [],
      "name": "Inventory_InvalidERC1155Contract",
      "type": "error"
    },
    {
      "inputs": [],
      "name": "Inventory_InvalidSlotId",
      "type": "error"
    },
    {
      "inputs": [],
      "name": "Inventory_ItemAlreadyEquippedInSlot",
      "type": "error"
    },
    {
      "inputs": [],
      "name": "Inventory_ItemDoesNotHaveSlotAssigned",
      "type": "error"
    },
    {
      "inputs": [],
      "name": "Inventory_ItemNotSpecified",
      "type": "error"
    },
    {
      "inputs": [],
      "name": "Inventory_NonBaseSlot",
      "type": "error"
    },
    {
      "inputs": [],
      "name": "Inventory_NotAllBaseSlotsEquipped",
      "type": "error"
    },
    {
      "inputs": [],
      "name": "Inventory_NotArcadianOwner",
      "type": "error"
    },
    {
      "inputs": [],
      "name": "Inventory_SlotNotSpecified",
      "type": "error"
    },
    {
      "inputs": [],
      "name": "Inventory_UnequippingBaseSlot",
      "type": "error"
    },
    {
      "inputs": [],
      "name": "Inventory_UnequippingEmptySlot",
      "type": "error"
    },
    {
      "inputs": [],
      "name": "Inventory_UnequippingPermanentSlot",
      "type": "error"
    },
    {
      "inputs": [],
      "name": "ReentrancyGuard__ReentrantCall",
      "type": "error"
    },
    {
      "inputs": [],
      "name": "Roles_MissingAdminRole",
      "type": "error"
    },
    {
      "inputs": [],
      "name": "Roles_MissingAutomationRole",
      "type": "error"
    },
    {
      "inputs": [],
      "name": "Roles_MissingManagerRole",
      "type": "error"
    },
    {
      "inputs": [],
      "name": "SolidStateERC721__PayableApproveNotSupported",
      "type": "error"
    },
    {
      "inputs": [],
      "name": "SolidStateERC721__PayableTransferNotSupported",
      "type": "error"
    },
    {
      "inputs": [],
      "name": "Whitelist_ClaimInactive",
      "type": "error"
    },
    {
      "inputs": [],
      "name": "Whitelist_ClaimStateAlreadyUpdated",
      "type": "error"
    },
    {
      "inputs": [],
      "name": "Whitelist_ExceedsElegibleAmount",
      "type": "error"
    },
    {
      "inputs": [],
      "name": "Whitelist_ExceedsPoolSupply",
      "type": "error"
    },
    {
      "inputs": [],
      "name": "Whitelist_InputDataMismatch",
      "type": "error"
    },
    {
      "anonymous": false,
      "inputs": [
        {
          "indexed": true,
          "internalType": "address",
          "name": "owner",
          "type": "address"
        },
        {
          "indexed": true,
          "internalType": "address",
          "name": "operator",
          "type": "address"
        },
        {
          "indexed": true,
          "internalType": "uint256",
          "name": "tokenId",
          "type": "uint256"
        }
      ],
      "name": "Approval",
      "type": "event"
    },
    {
      "anonymous": false,
      "inputs": [
        {
          "indexed": true,
          "internalType": "address",
          "name": "owner",
          "type": "address"
        },
        {
          "indexed": true,
          "internalType": "address",
          "name": "operator",
          "type": "address"
        },
        {
          "indexed": false,
          "internalType": "bool",
          "name": "approved",
          "type": "bool"
        }
      ],
      "name": "ApprovalForAll",
      "type": "event"
    },
    {
      "anonymous": false,
      "inputs": [
        {
          "indexed": true,
          "internalType": "address",
          "name": "by",
          "type": "address"
        },
        {
          "indexed": true,
          "internalType": "address",
          "name": "to",
          "type": "address"
        },
        {
          "indexed": false,
          "internalType": "uint8[]",
          "name": "slotsIds",
          "type": "uint8[]"
        },
        {
          "indexed": false,
          "internalType": "uint256[]",
          "name": "amounts",
          "type": "uint256[]"
        }
      ],
      "name": "BaseModifierCouponAdded",
      "type": "event"
    },
    {
      "anonymous": false,
      "inputs": [
        {
          "indexed": true,
          "internalType": "address",
          "name": "account",
          "type": "address"
        },
        {
          "indexed": true,
          "internalType": "uint256",
          "name": "arcadianId",
          "type": "uint256"
        },
        {
          "indexed": false,
          "internalType": "uint8[]",
          "name": "slotsIds",
          "type": "uint8[]"
        }
      ],
      "name": "BaseModifierCouponConsumed",
      "type": "event"
    },
    {
      "anonymous": false,
      "inputs": [
        {
          "indexed": true,
          "internalType": "address",
          "name": "by",
          "type": "address"
        },
        {
          "indexed": false,
          "internalType": "string",
          "name": "oldBaseURI",
          "type": "string"
        },
        {
          "indexed": false,
          "internalType": "string",
          "name": "newBaseURI",
          "type": "string"
        }
      ],
      "name": "BaseURIChanged",
      "type": "event"
    },
    {
      "anonymous": false,
      "inputs": [
        {
          "indexed": true,
          "internalType": "address",
          "name": "by",
          "type": "address"
        },
        {
          "components": [
            {
              "internalType": "address",
              "name": "erc1155Contract",
              "type": "address"
            },
            {
              "internalType": "uint256",
              "name": "id",
              "type": "uint256"
            }
          ],
          "indexed": false,
          "internalType": "struct InventoryStorage.Item[]",
          "name": "items",
          "type": "tuple[]"
        }
      ],
      "name": "ItemsAllowedInSlotUpdated",
      "type": "event"
    },
    {
      "anonymous": false,
      "inputs": [
        {
          "indexed": true,
          "internalType": "address",
          "name": "by",
          "type": "address"
        },
        {
          "indexed": true,
          "internalType": "uint256",
          "name": "arcadianId",
          "type": "uint256"
        },
        {
          "indexed": false,
          "internalType": "uint8[]",
          "name": "slots",
          "type": "uint8[]"
        }
      ],
      "name": "ItemsEquipped",
      "type": "event"
    },
    {
      "anonymous": false,
      "inputs": [
        {
          "indexed": true,
          "internalType": "address",
          "name": "by",
          "type": "address"
        },
        {
          "indexed": true,
          "internalType": "uint256",
          "name": "arcadianId",
          "type": "uint256"
        },
        {
          "indexed": false,
          "internalType": "uint8[]",
          "name": "slotsIds",
          "type": "uint8[]"
        }
      ],
      "name": "ItemsUnequipped",
      "type": "event"
    },
    {
      "anonymous": false,
      "inputs": [
        {
          "indexed": true,
          "internalType": "address",
          "name": "by",
          "type": "address"
        },
        {
          "indexed": false,
          "internalType": "uint256",
          "name": "oldMaxMintPerUser",
          "type": "uint256"
        },
        {
          "indexed": false,
          "internalType": "uint256",
          "name": "newMaxMintPerUser",
          "type": "uint256"
        }
      ],
      "name": "MaxMintPerUserChanged",
      "type": "event"
    },
    {
      "anonymous": false,
      "inputs": [
        {
          "indexed": true,
          "internalType": "address",
          "name": "account",
          "type": "address"
        },
        {
          "indexed": false,
          "internalType": "uint256",
          "name": "tokenId",
          "type": "uint256"
        }
      ],
      "name": "MintPassConsumed",
      "type": "event"
    },
    {
      "anonymous": false,
      "inputs": [
        {
          "indexed": true,
          "internalType": "address",
          "name": "by",
          "type": "address"
        },
        {
          "indexed": false,
          "internalType": "uint256",
          "name": "oldMintPrice",
          "type": "uint256"
        },
        {
          "indexed": false,
          "internalType": "uint256",
          "name": "newMintPrice",
          "type": "uint256"
        }
      ],
      "name": "MintPriceChanged",
      "type": "event"
    },
    {
      "anonymous": false,
      "inputs": [
        {
          "indexed": true,
          "internalType": "bytes32",
          "name": "role",
          "type": "bytes32"
        },
        {
          "indexed": true,
          "internalType": "bytes32",
          "name": "previousAdminRole",
          "type": "bytes32"
        },
        {
          "indexed": true,
          "internalType": "bytes32",
          "name": "newAdminRole",
          "type": "bytes32"
        }
      ],
      "name": "RoleAdminChanged",
      "type": "event"
    },
    {
      "anonymous": false,
      "inputs": [
        {
          "indexed": true,
          "internalType": "bytes32",
          "name": "role",
          "type": "bytes32"
        },
        {
          "indexed": true,
          "internalType": "address",
          "name": "account",
          "type": "address"
        },
        {
          "indexed": true,
          "internalType": "address",
          "name": "sender",
          "type": "address"
        }
      ],
      "name": "RoleGranted",
      "type": "event"
    },
    {
      "anonymous": false,
      "inputs": [
        {
          "indexed": true,
          "internalType": "bytes32",
          "name": "role",
          "type": "bytes32"
        },
        {
          "indexed": true,
          "internalType": "address",
          "name": "account",
          "type": "address"
        },
        {
          "indexed": true,
          "internalType": "address",
          "name": "sender",
          "type": "address"
        }
      ],
      "name": "RoleRevoked",
      "type": "event"
    },
    {
      "anonymous": false,
      "inputs": [
        {
          "indexed": true,
          "internalType": "address",
          "name": "by",
          "type": "address"
        },
        {
          "indexed": true,
          "internalType": "uint8",
          "name": "slotId",
          "type": "uint8"
        },
        {
          "indexed": false,
          "internalType": "bool",
          "name": "permanent",
          "type": "bool"
        },
        {
          "indexed": false,
          "internalType": "bool",
          "name": "isBase",
          "type": "bool"
        }
      ],
      "name": "SlotCreated",
      "type": "event"
    },
    {
      "anonymous": false,
      "inputs": [
        {
          "indexed": true,
          "internalType": "address",
          "name": "from",
          "type": "address"
        },
        {
          "indexed": true,
          "internalType": "address",
          "name": "to",
          "type": "address"
        },
        {
          "indexed": true,
          "internalType": "uint256",
          "name": "tokenId",
          "type": "uint256"
        }
      ],
      "name": "Transfer",
      "type": "event"
    },
    {
      "anonymous": false,
      "inputs": [
        {
          "indexed": true,
          "internalType": "address",
          "name": "account",
          "type": "address"
        },
        {
          "indexed": false,
          "internalType": "enum WhitelistStorage.PoolId",
          "name": "poolId",
          "type": "uint8"
        },
        {
          "indexed": false,
          "internalType": "uint256",
          "name": "totalElegibleAmount",
          "type": "uint256"
        },
        {
          "indexed": false,
          "internalType": "uint256",
          "name": "totalClaimedAmount",
          "type": "uint256"
        }
      ],
      "name": "WhitelistBalanceChanged",
      "type": "event"
    },
    {
      "inputs": [
        {
          "internalType": "address",
          "name": "operator",
          "type": "address"
        },
        {
          "internalType": "uint256",
          "name": "tokenId",
          "type": "uint256"
        }
      ],
      "name": "approve",
      "outputs": [],
      "stateMutability": "payable",
      "type": "function"
    },
    {
      "inputs": [
        {
          "internalType": "address",
          "name": "account",
          "type": "address"
        }
      ],
      "name": "availableMints",
      "outputs": [
        {
          "internalType": "uint256",
          "name": "balance",
          "type": "uint256"
        }
      ],
      "stateMutability": "view",
      "type": "function"
    },
    {
      "inputs": [
        {
          "internalType": "address",
          "name": "account",
          "type": "address"
        }
      ],
      "name": "balanceOf",
      "outputs": [
        {
          "internalType": "uint256",
          "name": "",
          "type": "uint256"
        }
      ],
      "stateMutability": "view",
      "type": "function"
    },
    {
      "inputs": [],
      "name": "baseURI",
      "outputs": [
        {
          "internalType": "string",
          "name": "",
          "type": "string"
        }
      ],
      "stateMutability": "view",
      "type": "function"
    },
    {
      "inputs": [
        {
          "internalType": "uint256",
          "name": "tokenId",
          "type": "uint256"
        }
      ],
      "name": "getApproved",
      "outputs": [
        {
          "internalType": "address",
          "name": "",
          "type": "address"
        }
      ],
      "stateMutability": "view",
      "type": "function"
    },
    {
      "inputs": [
        {
          "internalType": "address",
          "name": "account",
          "type": "address"
        },
        {
          "internalType": "address",
          "name": "operator",
          "type": "address"
        }
      ],
      "name": "isApprovedForAll",
      "outputs": [
        {
          "internalType": "bool",
          "name": "",
          "type": "bool"
        }
      ],
      "stateMutability": "view",
      "type": "function"
    },
    {
      "inputs": [],
      "name": "maxMintPerUser",
      "outputs": [
        {
          "internalType": "uint256",
          "name": "",
          "type": "uint256"
        }
      ],
      "stateMutability": "view",
      "type": "function"
    },
    {
      "inputs": [],
      "name": "maxSupply",
      "outputs": [
        {
          "internalType": "uint256",
          "name": "",
          "type": "uint256"
        }
      ],
      "stateMutability": "view",
      "type": "function"
    },
    {
      "inputs": [
        {
          "components": [
            {
              "internalType": "address",
              "name": "erc1155Contract",
              "type": "address"
            },
            {
              "internalType": "uint256",
              "name": "id",
              "type": "uint256"
            }
          ],
          "internalType": "struct InventoryStorage.Item[]",
          "name": "itemsToEquip",
          "type": "tuple[]"
        }
      ],
      "name": "mintAndEquip",
      "outputs": [],
      "stateMutability": "payable",
      "type": "function"
    },
    {
      "inputs": [],
      "name": "mintPrice",
      "outputs": [
        {
          "internalType": "uint256",
          "name": "",
          "type": "uint256"
        }
      ],
      "stateMutability": "view",
      "type": "function"
    },
    {
      "inputs": [
        {
          "internalType": "bytes[]",
          "name": "data",
          "type": "bytes[]"
        }
      ],
      "name": "multicall",
      "outputs": [
        {
          "internalType": "bytes[]",
          "name": "results",
          "type": "bytes[]"
        }
      ],
      "stateMutability": "nonpayable",
      "type": "function"
    },
    {
      "inputs": [],
      "name": "name",
      "outputs": [
        {
          "internalType": "string",
          "name": "",
          "type": "string"
        }
      ],
      "stateMutability": "view",
      "type": "function"
    },
    {
      "inputs": [
        {
          "internalType": "uint256",
          "name": "tokenId",
          "type": "uint256"
        }
      ],
      "name": "ownerOf",
      "outputs": [
        {
          "internalType": "address",
          "name": "",
          "type": "address"
        }
      ],
      "stateMutability": "view",
      "type": "function"
    },
    {
      "inputs": [],
      "name": "publicMintOpen",
      "outputs": [
        {
          "internalType": "bool",
          "name": "",
          "type": "bool"
        }
      ],
      "stateMutability": "view",
      "type": "function"
    },
    {
      "inputs": [
        {
          "internalType": "address",
          "name": "from",
          "type": "address"
        },
        {
          "internalType": "address",
          "name": "to",
          "type": "address"
        },
        {
          "internalType": "uint256",
          "name": "tokenId",
          "type": "uint256"
        }
      ],
      "name": "safeTransferFrom",
      "outputs": [],
      "stateMutability": "payable",
      "type": "function"
    },
    {
      "inputs": [
        {
          "internalType": "address",
          "name": "from",
          "type": "address"
        },
        {
          "internalType": "address",
          "name": "to",
          "type": "address"
        },
        {
          "internalType": "uint256",
          "name": "tokenId",
          "type": "uint256"
        },
        {
          "internalType": "bytes",
          "name": "data",
          "type": "bytes"
        }
      ],
      "name": "safeTransferFrom",
      "outputs": [],
      "stateMutability": "payable",
      "type": "function"
    },
    {
      "inputs": [
        {
          "internalType": "address",
          "name": "operator",
          "type": "address"
        },
        {
          "internalType": "bool",
          "name": "status",
          "type": "bool"
        }
      ],
      "name": "setApprovalForAll",
      "outputs": [],
      "stateMutability": "nonpayable",
      "type": "function"
    },
    {
      "inputs": [
        {
          "internalType": "string",
          "name": "newBaseURI",
          "type": "string"
        }
      ],
      "name": "setBaseURI",
      "outputs": [],
      "stateMutability": "nonpayable",
      "type": "function"
    },
    {
      "inputs": [
        {
          "internalType": "uint256",
          "name": "newMaxMintPerUser",
          "type": "uint256"
        }
      ],
      "name": "setMaxMintPerUser",
      "outputs": [],
      "stateMutability": "nonpayable",
      "type": "function"
    },
    {
      "inputs": [
        {
          "internalType": "uint256",
          "name": "maxArcadiansSupply",
          "type": "uint256"
        },
        {
          "internalType": "uint256",
          "name": "maxMintPassSupply",
          "type": "uint256"
        },
        {
          "internalType": "uint256",
          "name": "maxGuaranteedWLSupply",
          "type": "uint256"
        },
        {
          "internalType": "uint256",
          "name": "maxRestrictedWLSupply",
          "type": "uint256"
        },
        {
          "internalType": "uint256",
          "name": "maxPublicMintSupply",
          "type": "uint256"
        }
      ],
      "name": "setMaxSupplies",
      "outputs": [],
      "stateMutability": "nonpayable",
      "type": "function"
    },
    {
      "inputs": [
        {
          "internalType": "uint256",
          "name": "newMintPrice",
          "type": "uint256"
        }
      ],
      "name": "setMintPrice",
      "outputs": [],
      "stateMutability": "nonpayable",
      "type": "function"
    },
    {
      "inputs": [
        {
          "internalType": "bool",
          "name": "isOpen",
          "type": "bool"
        }
      ],
      "name": "setPublicMintOpen",
      "outputs": [],
      "stateMutability": "nonpayable",
      "type": "function"
    },
    {
      "inputs": [
        {
          "internalType": "bytes4",
          "name": "interfaceId",
          "type": "bytes4"
        }
      ],
      "name": "supportsInterface",
      "outputs": [
        {
          "internalType": "bool",
          "name": "",
          "type": "bool"
        }
      ],
      "stateMutability": "view",
      "type": "function"
    },
    {
      "inputs": [],
      "name": "symbol",
      "outputs": [
        {
          "internalType": "string",
          "name": "",
          "type": "string"
        }
      ],
      "stateMutability": "view",
      "type": "function"
    },
    {
      "inputs": [
        {
          "internalType": "uint256",
          "name": "index",
          "type": "uint256"
        }
      ],
      "name": "tokenByIndex",
      "outputs": [
        {
          "internalType": "uint256",
          "name": "",
          "type": "uint256"
        }
      ],
      "stateMutability": "view",
      "type": "function"
    },
    {
      "inputs": [
        {
          "internalType": "address",
          "name": "owner",
          "type": "address"
        },
        {
          "internalType": "uint256",
          "name": "index",
          "type": "uint256"
        }
      ],
      "name": "tokenOfOwnerByIndex",
      "outputs": [
        {
          "internalType": "uint256",
          "name": "",
          "type": "uint256"
        }
      ],
      "stateMutability": "view",
      "type": "function"
    },
    {
      "inputs": [
        {
          "internalType": "uint256",
          "name": "tokenId",
          "type": "uint256"
        }
      ],
      "name": "tokenURI",
      "outputs": [
        {
          "internalType": "string",
          "name": "",
          "type": "string"
        }
      ],
      "stateMutability": "view",
      "type": "function"
    },
    {
      "inputs": [],
      "name": "totalMinted",
      "outputs": [
        {
          "internalType": "uint256",
          "name": "",
          "type": "uint256"
        }
      ],
      "stateMutability": "view",
      "type": "function"
    },
    {
      "inputs": [],
      "name": "totalSupply",
      "outputs": [
        {
          "internalType": "uint256",
          "name": "",
          "type": "uint256"
        }
      ],
      "stateMutability": "view",
      "type": "function"
    },
    {
      "inputs": [
        {
          "internalType": "address",
          "name": "from",
          "type": "address"
        },
        {
          "internalType": "address",
          "name": "to",
          "type": "address"
        },
        {
          "internalType": "uint256",
          "name": "tokenId",
          "type": "uint256"
        }
      ],
      "name": "transferFrom",
      "outputs": [],
      "stateMutability": "payable",
      "type": "function"
    }
  ],
  "transactionHash": "0xc4e735d25a77117aaf81c9655681494b7afa0875ee0e62060328df868a8232bb",
  "args": [],
  "numDeployments": 14,
  "solcInputHash": "4bc01ee6977b9266bffa0dc0bc4f535d",
  "bytecode": "0x608060405234801561001057600080fd5b50613d2e806100206000396000f3fe6080604052600436106101cd5760003560e01c80636c0360eb116100f7578063b88d4fde11610095578063d5abeb0111610064578063d5abeb01146104dd578063d66b3eda14610511578063e985e9c514610531578063f4a0a5281461055157600080fd5b8063b88d4fde1461045e578063bcc9ca5b14610471578063c87b56dd146104a8578063d304c4bc146104c857600080fd5b806395d89b41116100d157806395d89b41146103fc578063a22cb46514610411578063a2309ff814610289578063ac9650d81461043157600080fd5b80636c0360eb146103a757806370a08231146103bc57806383ccaef7146103dc57600080fd5b806323b872dd1161016f57806355f804b31161013e57806355f804b3146103325780636352211e146103525780636387f804146103725780636817c76c1461039257600080fd5b806323b872dd146102cc5780632f745c59146102df57806342842e0e146102ff5780634f6ccce71461031257600080fd5b8063095ea7b3116101ab578063095ea7b3146102615780630a0678991461027657806318160ddd146102895780631fa54bca146102ac57600080fd5b806301ffc9a7146101d257806306fdde0314610207578063081812fc14610229575b600080fd5b3480156101de57600080fd5b506101f26101ed36600461324a565b610571565b60405190151581526020015b60405180910390f35b34801561021357600080fd5b5061021c6105b4565b6040516101fe91906132b7565b34801561023557600080fd5b506102496102443660046132ca565b6105c3565b6040516001600160a01b0390911681526020016101fe565b61027461026f3660046132f8565b6105ce565b005b610274610284366004613324565b6105dc565b34801561029557600080fd5b5061029e610645565b6040519081526020016101fe565b3480156102b857600080fd5b506102746102c7366004613399565b61064f565b6102746102da3660046133d4565b610691565b3480156102eb57600080fd5b5061029e6102fa3660046132f8565b6106a1565b61027461030d3660046133d4565b6106b4565b34801561031e57600080fd5b5061029e61032d3660046132ca565b6106bf565b34801561033e57600080fd5b5061027461034d3660046134a1565b6106ca565b34801561035e57600080fd5b5061024961036d3660046132ca565b6106fe565b34801561037e57600080fd5b5061027461038d3660046134ff565b610709565b34801561039e57600080fd5b5061029e610763565b3480156103b357600080fd5b5061021c61078d565b3480156103c857600080fd5b5061029e6103d736600461351a565b610797565b3480156103e857600080fd5b506102746103f73660046132ca565b6107a2565b34801561040857600080fd5b5061021c6107d3565b34801561041d57600080fd5b5061027461042c366004613537565b6107dd565b34801561043d57600080fd5b5061045161044c36600461356c565b6107e7565b6040516101fe91906135cf565b61027461046c366004613631565b610902565b34801561047d57600080fd5b507f87a01bd38845081b30641ebc639dfadf787bd49017c45985af2341fe932c74655460ff166101f2565b3480156104b457600080fd5b5061021c6104c33660046132ca565b610914565b3480156104d457600080fd5b5061029e61091f565b3480156104e957600080fd5b507f87a01bd38845081b30641ebc639dfadf787bd49017c45985af2341fe932c74685461029e565b34801561051d57600080fd5b5061029e61052c36600461351a565b610929565b34801561053d57600080fd5b506101f261054c3660046136b1565b6109e9565b34801561055d57600080fd5b5061027461056c3660046132ca565b6109f5565b6001600160e01b0319811660009081527ffc606c433378e3a7e0a6a531deac289b66caa1b4aa8554fd4ab2c6f1570f92d8602052604081205460ff165b92915050565b60606105be610a26565b905090565b60006105ae82610ac5565b6105d88282610b28565b5050565b7f09acf4e54214992e70883cf7dcd6957ff2c71cd9e14df4bec4383bc0d11607dc805460020361061f57604051635db5c7cd60e11b815260040160405180910390fd5b60028155600061062d610c2b565b905061063c8185856001610e1e565b50600190555050565b60006105be6111f7565b61066061065a611210565b3361123a565b61067d5760405163d0befa1d60e01b815260040160405180910390fd5b61068a8585858585611271565b5050505050565b61069c838383611313565b505050565b60006106ad8383611351565b9392505050565b61069c838383611392565b60006105ae826113ad565b6106d561065a611210565b6106f25760405163d0befa1d60e01b815260040160405180910390fd5b6106fb816113c7565b50565b60006105ae82611441565b61071461065a611210565b6107315760405163d0befa1d60e01b815260040160405180910390fd5b7f87a01bd38845081b30641ebc639dfadf787bd49017c45985af2341fe932c7465805460ff1916911515919091179055565b60006105be7f87a01bd38845081b30641ebc639dfadf787bd49017c45985af2341fe932c74645490565b60606105be611485565b60006105ae826114a4565b6107ad61065a611210565b6107ca5760405163d0befa1d60e01b815260040160405180910390fd5b6106fb8161150d565b60606105be61155c565b6105d8828261157b565b60608167ffffffffffffffff81111561080257610802613415565b60405190808252806020026020018201604052801561083557816020015b60608152602001906001900390816108205790505b50905060005b828110156108fb5760008030868685818110610859576108596136ea565b905060200281019061086b9190613700565b604051610879929190613747565b600060405180830381855af49150503d80600081146108b4576040519150601f19603f3d011682016040523d82523d6000602084013e6108b9565b606091505b509150915081156108e757808484815181106108d7576108d76136ea565b60200260200101819052506108f1565b3d6000803e3d6000fd5b505060010161083b565b5092915050565b61090e8484848461162f565b50505050565b60606105ae8261166e565b60006105be61184f565b6001600160a01b03811660009081527f87a01bd38845081b30641ebc639dfadf787bd49017c45985af2341fe932c746660209081526040808320547fa3ab50e899f598cf35254e9a97be2f97034673b13bdb3ad1ddfaf5a13d0a2168909252822054600080516020613c998339815191529183916109a8600187611865565b6109b2919061376d565b6109bc919061376d565b82549091506109cc908290613780565b6109d76000866118ca565b6109e1919061376d565b949350505050565b60006106ad8383611973565b610a0061065a611210565b610a1d5760405163d0befa1d60e01b815260040160405180910390fd5b6106fb816119c0565b6060600080516020613cb98339815191528054610a4290613793565b80601f0160208091040260200160405190810160405280929190818152602001828054610a6e90613793565b8015610abb5780601f10610a9057610100808354040283529160200191610abb565b820191906000526020600020905b815481529060010190602001808311610a9e57829003601f168201915b5050505050905090565b6000610ad082611a33565b610aed5760405163c1b843ef60e01b815260040160405180910390fd5b5060009081527f3c7bf052874fa81625121783266a03507bd2cd48b16e571c01a04e8dd3fb07a960205260409020546001600160a01b031690565b610b33828234611a4d565b6000610b3e82611441565b9050806001600160a01b0316836001600160a01b031603610b725760405163424a22cb60e01b815260040160405180910390fd5b336001600160a01b03821614801590610b925750610b908133611973565b155b15610bb057604051632f5de44f60e01b815260040160405180910390fd5b60008281527f3c7bf052874fa81625121783266a03507bd2cd48b16e571c01a04e8dd3fb07a9602052604080822080546001600160a01b0319166001600160a01b0387811691821790925591518593918516917f8c5be1e5ebec7d5bd14f71427d1e84f3dd0314c0f7b2291e5b200ac8c7c3b92591a4505050565b6000600080516020613c99833981519152610c44611a6c565b91508060050154821115610c6b576040516320df598b60e21b815260040160405180910390fd5b3360009081526003820160209081526040808320547fa3ab50e899f598cf35254e9a97be2f97034673b13bdb3ad1ddfaf5a13d0a2168909252822054610cb2600133611865565b610cbc919061376d565b610cc6919061376d565b82549091508110808015610cfb57507fa3ab50e899f598cf35254e9a97be2f97034673b13bdb3ad1ddfaf5a13d0a216b5460ff165b8015610d0f57506000610d0d33611a81565b115b15610d2357610d1d33611c0f565b50610e0e565b610d2d6000611e2a565b8015610d4357506000610d416000336118ca565b115b15610d5a57610d556000336001611e7d565b610e0e565b808015610d6c5750610d6c6001611e2a565b8015610d8257506000610d806001336118ca565b115b15610d9457610d556001336001611e7d565b808015610da55750600283015460ff165b15610df55782600101543414610dce5760405163104bb3ad60e11b815260040160405180910390fd5b3360009081526003840160205260408120805491610deb836137cd565b9190505550610e0e565b604051630e64914f60e31b815260040160405180910390fd5b610e183385612054565b50505090565b6040516331a9108f60e11b815260048101859052849030908190636352211e90602401602060405180830381865afa158015610e5e573d6000803e3d6000fd5b505050506040513d601f19601f82011682018060405250810190610e8291906137e6565b6001600160a01b0316336001600160a01b031614610eb35760405163aee05b5d60e01b815260040160405180910390fd5b6000849003610ed55760405163627652c960e11b815260040160405180910390fd5b600080516020613cd98339815191526000808667ffffffffffffffff811115610f0057610f00613415565b604051908082528060200260200182016040528015610f29578160200160208202803683370190505b50905060005b87811015610fc7576000610f5b8b8b8b85818110610f4f57610f4f6136ea565b9050604002018a61206e565b60ff8082166000908152600188016020526040902054919250620100009091041615610f8f5783610f8b81613803565b9450505b80838381518110610fa257610fa26136ea565b60ff909216602092830291909101909101525080610fbf816137cd565b915050610f2f565b50610fd189612448565b610fee5760405163a9614f1560e01b815260040160405180910390fd5b60ff8216156111aa5761100089612518565b61101c5760405162ecf30560e51b815260040160405180910390fd5b856111aa5760008260ff1667ffffffffffffffff81111561103f5761103f613415565b604051908082528060200260200182016040528015611068578160200160208202803683370190505b5090506000805b898110156111645760008660030160008d8d85818110611091576110916136ea565b6110a7926020604090920201908101915061351a565b6001600160a01b03166001600160a01b0316815260200190815260200160002060008d8d858181106110db576110db6136ea565b60206040918202939093018301358452838301949094525090820160009081205460ff90811680835260018c019093529290205490925062010000900416156111515780848481518110611131576111316136ea565b60ff909216602092830291909101909101528261114d816137cd565b9350505b508061115c816137cd565b91505061106f565b508a336001600160a01b03167f26f48489610b9379e1312f6d4ab3e8ae7daaeb6e9c3fc4fd435e31efe4b5b9058460405161119f9190613822565b60405180910390a350505b88336001600160a01b03167f9327c3082659d71242f39580f98c14533249a2555a5e35f7c1dd6114c014acbd836040516111e49190613822565b60405180910390a3505050505050505050565b60006105be600080516020613c7983398151915261265c565b60007ff6deb63e40d71b08820818e006e23fcceb1fce7a499bc15b71b2526cbf9efa725b54919050565b60008281527fd3889cc5458b268d0544e5534672df1296288ca3f93cbd39bd6f497a5c622811602052604081206106ad9083612666565b600080516020613c9983398151915285828461128d878961376d565b611297919061376d565b6112a1919061376d565b146112bf5760405163d0b95c6160e01b815260040160405180910390fd5b60058101869055600481018290556112f5857fa3ab50e899f598cf35254e9a97be2f97034673b13bdb3ad1ddfaf5a13d0a216a55565b611300600085612688565b61130b600184612688565b505050505050565b61131f838383346126da565b61132933826126fe565b61134657604051632f5de44f60e01b815260040160405180910390fd5b61069c83838361277c565b6001600160a01b03821660009081527f3c7bf052874fa81625121783266a03507bd2cd48b16e571c01a04e8dd3fb07a8602052604081206106ad908361290b565b61069c8383836040518060200160405280600081525061162f565b60006108fb600080516020613c7983398151915283612917565b604051600080516020613cb98339815191529033907f92bf6a7b8937c17e6781a68d61f9fe6a5ce08604b96ca2206f311049a3a295ea9061142b907f99574a7094154bb123ae6ae102096f0bf9679b85a5cd1e727aaa0ae5f132e6b3908690613869565b60405180910390a26002810161069c838261394e565b60008061145c600080516020613c7983398151915284612935565b90506001600160a01b0381166105ae57604051637e1a7d8b60e01b815260040160405180910390fd5b6060600080516020613cb98339815191526002018054610a4290613793565b60006001600160a01b0382166114cd57604051630810ff9760e41b815260040160405180910390fd5b6001600160a01b03821660009081527f3c7bf052874fa81625121783266a03507bd2cd48b16e571c01a04e8dd3fb07a8602052604090206105ae9061265c565b600080516020613c9983398151915280546040805191825260208201849052805133927f9a201d4a67373d8576462c238c27108c61b3deec32a932aac079a84cc3b7742c92908290030190a255565b6060600080516020613cb98339815191526001018054610a4290613793565b336001600160a01b038316036115a45760405163424a22cb60e01b815260040160405180910390fd5b3360008181527f3c7bf052874fa81625121783266a03507bd2cd48b16e571c01a04e8dd3fb07aa602090815260408083206001600160a01b03871680855290835292819020805460ff191686151590811790915590519081529192917f17307eab39ab6107e8899845ad3d59bd9653f200f220920489ca2b5937696c31910160405180910390a35050565b61163b848484346126da565b61164533836126fe565b61166257604051632f5de44f60e01b815260040160405180910390fd5b61090e84848484612941565b606061167982611a33565b61169557604051624705a760e71b815260040160405180910390fd5b60008281527f99574a7094154bb123ae6ae102096f0bf9679b85a5cd1e727aaa0ae5f132e6b4602052604081208054600080516020613cb98339815191529291906116df90613793565b80601f016020809104026020016040519081016040528092919081815260200182805461170b90613793565b80156117585780601f1061172d57610100808354040283529160200191611758565b820191906000526020600020905b81548152906001019060200180831161173b57829003601f168201915b50505050509050600082600201805461177090613793565b80601f016020809104026020016040519081016040528092919081815260200182805461179c90613793565b80156117e95780601f106117be576101008083540402835291602001916117e9565b820191906000526020600020905b8154815290600101906020018083116117cc57829003601f168201915b50505050509050805160000361180157509392505050565b81511561183457808260405160200161181b929190613a0e565b6040516020818303038152906040529350505050919050565b8061183e86612975565b60405160200161181b929190613a0e565b6000600080516020613c99833981519152611234565b6000600080516020613c59833981519152600084600181111561188a5761188a613a3d565b600181111561189b5761189b613a3d565b8152602080820192909252604090810160009081206001600160a01b0386168252909252902054905092915050565b6000600080516020613c598339815191528181818660018111156118f0576118f0613a3d565b600181111561190157611901613a3d565b8152602080820192909252604090810160009081206001600160a01b038816825260018101909352205460048201546002830154929350909161194590839061376d565b1115611969578160020154826004015461195f9190613780565b93505050506105ae565b92506105ae915050565b6001600160a01b0391821660009081527f3c7bf052874fa81625121783266a03507bd2cd48b16e571c01a04e8dd3fb07aa6020908152604080832093909416825291909152205460ff1690565b7f87a01bd38845081b30641ebc639dfadf787bd49017c45985af2341fe932c74645460408051918252602082018390528051600080516020613c998339815191529233927fed96032e9c101f4508a9696e8861f06aa3674be1b735fc685aed0efb83db76e992918290030190a260010155565b60006105ae600080516020613c7983398151915283612a76565b801561069c5760405163b56d7c1b60e01b815260040160405180910390fd5b6000611a766111f7565b6105be90600161376d565b6000807fa3ab50e899f598cf35254e9a97be2f97034673b13bdb3ad1ddfaf5a13d0a21676004818101546040516370a0823160e01b81526001600160a01b03878116938201939093529293506101009004169060009082906370a0823190602401602060405180830381865afa158015611aff573d6000803e3d6000fd5b505050506040513d601f19601f82011682018060405250810190611b239190613a53565b9050826003015483600201546001611b3b919061376d565b1115611b4c57506000949350505050565b60005b81811015611c0657604051632f745c5960e01b81526001600160a01b0387811660048301526024820183905260009190851690632f745c5990604401602060405180830381865afa158015611ba8573d6000803e3d6000fd5b505050506040513d601f19601f82011682018060405250810190611bcc9190613a53565b60008181526020879052604090205490915060ff16611bf35785611bef816137cd565b9650505b5080611bfe816137cd565b915050611b4f565b50505050919050565b6000807fa3ab50e899f598cf35254e9a97be2f97034673b13bdb3ad1ddfaf5a13d0a21676004818101546040516370a0823160e01b81526001600160a01b03878116938201939093529293506101009004169060009082906370a0823190602401602060405180830381865afa158015611c8d573d6000803e3d6000fd5b505050506040513d601f19601f82011682018060405250810190611cb19190613a53565b9050826003015483600201546001611cc9919061376d565b1115611cda57506000949350505050565b60005b81811015611c0657604051632f745c5960e01b81526001600160a01b0387811660048301526024820183905260009190851690632f745c5990604401602060405180830381865afa158015611d36573d6000803e3d6000fd5b505050506040513d601f19601f82011682018060405250810190611d5a9190613a53565b60008181526020879052604090205490915060ff16611e17576001600160a01b03871660009081526001860160205260408120805491611d99836137cd565b9091555050600285018054906000611db0836137cd565b909155505060008181526020868152604091829020805460ff1916600190811790915591518281529197506001600160a01b038916917f635ab7979864b411fa5ddec44b7c3680bacf7584d39d4e9bd33b709b14001eb3910160405180910390a250611c06565b5080611e22816137cd565b915050611cdd565b6000600080516020613c598339815191526000836001811115611e4f57611e4f613a3d565b6001811115611e6057611e60613a3d565b815260208101919091526040016000206005015460ff1692915050565b600080516020613c5983398151915260008181866001811115611ea257611ea2613a3d565b6001811115611eb357611eb3613a3d565b81526020810191909152604001600020600581015490915060ff16611eeb57604051633137c0e960e11b815260040160405180910390fd5b6001600160a01b0384166000908152600182016020526040902054831115611f2657604051630f8a2c5f60e31b815260040160405180910390fd5b60048101546002820154611f3b90600161376d565b1115611f5a57604051633a65df5360e11b815260040160405180910390fd5b6001600160a01b038416600090815260018201602052604081208054859290611f84908490613780565b90915550506001600160a01b03841660009081526020829052604081208054859290611fb190849061376d565b9250508190555082816002016000828254611fcc919061376d565b9250508190555082816003016000828254611fe79190613780565b90915550506001600160a01b038416600081815260018301602090815260408083205491859052918290205491517f6526db8cb857c3bc972db45a7984e99efaed17f7a4e51afb85c64450133cb55c92612045928a92909190613a6c565b60405180910390a25050505050565b6105d8828260405180602001604052806000815250612a8e565b6000600080516020613cd98339815191527ff672b8dc84d117c1e14949d8bc3977392b5ab7de9d01b854d389cdc31bf0d439826120ae602087018761351a565b6001600160a01b031681526020808201929092526040908101600090812087840135825290925290205460ff1691508115806120ff5750600080516020613cd98339815191525460ff908116908316115b1561211d576040516363efa0e360e01b815260040160405180910390fd5b82158015612144575060ff8083166000908152600183016020526040902054620100009004165b156121b957336000908152600882016020908152604080832060ff8616845290915281205490036121885760405163bbd28dfd60e01b815260040160405180910390fd5b336000908152600882016020908152604080832060ff8616845290915281208054916121b383613aa2565b91905055505b6000858152600282016020908152604080832060ff8087168552908352818420600186019093529220549091610100909104168015612201575080546001600160a01b031615155b1561221f5760405163bd8a5e1560e01b815260040160405180910390fd5b61222c602086018661351a565b81546001600160a01b03908116911614801561224f575084602001358160010154145b1561226d5760405163c80df0cb60e01b815260040160405180910390fd5b6000868152600283016020908152604080832060ff871684529091529020546001600160a01b0316156122a4576122a48684612ac2565b600060048301816122b8602089018961351a565b6001600160a01b031681526020808201929092526040908101600090812089840135825290925290205460ff16905080156124115760006122fc602088018861351a565b604051627eeac760e11b8152336004820152602089013560248201529091506001906001600160a01b0383169062fdd58e90604401602060405180830381865afa15801561234e573d6000803e3d6000fd5b505050506040513d601f19601f820116820180604052508101906123729190613a53565b1015612391576040516335ba250d60e11b815260040160405180910390fd5b604051637921219560e11b8152336004820152306024820152602088013560448201526001606482015260a06084820152600060a48201526001600160a01b0382169063f242432a9060c401600060405180830381600087803b1580156123f757600080fd5b505af115801561240b573d6000803e3d6000fd5b50505050505b6000878152600284016020908152604080832060ff881684529091529020869061243b8282613ab9565b9050505050509392505050565b600080516020613cd983398151915280546000919060ff16825b8160ff168160ff16101561250d57600061247d826001613af3565b60ff80821660009081526001870160205260409020805492935091620100009004161580156124b357508054610100900460ff16155b156124bf5750506124fb565b6000878152600286016020908152604080832060ff861684529091529020546001600160a01b03166124f8575060009695505050505050565b50505b8061250581613803565b915050612462565b506001949350505050565b7ff672b8dc84d117c1e14949d8bc3977392b5ab7de9d01b854d389cdc31bf0d43f54600090600080516020613cd983398151915290606090835b818160ff1610156125fa576000846009018260ff1681548110612577576125776136ea565b6000918252602080832081830401548a84526002890182526040808520601f9094166101000a90910460ff168085529282529283902080546001820154945193955090936125d493899387936001600160a01b0316929101613b0c565b6040516020818303038152906040529450505080806125f290613803565b915050612552565b508151602083012061260f6005850182612a76565b600087815260078601602052604090205490159550612632906005860190612c14565b506126406005850182612c20565b5060009586526007909301602052505060409092209190915590565b60006105ae825490565b6001600160a01b038116600090815260018301602052604081205415156106ad565b600080516020613c59833981519152600081818560018111156126ad576126ad613a3d565b60018111156126be576126be613a3d565b8152602081019190915260400160002060040192909255505050565b80156126f9576040516322b1813960e01b815260040160405180910390fd5b61090e565b600061270982611a33565b6127265760405163c1b843ef60e01b815260040160405180910390fd5b600061273183611441565b9050806001600160a01b0316846001600160a01b0316148061276c5750836001600160a01b031661276184610ac5565b6001600160a01b0316145b806109e157506109e18185611973565b600061278782611441565b9050836001600160a01b0316816001600160a01b0316146127bb57604051630f2db4ad60e01b815260040160405180910390fd5b6001600160a01b0383166127e2576040516340311a0960e01b815260040160405180910390fd5b6127ed848484612c2c565b6001600160a01b03841660009081527f3c7bf052874fa81625121783266a03507bd2cd48b16e571c01a04e8dd3fb07a860205260409020600080516020613c798339815191529061283e9084612c14565b506001600160a01b038416600090815260028201602052604090206128639084612c20565b5061286f818486612c37565b50600083815260038201602052604080822080546001600160a01b0319169055518491906001600160a01b038516907f8c5be1e5ebec7d5bd14f71427d1e84f3dd0314c0f7b2291e5b200ac8c7c3b925908390a482846001600160a01b0316866001600160a01b03167fddf252ad1be2c89b69c2b068fc378daa952ba7f163c4a11628f55a4df523b3ef60405160405180910390a45050505050565b60006106ad8383612c4d565b60008080806129268686612c99565b909450925050505b9250929050565b60006106ad8383612cfc565b61294c84848461277c565b61295884848484612d60565b61090e57604051639ff10cdd60e01b815260040160405180910390fd5b60608160000361299c5750506040805180820190915260018152600360fc1b602082015290565b8160005b81156129c657806129b0816137cd565b91506129bf9050600a83613b73565b91506129a0565b60008167ffffffffffffffff8111156129e1576129e1613415565b6040519080825280601f01601f191660200182016040528015612a0b576020820181803683370190505b5090505b84156109e157612a20600183613780565b9150612a2d600a86613b87565b612a3890603061376d565b60f81b818381518110612a4d57612a4d6136ea565b60200101906001600160f81b031916908160001a905350612a6f600a86613b73565b9450612a0f565b600081815260018301602052604081205415156106ad565b612a988383612e31565b612aa56000848484612d60565b61069c57604051639ff10cdd60e01b815260040160405180910390fd5b60008281527ff672b8dc84d117c1e14949d8bc3977392b5ab7de9d01b854d389cdc31bf0d4386020908152604080832060ff858116855290835281842080546001600160a01b031685527ff672b8dc84d117c1e14949d8bc3977392b5ab7de9d01b854d389cdc31bf0d43a845282852060018201548652909352922054600080516020613cd983398151915292168015612be0578154600180840154604051637921219560e11b81523060048201523360248201526044810191909152606481019190915260a06084820152600060a48201526001600160a01b0390911690819063f242432a9060c401600060405180830381600087803b158015612bc657600080fd5b505af1158015612bda573d6000803e3d6000fd5b50505050505b505060009283526002016020908152604080842060ff9093168452919052812080546001600160a01b031916815560010155565b60006106ad8383612f26565b60006106ad8383612fe0565b61069c838383613023565b60006109e184846001600160a01b03851661302e565b81546000908210612c715760405163e637bf3b60e01b815260040160405180910390fd5b826000018281548110612c8657612c866136ea565b9060005260206000200154905092915050565b815460009081908310612cbf5760405163022fd82760e31b815260040160405180910390fd5b6000846000018481548110612cd657612cd66136ea565b906000526020600020906002020190508060000154816001015492509250509250929050565b6000818152600183016020526040812054808203612d2d57604051633d547ec560e21b815260040160405180910390fd5b836000016001820381548110612d4557612d456136ea565b90600052602060002090600202016001015491505092915050565b60006001600160a01b0384163b612d79575060016109e1565b6000612dfa63150b7a0260e01b33888787604051602401612d9d9493929190613b9b565b604051602081830303815290604052906001600160e01b0319166020820180516001600160e01b038381831617835250505050604051806060016040528060328152602001613c27603291396001600160a01b03881691906130cd565b9050600081806020019051810190612e129190613bd7565b6001600160e01b031916630a85bd0160e11b1492505050949350505050565b6001600160a01b038216612e58576040516311f2988d60e11b815260040160405180910390fd5b612e6181611a33565b15612e7f57604051630d86bb7b60e31b815260040160405180910390fd5b612e8b60008383612c2c565b6001600160a01b03821660009081527f3c7bf052874fa81625121783266a03507bd2cd48b16e571c01a04e8dd3fb07a860205260409020600080516020613c7983398151915290612edc9083612c20565b50612ee8818385612c37565b5060405182906001600160a01b038516906000907fddf252ad1be2c89b69c2b068fc378daa952ba7f163c4a11628f55a4df523b3ef908290a4505050565b600081815260018301602052604081205480156108fb57835460009085906000198101908110612f5857612f586136ea565b9060005260206000200154905080856000016001840381548110612f7e57612f7e6136ea565b6000918252602080832090910192909255918252600186019052604090208190558354849080612fb057612fb0613bf4565b60008281526020808220830160001990810183905590920190925593815260019485019093525050604081205590565b60008181526001830160205260408120546105ae575081546001808201845560008481526020808220909301849055845493815293810190915260409092205590565b61069c8383836130dc565b60008281526001840160205260408120548082036130955750506040805180820182528381526020808201848152865460018181018955600089815284812095516002909302909501918255915190820155865486845281880190925292909120556106ad565b828560000160018303815481106130ae576130ae6136ea565b90600052602060002090600202016001018190555060009150506106ad565b60606109e18484600085613120565b6001600160a01b03821661069c5760008181527f99574a7094154bb123ae6ae102096f0bf9679b85a5cd1e727aaa0ae5f132e6b46020526040812061069c916131e6565b6060843b61314157604051632270d6bf60e21b815260040160405180910390fd5b600080866001600160a01b0316858760405161315d9190613c0a565b60006040518083038185875af1925050503d806000811461319a576040519150601f19603f3d011682016040523d82523d6000602084013e61319f565b606091505b509150915081156131b35791506109e19050565b8051156131c35780518082602001fd5b8360405162461bcd60e51b81526004016131dd91906132b7565b60405180910390fd5b5080546131f290613793565b6000825580601f10613202575050565b601f0160209004906000526020600020908101906106fb91905b80821115613230576000815560010161321c565b5090565b6001600160e01b0319811681146106fb57600080fd5b60006020828403121561325c57600080fd5b81356106ad81613234565b60005b8381101561328257818101518382015260200161326a565b50506000910152565b600081518084526132a3816020860160208601613267565b601f01601f19169290920160200192915050565b6020815260006106ad602083018461328b565b6000602082840312156132dc57600080fd5b5035919050565b6001600160a01b03811681146106fb57600080fd5b6000806040838503121561330b57600080fd5b8235613316816132e3565b946020939093013593505050565b6000806020838503121561333757600080fd5b823567ffffffffffffffff8082111561334f57600080fd5b818501915085601f83011261336357600080fd5b81358181111561337257600080fd5b8660208260061b850101111561338757600080fd5b60209290920196919550909350505050565b600080600080600060a086880312156133b157600080fd5b505083359560208501359550604085013594606081013594506080013592509050565b6000806000606084860312156133e957600080fd5b83356133f4816132e3565b92506020840135613404816132e3565b929592945050506040919091013590565b634e487b7160e01b600052604160045260246000fd5b600067ffffffffffffffff8084111561344657613446613415565b604051601f8501601f19908116603f0116810190828211818310171561346e5761346e613415565b8160405280935085815286868601111561348757600080fd5b858560208301376000602087830101525050509392505050565b6000602082840312156134b357600080fd5b813567ffffffffffffffff8111156134ca57600080fd5b8201601f810184136134db57600080fd5b6109e18482356020840161342b565b803580151581146134fa57600080fd5b919050565b60006020828403121561351157600080fd5b6106ad826134ea565b60006020828403121561352c57600080fd5b81356106ad816132e3565b6000806040838503121561354a57600080fd5b8235613555816132e3565b9150613563602084016134ea565b90509250929050565b6000806020838503121561357f57600080fd5b823567ffffffffffffffff8082111561359757600080fd5b818501915085601f8301126135ab57600080fd5b8135818111156135ba57600080fd5b8660208260051b850101111561338757600080fd5b6000602080830181845280855180835260408601915060408160051b870101925083870160005b8281101561362457603f1988860301845261361285835161328b565b945092850192908501906001016135f6565b5092979650505050505050565b6000806000806080858703121561364757600080fd5b8435613652816132e3565b93506020850135613662816132e3565b925060408501359150606085013567ffffffffffffffff81111561368557600080fd5b8501601f8101871361369657600080fd5b6136a58782356020840161342b565b91505092959194509250565b600080604083850312156136c457600080fd5b82356136cf816132e3565b915060208301356136df816132e3565b809150509250929050565b634e487b7160e01b600052603260045260246000fd5b6000808335601e1984360301811261371757600080fd5b83018035915067ffffffffffffffff82111561373257600080fd5b60200191503681900382131561292e57600080fd5b8183823760009101908152919050565b634e487b7160e01b600052601160045260246000fd5b808201808211156105ae576105ae613757565b818103818111156105ae576105ae613757565b600181811c908216806137a757607f821691505b6020821081036137c757634e487b7160e01b600052602260045260246000fd5b50919050565b6000600182016137df576137df613757565b5060010190565b6000602082840312156137f857600080fd5b81516106ad816132e3565b600060ff821660ff810361381957613819613757565b60010192915050565b6020808252825182820181905260009190848201906040850190845b8181101561385d57835160ff168352928401929184019160010161383e565b50909695505050505050565b60408152600080845461387b81613793565b806040860152606060018084166000811461389d57600181146138b7576138e8565b60ff1985168884015283151560051b8801830195506138e8565b8960005260208060002060005b868110156138df5781548b82018701529084019082016138c4565b8a018501975050505b505050505082810360208401526138ff818561328b565b95945050505050565b601f82111561069c57600081815260208120601f850160051c8101602086101561392f5750805b601f850160051c820191505b8181101561130b5782815560010161393b565b815167ffffffffffffffff81111561396857613968613415565b61397c816139768454613793565b84613908565b602080601f8311600181146139b157600084156139995750858301515b600019600386901b1c1916600185901b17855561130b565b600085815260208120601f198616915b828110156139e0578886015182559484019460019091019084016139c1565b50858210156139fe5787850151600019600388901b60f8161c191681555b5050505050600190811b01905550565b60008351613a20818460208801613267565b835190830190613a34818360208801613267565b01949350505050565b634e487b7160e01b600052602160045260246000fd5b600060208284031215613a6557600080fd5b5051919050565b6060810160028510613a8e57634e487b7160e01b600052602160045260246000fd5b938152602081019290925260409091015290565b600081613ab157613ab1613757565b506000190190565b8135613ac4816132e3565b6001600160a01b0381166bffffffffffffffffffffffff60a01b83541617825550602082013560018201555050565b60ff81811683821601908111156105ae576105ae613757565b60008551613b1e818460208a01613267565b60f89590951b6001600160f81b0319169190940190815260609290921b6bffffffffffffffffffffffff19166001830152601582015260350192915050565b634e487b7160e01b600052601260045260246000fd5b600082613b8257613b82613b5d565b500490565b600082613b9657613b96613b5d565b500690565b60006001600160a01b03808716835280861660208401525083604083015260806060830152613bcd608083018461328b565b9695505050505050565b600060208284031215613be957600080fd5b81516106ad81613234565b634e487b7160e01b600052603160045260246000fd5b60008251613c1c818460208701613267565b919091019291505056fe4552433732313a207472616e7366657220746f206e6f6e20455243373231526563656976657220696d706c656d656e746572f38d3885e664c9638de25f02e645e1955ebebe901d7be2c2037db6a5bcbb35883c7bf052874fa81625121783266a03507bd2cd48b16e571c01a04e8dd3fb07a687a01bd38845081b30641ebc639dfadf787bd49017c45985af2341fe932c746399574a7094154bb123ae6ae102096f0bf9679b85a5cd1e727aaa0ae5f132e6b1f672b8dc84d117c1e14949d8bc3977392b5ab7de9d01b854d389cdc31bf0d436a2646970667358221220412e895a92c67faba1f028e319a6f602dfe458197856b93560feb77792175a5864736f6c63430008130033",
  "devdoc": {
    "details": "ReentrancyGuard and Multicall contracts are used for security and gas efficiency.",
    "kind": "dev",
    "methods": {
      "approve(address,uint256)": {
        "params": {
          "operator": "address to be approved",
          "tokenId": "token to approve"
        }
      },
      "availableMints(address)": {
        "params": {
          "account": "account to query"
        },
        "returns": {
          "balance": "amount of arcadians that can be minted"
        }
      },
      "balanceOf(address)": {
        "returns": {
          "_0": "quantity of tokens held"
        }
      },
      "baseURI()": {
        "details": "This function returns the base URI",
        "returns": {
          "_0": "The base URI"
        }
      },
      "getApproved(uint256)": {
        "params": {
          "tokenId": "token to query"
        },
        "returns": {
          "_0": "address approved to spend token"
        }
      },
      "isApprovedForAll(address,address)": {
        "params": {
          "account": "address to query for approval granted",
          "operator": "address to query for approval received"
        },
        "returns": {
          "_0": "whether operator is approved to spend tokens held by account"
        }
      },
      "maxMintPerUser()": {
        "details": "This function gets the current maximum number of arcadians that a user can mint",
        "returns": {
          "_0": "The current maximum number of arcadians that a user can mint"
        }
      },
      "maxSupply()": {
        "details": "This function returns the maximum supply of arcadians",
        "returns": {
          "_0": "The current maximum supply of arcadians"
        }
      },
      "mintAndEquip((address,uint256)[])": {
        "params": {
          "itemsToEquip": "array of items to equip in the correspondent slot"
        }
      },
      "mintPrice()": {
        "returns": {
          "_0": "The current mint price"
        }
      },
      "multicall(bytes[])": {
        "params": {
          "data": "array of function call data payloads"
        },
        "returns": {
          "results": "array of function call results"
        }
      },
      "ownerOf(uint256)": {
        "params": {
          "tokenId": "token to query"
        },
        "returns": {
          "_0": "token owner"
        }
      },
      "safeTransferFrom(address,address,uint256)": {
        "params": {
          "from": "sender of token",
          "to": "receiver of token",
          "tokenId": "token id"
        }
      },
      "safeTransferFrom(address,address,uint256,bytes)": {
        "params": {
          "data": "data payload",
          "from": "sender of token",
          "to": "receiver of token",
          "tokenId": "token id"
        }
      },
      "setApprovalForAll(address,bool)": {
        "params": {
          "operator": "address to be approved",
          "status": "approval status"
        }
      },
      "setBaseURI(string)": {
        "params": {
          "newBaseURI": "The new base URI for all token metadata"
        }
      },
      "setMaxMintPerUser(uint256)": {
        "params": {
          "newMaxMintPerUser": "The new maximum number of arcadians that a user can mint"
        }
      },
      "setMaxSupplies(uint256,uint256,uint256,uint256,uint256)": {
        "params": {
          "maxArcadiansSupply": "The max supply of arcadians that can be minted",
          "maxGuaranteedWLSupply": "The max supply of arcadians that can be minted though the whitelist guaranteed pool",
          "maxMintPassSupply": "The max supply of arcadians that can be minted though mint passes",
          "maxPublicMintSupply": "The max supply of arcadians that can be minted though open mint",
          "maxRestrictedWLSupply": "The max supply of arcadians that can be minted though the whitelist restricted pool"
        }
      },
      "setMintPrice(uint256)": {
        "params": {
          "newMintPrice": "The new mint price to be set"
        }
      },
      "supportsInterface(bytes4)": {
        "params": {
          "interfaceId": "interface id"
        },
        "returns": {
          "_0": "bool whether interface is supported"
        }
      },
      "tokenByIndex(uint256)": {
        "params": {
          "index": "position in global token list to query"
        },
        "returns": {
          "_0": "id of retrieved token"
        }
      },
      "tokenOfOwnerByIndex(address,uint256)": {
        "params": {
          "index": "position in owner's token list to query",
          "owner": "token holder to query"
        },
        "returns": {
          "_0": "id of retrieved token"
        }
      },
      "tokenURI(uint256)": {
        "params": {
          "tokenId": "ID of the token to query"
        },
        "returns": {
          "_0": "The URI for the given token ID"
        }
      },
      "totalMinted()": {
        "returns": {
          "_0": "uint total amount of arcadians minted"
        }
      },
      "totalSupply()": {
        "returns": {
          "_0": "total supply"
        }
      },
      "transferFrom(address,address,uint256)": {
        "params": {
          "from": "sender of token",
          "to": "receiver of token",
          "tokenId": "token id"
        }
      }
    },
    "title": "ArcadiansFacet",
    "version": 1
  },
  "userdoc": {
    "kind": "user",
    "methods": {
      "approve(address,uint256)": {
        "notice": "grant approval to given account to spend token"
      },
      "availableMints(address)": {
        "notice": "Returns the amount of arcadians that can be minted by an account"
      },
      "balanceOf(address)": {
        "notice": "query the balance of given address"
      },
      "getApproved(uint256)": {
        "notice": "get approval status for given token"
      },
      "isApprovedForAll(address,address)": {
        "notice": "query approval status of given operator with respect to given address"
      },
      "mintAndEquip((address,uint256)[])": {
        "notice": "Mint a token and equip it with the given items"
      },
      "mintPrice()": {
        "notice": "This function gets the current price to mint an arcadian"
      },
      "multicall(bytes[])": {
        "notice": "batch function calls to the contract and return the results of each"
      },
      "name()": {
        "notice": "inheritdoc IERC721Metadata"
      },
      "ownerOf(uint256)": {
        "notice": "query the owner of given token"
      },
      "publicMintOpen()": {
        "notice": "Returns true if the public mint is open, false otherwise"
      },
      "safeTransferFrom(address,address,uint256)": {
        "notice": "transfer token between given addresses, checking for ERC721Receiver implementation if applicable"
      },
      "safeTransferFrom(address,address,uint256,bytes)": {
        "notice": "transfer token between given addresses, checking for ERC721Receiver implementation if applicable"
      },
      "setApprovalForAll(address,bool)": {
        "notice": "grant approval to or revoke approval from given account to spend all tokens held by sender"
      },
      "setBaseURI(string)": {
        "notice": "Set the base URI for all Arcadians metadataOnly the manager role can call this function"
      },
      "setMaxMintPerUser(uint256)": {
        "notice": "This function sets the new maximum number of arcadians that a user can mint"
      },
      "setMaxSupplies(uint256,uint256,uint256,uint256,uint256)": {
        "notice": "This function sets the max arcadians supply and all the sub-pools supplies"
      },
      "setMintPrice(uint256)": {
        "notice": "This function updates the price to mint an arcadian"
      },
      "setPublicMintOpen(bool)": {
        "notice": "This function sets the public mint as open/closed"
      },
      "supportsInterface(bytes4)": {
        "notice": "query whether contract has registered support for given interface"
      },
      "symbol()": {
        "notice": "inheritdoc IERC721Metadata"
      },
      "tokenByIndex(uint256)": {
        "notice": "get token at given internal storage index"
      },
      "tokenOfOwnerByIndex(address,uint256)": {
        "notice": "get token of given owner at given internal storage index"
      },
      "tokenURI(uint256)": {
        "notice": "Returns the URI for a given arcadian"
      },
      "totalMinted()": {
        "notice": "Returns the total amount of arcadians minted"
      },
      "totalSupply()": {
        "notice": "get total token supply"
      },
      "transferFrom(address,address,uint256)": {
        "notice": "transfer token between given addresses, without checking for ERC721Receiver implementation if applicable"
      }
    },
    "notice": "This contract is an ERC721 responsible for minting and claiming Arcadian tokens.",
    "version": 1
  },
  "storageLayout": {
    "storage": [],
    "types": null
  }
}