{
  "address": "0xb9c0a025Ee1eF9B06B13E2AF0D5fe6a73298d994",
  "abi": [
    {
      "inputs": [],
      "name": "ERC721Base__BalanceQueryZeroAddress",
      "type": "error"
    },
    {
      "inputs": [],
      "name": "ERC721Base__ERC721ReceiverNotImplemented",
      "type": "error"
    },
    {
      "inputs": [],
      "name": "ERC721Base__InvalidOwner",
      "type": "error"
    },
    {
      "inputs": [],
      "name": "ERC721Base__MintToZeroAddress",
      "type": "error"
    },
    {
      "inputs": [],
      "name": "ERC721Base__NonExistentToken",
      "type": "error"
    },
    {
      "inputs": [],
      "name": "ERC721Base__NotOwnerOrApproved",
      "type": "error"
    },
    {
      "inputs": [],
      "name": "ERC721Base__NotTokenOwner",
      "type": "error"
    },
    {
      "inputs": [],
      "name": "ERC721Base__SelfApproval",
      "type": "error"
    },
    {
      "inputs": [],
      "name": "ERC721Base__TokenAlreadyMinted",
      "type": "error"
    },
    {
      "inputs": [],
      "name": "ERC721Base__TransferToZeroAddress",
      "type": "error"
    },
    {
      "inputs": [],
      "name": "ERC721Metadata__NonExistentToken",
      "type": "error"
    },
    {
      "inputs": [],
      "name": "UintUtils__InsufficientHexLength",
      "type": "error"
    },
    {
      "anonymous": false,
      "inputs": [
        {
          "indexed": true,
          "internalType": "address",
          "name": "owner",
          "type": "address"
        },
        {
          "indexed": true,
          "internalType": "address",
          "name": "operator",
          "type": "address"
        },
        {
          "indexed": true,
          "internalType": "uint256",
          "name": "tokenId",
          "type": "uint256"
        }
      ],
      "name": "Approval",
      "type": "event"
    },
    {
      "anonymous": false,
      "inputs": [
        {
          "indexed": true,
          "internalType": "address",
          "name": "owner",
          "type": "address"
        },
        {
          "indexed": true,
          "internalType": "address",
          "name": "operator",
          "type": "address"
        },
        {
          "indexed": false,
          "internalType": "bool",
          "name": "approved",
          "type": "bool"
        }
      ],
      "name": "ApprovalForAll",
      "type": "event"
    },
    {
      "anonymous": false,
      "inputs": [
        {
          "indexed": true,
          "internalType": "address",
          "name": "to",
          "type": "address"
        },
        {
          "indexed": true,
          "internalType": "uint256",
          "name": "amount",
          "type": "uint256"
        }
      ],
      "name": "ArcadianClaimed",
      "type": "event"
    },
    {
      "anonymous": false,
      "inputs": [
        {
          "indexed": true,
          "internalType": "address",
          "name": "by",
          "type": "address"
        },
        {
          "indexed": false,
          "internalType": "string",
          "name": "oldBaseURI",
          "type": "string"
        },
        {
          "indexed": false,
          "internalType": "string",
          "name": "newBaseURI",
          "type": "string"
        }
      ],
      "name": "BaseURIChanged",
      "type": "event"
    },
    {
      "anonymous": false,
      "inputs": [
        {
          "indexed": true,
          "internalType": "address",
          "name": "by",
          "type": "address"
        },
        {
          "indexed": true,
          "internalType": "address",
          "name": "oldInventoryAddress",
          "type": "address"
        },
        {
          "indexed": true,
          "internalType": "address",
          "name": "newInventoryAddress",
          "type": "address"
        }
      ],
      "name": "InventoryAddressChanged",
      "type": "event"
    },
    {
      "anonymous": false,
      "inputs": [
        {
          "indexed": true,
          "internalType": "address",
          "name": "by",
          "type": "address"
        },
        {
          "indexed": false,
          "internalType": "uint256",
          "name": "oldMaxMintPerUser",
          "type": "uint256"
        },
        {
          "indexed": false,
          "internalType": "uint256",
          "name": "newMaxMintPerUser",
          "type": "uint256"
        }
      ],
      "name": "MaxMintPerUserChanged",
      "type": "event"
    },
    {
      "anonymous": false,
      "inputs": [
        {
          "indexed": true,
          "internalType": "address",
          "name": "by",
          "type": "address"
        },
        {
          "indexed": false,
          "internalType": "uint256",
          "name": "oldMintPrice",
          "type": "uint256"
        },
        {
          "indexed": false,
          "internalType": "uint256",
          "name": "newMintPrice",
          "type": "uint256"
        }
      ],
      "name": "MintPriceChanged",
      "type": "event"
    },
    {
      "anonymous": false,
      "inputs": [
        {
          "indexed": true,
          "internalType": "bytes32",
          "name": "role",
          "type": "bytes32"
        },
        {
          "indexed": true,
          "internalType": "bytes32",
          "name": "previousAdminRole",
          "type": "bytes32"
        },
        {
          "indexed": true,
          "internalType": "bytes32",
          "name": "newAdminRole",
          "type": "bytes32"
        }
      ],
      "name": "RoleAdminChanged",
      "type": "event"
    },
    {
      "anonymous": false,
      "inputs": [
        {
          "indexed": true,
          "internalType": "bytes32",
          "name": "role",
          "type": "bytes32"
        },
        {
          "indexed": true,
          "internalType": "address",
          "name": "account",
          "type": "address"
        },
        {
          "indexed": true,
          "internalType": "address",
          "name": "sender",
          "type": "address"
        }
      ],
      "name": "RoleGranted",
      "type": "event"
    },
    {
      "anonymous": false,
      "inputs": [
        {
          "indexed": true,
          "internalType": "bytes32",
          "name": "role",
          "type": "bytes32"
        },
        {
          "indexed": true,
          "internalType": "address",
          "name": "account",
          "type": "address"
        },
        {
          "indexed": true,
          "internalType": "address",
          "name": "sender",
          "type": "address"
        }
      ],
      "name": "RoleRevoked",
      "type": "event"
    },
    {
      "anonymous": false,
      "inputs": [
        {
          "indexed": true,
          "internalType": "address",
          "name": "from",
          "type": "address"
        },
        {
          "indexed": true,
          "internalType": "address",
          "name": "to",
          "type": "address"
        },
        {
          "indexed": true,
          "internalType": "uint256",
          "name": "tokenId",
          "type": "uint256"
        }
      ],
      "name": "Transfer",
      "type": "event"
    },
    {
      "anonymous": false,
      "inputs": [
        {
          "indexed": false,
          "internalType": "address",
          "name": "account",
          "type": "address"
        },
        {
          "indexed": false,
          "internalType": "int256",
          "name": "amount",
          "type": "int256"
        },
        {
          "indexed": false,
          "internalType": "uint256",
          "name": "totalElegibleAmount",
          "type": "uint256"
        },
        {
          "indexed": false,
          "internalType": "uint256",
          "name": "totalClaimedAmount",
          "type": "uint256"
        }
      ],
      "name": "WhitelistBalanceChanged",
      "type": "event"
    },
    {
      "inputs": [
        {
          "internalType": "address",
          "name": "inventoryAddress",
          "type": "address"
        },
        {
          "internalType": "bytes32",
          "name": "merkleRoot",
          "type": "bytes32"
        },
        {
          "internalType": "string",
          "name": "baseUri",
          "type": "string"
        },
        {
          "internalType": "uint256",
          "name": "maxMintPerUser",
          "type": "uint256"
        },
        {
          "internalType": "uint256",
          "name": "mintPrice",
          "type": "uint256"
        }
      ],
      "name": "init",
      "outputs": [],
      "stateMutability": "nonpayable",
      "type": "function"
    }
  ],
  "transactionHash": "0x99c6436d52c6da5e4e0cc936d57ecb8a605dbf235244fef245b756a031950760",
  "args": [],
  "numDeployments": 2,
  "solcInputHash": "c21516edc60155c906660e263915c827",
  "bytecode": "0x608060405234801561001057600080fd5b50610baf806100206000396000f3fe608060405234801561001057600080fd5b506004361061002b5760003560e01c8063717e074914610030575b600080fd5b61004361003e3660046107a7565b610045565b005b7f7a07c093b55ad04e200605cb287859fe4640b7310d62fdbb044e26399da78c088581556100716100d4565b6100b085858080601f0160208091040260200160405190810160405280939291908181526020018383808284376000920191909152506101c192505050565b6100b983610252565b6100c2826102d7565b6100cb8761035c565b50505050505050565b7fb462f6088ae062dff8b9775f21c40e03e3712c046de379405b569825959678c97ff6deb63e40d71b08820818e006e23fcceb1fce7a499bc15b71b2526cbf9efa729081557fb7400b17e52d343f741138df9e91f7b1f847b285f261edc36ddf5d104892f80d7ff6deb63e40d71b08820818e006e23fcceb1fce7a499bc15b71b2526cbf9efa735561016860005b336104a8565b6101936101627ff6deb63e40d71b08820818e006e23fcceb1fce7a499bc15b71b2526cbf9efa725490565b6101be6101627ff6deb63e40d71b08820818e006e23fcceb1fce7a499bc15b71b2526cbf9efa735490565b50565b6040517f99574a7094154bb123ae6ae102096f0bf9679b85a5cd1e727aaa0ae5f132e6b19033907f92bf6a7b8937c17e6781a68d61f9fe6a5ce08604b96ca2206f311049a3a295ea90610237907f99574a7094154bb123ae6ae102096f0bf9679b85a5cd1e727aaa0ae5f132e6b39086906108d8565b60405180910390a26002810161024d83826109db565b505050565b7f87a01bd38845081b30641ebc639dfadf787bd49017c45985af2341fe932c746654604080519182526020820183905280517f87a01bd38845081b30641ebc639dfadf787bd49017c45985af2341fe932c74639233927f9a201d4a67373d8576462c238c27108c61b3deec32a932aac079a84cc3b7742c92918290030190a260030155565b7f87a01bd38845081b30641ebc639dfadf787bd49017c45985af2341fe932c746754604080519182526020820183905280517f87a01bd38845081b30641ebc639dfadf787bd49017c45985af2341fe932c74639233927fed96032e9c101f4508a9696e8861f06aa3674be1b735fc685aed0efb83db76e992918290030190a260040155565b61038c6103877ff6deb63e40d71b08820818e006e23fcceb1fce7a499bc15b71b2526cbf9efa725490565b61051c565b6001600160a01b03811661040d5760405162461bcd60e51b815260206004820152603760248201527f417263616469616e73496e7465726e616c2e5f736574496e76656e746f72794160448201527f6464726573733a20496e76616c6964206164647265737300000000000000000060648201526084015b60405180910390fd5b7f87a01bd38845081b30641ebc639dfadf787bd49017c45985af2341fe932c746380546001600160a01b038381169116146104a45780546040516001600160a01b0380851692169033907faca128ed2b41b1471dae948d022df19c0d331f9329070f1935e8db313046d84c90600090a4805473ffffffffffffffffffffffffffffffffffffffff19166001600160a01b0383161781555b5050565b60008281527fd3889cc5458b268d0544e5534672df1296288ca3f93cbd39bd6f497a5c622811602052604090206104df9082610526565b5060405133906001600160a01b0383169084907f2f8788117e7eff1d82e926ec794901d17c78024a50270940304540a733656f0d90600090a45050565b6101be8133610544565b600061053b836001600160a01b0384166105a6565b90505b92915050565b61054e82826105e9565b6104a457610564816001600160a01b0316610620565b61056f836020610632565b604051602001610580929190610a9b565b60408051601f198184030181529082905262461bcd60e51b825261040491600401610b10565b600081815260018301602052604081205461053e575081546001808201845560008481526020808220909301849055845493815293810190915260409092205590565b60008281527fd3889cc5458b268d0544e5534672df1296288ca3f93cbd39bd6f497a5c6228116020526040812061053b9083610785565b606061053e6001600160a01b03831660145b60606000610641836002610b39565b61064c906002610b50565b67ffffffffffffffff81111561066457610664610977565b6040519080825280601f01601f19166020018201604052801561068e576020820181803683370190505b509050600360fc1b816000815181106106a9576106a9610b63565b60200101906001600160f81b031916908160001a905350600f60fb1b816001815181106106d8576106d8610b63565b60200101906001600160f81b031916908160001a905350600160028402015b6001811115610765576f181899199a1a9b1b9c1cb0b131b232b360811b85600f166010811061072857610728610b63565b1a60f81b82828151811061073e5761073e610b63565b60200101906001600160f81b031916908160001a90535060049490941c93600019016106f7565b50831561053b5760405163c913478560e01b815260040160405180910390fd5b6001600160a01b0381166000908152600183016020526040812054151561053b565b60008060008060008060a087890312156107c057600080fd5b86356001600160a01b03811681146107d757600080fd5b955060208701359450604087013567ffffffffffffffff808211156107fb57600080fd5b818901915089601f83011261080f57600080fd5b81358181111561081e57600080fd5b8a602082850101111561083057600080fd5b979a9699505060200196606081013595608090910135945092505050565b600181811c9082168061086257607f821691505b60208210810361088257634e487b7160e01b600052602260045260246000fd5b50919050565b60005b838110156108a357818101518382015260200161088b565b50506000910152565b600081518084526108c4816020860160208601610888565b601f01601f19169290920160200192915050565b6040815260008084546108ea8161084e565b806040860152606060018084166000811461090c576001811461092657610957565b60ff1985168884015283151560051b880183019550610957565b8960005260208060002060005b8681101561094e5781548b8201870152908401908201610933565b8a018501975050505b5050505050828103602084015261096e81856108ac565b95945050505050565b634e487b7160e01b600052604160045260246000fd5b601f82111561024d57600081815260208120601f850160051c810160208610156109b45750805b601f850160051c820191505b818110156109d3578281556001016109c0565b505050505050565b815167ffffffffffffffff8111156109f5576109f5610977565b610a0981610a03845461084e565b8461098d565b602080601f831160018114610a3e5760008415610a265750858301515b600019600386901b1c1916600185901b1785556109d3565b600085815260208120601f198616915b82811015610a6d57888601518255948401946001909101908401610a4e565b5085821015610a8b5787850151600019600388901b60f8161c191681555b5050505050600190811b01905550565b7f416363657373436f6e74726f6c3a206163636f756e7420000000000000000000815260008351610ad3816017850160208801610888565b7001034b99036b4b9b9b4b733903937b6329607d1b6017918401918201528351610b04816028840160208801610888565b01602801949350505050565b60208152600061053b60208301846108ac565b634e487b7160e01b600052601160045260246000fd5b808202811582820484141761053e5761053e610b23565b8082018082111561053e5761053e610b23565b634e487b7160e01b600052603260045260246000fdfea2646970667358221220244831db09843587dfd23dd626aeb77957cb1fa31351cb05796478a6a5fa0bb764736f6c63430008130033",
  "devdoc": {
    "kind": "dev",
    "methods": {},
    "version": 1
  },
  "userdoc": {
    "kind": "user",
    "methods": {},
    "version": 1
  },
  "storageLayout": {
    "storage": [],
    "types": null
  }
}