{
  "address": "0xd9b3D3dC4751aE428EBaFbaE5d4BA0d3d8D4Bfbb",
  "abi": [
    {
      "inputs": [],
      "name": "ERC721Base__BalanceQueryZeroAddress",
      "type": "error"
    },
    {
      "inputs": [],
      "name": "ERC721Base__ERC721ReceiverNotImplemented",
      "type": "error"
    },
    {
      "inputs": [],
      "name": "ERC721Base__InvalidOwner",
      "type": "error"
    },
    {
      "inputs": [],
      "name": "ERC721Base__MintToZeroAddress",
      "type": "error"
    },
    {
      "inputs": [],
      "name": "ERC721Base__NonExistentToken",
      "type": "error"
    },
    {
      "inputs": [],
      "name": "ERC721Base__NotOwnerOrApproved",
      "type": "error"
    },
    {
      "inputs": [],
      "name": "ERC721Base__NotTokenOwner",
      "type": "error"
    },
    {
      "inputs": [],
      "name": "ERC721Base__SelfApproval",
      "type": "error"
    },
    {
      "inputs": [],
      "name": "ERC721Base__TokenAlreadyMinted",
      "type": "error"
    },
    {
      "inputs": [],
      "name": "ERC721Base__TransferToZeroAddress",
      "type": "error"
    },
    {
      "inputs": [],
      "name": "ERC721Metadata__NonExistentToken",
      "type": "error"
    },
    {
      "inputs": [],
      "name": "UintUtils__InsufficientHexLength",
      "type": "error"
    },
    {
      "anonymous": false,
      "inputs": [
        {
          "indexed": true,
          "internalType": "address",
          "name": "owner",
          "type": "address"
        },
        {
          "indexed": true,
          "internalType": "address",
          "name": "operator",
          "type": "address"
        },
        {
          "indexed": true,
          "internalType": "uint256",
          "name": "tokenId",
          "type": "uint256"
        }
      ],
      "name": "Approval",
      "type": "event"
    },
    {
      "anonymous": false,
      "inputs": [
        {
          "indexed": true,
          "internalType": "address",
          "name": "owner",
          "type": "address"
        },
        {
          "indexed": true,
          "internalType": "address",
          "name": "operator",
          "type": "address"
        },
        {
          "indexed": false,
          "internalType": "bool",
          "name": "approved",
          "type": "bool"
        }
      ],
      "name": "ApprovalForAll",
      "type": "event"
    },
    {
      "anonymous": false,
      "inputs": [
        {
          "indexed": true,
          "internalType": "address",
          "name": "to",
          "type": "address"
        },
        {
          "indexed": true,
          "internalType": "uint256",
          "name": "amount",
          "type": "uint256"
        }
      ],
      "name": "ArcadianClaimed",
      "type": "event"
    },
    {
      "anonymous": false,
      "inputs": [
        {
          "indexed": true,
          "internalType": "address",
          "name": "by",
          "type": "address"
        },
        {
          "indexed": false,
          "internalType": "string",
          "name": "oldBaseURI",
          "type": "string"
        },
        {
          "indexed": false,
          "internalType": "string",
          "name": "newBaseURI",
          "type": "string"
        }
      ],
      "name": "BaseURIChanged",
      "type": "event"
    },
    {
      "anonymous": false,
      "inputs": [
        {
          "indexed": true,
          "internalType": "address",
          "name": "by",
          "type": "address"
        },
        {
          "indexed": true,
          "internalType": "address",
          "name": "oldInventoryAddress",
          "type": "address"
        },
        {
          "indexed": true,
          "internalType": "address",
          "name": "newInventoryAddress",
          "type": "address"
        }
      ],
      "name": "InventoryAddressChanged",
      "type": "event"
    },
    {
      "anonymous": false,
      "inputs": [
        {
          "indexed": true,
          "internalType": "address",
          "name": "by",
          "type": "address"
        },
        {
          "indexed": false,
          "internalType": "uint256",
          "name": "oldMaxMintPerUser",
          "type": "uint256"
        },
        {
          "indexed": false,
          "internalType": "uint256",
          "name": "newMaxMintPerUser",
          "type": "uint256"
        }
      ],
      "name": "MaxMintPerUserChanged",
      "type": "event"
    },
    {
      "anonymous": false,
      "inputs": [
        {
          "indexed": true,
          "internalType": "address",
          "name": "by",
          "type": "address"
        },
        {
          "indexed": false,
          "internalType": "uint256",
          "name": "oldMintPrice",
          "type": "uint256"
        },
        {
          "indexed": false,
          "internalType": "uint256",
          "name": "newMintPrice",
          "type": "uint256"
        }
      ],
      "name": "MintPriceChanged",
      "type": "event"
    },
    {
      "anonymous": false,
      "inputs": [
        {
          "indexed": true,
          "internalType": "bytes32",
          "name": "role",
          "type": "bytes32"
        },
        {
          "indexed": true,
          "internalType": "bytes32",
          "name": "previousAdminRole",
          "type": "bytes32"
        },
        {
          "indexed": true,
          "internalType": "bytes32",
          "name": "newAdminRole",
          "type": "bytes32"
        }
      ],
      "name": "RoleAdminChanged",
      "type": "event"
    },
    {
      "anonymous": false,
      "inputs": [
        {
          "indexed": true,
          "internalType": "bytes32",
          "name": "role",
          "type": "bytes32"
        },
        {
          "indexed": true,
          "internalType": "address",
          "name": "account",
          "type": "address"
        },
        {
          "indexed": true,
          "internalType": "address",
          "name": "sender",
          "type": "address"
        }
      ],
      "name": "RoleGranted",
      "type": "event"
    },
    {
      "anonymous": false,
      "inputs": [
        {
          "indexed": true,
          "internalType": "bytes32",
          "name": "role",
          "type": "bytes32"
        },
        {
          "indexed": true,
          "internalType": "address",
          "name": "account",
          "type": "address"
        },
        {
          "indexed": true,
          "internalType": "address",
          "name": "sender",
          "type": "address"
        }
      ],
      "name": "RoleRevoked",
      "type": "event"
    },
    {
      "anonymous": false,
      "inputs": [
        {
          "indexed": true,
          "internalType": "address",
          "name": "from",
          "type": "address"
        },
        {
          "indexed": true,
          "internalType": "address",
          "name": "to",
          "type": "address"
        },
        {
          "indexed": true,
          "internalType": "uint256",
          "name": "tokenId",
          "type": "uint256"
        }
      ],
      "name": "Transfer",
      "type": "event"
    },
    {
      "inputs": [
        {
          "internalType": "address",
          "name": "inventoryAddress",
          "type": "address"
        },
        {
          "internalType": "bytes32",
          "name": "merkleRoot",
          "type": "bytes32"
        },
        {
          "internalType": "string",
          "name": "baseUri",
          "type": "string"
        },
        {
          "internalType": "uint256",
          "name": "maxMintPerUser",
          "type": "uint256"
        },
        {
          "internalType": "uint256",
          "name": "mintPrice",
          "type": "uint256"
        }
      ],
      "name": "init",
      "outputs": [],
      "stateMutability": "nonpayable",
      "type": "function"
    }
  ],
  "transactionHash": "0xb8fc8366d303b5666194e1311d8a2ab0daeda7fa692c3f7e46fa55c4c794f446",
  "args": [],
  "numDeployments": 1,
  "solcInputHash": "150ebcc09713912e53c59e3de982ee04",
  "bytecode": "0x608060405234801561001057600080fd5b50610b7b806100206000396000f3fe608060405234801561001057600080fd5b506004361061002b5760003560e01c8063717e074914610030575b600080fd5b61004361003e366004610773565b610045565b005b7f7a07c093b55ad04e200605cb287859fe4640b7310d62fdbb044e26399da78c088581556100716100d4565b6100b085858080601f0160208091040260200160405190810160405280939291908181526020018383808284376000920191909152506101c192505050565b6100b983610252565b6100c2826102d7565b6100cb8761035c565b50505050505050565b7fb462f6088ae062dff8b9775f21c40e03e3712c046de379405b569825959678c97ff6deb63e40d71b08820818e006e23fcceb1fce7a499bc15b71b2526cbf9efa729081557fb7400b17e52d343f741138df9e91f7b1f847b285f261edc36ddf5d104892f80d7ff6deb63e40d71b08820818e006e23fcceb1fce7a499bc15b71b2526cbf9efa735561016860005b33610474565b6101936101627ff6deb63e40d71b08820818e006e23fcceb1fce7a499bc15b71b2526cbf9efa725490565b6101be6101627ff6deb63e40d71b08820818e006e23fcceb1fce7a499bc15b71b2526cbf9efa735490565b50565b6040517f99574a7094154bb123ae6ae102096f0bf9679b85a5cd1e727aaa0ae5f132e6b19033907f92bf6a7b8937c17e6781a68d61f9fe6a5ce08604b96ca2206f311049a3a295ea90610237907f99574a7094154bb123ae6ae102096f0bf9679b85a5cd1e727aaa0ae5f132e6b39086906108a4565b60405180910390a26002810161024d83826109a7565b505050565b7f87a01bd38845081b30641ebc639dfadf787bd49017c45985af2341fe932c746654604080519182526020820183905280517f87a01bd38845081b30641ebc639dfadf787bd49017c45985af2341fe932c74639233927f9a201d4a67373d8576462c238c27108c61b3deec32a932aac079a84cc3b7742c92918290030190a260030155565b7f87a01bd38845081b30641ebc639dfadf787bd49017c45985af2341fe932c746754604080519182526020820183905280517f87a01bd38845081b30641ebc639dfadf787bd49017c45985af2341fe932c74639233927fed96032e9c101f4508a9696e8861f06aa3674be1b735fc685aed0efb83db76e992918290030190a260040155565b61038c6103877ff6deb63e40d71b08820818e006e23fcceb1fce7a499bc15b71b2526cbf9efa725490565b6104e8565b6001600160a01b0381166103d95760405162461bcd60e51b815260206004820152600f60248201526e496e76616c6964206164647265737360881b60448201526064015b60405180910390fd5b7f87a01bd38845081b30641ebc639dfadf787bd49017c45985af2341fe932c746380546001600160a01b038381169116146104705780546040516001600160a01b0380851692169033907faca128ed2b41b1471dae948d022df19c0d331f9329070f1935e8db313046d84c90600090a4805473ffffffffffffffffffffffffffffffffffffffff19166001600160a01b0383161781555b5050565b60008281527fd3889cc5458b268d0544e5534672df1296288ca3f93cbd39bd6f497a5c622811602052604090206104ab90826104f2565b5060405133906001600160a01b0383169084907f2f8788117e7eff1d82e926ec794901d17c78024a50270940304540a733656f0d90600090a45050565b6101be8133610510565b6000610507836001600160a01b038416610572565b90505b92915050565b61051a82826105b5565b61047057610530816001600160a01b03166105ec565b61053b8360206105fe565b60405160200161054c929190610a67565b60408051601f198184030181529082905262461bcd60e51b82526103d091600401610adc565b600081815260018301602052604081205461050a575081546001808201845560008481526020808220909301849055845493815293810190915260409092205590565b60008281527fd3889cc5458b268d0544e5534672df1296288ca3f93cbd39bd6f497a5c622811602052604081206105079083610751565b606061050a6001600160a01b03831660145b6060600061060d836002610b05565b610618906002610b1c565b67ffffffffffffffff81111561063057610630610943565b6040519080825280601f01601f19166020018201604052801561065a576020820181803683370190505b509050600360fc1b8160008151811061067557610675610b2f565b60200101906001600160f81b031916908160001a905350600f60fb1b816001815181106106a4576106a4610b2f565b60200101906001600160f81b031916908160001a905350600160028402015b6001811115610731576f181899199a1a9b1b9c1cb0b131b232b360811b85600f16601081106106f4576106f4610b2f565b1a60f81b82828151811061070a5761070a610b2f565b60200101906001600160f81b031916908160001a90535060049490941c93600019016106c3565b5083156105075760405163c913478560e01b815260040160405180910390fd5b6001600160a01b03811660009081526001830160205260408120541515610507565b60008060008060008060a0878903121561078c57600080fd5b86356001600160a01b03811681146107a357600080fd5b955060208701359450604087013567ffffffffffffffff808211156107c757600080fd5b818901915089601f8301126107db57600080fd5b8135818111156107ea57600080fd5b8a60208285010111156107fc57600080fd5b979a9699505060200196606081013595608090910135945092505050565b600181811c9082168061082e57607f821691505b60208210810361084e57634e487b7160e01b600052602260045260246000fd5b50919050565b60005b8381101561086f578181015183820152602001610857565b50506000910152565b60008151808452610890816020860160208601610854565b601f01601f19169290920160200192915050565b6040815260008084546108b68161081a565b80604086015260606001808416600081146108d857600181146108f257610923565b60ff1985168884015283151560051b880183019550610923565b8960005260208060002060005b8681101561091a5781548b82018701529084019082016108ff565b8a018501975050505b5050505050828103602084015261093a8185610878565b95945050505050565b634e487b7160e01b600052604160045260246000fd5b601f82111561024d57600081815260208120601f850160051c810160208610156109805750805b601f850160051c820191505b8181101561099f5782815560010161098c565b505050505050565b815167ffffffffffffffff8111156109c1576109c1610943565b6109d5816109cf845461081a565b84610959565b602080601f831160018114610a0a57600084156109f25750858301515b600019600386901b1c1916600185901b17855561099f565b600085815260208120601f198616915b82811015610a3957888601518255948401946001909101908401610a1a565b5085821015610a575787850151600019600388901b60f8161c191681555b5050505050600190811b01905550565b7f416363657373436f6e74726f6c3a206163636f756e7420000000000000000000815260008351610a9f816017850160208801610854565b7001034b99036b4b9b9b4b733903937b6329607d1b6017918401918201528351610ad0816028840160208801610854565b01602801949350505050565b6020815260006105076020830184610878565b634e487b7160e01b600052601160045260246000fd5b808202811582820484141761050a5761050a610aef565b8082018082111561050a5761050a610aef565b634e487b7160e01b600052603260045260246000fdfea264697066735822122026f91c36140d03ceb863c2389236ebee89e485c0535b1979d3fba74d8f47829a64736f6c63430008130033",
  "devdoc": {
    "kind": "dev",
    "methods": {},
    "version": 1
  },
  "userdoc": {
    "kind": "user",
    "methods": {},
    "version": 1
  },
  "storageLayout": {
    "storage": [],
    "types": null
  }
}