{
  "address": "0xB1055A3dcA8C5531725Ec51c9e5C6DD27412e5F9",
  "abi": [
    {
      "inputs": [],
      "name": "AddressUtils__NotContract",
      "type": "error"
    },
    {
      "inputs": [],
      "name": "ERC165Base__InvalidInterfaceId",
      "type": "error"
    },
    {
      "inputs": [],
      "name": "ERC721Base__BalanceQueryZeroAddress",
      "type": "error"
    },
    {
      "inputs": [],
      "name": "ERC721Base__ERC721ReceiverNotImplemented",
      "type": "error"
    },
    {
      "inputs": [],
      "name": "ERC721Base__InvalidOwner",
      "type": "error"
    },
    {
      "inputs": [],
      "name": "ERC721Base__MintToZeroAddress",
      "type": "error"
    },
    {
      "inputs": [],
      "name": "ERC721Base__NonExistentToken",
      "type": "error"
    },
    {
      "inputs": [],
      "name": "ERC721Base__NotOwnerOrApproved",
      "type": "error"
    },
    {
      "inputs": [],
      "name": "ERC721Base__NotTokenOwner",
      "type": "error"
    },
    {
      "inputs": [],
      "name": "ERC721Base__SelfApproval",
      "type": "error"
    },
    {
      "inputs": [],
      "name": "ERC721Base__TokenAlreadyMinted",
      "type": "error"
    },
    {
      "inputs": [],
      "name": "ERC721Base__TransferToZeroAddress",
      "type": "error"
    },
    {
      "inputs": [],
      "name": "ERC721Metadata__NonExistentToken",
      "type": "error"
    },
    {
      "inputs": [],
      "name": "EnumerableMap__IndexOutOfBounds",
      "type": "error"
    },
    {
      "inputs": [],
      "name": "EnumerableMap__NonExistentKey",
      "type": "error"
    },
    {
      "inputs": [],
      "name": "EnumerableSet__IndexOutOfBounds",
      "type": "error"
    },
    {
      "inputs": [],
      "name": "ReentrancyGuard__ReentrantCall",
      "type": "error"
    },
    {
      "inputs": [],
      "name": "SolidStateERC721__PayableApproveNotSupported",
      "type": "error"
    },
    {
      "inputs": [],
      "name": "SolidStateERC721__PayableTransferNotSupported",
      "type": "error"
    },
    {
      "inputs": [],
      "name": "UintUtils__InsufficientHexLength",
      "type": "error"
    },
    {
      "anonymous": false,
      "inputs": [
        {
          "indexed": true,
          "internalType": "address",
          "name": "owner",
          "type": "address"
        },
        {
          "indexed": true,
          "internalType": "address",
          "name": "operator",
          "type": "address"
        },
        {
          "indexed": true,
          "internalType": "uint256",
          "name": "tokenId",
          "type": "uint256"
        }
      ],
      "name": "Approval",
      "type": "event"
    },
    {
      "anonymous": false,
      "inputs": [
        {
          "indexed": true,
          "internalType": "address",
          "name": "owner",
          "type": "address"
        },
        {
          "indexed": true,
          "internalType": "address",
          "name": "operator",
          "type": "address"
        },
        {
          "indexed": false,
          "internalType": "bool",
          "name": "approved",
          "type": "bool"
        }
      ],
      "name": "ApprovalForAll",
      "type": "event"
    },
    {
      "anonymous": false,
      "inputs": [
        {
          "indexed": true,
          "internalType": "address",
          "name": "to",
          "type": "address"
        },
        {
          "indexed": true,
          "internalType": "uint256",
          "name": "amount",
          "type": "uint256"
        }
      ],
      "name": "ArcadianClaimed",
      "type": "event"
    },
    {
      "anonymous": false,
      "inputs": [
        {
          "indexed": true,
          "internalType": "address",
          "name": "by",
          "type": "address"
        },
        {
          "indexed": false,
          "internalType": "string",
          "name": "oldBaseURI",
          "type": "string"
        },
        {
          "indexed": false,
          "internalType": "string",
          "name": "newBaseURI",
          "type": "string"
        }
      ],
      "name": "BaseURIChanged",
      "type": "event"
    },
    {
      "anonymous": false,
      "inputs": [
        {
          "indexed": true,
          "internalType": "address",
          "name": "by",
          "type": "address"
        },
        {
          "indexed": true,
          "internalType": "address",
          "name": "oldInventoryAddress",
          "type": "address"
        },
        {
          "indexed": true,
          "internalType": "address",
          "name": "newInventoryAddress",
          "type": "address"
        }
      ],
      "name": "InventoryAddressChanged",
      "type": "event"
    },
    {
      "anonymous": false,
      "inputs": [
        {
          "indexed": true,
          "internalType": "address",
          "name": "by",
          "type": "address"
        },
        {
          "indexed": false,
          "internalType": "uint256",
          "name": "oldMaxMintPerUser",
          "type": "uint256"
        },
        {
          "indexed": false,
          "internalType": "uint256",
          "name": "newMaxMintPerUser",
          "type": "uint256"
        }
      ],
      "name": "MaxMintPerUserChanged",
      "type": "event"
    },
    {
      "anonymous": false,
      "inputs": [
        {
          "indexed": true,
          "internalType": "address",
          "name": "by",
          "type": "address"
        },
        {
          "indexed": false,
          "internalType": "uint256",
          "name": "oldMintPrice",
          "type": "uint256"
        },
        {
          "indexed": false,
          "internalType": "uint256",
          "name": "newMintPrice",
          "type": "uint256"
        }
      ],
      "name": "MintPriceChanged",
      "type": "event"
    },
    {
      "anonymous": false,
      "inputs": [
        {
          "indexed": true,
          "internalType": "bytes32",
          "name": "role",
          "type": "bytes32"
        },
        {
          "indexed": true,
          "internalType": "bytes32",
          "name": "previousAdminRole",
          "type": "bytes32"
        },
        {
          "indexed": true,
          "internalType": "bytes32",
          "name": "newAdminRole",
          "type": "bytes32"
        }
      ],
      "name": "RoleAdminChanged",
      "type": "event"
    },
    {
      "anonymous": false,
      "inputs": [
        {
          "indexed": true,
          "internalType": "bytes32",
          "name": "role",
          "type": "bytes32"
        },
        {
          "indexed": true,
          "internalType": "address",
          "name": "account",
          "type": "address"
        },
        {
          "indexed": true,
          "internalType": "address",
          "name": "sender",
          "type": "address"
        }
      ],
      "name": "RoleGranted",
      "type": "event"
    },
    {
      "anonymous": false,
      "inputs": [
        {
          "indexed": true,
          "internalType": "bytes32",
          "name": "role",
          "type": "bytes32"
        },
        {
          "indexed": true,
          "internalType": "address",
          "name": "account",
          "type": "address"
        },
        {
          "indexed": true,
          "internalType": "address",
          "name": "sender",
          "type": "address"
        }
      ],
      "name": "RoleRevoked",
      "type": "event"
    },
    {
      "anonymous": false,
      "inputs": [
        {
          "indexed": true,
          "internalType": "address",
          "name": "from",
          "type": "address"
        },
        {
          "indexed": true,
          "internalType": "address",
          "name": "to",
          "type": "address"
        },
        {
          "indexed": true,
          "internalType": "uint256",
          "name": "tokenId",
          "type": "uint256"
        }
      ],
      "name": "Transfer",
      "type": "event"
    },
    {
      "anonymous": false,
      "inputs": [
        {
          "indexed": false,
          "internalType": "address",
          "name": "account",
          "type": "address"
        },
        {
          "indexed": false,
          "internalType": "int256",
          "name": "amount",
          "type": "int256"
        },
        {
          "indexed": false,
          "internalType": "uint256",
          "name": "totalElegibleAmount",
          "type": "uint256"
        },
        {
          "indexed": false,
          "internalType": "uint256",
          "name": "totalClaimedAmount",
          "type": "uint256"
        }
      ],
      "name": "WhitelistBalanceChanged",
      "type": "event"
    },
    {
      "inputs": [
        {
          "internalType": "address",
          "name": "operator",
          "type": "address"
        },
        {
          "internalType": "uint256",
          "name": "tokenId",
          "type": "uint256"
        }
      ],
      "name": "approve",
      "outputs": [],
      "stateMutability": "payable",
      "type": "function"
    },
    {
      "inputs": [
        {
          "internalType": "address",
          "name": "account",
          "type": "address"
        }
      ],
      "name": "balanceOf",
      "outputs": [
        {
          "internalType": "uint256",
          "name": "",
          "type": "uint256"
        }
      ],
      "stateMutability": "view",
      "type": "function"
    },
    {
      "inputs": [
        {
          "internalType": "uint256",
          "name": "totalAmount",
          "type": "uint256"
        },
        {
          "internalType": "bytes32[]",
          "name": "proof",
          "type": "bytes32[]"
        }
      ],
      "name": "claim",
      "outputs": [],
      "stateMutability": "nonpayable",
      "type": "function"
    },
    {
      "inputs": [
        {
          "internalType": "uint256",
          "name": "tokenId",
          "type": "uint256"
        }
      ],
      "name": "getApproved",
      "outputs": [
        {
          "internalType": "address",
          "name": "",
          "type": "address"
        }
      ],
      "stateMutability": "view",
      "type": "function"
    },
    {
      "inputs": [],
      "name": "getBaseURI",
      "outputs": [
        {
          "internalType": "string",
          "name": "",
          "type": "string"
        }
      ],
      "stateMutability": "view",
      "type": "function"
    },
    {
      "inputs": [
        {
          "internalType": "address",
          "name": "account",
          "type": "address"
        }
      ],
      "name": "getClaimedAmount",
      "outputs": [
        {
          "internalType": "uint256",
          "name": "",
          "type": "uint256"
        }
      ],
      "stateMutability": "view",
      "type": "function"
    },
    {
      "inputs": [],
      "name": "getInventoryAddress",
      "outputs": [
        {
          "internalType": "address",
          "name": "",
          "type": "address"
        }
      ],
      "stateMutability": "view",
      "type": "function"
    },
    {
      "inputs": [],
      "name": "getMaxMintPerUser",
      "outputs": [
        {
          "internalType": "uint256",
          "name": "",
          "type": "uint256"
        }
      ],
      "stateMutability": "view",
      "type": "function"
    },
    {
      "inputs": [],
      "name": "getMintPrice",
      "outputs": [
        {
          "internalType": "uint256",
          "name": "",
          "type": "uint256"
        }
      ],
      "stateMutability": "view",
      "type": "function"
    },
    {
      "inputs": [
        {
          "internalType": "address",
          "name": "account",
          "type": "address"
        },
        {
          "internalType": "address",
          "name": "operator",
          "type": "address"
        }
      ],
      "name": "isApprovedForAll",
      "outputs": [
        {
          "internalType": "bool",
          "name": "",
          "type": "bool"
        }
      ],
      "stateMutability": "view",
      "type": "function"
    },
    {
      "inputs": [],
      "name": "mint",
      "outputs": [],
      "stateMutability": "payable",
      "type": "function"
    },
    {
      "inputs": [],
      "name": "name",
      "outputs": [
        {
          "internalType": "string",
          "name": "",
          "type": "string"
        }
      ],
      "stateMutability": "view",
      "type": "function"
    },
    {
      "inputs": [
        {
          "internalType": "uint256",
          "name": "tokenId",
          "type": "uint256"
        }
      ],
      "name": "ownerOf",
      "outputs": [
        {
          "internalType": "address",
          "name": "",
          "type": "address"
        }
      ],
      "stateMutability": "view",
      "type": "function"
    },
    {
      "inputs": [
        {
          "internalType": "address",
          "name": "from",
          "type": "address"
        },
        {
          "internalType": "address",
          "name": "to",
          "type": "address"
        },
        {
          "internalType": "uint256",
          "name": "tokenId",
          "type": "uint256"
        }
      ],
      "name": "safeTransferFrom",
      "outputs": [],
      "stateMutability": "payable",
      "type": "function"
    },
    {
      "inputs": [
        {
          "internalType": "address",
          "name": "from",
          "type": "address"
        },
        {
          "internalType": "address",
          "name": "to",
          "type": "address"
        },
        {
          "internalType": "uint256",
          "name": "tokenId",
          "type": "uint256"
        },
        {
          "internalType": "bytes",
          "name": "data",
          "type": "bytes"
        }
      ],
      "name": "safeTransferFrom",
      "outputs": [],
      "stateMutability": "payable",
      "type": "function"
    },
    {
      "inputs": [
        {
          "internalType": "address",
          "name": "operator",
          "type": "address"
        },
        {
          "internalType": "bool",
          "name": "status",
          "type": "bool"
        }
      ],
      "name": "setApprovalForAll",
      "outputs": [],
      "stateMutability": "nonpayable",
      "type": "function"
    },
    {
      "inputs": [
        {
          "internalType": "string",
          "name": "baseURI",
          "type": "string"
        }
      ],
      "name": "setBaseURI",
      "outputs": [],
      "stateMutability": "nonpayable",
      "type": "function"
    },
    {
      "inputs": [
        {
          "internalType": "address",
          "name": "newInventoryAddress",
          "type": "address"
        }
      ],
      "name": "setInventoryAddress",
      "outputs": [],
      "stateMutability": "nonpayable",
      "type": "function"
    },
    {
      "inputs": [
        {
          "internalType": "uint256",
          "name": "newMaxMintPerUser",
          "type": "uint256"
        }
      ],
      "name": "setMaxMintPerUser",
      "outputs": [],
      "stateMutability": "nonpayable",
      "type": "function"
    },
    {
      "inputs": [
        {
          "internalType": "uint256",
          "name": "newMintPrice",
          "type": "uint256"
        }
      ],
      "name": "setMintPrice",
      "outputs": [],
      "stateMutability": "nonpayable",
      "type": "function"
    },
    {
      "inputs": [
        {
          "internalType": "bytes4",
          "name": "interfaceId",
          "type": "bytes4"
        }
      ],
      "name": "supportsInterface",
      "outputs": [
        {
          "internalType": "bool",
          "name": "",
          "type": "bool"
        }
      ],
      "stateMutability": "view",
      "type": "function"
    },
    {
      "inputs": [],
      "name": "symbol",
      "outputs": [
        {
          "internalType": "string",
          "name": "",
          "type": "string"
        }
      ],
      "stateMutability": "view",
      "type": "function"
    },
    {
      "inputs": [
        {
          "internalType": "uint256",
          "name": "index",
          "type": "uint256"
        }
      ],
      "name": "tokenByIndex",
      "outputs": [
        {
          "internalType": "uint256",
          "name": "",
          "type": "uint256"
        }
      ],
      "stateMutability": "view",
      "type": "function"
    },
    {
      "inputs": [
        {
          "internalType": "address",
          "name": "owner",
          "type": "address"
        },
        {
          "internalType": "uint256",
          "name": "index",
          "type": "uint256"
        }
      ],
      "name": "tokenOfOwnerByIndex",
      "outputs": [
        {
          "internalType": "uint256",
          "name": "",
          "type": "uint256"
        }
      ],
      "stateMutability": "view",
      "type": "function"
    },
    {
      "inputs": [
        {
          "internalType": "uint256",
          "name": "tokenId",
          "type": "uint256"
        }
      ],
      "name": "tokenURI",
      "outputs": [
        {
          "internalType": "string",
          "name": "",
          "type": "string"
        }
      ],
      "stateMutability": "view",
      "type": "function"
    },
    {
      "inputs": [],
      "name": "totalSupply",
      "outputs": [
        {
          "internalType": "uint256",
          "name": "",
          "type": "uint256"
        }
      ],
      "stateMutability": "view",
      "type": "function"
    },
    {
      "inputs": [
        {
          "internalType": "address",
          "name": "from",
          "type": "address"
        },
        {
          "internalType": "address",
          "name": "to",
          "type": "address"
        },
        {
          "internalType": "uint256",
          "name": "tokenId",
          "type": "uint256"
        }
      ],
      "name": "transferFrom",
      "outputs": [],
      "stateMutability": "payable",
      "type": "function"
    }
  ],
  "transactionHash": "0xbfd378086d5900acb6209667baaa7393f2e58c701892e308247f797d90fbc427",
  "args": [],
  "numDeployments": 2,
  "solcInputHash": "c21516edc60155c906660e263915c827",
  "bytecode": "0x608060405234801561001057600080fd5b50612dc4806100206000396000f3fe60806040526004361061019c5760003560e01c806370a08231116100ec578063b88d4fde1161008a578063c87b56dd11610064578063c87b56dd1461043d578063db718c941461045d578063e985e9c514610472578063f4a0a5281461049257600080fd5b8063b88d4fde146103f5578063ba58bb1714610408578063c22cbb5d1461041d57600080fd5b80638df40be8116100c65780638df40be81461038b57806395d89b41146103ab578063a22cb465146103c0578063a7f93ebd146103e057600080fd5b806370a0823114610336578063714c53981461035657806383ccaef71461036b57600080fd5b806323b872dd1161015957806342842e0e1161013357806342842e0e146102c35780634f6ccce7146102d657806355f804b3146102f65780636352211e1461031657600080fd5b806323b872dd146102705780632f52ebb7146102835780632f745c59146102a357600080fd5b806301ffc9a7146101a157806306fdde03146101d6578063081812fc146101f8578063095ea7b3146102305780631249c58b1461024557806318160ddd1461024d575b600080fd5b3480156101ad57600080fd5b506101c16101bc3660046123d9565b6104b2565b60405190151581526020015b60405180910390f35b3480156101e257600080fd5b506101eb6104f5565b6040516101cd9190612446565b34801561020457600080fd5b50610218610213366004612459565b610504565b6040516001600160a01b0390911681526020016101cd565b61024361023e366004612487565b61050f565b005b61024361051d565b34801561025957600080fd5b50610262610573565b6040519081526020016101cd565b61024361027e3660046124b3565b61057d565b34801561028f57600080fd5b5061024361029e366004612588565b61058d565b3480156102af57600080fd5b506102626102be366004612487565b61074a565b6102436102d13660046124b3565b61075d565b3480156102e257600080fd5b506102626102f1366004612459565b610768565b34801561030257600080fd5b50610243610311366004612682565b610773565b34801561032257600080fd5b50610218610331366004612459565b61079d565b34801561034257600080fd5b506102626103513660046126cb565b6107a8565b34801561036257600080fd5b506101eb6107b3565b34801561037757600080fd5b50610243610386366004612459565b6107bd565b34801561039757600080fd5b506102626103a63660046126cb565b6107df565b3480156103b757600080fd5b506101eb61081c565b3480156103cc57600080fd5b506102436103db3660046126e8565b610826565b3480156103ec57600080fd5b50610262610830565b610243610403366004612726565b61085a565b34801561041457600080fd5b5061021861086c565b34801561042957600080fd5b506102436104383660046126cb565b61088d565b34801561044957600080fd5b506101eb610458366004612459565b6108af565b34801561046957600080fd5b506102626108ba565b34801561047e57600080fd5b506101c161048d3660046127a6565b6108e4565b34801561049e57600080fd5b506102436104ad366004612459565b6108f0565b6001600160e01b0319811660009081527ffc606c433378e3a7e0a6a531deac289b66caa1b4aa8554fd4ab2c6f1570f92d8602052604081205460ff165b92915050565b60606104ff610912565b905090565b60006104ef826109b1565b6105198282610a14565b5050565b7f09acf4e54214992e70883cf7dcd6957ff2c71cd9e14df4bec4383bc0d11607dc805460020361056057604051635db5c7cd60e11b815260040160405180910390fd5b6002815561056d33610b17565b60019055565b60006104ff610c7e565b610588838383610c97565b505050565b7f09acf4e54214992e70883cf7dcd6957ff2c71cd9e14df4bec4383bc0d11607dc80546002036105d057604051635db5c7cd60e11b815260040160405180910390fd5b600281553360009081527f87a01bd38845081b30641ebc639dfadf787bd49017c45985af2341fe932c74646020526040902054600080516020612d4f83398151915290841161065b5760405162461bcd60e51b8152602060048201526012602482015271105b1b081d1bdad95b9cc818db185a5b595960721b60448201526064015b60405180910390fd5b6040805133602082015280820186905281518082038301815260609091019091526106868482610cd5565b503360009081526001830160205260408120546106a390876127ea565b905060005b818110156106ea5760028401546106bf3382610d92565b6002850180549060006106d1836127fd565b91905055505080806106e2906127fd565b9150506106a8565b503360009081526001840160205260408120805483929061070c908490612816565b9091555050604051819033907fd12dbe98ee2acccf8e61fdca25dfcfdc19c578ac57d0302d6b2a177ac4a47e8690600090a350506001909155505050565b60006107568383610e87565b9392505050565b610588838383610ec8565b60006104ef82610ee3565b61079161078c600080516020612cdd8339815191525490565b610efd565b61079a81610f07565b50565b60006104ef82610f81565b60006104ef82610fc5565b60606104ff61102e565b6107d661078c600080516020612cdd8339815191525490565b61079a8161104d565b6001600160a01b03811660009081527f87a01bd38845081b30641ebc639dfadf787bd49017c45985af2341fe932c746460205260408120546104ef565b60606104ff6110c0565b61051982826110df565b60006104ff7f87a01bd38845081b30641ebc639dfadf787bd49017c45985af2341fe932c74675490565b61086684848484611193565b50505050565b60006104ff600080516020612d4f833981519152546001600160a01b031690565b6108a661078c600080516020612cdd8339815191525490565b61079a816111d2565b60606104ef826112e4565b60006104ff7f87a01bd38845081b30641ebc639dfadf787bd49017c45985af2341fe932c74665490565b60006107568383611454565b61090961078c600080516020612cdd8339815191525490565b61079a816114a1565b6060600080516020612d6f833981519152805461092e90612829565b80601f016020809104026020016040519081016040528092919081815260200182805461095a90612829565b80156109a75780601f1061097c576101008083540402835291602001916109a7565b820191906000526020600020905b81548152906001019060200180831161098a57829003601f168201915b5050505050905090565b60006109bc82611514565b6109d95760405163c1b843ef60e01b815260040160405180910390fd5b5060009081527f3c7bf052874fa81625121783266a03507bd2cd48b16e571c01a04e8dd3fb07a960205260409020546001600160a01b031690565b610a1f82823461152e565b6000610a2a82610f81565b9050806001600160a01b0316836001600160a01b031603610a5e5760405163424a22cb60e01b815260040160405180910390fd5b336001600160a01b03821614801590610a7e5750610a7c8133611454565b155b15610a9c57604051632f5de44f60e01b815260040160405180910390fd5b60008281527f3c7bf052874fa81625121783266a03507bd2cd48b16e571c01a04e8dd3fb07a9602052604080822080546001600160a01b0319166001600160a01b0387811691821790925591518593918516917f8c5be1e5ebec7d5bd14f71427d1e84f3dd0314c0f7b2291e5b200ac8c7c3b92591a4505050565b7f87a01bd38845081b30641ebc639dfadf787bd49017c45985af2341fe932c746754600080516020612d4f833981519152903414610bab5760405162461bcd60e51b815260206004820152602b60248201527f417263616469616e73496e7465726e616c2e5f6d696e743a20496e76616c696460448201526a081c185e48185b5bdd5b9d60aa1b6064820152608401610652565b6001600160a01b0382166000908152600182016020526040812054610bcf84610fc5565b610bd991906127ea565b905081600301548110610c545760405162461bcd60e51b815260206004820152603b60248201527f417263616469616e73496e7465726e616c2e5f6d696e743a2055736572206d6160448201527f78696d756d206d696e74656420746f6b656e73207265616368656400000000006064820152608401610652565b610c62838360020154610d92565b600282018054906000610c74836127fd565b9190505550505050565b60006104ff600080516020612d2f833981519152611558565b610ca383838334611562565b610cad338261158d565b610cca57604051632f5de44f60e01b815260040160405180910390fd5b610588838383611613565b6000808280519060200120604051602001610cf291815260200190565b604051602081830303815290604052805190602001209050610d3c84610d357f7a07c093b55ad04e200605cb287859fe4640b7310d62fdbb044e26399da78c0890565b54836117a2565b915081610d8b5760405162461bcd60e51b815260206004820152601b60248201527f44617461206e6f7420696e636c7564656420696e206d65726b6c6500000000006044820152606401610652565b5092915050565b6001600160a01b038216610db9576040516311f2988d60e11b815260040160405180910390fd5b610dc281611514565b15610de057604051630d86bb7b60e31b815260040160405180910390fd5b610dec60008383611847565b6001600160a01b03821660009081527f3c7bf052874fa81625121783266a03507bd2cd48b16e571c01a04e8dd3fb07a860205260409020600080516020612d2f83398151915290610e3d908361185d565b50610e49818385611869565b5060405182906001600160a01b038516906000907fddf252ad1be2c89b69c2b068fc378daa952ba7f163c4a11628f55a4df523b3ef908290a4505050565b6001600160a01b03821660009081527f3c7bf052874fa81625121783266a03507bd2cd48b16e571c01a04e8dd3fb07a860205260408120610756908361187f565b61058883838360405180602001604052806000815250611193565b6000610d8b600080516020612d2f8339815191528361188b565b61079a81336118a7565b604051600080516020612d6f8339815191529033907f92bf6a7b8937c17e6781a68d61f9fe6a5ce08604b96ca2206f311049a3a295ea90610f6b907f99574a7094154bb123ae6ae102096f0bf9679b85a5cd1e727aaa0ae5f132e6b3908690612863565b60405180910390a2600281016105888382612950565b600080610f9c600080516020612d2f83398151915284611909565b90506001600160a01b0381166104ef57604051637e1a7d8b60e01b815260040160405180910390fd5b60006001600160a01b038216610fee57604051630810ff9760e41b815260040160405180910390fd5b6001600160a01b03821660009081527f3c7bf052874fa81625121783266a03507bd2cd48b16e571c01a04e8dd3fb07a8602052604090206104ef90611558565b6060600080516020612d6f833981519152600201805461092e90612829565b7f87a01bd38845081b30641ebc639dfadf787bd49017c45985af2341fe932c74665460408051918252602082018390528051600080516020612d4f8339815191529233927f9a201d4a67373d8576462c238c27108c61b3deec32a932aac079a84cc3b7742c92918290030190a260030155565b6060600080516020612d6f833981519152600101805461092e90612829565b336001600160a01b038316036111085760405163424a22cb60e01b815260040160405180910390fd5b3360008181527f3c7bf052874fa81625121783266a03507bd2cd48b16e571c01a04e8dd3fb07aa602090815260408083206001600160a01b03871680855290835292819020805460ff191686151590811790915590519081529192917f17307eab39ab6107e8899845ad3d59bd9653f200f220920489ca2b5937696c31910160405180910390a35050565b61119f84848434611562565b6111a9338361158d565b6111c657604051632f5de44f60e01b815260040160405180910390fd5b61086684848484611915565b6111eb61078c600080516020612cdd8339815191525490565b6001600160a01b0381166112675760405162461bcd60e51b815260206004820152603760248201527f417263616469616e73496e7465726e616c2e5f736574496e76656e746f72794160448201527f6464726573733a20496e76616c696420616464726573730000000000000000006064820152608401610652565b600080516020612d4f83398151915280546001600160a01b038381169116146105195780546040516001600160a01b0380851692169033907faca128ed2b41b1471dae948d022df19c0d331f9329070f1935e8db313046d84c90600090a480546001600160a01b0383166001600160a01b03199091161781555050565b60606000611307600080516020612d4f833981519152546001600160a01b031690565b9050600061131484611949565b604051634f1e659560e11b8152600481018690529091506000906001600160a01b03841690639e3ccb2a90602401600060405180830381865afa15801561135f573d6000803e3d6000fd5b505050506040513d6000823e601f3d908101601f191682016040526113879190810190612a10565b90508160405160200161139a9190612ad7565b604051602081830303815290604052915060005b815181101561144a5760006113df8383815181106113ce576113ce612b06565b602002602001015160200151611b2a565b9050816000036114125783816040516020016113fc929190612b1c565b6040516020818303038152906040529350611437565b8381604051602001611425929190612b4b565b60405160208183030381529060405293505b5080611442816127fd565b9150506113ae565b5090949350505050565b6001600160a01b0391821660009081527f3c7bf052874fa81625121783266a03507bd2cd48b16e571c01a04e8dd3fb07aa6020908152604080832093909416825291909152205460ff1690565b7f87a01bd38845081b30641ebc639dfadf787bd49017c45985af2341fe932c74675460408051918252602082018390528051600080516020612d4f8339815191529233927fed96032e9c101f4508a9696e8861f06aa3674be1b735fc685aed0efb83db76e992918290030190a260040155565b60006104ef600080516020612d2f83398151915283611c2b565b801561154d5760405163b56d7c1b60e01b815260040160405180910390fd5b610588838383611c43565b60006104ef825490565b8015611581576040516322b1813960e01b815260040160405180910390fd5b61086684848484611c62565b600061159882611514565b6115b55760405163c1b843ef60e01b815260040160405180910390fd5b60006115c083610f81565b9050806001600160a01b0316846001600160a01b031614806115fb5750836001600160a01b03166115f0846109b1565b6001600160a01b0316145b8061160b575061160b8185611454565b949350505050565b600061161e82610f81565b9050836001600160a01b0316816001600160a01b03161461165257604051630f2db4ad60e01b815260040160405180910390fd5b6001600160a01b038316611679576040516340311a0960e01b815260040160405180910390fd5b611684848484611847565b6001600160a01b03841660009081527f3c7bf052874fa81625121783266a03507bd2cd48b16e571c01a04e8dd3fb07a860205260409020600080516020612d2f833981519152906116d59084611c86565b506001600160a01b038416600090815260028201602052604090206116fa908461185d565b50611706818486611869565b50600083815260038201602052604080822080546001600160a01b0319169055518491906001600160a01b038516907f8c5be1e5ebec7d5bd14f71427d1e84f3dd0314c0f7b2291e5b200ac8c7c3b925908390a482846001600160a01b0316866001600160a01b03167fddf252ad1be2c89b69c2b068fc378daa952ba7f163c4a11628f55a4df523b3ef60405160405180910390a45050505050565b600081815b855181101561183c5760008682815181106117c4576117c4612b06565b60200260200101519050808311611806576040805160208101859052908101829052606001604051602081830303815290604052805190602001209250611833565b60408051602081018390529081018490526060016040516020818303038152906040528051906020012092505b506001016117a7565b509092149392505050565b611852838383611c92565b610588838383611d11565b60006107568383611d1c565b600061160b84846001600160a01b038516611d5f565b60006107568383611dfe565b600080808061189a8686611e4a565b9097909650945050505050565b6118b18282611ead565b610519576118c7816001600160a01b0316611ee4565b6118d2836020611ef6565b6040516020016118e3929190612b87565b60408051601f198184030181529082905262461bcd60e51b825261065291600401612446565b60006107568383612049565b611920848484611613565b61192c848484846120ad565b61086657604051639ff10cdd60e01b815260040160405180910390fd5b606061195482611514565b61197057604051624705a760e71b815260040160405180910390fd5b60008281527f99574a7094154bb123ae6ae102096f0bf9679b85a5cd1e727aaa0ae5f132e6b4602052604081208054600080516020612d6f8339815191529291906119ba90612829565b80601f01602080910402602001604051908101604052809291908181526020018280546119e690612829565b8015611a335780601f10611a0857610100808354040283529160200191611a33565b820191906000526020600020905b815481529060010190602001808311611a1657829003601f168201915b505050505090506000826002018054611a4b90612829565b80601f0160208091040260200160405190810160405280929190818152602001828054611a7790612829565b8015611ac45780601f10611a9957610100808354040283529160200191611ac4565b820191906000526020600020905b815481529060010190602001808311611aa757829003601f168201915b505050505090508051600003611adc57509392505050565b815115611b0f578082604051602001611af6929190612b1c565b6040516020818303038152906040529350505050919050565b80611b1986611b2a565b604051602001611af6929190612b1c565b606081600003611b515750506040805180820190915260018152600360fc1b602082015290565b8160005b8115611b7b5780611b65816127fd565b9150611b749050600a83612c12565b9150611b55565b60008167ffffffffffffffff811115611b9657611b966124f4565b6040519080825280601f01601f191660200182016040528015611bc0576020820181803683370190505b5090505b841561160b57611bd56001836127ea565b9150611be2600a86612c26565b611bed906030612816565b60f81b818381518110611c0257611c02612b06565b60200101906001600160f81b031916908160001a905350611c24600a86612c12565b9450611bc4565b60008181526001830160205260408120541515610756565b80156105885760405163b56d7c1b60e01b815260040160405180910390fd5b8015611c81576040516322b1813960e01b815260040160405180910390fd5b610866565b6000610756838361217e565b6000611cb3600080516020612d4f833981519152546001600160a01b031690565b60405163622d55fb60e11b8152600481018490529091506001600160a01b0382169063c45aabf690602401600060405180830381600087803b158015611cf857600080fd5b505af1925050508015611d09575060015b506108668484845b610588838383612238565b60008181526001830160205260408120546104ef575081546001808201845560008481526020808220909301849055845493815293810190915260409092205590565b6000828152600184016020526040812054808203611dc6575050604080518082018252838152602080820184815286546001818101895560008981528481209551600290930290950191825591519082015586548684528188019092529290912055610756565b82856000016001830381548110611ddf57611ddf612b06565b9060005260206000209060020201600101819055506000915050610756565b81546000908210611e225760405163e637bf3b60e01b815260040160405180910390fd5b826000018281548110611e3757611e37612b06565b9060005260206000200154905092915050565b815460009081908310611e705760405163022fd82760e31b815260040160405180910390fd5b6000846000018481548110611e8757611e87612b06565b906000526020600020906002020190508060000154816001015492509250509250929050565b60008281527fd3889cc5458b268d0544e5534672df1296288ca3f93cbd39bd6f497a5c622811602052604081206107569083612243565b60606104ef6001600160a01b03831660145b60606000611f05836002612c3a565b611f10906002612816565b67ffffffffffffffff811115611f2857611f286124f4565b6040519080825280601f01601f191660200182016040528015611f52576020820181803683370190505b509050600360fc1b81600081518110611f6d57611f6d612b06565b60200101906001600160f81b031916908160001a905350600f60fb1b81600181518110611f9c57611f9c612b06565b60200101906001600160f81b031916908160001a905350600160028402015b6001811115612029576f181899199a1a9b1b9c1cb0b131b232b360811b85600f1660108110611fec57611fec612b06565b1a60f81b82828151811061200257612002612b06565b60200101906001600160f81b031916908160001a90535060049490941c9360001901611fbb565b5083156107565760405163c913478560e01b815260040160405180910390fd5b600081815260018301602052604081205480820361207a57604051633d547ec560e21b815260040160405180910390fd5b83600001600182038154811061209257612092612b06565b90600052602060002090600202016001015491505092915050565b60006001600160a01b0384163b6120c65750600161160b565b600061214763150b7a0260e01b338887876040516024016120ea9493929190612c51565b604051602081830303815290604052906001600160e01b0319166020820180516001600160e01b038381831617835250505050604051806060016040528060328152602001612cfd603291396001600160a01b0388169190612265565b905060008180602001905181019061215f9190612c8d565b6001600160e01b031916630a85bd0160e11b1492505050949350505050565b60008181526001830160205260408120548015610d8b578354600090859060001981019081106121b0576121b0612b06565b90600052602060002001549050808560000160018403815481106121d6576121d6612b06565b600091825260208083209091019290925591825260018601905260409020819055835484908061220857612208612caa565b60008281526020808220830160001990810183905590920190925593815260019485019093525050604081205590565b610588838383612274565b6001600160a01b03811660009081526001830160205260408120541515610756565b606061160b84846000856122b8565b6001600160a01b0382166105885760008181527f99574a7094154bb123ae6ae102096f0bf9679b85a5cd1e727aaa0ae5f132e6b46020526040812061058891612375565b6060843b6122d957604051632270d6bf60e21b815260040160405180910390fd5b600080866001600160a01b031685876040516122f59190612cc0565b60006040518083038185875af1925050503d8060008114612332576040519150601f19603f3d011682016040523d82523d6000602084013e612337565b606091505b5091509150811561234b57915061160b9050565b80511561235b5780518082602001fd5b8360405162461bcd60e51b81526004016106529190612446565b50805461238190612829565b6000825580601f10612391575050565b601f01602090049060005260206000209081019061079a91905b808211156123bf57600081556001016123ab565b5090565b6001600160e01b03198116811461079a57600080fd5b6000602082840312156123eb57600080fd5b8135610756816123c3565b60005b838110156124115781810151838201526020016123f9565b50506000910152565b600081518084526124328160208601602086016123f6565b601f01601f19169290920160200192915050565b602081526000610756602083018461241a565b60006020828403121561246b57600080fd5b5035919050565b6001600160a01b038116811461079a57600080fd5b6000806040838503121561249a57600080fd5b82356124a581612472565b946020939093013593505050565b6000806000606084860312156124c857600080fd5b83356124d381612472565b925060208401356124e381612472565b929592945050506040919091013590565b634e487b7160e01b600052604160045260246000fd5b6040516060810167ffffffffffffffff8111828210171561252d5761252d6124f4565b60405290565b604051601f8201601f1916810167ffffffffffffffff8111828210171561255c5761255c6124f4565b604052919050565b600067ffffffffffffffff82111561257e5761257e6124f4565b5060051b60200190565b6000806040838503121561259b57600080fd5b8235915060208084013567ffffffffffffffff8111156125ba57600080fd5b8401601f810186136125cb57600080fd5b80356125de6125d982612564565b612533565b81815260059190911b820183019083810190888311156125fd57600080fd5b928401925b8284101561261b57833582529284019290840190612602565b80955050505050509250929050565b600067ffffffffffffffff831115612644576126446124f4565b612657601f8401601f1916602001612533565b905082815283838301111561266b57600080fd5b828260208301376000602084830101529392505050565b60006020828403121561269457600080fd5b813567ffffffffffffffff8111156126ab57600080fd5b8201601f810184136126bc57600080fd5b61160b8482356020840161262a565b6000602082840312156126dd57600080fd5b813561075681612472565b600080604083850312156126fb57600080fd5b823561270681612472565b91506020830135801515811461271b57600080fd5b809150509250929050565b6000806000806080858703121561273c57600080fd5b843561274781612472565b9350602085013561275781612472565b925060408501359150606085013567ffffffffffffffff81111561277a57600080fd5b8501601f8101871361278b57600080fd5b61279a8782356020840161262a565b91505092959194509250565b600080604083850312156127b957600080fd5b82356127c481612472565b9150602083013561271b81612472565b634e487b7160e01b600052601160045260246000fd5b818103818111156104ef576104ef6127d4565b60006001820161280f5761280f6127d4565b5060010190565b808201808211156104ef576104ef6127d4565b600181811c9082168061283d57607f821691505b60208210810361285d57634e487b7160e01b600052602260045260246000fd5b50919050565b60408152600080845461287581612829565b806040860152606060018084166000811461289757600181146128b1576128e2565b60ff1985168884015283151560051b8801830195506128e2565b8960005260208060002060005b868110156128d95781548b82018701529084019082016128be565b8a018501975050505b505050505082810360208401526128f9818561241a565b95945050505050565b601f82111561058857600081815260208120601f850160051c810160208610156129295750805b601f850160051c820191505b8181101561294857828155600101612935565b505050505050565b815167ffffffffffffffff81111561296a5761296a6124f4565b61297e816129788454612829565b84612902565b602080601f8311600181146129b3576000841561299b5750858301515b600019600386901b1c1916600185901b178555612948565b600085815260208120601f198616915b828110156129e2578886015182559484019460019091019084016129c3565b5085821015612a005787850151600019600388901b60f8161c191681555b5050505050600190811b01905550565b60006020808385031215612a2357600080fd5b825167ffffffffffffffff811115612a3a57600080fd5b8301601f81018513612a4b57600080fd5b8051612a596125d982612564565b81815260609182028301840191848201919088841115612a7857600080fd5b938501935b83851015612acb5780858a031215612a955760008081fd5b612a9d61250a565b8551612aa881612472565b815285870151878201526040808701519082015283529384019391850191612a7d565b50979650505050505050565b60008251612ae98184602087016123f6565b6a2f3f746f6b656e4964733d60a81b920191825250600b01919050565b634e487b7160e01b600052603260045260246000fd5b60008351612b2e8184602088016123f6565b835190830190612b428183602088016123f6565b01949350505050565b60008351612b5d8184602088016123f6565b600b60fa1b9083019081528351612b7b8160018401602088016123f6565b01600101949350505050565b7f416363657373436f6e74726f6c3a206163636f756e7420000000000000000000815260008351612bbf8160178501602088016123f6565b7001034b99036b4b9b9b4b733903937b6329607d1b6017918401918201528351612bf08160288401602088016123f6565b01602801949350505050565b634e487b7160e01b600052601260045260246000fd5b600082612c2157612c21612bfc565b500490565b600082612c3557612c35612bfc565b500690565b80820281158282048414176104ef576104ef6127d4565b60006001600160a01b03808716835280861660208401525083604083015260806060830152612c83608083018461241a565b9695505050505050565b600060208284031215612c9f57600080fd5b8151610756816123c3565b634e487b7160e01b600052603160045260246000fd5b60008251612cd28184602087016123f6565b919091019291505056fef6deb63e40d71b08820818e006e23fcceb1fce7a499bc15b71b2526cbf9efa724552433732313a207472616e7366657220746f206e6f6e20455243373231526563656976657220696d706c656d656e7465723c7bf052874fa81625121783266a03507bd2cd48b16e571c01a04e8dd3fb07a687a01bd38845081b30641ebc639dfadf787bd49017c45985af2341fe932c746399574a7094154bb123ae6ae102096f0bf9679b85a5cd1e727aaa0ae5f132e6b1a26469706673582212204ce98f01d382609818c824f523e5fdd0e764b930850aba262eb8641e46cc7b3964736f6c63430008130033",
  "devdoc": {
    "kind": "dev",
    "methods": {
      "approve(address,uint256)": {
        "params": {
          "operator": "address to be approved",
          "tokenId": "token to approve"
        }
      },
      "balanceOf(address)": {
        "returns": {
          "_0": "quantity of tokens held"
        }
      },
      "getApproved(uint256)": {
        "params": {
          "tokenId": "token to query"
        },
        "returns": {
          "_0": "address approved to spend token"
        }
      },
      "isApprovedForAll(address,address)": {
        "params": {
          "account": "address to query for approval granted",
          "operator": "address to query for approval received"
        },
        "returns": {
          "_0": "whether operator is approved to spend tokens held by account"
        }
      },
      "ownerOf(uint256)": {
        "params": {
          "tokenId": "token to query"
        },
        "returns": {
          "_0": "token owner"
        }
      },
      "safeTransferFrom(address,address,uint256)": {
        "params": {
          "from": "sender of token",
          "to": "receiver of token",
          "tokenId": "token id"
        }
      },
      "safeTransferFrom(address,address,uint256,bytes)": {
        "params": {
          "data": "data payload",
          "from": "sender of token",
          "to": "receiver of token",
          "tokenId": "token id"
        }
      },
      "setApprovalForAll(address,bool)": {
        "params": {
          "operator": "address to be approved",
          "status": "approval status"
        }
      },
      "supportsInterface(bytes4)": {
        "params": {
          "interfaceId": "interface id"
        },
        "returns": {
          "_0": "bool whether interface is supported"
        }
      },
      "tokenByIndex(uint256)": {
        "params": {
          "index": "position in global token list to query"
        },
        "returns": {
          "_0": "id of retrieved token"
        }
      },
      "tokenOfOwnerByIndex(address,uint256)": {
        "params": {
          "index": "position in owner's token list to query",
          "owner": "token holder to query"
        },
        "returns": {
          "_0": "id of retrieved token"
        }
      },
      "totalSupply()": {
        "returns": {
          "_0": "total supply"
        }
      },
      "transferFrom(address,address,uint256)": {
        "params": {
          "from": "sender of token",
          "to": "receiver of token",
          "tokenId": "token id"
        }
      }
    },
    "version": 1
  },
  "userdoc": {
    "kind": "user",
    "methods": {
      "approve(address,uint256)": {
        "notice": "grant approval to given account to spend token"
      },
      "balanceOf(address)": {
        "notice": "query the balance of given address"
      },
      "getApproved(uint256)": {
        "notice": "get approval status for given token"
      },
      "isApprovedForAll(address,address)": {
        "notice": "query approval status of given operator with respect to given address"
      },
      "name()": {
        "notice": "inheritdoc IERC721Metadata"
      },
      "ownerOf(uint256)": {
        "notice": "query the owner of given token"
      },
      "safeTransferFrom(address,address,uint256)": {
        "notice": "transfer token between given addresses, checking for ERC721Receiver implementation if applicable"
      },
      "safeTransferFrom(address,address,uint256,bytes)": {
        "notice": "transfer token between given addresses, checking for ERC721Receiver implementation if applicable"
      },
      "setApprovalForAll(address,bool)": {
        "notice": "grant approval to or revoke approval from given account to spend all tokens held by sender"
      },
      "supportsInterface(bytes4)": {
        "notice": "query whether contract has registered support for given interface"
      },
      "symbol()": {
        "notice": "inheritdoc IERC721Metadata"
      },
      "tokenByIndex(uint256)": {
        "notice": "get token at given internal storage index"
      },
      "tokenOfOwnerByIndex(address,uint256)": {
        "notice": "get token of given owner at given internal storage index"
      },
      "totalSupply()": {
        "notice": "get total token supply"
      },
      "transferFrom(address,address,uint256)": {
        "notice": "transfer token between given addresses, without checking for ERC721Receiver implementation if applicable"
      }
    },
    "version": 1
  },
  "storageLayout": {
    "storage": [],
    "types": null
  }
}