{
  "address": "0xcC7C4E24a02268e0DD01f3140c6E41a4DEbd9a89",
  "abi": [
    {
      "inputs": [],
      "name": "ERC1155Base__ArrayLengthMismatch",
      "type": "error"
    },
    {
      "inputs": [],
      "name": "ERC1155Base__BalanceQueryZeroAddress",
      "type": "error"
    },
    {
      "inputs": [],
      "name": "ERC1155Base__BurnExceedsBalance",
      "type": "error"
    },
    {
      "inputs": [],
      "name": "ERC1155Base__BurnFromZeroAddress",
      "type": "error"
    },
    {
      "inputs": [],
      "name": "ERC1155Base__ERC1155ReceiverNotImplemented",
      "type": "error"
    },
    {
      "inputs": [],
      "name": "ERC1155Base__ERC1155ReceiverRejected",
      "type": "error"
    },
    {
      "inputs": [],
      "name": "ERC1155Base__MintToZeroAddress",
      "type": "error"
    },
    {
      "inputs": [],
      "name": "ERC1155Base__NotOwnerOrApproved",
      "type": "error"
    },
    {
      "inputs": [],
      "name": "ERC1155Base__SelfApproval",
      "type": "error"
    },
    {
      "inputs": [],
      "name": "ERC1155Base__TransferExceedsBalance",
      "type": "error"
    },
    {
      "inputs": [],
      "name": "ERC1155Base__TransferToZeroAddress",
      "type": "error"
    },
    {
      "inputs": [],
      "name": "ReentrancyGuard__ReentrantCall",
      "type": "error"
    },
    {
      "inputs": [],
      "name": "UintUtils__InsufficientHexLength",
      "type": "error"
    },
    {
      "anonymous": false,
      "inputs": [
        {
          "indexed": true,
          "internalType": "address",
          "name": "account",
          "type": "address"
        },
        {
          "indexed": true,
          "internalType": "address",
          "name": "operator",
          "type": "address"
        },
        {
          "indexed": false,
          "internalType": "bool",
          "name": "approved",
          "type": "bool"
        }
      ],
      "name": "ApprovalForAll",
      "type": "event"
    },
    {
      "anonymous": false,
      "inputs": [
        {
          "indexed": true,
          "internalType": "address",
          "name": "oldArcadiansAddress",
          "type": "address"
        },
        {
          "indexed": true,
          "internalType": "address",
          "name": "newArcadiansAddress",
          "type": "address"
        }
      ],
      "name": "ArcadiansAddressChanged",
      "type": "event"
    },
    {
      "anonymous": false,
      "inputs": [
        {
          "indexed": true,
          "internalType": "address",
          "name": "by",
          "type": "address"
        },
        {
          "indexed": false,
          "internalType": "address",
          "name": "itemAddress",
          "type": "address"
        },
        {
          "indexed": false,
          "internalType": "uint256",
          "name": "itemId",
          "type": "uint256"
        },
        {
          "indexed": false,
          "internalType": "uint256",
          "name": "slot",
          "type": "uint256"
        }
      ],
      "name": "ItemAllowedInSlot",
      "type": "event"
    },
    {
      "anonymous": false,
      "inputs": [
        {
          "indexed": true,
          "internalType": "address",
          "name": "by",
          "type": "address"
        },
        {
          "indexed": true,
          "internalType": "uint256",
          "name": "arcadianId",
          "type": "uint256"
        },
        {
          "indexed": true,
          "internalType": "address",
          "name": "itemAddress",
          "type": "address"
        },
        {
          "indexed": false,
          "internalType": "uint256",
          "name": "itemId",
          "type": "uint256"
        },
        {
          "indexed": false,
          "internalType": "uint256",
          "name": "amount",
          "type": "uint256"
        },
        {
          "indexed": false,
          "internalType": "uint256",
          "name": "slot",
          "type": "uint256"
        }
      ],
      "name": "ItemEquipped",
      "type": "event"
    },
    {
      "anonymous": false,
      "inputs": [
        {
          "indexed": true,
          "internalType": "address",
          "name": "by",
          "type": "address"
        },
        {
          "indexed": true,
          "internalType": "uint256",
          "name": "arcadianId",
          "type": "uint256"
        },
        {
          "indexed": false,
          "internalType": "uint256",
          "name": "slot",
          "type": "uint256"
        },
        {
          "indexed": false,
          "internalType": "uint256",
          "name": "amount",
          "type": "uint256"
        }
      ],
      "name": "ItemUnequipped",
      "type": "event"
    },
    {
      "anonymous": false,
      "inputs": [
        {
          "indexed": true,
          "internalType": "bytes32",
          "name": "role",
          "type": "bytes32"
        },
        {
          "indexed": true,
          "internalType": "bytes32",
          "name": "previousAdminRole",
          "type": "bytes32"
        },
        {
          "indexed": true,
          "internalType": "bytes32",
          "name": "newAdminRole",
          "type": "bytes32"
        }
      ],
      "name": "RoleAdminChanged",
      "type": "event"
    },
    {
      "anonymous": false,
      "inputs": [
        {
          "indexed": true,
          "internalType": "bytes32",
          "name": "role",
          "type": "bytes32"
        },
        {
          "indexed": true,
          "internalType": "address",
          "name": "account",
          "type": "address"
        },
        {
          "indexed": true,
          "internalType": "address",
          "name": "sender",
          "type": "address"
        }
      ],
      "name": "RoleGranted",
      "type": "event"
    },
    {
      "anonymous": false,
      "inputs": [
        {
          "indexed": true,
          "internalType": "bytes32",
          "name": "role",
          "type": "bytes32"
        },
        {
          "indexed": true,
          "internalType": "address",
          "name": "account",
          "type": "address"
        },
        {
          "indexed": true,
          "internalType": "address",
          "name": "sender",
          "type": "address"
        }
      ],
      "name": "RoleRevoked",
      "type": "event"
    },
    {
      "anonymous": false,
      "inputs": [
        {
          "indexed": true,
          "internalType": "address",
          "name": "by",
          "type": "address"
        },
        {
          "indexed": false,
          "internalType": "uint256",
          "name": "capacity",
          "type": "uint256"
        },
        {
          "indexed": false,
          "internalType": "bool",
          "name": "unequippable",
          "type": "bool"
        },
        {
          "indexed": false,
          "internalType": "uint256",
          "name": "slot",
          "type": "uint256"
        }
      ],
      "name": "SlotCreated",
      "type": "event"
    },
    {
      "anonymous": false,
      "inputs": [
        {
          "indexed": true,
          "internalType": "address",
          "name": "operator",
          "type": "address"
        },
        {
          "indexed": true,
          "internalType": "address",
          "name": "from",
          "type": "address"
        },
        {
          "indexed": true,
          "internalType": "address",
          "name": "to",
          "type": "address"
        },
        {
          "indexed": false,
          "internalType": "uint256[]",
          "name": "ids",
          "type": "uint256[]"
        },
        {
          "indexed": false,
          "internalType": "uint256[]",
          "name": "values",
          "type": "uint256[]"
        }
      ],
      "name": "TransferBatch",
      "type": "event"
    },
    {
      "anonymous": false,
      "inputs": [
        {
          "indexed": true,
          "internalType": "address",
          "name": "operator",
          "type": "address"
        },
        {
          "indexed": true,
          "internalType": "address",
          "name": "from",
          "type": "address"
        },
        {
          "indexed": true,
          "internalType": "address",
          "name": "to",
          "type": "address"
        },
        {
          "indexed": false,
          "internalType": "uint256",
          "name": "id",
          "type": "uint256"
        },
        {
          "indexed": false,
          "internalType": "uint256",
          "name": "value",
          "type": "uint256"
        }
      ],
      "name": "TransferSingle",
      "type": "event"
    },
    {
      "inputs": [
        {
          "internalType": "address",
          "name": "itemAddress",
          "type": "address"
        },
        {
          "internalType": "uint256",
          "name": "itemId",
          "type": "uint256"
        },
        {
          "internalType": "uint256",
          "name": "slot",
          "type": "uint256"
        }
      ],
      "name": "allowItemInSlot",
      "outputs": [],
      "stateMutability": "nonpayable",
      "type": "function"
    },
    {
      "inputs": [
        {
          "internalType": "address",
          "name": "itemAddress",
          "type": "address"
        },
        {
          "internalType": "uint256[]",
          "name": "allowedItemIds",
          "type": "uint256[]"
        },
        {
          "internalType": "uint256",
          "name": "capacity",
          "type": "uint256"
        },
        {
          "internalType": "bool",
          "name": "unequippable",
          "type": "bool"
        }
      ],
      "name": "createSlot",
      "outputs": [],
      "stateMutability": "nonpayable",
      "type": "function"
    },
    {
      "inputs": [
        {
          "internalType": "uint256",
          "name": "arcadianId",
          "type": "uint256"
        },
        {
          "internalType": "address",
          "name": "itemAddress",
          "type": "address"
        },
        {
          "internalType": "uint256",
          "name": "itemId",
          "type": "uint256"
        },
        {
          "internalType": "uint256",
          "name": "amount",
          "type": "uint256"
        },
        {
          "internalType": "uint256",
          "name": "slot",
          "type": "uint256"
        }
      ],
      "name": "equip",
      "outputs": [],
      "stateMutability": "nonpayable",
      "type": "function"
    },
    {
      "inputs": [
        {
          "internalType": "uint256",
          "name": "arcadianId",
          "type": "uint256"
        },
        {
          "internalType": "address",
          "name": "itemAddress",
          "type": "address"
        },
        {
          "internalType": "uint256[]",
          "name": "itemIds",
          "type": "uint256[]"
        },
        {
          "internalType": "uint256[]",
          "name": "amounts",
          "type": "uint256[]"
        },
        {
          "internalType": "uint256[]",
          "name": "slots",
          "type": "uint256[]"
        }
      ],
      "name": "equipBatch",
      "outputs": [],
      "stateMutability": "nonpayable",
      "type": "function"
    },
    {
      "inputs": [
        {
          "internalType": "uint256",
          "name": "arcadianId",
          "type": "uint256"
        },
        {
          "internalType": "uint256",
          "name": "slot",
          "type": "uint256"
        }
      ],
      "name": "equipped",
      "outputs": [
        {
          "components": [
            {
              "internalType": "address",
              "name": "itemAddress",
              "type": "address"
            },
            {
              "internalType": "uint256",
              "name": "id",
              "type": "uint256"
            },
            {
              "internalType": "uint256",
              "name": "amount",
              "type": "uint256"
            }
          ],
          "internalType": "struct InventoryStorage.EquippedItem",
          "name": "item",
          "type": "tuple"
        }
      ],
      "stateMutability": "view",
      "type": "function"
    },
    {
      "inputs": [
        {
          "internalType": "uint256",
          "name": "arcadianId",
          "type": "uint256"
        }
      ],
      "name": "equippedAll",
      "outputs": [
        {
          "components": [
            {
              "internalType": "address",
              "name": "itemAddress",
              "type": "address"
            },
            {
              "internalType": "uint256",
              "name": "id",
              "type": "uint256"
            },
            {
              "internalType": "uint256",
              "name": "amount",
              "type": "uint256"
            }
          ],
          "internalType": "struct InventoryStorage.EquippedItem[]",
          "name": "item",
          "type": "tuple[]"
        }
      ],
      "stateMutability": "view",
      "type": "function"
    },
    {
      "inputs": [],
      "name": "getArcadiansAddress",
      "outputs": [
        {
          "internalType": "address",
          "name": "",
          "type": "address"
        }
      ],
      "stateMutability": "view",
      "type": "function"
    },
    {
      "inputs": [
        {
          "internalType": "address",
          "name": "itemAddress",
          "type": "address"
        },
        {
          "internalType": "uint256",
          "name": "itemId",
          "type": "uint256"
        }
      ],
      "name": "getItemAllowedSlots",
      "outputs": [
        {
          "internalType": "uint256[]",
          "name": "",
          "type": "uint256[]"
        }
      ],
      "stateMutability": "view",
      "type": "function"
    },
    {
      "inputs": [
        {
          "internalType": "uint256",
          "name": "slot",
          "type": "uint256"
        }
      ],
      "name": "getSlot",
      "outputs": [
        {
          "components": [
            {
              "internalType": "uint256",
              "name": "capacity",
              "type": "uint256"
            },
            {
              "internalType": "bool",
              "name": "isUnequippable",
              "type": "bool"
            },
            {
              "internalType": "uint256[]",
              "name": "allowedItemsIds",
              "type": "uint256[]"
            }
          ],
          "internalType": "struct InventoryStorage.Slot",
          "name": "",
          "type": "tuple"
        }
      ],
      "stateMutability": "view",
      "type": "function"
    },
    {
      "inputs": [],
      "name": "numSlots",
      "outputs": [
        {
          "internalType": "uint256",
          "name": "",
          "type": "uint256"
        }
      ],
      "stateMutability": "view",
      "type": "function"
    },
    {
      "inputs": [
        {
          "internalType": "address",
          "name": "",
          "type": "address"
        },
        {
          "internalType": "address",
          "name": "",
          "type": "address"
        },
        {
          "internalType": "uint256[]",
          "name": "",
          "type": "uint256[]"
        },
        {
          "internalType": "uint256[]",
          "name": "",
          "type": "uint256[]"
        },
        {
          "internalType": "bytes",
          "name": "",
          "type": "bytes"
        }
      ],
      "name": "onERC1155BatchReceived",
      "outputs": [
        {
          "internalType": "bytes4",
          "name": "",
          "type": "bytes4"
        }
      ],
      "stateMutability": "nonpayable",
      "type": "function"
    },
    {
      "inputs": [
        {
          "internalType": "address",
          "name": "",
          "type": "address"
        },
        {
          "internalType": "address",
          "name": "",
          "type": "address"
        },
        {
          "internalType": "uint256",
          "name": "",
          "type": "uint256"
        },
        {
          "internalType": "uint256",
          "name": "",
          "type": "uint256"
        },
        {
          "internalType": "bytes",
          "name": "",
          "type": "bytes"
        }
      ],
      "name": "onERC1155Received",
      "outputs": [
        {
          "internalType": "bytes4",
          "name": "",
          "type": "bytes4"
        }
      ],
      "stateMutability": "nonpayable",
      "type": "function"
    },
    {
      "inputs": [
        {
          "internalType": "address",
          "name": "",
          "type": "address"
        },
        {
          "internalType": "address",
          "name": "",
          "type": "address"
        },
        {
          "internalType": "uint256",
          "name": "",
          "type": "uint256"
        },
        {
          "internalType": "bytes",
          "name": "",
          "type": "bytes"
        }
      ],
      "name": "onERC721Received",
      "outputs": [
        {
          "internalType": "bytes4",
          "name": "",
          "type": "bytes4"
        }
      ],
      "stateMutability": "nonpayable",
      "type": "function"
    },
    {
      "inputs": [
        {
          "internalType": "address",
          "name": "newArcadiansAddress",
          "type": "address"
        }
      ],
      "name": "setArcadiansAddress",
      "outputs": [],
      "stateMutability": "nonpayable",
      "type": "function"
    },
    {
      "inputs": [
        {
          "internalType": "bytes4",
          "name": "interfaceId",
          "type": "bytes4"
        }
      ],
      "name": "supportsInterface",
      "outputs": [
        {
          "internalType": "bool",
          "name": "",
          "type": "bool"
        }
      ],
      "stateMutability": "view",
      "type": "function"
    },
    {
      "inputs": [
        {
          "internalType": "uint256",
          "name": "arcadianId",
          "type": "uint256"
        },
        {
          "internalType": "uint256",
          "name": "slot",
          "type": "uint256"
        },
        {
          "internalType": "bool",
          "name": "unequipAll",
          "type": "bool"
        },
        {
          "internalType": "uint256",
          "name": "amount",
          "type": "uint256"
        }
      ],
      "name": "unequip",
      "outputs": [],
      "stateMutability": "nonpayable",
      "type": "function"
    },
    {
      "inputs": [
        {
          "internalType": "uint256",
          "name": "arcadianId",
          "type": "uint256"
        }
      ],
      "name": "unequipAllItems",
      "outputs": [],
      "stateMutability": "nonpayable",
      "type": "function"
    },
    {
      "inputs": [
        {
          "internalType": "uint256",
          "name": "arcadianId",
          "type": "uint256"
        },
        {
          "internalType": "uint256[]",
          "name": "slots",
          "type": "uint256[]"
        },
        {
          "internalType": "bool[]",
          "name": "unequipAll",
          "type": "bool[]"
        },
        {
          "internalType": "uint256[]",
          "name": "amounts",
          "type": "uint256[]"
        }
      ],
      "name": "unequipBatch",
      "outputs": [],
      "stateMutability": "nonpayable",
      "type": "function"
    }
  ],
  "transactionHash": "0x9dd36dcd98a3757018f0eb749a33f990993fa07991ffe0d15a2bf31c2fb042e6",
  "args": [],
  "numDeployments": 2,
  "solcInputHash": "c21516edc60155c906660e263915c827",
  "bytecode": "0x608060405234801561001057600080fd5b50613378806100206000396000f3fe608060405234801561001057600080fd5b50600436106101165760003560e01c80637eba7ba6116100a2578063c45aabf611610071578063c45aabf614610290578063ca461d95146102a3578063dd7ef3eb146102b6578063ef0bf7de146102c9578063f23a6e61146102e957600080fd5b80637eba7ba61461021b5780639621ff251461023b5780639e3ccb2a14610251578063bc197c811461027157600080fd5b806325380151116100e957806325380151146101a257806325472687146101c25780634b46daef146101d55780634ccb61c1146101e857806352dc63ac146101fb57600080fd5b806301ffc9a71461011b57806303a8fe4b146101435780631002105614610158578063150b7a021461016b575b600080fd5b61012e610129366004612764565b610308565b60405190151581526020015b60405180910390f35b6101566101513660046127e2565b61033f565b005b6101566101663660046128ad565b6103a4565b6101896101793660046129d4565b630a85bd0160e11b949350505050565b6040516001600160e01b0319909116815260200161013a565b6101aa6103e8565b6040516001600160a01b03909116815260200161013a565b6101566101d0366004612a40565b61040e565b6101566101e3366004612a75565b61041e565b6101566101f6366004612abd565b61047d565b61020e610209366004612ada565b6104b4565b60405161013a9190612b41565b61022e610229366004612b54565b610548565b60405161013a9190612b6d565b610243610613565b60405190815260200161013a565b61026461025f366004612b54565b61062b565b60405161013a9190612bd5565b61018961027f366004612cb6565b63bc197c8160e01b95945050505050565b61015661029e366004612b54565b610636565b6101566102b1366004612d64565b61063f565b6101566102c4366004612da1565b61069c565b6102dc6102d7366004612e45565b6106b4565b60405161013a9190612e67565b6101896102f7366004612e91565b63f23a6e6160e01b95945050505050565b60006001600160e01b03198216630271189760e51b148061033957506301ffc9a760e01b6001600160e01b03198316145b92915050565b7f09acf4e54214992e70883cf7dcd6957ff2c71cd9e14df4bec4383bc0d11607dc805460020361038257604051635db5c7cd60e11b815260040160405180910390fd5b6002815561039689898989898989896106f2565b600190555050505050505050565b6103d46103cf7ff6deb63e40d71b08820818e006e23fcceb1fce7a499bc15b71b2526cbf9efa725490565b610cfa565b6103e18585858585610d04565b5050505050565b6000610409600080516020613323833981519152546001600160a01b031690565b905090565b610419838383610e34565b505050565b7f09acf4e54214992e70883cf7dcd6957ff2c71cd9e14df4bec4383bc0d11607dc805460020361046157604051635db5c7cd60e11b815260040160405180910390fd5b600281556104728686868686610ed8565b600190555050505050565b6104a86103cf7ff6deb63e40d71b08820818e006e23fcceb1fce7a499bc15b71b2526cbf9efa725490565b6104b18161126c565b50565b6001600160a01b03821660009081527ff672b8dc84d117c1e14949d8bc3977392b5ab7de9d01b854d389cdc31bf0d43b6020908152604080832084845282529182902080548351818402810184019094528084526060939283018282801561053b57602002820191906000526020600020905b815481526020019060010190808311610527575b5050505050905092915050565b604080516060808201835260008083526020830152918101919091526105988260009081527ff672b8dc84d117c1e14949d8bc3977392b5ab7de9d01b854d389cdc31bf0d4386020526040902090565b6040805160608101825282548152600183015460ff16151560208083019190915260028401805484518184028101840186528181529395948601939283018282801561060357602002820191906000526020600020905b8154815260200190600101908083116105ef575b5050505050815250509050919050565b60006104096000805160206133038339815191525490565b60606103398261135b565b6104b181611441565b7f09acf4e54214992e70883cf7dcd6957ff2c71cd9e14df4bec4383bc0d11607dc805460020361068257604051635db5c7cd60e11b815260040160405180910390fd5b60028155610692858585856116bc565b6001905550505050565b6106ab878787878787876119a5565b50505050505050565b6106e1604051806060016040528060006001600160a01b0316815260200160008152602001600081525090565b6106eb8383611ced565b9392505050565b876000600080516020613323833981519152546040516331a9108f60e11b8152600481018490526001600160a01b0390911691508190636352211e90602401602060405180830381865afa15801561074e573d6000803e3d6000fd5b505050506040513d601f19601f820116820180604052508101906107729190612efa565b6001600160a01b0316336001600160a01b0316146107ab5760405162461bcd60e51b81526004016107a290612f17565b60405180910390fd5b82871480156107b957508685145b61082b5760405162461bcd60e51b815260206004820152603660248201527f496e76656e746f727946616365742e5f657175697042617463683a20496e707560448201527f742064617461206c656e677468206d69736d617463680000000000000000000060648201526084016107a2565b60008051602061332383398151915260005b88811015610c5d5781600401600087878481811061085d5761085d612f74565b90506020020135815260200190815260200160002060008c6001600160a01b03166001600160a01b0316815260200190815260200160002060008b8b848181106108a9576108a9612f74565b602090810292909201358352508101919091526040016000205460ff166109385760405162461bcd60e51b815260206004820152603660248201527f496e76656e746f727946616365742e5f657175697042617463683a204974656d60448201527f206e6f7420656c656769626c6520666f7220736c6f740000000000000000000060648201526084016107a2565b87878281811061094a5761094a612f74565b9050602002013582600201600088888581811061096957610969612f74565b9050602002013581526020019081526020016000206000015410156109f65760405162461bcd60e51b815260206004820152603d60248201527f496e76656e746f727946616365742e5f657175697042617463683a204974656d60448201527f20616d6f756e74206578636565647320736c6f7420636170616369747900000060648201526084016107a2565b878782818110610a0857610a08612f74565b90506020020135610a31338c8c85818110610a2557610a25612f74565b90506020020135611d81565b1015610aa55760405162461bcd60e51b815260206004820152603a60248201527f496e76656e746f727946616365742e65717569703a2053656e6465722068617360448201527f20696e73756666696369656e74206974656d2062616c616e636500000000000060648201526084016107a2565b610ae28c878784818110610abb57610abb612f74565b9050602002013560018b8b86818110610ad657610ad6612f74565b905060200201356116bc565b6001600160a01b038b168c337fca5f4ab066342b47da5386168ff3e83e4adf2fac5830bc49703b70908525ab468d8d86818110610b2157610b21612f74565b905060200201358c8c87818110610b3a57610b3a612f74565b905060200201358b8b88818110610b5357610b53612f74565b90506020020135604051610b7a939291909283526020830191909152604082015260600190565b60405180910390a460405180606001604052808c6001600160a01b031681526020018b8b84818110610bae57610bae612f74565b905060200201358152602001898984818110610bcc57610bcc612f74565b905060200201358152508260030160008e81526020019081526020016000206000888885818110610bff57610bff612f74565b60209081029290920135835250818101929092526040908101600020835181546001600160a01b0319166001600160a01b03909116178155918301516001830155919091015160029091015580610c5581612fa0565b91505061083d565b50610ced3333308c8c80806020026020016040519081016040528093929190818152602001838360200280828437600081840152601f19601f820116905080830192505050505050508b8b80806020026020016040519081016040528093929190818152602001838360200280828437600092018290525060408051602081019091529081529250611df1915050565b5050505050505050505050565b6104b18133611e15565b846001600160a01b0381163b610d745760405162461bcd60e51b815260206004820152602f60248201527f496e76656e746f727946616365743a204164647265737320676976656e20697360448201526e081b9bdd08184818dbdb9d1c9858dd608a1b60648201526084016107a2565b600080516020613303833981519152805460008051602061332383398151915291600191600090610da6908490612fb9565b909155505060018181015460008181526002840160205260409020918201805460ff1916861515179055908590558515610de657610de688888884611e7b565b60408051868152851515602082015290810182905233907fa28f3b4b2c47e1665e89d0bf14b7d48fb80b040942c93ab375bfb714e12e9bf99060600160405180910390a25050505050505050565b8080600003610e555760405162461bcd60e51b81526004016107a290612fcc565b60008051602061330383398151915254811115610e845760405162461bcd60e51b81526004016107a290613011565b836001600160a01b038116610ecd5760405162461bcd60e51b815260206004820152600f60248201526e496e76616c6964204164647265737360881b60448201526064016107a2565b6103e1858585611f54565b846000600080516020613323833981519152546040516331a9108f60e11b8152600481018490526001600160a01b0390911691508190636352211e90602401602060405180830381865afa158015610f34573d6000803e3d6000fd5b505050506040513d601f19601f82011682018060405250810190610f589190612efa565b6001600160a01b0316336001600160a01b031614610f885760405162461bcd60e51b81526004016107a290612f17565b60008381527ff672b8dc84d117c1e14949d8bc3977392b5ab7de9d01b854d389cdc31bf0d43a602090815260408083206001600160a01b038a16845282528083208884529091529020546000805160206133238339815191529060ff1661104a5760405162461bcd60e51b815260206004820152603060248201527f496e76656e746f727946616365742e65717569703a204974656d206e6f74206560448201526f1b1959da589b1948199bdc881cdb1bdd60821b60648201526084016107a2565b60008481526002820160205260409020548511156110d05760405162461bcd60e51b815260206004820152603760248201527f496e76656e746f727946616365742e65717569703a204974656d20616d6f756e60448201527f74206578636565647320736c6f7420636170616369747900000000000000000060648201526084016107a2565b6000888152600382016020908152604080832087845290915290206002015415611102576111028885600160006116bc565b8461110d3388611d81565b10156111985760405162461bcd60e51b815260206004820152604e60248201527f496e76656e746f727946616365742e65717569703a204d65737361676520736560448201527f6e64657220646f6573206e6f74206f776e20656e6f756768206f66207468617460648201526d0206974656d20746f2065717569760941b608482015260a4016107a2565b6111b533338989896040518060200160405280600081525061207f565b60408051878152602081018790529081018590526001600160a01b03881690899033907fca5f4ab066342b47da5386168ff3e83e4adf2fac5830bc49703b70908525ab469060600160405180910390a4604080516060810182526001600160a01b039889168152602080820198895281830197885260009a8b526003939093018352818a20958a5294909152909620915182546001600160a01b031916951694909417815591516001830155516002909101555050565b6112976103cf7ff6deb63e40d71b08820818e006e23fcceb1fce7a499bc15b71b2526cbf9efa725490565b806001600160a01b0381166112e05760405162461bcd60e51b815260206004820152600f60248201526e496e76616c6964204164647265737360881b60448201526064016107a2565b60008051602061332383398151915280546001600160a01b038481169116146104195780546040516001600160a01b038086169216907eed81eff0ba83420a43348ef3da96ac4ab548b89a0c78453591ba715019703390600090a380546001600160a01b0384166001600160a01b0319909116178155505050565b6000805160206133038339815191525460609060008167ffffffffffffffff8111156113895761138961291d565b6040519080825280602002602001820160405280156113e757816020015b6113d4604051806060016040528060006001600160a01b0316815260200160008152602001600081525090565b8152602001906001900390816113a75790505b50905060005b828110156114395761140985611404836001612fb9565b611ced565b82828151811061141b5761141b612f74565b6020026020010181905250808061143190612fa0565b9150506113ed565b509392505050565b6000600080516020613323833981519152546040516331a9108f60e11b8152600481018490526001600160a01b0390911691506000908290636352211e90602401602060405180830381865afa15801561149f573d6000803e3d6000fd5b505050506040513d601f19601f820116820180604052508101906114c39190612efa565b9050336001600160a01b03821614806114f35750600080516020613323833981519152546001600160a01b031633145b61158b5760405162461bcd60e51b815260206004820152605c60248201527f496e76656e746f727946616365742e5f756e6571756970416c6c4974656d733a60448201527f2043616c6c6572206e6f7420417263616469616e7320636f6e7472616374206e60648201527f656974686572206f722074686520617263616469616e206f776e657200000000608482015260a4016107a2565b60008051602061332383398151915260005b81600101548110156103e15760006115b6826001612fb9565b60008781526003850160209081526040808320848452825280832060028801909252909120600101549192509060ff161580156115f7575060008160020154115b156116a757611621333087846001015485600201546040518060200160405280600081525061207f565b86856001600160a01b03167faac45c254099c6998eb1c782987885f75442801e720e4387e6c4ade122529b7084846002015460405161166a929190918252602082015260400190565b60405180910390a360008781526003850160209081526040808320858452909152812080546001600160a01b031916815560018101829055600201555b505080806116b490612fa0565b91505061159d565b836000600080516020613323833981519152546040516331a9108f60e11b8152600481018490526001600160a01b0390911691508190636352211e90602401602060405180830381865afa158015611718573d6000803e3d6000fd5b505050506040513d601f19601f8201168201806040525081019061173c9190612efa565b6001600160a01b0316336001600160a01b03161461176c5760405162461bcd60e51b81526004016107a290612f17565b60008581527ff672b8dc84d117c1e14949d8bc3977392b5ab7de9d01b854d389cdc31bf0d43860205260409020600101546000805160206133238339815191529060ff16156118175760405162461bcd60e51b815260206004820152603160248201527f496e76656e746f727946616365742e5f756e65717569703a20536c6f74206973604482015270206e6f7420756e65717569707061626c6560781b60648201526084016107a2565b600087815260038201602090815260408083208984529091529020851561184457806002015494506118d2565b80600201548511156118d25760405162461bcd60e51b815260206004820152604b60248201527f496e76656e746f727946616365742e5f756e65717569703a20417474656d707460448201527f696e6720746f20756e657175697020746f6f206d616e79206974656d7320667260648201526a1bdb481d1a19481cdb1bdd60aa1b608482015260a4016107a2565b805460018201546040805160208101909152600081526119049233926001600160a01b03909116918391908a9061207f565b6040805188815260208101879052899133917faac45c254099c6998eb1c782987885f75442801e720e4387e6c4ade122529b70910160405180910390a3848160020160008282546119559190613053565b9091555050600281015460000361199b57600088815260038301602090815260408083208a8452909152812080546001600160a01b031916815560018101829055600201555b5050505050505050565b866000600080516020613323833981519152546040516331a9108f60e11b8152600481018490526001600160a01b0390911691508190636352211e90602401602060405180830381865afa158015611a01573d6000803e3d6000fd5b505050506040513d601f19601f82011682018060405250810190611a259190612efa565b6001600160a01b0316336001600160a01b031614611a555760405162461bcd60e51b81526004016107a290612f17565b60008051602061332383398151915260005b88811015610ced576000868683818110611a8357611a83612f74565b90506020020135905060008b8b84818110611aa057611aa0612f74565b602090810292909201356000818152600288019093526040909220600101549192505060ff1615611b395760405162461bcd60e51b815260206004820152603660248201527f496e76656e746f727946616365742e5f756e657175697042617463683a20536c60448201527f6f74206973206e6f7420756e65717569707061626c650000000000000000000060648201526084016107a2565b60008d8152600385016020908152604080832084845290915290208a8a85818110611b6657611b66612f74565b9050602002016020810190611b7b9190613066565b15611b8c5780600201549250611c1f565b8060020154831115611c1f5760405162461bcd60e51b815260206004820152605060248201527f496e76656e746f727946616365742e5f756e657175697042617463683a20417460448201527f74656d7074696e6720746f20756e657175697020746f6f206d616e792069746560648201526f1b5cc8199c9bdb481d1a19481cdb1bdd60821b608482015260a4016107a2565b82816002015403611c635760008e81526003860160209081526040808320858452909152812080546001600160a01b03191681556001810182905560020155611c7d565b82816002016000828254611c779190613053565b90915550505b611c9a33303385876040518060200160405280600081525061207f565b60408051838152602081018590528f9133917faac45c254099c6998eb1c782987885f75442801e720e4387e6c4ade122529b70910160405180910390a35050508080611ce590612fa0565b915050611a67565b611d1a604051806060016040528060006001600160a01b0316815260200160008152602001600081525090565b5060009182527ff672b8dc84d117c1e14949d8bc3977392b5ab7de9d01b854d389cdc31bf0d4396020908152604080842092845291815291819020815160608101835281546001600160a01b03168152600182015493810193909352600201549082015290565b60006001600160a01b038316611daa5760405163db5d879760e01b815260040160405180910390fd5b7f1799cf914cb0cb442ca7c7ac709ee40d0cb89e87351dc08d517fbda27d50c68b6000928352602090815260408084206001600160a01b0395909516845293905250205490565b611dff86868686868661209b565b611e0d868686868686612248565b505050505050565b611e1f8282612358565b611e7757611e35816001600160a01b031661238f565b611e408360206123a1565b604051602001611e519291906130a5565b60408051601f198184030181529082905262461bcd60e51b82526107a291600401613146565b5050565b8080600003611e9c5760405162461bcd60e51b81526004016107a290612fcc565b60008051602061330383398151915254811115611ecb5760405162461bcd60e51b81526004016107a290613011565b846001600160a01b038116611f145760405162461bcd60e51b815260206004820152600f60248201526e496e76616c6964204164647265737360881b60448201526064016107a2565b60005b848110156106ab57611f4287878784818110611f3557611f35612f74565b9050602002013586611f54565b80611f4c81612fa0565b915050611f17565b60008181527ff672b8dc84d117c1e14949d8bc3977392b5ab7de9d01b854d389cdc31bf0d43860209081526040808320600201805460018082018355918552838520018690556001600160a01b0387168085527ff672b8dc84d117c1e14949d8bc3977392b5ab7de9d01b854d389cdc31bf0d43b8452828520878652845282852080548084018255908652848620018690558585527ff672b8dc84d117c1e14949d8bc3977392b5ab7de9d01b854d389cdc31bf0d43a84528285208186528452828520878652845293829020805460ff191690911790558051928352908201849052818101839052516000805160206133238339815191529133917f06a91fc4263d54ad68fef9c0c9e5396bdf5c7bf36ca80c14dcacee462847a5b39181900360600190a250505050565b61208d8686868686866124f4565b611e0d868686868686612625565b6001600160a01b0384166120c25760405163f5cadad560e01b815260040160405180910390fd5b81518351146120e457604051633e7e0b6d60e11b815260040160405180910390fd5b7f1799cf914cb0cb442ca7c7ac709ee40d0cb89e87351dc08d517fbda27d50c68b60005b84518110156121e757600085828151811061212557612125612f74565b60200260200101519050600085838151811061214357612143612f74565b602090810291909101810151600084815286835260408082206001600160a01b038e1683529093529190912054909150808211156121945760405163119ac6bb60e31b815260040160405180910390fd5b6000838152602086815260408083206001600160a01b038e811685529252808320938590039093558a1681529081208054600195909501948392906121da908490612fb9565b9091555061210892505050565b50846001600160a01b0316866001600160a01b0316886001600160a01b03167f4a39dc06d4c0dbc64b70af90fd698a233a518aa5d07e595d983b8c0526c8f7fb8787604051612237929190613159565b60405180910390a450505050505050565b6001600160a01b0384163b15611e0d5760405163bc197c8160e01b81526001600160a01b0385169063bc197c819061228c9089908990889088908890600401613187565b6020604051808303816000875af19250505080156122c7575060408051601f3d908101601f191682019092526122c4918101906131e5565b60015b612327576122d3613202565b806308c379a00361230c57506122e761321e565b806122f2575061230e565b8060405162461bcd60e51b81526004016107a29190613146565b505b60405163380147a960e01b815260040160405180910390fd5b6001600160e01b0319811663bc197c8160e01b146106ab57604051633744db2960e01b815260040160405180910390fd5b60008281527fd3889cc5458b268d0544e5534672df1296288ca3f93cbd39bd6f497a5c622811602052604081206106eb90836126e1565b60606103396001600160a01b03831660145b606060006123b08360026132a8565b6123bb906002612fb9565b67ffffffffffffffff8111156123d3576123d361291d565b6040519080825280601f01601f1916602001820160405280156123fd576020820181803683370190505b509050600360fc1b8160008151811061241857612418612f74565b60200101906001600160f81b031916908160001a905350600f60fb1b8160018151811061244757612447612f74565b60200101906001600160f81b031916908160001a905350600160028402015b60018111156124d4576f181899199a1a9b1b9c1cb0b131b232b360811b85600f166010811061249757612497612f74565b1a60f81b8282815181106124ad576124ad612f74565b60200101906001600160f81b031916908160001a90535060049490941c9360001901612466565b5083156106eb5760405163c913478560e01b815260040160405180910390fd5b6001600160a01b03841661251b5760405163f5cadad560e01b815260040160405180910390fd5b61253386868661252a87612703565b6103e187612703565b60008381527f1799cf914cb0cb442ca7c7ac709ee40d0cb89e87351dc08d517fbda27d50c68b602081815260408084206001600160a01b038a16855290915290912054808411156125975760405163119ac6bb60e31b815260040160405180910390fd5b6000858152602083815260408083206001600160a01b038b811685529252808320938790039093558716815290812080548592906125d6908490612fb9565b909155505060408051858152602081018590526001600160a01b038088169289821692918b16917fc3d58168c5ae7397731d063d5bbf3d657854427343f4c083240f7aacaa2d0f629101612237565b6001600160a01b0384163b15611e0d5760405163f23a6e6160e01b81526001600160a01b0385169063f23a6e619061266990899089908890889088906004016132bf565b6020604051808303816000875af19250505080156126a4575060408051601f3d908101601f191682019092526126a1918101906131e5565b60015b6126b0576122d3613202565b6001600160e01b0319811663f23a6e6160e01b146106ab57604051633744db2960e01b815260040160405180910390fd5b6001600160a01b038116600090815260018301602052604081205415156106eb565b6040805160018082528183019092526060916000919060208083019080368337019050509050828160008151811061273d5761273d612f74565b602090810291909101015292915050565b6001600160e01b0319811681146104b157600080fd5b60006020828403121561277657600080fd5b81356106eb8161274e565b6001600160a01b03811681146104b157600080fd5b60008083601f8401126127a857600080fd5b50813567ffffffffffffffff8111156127c057600080fd5b6020830191508360208260051b85010111156127db57600080fd5b9250929050565b60008060008060008060008060a0898b0312156127fe57600080fd5b88359750602089013561281081612781565b9650604089013567ffffffffffffffff8082111561282d57600080fd5b6128398c838d01612796565b909850965060608b013591508082111561285257600080fd5b61285e8c838d01612796565b909650945060808b013591508082111561287757600080fd5b506128848b828c01612796565b999c989b5096995094979396929594505050565b803580151581146128a857600080fd5b919050565b6000806000806000608086880312156128c557600080fd5b85356128d081612781565b9450602086013567ffffffffffffffff8111156128ec57600080fd5b6128f888828901612796565b9095509350506040860135915061291160608701612898565b90509295509295909350565b634e487b7160e01b600052604160045260246000fd5b601f8201601f1916810167ffffffffffffffff811182821017156129595761295961291d565b6040525050565b600082601f83011261297157600080fd5b813567ffffffffffffffff81111561298b5761298b61291d565b6040516129a2601f8301601f191660200182612933565b8181528460208386010111156129b757600080fd5b816020850160208301376000918101602001919091529392505050565b600080600080608085870312156129ea57600080fd5b84356129f581612781565b93506020850135612a0581612781565b925060408501359150606085013567ffffffffffffffff811115612a2857600080fd5b612a3487828801612960565b91505092959194509250565b600080600060608486031215612a5557600080fd5b8335612a6081612781565b95602085013595506040909401359392505050565b600080600080600060a08688031215612a8d57600080fd5b853594506020860135612a9f81612781565b94979496505050506040830135926060810135926080909101359150565b600060208284031215612acf57600080fd5b81356106eb81612781565b60008060408385031215612aed57600080fd5b8235612af881612781565b946020939093013593505050565b600081518084526020808501945080840160005b83811015612b3657815187529582019590820190600101612b1a565b509495945050505050565b6020815260006106eb6020830184612b06565b600060208284031215612b6657600080fd5b5035919050565b60006020808352608083018451828501528185015115156040850152604085015160608086015281815180845260a0870191508483019350600092505b80831015612bca5783518252928401926001929092019190840190612baa565b509695505050505050565b6020808252825182820181905260009190848201906040850190845b81811015612c3457612c2183855180516001600160a01b0316825260208082015190830152604090810151910152565b9284019260609290920191600101612bf1565b50909695505050505050565b600082601f830112612c5157600080fd5b8135602067ffffffffffffffff821115612c6d57612c6d61291d565b8160051b604051612c8083830182612933565b92835284810182019282810187851115612c9957600080fd5b83870192505b84831015612bca5782358152918301918301612c9f565b600080600080600060a08688031215612cce57600080fd5b8535612cd981612781565b94506020860135612ce981612781565b9350604086013567ffffffffffffffff80821115612d0657600080fd5b612d1289838a01612c40565b94506060880135915080821115612d2857600080fd5b612d3489838a01612c40565b93506080880135915080821115612d4a57600080fd5b50612d5788828901612960565b9150509295509295909350565b60008060008060808587031215612d7a57600080fd5b8435935060208501359250612d9160408601612898565b9396929550929360600135925050565b60008060008060008060006080888a031215612dbc57600080fd5b87359650602088013567ffffffffffffffff80821115612ddb57600080fd5b612de78b838c01612796565b909850965060408a0135915080821115612e0057600080fd5b612e0c8b838c01612796565b909650945060608a0135915080821115612e2557600080fd5b50612e328a828b01612796565b989b979a50959850939692959293505050565b60008060408385031215612e5857600080fd5b50508035926020909101359150565b81516001600160a01b03168152602080830151908201526040808301519082015260608101610339565b600080600080600060a08688031215612ea957600080fd5b8535612eb481612781565b94506020860135612ec481612781565b93506040860135925060608601359150608086013567ffffffffffffffff811115612eee57600080fd5b612d5788828901612960565b600060208284031215612f0c57600080fd5b81516106eb81612781565b6020808252603b908201527f496e76656e746f727946616365743a204d6573736167652073656e646572206960408201527f73206e6f74206f776e6572206f662074686520617263616469616e0000000000606082015260800190565b634e487b7160e01b600052603260045260246000fd5b634e487b7160e01b600052601160045260246000fd5b600060018201612fb257612fb2612f8a565b5060010190565b8082018082111561033957610339612f8a565b60208082526025908201527f496e76656e746f727946616365743a20536c6f742069642063616e2774206265604082015264207a65726f60d81b606082015260800190565b60208082526022908201527f496e76656e746f727946616365743a20496e6578697374656e7420736c6f74206040820152611a5960f21b606082015260800190565b8181038181111561033957610339612f8a565b60006020828403121561307857600080fd5b6106eb82612898565b60005b8381101561309c578181015183820152602001613084565b50506000910152565b7f416363657373436f6e74726f6c3a206163636f756e74200000000000000000008152600083516130dd816017850160208801613081565b7001034b99036b4b9b9b4b733903937b6329607d1b601791840191820152835161310e816028840160208801613081565b01602801949350505050565b60008151808452613132816020860160208601613081565b601f01601f19169290920160200192915050565b6020815260006106eb602083018461311a565b60408152600061316c6040830185612b06565b828103602084015261317e8185612b06565b95945050505050565b60006001600160a01b03808816835280871660208401525060a060408301526131b360a0830186612b06565b82810360608401526131c58186612b06565b905082810360808401526131d9818561311a565b98975050505050505050565b6000602082840312156131f757600080fd5b81516106eb8161274e565b600060033d111561321b5760046000803e5060005160e01c5b90565b600060443d101561322c5790565b6040516003193d81016004833e81513d67ffffffffffffffff816024840111818411171561325c57505050505090565b82850191508151818111156132745750505050505090565b843d870101602082850101111561328e5750505050505090565b61329d60208286010187612933565b509095945050505050565b808202811582820484141761033957610339612f8a565b60006001600160a01b03808816835280871660208401525084604083015283606083015260a060808301526132f760a083018461311a565b97965050505050505056fef672b8dc84d117c1e14949d8bc3977392b5ab7de9d01b854d389cdc31bf0d437f672b8dc84d117c1e14949d8bc3977392b5ab7de9d01b854d389cdc31bf0d436a2646970667358221220e2e202b15b5e91bdecabaf94e5fb38dee815adbda24432635e81a50542f197e364736f6c63430008130033",
  "devdoc": {
    "kind": "dev",
    "methods": {
      "onERC721Received(address,address,uint256,bytes)": {
        "details": "See {IERC721Receiver-onERC721Received}. Always returns `IERC721Receiver.onERC721Received.selector`."
      },
      "supportsInterface(bytes4)": {
        "details": "See {IERC165-supportsInterface}."
      }
    },
    "version": 1
  },
  "userdoc": {
    "kind": "user",
    "methods": {},
    "version": 1
  },
  "storageLayout": {
    "storage": [],
    "types": null
  }
}