{
  "address": "0xe6329E9Ad262E79580eD46592425a2d3C5e1E799",
  "abi": [
    {
      "inputs": [],
      "name": "EnumerableSet__IndexOutOfBounds",
      "type": "error"
    },
    {
      "inputs": [],
      "name": "Inventory_ArcadianNotUnique",
      "type": "error"
    },
    {
      "inputs": [],
      "name": "Inventory_CouponNeededToModifyBaseSlots",
      "type": "error"
    },
    {
      "inputs": [],
      "name": "Inventory_InputDataMismatch",
      "type": "error"
    },
    {
      "inputs": [],
      "name": "Inventory_InsufficientItemBalance",
      "type": "error"
    },
    {
      "inputs": [],
      "name": "Inventory_InvalidERC1155Contract",
      "type": "error"
    },
    {
      "inputs": [],
      "name": "Inventory_InvalidSlotId",
      "type": "error"
    },
    {
      "inputs": [],
      "name": "Inventory_ItemAlreadyEquippedInSlot",
      "type": "error"
    },
    {
      "inputs": [],
      "name": "Inventory_ItemDoesNotHaveSlotAssigned",
      "type": "error"
    },
    {
      "inputs": [],
      "name": "Inventory_ItemNotSpecified",
      "type": "error"
    },
    {
      "inputs": [],
      "name": "Inventory_NonBaseSlot",
      "type": "error"
    },
    {
      "inputs": [],
      "name": "Inventory_NotAllBaseSlotsEquipped",
      "type": "error"
    },
    {
      "inputs": [],
      "name": "Inventory_NotArcadianOwner",
      "type": "error"
    },
    {
      "inputs": [],
      "name": "Inventory_SlotNotSpecified",
      "type": "error"
    },
    {
      "inputs": [],
      "name": "Inventory_UnequippingBaseSlot",
      "type": "error"
    },
    {
      "inputs": [],
      "name": "Inventory_UnequippingEmptySlot",
      "type": "error"
    },
    {
      "inputs": [],
      "name": "Inventory_UnequippingPermanentSlot",
      "type": "error"
    },
    {
      "inputs": [],
      "name": "ReentrancyGuard__ReentrantCall",
      "type": "error"
    },
    {
      "inputs": [],
      "name": "Roles_MissingAdminRole",
      "type": "error"
    },
    {
      "inputs": [],
      "name": "Roles_MissingAutomationRole",
      "type": "error"
    },
    {
      "inputs": [],
      "name": "Roles_MissingManagerRole",
      "type": "error"
    },
    {
      "anonymous": false,
      "inputs": [
        {
          "indexed": true,
          "internalType": "address",
          "name": "by",
          "type": "address"
        },
        {
          "indexed": true,
          "internalType": "address",
          "name": "to",
          "type": "address"
        },
        {
          "indexed": false,
          "internalType": "uint8[]",
          "name": "slotsIds",
          "type": "uint8[]"
        },
        {
          "indexed": false,
          "internalType": "uint256[]",
          "name": "amounts",
          "type": "uint256[]"
        }
      ],
      "name": "BaseModifierCouponAdded",
      "type": "event"
    },
    {
      "anonymous": false,
      "inputs": [
        {
          "indexed": true,
          "internalType": "address",
          "name": "account",
          "type": "address"
        },
        {
          "indexed": false,
          "internalType": "uint8[]",
          "name": "slotsIds",
          "type": "uint8[]"
        }
      ],
      "name": "BaseModifierCouponConsumed",
      "type": "event"
    },
    {
      "anonymous": false,
      "inputs": [
        {
          "indexed": true,
          "internalType": "address",
          "name": "by",
          "type": "address"
        },
        {
          "components": [
            {
              "internalType": "address",
              "name": "erc1155Contract",
              "type": "address"
            },
            {
              "internalType": "uint256",
              "name": "id",
              "type": "uint256"
            }
          ],
          "indexed": false,
          "internalType": "struct InventoryStorage.Item[]",
          "name": "items",
          "type": "tuple[]"
        }
      ],
      "name": "ItemsAllowedInSlotUpdated",
      "type": "event"
    },
    {
      "anonymous": false,
      "inputs": [
        {
          "indexed": true,
          "internalType": "address",
          "name": "by",
          "type": "address"
        },
        {
          "indexed": true,
          "internalType": "uint256",
          "name": "arcadianId",
          "type": "uint256"
        },
        {
          "indexed": false,
          "internalType": "uint256[]",
          "name": "slots",
          "type": "uint256[]"
        }
      ],
      "name": "ItemsEquipped",
      "type": "event"
    },
    {
      "anonymous": false,
      "inputs": [
        {
          "indexed": true,
          "internalType": "address",
          "name": "by",
          "type": "address"
        },
        {
          "indexed": true,
          "internalType": "uint256",
          "name": "arcadianId",
          "type": "uint256"
        },
        {
          "indexed": false,
          "internalType": "uint8[]",
          "name": "slotsIds",
          "type": "uint8[]"
        }
      ],
      "name": "ItemsUnequipped",
      "type": "event"
    },
    {
      "anonymous": false,
      "inputs": [
        {
          "indexed": true,
          "internalType": "bytes32",
          "name": "role",
          "type": "bytes32"
        },
        {
          "indexed": true,
          "internalType": "bytes32",
          "name": "previousAdminRole",
          "type": "bytes32"
        },
        {
          "indexed": true,
          "internalType": "bytes32",
          "name": "newAdminRole",
          "type": "bytes32"
        }
      ],
      "name": "RoleAdminChanged",
      "type": "event"
    },
    {
      "anonymous": false,
      "inputs": [
        {
          "indexed": true,
          "internalType": "bytes32",
          "name": "role",
          "type": "bytes32"
        },
        {
          "indexed": true,
          "internalType": "address",
          "name": "account",
          "type": "address"
        },
        {
          "indexed": true,
          "internalType": "address",
          "name": "sender",
          "type": "address"
        }
      ],
      "name": "RoleGranted",
      "type": "event"
    },
    {
      "anonymous": false,
      "inputs": [
        {
          "indexed": true,
          "internalType": "bytes32",
          "name": "role",
          "type": "bytes32"
        },
        {
          "indexed": true,
          "internalType": "address",
          "name": "account",
          "type": "address"
        },
        {
          "indexed": true,
          "internalType": "address",
          "name": "sender",
          "type": "address"
        }
      ],
      "name": "RoleRevoked",
      "type": "event"
    },
    {
      "anonymous": false,
      "inputs": [
        {
          "indexed": true,
          "internalType": "address",
          "name": "by",
          "type": "address"
        },
        {
          "indexed": true,
          "internalType": "uint8",
          "name": "slotId",
          "type": "uint8"
        },
        {
          "indexed": false,
          "internalType": "bool",
          "name": "permanent",
          "type": "bool"
        },
        {
          "indexed": false,
          "internalType": "bool",
          "name": "isBase",
          "type": "bool"
        }
      ],
      "name": "SlotCreated",
      "type": "event"
    },
    {
      "inputs": [
        {
          "internalType": "address",
          "name": "account",
          "type": "address"
        },
        {
          "internalType": "uint8[]",
          "name": "slotsIds",
          "type": "uint8[]"
        },
        {
          "internalType": "uint256[]",
          "name": "amounts",
          "type": "uint256[]"
        }
      ],
      "name": "addBaseModifierCoupons",
      "outputs": [],
      "stateMutability": "nonpayable",
      "type": "function"
    },
    {
      "inputs": [
        {
          "internalType": "uint8",
          "name": "slotId",
          "type": "uint8"
        },
        {
          "components": [
            {
              "internalType": "address",
              "name": "erc1155Contract",
              "type": "address"
            },
            {
              "internalType": "uint256",
              "name": "id",
              "type": "uint256"
            }
          ],
          "internalType": "struct InventoryStorage.Item[]",
          "name": "items",
          "type": "tuple[]"
        }
      ],
      "name": "allowItemsInSlot",
      "outputs": [],
      "stateMutability": "nonpayable",
      "type": "function"
    },
    {
      "inputs": [
        {
          "components": [
            {
              "internalType": "address",
              "name": "erc1155Contract",
              "type": "address"
            },
            {
              "internalType": "uint256",
              "name": "id",
              "type": "uint256"
            }
          ],
          "internalType": "struct InventoryStorage.Item",
          "name": "item",
          "type": "tuple"
        }
      ],
      "name": "allowedSlot",
      "outputs": [
        {
          "internalType": "uint256",
          "name": "",
          "type": "uint256"
        }
      ],
      "stateMutability": "view",
      "type": "function"
    },
    {
      "inputs": [
        {
          "internalType": "uint256",
          "name": "arcadianId",
          "type": "uint256"
        }
      ],
      "name": "arcadianToBaseItemHash",
      "outputs": [
        {
          "internalType": "bytes32",
          "name": "",
          "type": "bytes32"
        }
      ],
      "stateMutability": "view",
      "type": "function"
    },
    {
      "inputs": [
        {
          "internalType": "bool",
          "name": "permanent",
          "type": "bool"
        },
        {
          "internalType": "bool",
          "name": "isBase",
          "type": "bool"
        },
        {
          "components": [
            {
              "internalType": "address",
              "name": "erc1155Contract",
              "type": "address"
            },
            {
              "internalType": "uint256",
              "name": "id",
              "type": "uint256"
            }
          ],
          "internalType": "struct InventoryStorage.Item[]",
          "name": "items",
          "type": "tuple[]"
        }
      ],
      "name": "createSlot",
      "outputs": [],
      "stateMutability": "nonpayable",
      "type": "function"
    },
    {
      "inputs": [
        {
          "components": [
            {
              "internalType": "address",
              "name": "erc1155Contract",
              "type": "address"
            },
            {
              "internalType": "uint256",
              "name": "id",
              "type": "uint256"
            }
          ],
          "internalType": "struct InventoryStorage.Item[]",
          "name": "items",
          "type": "tuple[]"
        }
      ],
      "name": "disallowItems",
      "outputs": [],
      "stateMutability": "nonpayable",
      "type": "function"
    },
    {
      "inputs": [
        {
          "internalType": "uint256",
          "name": "arcadianId",
          "type": "uint256"
        },
        {
          "components": [
            {
              "internalType": "address",
              "name": "erc1155Contract",
              "type": "address"
            },
            {
              "internalType": "uint256",
              "name": "id",
              "type": "uint256"
            }
          ],
          "internalType": "struct InventoryStorage.Item[]",
          "name": "items",
          "type": "tuple[]"
        }
      ],
      "name": "equip",
      "outputs": [],
      "stateMutability": "nonpayable",
      "type": "function"
    },
    {
      "inputs": [
        {
          "internalType": "uint256",
          "name": "arcadianId",
          "type": "uint256"
        },
        {
          "internalType": "uint8",
          "name": "slotId",
          "type": "uint8"
        }
      ],
      "name": "equipped",
      "outputs": [
        {
          "components": [
            {
              "internalType": "uint8",
              "name": "slotId",
              "type": "uint8"
            },
            {
              "internalType": "address",
              "name": "erc1155Contract",
              "type": "address"
            },
            {
              "internalType": "uint256",
              "name": "itemId",
              "type": "uint256"
            }
          ],
          "internalType": "struct InventoryInternal.ItemInSlot",
          "name": "item",
          "type": "tuple"
        }
      ],
      "stateMutability": "view",
      "type": "function"
    },
    {
      "inputs": [
        {
          "internalType": "uint256",
          "name": "arcadianId",
          "type": "uint256"
        }
      ],
      "name": "equippedAll",
      "outputs": [
        {
          "components": [
            {
              "internalType": "uint8",
              "name": "slotId",
              "type": "uint8"
            },
            {
              "internalType": "address",
              "name": "erc1155Contract",
              "type": "address"
            },
            {
              "internalType": "uint256",
              "name": "itemId",
              "type": "uint256"
            }
          ],
          "internalType": "struct InventoryInternal.ItemInSlot[]",
          "name": "equippedSlot",
          "type": "tuple[]"
        }
      ],
      "stateMutability": "view",
      "type": "function"
    },
    {
      "inputs": [
        {
          "internalType": "uint256",
          "name": "arcadianId",
          "type": "uint256"
        },
        {
          "internalType": "uint8[]",
          "name": "slotsIds",
          "type": "uint8[]"
        }
      ],
      "name": "equippedBatch",
      "outputs": [
        {
          "components": [
            {
              "internalType": "uint8",
              "name": "slotId",
              "type": "uint8"
            },
            {
              "internalType": "address",
              "name": "erc1155Contract",
              "type": "address"
            },
            {
              "internalType": "uint256",
              "name": "itemId",
              "type": "uint256"
            }
          ],
          "internalType": "struct InventoryInternal.ItemInSlot[]",
          "name": "equippedSlot",
          "type": "tuple[]"
        }
      ],
      "stateMutability": "view",
      "type": "function"
    },
    {
      "inputs": [
        {
          "internalType": "address",
          "name": "account",
          "type": "address"
        },
        {
          "internalType": "uint8",
          "name": "slotId",
          "type": "uint8"
        }
      ],
      "name": "getBaseModifierCoupon",
      "outputs": [
        {
          "internalType": "uint256",
          "name": "",
          "type": "uint256"
        }
      ],
      "stateMutability": "view",
      "type": "function"
    },
    {
      "inputs": [
        {
          "internalType": "address",
          "name": "account",
          "type": "address"
        }
      ],
      "name": "getBaseModifierCouponAll",
      "outputs": [
        {
          "components": [
            {
              "internalType": "uint8",
              "name": "slotId",
              "type": "uint8"
            },
            {
              "internalType": "uint256",
              "name": "amount",
              "type": "uint256"
            }
          ],
          "internalType": "struct InventoryInternal.BaseModifierCoupon[]",
          "name": "",
          "type": "tuple[]"
        }
      ],
      "stateMutability": "view",
      "type": "function"
    },
    {
      "inputs": [],
      "name": "getBaseSlotsIds",
      "outputs": [
        {
          "internalType": "uint256[]",
          "name": "",
          "type": "uint256[]"
        }
      ],
      "stateMutability": "view",
      "type": "function"
    },
    {
      "inputs": [
        {
          "internalType": "uint256",
          "name": "arcadianId",
          "type": "uint256"
        },
        {
          "components": [
            {
              "internalType": "address",
              "name": "erc1155Contract",
              "type": "address"
            },
            {
              "internalType": "uint256",
              "name": "id",
              "type": "uint256"
            }
          ],
          "internalType": "struct InventoryStorage.Item[]",
          "name": "items",
          "type": "tuple[]"
        }
      ],
      "name": "isArcadianUnique",
      "outputs": [
        {
          "internalType": "bool",
          "name": "",
          "type": "bool"
        }
      ],
      "stateMutability": "view",
      "type": "function"
    },
    {
      "inputs": [],
      "name": "numSlots",
      "outputs": [
        {
          "internalType": "uint256",
          "name": "",
          "type": "uint256"
        }
      ],
      "stateMutability": "view",
      "type": "function"
    },
    {
      "inputs": [
        {
          "internalType": "address",
          "name": "",
          "type": "address"
        },
        {
          "internalType": "address",
          "name": "",
          "type": "address"
        },
        {
          "internalType": "uint256[]",
          "name": "",
          "type": "uint256[]"
        },
        {
          "internalType": "uint256[]",
          "name": "",
          "type": "uint256[]"
        },
        {
          "internalType": "bytes",
          "name": "",
          "type": "bytes"
        }
      ],
      "name": "onERC1155BatchReceived",
      "outputs": [
        {
          "internalType": "bytes4",
          "name": "",
          "type": "bytes4"
        }
      ],
      "stateMutability": "nonpayable",
      "type": "function"
    },
    {
      "inputs": [
        {
          "internalType": "address",
          "name": "",
          "type": "address"
        },
        {
          "internalType": "address",
          "name": "",
          "type": "address"
        },
        {
          "internalType": "uint256",
          "name": "",
          "type": "uint256"
        },
        {
          "internalType": "uint256",
          "name": "",
          "type": "uint256"
        },
        {
          "internalType": "bytes",
          "name": "",
          "type": "bytes"
        }
      ],
      "name": "onERC1155Received",
      "outputs": [
        {
          "internalType": "bytes4",
          "name": "",
          "type": "bytes4"
        }
      ],
      "stateMutability": "nonpayable",
      "type": "function"
    },
    {
      "inputs": [
        {
          "components": [
            {
              "internalType": "address",
              "name": "erc1155Contract",
              "type": "address"
            },
            {
              "internalType": "uint256",
              "name": "id",
              "type": "uint256"
            }
          ],
          "internalType": "struct InventoryStorage.Item[]",
          "name": "items",
          "type": "tuple[]"
        },
        {
          "internalType": "bool[]",
          "name": "requiresTransfer",
          "type": "bool[]"
        }
      ],
      "name": "setItemsTransferRequired",
      "outputs": [],
      "stateMutability": "nonpayable",
      "type": "function"
    },
    {
      "inputs": [
        {
          "internalType": "uint8",
          "name": "slotId",
          "type": "uint8"
        },
        {
          "internalType": "bool",
          "name": "isBase",
          "type": "bool"
        }
      ],
      "name": "setSlotBase",
      "outputs": [],
      "stateMutability": "nonpayable",
      "type": "function"
    },
    {
      "inputs": [
        {
          "internalType": "uint8",
          "name": "slotId",
          "type": "uint8"
        },
        {
          "internalType": "bool",
          "name": "permanent",
          "type": "bool"
        }
      ],
      "name": "setSlotPermanent",
      "outputs": [],
      "stateMutability": "nonpayable",
      "type": "function"
    },
    {
      "inputs": [
        {
          "internalType": "uint8",
          "name": "slotId",
          "type": "uint8"
        }
      ],
      "name": "slot",
      "outputs": [
        {
          "components": [
            {
              "internalType": "uint8",
              "name": "id",
              "type": "uint8"
            },
            {
              "internalType": "bool",
              "name": "permanent",
              "type": "bool"
            },
            {
              "internalType": "bool",
              "name": "isBase",
              "type": "bool"
            }
          ],
          "internalType": "struct InventoryStorage.Slot",
          "name": "existentSlot",
          "type": "tuple"
        }
      ],
      "stateMutability": "view",
      "type": "function"
    },
    {
      "inputs": [],
      "name": "slotsAll",
      "outputs": [
        {
          "components": [
            {
              "internalType": "uint8",
              "name": "id",
              "type": "uint8"
            },
            {
              "internalType": "bool",
              "name": "permanent",
              "type": "bool"
            },
            {
              "internalType": "bool",
              "name": "isBase",
              "type": "bool"
            }
          ],
          "internalType": "struct InventoryStorage.Slot[]",
          "name": "existentSlots",
          "type": "tuple[]"
        }
      ],
      "stateMutability": "view",
      "type": "function"
    },
    {
      "inputs": [
        {
          "internalType": "bytes4",
          "name": "interfaceId",
          "type": "bytes4"
        }
      ],
      "name": "supportsInterface",
      "outputs": [
        {
          "internalType": "bool",
          "name": "",
          "type": "bool"
        }
      ],
      "stateMutability": "view",
      "type": "function"
    },
    {
      "inputs": [
        {
          "internalType": "uint256",
          "name": "arcadianId",
          "type": "uint256"
        },
        {
          "internalType": "uint8[]",
          "name": "slotsIds",
          "type": "uint8[]"
        }
      ],
      "name": "unequip",
      "outputs": [],
      "stateMutability": "nonpayable",
      "type": "function"
    }
  ],
  "transactionHash": "0x4f654f5f3eda3b326f12e6badbb4afe945178cf8b4f3ae17c72a3e64499692cc",
  "args": [],
  "numDeployments": 5,
  "solcInputHash": "b3598ef5b3b2c0f31fb2ec893bb2a952",
  "bytecode": "0x608060405234801561001057600080fd5b506134a9806100206000396000f3fe608060405234801561001057600080fd5b50600436106101585760003560e01c80638d0e5a9a116100c3578063acb5fe3d1161007c578063acb5fe3d146103a9578063b1b2fef4146103bc578063bc197c81146103d1578063c33d7d1614610409578063ddac20081461041c578063f23a6e611461042f57600080fd5b80638d0e5a9a146102bb5780638e980d4d146103555780638ed4110014610368578063947687e71461037b5780639621ff251461038e5780639e3ccb2a1461039657600080fd5b806351bb1e051161011557806351bb1e051461020e5780635cf715ee14610221578063603f40ec146102415780637a8455a1146102805780637b2ddc1d146102935780638074edd5146102a657600080fd5b806301ffc9a71461015d5780630416c01f146101855780631da7c70a1461019a57806320b82e68146101ba5780632f8bd3c8146101da5780634605777d146101fb575b600080fd5b61017061016b3660046128e5565b61044e565b60405190151581526020015b60405180910390f35b610198610193366004612935565b610485565b005b6101ad6101a8366004612980565b6104cf565b60405161017c919061299d565b6101cd6101c83660046129ef565b6104da565b60405161017c9190612a12565b6101ed6101e8366004612a3f565b610571565b60405190815260200161017c565b610198610209366004612ae6565b61057c565b61019861021c366004612b51565b6105c4565b61023461022f366004612bd3565b610644565b60405161017c9190612c1e565b6101ed61024f366004612c8c565b60009081527ff672b8dc84d117c1e14949d8bc3977392b5ab7de9d01b854d389cdc31bf0d43f602052604090205490565b61017061028e366004612ca5565b610659565b6101986102a1366004612bd3565b610666565b6102ae6106c1565b60405161017c9190612ce3565b6103486102c9366004612d1b565b604080516060810182526000808252602080830182905282840182905260ff851682527ff672b8dc84d117c1e14949d8bc3977392b5ab7de9d01b854d389cdc31bf0d43790529190912060408051606081018252915460ff80821684526101008204811615156020850152620100009091041615159082015292915050565b60405161017c9190612d36565b610198610363366004612ca5565b6106d0565b610198610376366004612935565b610724565b610198610389366004612d5e565b610764565b6101ed6107a6565b6102346103a4366004612c8c565b6107c1565b6101986103b7366004612db2565b6107cc565b6103c4610812565b60405161017c9190612deb565b6103f06103df366004612f7c565b63bc197c8160e01b95945050505050565b6040516001600160e01b0319909116815260200161017c565b6101ed610417366004613029565b61081c565b61019861042a366004613055565b610828565b6103f061043d366004613096565b63f23a6e6160e01b95945050505050565b60006001600160e01b03198216630271189760e51b148061047f57506301ffc9a760e01b6001600160e01b03198316145b92915050565b6104a461049e6000805160206134348339815191525490565b33610868565b6104c15760405163d0befa1d60e01b815260040160405180910390fd5b6104cb828261089f565b5050565b606061047f8261092f565b6040805160608082018352600080835260208084018290528385018290528451808401865282815280820183905285018290528682527ff672b8dc84d117c1e14949d8bc3977392b5ab7de9d01b854d389cdc31bf0d438815284822060ff8716808452908252918590208551938401865291835281546001600160a01b0316908301526001015492810192909252905b9392505050565b600061047f82610a8b565b61059561049e6000805160206134348339815191525490565b6105b25760405163d0befa1d60e01b815260040160405180910390fd5b6105be84848484610af0565b50505050565b6105dd61049e6000805160206134348339815191525490565b158015610612575061061061049e7ff6deb63e40d71b08820818e006e23fcceb1fce7a499bc15b71b2526cbf9efa735490565b155b1561063057604051630b24262960e31b815260040160405180910390fd5b61063d8585858585610bfd565b5050505050565b6060610651848484610e28565b949350505050565b6000610651848484610f86565b7f09acf4e54214992e70883cf7dcd6957ff2c71cd9e14df4bec4383bc0d11607dc80546002036106a957604051635db5c7cd60e11b815260040160405180910390fd5b600281556106b884848461116c565b60019055505050565b60606106cb611418565b905090565b7f09acf4e54214992e70883cf7dcd6957ff2c71cd9e14df4bec4383bc0d11607dc805460020361071357604051635db5c7cd60e11b815260040160405180910390fd5b600281556106b88484846000611443565b61073d61049e6000805160206134348339815191525490565b61075a5760405163d0befa1d60e01b815260040160405180910390fd5b6104cb8282611815565b61077d61049e6000805160206134348339815191525490565b61079a5760405163d0befa1d60e01b815260040160405180910390fd5b6105be848484846118de565b60006106cb6000805160206134548339815191525460ff1690565b606061047f826119bd565b6107e561049e6000805160206134348339815191525490565b6108025760405163d0befa1d60e01b815260040160405180910390fd5b61080d838383611ae9565b505050565b60606106cb611c8f565b600061056a8383611db3565b61084161049e6000805160206134348339815191525490565b61085e5760405163d0befa1d60e01b815260040160405180910390fd5b6104cb8282611ea0565b60008281527fd3889cc5458b268d0544e5534672df1296288ca3f93cbd39bd6f497a5c6228116020526040812061056a9083611f9b565b8160ff811615806108c557506000805160206134548339815191525460ff908116908216115b156108e35760405163d751397d60e01b815260040160405180910390fd5b5060ff9190911660009081527ff672b8dc84d117c1e14949d8bc3977392b5ab7de9d01b854d389cdc31bf0d4376020526040902080549115156101000261ff0019909216919091179055565b6060600080516020613454833981519152600061096b7ff672b8dc84d117c1e14949d8bc3977392b5ab7de9d01b854d389cdc31bf0d43b611fbd565b90506000816001600160401b0381111561098757610987612e48565b6040519080825280602002602001820160405280156109cc57816020015b60408051808201909152600080825260208201528152602001906001900390816109a55790505b5090506000805b838160ff161015610a805760006109f06005870160ff8416611fc7565b905080848481518110610a0557610a056130fe565b60209081029190910181015160ff92831690526001600160a01b038a166000908152600a89018252604080822093851682529290915220548451859085908110610a5157610a516130fe565b602090810291909101810151015282610a698161312a565b935050508080610a7890613143565b9150506109d3565b509095945050505050565b60007ff672b8dc84d117c1e14949d8bc3977392b5ab7de9d01b854d389cdc31bf0d43981610abc6020850185612980565b6001600160a01b0316815260208082019290925260409081016000908120948301358152939091529091205460ff16919050565b828114610b10576040516303f7219d60e41b815260040160405180910390fd5b60008051602061345483398151915260005b84811015610bf557838382818110610b3c57610b3c6130fe565b9050602002016020810190610b519190613162565b826004016000888885818110610b6957610b696130fe565b610b7f9260206040909202019081019150612980565b6001600160a01b03166001600160a01b031681526020019081526020016000206000888885818110610bb357610bb36130fe565b90506040020160200135815260200190815260200160002060006101000a81548160ff0219169083151502179055508080610bed9061312a565b915050610b22565b505050505050565b828114610c1d576040516303f7219d60e41b815260040160405180910390fd5b600080516020613454833981519152805460ff1660005b85811015610dcd57868682818110610c4e57610c4e6130fe565b9050602002016020810190610c639190612d1b565b60ff16158015610c9e57508160ff16878783818110610c8457610c846130fe565b9050602002016020810190610c999190612d1b565b60ff16115b15610cbc5760405163d751397d60e01b815260040160405180910390fd5b826001016000888884818110610cd457610cd46130fe565b9050602002016020810190610ce99190612d1b565b60ff908116825260208201929092526040016000205462010000900416610d23576040516332fa2abb60e01b815260040160405180910390fd5b848482818110610d3557610d356130fe565b90506020020135610d5160008051602061345483398151915290565b6001600160a01b038a166000908152600a919091016020526040812090898985818110610d8057610d806130fe565b9050602002016020810190610d959190612d1b565b60ff1681526020019081526020016000206000828254610db5919061317d565b90915550819050610dc58161312a565b915050610c34565b50866001600160a01b0316336001600160a01b03167f9d7a20d7eaa55f66adf8df546f4264a6d863831fcf5a590c02a66c132f8c10cc88888888604051610e1794939291906131d1565b60405180910390a350505050505050565b6060600080516020613454833981519152826001600160401b03811115610e5157610e51612e48565b604051908082528060200260200182016040528015610e9c57816020015b6040805160608101825260008082526020808301829052928201528252600019909201910181610e6f5790505b50915060005b83811015610f7d576000868152600283016020526040812081878785818110610ecd57610ecd6130fe565b9050602002016020810190610ee29190612d1b565b60ff1660ff16815260200190815260200160002090506040518060600160405280878785818110610f1557610f156130fe565b9050602002016020810190610f2a9190612d1b565b60ff16815282546001600160a01b0316602082015260018301546040909101528451859084908110610f5e57610f5e6130fe565b6020026020010181905250508080610f759061312a565b915050610ea2565b50509392505050565b6000600080516020613454833981519152606082610fc37ff672b8dc84d117c1e14949d8bc3977392b5ab7de9d01b854d389cdc31bf0d43b611fbd565b905060005b818160ff16101561114a576000610fe56005860160ff8416611fc7565b604080518082019091526000808252602082015290915060005b88811015611071578260ff1661102b8b8b84818110611020576110206130fe565b905060400201610a8b565b0361105f57898982818110611042576110426130fe565b905060400201803603810190611058919061321d565b9150611071565b806110698161312a565b915050610fff565b5080516001600160a01b03166111095760008a8152600287016020908152604080832060ff861684529091529020546001600160a01b0316156110f057506000898152600286016020908152604080832060ff85168452825291829020825180840190935280546001600160a01b031683526001015490820152611109565b60405163a9614f1560e01b815260040160405180910390fd5b80516020808301516040516111249389938793919201613274565b60405160208183030381529060405294505050808061114290613143565b915050610fc8565b5081516020830120611160906007850190611fd3565b15979650505050505050565b6040516331a9108f60e11b815260048101849052839030908190636352211e90602401602060405180830381865afa1580156111ac573d6000803e3d6000fd5b505050506040513d601f19601f820116820180604052508101906111d091906132d5565b6001600160a01b0316336001600160a01b0316146112015760405163aee05b5d60e01b815260040160405180910390fd5b600080516020613454833981519152600084900361123257604051635740c67760e11b815260040160405180910390fd5b60005b848110156113c157816001016000878784818110611255576112556130fe565b905060200201602081019061126a9190612d1b565b60ff9081168252602082019290925260400160002054610100900416156112a45760405163bd8a5e1560e01b815260040160405180910390fd5b60008781526002830160205260408120818888858181106112c7576112c76130fe565b90506020020160208101906112dc9190612d1b565b60ff1681526020810191909152604001600020546001600160a01b03160361131757604051632755285560e01b815260040160405180910390fd5b81600101600087878481811061132f5761132f6130fe565b90506020020160208101906113449190612d1b565b60ff9081168252602082019290925260400160002054620100009004161561137f5760405163abfc1e6160e01b815260040160405180910390fd5b6113af87878784818110611395576113956130fe565b90506020020160208101906113aa9190612d1b565b611feb565b806113b98161312a565b915050611235565b506113cb8661214a565b5085336001600160a01b03167fa3319ad5631c1ffca6596869c7a4151599263f1ab87e5bff0b2a61730d9e7f5287876040516114089291906132f2565b60405180910390a3505050505050565b60606106cb7ff672b8dc84d117c1e14949d8bc3977392b5ab7de9d01b854d389cdc31bf0d43b612276565b6040516331a9108f60e11b815260048101859052849030908190636352211e90602401602060405180830381865afa158015611483573d6000803e3d6000fd5b505050506040513d601f19601f820116820180604052508101906114a791906132d5565b6001600160a01b0316336001600160a01b0316146114d85760405163aee05b5d60e01b815260040160405180910390fd5b60008490036114fa5760405163627652c960e11b815260040160405180910390fd5b600080516020613454833981519152600080866001600160401b0381111561152457611524612e48565b60405190808252806020026020018201604052801561154d578160200160208202803683370190505b50905060005b878110156115e757600061157f8b8b8b85818110611573576115736130fe565b9050604002018a6122d2565b60ff80821660009081526001880160205260409020549192506201000090910416156115b357836115af81613143565b9450505b8060ff168383815181106115c9576115c96130fe565b602090810291909101015250806115df8161312a565b915050611553565b506115f1896126ac565b61160e5760405163a9614f1560e01b815260040160405180910390fd5b60ff8216156117c8576116208961214a565b61163c5760405162ecf30560e51b815260040160405180910390fd5b856117c85760008260ff166001600160401b0381111561165e5761165e612e48565b604051908082528060200260200182016040528015611687578160200160208202803683370190505b5090506000805b898110156117835760008660030160008d8d858181106116b0576116b06130fe565b6116c69260206040909202019081019150612980565b6001600160a01b03166001600160a01b0316815260200190815260200160002060008d8d858181106116fa576116fa6130fe565b60206040918202939093018301358452838301949094525090820160009081205460ff90811680835260018c019093529290205490925062010000900416156117705780848481518110611750576117506130fe565b60ff909216602092830291909101909101528261176c8161312a565b9350505b508061177b8161312a565b91505061168e565b50336001600160a01b03167f3c96ad92d6bcb0f8d3f202fdb53ef0f86777fb692ed0c497b230cf7f92a0e559836040516117bd9190613306565b60405180910390a250505b88336001600160a01b03167f557dc03f902756383ba5a748ab63ec6ec44b2880dba84ad33dc6ffe670f18861836040516118029190612ce3565b60405180910390a3505050505050505050565b8160ff8116158061183b57506000805160206134548339815191525460ff908116908216115b156118595760405163d751397d60e01b815260040160405180910390fd5b60ff831660009081527ff672b8dc84d117c1e14949d8bc3977392b5ab7de9d01b854d389cdc31bf0d43760205260409020805483158015620100000262ff00001990921691909117909155600080516020613454833981519152906118ce576118c86005820160ff861661277c565b506105be565b61063d6005820160ff8616612788565b6000805160206134548339815191528054600190829060009061190590849060ff16613341565b825461010092830a60ff818102199092169282160291909117909255835490911660008181526001850160205260409020805462ffff00191689151590930262ff000019169290921762010000881515021760ff19168117909155905061196c8186611815565b821561197d5761197d818585611ae9565b604080518715158152861515602082015260ff83169133917f6cc736ebc0a380aff8bb8965c1da3507f88c72faaa11d947a8cee380437eee389101611408565b60008051602061345483398151915280546060919060ff16806001600160401b038111156119ed576119ed612e48565b604051908082528060200260200182016040528015611a3857816020015b6040805160608101825260008082526020808301829052928201528252600019909201910181611a0b5790505b50925060005b8160ff168160ff161015611ae1576000611a59826001613341565b6000878152600286016020908152604080832060ff80861680865291845293829020825160608101845291825280546001600160a01b0316938201939093526001830154918101919091528851939450909290918891908616908110611ac157611ac16130fe565b602002602001018190525050508080611ad990613143565b915050611a3e565b505050919050565b8260ff81161580611b0f57506000805160206134548339815191525460ff908116908216115b15611b2d5760405163d751397d60e01b815260040160405180910390fd5b60008051602061345483398151915260005b83811015611c4457611b81858583818110611b5c57611b5c6130fe565b611b729260206040909202019081019150612980565b6001600160a01b03163b151590565b611b9e57604051633c65e02b60e21b815260040160405180910390fd5b85826003016000878785818110611bb757611bb76130fe565b611bcd9260206040909202019081019150612980565b6001600160a01b03166001600160a01b031681526020019081526020016000206000878785818110611c0157611c016130fe565b90506040020160200135815260200190815260200160002060006101000a81548160ff021916908360ff1602179055508080611c3c9061312a565b915050611b3f565b50336001600160a01b03167fe4b3865dba5d4ccb0b3d6c20155d67038ad51ad7205218a541036a99804571b78585604051611c8092919061335a565b60405180910390a25050505050565b60008051602061345483398151915280546060919060ff16806001600160401b03811115611cbf57611cbf612e48565b604051908082528060200260200182016040528015611d0a57816020015b6040805160608101825260008082526020808301829052928201528252600019909201910181611cdd5790505b50925060005b8160ff168160ff161015611dad576000611d2b826001613341565b60ff80821660009081526001870160209081526040918290208251606081018452905480851682526101008104851615159282019290925262010000909104831615159181019190915287519293509187918516908110611d8e57611d8e6130fe565b6020026020010181905250508080611da590613143565b915050611d10565b50505090565b60008160ff81161580611ddb57506000805160206134548339815191525460ff908116908216115b15611df95760405163d751397d60e01b815260040160405180910390fd5b60ff83811660009081527ff672b8dc84d117c1e14949d8bc3977392b5ab7de9d01b854d389cdc31bf0d437602052604090205462010000900416611e50576040516332fa2abb60e01b815260040160405180910390fd5b6001600160a01b03841660009081527ff672b8dc84d117c1e14949d8bc3977392b5ab7de9d01b854d389cdc31bf0d4406020908152604080832060ff8716845290915290205491505b5092915050565b60008051602061345483398151915260005b82811015611f5257816003016000858584818110611ed257611ed26130fe565b611ee89260206040909202019081019150612980565b6001600160a01b03166001600160a01b031681526020019081526020016000206000858584818110611f1c57611f1c6130fe565b602060409182029390930183013584529183019390935201600020805460ff191690555080611f4a8161312a565b915050611eb2565b50336001600160a01b03167fe4b3865dba5d4ccb0b3d6c20155d67038ad51ad7205218a541036a99804571b78484604051611f8e92919061335a565b60405180910390a2505050565b6001600160a01b0381166000908152600183016020526040812054151561056a565b600061047f825490565b600061056a8383612794565b6000818152600183016020526040812054151561056a565b60008281527ff672b8dc84d117c1e14949d8bc3977392b5ab7de9d01b854d389cdc31bf0d4386020908152604080832060ff858116855290835281842080546001600160a01b031685527ff672b8dc84d117c1e14949d8bc3977392b5ab7de9d01b854d389cdc31bf0d43a84528285206001820154865290935292205460008051602061345483398151915292168015612109578154600180840154604051637921219560e11b81523060048201523360248201526044810191909152606481019190915260a06084820152600060a48201526001600160a01b0390911690819063f242432a9060c401600060405180830381600087803b1580156120ef57600080fd5b505af1158015612103573d6000803e3d6000fd5b50505050505b505060009283526002016020908152604080842060ff90931684529190528120805473ffffffffffffffffffffffffffffffffffffffff1916815560010155565b60006000805160206134548339815191526060826121877ff672b8dc84d117c1e14949d8bc3977392b5ab7de9d01b854d389cdc31bf0d43b611fbd565b905060005b818160ff1610156122145760006121a96005860160ff8416611fc7565b6000888152600287016020908152604080832060ff8516845282529182902080546001820154935194955090936121ee93899387936001600160a01b03169201613274565b60405160208183030381529060405294505050808061220c90613143565b91505061218c565b50815160208301206122296007850182611fd3565b60008781526009860160205260409020549015955061224c906007860190612788565b5061225a60078501826127e0565b5060009586526009909301602052505060409092209190915590565b805460408051602080840282018101909252828152606092849283929183918301828280156122c457602002820191906000526020600020905b8154815260200190600101908083116122b0575b505050505092505050919050565b60006000805160206134548339815191527ff672b8dc84d117c1e14949d8bc3977392b5ab7de9d01b854d389cdc31bf0d439826123126020870187612980565b6001600160a01b031681526020808201929092526040908101600090812087840135825290925290205460ff16915081158061236357506000805160206134548339815191525460ff908116908316115b15612381576040516363efa0e360e01b815260040160405180910390fd5b821580156123a8575060ff8083166000908152600183016020526040902054620100009004165b1561241d57336000908152600a82016020908152604080832060ff8616845290915281205490036123ec5760405163bbd28dfd60e01b815260040160405180910390fd5b336000908152600a82016020908152604080832060ff861684529091528120805491612417836133b3565b91905055505b6000858152600282016020908152604080832060ff8087168552908352818420600186019093529220549091610100909104168015612465575080546001600160a01b031615155b156124835760405163bd8a5e1560e01b815260040160405180910390fd5b6124906020860186612980565b81546001600160a01b0390811691161480156124b3575084602001358160010154145b156124d15760405163c80df0cb60e01b815260040160405180910390fd5b6000868152600283016020908152604080832060ff871684529091529020546001600160a01b031615612508576125088684611feb565b6000600483018161251c6020890189612980565b6001600160a01b031681526020808201929092526040908101600090812089840135825290925290205460ff16905080156126755760006125606020880188612980565b604051627eeac760e11b8152336004820152602089013560248201529091506001906001600160a01b0383169062fdd58e90604401602060405180830381865afa1580156125b2573d6000803e3d6000fd5b505050506040513d601f19601f820116820180604052508101906125d691906133ca565b10156125f5576040516335ba250d60e11b815260040160405180910390fd5b604051637921219560e11b8152336004820152306024820152602088013560448201526001606482015260a06084820152600060a48201526001600160a01b0382169063f242432a9060c401600060405180830381600087803b15801561265b57600080fd5b505af115801561266f573d6000803e3d6000fd5b50505050505b6000878152600284016020908152604080832060ff881684529091529020869061269f82826133e3565b9050505050509392505050565b60008051602061345483398151915280546000919060ff16825b8160ff168160ff1610156127715760006126e1826001613341565b60ff808216600090815260018701602052604090208054929350916201000090041615801561271757508054610100900460ff16155b1561272357505061275f565b6000878152600286016020908152604080832060ff861684529091529020546001600160a01b031661275c575060009695505050505050565b50505b8061276981613143565b9150506126c6565b506001949350505050565b600061056a83836127e8565b600061056a838361282b565b815460009082106127b85760405163e637bf3b60e01b815260040160405180910390fd5b8260000182815481106127cd576127cd6130fe565b9060005260206000200154905092915050565b600061056a83835b600081815260018301602052604081205461047f575081546001808201845560008481526020808220909301849055845493815293810190915260409092205590565b60008181526001830160205260408120548015611e995783546000908590600019810190811061285d5761285d6130fe565b9060005260206000200154905080856000016001840381548110612883576128836130fe565b60009182526020808320909101929092559182526001860190526040902081905583548490806128b5576128b561341d565b60008281526020808220830160001990810183905590920190925593815260019485019093525050604081205590565b6000602082840312156128f757600080fd5b81356001600160e01b03198116811461056a57600080fd5b803560ff8116811461292057600080fd5b919050565b8035801515811461292057600080fd5b6000806040838503121561294857600080fd5b6129518361290f565b915061295f60208401612925565b90509250929050565b6001600160a01b038116811461297d57600080fd5b50565b60006020828403121561299257600080fd5b813561056a81612968565b602080825282518282018190526000919060409081850190868401855b828110156129e2578151805160ff1685528601518685015292840192908501906001016129ba565b5091979650505050505050565b60008060408385031215612a0257600080fd5b8235915061295f6020840161290f565b815160ff1681526020808301516001600160a01b031690820152604080830151908201526060810161047f565b600060408284031215612a5157600080fd5b50919050565b60008083601f840112612a6957600080fd5b5081356001600160401b03811115612a8057600080fd5b6020830191508360208260061b8501011115612a9b57600080fd5b9250929050565b60008083601f840112612ab457600080fd5b5081356001600160401b03811115612acb57600080fd5b6020830191508360208260051b8501011115612a9b57600080fd5b60008060008060408587031215612afc57600080fd5b84356001600160401b0380821115612b1357600080fd5b612b1f88838901612a57565b90965094506020870135915080821115612b3857600080fd5b50612b4587828801612aa2565b95989497509550505050565b600080600080600060608688031215612b6957600080fd5b8535612b7481612968565b945060208601356001600160401b0380821115612b9057600080fd5b612b9c89838a01612aa2565b90965094506040880135915080821115612bb557600080fd5b50612bc288828901612aa2565b969995985093965092949392505050565b600080600060408486031215612be857600080fd5b8335925060208401356001600160401b03811115612c0557600080fd5b612c1186828701612aa2565b9497909650939450505050565b6020808252825182820181905260009190848201906040850190845b81811015612c8057612c6d838551805160ff1682526020808201516001600160a01b031690830152604090810151910152565b9284019260609290920191600101612c3a565b50909695505050505050565b600060208284031215612c9e57600080fd5b5035919050565b600080600060408486031215612cba57600080fd5b8335925060208401356001600160401b03811115612cd757600080fd5b612c1186828701612a57565b6020808252825182820181905260009190848201906040850190845b81811015612c8057835183529284019291840191600101612cff565b600060208284031215612d2d57600080fd5b61056a8261290f565b815160ff1681526020808301511515908201526040808301511515908201526060810161047f565b60008060008060608587031215612d7457600080fd5b612d7d85612925565b9350612d8b60208601612925565b925060408501356001600160401b03811115612da657600080fd5b612b4587828801612a57565b600080600060408486031215612dc757600080fd5b612dd08461290f565b925060208401356001600160401b03811115612cd757600080fd5b6020808252825182820181905260009190848201906040850190845b81811015612c8057612e35838551805160ff1682526020808201511515908301526040908101511515910152565b9284019260609290920191600101612e07565b634e487b7160e01b600052604160045260246000fd5b604051601f8201601f191681016001600160401b0381118282101715612e8657612e86612e48565b604052919050565b600082601f830112612e9f57600080fd5b813560206001600160401b03821115612eba57612eba612e48565b8160051b612ec9828201612e5e565b9283528481018201928281019087851115612ee357600080fd5b83870192505b84831015612f0257823582529183019190830190612ee9565b979650505050505050565b600082601f830112612f1e57600080fd5b81356001600160401b03811115612f3757612f37612e48565b612f4a601f8201601f1916602001612e5e565b818152846020838601011115612f5f57600080fd5b816020850160208301376000918101602001919091529392505050565b600080600080600060a08688031215612f9457600080fd5b8535612f9f81612968565b94506020860135612faf81612968565b935060408601356001600160401b0380821115612fcb57600080fd5b612fd789838a01612e8e565b94506060880135915080821115612fed57600080fd5b612ff989838a01612e8e565b9350608088013591508082111561300f57600080fd5b5061301c88828901612f0d565b9150509295509295909350565b6000806040838503121561303c57600080fd5b823561304781612968565b915061295f6020840161290f565b6000806020838503121561306857600080fd5b82356001600160401b0381111561307e57600080fd5b61308a85828601612a57565b90969095509350505050565b600080600080600060a086880312156130ae57600080fd5b85356130b981612968565b945060208601356130c981612968565b9350604086013592506060860135915060808601356001600160401b038111156130f257600080fd5b61301c88828901612f0d565b634e487b7160e01b600052603260045260246000fd5b634e487b7160e01b600052601160045260246000fd5b60006001820161313c5761313c613114565b5060010190565b600060ff821660ff810361315957613159613114565b60010192915050565b60006020828403121561317457600080fd5b61056a82612925565b8082018082111561047f5761047f613114565b8183526000602080850194508260005b858110156131c65760ff6131b38361290f565b16875295820195908201906001016131a0565b509495945050505050565b6040815260006131e5604083018688613190565b82810360208401528381526001600160fb1b0384111561320457600080fd5b8360051b80866020840137016020019695505050505050565b60006040828403121561322f57600080fd5b604051604081018181106001600160401b038211171561325157613251612e48565b604052823561325f81612968565b81526020928301359281019290925250919050565b6000855160005b81811015613295576020818901810151858301520161327b565b5060f89590951b6001600160f81b0319169190940190815260609290921b6bffffffffffffffffffffffff19166001830152601582015260350192915050565b6000602082840312156132e757600080fd5b815161056a81612968565b602081526000610651602083018486613190565b6020808252825182820181905260009190848201906040850190845b81811015612c8057835160ff1683529284019291840191600101613322565b60ff818116838216019081111561047f5761047f613114565b6020808252818101839052600090604080840186845b878110156133a657813561338381612968565b6001600160a01b0316835281850135858401529183019190830190600101613370565b5090979650505050505050565b6000816133c2576133c2613114565b506000190190565b6000602082840312156133dc57600080fd5b5051919050565b81356133ee81612968565b6001600160a01b0381166bffffffffffffffffffffffff60a01b83541617825550602082013560018201555050565b634e487b7160e01b600052603160045260246000fdfef6deb63e40d71b08820818e006e23fcceb1fce7a499bc15b71b2526cbf9efa72f672b8dc84d117c1e14949d8bc3977392b5ab7de9d01b854d389cdc31bf0d436a26469706673582212203825c39ae47509675403bd776dd4b45a1c27ebe77c1fb22bc8a82ae356809bd064736f6c63430008130033",
  "devdoc": {
    "details": "This contract is responsible for managing the inventory system for the Arcadians using slots.  It defines the functionality to equip and unequip items to Arcadians, check if a combination of items  are unique, and retrieve the inventory slots and allowed items for a slot.  This contract also implements ERC1155Holder to handle ERC1155 token transfers This contract can be used as a facet of a diamond which follows the EIP-2535 diamond standard. It also uses the ReentrancyGuard and Multicall contracts for security and gas efficiency.",
    "kind": "dev",
    "methods": {
      "addBaseModifierCoupons(address,uint8[],uint256[])": {
        "params": {
          "account": "The account to increase the number of coupons",
          "amounts": "the amounts of coupons to increase",
          "slotsIds": "The slots ids to increase the number of coupons"
        }
      },
      "allowItemsInSlot(uint8,(address,uint256)[])": {
        "params": {
          "items": "The list of items to allow in the slot",
          "slotId": "The slot id"
        }
      },
      "allowedSlot((address,uint256))": {
        "params": {
          "item": "The item to check"
        },
        "returns": {
          "_0": "The allowed slot id for the item. Slots are 1-indexed."
        }
      },
      "createSlot(bool,bool,(address,uint256)[])": {
        "details": "This function is only accessible to the manager roleSlots are 1-indexed",
        "params": {
          "isBase": "If the slot is base",
          "items": "The list of items to allow in the slot",
          "permanent": "Whether or not the slot can be unequipped once equipped"
        }
      },
      "disallowItems((address,uint256)[])": {
        "params": {
          "items": "The list of items to disallow in the slot"
        }
      },
      "equip(uint256,(address,uint256)[])": {
        "params": {
          "arcadianId": "The ID of the Arcadian NFT to equip the items for",
          "items": "An array of items to equip in the corresponding slots"
        }
      },
      "equipped(uint256,uint8)": {
        "params": {
          "arcadianId": "The ID of the Arcadian NFT to query",
          "slotId": "The slot id to query"
        }
      },
      "equippedAll(uint256)": {
        "params": {
          "arcadianId": "The ID of the Arcadian NFT to query"
        }
      },
      "equippedBatch(uint256,uint8[])": {
        "params": {
          "arcadianId": "The ID of the Arcadian NFT to query",
          "slotsIds": "The slots ids to query"
        }
      },
      "getBaseModifierCoupon(address,uint8)": {
        "params": {
          "account": "The accounts to increase the number of coupons",
          "slotId": "The slot to get the coupon amount from"
        }
      },
      "getBaseModifierCouponAll(address)": {
        "params": {
          "account": "The accounts to increase the number of coupons"
        }
      },
      "isArcadianUnique(uint256,(address,uint256)[])": {
        "details": "The uniqueness is calculated using the existent arcadian items and the input items as wellOnly items equipped in 'base' slots are considered for uniqueness",
        "params": {
          "arcadianId": "The ID of the Arcadian NFT to query",
          "items": "An array of items to check for uniqueness after \"equipped\" over the existent arcadian items."
        }
      },
      "numSlots()": {
        "details": "Slots are 1-indexed",
        "returns": {
          "_0": "The number of inventory slots "
        }
      },
      "setItemsTransferRequired((address,uint256)[],bool[])": {
        "params": {
          "items": "The list of items",
          "requiresTransfer": "If it requires item transfer to be equipped"
        }
      },
      "setSlotBase(uint8,bool)": {
        "details": "This function is only accessible to the manager roleSlots are 1-indexed",
        "params": {
          "isBase": "Whether or not the slot is base"
        }
      },
      "setSlotPermanent(uint8,bool)": {
        "details": "This function is only accessible to the manager roleSlots are 1-indexed",
        "params": {
          "permanent": "Whether or not the slot is permanent"
        }
      },
      "slot(uint8)": {
        "details": "Slots are 1-indexed",
        "params": {
          "slotId": "The ID of the inventory slot"
        },
        "returns": {
          "existentSlot": "The details of the inventory slot"
        }
      },
      "slotsAll()": {
        "details": "Slots are 1-indexed",
        "returns": {
          "existentSlots": "The details of all the inventory slots"
        }
      },
      "supportsInterface(bytes4)": {
        "details": "See {IERC165-supportsInterface}."
      },
      "unequip(uint256,uint8[])": {
        "params": {
          "arcadianId": "The ID of the Arcadian NFT to equip the item for",
          "slotsIds": "The slots ids in which the items will be unequipped"
        }
      }
    },
    "title": "InventoryFacet",
    "version": 1
  },
  "userdoc": {
    "kind": "user",
    "methods": {
      "addBaseModifierCoupons(address,uint8[],uint256[])": {
        "notice": "Adds coupons to accounts that allow to modify the base traits"
      },
      "allowItemsInSlot(uint8,(address,uint256)[])": {
        "notice": "Adds items to the list of allowed items for an inventory slot"
      },
      "allowedSlot((address,uint256))": {
        "notice": "Returns the allowed slot for a given item"
      },
      "createSlot(bool,bool,(address,uint256)[])": {
        "notice": "Creates a new inventory slot"
      },
      "disallowItems((address,uint256)[])": {
        "notice": "Removes items from the list of allowed items"
      },
      "equip(uint256,(address,uint256)[])": {
        "notice": "Equips multiple items to multiple slots for a specified Arcadian NFT"
      },
      "equipped(uint256,uint8)": {
        "notice": "Retrieves the equipped item in a slot for a specified Arcadian NFT"
      },
      "equippedAll(uint256)": {
        "notice": "Retrieves all the equipped items for a specified Arcadian NFT"
      },
      "equippedBatch(uint256,uint8[])": {
        "notice": "Retrieves the equipped items in the slot of an Arcadian NFT"
      },
      "getBaseModifierCoupon(address,uint8)": {
        "notice": "Returns the number coupons available for an account that allow to modify the base traits"
      },
      "getBaseModifierCouponAll(address)": {
        "notice": "Returns the number coupons available for an account that allow to modify the base traits"
      },
      "getBaseSlotsIds()": {
        "notice": "Returns all the slots ids"
      },
      "isArcadianUnique(uint256,(address,uint256)[])": {
        "notice": "Indicates if a list of items applied to an the arcadian is unique"
      },
      "numSlots()": {
        "notice": "Returns the number of inventory slots"
      },
      "setItemsTransferRequired((address,uint256)[],bool[])": {
        "notice": "Sets the items transfer required on equip"
      },
      "setSlotBase(uint8,bool)": {
        "notice": "Sets the slot base property"
      },
      "setSlotPermanent(uint8,bool)": {
        "notice": "Sets the slot permanent property"
      },
      "slot(uint8)": {
        "notice": "Returns the details of an inventory slot given its ID"
      },
      "slotsAll()": {
        "notice": "Returns the details of all the existent slots"
      },
      "unequip(uint256,uint8[])": {
        "notice": "Unequips the items equipped in multiple slots for a specified Arcadian NFT"
      }
    },
    "version": 1
  },
  "storageLayout": {
    "storage": [],
    "types": null
  }
}