{
  "address": "0xE145A10c07524e5d0faC6bd36BE382366B6A15ce",
  "abi": [
    {
      "inputs": [],
      "name": "ERC1155Base__ArrayLengthMismatch",
      "type": "error"
    },
    {
      "inputs": [],
      "name": "ERC1155Base__BalanceQueryZeroAddress",
      "type": "error"
    },
    {
      "inputs": [],
      "name": "ERC1155Base__BurnExceedsBalance",
      "type": "error"
    },
    {
      "inputs": [],
      "name": "ERC1155Base__BurnFromZeroAddress",
      "type": "error"
    },
    {
      "inputs": [],
      "name": "ERC1155Base__ERC1155ReceiverNotImplemented",
      "type": "error"
    },
    {
      "inputs": [],
      "name": "ERC1155Base__ERC1155ReceiverRejected",
      "type": "error"
    },
    {
      "inputs": [],
      "name": "ERC1155Base__MintToZeroAddress",
      "type": "error"
    },
    {
      "inputs": [],
      "name": "ERC1155Base__NotOwnerOrApproved",
      "type": "error"
    },
    {
      "inputs": [],
      "name": "ERC1155Base__SelfApproval",
      "type": "error"
    },
    {
      "inputs": [],
      "name": "ERC1155Base__TransferExceedsBalance",
      "type": "error"
    },
    {
      "inputs": [],
      "name": "ERC1155Base__TransferToZeroAddress",
      "type": "error"
    },
    {
      "inputs": [],
      "name": "ReentrancyGuard__ReentrantCall",
      "type": "error"
    },
    {
      "inputs": [],
      "name": "UintUtils__InsufficientHexLength",
      "type": "error"
    },
    {
      "anonymous": false,
      "inputs": [
        {
          "indexed": true,
          "internalType": "address",
          "name": "account",
          "type": "address"
        },
        {
          "indexed": true,
          "internalType": "address",
          "name": "operator",
          "type": "address"
        },
        {
          "indexed": false,
          "internalType": "bool",
          "name": "approved",
          "type": "bool"
        }
      ],
      "name": "ApprovalForAll",
      "type": "event"
    },
    {
      "anonymous": false,
      "inputs": [
        {
          "indexed": true,
          "internalType": "address",
          "name": "oldArcadiansAddress",
          "type": "address"
        },
        {
          "indexed": true,
          "internalType": "address",
          "name": "newArcadiansAddress",
          "type": "address"
        }
      ],
      "name": "ArcadiansAddressChanged",
      "type": "event"
    },
    {
      "anonymous": false,
      "inputs": [
        {
          "indexed": true,
          "internalType": "address",
          "name": "by",
          "type": "address"
        },
        {
          "indexed": false,
          "internalType": "address",
          "name": "itemAddress",
          "type": "address"
        },
        {
          "indexed": false,
          "internalType": "uint256",
          "name": "itemId",
          "type": "uint256"
        },
        {
          "indexed": false,
          "internalType": "uint256",
          "name": "slot",
          "type": "uint256"
        }
      ],
      "name": "ItemAllowedInSlot",
      "type": "event"
    },
    {
      "anonymous": false,
      "inputs": [
        {
          "indexed": true,
          "internalType": "address",
          "name": "by",
          "type": "address"
        },
        {
          "indexed": true,
          "internalType": "uint256",
          "name": "arcadianId",
          "type": "uint256"
        },
        {
          "indexed": true,
          "internalType": "address",
          "name": "itemAddress",
          "type": "address"
        },
        {
          "indexed": false,
          "internalType": "uint256",
          "name": "itemId",
          "type": "uint256"
        },
        {
          "indexed": false,
          "internalType": "uint256",
          "name": "amount",
          "type": "uint256"
        },
        {
          "indexed": false,
          "internalType": "uint256",
          "name": "slot",
          "type": "uint256"
        }
      ],
      "name": "ItemEquipped",
      "type": "event"
    },
    {
      "anonymous": false,
      "inputs": [
        {
          "indexed": true,
          "internalType": "address",
          "name": "by",
          "type": "address"
        },
        {
          "indexed": true,
          "internalType": "uint256",
          "name": "arcadianId",
          "type": "uint256"
        },
        {
          "indexed": true,
          "internalType": "address",
          "name": "itemAddress",
          "type": "address"
        },
        {
          "indexed": false,
          "internalType": "uint256",
          "name": "itemId",
          "type": "uint256"
        },
        {
          "indexed": false,
          "internalType": "uint256",
          "name": "amount",
          "type": "uint256"
        },
        {
          "indexed": false,
          "internalType": "uint256",
          "name": "slot",
          "type": "uint256"
        }
      ],
      "name": "ItemUnequipped",
      "type": "event"
    },
    {
      "anonymous": false,
      "inputs": [
        {
          "indexed": true,
          "internalType": "bytes32",
          "name": "role",
          "type": "bytes32"
        },
        {
          "indexed": true,
          "internalType": "bytes32",
          "name": "previousAdminRole",
          "type": "bytes32"
        },
        {
          "indexed": true,
          "internalType": "bytes32",
          "name": "newAdminRole",
          "type": "bytes32"
        }
      ],
      "name": "RoleAdminChanged",
      "type": "event"
    },
    {
      "anonymous": false,
      "inputs": [
        {
          "indexed": true,
          "internalType": "bytes32",
          "name": "role",
          "type": "bytes32"
        },
        {
          "indexed": true,
          "internalType": "address",
          "name": "account",
          "type": "address"
        },
        {
          "indexed": true,
          "internalType": "address",
          "name": "sender",
          "type": "address"
        }
      ],
      "name": "RoleGranted",
      "type": "event"
    },
    {
      "anonymous": false,
      "inputs": [
        {
          "indexed": true,
          "internalType": "bytes32",
          "name": "role",
          "type": "bytes32"
        },
        {
          "indexed": true,
          "internalType": "address",
          "name": "account",
          "type": "address"
        },
        {
          "indexed": true,
          "internalType": "address",
          "name": "sender",
          "type": "address"
        }
      ],
      "name": "RoleRevoked",
      "type": "event"
    },
    {
      "anonymous": false,
      "inputs": [
        {
          "indexed": true,
          "internalType": "address",
          "name": "by",
          "type": "address"
        },
        {
          "indexed": true,
          "internalType": "uint256",
          "name": "slot",
          "type": "uint256"
        }
      ],
      "name": "SlotAllowedToUnequip",
      "type": "event"
    },
    {
      "anonymous": false,
      "inputs": [
        {
          "indexed": true,
          "internalType": "address",
          "name": "by",
          "type": "address"
        },
        {
          "indexed": false,
          "internalType": "address",
          "name": "itemAddress",
          "type": "address"
        },
        {
          "indexed": false,
          "internalType": "uint256[]",
          "name": "allowedItemIds",
          "type": "uint256[]"
        },
        {
          "indexed": false,
          "internalType": "uint256",
          "name": "capacity",
          "type": "uint256"
        },
        {
          "indexed": false,
          "internalType": "bool",
          "name": "unequippable",
          "type": "bool"
        },
        {
          "indexed": false,
          "internalType": "uint256",
          "name": "slot",
          "type": "uint256"
        }
      ],
      "name": "SlotCreated",
      "type": "event"
    },
    {
      "anonymous": false,
      "inputs": [
        {
          "indexed": true,
          "internalType": "address",
          "name": "operator",
          "type": "address"
        },
        {
          "indexed": true,
          "internalType": "address",
          "name": "from",
          "type": "address"
        },
        {
          "indexed": true,
          "internalType": "address",
          "name": "to",
          "type": "address"
        },
        {
          "indexed": false,
          "internalType": "uint256[]",
          "name": "ids",
          "type": "uint256[]"
        },
        {
          "indexed": false,
          "internalType": "uint256[]",
          "name": "values",
          "type": "uint256[]"
        }
      ],
      "name": "TransferBatch",
      "type": "event"
    },
    {
      "anonymous": false,
      "inputs": [
        {
          "indexed": true,
          "internalType": "address",
          "name": "operator",
          "type": "address"
        },
        {
          "indexed": true,
          "internalType": "address",
          "name": "from",
          "type": "address"
        },
        {
          "indexed": true,
          "internalType": "address",
          "name": "to",
          "type": "address"
        },
        {
          "indexed": false,
          "internalType": "uint256",
          "name": "id",
          "type": "uint256"
        },
        {
          "indexed": false,
          "internalType": "uint256",
          "name": "value",
          "type": "uint256"
        }
      ],
      "name": "TransferSingle",
      "type": "event"
    },
    {
      "inputs": [
        {
          "internalType": "address",
          "name": "itemAddress",
          "type": "address"
        },
        {
          "internalType": "uint256",
          "name": "itemId",
          "type": "uint256"
        },
        {
          "internalType": "uint256",
          "name": "slot",
          "type": "uint256"
        }
      ],
      "name": "allowItemInSlot",
      "outputs": [],
      "stateMutability": "nonpayable",
      "type": "function"
    },
    {
      "inputs": [
        {
          "internalType": "uint256",
          "name": "slot",
          "type": "uint256"
        }
      ],
      "name": "allowSlotToUnequip",
      "outputs": [],
      "stateMutability": "nonpayable",
      "type": "function"
    },
    {
      "inputs": [
        {
          "internalType": "address",
          "name": "itemAddress",
          "type": "address"
        },
        {
          "internalType": "uint256[]",
          "name": "allowedItemIds",
          "type": "uint256[]"
        },
        {
          "internalType": "uint256",
          "name": "capacity",
          "type": "uint256"
        },
        {
          "internalType": "bool",
          "name": "unequippable",
          "type": "bool"
        }
      ],
      "name": "createSlot",
      "outputs": [],
      "stateMutability": "nonpayable",
      "type": "function"
    },
    {
      "inputs": [
        {
          "internalType": "uint256",
          "name": "arcadianId",
          "type": "uint256"
        },
        {
          "internalType": "address",
          "name": "itemAddress",
          "type": "address"
        },
        {
          "internalType": "uint256",
          "name": "itemId",
          "type": "uint256"
        },
        {
          "internalType": "uint256",
          "name": "amount",
          "type": "uint256"
        },
        {
          "internalType": "uint256",
          "name": "slot",
          "type": "uint256"
        }
      ],
      "name": "equip",
      "outputs": [],
      "stateMutability": "nonpayable",
      "type": "function"
    },
    {
      "inputs": [
        {
          "internalType": "uint256",
          "name": "arcadianId",
          "type": "uint256"
        },
        {
          "internalType": "address",
          "name": "itemAddress",
          "type": "address"
        },
        {
          "internalType": "uint256[]",
          "name": "itemIds",
          "type": "uint256[]"
        },
        {
          "internalType": "uint256[]",
          "name": "amounts",
          "type": "uint256[]"
        },
        {
          "internalType": "uint256[]",
          "name": "slots",
          "type": "uint256[]"
        }
      ],
      "name": "equipBatch",
      "outputs": [],
      "stateMutability": "nonpayable",
      "type": "function"
    },
    {
      "inputs": [
        {
          "internalType": "uint256",
          "name": "arcadianId",
          "type": "uint256"
        },
        {
          "internalType": "uint256",
          "name": "slot",
          "type": "uint256"
        }
      ],
      "name": "equipped",
      "outputs": [
        {
          "components": [
            {
              "internalType": "address",
              "name": "itemAddress",
              "type": "address"
            },
            {
              "internalType": "uint256",
              "name": "id",
              "type": "uint256"
            },
            {
              "internalType": "uint256",
              "name": "amount",
              "type": "uint256"
            }
          ],
          "internalType": "struct InventoryStorage.EquippedItem",
          "name": "item",
          "type": "tuple"
        }
      ],
      "stateMutability": "view",
      "type": "function"
    },
    {
      "inputs": [
        {
          "internalType": "uint256",
          "name": "arcadianId",
          "type": "uint256"
        }
      ],
      "name": "equippedBatch",
      "outputs": [
        {
          "components": [
            {
              "internalType": "address",
              "name": "itemAddress",
              "type": "address"
            },
            {
              "internalType": "uint256",
              "name": "id",
              "type": "uint256"
            },
            {
              "internalType": "uint256",
              "name": "amount",
              "type": "uint256"
            }
          ],
          "internalType": "struct InventoryStorage.EquippedItem[]",
          "name": "item",
          "type": "tuple[]"
        }
      ],
      "stateMutability": "view",
      "type": "function"
    },
    {
      "inputs": [],
      "name": "getArcadiansAddress",
      "outputs": [
        {
          "internalType": "address",
          "name": "",
          "type": "address"
        }
      ],
      "stateMutability": "view",
      "type": "function"
    },
    {
      "inputs": [
        {
          "internalType": "uint256",
          "name": "slot",
          "type": "uint256"
        }
      ],
      "name": "getSlot",
      "outputs": [
        {
          "components": [
            {
              "internalType": "uint256",
              "name": "capacity",
              "type": "uint256"
            },
            {
              "internalType": "bool",
              "name": "isUnequippable",
              "type": "bool"
            },
            {
              "internalType": "uint256[]",
              "name": "allowedItemsIds",
              "type": "uint256[]"
            }
          ],
          "internalType": "struct InventoryStorage.Slot",
          "name": "",
          "type": "tuple"
        }
      ],
      "stateMutability": "view",
      "type": "function"
    },
    {
      "inputs": [],
      "name": "numSlots",
      "outputs": [
        {
          "internalType": "uint256",
          "name": "",
          "type": "uint256"
        }
      ],
      "stateMutability": "view",
      "type": "function"
    },
    {
      "inputs": [
        {
          "internalType": "address",
          "name": "",
          "type": "address"
        },
        {
          "internalType": "address",
          "name": "",
          "type": "address"
        },
        {
          "internalType": "uint256[]",
          "name": "",
          "type": "uint256[]"
        },
        {
          "internalType": "uint256[]",
          "name": "",
          "type": "uint256[]"
        },
        {
          "internalType": "bytes",
          "name": "",
          "type": "bytes"
        }
      ],
      "name": "onERC1155BatchReceived",
      "outputs": [
        {
          "internalType": "bytes4",
          "name": "",
          "type": "bytes4"
        }
      ],
      "stateMutability": "nonpayable",
      "type": "function"
    },
    {
      "inputs": [
        {
          "internalType": "address",
          "name": "",
          "type": "address"
        },
        {
          "internalType": "address",
          "name": "",
          "type": "address"
        },
        {
          "internalType": "uint256",
          "name": "",
          "type": "uint256"
        },
        {
          "internalType": "uint256",
          "name": "",
          "type": "uint256"
        },
        {
          "internalType": "bytes",
          "name": "",
          "type": "bytes"
        }
      ],
      "name": "onERC1155Received",
      "outputs": [
        {
          "internalType": "bytes4",
          "name": "",
          "type": "bytes4"
        }
      ],
      "stateMutability": "nonpayable",
      "type": "function"
    },
    {
      "inputs": [
        {
          "internalType": "address",
          "name": "",
          "type": "address"
        },
        {
          "internalType": "address",
          "name": "",
          "type": "address"
        },
        {
          "internalType": "uint256",
          "name": "",
          "type": "uint256"
        },
        {
          "internalType": "bytes",
          "name": "",
          "type": "bytes"
        }
      ],
      "name": "onERC721Received",
      "outputs": [
        {
          "internalType": "bytes4",
          "name": "",
          "type": "bytes4"
        }
      ],
      "stateMutability": "nonpayable",
      "type": "function"
    },
    {
      "inputs": [
        {
          "internalType": "address",
          "name": "newArcadiansAddress",
          "type": "address"
        }
      ],
      "name": "setArcadiansAddress",
      "outputs": [],
      "stateMutability": "nonpayable",
      "type": "function"
    },
    {
      "inputs": [
        {
          "internalType": "bytes4",
          "name": "interfaceId",
          "type": "bytes4"
        }
      ],
      "name": "supportsInterface",
      "outputs": [
        {
          "internalType": "bool",
          "name": "",
          "type": "bool"
        }
      ],
      "stateMutability": "view",
      "type": "function"
    },
    {
      "inputs": [
        {
          "internalType": "uint256",
          "name": "arcadianId",
          "type": "uint256"
        },
        {
          "internalType": "uint256",
          "name": "slot",
          "type": "uint256"
        },
        {
          "internalType": "bool",
          "name": "unequipAll",
          "type": "bool"
        },
        {
          "internalType": "uint256",
          "name": "amount",
          "type": "uint256"
        }
      ],
      "name": "unequip",
      "outputs": [],
      "stateMutability": "nonpayable",
      "type": "function"
    },
    {
      "inputs": [
        {
          "internalType": "uint256",
          "name": "arcadianId",
          "type": "uint256"
        }
      ],
      "name": "unequipBatch",
      "outputs": [],
      "stateMutability": "nonpayable",
      "type": "function"
    }
  ],
  "transactionHash": "0x791f63fff3f7d9d56f186171b5beabe6c0862e774a67e571c4bc23830d75cc09",
  "args": [],
  "numDeployments": 1,
  "solcInputHash": "150ebcc09713912e53c59e3de982ee04",
  "bytecode": "0x608060405234801561001057600080fd5b50612675806100206000396000f3fe608060405234801561001057600080fd5b506004361061010b5760003560e01c80637eba7ba6116100a2578063bc197c8111610071578063bc197c811461024c578063ca461d951461026b578063ef0bf7de1461027e578063f23a6e611461029e578063fdf32501146102bd57600080fd5b80637eba7ba6146101f05780639621ff2514610210578063a1baaf5d14610226578063b5053e781461023957600080fd5b806325380151116100de578063253801511461019757806325472687146101b75780634b46daef146101ca5780634ccb61c1146101dd57600080fd5b806301ffc9a71461011057806303a8fe4b14610138578063100210561461014d578063150b7a0214610160575b600080fd5b61012361011e366004611bd6565b6102dd565b60405190151581526020015b60405180910390f35b61014b610146366004611c54565b610314565b005b61014b61015b366004611d1f565b610379565b61017e61016e366004611e46565b630a85bd0160e11b949350505050565b6040516001600160e01b0319909116815260200161012f565b61019f6103bd565b6040516001600160a01b03909116815260200161012f565b61014b6101c5366004611eb2565b6103e3565b61014b6101d8366004611ee7565b6103f3565b61014b6101eb366004611f2f565b610452565b6102036101fe366004611f4c565b610489565b60405161012f9190611f65565b610218610542565b60405190815260200161012f565b61014b610234366004611f4c565b61055a565b61014b610247366004611f4c565b61058e565b61017e61025a366004612043565b63bc197c8160e01b95945050505050565b61014b6102793660046120f1565b610597565b61029161028c36600461212e565b6105f4565b60405161012f9190612150565b61017e6102ac36600461217a565b63f23a6e6160e01b95945050505050565b6102d06102cb366004611f4c565b610632565b60405161012f91906121e3565b60006001600160e01b03198216630271189760e51b148061030e57506301ffc9a760e01b6001600160e01b03198316145b92915050565b7f09acf4e54214992e70883cf7dcd6957ff2c71cd9e14df4bec4383bc0d11607dc805460020361035757604051635db5c7cd60e11b815260040160405180910390fd5b6002815561036b898989898989898961063d565b600190555050505050505050565b6103a96103a47ff6deb63e40d71b08820818e006e23fcceb1fce7a499bc15b71b2526cbf9efa725490565b6107cf565b6103b685858585856107d9565b5050505050565b60006103de600080516020612620833981519152546001600160a01b031690565b905090565b6103ee83838361089f565b505050565b7f09acf4e54214992e70883cf7dcd6957ff2c71cd9e14df4bec4383bc0d11607dc805460020361043657604051635db5c7cd60e11b815260040160405180910390fd5b600281556104478686868686610943565b600190555050505050565b61047d6103a47ff6deb63e40d71b08820818e006e23fcceb1fce7a499bc15b71b2526cbf9efa725490565b61048681610a09565b50565b604080516060808201835260008083526020830152918101919091526104c78260009081526000805160206126008339815191526020526040902090565b6040805160608101825282548152600183015460ff16151560208083019190915260028401805484518184028101840186528181529395948601939283018282801561053257602002820191906000526020600020905b81548152602001906001019080831161051e575b5050505050815250509050919050565b60006103de6000805160206125e08339815191525490565b6105856103a47ff6deb63e40d71b08820818e006e23fcceb1fce7a499bc15b71b2526cbf9efa725490565b61048681610af8565b61048681610c10565b7f09acf4e54214992e70883cf7dcd6957ff2c71cd9e14df4bec4383bc0d11607dc80546002036105da57604051635db5c7cd60e11b815260040160405180910390fd5b600281556105ea85858585610d20565b6001905550505050565b610621604051806060016040528060006001600160a01b0316815260200160008152602001600081525090565b61062b8383610de4565b9392505050565b606061030e82610e78565b876000600080516020612620833981519152546040516331a9108f60e11b8152600481018490526001600160a01b0390911691508190636352211e90602401602060405180830381865afa158015610699573d6000803e3d6000fd5b505050506040513d601f19601f820116820180604052508101906106bd919061224e565b6001600160a01b0316336001600160a01b0316146106f65760405162461bcd60e51b81526004016106ed9061226b565b60405180910390fd5b828714801561070457508685145b6107505760405162461bcd60e51b815260206004820152601a60248201527f496e7075742064617461206c656e677468206d69736d6174636800000000000060448201526064016106ed565b60005b878110156107c2576107b08b8b8b8b85818110610772576107726122c8565b905060200201358a8a8681811061078b5761078b6122c8565b905060200201358989878181106107a4576107a46122c8565b90506020020135610f5e565b806107ba816122f4565b915050610753565b5050505050505050505050565b6104868133611181565b6000805160206125e083398151915280546000805160206126208339815191529160019160009061080b90849061230d565b909155505060018181015460008181526002840160205260409020918201805460ff191685151517905590849055841561084b5761084b878787846111e7565b336001600160a01b03167fb8369f0251e68e5cccf9b178e20a53c1e5d2e14a24767112517fa76b81adae1a88888888888760405161088e96959493929190612320565b60405180910390a250505050505050565b80806000036108c05760405162461bcd60e51b81526004016106ed9061237c565b6000805160206125e0833981519152548111156108ef5760405162461bcd60e51b81526004016106ed906123ab565b836001600160a01b0381166109385760405162461bcd60e51b815260206004820152600f60248201526e496e76616c6964204164647265737360881b60448201526064016106ed565b6103b68585856112c0565b846000600080516020612620833981519152546040516331a9108f60e11b8152600481018490526001600160a01b0390911691508190636352211e90602401602060405180830381865afa15801561099f573d6000803e3d6000fd5b505050506040513d601f19601f820116820180604052508101906109c3919061224e565b6001600160a01b0316336001600160a01b0316146109f35760405162461bcd60e51b81526004016106ed9061226b565b610a008787878787610f5e565b50505050505050565b610a346103a47ff6deb63e40d71b08820818e006e23fcceb1fce7a499bc15b71b2526cbf9efa725490565b806001600160a01b038116610a7d5760405162461bcd60e51b815260206004820152600f60248201526e496e76616c6964204164647265737360881b60448201526064016106ed565b60008051602061262083398151915280546001600160a01b038481169116146103ee5780546040516001600160a01b038086169216907eed81eff0ba83420a43348ef3da96ac4ab548b89a0c78453591ba715019703390600090a380546001600160a01b0384166001600160a01b0319909116178155505050565b8080600003610b195760405162461bcd60e51b81526004016106ed9061237c565b6000805160206125e083398151915254811115610b485760405162461bcd60e51b81526004016106ed906123ab565b600082815260008051602061260083398151915260205260409020600101546000805160206126208339815191529060ff16610bc65760405162461bcd60e51b815260206004820152601860248201527f536c6f7420616c726561647920756e717569707061626c65000000000000000060448201526064016106ed565b6000838152600282016020526040808220600101805460ff1916905551849133917f3f5c8a5cdb6c1c8c925f528123512d9f66ee7ffe2deb3be6af8a3f75db71516e9190a3505050565b806000600080516020612620833981519152546040516331a9108f60e11b8152600481018490526001600160a01b0390911691508190636352211e90602401602060405180830381865afa158015610c6c573d6000803e3d6000fd5b505050506040513d601f19601f82011682018060405250810190610c90919061224e565b6001600160a01b0316336001600160a01b031614610cc05760405162461bcd60e51b81526004016106ed9061226b565b60008051602061262083398151915260005b81600101548110156103b657610cf685610ced83600161230d565b60016000610d20565b610d0e85610d0583600161230d565b60016000611394565b80610d18816122f4565b915050610cd2565b836000600080516020612620833981519152546040516331a9108f60e11b8152600481018490526001600160a01b0390911691508190636352211e90602401602060405180830381865afa158015610d7c573d6000803e3d6000fd5b505050506040513d601f19601f82011682018060405250810190610da0919061224e565b6001600160a01b0316336001600160a01b031614610dd05760405162461bcd60e51b81526004016106ed9061226b565b610ddc86868686611394565b505050505050565b610e11604051806060016040528060006001600160a01b0316815260200160008152602001600081525090565b5060009182527ff672b8dc84d117c1e14949d8bc3977392b5ab7de9d01b854d389cdc31bf0d4396020908152604080842092845291815291819020815160608101835281546001600160a01b03168152600182015493810193909352600201549082015290565b6000805160206125e08339815191525460609060008167ffffffffffffffff811115610ea657610ea6611d8f565b604051908082528060200260200182016040528015610f0457816020015b610ef1604051806060016040528060006001600160a01b0316815260200160008152602001600081525090565b815260200190600190039081610ec45790505b50905060005b82811015610f5657610f2685610f2183600161230d565b610de4565b828281518110610f3857610f386122c8565b60200260200101819052508080610f4e906122f4565b915050610f0a565b509392505050565b8080600003610f7f5760405162461bcd60e51b81526004016106ed9061237c565b6000805160206125e083398151915254811115610fae5760405162461bcd60e51b81526004016106ed906123ab565b610fb98285856115c5565b60008681527ff672b8dc84d117c1e14949d8bc3977392b5ab7de9d01b854d389cdc31bf0d43960209081526040808320858452909152902060020154600080516020612620833981519152901561101857611018878460016000610d20565b8361102333876116de565b10156110ae5760405162461bcd60e51b815260206004820152604e60248201527f496e76656e746f727946616365742e65717569703a204d65737361676520736560448201527f6e64657220646f6573206e6f74206f776e20656e6f756768206f66207468617460648201526d0206974656d20746f2065717569760941b608482015260a4016106ed565b6110cb33333088886040518060200160405280600081525061174e565b60408051868152602081018690529081018490526001600160a01b03871690889033907fca5f4ab066342b47da5386168ff3e83e4adf2fac5830bc49703b70908525ab469060600160405180910390a4604080516060810182526001600160a01b03978816815260208082019788528183019687526000998a52600393909301835281892094895293909152909520905181546001600160a01b0319169416939093178355905160018301555160029091015550565b61118b828261176a565b6111e3576111a1816001600160a01b03166117a1565b6111ac8360206117b3565b6040516020016111bd9291906123fb565b60408051601f198184030181529082905262461bcd60e51b82526106ed9160040161249c565b5050565b80806000036112085760405162461bcd60e51b81526004016106ed9061237c565b6000805160206125e0833981519152548111156112375760405162461bcd60e51b81526004016106ed906123ab565b846001600160a01b0381166112805760405162461bcd60e51b815260206004820152600f60248201526e496e76616c6964204164647265737360881b60448201526064016106ed565b60005b84811015610a00576112ae878787848181106112a1576112a16122c8565b90506020020135866112c0565b806112b8816122f4565b915050611283565b600081815260008051602061260083398151915260209081526040808320600201805460018082018355918552838520018690556001600160a01b0387168085527ff672b8dc84d117c1e14949d8bc3977392b5ab7de9d01b854d389cdc31bf0d43a8452828520878652845282852080549283018155855293839020018490558051928352908201849052818101839052516000805160206126208339815191529133917f06a91fc4263d54ad68fef9c0c9e5396bdf5c7bf36ca80c14dcacee462847a5b39181900360600190a250505050565b600083815260008051602061260083398151915260205260409020600101546000805160206126208339815191529060ff16156114395760405162461bcd60e51b815260206004820152603660248201527f496e76656e746f727946616365742e5f756e65717569703a205468617420736c60448201527f6f74206973206e6f7420756e65717569707061626c650000000000000000000060648201526084016106ed565b600085815260038201602090815260408083208784529091529020831561146257806002015492505b80600201548311156114f05760405162461bcd60e51b815260206004820152604b60248201527f496e76656e746f727946616365742e5f756e65717569703a20417474656d707460448201527f696e6720746f20756e657175697020746f6f206d616e79206974656d7320667260648201526a1bdb481d1a19481cdb1bdd60aa1b608482015260a4016106ed565b6115113330338460010154876040518060200160405280600081525061174e565b80546001820154604080519182526020820186905281018790526001600160a01b0390911690879033907fdcc3d30e5b8db305df65e1c1267410349cfa51c4f42d6d369fb401c5ca2937099060600160405180910390a48281600201600082825461157c91906124af565b90915550506002810154600003610ddc57506000948552600301602090815260408086209486529390525050812080546001600160a01b03191681556001810182905560020155565b600083815260008051602061260083398151915260205260408120600080516020612620833981519152916002909101905b81548110156116955784828281548110611613576116136122c8565b906000526020600020015403611683576000868152600284016020526040902054841115610ddc5760405162461bcd60e51b815260206004820152601c60248201527f416d6f756e74206578636565647320736c6f742063617061636974790000000060448201526064016106ed565b8061168d816122f4565b9150506115f7565b5060405162461bcd60e51b815260206004820152601a60248201527f4974656d206e6f7420656c656769626c6520666f7220736c6f7400000000000060448201526064016106ed565b60006001600160a01b0383166117075760405163db5d879760e01b815260040160405180910390fd5b7f1799cf914cb0cb442ca7c7ac709ee40d0cb89e87351dc08d517fbda27d50c68b6000928352602090815260408084206001600160a01b0395909516845293905250205490565b61175c868686868686611906565b610ddc868686868686611a43565b60008281527fd3889cc5458b268d0544e5534672df1296288ca3f93cbd39bd6f497a5c6228116020526040812061062b9083611b53565b606061030e6001600160a01b03831660145b606060006117c28360026124c2565b6117cd90600261230d565b67ffffffffffffffff8111156117e5576117e5611d8f565b6040519080825280601f01601f19166020018201604052801561180f576020820181803683370190505b509050600360fc1b8160008151811061182a5761182a6122c8565b60200101906001600160f81b031916908160001a905350600f60fb1b81600181518110611859576118596122c8565b60200101906001600160f81b031916908160001a905350600160028402015b60018111156118e6576f181899199a1a9b1b9c1cb0b131b232b360811b85600f16601081106118a9576118a96122c8565b1a60f81b8282815181106118bf576118bf6122c8565b60200101906001600160f81b031916908160001a90535060049490941c9360001901611878565b50831561062b5760405163c913478560e01b815260040160405180910390fd5b6001600160a01b03841661192d5760405163f5cadad560e01b815260040160405180910390fd5b61194586868661193c87611b75565b6103b687611b75565b60008381527f1799cf914cb0cb442ca7c7ac709ee40d0cb89e87351dc08d517fbda27d50c68b602081815260408084206001600160a01b038a16855290915290912054808411156119a95760405163119ac6bb60e31b815260040160405180910390fd5b6000858152602083815260408083206001600160a01b038b811685529252808320938790039093558716815290812080548592906119e890849061230d565b909155505060408051858152602081018590526001600160a01b038088169289821692918b16917fc3d58168c5ae7397731d063d5bbf3d657854427343f4c083240f7aacaa2d0f62910160405180910390a450505050505050565b6001600160a01b0384163b15610ddc5760405163f23a6e6160e01b81526001600160a01b0385169063f23a6e6190611a8790899089908890889088906004016124d9565b6020604051808303816000875af1925050508015611ac2575060408051601f3d908101601f19168201909252611abf9181019061251c565b60015b611b2257611ace612539565b806308c379a003611b075750611ae2612555565b80611aed5750611b09565b8060405162461bcd60e51b81526004016106ed919061249c565b505b60405163380147a960e01b815260040160405180910390fd5b6001600160e01b0319811663f23a6e6160e01b14610a0057604051633744db2960e01b815260040160405180910390fd5b6001600160a01b0381166000908152600183016020526040812054151561062b565b60408051600180825281830190925260609160009190602080830190803683370190505090508281600081518110611baf57611baf6122c8565b602090810291909101015292915050565b6001600160e01b03198116811461048657600080fd5b600060208284031215611be857600080fd5b813561062b81611bc0565b6001600160a01b038116811461048657600080fd5b60008083601f840112611c1a57600080fd5b50813567ffffffffffffffff811115611c3257600080fd5b6020830191508360208260051b8501011115611c4d57600080fd5b9250929050565b60008060008060008060008060a0898b031215611c7057600080fd5b883597506020890135611c8281611bf3565b9650604089013567ffffffffffffffff80821115611c9f57600080fd5b611cab8c838d01611c08565b909850965060608b0135915080821115611cc457600080fd5b611cd08c838d01611c08565b909650945060808b0135915080821115611ce957600080fd5b50611cf68b828c01611c08565b999c989b5096995094979396929594505050565b80358015158114611d1a57600080fd5b919050565b600080600080600060808688031215611d3757600080fd5b8535611d4281611bf3565b9450602086013567ffffffffffffffff811115611d5e57600080fd5b611d6a88828901611c08565b90955093505060408601359150611d8360608701611d0a565b90509295509295909350565b634e487b7160e01b600052604160045260246000fd5b601f8201601f1916810167ffffffffffffffff81118282101715611dcb57611dcb611d8f565b6040525050565b600082601f830112611de357600080fd5b813567ffffffffffffffff811115611dfd57611dfd611d8f565b604051611e14601f8301601f191660200182611da5565b818152846020838601011115611e2957600080fd5b816020850160208301376000918101602001919091529392505050565b60008060008060808587031215611e5c57600080fd5b8435611e6781611bf3565b93506020850135611e7781611bf3565b925060408501359150606085013567ffffffffffffffff811115611e9a57600080fd5b611ea687828801611dd2565b91505092959194509250565b600080600060608486031215611ec757600080fd5b8335611ed281611bf3565b95602085013595506040909401359392505050565b600080600080600060a08688031215611eff57600080fd5b853594506020860135611f1181611bf3565b94979496505050506040830135926060810135926080909101359150565b600060208284031215611f4157600080fd5b813561062b81611bf3565b600060208284031215611f5e57600080fd5b5035919050565b60006020808352608083018451828501528185015115156040850152604085015160608086015281815180845260a0870191508483019350600092505b80831015611fc25783518252928401926001929092019190840190611fa2565b509695505050505050565b600082601f830112611fde57600080fd5b8135602067ffffffffffffffff821115611ffa57611ffa611d8f565b8160051b60405161200d83830182611da5565b9283528481018201928281018785111561202657600080fd5b83870192505b84831015611fc2578235815291830191830161202c565b600080600080600060a0868803121561205b57600080fd5b853561206681611bf3565b9450602086013561207681611bf3565b9350604086013567ffffffffffffffff8082111561209357600080fd5b61209f89838a01611fcd565b945060608801359150808211156120b557600080fd5b6120c189838a01611fcd565b935060808801359150808211156120d757600080fd5b506120e488828901611dd2565b9150509295509295909350565b6000806000806080858703121561210757600080fd5b843593506020850135925061211e60408601611d0a565b9396929550929360600135925050565b6000806040838503121561214157600080fd5b50508035926020909101359150565b81516001600160a01b0316815260208083015190820152604080830151908201526060810161030e565b600080600080600060a0868803121561219257600080fd5b853561219d81611bf3565b945060208601356121ad81611bf3565b93506040860135925060608601359150608086013567ffffffffffffffff8111156121d757600080fd5b6120e488828901611dd2565b6020808252825182820181905260009190848201906040850190845b818110156122425761222f83855180516001600160a01b0316825260208082015190830152604090810151910152565b92840192606092909201916001016121ff565b50909695505050505050565b60006020828403121561226057600080fd5b815161062b81611bf3565b6020808252603b908201527f496e76656e746f727946616365743a204d6573736167652073656e646572206960408201527f73206e6f74206f776e6572206f662074686520617263616469616e0000000000606082015260800190565b634e487b7160e01b600052603260045260246000fd5b634e487b7160e01b600052601160045260246000fd5b600060018201612306576123066122de565b5060010190565b8082018082111561030e5761030e6122de565b6001600160a01b038716815260a060208201819052810185905260006001600160fb1b0386111561235057600080fd5b8560051b808860c0850137604083019590955250911515606083015260808201520160c0019392505050565b602080825260159082015274536c6f742069642063616e2774206265207a65726f60581b604082015260600190565b602080825260129082015271125b995e1a5cdd195b9d081cdb1bdd081a5960721b604082015260600190565b60005b838110156123f25781810151838201526020016123da565b50506000910152565b7f416363657373436f6e74726f6c3a206163636f756e74200000000000000000008152600083516124338160178501602088016123d7565b7001034b99036b4b9b9b4b733903937b6329607d1b60179184019182015283516124648160288401602088016123d7565b01602801949350505050565b600081518084526124888160208601602086016123d7565b601f01601f19169290920160200192915050565b60208152600061062b6020830184612470565b8181038181111561030e5761030e6122de565b808202811582820484141761030e5761030e6122de565b60006001600160a01b03808816835280871660208401525084604083015283606083015260a0608083015261251160a0830184612470565b979650505050505050565b60006020828403121561252e57600080fd5b815161062b81611bc0565b600060033d11156125525760046000803e5060005160e01c5b90565b600060443d10156125635790565b6040516003193d81016004833e81513d67ffffffffffffffff816024840111818411171561259357505050505090565b82850191508151818111156125ab5750505050505090565b843d87010160208285010111156125c55750505050505090565b6125d460208286010187611da5565b50909594505050505056fef672b8dc84d117c1e14949d8bc3977392b5ab7de9d01b854d389cdc31bf0d437f672b8dc84d117c1e14949d8bc3977392b5ab7de9d01b854d389cdc31bf0d438f672b8dc84d117c1e14949d8bc3977392b5ab7de9d01b854d389cdc31bf0d436a26469706673582212200c2a2f0a024631e2fa585369a2bddb29e5646b6ca8f7912efeb08b9daa0a59a964736f6c63430008130033",
  "devdoc": {
    "kind": "dev",
    "methods": {
      "onERC721Received(address,address,uint256,bytes)": {
        "details": "See {IERC721Receiver-onERC721Received}. Always returns `IERC721Receiver.onERC721Received.selector`."
      },
      "supportsInterface(bytes4)": {
        "details": "See {IERC165-supportsInterface}."
      }
    },
    "version": 1
  },
  "userdoc": {
    "kind": "user",
    "methods": {},
    "version": 1
  },
  "storageLayout": {
    "storage": [],
    "types": null
  }
}