{
  "address": "0x57DB99a155DF6FBd6Db5eaC401f3b1E71E7dBa44",
  "abi": [
    {
      "inputs": [],
      "name": "Inventory_ArcadianNotUnique",
      "type": "error"
    },
    {
      "inputs": [],
      "name": "Inventory_CouponNeededToModifyBaseSlots",
      "type": "error"
    },
    {
      "inputs": [],
      "name": "Inventory_InputDataMismatch",
      "type": "error"
    },
    {
      "inputs": [],
      "name": "Inventory_InsufficientItemBalance",
      "type": "error"
    },
    {
      "inputs": [],
      "name": "Inventory_InvalidERC1155Contract",
      "type": "error"
    },
    {
      "inputs": [],
      "name": "Inventory_InvalidSlotId",
      "type": "error"
    },
    {
      "inputs": [],
      "name": "Inventory_ItemAlreadyEquippedInSlot",
      "type": "error"
    },
    {
      "inputs": [],
      "name": "Inventory_ItemDoesNotHaveSlotAssigned",
      "type": "error"
    },
    {
      "inputs": [],
      "name": "Inventory_ItemNotSpecified",
      "type": "error"
    },
    {
      "inputs": [],
      "name": "Inventory_NonBaseSlot",
      "type": "error"
    },
    {
      "inputs": [],
      "name": "Inventory_NotAllBaseSlotsEquipped",
      "type": "error"
    },
    {
      "inputs": [],
      "name": "Inventory_NotArcadianOwner",
      "type": "error"
    },
    {
      "inputs": [],
      "name": "Inventory_SlotNotSpecified",
      "type": "error"
    },
    {
      "inputs": [],
      "name": "Inventory_UnequippingBaseSlot",
      "type": "error"
    },
    {
      "inputs": [],
      "name": "Inventory_UnequippingEmptySlot",
      "type": "error"
    },
    {
      "inputs": [],
      "name": "Inventory_UnequippingPermanentSlot",
      "type": "error"
    },
    {
      "inputs": [],
      "name": "ReentrancyGuard__ReentrantCall",
      "type": "error"
    },
    {
      "inputs": [],
      "name": "Roles_MissingAdminRole",
      "type": "error"
    },
    {
      "inputs": [],
      "name": "Roles_MissingAutomationRole",
      "type": "error"
    },
    {
      "inputs": [],
      "name": "Roles_MissingManagerRole",
      "type": "error"
    },
    {
      "anonymous": false,
      "inputs": [
        {
          "indexed": true,
          "internalType": "address",
          "name": "by",
          "type": "address"
        },
        {
          "indexed": true,
          "internalType": "address",
          "name": "to",
          "type": "address"
        },
        {
          "indexed": false,
          "internalType": "uint256[]",
          "name": "slotsIds",
          "type": "uint256[]"
        },
        {
          "indexed": false,
          "internalType": "uint256[]",
          "name": "amounts",
          "type": "uint256[]"
        }
      ],
      "name": "BaseModifierCouponAdded",
      "type": "event"
    },
    {
      "anonymous": false,
      "inputs": [
        {
          "indexed": true,
          "internalType": "address",
          "name": "account",
          "type": "address"
        },
        {
          "indexed": false,
          "internalType": "uint256[]",
          "name": "slotsIds",
          "type": "uint256[]"
        }
      ],
      "name": "BaseModifierCouponConsumed",
      "type": "event"
    },
    {
      "anonymous": false,
      "inputs": [
        {
          "indexed": true,
          "internalType": "address",
          "name": "by",
          "type": "address"
        },
        {
          "indexed": false,
          "internalType": "uint256",
          "name": "slotId",
          "type": "uint256"
        }
      ],
      "name": "ItemsAllowedInSlotUpdated",
      "type": "event"
    },
    {
      "anonymous": false,
      "inputs": [
        {
          "indexed": true,
          "internalType": "address",
          "name": "by",
          "type": "address"
        },
        {
          "indexed": true,
          "internalType": "uint256",
          "name": "arcadianId",
          "type": "uint256"
        },
        {
          "indexed": false,
          "internalType": "uint256[]",
          "name": "slots",
          "type": "uint256[]"
        }
      ],
      "name": "ItemsEquipped",
      "type": "event"
    },
    {
      "anonymous": false,
      "inputs": [
        {
          "indexed": true,
          "internalType": "address",
          "name": "by",
          "type": "address"
        },
        {
          "indexed": true,
          "internalType": "uint256",
          "name": "arcadianId",
          "type": "uint256"
        },
        {
          "indexed": false,
          "internalType": "uint256[]",
          "name": "slots",
          "type": "uint256[]"
        }
      ],
      "name": "ItemsUnequipped",
      "type": "event"
    },
    {
      "anonymous": false,
      "inputs": [
        {
          "indexed": true,
          "internalType": "bytes32",
          "name": "role",
          "type": "bytes32"
        },
        {
          "indexed": true,
          "internalType": "bytes32",
          "name": "previousAdminRole",
          "type": "bytes32"
        },
        {
          "indexed": true,
          "internalType": "bytes32",
          "name": "newAdminRole",
          "type": "bytes32"
        }
      ],
      "name": "RoleAdminChanged",
      "type": "event"
    },
    {
      "anonymous": false,
      "inputs": [
        {
          "indexed": true,
          "internalType": "bytes32",
          "name": "role",
          "type": "bytes32"
        },
        {
          "indexed": true,
          "internalType": "address",
          "name": "account",
          "type": "address"
        },
        {
          "indexed": true,
          "internalType": "address",
          "name": "sender",
          "type": "address"
        }
      ],
      "name": "RoleGranted",
      "type": "event"
    },
    {
      "anonymous": false,
      "inputs": [
        {
          "indexed": true,
          "internalType": "bytes32",
          "name": "role",
          "type": "bytes32"
        },
        {
          "indexed": true,
          "internalType": "address",
          "name": "account",
          "type": "address"
        },
        {
          "indexed": true,
          "internalType": "address",
          "name": "sender",
          "type": "address"
        }
      ],
      "name": "RoleRevoked",
      "type": "event"
    },
    {
      "anonymous": false,
      "inputs": [
        {
          "indexed": true,
          "internalType": "address",
          "name": "by",
          "type": "address"
        },
        {
          "indexed": false,
          "internalType": "uint256",
          "name": "slotId",
          "type": "uint256"
        },
        {
          "indexed": false,
          "internalType": "bool",
          "name": "permanent",
          "type": "bool"
        },
        {
          "indexed": false,
          "internalType": "bool",
          "name": "isBase",
          "type": "bool"
        }
      ],
      "name": "SlotCreated",
      "type": "event"
    },
    {
      "inputs": [
        {
          "internalType": "address",
          "name": "account",
          "type": "address"
        },
        {
          "internalType": "uint256[]",
          "name": "slotsIds",
          "type": "uint256[]"
        },
        {
          "internalType": "uint256[]",
          "name": "amounts",
          "type": "uint256[]"
        }
      ],
      "name": "addBaseModifierCoupons",
      "outputs": [],
      "stateMutability": "nonpayable",
      "type": "function"
    },
    {
      "inputs": [
        {
          "internalType": "uint256",
          "name": "slotId",
          "type": "uint256"
        },
        {
          "components": [
            {
              "internalType": "address",
              "name": "erc721Contract",
              "type": "address"
            },
            {
              "internalType": "uint256",
              "name": "id",
              "type": "uint256"
            }
          ],
          "internalType": "struct InventoryStorage.Item[]",
          "name": "items",
          "type": "tuple[]"
        }
      ],
      "name": "allowItemsInSlot",
      "outputs": [],
      "stateMutability": "nonpayable",
      "type": "function"
    },
    {
      "inputs": [
        {
          "internalType": "uint256",
          "name": "slotId",
          "type": "uint256"
        },
        {
          "internalType": "uint256",
          "name": "index",
          "type": "uint256"
        }
      ],
      "name": "allowedItem",
      "outputs": [
        {
          "components": [
            {
              "internalType": "address",
              "name": "erc721Contract",
              "type": "address"
            },
            {
              "internalType": "uint256",
              "name": "id",
              "type": "uint256"
            }
          ],
          "internalType": "struct InventoryStorage.Item",
          "name": "",
          "type": "tuple"
        }
      ],
      "stateMutability": "view",
      "type": "function"
    },
    {
      "inputs": [
        {
          "components": [
            {
              "internalType": "address",
              "name": "erc721Contract",
              "type": "address"
            },
            {
              "internalType": "uint256",
              "name": "id",
              "type": "uint256"
            }
          ],
          "internalType": "struct InventoryStorage.Item",
          "name": "item",
          "type": "tuple"
        }
      ],
      "name": "allowedSlot",
      "outputs": [
        {
          "internalType": "uint256",
          "name": "",
          "type": "uint256"
        }
      ],
      "stateMutability": "view",
      "type": "function"
    },
    {
      "inputs": [
        {
          "internalType": "uint256",
          "name": "arcadianId",
          "type": "uint256"
        }
      ],
      "name": "arcadianToBaseItemHash",
      "outputs": [
        {
          "internalType": "bytes32",
          "name": "",
          "type": "bytes32"
        }
      ],
      "stateMutability": "view",
      "type": "function"
    },
    {
      "inputs": [
        {
          "internalType": "bool",
          "name": "permanent",
          "type": "bool"
        },
        {
          "internalType": "bool",
          "name": "isBase",
          "type": "bool"
        },
        {
          "components": [
            {
              "internalType": "address",
              "name": "erc721Contract",
              "type": "address"
            },
            {
              "internalType": "uint256",
              "name": "id",
              "type": "uint256"
            }
          ],
          "internalType": "struct InventoryStorage.Item[]",
          "name": "items",
          "type": "tuple[]"
        }
      ],
      "name": "createSlot",
      "outputs": [],
      "stateMutability": "nonpayable",
      "type": "function"
    },
    {
      "inputs": [
        {
          "internalType": "uint256",
          "name": "slotId",
          "type": "uint256"
        },
        {
          "components": [
            {
              "internalType": "address",
              "name": "erc721Contract",
              "type": "address"
            },
            {
              "internalType": "uint256",
              "name": "id",
              "type": "uint256"
            }
          ],
          "internalType": "struct InventoryStorage.Item[]",
          "name": "items",
          "type": "tuple[]"
        }
      ],
      "name": "disallowItemsInSlot",
      "outputs": [],
      "stateMutability": "nonpayable",
      "type": "function"
    },
    {
      "inputs": [
        {
          "internalType": "uint256",
          "name": "arcadianId",
          "type": "uint256"
        },
        {
          "components": [
            {
              "internalType": "address",
              "name": "erc721Contract",
              "type": "address"
            },
            {
              "internalType": "uint256",
              "name": "id",
              "type": "uint256"
            }
          ],
          "internalType": "struct InventoryStorage.Item[]",
          "name": "items",
          "type": "tuple[]"
        }
      ],
      "name": "equip",
      "outputs": [],
      "stateMutability": "nonpayable",
      "type": "function"
    },
    {
      "inputs": [
        {
          "internalType": "uint256",
          "name": "arcadianId",
          "type": "uint256"
        },
        {
          "internalType": "uint256",
          "name": "slotId",
          "type": "uint256"
        }
      ],
      "name": "equipped",
      "outputs": [
        {
          "components": [
            {
              "internalType": "uint256",
              "name": "slotId",
              "type": "uint256"
            },
            {
              "internalType": "address",
              "name": "erc721Contract",
              "type": "address"
            },
            {
              "internalType": "uint256",
              "name": "itemId",
              "type": "uint256"
            }
          ],
          "internalType": "struct InventoryInternal.ItemInSlot",
          "name": "item",
          "type": "tuple"
        }
      ],
      "stateMutability": "view",
      "type": "function"
    },
    {
      "inputs": [
        {
          "internalType": "uint256",
          "name": "arcadianId",
          "type": "uint256"
        }
      ],
      "name": "equippedAll",
      "outputs": [
        {
          "components": [
            {
              "internalType": "uint256",
              "name": "slotId",
              "type": "uint256"
            },
            {
              "internalType": "address",
              "name": "erc721Contract",
              "type": "address"
            },
            {
              "internalType": "uint256",
              "name": "itemId",
              "type": "uint256"
            }
          ],
          "internalType": "struct InventoryInternal.ItemInSlot[]",
          "name": "equippedSlot",
          "type": "tuple[]"
        }
      ],
      "stateMutability": "view",
      "type": "function"
    },
    {
      "inputs": [
        {
          "internalType": "uint256",
          "name": "arcadianId",
          "type": "uint256"
        },
        {
          "internalType": "uint256[]",
          "name": "slotIds",
          "type": "uint256[]"
        }
      ],
      "name": "equippedBatch",
      "outputs": [
        {
          "components": [
            {
              "internalType": "uint256",
              "name": "slotId",
              "type": "uint256"
            },
            {
              "internalType": "address",
              "name": "erc721Contract",
              "type": "address"
            },
            {
              "internalType": "uint256",
              "name": "itemId",
              "type": "uint256"
            }
          ],
          "internalType": "struct InventoryInternal.ItemInSlot[]",
          "name": "equippedSlot",
          "type": "tuple[]"
        }
      ],
      "stateMutability": "view",
      "type": "function"
    },
    {
      "inputs": [
        {
          "internalType": "address",
          "name": "account",
          "type": "address"
        },
        {
          "internalType": "uint256",
          "name": "slotId",
          "type": "uint256"
        }
      ],
      "name": "getBaseModifierCoupon",
      "outputs": [
        {
          "internalType": "uint256",
          "name": "",
          "type": "uint256"
        }
      ],
      "stateMutability": "view",
      "type": "function"
    },
    {
      "inputs": [
        {
          "internalType": "address",
          "name": "account",
          "type": "address"
        }
      ],
      "name": "getBaseModifierCouponAll",
      "outputs": [
        {
          "components": [
            {
              "internalType": "uint256",
              "name": "slotId",
              "type": "uint256"
            },
            {
              "internalType": "uint256",
              "name": "amount",
              "type": "uint256"
            }
          ],
          "internalType": "struct InventoryInternal.BaseModifierCoupon[]",
          "name": "",
          "type": "tuple[]"
        }
      ],
      "stateMutability": "view",
      "type": "function"
    },
    {
      "inputs": [
        {
          "internalType": "uint256",
          "name": "arcadianId",
          "type": "uint256"
        },
        {
          "components": [
            {
              "internalType": "address",
              "name": "erc721Contract",
              "type": "address"
            },
            {
              "internalType": "uint256",
              "name": "id",
              "type": "uint256"
            }
          ],
          "internalType": "struct InventoryStorage.Item[]",
          "name": "items",
          "type": "tuple[]"
        }
      ],
      "name": "isArcadianUnique",
      "outputs": [
        {
          "internalType": "bool",
          "name": "",
          "type": "bool"
        }
      ],
      "stateMutability": "view",
      "type": "function"
    },
    {
      "inputs": [
        {
          "internalType": "uint256",
          "name": "slotId",
          "type": "uint256"
        }
      ],
      "name": "numAllowedItems",
      "outputs": [
        {
          "internalType": "uint256",
          "name": "",
          "type": "uint256"
        }
      ],
      "stateMutability": "view",
      "type": "function"
    },
    {
      "inputs": [],
      "name": "numSlots",
      "outputs": [
        {
          "internalType": "uint256",
          "name": "",
          "type": "uint256"
        }
      ],
      "stateMutability": "view",
      "type": "function"
    },
    {
      "inputs": [
        {
          "internalType": "address",
          "name": "",
          "type": "address"
        },
        {
          "internalType": "address",
          "name": "",
          "type": "address"
        },
        {
          "internalType": "uint256[]",
          "name": "",
          "type": "uint256[]"
        },
        {
          "internalType": "uint256[]",
          "name": "",
          "type": "uint256[]"
        },
        {
          "internalType": "bytes",
          "name": "",
          "type": "bytes"
        }
      ],
      "name": "onERC1155BatchReceived",
      "outputs": [
        {
          "internalType": "bytes4",
          "name": "",
          "type": "bytes4"
        }
      ],
      "stateMutability": "nonpayable",
      "type": "function"
    },
    {
      "inputs": [
        {
          "internalType": "address",
          "name": "",
          "type": "address"
        },
        {
          "internalType": "address",
          "name": "",
          "type": "address"
        },
        {
          "internalType": "uint256",
          "name": "",
          "type": "uint256"
        },
        {
          "internalType": "uint256",
          "name": "",
          "type": "uint256"
        },
        {
          "internalType": "bytes",
          "name": "",
          "type": "bytes"
        }
      ],
      "name": "onERC1155Received",
      "outputs": [
        {
          "internalType": "bytes4",
          "name": "",
          "type": "bytes4"
        }
      ],
      "stateMutability": "nonpayable",
      "type": "function"
    },
    {
      "inputs": [
        {
          "internalType": "uint256",
          "name": "slotId",
          "type": "uint256"
        }
      ],
      "name": "slot",
      "outputs": [
        {
          "components": [
            {
              "internalType": "uint256",
              "name": "id",
              "type": "uint256"
            },
            {
              "internalType": "bool",
              "name": "permanent",
              "type": "bool"
            },
            {
              "internalType": "bool",
              "name": "isBase",
              "type": "bool"
            }
          ],
          "internalType": "struct InventoryStorage.Slot",
          "name": "existentSlot",
          "type": "tuple"
        }
      ],
      "stateMutability": "view",
      "type": "function"
    },
    {
      "inputs": [],
      "name": "slotsAll",
      "outputs": [
        {
          "components": [
            {
              "internalType": "uint256",
              "name": "id",
              "type": "uint256"
            },
            {
              "internalType": "bool",
              "name": "permanent",
              "type": "bool"
            },
            {
              "internalType": "bool",
              "name": "isBase",
              "type": "bool"
            }
          ],
          "internalType": "struct InventoryStorage.Slot[]",
          "name": "existentSlots",
          "type": "tuple[]"
        }
      ],
      "stateMutability": "view",
      "type": "function"
    },
    {
      "inputs": [
        {
          "internalType": "bytes4",
          "name": "interfaceId",
          "type": "bytes4"
        }
      ],
      "name": "supportsInterface",
      "outputs": [
        {
          "internalType": "bool",
          "name": "",
          "type": "bool"
        }
      ],
      "stateMutability": "view",
      "type": "function"
    },
    {
      "inputs": [
        {
          "internalType": "uint256",
          "name": "arcadianId",
          "type": "uint256"
        },
        {
          "internalType": "uint256[]",
          "name": "slotIds",
          "type": "uint256[]"
        }
      ],
      "name": "unequip",
      "outputs": [],
      "stateMutability": "nonpayable",
      "type": "function"
    }
  ],
  "transactionHash": "0xd834b66af7de3267c0afa214f78a093fec92d5afaff5e7a4c3dc22ee61b13560",
  "args": [],
  "numDeployments": 4,
  "solcInputHash": "dfed9b36465c28e43c92f377bfc2803f",
  "bytecode": "0x608060405234801561001057600080fd5b50613086806100206000396000f3fe608060405234801561001057600080fd5b50600436106101425760003560e01c806389633e51116100b8578063b1b2fef41161007c578063b1b2fef4146102fb578063b2025e4f14610310578063bc197c811461039f578063c06ffe90146103d7578063ef0bf7de146103ea578063f23a6e611461040a57600080fd5b806389633e51146102a75780638e980d4d146102ba578063947687e7146102cd5780639621ff25146102e05780639e3ccb2a146102e857600080fd5b80634274a1431161010a5780634274a143146101e5578063473bdb98146101f8578063603f40ec1461020b578063633e2d5a1461024a5780637a8455a11461025d5780637f85db2d1461027057600080fd5b806301ffc9a7146101475780630f58dcda1461016f5780631da7c70a1461018f57806325989b45146101af5780632f8bd3c8146101c4575b600080fd5b61015a61015536600461274e565b610429565b60405190151581526020015b60405180910390f35b61018261017d3660046127c3565b610460565b604051610166919061280e565b6101a261019d366004612885565b610475565b60405161016691906128a2565b6101c26101bd3660046128f1565b610480565b005b6101d76101d2366004612973565b6104f8565b604051908152602001610166565b6101c26101f33660046129cf565b610503565b6101c26102063660046129cf565b61053b565b6101d7610219366004612a0d565b60009081527ff672b8dc84d117c1e14949d8bc3977392b5ab7de9d01b854d389cdc31bf0d43d602052604090205490565b6101d7610258366004612a0d565b61056e565b61015a61026b3660046129cf565b610579565b61028361027e366004612a26565b610586565b6040805182516001600160a01b031681526020928301519281019290925201610166565b6101d76102b5366004612a48565b6105ab565b6101c26102c83660046129cf565b6105b7565b6101c26102db366004612a89565b610614565b6101d761064e565b6101826102f6366004612a0d565b61065d565b610303610668565b6040516101669190612ae9565b61039261031e366004612a0d565b6040805160608082018352600080835260208084018290529284018190529384527ff672b8dc84d117c1e14949d8bc3977392b5ab7de9d01b854d389cdc31bf0d43782529282902082519384018352805484526001015460ff80821615159285019290925261010090041615159082015290565b6040516101669190612b43565b6103be6103ad366004612c9c565b63bc197c8160e01b95945050505050565b6040516001600160e01b03199091168152602001610166565b6101c26103e53660046127c3565b610672565b6103fd6103f8366004612a26565b6106c4565b6040516101669190612d49565b6103be610418366004612d73565b63f23a6e6160e01b95945050505050565b60006001600160e01b03198216630271189760e51b148061045a57506301ffc9a760e01b6001600160e01b03198316145b92915050565b606061046d8484846106d6565b949350505050565b606061045a82610800565b61049161048b6109ac565b336109d6565b1580156104c657506104c461048b7ff6deb63e40d71b08820818e006e23fcceb1fce7a499bc15b71b2526cbf9efa735490565b155b156104e457604051630b24262960e31b815260040160405180910390fd5b6104f18585858585610a0d565b5050505050565b600061045a82610bf5565b61050e61048b6109ac565b61052b5760405163d0befa1d60e01b815260040160405180910390fd5b610536838383610c63565b505050565b61054661048b6109ac565b6105635760405163d0befa1d60e01b815260040160405180910390fd5b610536838383610da8565b600061045a82611052565b600061046d8484846110c1565b60408051808201909152600080825260208201526105a48383611293565b9392505050565b60006105a4838361135d565b7f09acf4e54214992e70883cf7dcd6957ff2c71cd9e14df4bec4383bc0d11607dc80546002036105fa57604051635db5c7cd60e11b815260040160405180910390fd5b6002815561060b8484846000611438565b60019055505050565b61061f61048b6109ac565b61063c5760405163d0befa1d60e01b815260040160405180910390fd5b610648848484846117fb565b50505050565b60006106586118b6565b905090565b606061045a826118cc565b60606106586119d3565b7f09acf4e54214992e70883cf7dcd6957ff2c71cd9e14df4bec4383bc0d11607dc80546002036106b557604051635db5c7cd60e11b815260040160405180910390fd5b6002815561060b848484611ae4565b6106cc612724565b6105a48383611c30565b6060600080516020613031833981519152826001600160401b038111156106ff576106ff612b68565b60405190808252806020026020018201604052801561073857816020015b610725612724565b81526020019060019003908161071d5790505b50915060005b838110156107f757600086815260028301602052604081208187878581811061076957610769612ddb565b9050602002013581526020019081526020016000209050604051806060016040528087878581811061079d5761079d612ddb565b6020908102929092013583525083546001600160a01b031690820152600183015460409091015284518590849081106107d8576107d8612ddb565b60200260200101819052505080806107ef90612e07565b91505061073e565b50509392505050565b6000805160206130318339815191528054606091906000805b8281101561087357600061082e826001612e20565b6000818152600187810160205260409091200154909150610100900460ff1615610860578261085c81612e07565b9350505b508061086b81612e07565b915050610819565b506000816001600160401b0381111561088e5761088e612b68565b6040519080825280602002602001820160405280156108d357816020015b60408051808201909152600080825260208201528152602001906001900390816108ac5790505b5090506000805b848110156109a05760006108ef826001612e20565b6000818152600189810160205260409091200154909150610100900460ff16610918575061098e565b8084848151811061092b5761092b612ddb565b602090810291909101810151919091526001600160a01b038a16600090815260088901825260408082208483529092522054845185908590811061097157610971612ddb565b60209081029190910181015101528261098981612e07565b935050505b8061099881612e07565b9150506108da565b50909695505050505050565b60007ff6deb63e40d71b08820818e006e23fcceb1fce7a499bc15b71b2526cbf9efa725b54919050565b60008281527fd3889cc5458b268d0544e5534672df1296288ca3f93cbd39bd6f497a5c622811602052604081206105a49083611c9d565b828114610a2d576040516303f7219d60e41b815260040160405180910390fd5b600080516020613031833981519152805460005b85811015610b9a57868682818110610a5b57610a5b612ddb565b905060200201356000148015610a88575081878783818110610a7f57610a7f612ddb565b90506020020135115b15610aa65760405163d751397d60e01b815260040160405180910390fd5b826001016000888884818110610abe57610abe612ddb565b90506020020135815260200190815260200160002060010160019054906101000a900460ff16610b01576040516332fa2abb60e01b815260040160405180910390fd5b848482818110610b1357610b13612ddb565b90506020020135610b2f60008051602061303183398151915290565b6001600160a01b038a1660009081526008919091016020526040812090898985818110610b5e57610b5e612ddb565b9050602002013581526020019081526020016000206000828254610b829190612e20565b90915550819050610b9281612e07565b915050610a41565b50866001600160a01b0316336001600160a01b03167f79ef5dda420a532ad69ccb2d06e5304e6b2b0e93c99a27d63909c8ffce8faf4e88888888604051610be49493929190612e65565b60405180910390a350505050505050565b60007ff672b8dc84d117c1e14949d8bc3977392b5ab7de9d01b854d389cdc31bf0d43981610c266020850185612885565b6001600160a01b03166001600160a01b03168152602001908152602001600020600083602001358152602001908152602001600020549050919050565b82801580610c7f57506000805160206130318339815191525481115b15610c9d5760405163d751397d60e01b815260040160405180910390fd5b60008051602061303183398151915260005b83811015610d6b5785826003016000878785818110610cd057610cd0612ddb565b610ce69260206040909202019081019150612885565b6001600160a01b03166001600160a01b031681526020019081526020016000206000878785818110610d1a57610d1a612ddb565b9050604002016020013581526020019081526020016000205403610d5957610d5986868684818110610d4e57610d4e612ddb565b905060400201611cbf565b80610d6381612e07565b915050610caf565b5060405185815233907ff69b53fa14ee16895edbe90d00c7b7af9214baf87c69bf5594126b114c9337ed9060200160405180910390a25050505050565b82801580610dc457506000805160206130318339815191525481115b15610de25760405163d751397d60e01b815260040160405180910390fd5b60008051602061303183398151915260005b83811015610d6b57610e36858583818110610e1157610e11612ddb565b610e279260206040909202019081019150612885565b6001600160a01b03163b151590565b610e5357604051633c65e02b60e21b815260040160405180910390fd5b6000826003016000878785818110610e6d57610e6d612ddb565b610e839260206040909202019081019150612885565b6001600160a01b03166001600160a01b031681526020019081526020016000206000878785818110610eb757610eb7612ddb565b905060400201602001358152602001908152602001600020541115610f6e5785826003016000878785818110610eef57610eef612ddb565b610f059260206040909202019081019150612885565b6001600160a01b03166001600160a01b031681526020019081526020016000206000878785818110610f3957610f39612ddb565b90506040020160200135815260200190815260200160002054031561104057610f6e86868684818110610d4e57610d4e612ddb565b60008681526004830160205260409020858583818110610f9057610f90612ddb565b835460018101855560009485526020909420604090910292909201926002029091019050610fbe8282612e8c565b505085826003016000878785818110610fd957610fd9612ddb565b610fef9260206040909202019081019150612885565b6001600160a01b03166001600160a01b03168152602001908152602001600020600087878581811061102357611023612ddb565b905060400201602001358152602001908152602001600020819055505b8061104a81612e07565b915050610df4565b60008180158061107057506000805160206130318339815191525481115b1561108e5760405163d751397d60e01b815260040160405180910390fd5b505060009081527ff672b8dc84d117c1e14949d8bc3977392b5ab7de9d01b854d389cdc31bf0d43a602052604090205490565b6000805160206130318339815191528054600091906060835b828110156112715760006110ef826001612e20565b6000818152600187810160205260409091200154909150610100900460ff16611118575061125f565b604080518082019091526000808252602082015260005b8881101561119e57826111588b8b8481811061114d5761114d612ddb565b905060400201610bf5565b0361118c5789898281811061116f5761116f612ddb565b9050604002018036038101906111859190612ec6565b915061119e565b8061119681612e07565b91505061112f565b5080516001600160a01b03166112305760008a815260028701602090815260408083208584529091529020546001600160a01b031615611217575060008981526002860160209081526040808320848452825291829020825180840190935280546001600160a01b031683526001015490820152611230565b60405163a9614f1560e01b815260040160405180910390fd5b805160208083015160405161124b9388938793919201612f1d565b604051602081830303815290604052935050505b8061126981612e07565b9150506110da565b5080516020820120611287906005850190611e94565b15979650505050505050565b6040805180820190915260008082526020820152828015806112c357506000805160206130318339815191525481115b156112e15760405163d751397d60e01b815260040160405180910390fd5b60008481527ff672b8dc84d117c1e14949d8bc3977392b5ab7de9d01b854d389cdc31bf0d43a6020526040902080548490811061132057611320612ddb565b60009182526020918290206040805180820190915260029092020180546001600160a01b03168252600101549181019190915291505b5092915050565b60008180158061137b57506000805160206130318339815191525481115b156113995760405163d751397d60e01b815260040160405180910390fd5b60008381527ff672b8dc84d117c1e14949d8bc3977392b5ab7de9d01b854d389cdc31bf0d4376020526040902060010154610100900460ff166113ef576040516332fa2abb60e01b815260040160405180910390fd5b50506001600160a01b039190911660009081527ff672b8dc84d117c1e14949d8bc3977392b5ab7de9d01b854d389cdc31bf0d43e60209081526040808320938352929052205490565b6040516331a9108f60e11b815260048101859052849030908190636352211e90602401602060405180830381865afa158015611478573d6000803e3d6000fd5b505050506040513d601f19601f8201168201806040525081019061149c9190612f6e565b6001600160a01b0316336001600160a01b0316146114cd5760405163aee05b5d60e01b815260040160405180910390fd5b60008490036114ef5760405163627652c960e11b815260040160405180910390fd5b600080516020613031833981519152600080866001600160401b0381111561151957611519612b68565b604051908082528060200260200182016040528015611542578160200160208202803683370190505b50905060005b878110156115d75760006115748b8b8b8581811061156857611568612ddb565b9050604002018a611eac565b6000818152600187810160205260409091200154909150610100900460ff16156115a657836115a281612e07565b9450505b808383815181106115b9576115b9612ddb565b602090810291909101015250806115cf81612e07565b915050611548565b506115e18961221d565b6115fe5760405163a9614f1560e01b815260040160405180910390fd5b81156117ae5761160d896122ec565b6116295760405162ecf30560e51b815260040160405180910390fd5b856117ae576000826001600160401b0381111561164857611648612b68565b604051908082528060200260200182016040528015611671578160200160208202803683370190505b5090506000805b898110156117695760008660030160008d8d8581811061169a5761169a612ddb565b6116b09260206040909202019081019150612885565b6001600160a01b03166001600160a01b0316815260200190815260200160002060008d8d858181106116e4576116e4612ddb565b90506040020160200135815260200190815260200160002054905086600101600082815260200190815260200160002060010160019054906101000a900460ff1615611756578084848151811061173d5761173d612ddb565b60209081029190910101528261175281612e07565b9350505b508061176181612e07565b915050611678565b50336001600160a01b03167f89bd170ed02db0339b3c90b91de53c2a07b48ad36cd559f2d04dd3c72521dacd836040516117a39190612f8b565b60405180910390a250505b88336001600160a01b03167f557dc03f902756383ba5a748ab63ec6ec44b2880dba84ad33dc6ffe670f18861836040516117e89190612f8b565b60405180910390a3505050505050505050565b6000805160206130318339815191528054600190829060009061181f908490612e20565b90915550508054600081815260018084016020526040909120908101805461ffff191688151561ff0019161761010088151502179055819055821561186957611869818585610da8565b60408051828152871515602082015286151581830152905133917ff24b969da6d469bdd7271673478fb6360f5008752c5991749abbdb4624727012919081900360600190a2505050505050565b60006000805160206130318339815191526109d0565b600080516020613031833981519152805460609190806001600160401b038111156118f9576118f9612b68565b60405190808252806020026020018201604052801561193257816020015b61191f612724565b8152602001906001900390816119175790505b50925060005b818110156119cb57600061194d826001612e20565b60008781526002860160209081526040808320848452825291829020825160608101845284815281546001600160a01b031692810192909252600181015492820192909252875192935090918790859081106119ab576119ab612ddb565b6020026020010181905250505080806119c390612e07565b915050611938565b505050919050565b600080516020613031833981519152805460609190806001600160401b03811115611a0057611a00612b68565b604051908082528060200260200182016040528015611a4b57816020015b6040805160608101825260008082526020808301829052928201528252600019909201910181611a1e5790505b50925060005b81811015611ade576000611a66826001612e20565b60008181526001808701602090815260409283902083516060810185528154815292015460ff808216151592840192909252610100900416151591810191909152865191925090869084908110611abf57611abf612ddb565b6020026020010181905250508080611ad690612e07565b915050611a51565b50505090565b6040516331a9108f60e11b815260048101849052839030908190636352211e90602401602060405180830381865afa158015611b24573d6000803e3d6000fd5b505050506040513d601f19601f82011682018060405250810190611b489190612f6e565b6001600160a01b0316336001600160a01b031614611b795760405163aee05b5d60e01b815260040160405180910390fd5b6000839003611b9b57604051635740c67760e11b815260040160405180910390fd5b60005b83811015611bda57611bc886868684818110611bbc57611bbc612ddb565b9050602002013561240c565b80611bd281612e07565b915050611b9e565b50611be4856122ec565b5084336001600160a01b03167f3822f2cd6d118934e31e6171da74d9d46131fb402be1861b3cb4460440aeab638686604051611c21929190612fc3565b60405180910390a35050505050565b611c38612724565b5060009182527ff672b8dc84d117c1e14949d8bc3977392b5ab7de9d01b854d389cdc31bf0d43860209081526040808420838552825292839020835160608101855292835280546001600160a01b031691830191909152600101549181019190915290565b6001600160a01b038116600090815260018301602052604081205415156105a4565b60008281527ff672b8dc84d117c1e14949d8bc3977392b5ab7de9d01b854d389cdc31bf0d43a6020526040812054600080516020613031833981519152915b81811015611e415783602001358360040160008781526020019081526020016000208281548110611d3157611d31612ddb565b90600052602060002090600202016001015403611e2f5760008581526004840160205260409020611d63600184612fd7565b81548110611d7357611d73612ddb565b90600052602060002090600202018360040160008781526020019081526020016000208281548110611da757611da7612ddb565b60009182526020808320845460029093020180546001600160a01b0319166001600160a01b0390931692909217825560019384015493909101929092558681526004850190915260409020805480611e0157611e01612fea565b60008281526020812060026000199093019283020180546001600160a01b0319168155600101559055611e41565b80611e3981612e07565b915050611cfe565b50600382016000611e556020860186612885565b6001600160a01b03166001600160a01b031681526020019081526020016000206000846020013581526020019081526020016000206000905550505050565b600081815260018301602052604081205415156105a4565b60006000805160206130318339815191527ff672b8dc84d117c1e14949d8bc3977392b5ab7de9d01b854d389cdc31bf0d43982611eec6020870187612885565b6001600160a01b03168152602080820192909252604090810160009081208784013582529092529020549150811580611f3357506000805160206130318339815191525482115b15611f51576040516363efa0e360e01b815260040160405180910390fd5b82158015611f7757506000828152600182810160205260409091200154610100900460ff165b15611fe857336000908152600882016020908152604080832085845290915290205460011115611fba5760405163bbd28dfd60e01b815260040160405180910390fd5b33600090815260088201602090815260408083208584529091528120805491611fe283613000565b91905055505b60008581526002820160209081526040808320858452825280832060018086019093529220015460ff168015612027575080546001600160a01b031615155b156120455760405163bd8a5e1560e01b815260040160405180910390fd5b6120526020860186612885565b81546001600160a01b039081169116148015612075575084602001358160010154145b156120935760405163c80df0cb60e01b815260040160405180910390fd5b600086815260028301602090815260408083208684529091529020546001600160a01b0316156120c7576120c7868461252a565b60006120d66020870187612885565b604051627eeac760e11b8152336004820152602088013560248201529091506001906001600160a01b0383169062fdd58e90604401602060405180830381865afa158015612128573d6000803e3d6000fd5b505050506040513d601f19601f8201168201806040525081019061214c9190613017565b101561216b576040516335ba250d60e11b815260040160405180910390fd5b604051637921219560e11b8152336004820152306024820152602087013560448201526001606482015260a06084820152600060a48201526001600160a01b0382169063f242432a9060c401600060405180830381600087803b1580156121d157600080fd5b505af11580156121e5573d6000803e3d6000fd5b5050506000888152600285016020908152604080832088845290915290208791506122108282612e8c565b9050505050509392505050565b600080516020613031833981519152805460009190825b818110156122e1576000612249826001612e20565b6000818152600186810160205260409091200154909150610100900460ff1661227257506122cf565b6000818152600185810160205260409091200154610100900460ff1680156122bc5750600086815260028501602090815260408083208484529091529020546001600160a01b0316155b156122cd5750600095945050505050565b505b806122d981612e07565b915050612234565b506001949350505050565b600080516020613031833981519152805460009190606090835b818110156123aa57600061231b826001612e20565b6000818152600187810160205260409091200154909150610100900460ff166123445750612398565b60008781526002860160209081526040808320848452825291829020805460018201549351919361238493899387936001600160a01b0316929101612f1d565b604051602081830303815290604052945050505b806123a281612e07565b915050612306565b50815160208301206123bf6005850182611e94565b6000878152600786016020526040902054901595506123e290600586019061260f565b506123f0600585018261261b565b5060009586526007909301602052505060409092209190915590565b8080158061242857506000805160206130318339815191525481115b156124465760405163d751397d60e01b815260040160405180910390fd5b60008281527ff672b8dc84d117c1e14949d8bc3977392b5ab7de9d01b854d389cdc31bf0d43760205260409020600101546000805160206130318339815191529060ff16156124a85760405163bd8a5e1560e01b815260040160405180910390fd5b600084815260028201602090815260408083208684529091529020546001600160a01b03166124ea57604051632755285560e01b815260040160405180910390fd5b6000838152600182810160205260409091200154610100900460ff16156125245760405163abfc1e6160e01b815260040160405180910390fd5b61064884845b60006000805160206130318339815191526000848152600282016020908152604080832086845290915280822080546001808301549351637921219560e11b81523060048201523360248201526044810194909452606484015260a0608484015260a48301939093529293506001600160a01b0390911690819063f242432a9060c401600060405180830381600087803b1580156125c757600080fd5b505af11580156125db573d6000803e3d6000fd5b505050600095865250505060020160209081526040808420928452919052812080546001600160a01b031916815560010155565b60006105a48383612627565b60006105a483836126e1565b600081815260018301602052604081205480156113565783546000908590600019810190811061265957612659612ddb565b906000526020600020015490508085600001600184038154811061267f5761267f612ddb565b60009182526020808320909101929092559182526001860190526040902081905583548490806126b1576126b1612fea565b60008281526020808220830160001990810183905590920190925593815260019485019093525050604081205590565b600081815260018301602052604081205461045a575081546001808201845560008481526020808220909301849055845493815293810190915260409092205590565b60405180606001604052806000815260200160006001600160a01b03168152602001600081525090565b60006020828403121561276057600080fd5b81356001600160e01b0319811681146105a457600080fd5b60008083601f84011261278a57600080fd5b5081356001600160401b038111156127a157600080fd5b6020830191508360208260051b85010111156127bc57600080fd5b9250929050565b6000806000604084860312156127d857600080fd5b8335925060208401356001600160401b038111156127f557600080fd5b61280186828701612778565b9497909650939450505050565b6020808252825182820181905260009190848201906040850190845b818110156109a05761285a838551805182526020808201516001600160a01b031690830152604090810151910152565b928401926060929092019160010161282a565b6001600160a01b038116811461288257600080fd5b50565b60006020828403121561289757600080fd5b81356105a48161286d565b602080825282518282018190526000919060409081850190868401855b828110156128e4578151805185528601518685015292840192908501906001016128bf565b5091979650505050505050565b60008060008060006060868803121561290957600080fd5b85356129148161286d565b945060208601356001600160401b038082111561293057600080fd5b61293c89838a01612778565b9096509450604088013591508082111561295557600080fd5b5061296288828901612778565b969995985093965092949392505050565b60006040828403121561298557600080fd5b50919050565b60008083601f84011261299d57600080fd5b5081356001600160401b038111156129b457600080fd5b6020830191508360208260061b85010111156127bc57600080fd5b6000806000604084860312156129e457600080fd5b8335925060208401356001600160401b03811115612a0157600080fd5b6128018682870161298b565b600060208284031215612a1f57600080fd5b5035919050565b60008060408385031215612a3957600080fd5b50508035926020909101359150565b60008060408385031215612a5b57600080fd5b8235612a668161286d565b946020939093013593505050565b80358015158114612a8457600080fd5b919050565b60008060008060608587031215612a9f57600080fd5b612aa885612a74565b9350612ab660208601612a74565b925060408501356001600160401b03811115612ad157600080fd5b612add8782880161298b565b95989497509550505050565b6020808252825182820181905260009190848201906040850190845b818110156109a057612b30838551805182526020808201511515908301526040908101511515910152565b9284019260609290920191600101612b05565b815181526020808301511515908201526040808301511515908201526060810161045a565b634e487b7160e01b600052604160045260246000fd5b604051601f8201601f191681016001600160401b0381118282101715612ba657612ba6612b68565b604052919050565b600082601f830112612bbf57600080fd5b813560206001600160401b03821115612bda57612bda612b68565b8160051b612be9828201612b7e565b9283528481018201928281019087851115612c0357600080fd5b83870192505b84831015612c2257823582529183019190830190612c09565b979650505050505050565b600082601f830112612c3e57600080fd5b81356001600160401b03811115612c5757612c57612b68565b612c6a601f8201601f1916602001612b7e565b818152846020838601011115612c7f57600080fd5b816020850160208301376000918101602001919091529392505050565b600080600080600060a08688031215612cb457600080fd5b8535612cbf8161286d565b94506020860135612ccf8161286d565b935060408601356001600160401b0380821115612ceb57600080fd5b612cf789838a01612bae565b94506060880135915080821115612d0d57600080fd5b612d1989838a01612bae565b93506080880135915080821115612d2f57600080fd5b50612d3c88828901612c2d565b9150509295509295909350565b815181526020808301516001600160a01b031690820152604080830151908201526060810161045a565b600080600080600060a08688031215612d8b57600080fd5b8535612d968161286d565b94506020860135612da68161286d565b9350604086013592506060860135915060808601356001600160401b03811115612dcf57600080fd5b612d3c88828901612c2d565b634e487b7160e01b600052603260045260246000fd5b634e487b7160e01b600052601160045260246000fd5b600060018201612e1957612e19612df1565b5060010190565b8082018082111561045a5761045a612df1565b81835260006001600160fb1b03831115612e4c57600080fd5b8260051b80836020870137939093016020019392505050565b604081526000612e79604083018688612e33565b8281036020840152612c22818587612e33565b8135612e978161286d565b6001600160a01b0381166bffffffffffffffffffffffff60a01b83541617825550602082013560018201555050565b600060408284031215612ed857600080fd5b604051604081018181106001600160401b0382111715612efa57612efa612b68565b6040528235612f088161286d565b81526020928301359281019290925250919050565b6000855160005b81811015612f3e5760208189018101518583015201612f24565b50919091019384525060609190911b6bffffffffffffffffffffffff191660208301526034820152605401919050565b600060208284031215612f8057600080fd5b81516105a48161286d565b6020808252825182820181905260009190848201906040850190845b818110156109a057835183529284019291840191600101612fa7565b60208152600061046d602083018486612e33565b8181038181111561045a5761045a612df1565b634e487b7160e01b600052603160045260246000fd5b60008161300f5761300f612df1565b506000190190565b60006020828403121561302957600080fd5b505191905056fef672b8dc84d117c1e14949d8bc3977392b5ab7de9d01b854d389cdc31bf0d436a2646970667358221220d2f75fabea6d0b9cd69f9f9ed054842de895c103f4fbeb1ec57b62171259804664736f6c63430008130033",
  "devdoc": {
    "details": "This contract is responsible for managing the inventory system for the Arcadians using slots.  It defines the functionality to equip and unequip items to Arcadians, check if a combination of items  are unique, and retrieve the inventory slots and allowed items for a slot.  This contract also implements ERC1155Holder to handle ERC1155 token transfers This contract can be used as a facet of a diamond which follows the EIP-2535 diamond standard. It also uses the ReentrancyGuard and Multicall contracts for security and gas efficiency.",
    "kind": "dev",
    "methods": {
      "addBaseModifierCoupons(address,uint256[],uint256[])": {
        "params": {
          "account": "The account to increase the number of coupons",
          "amounts": "the amounts of coupons to increase",
          "slotsIds": "The slots ids to increase the number of coupons"
        }
      },
      "allowItemsInSlot(uint256,(address,uint256)[])": {
        "params": {
          "items": "The list of items to allow in the slot",
          "slotId": "The slot id"
        }
      },
      "allowedItem(uint256,uint256)": {
        "params": {
          "index": "The index of the item",
          "slotId": "The slot id to query"
        },
        "returns": {
          "_0": "A list of all the items that are allowed in the slot"
        }
      },
      "allowedSlot((address,uint256))": {
        "params": {
          "item": "The item to check"
        },
        "returns": {
          "_0": "The allowed slot id for the item. Slots are 1-indexed."
        }
      },
      "createSlot(bool,bool,(address,uint256)[])": {
        "details": "This function is only accessible to the manager roleSlots are 1-indexed",
        "params": {
          "isBase": "If the slot is base",
          "items": "The list of items to allow in the slot",
          "permanent": "Whether or not the slot can be unequipped once equipped"
        }
      },
      "disallowItemsInSlot(uint256,(address,uint256)[])": {
        "params": {
          "items": "The list of items to disallow in the slot",
          "slotId": "The ID of the inventory slot"
        }
      },
      "equip(uint256,(address,uint256)[])": {
        "params": {
          "arcadianId": "The ID of the Arcadian NFT to equip the items for",
          "items": "An array of items to equip in the corresponding slots"
        }
      },
      "equipped(uint256,uint256)": {
        "params": {
          "arcadianId": "The ID of the Arcadian NFT to query",
          "slotId": "The slot id to query"
        }
      },
      "equippedAll(uint256)": {
        "params": {
          "arcadianId": "The ID of the Arcadian NFT to query"
        }
      },
      "equippedBatch(uint256,uint256[])": {
        "params": {
          "arcadianId": "The ID of the Arcadian NFT to query",
          "slotIds": "The slots ids to query"
        }
      },
      "getBaseModifierCoupon(address,uint256)": {
        "params": {
          "account": "The accounts to increase the number of coupons",
          "slotId": "The slot to get the coupon amount from"
        }
      },
      "getBaseModifierCouponAll(address)": {
        "params": {
          "account": "The accounts to increase the number of coupons"
        }
      },
      "isArcadianUnique(uint256,(address,uint256)[])": {
        "details": "The uniqueness is calculated using the existent arcadian items and the input items as wellOnly items equipped in 'base' slots are considered for uniqueness",
        "params": {
          "arcadianId": "The ID of the Arcadian NFT to query",
          "items": "An array of items to check for uniqueness after \"equipped\" over the existent arcadian items."
        }
      },
      "numAllowedItems(uint256)": {
        "params": {
          "slotId": "The slot id to check"
        },
        "returns": {
          "_0": "A list of all the items that are allowed in the slot"
        }
      },
      "numSlots()": {
        "details": "Slots are 1-indexed",
        "returns": {
          "_0": "The number of inventory slots "
        }
      },
      "slot(uint256)": {
        "details": "Slots are 1-indexed",
        "params": {
          "slotId": "The ID of the inventory slot"
        },
        "returns": {
          "existentSlot": "The details of the inventory slot"
        }
      },
      "slotsAll()": {
        "details": "Slots are 1-indexed",
        "returns": {
          "existentSlots": "The details of all the inventory slots"
        }
      },
      "supportsInterface(bytes4)": {
        "details": "See {IERC165-supportsInterface}."
      },
      "unequip(uint256,uint256[])": {
        "params": {
          "arcadianId": "The ID of the Arcadian NFT to equip the item for",
          "slotIds": "The slots ids in which the items will be unequipped"
        }
      }
    },
    "title": "InventoryFacet",
    "version": 1
  },
  "userdoc": {
    "kind": "user",
    "methods": {
      "addBaseModifierCoupons(address,uint256[],uint256[])": {
        "notice": "Adds coupons to accounts that allow to modify the base traits"
      },
      "allowItemsInSlot(uint256,(address,uint256)[])": {
        "notice": "Adds items to the list of allowed items for an inventory slot"
      },
      "allowedItem(uint256,uint256)": {
        "notice": "Returns the allowed item for a given slot and the index"
      },
      "allowedSlot((address,uint256))": {
        "notice": "Returns the allowed slot for a given item"
      },
      "createSlot(bool,bool,(address,uint256)[])": {
        "notice": "Creates a new inventory slot"
      },
      "disallowItemsInSlot(uint256,(address,uint256)[])": {
        "notice": "Removes items from the list of allowed items"
      },
      "equip(uint256,(address,uint256)[])": {
        "notice": "Equips multiple items to multiple slots for a specified Arcadian NFT"
      },
      "equipped(uint256,uint256)": {
        "notice": "Retrieves the equipped item in a slot for a specified Arcadian NFT"
      },
      "equippedAll(uint256)": {
        "notice": "Retrieves all the equipped items for a specified Arcadian NFT"
      },
      "equippedBatch(uint256,uint256[])": {
        "notice": "Retrieves the equipped items in the slot of an Arcadian NFT"
      },
      "getBaseModifierCoupon(address,uint256)": {
        "notice": "Returns the number coupons available for an account that allow to modify the base traits"
      },
      "getBaseModifierCouponAll(address)": {
        "notice": "Returns the number coupons available for an account that allow to modify the base traits"
      },
      "isArcadianUnique(uint256,(address,uint256)[])": {
        "notice": "Indicates if a list of items applied to an the arcadian is unique"
      },
      "numAllowedItems(uint256)": {
        "notice": "Returns the number of allowed items for a given slot"
      },
      "numSlots()": {
        "notice": "Returns the number of inventory slots"
      },
      "slot(uint256)": {
        "notice": "Returns the details of an inventory slot given its ID"
      },
      "slotsAll()": {
        "notice": "Returns the details of all the existent slots"
      },
      "unequip(uint256,uint256[])": {
        "notice": "Unequips the items equipped in multiple slots for a specified Arcadian NFT"
      }
    },
    "version": 1
  },
  "storageLayout": {
    "storage": [],
    "types": null
  }
}