{
  "address": "0x6701e7B01C63579B548C43a6192243d6B95d67c5",
  "abi": [
    {
      "inputs": [],
      "name": "EnumerableSet__IndexOutOfBounds",
      "type": "error"
    },
    {
      "inputs": [],
      "name": "ReentrancyGuard__ReentrantCall",
      "type": "error"
    },
    {
      "inputs": [],
      "name": "UintUtils__InsufficientHexLength",
      "type": "error"
    },
    {
      "anonymous": false,
      "inputs": [
        {
          "indexed": true,
          "internalType": "address",
          "name": "oldArcadiansAddress",
          "type": "address"
        },
        {
          "indexed": true,
          "internalType": "address",
          "name": "newArcadiansAddress",
          "type": "address"
        }
      ],
      "name": "ArcadiansAddressChanged",
      "type": "event"
    },
    {
      "anonymous": false,
      "inputs": [
        {
          "indexed": true,
          "internalType": "address",
          "name": "by",
          "type": "address"
        },
        {
          "indexed": false,
          "internalType": "uint256",
          "name": "slot",
          "type": "uint256"
        },
        {
          "indexed": false,
          "internalType": "address",
          "name": "itemAddress",
          "type": "address"
        },
        {
          "indexed": false,
          "internalType": "uint256[]",
          "name": "allowedItems",
          "type": "uint256[]"
        }
      ],
      "name": "ItemsAllowedInSlotUpdated",
      "type": "event"
    },
    {
      "anonymous": false,
      "inputs": [
        {
          "indexed": true,
          "internalType": "address",
          "name": "by",
          "type": "address"
        },
        {
          "indexed": true,
          "internalType": "uint256",
          "name": "arcadianId",
          "type": "uint256"
        },
        {
          "indexed": false,
          "internalType": "uint256[]",
          "name": "slots",
          "type": "uint256[]"
        },
        {
          "components": [
            {
              "internalType": "address",
              "name": "itemAddress",
              "type": "address"
            },
            {
              "internalType": "uint256",
              "name": "id",
              "type": "uint256"
            },
            {
              "internalType": "uint256",
              "name": "amount",
              "type": "uint256"
            }
          ],
          "indexed": false,
          "internalType": "struct InventoryStorage.EquippedItem[]",
          "name": "equippedItems",
          "type": "tuple[]"
        }
      ],
      "name": "ItemsEquipped",
      "type": "event"
    },
    {
      "anonymous": false,
      "inputs": [
        {
          "indexed": true,
          "internalType": "address",
          "name": "by",
          "type": "address"
        },
        {
          "indexed": true,
          "internalType": "uint256",
          "name": "arcadianId",
          "type": "uint256"
        },
        {
          "indexed": false,
          "internalType": "uint256[]",
          "name": "slots",
          "type": "uint256[]"
        }
      ],
      "name": "ItemsUnequipped",
      "type": "event"
    },
    {
      "anonymous": false,
      "inputs": [
        {
          "indexed": true,
          "internalType": "bytes32",
          "name": "role",
          "type": "bytes32"
        },
        {
          "indexed": true,
          "internalType": "bytes32",
          "name": "previousAdminRole",
          "type": "bytes32"
        },
        {
          "indexed": true,
          "internalType": "bytes32",
          "name": "newAdminRole",
          "type": "bytes32"
        }
      ],
      "name": "RoleAdminChanged",
      "type": "event"
    },
    {
      "anonymous": false,
      "inputs": [
        {
          "indexed": true,
          "internalType": "bytes32",
          "name": "role",
          "type": "bytes32"
        },
        {
          "indexed": true,
          "internalType": "address",
          "name": "account",
          "type": "address"
        },
        {
          "indexed": true,
          "internalType": "address",
          "name": "sender",
          "type": "address"
        }
      ],
      "name": "RoleGranted",
      "type": "event"
    },
    {
      "anonymous": false,
      "inputs": [
        {
          "indexed": true,
          "internalType": "bytes32",
          "name": "role",
          "type": "bytes32"
        },
        {
          "indexed": true,
          "internalType": "address",
          "name": "account",
          "type": "address"
        },
        {
          "indexed": true,
          "internalType": "address",
          "name": "sender",
          "type": "address"
        }
      ],
      "name": "RoleRevoked",
      "type": "event"
    },
    {
      "anonymous": false,
      "inputs": [
        {
          "indexed": true,
          "internalType": "address",
          "name": "by",
          "type": "address"
        },
        {
          "indexed": false,
          "internalType": "uint256",
          "name": "capacity",
          "type": "uint256"
        },
        {
          "indexed": false,
          "internalType": "bool",
          "name": "unequippable",
          "type": "bool"
        },
        {
          "indexed": false,
          "internalType": "uint256",
          "name": "slot",
          "type": "uint256"
        }
      ],
      "name": "SlotCreated",
      "type": "event"
    },
    {
      "inputs": [
        {
          "internalType": "uint256",
          "name": "slot",
          "type": "uint256"
        },
        {
          "internalType": "address",
          "name": "itemAddress",
          "type": "address"
        },
        {
          "internalType": "uint256[]",
          "name": "itemIds",
          "type": "uint256[]"
        }
      ],
      "name": "allowItemsInSlot",
      "outputs": [],
      "stateMutability": "nonpayable",
      "type": "function"
    },
    {
      "inputs": [
        {
          "internalType": "uint256[]",
          "name": "slots",
          "type": "uint256[]"
        },
        {
          "internalType": "address[]",
          "name": "itemsAddress",
          "type": "address[]"
        },
        {
          "internalType": "uint256[]",
          "name": "itemsIds",
          "type": "uint256[]"
        }
      ],
      "name": "baseSlotsUnique",
      "outputs": [
        {
          "internalType": "bool",
          "name": "",
          "type": "bool"
        }
      ],
      "stateMutability": "view",
      "type": "function"
    },
    {
      "inputs": [
        {
          "internalType": "uint256",
          "name": "capacity",
          "type": "uint256"
        },
        {
          "internalType": "bool",
          "name": "unequippable",
          "type": "bool"
        },
        {
          "internalType": "enum InventoryStorage.SlotCategory",
          "name": "category",
          "type": "uint8"
        },
        {
          "internalType": "address",
          "name": "itemAddress",
          "type": "address"
        },
        {
          "internalType": "uint256[]",
          "name": "allowedItemIds",
          "type": "uint256[]"
        }
      ],
      "name": "createSlot",
      "outputs": [],
      "stateMutability": "nonpayable",
      "type": "function"
    },
    {
      "inputs": [
        {
          "internalType": "uint256",
          "name": "slot",
          "type": "uint256"
        },
        {
          "internalType": "address",
          "name": "itemAddress",
          "type": "address"
        },
        {
          "internalType": "uint256[]",
          "name": "itemIds",
          "type": "uint256[]"
        }
      ],
      "name": "disallowItemsInSlot",
      "outputs": [],
      "stateMutability": "nonpayable",
      "type": "function"
    },
    {
      "inputs": [
        {
          "internalType": "uint256",
          "name": "arcadianId",
          "type": "uint256"
        },
        {
          "internalType": "uint256",
          "name": "slot",
          "type": "uint256"
        },
        {
          "components": [
            {
              "internalType": "address",
              "name": "itemAddress",
              "type": "address"
            },
            {
              "internalType": "uint256",
              "name": "id",
              "type": "uint256"
            },
            {
              "internalType": "uint256",
              "name": "amount",
              "type": "uint256"
            }
          ],
          "internalType": "struct InventoryStorage.EquippedItem",
          "name": "itemsToEquip",
          "type": "tuple"
        }
      ],
      "name": "equip",
      "outputs": [],
      "stateMutability": "nonpayable",
      "type": "function"
    },
    {
      "inputs": [
        {
          "internalType": "uint256",
          "name": "arcadianId",
          "type": "uint256"
        },
        {
          "internalType": "uint256[]",
          "name": "slots",
          "type": "uint256[]"
        },
        {
          "components": [
            {
              "internalType": "address",
              "name": "itemAddress",
              "type": "address"
            },
            {
              "internalType": "uint256",
              "name": "id",
              "type": "uint256"
            },
            {
              "internalType": "uint256",
              "name": "amount",
              "type": "uint256"
            }
          ],
          "internalType": "struct InventoryStorage.EquippedItem[]",
          "name": "itemsToEquip",
          "type": "tuple[]"
        }
      ],
      "name": "equipBatch",
      "outputs": [],
      "stateMutability": "nonpayable",
      "type": "function"
    },
    {
      "inputs": [
        {
          "internalType": "uint256",
          "name": "arcadianId",
          "type": "uint256"
        },
        {
          "internalType": "uint256",
          "name": "slot",
          "type": "uint256"
        }
      ],
      "name": "equipped",
      "outputs": [
        {
          "components": [
            {
              "internalType": "address",
              "name": "itemAddress",
              "type": "address"
            },
            {
              "internalType": "uint256",
              "name": "id",
              "type": "uint256"
            },
            {
              "internalType": "uint256",
              "name": "amount",
              "type": "uint256"
            }
          ],
          "internalType": "struct InventoryStorage.EquippedItem",
          "name": "item",
          "type": "tuple"
        }
      ],
      "stateMutability": "view",
      "type": "function"
    },
    {
      "inputs": [
        {
          "internalType": "uint256",
          "name": "arcadianId",
          "type": "uint256"
        }
      ],
      "name": "equippedAll",
      "outputs": [
        {
          "components": [
            {
              "internalType": "address",
              "name": "itemAddress",
              "type": "address"
            },
            {
              "internalType": "uint256",
              "name": "id",
              "type": "uint256"
            },
            {
              "internalType": "uint256",
              "name": "amount",
              "type": "uint256"
            }
          ],
          "internalType": "struct InventoryStorage.EquippedItem[]",
          "name": "item",
          "type": "tuple[]"
        }
      ],
      "stateMutability": "view",
      "type": "function"
    },
    {
      "inputs": [
        {
          "internalType": "uint256",
          "name": "slot",
          "type": "uint256"
        },
        {
          "internalType": "address",
          "name": "itemAddress",
          "type": "address"
        }
      ],
      "name": "getAllowedItems",
      "outputs": [
        {
          "internalType": "uint256[]",
          "name": "",
          "type": "uint256[]"
        }
      ],
      "stateMutability": "view",
      "type": "function"
    },
    {
      "inputs": [
        {
          "internalType": "address",
          "name": "itemAddress",
          "type": "address"
        },
        {
          "internalType": "uint256",
          "name": "itemId",
          "type": "uint256"
        }
      ],
      "name": "getAllowedSlots",
      "outputs": [
        {
          "internalType": "uint256[]",
          "name": "",
          "type": "uint256[]"
        }
      ],
      "stateMutability": "view",
      "type": "function"
    },
    {
      "inputs": [
        {
          "internalType": "uint256",
          "name": "slot",
          "type": "uint256"
        }
      ],
      "name": "getSlot",
      "outputs": [
        {
          "components": [
            {
              "internalType": "uint256",
              "name": "capacity",
              "type": "uint256"
            },
            {
              "internalType": "bool",
              "name": "isUnequippable",
              "type": "bool"
            },
            {
              "internalType": "enum InventoryStorage.SlotCategory",
              "name": "category",
              "type": "uint8"
            }
          ],
          "internalType": "struct InventoryStorage.Slot",
          "name": "",
          "type": "tuple"
        }
      ],
      "stateMutability": "view",
      "type": "function"
    },
    {
      "inputs": [],
      "name": "numSlots",
      "outputs": [
        {
          "internalType": "uint256",
          "name": "",
          "type": "uint256"
        }
      ],
      "stateMutability": "view",
      "type": "function"
    },
    {
      "inputs": [
        {
          "internalType": "address",
          "name": "",
          "type": "address"
        },
        {
          "internalType": "address",
          "name": "",
          "type": "address"
        },
        {
          "internalType": "uint256[]",
          "name": "",
          "type": "uint256[]"
        },
        {
          "internalType": "uint256[]",
          "name": "",
          "type": "uint256[]"
        },
        {
          "internalType": "bytes",
          "name": "",
          "type": "bytes"
        }
      ],
      "name": "onERC1155BatchReceived",
      "outputs": [
        {
          "internalType": "bytes4",
          "name": "",
          "type": "bytes4"
        }
      ],
      "stateMutability": "nonpayable",
      "type": "function"
    },
    {
      "inputs": [
        {
          "internalType": "address",
          "name": "",
          "type": "address"
        },
        {
          "internalType": "address",
          "name": "",
          "type": "address"
        },
        {
          "internalType": "uint256",
          "name": "",
          "type": "uint256"
        },
        {
          "internalType": "uint256",
          "name": "",
          "type": "uint256"
        },
        {
          "internalType": "bytes",
          "name": "",
          "type": "bytes"
        }
      ],
      "name": "onERC1155Received",
      "outputs": [
        {
          "internalType": "bytes4",
          "name": "",
          "type": "bytes4"
        }
      ],
      "stateMutability": "nonpayable",
      "type": "function"
    },
    {
      "inputs": [
        {
          "internalType": "address",
          "name": "",
          "type": "address"
        },
        {
          "internalType": "address",
          "name": "",
          "type": "address"
        },
        {
          "internalType": "uint256",
          "name": "",
          "type": "uint256"
        },
        {
          "internalType": "bytes",
          "name": "",
          "type": "bytes"
        }
      ],
      "name": "onERC721Received",
      "outputs": [
        {
          "internalType": "bytes4",
          "name": "",
          "type": "bytes4"
        }
      ],
      "stateMutability": "nonpayable",
      "type": "function"
    },
    {
      "inputs": [
        {
          "internalType": "uint256[]",
          "name": "slots",
          "type": "uint256[]"
        },
        {
          "internalType": "address[]",
          "name": "itemsAddresses",
          "type": "address[]"
        },
        {
          "internalType": "uint256[]",
          "name": "itemsIds",
          "type": "uint256[]"
        }
      ],
      "name": "sortSlots",
      "outputs": [
        {
          "internalType": "uint256[]",
          "name": "",
          "type": "uint256[]"
        },
        {
          "internalType": "address[]",
          "name": "",
          "type": "address[]"
        },
        {
          "internalType": "uint256[]",
          "name": "",
          "type": "uint256[]"
        }
      ],
      "stateMutability": "pure",
      "type": "function"
    },
    {
      "inputs": [
        {
          "internalType": "bytes4",
          "name": "interfaceId",
          "type": "bytes4"
        }
      ],
      "name": "supportsInterface",
      "outputs": [
        {
          "internalType": "bool",
          "name": "",
          "type": "bool"
        }
      ],
      "stateMutability": "view",
      "type": "function"
    },
    {
      "inputs": [
        {
          "internalType": "uint256",
          "name": "arcadianId",
          "type": "uint256"
        },
        {
          "internalType": "uint256",
          "name": "slot",
          "type": "uint256"
        }
      ],
      "name": "unequip",
      "outputs": [],
      "stateMutability": "nonpayable",
      "type": "function"
    },
    {
      "inputs": [
        {
          "internalType": "uint256",
          "name": "arcadianId",
          "type": "uint256"
        }
      ],
      "name": "unequipAll",
      "outputs": [],
      "stateMutability": "nonpayable",
      "type": "function"
    },
    {
      "inputs": [
        {
          "internalType": "uint256",
          "name": "arcadianId",
          "type": "uint256"
        },
        {
          "internalType": "uint256[]",
          "name": "slots",
          "type": "uint256[]"
        }
      ],
      "name": "unequipBatch",
      "outputs": [],
      "stateMutability": "nonpayable",
      "type": "function"
    }
  ],
  "transactionHash": "0xce05b957c183a040f775e9120ab8dd1f7046f8d1c5924324e6928e9e8375068c",
  "args": [],
  "numDeployments": 3,
  "solcInputHash": "36c22ead28225540fc85e58fc9faf39e",
  "bytecode": "0x608060405234801561001057600080fd5b50613ad2806100206000396000f3fe608060405234801561001057600080fd5b506004361061012c5760003560e01c806395de3e70116100ad578063b9518c8d11610071578063b9518c8d146102c2578063bc197c81146102d5578063ee30fc1d146102f4578063ef0bf7de14610307578063f23a6e611461032757600080fd5b806395de3e70146102535780639621ff25146102665780639afe236d1461027c5780639e3ccb2a1461028f578063b512cffe146102af57600080fd5b80632d1b7399116100f45780632d1b7399146101da5780632f0afd8d146101fa5780633044825b1461020d5780637eba7ba614610220578063886f52b11461024057600080fd5b806301ffc9a71461013157806308712a0e14610159578063150b7a021461016e5780631766c7fa146101a557806323531aa7146101b8575b600080fd5b61014461013f366004612c1f565b610346565b60405190151581526020015b60405180910390f35b61016c610167366004612c49565b61037d565b005b61018c61017c366004612d54565b630a85bd0160e11b949350505050565b6040516001600160e01b03199091168152602001610150565b61016c6101b3366004612e0a565b6103c6565b6101cb6101c6366004612f3e565b610413565b6040516101509392919061305d565b6101ed6101e83660046130d0565b610432565b60405161015091906130fc565b61014461020836600461310f565b610445565b61016c61021b3660046131a8565b6104f0565b61023361022e3660046131a8565b610535565b60405161015091906131d7565b61016c61024e36600461321c565b6105da565b61016c610261366004613297565b610600565b61026e610612565b604051908152602001610150565b6101ed61028a3660046132f2565b610621565b6102a261029d3660046131a8565b61062d565b6040516101509190613379565b61016c6102bd36600461338c565b610638565b61016c6102d03660046133ae565b61067f565b61018c6102e33660046133f9565b63bc197c8160e01b95945050505050565b61016c610302366004613297565b6106bf565b61031a61031536600461338c565b6106cb565b60405161015091906134a6565b61018c6103353660046134d0565b63f23a6e6160e01b95945050505050565b60006001600160e01b03198216630271189760e51b148061037757506301ffc9a760e01b6001600160e01b03198316145b92915050565b600080516020613a5d83398151915280546002036103ae57604051635db5c7cd60e11b815260040160405180910390fd5b600281556103bd8484846106dd565b60019055505050565b600080516020613a5d83398151915280546002036103f757604051635db5c7cd60e11b815260040160405180910390fd5b600281556104088686868686610c27565b600190555050505050565b606080606061042386868661122a565b92509250925093509350939050565b606061043e8383611467565b9392505050565b60006104e587878080602002602001604051908101604052809392919081815260200183836020028082843760009201919091525050604080516020808b0282810182019093528a82529093508a92508991829185019084908082843760009201919091525050604080516020808a028281018201909352898252909350899250889182918501908490808284376000920191909152506114b592505050565b979650505050505050565b600080516020613a5d833981519152805460020361052157604051635db5c7cd60e11b815260040160405180910390fd5b6002815561052e82611645565b6001905550565b61055660408051606081018252600080825260208201819052909182015290565b60008281527ff672b8dc84d117c1e14949d8bc3977392b5ab7de9d01b854d389cdc31bf0d437602052604090206040805160608101825282548152600183015460ff808216151560208401529193928401916101009091041660028111156105c0576105c06131c1565b60028111156105d1576105d16131c1565b90525092915050565b6105ea6105e5611820565b61184a565b6105f8868686868686611857565b505050505050565b61060c848484846119a2565b50505050565b600061061c611c7b565b905090565b606061043e8383611c91565b606061037782611cde565b600080516020613a5d833981519152805460020361066957604051635db5c7cd60e11b815260040160405180910390fd5b600281556106778383611de7565b600190555050565b600080516020613a5d83398151915280546002036106b057604051635db5c7cd60e11b815260040160405180910390fd5b600281556103bd848484612038565b61060c848484846122aa565b6106d3612bf5565b61043e8383612538565b6040516331a9108f60e11b815260048101849052839030908190636352211e90602401602060405180830381865afa15801561071d573d6000803e3d6000fd5b505050506040513d601f19601f820116820180604052508101906107419190613538565b6001600160a01b0316336001600160a01b03161461077a5760405162461bcd60e51b815260040161077190613555565b60405180910390fd5b600080516020613a7d8339815191526107ec857ff672b8dc84d117c1e14949d8bc3977392b5ab7de9d01b854d389cdc31bf0d43b60006107bd60208901896135b2565b6001600160a01b03168152602080820192909252604090810160009081208984013582529092529020906125a7565b6108515760405162461bcd60e51b815260206004820152603060248201527f496e76656e746f727946616365742e65717569703a204974656d206e6f74206560448201526f1b1959da589b1948199bdc881cdb1bdd60821b6064820152608401610771565b600085815260018201602052604090819020549085013511156108dc5760405162461bcd60e51b815260206004820152603760248201527f496e76656e746f727946616365742e65717569703a204974656d20616d6f756e60448201527f74206578636565647320736c6f742063617061636974790000000000000000006064820152608401610771565b600086815260038201602090815260408083208884529091529020600201541561090a5761090a86866125bf565b600061091960208601866135b2565b60408051627eeac760e11b815233600482015260208801356024820152919250860135906001600160a01b0383169062fdd58e90604401602060405180830381865afa15801561096d573d6000803e3d6000fd5b505050506040513d601f19601f8201168201806040525081019061099191906135cf565b1015610a1c5760405162461bcd60e51b815260206004820152604e60248201527f496e76656e746f727946616365742e65717569703a204d65737361676520736560448201527f6e64657220646f6573206e6f74206f776e20656e6f756768206f66207468617460648201526d0206974656d20746f2065717569760941b608482015260a401610771565b60408051637921219560e11b81526001600160a01b0383169163f242432a91610a56913391309160208c013591908c0135906004016135e8565b600060405180830381600087803b158015610a7057600080fd5b505af1158015610a84573d6000803e3d6000fd5b506000925060019150610a949050565b604051908082528060200260200182016040528015610abd578160200160208202803683370190505b5090508681600081518110610ad457610ad4613620565b6020908102919091010152604080516001808252818301909252600091816020015b610afe612bf5565b815260200190600190039081610af6579050509050610b2236889003880188613636565b81600081518110610b3557610b35613620565b602002602001018190525088336001600160a01b03167f2885b4f69ab6c5c4f5245bb438c2ba06f3918c67b286f736d11466f47a6bcf468484604051610b7c929190613697565b60405180910390a3600089815260038501602090815260408083208b845290915290208790610bab82826136c5565b905050610bb7896126b1565b610c1c5760405162461bcd60e51b815260206004820152603060248201527f496e76656e746f727946616365742e5f65717569703a2042617365206974656d60448201526f7320617265206e6f7420756e6971756560801b6064820152608401610771565b505050505050505050565b6040516331a9108f60e11b815260048101869052859030908190636352211e90602401602060405180830381865afa158015610c67573d6000803e3d6000fd5b505050506040513d601f19601f82011682018060405250810190610c8b9190613538565b6001600160a01b0316336001600160a01b031614610cbb5760405162461bcd60e51b815260040161077190613555565b848314610d305760405162461bcd60e51b815260206004820152603660248201527f496e76656e746f727946616365742e5f657175697042617463683a20496e707560448201527f742064617461206c656e677468206d69736d61746368000000000000000000006064820152608401610771565b600080516020613a7d83398151915260005b868110156111695736868683818110610d5d57610d5d613620565b60600291909101915060009050610d7760208301836135b2565b9050610ddd8a8a85818110610d8e57610d8e613620565b90506020020135856005016000856000016020810190610dae91906135b2565b6001600160a01b03168152602080820192909252604090810160009081208784013582529092529020906125a7565b610e4f5760405162461bcd60e51b815260206004820152603660248201527f496e76656e746f727946616365742e5f657175697042617463683a204974656d60448201527f206e6f7420656c656769626c6520666f7220736c6f74000000000000000000006064820152608401610771565b81604001358460010160008c8c87818110610e6c57610e6c613620565b905060200201358152602001908152602001600020600001541015610ef95760405162461bcd60e51b815260206004820152603d60248201527f496e76656e746f727946616365742e5f657175697042617463683a204974656d60448201527f20616d6f756e74206578636565647320736c6f742063617061636974790000006064820152608401610771565b60408051627eeac760e11b81523360048201526020840135602482015290830135906001600160a01b0383169062fdd58e90604401602060405180830381865afa158015610f4b573d6000803e3d6000fd5b505050506040513d601f19601f82011682018060405250810190610f6f91906135cf565b1015610fe35760405162461bcd60e51b815260206004820152603a60248201527f496e76656e746f727946616365742e65717569703a2053656e6465722068617360448201527f20696e73756666696369656e74206974656d2062616c616e63650000000000006064820152608401610771565b60008b81526003850160205260408120818c8c8781811061100657611006613620565b905060200201358152602001908152602001600020600201541115611047576110478b8b8b8681811061103b5761103b613620565b905060200201356125bf565b60408051606081019091528061106060208501856135b2565b6001600160a01b031681526020018360200135815260200183604001358152508460030160008d815260200190815260200160002060008c8c878181106110a9576110a9613620565b60209081029290920135835250818101929092526040908101600020835181546001600160a01b0319166001600160a01b03918216178255848401516001830155938201516002909101558051637921219560e11b81529284169263f242432a92611122923392309289013591890135906004016135e8565b600060405180830381600087803b15801561113c57600080fd5b505af1158015611150573d6000803e3d6000fd5b505050505050808061116190613719565b915050610d42565b5087336001600160a01b03167f2885b4f69ab6c5c4f5245bb438c2ba06f3918c67b286f736d11466f47a6bcf46898989896040516111aa9493929190613764565b60405180910390a360006111bd896126b1565b905080610c1c5760405162461bcd60e51b815260206004820152603560248201527f496e76656e746f727946616365742e5f657175697042617463683a2042617365604482015274206974656d7320617265206e6f7420756e6971756560581b6064820152608401610771565b606080606060008651905060005b6112436001836137dc565b811015611459578060006112588260016137ef565b90505b838110156112b35789828151811061127557611275613620565b60200260200101518a828151811061128f5761128f613620565b602002602001015110156112a1578091505b806112ab81613719565b91505061125b565b508181146114465760008983815181106112cf576112cf613620565b602002602001015190508982815181106112eb576112eb613620565b60200260200101518a848151811061130557611305613620565b602002602001018181525050808a838151811061132457611324613620565b602002602001018181525050600089848151811061134457611344613620565b6020026020010151905089838151811061136057611360613620565b60200260200101518a858151811061137a5761137a613620565b60200260200101906001600160a01b031690816001600160a01b031681525050808a84815181106113ad576113ad613620565b60200260200101906001600160a01b031690816001600160a01b03168152505060008985815181106113e1576113e1613620565b602002602001015190508984815181106113fd576113fd613620565b60200260200101518a868151811061141757611417613620565b602002602001018181525050808a858151811061143657611436613620565b6020026020010181815250505050505b508061145181613719565b915050611238565b509596949550929392505050565b6001600160a01b03821660009081527ff672b8dc84d117c1e14949d8bc3977392b5ab7de9d01b854d389cdc31bf0d43b60209081526040808320848452909152902060609061043e906127f4565b6000825184511480156114c9575081518451145b61153b5760405162461bcd60e51b815260206004820152603b60248201527f496e76656e746f727946616365742e5f62617365536c6f7473556e697175653a60448201527f20496e7075742064617461206c656e677468206d69736d6174636800000000006064820152608401610771565b600080516020613a7d83398151915261155585858561122a565b6000808052600285016020526040812093985091965094506060905b875181101561162357600088828151811061158e5761158e613620565b602002602001015190506115ab81856125a790919063ffffffff16565b6115b55750611611565b82818984815181106115c9576115c9613620565b60200260200101518985815181106115e3576115e3613620565b60200260200101516040516020016115fe9493929190613826565b6040516020818303038152906040529250505b8061161b81613719565b915050611571565b50805160208201206116399060068501906125a7565b15979650505050505050565b600080516020613a7d83398151915280546000805b828110156116d957600061166f8260016137ef565b600081815260018088016020526040909120015490915060ff161580156116b357506000868152600386016020908152604080832084845290915290206002015415155b156116c657826116c281613719565b9350505b50806116d181613719565b91505061165a565b506000816001600160401b038111156116f4576116f4612c9f565b60405190808252806020026020018201604052801561171d578160200160208202803683370190505b5090506000805b848110156117cb5760006117398260016137ef565b60008181526001808a016020526040909120015490915060ff1615801561177d57506000888152600388016020908152604080832084845290915290206002015415155b156117b85761178c88826125bf565b8084848151811061179f5761179f613620565b6020908102919091010152826117b481613719565b9350505b50806117c381613719565b915050611724565b5085336001600160a01b03167f3822f2cd6d118934e31e6171da74d9d46131fb402be1861b3cb4460440aeab638460405161180691906130fc565b60405180910390a3611817866126b1565b50505050505050565b60007ff6deb63e40d71b08820818e006e23fcceb1fce7a499bc15b71b2526cbf9efa725b54919050565b6118548133612850565b50565b600080516020613a7d8339815191528054600190829060009061187b9084906137ef565b90915550508054600081815260018084016020526040909120908101805489151560ff19821681178355928b9055889261ff00191661ffff19909116176101008360028111156118cd576118cd6131c1565b02179055508215611954576001600160a01b0385163b6119485760405162461bcd60e51b815260206004820152603060248201527f496e76656e746f727946616365742e5f637265617465536c6f743a20496e766160448201526f6c6964206974656d206164647265737360801b6064820152608401610771565b611954818686866122aa565b60408051898152881515602082015290810182905233907fa28f3b4b2c47e1665e89d0bf14b7d48fb80b040942c93ab375bfb714e12e9bf99060600160405180910390a25050505050505050565b83806000036119c35760405162461bcd60e51b815260040161077190613867565b600080516020613a7d83398151915254811115611a225760405162461bcd60e51b815260206004820152601c60248201527f496e76656e746f727946616365743a20496e76616c696420736c6f74000000006044820152606401610771565b836001600160a01b038116611a6b5760405162461bcd60e51b815260206004820152600f60248201526e496e76616c6964204164647265737360881b6044820152606401610771565b600080516020613a7d83398151915260005b84811015611bf957611aca868683818110611a9a57611a9a613620565b60008c815260048701602090815260408083206001600160a01b038f1684528252909120939102013590506125a7565b611b4a5760405162461bcd60e51b8152602060048201526044602482018190527f496e76656e746f727946616365742e5f646973616c6c6f774974656d73496e53908201527f6c6f743a204974656d206973206e6f7420616c6c6f77656420696e20746865206064820152631cdb1bdd60e21b608482015260a401610771565b611b8f868683818110611b5f57611b5f613620565b60008c815260048701602090815260408083206001600160a01b038f1684528252909120939102013590506128b6565b506001600160a01b03871660009081526005830160205260408120611be6918a9190898986818110611bc357611bc3613620565b9050602002013581526020019081526020016000206128b690919063ffffffff16565b5080611bf181613719565b915050611a7d565b50337fd324d3c4381b63e488418e0515e448929fe81891bec678f34343bd32f56667608888611c5b600080516020613a7d83398151915260008d8152600491909101602090815260408083206001600160a01b038f16845290915290206127f4565b604051611c6a939291906138ac565b60405180910390a250505050505050565b6000600080516020613a7d833981519152611844565b60008281527ff672b8dc84d117c1e14949d8bc3977392b5ab7de9d01b854d389cdc31bf0d43a602090815260408083206001600160a01b0385168452909152902060609061043e906127f4565b600080516020613a7d8339815191528054606091906000816001600160401b03811115611d0d57611d0d612c9f565b604051908082528060200260200182016040528015611d4657816020015b611d33612bf5565b815260200190600190039081611d2b5790505b50905060005b82811015611dde576000868152600385016020526040812090611d708360016137ef565b81526020808201929092526040908101600020815160608101835281546001600160a01b0316815260018201549381019390935260020154908201528251839083908110611dc057611dc0613620565b60200260200101819052508080611dd690613719565b915050611d4c565b50949350505050565b6040516331a9108f60e11b815260048101839052829030908190636352211e90602401602060405180830381865afa158015611e27573d6000803e3d6000fd5b505050506040513d601f19601f82011682018060405250810190611e4b9190613538565b6001600160a01b0316336001600160a01b031614611e7b5760405162461bcd60e51b815260040161077190613555565b8280600003611e9c5760405162461bcd60e51b815260040161077190613867565b600080516020613a7d83398151915254811115611efb5760405162461bcd60e51b815260206004820152601c60248201527f496e76656e746f727946616365743a20496e76616c696420736c6f74000000006044820152606401610771565b60008481527ff672b8dc84d117c1e14949d8bc3977392b5ab7de9d01b854d389cdc31bf0d4376020526040902060010154600080516020613a7d8339815191529060ff1615611f5c5760405162461bcd60e51b8152600401610771906138d4565b60008681526003820160209081526040808320888452909152902060020154611f975760405162461bcd60e51b815260040161077190613921565b611fa186866125bf565b604080516001808252818301909252600091602080830190803683370190505090508581600081518110611fd757611fd7613620565b60200260200101818152505086336001600160a01b03167f3822f2cd6d118934e31e6171da74d9d46131fb402be1861b3cb4460440aeab638360405161201d91906130fc565b60405180910390a361202e876126b1565b5050505050505050565b6040516331a9108f60e11b815260048101849052839030908190636352211e90602401602060405180830381865afa158015612078573d6000803e3d6000fd5b505050506040513d601f19601f8201168201806040525081019061209c9190613538565b6001600160a01b0316336001600160a01b0316146120cc5760405162461bcd60e51b815260040161077190613555565b600080516020613a7d8339815191528361214e5760405162461bcd60e51b815260206004820152603960248201527f496e76656e746f727946616365742e5f756e65717569703a2053686f756c642060448201527f73706563696679206174206c65617374206f6e6520736c6f74000000000000006064820152608401610771565b60005b8481101561226d57600086868381811061216d5761216d613620565b905060200201359050600081118015612187575082548111155b6121e15760405162461bcd60e51b815260206004820152602560248201527f496e76656e746f727946616365742e5f756e65717569703a20496e76616c6964604482015264081cdb1bdd60da1b6064820152608401610771565b600081815260018085016020526040909120015460ff16156122155760405162461bcd60e51b8152600401610771906138d4565b600088815260038401602090815260408083208484529091529020600201546122505760405162461bcd60e51b815260040161077190613921565b61225a88826125bf565b508061226581613719565b915050612151565b5085336001600160a01b03167f3822f2cd6d118934e31e6171da74d9d46131fb402be1861b3cb4460440aeab63878760405161180692919061396b565b83806000036122cb5760405162461bcd60e51b815260040161077190613867565b600080516020613a7d8339815191525481111561232a5760405162461bcd60e51b815260206004820152601c60248201527f496e76656e746f727946616365743a20496e76616c696420736c6f74000000006044820152606401610771565b836001600160a01b0381166123735760405162461bcd60e51b815260206004820152600f60248201526e496e76616c6964204164647265737360881b6044820152606401610771565b600080516020613a7d83398151915260005b848110156124d2576123a2868683818110611a9a57611a9a613620565b156124235760405162461bcd60e51b815260206004820152604560248201527f496e76656e746f727946616365742e5f646973616c6c6f774974656d73496e5360448201527f6c6f743a204974656d20616c726561647920616c6c6f77656420696e20746865606482015264081cdb1bdd60da1b608482015260a401610771565b61246886868381811061243857612438613620565b60008c815260048701602090815260408083206001600160a01b038f1684528252909120939102013590506128c2565b506001600160a01b038716600090815260058301602052604081206124bf918a919089898681811061249c5761249c613620565b9050602002013581526020019081526020016000206128c290919063ffffffff16565b50806124ca81613719565b915050612385565b5060008781526001828101602052604082200154611bf991899160028086019291610100900460ff169081111561250b5761250b6131c1565b600281111561251c5761251c6131c1565b81526020019081526020016000206128c290919063ffffffff16565b612540612bf5565b5060009182527ff672b8dc84d117c1e14949d8bc3977392b5ab7de9d01b854d389cdc31bf0d4396020908152604080842092845291815291819020815160608101835281546001600160a01b03168152600182015493810193909352600201549082015290565b6000818152600183016020526040812054151561043e565b60008281527ff672b8dc84d117c1e14949d8bc3977392b5ab7de9d01b854d389cdc31bf0d43960209081526040808320848452909152908190208054600182015460028301549351637921219560e11b8152600080516020613a7d833981519152946001600160a01b0390931692839263f242432a9261264892309233929091906004016135e8565b600060405180830381600087803b15801561266257600080fd5b505af1158015612676573d6000803e3d6000fd5b505050600095865250505060030160209081526040808420928452919052812080546001600160a01b03191681556001810182905560020155565b60008080527ff672b8dc84d117c1e14949d8bc3977392b5ab7de9d01b854d389cdc31bf0d438602052600080516020613a7d83398151915260607f845ff02802177e9909faef63e536d995d5be20fadd26c667f4235942a02dfdd9835b612717826128ce565b81101561279257600061272a83836128d8565b60008881526003870160209081526040808320848452825291829020805460018201549351949550909361276c93899387936001600160a01b03169201613826565b60405160208183030381529060405294505050808061278a90613719565b91505061270e565b50815160208301206127a760068501826125a7565b6000878152600886016020526040902054901595506127ca9060068601906128b6565b506127d860068501826128c2565b5060009586526008909301602052505060409092209190915590565b8054604080516020808402820181019092528281526060928492839291839183018282801561284257602002820191906000526020600020905b81548152602001906001019080831161282e575b505050505092505050919050565b61285a82826128e4565b6128b257612870816001600160a01b031661291b565b61287b83602061292d565b60405160200161288c929190613987565b60408051601f198184030181529082905262461bcd60e51b8252610771916004016139fc565b5050565b600061043e8383612a7f565b600061043e8383612b44565b6000610377825490565b600061043e8383612b87565b60008281527fd3889cc5458b268d0544e5534672df1296288ca3f93cbd39bd6f497a5c6228116020526040812061043e9083612bd3565b60606103776001600160a01b03831660145b6060600061293c836002613a2f565b6129479060026137ef565b6001600160401b0381111561295e5761295e612c9f565b6040519080825280601f01601f191660200182016040528015612988576020820181803683370190505b509050600360fc1b816000815181106129a3576129a3613620565b60200101906001600160f81b031916908160001a905350600f60fb1b816001815181106129d2576129d2613620565b60200101906001600160f81b031916908160001a905350600160028402015b6001811115612a5f576f181899199a1a9b1b9c1cb0b131b232b360811b85600f1660108110612a2257612a22613620565b1a60f81b828281518110612a3857612a38613620565b60200101906001600160f81b031916908160001a90535060049490941c93600019016129f1565b50831561043e5760405163c913478560e01b815260040160405180910390fd5b60008181526001830160205260408120548015612b3d57835460009085906000198101908110612ab157612ab1613620565b9060005260206000200154905080856000016001840381548110612ad757612ad7613620565b6000918252602080832090910192909255918252600186019052604090208190558354849080612b0957612b09613a46565b6001900381819060005260206000200160009055905583600101600084815260200190815260200160002060009055600191505b5092915050565b6000818152600183016020526040812054610377575081546001808201845560008481526020808220909301849055845493815293810190915260409092205590565b81546000908210612bab5760405163e637bf3b60e01b815260040160405180910390fd5b826000018281548110612bc057612bc0613620565b9060005260206000200154905092915050565b6001600160a01b0381166000908152600183016020526040812054151561043e565b604051806060016040528060006001600160a01b0316815260200160008152602001600081525090565b600060208284031215612c3157600080fd5b81356001600160e01b03198116811461043e57600080fd5b600080600083850360a0811215612c5f57600080fd5b84359350602085013592506060603f1982011215612c7c57600080fd5b506040840190509250925092565b6001600160a01b038116811461185457600080fd5b634e487b7160e01b600052604160045260246000fd5b604051601f8201601f191681016001600160401b0381118282101715612cdd57612cdd612c9f565b604052919050565b600082601f830112612cf657600080fd5b81356001600160401b03811115612d0f57612d0f612c9f565b612d22601f8201601f1916602001612cb5565b818152846020838601011115612d3757600080fd5b816020850160208301376000918101602001919091529392505050565b60008060008060808587031215612d6a57600080fd5b8435612d7581612c8a565b93506020850135612d8581612c8a565b92506040850135915060608501356001600160401b03811115612da757600080fd5b612db387828801612ce5565b91505092959194509250565b60008083601f840112612dd157600080fd5b5081356001600160401b03811115612de857600080fd5b6020830191508360208260051b8501011115612e0357600080fd5b9250929050565b600080600080600060608688031215612e2257600080fd5b8535945060208601356001600160401b0380821115612e4057600080fd5b612e4c89838a01612dbf565b90965094506040880135915080821115612e6557600080fd5b818801915088601f830112612e7957600080fd5b813581811115612e8857600080fd5b896020606083028501011115612e9d57600080fd5b9699959850939650602001949392505050565b60006001600160401b03821115612ec957612ec9612c9f565b5060051b60200190565b600082601f830112612ee457600080fd5b81356020612ef9612ef483612eb0565b612cb5565b82815260059290921b84018101918181019086841115612f1857600080fd5b8286015b84811015612f335780358352918301918301612f1c565b509695505050505050565b600080600060608486031215612f5357600080fd5b83356001600160401b0380821115612f6a57600080fd5b612f7687838801612ed3565b9450602091508186013581811115612f8d57600080fd5b8601601f81018813612f9e57600080fd5b8035612fac612ef482612eb0565b81815260059190911b8201840190848101908a831115612fcb57600080fd5b928501925b82841015612ff2578335612fe381612c8a565b82529285019290850190612fd0565b9650505050604086013591508082111561300b57600080fd5b5061301886828701612ed3565b9150509250925092565b600081518084526020808501945080840160005b8381101561305257815187529582019590820190600101613036565b509495945050505050565b6060815260006130706060830186613022565b82810360208481019190915285518083528682019282019060005b818110156130b05784516001600160a01b03168352938301939183019160010161308b565b505084810360408601526130c48187613022565b98975050505050505050565b600080604083850312156130e357600080fd5b82356130ee81612c8a565b946020939093013593505050565b60208152600061043e6020830184613022565b6000806000806000806060878903121561312857600080fd5b86356001600160401b038082111561313f57600080fd5b61314b8a838b01612dbf565b9098509650602089013591508082111561316457600080fd5b6131708a838b01612dbf565b9096509450604089013591508082111561318957600080fd5b5061319689828a01612dbf565b979a9699509497509295939492505050565b6000602082840312156131ba57600080fd5b5035919050565b634e487b7160e01b600052602160045260246000fd5b81518152602080830151151590820152604082015160608201906003811061320f57634e487b7160e01b600052602160045260246000fd5b8060408401525092915050565b60008060008060008060a0878903121561323557600080fd5b863595506020870135801515811461324c57600080fd5b945060408701356003811061326057600080fd5b9350606087013561327081612c8a565b925060808701356001600160401b0381111561328b57600080fd5b61319689828a01612dbf565b600080600080606085870312156132ad57600080fd5b8435935060208501356132bf81612c8a565b925060408501356001600160401b038111156132da57600080fd5b6132e687828801612dbf565b95989497509550505050565b6000806040838503121561330557600080fd5b82359150602083013561331781612c8a565b809150509250929050565b600081518084526020808501945080840160005b838110156130525761336687835180516001600160a01b0316825260208082015190830152604090810151910152565b6060969096019590820190600101613336565b60208152600061043e6020830184613322565b6000806040838503121561339f57600080fd5b50508035926020909101359150565b6000806000604084860312156133c357600080fd5b8335925060208401356001600160401b038111156133e057600080fd5b6133ec86828701612dbf565b9497909650939450505050565b600080600080600060a0868803121561341157600080fd5b853561341c81612c8a565b9450602086013561342c81612c8a565b935060408601356001600160401b038082111561344857600080fd5b61345489838a01612ed3565b9450606088013591508082111561346a57600080fd5b61347689838a01612ed3565b9350608088013591508082111561348c57600080fd5b5061349988828901612ce5565b9150509295509295909350565b81516001600160a01b03168152602080830151908201526040808301519082015260608101610377565b600080600080600060a086880312156134e857600080fd5b85356134f381612c8a565b9450602086013561350381612c8a565b9350604086013592506060860135915060808601356001600160401b0381111561352c57600080fd5b61349988828901612ce5565b60006020828403121561354a57600080fd5b815161043e81612c8a565b6020808252603b908201527f496e76656e746f727946616365743a204d6573736167652073656e646572206960408201527f73206e6f74206f776e6572206f662074686520617263616469616e0000000000606082015260800190565b6000602082840312156135c457600080fd5b813561043e81612c8a565b6000602082840312156135e157600080fd5b5051919050565b6001600160a01b0394851681529290931660208301526040820152606081019190915260a06080820181905260009082015260c00190565b634e487b7160e01b600052603260045260246000fd5b60006060828403121561364857600080fd5b604051606081018181106001600160401b038211171561366a5761366a612c9f565b604052823561367881612c8a565b8152602083810135908201526040928301359281019290925250919050565b6040815260006136aa6040830185613022565b82810360208401526136bc8185613322565b95945050505050565b81356136d081612c8a565b81546001600160a01b0319166001600160a01b039190911617815560208201356001820155604090910135600290910155565b634e487b7160e01b600052601160045260246000fd5b60006001820161372b5761372b613703565b5060010190565b81835260006001600160fb1b0383111561374b57600080fd5b8260051b80836020870137939093016020019392505050565b600060408083526137788184018789613732565b8381036020858101919091528582528691810160005b878110156137ce5783356137a181612c8a565b6001600160a01b03168252838301358383015284840135858301526060938401939091019060010161378e565b509998505050505050505050565b8181038181111561037757610377613703565b8082018082111561037757610377613703565b60005b8381101561381d578181015183820152602001613805565b50506000910152565b60008551613838818460208a01613802565b919091019384525060609190911b6bffffffffffffffffffffffff191660208301526034820152605401919050565b60208082526025908201527f496e76656e746f727946616365743a20536c6f742069642063616e2774206265604082015264207a65726f60d81b606082015260800190565b8381526001600160a01b03831660208201526060604082015260006136bc6060830184613022565b6020808252602d908201527f496e76656e746f727946616365742e5f756e65717569703a20536c6f7420697360408201526c20756e65717569707061626c6560981b606082015260800190565b6020808252602a908201527f496e76656e746f727946616365742e5f756e65717569703a20536c6f74206e6f6040820152691d08195c5d5a5c1c195960b21b606082015260800190565b60208152600061397f602083018486613732565b949350505050565b7f416363657373436f6e74726f6c3a206163636f756e74200000000000000000008152600083516139bf816017850160208801613802565b7001034b99036b4b9b9b4b733903937b6329607d1b60179184019182015283516139f0816028840160208801613802565b01602801949350505050565b6020815260008251806020840152613a1b816040850160208701613802565b601f01601f19169190910160400192915050565b808202811582820484141761037757610377613703565b634e487b7160e01b600052603160045260246000fdfe09acf4e54214992e70883cf7dcd6957ff2c71cd9e14df4bec4383bc0d11607dcf672b8dc84d117c1e14949d8bc3977392b5ab7de9d01b854d389cdc31bf0d436a26469706673582212209cc5f1f1787b8b251a9d69317064a753f7e98d63114e0475a6b854474f35cfca64736f6c63430008130033",
  "devdoc": {
    "kind": "dev",
    "methods": {
      "onERC721Received(address,address,uint256,bytes)": {
        "details": "See {IERC721Receiver-onERC721Received}. Always returns `IERC721Receiver.onERC721Received.selector`."
      },
      "supportsInterface(bytes4)": {
        "details": "See {IERC165-supportsInterface}."
      }
    },
    "version": 1
  },
  "userdoc": {
    "kind": "user",
    "methods": {},
    "version": 1
  },
  "storageLayout": {
    "storage": [],
    "types": null
  }
}