{
  "address": "0xA5a88a97a82bB94c0B8AbA7e6cd0fCEF1Cc8179b",
  "abi": [
    {
      "inputs": [],
      "name": "Inventory_ArcadianNotUnique",
      "type": "error"
    },
    {
      "inputs": [],
      "name": "Inventory_CouponNeededToModifyBaseSlots",
      "type": "error"
    },
    {
      "inputs": [],
      "name": "Inventory_InputDataMismatch",
      "type": "error"
    },
    {
      "inputs": [],
      "name": "Inventory_InsufficientItemBalance",
      "type": "error"
    },
    {
      "inputs": [],
      "name": "Inventory_InvalidERC1155Contract",
      "type": "error"
    },
    {
      "inputs": [],
      "name": "Inventory_InvalidSlotId",
      "type": "error"
    },
    {
      "inputs": [],
      "name": "Inventory_ItemAlreadyEquippedInSlot",
      "type": "error"
    },
    {
      "inputs": [],
      "name": "Inventory_ItemDoesNotHaveSlotAssigned",
      "type": "error"
    },
    {
      "inputs": [],
      "name": "Inventory_ItemNotSpecified",
      "type": "error"
    },
    {
      "inputs": [],
      "name": "Inventory_NonBaseSlot",
      "type": "error"
    },
    {
      "inputs": [],
      "name": "Inventory_NotAllBaseSlotsEquipped",
      "type": "error"
    },
    {
      "inputs": [],
      "name": "Inventory_NotArcadianOwner",
      "type": "error"
    },
    {
      "inputs": [],
      "name": "Inventory_SlotNotSpecified",
      "type": "error"
    },
    {
      "inputs": [],
      "name": "Inventory_UnequippingBaseSlot",
      "type": "error"
    },
    {
      "inputs": [],
      "name": "Inventory_UnequippingEmptySlot",
      "type": "error"
    },
    {
      "inputs": [],
      "name": "Inventory_UnequippingPermanentSlot",
      "type": "error"
    },
    {
      "inputs": [],
      "name": "ReentrancyGuard__ReentrantCall",
      "type": "error"
    },
    {
      "inputs": [],
      "name": "Roles_MissingAdminRole",
      "type": "error"
    },
    {
      "inputs": [],
      "name": "Roles_MissingAutomationRole",
      "type": "error"
    },
    {
      "inputs": [],
      "name": "Roles_MissingManagerRole",
      "type": "error"
    },
    {
      "anonymous": false,
      "inputs": [
        {
          "indexed": true,
          "internalType": "address",
          "name": "by",
          "type": "address"
        },
        {
          "indexed": true,
          "internalType": "address",
          "name": "to",
          "type": "address"
        },
        {
          "indexed": false,
          "internalType": "uint256[]",
          "name": "slotsIds",
          "type": "uint256[]"
        },
        {
          "indexed": false,
          "internalType": "uint256[]",
          "name": "amounts",
          "type": "uint256[]"
        }
      ],
      "name": "BaseModifierCouponAdded",
      "type": "event"
    },
    {
      "anonymous": false,
      "inputs": [
        {
          "indexed": true,
          "internalType": "address",
          "name": "account",
          "type": "address"
        },
        {
          "indexed": false,
          "internalType": "uint256[]",
          "name": "slotsIds",
          "type": "uint256[]"
        }
      ],
      "name": "BaseModifierCouponConsumed",
      "type": "event"
    },
    {
      "anonymous": false,
      "inputs": [
        {
          "indexed": true,
          "internalType": "address",
          "name": "by",
          "type": "address"
        },
        {
          "components": [
            {
              "internalType": "address",
              "name": "erc721Contract",
              "type": "address"
            },
            {
              "internalType": "uint256",
              "name": "id",
              "type": "uint256"
            }
          ],
          "indexed": false,
          "internalType": "struct InventoryStorage.Item[]",
          "name": "items",
          "type": "tuple[]"
        }
      ],
      "name": "ItemsAllowedInSlotUpdated",
      "type": "event"
    },
    {
      "anonymous": false,
      "inputs": [
        {
          "indexed": true,
          "internalType": "address",
          "name": "by",
          "type": "address"
        },
        {
          "indexed": true,
          "internalType": "uint256",
          "name": "arcadianId",
          "type": "uint256"
        },
        {
          "indexed": false,
          "internalType": "uint256[]",
          "name": "slots",
          "type": "uint256[]"
        }
      ],
      "name": "ItemsEquipped",
      "type": "event"
    },
    {
      "anonymous": false,
      "inputs": [
        {
          "indexed": true,
          "internalType": "address",
          "name": "by",
          "type": "address"
        },
        {
          "indexed": true,
          "internalType": "uint256",
          "name": "arcadianId",
          "type": "uint256"
        },
        {
          "indexed": false,
          "internalType": "uint256[]",
          "name": "slots",
          "type": "uint256[]"
        }
      ],
      "name": "ItemsUnequipped",
      "type": "event"
    },
    {
      "anonymous": false,
      "inputs": [
        {
          "indexed": true,
          "internalType": "bytes32",
          "name": "role",
          "type": "bytes32"
        },
        {
          "indexed": true,
          "internalType": "bytes32",
          "name": "previousAdminRole",
          "type": "bytes32"
        },
        {
          "indexed": true,
          "internalType": "bytes32",
          "name": "newAdminRole",
          "type": "bytes32"
        }
      ],
      "name": "RoleAdminChanged",
      "type": "event"
    },
    {
      "anonymous": false,
      "inputs": [
        {
          "indexed": true,
          "internalType": "bytes32",
          "name": "role",
          "type": "bytes32"
        },
        {
          "indexed": true,
          "internalType": "address",
          "name": "account",
          "type": "address"
        },
        {
          "indexed": true,
          "internalType": "address",
          "name": "sender",
          "type": "address"
        }
      ],
      "name": "RoleGranted",
      "type": "event"
    },
    {
      "anonymous": false,
      "inputs": [
        {
          "indexed": true,
          "internalType": "bytes32",
          "name": "role",
          "type": "bytes32"
        },
        {
          "indexed": true,
          "internalType": "address",
          "name": "account",
          "type": "address"
        },
        {
          "indexed": true,
          "internalType": "address",
          "name": "sender",
          "type": "address"
        }
      ],
      "name": "RoleRevoked",
      "type": "event"
    },
    {
      "anonymous": false,
      "inputs": [
        {
          "indexed": true,
          "internalType": "address",
          "name": "by",
          "type": "address"
        },
        {
          "indexed": false,
          "internalType": "uint256",
          "name": "slotId",
          "type": "uint256"
        },
        {
          "indexed": false,
          "internalType": "bool",
          "name": "permanent",
          "type": "bool"
        },
        {
          "indexed": false,
          "internalType": "bool",
          "name": "isBase",
          "type": "bool"
        }
      ],
      "name": "SlotCreated",
      "type": "event"
    },
    {
      "inputs": [
        {
          "internalType": "address",
          "name": "account",
          "type": "address"
        },
        {
          "internalType": "uint256[]",
          "name": "slotsIds",
          "type": "uint256[]"
        },
        {
          "internalType": "uint256[]",
          "name": "amounts",
          "type": "uint256[]"
        }
      ],
      "name": "addBaseModifierCoupons",
      "outputs": [],
      "stateMutability": "nonpayable",
      "type": "function"
    },
    {
      "inputs": [
        {
          "internalType": "uint256",
          "name": "slotId",
          "type": "uint256"
        },
        {
          "components": [
            {
              "internalType": "address",
              "name": "erc721Contract",
              "type": "address"
            },
            {
              "internalType": "uint256",
              "name": "id",
              "type": "uint256"
            }
          ],
          "internalType": "struct InventoryStorage.Item[]",
          "name": "items",
          "type": "tuple[]"
        }
      ],
      "name": "allowItemsInSlot",
      "outputs": [],
      "stateMutability": "nonpayable",
      "type": "function"
    },
    {
      "inputs": [
        {
          "components": [
            {
              "internalType": "address",
              "name": "erc721Contract",
              "type": "address"
            },
            {
              "internalType": "uint256",
              "name": "id",
              "type": "uint256"
            }
          ],
          "internalType": "struct InventoryStorage.Item",
          "name": "item",
          "type": "tuple"
        }
      ],
      "name": "allowedSlot",
      "outputs": [
        {
          "internalType": "uint256",
          "name": "",
          "type": "uint256"
        }
      ],
      "stateMutability": "view",
      "type": "function"
    },
    {
      "inputs": [
        {
          "internalType": "uint256",
          "name": "arcadianId",
          "type": "uint256"
        }
      ],
      "name": "arcadianToBaseItemHash",
      "outputs": [
        {
          "internalType": "bytes32",
          "name": "",
          "type": "bytes32"
        }
      ],
      "stateMutability": "view",
      "type": "function"
    },
    {
      "inputs": [
        {
          "internalType": "bool",
          "name": "permanent",
          "type": "bool"
        },
        {
          "internalType": "bool",
          "name": "isBase",
          "type": "bool"
        },
        {
          "components": [
            {
              "internalType": "address",
              "name": "erc721Contract",
              "type": "address"
            },
            {
              "internalType": "uint256",
              "name": "id",
              "type": "uint256"
            }
          ],
          "internalType": "struct InventoryStorage.Item[]",
          "name": "items",
          "type": "tuple[]"
        }
      ],
      "name": "createSlot",
      "outputs": [],
      "stateMutability": "nonpayable",
      "type": "function"
    },
    {
      "inputs": [
        {
          "components": [
            {
              "internalType": "address",
              "name": "erc721Contract",
              "type": "address"
            },
            {
              "internalType": "uint256",
              "name": "id",
              "type": "uint256"
            }
          ],
          "internalType": "struct InventoryStorage.Item[]",
          "name": "items",
          "type": "tuple[]"
        }
      ],
      "name": "disallowItems",
      "outputs": [],
      "stateMutability": "nonpayable",
      "type": "function"
    },
    {
      "inputs": [
        {
          "internalType": "uint256",
          "name": "arcadianId",
          "type": "uint256"
        },
        {
          "components": [
            {
              "internalType": "address",
              "name": "erc721Contract",
              "type": "address"
            },
            {
              "internalType": "uint256",
              "name": "id",
              "type": "uint256"
            }
          ],
          "internalType": "struct InventoryStorage.Item[]",
          "name": "items",
          "type": "tuple[]"
        }
      ],
      "name": "equip",
      "outputs": [],
      "stateMutability": "nonpayable",
      "type": "function"
    },
    {
      "inputs": [
        {
          "internalType": "uint256",
          "name": "arcadianId",
          "type": "uint256"
        },
        {
          "internalType": "uint256",
          "name": "slotId",
          "type": "uint256"
        }
      ],
      "name": "equipped",
      "outputs": [
        {
          "components": [
            {
              "internalType": "uint256",
              "name": "slotId",
              "type": "uint256"
            },
            {
              "internalType": "address",
              "name": "erc721Contract",
              "type": "address"
            },
            {
              "internalType": "uint256",
              "name": "itemId",
              "type": "uint256"
            }
          ],
          "internalType": "struct InventoryInternal.ItemInSlot",
          "name": "item",
          "type": "tuple"
        }
      ],
      "stateMutability": "view",
      "type": "function"
    },
    {
      "inputs": [
        {
          "internalType": "uint256",
          "name": "arcadianId",
          "type": "uint256"
        }
      ],
      "name": "equippedAll",
      "outputs": [
        {
          "components": [
            {
              "internalType": "uint256",
              "name": "slotId",
              "type": "uint256"
            },
            {
              "internalType": "address",
              "name": "erc721Contract",
              "type": "address"
            },
            {
              "internalType": "uint256",
              "name": "itemId",
              "type": "uint256"
            }
          ],
          "internalType": "struct InventoryInternal.ItemInSlot[]",
          "name": "equippedSlot",
          "type": "tuple[]"
        }
      ],
      "stateMutability": "view",
      "type": "function"
    },
    {
      "inputs": [
        {
          "internalType": "uint256",
          "name": "arcadianId",
          "type": "uint256"
        },
        {
          "internalType": "uint256[]",
          "name": "slotIds",
          "type": "uint256[]"
        }
      ],
      "name": "equippedBatch",
      "outputs": [
        {
          "components": [
            {
              "internalType": "uint256",
              "name": "slotId",
              "type": "uint256"
            },
            {
              "internalType": "address",
              "name": "erc721Contract",
              "type": "address"
            },
            {
              "internalType": "uint256",
              "name": "itemId",
              "type": "uint256"
            }
          ],
          "internalType": "struct InventoryInternal.ItemInSlot[]",
          "name": "equippedSlot",
          "type": "tuple[]"
        }
      ],
      "stateMutability": "view",
      "type": "function"
    },
    {
      "inputs": [
        {
          "internalType": "address",
          "name": "account",
          "type": "address"
        },
        {
          "internalType": "uint256",
          "name": "slotId",
          "type": "uint256"
        }
      ],
      "name": "getBaseModifierCoupon",
      "outputs": [
        {
          "internalType": "uint256",
          "name": "",
          "type": "uint256"
        }
      ],
      "stateMutability": "view",
      "type": "function"
    },
    {
      "inputs": [
        {
          "internalType": "address",
          "name": "account",
          "type": "address"
        }
      ],
      "name": "getBaseModifierCouponAll",
      "outputs": [
        {
          "components": [
            {
              "internalType": "uint256",
              "name": "slotId",
              "type": "uint256"
            },
            {
              "internalType": "uint256",
              "name": "amount",
              "type": "uint256"
            }
          ],
          "internalType": "struct InventoryInternal.BaseModifierCoupon[]",
          "name": "",
          "type": "tuple[]"
        }
      ],
      "stateMutability": "view",
      "type": "function"
    },
    {
      "inputs": [
        {
          "internalType": "uint256",
          "name": "arcadianId",
          "type": "uint256"
        },
        {
          "components": [
            {
              "internalType": "address",
              "name": "erc721Contract",
              "type": "address"
            },
            {
              "internalType": "uint256",
              "name": "id",
              "type": "uint256"
            }
          ],
          "internalType": "struct InventoryStorage.Item[]",
          "name": "items",
          "type": "tuple[]"
        }
      ],
      "name": "isArcadianUnique",
      "outputs": [
        {
          "internalType": "bool",
          "name": "",
          "type": "bool"
        }
      ],
      "stateMutability": "view",
      "type": "function"
    },
    {
      "inputs": [],
      "name": "numSlots",
      "outputs": [
        {
          "internalType": "uint256",
          "name": "",
          "type": "uint256"
        }
      ],
      "stateMutability": "view",
      "type": "function"
    },
    {
      "inputs": [
        {
          "internalType": "address",
          "name": "",
          "type": "address"
        },
        {
          "internalType": "address",
          "name": "",
          "type": "address"
        },
        {
          "internalType": "uint256[]",
          "name": "",
          "type": "uint256[]"
        },
        {
          "internalType": "uint256[]",
          "name": "",
          "type": "uint256[]"
        },
        {
          "internalType": "bytes",
          "name": "",
          "type": "bytes"
        }
      ],
      "name": "onERC1155BatchReceived",
      "outputs": [
        {
          "internalType": "bytes4",
          "name": "",
          "type": "bytes4"
        }
      ],
      "stateMutability": "nonpayable",
      "type": "function"
    },
    {
      "inputs": [
        {
          "internalType": "address",
          "name": "",
          "type": "address"
        },
        {
          "internalType": "address",
          "name": "",
          "type": "address"
        },
        {
          "internalType": "uint256",
          "name": "",
          "type": "uint256"
        },
        {
          "internalType": "uint256",
          "name": "",
          "type": "uint256"
        },
        {
          "internalType": "bytes",
          "name": "",
          "type": "bytes"
        }
      ],
      "name": "onERC1155Received",
      "outputs": [
        {
          "internalType": "bytes4",
          "name": "",
          "type": "bytes4"
        }
      ],
      "stateMutability": "nonpayable",
      "type": "function"
    },
    {
      "inputs": [
        {
          "components": [
            {
              "internalType": "address",
              "name": "erc721Contract",
              "type": "address"
            },
            {
              "internalType": "uint256",
              "name": "id",
              "type": "uint256"
            }
          ],
          "internalType": "struct InventoryStorage.Item[]",
          "name": "items",
          "type": "tuple[]"
        },
        {
          "internalType": "bool[]",
          "name": "requiresTransfer",
          "type": "bool[]"
        }
      ],
      "name": "setItemsTransferRequired",
      "outputs": [],
      "stateMutability": "nonpayable",
      "type": "function"
    },
    {
      "inputs": [
        {
          "internalType": "uint256",
          "name": "slotId",
          "type": "uint256"
        },
        {
          "internalType": "bool",
          "name": "isBase",
          "type": "bool"
        }
      ],
      "name": "setSlotBase",
      "outputs": [],
      "stateMutability": "nonpayable",
      "type": "function"
    },
    {
      "inputs": [
        {
          "internalType": "uint256",
          "name": "slotId",
          "type": "uint256"
        },
        {
          "internalType": "bool",
          "name": "permanent",
          "type": "bool"
        }
      ],
      "name": "setSlotPermanent",
      "outputs": [],
      "stateMutability": "nonpayable",
      "type": "function"
    },
    {
      "inputs": [
        {
          "internalType": "uint256",
          "name": "slotId",
          "type": "uint256"
        }
      ],
      "name": "slot",
      "outputs": [
        {
          "components": [
            {
              "internalType": "uint256",
              "name": "id",
              "type": "uint256"
            },
            {
              "internalType": "bool",
              "name": "permanent",
              "type": "bool"
            },
            {
              "internalType": "bool",
              "name": "isBase",
              "type": "bool"
            }
          ],
          "internalType": "struct InventoryStorage.Slot",
          "name": "existentSlot",
          "type": "tuple"
        }
      ],
      "stateMutability": "view",
      "type": "function"
    },
    {
      "inputs": [],
      "name": "slotsAll",
      "outputs": [
        {
          "components": [
            {
              "internalType": "uint256",
              "name": "id",
              "type": "uint256"
            },
            {
              "internalType": "bool",
              "name": "permanent",
              "type": "bool"
            },
            {
              "internalType": "bool",
              "name": "isBase",
              "type": "bool"
            }
          ],
          "internalType": "struct InventoryStorage.Slot[]",
          "name": "existentSlots",
          "type": "tuple[]"
        }
      ],
      "stateMutability": "view",
      "type": "function"
    },
    {
      "inputs": [
        {
          "internalType": "bytes4",
          "name": "interfaceId",
          "type": "bytes4"
        }
      ],
      "name": "supportsInterface",
      "outputs": [
        {
          "internalType": "bool",
          "name": "",
          "type": "bool"
        }
      ],
      "stateMutability": "view",
      "type": "function"
    },
    {
      "inputs": [
        {
          "internalType": "uint256",
          "name": "arcadianId",
          "type": "uint256"
        },
        {
          "internalType": "uint256[]",
          "name": "slotIds",
          "type": "uint256[]"
        }
      ],
      "name": "unequip",
      "outputs": [],
      "stateMutability": "nonpayable",
      "type": "function"
    }
  ],
  "transactionHash": "0x34c869dfccb35f01953dafe1741a89d761d3b44a0b4278dcc75a8ea0e031f049",
  "args": [],
  "numDeployments": 1,
  "solcInputHash": "eaad4e83ae24a470940510742ed8a7c4",
  "bytecode": "0x608060405234801561001057600080fd5b50613078806100206000396000f3fe608060405234801561001057600080fd5b506004361061014d5760003560e01c806389633e51116100c3578063b2025e4f1161007c578063b2025e4f146102f7578063bc197c8114610386578063c06ffe90146103be578063ddac2008146103d1578063ef0bf7de146103e4578063f23a6e611461040457600080fd5b806389633e511461028e5780638e980d4d146102a1578063947687e7146102b45780639621ff25146102c75780639e3ccb2a146102cf578063b1b2fef4146102e257600080fd5b80632f8bd3c8116101155780632f8bd3c8146101e25780634605777d14610203578063473bdb9814610216578063603f40ec1461022957806371795fca146102685780637a8455a11461027b57600080fd5b806301ffc9a7146101525780630cf03ea91461017a5780630f58dcda1461018f5780631da7c70a146101af57806325989b45146101cf575b600080fd5b610165610160366004612613565b610423565b60405190151581526020015b60405180910390f35b61018d610188366004612652565b61045a565b005b6101a261019d3660046126c9565b610496565b6040516101719190612714565b6101c26101bd36600461278b565b6104ab565b60405161017191906127a8565b61018d6101dd3660046127f7565b6104b6565b6101f56101f0366004612879565b610528565b604051908152602001610171565b61018d6102113660046128d5565b610533565b61018d610224366004612940565b61056d565b6101f561023736600461297e565b60009081527ff672b8dc84d117c1e14949d8bc3977392b5ab7de9d01b854d389cdc31bf0d43d602052604090205490565b61018d610276366004612652565b6105a5565b610165610289366004612940565b6105d7565b6101f561029c366004612997565b6105e4565b61018d6102af366004612940565b6105f7565b61018d6102c23660046129c3565b610654565b6101f5610688565b6101a26102dd36600461297e565b610697565b6102ea6106a2565b6040516101719190612a17565b61037961030536600461297e565b6040805160608082018352600080835260208084018290529284018190529384527ff672b8dc84d117c1e14949d8bc3977392b5ab7de9d01b854d389cdc31bf0d43782529282902082519384018352805484526001015460ff80821615159285019290925261010090041615159082015290565b6040516101719190612a71565b6103a5610394366004612bca565b63bc197c8160e01b95945050505050565b6040516001600160e01b03199091168152602001610171565b61018d6103cc3660046126c9565b6106ac565b61018d6103df366004612c77565b6106fe565b6103f76103f2366004612cb8565b610730565b6040516101719190612cda565b6103a5610412366004612d04565b63f23a6e6160e01b95945050505050565b60006001600160e01b03198216630271189760e51b148061045457506301ffc9a760e01b6001600160e01b03198316145b92915050565b61046b610465610742565b3361076c565b6104885760405163d0befa1d60e01b815260040160405180910390fd5b61049282826107a3565b5050565b60606104a3848484610827565b949350505050565b606061045482610951565b6104c1610465610742565b1580156104f657506104f46104657ff6deb63e40d71b08820818e006e23fcceb1fce7a499bc15b71b2526cbf9efa735490565b155b1561051457604051630b24262960e31b815260040160405180910390fd5b6105218585858585610afd565b5050505050565b600061045482610ce5565b61053e610465610742565b61055b5760405163d0befa1d60e01b815260040160405180910390fd5b61056784848484610d53565b50505050565b610578610465610742565b6105955760405163d0befa1d60e01b815260040160405180910390fd5b6105a0838383610e60565b505050565b6105b0610465610742565b6105cd5760405163d0befa1d60e01b815260040160405180910390fd5b6104928282610fe8565b60006104a3848484611065565b60006105f08383611237565b9392505050565b7f09acf4e54214992e70883cf7dcd6957ff2c71cd9e14df4bec4383bc0d11607dc805460020361063a57604051635db5c7cd60e11b815260040160405180910390fd5b6002815561064b8484846000611316565b60019055505050565b61065f610465610742565b61067c5760405163d0befa1d60e01b815260040160405180910390fd5b610567848484846116d9565b6000610692611794565b905090565b6060610454826117aa565b60606106926118b1565b7f09acf4e54214992e70883cf7dcd6957ff2c71cd9e14df4bec4383bc0d11607dc80546002036106ef57604051635db5c7cd60e11b815260040160405180910390fd5b6002815561064b8484846119c2565b610709610465610742565b6107265760405163d0befa1d60e01b815260040160405180910390fd5b6104928282611c34565b6107386125e9565b6105f08383611d28565b60007ff6deb63e40d71b08820818e006e23fcceb1fce7a499bc15b71b2526cbf9efa725b54919050565b60008281527fd3889cc5458b268d0544e5534672df1296288ca3f93cbd39bd6f497a5c622811602052604081206105f09083611d95565b818015806107bf57506000805160206130238339815191525481115b156107dd5760405163d751397d60e01b815260040160405180910390fd5b5060009182527ff672b8dc84d117c1e14949d8bc3977392b5ab7de9d01b854d389cdc31bf0d437602052604090912060010180549115156101000261ff0019909216919091179055565b6060600080516020613023833981519152826001600160401b0381111561085057610850612a96565b60405190808252806020026020018201604052801561088957816020015b6108766125e9565b81526020019060019003908161086e5790505b50915060005b838110156109485760008681526002830160205260408120818787858181106108ba576108ba612d6c565b905060200201358152602001908152602001600020905060405180606001604052808787858181106108ee576108ee612d6c565b6020908102929092013583525083546001600160a01b0316908201526001830154604090910152845185908490811061092957610929612d6c565b602002602001018190525050808061094090612d98565b91505061088f565b50509392505050565b6000805160206130238339815191528054606091906000805b828110156109c457600061097f826001612db1565b6000818152600187810160205260409091200154909150610100900460ff16156109b157826109ad81612d98565b9350505b50806109bc81612d98565b91505061096a565b506000816001600160401b038111156109df576109df612a96565b604051908082528060200260200182016040528015610a2457816020015b60408051808201909152600080825260208201528152602001906001900390816109fd5790505b5090506000805b84811015610af1576000610a40826001612db1565b6000818152600189810160205260409091200154909150610100900460ff16610a695750610adf565b80848481518110610a7c57610a7c612d6c565b602090810291909101810151919091526001600160a01b038a166000908152600889018252604080822084835290925220548451859085908110610ac257610ac2612d6c565b602090810291909101810151015282610ada81612d98565b935050505b80610ae981612d98565b915050610a2b565b50909695505050505050565b828114610b1d576040516303f7219d60e41b815260040160405180910390fd5b600080516020613023833981519152805460005b85811015610c8a57868682818110610b4b57610b4b612d6c565b905060200201356000148015610b78575081878783818110610b6f57610b6f612d6c565b90506020020135115b15610b965760405163d751397d60e01b815260040160405180910390fd5b826001016000888884818110610bae57610bae612d6c565b90506020020135815260200190815260200160002060010160019054906101000a900460ff16610bf1576040516332fa2abb60e01b815260040160405180910390fd5b848482818110610c0357610c03612d6c565b90506020020135610c1f60008051602061302383398151915290565b6001600160a01b038a1660009081526008919091016020526040812090898985818110610c4e57610c4e612d6c565b9050602002013581526020019081526020016000206000828254610c729190612db1565b90915550819050610c8281612d98565b915050610b31565b50866001600160a01b0316336001600160a01b03167f79ef5dda420a532ad69ccb2d06e5304e6b2b0e93c99a27d63909c8ffce8faf4e88888888604051610cd49493929190612df6565b60405180910390a350505050505050565b60007ff672b8dc84d117c1e14949d8bc3977392b5ab7de9d01b854d389cdc31bf0d43981610d16602085018561278b565b6001600160a01b03166001600160a01b03168152602001908152602001600020600083602001358152602001908152602001600020549050919050565b828114610d73576040516303f7219d60e41b815260040160405180910390fd5b60008051602061302383398151915260005b84811015610e5857838382818110610d9f57610d9f612d6c565b9050602002016020810190610db49190612e1d565b826004016000888885818110610dcc57610dcc612d6c565b610de2926020604090920201908101915061278b565b6001600160a01b03166001600160a01b031681526020019081526020016000206000888885818110610e1657610e16612d6c565b90506040020160200135815260200190815260200160002060006101000a81548160ff0219169083151502179055508080610e5090612d98565b915050610d85565b505050505050565b82801580610e7c57506000805160206130238339815191525481115b15610e9a5760405163d751397d60e01b815260040160405180910390fd5b60008051602061302383398151915260005b83811015610f9d57610eee858583818110610ec957610ec9612d6c565b610edf926020604090920201908101915061278b565b6001600160a01b03163b151590565b610f0b57604051633c65e02b60e21b815260040160405180910390fd5b85826003016000878785818110610f2457610f24612d6c565b610f3a926020604090920201908101915061278b565b6001600160a01b03166001600160a01b031681526020019081526020016000206000878785818110610f6e57610f6e612d6c565b905060400201602001358152602001908152602001600020819055508080610f9590612d98565b915050610eac565b50336001600160a01b03167fe4b3865dba5d4ccb0b3d6c20155d67038ad51ad7205218a541036a99804571b78585604051610fd9929190612e38565b60405180910390a25050505050565b8180158061100457506000805160206130238339815191525481115b156110225760405163d751397d60e01b815260040160405180910390fd5b5060009182527ff672b8dc84d117c1e14949d8bc3977392b5ab7de9d01b854d389cdc31bf0d4376020526040909120600101805460ff1916911515919091179055565b6000805160206130238339815191528054600091906060835b82811015611215576000611093826001612db1565b6000818152600187810160205260409091200154909150610100900460ff166110bc5750611203565b604080518082019091526000808252602082015260005b8881101561114257826110fc8b8b848181106110f1576110f1612d6c565b905060400201610ce5565b036111305789898281811061111357611113612d6c565b9050604002018036038101906111299190612e91565b9150611142565b8061113a81612d98565b9150506110d3565b5080516001600160a01b03166111d45760008a815260028701602090815260408083208584529091529020546001600160a01b0316156111bb575060008981526002860160209081526040808320848452825291829020825180840190935280546001600160a01b0316835260010154908201526111d4565b60405163a9614f1560e01b815260040160405180910390fd5b80516020808301516040516111ef9388938793919201612ee8565b604051602081830303815290604052935050505b8061120d81612d98565b91505061107e565b508051602082012061122b906005850190611db7565b15979650505050505050565b60008180158061125557506000805160206130238339815191525481115b156112735760405163d751397d60e01b815260040160405180910390fd5b60008381527ff672b8dc84d117c1e14949d8bc3977392b5ab7de9d01b854d389cdc31bf0d4376020526040902060010154610100900460ff166112c9576040516332fa2abb60e01b815260040160405180910390fd5b6001600160a01b03841660009081527ff672b8dc84d117c1e14949d8bc3977392b5ab7de9d01b854d389cdc31bf0d43e6020908152604080832086845290915290205491505b5092915050565b6040516331a9108f60e11b815260048101859052849030908190636352211e90602401602060405180830381865afa158015611356573d6000803e3d6000fd5b505050506040513d601f19601f8201168201806040525081019061137a9190612f39565b6001600160a01b0316336001600160a01b0316146113ab5760405163aee05b5d60e01b815260040160405180910390fd5b60008490036113cd5760405163627652c960e11b815260040160405180910390fd5b600080516020613023833981519152600080866001600160401b038111156113f7576113f7612a96565b604051908082528060200260200182016040528015611420578160200160208202803683370190505b50905060005b878110156114b55760006114528b8b8b8581811061144657611446612d6c565b9050604002018a611dcf565b6000818152600187810160205260409091200154909150610100900460ff1615611484578361148081612d98565b9450505b8083838151811061149757611497612d6c565b602090810291909101015250806114ad81612d98565b915050611426565b506114bf8961218b565b6114dc5760405163a9614f1560e01b815260040160405180910390fd5b811561168c576114eb8961225a565b6115075760405162ecf30560e51b815260040160405180910390fd5b8561168c576000826001600160401b0381111561152657611526612a96565b60405190808252806020026020018201604052801561154f578160200160208202803683370190505b5090506000805b898110156116475760008660030160008d8d8581811061157857611578612d6c565b61158e926020604090920201908101915061278b565b6001600160a01b03166001600160a01b0316815260200190815260200160002060008d8d858181106115c2576115c2612d6c565b90506040020160200135815260200190815260200160002054905086600101600082815260200190815260200160002060010160019054906101000a900460ff1615611634578084848151811061161b5761161b612d6c565b60209081029190910101528261163081612d98565b9350505b508061163f81612d98565b915050611556565b50336001600160a01b03167f89bd170ed02db0339b3c90b91de53c2a07b48ad36cd559f2d04dd3c72521dacd836040516116819190612f56565b60405180910390a250505b88336001600160a01b03167f557dc03f902756383ba5a748ab63ec6ec44b2880dba84ad33dc6ffe670f18861836040516116c69190612f56565b60405180910390a3505050505050505050565b600080516020613023833981519152805460019082906000906116fd908490612db1565b90915550508054600081815260018084016020526040909120908101805461ffff191688151561ff0019161761010088151502179055819055821561174757611747818585610e60565b60408051828152871515602082015286151581830152905133917ff24b969da6d469bdd7271673478fb6360f5008752c5991749abbdb4624727012919081900360600190a2505050505050565b6000600080516020613023833981519152610766565b600080516020613023833981519152805460609190806001600160401b038111156117d7576117d7612a96565b60405190808252806020026020018201604052801561181057816020015b6117fd6125e9565b8152602001906001900390816117f55790505b50925060005b818110156118a957600061182b826001612db1565b60008781526002860160209081526040808320848452825291829020825160608101845284815281546001600160a01b0316928101929092526001810154928201929092528751929350909187908590811061188957611889612d6c565b6020026020010181905250505080806118a190612d98565b915050611816565b505050919050565b600080516020613023833981519152805460609190806001600160401b038111156118de576118de612a96565b60405190808252806020026020018201604052801561192957816020015b60408051606081018252600080825260208083018290529282015282526000199092019101816118fc5790505b50925060005b818110156119bc576000611944826001612db1565b60008181526001808701602090815260409283902083516060810185528154815292015460ff80821615159284019290925261010090041615159181019190915286519192509086908490811061199d5761199d612d6c565b60200260200101819052505080806119b490612d98565b91505061192f565b50505090565b6040516331a9108f60e11b815260048101849052839030908190636352211e90602401602060405180830381865afa158015611a02573d6000803e3d6000fd5b505050506040513d601f19601f82011682018060405250810190611a269190612f39565b6001600160a01b0316336001600160a01b031614611a575760405163aee05b5d60e01b815260040160405180910390fd5b6000805160206130238339815191526000849003611a8857604051635740c67760e11b815260040160405180910390fd5b60005b84811015611bdd57816001016000878784818110611aab57611aab612d6c565b602090810292909201358352508101919091526040016000206001015460ff1615611ae95760405163bd8a5e1560e01b815260040160405180910390fd5b6000878152600283016020526040812081888885818110611b0c57611b0c612d6c565b60209081029290920135835250810191909152604001600020546001600160a01b031603611b4d57604051632755285560e01b815260040160405180910390fd5b816001016000878784818110611b6557611b65612d6c565b90506020020135815260200190815260200160002060010160019054906101000a900460ff1615611ba95760405163abfc1e6160e01b815260040160405180910390fd5b611bcb87878784818110611bbf57611bbf612d6c565b9050602002013561237a565b80611bd581612d98565b915050611a8b565b50611be78661225a565b5085336001600160a01b03167f3822f2cd6d118934e31e6171da74d9d46131fb402be1861b3cb4460440aeab638787604051611c24929190612f8e565b60405180910390a3505050505050565b60008051602061302383398151915260005b82811015611cdf57816003016000858584818110611c6657611c66612d6c565b611c7c926020604090920201908101915061278b565b6001600160a01b03166001600160a01b031681526020019081526020016000206000858584818110611cb057611cb0612d6c565b905060400201602001358152602001908152602001600020600090558080611cd790612d98565b915050611c46565b50336001600160a01b03167fe4b3865dba5d4ccb0b3d6c20155d67038ad51ad7205218a541036a99804571b78484604051611d1b929190612e38565b60405180910390a2505050565b611d306125e9565b5060009182527ff672b8dc84d117c1e14949d8bc3977392b5ab7de9d01b854d389cdc31bf0d43860209081526040808420838552825292839020835160608101855292835280546001600160a01b031691830191909152600101549181019190915290565b6001600160a01b038116600090815260018301602052604081205415156105f0565b600081815260018301602052604081205415156105f0565b60006000805160206130238339815191527ff672b8dc84d117c1e14949d8bc3977392b5ab7de9d01b854d389cdc31bf0d43982611e0f602087018761278b565b6001600160a01b03168152602080820192909252604090810160009081208784013582529092529020549150811580611e5657506000805160206130238339815191525482115b15611e74576040516363efa0e360e01b815260040160405180910390fd5b82158015611e9a57506000828152600182810160205260409091200154610100900460ff165b15611f0b57336000908152600882016020908152604080832085845290915290205460011115611edd5760405163bbd28dfd60e01b815260040160405180910390fd5b33600090815260088201602090815260408083208584529091528120805491611f0583612fa2565b91905055505b60008581526002820160209081526040808320858452825280832060018086019093529220015460ff168015611f4a575080546001600160a01b031615155b15611f685760405163bd8a5e1560e01b815260040160405180910390fd5b611f75602086018661278b565b81546001600160a01b039081169116148015611f98575084602001358160010154145b15611fb65760405163c80df0cb60e01b815260040160405180910390fd5b600086815260028301602090815260408083208684529091529020546001600160a01b031615611fea57611fea868461237a565b60006004830181611ffe602089018961278b565b6001600160a01b031681526020808201929092526040908101600090812089840135825290925290205460ff1690508015612157576000612042602088018861278b565b604051627eeac760e11b8152336004820152602089013560248201529091506001906001600160a01b0383169062fdd58e90604401602060405180830381865afa158015612094573d6000803e3d6000fd5b505050506040513d601f19601f820116820180604052508101906120b89190612fb9565b10156120d7576040516335ba250d60e11b815260040160405180910390fd5b604051637921219560e11b8152336004820152306024820152602088013560448201526001606482015260a06084820152600060a48201526001600160a01b0382169063f242432a9060c401600060405180830381600087803b15801561213d57600080fd5b505af1158015612151573d6000803e3d6000fd5b50505050505b600087815260028401602090815260408083208784529091529020869061217e8282612fd2565b9050505050509392505050565b600080516020613023833981519152805460009190825b8181101561224f5760006121b7826001612db1565b6000818152600186810160205260409091200154909150610100900460ff166121e0575061223d565b6000818152600185810160205260409091200154610100900460ff16801561222a5750600086815260028501602090815260408083208484529091529020546001600160a01b0316155b1561223b5750600095945050505050565b505b8061224781612d98565b9150506121a2565b506001949350505050565b600080516020613023833981519152805460009190606090835b81811015612318576000612289826001612db1565b6000818152600187810160205260409091200154909150610100900460ff166122b25750612306565b6000878152600286016020908152604080832084845282529182902080546001820154935191936122f293899387936001600160a01b0316929101612ee8565b604051602081830303815290604052945050505b8061231081612d98565b915050612274565b508151602083012061232d6005850182611db7565b6000878152600786016020526040902054901595506123509060058601906124d4565b5061235e60058501826124e0565b5060009586526007909301602052505060409092209190915590565b60008281527ff672b8dc84d117c1e14949d8bc3977392b5ab7de9d01b854d389cdc31bf0d43860209081526040808320848452825280832080546001600160a01b031684527ff672b8dc84d117c1e14949d8bc3977392b5ab7de9d01b854d389cdc31bf0d43a83528184206001820154855290925290912054600080516020613023833981519152919060ff168015612497578154600180840154604051637921219560e11b81523060048201523360248201526044810191909152606481019190915260a06084820152600060a48201526001600160a01b0390911690819063f242432a9060c401600060405180830381600087803b15801561247d57600080fd5b505af1158015612491573d6000803e3d6000fd5b50505050505b50506000928352600201602090815260408084209284529190528120805473ffffffffffffffffffffffffffffffffffffffff1916815560010155565b60006105f083836124ec565b60006105f083836125a6565b6000818152600183016020526040812054801561130f5783546000908590600019810190811061251e5761251e612d6c565b906000526020600020015490508085600001600184038154811061254457612544612d6c565b60009182526020808320909101929092559182526001860190526040902081905583548490806125765761257661300c565b60008281526020808220830160001990810183905590920190925593815260019485019093525050604081205590565b6000818152600183016020526040812054610454575081546001808201845560008481526020808220909301849055845493815293810190915260409092205590565b60405180606001604052806000815260200160006001600160a01b03168152602001600081525090565b60006020828403121561262557600080fd5b81356001600160e01b0319811681146105f057600080fd5b8035801515811461264d57600080fd5b919050565b6000806040838503121561266557600080fd5b823591506126756020840161263d565b90509250929050565b60008083601f84011261269057600080fd5b5081356001600160401b038111156126a757600080fd5b6020830191508360208260051b85010111156126c257600080fd5b9250929050565b6000806000604084860312156126de57600080fd5b8335925060208401356001600160401b038111156126fb57600080fd5b6127078682870161267e565b9497909650939450505050565b6020808252825182820181905260009190848201906040850190845b81811015610af157612760838551805182526020808201516001600160a01b031690830152604090810151910152565b9284019260609290920191600101612730565b6001600160a01b038116811461278857600080fd5b50565b60006020828403121561279d57600080fd5b81356105f081612773565b602080825282518282018190526000919060409081850190868401855b828110156127ea578151805185528601518685015292840192908501906001016127c5565b5091979650505050505050565b60008060008060006060868803121561280f57600080fd5b853561281a81612773565b945060208601356001600160401b038082111561283657600080fd5b61284289838a0161267e565b9096509450604088013591508082111561285b57600080fd5b506128688882890161267e565b969995985093965092949392505050565b60006040828403121561288b57600080fd5b50919050565b60008083601f8401126128a357600080fd5b5081356001600160401b038111156128ba57600080fd5b6020830191508360208260061b85010111156126c257600080fd5b600080600080604085870312156128eb57600080fd5b84356001600160401b038082111561290257600080fd5b61290e88838901612891565b9096509450602087013591508082111561292757600080fd5b506129348782880161267e565b95989497509550505050565b60008060006040848603121561295557600080fd5b8335925060208401356001600160401b0381111561297257600080fd5b61270786828701612891565b60006020828403121561299057600080fd5b5035919050565b600080604083850312156129aa57600080fd5b82356129b581612773565b946020939093013593505050565b600080600080606085870312156129d957600080fd5b6129e28561263d565b93506129f06020860161263d565b925060408501356001600160401b03811115612a0b57600080fd5b61293487828801612891565b6020808252825182820181905260009190848201906040850190845b81811015610af157612a5e838551805182526020808201511515908301526040908101511515910152565b9284019260609290920191600101612a33565b8151815260208083015115159082015260408083015115159082015260608101610454565b634e487b7160e01b600052604160045260246000fd5b604051601f8201601f191681016001600160401b0381118282101715612ad457612ad4612a96565b604052919050565b600082601f830112612aed57600080fd5b813560206001600160401b03821115612b0857612b08612a96565b8160051b612b17828201612aac565b9283528481018201928281019087851115612b3157600080fd5b83870192505b84831015612b5057823582529183019190830190612b37565b979650505050505050565b600082601f830112612b6c57600080fd5b81356001600160401b03811115612b8557612b85612a96565b612b98601f8201601f1916602001612aac565b818152846020838601011115612bad57600080fd5b816020850160208301376000918101602001919091529392505050565b600080600080600060a08688031215612be257600080fd5b8535612bed81612773565b94506020860135612bfd81612773565b935060408601356001600160401b0380821115612c1957600080fd5b612c2589838a01612adc565b94506060880135915080821115612c3b57600080fd5b612c4789838a01612adc565b93506080880135915080821115612c5d57600080fd5b50612c6a88828901612b5b565b9150509295509295909350565b60008060208385031215612c8a57600080fd5b82356001600160401b03811115612ca057600080fd5b612cac85828601612891565b90969095509350505050565b60008060408385031215612ccb57600080fd5b50508035926020909101359150565b815181526020808301516001600160a01b0316908201526040808301519082015260608101610454565b600080600080600060a08688031215612d1c57600080fd5b8535612d2781612773565b94506020860135612d3781612773565b9350604086013592506060860135915060808601356001600160401b03811115612d6057600080fd5b612c6a88828901612b5b565b634e487b7160e01b600052603260045260246000fd5b634e487b7160e01b600052601160045260246000fd5b600060018201612daa57612daa612d82565b5060010190565b8082018082111561045457610454612d82565b81835260006001600160fb1b03831115612ddd57600080fd5b8260051b80836020870137939093016020019392505050565b604081526000612e0a604083018688612dc4565b8281036020840152612b50818587612dc4565b600060208284031215612e2f57600080fd5b6105f08261263d565b6020808252818101839052600090604080840186845b87811015612e84578135612e6181612773565b6001600160a01b0316835281850135858401529183019190830190600101612e4e565b5090979650505050505050565b600060408284031215612ea357600080fd5b604051604081018181106001600160401b0382111715612ec557612ec5612a96565b6040528235612ed381612773565b81526020928301359281019290925250919050565b6000855160005b81811015612f095760208189018101518583015201612eef565b50919091019384525060609190911b6bffffffffffffffffffffffff191660208301526034820152605401919050565b600060208284031215612f4b57600080fd5b81516105f081612773565b6020808252825182820181905260009190848201906040850190845b81811015610af157835183529284019291840191600101612f72565b6020815260006104a3602083018486612dc4565b600081612fb157612fb1612d82565b506000190190565b600060208284031215612fcb57600080fd5b5051919050565b8135612fdd81612773565b6001600160a01b0381166bffffffffffffffffffffffff60a01b83541617825550602082013560018201555050565b634e487b7160e01b600052603160045260246000fdfef672b8dc84d117c1e14949d8bc3977392b5ab7de9d01b854d389cdc31bf0d436a2646970667358221220a26708f02e88e4370c863196d6265ef0f5b488721b37992ce0b21633bc6e919264736f6c63430008130033",
  "devdoc": {
    "details": "This contract is responsible for managing the inventory system for the Arcadians using slots.  It defines the functionality to equip and unequip items to Arcadians, check if a combination of items  are unique, and retrieve the inventory slots and allowed items for a slot.  This contract also implements ERC1155Holder to handle ERC1155 token transfers This contract can be used as a facet of a diamond which follows the EIP-2535 diamond standard. It also uses the ReentrancyGuard and Multicall contracts for security and gas efficiency.",
    "kind": "dev",
    "methods": {
      "addBaseModifierCoupons(address,uint256[],uint256[])": {
        "params": {
          "account": "The account to increase the number of coupons",
          "amounts": "the amounts of coupons to increase",
          "slotsIds": "The slots ids to increase the number of coupons"
        }
      },
      "allowItemsInSlot(uint256,(address,uint256)[])": {
        "params": {
          "items": "The list of items to allow in the slot",
          "slotId": "The slot id"
        }
      },
      "allowedSlot((address,uint256))": {
        "params": {
          "item": "The item to check"
        },
        "returns": {
          "_0": "The allowed slot id for the item. Slots are 1-indexed."
        }
      },
      "createSlot(bool,bool,(address,uint256)[])": {
        "details": "This function is only accessible to the manager roleSlots are 1-indexed",
        "params": {
          "isBase": "If the slot is base",
          "items": "The list of items to allow in the slot",
          "permanent": "Whether or not the slot can be unequipped once equipped"
        }
      },
      "disallowItems((address,uint256)[])": {
        "params": {
          "items": "The list of items to disallow in the slot"
        }
      },
      "equip(uint256,(address,uint256)[])": {
        "params": {
          "arcadianId": "The ID of the Arcadian NFT to equip the items for",
          "items": "An array of items to equip in the corresponding slots"
        }
      },
      "equipped(uint256,uint256)": {
        "params": {
          "arcadianId": "The ID of the Arcadian NFT to query",
          "slotId": "The slot id to query"
        }
      },
      "equippedAll(uint256)": {
        "params": {
          "arcadianId": "The ID of the Arcadian NFT to query"
        }
      },
      "equippedBatch(uint256,uint256[])": {
        "params": {
          "arcadianId": "The ID of the Arcadian NFT to query",
          "slotIds": "The slots ids to query"
        }
      },
      "getBaseModifierCoupon(address,uint256)": {
        "params": {
          "account": "The accounts to increase the number of coupons",
          "slotId": "The slot to get the coupon amount from"
        }
      },
      "getBaseModifierCouponAll(address)": {
        "params": {
          "account": "The accounts to increase the number of coupons"
        }
      },
      "isArcadianUnique(uint256,(address,uint256)[])": {
        "details": "The uniqueness is calculated using the existent arcadian items and the input items as wellOnly items equipped in 'base' slots are considered for uniqueness",
        "params": {
          "arcadianId": "The ID of the Arcadian NFT to query",
          "items": "An array of items to check for uniqueness after \"equipped\" over the existent arcadian items."
        }
      },
      "numSlots()": {
        "details": "Slots are 1-indexed",
        "returns": {
          "_0": "The number of inventory slots "
        }
      },
      "setItemsTransferRequired((address,uint256)[],bool[])": {
        "params": {
          "items": "The list of items",
          "requiresTransfer": "If it requires item transfer to be equipped"
        }
      },
      "setSlotBase(uint256,bool)": {
        "details": "This function is only accessible to the manager roleSlots are 1-indexed",
        "params": {
          "isBase": "Whether or not the slot is base"
        }
      },
      "setSlotPermanent(uint256,bool)": {
        "details": "This function is only accessible to the manager roleSlots are 1-indexed",
        "params": {
          "permanent": "Whether or not the slot is permanent"
        }
      },
      "slot(uint256)": {
        "details": "Slots are 1-indexed",
        "params": {
          "slotId": "The ID of the inventory slot"
        },
        "returns": {
          "existentSlot": "The details of the inventory slot"
        }
      },
      "slotsAll()": {
        "details": "Slots are 1-indexed",
        "returns": {
          "existentSlots": "The details of all the inventory slots"
        }
      },
      "supportsInterface(bytes4)": {
        "details": "See {IERC165-supportsInterface}."
      },
      "unequip(uint256,uint256[])": {
        "params": {
          "arcadianId": "The ID of the Arcadian NFT to equip the item for",
          "slotIds": "The slots ids in which the items will be unequipped"
        }
      }
    },
    "title": "InventoryFacet",
    "version": 1
  },
  "userdoc": {
    "kind": "user",
    "methods": {
      "addBaseModifierCoupons(address,uint256[],uint256[])": {
        "notice": "Adds coupons to accounts that allow to modify the base traits"
      },
      "allowItemsInSlot(uint256,(address,uint256)[])": {
        "notice": "Adds items to the list of allowed items for an inventory slot"
      },
      "allowedSlot((address,uint256))": {
        "notice": "Returns the allowed slot for a given item"
      },
      "createSlot(bool,bool,(address,uint256)[])": {
        "notice": "Creates a new inventory slot"
      },
      "disallowItems((address,uint256)[])": {
        "notice": "Removes items from the list of allowed items"
      },
      "equip(uint256,(address,uint256)[])": {
        "notice": "Equips multiple items to multiple slots for a specified Arcadian NFT"
      },
      "equipped(uint256,uint256)": {
        "notice": "Retrieves the equipped item in a slot for a specified Arcadian NFT"
      },
      "equippedAll(uint256)": {
        "notice": "Retrieves all the equipped items for a specified Arcadian NFT"
      },
      "equippedBatch(uint256,uint256[])": {
        "notice": "Retrieves the equipped items in the slot of an Arcadian NFT"
      },
      "getBaseModifierCoupon(address,uint256)": {
        "notice": "Returns the number coupons available for an account that allow to modify the base traits"
      },
      "getBaseModifierCouponAll(address)": {
        "notice": "Returns the number coupons available for an account that allow to modify the base traits"
      },
      "isArcadianUnique(uint256,(address,uint256)[])": {
        "notice": "Indicates if a list of items applied to an the arcadian is unique"
      },
      "numSlots()": {
        "notice": "Returns the number of inventory slots"
      },
      "setItemsTransferRequired((address,uint256)[],bool[])": {
        "notice": "Sets the items transfer required on equip"
      },
      "setSlotBase(uint256,bool)": {
        "notice": "Sets the slot base property"
      },
      "setSlotPermanent(uint256,bool)": {
        "notice": "Sets the slot permanent property"
      },
      "slot(uint256)": {
        "notice": "Returns the details of an inventory slot given its ID"
      },
      "slotsAll()": {
        "notice": "Returns the details of all the existent slots"
      },
      "unequip(uint256,uint256[])": {
        "notice": "Unequips the items equipped in multiple slots for a specified Arcadian NFT"
      }
    },
    "version": 1
  },
  "storageLayout": {
    "storage": [],
    "types": null
  }
}