{
  "address": "0x5734Ee1d6b2E050A60F78B439144a2e311945E00",
  "abi": [
    {
      "inputs": [],
      "name": "Inventory_ArcadianNotUnique",
      "type": "error"
    },
    {
      "inputs": [],
      "name": "Inventory_CouponNeededToModifyBaseSlots",
      "type": "error"
    },
    {
      "inputs": [],
      "name": "Inventory_InputDataMismatch",
      "type": "error"
    },
    {
      "inputs": [],
      "name": "Inventory_InsufficientItemBalance",
      "type": "error"
    },
    {
      "inputs": [],
      "name": "Inventory_InvalidERC1155Contract",
      "type": "error"
    },
    {
      "inputs": [],
      "name": "Inventory_InvalidSlotId",
      "type": "error"
    },
    {
      "inputs": [],
      "name": "Inventory_ItemAlreadyEquippedInSlot",
      "type": "error"
    },
    {
      "inputs": [],
      "name": "Inventory_ItemDoesNotHaveSlotAssigned",
      "type": "error"
    },
    {
      "inputs": [],
      "name": "Inventory_ItemNotSpecified",
      "type": "error"
    },
    {
      "inputs": [],
      "name": "Inventory_NonBaseSlot",
      "type": "error"
    },
    {
      "inputs": [],
      "name": "Inventory_NotAllBaseSlotsEquipped",
      "type": "error"
    },
    {
      "inputs": [],
      "name": "Inventory_NotArcadianOwner",
      "type": "error"
    },
    {
      "inputs": [],
      "name": "Inventory_SlotNotSpecified",
      "type": "error"
    },
    {
      "inputs": [],
      "name": "Inventory_UnequippingBaseSlot",
      "type": "error"
    },
    {
      "inputs": [],
      "name": "Inventory_UnequippingEmptySlot",
      "type": "error"
    },
    {
      "inputs": [],
      "name": "Inventory_UnequippingPermanentSlot",
      "type": "error"
    },
    {
      "inputs": [],
      "name": "ReentrancyGuard__ReentrantCall",
      "type": "error"
    },
    {
      "inputs": [],
      "name": "Roles_MissingAdminRole",
      "type": "error"
    },
    {
      "inputs": [],
      "name": "Roles_MissingAutomationRole",
      "type": "error"
    },
    {
      "inputs": [],
      "name": "Roles_MissingManagerRole",
      "type": "error"
    },
    {
      "anonymous": false,
      "inputs": [
        {
          "indexed": true,
          "internalType": "address",
          "name": "by",
          "type": "address"
        },
        {
          "indexed": true,
          "internalType": "address",
          "name": "to",
          "type": "address"
        },
        {
          "indexed": false,
          "internalType": "uint256[]",
          "name": "slotsIds",
          "type": "uint256[]"
        },
        {
          "indexed": false,
          "internalType": "uint256[]",
          "name": "amounts",
          "type": "uint256[]"
        }
      ],
      "name": "BaseModifierCouponAdded",
      "type": "event"
    },
    {
      "anonymous": false,
      "inputs": [
        {
          "indexed": true,
          "internalType": "address",
          "name": "account",
          "type": "address"
        },
        {
          "indexed": false,
          "internalType": "uint256[]",
          "name": "slotsIds",
          "type": "uint256[]"
        }
      ],
      "name": "BaseModifierCouponConsumed",
      "type": "event"
    },
    {
      "anonymous": false,
      "inputs": [
        {
          "indexed": true,
          "internalType": "address",
          "name": "by",
          "type": "address"
        },
        {
          "indexed": false,
          "internalType": "uint256",
          "name": "slotId",
          "type": "uint256"
        }
      ],
      "name": "ItemsAllowedInSlotUpdated",
      "type": "event"
    },
    {
      "anonymous": false,
      "inputs": [
        {
          "indexed": true,
          "internalType": "address",
          "name": "by",
          "type": "address"
        },
        {
          "indexed": true,
          "internalType": "uint256",
          "name": "arcadianId",
          "type": "uint256"
        },
        {
          "indexed": false,
          "internalType": "uint256[]",
          "name": "slots",
          "type": "uint256[]"
        }
      ],
      "name": "ItemsEquipped",
      "type": "event"
    },
    {
      "anonymous": false,
      "inputs": [
        {
          "indexed": true,
          "internalType": "address",
          "name": "by",
          "type": "address"
        },
        {
          "indexed": true,
          "internalType": "uint256",
          "name": "arcadianId",
          "type": "uint256"
        },
        {
          "indexed": false,
          "internalType": "uint256[]",
          "name": "slots",
          "type": "uint256[]"
        }
      ],
      "name": "ItemsUnequipped",
      "type": "event"
    },
    {
      "anonymous": false,
      "inputs": [
        {
          "indexed": true,
          "internalType": "bytes32",
          "name": "role",
          "type": "bytes32"
        },
        {
          "indexed": true,
          "internalType": "bytes32",
          "name": "previousAdminRole",
          "type": "bytes32"
        },
        {
          "indexed": true,
          "internalType": "bytes32",
          "name": "newAdminRole",
          "type": "bytes32"
        }
      ],
      "name": "RoleAdminChanged",
      "type": "event"
    },
    {
      "anonymous": false,
      "inputs": [
        {
          "indexed": true,
          "internalType": "bytes32",
          "name": "role",
          "type": "bytes32"
        },
        {
          "indexed": true,
          "internalType": "address",
          "name": "account",
          "type": "address"
        },
        {
          "indexed": true,
          "internalType": "address",
          "name": "sender",
          "type": "address"
        }
      ],
      "name": "RoleGranted",
      "type": "event"
    },
    {
      "anonymous": false,
      "inputs": [
        {
          "indexed": true,
          "internalType": "bytes32",
          "name": "role",
          "type": "bytes32"
        },
        {
          "indexed": true,
          "internalType": "address",
          "name": "account",
          "type": "address"
        },
        {
          "indexed": true,
          "internalType": "address",
          "name": "sender",
          "type": "address"
        }
      ],
      "name": "RoleRevoked",
      "type": "event"
    },
    {
      "anonymous": false,
      "inputs": [
        {
          "indexed": true,
          "internalType": "address",
          "name": "by",
          "type": "address"
        },
        {
          "indexed": false,
          "internalType": "uint256",
          "name": "slotId",
          "type": "uint256"
        },
        {
          "indexed": false,
          "internalType": "bool",
          "name": "permanent",
          "type": "bool"
        },
        {
          "indexed": false,
          "internalType": "bool",
          "name": "isBase",
          "type": "bool"
        }
      ],
      "name": "SlotCreated",
      "type": "event"
    },
    {
      "inputs": [
        {
          "internalType": "address",
          "name": "account",
          "type": "address"
        },
        {
          "internalType": "uint256[]",
          "name": "slotsIds",
          "type": "uint256[]"
        },
        {
          "internalType": "uint256[]",
          "name": "amounts",
          "type": "uint256[]"
        }
      ],
      "name": "addBaseModifierCoupons",
      "outputs": [],
      "stateMutability": "nonpayable",
      "type": "function"
    },
    {
      "inputs": [
        {
          "internalType": "uint256",
          "name": "slotId",
          "type": "uint256"
        },
        {
          "components": [
            {
              "internalType": "address",
              "name": "erc721Contract",
              "type": "address"
            },
            {
              "internalType": "uint256",
              "name": "id",
              "type": "uint256"
            }
          ],
          "internalType": "struct InventoryStorage.Item[]",
          "name": "items",
          "type": "tuple[]"
        }
      ],
      "name": "allowItemsInSlot",
      "outputs": [],
      "stateMutability": "nonpayable",
      "type": "function"
    },
    {
      "inputs": [
        {
          "internalType": "uint256",
          "name": "slotId",
          "type": "uint256"
        },
        {
          "internalType": "uint256",
          "name": "index",
          "type": "uint256"
        }
      ],
      "name": "allowedItem",
      "outputs": [
        {
          "components": [
            {
              "internalType": "address",
              "name": "erc721Contract",
              "type": "address"
            },
            {
              "internalType": "uint256",
              "name": "id",
              "type": "uint256"
            }
          ],
          "internalType": "struct InventoryStorage.Item",
          "name": "",
          "type": "tuple"
        }
      ],
      "stateMutability": "view",
      "type": "function"
    },
    {
      "inputs": [
        {
          "components": [
            {
              "internalType": "address",
              "name": "erc721Contract",
              "type": "address"
            },
            {
              "internalType": "uint256",
              "name": "id",
              "type": "uint256"
            }
          ],
          "internalType": "struct InventoryStorage.Item",
          "name": "item",
          "type": "tuple"
        }
      ],
      "name": "allowedSlot",
      "outputs": [
        {
          "internalType": "uint256",
          "name": "",
          "type": "uint256"
        }
      ],
      "stateMutability": "view",
      "type": "function"
    },
    {
      "inputs": [
        {
          "internalType": "uint256",
          "name": "arcadianId",
          "type": "uint256"
        }
      ],
      "name": "arcadianToBaseItemHash",
      "outputs": [
        {
          "internalType": "bytes32",
          "name": "",
          "type": "bytes32"
        }
      ],
      "stateMutability": "view",
      "type": "function"
    },
    {
      "inputs": [
        {
          "internalType": "bool",
          "name": "permanent",
          "type": "bool"
        },
        {
          "internalType": "bool",
          "name": "isBase",
          "type": "bool"
        },
        {
          "components": [
            {
              "internalType": "address",
              "name": "erc721Contract",
              "type": "address"
            },
            {
              "internalType": "uint256",
              "name": "id",
              "type": "uint256"
            }
          ],
          "internalType": "struct InventoryStorage.Item[]",
          "name": "items",
          "type": "tuple[]"
        }
      ],
      "name": "createSlot",
      "outputs": [],
      "stateMutability": "nonpayable",
      "type": "function"
    },
    {
      "inputs": [
        {
          "internalType": "uint256",
          "name": "slotId",
          "type": "uint256"
        },
        {
          "components": [
            {
              "internalType": "address",
              "name": "erc721Contract",
              "type": "address"
            },
            {
              "internalType": "uint256",
              "name": "id",
              "type": "uint256"
            }
          ],
          "internalType": "struct InventoryStorage.Item[]",
          "name": "items",
          "type": "tuple[]"
        }
      ],
      "name": "disallowItemsInSlot",
      "outputs": [],
      "stateMutability": "nonpayable",
      "type": "function"
    },
    {
      "inputs": [
        {
          "internalType": "uint256",
          "name": "arcadianId",
          "type": "uint256"
        },
        {
          "components": [
            {
              "internalType": "address",
              "name": "erc721Contract",
              "type": "address"
            },
            {
              "internalType": "uint256",
              "name": "id",
              "type": "uint256"
            }
          ],
          "internalType": "struct InventoryStorage.Item[]",
          "name": "items",
          "type": "tuple[]"
        }
      ],
      "name": "equip",
      "outputs": [],
      "stateMutability": "nonpayable",
      "type": "function"
    },
    {
      "inputs": [
        {
          "internalType": "uint256",
          "name": "arcadianId",
          "type": "uint256"
        },
        {
          "internalType": "uint256",
          "name": "slotId",
          "type": "uint256"
        }
      ],
      "name": "equipped",
      "outputs": [
        {
          "components": [
            {
              "internalType": "uint256",
              "name": "slotId",
              "type": "uint256"
            },
            {
              "internalType": "address",
              "name": "erc721Contract",
              "type": "address"
            },
            {
              "internalType": "uint256",
              "name": "itemId",
              "type": "uint256"
            }
          ],
          "internalType": "struct InventoryInternal.ItemInSlot",
          "name": "item",
          "type": "tuple"
        }
      ],
      "stateMutability": "view",
      "type": "function"
    },
    {
      "inputs": [
        {
          "internalType": "uint256",
          "name": "arcadianId",
          "type": "uint256"
        }
      ],
      "name": "equippedAll",
      "outputs": [
        {
          "components": [
            {
              "internalType": "uint256",
              "name": "slotId",
              "type": "uint256"
            },
            {
              "internalType": "address",
              "name": "erc721Contract",
              "type": "address"
            },
            {
              "internalType": "uint256",
              "name": "itemId",
              "type": "uint256"
            }
          ],
          "internalType": "struct InventoryInternal.ItemInSlot[]",
          "name": "equippedSlot",
          "type": "tuple[]"
        }
      ],
      "stateMutability": "view",
      "type": "function"
    },
    {
      "inputs": [
        {
          "internalType": "uint256",
          "name": "arcadianId",
          "type": "uint256"
        },
        {
          "internalType": "uint256[]",
          "name": "slotIds",
          "type": "uint256[]"
        }
      ],
      "name": "equippedBatch",
      "outputs": [
        {
          "components": [
            {
              "internalType": "uint256",
              "name": "slotId",
              "type": "uint256"
            },
            {
              "internalType": "address",
              "name": "erc721Contract",
              "type": "address"
            },
            {
              "internalType": "uint256",
              "name": "itemId",
              "type": "uint256"
            }
          ],
          "internalType": "struct InventoryInternal.ItemInSlot[]",
          "name": "equippedSlot",
          "type": "tuple[]"
        }
      ],
      "stateMutability": "view",
      "type": "function"
    },
    {
      "inputs": [
        {
          "internalType": "address",
          "name": "account",
          "type": "address"
        },
        {
          "internalType": "uint256",
          "name": "slotId",
          "type": "uint256"
        }
      ],
      "name": "getBaseModifierCoupon",
      "outputs": [
        {
          "internalType": "uint256",
          "name": "",
          "type": "uint256"
        }
      ],
      "stateMutability": "view",
      "type": "function"
    },
    {
      "inputs": [
        {
          "internalType": "address",
          "name": "account",
          "type": "address"
        }
      ],
      "name": "getBaseModifierCouponAll",
      "outputs": [
        {
          "components": [
            {
              "internalType": "uint256",
              "name": "slotId",
              "type": "uint256"
            },
            {
              "internalType": "uint256",
              "name": "amount",
              "type": "uint256"
            }
          ],
          "internalType": "struct InventoryInternal.BaseModifierCoupon[]",
          "name": "",
          "type": "tuple[]"
        }
      ],
      "stateMutability": "view",
      "type": "function"
    },
    {
      "inputs": [
        {
          "internalType": "uint256",
          "name": "arcadianId",
          "type": "uint256"
        },
        {
          "components": [
            {
              "internalType": "address",
              "name": "erc721Contract",
              "type": "address"
            },
            {
              "internalType": "uint256",
              "name": "id",
              "type": "uint256"
            }
          ],
          "internalType": "struct InventoryStorage.Item[]",
          "name": "items",
          "type": "tuple[]"
        }
      ],
      "name": "isArcadianUnique",
      "outputs": [
        {
          "internalType": "bool",
          "name": "",
          "type": "bool"
        }
      ],
      "stateMutability": "view",
      "type": "function"
    },
    {
      "inputs": [
        {
          "internalType": "uint256",
          "name": "slotId",
          "type": "uint256"
        }
      ],
      "name": "numAllowedItems",
      "outputs": [
        {
          "internalType": "uint256",
          "name": "",
          "type": "uint256"
        }
      ],
      "stateMutability": "view",
      "type": "function"
    },
    {
      "inputs": [],
      "name": "numSlots",
      "outputs": [
        {
          "internalType": "uint256",
          "name": "",
          "type": "uint256"
        }
      ],
      "stateMutability": "view",
      "type": "function"
    },
    {
      "inputs": [
        {
          "internalType": "address",
          "name": "",
          "type": "address"
        },
        {
          "internalType": "address",
          "name": "",
          "type": "address"
        },
        {
          "internalType": "uint256[]",
          "name": "",
          "type": "uint256[]"
        },
        {
          "internalType": "uint256[]",
          "name": "",
          "type": "uint256[]"
        },
        {
          "internalType": "bytes",
          "name": "",
          "type": "bytes"
        }
      ],
      "name": "onERC1155BatchReceived",
      "outputs": [
        {
          "internalType": "bytes4",
          "name": "",
          "type": "bytes4"
        }
      ],
      "stateMutability": "nonpayable",
      "type": "function"
    },
    {
      "inputs": [
        {
          "internalType": "address",
          "name": "",
          "type": "address"
        },
        {
          "internalType": "address",
          "name": "",
          "type": "address"
        },
        {
          "internalType": "uint256",
          "name": "",
          "type": "uint256"
        },
        {
          "internalType": "uint256",
          "name": "",
          "type": "uint256"
        },
        {
          "internalType": "bytes",
          "name": "",
          "type": "bytes"
        }
      ],
      "name": "onERC1155Received",
      "outputs": [
        {
          "internalType": "bytes4",
          "name": "",
          "type": "bytes4"
        }
      ],
      "stateMutability": "nonpayable",
      "type": "function"
    },
    {
      "inputs": [
        {
          "internalType": "uint256",
          "name": "slotId",
          "type": "uint256"
        }
      ],
      "name": "slot",
      "outputs": [
        {
          "components": [
            {
              "internalType": "uint256",
              "name": "id",
              "type": "uint256"
            },
            {
              "internalType": "bool",
              "name": "permanent",
              "type": "bool"
            },
            {
              "internalType": "bool",
              "name": "isBase",
              "type": "bool"
            }
          ],
          "internalType": "struct InventoryStorage.Slot",
          "name": "existentSlot",
          "type": "tuple"
        }
      ],
      "stateMutability": "view",
      "type": "function"
    },
    {
      "inputs": [],
      "name": "slotsAll",
      "outputs": [
        {
          "components": [
            {
              "internalType": "uint256",
              "name": "id",
              "type": "uint256"
            },
            {
              "internalType": "bool",
              "name": "permanent",
              "type": "bool"
            },
            {
              "internalType": "bool",
              "name": "isBase",
              "type": "bool"
            }
          ],
          "internalType": "struct InventoryStorage.Slot[]",
          "name": "existentSlots",
          "type": "tuple[]"
        }
      ],
      "stateMutability": "view",
      "type": "function"
    },
    {
      "inputs": [
        {
          "internalType": "bytes4",
          "name": "interfaceId",
          "type": "bytes4"
        }
      ],
      "name": "supportsInterface",
      "outputs": [
        {
          "internalType": "bool",
          "name": "",
          "type": "bool"
        }
      ],
      "stateMutability": "view",
      "type": "function"
    },
    {
      "inputs": [
        {
          "internalType": "uint256",
          "name": "arcadianId",
          "type": "uint256"
        },
        {
          "internalType": "uint256[]",
          "name": "slotIds",
          "type": "uint256[]"
        }
      ],
      "name": "unequip",
      "outputs": [],
      "stateMutability": "nonpayable",
      "type": "function"
    }
  ],
  "transactionHash": "0x65a22af3902edf9397e0ca3cdb726a2df36b2646f9d052b0b2ceda8b651e0d8c",
  "args": [],
  "numDeployments": 2,
  "solcInputHash": "bee0476e619d91b5b464323132aa5b03",
  "bytecode": "0x608060405234801561001057600080fd5b50613084806100206000396000f3fe608060405234801561001057600080fd5b50600436106101425760003560e01c806389633e51116100b8578063b1b2fef41161007c578063b1b2fef4146102fb578063b2025e4f14610310578063bc197c811461039f578063c06ffe90146103d7578063ef0bf7de146103ea578063f23a6e611461040a57600080fd5b806389633e51146102a75780638e980d4d146102ba578063947687e7146102cd5780639621ff25146102e05780639e3ccb2a146102e857600080fd5b80634274a1431161010a5780634274a143146101e5578063473bdb98146101f8578063603f40ec1461020b578063633e2d5a1461024a5780637a8455a11461025d5780637f85db2d1461027057600080fd5b806301ffc9a7146101475780630f58dcda1461016f5780631da7c70a1461018f57806325989b45146101af5780632f8bd3c8146101c4575b600080fd5b61015a610155366004612740565b610429565b60405190151581526020015b60405180910390f35b61018261017d3660046127b5565b610460565b6040516101669190612800565b6101a261019d366004612883565b610475565b60405161016691906128a0565b6101c26101bd3660046128ef565b610480565b005b6101d76101d2366004612971565b6104f8565b604051908152602001610166565b6101c26101f33660046129cd565b610503565b6101c26102063660046129cd565b61053b565b6101d7610219366004612a0b565b60009081527ff672b8dc84d117c1e14949d8bc3977392b5ab7de9d01b854d389cdc31bf0d43d602052604090205490565b6101d7610258366004612a0b565b61056e565b61015a61026b3660046129cd565b610579565b61028361027e366004612a24565b610586565b6040805182516001600160a01b031681526020928301519281019290925201610166565b6101d76102b5366004612a46565b6105ab565b6101c26102c83660046129cd565b6105b7565b6101c26102db366004612a87565b610614565b6101d761064e565b6101826102f6366004612a0b565b61065d565b610303610668565b6040516101669190612ae7565b61039261031e366004612a0b565b6040805160608082018352600080835260208084018290529284018190529384527ff672b8dc84d117c1e14949d8bc3977392b5ab7de9d01b854d389cdc31bf0d43782529282902082519384018352805484526001015460ff80821615159285019290925261010090041615159082015290565b6040516101669190612b41565b6103be6103ad366004612c9a565b63bc197c8160e01b95945050505050565b6040516001600160e01b03199091168152602001610166565b6101c26103e53660046127b5565b610672565b6103fd6103f8366004612a24565b6106c4565b6040516101669190612d47565b6103be610418366004612d71565b63f23a6e6160e01b95945050505050565b60006001600160e01b03198216630271189760e51b148061045a57506301ffc9a760e01b6001600160e01b03198316145b92915050565b606061046d8484846106d6565b949350505050565b606061045a82610800565b61049161048b61099e565b336109c8565b1580156104c657506104c461048b7ff6deb63e40d71b08820818e006e23fcceb1fce7a499bc15b71b2526cbf9efa735490565b155b156104e457604051630b24262960e31b815260040160405180910390fd5b6104f185858585856109ff565b5050505050565b600061045a82610be7565b61050e61048b61099e565b61052b5760405163d0befa1d60e01b815260040160405180910390fd5b610536838383610c55565b505050565b61054661048b61099e565b6105635760405163d0befa1d60e01b815260040160405180910390fd5b610536838383610d9a565b600061045a82611044565b600061046d8484846110b3565b60408051808201909152600080825260208201526105a48383611285565b9392505050565b60006105a4838361134f565b7f09acf4e54214992e70883cf7dcd6957ff2c71cd9e14df4bec4383bc0d11607dc80546002036105fa57604051635db5c7cd60e11b815260040160405180910390fd5b6002815561060b848484600061142a565b60019055505050565b61061f61048b61099e565b61063c5760405163d0befa1d60e01b815260040160405180910390fd5b610648848484846117ed565b50505050565b60006106586118a8565b905090565b606061045a826118be565b60606106586119c5565b7f09acf4e54214992e70883cf7dcd6957ff2c71cd9e14df4bec4383bc0d11607dc80546002036106b557604051635db5c7cd60e11b815260040160405180910390fd5b6002815561060b848484611ad6565b6106cc612716565b6105a48383611c22565b606060008051602061302f833981519152826001600160401b038111156106ff576106ff612b66565b60405190808252806020026020018201604052801561073857816020015b610725612716565b81526020019060019003908161071d5790505b50915060005b838110156107f757600086815260028301602052604081208187878581811061076957610769612dd9565b9050602002013581526020019081526020016000209050604051806060016040528087878581811061079d5761079d612dd9565b6020908102929092013583525083546001600160a01b031690820152600183015460409091015284518590849081106107d8576107d8612dd9565b60200260200101819052505080806107ef90612e05565b91505061073e565b50509392505050565b60008051602061302f8339815191528054606091906000805b8281101561087357600061082e826001612e1e565b6000818152600187810160205260409091200154909150610100900460ff1615610860578261085c81612e05565b9350505b508061086b81612e05565b915050610819565b506000816001600160401b0381111561088e5761088e612b66565b6040519080825280602002602001820160405280156108d357816020015b60408051808201909152600080825260208201528152602001906001900390816108ac5790505b50905060005b838110156109945760006108ee826001612e1e565b6000818152600188810160205260409091200154909150610100900460ff166109175750610982565b8083838151811061092a5761092a612dd9565b602090810291909101810151919091526001600160a01b038916600090815260088801825260408082208483529092522054835184908490811061097057610970612dd9565b60200260200101516020018181525050505b8061098c81612e05565b9150506108d9565b5095945050505050565b60007ff6deb63e40d71b08820818e006e23fcceb1fce7a499bc15b71b2526cbf9efa725b54919050565b60008281527fd3889cc5458b268d0544e5534672df1296288ca3f93cbd39bd6f497a5c622811602052604081206105a49083611c8f565b828114610a1f576040516303f7219d60e41b815260040160405180910390fd5b60008051602061302f833981519152805460005b85811015610b8c57868682818110610a4d57610a4d612dd9565b905060200201356000148015610a7a575081878783818110610a7157610a71612dd9565b90506020020135115b15610a985760405163d751397d60e01b815260040160405180910390fd5b826001016000888884818110610ab057610ab0612dd9565b90506020020135815260200190815260200160002060010160019054906101000a900460ff16610af3576040516332fa2abb60e01b815260040160405180910390fd5b848482818110610b0557610b05612dd9565b90506020020135610b2160008051602061302f83398151915290565b6001600160a01b038a1660009081526008919091016020526040812090898985818110610b5057610b50612dd9565b9050602002013581526020019081526020016000206000828254610b749190612e1e565b90915550819050610b8481612e05565b915050610a33565b50866001600160a01b0316336001600160a01b03167f79ef5dda420a532ad69ccb2d06e5304e6b2b0e93c99a27d63909c8ffce8faf4e88888888604051610bd69493929190612e63565b60405180910390a350505050505050565b60007ff672b8dc84d117c1e14949d8bc3977392b5ab7de9d01b854d389cdc31bf0d43981610c186020850185612883565b6001600160a01b03166001600160a01b03168152602001908152602001600020600083602001358152602001908152602001600020549050919050565b82801580610c71575060008051602061302f8339815191525481115b15610c8f5760405163d751397d60e01b815260040160405180910390fd5b60008051602061302f83398151915260005b83811015610d5d5785826003016000878785818110610cc257610cc2612dd9565b610cd89260206040909202019081019150612883565b6001600160a01b03166001600160a01b031681526020019081526020016000206000878785818110610d0c57610d0c612dd9565b9050604002016020013581526020019081526020016000205403610d4b57610d4b86868684818110610d4057610d40612dd9565b905060400201611cb1565b80610d5581612e05565b915050610ca1565b5060405185815233907ff69b53fa14ee16895edbe90d00c7b7af9214baf87c69bf5594126b114c9337ed9060200160405180910390a25050505050565b82801580610db6575060008051602061302f8339815191525481115b15610dd45760405163d751397d60e01b815260040160405180910390fd5b60008051602061302f83398151915260005b83811015610d5d57610e28858583818110610e0357610e03612dd9565b610e199260206040909202019081019150612883565b6001600160a01b03163b151590565b610e4557604051633c65e02b60e21b815260040160405180910390fd5b6000826003016000878785818110610e5f57610e5f612dd9565b610e759260206040909202019081019150612883565b6001600160a01b03166001600160a01b031681526020019081526020016000206000878785818110610ea957610ea9612dd9565b905060400201602001358152602001908152602001600020541115610f605785826003016000878785818110610ee157610ee1612dd9565b610ef79260206040909202019081019150612883565b6001600160a01b03166001600160a01b031681526020019081526020016000206000878785818110610f2b57610f2b612dd9565b90506040020160200135815260200190815260200160002054031561103257610f6086868684818110610d4057610d40612dd9565b60008681526004830160205260409020858583818110610f8257610f82612dd9565b835460018101855560009485526020909420604090910292909201926002029091019050610fb08282612e8a565b505085826003016000878785818110610fcb57610fcb612dd9565b610fe19260206040909202019081019150612883565b6001600160a01b03166001600160a01b03168152602001908152602001600020600087878581811061101557611015612dd9565b905060400201602001358152602001908152602001600020819055505b8061103c81612e05565b915050610de6565b600081801580611062575060008051602061302f8339815191525481115b156110805760405163d751397d60e01b815260040160405180910390fd5b505060009081527ff672b8dc84d117c1e14949d8bc3977392b5ab7de9d01b854d389cdc31bf0d43a602052604090205490565b60008051602061302f8339815191528054600091906060835b828110156112635760006110e1826001612e1e565b6000818152600187810160205260409091200154909150610100900460ff1661110a5750611251565b604080518082019091526000808252602082015260005b88811015611190578261114a8b8b8481811061113f5761113f612dd9565b905060400201610be7565b0361117e5789898281811061116157611161612dd9565b9050604002018036038101906111779190612ec4565b9150611190565b8061118881612e05565b915050611121565b5080516001600160a01b03166112225760008a815260028701602090815260408083208584529091529020546001600160a01b031615611209575060008981526002860160209081526040808320848452825291829020825180840190935280546001600160a01b031683526001015490820152611222565b60405163a9614f1560e01b815260040160405180910390fd5b805160208083015160405161123d9388938793919201612f1b565b604051602081830303815290604052935050505b8061125b81612e05565b9150506110cc565b5080516020820120611279906005850190611e86565b15979650505050505050565b6040805180820190915260008082526020820152828015806112b5575060008051602061302f8339815191525481115b156112d35760405163d751397d60e01b815260040160405180910390fd5b60008481527ff672b8dc84d117c1e14949d8bc3977392b5ab7de9d01b854d389cdc31bf0d43a6020526040902080548490811061131257611312612dd9565b60009182526020918290206040805180820190915260029092020180546001600160a01b03168252600101549181019190915291505b5092915050565b60008180158061136d575060008051602061302f8339815191525481115b1561138b5760405163d751397d60e01b815260040160405180910390fd5b60008381527ff672b8dc84d117c1e14949d8bc3977392b5ab7de9d01b854d389cdc31bf0d4376020526040902060010154610100900460ff166113e1576040516332fa2abb60e01b815260040160405180910390fd5b50506001600160a01b039190911660009081527ff672b8dc84d117c1e14949d8bc3977392b5ab7de9d01b854d389cdc31bf0d43e60209081526040808320938352929052205490565b6040516331a9108f60e11b815260048101859052849030908190636352211e90602401602060405180830381865afa15801561146a573d6000803e3d6000fd5b505050506040513d601f19601f8201168201806040525081019061148e9190612f6c565b6001600160a01b0316336001600160a01b0316146114bf5760405163aee05b5d60e01b815260040160405180910390fd5b60008490036114e15760405163627652c960e11b815260040160405180910390fd5b60008051602061302f833981519152600080866001600160401b0381111561150b5761150b612b66565b604051908082528060200260200182016040528015611534578160200160208202803683370190505b50905060005b878110156115c95760006115668b8b8b8581811061155a5761155a612dd9565b9050604002018a611e9e565b6000818152600187810160205260409091200154909150610100900460ff1615611598578361159481612e05565b9450505b808383815181106115ab576115ab612dd9565b602090810291909101015250806115c181612e05565b91505061153a565b506115d38961220f565b6115f05760405163a9614f1560e01b815260040160405180910390fd5b81156117a0576115ff896122de565b61161b5760405162ecf30560e51b815260040160405180910390fd5b856117a0576000826001600160401b0381111561163a5761163a612b66565b604051908082528060200260200182016040528015611663578160200160208202803683370190505b5090506000805b8981101561175b5760008660030160008d8d8581811061168c5761168c612dd9565b6116a29260206040909202019081019150612883565b6001600160a01b03166001600160a01b0316815260200190815260200160002060008d8d858181106116d6576116d6612dd9565b90506040020160200135815260200190815260200160002054905086600101600082815260200190815260200160002060010160019054906101000a900460ff1615611748578084848151811061172f5761172f612dd9565b60209081029190910101528261174481612e05565b9350505b508061175381612e05565b91505061166a565b50336001600160a01b03167f89bd170ed02db0339b3c90b91de53c2a07b48ad36cd559f2d04dd3c72521dacd836040516117959190612f89565b60405180910390a250505b88336001600160a01b03167f557dc03f902756383ba5a748ab63ec6ec44b2880dba84ad33dc6ffe670f18861836040516117da9190612f89565b60405180910390a3505050505050505050565b60008051602061302f83398151915280546001908290600090611811908490612e1e565b90915550508054600081815260018084016020526040909120908101805461ffff191688151561ff0019161761010088151502179055819055821561185b5761185b818585610d9a565b60408051828152871515602082015286151581830152905133917ff24b969da6d469bdd7271673478fb6360f5008752c5991749abbdb4624727012919081900360600190a2505050505050565b600060008051602061302f8339815191526109c2565b60008051602061302f833981519152805460609190806001600160401b038111156118eb576118eb612b66565b60405190808252806020026020018201604052801561192457816020015b611911612716565b8152602001906001900390816119095790505b50925060005b818110156119bd57600061193f826001612e1e565b60008781526002860160209081526040808320848452825291829020825160608101845284815281546001600160a01b0316928101929092526001810154928201929092528751929350909187908590811061199d5761199d612dd9565b6020026020010181905250505080806119b590612e05565b91505061192a565b505050919050565b60008051602061302f833981519152805460609190806001600160401b038111156119f2576119f2612b66565b604051908082528060200260200182016040528015611a3d57816020015b6040805160608101825260008082526020808301829052928201528252600019909201910181611a105790505b50925060005b81811015611ad0576000611a58826001612e1e565b60008181526001808701602090815260409283902083516060810185528154815292015460ff808216151592840192909252610100900416151591810191909152865191925090869084908110611ab157611ab1612dd9565b6020026020010181905250508080611ac890612e05565b915050611a43565b50505090565b6040516331a9108f60e11b815260048101849052839030908190636352211e90602401602060405180830381865afa158015611b16573d6000803e3d6000fd5b505050506040513d601f19601f82011682018060405250810190611b3a9190612f6c565b6001600160a01b0316336001600160a01b031614611b6b5760405163aee05b5d60e01b815260040160405180910390fd5b6000839003611b8d57604051635740c67760e11b815260040160405180910390fd5b60005b83811015611bcc57611bba86868684818110611bae57611bae612dd9565b905060200201356123fe565b80611bc481612e05565b915050611b90565b50611bd6856122de565b5084336001600160a01b03167f3822f2cd6d118934e31e6171da74d9d46131fb402be1861b3cb4460440aeab638686604051611c13929190612fc1565b60405180910390a35050505050565b611c2a612716565b5060009182527ff672b8dc84d117c1e14949d8bc3977392b5ab7de9d01b854d389cdc31bf0d43860209081526040808420838552825292839020835160608101855292835280546001600160a01b031691830191909152600101549181019190915290565b6001600160a01b038116600090815260018301602052604081205415156105a4565b60008281527ff672b8dc84d117c1e14949d8bc3977392b5ab7de9d01b854d389cdc31bf0d43a602052604081205460008051602061302f833981519152915b81811015611e335783602001358360040160008781526020019081526020016000208281548110611d2357611d23612dd9565b90600052602060002090600202016001015403611e215760008581526004840160205260409020611d55600184612fd5565b81548110611d6557611d65612dd9565b90600052602060002090600202018360040160008781526020019081526020016000208281548110611d9957611d99612dd9565b60009182526020808320845460029093020180546001600160a01b0319166001600160a01b0390931692909217825560019384015493909101929092558681526004850190915260409020805480611df357611df3612fe8565b60008281526020812060026000199093019283020180546001600160a01b0319168155600101559055611e33565b80611e2b81612e05565b915050611cf0565b50600382016000611e476020860186612883565b6001600160a01b03166001600160a01b031681526020019081526020016000206000846020013581526020019081526020016000206000905550505050565b600081815260018301602052604081205415156105a4565b600060008051602061302f8339815191527ff672b8dc84d117c1e14949d8bc3977392b5ab7de9d01b854d389cdc31bf0d43982611ede6020870187612883565b6001600160a01b03168152602080820192909252604090810160009081208784013582529092529020549150811580611f25575060008051602061302f8339815191525482115b15611f43576040516363efa0e360e01b815260040160405180910390fd5b82158015611f6957506000828152600182810160205260409091200154610100900460ff165b15611fda57336000908152600882016020908152604080832085845290915290205460011115611fac5760405163bbd28dfd60e01b815260040160405180910390fd5b33600090815260088201602090815260408083208584529091528120805491611fd483612ffe565b91905055505b60008581526002820160209081526040808320858452825280832060018086019093529220015460ff168015612019575080546001600160a01b031615155b156120375760405163bd8a5e1560e01b815260040160405180910390fd5b6120446020860186612883565b81546001600160a01b039081169116148015612067575084602001358160010154145b156120855760405163c80df0cb60e01b815260040160405180910390fd5b600086815260028301602090815260408083208684529091529020546001600160a01b0316156120b9576120b9868461251c565b60006120c86020870187612883565b604051627eeac760e11b8152336004820152602088013560248201529091506001906001600160a01b0383169062fdd58e90604401602060405180830381865afa15801561211a573d6000803e3d6000fd5b505050506040513d601f19601f8201168201806040525081019061213e9190613015565b101561215d576040516335ba250d60e11b815260040160405180910390fd5b604051637921219560e11b8152336004820152306024820152602087013560448201526001606482015260a06084820152600060a48201526001600160a01b0382169063f242432a9060c401600060405180830381600087803b1580156121c357600080fd5b505af11580156121d7573d6000803e3d6000fd5b5050506000888152600285016020908152604080832088845290915290208791506122028282612e8a565b9050505050509392505050565b60008051602061302f833981519152805460009190825b818110156122d357600061223b826001612e1e565b6000818152600186810160205260409091200154909150610100900460ff1661226457506122c1565b6000818152600185810160205260409091200154610100900460ff1680156122ae5750600086815260028501602090815260408083208484529091529020546001600160a01b0316155b156122bf5750600095945050505050565b505b806122cb81612e05565b915050612226565b506001949350505050565b60008051602061302f833981519152805460009190606090835b8181101561239c57600061230d826001612e1e565b6000818152600187810160205260409091200154909150610100900460ff16612336575061238a565b60008781526002860160209081526040808320848452825291829020805460018201549351919361237693899387936001600160a01b0316929101612f1b565b604051602081830303815290604052945050505b8061239481612e05565b9150506122f8565b50815160208301206123b16005850182611e86565b6000878152600786016020526040902054901595506123d4906005860190612601565b506123e2600585018261260d565b5060009586526007909301602052505060409092209190915590565b8080158061241a575060008051602061302f8339815191525481115b156124385760405163d751397d60e01b815260040160405180910390fd5b60008281527ff672b8dc84d117c1e14949d8bc3977392b5ab7de9d01b854d389cdc31bf0d437602052604090206001015460008051602061302f8339815191529060ff161561249a5760405163bd8a5e1560e01b815260040160405180910390fd5b600084815260028201602090815260408083208684529091529020546001600160a01b03166124dc57604051632755285560e01b815260040160405180910390fd5b6000838152600182810160205260409091200154610100900460ff16156125165760405163abfc1e6160e01b815260040160405180910390fd5b61064884845b600060008051602061302f8339815191526000848152600282016020908152604080832086845290915280822080546001808301549351637921219560e11b81523060048201523360248201526044810194909452606484015260a0608484015260a48301939093529293506001600160a01b0390911690819063f242432a9060c401600060405180830381600087803b1580156125b957600080fd5b505af11580156125cd573d6000803e3d6000fd5b505050600095865250505060020160209081526040808420928452919052812080546001600160a01b031916815560010155565b60006105a48383612619565b60006105a483836126d3565b600081815260018301602052604081205480156113485783546000908590600019810190811061264b5761264b612dd9565b906000526020600020015490508085600001600184038154811061267157612671612dd9565b60009182526020808320909101929092559182526001860190526040902081905583548490806126a3576126a3612fe8565b60008281526020808220830160001990810183905590920190925593815260019485019093525050604081205590565b600081815260018301602052604081205461045a575081546001808201845560008481526020808220909301849055845493815293810190915260409092205590565b60405180606001604052806000815260200160006001600160a01b03168152602001600081525090565b60006020828403121561275257600080fd5b81356001600160e01b0319811681146105a457600080fd5b60008083601f84011261277c57600080fd5b5081356001600160401b0381111561279357600080fd5b6020830191508360208260051b85010111156127ae57600080fd5b9250929050565b6000806000604084860312156127ca57600080fd5b8335925060208401356001600160401b038111156127e757600080fd5b6127f38682870161276a565b9497909650939450505050565b6020808252825182820181905260009190848201906040850190845b8181101561285f5761284c838551805182526020808201516001600160a01b031690830152604090810151910152565b928401926060929092019160010161281c565b50909695505050505050565b6001600160a01b038116811461288057600080fd5b50565b60006020828403121561289557600080fd5b81356105a48161286b565b602080825282518282018190526000919060409081850190868401855b828110156128e2578151805185528601518685015292840192908501906001016128bd565b5091979650505050505050565b60008060008060006060868803121561290757600080fd5b85356129128161286b565b945060208601356001600160401b038082111561292e57600080fd5b61293a89838a0161276a565b9096509450604088013591508082111561295357600080fd5b506129608882890161276a565b969995985093965092949392505050565b60006040828403121561298357600080fd5b50919050565b60008083601f84011261299b57600080fd5b5081356001600160401b038111156129b257600080fd5b6020830191508360208260061b85010111156127ae57600080fd5b6000806000604084860312156129e257600080fd5b8335925060208401356001600160401b038111156129ff57600080fd5b6127f386828701612989565b600060208284031215612a1d57600080fd5b5035919050565b60008060408385031215612a3757600080fd5b50508035926020909101359150565b60008060408385031215612a5957600080fd5b8235612a648161286b565b946020939093013593505050565b80358015158114612a8257600080fd5b919050565b60008060008060608587031215612a9d57600080fd5b612aa685612a72565b9350612ab460208601612a72565b925060408501356001600160401b03811115612acf57600080fd5b612adb87828801612989565b95989497509550505050565b6020808252825182820181905260009190848201906040850190845b8181101561285f57612b2e838551805182526020808201511515908301526040908101511515910152565b9284019260609290920191600101612b03565b815181526020808301511515908201526040808301511515908201526060810161045a565b634e487b7160e01b600052604160045260246000fd5b604051601f8201601f191681016001600160401b0381118282101715612ba457612ba4612b66565b604052919050565b600082601f830112612bbd57600080fd5b813560206001600160401b03821115612bd857612bd8612b66565b8160051b612be7828201612b7c565b9283528481018201928281019087851115612c0157600080fd5b83870192505b84831015612c2057823582529183019190830190612c07565b979650505050505050565b600082601f830112612c3c57600080fd5b81356001600160401b03811115612c5557612c55612b66565b612c68601f8201601f1916602001612b7c565b818152846020838601011115612c7d57600080fd5b816020850160208301376000918101602001919091529392505050565b600080600080600060a08688031215612cb257600080fd5b8535612cbd8161286b565b94506020860135612ccd8161286b565b935060408601356001600160401b0380821115612ce957600080fd5b612cf589838a01612bac565b94506060880135915080821115612d0b57600080fd5b612d1789838a01612bac565b93506080880135915080821115612d2d57600080fd5b50612d3a88828901612c2b565b9150509295509295909350565b815181526020808301516001600160a01b031690820152604080830151908201526060810161045a565b600080600080600060a08688031215612d8957600080fd5b8535612d948161286b565b94506020860135612da48161286b565b9350604086013592506060860135915060808601356001600160401b03811115612dcd57600080fd5b612d3a88828901612c2b565b634e487b7160e01b600052603260045260246000fd5b634e487b7160e01b600052601160045260246000fd5b600060018201612e1757612e17612def565b5060010190565b8082018082111561045a5761045a612def565b81835260006001600160fb1b03831115612e4a57600080fd5b8260051b80836020870137939093016020019392505050565b604081526000612e77604083018688612e31565b8281036020840152612c20818587612e31565b8135612e958161286b565b6001600160a01b0381166bffffffffffffffffffffffff60a01b83541617825550602082013560018201555050565b600060408284031215612ed657600080fd5b604051604081018181106001600160401b0382111715612ef857612ef8612b66565b6040528235612f068161286b565b81526020928301359281019290925250919050565b6000855160005b81811015612f3c5760208189018101518583015201612f22565b50919091019384525060609190911b6bffffffffffffffffffffffff191660208301526034820152605401919050565b600060208284031215612f7e57600080fd5b81516105a48161286b565b6020808252825182820181905260009190848201906040850190845b8181101561285f57835183529284019291840191600101612fa5565b60208152600061046d602083018486612e31565b8181038181111561045a5761045a612def565b634e487b7160e01b600052603160045260246000fd5b60008161300d5761300d612def565b506000190190565b60006020828403121561302757600080fd5b505191905056fef672b8dc84d117c1e14949d8bc3977392b5ab7de9d01b854d389cdc31bf0d436a26469706673582212201dce19084cc19416391743e9e8a7e7826700e31d9d48e2818eed4e419b59b56e64736f6c63430008130033",
  "devdoc": {
    "details": "This contract is responsible for managing the inventory system for the Arcadians using slots.  It defines the functionality to equip and unequip items to Arcadians, check if a combination of items  are unique, and retrieve the inventory slots and allowed items for a slot.  This contract also implements ERC1155Holder to handle ERC1155 token transfers This contract can be used as a facet of a diamond which follows the EIP-2535 diamond standard. It also uses the ReentrancyGuard and Multicall contracts for security and gas efficiency.",
    "kind": "dev",
    "methods": {
      "addBaseModifierCoupons(address,uint256[],uint256[])": {
        "params": {
          "account": "The account to increase the number of coupons",
          "amounts": "the amounts of coupons to increase",
          "slotsIds": "The slots ids to increase the number of coupons"
        }
      },
      "allowItemsInSlot(uint256,(address,uint256)[])": {
        "params": {
          "items": "The list of items to allow in the slot",
          "slotId": "The slot id"
        }
      },
      "allowedItem(uint256,uint256)": {
        "params": {
          "index": "The index of the item",
          "slotId": "The slot id to query"
        },
        "returns": {
          "_0": "A list of all the items that are allowed in the slot"
        }
      },
      "allowedSlot((address,uint256))": {
        "params": {
          "item": "The item to check"
        },
        "returns": {
          "_0": "The allowed slot id for the item. Slots are 1-indexed."
        }
      },
      "createSlot(bool,bool,(address,uint256)[])": {
        "details": "This function is only accessible to the manager roleSlots are 1-indexed",
        "params": {
          "isBase": "If the slot is base",
          "items": "The list of items to allow in the slot",
          "permanent": "Whether or not the slot can be unequipped once equipped"
        }
      },
      "disallowItemsInSlot(uint256,(address,uint256)[])": {
        "params": {
          "items": "The list of items to disallow in the slot",
          "slotId": "The ID of the inventory slot"
        }
      },
      "equip(uint256,(address,uint256)[])": {
        "params": {
          "arcadianId": "The ID of the Arcadian NFT to equip the items for",
          "items": "An array of items to equip in the corresponding slots"
        }
      },
      "equipped(uint256,uint256)": {
        "params": {
          "arcadianId": "The ID of the Arcadian NFT to query",
          "slotId": "The slot id to query"
        }
      },
      "equippedAll(uint256)": {
        "params": {
          "arcadianId": "The ID of the Arcadian NFT to query"
        }
      },
      "equippedBatch(uint256,uint256[])": {
        "params": {
          "arcadianId": "The ID of the Arcadian NFT to query",
          "slotIds": "The slots ids to query"
        }
      },
      "getBaseModifierCoupon(address,uint256)": {
        "params": {
          "account": "The accounts to increase the number of coupons",
          "slotId": "The slot to get the coupon amount from"
        }
      },
      "getBaseModifierCouponAll(address)": {
        "params": {
          "account": "The accounts to increase the number of coupons"
        }
      },
      "isArcadianUnique(uint256,(address,uint256)[])": {
        "details": "The uniqueness is calculated using the existent arcadian items and the input items as wellOnly items equipped in 'base' slots are considered for uniqueness",
        "params": {
          "arcadianId": "The ID of the Arcadian NFT to query",
          "items": "An array of items to check for uniqueness after \"equipped\" over the existent arcadian items."
        }
      },
      "numAllowedItems(uint256)": {
        "params": {
          "slotId": "The slot id to check"
        },
        "returns": {
          "_0": "A list of all the items that are allowed in the slot"
        }
      },
      "numSlots()": {
        "details": "Slots are 1-indexed",
        "returns": {
          "_0": "The number of inventory slots "
        }
      },
      "slot(uint256)": {
        "details": "Slots are 1-indexed",
        "params": {
          "slotId": "The ID of the inventory slot"
        },
        "returns": {
          "existentSlot": "The details of the inventory slot"
        }
      },
      "slotsAll()": {
        "details": "Slots are 1-indexed",
        "returns": {
          "existentSlots": "The details of all the inventory slots"
        }
      },
      "supportsInterface(bytes4)": {
        "details": "See {IERC165-supportsInterface}."
      },
      "unequip(uint256,uint256[])": {
        "params": {
          "arcadianId": "The ID of the Arcadian NFT to equip the item for",
          "slotIds": "The slots ids in which the items will be unequipped"
        }
      }
    },
    "title": "InventoryFacet",
    "version": 1
  },
  "userdoc": {
    "kind": "user",
    "methods": {
      "addBaseModifierCoupons(address,uint256[],uint256[])": {
        "notice": "Adds coupons to accounts that allow to modify the base traits"
      },
      "allowItemsInSlot(uint256,(address,uint256)[])": {
        "notice": "Adds items to the list of allowed items for an inventory slot"
      },
      "allowedItem(uint256,uint256)": {
        "notice": "Returns the allowed item for a given slot and the index"
      },
      "allowedSlot((address,uint256))": {
        "notice": "Returns the allowed slot for a given item"
      },
      "createSlot(bool,bool,(address,uint256)[])": {
        "notice": "Creates a new inventory slot"
      },
      "disallowItemsInSlot(uint256,(address,uint256)[])": {
        "notice": "Removes items from the list of allowed items"
      },
      "equip(uint256,(address,uint256)[])": {
        "notice": "Equips multiple items to multiple slots for a specified Arcadian NFT"
      },
      "equipped(uint256,uint256)": {
        "notice": "Retrieves the equipped item in a slot for a specified Arcadian NFT"
      },
      "equippedAll(uint256)": {
        "notice": "Retrieves all the equipped items for a specified Arcadian NFT"
      },
      "equippedBatch(uint256,uint256[])": {
        "notice": "Retrieves the equipped items in the slot of an Arcadian NFT"
      },
      "getBaseModifierCoupon(address,uint256)": {
        "notice": "Returns the number coupons available for an account that allow to modify the base traits"
      },
      "getBaseModifierCouponAll(address)": {
        "notice": "Returns the number coupons available for an account that allow to modify the base traits"
      },
      "isArcadianUnique(uint256,(address,uint256)[])": {
        "notice": "Indicates if a list of items applied to an the arcadian is unique"
      },
      "numAllowedItems(uint256)": {
        "notice": "Returns the number of allowed items for a given slot"
      },
      "numSlots()": {
        "notice": "Returns the number of inventory slots"
      },
      "slot(uint256)": {
        "notice": "Returns the details of an inventory slot given its ID"
      },
      "slotsAll()": {
        "notice": "Returns the details of all the existent slots"
      },
      "unequip(uint256,uint256[])": {
        "notice": "Unequips the items equipped in multiple slots for a specified Arcadian NFT"
      }
    },
    "version": 1
  },
  "storageLayout": {
    "storage": [],
    "types": null
  }
}