{
  "address": "0x38A8fD7931C0e511c48c52A61344c58bbf4CD900",
  "abi": [
    {
      "inputs": [],
      "name": "EnumerableSet__IndexOutOfBounds",
      "type": "error"
    },
    {
      "inputs": [],
      "name": "ReentrancyGuard__ReentrantCall",
      "type": "error"
    },
    {
      "inputs": [],
      "name": "UintUtils__InsufficientHexLength",
      "type": "error"
    },
    {
      "anonymous": false,
      "inputs": [
        {
          "indexed": true,
          "internalType": "address",
          "name": "oldArcadiansAddress",
          "type": "address"
        },
        {
          "indexed": true,
          "internalType": "address",
          "name": "newArcadiansAddress",
          "type": "address"
        }
      ],
      "name": "ArcadiansAddressChanged",
      "type": "event"
    },
    {
      "anonymous": false,
      "inputs": [
        {
          "indexed": true,
          "internalType": "address",
          "name": "by",
          "type": "address"
        },
        {
          "indexed": false,
          "internalType": "uint256",
          "name": "slot",
          "type": "uint256"
        },
        {
          "indexed": false,
          "internalType": "address",
          "name": "itemAddress",
          "type": "address"
        },
        {
          "indexed": false,
          "internalType": "uint256[]",
          "name": "allowedItems",
          "type": "uint256[]"
        }
      ],
      "name": "ItemsAllowedInSlotUpdated",
      "type": "event"
    },
    {
      "anonymous": false,
      "inputs": [
        {
          "indexed": true,
          "internalType": "address",
          "name": "by",
          "type": "address"
        },
        {
          "indexed": true,
          "internalType": "uint256",
          "name": "arcadianId",
          "type": "uint256"
        },
        {
          "indexed": false,
          "internalType": "uint256[]",
          "name": "slots",
          "type": "uint256[]"
        }
      ],
      "name": "ItemsEquipped",
      "type": "event"
    },
    {
      "anonymous": false,
      "inputs": [
        {
          "indexed": true,
          "internalType": "address",
          "name": "by",
          "type": "address"
        },
        {
          "indexed": true,
          "internalType": "uint256",
          "name": "arcadianId",
          "type": "uint256"
        },
        {
          "indexed": false,
          "internalType": "uint256[]",
          "name": "slots",
          "type": "uint256[]"
        }
      ],
      "name": "ItemsUnequipped",
      "type": "event"
    },
    {
      "anonymous": false,
      "inputs": [
        {
          "indexed": true,
          "internalType": "bytes32",
          "name": "role",
          "type": "bytes32"
        },
        {
          "indexed": true,
          "internalType": "bytes32",
          "name": "previousAdminRole",
          "type": "bytes32"
        },
        {
          "indexed": true,
          "internalType": "bytes32",
          "name": "newAdminRole",
          "type": "bytes32"
        }
      ],
      "name": "RoleAdminChanged",
      "type": "event"
    },
    {
      "anonymous": false,
      "inputs": [
        {
          "indexed": true,
          "internalType": "bytes32",
          "name": "role",
          "type": "bytes32"
        },
        {
          "indexed": true,
          "internalType": "address",
          "name": "account",
          "type": "address"
        },
        {
          "indexed": true,
          "internalType": "address",
          "name": "sender",
          "type": "address"
        }
      ],
      "name": "RoleGranted",
      "type": "event"
    },
    {
      "anonymous": false,
      "inputs": [
        {
          "indexed": true,
          "internalType": "bytes32",
          "name": "role",
          "type": "bytes32"
        },
        {
          "indexed": true,
          "internalType": "address",
          "name": "account",
          "type": "address"
        },
        {
          "indexed": true,
          "internalType": "address",
          "name": "sender",
          "type": "address"
        }
      ],
      "name": "RoleRevoked",
      "type": "event"
    },
    {
      "anonymous": false,
      "inputs": [
        {
          "indexed": true,
          "internalType": "address",
          "name": "by",
          "type": "address"
        },
        {
          "indexed": false,
          "internalType": "uint256",
          "name": "capacity",
          "type": "uint256"
        },
        {
          "indexed": false,
          "internalType": "bool",
          "name": "unequippable",
          "type": "bool"
        },
        {
          "indexed": false,
          "internalType": "uint256",
          "name": "slot",
          "type": "uint256"
        }
      ],
      "name": "SlotCreated",
      "type": "event"
    },
    {
      "inputs": [
        {
          "internalType": "uint256",
          "name": "slot",
          "type": "uint256"
        },
        {
          "internalType": "address",
          "name": "itemAddress",
          "type": "address"
        },
        {
          "internalType": "uint256[]",
          "name": "itemIds",
          "type": "uint256[]"
        }
      ],
      "name": "allowItemsInSlot",
      "outputs": [],
      "stateMutability": "nonpayable",
      "type": "function"
    },
    {
      "inputs": [
        {
          "internalType": "uint256[]",
          "name": "slots",
          "type": "uint256[]"
        },
        {
          "internalType": "address[]",
          "name": "itemsAddress",
          "type": "address[]"
        },
        {
          "internalType": "uint256[]",
          "name": "itemsIds",
          "type": "uint256[]"
        }
      ],
      "name": "baseSlotsUnique",
      "outputs": [
        {
          "internalType": "bool",
          "name": "",
          "type": "bool"
        }
      ],
      "stateMutability": "view",
      "type": "function"
    },
    {
      "inputs": [
        {
          "internalType": "uint256",
          "name": "capacity",
          "type": "uint256"
        },
        {
          "internalType": "bool",
          "name": "unequippable",
          "type": "bool"
        },
        {
          "internalType": "enum InventoryStorage.SlotCategory",
          "name": "category",
          "type": "uint8"
        },
        {
          "internalType": "address",
          "name": "itemAddress",
          "type": "address"
        },
        {
          "internalType": "uint256[]",
          "name": "allowedItemIds",
          "type": "uint256[]"
        }
      ],
      "name": "createSlot",
      "outputs": [],
      "stateMutability": "nonpayable",
      "type": "function"
    },
    {
      "inputs": [
        {
          "internalType": "uint256",
          "name": "slot",
          "type": "uint256"
        },
        {
          "internalType": "address",
          "name": "itemAddress",
          "type": "address"
        },
        {
          "internalType": "uint256[]",
          "name": "itemIds",
          "type": "uint256[]"
        }
      ],
      "name": "disallowItemsInSlot",
      "outputs": [],
      "stateMutability": "nonpayable",
      "type": "function"
    },
    {
      "inputs": [
        {
          "internalType": "uint256",
          "name": "arcadianId",
          "type": "uint256"
        },
        {
          "internalType": "uint256",
          "name": "slot",
          "type": "uint256"
        },
        {
          "components": [
            {
              "internalType": "address",
              "name": "itemAddress",
              "type": "address"
            },
            {
              "internalType": "uint256",
              "name": "id",
              "type": "uint256"
            },
            {
              "internalType": "uint256",
              "name": "amount",
              "type": "uint256"
            }
          ],
          "internalType": "struct InventoryStorage.EquippedItem",
          "name": "itemsToEquip",
          "type": "tuple"
        }
      ],
      "name": "equip",
      "outputs": [],
      "stateMutability": "nonpayable",
      "type": "function"
    },
    {
      "inputs": [
        {
          "internalType": "uint256",
          "name": "arcadianId",
          "type": "uint256"
        },
        {
          "internalType": "uint256[]",
          "name": "slots",
          "type": "uint256[]"
        },
        {
          "components": [
            {
              "internalType": "address",
              "name": "itemAddress",
              "type": "address"
            },
            {
              "internalType": "uint256",
              "name": "id",
              "type": "uint256"
            },
            {
              "internalType": "uint256",
              "name": "amount",
              "type": "uint256"
            }
          ],
          "internalType": "struct InventoryStorage.EquippedItem[]",
          "name": "itemsToEquip",
          "type": "tuple[]"
        }
      ],
      "name": "equipBatch",
      "outputs": [],
      "stateMutability": "nonpayable",
      "type": "function"
    },
    {
      "inputs": [
        {
          "internalType": "uint256",
          "name": "arcadianId",
          "type": "uint256"
        },
        {
          "internalType": "uint256",
          "name": "slot",
          "type": "uint256"
        }
      ],
      "name": "equipped",
      "outputs": [
        {
          "components": [
            {
              "internalType": "address",
              "name": "itemAddress",
              "type": "address"
            },
            {
              "internalType": "uint256",
              "name": "id",
              "type": "uint256"
            },
            {
              "internalType": "uint256",
              "name": "amount",
              "type": "uint256"
            }
          ],
          "internalType": "struct InventoryStorage.EquippedItem",
          "name": "item",
          "type": "tuple"
        }
      ],
      "stateMutability": "view",
      "type": "function"
    },
    {
      "inputs": [
        {
          "internalType": "uint256",
          "name": "arcadianId",
          "type": "uint256"
        }
      ],
      "name": "equippedAll",
      "outputs": [
        {
          "components": [
            {
              "internalType": "address",
              "name": "itemAddress",
              "type": "address"
            },
            {
              "internalType": "uint256",
              "name": "id",
              "type": "uint256"
            },
            {
              "internalType": "uint256",
              "name": "amount",
              "type": "uint256"
            }
          ],
          "internalType": "struct InventoryStorage.EquippedItem[]",
          "name": "item",
          "type": "tuple[]"
        }
      ],
      "stateMutability": "view",
      "type": "function"
    },
    {
      "inputs": [
        {
          "internalType": "uint256",
          "name": "slot",
          "type": "uint256"
        },
        {
          "internalType": "address",
          "name": "itemAddress",
          "type": "address"
        }
      ],
      "name": "getAllowedItems",
      "outputs": [
        {
          "internalType": "uint256[]",
          "name": "",
          "type": "uint256[]"
        }
      ],
      "stateMutability": "view",
      "type": "function"
    },
    {
      "inputs": [
        {
          "internalType": "address",
          "name": "itemAddress",
          "type": "address"
        },
        {
          "internalType": "uint256",
          "name": "itemId",
          "type": "uint256"
        }
      ],
      "name": "getAllowedSlots",
      "outputs": [
        {
          "internalType": "uint256[]",
          "name": "",
          "type": "uint256[]"
        }
      ],
      "stateMutability": "view",
      "type": "function"
    },
    {
      "inputs": [
        {
          "internalType": "uint256",
          "name": "slot",
          "type": "uint256"
        }
      ],
      "name": "getSlot",
      "outputs": [
        {
          "components": [
            {
              "internalType": "uint256",
              "name": "capacity",
              "type": "uint256"
            },
            {
              "internalType": "bool",
              "name": "isUnequippable",
              "type": "bool"
            },
            {
              "internalType": "enum InventoryStorage.SlotCategory",
              "name": "category",
              "type": "uint8"
            }
          ],
          "internalType": "struct InventoryStorage.Slot",
          "name": "",
          "type": "tuple"
        }
      ],
      "stateMutability": "view",
      "type": "function"
    },
    {
      "inputs": [],
      "name": "numSlots",
      "outputs": [
        {
          "internalType": "uint256",
          "name": "",
          "type": "uint256"
        }
      ],
      "stateMutability": "view",
      "type": "function"
    },
    {
      "inputs": [
        {
          "internalType": "address",
          "name": "",
          "type": "address"
        },
        {
          "internalType": "address",
          "name": "",
          "type": "address"
        },
        {
          "internalType": "uint256[]",
          "name": "",
          "type": "uint256[]"
        },
        {
          "internalType": "uint256[]",
          "name": "",
          "type": "uint256[]"
        },
        {
          "internalType": "bytes",
          "name": "",
          "type": "bytes"
        }
      ],
      "name": "onERC1155BatchReceived",
      "outputs": [
        {
          "internalType": "bytes4",
          "name": "",
          "type": "bytes4"
        }
      ],
      "stateMutability": "nonpayable",
      "type": "function"
    },
    {
      "inputs": [
        {
          "internalType": "address",
          "name": "",
          "type": "address"
        },
        {
          "internalType": "address",
          "name": "",
          "type": "address"
        },
        {
          "internalType": "uint256",
          "name": "",
          "type": "uint256"
        },
        {
          "internalType": "uint256",
          "name": "",
          "type": "uint256"
        },
        {
          "internalType": "bytes",
          "name": "",
          "type": "bytes"
        }
      ],
      "name": "onERC1155Received",
      "outputs": [
        {
          "internalType": "bytes4",
          "name": "",
          "type": "bytes4"
        }
      ],
      "stateMutability": "nonpayable",
      "type": "function"
    },
    {
      "inputs": [
        {
          "internalType": "address",
          "name": "",
          "type": "address"
        },
        {
          "internalType": "address",
          "name": "",
          "type": "address"
        },
        {
          "internalType": "uint256",
          "name": "",
          "type": "uint256"
        },
        {
          "internalType": "bytes",
          "name": "",
          "type": "bytes"
        }
      ],
      "name": "onERC721Received",
      "outputs": [
        {
          "internalType": "bytes4",
          "name": "",
          "type": "bytes4"
        }
      ],
      "stateMutability": "nonpayable",
      "type": "function"
    },
    {
      "inputs": [
        {
          "internalType": "uint256[]",
          "name": "slots",
          "type": "uint256[]"
        },
        {
          "internalType": "address[]",
          "name": "itemsAddresses",
          "type": "address[]"
        },
        {
          "internalType": "uint256[]",
          "name": "itemsIds",
          "type": "uint256[]"
        }
      ],
      "name": "sortSlots",
      "outputs": [
        {
          "internalType": "uint256[]",
          "name": "",
          "type": "uint256[]"
        },
        {
          "internalType": "address[]",
          "name": "",
          "type": "address[]"
        },
        {
          "internalType": "uint256[]",
          "name": "",
          "type": "uint256[]"
        }
      ],
      "stateMutability": "pure",
      "type": "function"
    },
    {
      "inputs": [
        {
          "internalType": "bytes4",
          "name": "interfaceId",
          "type": "bytes4"
        }
      ],
      "name": "supportsInterface",
      "outputs": [
        {
          "internalType": "bool",
          "name": "",
          "type": "bool"
        }
      ],
      "stateMutability": "view",
      "type": "function"
    },
    {
      "inputs": [
        {
          "internalType": "uint256",
          "name": "arcadianId",
          "type": "uint256"
        },
        {
          "internalType": "uint256",
          "name": "slot",
          "type": "uint256"
        }
      ],
      "name": "unequip",
      "outputs": [],
      "stateMutability": "nonpayable",
      "type": "function"
    },
    {
      "inputs": [
        {
          "internalType": "uint256",
          "name": "arcadianId",
          "type": "uint256"
        }
      ],
      "name": "unequipAll",
      "outputs": [],
      "stateMutability": "nonpayable",
      "type": "function"
    },
    {
      "inputs": [
        {
          "internalType": "uint256",
          "name": "arcadianId",
          "type": "uint256"
        },
        {
          "internalType": "uint256[]",
          "name": "slots",
          "type": "uint256[]"
        }
      ],
      "name": "unequipBatch",
      "outputs": [],
      "stateMutability": "nonpayable",
      "type": "function"
    }
  ],
  "transactionHash": "0x4f5f2b9cde88414b806fa90722fdf405ddbd7dd857a875245ead7cc578491441",
  "args": [],
  "numDeployments": 4,
  "solcInputHash": "4875d3c04aa0b72d758cee32e26ac5a6",
  "bytecode": "0x608060405234801561001057600080fd5b5061399f806100206000396000f3fe608060405234801561001057600080fd5b506004361061012c5760003560e01c806395de3e70116100ad578063b9518c8d11610071578063b9518c8d146102c2578063bc197c81146102d5578063ee30fc1d146102f4578063ef0bf7de14610307578063f23a6e611461032757600080fd5b806395de3e70146102535780639621ff25146102665780639afe236d1461027c5780639e3ccb2a1461028f578063b512cffe146102af57600080fd5b80632d1b7399116100f45780632d1b7399146101da5780632f0afd8d146101fa5780633044825b1461020d5780637eba7ba614610220578063886f52b11461024057600080fd5b806301ffc9a71461013157806308712a0e14610159578063150b7a021461016e5780631766c7fa146101a557806323531aa7146101b8575b600080fd5b61014461013f366004612bfe565b610346565b60405190151581526020015b60405180910390f35b61016c610167366004612c28565b61037d565b005b61018c61017c366004612d33565b630a85bd0160e11b949350505050565b6040516001600160e01b03199091168152602001610150565b61016c6101b3366004612de9565b6103c6565b6101cb6101c6366004612f1d565b610413565b6040516101509392919061303c565b6101ed6101e83660046130af565b610432565b60405161015091906130db565b6101446102083660046130ee565b610445565b61016c61021b366004613187565b6104f0565b61023361022e366004613187565b610535565b60405161015091906131b6565b61016c61024e3660046131fb565b6105da565b61016c610261366004613276565b610600565b61026e610612565b604051908152602001610150565b6101ed61028a3660046132d1565b610621565b6102a261029d366004613187565b61062d565b6040516101509190613301565b61016c6102bd36600461336c565b610638565b61016c6102d036600461338e565b61067f565b61018c6102e33660046133d9565b63bc197c8160e01b95945050505050565b61016c610302366004613276565b6106bf565b61031a61031536600461336c565b6106cb565b6040516101509190613486565b61018c6103353660046134b0565b63f23a6e6160e01b95945050505050565b60006001600160e01b03198216630271189760e51b148061037757506301ffc9a760e01b6001600160e01b03198316145b92915050565b60008051602061392a83398151915280546002036103ae57604051635db5c7cd60e11b815260040160405180910390fd5b600281556103bd848484610702565b60019055505050565b60008051602061392a83398151915280546002036103f757604051635db5c7cd60e11b815260040160405180910390fd5b600281556104088686868686610be9565b600190555050505050565b60608060606104238686866111f3565b92509250925093509350939050565b606061043e8383611430565b9392505050565b60006104e587878080602002602001604051908101604052809392919081815260200183836020028082843760009201919091525050604080516020808b0282810182019093528a82529093508a92508991829185019084908082843760009201919091525050604080516020808a0282810182019093528982529093508992508891829185019084908082843760009201919091525061147e92505050565b979650505050505050565b60008051602061392a833981519152805460020361052157604051635db5c7cd60e11b815260040160405180910390fd5b6002815561052e8261160e565b6001905550565b61055660408051606081018252600080825260208201819052909182015290565b60008281527ff672b8dc84d117c1e14949d8bc3977392b5ab7de9d01b854d389cdc31bf0d437602052604090206040805160608101825282548152600183015460ff808216151560208401529193928401916101009091041660028111156105c0576105c06131a0565b60028111156105d1576105d16131a0565b90525092915050565b6105ea6105e56117e9565b611813565b6105f8868686868686611820565b505050505050565b61060c8484848461196b565b50505050565b600061061c611c44565b905090565b606061043e8383611c5a565b606061037782611ca7565b60008051602061392a833981519152805460020361066957604051635db5c7cd60e11b815260040160405180910390fd5b600281556106778383611dd5565b600190555050565b60008051602061392a83398151915280546002036106b057604051635db5c7cd60e11b815260040160405180910390fd5b600281556103bd84848461201c565b61060c8484848461228e565b6106f8604051806060016040528060006001600160a01b0316815260200160008152602001600081525090565b61043e838361251c565b6040516331a9108f60e11b815260048101849052839030908190636352211e90602401602060405180830381865afa158015610742573d6000803e3d6000fd5b505050506040513d601f19601f820116820180604052508101906107669190613518565b6001600160a01b0316336001600160a01b03161461079f5760405162461bcd60e51b815260040161079690613535565b60405180910390fd5b60008051602061394a833981519152610811857ff672b8dc84d117c1e14949d8bc3977392b5ab7de9d01b854d389cdc31bf0d43b60006107e26020890189613592565b6001600160a01b03168152602080820192909252604090810160009081208984013582529092529020906125b0565b6108765760405162461bcd60e51b815260206004820152603060248201527f496e76656e746f727946616365742e65717569703a204974656d206e6f74206560448201526f1b1959da589b1948199bdc881cdb1bdd60821b6064820152608401610796565b600085815260018201602052604090819020549085013511156109015760405162461bcd60e51b815260206004820152603760248201527f496e76656e746f727946616365742e65717569703a204974656d20616d6f756e60448201527f74206578636565647320736c6f742063617061636974790000000000000000006064820152608401610796565b600086815260038201602090815260408083208884529091529020600201541561092f5761092f86866125c8565b600061093e6020860186613592565b60408051627eeac760e11b815233600482015260208801356024820152919250860135906001600160a01b0383169062fdd58e90604401602060405180830381865afa158015610992573d6000803e3d6000fd5b505050506040513d601f19601f820116820180604052508101906109b691906135af565b1015610a415760405162461bcd60e51b815260206004820152604e60248201527f496e76656e746f727946616365742e65717569703a204d65737361676520736560448201527f6e64657220646f6573206e6f74206f776e20656e6f756768206f66207468617460648201526d0206974656d20746f2065717569760941b608482015260a401610796565b60408051637921219560e11b81526001600160a01b0383169163f242432a91610a7b913391309160208c013591908c0135906004016135c8565b600060405180830381600087803b158015610a9557600080fd5b505af1158015610aa9573d6000803e3d6000fd5b506000925060019150610ab99050565b604051908082528060200260200182016040528015610ae2578160200160208202803683370190505b5090508681600081518110610af957610af9613600565b60200260200101818152505087336001600160a01b03167f557dc03f902756383ba5a748ab63ec6ec44b2880dba84ad33dc6ffe670f1886183604051610b3f91906130db565b60405180910390a3600088815260038401602090815260408083208a845290915290208690610b6e8282613616565b905050610b7a886126ba565b610bdf5760405162461bcd60e51b815260206004820152603060248201527f496e76656e746f727946616365742e5f65717569703a2042617365206974656d60448201526f7320617265206e6f7420756e6971756560801b6064820152608401610796565b5050505050505050565b6040516331a9108f60e11b815260048101869052859030908190636352211e90602401602060405180830381865afa158015610c29573d6000803e3d6000fd5b505050506040513d601f19601f82011682018060405250810190610c4d9190613518565b6001600160a01b0316336001600160a01b031614610c7d5760405162461bcd60e51b815260040161079690613535565b848314610cf25760405162461bcd60e51b815260206004820152603660248201527f496e76656e746f727946616365742e5f657175697042617463683a20496e707560448201527f742064617461206c656e677468206d69736d61746368000000000000000000006064820152608401610796565b60008051602061394a83398151915260005b8681101561112b5736868683818110610d1f57610d1f613600565b60600291909101915060009050610d396020830183613592565b9050610d9f8a8a85818110610d5057610d50613600565b90506020020135856005016000856000016020810190610d709190613592565b6001600160a01b03168152602080820192909252604090810160009081208784013582529092529020906125b0565b610e115760405162461bcd60e51b815260206004820152603660248201527f496e76656e746f727946616365742e5f657175697042617463683a204974656d60448201527f206e6f7420656c656769626c6520666f7220736c6f74000000000000000000006064820152608401610796565b81604001358460010160008c8c87818110610e2e57610e2e613600565b905060200201358152602001908152602001600020600001541015610ebb5760405162461bcd60e51b815260206004820152603d60248201527f496e76656e746f727946616365742e5f657175697042617463683a204974656d60448201527f20616d6f756e74206578636565647320736c6f742063617061636974790000006064820152608401610796565b60408051627eeac760e11b81523360048201526020840135602482015290830135906001600160a01b0383169062fdd58e90604401602060405180830381865afa158015610f0d573d6000803e3d6000fd5b505050506040513d601f19601f82011682018060405250810190610f3191906135af565b1015610fa55760405162461bcd60e51b815260206004820152603a60248201527f496e76656e746f727946616365742e65717569703a2053656e6465722068617360448201527f20696e73756666696369656e74206974656d2062616c616e63650000000000006064820152608401610796565b60008b81526003850160205260408120818c8c87818110610fc857610fc8613600565b905060200201358152602001908152602001600020600201541115611009576110098b8b8b86818110610ffd57610ffd613600565b905060200201356125c8565b6040805160608101909152806110226020850185613592565b6001600160a01b031681526020018360200135815260200183604001358152508460030160008d815260200190815260200160002060008c8c8781811061106b5761106b613600565b60209081029290920135835250818101929092526040908101600020835181546001600160a01b0319166001600160a01b03918216178255848401516001830155938201516002909101558051637921219560e11b81529284169263f242432a926110e4923392309289013591890135906004016135c8565b600060405180830381600087803b1580156110fe57600080fd5b505af1158015611112573d6000803e3d6000fd5b50505050505080806111239061366a565b915050610d04565b5087336001600160a01b03167f557dc03f902756383ba5a748ab63ec6ec44b2880dba84ad33dc6ffe670f188618989604051611168929190613683565b60405180910390a3600061117b896126ba565b9050806111e85760405162461bcd60e51b815260206004820152603560248201527f496e76656e746f727946616365742e5f657175697042617463683a2042617365604482015274206974656d7320617265206e6f7420756e6971756560581b6064820152608401610796565b505050505050505050565b606080606060008651905060005b61120c6001836136bc565b811015611422578060006112218260016136cf565b90505b8381101561127c5789828151811061123e5761123e613600565b60200260200101518a828151811061125857611258613600565b6020026020010151101561126a578091505b806112748161366a565b915050611224565b5081811461140f57600089838151811061129857611298613600565b602002602001015190508982815181106112b4576112b4613600565b60200260200101518a84815181106112ce576112ce613600565b602002602001018181525050808a83815181106112ed576112ed613600565b602002602001018181525050600089848151811061130d5761130d613600565b6020026020010151905089838151811061132957611329613600565b60200260200101518a858151811061134357611343613600565b60200260200101906001600160a01b031690816001600160a01b031681525050808a848151811061137657611376613600565b60200260200101906001600160a01b031690816001600160a01b03168152505060008985815181106113aa576113aa613600565b602002602001015190508984815181106113c6576113c6613600565b60200260200101518a86815181106113e0576113e0613600565b602002602001018181525050808a85815181106113ff576113ff613600565b6020026020010181815250505050505b508061141a8161366a565b915050611201565b509596949550929392505050565b6001600160a01b03821660009081527ff672b8dc84d117c1e14949d8bc3977392b5ab7de9d01b854d389cdc31bf0d43b60209081526040808320848452909152902060609061043e906127fd565b600082518451148015611492575081518451145b6115045760405162461bcd60e51b815260206004820152603b60248201527f496e76656e746f727946616365742e5f62617365536c6f7473556e697175653a60448201527f20496e7075742064617461206c656e677468206d69736d6174636800000000006064820152608401610796565b60008051602061394a83398151915261151e8585856111f3565b6000808052600285016020526040812093985091965094506060905b87518110156115ec57600088828151811061155757611557613600565b6020026020010151905061157481856125b090919063ffffffff16565b61157e57506115da565b828189848151811061159257611592613600565b60200260200101518985815181106115ac576115ac613600565b60200260200101516040516020016115c79493929190613706565b6040516020818303038152906040529250505b806115e48161366a565b91505061153a565b50805160208201206116029060068501906125b0565b15979650505050505050565b60008051602061394a83398151915280546000805b828110156116a25760006116388260016136cf565b600081815260018088016020526040909120015490915060ff1615801561167c57506000868152600386016020908152604080832084845290915290206002015415155b1561168f578261168b8161366a565b9350505b508061169a8161366a565b915050611623565b506000816001600160401b038111156116bd576116bd612c7e565b6040519080825280602002602001820160405280156116e6578160200160208202803683370190505b5090506000805b848110156117945760006117028260016136cf565b60008181526001808a016020526040909120015490915060ff1615801561174657506000888152600388016020908152604080832084845290915290206002015415155b156117815761175588826125c8565b8084848151811061176857611768613600565b60209081029190910101528261177d8161366a565b9350505b508061178c8161366a565b9150506116ed565b5085336001600160a01b03167f3822f2cd6d118934e31e6171da74d9d46131fb402be1861b3cb4460440aeab63846040516117cf91906130db565b60405180910390a36117e0866126ba565b50505050505050565b60007ff6deb63e40d71b08820818e006e23fcceb1fce7a499bc15b71b2526cbf9efa725b54919050565b61181d8133612859565b50565b60008051602061394a833981519152805460019082906000906118449084906136cf565b90915550508054600081815260018084016020526040909120908101805489151560ff19821681178355928b9055889261ff00191661ffff1990911617610100836002811115611896576118966131a0565b0217905550821561191d576001600160a01b0385163b6119115760405162461bcd60e51b815260206004820152603060248201527f496e76656e746f727946616365742e5f637265617465536c6f743a20496e766160448201526f6c6964206974656d206164647265737360801b6064820152608401610796565b61191d8186868661228e565b60408051898152881515602082015290810182905233907fa28f3b4b2c47e1665e89d0bf14b7d48fb80b040942c93ab375bfb714e12e9bf99060600160405180910390a25050505050505050565b838060000361198c5760405162461bcd60e51b815260040161079690613747565b60008051602061394a833981519152548111156119eb5760405162461bcd60e51b815260206004820152601c60248201527f496e76656e746f727946616365743a20496e76616c696420736c6f74000000006044820152606401610796565b836001600160a01b038116611a345760405162461bcd60e51b815260206004820152600f60248201526e496e76616c6964204164647265737360881b6044820152606401610796565b60008051602061394a83398151915260005b84811015611bc257611a93868683818110611a6357611a63613600565b60008c815260048701602090815260408083206001600160a01b038f1684528252909120939102013590506125b0565b611b135760405162461bcd60e51b8152602060048201526044602482018190527f496e76656e746f727946616365742e5f646973616c6c6f774974656d73496e53908201527f6c6f743a204974656d206973206e6f7420616c6c6f77656420696e20746865206064820152631cdb1bdd60e21b608482015260a401610796565b611b58868683818110611b2857611b28613600565b60008c815260048701602090815260408083206001600160a01b038f1684528252909120939102013590506128bf565b506001600160a01b03871660009081526005830160205260408120611baf918a9190898986818110611b8c57611b8c613600565b9050602002013581526020019081526020016000206128bf90919063ffffffff16565b5080611bba8161366a565b915050611a46565b50337fd324d3c4381b63e488418e0515e448929fe81891bec678f34343bd32f56667608888611c2460008051602061394a83398151915260008d8152600491909101602090815260408083206001600160a01b038f16845290915290206127fd565b604051611c339392919061378c565b60405180910390a250505050505050565b600060008051602061394a83398151915261180d565b60008281527ff672b8dc84d117c1e14949d8bc3977392b5ab7de9d01b854d389cdc31bf0d43a602090815260408083206001600160a01b0385168452909152902060609061043e906127fd565b60008051602061394a8339815191528054606091906000816001600160401b03811115611cd657611cd6612c7e565b604051908082528060200260200182016040528015611d3457816020015b611d21604051806060016040528060006001600160a01b0316815260200160008152602001600081525090565b815260200190600190039081611cf45790505b50905060005b82811015611dcc576000868152600385016020526040812090611d5e8360016136cf565b81526020808201929092526040908101600020815160608101835281546001600160a01b0316815260018201549381019390935260020154908201528251839083908110611dae57611dae613600565b60200260200101819052508080611dc49061366a565b915050611d3a565b50949350505050565b6040516331a9108f60e11b815260048101839052829030908190636352211e90602401602060405180830381865afa158015611e15573d6000803e3d6000fd5b505050506040513d601f19601f82011682018060405250810190611e399190613518565b6001600160a01b0316336001600160a01b031614611e695760405162461bcd60e51b815260040161079690613535565b8280600003611e8a5760405162461bcd60e51b815260040161079690613747565b60008051602061394a83398151915254811115611ee95760405162461bcd60e51b815260206004820152601c60248201527f496e76656e746f727946616365743a20496e76616c696420736c6f74000000006044820152606401610796565b60008481527ff672b8dc84d117c1e14949d8bc3977392b5ab7de9d01b854d389cdc31bf0d437602052604090206001015460008051602061394a8339815191529060ff1615611f4a5760405162461bcd60e51b8152600401610796906137bd565b60008681526003820160209081526040808320888452909152902060020154611f855760405162461bcd60e51b81526004016107969061380a565b611f8f86866125c8565b604080516001808252818301909252600091602080830190803683370190505090508581600081518110611fc557611fc5613600565b60200260200101818152505086336001600160a01b03167f3822f2cd6d118934e31e6171da74d9d46131fb402be1861b3cb4460440aeab638360405161200b91906130db565b60405180910390a3610bdf876126ba565b6040516331a9108f60e11b815260048101849052839030908190636352211e90602401602060405180830381865afa15801561205c573d6000803e3d6000fd5b505050506040513d601f19601f820116820180604052508101906120809190613518565b6001600160a01b0316336001600160a01b0316146120b05760405162461bcd60e51b815260040161079690613535565b60008051602061394a833981519152836121325760405162461bcd60e51b815260206004820152603960248201527f496e76656e746f727946616365742e5f756e65717569703a2053686f756c642060448201527f73706563696679206174206c65617374206f6e6520736c6f74000000000000006064820152608401610796565b60005b8481101561225157600086868381811061215157612151613600565b90506020020135905060008111801561216b575082548111155b6121c55760405162461bcd60e51b815260206004820152602560248201527f496e76656e746f727946616365742e5f756e65717569703a20496e76616c6964604482015264081cdb1bdd60da1b6064820152608401610796565b600081815260018085016020526040909120015460ff16156121f95760405162461bcd60e51b8152600401610796906137bd565b600088815260038401602090815260408083208484529091529020600201546122345760405162461bcd60e51b81526004016107969061380a565b61223e88826125c8565b50806122498161366a565b915050612135565b5085336001600160a01b03167f3822f2cd6d118934e31e6171da74d9d46131fb402be1861b3cb4460440aeab6387876040516117cf929190613683565b83806000036122af5760405162461bcd60e51b815260040161079690613747565b60008051602061394a8339815191525481111561230e5760405162461bcd60e51b815260206004820152601c60248201527f496e76656e746f727946616365743a20496e76616c696420736c6f74000000006044820152606401610796565b836001600160a01b0381166123575760405162461bcd60e51b815260206004820152600f60248201526e496e76616c6964204164647265737360881b6044820152606401610796565b60008051602061394a83398151915260005b848110156124b657612386868683818110611a6357611a63613600565b156124075760405162461bcd60e51b815260206004820152604560248201527f496e76656e746f727946616365742e5f646973616c6c6f774974656d73496e5360448201527f6c6f743a204974656d20616c726561647920616c6c6f77656420696e20746865606482015264081cdb1bdd60da1b608482015260a401610796565b61244c86868381811061241c5761241c613600565b60008c815260048701602090815260408083206001600160a01b038f1684528252909120939102013590506128cb565b506001600160a01b038716600090815260058301602052604081206124a3918a919089898681811061248057612480613600565b9050602002013581526020019081526020016000206128cb90919063ffffffff16565b50806124ae8161366a565b915050612369565b5060008781526001828101602052604082200154611bc291899160028086019291610100900460ff16908111156124ef576124ef6131a0565b6002811115612500576125006131a0565b81526020019081526020016000206128cb90919063ffffffff16565b612549604051806060016040528060006001600160a01b0316815260200160008152602001600081525090565b5060009182527ff672b8dc84d117c1e14949d8bc3977392b5ab7de9d01b854d389cdc31bf0d4396020908152604080842092845291815291819020815160608101835281546001600160a01b03168152600182015493810193909352600201549082015290565b6000818152600183016020526040812054151561043e565b60008281527ff672b8dc84d117c1e14949d8bc3977392b5ab7de9d01b854d389cdc31bf0d43960209081526040808320848452909152908190208054600182015460028301549351637921219560e11b815260008051602061394a833981519152946001600160a01b0390931692839263f242432a9261265192309233929091906004016135c8565b600060405180830381600087803b15801561266b57600080fd5b505af115801561267f573d6000803e3d6000fd5b505050600095865250505060030160209081526040808420928452919052812080546001600160a01b03191681556001810182905560020155565b60008080527ff672b8dc84d117c1e14949d8bc3977392b5ab7de9d01b854d389cdc31bf0d43860205260008051602061394a83398151915260607f845ff02802177e9909faef63e536d995d5be20fadd26c667f4235942a02dfdd9835b612720826128d7565b81101561279b57600061273383836128e1565b60008881526003870160209081526040808320848452825291829020805460018201549351949550909361277593899387936001600160a01b03169201613706565b6040516020818303038152906040529450505080806127939061366a565b915050612717565b50815160208301206127b060068501826125b0565b6000878152600886016020526040902054901595506127d39060068601906128bf565b506127e160068501826128cb565b5060009586526008909301602052505060409092209190915590565b8054604080516020808402820181019092528281526060928492839291839183018282801561284b57602002820191906000526020600020905b815481526020019060010190808311612837575b505050505092505050919050565b61286382826128ed565b6128bb57612879816001600160a01b0316612924565b612884836020612936565b604051602001612895929190613854565b60408051601f198184030181529082905262461bcd60e51b8252610796916004016138c9565b5050565b600061043e8383612a88565b600061043e8383612b4d565b6000610377825490565b600061043e8383612b90565b60008281527fd3889cc5458b268d0544e5534672df1296288ca3f93cbd39bd6f497a5c6228116020526040812061043e9083612bdc565b60606103776001600160a01b03831660145b606060006129458360026138fc565b6129509060026136cf565b6001600160401b0381111561296757612967612c7e565b6040519080825280601f01601f191660200182016040528015612991576020820181803683370190505b509050600360fc1b816000815181106129ac576129ac613600565b60200101906001600160f81b031916908160001a905350600f60fb1b816001815181106129db576129db613600565b60200101906001600160f81b031916908160001a905350600160028402015b6001811115612a68576f181899199a1a9b1b9c1cb0b131b232b360811b85600f1660108110612a2b57612a2b613600565b1a60f81b828281518110612a4157612a41613600565b60200101906001600160f81b031916908160001a90535060049490941c93600019016129fa565b50831561043e5760405163c913478560e01b815260040160405180910390fd5b60008181526001830160205260408120548015612b4657835460009085906000198101908110612aba57612aba613600565b9060005260206000200154905080856000016001840381548110612ae057612ae0613600565b6000918252602080832090910192909255918252600186019052604090208190558354849080612b1257612b12613913565b6001900381819060005260206000200160009055905583600101600084815260200190815260200160002060009055600191505b5092915050565b6000818152600183016020526040812054610377575081546001808201845560008481526020808220909301849055845493815293810190915260409092205590565b81546000908210612bb45760405163e637bf3b60e01b815260040160405180910390fd5b826000018281548110612bc957612bc9613600565b9060005260206000200154905092915050565b6001600160a01b0381166000908152600183016020526040812054151561043e565b600060208284031215612c1057600080fd5b81356001600160e01b03198116811461043e57600080fd5b600080600083850360a0811215612c3e57600080fd5b84359350602085013592506060603f1982011215612c5b57600080fd5b506040840190509250925092565b6001600160a01b038116811461181d57600080fd5b634e487b7160e01b600052604160045260246000fd5b604051601f8201601f191681016001600160401b0381118282101715612cbc57612cbc612c7e565b604052919050565b600082601f830112612cd557600080fd5b81356001600160401b03811115612cee57612cee612c7e565b612d01601f8201601f1916602001612c94565b818152846020838601011115612d1657600080fd5b816020850160208301376000918101602001919091529392505050565b60008060008060808587031215612d4957600080fd5b8435612d5481612c69565b93506020850135612d6481612c69565b92506040850135915060608501356001600160401b03811115612d8657600080fd5b612d9287828801612cc4565b91505092959194509250565b60008083601f840112612db057600080fd5b5081356001600160401b03811115612dc757600080fd5b6020830191508360208260051b8501011115612de257600080fd5b9250929050565b600080600080600060608688031215612e0157600080fd5b8535945060208601356001600160401b0380821115612e1f57600080fd5b612e2b89838a01612d9e565b90965094506040880135915080821115612e4457600080fd5b818801915088601f830112612e5857600080fd5b813581811115612e6757600080fd5b896020606083028501011115612e7c57600080fd5b9699959850939650602001949392505050565b60006001600160401b03821115612ea857612ea8612c7e565b5060051b60200190565b600082601f830112612ec357600080fd5b81356020612ed8612ed383612e8f565b612c94565b82815260059290921b84018101918181019086841115612ef757600080fd5b8286015b84811015612f125780358352918301918301612efb565b509695505050505050565b600080600060608486031215612f3257600080fd5b83356001600160401b0380821115612f4957600080fd5b612f5587838801612eb2565b9450602091508186013581811115612f6c57600080fd5b8601601f81018813612f7d57600080fd5b8035612f8b612ed382612e8f565b81815260059190911b8201840190848101908a831115612faa57600080fd5b928501925b82841015612fd1578335612fc281612c69565b82529285019290850190612faf565b96505050506040860135915080821115612fea57600080fd5b50612ff786828701612eb2565b9150509250925092565b600081518084526020808501945080840160005b8381101561303157815187529582019590820190600101613015565b509495945050505050565b60608152600061304f6060830186613001565b82810360208481019190915285518083528682019282019060005b8181101561308f5784516001600160a01b03168352938301939183019160010161306a565b505084810360408601526130a38187613001565b98975050505050505050565b600080604083850312156130c257600080fd5b82356130cd81612c69565b946020939093013593505050565b60208152600061043e6020830184613001565b6000806000806000806060878903121561310757600080fd5b86356001600160401b038082111561311e57600080fd5b61312a8a838b01612d9e565b9098509650602089013591508082111561314357600080fd5b61314f8a838b01612d9e565b9096509450604089013591508082111561316857600080fd5b5061317589828a01612d9e565b979a9699509497509295939492505050565b60006020828403121561319957600080fd5b5035919050565b634e487b7160e01b600052602160045260246000fd5b8151815260208083015115159082015260408201516060820190600381106131ee57634e487b7160e01b600052602160045260246000fd5b8060408401525092915050565b60008060008060008060a0878903121561321457600080fd5b863595506020870135801515811461322b57600080fd5b945060408701356003811061323f57600080fd5b9350606087013561324f81612c69565b925060808701356001600160401b0381111561326a57600080fd5b61317589828a01612d9e565b6000806000806060858703121561328c57600080fd5b84359350602085013561329e81612c69565b925060408501356001600160401b038111156132b957600080fd5b6132c587828801612d9e565b95989497509550505050565b600080604083850312156132e457600080fd5b8235915060208301356132f681612c69565b809150509250929050565b6020808252825182820181905260009190848201906040850190845b818110156133605761334d83855180516001600160a01b0316825260208082015190830152604090810151910152565b928401926060929092019160010161331d565b50909695505050505050565b6000806040838503121561337f57600080fd5b50508035926020909101359150565b6000806000604084860312156133a357600080fd5b8335925060208401356001600160401b038111156133c057600080fd5b6133cc86828701612d9e565b9497909650939450505050565b600080600080600060a086880312156133f157600080fd5b85356133fc81612c69565b9450602086013561340c81612c69565b935060408601356001600160401b038082111561342857600080fd5b61343489838a01612eb2565b9450606088013591508082111561344a57600080fd5b61345689838a01612eb2565b9350608088013591508082111561346c57600080fd5b5061347988828901612cc4565b9150509295509295909350565b81516001600160a01b03168152602080830151908201526040808301519082015260608101610377565b600080600080600060a086880312156134c857600080fd5b85356134d381612c69565b945060208601356134e381612c69565b9350604086013592506060860135915060808601356001600160401b0381111561350c57600080fd5b61347988828901612cc4565b60006020828403121561352a57600080fd5b815161043e81612c69565b6020808252603b908201527f496e76656e746f727946616365743a204d6573736167652073656e646572206960408201527f73206e6f74206f776e6572206f662074686520617263616469616e0000000000606082015260800190565b6000602082840312156135a457600080fd5b813561043e81612c69565b6000602082840312156135c157600080fd5b5051919050565b6001600160a01b0394851681529290931660208301526040820152606081019190915260a06080820181905260009082015260c00190565b634e487b7160e01b600052603260045260246000fd5b813561362181612c69565b81546001600160a01b0319166001600160a01b039190911617815560208201356001820155604090910135600290910155565b634e487b7160e01b600052601160045260246000fd5b60006001820161367c5761367c613654565b5060010190565b6020808252810182905260006001600160fb1b038311156136a357600080fd5b8260051b80856040850137919091016040019392505050565b8181038181111561037757610377613654565b8082018082111561037757610377613654565b60005b838110156136fd5781810151838201526020016136e5565b50506000910152565b60008551613718818460208a016136e2565b919091019384525060609190911b6bffffffffffffffffffffffff191660208301526034820152605401919050565b60208082526025908201527f496e76656e746f727946616365743a20536c6f742069642063616e2774206265604082015264207a65726f60d81b606082015260800190565b8381526001600160a01b03831660208201526060604082015260006137b46060830184613001565b95945050505050565b6020808252602d908201527f496e76656e746f727946616365742e5f756e65717569703a20536c6f7420697360408201526c20756e65717569707061626c6560981b606082015260800190565b6020808252602a908201527f496e76656e746f727946616365742e5f756e65717569703a20536c6f74206e6f6040820152691d08195c5d5a5c1c195960b21b606082015260800190565b7f416363657373436f6e74726f6c3a206163636f756e742000000000000000000081526000835161388c8160178501602088016136e2565b7001034b99036b4b9b9b4b733903937b6329607d1b60179184019182015283516138bd8160288401602088016136e2565b01602801949350505050565b60208152600082518060208401526138e88160408501602087016136e2565b601f01601f19169190910160400192915050565b808202811582820484141761037757610377613654565b634e487b7160e01b600052603160045260246000fdfe09acf4e54214992e70883cf7dcd6957ff2c71cd9e14df4bec4383bc0d11607dcf672b8dc84d117c1e14949d8bc3977392b5ab7de9d01b854d389cdc31bf0d436a26469706673582212204dc6b4855e4c6e60c0d8f574eed79abea4cebae7893b8a8f51b33a12eaaa40e664736f6c63430008130033",
  "devdoc": {
    "kind": "dev",
    "methods": {
      "onERC721Received(address,address,uint256,bytes)": {
        "details": "See {IERC721Receiver-onERC721Received}. Always returns `IERC721Receiver.onERC721Received.selector`."
      },
      "supportsInterface(bytes4)": {
        "details": "See {IERC165-supportsInterface}."
      }
    },
    "version": 1
  },
  "userdoc": {
    "kind": "user",
    "methods": {},
    "version": 1
  },
  "storageLayout": {
    "storage": [],
    "types": null
  }
}