{
  "address": "0x02C1d1358258e77F054a64697CfD903820f82a72",
  "abi": [
    {
      "inputs": [],
      "name": "EnumerableSet__IndexOutOfBounds",
      "type": "error"
    },
    {
      "inputs": [],
      "name": "Inventory_ArcadianNotUnique",
      "type": "error"
    },
    {
      "inputs": [],
      "name": "Inventory_CouponNeededToModifyBaseSlots",
      "type": "error"
    },
    {
      "inputs": [],
      "name": "Inventory_InputDataMismatch",
      "type": "error"
    },
    {
      "inputs": [],
      "name": "Inventory_InsufficientItemBalance",
      "type": "error"
    },
    {
      "inputs": [],
      "name": "Inventory_InvalidERC1155Contract",
      "type": "error"
    },
    {
      "inputs": [],
      "name": "Inventory_InvalidSlotId",
      "type": "error"
    },
    {
      "inputs": [],
      "name": "Inventory_ItemAlreadyEquippedInSlot",
      "type": "error"
    },
    {
      "inputs": [],
      "name": "Inventory_ItemDoesNotHaveSlotAssigned",
      "type": "error"
    },
    {
      "inputs": [],
      "name": "Inventory_ItemNotSpecified",
      "type": "error"
    },
    {
      "inputs": [],
      "name": "Inventory_NonBaseSlot",
      "type": "error"
    },
    {
      "inputs": [],
      "name": "Inventory_NotAllBaseSlotsEquipped",
      "type": "error"
    },
    {
      "inputs": [],
      "name": "Inventory_NotArcadianOwner",
      "type": "error"
    },
    {
      "inputs": [],
      "name": "Inventory_SlotNotSpecified",
      "type": "error"
    },
    {
      "inputs": [],
      "name": "Inventory_UnequippingBaseSlot",
      "type": "error"
    },
    {
      "inputs": [],
      "name": "Inventory_UnequippingEmptySlot",
      "type": "error"
    },
    {
      "inputs": [],
      "name": "Inventory_UnequippingPermanentSlot",
      "type": "error"
    },
    {
      "inputs": [],
      "name": "ReentrancyGuard__ReentrantCall",
      "type": "error"
    },
    {
      "inputs": [],
      "name": "Roles_MissingAdminRole",
      "type": "error"
    },
    {
      "inputs": [],
      "name": "Roles_MissingAutomationRole",
      "type": "error"
    },
    {
      "inputs": [],
      "name": "Roles_MissingManagerRole",
      "type": "error"
    },
    {
      "anonymous": false,
      "inputs": [
        {
          "indexed": true,
          "internalType": "address",
          "name": "by",
          "type": "address"
        },
        {
          "indexed": true,
          "internalType": "address",
          "name": "to",
          "type": "address"
        },
        {
          "indexed": false,
          "internalType": "uint256[]",
          "name": "slotsIds",
          "type": "uint256[]"
        },
        {
          "indexed": false,
          "internalType": "uint256[]",
          "name": "amounts",
          "type": "uint256[]"
        }
      ],
      "name": "BaseModifierCouponAdded",
      "type": "event"
    },
    {
      "anonymous": false,
      "inputs": [
        {
          "indexed": true,
          "internalType": "address",
          "name": "account",
          "type": "address"
        },
        {
          "indexed": false,
          "internalType": "uint256[]",
          "name": "slotsIds",
          "type": "uint256[]"
        }
      ],
      "name": "BaseModifierCouponConsumed",
      "type": "event"
    },
    {
      "anonymous": false,
      "inputs": [
        {
          "indexed": true,
          "internalType": "address",
          "name": "by",
          "type": "address"
        },
        {
          "indexed": false,
          "internalType": "uint256",
          "name": "slotId",
          "type": "uint256"
        }
      ],
      "name": "ItemsAllowedInSlotUpdated",
      "type": "event"
    },
    {
      "anonymous": false,
      "inputs": [
        {
          "indexed": true,
          "internalType": "address",
          "name": "by",
          "type": "address"
        },
        {
          "indexed": true,
          "internalType": "uint256",
          "name": "arcadianId",
          "type": "uint256"
        },
        {
          "indexed": false,
          "internalType": "uint256[]",
          "name": "slots",
          "type": "uint256[]"
        }
      ],
      "name": "ItemsEquipped",
      "type": "event"
    },
    {
      "anonymous": false,
      "inputs": [
        {
          "indexed": true,
          "internalType": "address",
          "name": "by",
          "type": "address"
        },
        {
          "indexed": true,
          "internalType": "uint256",
          "name": "arcadianId",
          "type": "uint256"
        },
        {
          "indexed": false,
          "internalType": "uint256[]",
          "name": "slots",
          "type": "uint256[]"
        }
      ],
      "name": "ItemsUnequipped",
      "type": "event"
    },
    {
      "anonymous": false,
      "inputs": [
        {
          "indexed": true,
          "internalType": "bytes32",
          "name": "role",
          "type": "bytes32"
        },
        {
          "indexed": true,
          "internalType": "bytes32",
          "name": "previousAdminRole",
          "type": "bytes32"
        },
        {
          "indexed": true,
          "internalType": "bytes32",
          "name": "newAdminRole",
          "type": "bytes32"
        }
      ],
      "name": "RoleAdminChanged",
      "type": "event"
    },
    {
      "anonymous": false,
      "inputs": [
        {
          "indexed": true,
          "internalType": "bytes32",
          "name": "role",
          "type": "bytes32"
        },
        {
          "indexed": true,
          "internalType": "address",
          "name": "account",
          "type": "address"
        },
        {
          "indexed": true,
          "internalType": "address",
          "name": "sender",
          "type": "address"
        }
      ],
      "name": "RoleGranted",
      "type": "event"
    },
    {
      "anonymous": false,
      "inputs": [
        {
          "indexed": true,
          "internalType": "bytes32",
          "name": "role",
          "type": "bytes32"
        },
        {
          "indexed": true,
          "internalType": "address",
          "name": "account",
          "type": "address"
        },
        {
          "indexed": true,
          "internalType": "address",
          "name": "sender",
          "type": "address"
        }
      ],
      "name": "RoleRevoked",
      "type": "event"
    },
    {
      "anonymous": false,
      "inputs": [
        {
          "indexed": true,
          "internalType": "address",
          "name": "by",
          "type": "address"
        },
        {
          "indexed": false,
          "internalType": "uint256",
          "name": "slotId",
          "type": "uint256"
        },
        {
          "indexed": false,
          "internalType": "bool",
          "name": "permanent",
          "type": "bool"
        },
        {
          "indexed": false,
          "internalType": "enum InventoryStorage.SlotCategory",
          "name": "category",
          "type": "uint8"
        }
      ],
      "name": "SlotCreated",
      "type": "event"
    },
    {
      "inputs": [
        {
          "internalType": "address",
          "name": "account",
          "type": "address"
        },
        {
          "internalType": "uint256[]",
          "name": "slotsIds",
          "type": "uint256[]"
        },
        {
          "internalType": "uint256[]",
          "name": "amounts",
          "type": "uint256[]"
        }
      ],
      "name": "addBaseModifierCoupons",
      "outputs": [],
      "stateMutability": "nonpayable",
      "type": "function"
    },
    {
      "inputs": [
        {
          "internalType": "uint256",
          "name": "slotId",
          "type": "uint256"
        },
        {
          "components": [
            {
              "internalType": "address",
              "name": "erc721Contract",
              "type": "address"
            },
            {
              "internalType": "uint256",
              "name": "id",
              "type": "uint256"
            }
          ],
          "internalType": "struct InventoryStorage.Item[]",
          "name": "items",
          "type": "tuple[]"
        }
      ],
      "name": "allowItemsInSlot",
      "outputs": [],
      "stateMutability": "nonpayable",
      "type": "function"
    },
    {
      "inputs": [
        {
          "internalType": "uint256",
          "name": "slotId",
          "type": "uint256"
        },
        {
          "internalType": "uint256",
          "name": "index",
          "type": "uint256"
        }
      ],
      "name": "allowedItem",
      "outputs": [
        {
          "components": [
            {
              "internalType": "address",
              "name": "erc721Contract",
              "type": "address"
            },
            {
              "internalType": "uint256",
              "name": "id",
              "type": "uint256"
            }
          ],
          "internalType": "struct InventoryStorage.Item",
          "name": "",
          "type": "tuple"
        }
      ],
      "stateMutability": "view",
      "type": "function"
    },
    {
      "inputs": [
        {
          "components": [
            {
              "internalType": "address",
              "name": "erc721Contract",
              "type": "address"
            },
            {
              "internalType": "uint256",
              "name": "id",
              "type": "uint256"
            }
          ],
          "internalType": "struct InventoryStorage.Item",
          "name": "item",
          "type": "tuple"
        }
      ],
      "name": "allowedSlot",
      "outputs": [
        {
          "internalType": "uint256",
          "name": "",
          "type": "uint256"
        }
      ],
      "stateMutability": "view",
      "type": "function"
    },
    {
      "inputs": [
        {
          "internalType": "uint256",
          "name": "arcadianId",
          "type": "uint256"
        }
      ],
      "name": "arcadianToBaseItemHash",
      "outputs": [
        {
          "internalType": "bytes32",
          "name": "",
          "type": "bytes32"
        }
      ],
      "stateMutability": "view",
      "type": "function"
    },
    {
      "inputs": [
        {
          "internalType": "bool",
          "name": "permanent",
          "type": "bool"
        },
        {
          "internalType": "enum InventoryStorage.SlotCategory",
          "name": "category",
          "type": "uint8"
        },
        {
          "components": [
            {
              "internalType": "address",
              "name": "erc721Contract",
              "type": "address"
            },
            {
              "internalType": "uint256",
              "name": "id",
              "type": "uint256"
            }
          ],
          "internalType": "struct InventoryStorage.Item[]",
          "name": "items",
          "type": "tuple[]"
        }
      ],
      "name": "createSlot",
      "outputs": [],
      "stateMutability": "nonpayable",
      "type": "function"
    },
    {
      "inputs": [
        {
          "internalType": "uint256",
          "name": "slotId",
          "type": "uint256"
        },
        {
          "components": [
            {
              "internalType": "address",
              "name": "erc721Contract",
              "type": "address"
            },
            {
              "internalType": "uint256",
              "name": "id",
              "type": "uint256"
            }
          ],
          "internalType": "struct InventoryStorage.Item[]",
          "name": "items",
          "type": "tuple[]"
        }
      ],
      "name": "disallowItemsInSlot",
      "outputs": [],
      "stateMutability": "nonpayable",
      "type": "function"
    },
    {
      "inputs": [
        {
          "internalType": "uint256",
          "name": "arcadianId",
          "type": "uint256"
        },
        {
          "components": [
            {
              "internalType": "address",
              "name": "erc721Contract",
              "type": "address"
            },
            {
              "internalType": "uint256",
              "name": "id",
              "type": "uint256"
            }
          ],
          "internalType": "struct InventoryStorage.Item[]",
          "name": "items",
          "type": "tuple[]"
        }
      ],
      "name": "equip",
      "outputs": [],
      "stateMutability": "nonpayable",
      "type": "function"
    },
    {
      "inputs": [
        {
          "internalType": "uint256",
          "name": "arcadianId",
          "type": "uint256"
        },
        {
          "internalType": "uint256",
          "name": "slotId",
          "type": "uint256"
        }
      ],
      "name": "equipped",
      "outputs": [
        {
          "components": [
            {
              "internalType": "uint256",
              "name": "slotId",
              "type": "uint256"
            },
            {
              "internalType": "address",
              "name": "erc721Contract",
              "type": "address"
            },
            {
              "internalType": "uint256",
              "name": "itemId",
              "type": "uint256"
            }
          ],
          "internalType": "struct InventoryInternal.ItemInSlot",
          "name": "item",
          "type": "tuple"
        }
      ],
      "stateMutability": "view",
      "type": "function"
    },
    {
      "inputs": [
        {
          "internalType": "uint256",
          "name": "arcadianId",
          "type": "uint256"
        }
      ],
      "name": "equippedAll",
      "outputs": [
        {
          "components": [
            {
              "internalType": "uint256",
              "name": "slotId",
              "type": "uint256"
            },
            {
              "internalType": "address",
              "name": "erc721Contract",
              "type": "address"
            },
            {
              "internalType": "uint256",
              "name": "itemId",
              "type": "uint256"
            }
          ],
          "internalType": "struct InventoryInternal.ItemInSlot[]",
          "name": "equippedSlot",
          "type": "tuple[]"
        }
      ],
      "stateMutability": "view",
      "type": "function"
    },
    {
      "inputs": [
        {
          "internalType": "uint256",
          "name": "arcadianId",
          "type": "uint256"
        },
        {
          "internalType": "uint256[]",
          "name": "slotIds",
          "type": "uint256[]"
        }
      ],
      "name": "equippedBatch",
      "outputs": [
        {
          "components": [
            {
              "internalType": "uint256",
              "name": "slotId",
              "type": "uint256"
            },
            {
              "internalType": "address",
              "name": "erc721Contract",
              "type": "address"
            },
            {
              "internalType": "uint256",
              "name": "itemId",
              "type": "uint256"
            }
          ],
          "internalType": "struct InventoryInternal.ItemInSlot[]",
          "name": "equippedSlot",
          "type": "tuple[]"
        }
      ],
      "stateMutability": "view",
      "type": "function"
    },
    {
      "inputs": [
        {
          "internalType": "address",
          "name": "account",
          "type": "address"
        },
        {
          "internalType": "uint256",
          "name": "slotId",
          "type": "uint256"
        }
      ],
      "name": "getBaseModifierCoupon",
      "outputs": [
        {
          "internalType": "uint256",
          "name": "",
          "type": "uint256"
        }
      ],
      "stateMutability": "view",
      "type": "function"
    },
    {
      "inputs": [
        {
          "internalType": "address",
          "name": "account",
          "type": "address"
        }
      ],
      "name": "getBaseModifierCouponAll",
      "outputs": [
        {
          "components": [
            {
              "internalType": "uint256",
              "name": "slotId",
              "type": "uint256"
            },
            {
              "internalType": "uint256",
              "name": "amount",
              "type": "uint256"
            }
          ],
          "internalType": "struct InventoryInternal.BaseModifierCoupon[]",
          "name": "",
          "type": "tuple[]"
        }
      ],
      "stateMutability": "view",
      "type": "function"
    },
    {
      "inputs": [
        {
          "internalType": "uint256",
          "name": "arcadianId",
          "type": "uint256"
        },
        {
          "components": [
            {
              "internalType": "address",
              "name": "erc721Contract",
              "type": "address"
            },
            {
              "internalType": "uint256",
              "name": "id",
              "type": "uint256"
            }
          ],
          "internalType": "struct InventoryStorage.Item[]",
          "name": "items",
          "type": "tuple[]"
        }
      ],
      "name": "isArcadianUnique",
      "outputs": [
        {
          "internalType": "bool",
          "name": "",
          "type": "bool"
        }
      ],
      "stateMutability": "view",
      "type": "function"
    },
    {
      "inputs": [
        {
          "internalType": "uint256",
          "name": "slotId",
          "type": "uint256"
        }
      ],
      "name": "numAllowedItems",
      "outputs": [
        {
          "internalType": "uint256",
          "name": "",
          "type": "uint256"
        }
      ],
      "stateMutability": "view",
      "type": "function"
    },
    {
      "inputs": [],
      "name": "numSlots",
      "outputs": [
        {
          "internalType": "uint256",
          "name": "",
          "type": "uint256"
        }
      ],
      "stateMutability": "view",
      "type": "function"
    },
    {
      "inputs": [
        {
          "internalType": "address",
          "name": "",
          "type": "address"
        },
        {
          "internalType": "address",
          "name": "",
          "type": "address"
        },
        {
          "internalType": "uint256[]",
          "name": "",
          "type": "uint256[]"
        },
        {
          "internalType": "uint256[]",
          "name": "",
          "type": "uint256[]"
        },
        {
          "internalType": "bytes",
          "name": "",
          "type": "bytes"
        }
      ],
      "name": "onERC1155BatchReceived",
      "outputs": [
        {
          "internalType": "bytes4",
          "name": "",
          "type": "bytes4"
        }
      ],
      "stateMutability": "nonpayable",
      "type": "function"
    },
    {
      "inputs": [
        {
          "internalType": "address",
          "name": "",
          "type": "address"
        },
        {
          "internalType": "address",
          "name": "",
          "type": "address"
        },
        {
          "internalType": "uint256",
          "name": "",
          "type": "uint256"
        },
        {
          "internalType": "uint256",
          "name": "",
          "type": "uint256"
        },
        {
          "internalType": "bytes",
          "name": "",
          "type": "bytes"
        }
      ],
      "name": "onERC1155Received",
      "outputs": [
        {
          "internalType": "bytes4",
          "name": "",
          "type": "bytes4"
        }
      ],
      "stateMutability": "nonpayable",
      "type": "function"
    },
    {
      "inputs": [
        {
          "internalType": "uint256",
          "name": "slotId",
          "type": "uint256"
        }
      ],
      "name": "slot",
      "outputs": [
        {
          "components": [
            {
              "internalType": "uint256",
              "name": "id",
              "type": "uint256"
            },
            {
              "internalType": "bool",
              "name": "permanent",
              "type": "bool"
            },
            {
              "internalType": "enum InventoryStorage.SlotCategory",
              "name": "category",
              "type": "uint8"
            }
          ],
          "internalType": "struct InventoryStorage.Slot",
          "name": "existentSlot",
          "type": "tuple"
        }
      ],
      "stateMutability": "view",
      "type": "function"
    },
    {
      "inputs": [],
      "name": "slotsAll",
      "outputs": [
        {
          "components": [
            {
              "internalType": "uint256",
              "name": "id",
              "type": "uint256"
            },
            {
              "internalType": "bool",
              "name": "permanent",
              "type": "bool"
            },
            {
              "internalType": "enum InventoryStorage.SlotCategory",
              "name": "category",
              "type": "uint8"
            }
          ],
          "internalType": "struct InventoryStorage.Slot[]",
          "name": "existentSlots",
          "type": "tuple[]"
        }
      ],
      "stateMutability": "view",
      "type": "function"
    },
    {
      "inputs": [
        {
          "internalType": "bytes4",
          "name": "interfaceId",
          "type": "bytes4"
        }
      ],
      "name": "supportsInterface",
      "outputs": [
        {
          "internalType": "bool",
          "name": "",
          "type": "bool"
        }
      ],
      "stateMutability": "view",
      "type": "function"
    },
    {
      "inputs": [
        {
          "internalType": "uint256",
          "name": "arcadianId",
          "type": "uint256"
        },
        {
          "internalType": "uint256[]",
          "name": "slotIds",
          "type": "uint256[]"
        }
      ],
      "name": "unequip",
      "outputs": [],
      "stateMutability": "nonpayable",
      "type": "function"
    }
  ],
  "transactionHash": "0x94eb4c5e8da7136d7a4b1a531b1daf7622f7326add013de5e5bc387f2d6ef739",
  "args": [],
  "numDeployments": 1,
  "solcInputHash": "687a54a673cde10a47d7d892de7d1aa9",
  "bytecode": "0x608060405234801561001057600080fd5b506132ab806100206000396000f3fe608060405234801561001057600080fd5b50600436106101425760003560e01c806389633e51116100b8578063b2025e4f1161007c578063b2025e4f146102fd578063b9e6a4121461031d578063bc197c8114610330578063c06ffe9014610368578063ef0bf7de1461037b578063f23a6e611461039b57600080fd5b806389633e51146102a75780638e980d4d146102ba5780639621ff25146102cd5780639e3ccb2a146102d5578063b1b2fef4146102e857600080fd5b80634274a1431161010a5780634274a143146101e5578063473bdb98146101f8578063603f40ec1461020b578063633e2d5a1461024a5780637a8455a11461025d5780637f85db2d1461027057600080fd5b806301ffc9a7146101475780630f58dcda1461016f5780631da7c70a1461018f57806325989b45146101af5780632f8bd3c8146101c4575b600080fd5b61015a610155366004612928565b6103ba565b60405190151581526020015b60405180910390f35b61018261017d36600461299d565b6103f1565b60405161016691906129e8565b6101a261019d366004612a6b565b610406565b6040516101669190612a88565b6101c26101bd366004612ad7565b610411565b005b6101d76101d2366004612b59565b610489565b604051908152602001610166565b6101c26101f3366004612bb5565b610494565b6101c2610206366004612bb5565b6104cc565b6101d7610219366004612bf3565b60009081527ff672b8dc84d117c1e14949d8bc3977392b5ab7de9d01b854d389cdc31bf0d43e602052604090205490565b6101d7610258366004612bf3565b6104ff565b61015a61026b366004612bb5565b61050a565b61028361027e366004612c0c565b610517565b6040805182516001600160a01b031681526020928301519281019290925201610166565b6101d76102b5366004612c2e565b61053c565b6101c26102c8366004612bb5565b610548565b6101d76105a5565b6101826102e3366004612bf3565b6105b4565b6102f06105bf565b6040516101669190612cb4565b61031061030b366004612bf3565b6105c9565b6040516101669190612cf6565b6101c261032b366004612d04565b61066e565b61034f61033e366004612ea5565b63bc197c8160e01b95945050505050565b6040516001600160e01b03199091168152602001610166565b6101c261037636600461299d565b6106a8565b61038e610389366004612c0c565b6106fa565b6040516101669190612f52565b61034f6103a9366004612f7c565b63f23a6e6160e01b95945050505050565b60006001600160e01b03198216630271189760e51b14806103eb57506301ffc9a760e01b6001600160e01b03198316145b92915050565b60606103fe84848461070c565b949350505050565b60606103eb82610836565b61042261041c61099e565b336109c8565b158015610457575061045561041c7ff6deb63e40d71b08820818e006e23fcceb1fce7a499bc15b71b2526cbf9efa735490565b155b1561047557604051630b24262960e31b815260040160405180910390fd5b61048285858585856109ff565b5050505050565b60006103eb82610bfb565b61049f61041c61099e565b6104bc5760405163d0befa1d60e01b815260040160405180910390fd5b6104c7838383610c69565b505050565b6104d761041c61099e565b6104f45760405163d0befa1d60e01b815260040160405180910390fd5b6104c7838383610dae565b60006103eb826110be565b60006103fe84848461112d565b6040805180820190915260008082526020820152610535838361132a565b9392505050565b600061053583836113f4565b7f09acf4e54214992e70883cf7dcd6957ff2c71cd9e14df4bec4383bc0d11607dc805460020361058b57604051635db5c7cd60e11b815260040160405180910390fd5b6002815561059c84848460006114e1565b60019055505050565b60006105af6118cf565b905090565b60606103eb826118e5565b60606105af6119ec565b6105ea60408051606081018252600080825260208201819052909182015290565b60008281527ff672b8dc84d117c1e14949d8bc3977392b5ab7de9d01b854d389cdc31bf0d437602052604090206040805160608101825282548152600183015460ff8082161515602084015291939284019161010090910416600281111561065457610654612c5a565b600281111561066557610665612c5a565b90525092915050565b61067961041c61099e565b6106965760405163d0befa1d60e01b815260040160405180910390fd5b6106a284848484611b26565b50505050565b7f09acf4e54214992e70883cf7dcd6957ff2c71cd9e14df4bec4383bc0d11607dc80546002036106eb57604051635db5c7cd60e11b815260040160405180910390fd5b6002815561059c848484611c0e565b6107026128fe565b6105358383611d5a565b6060600080516020613256833981519152826001600160401b0381111561073557610735612d71565b60405190808252806020026020018201604052801561076e57816020015b61075b6128fe565b8152602001906001900390816107535790505b50915060005b8381101561082d57600086815260038301602052604081208187878581811061079f5761079f612fe4565b905060200201358152602001908152602001600020905060405180606001604052808787858181106107d3576107d3612fe4565b6020908102929092013583525083546001600160a01b0316908201526001830154604090910152845185908490811061080e5761080e612fe4565b602002602001018190525050808061082590613010565b915050610774565b50509392505050565b60008080527ff672b8dc84d117c1e14949d8bc3977392b5ab7de9d01b854d389cdc31bf0d438602052606090600080516020613256833981519152907f845ff02802177e9909faef63e536d995d5be20fadd26c667f4235942a02dfdd99061089d82611dc7565b90506000816001600160401b038111156108b9576108b9612d71565b6040519080825280602002602001820160405280156108fe57816020015b60408051808201909152600080825260208201528152602001906001900390816108d75790505b50905060005b828110156109945760006109188583611dd1565b90508083838151811061092d5761092d612fe4565b602090810291909101810151919091526001600160a01b038916600090815260098801825260408082208483529092522054835184908490811061097357610973612fe4565b6020908102919091018101510152508061098c81613010565b915050610904565b5095945050505050565b60007ff6deb63e40d71b08820818e006e23fcceb1fce7a499bc15b71b2526cbf9efa725b54919050565b60008281527fd3889cc5458b268d0544e5534672df1296288ca3f93cbd39bd6f497a5c622811602052604081206105359083611ddd565b828114610a1f576040516303f7219d60e41b815260040160405180910390fd5b600080516020613256833981519152805460005b85811015610ba057868682818110610a4d57610a4d612fe4565b905060200201356000148015610a7a575081878783818110610a7157610a71612fe4565b90506020020135115b15610a985760405163d751397d60e01b815260040160405180910390fd5b6000836001016000898985818110610ab257610ab2612fe4565b90506020020135815260200190815260200160002060010160019054906101000a900460ff166002811115610ae957610ae9612c5a565b14610b07576040516332fa2abb60e01b815260040160405180910390fd5b848482818110610b1957610b19612fe4565b90506020020135610b3560008051602061325683398151915290565b6001600160a01b038a1660009081526009919091016020526040812090898985818110610b6457610b64612fe4565b9050602002013581526020019081526020016000206000828254610b889190613029565b90915550819050610b9881613010565b915050610a33565b50866001600160a01b0316336001600160a01b03167f79ef5dda420a532ad69ccb2d06e5304e6b2b0e93c99a27d63909c8ffce8faf4e88888888604051610bea949392919061306e565b60405180910390a350505050505050565b60007ff672b8dc84d117c1e14949d8bc3977392b5ab7de9d01b854d389cdc31bf0d43a81610c2c6020850185612a6b565b6001600160a01b03166001600160a01b03168152602001908152602001600020600083602001358152602001908152602001600020549050919050565b82801580610c8557506000805160206132568339815191525481115b15610ca35760405163d751397d60e01b815260040160405180910390fd5b60008051602061325683398151915260005b83811015610d715785826004016000878785818110610cd657610cd6612fe4565b610cec9260206040909202019081019150612a6b565b6001600160a01b03166001600160a01b031681526020019081526020016000206000878785818110610d2057610d20612fe4565b9050604002016020013581526020019081526020016000205403610d5f57610d5f86868684818110610d5457610d54612fe4565b905060400201611dff565b80610d6981613010565b915050610cb5565b5060405185815233907ff69b53fa14ee16895edbe90d00c7b7af9214baf87c69bf5594126b114c9337ed9060200160405180910390a25050505050565b82801580610dca57506000805160206132568339815191525481115b15610de85760405163d751397d60e01b815260040160405180910390fd5b60008051602061325683398151915260005b8381101561105857610e3c858583818110610e1757610e17612fe4565b610e2d9260206040909202019081019150612a6b565b6001600160a01b03163b151590565b610e5957604051633c65e02b60e21b815260040160405180910390fd5b6000826004016000878785818110610e7357610e73612fe4565b610e899260206040909202019081019150612a6b565b6001600160a01b03166001600160a01b031681526020019081526020016000206000878785818110610ebd57610ebd612fe4565b905060400201602001358152602001908152602001600020541115610f745785826004016000878785818110610ef557610ef5612fe4565b610f0b9260206040909202019081019150612a6b565b6001600160a01b03166001600160a01b031681526020019081526020016000206000878785818110610f3f57610f3f612fe4565b90506040020160200135815260200190815260200160002054031561104657610f7486868684818110610d5457610d54612fe4565b60008681526005830160205260409020858583818110610f9657610f96612fe4565b835460018101855560009485526020909420604090910292909201926002029091019050610fc48282613095565b505085826004016000878785818110610fdf57610fdf612fe4565b610ff59260206040909202019081019150612a6b565b6001600160a01b03166001600160a01b03168152602001908152602001600020600087878581811061102957611029612fe4565b905060400201602001358152602001908152602001600020819055505b8061105081613010565b915050610dfa565b5060008581526001828101602052604082200154610d7191879160028086019291610100900460ff169081111561109157611091612c5a565b60028111156110a2576110a2612c5a565b8152602001908152602001600020611fd490919063ffffffff16565b6000818015806110dc57506000805160206132568339815191525481115b156110fa5760405163d751397d60e01b815260040160405180910390fd5b505060009081527ff672b8dc84d117c1e14949d8bc3977392b5ab7de9d01b854d389cdc31bf0d43b602052604090205490565b60008080527ff672b8dc84d117c1e14949d8bc3977392b5ab7de9d01b854d389cdc31bf0d4386020526000805160206132568339815191527f845ff02802177e9909faef63e536d995d5be20fadd26c667f4235942a02dfdd98261119082611dc7565b9050606060005b828110156113075760006111ab8583611dd1565b604080518082019091526000808252602082015290915060005b8981101561123457826111ee8c8c848181106111e3576111e3612fe4565b905060400201610bfb565b03611222578a8a8281811061120557611205612fe4565b90506040020180360381019061121b91906130cf565b9150611234565b8061122c81613010565b9150506111c5565b5080516001600160a01b03166112c65760008b815260038801602090815260408083208584529091529020546001600160a01b0316156112ad575060008a81526003870160209081526040808320848452825291829020825180840190935280546001600160a01b0316835260010154908201526112c6565b60405163a9614f1560e01b815260040160405180910390fd5b80516020808301516040516112e19388938793919201613126565b6040516020818303038152906040529350505080806112ff90613010565b915050611197565b508051602082012061131d906006860190611fe0565b1598975050505050505050565b60408051808201909152600080825260208201528280158061135a57506000805160206132568339815191525481115b156113785760405163d751397d60e01b815260040160405180910390fd5b60008481527ff672b8dc84d117c1e14949d8bc3977392b5ab7de9d01b854d389cdc31bf0d43b602052604090208054849081106113b7576113b7612fe4565b60009182526020918290206040805180820190915260029092020180546001600160a01b03168252600101549181019190915291505b5092915050565b60008180158061141257506000805160206132568339815191525481115b156114305760405163d751397d60e01b815260040160405180910390fd5b60008381527ff672b8dc84d117c1e14949d8bc3977392b5ab7de9d01b854d389cdc31bf0d4376020526040812060010154610100900460ff16600281111561147a5761147a612c5a565b14611498576040516332fa2abb60e01b815260040160405180910390fd5b50506001600160a01b039190911660009081527ff672b8dc84d117c1e14949d8bc3977392b5ab7de9d01b854d389cdc31bf0d43f60209081526040808320938352929052205490565b6040516331a9108f60e11b815260048101859052849030908190636352211e90602401602060405180830381865afa158015611521573d6000803e3d6000fd5b505050506040513d601f19601f820116820180604052508101906115459190613177565b6001600160a01b0316336001600160a01b0316146115765760405163aee05b5d60e01b815260040160405180910390fd5b60008490036115985760405163627652c960e11b815260040160405180910390fd5b600080516020613256833981519152600080866001600160401b038111156115c2576115c2612d71565b6040519080825280602002602001820160405280156115eb578160200160208202803683370190505b50905060005b8781101561169157600061161d8b8b8b8581811061161157611611612fe4565b9050604002018a611ff8565b9050600080828152600187810160205260409091200154610100900460ff16600281111561164d5761164d612c5a565b03611660578361165c81613010565b9450505b8083838151811061167357611673612fe4565b6020908102919091010152508061168981613010565b9150506115f1565b5061169b8961237a565b6116b85760405163a9614f1560e01b815260040160405180910390fd5b8115611882576116c789612447565b6116e35760405162ecf30560e51b815260040160405180910390fd5b85611882576000826001600160401b0381111561170257611702612d71565b60405190808252806020026020018201604052801561172b578160200160208202803683370190505b5090506000805b8981101561183d5760008660040160008d8d8581811061175457611754612fe4565b61176a9260206040909202019081019150612a6b565b6001600160a01b03166001600160a01b0316815260200190815260200160002060008d8d8581811061179e5761179e612fe4565b905060400201602001358152602001908152602001600020549050600060028111156117cc576117cc612c5a565b6000828152600189810160205260409091200154610100900460ff1660028111156117f9576117f9612c5a565b0361182a578084848151811061181157611811612fe4565b60209081029190910101528261182681613010565b9350505b508061183581613010565b915050611732565b50336001600160a01b03167f89bd170ed02db0339b3c90b91de53c2a07b48ad36cd559f2d04dd3c72521dacd836040516118779190613194565b60405180910390a250505b88336001600160a01b03167f557dc03f902756383ba5a748ab63ec6ec44b2880dba84ad33dc6ffe670f18861836040516118bc9190613194565b60405180910390a3505050505050505050565b60006000805160206132568339815191526109c2565b600080516020613256833981519152805460609190806001600160401b0381111561191257611912612d71565b60405190808252806020026020018201604052801561194b57816020015b6119386128fe565b8152602001906001900390816119305790505b50925060005b818110156119e4576000611966826001613029565b60008781526003860160209081526040808320848452825291829020825160608101845284815281546001600160a01b031692810192909252600181015492820192909252875192935090918790859081106119c4576119c4612fe4565b6020026020010181905250505080806119dc90613010565b915050611951565b505050919050565b600080516020613256833981519152805460609190806001600160401b03811115611a1957611a19612d71565b604051908082528060200260200182016040528015611a6b57816020015b611a5860408051606081018252600080825260208201819052909182015290565b815260200190600190039081611a375790505b50925060005b81811015611b20576000611a86826001613029565b6000818152600180870160209081526040928390208351606081018552815481529281015460ff808216151593850193909352949550919391928401916101009004166002811115611ada57611ada612c5a565b6002811115611aeb57611aeb612c5a565b81525050858381518110611b0157611b01612fe4565b6020026020010181905250508080611b1890613010565b915050611a71565b50505090565b60008051602061325683398151915280546001908290600090611b4a908490613029565b9091555050805460008181526001808401602052604090912001805460ff198116881515908117835587929161ffff191661ff001990911617610100836002811115611b9857611b98612c5a565b0217905550600081815260018301602052604090208190558215611bc157611bc1818585610dae565b336001600160a01b03167fc1ea46ff33b3d61e148e5bff5dfe54ccae9db30b899a3e7645618fb1e3d9dc11828888604051611bfe939291906131cc565b60405180910390a2505050505050565b6040516331a9108f60e11b815260048101849052839030908190636352211e90602401602060405180830381865afa158015611c4e573d6000803e3d6000fd5b505050506040513d601f19601f82011682018060405250810190611c729190613177565b6001600160a01b0316336001600160a01b031614611ca35760405163aee05b5d60e01b815260040160405180910390fd5b6000839003611cc557604051635740c67760e11b815260040160405180910390fd5b60005b83811015611d0457611cf286868684818110611ce657611ce6612fe4565b90506020020135612597565b80611cfc81613010565b915050611cc8565b50611d0e85612447565b5084336001600160a01b03167f3822f2cd6d118934e31e6171da74d9d46131fb402be1861b3cb4460440aeab638686604051611d4b9291906131e8565b60405180910390a35050505050565b611d626128fe565b5060009182527ff672b8dc84d117c1e14949d8bc3977392b5ab7de9d01b854d389cdc31bf0d43960209081526040808420838552825292839020835160608101855292835280546001600160a01b031691830191909152600101549181019190915290565b60006103eb825490565b600061053583836126c9565b6001600160a01b03811660009081526001830160205260408120541515610535565b60008281527ff672b8dc84d117c1e14949d8bc3977392b5ab7de9d01b854d389cdc31bf0d43b6020526040812054600080516020613256833981519152915b81811015611f815783602001358360050160008781526020019081526020016000208281548110611e7157611e71612fe4565b90600052602060002090600202016001015403611f6f5760008581526005840160205260409020611ea36001846131fc565b81548110611eb357611eb3612fe4565b90600052602060002090600202018360050160008781526020019081526020016000208281548110611ee757611ee7612fe4565b60009182526020808320845460029093020180546001600160a01b0319166001600160a01b0390931692909217825560019384015493909101929092558681526005850190915260409020805480611f4157611f4161320f565b60008281526020812060026000199093019283020180546001600160a01b0319168155600101559055611f81565b80611f7981613010565b915050611e3e565b50600482016000611f956020860186612a6b565b6001600160a01b03166001600160a01b031681526020019081526020016000206000846020013581526020019081526020016000206000905550505050565b60006105358383612715565b60008181526001830160205260408120541515610535565b60006000805160206132568339815191527ff672b8dc84d117c1e14949d8bc3977392b5ab7de9d01b854d389cdc31bf0d43a826120386020870187612a6b565b6001600160a01b0316815260208082019290925260409081016000908120878401358252909252902054915081158061207f57506000805160206132568339815191525482115b1561209d576040516363efa0e360e01b815260040160405180910390fd5b821580156120d4575060008281526001828101602052604082200154610100900460ff1660028111156120d2576120d2612c5a565b145b15612145573360009081526009820160209081526040808320858452909152902054600111156121175760405163bbd28dfd60e01b815260040160405180910390fd5b3360009081526009820160209081526040808320858452909152812080549161213f83613225565b91905055505b60008581526003820160209081526040808320858452825280832060018086019093529220015460ff168015612184575080546001600160a01b031615155b156121a25760405163bd8a5e1560e01b815260040160405180910390fd5b6121af6020860186612a6b565b81546001600160a01b0390811691161480156121d2575084602001358160010154145b156121f05760405163c80df0cb60e01b815260040160405180910390fd5b600086815260038301602090815260408083208684529091529020546001600160a01b031615612224576122248684612758565b60006122336020870187612a6b565b604051627eeac760e11b8152336004820152602088013560248201529091506001906001600160a01b0383169062fdd58e90604401602060405180830381865afa158015612285573d6000803e3d6000fd5b505050506040513d601f19601f820116820180604052508101906122a9919061323c565b10156122c8576040516335ba250d60e11b815260040160405180910390fd5b604051637921219560e11b8152336004820152306024820152602087013560448201526001606482015260a06084820152600060a48201526001600160a01b0382169063f242432a9060c401600060405180830381600087803b15801561232e57600080fd5b505af1158015612342573d6000803e3d6000fd5b50505060008881526003850160209081526040808320888452909152902087915061236d8282613095565b9050505050509392505050565b60008080527ff672b8dc84d117c1e14949d8bc3977392b5ab7de9d01b854d389cdc31bf0d4386020526000805160206132568339815191527f845ff02802177e9909faef63e536d995d5be20fadd26c667f4235942a02dfdd9825b6123de82611dc7565b81101561243c5760008581526003840160205260408120816124008585611dd1565b81526020810191909152604001600020546001600160a01b03160361242a57506000949350505050565b8061243481613010565b9150506123d5565b506001949350505050565b60008080527ff672b8dc84d117c1e14949d8bc3977392b5ab7de9d01b854d389cdc31bf0d4386020526000805160206132568339815191527f845ff02802177e9909faef63e536d995d5be20fadd26c667f4235942a02dfdd96060836124ac83611dc7565b905060005b8181101561252d5760006124c58583611dd1565b60008981526003880160209081526040808320848452825291829020805460018201549351949550909361250793899387936001600160a01b03169201613126565b60405160208183030381529060405294505050808061252590613010565b9150506124b1565b50815160208301206125426006860182611fe0565b158061254c575081155b600088815260088701602052604090205490965061256e90600687019061283d565b5061257c6006860182611fd4565b50600096875260089094016020525050604090932055919050565b808015806125b357506000805160206132568339815191525481115b156125d15760405163d751397d60e01b815260040160405180910390fd5b60008281527ff672b8dc84d117c1e14949d8bc3977392b5ab7de9d01b854d389cdc31bf0d43760205260409020600101546000805160206132568339815191529060ff16156126335760405163bd8a5e1560e01b815260040160405180910390fd5b600084815260038201602090815260408083208684529091529020546001600160a01b031661267557604051632755285560e01b815260040160405180910390fd5b60008381526001828101602052604082200154610100900460ff1660028111156126a1576126a1612c5a565b036126bf5760405163abfc1e6160e01b815260040160405180910390fd5b6106a28484612758565b815460009082106126ed5760405163e637bf3b60e01b815260040160405180910390fd5b82600001828154811061270257612702612fe4565b9060005260206000200154905092915050565b60008181526001830160205260408120546103eb575081546001808201845560008481526020808220909301849055845493815293810190915260409092205590565b60006000805160206132568339815191526000848152600382016020908152604080832086845290915280822080546001808301549351637921219560e11b81523060048201523360248201526044810194909452606484015260a0608484015260a48301939093529293506001600160a01b0390911690819063f242432a9060c401600060405180830381600087803b1580156127f557600080fd5b505af1158015612809573d6000803e3d6000fd5b505050600095865250505060030160209081526040808420928452919052812080546001600160a01b031916815560010155565b60006105358383600081815260018301602052604081205480156113ed5783546000908590600019810190811061287657612876612fe4565b906000526020600020015490508085600001600184038154811061289c5761289c612fe4565b60009182526020808320909101929092559182526001860190526040902081905583548490806128ce576128ce61320f565b60008281526020808220830160001990810183905590920190925593815260019485019093525050604081205590565b60405180606001604052806000815260200160006001600160a01b03168152602001600081525090565b60006020828403121561293a57600080fd5b81356001600160e01b03198116811461053557600080fd5b60008083601f84011261296457600080fd5b5081356001600160401b0381111561297b57600080fd5b6020830191508360208260051b850101111561299657600080fd5b9250929050565b6000806000604084860312156129b257600080fd5b8335925060208401356001600160401b038111156129cf57600080fd5b6129db86828701612952565b9497909650939450505050565b6020808252825182820181905260009190848201906040850190845b81811015612a4757612a34838551805182526020808201516001600160a01b031690830152604090810151910152565b9284019260609290920191600101612a04565b50909695505050505050565b6001600160a01b0381168114612a6857600080fd5b50565b600060208284031215612a7d57600080fd5b813561053581612a53565b602080825282518282018190526000919060409081850190868401855b82811015612aca57815180518552860151868501529284019290850190600101612aa5565b5091979650505050505050565b600080600080600060608688031215612aef57600080fd5b8535612afa81612a53565b945060208601356001600160401b0380821115612b1657600080fd5b612b2289838a01612952565b90965094506040880135915080821115612b3b57600080fd5b50612b4888828901612952565b969995985093965092949392505050565b600060408284031215612b6b57600080fd5b50919050565b60008083601f840112612b8357600080fd5b5081356001600160401b03811115612b9a57600080fd5b6020830191508360208260061b850101111561299657600080fd5b600080600060408486031215612bca57600080fd5b8335925060208401356001600160401b03811115612be757600080fd5b6129db86828701612b71565b600060208284031215612c0557600080fd5b5035919050565b60008060408385031215612c1f57600080fd5b50508035926020909101359150565b60008060408385031215612c4157600080fd5b8235612c4c81612a53565b946020939093013593505050565b634e487b7160e01b600052602160045260246000fd5b60038110612c8e57634e487b7160e01b600052602160045260246000fd5b9052565b8051825260208101511515602083015260408101516104c76040840182612c70565b6020808252825182820181905260009190848201906040850190845b81811015612a4757612ce3838551612c92565b9284019260609290920191600101612cd0565b606081016103eb8284612c92565b60008060008060608587031215612d1a57600080fd5b84358015158114612d2a57600080fd5b9350602085013560038110612d3e57600080fd5b925060408501356001600160401b03811115612d5957600080fd5b612d6587828801612b71565b95989497509550505050565b634e487b7160e01b600052604160045260246000fd5b604051601f8201601f191681016001600160401b0381118282101715612daf57612daf612d71565b604052919050565b600082601f830112612dc857600080fd5b813560206001600160401b03821115612de357612de3612d71565b8160051b612df2828201612d87565b9283528481018201928281019087851115612e0c57600080fd5b83870192505b84831015612e2b57823582529183019190830190612e12565b979650505050505050565b600082601f830112612e4757600080fd5b81356001600160401b03811115612e6057612e60612d71565b612e73601f8201601f1916602001612d87565b818152846020838601011115612e8857600080fd5b816020850160208301376000918101602001919091529392505050565b600080600080600060a08688031215612ebd57600080fd5b8535612ec881612a53565b94506020860135612ed881612a53565b935060408601356001600160401b0380821115612ef457600080fd5b612f0089838a01612db7565b94506060880135915080821115612f1657600080fd5b612f2289838a01612db7565b93506080880135915080821115612f3857600080fd5b50612f4588828901612e36565b9150509295509295909350565b815181526020808301516001600160a01b03169082015260408083015190820152606081016103eb565b600080600080600060a08688031215612f9457600080fd5b8535612f9f81612a53565b94506020860135612faf81612a53565b9350604086013592506060860135915060808601356001600160401b03811115612fd857600080fd5b612f4588828901612e36565b634e487b7160e01b600052603260045260246000fd5b634e487b7160e01b600052601160045260246000fd5b60006001820161302257613022612ffa565b5060010190565b808201808211156103eb576103eb612ffa565b81835260006001600160fb1b0383111561305557600080fd5b8260051b80836020870137939093016020019392505050565b60408152600061308260408301868861303c565b8281036020840152612e2b81858761303c565b81356130a081612a53565b6001600160a01b0381166bffffffffffffffffffffffff60a01b83541617825550602082013560018201555050565b6000604082840312156130e157600080fd5b604051604081018181106001600160401b038211171561310357613103612d71565b604052823561311181612a53565b81526020928301359281019290925250919050565b6000855160005b81811015613147576020818901810151858301520161312d565b50919091019384525060609190911b6bffffffffffffffffffffffff191660208301526034820152605401919050565b60006020828403121561318957600080fd5b815161053581612a53565b6020808252825182820181905260009190848201906040850190845b81811015612a47578351835292840192918401916001016131b0565b8381528215156020820152606081016103fe6040830184612c70565b6020815260006103fe60208301848661303c565b818103818111156103eb576103eb612ffa565b634e487b7160e01b600052603160045260246000fd5b60008161323457613234612ffa565b506000190190565b60006020828403121561324e57600080fd5b505191905056fef672b8dc84d117c1e14949d8bc3977392b5ab7de9d01b854d389cdc31bf0d436a2646970667358221220b45a3ca95ba09b2293ebc2821a9d5a33acdb494d78730d1a1f13a109b9101e8364736f6c63430008130033",
  "devdoc": {
    "details": "This contract is responsible for managing the inventory system for the Arcadians using slots.  It defines the functionality to equip and unequip items to Arcadians, check if a combination of items  are unique, and retrieve the inventory slots and allowed items for a slot.  This contract also implements ERC1155Holder to handle ERC1155 token transfers This contract can be used as a facet of a diamond which follows the EIP-2535 diamond standard. It also uses the ReentrancyGuard and Multicall contracts for security and gas efficiency.",
    "kind": "dev",
    "methods": {
      "addBaseModifierCoupons(address,uint256[],uint256[])": {
        "params": {
          "account": "The account to increase the number of coupons",
          "amounts": "the amounts of coupons to increase",
          "slotsIds": "The slots ids to increase the number of coupons"
        }
      },
      "allowItemsInSlot(uint256,(address,uint256)[])": {
        "params": {
          "items": "The list of items to allow in the slot",
          "slotId": "The slot id"
        }
      },
      "allowedItem(uint256,uint256)": {
        "params": {
          "index": "The index of the item",
          "slotId": "The slot id to query"
        },
        "returns": {
          "_0": "A list of all the items that are allowed in the slot"
        }
      },
      "allowedSlot((address,uint256))": {
        "params": {
          "item": "The item to check"
        },
        "returns": {
          "_0": "The allowed slot id for the item. Slots are 1-indexed."
        }
      },
      "createSlot(bool,uint8,(address,uint256)[])": {
        "details": "This function is only accessible to the manager roleSlots are 1-indexed",
        "params": {
          "category": "The category of the slot",
          "items": "The list of items to allow in the slot",
          "permanent": "Whether or not the slot can be unequipped once equipped"
        }
      },
      "disallowItemsInSlot(uint256,(address,uint256)[])": {
        "params": {
          "items": "The list of items to disallow in the slot",
          "slotId": "The ID of the inventory slot"
        }
      },
      "equip(uint256,(address,uint256)[])": {
        "params": {
          "arcadianId": "The ID of the Arcadian NFT to equip the items for",
          "items": "An array of items to equip in the corresponding slots"
        }
      },
      "equipped(uint256,uint256)": {
        "params": {
          "arcadianId": "The ID of the Arcadian NFT to query",
          "slotId": "The slot id to query"
        }
      },
      "equippedAll(uint256)": {
        "params": {
          "arcadianId": "The ID of the Arcadian NFT to query"
        }
      },
      "equippedBatch(uint256,uint256[])": {
        "params": {
          "arcadianId": "The ID of the Arcadian NFT to query",
          "slotIds": "The slots ids to query"
        }
      },
      "getBaseModifierCoupon(address,uint256)": {
        "params": {
          "account": "The accounts to increase the number of coupons",
          "slotId": "The slot to get the coupon amount from"
        }
      },
      "getBaseModifierCouponAll(address)": {
        "params": {
          "account": "The accounts to increase the number of coupons"
        }
      },
      "isArcadianUnique(uint256,(address,uint256)[])": {
        "details": "The uniqueness is calculated using the existent arcadian items and the input items as wellOnly items equipped in 'base' category slots are considered for uniqueness",
        "params": {
          "arcadianId": "The ID of the Arcadian NFT to query",
          "items": "An array of items to check for uniqueness after \"equipped\" over the existent arcadian items."
        }
      },
      "numAllowedItems(uint256)": {
        "params": {
          "slotId": "The slot id to check"
        },
        "returns": {
          "_0": "A list of all the items that are allowed in the slot"
        }
      },
      "numSlots()": {
        "details": "Slots are 1-indexed",
        "returns": {
          "_0": "The number of inventory slots "
        }
      },
      "slot(uint256)": {
        "details": "Slots are 1-indexed",
        "params": {
          "slotId": "The ID of the inventory slot"
        },
        "returns": {
          "existentSlot": "The details of the inventory slot"
        }
      },
      "slotsAll()": {
        "details": "Slots are 1-indexed",
        "returns": {
          "existentSlots": "The details of all the inventory slots"
        }
      },
      "supportsInterface(bytes4)": {
        "details": "See {IERC165-supportsInterface}."
      },
      "unequip(uint256,uint256[])": {
        "params": {
          "arcadianId": "The ID of the Arcadian NFT to equip the item for",
          "slotIds": "The slots ids in which the items will be unequipped"
        }
      }
    },
    "title": "InventoryFacet",
    "version": 1
  },
  "userdoc": {
    "kind": "user",
    "methods": {
      "addBaseModifierCoupons(address,uint256[],uint256[])": {
        "notice": "Adds coupons to accounts that allow to modify the base traits"
      },
      "allowItemsInSlot(uint256,(address,uint256)[])": {
        "notice": "Adds items to the list of allowed items for an inventory slot"
      },
      "allowedItem(uint256,uint256)": {
        "notice": "Returns the allowed item for a given slot and the index"
      },
      "allowedSlot((address,uint256))": {
        "notice": "Returns the allowed slot for a given item"
      },
      "createSlot(bool,uint8,(address,uint256)[])": {
        "notice": "Creates a new inventory slot"
      },
      "disallowItemsInSlot(uint256,(address,uint256)[])": {
        "notice": "Removes items from the list of allowed items"
      },
      "equip(uint256,(address,uint256)[])": {
        "notice": "Equips multiple items to multiple slots for a specified Arcadian NFT"
      },
      "equipped(uint256,uint256)": {
        "notice": "Retrieves the equipped item in a slot for a specified Arcadian NFT"
      },
      "equippedAll(uint256)": {
        "notice": "Retrieves all the equipped items for a specified Arcadian NFT"
      },
      "equippedBatch(uint256,uint256[])": {
        "notice": "Retrieves the equipped items in the slot of an Arcadian NFT"
      },
      "getBaseModifierCoupon(address,uint256)": {
        "notice": "Returns the number coupons available for an account that allow to modify the base traits"
      },
      "getBaseModifierCouponAll(address)": {
        "notice": "Returns the number coupons available for an account that allow to modify the base traits"
      },
      "isArcadianUnique(uint256,(address,uint256)[])": {
        "notice": "Indicates if a list of items applied to an the arcadian is unique"
      },
      "numAllowedItems(uint256)": {
        "notice": "Returns the number of allowed items for a given slot"
      },
      "numSlots()": {
        "notice": "Returns the number of inventory slots"
      },
      "slot(uint256)": {
        "notice": "Returns the details of an inventory slot given its ID"
      },
      "slotsAll()": {
        "notice": "Returns the details of all the existent slots"
      },
      "unequip(uint256,uint256[])": {
        "notice": "Unequips the items equipped in multiple slots for a specified Arcadian NFT"
      }
    },
    "version": 1
  },
  "storageLayout": {
    "storage": [],
    "types": null
  }
}