{
  "address": "0xDf85FF9E9B70Af2bbA239709E127ab78E7f20486",
  "abi": [
    {
      "inputs": [],
      "name": "Inventory_ArcadianNotUnique",
      "type": "error"
    },
    {
      "inputs": [],
      "name": "Inventory_CouponNeededToModifyBaseSlots",
      "type": "error"
    },
    {
      "inputs": [],
      "name": "Inventory_InputDataMismatch",
      "type": "error"
    },
    {
      "inputs": [],
      "name": "Inventory_InsufficientItemBalance",
      "type": "error"
    },
    {
      "inputs": [],
      "name": "Inventory_InvalidERC1155Contract",
      "type": "error"
    },
    {
      "inputs": [],
      "name": "Inventory_InvalidSlotId",
      "type": "error"
    },
    {
      "inputs": [],
      "name": "Inventory_ItemAlreadyEquippedInSlot",
      "type": "error"
    },
    {
      "inputs": [],
      "name": "Inventory_ItemDoesNotHaveSlotAssigned",
      "type": "error"
    },
    {
      "inputs": [],
      "name": "Inventory_ItemNotSpecified",
      "type": "error"
    },
    {
      "inputs": [],
      "name": "Inventory_NonBaseSlot",
      "type": "error"
    },
    {
      "inputs": [],
      "name": "Inventory_NotAllBaseSlotsEquipped",
      "type": "error"
    },
    {
      "inputs": [],
      "name": "Inventory_NotArcadianOwner",
      "type": "error"
    },
    {
      "inputs": [],
      "name": "Inventory_SlotNotSpecified",
      "type": "error"
    },
    {
      "inputs": [],
      "name": "Inventory_UnequippingBaseSlot",
      "type": "error"
    },
    {
      "inputs": [],
      "name": "Inventory_UnequippingEmptySlot",
      "type": "error"
    },
    {
      "inputs": [],
      "name": "Inventory_UnequippingPermanentSlot",
      "type": "error"
    },
    {
      "inputs": [],
      "name": "ReentrancyGuard__ReentrantCall",
      "type": "error"
    },
    {
      "inputs": [],
      "name": "Roles_MissingAdminRole",
      "type": "error"
    },
    {
      "inputs": [],
      "name": "Roles_MissingAutomationRole",
      "type": "error"
    },
    {
      "inputs": [],
      "name": "Roles_MissingManagerRole",
      "type": "error"
    },
    {
      "anonymous": false,
      "inputs": [
        {
          "indexed": true,
          "internalType": "address",
          "name": "by",
          "type": "address"
        },
        {
          "indexed": true,
          "internalType": "address",
          "name": "to",
          "type": "address"
        },
        {
          "indexed": false,
          "internalType": "uint8[]",
          "name": "slotsIds",
          "type": "uint8[]"
        },
        {
          "indexed": false,
          "internalType": "uint256[]",
          "name": "amounts",
          "type": "uint256[]"
        }
      ],
      "name": "BaseModifierCouponAdded",
      "type": "event"
    },
    {
      "anonymous": false,
      "inputs": [
        {
          "indexed": true,
          "internalType": "address",
          "name": "account",
          "type": "address"
        },
        {
          "indexed": false,
          "internalType": "uint8[]",
          "name": "slotsIds",
          "type": "uint8[]"
        }
      ],
      "name": "BaseModifierCouponConsumed",
      "type": "event"
    },
    {
      "anonymous": false,
      "inputs": [
        {
          "indexed": true,
          "internalType": "address",
          "name": "by",
          "type": "address"
        },
        {
          "components": [
            {
              "internalType": "address",
              "name": "erc1155Contract",
              "type": "address"
            },
            {
              "internalType": "uint256",
              "name": "id",
              "type": "uint256"
            }
          ],
          "indexed": false,
          "internalType": "struct InventoryStorage.Item[]",
          "name": "items",
          "type": "tuple[]"
        }
      ],
      "name": "ItemsAllowedInSlotUpdated",
      "type": "event"
    },
    {
      "anonymous": false,
      "inputs": [
        {
          "indexed": true,
          "internalType": "address",
          "name": "by",
          "type": "address"
        },
        {
          "indexed": true,
          "internalType": "uint256",
          "name": "arcadianId",
          "type": "uint256"
        },
        {
          "indexed": false,
          "internalType": "uint256[]",
          "name": "slots",
          "type": "uint256[]"
        }
      ],
      "name": "ItemsEquipped",
      "type": "event"
    },
    {
      "anonymous": false,
      "inputs": [
        {
          "indexed": true,
          "internalType": "address",
          "name": "by",
          "type": "address"
        },
        {
          "indexed": true,
          "internalType": "uint256",
          "name": "arcadianId",
          "type": "uint256"
        },
        {
          "indexed": false,
          "internalType": "uint8[]",
          "name": "slotsIds",
          "type": "uint8[]"
        }
      ],
      "name": "ItemsUnequipped",
      "type": "event"
    },
    {
      "anonymous": false,
      "inputs": [
        {
          "indexed": true,
          "internalType": "bytes32",
          "name": "role",
          "type": "bytes32"
        },
        {
          "indexed": true,
          "internalType": "bytes32",
          "name": "previousAdminRole",
          "type": "bytes32"
        },
        {
          "indexed": true,
          "internalType": "bytes32",
          "name": "newAdminRole",
          "type": "bytes32"
        }
      ],
      "name": "RoleAdminChanged",
      "type": "event"
    },
    {
      "anonymous": false,
      "inputs": [
        {
          "indexed": true,
          "internalType": "bytes32",
          "name": "role",
          "type": "bytes32"
        },
        {
          "indexed": true,
          "internalType": "address",
          "name": "account",
          "type": "address"
        },
        {
          "indexed": true,
          "internalType": "address",
          "name": "sender",
          "type": "address"
        }
      ],
      "name": "RoleGranted",
      "type": "event"
    },
    {
      "anonymous": false,
      "inputs": [
        {
          "indexed": true,
          "internalType": "bytes32",
          "name": "role",
          "type": "bytes32"
        },
        {
          "indexed": true,
          "internalType": "address",
          "name": "account",
          "type": "address"
        },
        {
          "indexed": true,
          "internalType": "address",
          "name": "sender",
          "type": "address"
        }
      ],
      "name": "RoleRevoked",
      "type": "event"
    },
    {
      "anonymous": false,
      "inputs": [
        {
          "indexed": true,
          "internalType": "address",
          "name": "by",
          "type": "address"
        },
        {
          "indexed": true,
          "internalType": "uint8",
          "name": "slotId",
          "type": "uint8"
        },
        {
          "indexed": false,
          "internalType": "bool",
          "name": "permanent",
          "type": "bool"
        },
        {
          "indexed": false,
          "internalType": "bool",
          "name": "isBase",
          "type": "bool"
        }
      ],
      "name": "SlotCreated",
      "type": "event"
    },
    {
      "inputs": [
        {
          "internalType": "address",
          "name": "account",
          "type": "address"
        },
        {
          "internalType": "uint8[]",
          "name": "slotsIds",
          "type": "uint8[]"
        },
        {
          "internalType": "uint256[]",
          "name": "amounts",
          "type": "uint256[]"
        }
      ],
      "name": "addBaseModifierCoupons",
      "outputs": [],
      "stateMutability": "nonpayable",
      "type": "function"
    },
    {
      "inputs": [
        {
          "internalType": "uint8",
          "name": "slotId",
          "type": "uint8"
        },
        {
          "components": [
            {
              "internalType": "address",
              "name": "erc1155Contract",
              "type": "address"
            },
            {
              "internalType": "uint256",
              "name": "id",
              "type": "uint256"
            }
          ],
          "internalType": "struct InventoryStorage.Item[]",
          "name": "items",
          "type": "tuple[]"
        }
      ],
      "name": "allowItemsInSlot",
      "outputs": [],
      "stateMutability": "nonpayable",
      "type": "function"
    },
    {
      "inputs": [
        {
          "components": [
            {
              "internalType": "address",
              "name": "erc1155Contract",
              "type": "address"
            },
            {
              "internalType": "uint256",
              "name": "id",
              "type": "uint256"
            }
          ],
          "internalType": "struct InventoryStorage.Item",
          "name": "item",
          "type": "tuple"
        }
      ],
      "name": "allowedSlot",
      "outputs": [
        {
          "internalType": "uint256",
          "name": "",
          "type": "uint256"
        }
      ],
      "stateMutability": "view",
      "type": "function"
    },
    {
      "inputs": [
        {
          "internalType": "uint256",
          "name": "arcadianId",
          "type": "uint256"
        }
      ],
      "name": "arcadianToBaseItemHash",
      "outputs": [
        {
          "internalType": "bytes32",
          "name": "",
          "type": "bytes32"
        }
      ],
      "stateMutability": "view",
      "type": "function"
    },
    {
      "inputs": [
        {
          "internalType": "bool",
          "name": "permanent",
          "type": "bool"
        },
        {
          "internalType": "bool",
          "name": "isBase",
          "type": "bool"
        },
        {
          "components": [
            {
              "internalType": "address",
              "name": "erc1155Contract",
              "type": "address"
            },
            {
              "internalType": "uint256",
              "name": "id",
              "type": "uint256"
            }
          ],
          "internalType": "struct InventoryStorage.Item[]",
          "name": "items",
          "type": "tuple[]"
        }
      ],
      "name": "createSlot",
      "outputs": [],
      "stateMutability": "nonpayable",
      "type": "function"
    },
    {
      "inputs": [
        {
          "components": [
            {
              "internalType": "address",
              "name": "erc1155Contract",
              "type": "address"
            },
            {
              "internalType": "uint256",
              "name": "id",
              "type": "uint256"
            }
          ],
          "internalType": "struct InventoryStorage.Item[]",
          "name": "items",
          "type": "tuple[]"
        }
      ],
      "name": "disallowItems",
      "outputs": [],
      "stateMutability": "nonpayable",
      "type": "function"
    },
    {
      "inputs": [
        {
          "internalType": "uint256",
          "name": "arcadianId",
          "type": "uint256"
        },
        {
          "components": [
            {
              "internalType": "address",
              "name": "erc1155Contract",
              "type": "address"
            },
            {
              "internalType": "uint256",
              "name": "id",
              "type": "uint256"
            }
          ],
          "internalType": "struct InventoryStorage.Item[]",
          "name": "items",
          "type": "tuple[]"
        }
      ],
      "name": "equip",
      "outputs": [],
      "stateMutability": "nonpayable",
      "type": "function"
    },
    {
      "inputs": [
        {
          "internalType": "uint256",
          "name": "arcadianId",
          "type": "uint256"
        },
        {
          "internalType": "uint8",
          "name": "slotId",
          "type": "uint8"
        }
      ],
      "name": "equipped",
      "outputs": [
        {
          "components": [
            {
              "internalType": "uint8",
              "name": "slotId",
              "type": "uint8"
            },
            {
              "internalType": "address",
              "name": "erc1155Contract",
              "type": "address"
            },
            {
              "internalType": "uint256",
              "name": "itemId",
              "type": "uint256"
            }
          ],
          "internalType": "struct InventoryInternal.ItemInSlot",
          "name": "item",
          "type": "tuple"
        }
      ],
      "stateMutability": "view",
      "type": "function"
    },
    {
      "inputs": [
        {
          "internalType": "uint256",
          "name": "arcadianId",
          "type": "uint256"
        }
      ],
      "name": "equippedAll",
      "outputs": [
        {
          "components": [
            {
              "internalType": "uint8",
              "name": "slotId",
              "type": "uint8"
            },
            {
              "internalType": "address",
              "name": "erc1155Contract",
              "type": "address"
            },
            {
              "internalType": "uint256",
              "name": "itemId",
              "type": "uint256"
            }
          ],
          "internalType": "struct InventoryInternal.ItemInSlot[]",
          "name": "equippedSlot",
          "type": "tuple[]"
        }
      ],
      "stateMutability": "view",
      "type": "function"
    },
    {
      "inputs": [
        {
          "internalType": "uint256",
          "name": "arcadianId",
          "type": "uint256"
        },
        {
          "internalType": "uint8[]",
          "name": "slotsIds",
          "type": "uint8[]"
        }
      ],
      "name": "equippedBatch",
      "outputs": [
        {
          "components": [
            {
              "internalType": "uint8",
              "name": "slotId",
              "type": "uint8"
            },
            {
              "internalType": "address",
              "name": "erc1155Contract",
              "type": "address"
            },
            {
              "internalType": "uint256",
              "name": "itemId",
              "type": "uint256"
            }
          ],
          "internalType": "struct InventoryInternal.ItemInSlot[]",
          "name": "equippedSlot",
          "type": "tuple[]"
        }
      ],
      "stateMutability": "view",
      "type": "function"
    },
    {
      "inputs": [
        {
          "internalType": "address",
          "name": "account",
          "type": "address"
        },
        {
          "internalType": "uint8",
          "name": "slotId",
          "type": "uint8"
        }
      ],
      "name": "getBaseModifierCoupon",
      "outputs": [
        {
          "internalType": "uint256",
          "name": "",
          "type": "uint256"
        }
      ],
      "stateMutability": "view",
      "type": "function"
    },
    {
      "inputs": [
        {
          "internalType": "address",
          "name": "account",
          "type": "address"
        }
      ],
      "name": "getBaseModifierCouponAll",
      "outputs": [
        {
          "components": [
            {
              "internalType": "uint8",
              "name": "slotId",
              "type": "uint8"
            },
            {
              "internalType": "uint256",
              "name": "amount",
              "type": "uint256"
            }
          ],
          "internalType": "struct InventoryInternal.BaseModifierCoupon[]",
          "name": "",
          "type": "tuple[]"
        }
      ],
      "stateMutability": "view",
      "type": "function"
    },
    {
      "inputs": [],
      "name": "getBaseSlotsIds",
      "outputs": [
        {
          "internalType": "uint8[]",
          "name": "",
          "type": "uint8[]"
        }
      ],
      "stateMutability": "view",
      "type": "function"
    },
    {
      "inputs": [
        {
          "internalType": "uint256",
          "name": "arcadianId",
          "type": "uint256"
        },
        {
          "components": [
            {
              "internalType": "address",
              "name": "erc1155Contract",
              "type": "address"
            },
            {
              "internalType": "uint256",
              "name": "id",
              "type": "uint256"
            }
          ],
          "internalType": "struct InventoryStorage.Item[]",
          "name": "items",
          "type": "tuple[]"
        }
      ],
      "name": "isArcadianUnique",
      "outputs": [
        {
          "internalType": "bool",
          "name": "",
          "type": "bool"
        }
      ],
      "stateMutability": "view",
      "type": "function"
    },
    {
      "inputs": [],
      "name": "numSlots",
      "outputs": [
        {
          "internalType": "uint256",
          "name": "",
          "type": "uint256"
        }
      ],
      "stateMutability": "view",
      "type": "function"
    },
    {
      "inputs": [
        {
          "internalType": "address",
          "name": "",
          "type": "address"
        },
        {
          "internalType": "address",
          "name": "",
          "type": "address"
        },
        {
          "internalType": "uint256[]",
          "name": "",
          "type": "uint256[]"
        },
        {
          "internalType": "uint256[]",
          "name": "",
          "type": "uint256[]"
        },
        {
          "internalType": "bytes",
          "name": "",
          "type": "bytes"
        }
      ],
      "name": "onERC1155BatchReceived",
      "outputs": [
        {
          "internalType": "bytes4",
          "name": "",
          "type": "bytes4"
        }
      ],
      "stateMutability": "nonpayable",
      "type": "function"
    },
    {
      "inputs": [
        {
          "internalType": "address",
          "name": "",
          "type": "address"
        },
        {
          "internalType": "address",
          "name": "",
          "type": "address"
        },
        {
          "internalType": "uint256",
          "name": "",
          "type": "uint256"
        },
        {
          "internalType": "uint256",
          "name": "",
          "type": "uint256"
        },
        {
          "internalType": "bytes",
          "name": "",
          "type": "bytes"
        }
      ],
      "name": "onERC1155Received",
      "outputs": [
        {
          "internalType": "bytes4",
          "name": "",
          "type": "bytes4"
        }
      ],
      "stateMutability": "nonpayable",
      "type": "function"
    },
    {
      "inputs": [],
      "name": "resetBaseSlots",
      "outputs": [],
      "stateMutability": "nonpayable",
      "type": "function"
    },
    {
      "inputs": [
        {
          "components": [
            {
              "internalType": "address",
              "name": "erc1155Contract",
              "type": "address"
            },
            {
              "internalType": "uint256",
              "name": "id",
              "type": "uint256"
            }
          ],
          "internalType": "struct InventoryStorage.Item[]",
          "name": "items",
          "type": "tuple[]"
        },
        {
          "internalType": "bool[]",
          "name": "requiresTransfer",
          "type": "bool[]"
        }
      ],
      "name": "setItemsTransferRequired",
      "outputs": [],
      "stateMutability": "nonpayable",
      "type": "function"
    },
    {
      "inputs": [
        {
          "internalType": "uint8",
          "name": "slotId",
          "type": "uint8"
        },
        {
          "internalType": "bool",
          "name": "isBase",
          "type": "bool"
        }
      ],
      "name": "setSlotBase",
      "outputs": [],
      "stateMutability": "nonpayable",
      "type": "function"
    },
    {
      "inputs": [
        {
          "internalType": "uint8",
          "name": "slotId",
          "type": "uint8"
        },
        {
          "internalType": "bool",
          "name": "permanent",
          "type": "bool"
        }
      ],
      "name": "setSlotPermanent",
      "outputs": [],
      "stateMutability": "nonpayable",
      "type": "function"
    },
    {
      "inputs": [
        {
          "internalType": "uint8",
          "name": "slotId",
          "type": "uint8"
        }
      ],
      "name": "slot",
      "outputs": [
        {
          "components": [
            {
              "internalType": "uint8",
              "name": "id",
              "type": "uint8"
            },
            {
              "internalType": "bool",
              "name": "permanent",
              "type": "bool"
            },
            {
              "internalType": "bool",
              "name": "isBase",
              "type": "bool"
            }
          ],
          "internalType": "struct InventoryStorage.Slot",
          "name": "existentSlot",
          "type": "tuple"
        }
      ],
      "stateMutability": "view",
      "type": "function"
    },
    {
      "inputs": [],
      "name": "slotsAll",
      "outputs": [
        {
          "components": [
            {
              "internalType": "uint8",
              "name": "id",
              "type": "uint8"
            },
            {
              "internalType": "bool",
              "name": "permanent",
              "type": "bool"
            },
            {
              "internalType": "bool",
              "name": "isBase",
              "type": "bool"
            }
          ],
          "internalType": "struct InventoryStorage.Slot[]",
          "name": "existentSlots",
          "type": "tuple[]"
        }
      ],
      "stateMutability": "view",
      "type": "function"
    },
    {
      "inputs": [
        {
          "internalType": "bytes4",
          "name": "interfaceId",
          "type": "bytes4"
        }
      ],
      "name": "supportsInterface",
      "outputs": [
        {
          "internalType": "bool",
          "name": "",
          "type": "bool"
        }
      ],
      "stateMutability": "view",
      "type": "function"
    },
    {
      "inputs": [
        {
          "internalType": "uint256",
          "name": "arcadianId",
          "type": "uint256"
        },
        {
          "internalType": "uint8[]",
          "name": "slotsIds",
          "type": "uint8[]"
        }
      ],
      "name": "unequip",
      "outputs": [],
      "stateMutability": "nonpayable",
      "type": "function"
    }
  ],
  "transactionHash": "0xe634259888adce7329a49aeefceae025740f1b182b85e00d7bda2ecfa8e85fe9",
  "args": [],
  "numDeployments": 12,
  "solcInputHash": "6d8b40d37bf8f01805cf0a5b5a269d9c",
  "bytecode": "0x608060405234801561001057600080fd5b506136bc806100206000396000f3fe608060405234801561001057600080fd5b50600436106101735760003560e01c80638d0e5a9a116100de578063acb5fe3d11610097578063c33d7d1611610071578063c33d7d1614610424578063ddac200814610437578063f23a6e611461044a578063f728debd1461046957600080fd5b8063acb5fe3d146103c4578063b1b2fef4146103d7578063bc197c81146103ec57600080fd5b80638d0e5a9a146102d65780638e980d4d146103705780638ed4110014610383578063947687e7146103965780639621ff25146103a95780639e3ccb2a146103b157600080fd5b806351bb1e051161013057806351bb1e05146102295780635cf715ee1461023c578063603f40ec1461025c5780637a8455a11461029b5780637b2ddc1d146102ae5780638074edd5146102c157600080fd5b806301ffc9a7146101785780630416c01f146101a05780631da7c70a146101b557806320b82e68146101d55780632f8bd3c8146101f55780634605777d14610216575b600080fd5b61018b610186366004612ac5565b610471565b60405190151581526020015b60405180910390f35b6101b36101ae366004612b15565b6104a8565b005b6101c86101c3366004612b60565b6104f2565b6040516101979190612b7d565b6101e86101e3366004612bcf565b6104fd565b6040516101979190612bf2565b610208610203366004612c1f565b610594565b604051908152602001610197565b6101b3610224366004612cc6565b61059f565b6101b3610237366004612d31565b6105e7565b61024f61024a366004612db3565b610667565b6040516101979190612dfe565b61020861026a366004612e6c565b60009081527ff672b8dc84d117c1e14949d8bc3977392b5ab7de9d01b854d389cdc31bf0d43d602052604090205490565b61018b6102a9366004612e85565b61067c565b6101b36102bc366004612db3565b610689565b6102c96106e4565b6040516101979190612ec3565b6103636102e4366004612efe565b604080516060810182526000808252602080830182905282840182905260ff851682527ff672b8dc84d117c1e14949d8bc3977392b5ab7de9d01b854d389cdc31bf0d43790529190912060408051606081018252915460ff80821684526101008204811615156020850152620100009091041615159082015292915050565b6040516101979190612f19565b6101b361037e366004612e85565b6106f3565b6101b3610391366004612b15565b610747565b6101b36103a4366004612f41565b610787565b6102086107c9565b61024f6103bf366004612e6c565b6107e4565b6101b36103d2366004612f95565b6107ef565b6103df610835565b6040516101979190612fce565b61040b6103fa36600461315f565b63bc197c8160e01b95945050505050565b6040516001600160e01b03199091168152602001610197565b61020861043236600461320c565b61083f565b6101b3610445366004613238565b61084b565b61040b610458366004613279565b63f23a6e6160e01b95945050505050565b6101b361088b565b60006001600160e01b03198216630271189760e51b14806104a257506301ffc9a760e01b6001600160e01b03198316145b92915050565b6104c76104c16000805160206136278339815191525490565b33610895565b6104e45760405163d0befa1d60e01b815260040160405180910390fd5b6104ee82826108cc565b5050565b60606104a28261095c565b6040805160608082018352600080835260208084018290528385018290528451808401865282815280820183905285018290528682527ff672b8dc84d117c1e14949d8bc3977392b5ab7de9d01b854d389cdc31bf0d438815284822060ff8716808452908252918590208551938401865291835281546001600160a01b0316908301526001015492810192909252905b9392505050565b60006104a282610ac5565b6105b86104c16000805160206136278339815191525490565b6105d55760405163d0befa1d60e01b815260040160405180910390fd5b6105e184848484610b2a565b50505050565b6106006104c16000805160206136278339815191525490565b15801561063557506106336104c17ff6deb63e40d71b08820818e006e23fcceb1fce7a499bc15b71b2526cbf9efa735490565b155b1561065357604051630b24262960e31b815260040160405180910390fd5b6106608585858585610c37565b5050505050565b6060610674848484610e62565b949350505050565b6000610674848484610fc0565b7f09acf4e54214992e70883cf7dcd6957ff2c71cd9e14df4bec4383bc0d11607dc80546002036106cc57604051635db5c7cd60e11b815260040160405180910390fd5b600281556106db8484846111af565b60019055505050565b60606106ee61145b565b905090565b7f09acf4e54214992e70883cf7dcd6957ff2c71cd9e14df4bec4383bc0d11607dc805460020361073657604051635db5c7cd60e11b815260040160405180910390fd5b600281556106db84848460006114e1565b6107606104c16000805160206136278339815191525490565b61077d5760405163d0befa1d60e01b815260040160405180910390fd5b6104ee82826118b3565b6107a06104c16000805160206136278339815191525490565b6107bd5760405163d0befa1d60e01b815260040160405180910390fd5b6105e184848484611b08565b60006106ee6000805160206136678339815191525460ff1690565b60606104a282611be7565b6108086104c16000805160206136278339815191525490565b6108255760405163d0befa1d60e01b815260040160405180910390fd5b610830838383611d13565b505050565b60606106ee611eb9565b600061058d8383611fdd565b6108646104c16000805160206136278339815191525490565b6108815760405163d0befa1d60e01b815260040160405180910390fd5b6104ee82826120ca565b6108936121c5565b565b60008281527fd3889cc5458b268d0544e5534672df1296288ca3f93cbd39bd6f497a5c6228116020526040812061058d908361223b565b8160ff811615806108f257506000805160206136678339815191525460ff908116908216115b156109105760405163d751397d60e01b815260040160405180910390fd5b5060ff9190911660009081527ff672b8dc84d117c1e14949d8bc3977392b5ab7de9d01b854d389cdc31bf0d4376020526040902080549115156101000261ff0019909216919091179055565b60008051602061364783398151915254606090600080516020613667833981519152906000816001600160401b038111156109995761099961302b565b6040519080825280602002602001820160405280156109de57816020015b60408051808201909152600080825260208201528152602001906001900390816109b75790505b5090506000805b838160ff161015610aba576000856009018260ff1681548110610a0a57610a0a6132e1565b90600052602060002090602091828204019190069054906101000a900460ff16905080848481518110610a3f57610a3f6132e1565b60209081029190910181015160ff92831690526001600160a01b038a166000908152600889018252604080822093851682529290915220548451859085908110610a8b57610a8b6132e1565b602090810291909101810151015282610aa38161330d565b935050508080610ab290613326565b9150506109e5565b509095945050505050565b60007ff672b8dc84d117c1e14949d8bc3977392b5ab7de9d01b854d389cdc31bf0d43981610af66020850185612b60565b6001600160a01b0316815260208082019290925260409081016000908120948301358152939091529091205460ff16919050565b828114610b4a576040516303f7219d60e41b815260040160405180910390fd5b60008051602061366783398151915260005b84811015610c2f57838382818110610b7657610b766132e1565b9050602002016020810190610b8b9190613345565b826004016000888885818110610ba357610ba36132e1565b610bb99260206040909202019081019150612b60565b6001600160a01b03166001600160a01b031681526020019081526020016000206000888885818110610bed57610bed6132e1565b90506040020160200135815260200190815260200160002060006101000a81548160ff0219169083151502179055508080610c279061330d565b915050610b5c565b505050505050565b828114610c57576040516303f7219d60e41b815260040160405180910390fd5b600080516020613667833981519152805460ff1660005b85811015610e0757868682818110610c8857610c886132e1565b9050602002016020810190610c9d9190612efe565b60ff16158015610cd857508160ff16878783818110610cbe57610cbe6132e1565b9050602002016020810190610cd39190612efe565b60ff16115b15610cf65760405163d751397d60e01b815260040160405180910390fd5b826001016000888884818110610d0e57610d0e6132e1565b9050602002016020810190610d239190612efe565b60ff908116825260208201929092526040016000205462010000900416610d5d576040516332fa2abb60e01b815260040160405180910390fd5b848482818110610d6f57610d6f6132e1565b90506020020135610d8b60008051602061366783398151915290565b6001600160a01b038a1660009081526008919091016020526040812090898985818110610dba57610dba6132e1565b9050602002016020810190610dcf9190612efe565b60ff1681526020019081526020016000206000828254610def9190613360565b90915550819050610dff8161330d565b915050610c6e565b50866001600160a01b0316336001600160a01b03167f9d7a20d7eaa55f66adf8df546f4264a6d863831fcf5a590c02a66c132f8c10cc88888888604051610e5194939291906133b4565b60405180910390a350505050505050565b6060600080516020613667833981519152826001600160401b03811115610e8b57610e8b61302b565b604051908082528060200260200182016040528015610ed657816020015b6040805160608101825260008082526020808301829052928201528252600019909201910181610ea95790505b50915060005b83811015610fb7576000868152600283016020526040812081878785818110610f0757610f076132e1565b9050602002016020810190610f1c9190612efe565b60ff1660ff16815260200190815260200160002090506040518060600160405280878785818110610f4f57610f4f6132e1565b9050602002016020810190610f649190612efe565b60ff16815282546001600160a01b0316602082015260018301546040909101528451859084908110610f9857610f986132e1565b6020026020010181905250508080610faf9061330d565b915050610edc565b50509392505050565b6000805160206136478339815191525460009060008051602061366783398151915290606090835b818160ff16101561118d576000846009018260ff168154811061100d5761100d6132e1565b60009182526020808320818304015460408051808201909152848152918201849052601f9092166101000a90910460ff169250905b888110156110b4578260ff1661106e8b8b84818110611063576110636132e1565b905060400201610ac5565b036110a257898982818110611085576110856132e1565b90506040020180360381019061109b9190613400565b91506110b4565b806110ac8161330d565b915050611042565b5080516001600160a01b031661114c5760008a8152600287016020908152604080832060ff861684529091529020546001600160a01b03161561113357506000898152600286016020908152604080832060ff85168452825291829020825180840190935280546001600160a01b03168352600101549082015261114c565b60405163a9614f1560e01b815260040160405180910390fd5b80516020808301516040516111679389938793919201613457565b60405160208183030381529060405294505050808061118590613326565b915050610fe8565b50815160208301206111a390600585019061225d565b15979650505050505050565b6040516331a9108f60e11b815260048101849052839030908190636352211e90602401602060405180830381865afa1580156111ef573d6000803e3d6000fd5b505050506040513d601f19601f8201168201806040525081019061121391906134b8565b6001600160a01b0316336001600160a01b0316146112445760405163aee05b5d60e01b815260040160405180910390fd5b600080516020613667833981519152600084900361127557604051635740c67760e11b815260040160405180910390fd5b60005b8481101561140457816001016000878784818110611298576112986132e1565b90506020020160208101906112ad9190612efe565b60ff9081168252602082019290925260400160002054610100900416156112e75760405163bd8a5e1560e01b815260040160405180910390fd5b600087815260028301602052604081208188888581811061130a5761130a6132e1565b905060200201602081019061131f9190612efe565b60ff1681526020810191909152604001600020546001600160a01b03160361135a57604051632755285560e01b815260040160405180910390fd5b816001016000878784818110611372576113726132e1565b90506020020160208101906113879190612efe565b60ff908116825260208201929092526040016000205462010000900416156113c25760405163abfc1e6160e01b815260040160405180910390fd5b6113f2878787848181106113d8576113d86132e1565b90506020020160208101906113ed9190612efe565b612275565b806113fc8161330d565b915050611278565b5061140e866123d4565b5085336001600160a01b03167fa3319ad5631c1ffca6596869c7a4151599263f1ab87e5bff0b2a61730d9e7f52878760405161144b9291906134d5565b60405180910390a3505050505050565b60606000805160206136678339815191526009018054806020026020016040519081016040528092919081815260200182805480156114d757602002820191906000526020600020906000905b825461010083900a900460ff168152602060019283018181049485019490930390920291018084116114a85790505b5050505050905090565b6040516331a9108f60e11b815260048101859052849030908190636352211e90602401602060405180830381865afa158015611521573d6000803e3d6000fd5b505050506040513d601f19601f8201168201806040525081019061154591906134b8565b6001600160a01b0316336001600160a01b0316146115765760405163aee05b5d60e01b815260040160405180910390fd5b60008490036115985760405163627652c960e11b815260040160405180910390fd5b600080516020613667833981519152600080866001600160401b038111156115c2576115c261302b565b6040519080825280602002602001820160405280156115eb578160200160208202803683370190505b50905060005b8781101561168557600061161d8b8b8b85818110611611576116116132e1565b9050604002018a612506565b60ff8082166000908152600188016020526040902054919250620100009091041615611651578361164d81613326565b9450505b8060ff16838381518110611667576116676132e1565b6020908102919091010152508061167d8161330d565b9150506115f1565b5061168f896128e0565b6116ac5760405163a9614f1560e01b815260040160405180910390fd5b60ff821615611866576116be896123d4565b6116da5760405162ecf30560e51b815260040160405180910390fd5b856118665760008260ff166001600160401b038111156116fc576116fc61302b565b604051908082528060200260200182016040528015611725578160200160208202803683370190505b5090506000805b898110156118215760008660030160008d8d8581811061174e5761174e6132e1565b6117649260206040909202019081019150612b60565b6001600160a01b03166001600160a01b0316815260200190815260200160002060008d8d85818110611798576117986132e1565b60206040918202939093018301358452838301949094525090820160009081205460ff90811680835260018c0190935292902054909250620100009004161561180e57808484815181106117ee576117ee6132e1565b60ff909216602092830291909101909101528261180a8161330d565b9350505b50806118198161330d565b91505061172c565b50336001600160a01b03167f3c96ad92d6bcb0f8d3f202fdb53ef0f86777fb692ed0c497b230cf7f92a0e5598360405161185b9190612ec3565b60405180910390a250505b88336001600160a01b03167f557dc03f902756383ba5a748ab63ec6ec44b2880dba84ad33dc6ffe670f18861836040516118a091906134e9565b60405180910390a3505050505050505050565b8160ff811615806118d957506000805160206136678339815191525460ff908116908216115b156118f75760405163d751397d60e01b815260040160405180910390fd5b60008051602061366783398151915260008051602061364783398151915283156119bf576000805b825481101561197e578660ff1683828154811061193e5761193e6132e1565b60009182526020918290209181049091015460ff601f9092166101000a9004160361196c576001915061197e565b806119768161330d565b91505061191f565b50806119b9578154600181018355600083815260209081902090820401805460ff808a16601f9094166101000a938402930219169190911790555b50611ad5565b60005b8154811015611ad3578560ff168282815481106119e1576119e16132e1565b60009182526020918290209181049091015460ff601f9092166101000a90041603611ac15781548290611a1690600190613521565b81548110611a2657611a266132e1565b90600052602060002090602091828204019190069054906101000a900460ff16828281548110611a5857611a586132e1565b90600052602060002090602091828204019190066101000a81548160ff021916908360ff16021790555081805480611a9257611a92613534565b60019003818190600052602060002090602091828204019190066101000a81549060ff02191690559055611ad3565b80611acb8161330d565b9150506119c2565b505b5060ff909316600090815260019093016020525060409091208054911515620100000262ff000019909216919091179055565b60008051602061366783398151915280546001908290600090611b2f90849060ff1661354a565b825461010092830a60ff818102199092169282160291909117909255835490911660008181526001850160205260409020805462ffff00191689151590930262ff000019169290921762010000881515021760ff191681179091559050611b9681866118b3565b8215611ba757611ba7818585611d13565b604080518715158152861515602082015260ff83169133917f6cc736ebc0a380aff8bb8965c1da3507f88c72faaa11d947a8cee380437eee38910161144b565b60008051602061366783398151915280546060919060ff16806001600160401b03811115611c1757611c1761302b565b604051908082528060200260200182016040528015611c6257816020015b6040805160608101825260008082526020808301829052928201528252600019909201910181611c355790505b50925060005b8160ff168160ff161015611d0b576000611c8382600161354a565b6000878152600286016020908152604080832060ff80861680865291845293829020825160608101845291825280546001600160a01b0316938201939093526001830154918101919091528851939450909290918891908616908110611ceb57611ceb6132e1565b602002602001018190525050508080611d0390613326565b915050611c68565b505050919050565b8260ff81161580611d3957506000805160206136678339815191525460ff908116908216115b15611d575760405163d751397d60e01b815260040160405180910390fd5b60008051602061366783398151915260005b83811015611e6e57611dab858583818110611d8657611d866132e1565b611d9c9260206040909202019081019150612b60565b6001600160a01b03163b151590565b611dc857604051633c65e02b60e21b815260040160405180910390fd5b85826003016000878785818110611de157611de16132e1565b611df79260206040909202019081019150612b60565b6001600160a01b03166001600160a01b031681526020019081526020016000206000878785818110611e2b57611e2b6132e1565b90506040020160200135815260200190815260200160002060006101000a81548160ff021916908360ff1602179055508080611e669061330d565b915050611d69565b50336001600160a01b03167fe4b3865dba5d4ccb0b3d6c20155d67038ad51ad7205218a541036a99804571b78585604051611eaa929190613563565b60405180910390a25050505050565b60008051602061366783398151915280546060919060ff16806001600160401b03811115611ee957611ee961302b565b604051908082528060200260200182016040528015611f3457816020015b6040805160608101825260008082526020808301829052928201528252600019909201910181611f075790505b50925060005b8160ff168160ff161015611fd7576000611f5582600161354a565b60ff80821660009081526001870160209081526040918290208251606081018452905480851682526101008104851615159282019290925262010000909104831615159181019190915287519293509187918516908110611fb857611fb86132e1565b6020026020010181905250508080611fcf90613326565b915050611f3a565b50505090565b60008160ff8116158061200557506000805160206136678339815191525460ff908116908216115b156120235760405163d751397d60e01b815260040160405180910390fd5b60ff83811660009081527ff672b8dc84d117c1e14949d8bc3977392b5ab7de9d01b854d389cdc31bf0d43760205260409020546201000090041661207a576040516332fa2abb60e01b815260040160405180910390fd5b6001600160a01b03841660009081527ff672b8dc84d117c1e14949d8bc3977392b5ab7de9d01b854d389cdc31bf0d43e6020908152604080832060ff8716845290915290205491505b5092915050565b60008051602061366783398151915260005b8281101561217c578160030160008585848181106120fc576120fc6132e1565b6121129260206040909202019081019150612b60565b6001600160a01b03166001600160a01b031681526020019081526020016000206000858584818110612146576121466132e1565b602060409182029390930183013584529183019390935201600020805460ff1916905550806121748161330d565b9150506120dc565b50336001600160a01b03167fe4b3865dba5d4ccb0b3d6c20155d67038ad51ad7205218a541036a99804571b784846040516121b8929190613563565b60405180910390a2505050565b60008051602061366783398151915260008051602061364783398151915260005b815481101561083057818054806121ff576121ff613534565b6000828152602090819020600019909201908104909101805460ff601f84166101000a02191690559055806122338161330d565b9150506121e6565b6001600160a01b0381166000908152600183016020526040812054151561058d565b6000818152600183016020526040812054151561058d565b60008281527ff672b8dc84d117c1e14949d8bc3977392b5ab7de9d01b854d389cdc31bf0d4386020908152604080832060ff858116855290835281842080546001600160a01b031685527ff672b8dc84d117c1e14949d8bc3977392b5ab7de9d01b854d389cdc31bf0d43a84528285206001820154865290935292205460008051602061366783398151915292168015612393578154600180840154604051637921219560e11b81523060048201523360248201526044810191909152606481019190915260a06084820152600060a48201526001600160a01b0390911690819063f242432a9060c401600060405180830381600087803b15801561237957600080fd5b505af115801561238d573d6000803e3d6000fd5b50505050505b505060009283526002016020908152604080842060ff90931684529190528120805473ffffffffffffffffffffffffffffffffffffffff1916815560010155565b6000805160206136478339815191525460009060008051602061366783398151915290606090835b818160ff1610156124a4576000846009018260ff1681548110612421576124216132e1565b6000918252602080832081830401548a84526002890182526040808520601f9094166101000a90910460ff1680855292825292839020805460018201549451939550909361247e93899387936001600160a01b0316929101613457565b60405160208183030381529060405294505050808061249c90613326565b9150506123fc565b50815160208301206124b9600585018261225d565b6000878152600786016020526040902054901595506124dc9060058601906129b0565b506124ea60058501826129bc565b5060009586526007909301602052505060409092209190915590565b60006000805160206136678339815191527ff672b8dc84d117c1e14949d8bc3977392b5ab7de9d01b854d389cdc31bf0d439826125466020870187612b60565b6001600160a01b031681526020808201929092526040908101600090812087840135825290925290205460ff16915081158061259757506000805160206136678339815191525460ff908116908316115b156125b5576040516363efa0e360e01b815260040160405180910390fd5b821580156125dc575060ff8083166000908152600183016020526040902054620100009004165b1561265157336000908152600882016020908152604080832060ff8616845290915281205490036126205760405163bbd28dfd60e01b815260040160405180910390fd5b336000908152600882016020908152604080832060ff86168452909152812080549161264b836135bc565b91905055505b6000858152600282016020908152604080832060ff8087168552908352818420600186019093529220549091610100909104168015612699575080546001600160a01b031615155b156126b75760405163bd8a5e1560e01b815260040160405180910390fd5b6126c46020860186612b60565b81546001600160a01b0390811691161480156126e7575084602001358160010154145b156127055760405163c80df0cb60e01b815260040160405180910390fd5b6000868152600283016020908152604080832060ff871684529091529020546001600160a01b03161561273c5761273c8684612275565b600060048301816127506020890189612b60565b6001600160a01b031681526020808201929092526040908101600090812089840135825290925290205460ff16905080156128a95760006127946020880188612b60565b604051627eeac760e11b8152336004820152602089013560248201529091506001906001600160a01b0383169062fdd58e90604401602060405180830381865afa1580156127e6573d6000803e3d6000fd5b505050506040513d601f19601f8201168201806040525081019061280a91906135d3565b1015612829576040516335ba250d60e11b815260040160405180910390fd5b604051637921219560e11b8152336004820152306024820152602088013560448201526001606482015260a06084820152600060a48201526001600160a01b0382169063f242432a9060c401600060405180830381600087803b15801561288f57600080fd5b505af11580156128a3573d6000803e3d6000fd5b50505050505b6000878152600284016020908152604080832060ff88168452909152902086906128d382826135ec565b9050505050509392505050565b60008051602061366783398151915280546000919060ff16825b8160ff168160ff1610156129a557600061291582600161354a565b60ff808216600090815260018701602052604090208054929350916201000090041615801561294b57508054610100900460ff16155b15612957575050612993565b6000878152600286016020908152604080832060ff861684529091529020546001600160a01b0316612990575060009695505050505050565b50505b8061299d81613326565b9150506128fa565b506001949350505050565b600061058d83836129c8565b600061058d8383612a82565b600081815260018301602052604081205480156120c3578354600090859060001981019081106129fa576129fa6132e1565b9060005260206000200154905080856000016001840381548110612a2057612a206132e1565b6000918252602080832090910192909255918252600186019052604090208190558354849080612a5257612a52613534565b60008281526020808220830160001990810183905590920190925593815260019485019093525050604081205590565b60008181526001830160205260408120546104a2575081546001808201845560008481526020808220909301849055845493815293810190915260409092205590565b600060208284031215612ad757600080fd5b81356001600160e01b03198116811461058d57600080fd5b803560ff81168114612b0057600080fd5b919050565b80358015158114612b0057600080fd5b60008060408385031215612b2857600080fd5b612b3183612aef565b9150612b3f60208401612b05565b90509250929050565b6001600160a01b0381168114612b5d57600080fd5b50565b600060208284031215612b7257600080fd5b813561058d81612b48565b602080825282518282018190526000919060409081850190868401855b82811015612bc2578151805160ff168552860151868501529284019290850190600101612b9a565b5091979650505050505050565b60008060408385031215612be257600080fd5b82359150612b3f60208401612aef565b815160ff1681526020808301516001600160a01b03169082015260408083015190820152606081016104a2565b600060408284031215612c3157600080fd5b50919050565b60008083601f840112612c4957600080fd5b5081356001600160401b03811115612c6057600080fd5b6020830191508360208260061b8501011115612c7b57600080fd5b9250929050565b60008083601f840112612c9457600080fd5b5081356001600160401b03811115612cab57600080fd5b6020830191508360208260051b8501011115612c7b57600080fd5b60008060008060408587031215612cdc57600080fd5b84356001600160401b0380821115612cf357600080fd5b612cff88838901612c37565b90965094506020870135915080821115612d1857600080fd5b50612d2587828801612c82565b95989497509550505050565b600080600080600060608688031215612d4957600080fd5b8535612d5481612b48565b945060208601356001600160401b0380821115612d7057600080fd5b612d7c89838a01612c82565b90965094506040880135915080821115612d9557600080fd5b50612da288828901612c82565b969995985093965092949392505050565b600080600060408486031215612dc857600080fd5b8335925060208401356001600160401b03811115612de557600080fd5b612df186828701612c82565b9497909650939450505050565b6020808252825182820181905260009190848201906040850190845b81811015612e6057612e4d838551805160ff1682526020808201516001600160a01b031690830152604090810151910152565b9284019260609290920191600101612e1a565b50909695505050505050565b600060208284031215612e7e57600080fd5b5035919050565b600080600060408486031215612e9a57600080fd5b8335925060208401356001600160401b03811115612eb757600080fd5b612df186828701612c37565b6020808252825182820181905260009190848201906040850190845b81811015612e6057835160ff1683529284019291840191600101612edf565b600060208284031215612f1057600080fd5b61058d82612aef565b815160ff168152602080830151151590820152604080830151151590820152606081016104a2565b60008060008060608587031215612f5757600080fd5b612f6085612b05565b9350612f6e60208601612b05565b925060408501356001600160401b03811115612f8957600080fd5b612d2587828801612c37565b600080600060408486031215612faa57600080fd5b612fb384612aef565b925060208401356001600160401b03811115612eb757600080fd5b6020808252825182820181905260009190848201906040850190845b81811015612e6057613018838551805160ff1682526020808201511515908301526040908101511515910152565b9284019260609290920191600101612fea565b634e487b7160e01b600052604160045260246000fd5b604051601f8201601f191681016001600160401b03811182821017156130695761306961302b565b604052919050565b600082601f83011261308257600080fd5b813560206001600160401b0382111561309d5761309d61302b565b8160051b6130ac828201613041565b92835284810182019282810190878511156130c657600080fd5b83870192505b848310156130e5578235825291830191908301906130cc565b979650505050505050565b600082601f83011261310157600080fd5b81356001600160401b0381111561311a5761311a61302b565b61312d601f8201601f1916602001613041565b81815284602083860101111561314257600080fd5b816020850160208301376000918101602001919091529392505050565b600080600080600060a0868803121561317757600080fd5b853561318281612b48565b9450602086013561319281612b48565b935060408601356001600160401b03808211156131ae57600080fd5b6131ba89838a01613071565b945060608801359150808211156131d057600080fd5b6131dc89838a01613071565b935060808801359150808211156131f257600080fd5b506131ff888289016130f0565b9150509295509295909350565b6000806040838503121561321f57600080fd5b823561322a81612b48565b9150612b3f60208401612aef565b6000806020838503121561324b57600080fd5b82356001600160401b0381111561326157600080fd5b61326d85828601612c37565b90969095509350505050565b600080600080600060a0868803121561329157600080fd5b853561329c81612b48565b945060208601356132ac81612b48565b9350604086013592506060860135915060808601356001600160401b038111156132d557600080fd5b6131ff888289016130f0565b634e487b7160e01b600052603260045260246000fd5b634e487b7160e01b600052601160045260246000fd5b60006001820161331f5761331f6132f7565b5060010190565b600060ff821660ff810361333c5761333c6132f7565b60010192915050565b60006020828403121561335757600080fd5b61058d82612b05565b808201808211156104a2576104a26132f7565b8183526000602080850194508260005b858110156133a95760ff61339683612aef565b1687529582019590820190600101613383565b509495945050505050565b6040815260006133c8604083018688613373565b82810360208401528381526001600160fb1b038411156133e757600080fd5b8360051b80866020840137016020019695505050505050565b60006040828403121561341257600080fd5b604051604081018181106001600160401b03821117156134345761343461302b565b604052823561344281612b48565b81526020928301359281019290925250919050565b6000855160005b81811015613478576020818901810151858301520161345e565b5060f89590951b6001600160f81b0319169190940190815260609290921b6bffffffffffffffffffffffff19166001830152601582015260350192915050565b6000602082840312156134ca57600080fd5b815161058d81612b48565b602081526000610674602083018486613373565b6020808252825182820181905260009190848201906040850190845b81811015612e6057835183529284019291840191600101613505565b818103818111156104a2576104a26132f7565b634e487b7160e01b600052603160045260246000fd5b60ff81811683821601908111156104a2576104a26132f7565b6020808252818101839052600090604080840186845b878110156135af57813561358c81612b48565b6001600160a01b0316835281850135858401529183019190830190600101613579565b5090979650505050505050565b6000816135cb576135cb6132f7565b506000190190565b6000602082840312156135e557600080fd5b5051919050565b81356135f781612b48565b6001600160a01b0381166bffffffffffffffffffffffff60a01b8354161782555060208201356001820155505056fef6deb63e40d71b08820818e006e23fcceb1fce7a499bc15b71b2526cbf9efa72f672b8dc84d117c1e14949d8bc3977392b5ab7de9d01b854d389cdc31bf0d43ff672b8dc84d117c1e14949d8bc3977392b5ab7de9d01b854d389cdc31bf0d436a26469706673582212206baf9272954fd342a54deaada5f77c4104a926a501859847931b93a2761eb4ea64736f6c63430008130033",
  "devdoc": {
    "details": "This contract is responsible for managing the inventory system for the Arcadians using slots.  It defines the functionality to equip and unequip items to Arcadians, check if a combination of items  are unique, and retrieve the inventory slots and allowed items for a slot.  This contract also implements ERC1155Holder to handle ERC1155 token transfers This contract can be used as a facet of a diamond which follows the EIP-2535 diamond standard. It also uses the ReentrancyGuard and Multicall contracts for security and gas efficiency.",
    "kind": "dev",
    "methods": {
      "addBaseModifierCoupons(address,uint8[],uint256[])": {
        "params": {
          "account": "The account to increase the number of coupons",
          "amounts": "the amounts of coupons to increase",
          "slotsIds": "The slots ids to increase the number of coupons"
        }
      },
      "allowItemsInSlot(uint8,(address,uint256)[])": {
        "params": {
          "items": "The list of items to allow in the slot",
          "slotId": "The slot id"
        }
      },
      "allowedSlot((address,uint256))": {
        "params": {
          "item": "The item to check"
        },
        "returns": {
          "_0": "The allowed slot id for the item. Slots are 1-indexed."
        }
      },
      "createSlot(bool,bool,(address,uint256)[])": {
        "details": "This function is only accessible to the manager roleSlots are 1-indexed",
        "params": {
          "isBase": "If the slot is base",
          "items": "The list of items to allow in the slot",
          "permanent": "Whether or not the slot can be unequipped once equipped"
        }
      },
      "disallowItems((address,uint256)[])": {
        "params": {
          "items": "The list of items to disallow in the slot"
        }
      },
      "equip(uint256,(address,uint256)[])": {
        "params": {
          "arcadianId": "The ID of the Arcadian NFT to equip the items for",
          "items": "An array of items to equip in the corresponding slots"
        }
      },
      "equipped(uint256,uint8)": {
        "params": {
          "arcadianId": "The ID of the Arcadian NFT to query",
          "slotId": "The slot id to query"
        }
      },
      "equippedAll(uint256)": {
        "params": {
          "arcadianId": "The ID of the Arcadian NFT to query"
        }
      },
      "equippedBatch(uint256,uint8[])": {
        "params": {
          "arcadianId": "The ID of the Arcadian NFT to query",
          "slotsIds": "The slots ids to query"
        }
      },
      "getBaseModifierCoupon(address,uint8)": {
        "params": {
          "account": "The accounts to increase the number of coupons",
          "slotId": "The slot to get the coupon amount from"
        }
      },
      "getBaseModifierCouponAll(address)": {
        "params": {
          "account": "The accounts to increase the number of coupons"
        }
      },
      "isArcadianUnique(uint256,(address,uint256)[])": {
        "details": "The uniqueness is calculated using the existent arcadian items and the input items as wellOnly items equipped in 'base' slots are considered for uniqueness",
        "params": {
          "arcadianId": "The ID of the Arcadian NFT to query",
          "items": "An array of items to check for uniqueness after \"equipped\" over the existent arcadian items."
        }
      },
      "numSlots()": {
        "details": "Slots are 1-indexed",
        "returns": {
          "_0": "The number of inventory slots "
        }
      },
      "setItemsTransferRequired((address,uint256)[],bool[])": {
        "params": {
          "items": "The list of items",
          "requiresTransfer": "If it requires item transfer to be equipped"
        }
      },
      "setSlotBase(uint8,bool)": {
        "details": "This function is only accessible to the manager roleSlots are 1-indexed",
        "params": {
          "isBase": "Whether or not the slot is base"
        }
      },
      "setSlotPermanent(uint8,bool)": {
        "details": "This function is only accessible to the manager roleSlots are 1-indexed",
        "params": {
          "permanent": "Whether or not the slot is permanent"
        }
      },
      "slot(uint8)": {
        "details": "Slots are 1-indexed",
        "params": {
          "slotId": "The ID of the inventory slot"
        },
        "returns": {
          "existentSlot": "The details of the inventory slot"
        }
      },
      "slotsAll()": {
        "details": "Slots are 1-indexed",
        "returns": {
          "existentSlots": "The details of all the inventory slots"
        }
      },
      "supportsInterface(bytes4)": {
        "details": "See {IERC165-supportsInterface}."
      },
      "unequip(uint256,uint8[])": {
        "params": {
          "arcadianId": "The ID of the Arcadian NFT to equip the item for",
          "slotsIds": "The slots ids in which the items will be unequipped"
        }
      }
    },
    "title": "InventoryFacet",
    "version": 1
  },
  "userdoc": {
    "kind": "user",
    "methods": {
      "addBaseModifierCoupons(address,uint8[],uint256[])": {
        "notice": "Adds coupons to accounts that allow to modify the base traits"
      },
      "allowItemsInSlot(uint8,(address,uint256)[])": {
        "notice": "Adds items to the list of allowed items for an inventory slot"
      },
      "allowedSlot((address,uint256))": {
        "notice": "Returns the allowed slot for a given item"
      },
      "createSlot(bool,bool,(address,uint256)[])": {
        "notice": "Creates a new inventory slot"
      },
      "disallowItems((address,uint256)[])": {
        "notice": "Removes items from the list of allowed items"
      },
      "equip(uint256,(address,uint256)[])": {
        "notice": "Equips multiple items to multiple slots for a specified Arcadian NFT"
      },
      "equipped(uint256,uint8)": {
        "notice": "Retrieves the equipped item in a slot for a specified Arcadian NFT"
      },
      "equippedAll(uint256)": {
        "notice": "Retrieves all the equipped items for a specified Arcadian NFT"
      },
      "equippedBatch(uint256,uint8[])": {
        "notice": "Retrieves the equipped items in the slot of an Arcadian NFT"
      },
      "getBaseModifierCoupon(address,uint8)": {
        "notice": "Returns the number coupons available for an account that allow to modify the base traits"
      },
      "getBaseModifierCouponAll(address)": {
        "notice": "Returns the number coupons available for an account that allow to modify the base traits"
      },
      "getBaseSlotsIds()": {
        "notice": "Returns all the slots ids"
      },
      "isArcadianUnique(uint256,(address,uint256)[])": {
        "notice": "Indicates if a list of items applied to an the arcadian is unique"
      },
      "numSlots()": {
        "notice": "Returns the number of inventory slots"
      },
      "setItemsTransferRequired((address,uint256)[],bool[])": {
        "notice": "Sets the items transfer required on equip"
      },
      "setSlotBase(uint8,bool)": {
        "notice": "Sets the slot base property"
      },
      "setSlotPermanent(uint8,bool)": {
        "notice": "Sets the slot permanent property"
      },
      "slot(uint8)": {
        "notice": "Returns the details of an inventory slot given its ID"
      },
      "slotsAll()": {
        "notice": "Returns the details of all the existent slots"
      },
      "unequip(uint256,uint8[])": {
        "notice": "Unequips the items equipped in multiple slots for a specified Arcadian NFT"
      }
    },
    "version": 1
  },
  "storageLayout": {
    "storage": [],
    "types": null
  }
}