{
  "address": "0x249f7C8562A31410031434b3c7e2983280c0161B",
  "abi": [
    {
      "inputs": [],
      "name": "EnumerableSet__IndexOutOfBounds",
      "type": "error"
    },
    {
      "inputs": [],
      "name": "Inventory_ArcadianNotUnique",
      "type": "error"
    },
    {
      "inputs": [],
      "name": "Inventory_InputDataMismatch",
      "type": "error"
    },
    {
      "inputs": [],
      "name": "Inventory_InsufficientItemBalance",
      "type": "error"
    },
    {
      "inputs": [],
      "name": "Inventory_InvalidERC1155Contract",
      "type": "error"
    },
    {
      "inputs": [],
      "name": "Inventory_InvalidSlotId",
      "type": "error"
    },
    {
      "inputs": [],
      "name": "Inventory_ItemAlreadyAllowedInSlot",
      "type": "error"
    },
    {
      "inputs": [],
      "name": "Inventory_ItemAlreadyDisallowedInSlot",
      "type": "error"
    },
    {
      "inputs": [],
      "name": "Inventory_ItemAlreadyEquippedInSlot",
      "type": "error"
    },
    {
      "inputs": [],
      "name": "Inventory_ItemNotElegibleForSlot",
      "type": "error"
    },
    {
      "inputs": [],
      "name": "Inventory_NotArcadianOwner",
      "type": "error"
    },
    {
      "inputs": [],
      "name": "Inventory_SlotAlreadyEquipped",
      "type": "error"
    },
    {
      "inputs": [],
      "name": "Inventory_SlotNotSpecified",
      "type": "error"
    },
    {
      "inputs": [],
      "name": "Inventory_UnequippingEmptySlot",
      "type": "error"
    },
    {
      "inputs": [],
      "name": "Inventory_UnequippingPermanentSlot",
      "type": "error"
    },
    {
      "inputs": [],
      "name": "ReentrancyGuard__ReentrantCall",
      "type": "error"
    },
    {
      "inputs": [],
      "name": "UintUtils__InsufficientHexLength",
      "type": "error"
    },
    {
      "anonymous": false,
      "inputs": [
        {
          "indexed": true,
          "internalType": "address",
          "name": "oldArcadiansAddress",
          "type": "address"
        },
        {
          "indexed": true,
          "internalType": "address",
          "name": "newArcadiansAddress",
          "type": "address"
        }
      ],
      "name": "ArcadiansAddressChanged",
      "type": "event"
    },
    {
      "anonymous": false,
      "inputs": [
        {
          "indexed": true,
          "internalType": "address",
          "name": "by",
          "type": "address"
        },
        {
          "indexed": false,
          "internalType": "uint256",
          "name": "slotId",
          "type": "uint256"
        }
      ],
      "name": "ItemsAllowedInSlotUpdated",
      "type": "event"
    },
    {
      "anonymous": false,
      "inputs": [
        {
          "indexed": true,
          "internalType": "address",
          "name": "by",
          "type": "address"
        },
        {
          "indexed": true,
          "internalType": "uint256",
          "name": "arcadianId",
          "type": "uint256"
        },
        {
          "indexed": false,
          "internalType": "uint256[]",
          "name": "slots",
          "type": "uint256[]"
        }
      ],
      "name": "ItemsEquipped",
      "type": "event"
    },
    {
      "anonymous": false,
      "inputs": [
        {
          "indexed": true,
          "internalType": "address",
          "name": "by",
          "type": "address"
        },
        {
          "indexed": true,
          "internalType": "uint256",
          "name": "arcadianId",
          "type": "uint256"
        },
        {
          "indexed": false,
          "internalType": "uint256[]",
          "name": "slots",
          "type": "uint256[]"
        }
      ],
      "name": "ItemsUnequipped",
      "type": "event"
    },
    {
      "anonymous": false,
      "inputs": [
        {
          "indexed": true,
          "internalType": "bytes32",
          "name": "role",
          "type": "bytes32"
        },
        {
          "indexed": true,
          "internalType": "bytes32",
          "name": "previousAdminRole",
          "type": "bytes32"
        },
        {
          "indexed": true,
          "internalType": "bytes32",
          "name": "newAdminRole",
          "type": "bytes32"
        }
      ],
      "name": "RoleAdminChanged",
      "type": "event"
    },
    {
      "anonymous": false,
      "inputs": [
        {
          "indexed": true,
          "internalType": "bytes32",
          "name": "role",
          "type": "bytes32"
        },
        {
          "indexed": true,
          "internalType": "address",
          "name": "account",
          "type": "address"
        },
        {
          "indexed": true,
          "internalType": "address",
          "name": "sender",
          "type": "address"
        }
      ],
      "name": "RoleGranted",
      "type": "event"
    },
    {
      "anonymous": false,
      "inputs": [
        {
          "indexed": true,
          "internalType": "bytes32",
          "name": "role",
          "type": "bytes32"
        },
        {
          "indexed": true,
          "internalType": "address",
          "name": "account",
          "type": "address"
        },
        {
          "indexed": true,
          "internalType": "address",
          "name": "sender",
          "type": "address"
        }
      ],
      "name": "RoleRevoked",
      "type": "event"
    },
    {
      "anonymous": false,
      "inputs": [
        {
          "indexed": true,
          "internalType": "address",
          "name": "by",
          "type": "address"
        },
        {
          "indexed": false,
          "internalType": "uint256",
          "name": "slotId",
          "type": "uint256"
        },
        {
          "indexed": false,
          "internalType": "bool",
          "name": "permanent",
          "type": "bool"
        },
        {
          "indexed": false,
          "internalType": "enum InventoryStorage.SlotCategory",
          "name": "category",
          "type": "uint8"
        }
      ],
      "name": "SlotCreated",
      "type": "event"
    },
    {
      "inputs": [
        {
          "internalType": "uint256",
          "name": "slotId",
          "type": "uint256"
        },
        {
          "components": [
            {
              "internalType": "address",
              "name": "erc721Contract",
              "type": "address"
            },
            {
              "internalType": "uint256",
              "name": "id",
              "type": "uint256"
            }
          ],
          "internalType": "struct InventoryStorage.Item[]",
          "name": "items",
          "type": "tuple[]"
        }
      ],
      "name": "allowItemsInSlot",
      "outputs": [],
      "stateMutability": "nonpayable",
      "type": "function"
    },
    {
      "inputs": [
        {
          "internalType": "uint256",
          "name": "slotId",
          "type": "uint256"
        },
        {
          "internalType": "uint256",
          "name": "index",
          "type": "uint256"
        }
      ],
      "name": "allowedItem",
      "outputs": [
        {
          "components": [
            {
              "internalType": "address",
              "name": "erc721Contract",
              "type": "address"
            },
            {
              "internalType": "uint256",
              "name": "id",
              "type": "uint256"
            }
          ],
          "internalType": "struct InventoryStorage.Item",
          "name": "",
          "type": "tuple"
        }
      ],
      "stateMutability": "view",
      "type": "function"
    },
    {
      "inputs": [
        {
          "components": [
            {
              "internalType": "address",
              "name": "erc721Contract",
              "type": "address"
            },
            {
              "internalType": "uint256",
              "name": "id",
              "type": "uint256"
            }
          ],
          "internalType": "struct InventoryStorage.Item",
          "name": "item",
          "type": "tuple"
        }
      ],
      "name": "allowedSlot",
      "outputs": [
        {
          "internalType": "uint256",
          "name": "",
          "type": "uint256"
        }
      ],
      "stateMutability": "view",
      "type": "function"
    },
    {
      "inputs": [
        {
          "internalType": "bool",
          "name": "permanent",
          "type": "bool"
        },
        {
          "internalType": "enum InventoryStorage.SlotCategory",
          "name": "category",
          "type": "uint8"
        },
        {
          "components": [
            {
              "internalType": "address",
              "name": "erc721Contract",
              "type": "address"
            },
            {
              "internalType": "uint256",
              "name": "id",
              "type": "uint256"
            }
          ],
          "internalType": "struct InventoryStorage.Item[]",
          "name": "items",
          "type": "tuple[]"
        }
      ],
      "name": "createSlot",
      "outputs": [],
      "stateMutability": "nonpayable",
      "type": "function"
    },
    {
      "inputs": [
        {
          "internalType": "uint256",
          "name": "slotId",
          "type": "uint256"
        },
        {
          "components": [
            {
              "internalType": "address",
              "name": "erc721Contract",
              "type": "address"
            },
            {
              "internalType": "uint256",
              "name": "id",
              "type": "uint256"
            }
          ],
          "internalType": "struct InventoryStorage.Item[]",
          "name": "items",
          "type": "tuple[]"
        }
      ],
      "name": "disallowItemsInSlot",
      "outputs": [],
      "stateMutability": "nonpayable",
      "type": "function"
    },
    {
      "inputs": [
        {
          "internalType": "uint256",
          "name": "arcadianId",
          "type": "uint256"
        },
        {
          "internalType": "uint256",
          "name": "slotId",
          "type": "uint256"
        },
        {
          "components": [
            {
              "internalType": "address",
              "name": "erc721Contract",
              "type": "address"
            },
            {
              "internalType": "uint256",
              "name": "id",
              "type": "uint256"
            }
          ],
          "internalType": "struct InventoryStorage.Item",
          "name": "item",
          "type": "tuple"
        }
      ],
      "name": "equip",
      "outputs": [],
      "stateMutability": "nonpayable",
      "type": "function"
    },
    {
      "inputs": [
        {
          "internalType": "uint256",
          "name": "arcadianId",
          "type": "uint256"
        },
        {
          "internalType": "uint256[]",
          "name": "slotsIds",
          "type": "uint256[]"
        },
        {
          "components": [
            {
              "internalType": "address",
              "name": "erc721Contract",
              "type": "address"
            },
            {
              "internalType": "uint256",
              "name": "id",
              "type": "uint256"
            }
          ],
          "internalType": "struct InventoryStorage.Item[]",
          "name": "items",
          "type": "tuple[]"
        }
      ],
      "name": "equipBatch",
      "outputs": [],
      "stateMutability": "nonpayable",
      "type": "function"
    },
    {
      "inputs": [
        {
          "internalType": "uint256",
          "name": "arcadianId",
          "type": "uint256"
        },
        {
          "internalType": "uint256",
          "name": "slotId",
          "type": "uint256"
        }
      ],
      "name": "equipped",
      "outputs": [
        {
          "components": [
            {
              "internalType": "uint256",
              "name": "slotId",
              "type": "uint256"
            },
            {
              "internalType": "address",
              "name": "erc721Contract",
              "type": "address"
            },
            {
              "internalType": "uint256",
              "name": "itemId",
              "type": "uint256"
            }
          ],
          "internalType": "struct InventoryInternal.ItemInSlot",
          "name": "item",
          "type": "tuple"
        }
      ],
      "stateMutability": "view",
      "type": "function"
    },
    {
      "inputs": [
        {
          "internalType": "uint256",
          "name": "arcadianId",
          "type": "uint256"
        }
      ],
      "name": "equippedAll",
      "outputs": [
        {
          "components": [
            {
              "internalType": "uint256",
              "name": "slotId",
              "type": "uint256"
            },
            {
              "internalType": "address",
              "name": "erc721Contract",
              "type": "address"
            },
            {
              "internalType": "uint256",
              "name": "itemId",
              "type": "uint256"
            }
          ],
          "internalType": "struct InventoryInternal.ItemInSlot[]",
          "name": "equippedSlot",
          "type": "tuple[]"
        }
      ],
      "stateMutability": "view",
      "type": "function"
    },
    {
      "inputs": [
        {
          "internalType": "uint256",
          "name": "arcadianId",
          "type": "uint256"
        },
        {
          "internalType": "uint256[]",
          "name": "slotsIds",
          "type": "uint256[]"
        },
        {
          "components": [
            {
              "internalType": "address",
              "name": "erc721Contract",
              "type": "address"
            },
            {
              "internalType": "uint256",
              "name": "id",
              "type": "uint256"
            }
          ],
          "internalType": "struct InventoryStorage.Item[]",
          "name": "items",
          "type": "tuple[]"
        }
      ],
      "name": "isArcadianUnique",
      "outputs": [
        {
          "internalType": "bool",
          "name": "",
          "type": "bool"
        }
      ],
      "stateMutability": "view",
      "type": "function"
    },
    {
      "inputs": [
        {
          "internalType": "uint256",
          "name": "slotId",
          "type": "uint256"
        }
      ],
      "name": "numAllowedItems",
      "outputs": [
        {
          "internalType": "uint256",
          "name": "",
          "type": "uint256"
        }
      ],
      "stateMutability": "view",
      "type": "function"
    },
    {
      "inputs": [],
      "name": "numSlots",
      "outputs": [
        {
          "internalType": "uint256",
          "name": "",
          "type": "uint256"
        }
      ],
      "stateMutability": "view",
      "type": "function"
    },
    {
      "inputs": [
        {
          "internalType": "address",
          "name": "",
          "type": "address"
        },
        {
          "internalType": "address",
          "name": "",
          "type": "address"
        },
        {
          "internalType": "uint256[]",
          "name": "",
          "type": "uint256[]"
        },
        {
          "internalType": "uint256[]",
          "name": "",
          "type": "uint256[]"
        },
        {
          "internalType": "bytes",
          "name": "",
          "type": "bytes"
        }
      ],
      "name": "onERC1155BatchReceived",
      "outputs": [
        {
          "internalType": "bytes4",
          "name": "",
          "type": "bytes4"
        }
      ],
      "stateMutability": "nonpayable",
      "type": "function"
    },
    {
      "inputs": [
        {
          "internalType": "address",
          "name": "",
          "type": "address"
        },
        {
          "internalType": "address",
          "name": "",
          "type": "address"
        },
        {
          "internalType": "uint256",
          "name": "",
          "type": "uint256"
        },
        {
          "internalType": "uint256",
          "name": "",
          "type": "uint256"
        },
        {
          "internalType": "bytes",
          "name": "",
          "type": "bytes"
        }
      ],
      "name": "onERC1155Received",
      "outputs": [
        {
          "internalType": "bytes4",
          "name": "",
          "type": "bytes4"
        }
      ],
      "stateMutability": "nonpayable",
      "type": "function"
    },
    {
      "inputs": [
        {
          "internalType": "uint256",
          "name": "slotId",
          "type": "uint256"
        }
      ],
      "name": "slot",
      "outputs": [
        {
          "components": [
            {
              "internalType": "uint256",
              "name": "id",
              "type": "uint256"
            },
            {
              "internalType": "bool",
              "name": "permanent",
              "type": "bool"
            },
            {
              "internalType": "enum InventoryStorage.SlotCategory",
              "name": "category",
              "type": "uint8"
            }
          ],
          "internalType": "struct InventoryStorage.Slot",
          "name": "existentSlot",
          "type": "tuple"
        }
      ],
      "stateMutability": "view",
      "type": "function"
    },
    {
      "inputs": [],
      "name": "slotsAll",
      "outputs": [
        {
          "components": [
            {
              "internalType": "uint256",
              "name": "id",
              "type": "uint256"
            },
            {
              "internalType": "bool",
              "name": "permanent",
              "type": "bool"
            },
            {
              "internalType": "enum InventoryStorage.SlotCategory",
              "name": "category",
              "type": "uint8"
            }
          ],
          "internalType": "struct InventoryStorage.Slot[]",
          "name": "existentSlots",
          "type": "tuple[]"
        }
      ],
      "stateMutability": "view",
      "type": "function"
    },
    {
      "inputs": [
        {
          "internalType": "bytes4",
          "name": "interfaceId",
          "type": "bytes4"
        }
      ],
      "name": "supportsInterface",
      "outputs": [
        {
          "internalType": "bool",
          "name": "",
          "type": "bool"
        }
      ],
      "stateMutability": "view",
      "type": "function"
    },
    {
      "inputs": [
        {
          "internalType": "uint256",
          "name": "arcadianId",
          "type": "uint256"
        },
        {
          "internalType": "uint256",
          "name": "slotId",
          "type": "uint256"
        }
      ],
      "name": "unequip",
      "outputs": [],
      "stateMutability": "nonpayable",
      "type": "function"
    },
    {
      "inputs": [
        {
          "internalType": "uint256",
          "name": "arcadianId",
          "type": "uint256"
        },
        {
          "internalType": "uint256[]",
          "name": "slotIds",
          "type": "uint256[]"
        }
      ],
      "name": "unequipBatch",
      "outputs": [],
      "stateMutability": "nonpayable",
      "type": "function"
    }
  ],
  "transactionHash": "0x15ccafeb5e9539948d3c8e628dffb2436587f6e60fe7bc122b682c8eb11cef28",
  "args": [],
  "numDeployments": 9,
  "solcInputHash": "769e5ab6dc92426c40d23bbacd734a6e",
  "bytecode": "0x608060405234801561001057600080fd5b50613275806100206000396000f3fe608060405234801561001057600080fd5b50600436106101215760003560e01c80639e3ccb2a116100ad578063b9518c8d11610071578063b9518c8d1461028a578063b9e6a4121461029d578063bc197c81146102b0578063ef0bf7de146102e8578063f23a6e611461030857600080fd5b80639e3ccb2a1461020f578063a667d9d31461022f578063b1b2fef414610242578063b2025e4f14610257578063b512cffe1461027757600080fd5b8063633e2d5a116100f4578063633e2d5a1461019757806376356aad146101aa5780637f85db2d146101bd5780638aa5d1f7146101f45780639621ff251461020757600080fd5b806301ffc9a7146101265780632f8bd3c81461014e5780634274a1431461016f578063473bdb9814610184575b600080fd5b61013961013436600461285f565b610327565b60405190151581526020015b60405180910390f35b61016161015c3660046128a1565b61035e565b604051908152602001610145565b61018261017d366004612908565b610369565b005b610182610192366004612908565b610389565b6101616101a5366004612953565b61039f565b6101826101b836600461296c565b6103aa565b6101d06101cb3660046129a2565b610405565b6040805182516001600160a01b031681526020928301519281019290925201610145565b610182610202366004612a08565b61042a565b610161610489565b61022261021d366004612953565b610498565b6040516101459190612a81565b61013961023d366004612a08565b6104a3565b61024a6104bc565b6040516101459190612b46565b61026a610265366004612953565b6104c6565b6040516101459190612b88565b6101826102853660046129a2565b61056b565b610182610298366004612b96565b6105c4565b6101826102ab366004612bd4565b610616565b6102cf6102be366004612d8a565b63bc197c8160e01b95945050505050565b6040516001600160e01b03199091168152602001610145565b6102fb6102f63660046129a2565b610633565b6040516101459190612e37565b6102cf610316366004612e61565b63f23a6e6160e01b95945050505050565b60006001600160e01b03198216630271189760e51b148061035857506301ffc9a760e01b6001600160e01b03198316145b92915050565b60006103588261066a565b6103796103746106d8565b610702565b61038483838361070f565b505050565b6103946103746106d8565b61038483838361086d565b600061035882610b95565b7f09acf4e54214992e70883cf7dcd6957ff2c71cd9e14df4bec4383bc0d11607dc80546002036103ed57604051635db5c7cd60e11b815260040160405180910390fd5b600281556103fc848484610c04565b60019055505050565b60408051808201909152600080825260208201526104238383611008565b9392505050565b7f09acf4e54214992e70883cf7dcd6957ff2c71cd9e14df4bec4383bc0d11607dc805460020361046d57604051635db5c7cd60e11b815260040160405180910390fd5b6002815561047e86868686866110d2565b600190555050505050565b600061049361153b565b905090565b606061035882611551565b60006104b2868686868661167d565b9695505050505050565b60606104936119fe565b6104e760408051606081018252600080825260208201819052909182015290565b60008281527ff672b8dc84d117c1e14949d8bc3977392b5ab7de9d01b854d389cdc31bf0d437602052604090206040805160608101825282548152600183015460ff8082161515602084015291939284019161010090910416600281111561055157610551612aec565b600281111561056257610562612aec565b90525092915050565b7f09acf4e54214992e70883cf7dcd6957ff2c71cd9e14df4bec4383bc0d11607dc80546002036105ae57604051635db5c7cd60e11b815260040160405180910390fd5b600281556105bc8383611b38565b600190555050565b7f09acf4e54214992e70883cf7dcd6957ff2c71cd9e14df4bec4383bc0d11607dc805460020361060757604051635db5c7cd60e11b815260040160405180910390fd5b600281556103fc848484611d3b565b6106216103746106d8565b61062d84848484611f32565b50505050565b61066060405180606001604052806000815260200160006001600160a01b03168152602001600081525090565b610423838361201a565b60007ff672b8dc84d117c1e14949d8bc3977392b5ab7de9d01b854d389cdc31bf0d43a8161069b6020850185612ec9565b6001600160a01b03166001600160a01b03168152602001908152602001600020600083602001358152602001908152602001600020549050919050565b60007ff6deb63e40d71b08820818e006e23fcceb1fce7a499bc15b71b2526cbf9efa725b54919050565b61070c81336120ac565b50565b8280158061072b57506000805160206132208339815191525481115b156107495760405163d751397d60e01b815260040160405180910390fd5b60008051602061322083398151915260005b83811015610830578582600401600087878581811061077c5761077c612ee6565b6107929260206040909202019081019150612ec9565b6001600160a01b03166001600160a01b0316815260200190815260200160002060008787858181106107c6576107c6612ee6565b90506040020160200135815260200190815260200160002054146107fd5760405163072f859160e31b815260040160405180910390fd5b61081e8686868481811061081357610813612ee6565b90506040020161211b565b8061082881612f12565b91505061075b565b5060405185815233907ff69b53fa14ee16895edbe90d00c7b7af9214baf87c69bf5594126b114c9337ed9060200160405180910390a25050505050565b8280158061088957506000805160206132208339815191525481115b156108a75760405163d751397d60e01b815260040160405180910390fd5b60008051602061322083398151915260005b83811015610b2f576108fb8585838181106108d6576108d6612ee6565b6108ec9260206040909202019081019150612ec9565b6001600160a01b03163b151590565b61091857604051633c65e02b60e21b815260040160405180910390fd5b600082600401600087878581811061093257610932612ee6565b6109489260206040909202019081019150612ec9565b6001600160a01b03166001600160a01b03168152602001908152602001600020600087878581811061097c5761097c612ee6565b905060400201602001358152602001908152602001600020541115610a4b57858260040160008787858181106109b4576109b4612ee6565b6109ca9260206040909202019081019150612ec9565b6001600160a01b03166001600160a01b0316815260200190815260200160002060008787858181106109fe576109fe612ee6565b9050604002016020013581526020019081526020016000205403610a3557604051634ea88b8b60e01b815260040160405180910390fd5b610a4b8686868481811061081357610813612ee6565b60008681526005830160205260409020858583818110610a6d57610a6d612ee6565b835460018101855560009485526020909420604090910292909201926002029091019050610a9b8282612f2b565b505085826004016000878785818110610ab657610ab6612ee6565b610acc9260206040909202019081019150612ec9565b6001600160a01b03166001600160a01b031681526020019081526020016000206000878785818110610b0057610b00612ee6565b905060400201602001358152602001908152602001600020819055508080610b2790612f12565b9150506108b9565b506000858152600182810160205260408220015461083091879160028086019291610100900460ff1690811115610b6857610b68612aec565b6002811115610b7957610b79612aec565b81526020019081526020016000206122d590919063ffffffff16565b600081801580610bb357506000805160206132208339815191525481115b15610bd15760405163d751397d60e01b815260040160405180910390fd5b505060009081527ff672b8dc84d117c1e14949d8bc3977392b5ab7de9d01b854d389cdc31bf0d43b602052604090205490565b6040516331a9108f60e11b815260048101849052839030908190636352211e90602401602060405180830381865afa158015610c44573d6000803e3d6000fd5b505050506040513d601f19601f82011682018060405250810190610c689190612f65565b6001600160a01b0316336001600160a01b031614610c995760405163aee05b5d60e01b815260040160405180910390fd5b83801580610cb557506000805160206132208339815191525481115b15610cd35760405163d751397d60e01b815260040160405180910390fd5b600080516020613220833981519152857ff672b8dc84d117c1e14949d8bc3977392b5ab7de9d01b854d389cdc31bf0d43a6000610d136020890189612ec9565b6001600160a01b03166001600160a01b031681526020019081526020016000206000876020013581526020019081526020016000205414610d675760405163711f88b160e11b815260040160405180910390fd5b60008781526003820160209081526040808320898452825280832060018086019093529220015460ff168015610da6575080546001600160a01b031615155b15610dc45760405163bd8a5e1560e01b815260040160405180910390fd5b610dce88886122e1565b6000610ddd6020880188612ec9565b604051627eeac760e11b8152336004820152602089013560248201529091506001906001600160a01b0383169062fdd58e90604401602060405180830381865afa158015610e2f573d6000803e3d6000fd5b505050506040513d601f19601f82011682018060405250810190610e539190612f82565b1015610e72576040516335ba250d60e11b815260040160405180910390fd5b610e7f6020880188612ec9565b82546001600160a01b039081169116148015610ea2575086602001358260010154145b15610ec05760405163c80df0cb60e01b815260040160405180910390fd5b604051637921219560e11b81526001600160a01b0382169063f242432a90610ef7903390309060208d013590600190600401612f9b565b600060405180830381600087803b158015610f1157600080fd5b505af1158015610f25573d6000803e3d6000fd5b50505060008a815260038501602090815260408083208c84529091529020889150610f508282612f2b565b905050610f5c896123d8565b610f785760405162ecf30560e51b815260040160405180910390fd5b604080516001808252818301909252600091602080830190803683370190505090508881600081518110610fae57610fae612ee6565b60200260200101818152505089336001600160a01b03167f557dc03f902756383ba5a748ab63ec6ec44b2880dba84ad33dc6ffe670f1886183604051610ff49190612fd3565b60405180910390a350505050505050505050565b60408051808201909152600080825260208201528280158061103857506000805160206132208339815191525481115b156110565760405163d751397d60e01b815260040160405180910390fd5b60008481527ff672b8dc84d117c1e14949d8bc3977392b5ab7de9d01b854d389cdc31bf0d43b6020526040902080548490811061109557611095612ee6565b60009182526020918290206040805180820190915260029092020180546001600160a01b03168252600101549181019190915291505b5092915050565b60008390036110f457604051635740c67760e11b815260040160405180910390fd5b828114611114576040516303f7219d60e41b815260040160405180910390fd5b600080516020613220833981519152805460005b858110156114c857600087878381811061114457611144612ee6565b90506020020135905080600014801561115c57508281115b1561117a5760405163d751397d60e01b815260040160405180910390fd5b8084600401600088888681811061119357611193612ee6565b6111a99260206040909202019081019150612ec9565b6001600160a01b03166001600160a01b0316815260200190815260200160002060008888868181106111dd576111dd612ee6565b90506040020160200135815260200190815260200160002054146112145760405163711f88b160e11b815260040160405180910390fd5b60008981526003850160209081526040808320848452909152902086868481811061124157611241612ee6565b6112579260206040909202019081019150612ec9565b81546001600160a01b039081169116148015611291575086868481811061128057611280612ee6565b905060400201602001358160010154145b156112af5760405163c80df0cb60e01b815260040160405180910390fd5b600082815260018087016020526040909120015460ff1680156112db575080546001600160a01b031615155b156112f95760405163bd8a5e1560e01b815260040160405180910390fd5b6113038a836122e1565b86868481811061131557611315612ee6565b60008d81526003890160209081526040808320888452909152908190209102929092019190506113458282612f2b565b905050600087878581811061135c5761135c612ee6565b6113729260206040909202019081019150612ec9565b90506001816001600160a01b031662fdd58e338b8b8981811061139757611397612ee6565b905060400201602001356040518363ffffffff1660e01b81526004016113d29291906001600160a01b03929092168252602082015260400190565b602060405180830381865afa1580156113ef573d6000803e3d6000fd5b505050506040513d601f19601f820116820180604052508101906114139190612f82565b1015611432576040516335ba250d60e11b815260040160405180910390fd5b806001600160a01b031663f242432a33308b8b8981811061145557611455612ee6565b9050604002016020013560016040518563ffffffff1660e01b81526004016114809493929190612f9b565b600060405180830381600087803b15801561149a57600080fd5b505af11580156114ae573d6000803e3d6000fd5b5050505050505080806114c090612f12565b915050611128565b506114d2876123d8565b6114ee5760405162ecf30560e51b815260040160405180910390fd5b86336001600160a01b03167f557dc03f902756383ba5a748ab63ec6ec44b2880dba84ad33dc6ffe670f18861888860405161152a92919061300b565b60405180910390a350505050505050565b60006000805160206132208339815191526106fc565b600080516020613220833981519152805460609190806001600160401b0381111561157e5761157e612c56565b6040519080825280602002602001820160405280156115dc57816020015b6115c960405180606001604052806000815260200160006001600160a01b03168152602001600081525090565b81526020019060019003908161159c5790505b50925060005b818110156116755760006115f7826001613044565b60008781526003860160209081526040808320848452825291829020825160608101845284815281546001600160a01b0316928101929092526001810154928201929092528751929350909187908590811061165557611655612ee6565b60200260200101819052505050808061166d90612f12565b9150506115e2565b505050919050565b600083821461169f576040516303f7219d60e41b815260040160405180910390fd5b60008080527ff672b8dc84d117c1e14949d8bc3977392b5ab7de9d01b854d389cdc31bf0d438602052600080516020613220833981519152907f845ff02802177e9909faef63e536d995d5be20fadd26c667f4235942a02dfdd9906117038261251f565b90506000816001600160401b0381111561171f5761171f612c56565b604051908082528060200260200182016040528015611748578160200160208202803683370190505b5090506000826001600160401b0381111561176557611765612c56565b6040519080825280602002602001820160405280156117aa57816020015b60408051808201909152600080825260208201528152602001906001900390816117835790505b50855490915060005b848110156118575760006117c78783612529565b9050808583815181106117dc576117dc612ee6565b60209081029190910181019190915260008f815260038a0182526040808220848352835290819020815180830190925280546001600160a01b031682526001015491810191909152845185908490811061183857611838612ee6565b602002602001018190525050808061184f90612f12565b9150506117b3565b5060005b8a8110156119395760008c8c8381811061187757611877612ee6565b90506020020135905080600014801561188f57508281115b156118ad5760405163d751397d60e01b815260040160405180910390fd5b6118b78782612535565b6118c15750611927565b808583815181106118d4576118d4612ee6565b6020026020010181815250508a8a838181106118f2576118f2612ee6565b9050604002018036038101906119089190613057565b84838151811061191a5761191a612ee6565b6020026020010181905250505b8061193181612f12565b91505061185b565b50606060005b84518110156119d6578185828151811061195b5761195b612ee6565b602002602001015185838151811061197557611975612ee6565b60200260200101516000015186848151811061199357611993612ee6565b6020026020010151602001516040516020016119b294939291906130d2565b604051602081830303815290604052915080806119ce90612f12565b91505061193f565b50805160208201206119ec906006890190612535565b159d9c50505050505050505050505050565b600080516020613220833981519152805460609190806001600160401b03811115611a2b57611a2b612c56565b604051908082528060200260200182016040528015611a7d57816020015b611a6a60408051606081018252600080825260208201819052909182015290565b815260200190600190039081611a495790505b50925060005b81811015611b32576000611a98826001613044565b6000818152600180870160209081526040928390208351606081018552815481529281015460ff808216151593850193909352949550919391928401916101009004166002811115611aec57611aec612aec565b6002811115611afd57611afd612aec565b81525050858381518110611b1357611b13612ee6565b6020026020010181905250508080611b2a90612f12565b915050611a83565b50505090565b6040516331a9108f60e11b815260048101839052829030908190636352211e90602401602060405180830381865afa158015611b78573d6000803e3d6000fd5b505050506040513d601f19601f82011682018060405250810190611b9c9190612f65565b6001600160a01b0316336001600160a01b031614611bcd5760405163aee05b5d60e01b815260040160405180910390fd5b82801580611be957506000805160206132208339815191525481115b15611c075760405163d751397d60e01b815260040160405180910390fd5b60008481527ff672b8dc84d117c1e14949d8bc3977392b5ab7de9d01b854d389cdc31bf0d43760205260409020600101546000805160206132208339815191529060ff1615611c695760405163bd8a5e1560e01b815260040160405180910390fd5b600086815260038201602090815260408083208884529091529020546001600160a01b0316611cab57604051632755285560e01b815260040160405180910390fd5b611cb586866122e1565b611cbe866123d8565b50604080516001808252818301909252600091602080830190803683370190505090508581600081518110611cf557611cf5612ee6565b60200260200101818152505086336001600160a01b03167f3822f2cd6d118934e31e6171da74d9d46131fb402be1861b3cb4460440aeab638360405161152a9190612fd3565b6040516331a9108f60e11b815260048101849052839030908190636352211e90602401602060405180830381865afa158015611d7b573d6000803e3d6000fd5b505050506040513d601f19601f82011682018060405250810190611d9f9190612f65565b6001600160a01b0316336001600160a01b031614611dd05760405163aee05b5d60e01b815260040160405180910390fd5b6000839003611df257604051635740c67760e11b815260040160405180910390fd5b600080516020613220833981519152805460005b85811015611eeb576000878783818110611e2257611e22612ee6565b9050602002013590508060001480611e3957508281115b15611e575760405163d751397d60e01b815260040160405180910390fd5b600081815260018086016020526040909120015460ff1615611e8c5760405163bd8a5e1560e01b815260040160405180910390fd5b600089815260038501602090815260408083208484529091529020546001600160a01b0316611ece57604051632755285560e01b815260040160405180910390fd5b611ed889826122e1565b5080611ee381612f12565b915050611e06565b50611ef5876123d8565b5086336001600160a01b03167f3822f2cd6d118934e31e6171da74d9d46131fb402be1861b3cb4460440aeab63888860405161152a92919061300b565b60008051602061322083398151915280546001908290600090611f56908490613044565b9091555050805460008181526001808401602052604090912001805460ff198116881515908117835587929161ffff191661ff001990911617610100836002811115611fa457611fa4612aec565b0217905550600081815260018301602052604090208190558215611fcd57611fcd81858561086d565b336001600160a01b03167fc1ea46ff33b3d61e148e5bff5dfe54ccae9db30b899a3e7645618fb1e3d9dc1182888860405161200a93929190613113565b60405180910390a2505050505050565b61204760405180606001604052806000815260200160006001600160a01b03168152602001600081525090565b5060009182527ff672b8dc84d117c1e14949d8bc3977392b5ab7de9d01b854d389cdc31bf0d43960209081526040808420838552825292839020835160608101855292835280546001600160a01b031691830191909152600101549181019190915290565b6120b6828261254d565b612117576120cc816001600160a01b0316612584565b6120d7836020612596565b6040516020016120e8929190613137565b60408051601f198184030181529082905262461bcd60e51b825261210e916004016131ac565b60405180910390fd5b5050565b60008051602061322083398151915260005b6000848152600583016020526040902054811015612283578260200135826005016000868152602001908152602001600020828154811061217057612170612ee6565b90600052602060002090600202016001015403612271576000848152600583016020526040902080546121a5906001906131df565b815481106121b5576121b5612ee6565b906000526020600020906002020182600501600086815260200190815260200160002082815481106121e9576121e9612ee6565b60009182526020808320845460029093020180546001600160a01b0319166001600160a01b0390931692909217825560019384015493909101929092558581526005840190915260409020805480612243576122436131f2565b60008281526020812060026000199093019283020180546001600160a01b0319168155600101559055612283565b8061227b81612f12565b91505061212d565b506004810160006122976020850185612ec9565b6001600160a01b03166001600160a01b0316815260200190815260200160002060008360200135815260200190815260200160002060009055505050565b600061042383836126e8565b60008281527ff672b8dc84d117c1e14949d8bc3977392b5ab7de9d01b854d389cdc31bf0d439602090815260408083208484529091529020805460008051602061322083398151915291906001600160a01b031680612341575050505050565b600180830154604051637921219560e11b81526001600160a01b0384169263f242432a92612376923092339291600401612f9b565b600060405180830381600087803b15801561239057600080fd5b505af11580156123a4573d6000803e3d6000fd5b505050600095865250505060030160209081526040808420928452919052812080546001600160a01b031916815560010155565b60008080527ff672b8dc84d117c1e14949d8bc3977392b5ab7de9d01b854d389cdc31bf0d4386020526000805160206132208339815191527f845ff02802177e9909faef63e536d995d5be20fadd26c667f4235942a02dfdd960608361243d8361251f565b905060005b818110156124be5760006124568583612529565b60008981526003880160209081526040808320848452825291829020805460018201549351949550909361249893899387936001600160a01b031692016130d2565b6040516020818303038152906040529450505080806124b690612f12565b915050612442565b50815160208301206124d36006860182612535565b6000888152600887016020526040902054901596506124f690600687019061272b565b5061250460068601826122d5565b50600096875260089094016020525050604090932055919050565b6000610358825490565b60006104238383612737565b60008181526001830160205260408120541515610423565b60008281527fd3889cc5458b268d0544e5534672df1296288ca3f93cbd39bd6f497a5c622811602052604081206104239083612783565b60606103586001600160a01b03831660145b606060006125a5836002613208565b6125b0906002613044565b6001600160401b038111156125c7576125c7612c56565b6040519080825280601f01601f1916602001820160405280156125f1576020820181803683370190505b509050600360fc1b8160008151811061260c5761260c612ee6565b60200101906001600160f81b031916908160001a905350600f60fb1b8160018151811061263b5761263b612ee6565b60200101906001600160f81b031916908160001a905350600160028402015b60018111156126c8576f181899199a1a9b1b9c1cb0b131b232b360811b85600f166010811061268b5761268b612ee6565b1a60f81b8282815181106126a1576126a1612ee6565b60200101906001600160f81b031916908160001a90535060049490941c936000190161265a565b5083156104235760405163c913478560e01b815260040160405180910390fd5b6000818152600183016020526040812054610358575081546001808201845560008481526020808220909301849055845493815293810190915260409092205590565b600061042383836127a5565b8154600090821061275b5760405163e637bf3b60e01b815260040160405180910390fd5b82600001828154811061277057612770612ee6565b9060005260206000200154905092915050565b6001600160a01b03811660009081526001830160205260408120541515610423565b600081815260018301602052604081205480156110cb578354600090859060001981019081106127d7576127d7612ee6565b90600052602060002001549050808560000160018403815481106127fd576127fd612ee6565b600091825260208083209091019290925591825260018601905260409020819055835484908061282f5761282f6131f2565b60008281526020808220830160001990810183905590920190925593815260019485019093525050604081205590565b60006020828403121561287157600080fd5b81356001600160e01b03198116811461042357600080fd5b60006040828403121561289b57600080fd5b50919050565b6000604082840312156128b357600080fd5b6104238383612889565b60008083601f8401126128cf57600080fd5b5081356001600160401b038111156128e657600080fd5b6020830191508360208260061b850101111561290157600080fd5b9250929050565b60008060006040848603121561291d57600080fd5b8335925060208401356001600160401b0381111561293a57600080fd5b612946868287016128bd565b9497909650939450505050565b60006020828403121561296557600080fd5b5035919050565b60008060006080848603121561298157600080fd5b83359250602084013591506129998560408601612889565b90509250925092565b600080604083850312156129b557600080fd5b50508035926020909101359150565b60008083601f8401126129d657600080fd5b5081356001600160401b038111156129ed57600080fd5b6020830191508360208260051b850101111561290157600080fd5b600080600080600060608688031215612a2057600080fd5b8535945060208601356001600160401b0380821115612a3e57600080fd5b612a4a89838a016129c4565b90965094506040880135915080821115612a6357600080fd5b50612a70888289016128bd565b969995985093965092949392505050565b6020808252825182820181905260009190848201906040850190845b81811015612ae057612acd838551805182526020808201516001600160a01b031690830152604090810151910152565b9284019260609290920191600101612a9d565b50909695505050505050565b634e487b7160e01b600052602160045260246000fd5b60038110612b2057634e487b7160e01b600052602160045260246000fd5b9052565b8051825260208101511515602083015260408101516103846040840182612b02565b6020808252825182820181905260009190848201906040850190845b81811015612ae057612b75838551612b24565b9284019260609290920191600101612b62565b606081016103588284612b24565b600080600060408486031215612bab57600080fd5b8335925060208401356001600160401b03811115612bc857600080fd5b612946868287016129c4565b60008060008060608587031215612bea57600080fd5b84358015158114612bfa57600080fd5b9350602085013560038110612c0e57600080fd5b925060408501356001600160401b03811115612c2957600080fd5b612c35878288016128bd565b95989497509550505050565b6001600160a01b038116811461070c57600080fd5b634e487b7160e01b600052604160045260246000fd5b604051601f8201601f191681016001600160401b0381118282101715612c9457612c94612c56565b604052919050565b600082601f830112612cad57600080fd5b813560206001600160401b03821115612cc857612cc8612c56565b8160051b612cd7828201612c6c565b9283528481018201928281019087851115612cf157600080fd5b83870192505b84831015612d1057823582529183019190830190612cf7565b979650505050505050565b600082601f830112612d2c57600080fd5b81356001600160401b03811115612d4557612d45612c56565b612d58601f8201601f1916602001612c6c565b818152846020838601011115612d6d57600080fd5b816020850160208301376000918101602001919091529392505050565b600080600080600060a08688031215612da257600080fd5b8535612dad81612c41565b94506020860135612dbd81612c41565b935060408601356001600160401b0380821115612dd957600080fd5b612de589838a01612c9c565b94506060880135915080821115612dfb57600080fd5b612e0789838a01612c9c565b93506080880135915080821115612e1d57600080fd5b50612e2a88828901612d1b565b9150509295509295909350565b815181526020808301516001600160a01b0316908201526040808301519082015260608101610358565b600080600080600060a08688031215612e7957600080fd5b8535612e8481612c41565b94506020860135612e9481612c41565b9350604086013592506060860135915060808601356001600160401b03811115612ebd57600080fd5b612e2a88828901612d1b565b600060208284031215612edb57600080fd5b813561042381612c41565b634e487b7160e01b600052603260045260246000fd5b634e487b7160e01b600052601160045260246000fd5b600060018201612f2457612f24612efc565b5060010190565b8135612f3681612c41565b6001600160a01b0381166bffffffffffffffffffffffff60a01b83541617825550602082013560018201555050565b600060208284031215612f7757600080fd5b815161042381612c41565b600060208284031215612f9457600080fd5b5051919050565b6001600160a01b0394851681529290931660208301526040820152606081019190915260a06080820181905260009082015260c00190565b6020808252825182820181905260009190848201906040850190845b81811015612ae057835183529284019291840191600101612fef565b6020808252810182905260006001600160fb1b0383111561302b57600080fd5b8260051b80856040850137919091016040019392505050565b8082018082111561035857610358612efc565b60006040828403121561306957600080fd5b604051604081018181106001600160401b038211171561308b5761308b612c56565b604052823561309981612c41565b81526020928301359281019290925250919050565b60005b838110156130c95781810151838201526020016130b1565b50506000910152565b600085516130e4818460208a016130ae565b919091019384525060609190911b6bffffffffffffffffffffffff191660208301526034820152605401919050565b83815282151560208201526060810161312f6040830184612b02565b949350505050565b7f416363657373436f6e74726f6c3a206163636f756e742000000000000000000081526000835161316f8160178501602088016130ae565b7001034b99036b4b9b9b4b733903937b6329607d1b60179184019182015283516131a08160288401602088016130ae565b01602801949350505050565b60208152600082518060208401526131cb8160408501602087016130ae565b601f01601f19169190910160400192915050565b8181038181111561035857610358612efc565b634e487b7160e01b600052603160045260246000fd5b808202811582820484141761035857610358612efc56fef672b8dc84d117c1e14949d8bc3977392b5ab7de9d01b854d389cdc31bf0d436a2646970667358221220f1e75d851b7e2048e626312901c39ad8e7925931938fdc5b3b500e3ce9aa200f64736f6c63430008130033",
  "devdoc": {
    "details": "This contract is responsible for managing the inventory system for the Arcadians using slots.  It defines the functionality to equip and unequip items to Arcadians, check if a combination of items  are unique, and retrieve the inventory slots and allowed items for a slot.  This contract also implements ERC1155Holder to handle ERC1155 token transfers This contract can be used as a facet of a diamond which follows the EIP-2535 diamond standard. It also uses the ReentrancyGuard and Multicall contracts for security and gas efficiency.",
    "kind": "dev",
    "methods": {
      "allowItemsInSlot(uint256,(address,uint256)[])": {
        "params": {
          "items": "The list of items to allow in the slot",
          "slotId": "The slot id"
        }
      },
      "allowedItem(uint256,uint256)": {
        "params": {
          "index": "The index of the item",
          "slotId": "The slot id to query"
        },
        "returns": {
          "_0": "A list of all the items that are allowed in the slot"
        }
      },
      "allowedSlot((address,uint256))": {
        "params": {
          "item": "The item to check"
        },
        "returns": {
          "_0": "The allowed slot id for the item. Slots are 1-indexed."
        }
      },
      "createSlot(bool,uint8,(address,uint256)[])": {
        "details": "This function is only accessible to the manager roleSlots are 1-indexed",
        "params": {
          "category": "The category of the slot",
          "items": "The list of items to allow in the slot",
          "permanent": "Whether or not the slot can be unequipped once equipped"
        }
      },
      "disallowItemsInSlot(uint256,(address,uint256)[])": {
        "params": {
          "items": "The list of items to disallow in the slot",
          "slotId": "The ID of the inventory slot"
        }
      },
      "equip(uint256,uint256,(address,uint256))": {
        "params": {
          "arcadianId": "The ID of the Arcadian NFT to equip the item for",
          "item": "The item to equip in the slot",
          "slotId": "The slot id in which the items will be equipped"
        }
      },
      "equipBatch(uint256,uint256[],(address,uint256)[])": {
        "params": {
          "arcadianId": "The ID of the Arcadian NFT to equip the items for",
          "items": "An array of items to equip in the corresponding slots",
          "slotsIds": "An array of slot ids to equip the items"
        }
      },
      "equipped(uint256,uint256)": {
        "params": {
          "arcadianId": "The ID of the Arcadian NFT to query",
          "slotId": "The slot id to query"
        }
      },
      "equippedAll(uint256)": {
        "params": {
          "arcadianId": "The ID of the Arcadian NFT to query"
        }
      },
      "isArcadianUnique(uint256,uint256[],(address,uint256)[])": {
        "details": "The uniqueness is calculated using the existent arcadian items and the input items as wellOnly items equipped in 'base' category slots are considered for uniqueness",
        "params": {
          "arcadianId": "The ID of the Arcadian NFT to query",
          "items": "An array of items to check for uniqueness after \"equipped\" over the existent arcadian items.",
          "slotsIds": "An array of slot ids"
        }
      },
      "numAllowedItems(uint256)": {
        "params": {
          "slotId": "The slot id to check"
        },
        "returns": {
          "_0": "A list of all the items that are allowed in the slot"
        }
      },
      "numSlots()": {
        "details": "Slots are 1-indexed",
        "returns": {
          "_0": "The number of inventory slots "
        }
      },
      "slot(uint256)": {
        "details": "Slots are 1-indexed",
        "params": {
          "slotId": "The ID of the inventory slot"
        },
        "returns": {
          "existentSlot": "The details of the inventory slot"
        }
      },
      "slotsAll()": {
        "details": "Slots are 1-indexed",
        "returns": {
          "existentSlots": "The details of all the inventory slots"
        }
      },
      "supportsInterface(bytes4)": {
        "details": "See {IERC165-supportsInterface}."
      },
      "unequip(uint256,uint256)": {
        "params": {
          "arcadianId": "The ID of the Arcadian NFT to equip the item for",
          "slotId": "The slot id in which the item will be unequipped"
        }
      },
      "unequipBatch(uint256,uint256[])": {
        "params": {
          "arcadianId": "The ID of the Arcadian NFT to equip the item for",
          "slotIds": "The slots ids in which the items will be unequipped"
        }
      }
    },
    "title": "InventoryFacet",
    "version": 1
  },
  "userdoc": {
    "kind": "user",
    "methods": {
      "allowItemsInSlot(uint256,(address,uint256)[])": {
        "notice": "Adds items to the list of allowed items for an inventory slot"
      },
      "allowedItem(uint256,uint256)": {
        "notice": "Returns the allowed item for a given slot and the index"
      },
      "allowedSlot((address,uint256))": {
        "notice": "Returns the allowed slot for a given item"
      },
      "createSlot(bool,uint8,(address,uint256)[])": {
        "notice": "Creates a new inventory slot"
      },
      "disallowItemsInSlot(uint256,(address,uint256)[])": {
        "notice": "Removes items from the list of allowed items"
      },
      "equip(uint256,uint256,(address,uint256))": {
        "notice": "Equips a single item to a given slot for a specified Arcadian NFT"
      },
      "equipBatch(uint256,uint256[],(address,uint256)[])": {
        "notice": "Equips multiple items to multiple slots for a specified Arcadian NFT"
      },
      "equipped(uint256,uint256)": {
        "notice": "Retrieves the equipped item in a slot for a specified Arcadian NFT"
      },
      "equippedAll(uint256)": {
        "notice": "Retrieves all the equipped items for a specified Arcadian NFT"
      },
      "isArcadianUnique(uint256,uint256[],(address,uint256)[])": {
        "notice": "Indicates if a list of items applied to an the arcadian is unique"
      },
      "numAllowedItems(uint256)": {
        "notice": "Returns the number of allowed items for a given slot"
      },
      "numSlots()": {
        "notice": "Returns the number of inventory slots"
      },
      "slot(uint256)": {
        "notice": "Returns the details of an inventory slot given its ID"
      },
      "slotsAll()": {
        "notice": "Returns the details of all the existent slots"
      },
      "unequip(uint256,uint256)": {
        "notice": "Unequips the item equipped in a given slot for a specified Arcadian NFT"
      },
      "unequipBatch(uint256,uint256[])": {
        "notice": "Unequips the items equipped in multiple slots for a specified Arcadian NFT"
      }
    },
    "version": 1
  },
  "storageLayout": {
    "storage": [],
    "types": null
  }
}