{
  "address": "0x6e3479b8Bf60463FB587024f66838160FFa7DC51",
  "abi": [
    {
      "inputs": [],
      "name": "EnumerableSet__IndexOutOfBounds",
      "type": "error"
    },
    {
      "inputs": [],
      "name": "ReentrancyGuard__ReentrantCall",
      "type": "error"
    },
    {
      "inputs": [],
      "name": "UintUtils__InsufficientHexLength",
      "type": "error"
    },
    {
      "anonymous": false,
      "inputs": [
        {
          "indexed": true,
          "internalType": "address",
          "name": "oldArcadiansAddress",
          "type": "address"
        },
        {
          "indexed": true,
          "internalType": "address",
          "name": "newArcadiansAddress",
          "type": "address"
        }
      ],
      "name": "ArcadiansAddressChanged",
      "type": "event"
    },
    {
      "anonymous": false,
      "inputs": [
        {
          "indexed": true,
          "internalType": "address",
          "name": "by",
          "type": "address"
        },
        {
          "indexed": false,
          "internalType": "uint256",
          "name": "slotId",
          "type": "uint256"
        }
      ],
      "name": "ItemsAllowedInSlotUpdated",
      "type": "event"
    },
    {
      "anonymous": false,
      "inputs": [
        {
          "indexed": true,
          "internalType": "address",
          "name": "by",
          "type": "address"
        },
        {
          "indexed": true,
          "internalType": "uint256",
          "name": "arcadianId",
          "type": "uint256"
        },
        {
          "indexed": false,
          "internalType": "uint256[]",
          "name": "slots",
          "type": "uint256[]"
        }
      ],
      "name": "ItemsEquipped",
      "type": "event"
    },
    {
      "anonymous": false,
      "inputs": [
        {
          "indexed": true,
          "internalType": "address",
          "name": "by",
          "type": "address"
        },
        {
          "indexed": true,
          "internalType": "uint256",
          "name": "arcadianId",
          "type": "uint256"
        },
        {
          "indexed": false,
          "internalType": "uint256[]",
          "name": "slots",
          "type": "uint256[]"
        }
      ],
      "name": "ItemsUnequipped",
      "type": "event"
    },
    {
      "anonymous": false,
      "inputs": [
        {
          "indexed": true,
          "internalType": "bytes32",
          "name": "role",
          "type": "bytes32"
        },
        {
          "indexed": true,
          "internalType": "bytes32",
          "name": "previousAdminRole",
          "type": "bytes32"
        },
        {
          "indexed": true,
          "internalType": "bytes32",
          "name": "newAdminRole",
          "type": "bytes32"
        }
      ],
      "name": "RoleAdminChanged",
      "type": "event"
    },
    {
      "anonymous": false,
      "inputs": [
        {
          "indexed": true,
          "internalType": "bytes32",
          "name": "role",
          "type": "bytes32"
        },
        {
          "indexed": true,
          "internalType": "address",
          "name": "account",
          "type": "address"
        },
        {
          "indexed": true,
          "internalType": "address",
          "name": "sender",
          "type": "address"
        }
      ],
      "name": "RoleGranted",
      "type": "event"
    },
    {
      "anonymous": false,
      "inputs": [
        {
          "indexed": true,
          "internalType": "bytes32",
          "name": "role",
          "type": "bytes32"
        },
        {
          "indexed": true,
          "internalType": "address",
          "name": "account",
          "type": "address"
        },
        {
          "indexed": true,
          "internalType": "address",
          "name": "sender",
          "type": "address"
        }
      ],
      "name": "RoleRevoked",
      "type": "event"
    },
    {
      "anonymous": false,
      "inputs": [
        {
          "indexed": true,
          "internalType": "address",
          "name": "by",
          "type": "address"
        },
        {
          "indexed": false,
          "internalType": "uint256",
          "name": "slotId",
          "type": "uint256"
        },
        {
          "indexed": false,
          "internalType": "bool",
          "name": "unequippable",
          "type": "bool"
        },
        {
          "indexed": false,
          "internalType": "enum InventoryStorage.SlotCategory",
          "name": "category",
          "type": "uint8"
        }
      ],
      "name": "SlotCreated",
      "type": "event"
    },
    {
      "inputs": [
        {
          "internalType": "uint256",
          "name": "slotId",
          "type": "uint256"
        },
        {
          "components": [
            {
              "internalType": "address",
              "name": "contractAddress",
              "type": "address"
            },
            {
              "internalType": "uint256",
              "name": "id",
              "type": "uint256"
            }
          ],
          "internalType": "struct InventoryStorage.Item[]",
          "name": "items",
          "type": "tuple[]"
        }
      ],
      "name": "allowItemsInSlot",
      "outputs": [],
      "stateMutability": "nonpayable",
      "type": "function"
    },
    {
      "inputs": [
        {
          "internalType": "uint256",
          "name": "slotId",
          "type": "uint256"
        }
      ],
      "name": "allowedItems",
      "outputs": [
        {
          "components": [
            {
              "internalType": "address",
              "name": "contractAddress",
              "type": "address"
            },
            {
              "internalType": "uint256",
              "name": "id",
              "type": "uint256"
            }
          ],
          "internalType": "struct InventoryStorage.Item[]",
          "name": "",
          "type": "tuple[]"
        }
      ],
      "stateMutability": "view",
      "type": "function"
    },
    {
      "inputs": [
        {
          "components": [
            {
              "internalType": "address",
              "name": "contractAddress",
              "type": "address"
            },
            {
              "internalType": "uint256",
              "name": "id",
              "type": "uint256"
            }
          ],
          "internalType": "struct InventoryStorage.Item",
          "name": "item",
          "type": "tuple"
        }
      ],
      "name": "allowedSlot",
      "outputs": [
        {
          "internalType": "uint256",
          "name": "",
          "type": "uint256"
        }
      ],
      "stateMutability": "view",
      "type": "function"
    },
    {
      "inputs": [
        {
          "internalType": "bool",
          "name": "unequippable",
          "type": "bool"
        },
        {
          "internalType": "enum InventoryStorage.SlotCategory",
          "name": "category",
          "type": "uint8"
        },
        {
          "components": [
            {
              "internalType": "address",
              "name": "contractAddress",
              "type": "address"
            },
            {
              "internalType": "uint256",
              "name": "id",
              "type": "uint256"
            }
          ],
          "internalType": "struct InventoryStorage.Item[]",
          "name": "items",
          "type": "tuple[]"
        }
      ],
      "name": "createSlot",
      "outputs": [],
      "stateMutability": "nonpayable",
      "type": "function"
    },
    {
      "inputs": [
        {
          "internalType": "uint256",
          "name": "slotId",
          "type": "uint256"
        },
        {
          "components": [
            {
              "internalType": "address",
              "name": "contractAddress",
              "type": "address"
            },
            {
              "internalType": "uint256",
              "name": "id",
              "type": "uint256"
            }
          ],
          "internalType": "struct InventoryStorage.Item[]",
          "name": "items",
          "type": "tuple[]"
        }
      ],
      "name": "disallowItemsInSlot",
      "outputs": [],
      "stateMutability": "nonpayable",
      "type": "function"
    },
    {
      "inputs": [
        {
          "internalType": "uint256",
          "name": "arcadianId",
          "type": "uint256"
        },
        {
          "internalType": "uint256",
          "name": "slotId",
          "type": "uint256"
        },
        {
          "components": [
            {
              "internalType": "address",
              "name": "contractAddress",
              "type": "address"
            },
            {
              "internalType": "uint256",
              "name": "id",
              "type": "uint256"
            }
          ],
          "internalType": "struct InventoryStorage.Item",
          "name": "item",
          "type": "tuple"
        }
      ],
      "name": "equip",
      "outputs": [],
      "stateMutability": "nonpayable",
      "type": "function"
    },
    {
      "inputs": [
        {
          "internalType": "uint256",
          "name": "arcadianId",
          "type": "uint256"
        },
        {
          "internalType": "uint256[]",
          "name": "slotsIds",
          "type": "uint256[]"
        },
        {
          "components": [
            {
              "internalType": "address",
              "name": "contractAddress",
              "type": "address"
            },
            {
              "internalType": "uint256",
              "name": "id",
              "type": "uint256"
            }
          ],
          "internalType": "struct InventoryStorage.Item[]",
          "name": "items",
          "type": "tuple[]"
        }
      ],
      "name": "equipBatch",
      "outputs": [],
      "stateMutability": "nonpayable",
      "type": "function"
    },
    {
      "inputs": [
        {
          "internalType": "uint256",
          "name": "arcadianId",
          "type": "uint256"
        },
        {
          "internalType": "uint256",
          "name": "slotId",
          "type": "uint256"
        }
      ],
      "name": "equipped",
      "outputs": [
        {
          "components": [
            {
              "internalType": "uint256",
              "name": "slotId",
              "type": "uint256"
            },
            {
              "internalType": "address",
              "name": "contractAddress",
              "type": "address"
            },
            {
              "internalType": "uint256",
              "name": "itemId",
              "type": "uint256"
            }
          ],
          "internalType": "struct InventoryInternal.ItemInSlot",
          "name": "item",
          "type": "tuple"
        }
      ],
      "stateMutability": "view",
      "type": "function"
    },
    {
      "inputs": [
        {
          "internalType": "uint256",
          "name": "arcadianId",
          "type": "uint256"
        }
      ],
      "name": "equippedAll",
      "outputs": [
        {
          "components": [
            {
              "internalType": "uint256",
              "name": "slotId",
              "type": "uint256"
            },
            {
              "internalType": "address",
              "name": "contractAddress",
              "type": "address"
            },
            {
              "internalType": "uint256",
              "name": "itemId",
              "type": "uint256"
            }
          ],
          "internalType": "struct InventoryInternal.ItemInSlot[]",
          "name": "equippedSlot",
          "type": "tuple[]"
        }
      ],
      "stateMutability": "view",
      "type": "function"
    },
    {
      "inputs": [
        {
          "internalType": "uint256",
          "name": "arcadianId",
          "type": "uint256"
        },
        {
          "internalType": "uint256[]",
          "name": "slotsIds",
          "type": "uint256[]"
        },
        {
          "components": [
            {
              "internalType": "address",
              "name": "contractAddress",
              "type": "address"
            },
            {
              "internalType": "uint256",
              "name": "id",
              "type": "uint256"
            }
          ],
          "internalType": "struct InventoryStorage.Item[]",
          "name": "items",
          "type": "tuple[]"
        }
      ],
      "name": "isArcadianUnique",
      "outputs": [
        {
          "internalType": "bool",
          "name": "",
          "type": "bool"
        }
      ],
      "stateMutability": "view",
      "type": "function"
    },
    {
      "inputs": [],
      "name": "numSlots",
      "outputs": [
        {
          "internalType": "uint256",
          "name": "",
          "type": "uint256"
        }
      ],
      "stateMutability": "view",
      "type": "function"
    },
    {
      "inputs": [
        {
          "internalType": "address",
          "name": "",
          "type": "address"
        },
        {
          "internalType": "address",
          "name": "",
          "type": "address"
        },
        {
          "internalType": "uint256[]",
          "name": "",
          "type": "uint256[]"
        },
        {
          "internalType": "uint256[]",
          "name": "",
          "type": "uint256[]"
        },
        {
          "internalType": "bytes",
          "name": "",
          "type": "bytes"
        }
      ],
      "name": "onERC1155BatchReceived",
      "outputs": [
        {
          "internalType": "bytes4",
          "name": "",
          "type": "bytes4"
        }
      ],
      "stateMutability": "nonpayable",
      "type": "function"
    },
    {
      "inputs": [
        {
          "internalType": "address",
          "name": "",
          "type": "address"
        },
        {
          "internalType": "address",
          "name": "",
          "type": "address"
        },
        {
          "internalType": "uint256",
          "name": "",
          "type": "uint256"
        },
        {
          "internalType": "uint256",
          "name": "",
          "type": "uint256"
        },
        {
          "internalType": "bytes",
          "name": "",
          "type": "bytes"
        }
      ],
      "name": "onERC1155Received",
      "outputs": [
        {
          "internalType": "bytes4",
          "name": "",
          "type": "bytes4"
        }
      ],
      "stateMutability": "nonpayable",
      "type": "function"
    },
    {
      "inputs": [
        {
          "internalType": "uint256",
          "name": "slotId",
          "type": "uint256"
        }
      ],
      "name": "slot",
      "outputs": [
        {
          "components": [
            {
              "internalType": "uint256",
              "name": "id",
              "type": "uint256"
            },
            {
              "internalType": "bool",
              "name": "unequippable",
              "type": "bool"
            },
            {
              "internalType": "enum InventoryStorage.SlotCategory",
              "name": "category",
              "type": "uint8"
            },
            {
              "components": [
                {
                  "internalType": "address",
                  "name": "contractAddress",
                  "type": "address"
                },
                {
                  "internalType": "uint256",
                  "name": "id",
                  "type": "uint256"
                }
              ],
              "internalType": "struct InventoryStorage.Item[]",
              "name": "allowedItems",
              "type": "tuple[]"
            }
          ],
          "internalType": "struct InventoryStorage.Slot",
          "name": "existentSlot",
          "type": "tuple"
        }
      ],
      "stateMutability": "view",
      "type": "function"
    },
    {
      "inputs": [],
      "name": "slotsAll",
      "outputs": [
        {
          "components": [
            {
              "internalType": "uint256",
              "name": "id",
              "type": "uint256"
            },
            {
              "internalType": "bool",
              "name": "unequippable",
              "type": "bool"
            },
            {
              "internalType": "enum InventoryStorage.SlotCategory",
              "name": "category",
              "type": "uint8"
            },
            {
              "components": [
                {
                  "internalType": "address",
                  "name": "contractAddress",
                  "type": "address"
                },
                {
                  "internalType": "uint256",
                  "name": "id",
                  "type": "uint256"
                }
              ],
              "internalType": "struct InventoryStorage.Item[]",
              "name": "allowedItems",
              "type": "tuple[]"
            }
          ],
          "internalType": "struct InventoryStorage.Slot[]",
          "name": "existentSlots",
          "type": "tuple[]"
        }
      ],
      "stateMutability": "view",
      "type": "function"
    },
    {
      "inputs": [
        {
          "internalType": "bytes4",
          "name": "interfaceId",
          "type": "bytes4"
        }
      ],
      "name": "supportsInterface",
      "outputs": [
        {
          "internalType": "bool",
          "name": "",
          "type": "bool"
        }
      ],
      "stateMutability": "view",
      "type": "function"
    },
    {
      "inputs": [
        {
          "internalType": "uint256",
          "name": "arcadianId",
          "type": "uint256"
        },
        {
          "internalType": "uint256",
          "name": "slotId",
          "type": "uint256"
        }
      ],
      "name": "unequip",
      "outputs": [],
      "stateMutability": "nonpayable",
      "type": "function"
    },
    {
      "inputs": [
        {
          "internalType": "uint256",
          "name": "arcadianId",
          "type": "uint256"
        },
        {
          "internalType": "uint256[]",
          "name": "slotIds",
          "type": "uint256[]"
        }
      ],
      "name": "unequipBatch",
      "outputs": [],
      "stateMutability": "nonpayable",
      "type": "function"
    }
  ],
  "transactionHash": "0xa9a5de1d230207c3cb68c3fa086b7ffc6b2fe52cc478c0227eb3b4341f54ea8f",
  "args": [],
  "numDeployments": 7,
  "solcInputHash": "ceec884e4f0fd5652164bc56988e9b64",
  "bytecode": "0x608060405234801561001057600080fd5b50613b73806100206000396000f3fe608060405234801561001057600080fd5b50600436106101165760003560e01c8063a667d9d3116100a2578063b9518c8d11610071578063b9518c8d14610255578063b9e6a41214610268578063bc197c811461027b578063ef0bf7de146102b3578063f23a6e61146102d357600080fd5b8063a667d9d3146101fa578063b1b2fef41461020d578063b2025e4f14610222578063b512cffe1461024257600080fd5b8063473bdb98116100e9578063473bdb981461019957806376356aad146101ac5780638aa5d1f7146101bf5780639621ff25146101d25780639e3ccb2a146101da57600080fd5b806301ffc9a71461011b5780632e6e91aa146101435780632f8bd3c8146101635780634274a14314610184575b600080fd5b61012e610129366004612fa5565b6102f2565b60405190151581526020015b60405180910390f35b610156610151366004612fcf565b610329565b60405161013a9190612fe8565b61017661017136600461305b565b610334565b60405190815260200161013a565b6101976101923660046130c2565b61033f565b005b6101976101a73660046130c2565b61034f565b6101976101ba36600461310d565b61035a565b6101976101cd366004613187565b6103b5565b610176610414565b6101ed6101e8366004612fcf565b610423565b60405161013a9190613200565b61012e610208366004613187565b61042e565b610215610447565b60405161013a9190613324565b610235610230366004612fcf565b610451565b60405161013a9190613386565b610197610250366004613399565b61056e565b6101976102633660046133bb565b6105c7565b6101976102763660046133f9565b610619565b61029a6102893660046135af565b63bc197c8160e01b95945050505050565b6040516001600160e01b0319909116815260200161013a565b6102c66102c1366004613399565b61063b565b60405161013a919061365c565b61029a6102e1366004613686565b63f23a6e6160e01b95945050505050565b60006001600160e01b03198216630271189760e51b148061032357506301ffc9a760e01b6001600160e01b03198316145b92915050565b606061032382610679565b600061032382610773565b61034a8383836107e1565b505050565b61034a8383836109bc565b7f09acf4e54214992e70883cf7dcd6957ff2c71cd9e14df4bec4383bc0d11607dc805460020361039d57604051635db5c7cd60e11b815260040160405180910390fd5b600281556103ac848484610db4565b60019055505050565b7f09acf4e54214992e70883cf7dcd6957ff2c71cd9e14df4bec4383bc0d11607dc80546002036103f857604051635db5c7cd60e11b815260040160405180910390fd5b6002815561040986868686866112d4565b600190555050505050565b600061041e611960565b905090565b606061032382611978565b600061043d8686868686611aa4565b9695505050505050565b606061041e611ec0565b604080516080810182526000808252602082018190529181019190915260608082015260008281527ff672b8dc84d117c1e14949d8bc3977392b5ab7de9d01b854d389cdc31bf0d437602052604090206040805160808101825282548152600183015460ff808216151560208401529193928401916101009091041660028111156104de576104de61325f565b60028111156104ef576104ef61325f565b815260200160028201805480602002602001604051908101604052809291908181526020016000905b82821015610560576000848152602090819020604080518082019091526002850290910180546001600160a01b03168252600190810154828401529083529092019101610518565b505050915250909392505050565b7f09acf4e54214992e70883cf7dcd6957ff2c71cd9e14df4bec4383bc0d11607dc80546002036105b157604051635db5c7cd60e11b815260040160405180910390fd5b600281556105bf838361206e565b600190555050565b7f09acf4e54214992e70883cf7dcd6957ff2c71cd9e14df4bec4383bc0d11607dc805460020361060a57604051635db5c7cd60e11b815260040160405180910390fd5b600281556103ac84848461230d565b610629610624612637565b61265f565b6106358484848461266c565b50505050565b61066860405180606001604052806000815260200160006001600160a01b03168152602001600081525090565b6106728383612754565b9392505050565b606081806000036106a55760405162461bcd60e51b815260040161069c906136ee565b60405180910390fd5b600080516020613b1e833981519152548111156106d45760405162461bcd60e51b815260040161069c90613733565b60008381527ff672b8dc84d117c1e14949d8bc3977392b5ab7de9d01b854d389cdc31bf0d4376020908152604080832060020180548251818502810185019093528083529193909284015b82821015610767576000848152602090819020604080518082019091526002850290910180546001600160a01b0316825260019081015482840152908352909201910161071f565b50505050915050919050565b60007ff672b8dc84d117c1e14949d8bc3977392b5ab7de9d01b854d389cdc31bf0d43a816107a4602085018561376a565b6001600160a01b03166001600160a01b03168152602001908152602001600020600083602001358152602001908152602001600020549050919050565b82806000036108025760405162461bcd60e51b815260040161069c906136ee565b600080516020613b1e833981519152548111156108315760405162461bcd60e51b815260040161069c90613733565b600080516020613b1e83398151915260005b8381101561097f578582600401600087878581811061086457610864613787565b61087a926020604090920201908101915061376a565b6001600160a01b03166001600160a01b0316815260200190815260200160002060008787858181106108ae576108ae613787565b905060400201602001358152602001908152602001600020541461094c5760405162461bcd60e51b815260206004820152604960248201527f496e76656e746f727946616365742e5f646973616c6c6f774974656d73496e5360448201527f6c6f743a204974656d20616c7265616479206e6f7420616c6c6f77656420696e606482015268081d1a19481cdb1bdd60ba1b608482015260a40161069c565b61096d8686868481811061096257610962613787565b9050604002016127e6565b80610977816137b3565b915050610843565b5060405185815233907ff69b53fa14ee16895edbe90d00c7b7af9214baf87c69bf5594126b114c9337ed9060200160405180910390a25050505050565b82806000036109dd5760405162461bcd60e51b815260040161069c906136ee565b600080516020613b1e83398151915254811115610a0c5760405162461bcd60e51b815260040161069c90613733565b600080516020613b1e83398151915260005b83811015610d4e57610a60858583818110610a3b57610a3b613787565b610a51926020604090920201908101915061376a565b6001600160a01b03163b151590565b610ad4576040805162461bcd60e51b81526020600482015260248101919091527f496e76656e746f727946616365742e5f616c6c6f774974656d73496e536c6f7460448201527f3a20496e76616c6964206974656d7320636f6e74726163742061646472657373606482015260840161069c565b85826004016000878785818110610aed57610aed613787565b610b03926020604090920201908101915061376a565b6001600160a01b03166001600160a01b031681526020019081526020016000206000878785818110610b3757610b37613787565b9050604002016020013581526020019081526020016000205403610bce5760405162461bcd60e51b815260206004820152604260248201527f496e76656e746f727946616365742e5f616c6c6f774974656d73496e536c6f7460448201527f3a204974656d20616c726561647920616c6c6f77656420696e2074686520736c6064820152611bdd60f21b608482015260a40161069c565b6000826004016000878785818110610be857610be8613787565b610bfe926020604090920201908101915061376a565b6001600160a01b03166001600160a01b031681526020019081526020016000206000878785818110610c3257610c32613787565b905060400201602001358152602001908152602001600020541115610c6757610c678686868481811061096257610962613787565b60008681526001830160205260409020600201858583818110610c8c57610c8c613787565b835460018101855560009485526020909420604090910292909201926002029091019050610cba82826137cc565b505085826004016000878785818110610cd557610cd5613787565b610ceb926020604090920201908101915061376a565b6001600160a01b03166001600160a01b031681526020019081526020016000206000878785818110610d1f57610d1f613787565b905060400201602001358152602001908152602001600020819055508080610d46906137b3565b915050610a1e565b506000858152600182810160205260408220015461097f91879160028086019291610100900460ff1690811115610d8757610d8761325f565b6002811115610d9857610d9861325f565b81526020019081526020016000206129ab90919063ffffffff16565b6040516331a9108f60e11b815260048101849052839030908190636352211e90602401602060405180830381865afa158015610df4573d6000803e3d6000fd5b505050506040513d601f19601f82011682018060405250810190610e189190613806565b6001600160a01b0316336001600160a01b031614610e485760405162461bcd60e51b815260040161069c90613823565b8380600003610e695760405162461bcd60e51b815260040161069c906136ee565b600080516020613b1e83398151915254811115610e985760405162461bcd60e51b815260040161069c90613733565b600080516020613b1e833981519152857ff672b8dc84d117c1e14949d8bc3977392b5ab7de9d01b854d389cdc31bf0d43a6000610ed8602089018961376a565b6001600160a01b03166001600160a01b031681526020019081526020016000206000876020013581526020019081526020016000205414610f745760405162461bcd60e51b815260206004820152603060248201527f496e76656e746f727946616365742e65717569703a204974656d206e6f74206560448201526f1b1959da589b1948199bdc881cdb1bdd60821b606482015260840161069c565b600086815260018083016020526040909120015460ff161580610fb95750600087815260038201602090815260408083208984529091529020546001600160a01b0316155b61102b5760405162461bcd60e51b815260206004820152603c60248201527f496e76656e746f727946616365742e65717569703a20556e657175697070616260448201527f6c6520736c6f747320616c72656164792068617320616e206974656d00000000606482015260840161069c565b61103587876129b7565b6000611044602087018761376a565b604051627eeac760e11b8152336004820152602088013560248201529091506000906001600160a01b0383169062fdd58e90604401602060405180830381865afa158015611096573d6000803e3d6000fd5b505050506040513d601f19601f820116820180604052508101906110ba9190613880565b116111445760405162461bcd60e51b815260206004820152604e60248201527f496e76656e746f727946616365742e65717569703a204d65737361676520736560448201527f6e64657220646f6573206e6f74206f776e20656e6f756768206f66207468617460648201526d0206974656d20746f2065717569760941b608482015260a40161069c565b604051637921219560e11b81526001600160a01b0382169063f242432a9061117b903390309060208c013590600190600401613899565b600060405180830381600087803b15801561119557600080fd5b505af11580156111a9573d6000803e3d6000fd5b505050600089815260038401602090815260408083208b845290915290208791506111d482826137cc565b9050506111e088612aad565b6112455760405162461bcd60e51b815260206004820152603060248201527f496e76656e746f727946616365742e5f65717569703a2042617365206974656d60448201526f7320617265206e6f7420756e6971756560801b606482015260840161069c565b60408051600180825281830190925260009160208083019080368337019050509050878160008151811061127b5761127b613787565b60200260200101818152505088336001600160a01b03167f557dc03f902756383ba5a748ab63ec6ec44b2880dba84ad33dc6ffe670f18861836040516112c191906138d1565b60405180910390a3505050505050505050565b826113475760405162461bcd60e51b815260206004820152603c60248201527f496e76656e746f727946616365742e5f657175697042617463683a2053686f7560448201527f6c642073706563696679206174206c65617374206f6e6520736c6f7400000000606482015260840161069c565b8281146113bc5760405162461bcd60e51b815260206004820152603660248201527f496e76656e746f727946616365742e5f657175697042617463683a20496e707560448201527f742064617461206c656e677468206d69736d6174636800000000000000000000606482015260840161069c565b600080516020613b1e833981519152805460005b8581101561189f5760008787838181106113ec576113ec613787565b9050602002013590506000811180156114055750828111155b6114625760405162461bcd60e51b815260206004820152602860248201527f496e76656e746f727946616365742e5f657175697042617463683a20496e76616044820152671b1a59081cdb1bdd60c21b606482015260840161069c565b8084600401600088888681811061147b5761147b613787565b611491926020604090920201908101915061376a565b6001600160a01b03166001600160a01b0316815260200190815260200160002060008888868181106114c5576114c5613787565b90506040020160200135815260200190815260200160002054146115515760405162461bcd60e51b815260206004820152603660248201527f496e76656e746f727946616365742e5f657175697042617463683a204974656d60448201527f206e6f7420656c656769626c6520666f7220736c6f7400000000000000000000606482015260840161069c565b600086868481811061156557611565613787565b61157b926020604090920201908101915061376a565b90506000816001600160a01b031662fdd58e338a8a888181106115a0576115a0613787565b905060400201602001356040518363ffffffff1660e01b81526004016115db9291906001600160a01b03929092168252602082015260400190565b602060405180830381865afa1580156115f8573d6000803e3d6000fd5b505050506040513d601f19601f8201168201806040525081019061161c9190613880565b11611691576040805162461bcd60e51b81526020600482015260248101919091527f496e76656e746f727946616365742e5f657175697042617463683a2053656e6460448201527f65722068617320696e73756666696369656e74206974656d2062616c616e6365606482015260840161069c565b60008a8152600386016020908152604080832085845282528083206001808a019093529220015460ff1615806116cf575080546001600160a01b0316155b61174c5760405162461bcd60e51b815260206004820152604260248201527f496e76656e746f727946616365742e5f657175697042617463683a20556e657160448201527f7569707061626c6520736c6f747320616c72656164792068617320616e206974606482015261656d60f01b608482015260a40161069c565b87878581811061175e5761175e613787565b611774926020604090920201908101915061376a565b81546001600160a01b0390811691161480156117ae575087878581811061179d5761179d613787565b905060400201602001358160010154145b156117bb5750505061188d565b6117c58b846129b7565b8787858181106117d7576117d7613787565b60008e815260038a01602090815260408083208984529091529081902091029290920191905061180782826137cc565b50506001600160a01b03821663f242432a33308b8b8981811061182c5761182c613787565b9050604002016020013560016040518563ffffffff1660e01b81526004016118579493929190613899565b600060405180830381600087803b15801561187157600080fd5b505af1158015611885573d6000803e3d6000fd5b505050505050505b80611897816137b3565b9150506113d0565b506118a987612aad565b6119135760405162461bcd60e51b815260206004820152603560248201527f496e76656e746f727946616365742e5f657175697042617463683a2042617365604482015274206974656d7320617265206e6f7420756e6971756560581b606482015260840161069c565b86336001600160a01b03167f557dc03f902756383ba5a748ab63ec6ec44b2880dba84ad33dc6ffe670f18861888860405161194f929190613909565b60405180910390a350505050505050565b6000600080516020613b1e8339815191525b54919050565b600080516020613b1e833981519152805460609190806001600160401b038111156119a5576119a561347b565b604051908082528060200260200182016040528015611a0357816020015b6119f060405180606001604052806000815260200160006001600160a01b03168152602001600081525090565b8152602001906001900390816119c35790505b50925060005b81811015611a9c576000611a1e826001613942565b60008781526003860160209081526040808320848452825291829020825160608101845284815281546001600160a01b03169281019290925260018101549282019290925287519293509091879085908110611a7c57611a7c613787565b602002602001018190525050508080611a94906137b3565b915050611a09565b505050919050565b6000838214611b1b5760405162461bcd60e51b815260206004820152603c60248201527f496e76656e746f727946616365742e5f6973417263616469616e556e6971756560448201527f3a20496e7075742064617461206c656e677468206d69736d6174636800000000606482015260840161069c565b60008080527ff672b8dc84d117c1e14949d8bc3977392b5ab7de9d01b854d389cdc31bf0d438602052600080516020613b1e833981519152907f845ff02802177e9909faef63e536d995d5be20fadd26c667f4235942a02dfdd990611b7f82612bf4565b90506000816001600160401b03811115611b9b57611b9b61347b565b604051908082528060200260200182016040528015611bc4578160200160208202803683370190505b5090506000826001600160401b03811115611be157611be161347b565b604051908082528060200260200182016040528015611c2657816020015b6040805180820190915260008082526020820152815260200190600190039081611bff5790505b50855490915060005b84811015611cd3576000611c438783612bfe565b905080858381518110611c5857611c58613787565b60209081029190910181019190915260008f815260038a0182526040808220848352835290819020815180830190925280546001600160a01b0316825260010154918101919091528451859084908110611cb457611cb4613787565b6020026020010181905250508080611ccb906137b3565b915050611c2f565b5060005b8a811015611dfb5760008c8c83818110611cf357611cf3613787565b905060200201359050600081118015611d0c5750828111155b611d6f5760405162461bcd60e51b815260206004820152602e60248201527f496e76656e746f727946616365742e5f6973417263616469616e556e6971756560448201526d0e88125b9d985b1a59081cdb1bdd60921b606482015260840161069c565b611d798782612c0a565b611d835750611de9565b80858381518110611d9657611d96613787565b6020026020010181815250508a8a83818110611db457611db4613787565b905060400201803603810190611dca9190613955565b848381518110611ddc57611ddc613787565b6020026020010181905250505b80611df3816137b3565b915050611cd7565b50606060005b8451811015611e985781858281518110611e1d57611e1d613787565b6020026020010151858381518110611e3757611e37613787565b602002602001015160000151868481518110611e5557611e55613787565b602002602001015160200151604051602001611e7494939291906139d0565b60405160208183030381529060405291508080611e90906137b3565b915050611e01565b5080516020820120611eae906005890190612c0a565b159d9c50505050505050505050505050565b600080516020613b1e833981519152805460609190806001600160401b03811115611eed57611eed61347b565b604051908082528060200260200182016040528015611f3e57816020015b6040805160808101825260008082526020808301829052928201526060808201528252600019909201910181611f0b5790505b50925060005b81811015612068576000611f59826001613942565b6000818152600180870160209081526040928390208351608081018552815481529281015460ff808216151593850193909352949550919391928401916101009004166002811115611fad57611fad61325f565b6002811115611fbe57611fbe61325f565b815260200160028201805480602002602001604051908101604052809291908181526020016000905b8282101561202f576000848152602090819020604080518082019091526002850290910180546001600160a01b03168252600190810154828401529083529092019101611fe7565b505050508152505085838151811061204957612049613787565b6020026020010181905250508080612060906137b3565b915050611f44565b50505090565b6040516331a9108f60e11b815260048101839052829030908190636352211e90602401602060405180830381865afa1580156120ae573d6000803e3d6000fd5b505050506040513d601f19601f820116820180604052508101906120d29190613806565b6001600160a01b0316336001600160a01b0316146121025760405162461bcd60e51b815260040161069c90613823565b82806000036121235760405162461bcd60e51b815260040161069c906136ee565b600080516020613b1e833981519152548111156121525760405162461bcd60e51b815260040161069c90613733565b60008481527ff672b8dc84d117c1e14949d8bc3977392b5ab7de9d01b854d389cdc31bf0d4376020526040902060010154600080516020613b1e8339815191529060ff16156121f95760405162461bcd60e51b815260206004820152602d60248201527f496e76656e746f727946616365742e5f756e65717569703a20536c6f7420697360448201526c20756e65717569707061626c6560981b606482015260840161069c565b600086815260038201602090815260408083208884529091529020546001600160a01b031661227d5760405162461bcd60e51b815260206004820152602a60248201527f496e76656e746f727946616365742e5f756e65717569703a20536c6f74206e6f6044820152691d08195c5d5a5c1c195960b21b606482015260840161069c565b61228786866129b7565b6040805160018082528183019092526000916020808301908036833701905050905085816000815181106122bd576122bd613787565b6020026020010181815250506122d287612aad565b5086336001600160a01b03167f3822f2cd6d118934e31e6171da74d9d46131fb402be1861b3cb4460440aeab638360405161194f91906138d1565b6040516331a9108f60e11b815260048101849052839030908190636352211e90602401602060405180830381865afa15801561234d573d6000803e3d6000fd5b505050506040513d601f19601f820116820180604052508101906123719190613806565b6001600160a01b0316336001600160a01b0316146123a15760405162461bcd60e51b815260040161069c90613823565b826124145760405162461bcd60e51b815260206004820152603e60248201527f496e76656e746f727946616365742e5f756e657175697042617463683a20536860448201527f6f756c642073706563696679206174206c65617374206f6e6520736c6f740000606482015260840161069c565b600080516020613b1e83398151915260005b848110156125e057600086868381811061244257612442613787565b90506020020135905060008111801561245c575082548111155b6124bb5760405162461bcd60e51b815260206004820152602a60248201527f496e76656e746f727946616365742e5f756e657175697042617463683a20496e6044820152691d985b1a59081cdb1bdd60b21b606482015260840161069c565b600081815260018085016020526040909120015460ff161561253a5760405162461bcd60e51b815260206004820152603260248201527f496e76656e746f727946616365742e5f756e657175697042617463683a20536c6044820152716f7420697320756e65717569707061626c6560701b606482015260840161069c565b600088815260038401602090815260408083208484529091529020546001600160a01b03166125c35760405162461bcd60e51b815260206004820152602f60248201527f496e76656e746f727946616365742e5f756e657175697042617463683a20536c60448201526e1bdd081b9bdd08195c5d5a5c1c1959608a1b606482015260840161069c565b6125cd88826129b7565b50806125d8816137b3565b915050612426565b506125ea86612aad565b5085336001600160a01b03167f3822f2cd6d118934e31e6171da74d9d46131fb402be1861b3cb4460440aeab638787604051612627929190613909565b60405180910390a3505050505050565b60007ff6deb63e40d71b08820818e006e23fcceb1fce7a499bc15b71b2526cbf9efa72611972565b6126698133612c22565b50565b600080516020613b1e83398151915280546001908290600090612690908490613942565b9091555050805460008181526001808401602052604090912001805460ff198116881515908117835587929161ffff191661ff0019909116176101008360028111156126de576126de61325f565b0217905550600081815260018301602052604090208190558215612707576127078185856109bc565b336001600160a01b03167fc1ea46ff33b3d61e148e5bff5dfe54ccae9db30b899a3e7645618fb1e3d9dc1182888860405161274493929190613a11565b60405180910390a2505050505050565b61278160405180606001604052806000815260200160006001600160a01b03168152602001600081525090565b5060009182527ff672b8dc84d117c1e14949d8bc3977392b5ab7de9d01b854d389cdc31bf0d43960209081526040808420838552825292839020835160608101855292835280546001600160a01b031691830191909152600101549181019190915290565b600080516020613b1e83398151915260005b6000848152600183016020526040902060020154811015612959578260200135826001016000868152602001908152602001600020600201828154811061284157612841613787565b90600052602060002090600202016001015403612947576000848152600180840160205260409091206002018054909161287a91613a35565b8154811061288a5761288a613787565b906000526020600020906002020182600101600086815260200190815260200160002060020182815481106128c1576128c1613787565b600091825260208083208454600293840290910180546001600160a01b0319166001600160a01b0390921691909117815560019485015490850155878352928501909252604090200180548061291957612919613a48565b60008281526020812060026000199093019283020180546001600160a01b0319168155600101559055612959565b80612951816137b3565b9150506127f8565b5060048101600061296d602085018561376a565b6001600160a01b03166001600160a01b0316815260200190815260200160002060008360200135815260200190815260200160002060009055505050565b60006106728383612c88565b60008281527ff672b8dc84d117c1e14949d8bc3977392b5ab7de9d01b854d389cdc31bf0d4396020908152604080832084845290915290208054600080516020613b1e83398151915291906001600160a01b03168015612aa657600180830154604051637921219560e11b81526001600160a01b0384169263f242432a92612a46923092339291600401613899565b600060405180830381600087803b158015612a6057600080fd5b505af1158015612a74573d6000803e3d6000fd5b50505060008681526003850160209081526040808320888452909152812080546001600160a01b031916815560010155505b5050505050565b60008080527ff672b8dc84d117c1e14949d8bc3977392b5ab7de9d01b854d389cdc31bf0d438602052600080516020613b1e8339815191527f845ff02802177e9909faef63e536d995d5be20fadd26c667f4235942a02dfdd9606083612b1283612bf4565b905060005b81811015612b93576000612b2b8583612bfe565b600089815260038801602090815260408083208484528252918290208054600182015493519495509093612b6d93899387936001600160a01b031692016139d0565b604051602081830303815290604052945050508080612b8b906137b3565b915050612b17565b5081516020830120612ba86005860182612c0a565b600088815260078701602052604090205490159650612bcb906005870190612ccb565b50612bd960058601826129ab565b50600096875260079094016020525050604090932055919050565b6000610323825490565b60006106728383612cd7565b60008181526001830160205260408120541515610672565b612c2c8282612d23565b612c8457612c42816001600160a01b0316612d5a565b612c4d836020612d6c565b604051602001612c5e929190613a5e565b60408051601f198184030181529082905262461bcd60e51b825261069c91600401613ad3565b5050565b6000818152600183016020526040812054610323575081546001808201845560008481526020808220909301849055845493815293810190915260409092205590565b60006106728383612ebe565b81546000908210612cfb5760405163e637bf3b60e01b815260040160405180910390fd5b826000018281548110612d1057612d10613787565b9060005260206000200154905092915050565b60008281527fd3889cc5458b268d0544e5534672df1296288ca3f93cbd39bd6f497a5c622811602052604081206106729083612f83565b60606103236001600160a01b03831660145b60606000612d7b836002613b06565b612d86906002613942565b6001600160401b03811115612d9d57612d9d61347b565b6040519080825280601f01601f191660200182016040528015612dc7576020820181803683370190505b509050600360fc1b81600081518110612de257612de2613787565b60200101906001600160f81b031916908160001a905350600f60fb1b81600181518110612e1157612e11613787565b60200101906001600160f81b031916908160001a905350600160028402015b6001811115612e9e576f181899199a1a9b1b9c1cb0b131b232b360811b85600f1660108110612e6157612e61613787565b1a60f81b828281518110612e7757612e77613787565b60200101906001600160f81b031916908160001a90535060049490941c9360001901612e30565b5083156106725760405163c913478560e01b815260040160405180910390fd5b60008181526001830160205260408120548015612f7c57835460009085906000198101908110612ef057612ef0613787565b9060005260206000200154905080856000016001840381548110612f1657612f16613787565b6000918252602080832090910192909255918252600186019052604090208190558354849080612f4857612f48613a48565b6001900381819060005260206000200160009055905583600101600084815260200190815260200160002060009055600191505b5092915050565b6001600160a01b03811660009081526001830160205260408120541515610672565b600060208284031215612fb757600080fd5b81356001600160e01b03198116811461067257600080fd5b600060208284031215612fe157600080fd5b5035919050565b6020808252825182820181905260009190848201906040850190845b8181101561303757835180516001600160a01b031684526020908101519084015260408301938501939250600101613004565b50909695505050505050565b60006040828403121561305557600080fd5b50919050565b60006040828403121561306d57600080fd5b6106728383613043565b60008083601f84011261308957600080fd5b5081356001600160401b038111156130a057600080fd5b6020830191508360208260061b85010111156130bb57600080fd5b9250929050565b6000806000604084860312156130d757600080fd5b8335925060208401356001600160401b038111156130f457600080fd5b61310086828701613077565b9497909650939450505050565b60008060006080848603121561312257600080fd5b833592506020840135915061313a8560408601613043565b90509250925092565b60008083601f84011261315557600080fd5b5081356001600160401b0381111561316c57600080fd5b6020830191508360208260051b85010111156130bb57600080fd5b60008060008060006060868803121561319f57600080fd5b8535945060208601356001600160401b03808211156131bd57600080fd5b6131c989838a01613143565b909650945060408801359150808211156131e257600080fd5b506131ef88828901613077565b969995985093965092949392505050565b6020808252825182820181905260009190848201906040850190845b818110156130375761324c838551805182526020808201516001600160a01b031690830152604090810151910152565b928401926060929092019160010161321c565b634e487b7160e01b600052602160045260246000fd5b6003811061329357634e487b7160e01b600052602160045260246000fd5b9052565b6000608083018251845260208084015115158186015260408401516132bf6040870182613275565b5060608401516080606087015282815180855260a0880191508383019450600092505b8083101561331957845180516001600160a01b031683526020908101519083015260408201915083850194506001830192506132e2565b509695505050505050565b6000602080830181845280855180835260408601915060408160051b870101925083870160005b8281101561337957603f19888603018452613367858351613297565b9450928501929085019060010161334b565b5092979650505050505050565b6020815260006106726020830184613297565b600080604083850312156133ac57600080fd5b50508035926020909101359150565b6000806000604084860312156133d057600080fd5b8335925060208401356001600160401b038111156133ed57600080fd5b61310086828701613143565b6000806000806060858703121561340f57600080fd5b8435801515811461341f57600080fd5b935060208501356003811061343357600080fd5b925060408501356001600160401b0381111561344e57600080fd5b61345a87828801613077565b95989497509550505050565b6001600160a01b038116811461266957600080fd5b634e487b7160e01b600052604160045260246000fd5b604051601f8201601f191681016001600160401b03811182821017156134b9576134b961347b565b604052919050565b600082601f8301126134d257600080fd5b813560206001600160401b038211156134ed576134ed61347b565b8160051b6134fc828201613491565b928352848101820192828101908785111561351657600080fd5b83870192505b848310156135355782358252918301919083019061351c565b979650505050505050565b600082601f83011261355157600080fd5b81356001600160401b0381111561356a5761356a61347b565b61357d601f8201601f1916602001613491565b81815284602083860101111561359257600080fd5b816020850160208301376000918101602001919091529392505050565b600080600080600060a086880312156135c757600080fd5b85356135d281613466565b945060208601356135e281613466565b935060408601356001600160401b03808211156135fe57600080fd5b61360a89838a016134c1565b9450606088013591508082111561362057600080fd5b61362c89838a016134c1565b9350608088013591508082111561364257600080fd5b5061364f88828901613540565b9150509295509295909350565b815181526020808301516001600160a01b0316908201526040808301519082015260608101610323565b600080600080600060a0868803121561369e57600080fd5b85356136a981613466565b945060208601356136b981613466565b9350604086013592506060860135915060808601356001600160401b038111156136e257600080fd5b61364f88828901613540565b60208082526025908201527f496e76656e746f727946616365743a20536c6f742069642063616e2774206265604082015264207a65726f60d81b606082015260800190565b6020808252601c908201527f496e76656e746f727946616365743a20496e76616c696420736c6f7400000000604082015260600190565b60006020828403121561377c57600080fd5b813561067281613466565b634e487b7160e01b600052603260045260246000fd5b634e487b7160e01b600052601160045260246000fd5b6000600182016137c5576137c561379d565b5060010190565b81356137d781613466565b6001600160a01b0381166bffffffffffffffffffffffff60a01b83541617825550602082013560018201555050565b60006020828403121561381857600080fd5b815161067281613466565b6020808252603b908201527f496e76656e746f727946616365743a204d6573736167652073656e646572206960408201527f73206e6f74206f776e6572206f662074686520617263616469616e0000000000606082015260800190565b60006020828403121561389257600080fd5b5051919050565b6001600160a01b0394851681529290931660208301526040820152606081019190915260a06080820181905260009082015260c00190565b6020808252825182820181905260009190848201906040850190845b81811015613037578351835292840192918401916001016138ed565b6020808252810182905260006001600160fb1b0383111561392957600080fd5b8260051b80856040850137919091016040019392505050565b808201808211156103235761032361379d565b60006040828403121561396757600080fd5b604051604081018181106001600160401b03821117156139895761398961347b565b604052823561399781613466565b81526020928301359281019290925250919050565b60005b838110156139c75781810151838201526020016139af565b50506000910152565b600085516139e2818460208a016139ac565b919091019384525060609190911b6bffffffffffffffffffffffff191660208301526034820152605401919050565b838152821515602082015260608101613a2d6040830184613275565b949350505050565b818103818111156103235761032361379d565b634e487b7160e01b600052603160045260246000fd5b7f416363657373436f6e74726f6c3a206163636f756e7420000000000000000000815260008351613a968160178501602088016139ac565b7001034b99036b4b9b9b4b733903937b6329607d1b6017918401918201528351613ac78160288401602088016139ac565b01602801949350505050565b6020815260008251806020840152613af28160408501602087016139ac565b601f01601f19169190910160400192915050565b80820281158282048414176103235761032361379d56fef672b8dc84d117c1e14949d8bc3977392b5ab7de9d01b854d389cdc31bf0d436a2646970667358221220171d5a0ac888d9e1fd32c03da653c0ba86d19fbd1e39dcf60d6c107d22ee513064736f6c63430008130033",
  "devdoc": {
    "details": "This contract is responsible for managing the inventory system for the Arcadians using slots.  It defines the functionality to equip and unequip items to Arcadians, check if a combination of items  are unique, and retrieve the inventory slots and allowed items for a slot.  This contract also implements ERC1155Holder to handle ERC1155 token transfers This contract can be used as a facet of a diamond which follows the EIP-2535 diamond standard. It also uses the ReentrancyGuard and Multicall contracts for security and gas efficiency.",
    "kind": "dev",
    "methods": {
      "allowItemsInSlot(uint256,(address,uint256)[])": {
        "params": {
          "items": "The list of items to allow in the slot",
          "slotId": "The slot id"
        }
      },
      "allowedItems(uint256)": {
        "params": {
          "slotId": "The slot id to check"
        },
        "returns": {
          "_0": "A list of all the items that are allowed in the slot"
        }
      },
      "allowedSlot((address,uint256))": {
        "params": {
          "item": "The item to check"
        },
        "returns": {
          "_0": "The allowed slot id for the item. Slots are 1-indexed."
        }
      },
      "createSlot(bool,uint8,(address,uint256)[])": {
        "details": "This function is only accessible to the manager roleSlots are 1-indexed",
        "params": {
          "category": "The category of the slot",
          "items": "The list of items to allow in the slot",
          "unequippable": "Whether or not the slot can be unequipped once equipped"
        }
      },
      "disallowItemsInSlot(uint256,(address,uint256)[])": {
        "params": {
          "items": "The list of items to disallow in the slot",
          "slotId": "The ID of the inventory slot"
        }
      },
      "equip(uint256,uint256,(address,uint256))": {
        "params": {
          "arcadianId": "The ID of the Arcadian NFT to equip the item for",
          "item": "The item to equip in the slot",
          "slotId": "The slot id in which the items will be equipped"
        }
      },
      "equipBatch(uint256,uint256[],(address,uint256)[])": {
        "params": {
          "arcadianId": "The ID of the Arcadian NFT to equip the items for",
          "items": "An array of items to equip in the corresponding slots",
          "slotsIds": "An array of slot ids to equip the items"
        }
      },
      "equipped(uint256,uint256)": {
        "params": {
          "arcadianId": "The ID of the Arcadian NFT to query",
          "slotId": "The slot id to query"
        }
      },
      "equippedAll(uint256)": {
        "params": {
          "arcadianId": "The ID of the Arcadian NFT to query"
        }
      },
      "isArcadianUnique(uint256,uint256[],(address,uint256)[])": {
        "details": "The uniqueness is calculated using the existent arcadian items and the input items as wellOnly items equipped in 'base' category slots are considered for uniqueness",
        "params": {
          "arcadianId": "The ID of the Arcadian NFT to query",
          "items": "An array of items to check for uniqueness after \"equipped\" over the existent arcadian items.",
          "slotsIds": "An array of slot ids"
        }
      },
      "numSlots()": {
        "details": "Slots are 1-indexed",
        "returns": {
          "_0": "The number of inventory slots "
        }
      },
      "slot(uint256)": {
        "details": "Slots are 1-indexed",
        "params": {
          "slotId": "The ID of the inventory slot"
        },
        "returns": {
          "existentSlot": "The details of the inventory slot"
        }
      },
      "slotsAll()": {
        "details": "Slots are 1-indexed",
        "returns": {
          "existentSlots": "The details of all the inventory slots"
        }
      },
      "supportsInterface(bytes4)": {
        "details": "See {IERC165-supportsInterface}."
      },
      "unequip(uint256,uint256)": {
        "params": {
          "arcadianId": "The ID of the Arcadian NFT to equip the item for",
          "slotId": "The slot id in which the item will be unequipped"
        }
      },
      "unequipBatch(uint256,uint256[])": {
        "params": {
          "arcadianId": "The ID of the Arcadian NFT to equip the item for",
          "slotIds": "The slots ids in which the items will be unequipped"
        }
      }
    },
    "title": "InventoryFacet",
    "version": 1
  },
  "userdoc": {
    "kind": "user",
    "methods": {
      "allowItemsInSlot(uint256,(address,uint256)[])": {
        "notice": "Adds items to the list of allowed items for an inventory slot"
      },
      "allowedItems(uint256)": {
        "notice": "Returns an array of all the items that are allowed for a given slot"
      },
      "allowedSlot((address,uint256))": {
        "notice": "Returns the allowed slot for a given item"
      },
      "createSlot(bool,uint8,(address,uint256)[])": {
        "notice": "Creates a new inventory slot"
      },
      "disallowItemsInSlot(uint256,(address,uint256)[])": {
        "notice": "Removes items from the list of allowed items"
      },
      "equip(uint256,uint256,(address,uint256))": {
        "notice": "Equips a single item to a given slot for a specified Arcadian NFT"
      },
      "equipBatch(uint256,uint256[],(address,uint256)[])": {
        "notice": "Equips multiple items to multiple slots for a specified Arcadian NFT"
      },
      "equipped(uint256,uint256)": {
        "notice": "Retrieves the equipped item in a slot for a specified Arcadian NFT"
      },
      "equippedAll(uint256)": {
        "notice": "Retrieves all the equipped items for a specified Arcadian NFT"
      },
      "isArcadianUnique(uint256,uint256[],(address,uint256)[])": {
        "notice": "Indicates if a list of items applied to an the arcadian is unique"
      },
      "numSlots()": {
        "notice": "Returns the number of inventory slots"
      },
      "slot(uint256)": {
        "notice": "Returns the details of an inventory slot given its ID"
      },
      "slotsAll()": {
        "notice": "Returns the details of all the existent slots"
      },
      "unequip(uint256,uint256)": {
        "notice": "Unequips the item equipped in a given slot for a specified Arcadian NFT"
      },
      "unequipBatch(uint256,uint256[])": {
        "notice": "Unequips the items equipped in multiple slots for a specified Arcadian NFT"
      }
    },
    "version": 1
  },
  "storageLayout": {
    "storage": [],
    "types": null
  }
}