{
  "address": "0x914CCE45397B9781a3A882798cf74820255aAD1F",
  "abi": [
    {
      "inputs": [],
      "name": "Inventory_ArcadianNotUnique",
      "type": "error"
    },
    {
      "inputs": [],
      "name": "Inventory_CouponNeededToModifyBaseSlots",
      "type": "error"
    },
    {
      "inputs": [],
      "name": "Inventory_InputDataMismatch",
      "type": "error"
    },
    {
      "inputs": [],
      "name": "Inventory_InsufficientItemBalance",
      "type": "error"
    },
    {
      "inputs": [],
      "name": "Inventory_InvalidERC1155Contract",
      "type": "error"
    },
    {
      "inputs": [],
      "name": "Inventory_InvalidSlotId",
      "type": "error"
    },
    {
      "inputs": [],
      "name": "Inventory_ItemAlreadyEquippedInSlot",
      "type": "error"
    },
    {
      "inputs": [],
      "name": "Inventory_ItemDoesNotHaveSlotAssigned",
      "type": "error"
    },
    {
      "inputs": [],
      "name": "Inventory_ItemNotSpecified",
      "type": "error"
    },
    {
      "inputs": [],
      "name": "Inventory_NonBaseSlot",
      "type": "error"
    },
    {
      "inputs": [],
      "name": "Inventory_NotAllBaseSlotsEquipped",
      "type": "error"
    },
    {
      "inputs": [],
      "name": "Inventory_NotArcadianOwner",
      "type": "error"
    },
    {
      "inputs": [],
      "name": "Inventory_SlotNotSpecified",
      "type": "error"
    },
    {
      "inputs": [],
      "name": "Inventory_UnequippingBaseSlot",
      "type": "error"
    },
    {
      "inputs": [],
      "name": "Inventory_UnequippingEmptySlot",
      "type": "error"
    },
    {
      "inputs": [],
      "name": "Inventory_UnequippingPermanentSlot",
      "type": "error"
    },
    {
      "inputs": [],
      "name": "ReentrancyGuard__ReentrantCall",
      "type": "error"
    },
    {
      "inputs": [],
      "name": "Roles_MissingAdminRole",
      "type": "error"
    },
    {
      "inputs": [],
      "name": "Roles_MissingAutomationRole",
      "type": "error"
    },
    {
      "inputs": [],
      "name": "Roles_MissingManagerRole",
      "type": "error"
    },
    {
      "anonymous": false,
      "inputs": [
        {
          "indexed": true,
          "internalType": "address",
          "name": "by",
          "type": "address"
        },
        {
          "indexed": true,
          "internalType": "address",
          "name": "to",
          "type": "address"
        },
        {
          "indexed": false,
          "internalType": "uint256[]",
          "name": "slotsIds",
          "type": "uint256[]"
        },
        {
          "indexed": false,
          "internalType": "uint256[]",
          "name": "amounts",
          "type": "uint256[]"
        }
      ],
      "name": "BaseModifierCouponAdded",
      "type": "event"
    },
    {
      "anonymous": false,
      "inputs": [
        {
          "indexed": true,
          "internalType": "address",
          "name": "account",
          "type": "address"
        },
        {
          "indexed": false,
          "internalType": "uint256[]",
          "name": "slotsIds",
          "type": "uint256[]"
        }
      ],
      "name": "BaseModifierCouponConsumed",
      "type": "event"
    },
    {
      "anonymous": false,
      "inputs": [
        {
          "indexed": true,
          "internalType": "address",
          "name": "by",
          "type": "address"
        },
        {
          "indexed": false,
          "internalType": "uint256",
          "name": "slotId",
          "type": "uint256"
        }
      ],
      "name": "ItemsAllowedInSlotUpdated",
      "type": "event"
    },
    {
      "anonymous": false,
      "inputs": [
        {
          "indexed": true,
          "internalType": "address",
          "name": "by",
          "type": "address"
        },
        {
          "indexed": true,
          "internalType": "uint256",
          "name": "arcadianId",
          "type": "uint256"
        },
        {
          "indexed": false,
          "internalType": "uint256[]",
          "name": "slots",
          "type": "uint256[]"
        }
      ],
      "name": "ItemsEquipped",
      "type": "event"
    },
    {
      "anonymous": false,
      "inputs": [
        {
          "indexed": true,
          "internalType": "address",
          "name": "by",
          "type": "address"
        },
        {
          "indexed": true,
          "internalType": "uint256",
          "name": "arcadianId",
          "type": "uint256"
        },
        {
          "indexed": false,
          "internalType": "uint256[]",
          "name": "slots",
          "type": "uint256[]"
        }
      ],
      "name": "ItemsUnequipped",
      "type": "event"
    },
    {
      "anonymous": false,
      "inputs": [
        {
          "indexed": true,
          "internalType": "bytes32",
          "name": "role",
          "type": "bytes32"
        },
        {
          "indexed": true,
          "internalType": "bytes32",
          "name": "previousAdminRole",
          "type": "bytes32"
        },
        {
          "indexed": true,
          "internalType": "bytes32",
          "name": "newAdminRole",
          "type": "bytes32"
        }
      ],
      "name": "RoleAdminChanged",
      "type": "event"
    },
    {
      "anonymous": false,
      "inputs": [
        {
          "indexed": true,
          "internalType": "bytes32",
          "name": "role",
          "type": "bytes32"
        },
        {
          "indexed": true,
          "internalType": "address",
          "name": "account",
          "type": "address"
        },
        {
          "indexed": true,
          "internalType": "address",
          "name": "sender",
          "type": "address"
        }
      ],
      "name": "RoleGranted",
      "type": "event"
    },
    {
      "anonymous": false,
      "inputs": [
        {
          "indexed": true,
          "internalType": "bytes32",
          "name": "role",
          "type": "bytes32"
        },
        {
          "indexed": true,
          "internalType": "address",
          "name": "account",
          "type": "address"
        },
        {
          "indexed": true,
          "internalType": "address",
          "name": "sender",
          "type": "address"
        }
      ],
      "name": "RoleRevoked",
      "type": "event"
    },
    {
      "anonymous": false,
      "inputs": [
        {
          "indexed": true,
          "internalType": "address",
          "name": "by",
          "type": "address"
        },
        {
          "indexed": false,
          "internalType": "uint256",
          "name": "slotId",
          "type": "uint256"
        },
        {
          "indexed": false,
          "internalType": "bool",
          "name": "permanent",
          "type": "bool"
        },
        {
          "indexed": false,
          "internalType": "bool",
          "name": "isBase",
          "type": "bool"
        }
      ],
      "name": "SlotCreated",
      "type": "event"
    },
    {
      "inputs": [
        {
          "internalType": "address",
          "name": "account",
          "type": "address"
        },
        {
          "internalType": "uint256[]",
          "name": "slotsIds",
          "type": "uint256[]"
        },
        {
          "internalType": "uint256[]",
          "name": "amounts",
          "type": "uint256[]"
        }
      ],
      "name": "addBaseModifierCoupons",
      "outputs": [],
      "stateMutability": "nonpayable",
      "type": "function"
    },
    {
      "inputs": [
        {
          "internalType": "uint256",
          "name": "slotId",
          "type": "uint256"
        },
        {
          "components": [
            {
              "internalType": "address",
              "name": "erc721Contract",
              "type": "address"
            },
            {
              "internalType": "uint256",
              "name": "id",
              "type": "uint256"
            }
          ],
          "internalType": "struct InventoryStorage.Item[]",
          "name": "items",
          "type": "tuple[]"
        }
      ],
      "name": "allowItemsInSlot",
      "outputs": [],
      "stateMutability": "nonpayable",
      "type": "function"
    },
    {
      "inputs": [
        {
          "internalType": "uint256",
          "name": "slotId",
          "type": "uint256"
        },
        {
          "internalType": "uint256",
          "name": "index",
          "type": "uint256"
        }
      ],
      "name": "allowedItem",
      "outputs": [
        {
          "components": [
            {
              "internalType": "address",
              "name": "erc721Contract",
              "type": "address"
            },
            {
              "internalType": "uint256",
              "name": "id",
              "type": "uint256"
            }
          ],
          "internalType": "struct InventoryStorage.Item",
          "name": "",
          "type": "tuple"
        }
      ],
      "stateMutability": "view",
      "type": "function"
    },
    {
      "inputs": [
        {
          "components": [
            {
              "internalType": "address",
              "name": "erc721Contract",
              "type": "address"
            },
            {
              "internalType": "uint256",
              "name": "id",
              "type": "uint256"
            }
          ],
          "internalType": "struct InventoryStorage.Item",
          "name": "item",
          "type": "tuple"
        }
      ],
      "name": "allowedSlot",
      "outputs": [
        {
          "internalType": "uint256",
          "name": "",
          "type": "uint256"
        }
      ],
      "stateMutability": "view",
      "type": "function"
    },
    {
      "inputs": [
        {
          "internalType": "uint256",
          "name": "arcadianId",
          "type": "uint256"
        }
      ],
      "name": "arcadianToBaseItemHash",
      "outputs": [
        {
          "internalType": "bytes32",
          "name": "",
          "type": "bytes32"
        }
      ],
      "stateMutability": "view",
      "type": "function"
    },
    {
      "inputs": [
        {
          "internalType": "bool",
          "name": "permanent",
          "type": "bool"
        },
        {
          "internalType": "bool",
          "name": "isBase",
          "type": "bool"
        },
        {
          "components": [
            {
              "internalType": "address",
              "name": "erc721Contract",
              "type": "address"
            },
            {
              "internalType": "uint256",
              "name": "id",
              "type": "uint256"
            }
          ],
          "internalType": "struct InventoryStorage.Item[]",
          "name": "items",
          "type": "tuple[]"
        }
      ],
      "name": "createSlot",
      "outputs": [],
      "stateMutability": "nonpayable",
      "type": "function"
    },
    {
      "inputs": [
        {
          "internalType": "uint256",
          "name": "slotId",
          "type": "uint256"
        },
        {
          "components": [
            {
              "internalType": "address",
              "name": "erc721Contract",
              "type": "address"
            },
            {
              "internalType": "uint256",
              "name": "id",
              "type": "uint256"
            }
          ],
          "internalType": "struct InventoryStorage.Item[]",
          "name": "items",
          "type": "tuple[]"
        }
      ],
      "name": "disallowItemsInSlot",
      "outputs": [],
      "stateMutability": "nonpayable",
      "type": "function"
    },
    {
      "inputs": [
        {
          "internalType": "uint256",
          "name": "arcadianId",
          "type": "uint256"
        },
        {
          "components": [
            {
              "internalType": "address",
              "name": "erc721Contract",
              "type": "address"
            },
            {
              "internalType": "uint256",
              "name": "id",
              "type": "uint256"
            }
          ],
          "internalType": "struct InventoryStorage.Item[]",
          "name": "items",
          "type": "tuple[]"
        }
      ],
      "name": "equip",
      "outputs": [],
      "stateMutability": "nonpayable",
      "type": "function"
    },
    {
      "inputs": [
        {
          "internalType": "uint256",
          "name": "arcadianId",
          "type": "uint256"
        },
        {
          "internalType": "uint256",
          "name": "slotId",
          "type": "uint256"
        }
      ],
      "name": "equipped",
      "outputs": [
        {
          "components": [
            {
              "internalType": "uint256",
              "name": "slotId",
              "type": "uint256"
            },
            {
              "internalType": "address",
              "name": "erc721Contract",
              "type": "address"
            },
            {
              "internalType": "uint256",
              "name": "itemId",
              "type": "uint256"
            }
          ],
          "internalType": "struct InventoryInternal.ItemInSlot",
          "name": "item",
          "type": "tuple"
        }
      ],
      "stateMutability": "view",
      "type": "function"
    },
    {
      "inputs": [
        {
          "internalType": "uint256",
          "name": "arcadianId",
          "type": "uint256"
        }
      ],
      "name": "equippedAll",
      "outputs": [
        {
          "components": [
            {
              "internalType": "uint256",
              "name": "slotId",
              "type": "uint256"
            },
            {
              "internalType": "address",
              "name": "erc721Contract",
              "type": "address"
            },
            {
              "internalType": "uint256",
              "name": "itemId",
              "type": "uint256"
            }
          ],
          "internalType": "struct InventoryInternal.ItemInSlot[]",
          "name": "equippedSlot",
          "type": "tuple[]"
        }
      ],
      "stateMutability": "view",
      "type": "function"
    },
    {
      "inputs": [
        {
          "internalType": "uint256",
          "name": "arcadianId",
          "type": "uint256"
        },
        {
          "internalType": "uint256[]",
          "name": "slotIds",
          "type": "uint256[]"
        }
      ],
      "name": "equippedBatch",
      "outputs": [
        {
          "components": [
            {
              "internalType": "uint256",
              "name": "slotId",
              "type": "uint256"
            },
            {
              "internalType": "address",
              "name": "erc721Contract",
              "type": "address"
            },
            {
              "internalType": "uint256",
              "name": "itemId",
              "type": "uint256"
            }
          ],
          "internalType": "struct InventoryInternal.ItemInSlot[]",
          "name": "equippedSlot",
          "type": "tuple[]"
        }
      ],
      "stateMutability": "view",
      "type": "function"
    },
    {
      "inputs": [
        {
          "internalType": "address",
          "name": "account",
          "type": "address"
        },
        {
          "internalType": "uint256",
          "name": "slotId",
          "type": "uint256"
        }
      ],
      "name": "getBaseModifierCoupon",
      "outputs": [
        {
          "internalType": "uint256",
          "name": "",
          "type": "uint256"
        }
      ],
      "stateMutability": "view",
      "type": "function"
    },
    {
      "inputs": [
        {
          "internalType": "address",
          "name": "account",
          "type": "address"
        }
      ],
      "name": "getBaseModifierCouponAll",
      "outputs": [
        {
          "components": [
            {
              "internalType": "uint256",
              "name": "slotId",
              "type": "uint256"
            },
            {
              "internalType": "uint256",
              "name": "amount",
              "type": "uint256"
            }
          ],
          "internalType": "struct InventoryInternal.BaseModifierCoupon[]",
          "name": "",
          "type": "tuple[]"
        }
      ],
      "stateMutability": "view",
      "type": "function"
    },
    {
      "inputs": [
        {
          "internalType": "uint256",
          "name": "arcadianId",
          "type": "uint256"
        },
        {
          "components": [
            {
              "internalType": "address",
              "name": "erc721Contract",
              "type": "address"
            },
            {
              "internalType": "uint256",
              "name": "id",
              "type": "uint256"
            }
          ],
          "internalType": "struct InventoryStorage.Item[]",
          "name": "items",
          "type": "tuple[]"
        }
      ],
      "name": "isArcadianUnique",
      "outputs": [
        {
          "internalType": "bool",
          "name": "",
          "type": "bool"
        }
      ],
      "stateMutability": "view",
      "type": "function"
    },
    {
      "inputs": [
        {
          "internalType": "uint256",
          "name": "slotId",
          "type": "uint256"
        }
      ],
      "name": "numAllowedItems",
      "outputs": [
        {
          "internalType": "uint256",
          "name": "",
          "type": "uint256"
        }
      ],
      "stateMutability": "view",
      "type": "function"
    },
    {
      "inputs": [],
      "name": "numSlots",
      "outputs": [
        {
          "internalType": "uint256",
          "name": "",
          "type": "uint256"
        }
      ],
      "stateMutability": "view",
      "type": "function"
    },
    {
      "inputs": [
        {
          "internalType": "address",
          "name": "",
          "type": "address"
        },
        {
          "internalType": "address",
          "name": "",
          "type": "address"
        },
        {
          "internalType": "uint256[]",
          "name": "",
          "type": "uint256[]"
        },
        {
          "internalType": "uint256[]",
          "name": "",
          "type": "uint256[]"
        },
        {
          "internalType": "bytes",
          "name": "",
          "type": "bytes"
        }
      ],
      "name": "onERC1155BatchReceived",
      "outputs": [
        {
          "internalType": "bytes4",
          "name": "",
          "type": "bytes4"
        }
      ],
      "stateMutability": "nonpayable",
      "type": "function"
    },
    {
      "inputs": [
        {
          "internalType": "address",
          "name": "",
          "type": "address"
        },
        {
          "internalType": "address",
          "name": "",
          "type": "address"
        },
        {
          "internalType": "uint256",
          "name": "",
          "type": "uint256"
        },
        {
          "internalType": "uint256",
          "name": "",
          "type": "uint256"
        },
        {
          "internalType": "bytes",
          "name": "",
          "type": "bytes"
        }
      ],
      "name": "onERC1155Received",
      "outputs": [
        {
          "internalType": "bytes4",
          "name": "",
          "type": "bytes4"
        }
      ],
      "stateMutability": "nonpayable",
      "type": "function"
    },
    {
      "inputs": [
        {
          "internalType": "uint256",
          "name": "slotId",
          "type": "uint256"
        },
        {
          "internalType": "bool",
          "name": "isBase",
          "type": "bool"
        }
      ],
      "name": "setSlotBase",
      "outputs": [],
      "stateMutability": "nonpayable",
      "type": "function"
    },
    {
      "inputs": [
        {
          "internalType": "uint256",
          "name": "slotId",
          "type": "uint256"
        },
        {
          "internalType": "bool",
          "name": "permanent",
          "type": "bool"
        }
      ],
      "name": "setSlotPermanent",
      "outputs": [],
      "stateMutability": "nonpayable",
      "type": "function"
    },
    {
      "inputs": [
        {
          "internalType": "uint256",
          "name": "slotId",
          "type": "uint256"
        }
      ],
      "name": "slot",
      "outputs": [
        {
          "components": [
            {
              "internalType": "uint256",
              "name": "id",
              "type": "uint256"
            },
            {
              "internalType": "bool",
              "name": "permanent",
              "type": "bool"
            },
            {
              "internalType": "bool",
              "name": "isBase",
              "type": "bool"
            }
          ],
          "internalType": "struct InventoryStorage.Slot",
          "name": "existentSlot",
          "type": "tuple"
        }
      ],
      "stateMutability": "view",
      "type": "function"
    },
    {
      "inputs": [],
      "name": "slotsAll",
      "outputs": [
        {
          "components": [
            {
              "internalType": "uint256",
              "name": "id",
              "type": "uint256"
            },
            {
              "internalType": "bool",
              "name": "permanent",
              "type": "bool"
            },
            {
              "internalType": "bool",
              "name": "isBase",
              "type": "bool"
            }
          ],
          "internalType": "struct InventoryStorage.Slot[]",
          "name": "existentSlots",
          "type": "tuple[]"
        }
      ],
      "stateMutability": "view",
      "type": "function"
    },
    {
      "inputs": [
        {
          "internalType": "bytes4",
          "name": "interfaceId",
          "type": "bytes4"
        }
      ],
      "name": "supportsInterface",
      "outputs": [
        {
          "internalType": "bool",
          "name": "",
          "type": "bool"
        }
      ],
      "stateMutability": "view",
      "type": "function"
    },
    {
      "inputs": [
        {
          "internalType": "uint256",
          "name": "arcadianId",
          "type": "uint256"
        },
        {
          "internalType": "uint256[]",
          "name": "slotIds",
          "type": "uint256[]"
        }
      ],
      "name": "unequip",
      "outputs": [],
      "stateMutability": "nonpayable",
      "type": "function"
    }
  ],
  "transactionHash": "0x76b0fd04bc472b725fefc84c7f0a6e34d47fce57e7540df5bab039546f287ea5",
  "args": [],
  "numDeployments": 7,
  "solcInputHash": "645d4793aba1021aa461a371a9993d81",
  "bytecode": "0x608060405234801561001057600080fd5b50613159806100206000396000f3fe608060405234801561001057600080fd5b50600436106101585760003560e01c80637f85db2d116100c3578063b1b2fef41161007c578063b1b2fef414610337578063b2025e4f1461034c578063bc197c81146103c9578063c06ffe9014610401578063ef0bf7de14610414578063f23a6e611461043457600080fd5b80637f85db2d146102ac57806389633e51146102e35780638e980d4d146102f6578063947687e7146103095780639621ff251461031c5780639e3ccb2a1461032457600080fd5b80634274a143116101155780634274a1431461020e578063473bdb9814610221578063603f40ec14610234578063633e2d5a1461027357806371795fca146102865780637a8455a11461029957600080fd5b806301ffc9a71461015d5780630cf03ea9146101855780630f58dcda1461019a5780631da7c70a146101ba57806325989b45146101da5780632f8bd3c8146101ed575b600080fd5b61017061016b3660046127d5565b610453565b60405190151581526020015b60405180910390f35b610198610193366004612814565b61048a565b005b6101ad6101a836600461288b565b6104c6565b60405161017c91906128d6565b6101cd6101c836600461294d565b6104db565b60405161017c919061296a565b6101986101e83660046129b9565b6104e6565b6102006101fb366004612a3b565b610558565b60405190815260200161017c565b61019861021c366004612a97565b610563565b61019861022f366004612a97565b61059b565b610200610242366004612ad5565b60009081527ff672b8dc84d117c1e14949d8bc3977392b5ab7de9d01b854d389cdc31bf0d43d602052604090205490565b610200610281366004612ad5565b6105ce565b610198610294366004612814565b6105d9565b6101706102a7366004612a97565b61060b565b6102bf6102ba366004612aee565b610618565b6040805182516001600160a01b03168152602092830151928101929092520161017c565b6102006102f1366004612b10565b61063d565b610198610304366004612a97565b610649565b610198610317366004612b3c565b6106a6565b6102006106e0565b6101ad610332366004612ad5565b6106ef565b61033f6106fa565b60405161017c9190612b9c565b6103bc61035a366004612ad5565b6040805160608082018352600080835260208084018290529284018190529384526000805160206130e483398151915282529282902082519384018352805484526001015460ff80821615159285019290925261010090041615159082015290565b60405161017c9190612bf6565b6103e86103d7366004612d4f565b63bc197c8160e01b95945050505050565b6040516001600160e01b0319909116815260200161017c565b61019861040f36600461288b565b610704565b610427610422366004612aee565b610756565b60405161017c9190612dfc565b6103e8610442366004612e26565b63f23a6e6160e01b95945050505050565b60006001600160e01b03198216630271189760e51b148061048457506301ffc9a760e01b6001600160e01b03198316145b92915050565b61049b610495610768565b33610792565b6104b85760405163d0befa1d60e01b815260040160405180910390fd5b6104c282826107c9565b5050565b60606104d384848461083b565b949350505050565b606061048482610965565b6104f1610495610768565b15801561052657506105246104957ff6deb63e40d71b08820818e006e23fcceb1fce7a499bc15b71b2526cbf9efa735490565b155b1561054457604051630b24262960e31b815260040160405180910390fd5b6105518585858585610b11565b5050505050565b600061048482610cf9565b61056e610495610768565b61058b5760405163d0befa1d60e01b815260040160405180910390fd5b610596838383610d67565b505050565b6105a6610495610768565b6105c35760405163d0befa1d60e01b815260040160405180910390fd5b610596838383610e1b565b600061048482611092565b6105e4610495610768565b6106015760405163d0befa1d60e01b815260040160405180910390fd5b6104c28282611101565b60006104d384848461116c565b6040805180820190915260008082526020820152610636838361133e565b9392505050565b60006106368383611408565b7f09acf4e54214992e70883cf7dcd6957ff2c71cd9e14df4bec4383bc0d11607dc805460020361068c57604051635db5c7cd60e11b815260040160405180910390fd5b6002815561069d84848460006114d1565b60019055505050565b6106b1610495610768565b6106ce5760405163d0befa1d60e01b815260040160405180910390fd5b6106da84848484611894565b50505050565b60006106ea61194f565b905090565b606061048482611965565b60606106ea611a6c565b7f09acf4e54214992e70883cf7dcd6957ff2c71cd9e14df4bec4383bc0d11607dc805460020361074757604051635db5c7cd60e11b815260040160405180910390fd5b6002815561069d848484611b7d565b61075e6127ab565b6106368383611cc9565b60007ff6deb63e40d71b08820818e006e23fcceb1fce7a499bc15b71b2526cbf9efa725b54919050565b60008281527fd3889cc5458b268d0544e5534672df1296288ca3f93cbd39bd6f497a5c622811602052604081206106369083611d36565b818015806107e557506000805160206131048339815191525481115b156108035760405163d751397d60e01b815260040160405180910390fd5b5060009182526000805160206130e4833981519152602052604090912060010180549115156101000261ff0019909216919091179055565b6060600080516020613104833981519152826001600160401b0381111561086457610864612c1b565b60405190808252806020026020018201604052801561089d57816020015b61088a6127ab565b8152602001906001900390816108825790505b50915060005b8381101561095c5760008681526002830160205260408120818787858181106108ce576108ce612e8e565b9050602002013581526020019081526020016000209050604051806060016040528087878581811061090257610902612e8e565b6020908102929092013583525083546001600160a01b0316908201526001830154604090910152845185908490811061093d5761093d612e8e565b602002602001018190525050808061095490612eba565b9150506108a3565b50509392505050565b6000805160206131048339815191528054606091906000805b828110156109d8576000610993826001612ed3565b6000818152600187810160205260409091200154909150610100900460ff16156109c557826109c181612eba565b9350505b50806109d081612eba565b91505061097e565b506000816001600160401b038111156109f3576109f3612c1b565b604051908082528060200260200182016040528015610a3857816020015b6040805180820190915260008082526020820152815260200190600190039081610a115790505b5090506000805b84811015610b05576000610a54826001612ed3565b6000818152600189810160205260409091200154909150610100900460ff16610a7d5750610af3565b80848481518110610a9057610a90612e8e565b602090810291909101810151919091526001600160a01b038a166000908152600889018252604080822084835290925220548451859085908110610ad657610ad6612e8e565b602090810291909101810151015282610aee81612eba565b935050505b80610afd81612eba565b915050610a3f565b50909695505050505050565b828114610b31576040516303f7219d60e41b815260040160405180910390fd5b600080516020613104833981519152805460005b85811015610c9e57868682818110610b5f57610b5f612e8e565b905060200201356000148015610b8c575081878783818110610b8357610b83612e8e565b90506020020135115b15610baa5760405163d751397d60e01b815260040160405180910390fd5b826001016000888884818110610bc257610bc2612e8e565b90506020020135815260200190815260200160002060010160019054906101000a900460ff16610c05576040516332fa2abb60e01b815260040160405180910390fd5b848482818110610c1757610c17612e8e565b90506020020135610c3360008051602061310483398151915290565b6001600160a01b038a1660009081526008919091016020526040812090898985818110610c6257610c62612e8e565b9050602002013581526020019081526020016000206000828254610c869190612ed3565b90915550819050610c9681612eba565b915050610b45565b50866001600160a01b0316336001600160a01b03167f79ef5dda420a532ad69ccb2d06e5304e6b2b0e93c99a27d63909c8ffce8faf4e88888888604051610ce89493929190612f18565b60405180910390a350505050505050565b60007ff672b8dc84d117c1e14949d8bc3977392b5ab7de9d01b854d389cdc31bf0d43981610d2a602085018561294d565b6001600160a01b03166001600160a01b03168152602001908152602001600020600083602001358152602001908152602001600020549050919050565b82801580610d8357506000805160206131048339815191525481115b15610da15760405163d751397d60e01b815260040160405180910390fd5b60005b82811015610ddf57610dcd85858584818110610dc257610dc2612e8e565b905060400201611d58565b80610dd781612eba565b915050610da4565b5060405184815233907ff69b53fa14ee16895edbe90d00c7b7af9214baf87c69bf5594126b114c9337ed9060200160405180910390a250505050565b82801580610e3757506000805160206131048339815191525481115b15610e555760405163d751397d60e01b815260040160405180910390fd5b60008051602061310483398151915260005b8381101561105557610ea9858583818110610e8457610e84612e8e565b610e9a926020604090920201908101915061294d565b6001600160a01b03163b151590565b610ec657604051633c65e02b60e21b815260040160405180910390fd5b6000826003016000878785818110610ee057610ee0612e8e565b610ef6926020604090920201908101915061294d565b6001600160a01b03166001600160a01b031681526020019081526020016000206000878785818110610f2a57610f2a612e8e565b905060400201602001358152602001908152602001600020549050600081118015610f555750868114155b15610f7057610f7081878785818110610dc257610dc2612e8e565b60008781526004840160205260409020868684818110610f9257610f92612e8e565b835460018101855560009485526020909420604090910292909201926002029091019050610fc08282612f3f565b505086836003016000888886818110610fdb57610fdb612e8e565b610ff1926020604090920201908101915061294d565b6001600160a01b03166001600160a01b03168152602001908152602001600020600088888681811061102557611025612e8e565b9050604002016020013581526020019081526020016000208190555050808061104d90612eba565b915050610e67565b5060405185815233907ff69b53fa14ee16895edbe90d00c7b7af9214baf87c69bf5594126b114c9337ed9060200160405180910390a25050505050565b6000818015806110b057506000805160206131048339815191525481115b156110ce5760405163d751397d60e01b815260040160405180910390fd5b505060009081527ff672b8dc84d117c1e14949d8bc3977392b5ab7de9d01b854d389cdc31bf0d43a602052604090205490565b8180158061111d57506000805160206131048339815191525481115b1561113b5760405163d751397d60e01b815260040160405180910390fd5b5060009182526000805160206130e48339815191526020526040909120600101805460ff1916911515919091179055565b6000805160206131048339815191528054600091906060835b8281101561131c57600061119a826001612ed3565b6000818152600187810160205260409091200154909150610100900460ff166111c3575061130a565b604080518082019091526000808252602082015260005b8881101561124957826112038b8b848181106111f8576111f8612e8e565b905060400201610cf9565b036112375789898281811061121a5761121a612e8e565b9050604002018036038101906112309190612f79565b9150611249565b8061124181612eba565b9150506111da565b5080516001600160a01b03166112db5760008a815260028701602090815260408083208584529091529020546001600160a01b0316156112c2575060008981526002860160209081526040808320848452825291829020825180840190935280546001600160a01b0316835260010154908201526112db565b60405163a9614f1560e01b815260040160405180910390fd5b80516020808301516040516112f69388938793919201612fd0565b604051602081830303815290604052935050505b8061131481612eba565b915050611185565b5080516020820120611332906005850190611f2d565b15979650505050505050565b60408051808201909152600080825260208201528280158061136e57506000805160206131048339815191525481115b1561138c5760405163d751397d60e01b815260040160405180910390fd5b60008481527ff672b8dc84d117c1e14949d8bc3977392b5ab7de9d01b854d389cdc31bf0d43a602052604090208054849081106113cb576113cb612e8e565b60009182526020918290206040805180820190915260029092020180546001600160a01b03168252600101549181019190915291505b5092915050565b60008180158061142657506000805160206131048339815191525481115b156114445760405163d751397d60e01b815260040160405180910390fd5b60008381526000805160206130e48339815191526020526040902060010154610100900460ff16611488576040516332fa2abb60e01b815260040160405180910390fd5b50506001600160a01b039190911660009081527ff672b8dc84d117c1e14949d8bc3977392b5ab7de9d01b854d389cdc31bf0d43e60209081526040808320938352929052205490565b6040516331a9108f60e11b815260048101859052849030908190636352211e90602401602060405180830381865afa158015611511573d6000803e3d6000fd5b505050506040513d601f19601f820116820180604052508101906115359190613021565b6001600160a01b0316336001600160a01b0316146115665760405163aee05b5d60e01b815260040160405180910390fd5b60008490036115885760405163627652c960e11b815260040160405180910390fd5b600080516020613104833981519152600080866001600160401b038111156115b2576115b2612c1b565b6040519080825280602002602001820160405280156115db578160200160208202803683370190505b50905060005b8781101561167057600061160d8b8b8b8581811061160157611601612e8e565b9050604002018a611f45565b6000818152600187810160205260409091200154909150610100900460ff161561163f578361163b81612eba565b9450505b8083838151811061165257611652612e8e565b6020908102919091010152508061166881612eba565b9150506115e1565b5061167a896122b6565b6116975760405163a9614f1560e01b815260040160405180910390fd5b8115611847576116a689612385565b6116c25760405162ecf30560e51b815260040160405180910390fd5b85611847576000826001600160401b038111156116e1576116e1612c1b565b60405190808252806020026020018201604052801561170a578160200160208202803683370190505b5090506000805b898110156118025760008660030160008d8d8581811061173357611733612e8e565b611749926020604090920201908101915061294d565b6001600160a01b03166001600160a01b0316815260200190815260200160002060008d8d8581811061177d5761177d612e8e565b90506040020160200135815260200190815260200160002054905086600101600082815260200190815260200160002060010160019054906101000a900460ff16156117ef57808484815181106117d6576117d6612e8e565b6020908102919091010152826117eb81612eba565b9350505b50806117fa81612eba565b915050611711565b50336001600160a01b03167f89bd170ed02db0339b3c90b91de53c2a07b48ad36cd559f2d04dd3c72521dacd8360405161183c919061303e565b60405180910390a250505b88336001600160a01b03167f557dc03f902756383ba5a748ab63ec6ec44b2880dba84ad33dc6ffe670f1886183604051611881919061303e565b60405180910390a3505050505050505050565b600080516020613104833981519152805460019082906000906118b8908490612ed3565b90915550508054600081815260018084016020526040909120908101805461ffff191688151561ff0019161761010088151502179055819055821561190257611902818585610e1b565b60408051828152871515602082015286151581830152905133917ff24b969da6d469bdd7271673478fb6360f5008752c5991749abbdb4624727012919081900360600190a2505050505050565b600060008051602061310483398151915261078c565b600080516020613104833981519152805460609190806001600160401b0381111561199257611992612c1b565b6040519080825280602002602001820160405280156119cb57816020015b6119b86127ab565b8152602001906001900390816119b05790505b50925060005b81811015611a645760006119e6826001612ed3565b60008781526002860160209081526040808320848452825291829020825160608101845284815281546001600160a01b03169281019290925260018101549282019290925287519293509091879085908110611a4457611a44612e8e565b602002602001018190525050508080611a5c90612eba565b9150506119d1565b505050919050565b600080516020613104833981519152805460609190806001600160401b03811115611a9957611a99612c1b565b604051908082528060200260200182016040528015611ae457816020015b6040805160608101825260008082526020808301829052928201528252600019909201910181611ab75790505b50925060005b81811015611b77576000611aff826001612ed3565b60008181526001808701602090815260409283902083516060810185528154815292015460ff808216151592840192909252610100900416151591810191909152865191925090869084908110611b5857611b58612e8e565b6020026020010181905250508080611b6f90612eba565b915050611aea565b50505090565b6040516331a9108f60e11b815260048101849052839030908190636352211e90602401602060405180830381865afa158015611bbd573d6000803e3d6000fd5b505050506040513d601f19601f82011682018060405250810190611be19190613021565b6001600160a01b0316336001600160a01b031614611c125760405163aee05b5d60e01b815260040160405180910390fd5b6000839003611c3457604051635740c67760e11b815260040160405180910390fd5b60005b83811015611c7357611c6186868684818110611c5557611c55612e8e565b905060200201356124a5565b80611c6b81612eba565b915050611c37565b50611c7d85612385565b5084336001600160a01b03167f3822f2cd6d118934e31e6171da74d9d46131fb402be1861b3cb4460440aeab638686604051611cba929190613076565b60405180910390a35050505050565b611cd16127ab565b5060009182527ff672b8dc84d117c1e14949d8bc3977392b5ab7de9d01b854d389cdc31bf0d43860209081526040808420838552825292839020835160608101855292835280546001600160a01b031691830191909152600101549181019190915290565b6001600160a01b03811660009081526001830160205260408120541515610636565b60008281527ff672b8dc84d117c1e14949d8bc3977392b5ab7de9d01b854d389cdc31bf0d43a6020526040812054600080516020613104833981519152915b81811015611eda5783602001358360040160008781526020019081526020016000208281548110611dca57611dca612e8e565b90600052602060002090600202016001015403611ec85760008581526004840160205260409020611dfc60018461308a565b81548110611e0c57611e0c612e8e565b90600052602060002090600202018360040160008781526020019081526020016000208281548110611e4057611e40612e8e565b60009182526020808320845460029093020180546001600160a01b0319166001600160a01b0390931692909217825560019384015493909101929092558681526004850190915260409020805480611e9a57611e9a61309d565b60008281526020812060026000199093019283020180546001600160a01b0319168155600101559055611eda565b80611ed281612eba565b915050611d97565b50600382016000611eee602086018661294d565b6001600160a01b03166001600160a01b031681526020019081526020016000206000846020013581526020019081526020016000206000905550505050565b60008181526001830160205260408120541515610636565b60006000805160206131048339815191527ff672b8dc84d117c1e14949d8bc3977392b5ab7de9d01b854d389cdc31bf0d43982611f85602087018761294d565b6001600160a01b03168152602080820192909252604090810160009081208784013582529092529020549150811580611fcc57506000805160206131048339815191525482115b15611fea576040516363efa0e360e01b815260040160405180910390fd5b8215801561201057506000828152600182810160205260409091200154610100900460ff165b15612081573360009081526008820160209081526040808320858452909152902054600111156120535760405163bbd28dfd60e01b815260040160405180910390fd5b3360009081526008820160209081526040808320858452909152812080549161207b836130b3565b91905055505b60008581526002820160209081526040808320858452825280832060018086019093529220015460ff1680156120c0575080546001600160a01b031615155b156120de5760405163bd8a5e1560e01b815260040160405180910390fd5b6120eb602086018661294d565b81546001600160a01b03908116911614801561210e575084602001358160010154145b1561212c5760405163c80df0cb60e01b815260040160405180910390fd5b600086815260028301602090815260408083208684529091529020546001600160a01b0316156121605761216086846125b1565b600061216f602087018761294d565b604051627eeac760e11b8152336004820152602088013560248201529091506001906001600160a01b0383169062fdd58e90604401602060405180830381865afa1580156121c1573d6000803e3d6000fd5b505050506040513d601f19601f820116820180604052508101906121e591906130ca565b1015612204576040516335ba250d60e11b815260040160405180910390fd5b604051637921219560e11b8152336004820152306024820152602087013560448201526001606482015260a06084820152600060a48201526001600160a01b0382169063f242432a9060c401600060405180830381600087803b15801561226a57600080fd5b505af115801561227e573d6000803e3d6000fd5b5050506000888152600285016020908152604080832088845290915290208791506122a98282612f3f565b9050505050509392505050565b600080516020613104833981519152805460009190825b8181101561237a5760006122e2826001612ed3565b6000818152600186810160205260409091200154909150610100900460ff1661230b5750612368565b6000818152600185810160205260409091200154610100900460ff1680156123555750600086815260028501602090815260408083208484529091529020546001600160a01b0316155b156123665750600095945050505050565b505b8061237281612eba565b9150506122cd565b506001949350505050565b600080516020613104833981519152805460009190606090835b818110156124435760006123b4826001612ed3565b6000818152600187810160205260409091200154909150610100900460ff166123dd5750612431565b60008781526002860160209081526040808320848452825291829020805460018201549351919361241d93899387936001600160a01b0316929101612fd0565b604051602081830303815290604052945050505b8061243b81612eba565b91505061239f565b50815160208301206124586005850182611f2d565b60008781526007860160205260409020549015955061247b906005860190612696565b5061248960058501826126a2565b5060009586526007909301602052505060409092209190915590565b808015806124c157506000805160206131048339815191525481115b156124df5760405163d751397d60e01b815260040160405180910390fd5b60008281526000805160206130e483398151915260205260409020600101546000805160206131048339815191529060ff161561252f5760405163bd8a5e1560e01b815260040160405180910390fd5b600084815260028201602090815260408083208684529091529020546001600160a01b031661257157604051632755285560e01b815260040160405180910390fd5b6000838152600182810160205260409091200154610100900460ff16156125ab5760405163abfc1e6160e01b815260040160405180910390fd5b6106da84845b60006000805160206131048339815191526000848152600282016020908152604080832086845290915280822080546001808301549351637921219560e11b81523060048201523360248201526044810194909452606484015260a0608484015260a48301939093529293506001600160a01b0390911690819063f242432a9060c401600060405180830381600087803b15801561264e57600080fd5b505af1158015612662573d6000803e3d6000fd5b505050600095865250505060020160209081526040808420928452919052812080546001600160a01b031916815560010155565b600061063683836126ae565b60006106368383612768565b60008181526001830160205260408120548015611401578354600090859060001981019081106126e0576126e0612e8e565b906000526020600020015490508085600001600184038154811061270657612706612e8e565b60009182526020808320909101929092559182526001860190526040902081905583548490806127385761273861309d565b60008281526020808220830160001990810183905590920190925593815260019485019093525050604081205590565b6000818152600183016020526040812054610484575081546001808201845560008481526020808220909301849055845493815293810190915260409092205590565b60405180606001604052806000815260200160006001600160a01b03168152602001600081525090565b6000602082840312156127e757600080fd5b81356001600160e01b03198116811461063657600080fd5b8035801515811461280f57600080fd5b919050565b6000806040838503121561282757600080fd5b82359150612837602084016127ff565b90509250929050565b60008083601f84011261285257600080fd5b5081356001600160401b0381111561286957600080fd5b6020830191508360208260051b850101111561288457600080fd5b9250929050565b6000806000604084860312156128a057600080fd5b8335925060208401356001600160401b038111156128bd57600080fd5b6128c986828701612840565b9497909650939450505050565b6020808252825182820181905260009190848201906040850190845b81811015610b0557612922838551805182526020808201516001600160a01b031690830152604090810151910152565b92840192606092909201916001016128f2565b6001600160a01b038116811461294a57600080fd5b50565b60006020828403121561295f57600080fd5b813561063681612935565b602080825282518282018190526000919060409081850190868401855b828110156129ac57815180518552860151868501529284019290850190600101612987565b5091979650505050505050565b6000806000806000606086880312156129d157600080fd5b85356129dc81612935565b945060208601356001600160401b03808211156129f857600080fd5b612a0489838a01612840565b90965094506040880135915080821115612a1d57600080fd5b50612a2a88828901612840565b969995985093965092949392505050565b600060408284031215612a4d57600080fd5b50919050565b60008083601f840112612a6557600080fd5b5081356001600160401b03811115612a7c57600080fd5b6020830191508360208260061b850101111561288457600080fd5b600080600060408486031215612aac57600080fd5b8335925060208401356001600160401b03811115612ac957600080fd5b6128c986828701612a53565b600060208284031215612ae757600080fd5b5035919050565b60008060408385031215612b0157600080fd5b50508035926020909101359150565b60008060408385031215612b2357600080fd5b8235612b2e81612935565b946020939093013593505050565b60008060008060608587031215612b5257600080fd5b612b5b856127ff565b9350612b69602086016127ff565b925060408501356001600160401b03811115612b8457600080fd5b612b9087828801612a53565b95989497509550505050565b6020808252825182820181905260009190848201906040850190845b81811015610b0557612be3838551805182526020808201511515908301526040908101511515910152565b9284019260609290920191600101612bb8565b8151815260208083015115159082015260408083015115159082015260608101610484565b634e487b7160e01b600052604160045260246000fd5b604051601f8201601f191681016001600160401b0381118282101715612c5957612c59612c1b565b604052919050565b600082601f830112612c7257600080fd5b813560206001600160401b03821115612c8d57612c8d612c1b565b8160051b612c9c828201612c31565b9283528481018201928281019087851115612cb657600080fd5b83870192505b84831015612cd557823582529183019190830190612cbc565b979650505050505050565b600082601f830112612cf157600080fd5b81356001600160401b03811115612d0a57612d0a612c1b565b612d1d601f8201601f1916602001612c31565b818152846020838601011115612d3257600080fd5b816020850160208301376000918101602001919091529392505050565b600080600080600060a08688031215612d6757600080fd5b8535612d7281612935565b94506020860135612d8281612935565b935060408601356001600160401b0380821115612d9e57600080fd5b612daa89838a01612c61565b94506060880135915080821115612dc057600080fd5b612dcc89838a01612c61565b93506080880135915080821115612de257600080fd5b50612def88828901612ce0565b9150509295509295909350565b815181526020808301516001600160a01b0316908201526040808301519082015260608101610484565b600080600080600060a08688031215612e3e57600080fd5b8535612e4981612935565b94506020860135612e5981612935565b9350604086013592506060860135915060808601356001600160401b03811115612e8257600080fd5b612def88828901612ce0565b634e487b7160e01b600052603260045260246000fd5b634e487b7160e01b600052601160045260246000fd5b600060018201612ecc57612ecc612ea4565b5060010190565b8082018082111561048457610484612ea4565b81835260006001600160fb1b03831115612eff57600080fd5b8260051b80836020870137939093016020019392505050565b604081526000612f2c604083018688612ee6565b8281036020840152612cd5818587612ee6565b8135612f4a81612935565b6001600160a01b0381166bffffffffffffffffffffffff60a01b83541617825550602082013560018201555050565b600060408284031215612f8b57600080fd5b604051604081018181106001600160401b0382111715612fad57612fad612c1b565b6040528235612fbb81612935565b81526020928301359281019290925250919050565b6000855160005b81811015612ff15760208189018101518583015201612fd7565b50919091019384525060609190911b6bffffffffffffffffffffffff191660208301526034820152605401919050565b60006020828403121561303357600080fd5b815161063681612935565b6020808252825182820181905260009190848201906040850190845b81811015610b055783518352928401929184019160010161305a565b6020815260006104d3602083018486612ee6565b8181038181111561048457610484612ea4565b634e487b7160e01b600052603160045260246000fd5b6000816130c2576130c2612ea4565b506000190190565b6000602082840312156130dc57600080fd5b505191905056fef672b8dc84d117c1e14949d8bc3977392b5ab7de9d01b854d389cdc31bf0d437f672b8dc84d117c1e14949d8bc3977392b5ab7de9d01b854d389cdc31bf0d436a2646970667358221220340994c68a5ea94401bb3f0da86ee7888b12ffb01cdecc96c87ee3ef48cdb3a464736f6c63430008130033",
  "devdoc": {
    "details": "This contract is responsible for managing the inventory system for the Arcadians using slots.  It defines the functionality to equip and unequip items to Arcadians, check if a combination of items  are unique, and retrieve the inventory slots and allowed items for a slot.  This contract also implements ERC1155Holder to handle ERC1155 token transfers This contract can be used as a facet of a diamond which follows the EIP-2535 diamond standard. It also uses the ReentrancyGuard and Multicall contracts for security and gas efficiency.",
    "kind": "dev",
    "methods": {
      "addBaseModifierCoupons(address,uint256[],uint256[])": {
        "params": {
          "account": "The account to increase the number of coupons",
          "amounts": "the amounts of coupons to increase",
          "slotsIds": "The slots ids to increase the number of coupons"
        }
      },
      "allowItemsInSlot(uint256,(address,uint256)[])": {
        "params": {
          "items": "The list of items to allow in the slot",
          "slotId": "The slot id"
        }
      },
      "allowedItem(uint256,uint256)": {
        "params": {
          "index": "The index of the item",
          "slotId": "The slot id to query"
        },
        "returns": {
          "_0": "A list of all the items that are allowed in the slot"
        }
      },
      "allowedSlot((address,uint256))": {
        "params": {
          "item": "The item to check"
        },
        "returns": {
          "_0": "The allowed slot id for the item. Slots are 1-indexed."
        }
      },
      "createSlot(bool,bool,(address,uint256)[])": {
        "details": "This function is only accessible to the manager roleSlots are 1-indexed",
        "params": {
          "isBase": "If the slot is base",
          "items": "The list of items to allow in the slot",
          "permanent": "Whether or not the slot can be unequipped once equipped"
        }
      },
      "disallowItemsInSlot(uint256,(address,uint256)[])": {
        "params": {
          "items": "The list of items to disallow in the slot",
          "slotId": "The ID of the inventory slot"
        }
      },
      "equip(uint256,(address,uint256)[])": {
        "params": {
          "arcadianId": "The ID of the Arcadian NFT to equip the items for",
          "items": "An array of items to equip in the corresponding slots"
        }
      },
      "equipped(uint256,uint256)": {
        "params": {
          "arcadianId": "The ID of the Arcadian NFT to query",
          "slotId": "The slot id to query"
        }
      },
      "equippedAll(uint256)": {
        "params": {
          "arcadianId": "The ID of the Arcadian NFT to query"
        }
      },
      "equippedBatch(uint256,uint256[])": {
        "params": {
          "arcadianId": "The ID of the Arcadian NFT to query",
          "slotIds": "The slots ids to query"
        }
      },
      "getBaseModifierCoupon(address,uint256)": {
        "params": {
          "account": "The accounts to increase the number of coupons",
          "slotId": "The slot to get the coupon amount from"
        }
      },
      "getBaseModifierCouponAll(address)": {
        "params": {
          "account": "The accounts to increase the number of coupons"
        }
      },
      "isArcadianUnique(uint256,(address,uint256)[])": {
        "details": "The uniqueness is calculated using the existent arcadian items and the input items as wellOnly items equipped in 'base' slots are considered for uniqueness",
        "params": {
          "arcadianId": "The ID of the Arcadian NFT to query",
          "items": "An array of items to check for uniqueness after \"equipped\" over the existent arcadian items."
        }
      },
      "numAllowedItems(uint256)": {
        "params": {
          "slotId": "The slot id to check"
        },
        "returns": {
          "_0": "A list of all the items that are allowed in the slot"
        }
      },
      "numSlots()": {
        "details": "Slots are 1-indexed",
        "returns": {
          "_0": "The number of inventory slots "
        }
      },
      "setSlotBase(uint256,bool)": {
        "details": "This function is only accessible to the manager roleSlots are 1-indexed",
        "params": {
          "isBase": "Whether or not the slot is base"
        }
      },
      "setSlotPermanent(uint256,bool)": {
        "details": "This function is only accessible to the manager roleSlots are 1-indexed",
        "params": {
          "permanent": "Whether or not the slot is permanent"
        }
      },
      "slot(uint256)": {
        "details": "Slots are 1-indexed",
        "params": {
          "slotId": "The ID of the inventory slot"
        },
        "returns": {
          "existentSlot": "The details of the inventory slot"
        }
      },
      "slotsAll()": {
        "details": "Slots are 1-indexed",
        "returns": {
          "existentSlots": "The details of all the inventory slots"
        }
      },
      "supportsInterface(bytes4)": {
        "details": "See {IERC165-supportsInterface}."
      },
      "unequip(uint256,uint256[])": {
        "params": {
          "arcadianId": "The ID of the Arcadian NFT to equip the item for",
          "slotIds": "The slots ids in which the items will be unequipped"
        }
      }
    },
    "title": "InventoryFacet",
    "version": 1
  },
  "userdoc": {
    "kind": "user",
    "methods": {
      "addBaseModifierCoupons(address,uint256[],uint256[])": {
        "notice": "Adds coupons to accounts that allow to modify the base traits"
      },
      "allowItemsInSlot(uint256,(address,uint256)[])": {
        "notice": "Adds items to the list of allowed items for an inventory slot"
      },
      "allowedItem(uint256,uint256)": {
        "notice": "Returns the allowed item for a given slot and the index"
      },
      "allowedSlot((address,uint256))": {
        "notice": "Returns the allowed slot for a given item"
      },
      "createSlot(bool,bool,(address,uint256)[])": {
        "notice": "Creates a new inventory slot"
      },
      "disallowItemsInSlot(uint256,(address,uint256)[])": {
        "notice": "Removes items from the list of allowed items"
      },
      "equip(uint256,(address,uint256)[])": {
        "notice": "Equips multiple items to multiple slots for a specified Arcadian NFT"
      },
      "equipped(uint256,uint256)": {
        "notice": "Retrieves the equipped item in a slot for a specified Arcadian NFT"
      },
      "equippedAll(uint256)": {
        "notice": "Retrieves all the equipped items for a specified Arcadian NFT"
      },
      "equippedBatch(uint256,uint256[])": {
        "notice": "Retrieves the equipped items in the slot of an Arcadian NFT"
      },
      "getBaseModifierCoupon(address,uint256)": {
        "notice": "Returns the number coupons available for an account that allow to modify the base traits"
      },
      "getBaseModifierCouponAll(address)": {
        "notice": "Returns the number coupons available for an account that allow to modify the base traits"
      },
      "isArcadianUnique(uint256,(address,uint256)[])": {
        "notice": "Indicates if a list of items applied to an the arcadian is unique"
      },
      "numAllowedItems(uint256)": {
        "notice": "Returns the number of allowed items for a given slot"
      },
      "numSlots()": {
        "notice": "Returns the number of inventory slots"
      },
      "setSlotBase(uint256,bool)": {
        "notice": "Sets the slot base property"
      },
      "setSlotPermanent(uint256,bool)": {
        "notice": "Sets the slot permanent property"
      },
      "slot(uint256)": {
        "notice": "Returns the details of an inventory slot given its ID"
      },
      "slotsAll()": {
        "notice": "Returns the details of all the existent slots"
      },
      "unequip(uint256,uint256[])": {
        "notice": "Unequips the items equipped in multiple slots for a specified Arcadian NFT"
      }
    },
    "version": 1
  },
  "storageLayout": {
    "storage": [],
    "types": null
  }
}