{
  "address": "0x97ab340Dc38492897dc095EdbE8d8722315b1D58",
  "abi": [
    {
      "inputs": [],
      "name": "EnumerableSet__IndexOutOfBounds",
      "type": "error"
    },
    {
      "inputs": [],
      "name": "Inventory_ArcadianNotUnique",
      "type": "error"
    },
    {
      "inputs": [],
      "name": "Inventory_InputDataMismatch",
      "type": "error"
    },
    {
      "inputs": [],
      "name": "Inventory_InsufficientItemBalance",
      "type": "error"
    },
    {
      "inputs": [],
      "name": "Inventory_InvalidERC1155Contract",
      "type": "error"
    },
    {
      "inputs": [],
      "name": "Inventory_InvalidSlotId",
      "type": "error"
    },
    {
      "inputs": [],
      "name": "Inventory_ItemAlreadyAllowedInSlot",
      "type": "error"
    },
    {
      "inputs": [],
      "name": "Inventory_ItemAlreadyDisallowedInSlot",
      "type": "error"
    },
    {
      "inputs": [],
      "name": "Inventory_ItemAlreadyEquippedInSlot",
      "type": "error"
    },
    {
      "inputs": [],
      "name": "Inventory_ItemDoesNotHaveSlotAssigned",
      "type": "error"
    },
    {
      "inputs": [],
      "name": "Inventory_ItemNotSpecified",
      "type": "error"
    },
    {
      "inputs": [],
      "name": "Inventory_NonBaseSlot",
      "type": "error"
    },
    {
      "inputs": [],
      "name": "Inventory_NotAllBaseSlotsEquipped",
      "type": "error"
    },
    {
      "inputs": [],
      "name": "Inventory_NotArcadianOwner",
      "type": "error"
    },
    {
      "inputs": [],
      "name": "Inventory_SlotAlreadyEquipped",
      "type": "error"
    },
    {
      "inputs": [],
      "name": "Inventory_SlotNotSpecified",
      "type": "error"
    },
    {
      "inputs": [],
      "name": "Inventory_TicketNeededToModifyBaseSlots",
      "type": "error"
    },
    {
      "inputs": [],
      "name": "Inventory_UnequippingBaseSlot",
      "type": "error"
    },
    {
      "inputs": [],
      "name": "Inventory_UnequippingEmptySlot",
      "type": "error"
    },
    {
      "inputs": [],
      "name": "Inventory_UnequippingPermanentSlot",
      "type": "error"
    },
    {
      "inputs": [],
      "name": "ReentrancyGuard__ReentrantCall",
      "type": "error"
    },
    {
      "inputs": [],
      "name": "UintUtils__InsufficientHexLength",
      "type": "error"
    },
    {
      "anonymous": false,
      "inputs": [
        {
          "indexed": true,
          "internalType": "address",
          "name": "oldArcadiansAddress",
          "type": "address"
        },
        {
          "indexed": true,
          "internalType": "address",
          "name": "newArcadiansAddress",
          "type": "address"
        }
      ],
      "name": "ArcadiansAddressChanged",
      "type": "event"
    },
    {
      "anonymous": false,
      "inputs": [
        {
          "indexed": true,
          "internalType": "address",
          "name": "by",
          "type": "address"
        },
        {
          "indexed": false,
          "internalType": "uint256",
          "name": "slotId",
          "type": "uint256"
        }
      ],
      "name": "ItemsAllowedInSlotUpdated",
      "type": "event"
    },
    {
      "anonymous": false,
      "inputs": [
        {
          "indexed": true,
          "internalType": "address",
          "name": "by",
          "type": "address"
        },
        {
          "indexed": true,
          "internalType": "uint256",
          "name": "arcadianId",
          "type": "uint256"
        },
        {
          "indexed": false,
          "internalType": "uint256[]",
          "name": "slots",
          "type": "uint256[]"
        }
      ],
      "name": "ItemsEquipped",
      "type": "event"
    },
    {
      "anonymous": false,
      "inputs": [
        {
          "indexed": true,
          "internalType": "address",
          "name": "by",
          "type": "address"
        },
        {
          "indexed": true,
          "internalType": "uint256",
          "name": "arcadianId",
          "type": "uint256"
        },
        {
          "indexed": false,
          "internalType": "uint256[]",
          "name": "slots",
          "type": "uint256[]"
        }
      ],
      "name": "ItemsUnequipped",
      "type": "event"
    },
    {
      "anonymous": false,
      "inputs": [
        {
          "indexed": true,
          "internalType": "bytes32",
          "name": "role",
          "type": "bytes32"
        },
        {
          "indexed": true,
          "internalType": "bytes32",
          "name": "previousAdminRole",
          "type": "bytes32"
        },
        {
          "indexed": true,
          "internalType": "bytes32",
          "name": "newAdminRole",
          "type": "bytes32"
        }
      ],
      "name": "RoleAdminChanged",
      "type": "event"
    },
    {
      "anonymous": false,
      "inputs": [
        {
          "indexed": true,
          "internalType": "bytes32",
          "name": "role",
          "type": "bytes32"
        },
        {
          "indexed": true,
          "internalType": "address",
          "name": "account",
          "type": "address"
        },
        {
          "indexed": true,
          "internalType": "address",
          "name": "sender",
          "type": "address"
        }
      ],
      "name": "RoleGranted",
      "type": "event"
    },
    {
      "anonymous": false,
      "inputs": [
        {
          "indexed": true,
          "internalType": "bytes32",
          "name": "role",
          "type": "bytes32"
        },
        {
          "indexed": true,
          "internalType": "address",
          "name": "account",
          "type": "address"
        },
        {
          "indexed": true,
          "internalType": "address",
          "name": "sender",
          "type": "address"
        }
      ],
      "name": "RoleRevoked",
      "type": "event"
    },
    {
      "anonymous": false,
      "inputs": [
        {
          "indexed": true,
          "internalType": "address",
          "name": "by",
          "type": "address"
        },
        {
          "indexed": false,
          "internalType": "uint256",
          "name": "slotId",
          "type": "uint256"
        },
        {
          "indexed": false,
          "internalType": "bool",
          "name": "permanent",
          "type": "bool"
        },
        {
          "indexed": false,
          "internalType": "enum InventoryStorage.SlotCategory",
          "name": "category",
          "type": "uint8"
        }
      ],
      "name": "SlotCreated",
      "type": "event"
    },
    {
      "inputs": [
        {
          "internalType": "address",
          "name": "account",
          "type": "address"
        },
        {
          "internalType": "uint256[]",
          "name": "slotsIds",
          "type": "uint256[]"
        },
        {
          "internalType": "uint256[]",
          "name": "amounts",
          "type": "uint256[]"
        }
      ],
      "name": "addBaseModifierTickets",
      "outputs": [],
      "stateMutability": "nonpayable",
      "type": "function"
    },
    {
      "inputs": [
        {
          "internalType": "uint256",
          "name": "slotId",
          "type": "uint256"
        },
        {
          "components": [
            {
              "internalType": "address",
              "name": "erc721Contract",
              "type": "address"
            },
            {
              "internalType": "uint256",
              "name": "id",
              "type": "uint256"
            }
          ],
          "internalType": "struct InventoryStorage.Item[]",
          "name": "items",
          "type": "tuple[]"
        }
      ],
      "name": "allowItemsInSlot",
      "outputs": [],
      "stateMutability": "nonpayable",
      "type": "function"
    },
    {
      "inputs": [
        {
          "internalType": "uint256",
          "name": "slotId",
          "type": "uint256"
        },
        {
          "internalType": "uint256",
          "name": "index",
          "type": "uint256"
        }
      ],
      "name": "allowedItem",
      "outputs": [
        {
          "components": [
            {
              "internalType": "address",
              "name": "erc721Contract",
              "type": "address"
            },
            {
              "internalType": "uint256",
              "name": "id",
              "type": "uint256"
            }
          ],
          "internalType": "struct InventoryStorage.Item",
          "name": "",
          "type": "tuple"
        }
      ],
      "stateMutability": "view",
      "type": "function"
    },
    {
      "inputs": [
        {
          "components": [
            {
              "internalType": "address",
              "name": "erc721Contract",
              "type": "address"
            },
            {
              "internalType": "uint256",
              "name": "id",
              "type": "uint256"
            }
          ],
          "internalType": "struct InventoryStorage.Item",
          "name": "item",
          "type": "tuple"
        }
      ],
      "name": "allowedSlot",
      "outputs": [
        {
          "internalType": "uint256",
          "name": "",
          "type": "uint256"
        }
      ],
      "stateMutability": "view",
      "type": "function"
    },
    {
      "inputs": [
        {
          "internalType": "uint256",
          "name": "arcadianId",
          "type": "uint256"
        }
      ],
      "name": "arcadianToBaseItemHash",
      "outputs": [
        {
          "internalType": "bytes32",
          "name": "",
          "type": "bytes32"
        }
      ],
      "stateMutability": "view",
      "type": "function"
    },
    {
      "inputs": [
        {
          "internalType": "bool",
          "name": "permanent",
          "type": "bool"
        },
        {
          "internalType": "enum InventoryStorage.SlotCategory",
          "name": "category",
          "type": "uint8"
        },
        {
          "components": [
            {
              "internalType": "address",
              "name": "erc721Contract",
              "type": "address"
            },
            {
              "internalType": "uint256",
              "name": "id",
              "type": "uint256"
            }
          ],
          "internalType": "struct InventoryStorage.Item[]",
          "name": "items",
          "type": "tuple[]"
        }
      ],
      "name": "createSlot",
      "outputs": [],
      "stateMutability": "nonpayable",
      "type": "function"
    },
    {
      "inputs": [
        {
          "internalType": "uint256",
          "name": "slotId",
          "type": "uint256"
        },
        {
          "components": [
            {
              "internalType": "address",
              "name": "erc721Contract",
              "type": "address"
            },
            {
              "internalType": "uint256",
              "name": "id",
              "type": "uint256"
            }
          ],
          "internalType": "struct InventoryStorage.Item[]",
          "name": "items",
          "type": "tuple[]"
        }
      ],
      "name": "disallowItemsInSlot",
      "outputs": [],
      "stateMutability": "nonpayable",
      "type": "function"
    },
    {
      "inputs": [
        {
          "internalType": "uint256",
          "name": "arcadianId",
          "type": "uint256"
        },
        {
          "components": [
            {
              "internalType": "address",
              "name": "erc721Contract",
              "type": "address"
            },
            {
              "internalType": "uint256",
              "name": "id",
              "type": "uint256"
            }
          ],
          "internalType": "struct InventoryStorage.Item[]",
          "name": "items",
          "type": "tuple[]"
        }
      ],
      "name": "equip",
      "outputs": [],
      "stateMutability": "nonpayable",
      "type": "function"
    },
    {
      "inputs": [
        {
          "internalType": "uint256",
          "name": "arcadianId",
          "type": "uint256"
        },
        {
          "internalType": "uint256",
          "name": "slotId",
          "type": "uint256"
        }
      ],
      "name": "equipped",
      "outputs": [
        {
          "components": [
            {
              "internalType": "uint256",
              "name": "slotId",
              "type": "uint256"
            },
            {
              "internalType": "address",
              "name": "erc721Contract",
              "type": "address"
            },
            {
              "internalType": "uint256",
              "name": "itemId",
              "type": "uint256"
            }
          ],
          "internalType": "struct InventoryInternal.ItemInSlot",
          "name": "item",
          "type": "tuple"
        }
      ],
      "stateMutability": "view",
      "type": "function"
    },
    {
      "inputs": [
        {
          "internalType": "uint256",
          "name": "arcadianId",
          "type": "uint256"
        }
      ],
      "name": "equippedAll",
      "outputs": [
        {
          "components": [
            {
              "internalType": "uint256",
              "name": "slotId",
              "type": "uint256"
            },
            {
              "internalType": "address",
              "name": "erc721Contract",
              "type": "address"
            },
            {
              "internalType": "uint256",
              "name": "itemId",
              "type": "uint256"
            }
          ],
          "internalType": "struct InventoryInternal.ItemInSlot[]",
          "name": "equippedSlot",
          "type": "tuple[]"
        }
      ],
      "stateMutability": "view",
      "type": "function"
    },
    {
      "inputs": [
        {
          "internalType": "uint256",
          "name": "arcadianId",
          "type": "uint256"
        },
        {
          "internalType": "uint256[]",
          "name": "slotIds",
          "type": "uint256[]"
        }
      ],
      "name": "equippedBatch",
      "outputs": [
        {
          "components": [
            {
              "internalType": "uint256",
              "name": "slotId",
              "type": "uint256"
            },
            {
              "internalType": "address",
              "name": "erc721Contract",
              "type": "address"
            },
            {
              "internalType": "uint256",
              "name": "itemId",
              "type": "uint256"
            }
          ],
          "internalType": "struct InventoryInternal.ItemInSlot[]",
          "name": "equippedSlot",
          "type": "tuple[]"
        }
      ],
      "stateMutability": "view",
      "type": "function"
    },
    {
      "inputs": [
        {
          "internalType": "address",
          "name": "account",
          "type": "address"
        },
        {
          "internalType": "uint256",
          "name": "slotId",
          "type": "uint256"
        }
      ],
      "name": "getBaseModifierTickets",
      "outputs": [
        {
          "internalType": "uint256",
          "name": "",
          "type": "uint256"
        }
      ],
      "stateMutability": "view",
      "type": "function"
    },
    {
      "inputs": [
        {
          "internalType": "uint256",
          "name": "arcadianId",
          "type": "uint256"
        },
        {
          "components": [
            {
              "internalType": "address",
              "name": "erc721Contract",
              "type": "address"
            },
            {
              "internalType": "uint256",
              "name": "id",
              "type": "uint256"
            }
          ],
          "internalType": "struct InventoryStorage.Item[]",
          "name": "items",
          "type": "tuple[]"
        }
      ],
      "name": "isArcadianUnique",
      "outputs": [
        {
          "internalType": "bool",
          "name": "",
          "type": "bool"
        }
      ],
      "stateMutability": "view",
      "type": "function"
    },
    {
      "inputs": [
        {
          "internalType": "uint256",
          "name": "slotId",
          "type": "uint256"
        }
      ],
      "name": "numAllowedItems",
      "outputs": [
        {
          "internalType": "uint256",
          "name": "",
          "type": "uint256"
        }
      ],
      "stateMutability": "view",
      "type": "function"
    },
    {
      "inputs": [],
      "name": "numSlots",
      "outputs": [
        {
          "internalType": "uint256",
          "name": "",
          "type": "uint256"
        }
      ],
      "stateMutability": "view",
      "type": "function"
    },
    {
      "inputs": [
        {
          "internalType": "address",
          "name": "",
          "type": "address"
        },
        {
          "internalType": "address",
          "name": "",
          "type": "address"
        },
        {
          "internalType": "uint256[]",
          "name": "",
          "type": "uint256[]"
        },
        {
          "internalType": "uint256[]",
          "name": "",
          "type": "uint256[]"
        },
        {
          "internalType": "bytes",
          "name": "",
          "type": "bytes"
        }
      ],
      "name": "onERC1155BatchReceived",
      "outputs": [
        {
          "internalType": "bytes4",
          "name": "",
          "type": "bytes4"
        }
      ],
      "stateMutability": "nonpayable",
      "type": "function"
    },
    {
      "inputs": [
        {
          "internalType": "address",
          "name": "",
          "type": "address"
        },
        {
          "internalType": "address",
          "name": "",
          "type": "address"
        },
        {
          "internalType": "uint256",
          "name": "",
          "type": "uint256"
        },
        {
          "internalType": "uint256",
          "name": "",
          "type": "uint256"
        },
        {
          "internalType": "bytes",
          "name": "",
          "type": "bytes"
        }
      ],
      "name": "onERC1155Received",
      "outputs": [
        {
          "internalType": "bytes4",
          "name": "",
          "type": "bytes4"
        }
      ],
      "stateMutability": "nonpayable",
      "type": "function"
    },
    {
      "inputs": [
        {
          "internalType": "uint256",
          "name": "slotId",
          "type": "uint256"
        }
      ],
      "name": "slot",
      "outputs": [
        {
          "components": [
            {
              "internalType": "uint256",
              "name": "id",
              "type": "uint256"
            },
            {
              "internalType": "bool",
              "name": "permanent",
              "type": "bool"
            },
            {
              "internalType": "enum InventoryStorage.SlotCategory",
              "name": "category",
              "type": "uint8"
            }
          ],
          "internalType": "struct InventoryStorage.Slot",
          "name": "existentSlot",
          "type": "tuple"
        }
      ],
      "stateMutability": "view",
      "type": "function"
    },
    {
      "inputs": [],
      "name": "slotsAll",
      "outputs": [
        {
          "components": [
            {
              "internalType": "uint256",
              "name": "id",
              "type": "uint256"
            },
            {
              "internalType": "bool",
              "name": "permanent",
              "type": "bool"
            },
            {
              "internalType": "enum InventoryStorage.SlotCategory",
              "name": "category",
              "type": "uint8"
            }
          ],
          "internalType": "struct InventoryStorage.Slot[]",
          "name": "existentSlots",
          "type": "tuple[]"
        }
      ],
      "stateMutability": "view",
      "type": "function"
    },
    {
      "inputs": [
        {
          "internalType": "bytes4",
          "name": "interfaceId",
          "type": "bytes4"
        }
      ],
      "name": "supportsInterface",
      "outputs": [
        {
          "internalType": "bool",
          "name": "",
          "type": "bool"
        }
      ],
      "stateMutability": "view",
      "type": "function"
    },
    {
      "inputs": [
        {
          "internalType": "uint256",
          "name": "arcadianId",
          "type": "uint256"
        },
        {
          "internalType": "uint256[]",
          "name": "slotIds",
          "type": "uint256[]"
        }
      ],
      "name": "unequip",
      "outputs": [],
      "stateMutability": "nonpayable",
      "type": "function"
    }
  ],
  "transactionHash": "0x66403ef54e12df498fb9c1040d53af1f0bd63927662786c1b020d60c860b93c1",
  "args": [],
  "numDeployments": 3,
  "solcInputHash": "1ba264ed86b96569495ccba9dfb3547c",
  "bytecode": "0x608060405234801561001057600080fd5b506132c4806100206000396000f3fe608060405234801561001057600080fd5b50600436106101375760003560e01c80639621ff25116100b8578063bc197c811161007c578063bc197c81146102df578063c06ffe9014610317578063dc8832151461032a578063ef0bf7de1461033d578063f23a6e611461035d578063fc6116401461037c57600080fd5b80639621ff251461027c5780639e3ccb2a14610284578063b1b2fef414610297578063b2025e4f146102ac578063b9e6a412146102cc57600080fd5b8063603f40ec116100ff578063603f40ec146101cd578063633e2d5a1461020c5780637a8455a11461021f5780637f85db2d146102325780638e980d4d1461026957600080fd5b806301ffc9a71461013c5780630f58dcda146101645780632f8bd3c8146101845780634274a143146101a5578063473bdb98146101ba575b600080fd5b61014f61014a3660046128f4565b61038f565b60405190151581526020015b60405180910390f35b610177610172366004612969565b6103c6565b60405161015b91906129b4565b610197610192366004612a1f565b6103db565b60405190815260200161015b565b6101b86101b3366004612a7b565b6103e6565b005b6101b86101c8366004612a7b565b610406565b6101976101db366004612ab9565b60009081527ff672b8dc84d117c1e14949d8bc3977392b5ab7de9d01b854d389cdc31bf0d43e602052604090205490565b61019761021a366004612ab9565b61041c565b61014f61022d366004612a7b565b610427565b610245610240366004612ad2565b610434565b6040805182516001600160a01b03168152602092830151928101929092520161015b565b6101b8610277366004612a7b565b610459565b6101976104b6565b610177610292366004612ab9565b6104c5565b61029f6104d0565b60405161015b9190612b4e565b6102bf6102ba366004612ab9565b6104da565b60405161015b9190612b90565b6101b86102da366004612b9e565b61057f565b6102fe6102ed366004612d54565b63bc197c8160e01b95945050505050565b6040516001600160e01b0319909116815260200161015b565b6101b8610325366004612969565b61059c565b6101b8610338366004612e01565b6105ee565b61035061034b366004612ad2565b61060d565b60405161015b9190612e83565b6102fe61036b366004612ead565b63f23a6e6160e01b95945050505050565b61019761038a366004612f15565b61061f565b60006001600160e01b03198216630271189760e51b14806103c057506301ffc9a760e01b6001600160e01b03198316145b92915050565b60606103d384848461062b565b949350505050565b60006103c082610755565b6103f66103f16107c3565b6107ed565b6104018383836107fa565b505050565b6104116103f16107c3565b610401838383610958565b60006103c082610c80565b60006103d3848484610cef565b604080518082019091526000808252602082015261045283836110e6565b9392505050565b7f09acf4e54214992e70883cf7dcd6957ff2c71cd9e14df4bec4383bc0d11607dc805460020361049c57604051635db5c7cd60e11b815260040160405180910390fd5b600281556104ad84848460006111b0565b60019055505050565b60006104c06113fa565b905090565b60606103c082611410565b60606104c0611517565b6104fb60408051606081018252600080825260208201819052909182015290565b60008281527ff672b8dc84d117c1e14949d8bc3977392b5ab7de9d01b854d389cdc31bf0d437602052604090206040805160608101825282548152600183015460ff8082161515602084015291939284019161010090910416600281111561056557610565612af4565b600281111561057657610576612af4565b90525092915050565b61058a6103f16107c3565b61059684848484611651565b50505050565b7f09acf4e54214992e70883cf7dcd6957ff2c71cd9e14df4bec4383bc0d11607dc80546002036105df57604051635db5c7cd60e11b815260040160405180910390fd5b600281556104ad848484611739565b6105f96103f16107c3565b6106068585858585611885565b5050505050565b6106156128ca565b6104528383611a30565b60006104528383611a9d565b606060008051602061326f833981519152826001600160401b0381111561065457610654612c20565b60405190808252806020026020018201604052801561068d57816020015b61067a6128ca565b8152602001906001900390816106725790505b50915060005b8381101561074c5760008681526003830160205260408120818787858181106106be576106be612f41565b905060200201358152602001908152602001600020905060405180606001604052808787858181106106f2576106f2612f41565b6020908102929092013583525083546001600160a01b0316908201526001830154604090910152845185908490811061072d5761072d612f41565b602002602001018190525050808061074490612f6d565b915050610693565b50509392505050565b60007ff672b8dc84d117c1e14949d8bc3977392b5ab7de9d01b854d389cdc31bf0d43a816107866020850185612f86565b6001600160a01b03166001600160a01b03168152602001908152602001600020600083602001358152602001908152602001600020549050919050565b60007ff6deb63e40d71b08820818e006e23fcceb1fce7a499bc15b71b2526cbf9efa725b54919050565b6107f78133611b8a565b50565b82801580610816575060008051602061326f8339815191525481115b156108345760405163d751397d60e01b815260040160405180910390fd5b60008051602061326f83398151915260005b8381101561091b578582600401600087878581811061086757610867612f41565b61087d9260206040909202019081019150612f86565b6001600160a01b03166001600160a01b0316815260200190815260200160002060008787858181106108b1576108b1612f41565b90506040020160200135815260200190815260200160002054146108e85760405163072f859160e31b815260040160405180910390fd5b610909868686848181106108fe576108fe612f41565b905060400201611bf9565b8061091381612f6d565b915050610846565b5060405185815233907ff69b53fa14ee16895edbe90d00c7b7af9214baf87c69bf5594126b114c9337ed9060200160405180910390a25050505050565b82801580610974575060008051602061326f8339815191525481115b156109925760405163d751397d60e01b815260040160405180910390fd5b60008051602061326f83398151915260005b83811015610c1a576109e68585838181106109c1576109c1612f41565b6109d79260206040909202019081019150612f86565b6001600160a01b03163b151590565b610a0357604051633c65e02b60e21b815260040160405180910390fd5b6000826004016000878785818110610a1d57610a1d612f41565b610a339260206040909202019081019150612f86565b6001600160a01b03166001600160a01b031681526020019081526020016000206000878785818110610a6757610a67612f41565b905060400201602001358152602001908152602001600020541115610b365785826004016000878785818110610a9f57610a9f612f41565b610ab59260206040909202019081019150612f86565b6001600160a01b03166001600160a01b031681526020019081526020016000206000878785818110610ae957610ae9612f41565b9050604002016020013581526020019081526020016000205403610b2057604051634ea88b8b60e01b815260040160405180910390fd5b610b36868686848181106108fe576108fe612f41565b60008681526005830160205260409020858583818110610b5857610b58612f41565b835460018101855560009485526020909420604090910292909201926002029091019050610b868282612fa3565b505085826004016000878785818110610ba157610ba1612f41565b610bb79260206040909202019081019150612f86565b6001600160a01b03166001600160a01b031681526020019081526020016000206000878785818110610beb57610beb612f41565b905060400201602001358152602001908152602001600020819055508080610c1290612f6d565b9150506109a4565b506000858152600182810160205260408220015461091b91879160028086019291610100900460ff1690811115610c5357610c53612af4565b6002811115610c6457610c64612af4565b8152602001908152602001600020611dce90919063ffffffff16565b600081801580610c9e575060008051602061326f8339815191525481115b15610cbc5760405163d751397d60e01b815260040160405180910390fd5b505060009081527ff672b8dc84d117c1e14949d8bc3977392b5ab7de9d01b854d389cdc31bf0d43b602052604090205490565b60008080527ff672b8dc84d117c1e14949d8bc3977392b5ab7de9d01b854d389cdc31bf0d43860205260008051602061326f8339815191527f845ff02802177e9909faef63e536d995d5be20fadd26c667f4235942a02dfdd982610d5282611dda565b90506000816001600160401b03811115610d6e57610d6e612c20565b604051908082528060200260200182016040528015610d97578160200160208202803683370190505b5090506000826001600160401b03811115610db457610db4612c20565b604051908082528060200260200182016040528015610df957816020015b6040805180820190915260008082526020820152815260200190600190039081610dd25790505b50855490915060005b84811015610ea6576000610e168783611de4565b905080858381518110610e2b57610e2b612f41565b60209081029190910181019190915260008d815260038a0182526040808220848352835290819020815180830190925280546001600160a01b0316825260010154918101919091528451859084908110610e8757610e87612f41565b6020026020010181905250508080610e9e90612f6d565b915050610e02565b5060005b888110156110235760008760040160008c8c85818110610ecc57610ecc612f41565b610ee29260206040909202019081019150612f86565b6001600160a01b03166001600160a01b0316815260200190815260200160002060008c8c85818110610f1657610f16612f41565b9050604002016020013581526020019081526020016000205490508060001480610f4e575060008051602061326f8339815191525481115b15610f6c576040516363efa0e360e01b815260040160405180910390fd5b80158015610f7957508281115b15610f975760405163d751397d60e01b815260040160405180910390fd5b610fa18782611df0565b610fab5750611011565b80858381518110610fbe57610fbe612f41565b6020026020010181815250508a8a83818110610fdc57610fdc612f41565b905060400201803603810190610ff29190612fdd565b84838151811061100457611004612f41565b6020026020010181905250505b8061101b81612f6d565b915050610eaa565b50606060005b84518110156110c0578185828151811061104557611045612f41565b602002602001015185838151811061105f5761105f612f41565b60200260200101516000015186848151811061107d5761107d612f41565b60200260200101516020015160405160200161109c9493929190613058565b604051602081830303815290604052915080806110b890612f6d565b915050611029565b50805160208201206110d6906006890190611df0565b159b9a5050505050505050505050565b604080518082019091526000808252602082015282801580611116575060008051602061326f8339815191525481115b156111345760405163d751397d60e01b815260040160405180910390fd5b60008481527ff672b8dc84d117c1e14949d8bc3977392b5ab7de9d01b854d389cdc31bf0d43b6020526040902080548490811061117357611173612f41565b60009182526020918290206040805180820190915260029092020180546001600160a01b03168252600101549181019190915291505b5092915050565b6040516331a9108f60e11b815260048101859052849030908190636352211e90602401602060405180830381865afa1580156111f0573d6000803e3d6000fd5b505050506040513d601f19601f820116820180604052508101906112149190613099565b6001600160a01b0316336001600160a01b0316146112455760405163aee05b5d60e01b815260040160405180910390fd5b60008490036112675760405163627652c960e11b815260040160405180910390fd5b60008051602061326f833981519152600080866001600160401b0381111561129157611291612c20565b6040519080825280602002602001820160405280156112ba578160200160208202803683370190505b50905060005b878110156113565760006112ec8b8b8b858181106112e0576112e0612f41565b9050604002018a611e08565b90508380611323575060008181526001868101602052604082200154610100900460ff16600281111561132157611321612af4565b145b93508083838151811061133857611338612f41565b6020908102919091010152508061134e81612f6d565b9150506112c0565b506113608961218a565b61137d5760405163a9614f1560e01b815260040160405180910390fd5b818015611390575061138e89612251565b155b156113ad5760405162ecf30560e51b815260040160405180910390fd5b88336001600160a01b03167f557dc03f902756383ba5a748ab63ec6ec44b2880dba84ad33dc6ffe670f18861836040516113e791906130b6565b60405180910390a3505050505050505050565b600060008051602061326f8339815191526107e7565b60008051602061326f833981519152805460609190806001600160401b0381111561143d5761143d612c20565b60405190808252806020026020018201604052801561147657816020015b6114636128ca565b81526020019060019003908161145b5790505b50925060005b8181101561150f5760006114918260016130ee565b60008781526003860160209081526040808320848452825291829020825160608101845284815281546001600160a01b031692810192909252600181015492820192909252875192935090918790859081106114ef576114ef612f41565b60200260200101819052505050808061150790612f6d565b91505061147c565b505050919050565b60008051602061326f833981519152805460609190806001600160401b0381111561154457611544612c20565b60405190808252806020026020018201604052801561159657816020015b61158360408051606081018252600080825260208201819052909182015290565b8152602001906001900390816115625790505b50925060005b8181101561164b5760006115b18260016130ee565b6000818152600180870160209081526040928390208351606081018552815481529281015460ff80821615159385019390935294955091939192840191610100900416600281111561160557611605612af4565b600281111561161657611616612af4565b8152505085838151811061162c5761162c612f41565b602002602001018190525050808061164390612f6d565b91505061159c565b50505090565b60008051602061326f833981519152805460019082906000906116759084906130ee565b9091555050805460008181526001808401602052604090912001805460ff198116881515908117835587929161ffff191661ff0019909116176101008360028111156116c3576116c3612af4565b02179055506000818152600183016020526040902081905582156116ec576116ec818585610958565b336001600160a01b03167fc1ea46ff33b3d61e148e5bff5dfe54ccae9db30b899a3e7645618fb1e3d9dc1182888860405161172993929190613101565b60405180910390a2505050505050565b6040516331a9108f60e11b815260048101849052839030908190636352211e90602401602060405180830381865afa158015611779573d6000803e3d6000fd5b505050506040513d601f19601f8201168201806040525081019061179d9190613099565b6001600160a01b0316336001600160a01b0316146117ce5760405163aee05b5d60e01b815260040160405180910390fd5b60008390036117f057604051635740c67760e11b815260040160405180910390fd5b60005b8381101561182f5761181d8686868481811061181157611811612f41565b905060200201356123a1565b8061182781612f6d565b9150506117f3565b5061183985612251565b5084336001600160a01b03167f3822f2cd6d118934e31e6171da74d9d46131fb402be1861b3cb4460440aeab63868660405161187692919061311d565b60405180910390a35050505050565b8281146118a5576040516303f7219d60e41b815260040160405180910390fd5b60008051602061326f833981519152805460005b85811015611a26578686828181106118d3576118d3612f41565b9050602002013560001480156119005750818787838181106118f7576118f7612f41565b90506020020135115b1561191e5760405163d751397d60e01b815260040160405180910390fd5b600083600101600089898581811061193857611938612f41565b90506020020135815260200190815260200160002060010160019054906101000a900460ff16600281111561196f5761196f612af4565b1461198d576040516332fa2abb60e01b815260040160405180910390fd5b84848281811061199f5761199f612f41565b905060200201356119bb60008051602061326f83398151915290565b6001600160a01b038a16600090815260099190910160205260408120908989858181106119ea576119ea612f41565b9050602002013581526020019081526020016000206000828254611a0e91906130ee565b90915550819050611a1e81612f6d565b9150506118b9565b5050505050505050565b611a386128ca565b5060009182527ff672b8dc84d117c1e14949d8bc3977392b5ab7de9d01b854d389cdc31bf0d43960209081526040808420838552825292839020835160608101855292835280546001600160a01b031691830191909152600101549181019190915290565b600081801580611abb575060008051602061326f8339815191525481115b15611ad95760405163d751397d60e01b815260040160405180910390fd5b60008381527ff672b8dc84d117c1e14949d8bc3977392b5ab7de9d01b854d389cdc31bf0d4376020526040812060010154610100900460ff166002811115611b2357611b23612af4565b14611b41576040516332fa2abb60e01b815260040160405180910390fd5b50506001600160a01b039190911660009081527ff672b8dc84d117c1e14949d8bc3977392b5ab7de9d01b854d389cdc31bf0d43f60209081526040808320938352929052205490565b611b9482826124d3565b611bf557611baa816001600160a01b031661250a565b611bb583602061251c565b604051602001611bc6929190613156565b60408051601f198184030181529082905262461bcd60e51b8252611bec916004016131cb565b60405180910390fd5b5050565b60008281527ff672b8dc84d117c1e14949d8bc3977392b5ab7de9d01b854d389cdc31bf0d43b602052604081205460008051602061326f833981519152915b81811015611d7b5783602001358360050160008781526020019081526020016000208281548110611c6b57611c6b612f41565b90600052602060002090600202016001015403611d695760008581526005840160205260409020611c9d6001846131fe565b81548110611cad57611cad612f41565b90600052602060002090600202018360050160008781526020019081526020016000208281548110611ce157611ce1612f41565b60009182526020808320845460029093020180546001600160a01b0319166001600160a01b0390931692909217825560019384015493909101929092558681526005850190915260409020805480611d3b57611d3b613211565b60008281526020812060026000199093019283020180546001600160a01b0319168155600101559055611d7b565b80611d7381612f6d565b915050611c38565b50600482016000611d8f6020860186612f86565b6001600160a01b03166001600160a01b031681526020019081526020016000206000846020013581526020019081526020016000206000905550505050565b6000610452838361266e565b60006103c0825490565b600061045283836126b1565b60008181526001830160205260408120541515610452565b600060008051602061326f8339815191527ff672b8dc84d117c1e14949d8bc3977392b5ab7de9d01b854d389cdc31bf0d43a82611e486020870187612f86565b6001600160a01b03168152602080820192909252604090810160009081208784013582529092529020549150811580611e8f575060008051602061326f8339815191525482115b15611ead576040516363efa0e360e01b815260040160405180910390fd5b82158015611ee4575060008281526001828101602052604082200154610100900460ff166002811115611ee257611ee2612af4565b145b15611f5557336000908152600982016020908152604080832085845290915290205460011115611f275760405163d5bdfa5960e01b815260040160405180910390fd5b33600090815260098201602090815260408083208584529091528120805491611f4f83613227565b91905055505b60008581526003820160209081526040808320858452825280832060018086019093529220015460ff168015611f94575080546001600160a01b031615155b15611fb25760405163bd8a5e1560e01b815260040160405180910390fd5b611fbf6020860186612f86565b81546001600160a01b039081169116148015611fe2575084602001358160010154145b156120005760405163c80df0cb60e01b815260040160405180910390fd5b600086815260038301602090815260408083208684529091529020546001600160a01b0316156120345761203486846126fd565b60006120436020870187612f86565b604051627eeac760e11b8152336004820152602088013560248201529091506001906001600160a01b0383169062fdd58e90604401602060405180830381865afa158015612095573d6000803e3d6000fd5b505050506040513d601f19601f820116820180604052508101906120b9919061323e565b10156120d8576040516335ba250d60e11b815260040160405180910390fd5b604051637921219560e11b8152336004820152306024820152602087013560448201526001606482015260a06084820152600060a48201526001600160a01b0382169063f242432a9060c401600060405180830381600087803b15801561213e57600080fd5b505af1158015612152573d6000803e3d6000fd5b50505060008881526003850160209081526040808320888452909152902087915061217d8282612fa3565b9050505050509392505050565b60008080527ff672b8dc84d117c1e14949d8bc3977392b5ab7de9d01b854d389cdc31bf0d43860205260008051602061326f8339815191527f845ff02802177e9909faef63e536d995d5be20fadd26c667f4235942a02dfdd9825b6121ee82611dda565b8110156122465760008581526003840160205260408120906122108484611de4565b81526020019081526020016000206001015460000361223457506000949350505050565b8061223e81612f6d565b9150506121e5565b506001949350505050565b60008080527ff672b8dc84d117c1e14949d8bc3977392b5ab7de9d01b854d389cdc31bf0d43860205260008051602061326f8339815191527f845ff02802177e9909faef63e536d995d5be20fadd26c667f4235942a02dfdd96060836122b683611dda565b905060005b818110156123375760006122cf8583611de4565b60008981526003880160209081526040808320848452825291829020805460018201549351949550909361231193899387936001600160a01b03169201613058565b60405160208183030381529060405294505050808061232f90612f6d565b9150506122bb565b508151602083012061234c6006860182611df0565b1580612356575081155b60008881526008870160205260409020549096506123789060068701906127e2565b506123866006860182611dce565b50600096875260089094016020525050604090932055919050565b808015806123bd575060008051602061326f8339815191525481115b156123db5760405163d751397d60e01b815260040160405180910390fd5b60008281527ff672b8dc84d117c1e14949d8bc3977392b5ab7de9d01b854d389cdc31bf0d437602052604090206001015460008051602061326f8339815191529060ff161561243d5760405163bd8a5e1560e01b815260040160405180910390fd5b600084815260038201602090815260408083208684529091529020546001600160a01b031661247f57604051632755285560e01b815260040160405180910390fd5b60008381526001828101602052604082200154610100900460ff1660028111156124ab576124ab612af4565b036124c95760405163abfc1e6160e01b815260040160405180910390fd5b61059684846126fd565b60008281527fd3889cc5458b268d0544e5534672df1296288ca3f93cbd39bd6f497a5c6228116020526040812061045290836127ee565b60606103c06001600160a01b03831660145b6060600061252b836002613257565b6125369060026130ee565b6001600160401b0381111561254d5761254d612c20565b6040519080825280601f01601f191660200182016040528015612577576020820181803683370190505b509050600360fc1b8160008151811061259257612592612f41565b60200101906001600160f81b031916908160001a905350600f60fb1b816001815181106125c1576125c1612f41565b60200101906001600160f81b031916908160001a905350600160028402015b600181111561264e576f181899199a1a9b1b9c1cb0b131b232b360811b85600f166010811061261157612611612f41565b1a60f81b82828151811061262757612627612f41565b60200101906001600160f81b031916908160001a90535060049490941c93600019016125e0565b5083156104525760405163c913478560e01b815260040160405180910390fd5b60008181526001830160205260408120546103c0575081546001808201845560008481526020808220909301849055845493815293810190915260409092205590565b815460009082106126d55760405163e637bf3b60e01b815260040160405180910390fd5b8260000182815481106126ea576126ea612f41565b9060005260206000200154905092915050565b600060008051602061326f8339815191526000848152600382016020908152604080832086845290915280822080546001808301549351637921219560e11b81523060048201523360248201526044810194909452606484015260a0608484015260a48301939093529293506001600160a01b0390911690819063f242432a9060c401600060405180830381600087803b15801561279a57600080fd5b505af11580156127ae573d6000803e3d6000fd5b505050600095865250505060030160209081526040808420928452919052812080546001600160a01b031916815560010155565b60006104528383612810565b6001600160a01b03811660009081526001830160205260408120541515610452565b600081815260018301602052604081205480156111a95783546000908590600019810190811061284257612842612f41565b906000526020600020015490508085600001600184038154811061286857612868612f41565b600091825260208083209091019290925591825260018601905260409020819055835484908061289a5761289a613211565b60008281526020808220830160001990810183905590920190925593815260019485019093525050604081205590565b60405180606001604052806000815260200160006001600160a01b03168152602001600081525090565b60006020828403121561290657600080fd5b81356001600160e01b03198116811461045257600080fd5b60008083601f84011261293057600080fd5b5081356001600160401b0381111561294757600080fd5b6020830191508360208260051b850101111561296257600080fd5b9250929050565b60008060006040848603121561297e57600080fd5b8335925060208401356001600160401b0381111561299b57600080fd5b6129a78682870161291e565b9497909650939450505050565b6020808252825182820181905260009190848201906040850190845b81811015612a1357612a00838551805182526020808201516001600160a01b031690830152604090810151910152565b92840192606092909201916001016129d0565b50909695505050505050565b600060408284031215612a3157600080fd5b50919050565b60008083601f840112612a4957600080fd5b5081356001600160401b03811115612a6057600080fd5b6020830191508360208260061b850101111561296257600080fd5b600080600060408486031215612a9057600080fd5b8335925060208401356001600160401b03811115612aad57600080fd5b6129a786828701612a37565b600060208284031215612acb57600080fd5b5035919050565b60008060408385031215612ae557600080fd5b50508035926020909101359150565b634e487b7160e01b600052602160045260246000fd5b60038110612b2857634e487b7160e01b600052602160045260246000fd5b9052565b8051825260208101511515602083015260408101516104016040840182612b0a565b6020808252825182820181905260009190848201906040850190845b81811015612a1357612b7d838551612b2c565b9284019260609290920191600101612b6a565b606081016103c08284612b2c565b60008060008060608587031215612bb457600080fd5b84358015158114612bc457600080fd5b9350602085013560038110612bd857600080fd5b925060408501356001600160401b03811115612bf357600080fd5b612bff87828801612a37565b95989497509550505050565b6001600160a01b03811681146107f757600080fd5b634e487b7160e01b600052604160045260246000fd5b604051601f8201601f191681016001600160401b0381118282101715612c5e57612c5e612c20565b604052919050565b600082601f830112612c7757600080fd5b813560206001600160401b03821115612c9257612c92612c20565b8160051b612ca1828201612c36565b9283528481018201928281019087851115612cbb57600080fd5b83870192505b84831015612cda57823582529183019190830190612cc1565b979650505050505050565b600082601f830112612cf657600080fd5b81356001600160401b03811115612d0f57612d0f612c20565b612d22601f8201601f1916602001612c36565b818152846020838601011115612d3757600080fd5b816020850160208301376000918101602001919091529392505050565b600080600080600060a08688031215612d6c57600080fd5b8535612d7781612c0b565b94506020860135612d8781612c0b565b935060408601356001600160401b0380821115612da357600080fd5b612daf89838a01612c66565b94506060880135915080821115612dc557600080fd5b612dd189838a01612c66565b93506080880135915080821115612de757600080fd5b50612df488828901612ce5565b9150509295509295909350565b600080600080600060608688031215612e1957600080fd5b8535612e2481612c0b565b945060208601356001600160401b0380821115612e4057600080fd5b612e4c89838a0161291e565b90965094506040880135915080821115612e6557600080fd5b50612e728882890161291e565b969995985093965092949392505050565b815181526020808301516001600160a01b03169082015260408083015190820152606081016103c0565b600080600080600060a08688031215612ec557600080fd5b8535612ed081612c0b565b94506020860135612ee081612c0b565b9350604086013592506060860135915060808601356001600160401b03811115612f0957600080fd5b612df488828901612ce5565b60008060408385031215612f2857600080fd5b8235612f3381612c0b565b946020939093013593505050565b634e487b7160e01b600052603260045260246000fd5b634e487b7160e01b600052601160045260246000fd5b600060018201612f7f57612f7f612f57565b5060010190565b600060208284031215612f9857600080fd5b813561045281612c0b565b8135612fae81612c0b565b6001600160a01b0381166bffffffffffffffffffffffff60a01b83541617825550602082013560018201555050565b600060408284031215612fef57600080fd5b604051604081018181106001600160401b038211171561301157613011612c20565b604052823561301f81612c0b565b81526020928301359281019290925250919050565b60005b8381101561304f578181015183820152602001613037565b50506000910152565b6000855161306a818460208a01613034565b919091019384525060609190911b6bffffffffffffffffffffffff191660208301526034820152605401919050565b6000602082840312156130ab57600080fd5b815161045281612c0b565b6020808252825182820181905260009190848201906040850190845b81811015612a13578351835292840192918401916001016130d2565b808201808211156103c0576103c0612f57565b8381528215156020820152606081016103d36040830184612b0a565b6020808252810182905260006001600160fb1b0383111561313d57600080fd5b8260051b80856040850137919091016040019392505050565b7f416363657373436f6e74726f6c3a206163636f756e742000000000000000000081526000835161318e816017850160208801613034565b7001034b99036b4b9b9b4b733903937b6329607d1b60179184019182015283516131bf816028840160208801613034565b01602801949350505050565b60208152600082518060208401526131ea816040850160208701613034565b601f01601f19169190910160400192915050565b818103818111156103c0576103c0612f57565b634e487b7160e01b600052603160045260246000fd5b60008161323657613236612f57565b506000190190565b60006020828403121561325057600080fd5b5051919050565b80820281158282048414176103c0576103c0612f5756fef672b8dc84d117c1e14949d8bc3977392b5ab7de9d01b854d389cdc31bf0d436a2646970667358221220c10142bcfd8266974d2351c3558fec9cd4d2b0eee3fae35de3799a6e3c53c59b64736f6c63430008130033",
  "devdoc": {
    "details": "This contract is responsible for managing the inventory system for the Arcadians using slots.  It defines the functionality to equip and unequip items to Arcadians, check if a combination of items  are unique, and retrieve the inventory slots and allowed items for a slot.  This contract also implements ERC1155Holder to handle ERC1155 token transfers This contract can be used as a facet of a diamond which follows the EIP-2535 diamond standard. It also uses the ReentrancyGuard and Multicall contracts for security and gas efficiency.",
    "kind": "dev",
    "methods": {
      "addBaseModifierTickets(address,uint256[],uint256[])": {
        "params": {
          "account": "The account to increase the number of tickets",
          "amounts": "the amounts of tickets to increase",
          "slotsIds": "The slots ids to increase the number of tickets"
        }
      },
      "allowItemsInSlot(uint256,(address,uint256)[])": {
        "params": {
          "items": "The list of items to allow in the slot",
          "slotId": "The slot id"
        }
      },
      "allowedItem(uint256,uint256)": {
        "params": {
          "index": "The index of the item",
          "slotId": "The slot id to query"
        },
        "returns": {
          "_0": "A list of all the items that are allowed in the slot"
        }
      },
      "allowedSlot((address,uint256))": {
        "params": {
          "item": "The item to check"
        },
        "returns": {
          "_0": "The allowed slot id for the item. Slots are 1-indexed."
        }
      },
      "createSlot(bool,uint8,(address,uint256)[])": {
        "details": "This function is only accessible to the manager roleSlots are 1-indexed",
        "params": {
          "category": "The category of the slot",
          "items": "The list of items to allow in the slot",
          "permanent": "Whether or not the slot can be unequipped once equipped"
        }
      },
      "disallowItemsInSlot(uint256,(address,uint256)[])": {
        "params": {
          "items": "The list of items to disallow in the slot",
          "slotId": "The ID of the inventory slot"
        }
      },
      "equip(uint256,(address,uint256)[])": {
        "params": {
          "arcadianId": "The ID of the Arcadian NFT to equip the items for",
          "items": "An array of items to equip in the corresponding slots"
        }
      },
      "equipped(uint256,uint256)": {
        "params": {
          "arcadianId": "The ID of the Arcadian NFT to query",
          "slotId": "The slot id to query"
        }
      },
      "equippedAll(uint256)": {
        "params": {
          "arcadianId": "The ID of the Arcadian NFT to query"
        }
      },
      "equippedBatch(uint256,uint256[])": {
        "params": {
          "arcadianId": "The ID of the Arcadian NFT to query",
          "slotIds": "The slots ids to query"
        }
      },
      "getBaseModifierTickets(address,uint256)": {
        "params": {
          "account": "The accounts to increase the number of tickets"
        }
      },
      "isArcadianUnique(uint256,(address,uint256)[])": {
        "details": "The uniqueness is calculated using the existent arcadian items and the input items as wellOnly items equipped in 'base' category slots are considered for uniqueness",
        "params": {
          "arcadianId": "The ID of the Arcadian NFT to query",
          "items": "An array of items to check for uniqueness after \"equipped\" over the existent arcadian items."
        }
      },
      "numAllowedItems(uint256)": {
        "params": {
          "slotId": "The slot id to check"
        },
        "returns": {
          "_0": "A list of all the items that are allowed in the slot"
        }
      },
      "numSlots()": {
        "details": "Slots are 1-indexed",
        "returns": {
          "_0": "The number of inventory slots "
        }
      },
      "slot(uint256)": {
        "details": "Slots are 1-indexed",
        "params": {
          "slotId": "The ID of the inventory slot"
        },
        "returns": {
          "existentSlot": "The details of the inventory slot"
        }
      },
      "slotsAll()": {
        "details": "Slots are 1-indexed",
        "returns": {
          "existentSlots": "The details of all the inventory slots"
        }
      },
      "supportsInterface(bytes4)": {
        "details": "See {IERC165-supportsInterface}."
      },
      "unequip(uint256,uint256[])": {
        "params": {
          "arcadianId": "The ID of the Arcadian NFT to equip the item for",
          "slotIds": "The slots ids in which the items will be unequipped"
        }
      }
    },
    "title": "InventoryFacet",
    "version": 1
  },
  "userdoc": {
    "kind": "user",
    "methods": {
      "addBaseModifierTickets(address,uint256[],uint256[])": {
        "notice": "Adds tickets to accounts that allow to modify the base traits"
      },
      "allowItemsInSlot(uint256,(address,uint256)[])": {
        "notice": "Adds items to the list of allowed items for an inventory slot"
      },
      "allowedItem(uint256,uint256)": {
        "notice": "Returns the allowed item for a given slot and the index"
      },
      "allowedSlot((address,uint256))": {
        "notice": "Returns the allowed slot for a given item"
      },
      "createSlot(bool,uint8,(address,uint256)[])": {
        "notice": "Creates a new inventory slot"
      },
      "disallowItemsInSlot(uint256,(address,uint256)[])": {
        "notice": "Removes items from the list of allowed items"
      },
      "equip(uint256,(address,uint256)[])": {
        "notice": "Equips multiple items to multiple slots for a specified Arcadian NFT"
      },
      "equipped(uint256,uint256)": {
        "notice": "Retrieves the equipped item in a slot for a specified Arcadian NFT"
      },
      "equippedAll(uint256)": {
        "notice": "Retrieves all the equipped items for a specified Arcadian NFT"
      },
      "equippedBatch(uint256,uint256[])": {
        "notice": "Retrieves the equipped items in the slot of an Arcadian NFT"
      },
      "getBaseModifierTickets(address,uint256)": {
        "notice": "Returns the number tickets avialable for an account that allow to modify the base traits"
      },
      "isArcadianUnique(uint256,(address,uint256)[])": {
        "notice": "Indicates if a list of items applied to an the arcadian is unique"
      },
      "numAllowedItems(uint256)": {
        "notice": "Returns the number of allowed items for a given slot"
      },
      "numSlots()": {
        "notice": "Returns the number of inventory slots"
      },
      "slot(uint256)": {
        "notice": "Returns the details of an inventory slot given its ID"
      },
      "slotsAll()": {
        "notice": "Returns the details of all the existent slots"
      },
      "unequip(uint256,uint256[])": {
        "notice": "Unequips the items equipped in multiple slots for a specified Arcadian NFT"
      }
    },
    "version": 1
  },
  "storageLayout": {
    "storage": [],
    "types": null
  }
}