{
  "address": "0xF86C2E83509e3E6F6EE8bfE597cdC02d4fBD40dE",
  "abi": [
    {
      "inputs": [],
      "name": "EnumerableSet__IndexOutOfBounds",
      "type": "error"
    },
    {
      "inputs": [],
      "name": "Inventory_ArcadianNotUnique",
      "type": "error"
    },
    {
      "inputs": [],
      "name": "Inventory_InputDataMismatch",
      "type": "error"
    },
    {
      "inputs": [],
      "name": "Inventory_InsufficientItemBalance",
      "type": "error"
    },
    {
      "inputs": [],
      "name": "Inventory_InvalidERC1155Contract",
      "type": "error"
    },
    {
      "inputs": [],
      "name": "Inventory_InvalidSlotId",
      "type": "error"
    },
    {
      "inputs": [],
      "name": "Inventory_ItemAlreadyAllowedInSlot",
      "type": "error"
    },
    {
      "inputs": [],
      "name": "Inventory_ItemAlreadyDisallowedInSlot",
      "type": "error"
    },
    {
      "inputs": [],
      "name": "Inventory_ItemAlreadyEquippedInSlot",
      "type": "error"
    },
    {
      "inputs": [],
      "name": "Inventory_ItemNotElegibleForSlot",
      "type": "error"
    },
    {
      "inputs": [],
      "name": "Inventory_NotArcadianOwner",
      "type": "error"
    },
    {
      "inputs": [],
      "name": "Inventory_SlotAlreadyEquipped",
      "type": "error"
    },
    {
      "inputs": [],
      "name": "Inventory_SlotNotSpecified",
      "type": "error"
    },
    {
      "inputs": [],
      "name": "Inventory_UnequippingEmptySlot",
      "type": "error"
    },
    {
      "inputs": [],
      "name": "Inventory_UnequippingPermanentSlot",
      "type": "error"
    },
    {
      "inputs": [],
      "name": "ReentrancyGuard__ReentrantCall",
      "type": "error"
    },
    {
      "inputs": [],
      "name": "UintUtils__InsufficientHexLength",
      "type": "error"
    },
    {
      "anonymous": false,
      "inputs": [
        {
          "indexed": true,
          "internalType": "address",
          "name": "oldArcadiansAddress",
          "type": "address"
        },
        {
          "indexed": true,
          "internalType": "address",
          "name": "newArcadiansAddress",
          "type": "address"
        }
      ],
      "name": "ArcadiansAddressChanged",
      "type": "event"
    },
    {
      "anonymous": false,
      "inputs": [
        {
          "indexed": true,
          "internalType": "address",
          "name": "by",
          "type": "address"
        },
        {
          "indexed": false,
          "internalType": "uint256",
          "name": "slotId",
          "type": "uint256"
        }
      ],
      "name": "ItemsAllowedInSlotUpdated",
      "type": "event"
    },
    {
      "anonymous": false,
      "inputs": [
        {
          "indexed": true,
          "internalType": "address",
          "name": "by",
          "type": "address"
        },
        {
          "indexed": true,
          "internalType": "uint256",
          "name": "arcadianId",
          "type": "uint256"
        },
        {
          "indexed": false,
          "internalType": "uint256[]",
          "name": "slots",
          "type": "uint256[]"
        }
      ],
      "name": "ItemsEquipped",
      "type": "event"
    },
    {
      "anonymous": false,
      "inputs": [
        {
          "indexed": true,
          "internalType": "address",
          "name": "by",
          "type": "address"
        },
        {
          "indexed": true,
          "internalType": "uint256",
          "name": "arcadianId",
          "type": "uint256"
        },
        {
          "indexed": false,
          "internalType": "uint256[]",
          "name": "slots",
          "type": "uint256[]"
        }
      ],
      "name": "ItemsUnequipped",
      "type": "event"
    },
    {
      "anonymous": false,
      "inputs": [
        {
          "indexed": true,
          "internalType": "bytes32",
          "name": "role",
          "type": "bytes32"
        },
        {
          "indexed": true,
          "internalType": "bytes32",
          "name": "previousAdminRole",
          "type": "bytes32"
        },
        {
          "indexed": true,
          "internalType": "bytes32",
          "name": "newAdminRole",
          "type": "bytes32"
        }
      ],
      "name": "RoleAdminChanged",
      "type": "event"
    },
    {
      "anonymous": false,
      "inputs": [
        {
          "indexed": true,
          "internalType": "bytes32",
          "name": "role",
          "type": "bytes32"
        },
        {
          "indexed": true,
          "internalType": "address",
          "name": "account",
          "type": "address"
        },
        {
          "indexed": true,
          "internalType": "address",
          "name": "sender",
          "type": "address"
        }
      ],
      "name": "RoleGranted",
      "type": "event"
    },
    {
      "anonymous": false,
      "inputs": [
        {
          "indexed": true,
          "internalType": "bytes32",
          "name": "role",
          "type": "bytes32"
        },
        {
          "indexed": true,
          "internalType": "address",
          "name": "account",
          "type": "address"
        },
        {
          "indexed": true,
          "internalType": "address",
          "name": "sender",
          "type": "address"
        }
      ],
      "name": "RoleRevoked",
      "type": "event"
    },
    {
      "anonymous": false,
      "inputs": [
        {
          "indexed": true,
          "internalType": "address",
          "name": "by",
          "type": "address"
        },
        {
          "indexed": false,
          "internalType": "uint256",
          "name": "slotId",
          "type": "uint256"
        },
        {
          "indexed": false,
          "internalType": "bool",
          "name": "permanent",
          "type": "bool"
        },
        {
          "indexed": false,
          "internalType": "enum InventoryStorage.SlotCategory",
          "name": "category",
          "type": "uint8"
        }
      ],
      "name": "SlotCreated",
      "type": "event"
    },
    {
      "inputs": [
        {
          "internalType": "uint256",
          "name": "slotId",
          "type": "uint256"
        },
        {
          "components": [
            {
              "internalType": "address",
              "name": "erc721Contract",
              "type": "address"
            },
            {
              "internalType": "uint256",
              "name": "id",
              "type": "uint256"
            }
          ],
          "internalType": "struct InventoryStorage.Item[]",
          "name": "items",
          "type": "tuple[]"
        }
      ],
      "name": "allowItemsInSlot",
      "outputs": [],
      "stateMutability": "nonpayable",
      "type": "function"
    },
    {
      "inputs": [
        {
          "internalType": "uint256",
          "name": "slotId",
          "type": "uint256"
        },
        {
          "internalType": "uint256",
          "name": "index",
          "type": "uint256"
        }
      ],
      "name": "allowedItem",
      "outputs": [
        {
          "components": [
            {
              "internalType": "address",
              "name": "erc721Contract",
              "type": "address"
            },
            {
              "internalType": "uint256",
              "name": "id",
              "type": "uint256"
            }
          ],
          "internalType": "struct InventoryStorage.Item",
          "name": "",
          "type": "tuple"
        }
      ],
      "stateMutability": "view",
      "type": "function"
    },
    {
      "inputs": [
        {
          "components": [
            {
              "internalType": "address",
              "name": "erc721Contract",
              "type": "address"
            },
            {
              "internalType": "uint256",
              "name": "id",
              "type": "uint256"
            }
          ],
          "internalType": "struct InventoryStorage.Item",
          "name": "item",
          "type": "tuple"
        }
      ],
      "name": "allowedSlot",
      "outputs": [
        {
          "internalType": "uint256",
          "name": "",
          "type": "uint256"
        }
      ],
      "stateMutability": "view",
      "type": "function"
    },
    {
      "inputs": [
        {
          "internalType": "bool",
          "name": "permanent",
          "type": "bool"
        },
        {
          "internalType": "enum InventoryStorage.SlotCategory",
          "name": "category",
          "type": "uint8"
        },
        {
          "components": [
            {
              "internalType": "address",
              "name": "erc721Contract",
              "type": "address"
            },
            {
              "internalType": "uint256",
              "name": "id",
              "type": "uint256"
            }
          ],
          "internalType": "struct InventoryStorage.Item[]",
          "name": "items",
          "type": "tuple[]"
        }
      ],
      "name": "createSlot",
      "outputs": [],
      "stateMutability": "nonpayable",
      "type": "function"
    },
    {
      "inputs": [
        {
          "internalType": "uint256",
          "name": "slotId",
          "type": "uint256"
        },
        {
          "components": [
            {
              "internalType": "address",
              "name": "erc721Contract",
              "type": "address"
            },
            {
              "internalType": "uint256",
              "name": "id",
              "type": "uint256"
            }
          ],
          "internalType": "struct InventoryStorage.Item[]",
          "name": "items",
          "type": "tuple[]"
        }
      ],
      "name": "disallowItemsInSlot",
      "outputs": [],
      "stateMutability": "nonpayable",
      "type": "function"
    },
    {
      "inputs": [
        {
          "internalType": "uint256",
          "name": "arcadianId",
          "type": "uint256"
        },
        {
          "internalType": "uint256",
          "name": "slotId",
          "type": "uint256"
        },
        {
          "components": [
            {
              "internalType": "address",
              "name": "erc721Contract",
              "type": "address"
            },
            {
              "internalType": "uint256",
              "name": "id",
              "type": "uint256"
            }
          ],
          "internalType": "struct InventoryStorage.Item",
          "name": "item",
          "type": "tuple"
        }
      ],
      "name": "equip",
      "outputs": [],
      "stateMutability": "nonpayable",
      "type": "function"
    },
    {
      "inputs": [
        {
          "internalType": "uint256",
          "name": "arcadianId",
          "type": "uint256"
        },
        {
          "internalType": "uint256[]",
          "name": "slotsIds",
          "type": "uint256[]"
        },
        {
          "components": [
            {
              "internalType": "address",
              "name": "erc721Contract",
              "type": "address"
            },
            {
              "internalType": "uint256",
              "name": "id",
              "type": "uint256"
            }
          ],
          "internalType": "struct InventoryStorage.Item[]",
          "name": "items",
          "type": "tuple[]"
        }
      ],
      "name": "equipBatch",
      "outputs": [],
      "stateMutability": "nonpayable",
      "type": "function"
    },
    {
      "inputs": [
        {
          "internalType": "uint256",
          "name": "arcadianId",
          "type": "uint256"
        },
        {
          "internalType": "uint256",
          "name": "slotId",
          "type": "uint256"
        }
      ],
      "name": "equipped",
      "outputs": [
        {
          "components": [
            {
              "internalType": "uint256",
              "name": "slotId",
              "type": "uint256"
            },
            {
              "internalType": "address",
              "name": "erc721Contract",
              "type": "address"
            },
            {
              "internalType": "uint256",
              "name": "itemId",
              "type": "uint256"
            }
          ],
          "internalType": "struct InventoryInternal.ItemInSlot",
          "name": "item",
          "type": "tuple"
        }
      ],
      "stateMutability": "view",
      "type": "function"
    },
    {
      "inputs": [
        {
          "internalType": "uint256",
          "name": "arcadianId",
          "type": "uint256"
        }
      ],
      "name": "equippedAll",
      "outputs": [
        {
          "components": [
            {
              "internalType": "uint256",
              "name": "slotId",
              "type": "uint256"
            },
            {
              "internalType": "address",
              "name": "erc721Contract",
              "type": "address"
            },
            {
              "internalType": "uint256",
              "name": "itemId",
              "type": "uint256"
            }
          ],
          "internalType": "struct InventoryInternal.ItemInSlot[]",
          "name": "equippedSlot",
          "type": "tuple[]"
        }
      ],
      "stateMutability": "view",
      "type": "function"
    },
    {
      "inputs": [
        {
          "internalType": "uint256",
          "name": "arcadianId",
          "type": "uint256"
        },
        {
          "internalType": "uint256[]",
          "name": "slotsIds",
          "type": "uint256[]"
        },
        {
          "components": [
            {
              "internalType": "address",
              "name": "erc721Contract",
              "type": "address"
            },
            {
              "internalType": "uint256",
              "name": "id",
              "type": "uint256"
            }
          ],
          "internalType": "struct InventoryStorage.Item[]",
          "name": "items",
          "type": "tuple[]"
        }
      ],
      "name": "isArcadianUnique",
      "outputs": [
        {
          "internalType": "bool",
          "name": "",
          "type": "bool"
        }
      ],
      "stateMutability": "view",
      "type": "function"
    },
    {
      "inputs": [
        {
          "internalType": "uint256",
          "name": "slotId",
          "type": "uint256"
        }
      ],
      "name": "numAllowedItems",
      "outputs": [
        {
          "internalType": "uint256",
          "name": "",
          "type": "uint256"
        }
      ],
      "stateMutability": "view",
      "type": "function"
    },
    {
      "inputs": [],
      "name": "numSlots",
      "outputs": [
        {
          "internalType": "uint256",
          "name": "",
          "type": "uint256"
        }
      ],
      "stateMutability": "view",
      "type": "function"
    },
    {
      "inputs": [
        {
          "internalType": "address",
          "name": "",
          "type": "address"
        },
        {
          "internalType": "address",
          "name": "",
          "type": "address"
        },
        {
          "internalType": "uint256[]",
          "name": "",
          "type": "uint256[]"
        },
        {
          "internalType": "uint256[]",
          "name": "",
          "type": "uint256[]"
        },
        {
          "internalType": "bytes",
          "name": "",
          "type": "bytes"
        }
      ],
      "name": "onERC1155BatchReceived",
      "outputs": [
        {
          "internalType": "bytes4",
          "name": "",
          "type": "bytes4"
        }
      ],
      "stateMutability": "nonpayable",
      "type": "function"
    },
    {
      "inputs": [
        {
          "internalType": "address",
          "name": "",
          "type": "address"
        },
        {
          "internalType": "address",
          "name": "",
          "type": "address"
        },
        {
          "internalType": "uint256",
          "name": "",
          "type": "uint256"
        },
        {
          "internalType": "uint256",
          "name": "",
          "type": "uint256"
        },
        {
          "internalType": "bytes",
          "name": "",
          "type": "bytes"
        }
      ],
      "name": "onERC1155Received",
      "outputs": [
        {
          "internalType": "bytes4",
          "name": "",
          "type": "bytes4"
        }
      ],
      "stateMutability": "nonpayable",
      "type": "function"
    },
    {
      "inputs": [
        {
          "internalType": "uint256",
          "name": "slotId",
          "type": "uint256"
        }
      ],
      "name": "slot",
      "outputs": [
        {
          "components": [
            {
              "internalType": "uint256",
              "name": "id",
              "type": "uint256"
            },
            {
              "internalType": "bool",
              "name": "permanent",
              "type": "bool"
            },
            {
              "internalType": "enum InventoryStorage.SlotCategory",
              "name": "category",
              "type": "uint8"
            }
          ],
          "internalType": "struct InventoryStorage.Slot",
          "name": "existentSlot",
          "type": "tuple"
        }
      ],
      "stateMutability": "view",
      "type": "function"
    },
    {
      "inputs": [],
      "name": "slotsAll",
      "outputs": [
        {
          "components": [
            {
              "internalType": "uint256",
              "name": "id",
              "type": "uint256"
            },
            {
              "internalType": "bool",
              "name": "permanent",
              "type": "bool"
            },
            {
              "internalType": "enum InventoryStorage.SlotCategory",
              "name": "category",
              "type": "uint8"
            }
          ],
          "internalType": "struct InventoryStorage.Slot[]",
          "name": "existentSlots",
          "type": "tuple[]"
        }
      ],
      "stateMutability": "view",
      "type": "function"
    },
    {
      "inputs": [
        {
          "internalType": "bytes4",
          "name": "interfaceId",
          "type": "bytes4"
        }
      ],
      "name": "supportsInterface",
      "outputs": [
        {
          "internalType": "bool",
          "name": "",
          "type": "bool"
        }
      ],
      "stateMutability": "view",
      "type": "function"
    },
    {
      "inputs": [
        {
          "internalType": "uint256",
          "name": "arcadianId",
          "type": "uint256"
        },
        {
          "internalType": "uint256",
          "name": "slotId",
          "type": "uint256"
        }
      ],
      "name": "unequip",
      "outputs": [],
      "stateMutability": "nonpayable",
      "type": "function"
    },
    {
      "inputs": [
        {
          "internalType": "uint256",
          "name": "arcadianId",
          "type": "uint256"
        },
        {
          "internalType": "uint256[]",
          "name": "slotIds",
          "type": "uint256[]"
        }
      ],
      "name": "unequipBatch",
      "outputs": [],
      "stateMutability": "nonpayable",
      "type": "function"
    }
  ],
  "transactionHash": "0xccadc00fd58c684f9bcf91b7c7e7513a59d179f5a07aed71e22dae55277f8d54",
  "args": [],
  "numDeployments": 1,
  "solcInputHash": "b6e81bc9395a29f02d4340ddb8cf6c81",
  "bytecode": "0x608060405234801561001057600080fd5b5061331d806100206000396000f3fe608060405234801561001057600080fd5b50600436106101215760003560e01c80639e3ccb2a116100ad578063b9518c8d11610071578063b9518c8d1461028a578063b9e6a4121461029d578063bc197c81146102b0578063ef0bf7de146102e8578063f23a6e611461030857600080fd5b80639e3ccb2a1461020f578063a667d9d31461022f578063b1b2fef414610242578063b2025e4f14610257578063b512cffe1461027757600080fd5b8063633e2d5a116100f4578063633e2d5a1461019757806376356aad146101aa5780637f85db2d146101bd5780638aa5d1f7146101f45780639621ff251461020757600080fd5b806301ffc9a7146101265780632f8bd3c81461014e5780634274a1431461016f578063473bdb9814610184575b600080fd5b610139610134366004612907565b610327565b60405190151581526020015b60405180910390f35b61016161015c366004612949565b61035e565b604051908152602001610145565b61018261017d3660046129b0565b610369565b005b6101826101923660046129b0565b610389565b6101616101a53660046129fb565b61039f565b6101826101b8366004612a14565b6103aa565b6101d06101cb366004612a4a565b610405565b6040805182516001600160a01b031681526020928301519281019290925201610145565b610182610202366004612ab0565b61042a565b610161610489565b61022261021d3660046129fb565b610498565b6040516101459190612b29565b61013961023d366004612ab0565b6104a3565b61024a6104bc565b6040516101459190612bee565b61026a6102653660046129fb565b6104c6565b6040516101459190612c30565b610182610285366004612a4a565b61056b565b610182610298366004612c3e565b6105c4565b6101826102ab366004612c7c565b610616565b6102cf6102be366004612e32565b63bc197c8160e01b95945050505050565b6040516001600160e01b03199091168152602001610145565b6102fb6102f6366004612a4a565b610633565b6040516101459190612edf565b6102cf610316366004612f09565b63f23a6e6160e01b95945050505050565b60006001600160e01b03198216630271189760e51b148061035857506301ffc9a760e01b6001600160e01b03198316145b92915050565b60006103588261066a565b6103796103746106d8565b610702565b61038483838361070f565b505050565b6103946103746106d8565b61038483838361086d565b600061035882610b95565b7f09acf4e54214992e70883cf7dcd6957ff2c71cd9e14df4bec4383bc0d11607dc80546002036103ed57604051635db5c7cd60e11b815260040160405180910390fd5b600281556103fc848484610c04565b60019055505050565b60408051808201909152600080825260208201526104238383611008565b9392505050565b7f09acf4e54214992e70883cf7dcd6957ff2c71cd9e14df4bec4383bc0d11607dc805460020361046d57604051635db5c7cd60e11b815260040160405180910390fd5b6002815561047e86868686866110d2565b600190555050505050565b60006104936115d2565b905090565b6060610358826115e8565b60006104b28686868686611714565b9695505050505050565b6060610493611a95565b6104e760408051606081018252600080825260208201819052909182015290565b60008281527ff672b8dc84d117c1e14949d8bc3977392b5ab7de9d01b854d389cdc31bf0d437602052604090206040805160608101825282548152600183015460ff8082161515602084015291939284019161010090910416600281111561055157610551612b94565b600281111561056257610562612b94565b90525092915050565b7f09acf4e54214992e70883cf7dcd6957ff2c71cd9e14df4bec4383bc0d11607dc80546002036105ae57604051635db5c7cd60e11b815260040160405180910390fd5b600281556105bc8383611bcf565b600190555050565b7f09acf4e54214992e70883cf7dcd6957ff2c71cd9e14df4bec4383bc0d11607dc805460020361060757604051635db5c7cd60e11b815260040160405180910390fd5b600281556103fc848484611de3565b6106216103746106d8565b61062d84848484611fda565b50505050565b61066060405180606001604052806000815260200160006001600160a01b03168152602001600081525090565b61042383836120c2565b60007ff672b8dc84d117c1e14949d8bc3977392b5ab7de9d01b854d389cdc31bf0d43a8161069b6020850185612f71565b6001600160a01b03166001600160a01b03168152602001908152602001600020600083602001358152602001908152602001600020549050919050565b60007ff6deb63e40d71b08820818e006e23fcceb1fce7a499bc15b71b2526cbf9efa725b54919050565b61070c8133612154565b50565b8280158061072b57506000805160206132c88339815191525481115b156107495760405163d751397d60e01b815260040160405180910390fd5b6000805160206132c883398151915260005b83811015610830578582600401600087878581811061077c5761077c612f8e565b6107929260206040909202019081019150612f71565b6001600160a01b03166001600160a01b0316815260200190815260200160002060008787858181106107c6576107c6612f8e565b90506040020160200135815260200190815260200160002054146107fd5760405163072f859160e31b815260040160405180910390fd5b61081e8686868481811061081357610813612f8e565b9050604002016121c3565b8061082881612fba565b91505061075b565b5060405185815233907ff69b53fa14ee16895edbe90d00c7b7af9214baf87c69bf5594126b114c9337ed9060200160405180910390a25050505050565b8280158061088957506000805160206132c88339815191525481115b156108a75760405163d751397d60e01b815260040160405180910390fd5b6000805160206132c883398151915260005b83811015610b2f576108fb8585838181106108d6576108d6612f8e565b6108ec9260206040909202019081019150612f71565b6001600160a01b03163b151590565b61091857604051633c65e02b60e21b815260040160405180910390fd5b600082600401600087878581811061093257610932612f8e565b6109489260206040909202019081019150612f71565b6001600160a01b03166001600160a01b03168152602001908152602001600020600087878581811061097c5761097c612f8e565b905060400201602001358152602001908152602001600020541115610a4b57858260040160008787858181106109b4576109b4612f8e565b6109ca9260206040909202019081019150612f71565b6001600160a01b03166001600160a01b0316815260200190815260200160002060008787858181106109fe576109fe612f8e565b9050604002016020013581526020019081526020016000205403610a3557604051634ea88b8b60e01b815260040160405180910390fd5b610a4b8686868481811061081357610813612f8e565b60008681526005830160205260409020858583818110610a6d57610a6d612f8e565b835460018101855560009485526020909420604090910292909201926002029091019050610a9b8282612fd3565b505085826004016000878785818110610ab657610ab6612f8e565b610acc9260206040909202019081019150612f71565b6001600160a01b03166001600160a01b031681526020019081526020016000206000878785818110610b0057610b00612f8e565b905060400201602001358152602001908152602001600020819055508080610b2790612fba565b9150506108b9565b506000858152600182810160205260408220015461083091879160028086019291610100900460ff1690811115610b6857610b68612b94565b6002811115610b7957610b79612b94565b815260200190815260200160002061237d90919063ffffffff16565b600081801580610bb357506000805160206132c88339815191525481115b15610bd15760405163d751397d60e01b815260040160405180910390fd5b505060009081527ff672b8dc84d117c1e14949d8bc3977392b5ab7de9d01b854d389cdc31bf0d43b602052604090205490565b6040516331a9108f60e11b815260048101849052839030908190636352211e90602401602060405180830381865afa158015610c44573d6000803e3d6000fd5b505050506040513d601f19601f82011682018060405250810190610c68919061300d565b6001600160a01b0316336001600160a01b031614610c995760405163aee05b5d60e01b815260040160405180910390fd5b83801580610cb557506000805160206132c88339815191525481115b15610cd35760405163d751397d60e01b815260040160405180910390fd5b6000805160206132c8833981519152857ff672b8dc84d117c1e14949d8bc3977392b5ab7de9d01b854d389cdc31bf0d43a6000610d136020890189612f71565b6001600160a01b03166001600160a01b031681526020019081526020016000206000876020013581526020019081526020016000205414610d675760405163711f88b160e11b815260040160405180910390fd5b60008781526003820160209081526040808320898452825280832060018086019093529220015460ff168015610da6575080546001600160a01b031615155b15610dc45760405163bd8a5e1560e01b815260040160405180910390fd5b610dce8888612389565b6000610ddd6020880188612f71565b604051627eeac760e11b8152336004820152602089013560248201529091506001906001600160a01b0383169062fdd58e90604401602060405180830381865afa158015610e2f573d6000803e3d6000fd5b505050506040513d601f19601f82011682018060405250810190610e53919061302a565b1015610e72576040516335ba250d60e11b815260040160405180910390fd5b610e7f6020880188612f71565b82546001600160a01b039081169116148015610ea2575086602001358260010154145b15610ec05760405163c80df0cb60e01b815260040160405180910390fd5b604051637921219560e11b81526001600160a01b0382169063f242432a90610ef7903390309060208d013590600190600401613043565b600060405180830381600087803b158015610f1157600080fd5b505af1158015610f25573d6000803e3d6000fd5b50505060008a815260038501602090815260408083208c84529091529020889150610f508282612fd3565b905050610f5c89612480565b610f785760405162ecf30560e51b815260040160405180910390fd5b604080516001808252818301909252600091602080830190803683370190505090508881600081518110610fae57610fae612f8e565b60200260200101818152505089336001600160a01b03167f557dc03f902756383ba5a748ab63ec6ec44b2880dba84ad33dc6ffe670f1886183604051610ff4919061307b565b60405180910390a350505050505050505050565b60408051808201909152600080825260208201528280158061103857506000805160206132c88339815191525481115b156110565760405163d751397d60e01b815260040160405180910390fd5b60008481527ff672b8dc84d117c1e14949d8bc3977392b5ab7de9d01b854d389cdc31bf0d43b6020526040902080548490811061109557611095612f8e565b60009182526020918290206040805180820190915260029092020180546001600160a01b03168252600101549181019190915291505b5092915050565b6040516331a9108f60e11b815260048101869052859030908190636352211e90602401602060405180830381865afa158015611112573d6000803e3d6000fd5b505050506040513d601f19601f82011682018060405250810190611136919061300d565b6001600160a01b0316336001600160a01b0316146111675760405163aee05b5d60e01b815260040160405180910390fd5b600085900361118957604051635740c67760e11b815260040160405180910390fd5b8483146111a9576040516303f7219d60e41b815260040160405180910390fd5b6000805160206132c8833981519152805460005b8781101561155d5760008989838181106111d9576111d9612f8e565b9050602002013590508060001480156111f157508281115b1561120f5760405163d751397d60e01b815260040160405180910390fd5b808460040160008a8a8681811061122857611228612f8e565b61123e9260206040909202019081019150612f71565b6001600160a01b03166001600160a01b0316815260200190815260200160002060008a8a8681811061127257611272612f8e565b90506040020160200135815260200190815260200160002054146112a95760405163711f88b160e11b815260040160405180910390fd5b60008b8152600385016020908152604080832084845290915290208888848181106112d6576112d6612f8e565b6112ec9260206040909202019081019150612f71565b81546001600160a01b039081169116148015611326575088888481811061131557611315612f8e565b905060400201602001358160010154145b156113445760405163c80df0cb60e01b815260040160405180910390fd5b600082815260018087016020526040909120015460ff168015611370575080546001600160a01b031615155b1561138e5760405163bd8a5e1560e01b815260040160405180910390fd5b6113988c83612389565b8888848181106113aa576113aa612f8e565b60008f81526003890160209081526040808320888452909152908190209102929092019190506113da8282612fd3565b90505060008989858181106113f1576113f1612f8e565b6114079260206040909202019081019150612f71565b90506001816001600160a01b031662fdd58e338d8d8981811061142c5761142c612f8e565b905060400201602001356040518363ffffffff1660e01b81526004016114679291906001600160a01b03929092168252602082015260400190565b602060405180830381865afa158015611484573d6000803e3d6000fd5b505050506040513d601f19601f820116820180604052508101906114a8919061302a565b10156114c7576040516335ba250d60e11b815260040160405180910390fd5b806001600160a01b031663f242432a33308d8d898181106114ea576114ea612f8e565b9050604002016020013560016040518563ffffffff1660e01b81526004016115159493929190613043565b600060405180830381600087803b15801561152f57600080fd5b505af1158015611543573d6000803e3d6000fd5b50505050505050808061155590612fba565b9150506111bd565b5061156789612480565b6115835760405162ecf30560e51b815260040160405180910390fd5b88336001600160a01b03167f557dc03f902756383ba5a748ab63ec6ec44b2880dba84ad33dc6ffe670f188618a8a6040516115bf9291906130b3565b60405180910390a3505050505050505050565b60006000805160206132c88339815191526106fc565b6000805160206132c8833981519152805460609190806001600160401b0381111561161557611615612cfe565b60405190808252806020026020018201604052801561167357816020015b61166060405180606001604052806000815260200160006001600160a01b03168152602001600081525090565b8152602001906001900390816116335790505b50925060005b8181101561170c57600061168e8260016130ec565b60008781526003860160209081526040808320848452825291829020825160608101845284815281546001600160a01b031692810192909252600181015492820192909252875192935090918790859081106116ec576116ec612f8e565b60200260200101819052505050808061170490612fba565b915050611679565b505050919050565b6000838214611736576040516303f7219d60e41b815260040160405180910390fd5b60008080527ff672b8dc84d117c1e14949d8bc3977392b5ab7de9d01b854d389cdc31bf0d4386020526000805160206132c8833981519152907f845ff02802177e9909faef63e536d995d5be20fadd26c667f4235942a02dfdd99061179a826125c7565b90506000816001600160401b038111156117b6576117b6612cfe565b6040519080825280602002602001820160405280156117df578160200160208202803683370190505b5090506000826001600160401b038111156117fc576117fc612cfe565b60405190808252806020026020018201604052801561184157816020015b604080518082019091526000808252602082015281526020019060019003908161181a5790505b50855490915060005b848110156118ee57600061185e87836125d1565b90508085838151811061187357611873612f8e565b60209081029190910181019190915260008f815260038a0182526040808220848352835290819020815180830190925280546001600160a01b03168252600101549181019190915284518590849081106118cf576118cf612f8e565b60200260200101819052505080806118e690612fba565b91505061184a565b5060005b8a8110156119d05760008c8c8381811061190e5761190e612f8e565b90506020020135905080600014801561192657508281115b156119445760405163d751397d60e01b815260040160405180910390fd5b61194e87826125dd565b61195857506119be565b8085838151811061196b5761196b612f8e565b6020026020010181815250508a8a8381811061198957611989612f8e565b90506040020180360381019061199f91906130ff565b8483815181106119b1576119b1612f8e565b6020026020010181905250505b806119c881612fba565b9150506118f2565b50606060005b8451811015611a6d57818582815181106119f2576119f2612f8e565b6020026020010151858381518110611a0c57611a0c612f8e565b602002602001015160000151868481518110611a2a57611a2a612f8e565b602002602001015160200151604051602001611a49949392919061317a565b60405160208183030381529060405291508080611a6590612fba565b9150506119d6565b5080516020820120611a839060068901906125dd565b159d9c50505050505050505050505050565b6000805160206132c8833981519152805460609190806001600160401b03811115611ac257611ac2612cfe565b604051908082528060200260200182016040528015611b1457816020015b611b0160408051606081018252600080825260208201819052909182015290565b815260200190600190039081611ae05790505b50925060005b81811015611bc9576000611b2f8260016130ec565b6000818152600180870160209081526040928390208351606081018552815481529281015460ff808216151593850193909352949550919391928401916101009004166002811115611b8357611b83612b94565b6002811115611b9457611b94612b94565b81525050858381518110611baa57611baa612f8e565b6020026020010181905250508080611bc190612fba565b915050611b1a565b50505090565b6040516331a9108f60e11b815260048101839052829030908190636352211e90602401602060405180830381865afa158015611c0f573d6000803e3d6000fd5b505050506040513d601f19601f82011682018060405250810190611c33919061300d565b6001600160a01b0316336001600160a01b031614611c645760405163aee05b5d60e01b815260040160405180910390fd5b82801580611c8057506000805160206132c88339815191525481115b15611c9e5760405163d751397d60e01b815260040160405180910390fd5b60008481527ff672b8dc84d117c1e14949d8bc3977392b5ab7de9d01b854d389cdc31bf0d43760205260409020600101546000805160206132c88339815191529060ff1615611d005760405163bd8a5e1560e01b815260040160405180910390fd5b600086815260038201602090815260408083208884529091529020546001600160a01b0316611d4257604051632755285560e01b815260040160405180910390fd5b611d4c8686612389565b611d5586612480565b50604080516001808252818301909252600091602080830190803683370190505090508581600081518110611d8c57611d8c612f8e565b60200260200101818152505086336001600160a01b03167f3822f2cd6d118934e31e6171da74d9d46131fb402be1861b3cb4460440aeab6383604051611dd2919061307b565b60405180910390a350505050505050565b6040516331a9108f60e11b815260048101849052839030908190636352211e90602401602060405180830381865afa158015611e23573d6000803e3d6000fd5b505050506040513d601f19601f82011682018060405250810190611e47919061300d565b6001600160a01b0316336001600160a01b031614611e785760405163aee05b5d60e01b815260040160405180910390fd5b6000839003611e9a57604051635740c67760e11b815260040160405180910390fd5b6000805160206132c8833981519152805460005b85811015611f93576000878783818110611eca57611eca612f8e565b9050602002013590508060001480611ee157508281115b15611eff5760405163d751397d60e01b815260040160405180910390fd5b600081815260018086016020526040909120015460ff1615611f345760405163bd8a5e1560e01b815260040160405180910390fd5b600089815260038501602090815260408083208484529091529020546001600160a01b0316611f7657604051632755285560e01b815260040160405180910390fd5b611f808982612389565b5080611f8b81612fba565b915050611eae565b50611f9d87612480565b5086336001600160a01b03167f3822f2cd6d118934e31e6171da74d9d46131fb402be1861b3cb4460440aeab638888604051611dd29291906130b3565b6000805160206132c883398151915280546001908290600090611ffe9084906130ec565b9091555050805460008181526001808401602052604090912001805460ff198116881515908117835587929161ffff191661ff00199091161761010083600281111561204c5761204c612b94565b02179055506000818152600183016020526040902081905582156120755761207581858561086d565b336001600160a01b03167fc1ea46ff33b3d61e148e5bff5dfe54ccae9db30b899a3e7645618fb1e3d9dc118288886040516120b2939291906131bb565b60405180910390a2505050505050565b6120ef60405180606001604052806000815260200160006001600160a01b03168152602001600081525090565b5060009182527ff672b8dc84d117c1e14949d8bc3977392b5ab7de9d01b854d389cdc31bf0d43960209081526040808420838552825292839020835160608101855292835280546001600160a01b031691830191909152600101549181019190915290565b61215e82826125f5565b6121bf57612174816001600160a01b031661262c565b61217f83602061263e565b6040516020016121909291906131df565b60408051601f198184030181529082905262461bcd60e51b82526121b691600401613254565b60405180910390fd5b5050565b6000805160206132c883398151915260005b600084815260058301602052604090205481101561232b578260200135826005016000868152602001908152602001600020828154811061221857612218612f8e565b906000526020600020906002020160010154036123195760008481526005830160205260409020805461224d90600190613287565b8154811061225d5761225d612f8e565b9060005260206000209060020201826005016000868152602001908152602001600020828154811061229157612291612f8e565b60009182526020808320845460029093020180546001600160a01b0319166001600160a01b03909316929092178255600193840154939091019290925585815260058401909152604090208054806122eb576122eb61329a565b60008281526020812060026000199093019283020180546001600160a01b031916815560010155905561232b565b8061232381612fba565b9150506121d5565b5060048101600061233f6020850185612f71565b6001600160a01b03166001600160a01b0316815260200190815260200160002060008360200135815260200190815260200160002060009055505050565b60006104238383612790565b60008281527ff672b8dc84d117c1e14949d8bc3977392b5ab7de9d01b854d389cdc31bf0d43960209081526040808320848452909152902080546000805160206132c883398151915291906001600160a01b0316806123e9575050505050565b600180830154604051637921219560e11b81526001600160a01b0384169263f242432a9261241e923092339291600401613043565b600060405180830381600087803b15801561243857600080fd5b505af115801561244c573d6000803e3d6000fd5b505050600095865250505060030160209081526040808420928452919052812080546001600160a01b031916815560010155565b60008080527ff672b8dc84d117c1e14949d8bc3977392b5ab7de9d01b854d389cdc31bf0d4386020526000805160206132c88339815191527f845ff02802177e9909faef63e536d995d5be20fadd26c667f4235942a02dfdd96060836124e5836125c7565b905060005b818110156125665760006124fe85836125d1565b60008981526003880160209081526040808320848452825291829020805460018201549351949550909361254093899387936001600160a01b0316920161317a565b60405160208183030381529060405294505050808061255e90612fba565b9150506124ea565b508151602083012061257b60068601826125dd565b60008881526008870160205260409020549015965061259e9060068701906127d3565b506125ac600686018261237d565b50600096875260089094016020525050604090932055919050565b6000610358825490565b600061042383836127df565b60008181526001830160205260408120541515610423565b60008281527fd3889cc5458b268d0544e5534672df1296288ca3f93cbd39bd6f497a5c62281160205260408120610423908361282b565b60606103586001600160a01b03831660145b6060600061264d8360026132b0565b6126589060026130ec565b6001600160401b0381111561266f5761266f612cfe565b6040519080825280601f01601f191660200182016040528015612699576020820181803683370190505b509050600360fc1b816000815181106126b4576126b4612f8e565b60200101906001600160f81b031916908160001a905350600f60fb1b816001815181106126e3576126e3612f8e565b60200101906001600160f81b031916908160001a905350600160028402015b6001811115612770576f181899199a1a9b1b9c1cb0b131b232b360811b85600f166010811061273357612733612f8e565b1a60f81b82828151811061274957612749612f8e565b60200101906001600160f81b031916908160001a90535060049490941c9360001901612702565b5083156104235760405163c913478560e01b815260040160405180910390fd5b6000818152600183016020526040812054610358575081546001808201845560008481526020808220909301849055845493815293810190915260409092205590565b6000610423838361284d565b815460009082106128035760405163e637bf3b60e01b815260040160405180910390fd5b82600001828154811061281857612818612f8e565b9060005260206000200154905092915050565b6001600160a01b03811660009081526001830160205260408120541515610423565b600081815260018301602052604081205480156110cb5783546000908590600019810190811061287f5761287f612f8e565b90600052602060002001549050808560000160018403815481106128a5576128a5612f8e565b60009182526020808320909101929092559182526001860190526040902081905583548490806128d7576128d761329a565b60008281526020808220830160001990810183905590920190925593815260019485019093525050604081205590565b60006020828403121561291957600080fd5b81356001600160e01b03198116811461042357600080fd5b60006040828403121561294357600080fd5b50919050565b60006040828403121561295b57600080fd5b6104238383612931565b60008083601f84011261297757600080fd5b5081356001600160401b0381111561298e57600080fd5b6020830191508360208260061b85010111156129a957600080fd5b9250929050565b6000806000604084860312156129c557600080fd5b8335925060208401356001600160401b038111156129e257600080fd5b6129ee86828701612965565b9497909650939450505050565b600060208284031215612a0d57600080fd5b5035919050565b600080600060808486031215612a2957600080fd5b8335925060208401359150612a418560408601612931565b90509250925092565b60008060408385031215612a5d57600080fd5b50508035926020909101359150565b60008083601f840112612a7e57600080fd5b5081356001600160401b03811115612a9557600080fd5b6020830191508360208260051b85010111156129a957600080fd5b600080600080600060608688031215612ac857600080fd5b8535945060208601356001600160401b0380821115612ae657600080fd5b612af289838a01612a6c565b90965094506040880135915080821115612b0b57600080fd5b50612b1888828901612965565b969995985093965092949392505050565b6020808252825182820181905260009190848201906040850190845b81811015612b8857612b75838551805182526020808201516001600160a01b031690830152604090810151910152565b9284019260609290920191600101612b45565b50909695505050505050565b634e487b7160e01b600052602160045260246000fd5b60038110612bc857634e487b7160e01b600052602160045260246000fd5b9052565b8051825260208101511515602083015260408101516103846040840182612baa565b6020808252825182820181905260009190848201906040850190845b81811015612b8857612c1d838551612bcc565b9284019260609290920191600101612c0a565b606081016103588284612bcc565b600080600060408486031215612c5357600080fd5b8335925060208401356001600160401b03811115612c7057600080fd5b6129ee86828701612a6c565b60008060008060608587031215612c9257600080fd5b84358015158114612ca257600080fd5b9350602085013560038110612cb657600080fd5b925060408501356001600160401b03811115612cd157600080fd5b612cdd87828801612965565b95989497509550505050565b6001600160a01b038116811461070c57600080fd5b634e487b7160e01b600052604160045260246000fd5b604051601f8201601f191681016001600160401b0381118282101715612d3c57612d3c612cfe565b604052919050565b600082601f830112612d5557600080fd5b813560206001600160401b03821115612d7057612d70612cfe565b8160051b612d7f828201612d14565b9283528481018201928281019087851115612d9957600080fd5b83870192505b84831015612db857823582529183019190830190612d9f565b979650505050505050565b600082601f830112612dd457600080fd5b81356001600160401b03811115612ded57612ded612cfe565b612e00601f8201601f1916602001612d14565b818152846020838601011115612e1557600080fd5b816020850160208301376000918101602001919091529392505050565b600080600080600060a08688031215612e4a57600080fd5b8535612e5581612ce9565b94506020860135612e6581612ce9565b935060408601356001600160401b0380821115612e8157600080fd5b612e8d89838a01612d44565b94506060880135915080821115612ea357600080fd5b612eaf89838a01612d44565b93506080880135915080821115612ec557600080fd5b50612ed288828901612dc3565b9150509295509295909350565b815181526020808301516001600160a01b0316908201526040808301519082015260608101610358565b600080600080600060a08688031215612f2157600080fd5b8535612f2c81612ce9565b94506020860135612f3c81612ce9565b9350604086013592506060860135915060808601356001600160401b03811115612f6557600080fd5b612ed288828901612dc3565b600060208284031215612f8357600080fd5b813561042381612ce9565b634e487b7160e01b600052603260045260246000fd5b634e487b7160e01b600052601160045260246000fd5b600060018201612fcc57612fcc612fa4565b5060010190565b8135612fde81612ce9565b6001600160a01b0381166bffffffffffffffffffffffff60a01b83541617825550602082013560018201555050565b60006020828403121561301f57600080fd5b815161042381612ce9565b60006020828403121561303c57600080fd5b5051919050565b6001600160a01b0394851681529290931660208301526040820152606081019190915260a06080820181905260009082015260c00190565b6020808252825182820181905260009190848201906040850190845b81811015612b8857835183529284019291840191600101613097565b6020808252810182905260006001600160fb1b038311156130d357600080fd5b8260051b80856040850137919091016040019392505050565b8082018082111561035857610358612fa4565b60006040828403121561311157600080fd5b604051604081018181106001600160401b038211171561313357613133612cfe565b604052823561314181612ce9565b81526020928301359281019290925250919050565b60005b83811015613171578181015183820152602001613159565b50506000910152565b6000855161318c818460208a01613156565b919091019384525060609190911b6bffffffffffffffffffffffff191660208301526034820152605401919050565b8381528215156020820152606081016131d76040830184612baa565b949350505050565b7f416363657373436f6e74726f6c3a206163636f756e7420000000000000000000815260008351613217816017850160208801613156565b7001034b99036b4b9b9b4b733903937b6329607d1b6017918401918201528351613248816028840160208801613156565b01602801949350505050565b6020815260008251806020840152613273816040850160208701613156565b601f01601f19169190910160400192915050565b8181038181111561035857610358612fa4565b634e487b7160e01b600052603160045260246000fd5b808202811582820484141761035857610358612fa456fef672b8dc84d117c1e14949d8bc3977392b5ab7de9d01b854d389cdc31bf0d436a264697066735822122083ea4bd4482ae8bb90c20bc83e0eadede6181845028baed52c33067dc7789a9364736f6c63430008130033",
  "devdoc": {
    "details": "This contract is responsible for managing the inventory system for the Arcadians using slots.  It defines the functionality to equip and unequip items to Arcadians, check if a combination of items  are unique, and retrieve the inventory slots and allowed items for a slot.  This contract also implements ERC1155Holder to handle ERC1155 token transfers This contract can be used as a facet of a diamond which follows the EIP-2535 diamond standard. It also uses the ReentrancyGuard and Multicall contracts for security and gas efficiency.",
    "kind": "dev",
    "methods": {
      "allowItemsInSlot(uint256,(address,uint256)[])": {
        "params": {
          "items": "The list of items to allow in the slot",
          "slotId": "The slot id"
        }
      },
      "allowedItem(uint256,uint256)": {
        "params": {
          "index": "The index of the item",
          "slotId": "The slot id to query"
        },
        "returns": {
          "_0": "A list of all the items that are allowed in the slot"
        }
      },
      "allowedSlot((address,uint256))": {
        "params": {
          "item": "The item to check"
        },
        "returns": {
          "_0": "The allowed slot id for the item. Slots are 1-indexed."
        }
      },
      "createSlot(bool,uint8,(address,uint256)[])": {
        "details": "This function is only accessible to the manager roleSlots are 1-indexed",
        "params": {
          "category": "The category of the slot",
          "items": "The list of items to allow in the slot",
          "permanent": "Whether or not the slot can be unequipped once equipped"
        }
      },
      "disallowItemsInSlot(uint256,(address,uint256)[])": {
        "params": {
          "items": "The list of items to disallow in the slot",
          "slotId": "The ID of the inventory slot"
        }
      },
      "equip(uint256,uint256,(address,uint256))": {
        "params": {
          "arcadianId": "The ID of the Arcadian NFT to equip the item for",
          "item": "The item to equip in the slot",
          "slotId": "The slot id in which the items will be equipped"
        }
      },
      "equipBatch(uint256,uint256[],(address,uint256)[])": {
        "params": {
          "arcadianId": "The ID of the Arcadian NFT to equip the items for",
          "items": "An array of items to equip in the corresponding slots",
          "slotsIds": "An array of slot ids to equip the items"
        }
      },
      "equipped(uint256,uint256)": {
        "params": {
          "arcadianId": "The ID of the Arcadian NFT to query",
          "slotId": "The slot id to query"
        }
      },
      "equippedAll(uint256)": {
        "params": {
          "arcadianId": "The ID of the Arcadian NFT to query"
        }
      },
      "isArcadianUnique(uint256,uint256[],(address,uint256)[])": {
        "details": "The uniqueness is calculated using the existent arcadian items and the input items as wellOnly items equipped in 'base' category slots are considered for uniqueness",
        "params": {
          "arcadianId": "The ID of the Arcadian NFT to query",
          "items": "An array of items to check for uniqueness after \"equipped\" over the existent arcadian items.",
          "slotsIds": "An array of slot ids"
        }
      },
      "numAllowedItems(uint256)": {
        "params": {
          "slotId": "The slot id to check"
        },
        "returns": {
          "_0": "A list of all the items that are allowed in the slot"
        }
      },
      "numSlots()": {
        "details": "Slots are 1-indexed",
        "returns": {
          "_0": "The number of inventory slots "
        }
      },
      "slot(uint256)": {
        "details": "Slots are 1-indexed",
        "params": {
          "slotId": "The ID of the inventory slot"
        },
        "returns": {
          "existentSlot": "The details of the inventory slot"
        }
      },
      "slotsAll()": {
        "details": "Slots are 1-indexed",
        "returns": {
          "existentSlots": "The details of all the inventory slots"
        }
      },
      "supportsInterface(bytes4)": {
        "details": "See {IERC165-supportsInterface}."
      },
      "unequip(uint256,uint256)": {
        "params": {
          "arcadianId": "The ID of the Arcadian NFT to equip the item for",
          "slotId": "The slot id in which the item will be unequipped"
        }
      },
      "unequipBatch(uint256,uint256[])": {
        "params": {
          "arcadianId": "The ID of the Arcadian NFT to equip the item for",
          "slotIds": "The slots ids in which the items will be unequipped"
        }
      }
    },
    "title": "InventoryFacet",
    "version": 1
  },
  "userdoc": {
    "kind": "user",
    "methods": {
      "allowItemsInSlot(uint256,(address,uint256)[])": {
        "notice": "Adds items to the list of allowed items for an inventory slot"
      },
      "allowedItem(uint256,uint256)": {
        "notice": "Returns the allowed item for a given slot and the index"
      },
      "allowedSlot((address,uint256))": {
        "notice": "Returns the allowed slot for a given item"
      },
      "createSlot(bool,uint8,(address,uint256)[])": {
        "notice": "Creates a new inventory slot"
      },
      "disallowItemsInSlot(uint256,(address,uint256)[])": {
        "notice": "Removes items from the list of allowed items"
      },
      "equip(uint256,uint256,(address,uint256))": {
        "notice": "Equips a single item to a given slot for a specified Arcadian NFT"
      },
      "equipBatch(uint256,uint256[],(address,uint256)[])": {
        "notice": "Equips multiple items to multiple slots for a specified Arcadian NFT"
      },
      "equipped(uint256,uint256)": {
        "notice": "Retrieves the equipped item in a slot for a specified Arcadian NFT"
      },
      "equippedAll(uint256)": {
        "notice": "Retrieves all the equipped items for a specified Arcadian NFT"
      },
      "isArcadianUnique(uint256,uint256[],(address,uint256)[])": {
        "notice": "Indicates if a list of items applied to an the arcadian is unique"
      },
      "numAllowedItems(uint256)": {
        "notice": "Returns the number of allowed items for a given slot"
      },
      "numSlots()": {
        "notice": "Returns the number of inventory slots"
      },
      "slot(uint256)": {
        "notice": "Returns the details of an inventory slot given its ID"
      },
      "slotsAll()": {
        "notice": "Returns the details of all the existent slots"
      },
      "unequip(uint256,uint256)": {
        "notice": "Unequips the item equipped in a given slot for a specified Arcadian NFT"
      },
      "unequipBatch(uint256,uint256[])": {
        "notice": "Unequips the items equipped in multiple slots for a specified Arcadian NFT"
      }
    },
    "version": 1
  },
  "storageLayout": {
    "storage": [],
    "types": null
  }
}