{
  "address": "0x9a0811002f659C4D078c2310c9A170B2458E6ccc",
  "abi": [
    {
      "inputs": [],
      "name": "ERC1155Base__ArrayLengthMismatch",
      "type": "error"
    },
    {
      "inputs": [],
      "name": "ERC1155Base__BalanceQueryZeroAddress",
      "type": "error"
    },
    {
      "inputs": [],
      "name": "ERC1155Base__BurnExceedsBalance",
      "type": "error"
    },
    {
      "inputs": [],
      "name": "ERC1155Base__BurnFromZeroAddress",
      "type": "error"
    },
    {
      "inputs": [],
      "name": "ERC1155Base__ERC1155ReceiverNotImplemented",
      "type": "error"
    },
    {
      "inputs": [],
      "name": "ERC1155Base__ERC1155ReceiverRejected",
      "type": "error"
    },
    {
      "inputs": [],
      "name": "ERC1155Base__MintToZeroAddress",
      "type": "error"
    },
    {
      "inputs": [],
      "name": "ERC1155Base__NotOwnerOrApproved",
      "type": "error"
    },
    {
      "inputs": [],
      "name": "ERC1155Base__SelfApproval",
      "type": "error"
    },
    {
      "inputs": [],
      "name": "ERC1155Base__TransferExceedsBalance",
      "type": "error"
    },
    {
      "inputs": [],
      "name": "ERC1155Base__TransferToZeroAddress",
      "type": "error"
    },
    {
      "inputs": [],
      "name": "EnumerableSet__IndexOutOfBounds",
      "type": "error"
    },
    {
      "inputs": [],
      "name": "Items_InputsLengthMistatch",
      "type": "error"
    },
    {
      "inputs": [],
      "name": "Merkle_AlreadyClaimed",
      "type": "error"
    },
    {
      "inputs": [],
      "name": "Merkle_ClaimInactive",
      "type": "error"
    },
    {
      "inputs": [],
      "name": "Merkle_ClaimStateAlreadyUpdated",
      "type": "error"
    },
    {
      "inputs": [],
      "name": "Merkle_InvalidClaimAmount",
      "type": "error"
    },
    {
      "inputs": [],
      "name": "Merkle_NotIncludedInMerkleTree",
      "type": "error"
    },
    {
      "inputs": [],
      "name": "ReentrancyGuard__ReentrantCall",
      "type": "error"
    },
    {
      "inputs": [],
      "name": "UintUtils__InsufficientHexLength",
      "type": "error"
    },
    {
      "inputs": [],
      "name": "Whitelist_ClaimInactive",
      "type": "error"
    },
    {
      "inputs": [],
      "name": "Whitelist_ClaimStateAlreadyUpdated",
      "type": "error"
    },
    {
      "inputs": [],
      "name": "Whitelist_ExceedsElegibleAmount",
      "type": "error"
    },
    {
      "inputs": [],
      "name": "Whitelist_InputDataMismatch",
      "type": "error"
    },
    {
      "anonymous": false,
      "inputs": [
        {
          "indexed": true,
          "internalType": "address",
          "name": "account",
          "type": "address"
        },
        {
          "indexed": true,
          "internalType": "address",
          "name": "operator",
          "type": "address"
        },
        {
          "indexed": false,
          "internalType": "bool",
          "name": "approved",
          "type": "bool"
        }
      ],
      "name": "ApprovalForAll",
      "type": "event"
    },
    {
      "anonymous": false,
      "inputs": [
        {
          "indexed": true,
          "internalType": "address",
          "name": "to",
          "type": "address"
        },
        {
          "indexed": true,
          "internalType": "uint256",
          "name": "itemId",
          "type": "uint256"
        },
        {
          "indexed": false,
          "internalType": "uint256",
          "name": "amount",
          "type": "uint256"
        }
      ],
      "name": "ItemClaimedMerkle",
      "type": "event"
    },
    {
      "anonymous": false,
      "inputs": [
        {
          "indexed": true,
          "internalType": "bytes32",
          "name": "role",
          "type": "bytes32"
        },
        {
          "indexed": true,
          "internalType": "bytes32",
          "name": "previousAdminRole",
          "type": "bytes32"
        },
        {
          "indexed": true,
          "internalType": "bytes32",
          "name": "newAdminRole",
          "type": "bytes32"
        }
      ],
      "name": "RoleAdminChanged",
      "type": "event"
    },
    {
      "anonymous": false,
      "inputs": [
        {
          "indexed": true,
          "internalType": "bytes32",
          "name": "role",
          "type": "bytes32"
        },
        {
          "indexed": true,
          "internalType": "address",
          "name": "account",
          "type": "address"
        },
        {
          "indexed": true,
          "internalType": "address",
          "name": "sender",
          "type": "address"
        }
      ],
      "name": "RoleGranted",
      "type": "event"
    },
    {
      "anonymous": false,
      "inputs": [
        {
          "indexed": true,
          "internalType": "bytes32",
          "name": "role",
          "type": "bytes32"
        },
        {
          "indexed": true,
          "internalType": "address",
          "name": "account",
          "type": "address"
        },
        {
          "indexed": true,
          "internalType": "address",
          "name": "sender",
          "type": "address"
        }
      ],
      "name": "RoleRevoked",
      "type": "event"
    },
    {
      "anonymous": false,
      "inputs": [
        {
          "indexed": true,
          "internalType": "address",
          "name": "operator",
          "type": "address"
        },
        {
          "indexed": true,
          "internalType": "address",
          "name": "from",
          "type": "address"
        },
        {
          "indexed": true,
          "internalType": "address",
          "name": "to",
          "type": "address"
        },
        {
          "indexed": false,
          "internalType": "uint256[]",
          "name": "ids",
          "type": "uint256[]"
        },
        {
          "indexed": false,
          "internalType": "uint256[]",
          "name": "values",
          "type": "uint256[]"
        }
      ],
      "name": "TransferBatch",
      "type": "event"
    },
    {
      "anonymous": false,
      "inputs": [
        {
          "indexed": true,
          "internalType": "address",
          "name": "operator",
          "type": "address"
        },
        {
          "indexed": true,
          "internalType": "address",
          "name": "from",
          "type": "address"
        },
        {
          "indexed": true,
          "internalType": "address",
          "name": "to",
          "type": "address"
        },
        {
          "indexed": false,
          "internalType": "uint256",
          "name": "id",
          "type": "uint256"
        },
        {
          "indexed": false,
          "internalType": "uint256",
          "name": "value",
          "type": "uint256"
        }
      ],
      "name": "TransferSingle",
      "type": "event"
    },
    {
      "anonymous": false,
      "inputs": [
        {
          "indexed": false,
          "internalType": "string",
          "name": "value",
          "type": "string"
        },
        {
          "indexed": true,
          "internalType": "uint256",
          "name": "tokenId",
          "type": "uint256"
        }
      ],
      "name": "URI",
      "type": "event"
    },
    {
      "anonymous": false,
      "inputs": [
        {
          "indexed": false,
          "internalType": "address",
          "name": "account",
          "type": "address"
        },
        {
          "indexed": false,
          "internalType": "uint256",
          "name": "totalElegibleAmount",
          "type": "uint256"
        },
        {
          "indexed": false,
          "internalType": "uint256",
          "name": "totalClaimedAmount",
          "type": "uint256"
        }
      ],
      "name": "WhitelistBalanceChanged",
      "type": "event"
    },
    {
      "inputs": [
        {
          "internalType": "uint256",
          "name": "id",
          "type": "uint256"
        }
      ],
      "name": "accountsByToken",
      "outputs": [
        {
          "internalType": "address[]",
          "name": "",
          "type": "address[]"
        }
      ],
      "stateMutability": "view",
      "type": "function"
    },
    {
      "inputs": [
        {
          "internalType": "address",
          "name": "account",
          "type": "address"
        },
        {
          "internalType": "uint256",
          "name": "id",
          "type": "uint256"
        }
      ],
      "name": "balanceOf",
      "outputs": [
        {
          "internalType": "uint256",
          "name": "",
          "type": "uint256"
        }
      ],
      "stateMutability": "view",
      "type": "function"
    },
    {
      "inputs": [
        {
          "internalType": "address[]",
          "name": "accounts",
          "type": "address[]"
        },
        {
          "internalType": "uint256[]",
          "name": "ids",
          "type": "uint256[]"
        }
      ],
      "name": "balanceOfBatch",
      "outputs": [
        {
          "internalType": "uint256[]",
          "name": "",
          "type": "uint256[]"
        }
      ],
      "stateMutability": "view",
      "type": "function"
    },
    {
      "inputs": [
        {
          "internalType": "uint256",
          "name": "itemId",
          "type": "uint256"
        },
        {
          "internalType": "uint256",
          "name": "amount",
          "type": "uint256"
        },
        {
          "internalType": "bytes32[]",
          "name": "proof",
          "type": "bytes32[]"
        }
      ],
      "name": "claimMerkle",
      "outputs": [],
      "stateMutability": "nonpayable",
      "type": "function"
    },
    {
      "inputs": [
        {
          "internalType": "uint256[]",
          "name": "itemsIds",
          "type": "uint256[]"
        },
        {
          "internalType": "uint256[]",
          "name": "amounts",
          "type": "uint256[]"
        },
        {
          "internalType": "bytes32[][]",
          "name": "proofs",
          "type": "bytes32[][]"
        }
      ],
      "name": "claimMerkleBatch",
      "outputs": [],
      "stateMutability": "nonpayable",
      "type": "function"
    },
    {
      "inputs": [
        {
          "internalType": "uint256[]",
          "name": "itemIds",
          "type": "uint256[]"
        },
        {
          "internalType": "uint256[]",
          "name": "amounts",
          "type": "uint256[]"
        }
      ],
      "name": "claimWhitelist",
      "outputs": [],
      "stateMutability": "nonpayable",
      "type": "function"
    },
    {
      "inputs": [
        {
          "internalType": "address",
          "name": "account",
          "type": "address"
        },
        {
          "internalType": "uint256",
          "name": "itemId",
          "type": "uint256"
        }
      ],
      "name": "claimedAmount",
      "outputs": [
        {
          "internalType": "uint256",
          "name": "amount",
          "type": "uint256"
        }
      ],
      "stateMutability": "view",
      "type": "function"
    },
    {
      "inputs": [
        {
          "internalType": "address",
          "name": "account",
          "type": "address"
        },
        {
          "internalType": "address",
          "name": "operator",
          "type": "address"
        }
      ],
      "name": "isApprovedForAll",
      "outputs": [
        {
          "internalType": "bool",
          "name": "",
          "type": "bool"
        }
      ],
      "stateMutability": "view",
      "type": "function"
    },
    {
      "inputs": [
        {
          "internalType": "address",
          "name": "to",
          "type": "address"
        },
        {
          "internalType": "uint256",
          "name": "id",
          "type": "uint256"
        },
        {
          "internalType": "uint256",
          "name": "amount",
          "type": "uint256"
        }
      ],
      "name": "mint",
      "outputs": [],
      "stateMutability": "nonpayable",
      "type": "function"
    },
    {
      "inputs": [
        {
          "internalType": "address",
          "name": "to",
          "type": "address"
        },
        {
          "internalType": "uint256[]",
          "name": "ids",
          "type": "uint256[]"
        },
        {
          "internalType": "uint256[]",
          "name": "amounts",
          "type": "uint256[]"
        }
      ],
      "name": "mintBatch",
      "outputs": [],
      "stateMutability": "nonpayable",
      "type": "function"
    },
    {
      "inputs": [
        {
          "internalType": "bytes[]",
          "name": "data",
          "type": "bytes[]"
        }
      ],
      "name": "multicall",
      "outputs": [
        {
          "internalType": "bytes[]",
          "name": "results",
          "type": "bytes[]"
        }
      ],
      "stateMutability": "nonpayable",
      "type": "function"
    },
    {
      "inputs": [
        {
          "internalType": "address",
          "name": "from",
          "type": "address"
        },
        {
          "internalType": "address",
          "name": "to",
          "type": "address"
        },
        {
          "internalType": "uint256[]",
          "name": "ids",
          "type": "uint256[]"
        },
        {
          "internalType": "uint256[]",
          "name": "amounts",
          "type": "uint256[]"
        },
        {
          "internalType": "bytes",
          "name": "data",
          "type": "bytes"
        }
      ],
      "name": "safeBatchTransferFrom",
      "outputs": [],
      "stateMutability": "nonpayable",
      "type": "function"
    },
    {
      "inputs": [
        {
          "internalType": "address",
          "name": "from",
          "type": "address"
        },
        {
          "internalType": "address",
          "name": "to",
          "type": "address"
        },
        {
          "internalType": "uint256",
          "name": "id",
          "type": "uint256"
        },
        {
          "internalType": "uint256",
          "name": "amount",
          "type": "uint256"
        },
        {
          "internalType": "bytes",
          "name": "data",
          "type": "bytes"
        }
      ],
      "name": "safeTransferFrom",
      "outputs": [],
      "stateMutability": "nonpayable",
      "type": "function"
    },
    {
      "inputs": [
        {
          "internalType": "address",
          "name": "operator",
          "type": "address"
        },
        {
          "internalType": "bool",
          "name": "status",
          "type": "bool"
        }
      ],
      "name": "setApprovalForAll",
      "outputs": [],
      "stateMutability": "nonpayable",
      "type": "function"
    },
    {
      "inputs": [
        {
          "internalType": "string",
          "name": "baseURI",
          "type": "string"
        }
      ],
      "name": "setBaseURI",
      "outputs": [],
      "stateMutability": "nonpayable",
      "type": "function"
    },
    {
      "inputs": [
        {
          "internalType": "uint256",
          "name": "tokenId",
          "type": "uint256"
        },
        {
          "internalType": "string",
          "name": "tokenURI",
          "type": "string"
        }
      ],
      "name": "setTokenURI",
      "outputs": [],
      "stateMutability": "nonpayable",
      "type": "function"
    },
    {
      "inputs": [
        {
          "internalType": "bytes4",
          "name": "_interface",
          "type": "bytes4"
        }
      ],
      "name": "supportsInterface",
      "outputs": [
        {
          "internalType": "bool",
          "name": "",
          "type": "bool"
        }
      ],
      "stateMutability": "pure",
      "type": "function"
    },
    {
      "inputs": [
        {
          "internalType": "address",
          "name": "account",
          "type": "address"
        }
      ],
      "name": "tokensByAccount",
      "outputs": [
        {
          "internalType": "uint256[]",
          "name": "",
          "type": "uint256[]"
        }
      ],
      "stateMutability": "view",
      "type": "function"
    },
    {
      "inputs": [
        {
          "internalType": "uint256",
          "name": "id",
          "type": "uint256"
        }
      ],
      "name": "totalHolders",
      "outputs": [
        {
          "internalType": "uint256",
          "name": "",
          "type": "uint256"
        }
      ],
      "stateMutability": "view",
      "type": "function"
    },
    {
      "inputs": [
        {
          "internalType": "uint256",
          "name": "id",
          "type": "uint256"
        }
      ],
      "name": "totalSupply",
      "outputs": [
        {
          "internalType": "uint256",
          "name": "",
          "type": "uint256"
        }
      ],
      "stateMutability": "view",
      "type": "function"
    },
    {
      "inputs": [
        {
          "internalType": "uint256",
          "name": "tokenId",
          "type": "uint256"
        }
      ],
      "name": "uri",
      "outputs": [
        {
          "internalType": "string",
          "name": "",
          "type": "string"
        }
      ],
      "stateMutability": "view",
      "type": "function"
    }
  ],
  "transactionHash": "0x035b7ee16defd563039b59678c66619b1dcb013463c689e17fc38c99e8b2deee",
  "args": [],
  "numDeployments": 7,
  "solcInputHash": "e1d11ad5ee5467196d54810266d81cef",
  "bytecode": "0x608060405234801561001057600080fd5b5061320d806100206000396000f3fe608060405234801561001057600080fd5b50600436106101365760003560e01c806355f804b3116100b8578063ac9650d81161007c578063ac9650d8146102b5578063bd85b039146102d5578063ceb60ee6146102e8578063d81d0a15146102fb578063e985e9c51461030e578063f242432a1461032157600080fd5b806355f804b3146102495780636dcfd8411461025c57806384118c5d1461027c57806385bff2e71461028f578063a22cb465146102a257600080fd5b8063162094c4116100ff578063162094c4146101dd5780632eb2c2d6146101f05780634e1273f4146102035780634f7fb3321461022357806355b4b1a41461023657600080fd5b8062fdd58e1461013b57806301ffc9a7146101615780630e89341c1461019557806313ba55df146101b5578063156e29f6146101c8575b600080fd5b61014e6101493660046123ce565b610334565b6040519081526020015b60405180910390f35b61018561016f36600461240e565b6001600160e01b031916636cdb3d1360e11b1490565b6040519015158152602001610158565b6101a86101a336600461242b565b610349565b6040516101589190612494565b61014e6101c336600461242b565b610518565b6101db6101d63660046124a7565b610523565b005b6101db6101eb366004612522565b610563565b6101db6101fe3660046126b6565b6105ce565b61021661021136600461275f565b610620565b6040516101589190612864565b6101db6102313660046128bb565b61078a565b61014e6102443660046123ce565b6107eb565b6101db610257366004612954565b610833565b61026f61026a36600461242b565b6108a1565b6040516101589190612995565b6101db61028a3660046129e2565b6108ac565b61021661029d366004612a34565b610941565b6101db6102b0366004612a4f565b61094c565b6102c86102c3366004612a8b565b610a00565b6040516101589190612ac0565b61014e6102e336600461242b565b610b1a565b6101db6102f6366004612b22565b610b4d565b6101db610309366004612b81565b610b5f565b61018561031c366004612c01565b610b97565b6101db61032f366004612c34565b610be4565b60006103408383610c2f565b90505b92915050565b60008181527f4281b61aefbe70b3d3f684b428efca5f33077bc240e76f2808f9177c307617f56020526040812080546060927f4281b61aefbe70b3d3f684b428efca5f33077bc240e76f2808f9177c307617f49290916103a890612c98565b80601f01602080910402602001604051908101604052809291908181526020018280546103d490612c98565b80156104215780601f106103f657610100808354040283529160200191610421565b820191906000526020600020905b81548152906001019060200180831161040457829003601f168201915b50505050509050600082600001805461043990612c98565b80601f016020809104026020016040519081016040528092919081815260200182805461046590612c98565b80156104b25780601f10610487576101008083540402835291602001916104b2565b820191906000526020600020905b81548152906001019060200180831161049557829003601f168201915b5050505050905080516000036104ca57509392505050565b8151156104fd5780826040516020016104e4929190612cd2565b6040516020818303038152906040529350505050919050565b8061050786610c8d565b6040516020016104e4929190612cd2565b600061034382610d95565b61055361054e7ff6deb63e40d71b08820818e006e23fcceb1fce7a499bc15b71b2526cbf9efa735490565b610dcb565b61055e838383610dd8565b505050565b61058e61054e7ff6deb63e40d71b08820818e006e23fcceb1fce7a499bc15b71b2526cbf9efa725490565b61055e8383838080601f016020809104026020016040519081016040528093929190818152602001838380828437600092019190915250610df392505050565b6001600160a01b03851633148015906105ee57506105ec8533610b97565b155b1561060b576040516212efed60e91b815260040160405180910390fd5b610619338686868686610e67565b5050505050565b6060815183511461064457604051633e7e0b6d60e11b815260040160405180910390fd5b82516000805160206131b8833981519152906000906001600160401b038111156106705761067061256d565b604051908082528060200260200182016040528015610699578160200160208202803683370190505b50905060005b85518110156107815760006001600160a01b03168682815181106106c5576106c5612d01565b60200260200101516001600160a01b0316036106f45760405163db5d879760e01b815260040160405180910390fd5b82600086838151811061070957610709612d01565b60200260200101518152602001908152602001600020600087838151811061073357610733612d01565b60200260200101516001600160a01b03166001600160a01b031681526020019081526020016000205482828151811061076e5761076e612d01565b602090810291909101015260010161069f565b50949350505050565b7f09acf4e54214992e70883cf7dcd6957ff2c71cd9e14df4bec4383bc0d11607dc80546002036107cd57604051635db5c7cd60e11b815260040160405180910390fd5b600281556107df878787878787610e8b565b60019055505050505050565b6001600160a01b03821660009081527f333d4b734a9ca3847483bf4c14a14709d21907ff5f12a881347e2fb2ad8906d660209081526040808320848452909152812054610340565b61085e61054e7ff6deb63e40d71b08820818e006e23fcceb1fce7a499bc15b71b2526cbf9efa725490565b61089d82828080601f016020809104026020016040519081016040528093929190818152602001838380828437600092019190915250610f6192505050565b5050565b606061034382610f8c565b7f09acf4e54214992e70883cf7dcd6957ff2c71cd9e14df4bec4383bc0d11607dc80546002036108ef57604051635db5c7cd60e11b815260040160405180910390fd5b60028160000181905550610937858585858080602002602001604051908101604052809392919081815260200183836020028082843760009201919091525061105f92505050565b6001905550505050565b60606103438261113b565b6001600160a01b038216330361097557604051637b30a93360e11b815260040160405180910390fd5b3360008181527f1799cf914cb0cb442ca7c7ac709ee40d0cb89e87351dc08d517fbda27d50c68c602090815260408083206001600160a01b03871680855290835292819020805460ff191686151590811790915590519081529192917f17307eab39ab6107e8899845ad3d59bd9653f200f220920489ca2b5937696c31910160405180910390a35050565b6060816001600160401b03811115610a1a57610a1a61256d565b604051908082528060200260200182016040528015610a4d57816020015b6060815260200190600190039081610a385790505b50905060005b82811015610b135760008030868685818110610a7157610a71612d01565b9050602002810190610a839190612d17565b604051610a91929190612d5d565b600060405180830381855af49150503d8060008114610acc576040519150601f19603f3d011682016040523d82523d6000602084013e610ad1565b606091505b50915091508115610aff5780848481518110610aef57610aef612d01565b6020026020010181905250610b09565b3d6000803e3d6000fd5b5050600101610a53565b5092915050565b60008181527fb31c2c74f86ca3ce94d901f5f5bbe66f7161eec2f7b5aa0b75a86371436424ea6020526040812054610343565b610b5984848484611203565b50505050565b610b8a61054e7ff6deb63e40d71b08820818e006e23fcceb1fce7a499bc15b71b2526cbf9efa735490565b61061985858585856112bd565b6001600160a01b0391821660009081527f1799cf914cb0cb442ca7c7ac709ee40d0cb89e87351dc08d517fbda27d50c68c6020908152604080832093909416825291909152205460ff1690565b6001600160a01b0385163314801590610c045750610c028533610b97565b155b15610c21576040516212efed60e91b815260040160405180910390fd5b610619338686868686611339565b60006001600160a01b038316610c585760405163db5d879760e01b815260040160405180910390fd5b6000805160206131b88339815191526000928352602090815260408084206001600160a01b0395909516845293905250205490565b606081600003610cb45750506040805180820190915260018152600360fc1b602082015290565b8160005b8115610cde5780610cc881612d83565b9150610cd79050600a83612db2565b9150610cb8565b6000816001600160401b03811115610cf857610cf861256d565b6040519080825280601f01601f191660200182016040528015610d22576020820181803683370190505b5090505b8415610d8d57610d37600183612dc6565b9150610d44600a86612dd9565b610d4f906030612ded565b60f81b818381518110610d6457610d64612d01565b60200101906001600160f81b031916908160001a905350610d86600a86612db2565b9450610d26565b949350505050565b60008181527fb31c2c74f86ca3ce94d901f5f5bbe66f7161eec2f7b5aa0b75a86371436424eb6020526040812061034390611355565b610dd5813361135f565b50565b61055e838383604051806020016040528060008152506113ca565b60008281527f4281b61aefbe70b3d3f684b428efca5f33077bc240e76f2808f9177c307617f560205260409020610e2a8282612e46565b50817f6bb7ff708619ba0610cba295a58592e0451dee2622938c8755667688daf3529b82604051610e5b9190612494565b60405180910390a25050565b610e758686868686866114a3565b610e8386868686868661164c565b505050505050565b848314610eab57604051634e98d26360e01b815260040160405180910390fd5b60005b85811015610f5857610f46878783818110610ecb57610ecb612d01565b90506020020135868684818110610ee457610ee4612d01565b90506020020135858585818110610efd57610efd612d01565b9050602002810190610f0f9190612f05565b8080602002602001604051908101604052809392919081815260200183836020028082843760009201919091525061105f92505050565b80610f5081612d83565b915050610eae565b50505050505050565b7f4281b61aefbe70b3d3f684b428efca5f33077bc240e76f2808f9177c307617f461089d8282612e46565b60008181527fb31c2c74f86ca3ce94d901f5f5bbe66f7161eec2f7b5aa0b75a86371436424eb60205260408120606091610fc582611355565b6001600160401b03811115610fdc57610fdc61256d565b604051908082528060200260200182016040528015611005578160200160208202803683370190505b50905060005b61101483611355565b81101561105757611025838261175c565b82828151811061103757611037612d01565b6001600160a01b039092166020928302919091019091015260010161100b565b509392505050565b6040805133602082015280820185905260608082018590528251808303909101815260809091019091527f333d4b734a9ca3847483bf4c14a14709d21907ff5f12a881347e2fb2ad8906d6906110b58382611768565b6110d0338686604051806020016040528060008152506113ca565b33600090815260208381526040808320888452909152812080548692906110f8908490612ded565b9091555050604051848152859033907fd4307fb1338aefb2a030cf5ea0f582a10d28ffee99fe253e5d48946f9a74a59f9060200160405180910390a35050505050565b6001600160a01b03811660009081527fb31c2c74f86ca3ce94d901f5f5bbe66f7161eec2f7b5aa0b75a86371436424ec6020526040812060609161117e82611355565b6001600160401b038111156111955761119561256d565b6040519080825280602002602001820160405280156111be578160200160208202803683370190505b50905060005b6111cd83611355565b811015611057576111de838261175c565b8282815181106111f0576111f0612d01565b60209081029190910101526001016111c4565b82811461122357604051634e98d26360e01b815260040160405180910390fd5b6000805b848110156112b25761127a3387878481811061124557611245612d01565b9050602002013586868581811061125e5761125e612d01565b90506020020135604051806020016040528060008152506113ca565b83838281811061128c5761128c612d01565b905060200201358261129e9190612ded565b9150806112aa81612d83565b915050611227565b5061061933826118b2565b6106198585858080602002602001604051908101604052809392919081815260200183836020028082843760009201919091525050604080516020808902828101820190935288825290935088925087918291850190849080828437600092018290525060408051602081019091529081529250611a4e915050565b611347868686868686611ba5565b610e83868686868686611cbb565b6000610343825490565b6113698282611d77565b61089d5761137f816001600160a01b0316611dae565b61138a836020611dc0565b60405160200161139b929190612f4e565b60408051601f198184030181529082905262461bcd60e51b82526113c191600401612494565b60405180910390fd5b6001600160a01b0384166113f1576040516301c8efbf60e11b815260040160405180910390fd5b6114103360008661140187611f12565b61140a87611f12565b86611f5d565b60008381526000805160206131b8833981519152602090815260408083206001600160a01b03881684529091528120805484929061144f908490612ded565b909155505060408051848152602081018490526001600160a01b0386169160009133917fc3d58168c5ae7397731d063d5bbf3d657854427343f4c083240f7aacaa2d0f62910160405180910390a450505050565b6001600160a01b0384166114ca5760405163f5cadad560e01b815260040160405180910390fd5b81518351146114ec57604051633e7e0b6d60e11b815260040160405180910390fd5b6114fa868686868686611f5d565b6000805160206131b883398151915260005b84518110156115eb57600085828151811061152957611529612d01565b60200260200101519050600085838151811061154757611547612d01565b602090810291909101810151600084815286835260408082206001600160a01b038e1683529093529190912054909150808211156115985760405163119ac6bb60e31b815260040160405180910390fd5b6000838152602086815260408083206001600160a01b038e811685529252808320938590039093558a1681529081208054600195909501948392906115de908490612ded565b9091555061150c92505050565b50846001600160a01b0316866001600160a01b0316886001600160a01b03167f4a39dc06d4c0dbc64b70af90fd698a233a518aa5d07e595d983b8c0526c8f7fb878760405161163b929190612fc3565b60405180910390a450505050505050565b6001600160a01b0384163b15610e835760405163bc197c8160e01b81526001600160a01b0385169063bc197c81906116909089908990889088908890600401612ff1565b6020604051808303816000875af19250505080156116cb575060408051601f3d908101601f191682019092526116c89181019061304f565b60015b61172b576116d761306c565b806308c379a00361171057506116eb613088565b806116f65750611712565b8060405162461bcd60e51b81526004016113c19190612494565b505b60405163380147a960e01b815260040160405180910390fd5b6001600160e01b0319811663bc197c8160e01b14610f5857604051633744db2960e01b815260040160405180910390fd5b60006103408383611f6b565b7f7a07c093b55ad04e200605cb287859fe4640b7310d62fdbb044e26399da78c09547f7a07c093b55ad04e200605cb287859fe4640b7310d62fdbb044e26399da78c089060ff16156117cd5760405163a2f902f160e01b815260040160405180910390fd5b6000836040516020016117e09190613111565b60408051601f19818403018152918152815160209283012060008181526002860190935291205490915060ff161561182b5760405163dea0a45b60e01b815260040160405180910390fd5b6000838051906020012060405160200161184791815260200190565b604051602081830303815290604052805190602001209050600061187086856000015484611fb7565b90508061189057604051631006f83b60e31b815260040160405180910390fd5b50506000908152600290910160205260409020805460ff191660011790555050565b7ff38d3885e664c9638de25f02e645e1955ebebe901d7be2c2037db6a5bcbb358c547ff38d3885e664c9638de25f02e645e1955ebebe901d7be2c2037db6a5bcbb35889060ff161561191757604051633137c0e960e11b815260040160405180910390fd5b6001600160a01b038316600090815260018201602052604090205482111561195257604051630f8a2c5f60e31b815260040160405180910390fd5b6001600160a01b03831660009081526001820160205260408120805484929061197c908490612dc6565b90915550506001600160a01b038316600090815260208290526040812080548492906119a9908490612ded565b92505081905550818160020160008282546119c49190612ded565b92505081905550818160030160008282546119df9190612dc6565b90915550506001600160a01b038316600090815260018201602090815260408083205484835292819020548151338152928301939093528101919091527fc7ba59c487358e9747ee9c691c213a9b2d30e01bb1b022a3e11d4b1984cd98459060600160405180910390a1505050565b6001600160a01b038416611a75576040516301c8efbf60e11b815260040160405180910390fd5b8151835114611a9757604051633e7e0b6d60e11b815260040160405180910390fd5b611aa633600086868686611f5d565b6000805160206131b883398151915260005b8451811015611b4557838181518110611ad357611ad3612d01565b6020026020010151826000878481518110611af057611af0612d01565b602002602001015181526020019081526020016000206000886001600160a01b03166001600160a01b031681526020019081526020016000206000828254611b389190612ded565b9091555050600101611ab8565b50846001600160a01b031660006001600160a01b0316336001600160a01b03167f4a39dc06d4c0dbc64b70af90fd698a233a518aa5d07e595d983b8c0526c8f7fb8787604051611b96929190612fc3565b60405180910390a45050505050565b6001600160a01b038416611bcc5760405163f5cadad560e01b815260040160405180910390fd5b611bdb86868661140187611f12565b60008381526000805160206131b8833981519152602081815260408084206001600160a01b038a1685529091529091205480841115611c2d5760405163119ac6bb60e31b815260040160405180910390fd5b6000858152602083815260408083206001600160a01b038b81168552925280832093879003909355871681529081208054859290611c6c908490612ded565b909155505060408051858152602081018590526001600160a01b038088169289821692918b16917fc3d58168c5ae7397731d063d5bbf3d657854427343f4c083240f7aacaa2d0f62910161163b565b6001600160a01b0384163b15610e835760405163f23a6e6160e01b81526001600160a01b0385169063f23a6e6190611cff9089908990889088908890600401613147565b6020604051808303816000875af1925050508015611d3a575060408051601f3d908101601f19168201909252611d379181019061304f565b60015b611d46576116d761306c565b6001600160e01b0319811663f23a6e6160e01b14610f5857604051633744db2960e01b815260040160405180910390fd5b60008281527fd3889cc5458b268d0544e5534672df1296288ca3f93cbd39bd6f497a5c62281160205260408120610340908361205c565b60606103436001600160a01b03831660145b60606000611dcf83600261318a565b611dda906002612ded565b6001600160401b03811115611df157611df161256d565b6040519080825280601f01601f191660200182016040528015611e1b576020820181803683370190505b509050600360fc1b81600081518110611e3657611e36612d01565b60200101906001600160f81b031916908160001a905350600f60fb1b81600181518110611e6557611e65612d01565b60200101906001600160f81b031916908160001a905350600160028402015b6001811115611ef2576f181899199a1a9b1b9c1cb0b131b232b360811b85600f1660108110611eb557611eb5612d01565b1a60f81b828281518110611ecb57611ecb612d01565b60200101906001600160f81b031916908160001a90535060049490941c9360001901611e84565b5083156103405760405163c913478560e01b815260040160405180910390fd5b60408051600180825281830190925260609160009190602080830190803683370190505090508281600081518110611f4c57611f4c612d01565b602090810291909101015292915050565b610e8386868686868661207e565b81546000908210611f8f5760405163e637bf3b60e01b815260040160405180910390fd5b826000018281548110611fa457611fa4612d01565b9060005260206000200154905092915050565b600081815b8551811015612051576000868281518110611fd957611fd9612d01565b6020026020010151905080831161201b576040805160208101859052908101829052606001604051602081830303815290604052805190602001209250612048565b60408051602081018390529081018490526060016040516020818303038152906040528051906020012092505b50600101611fbc565b509092149392505050565b6001600160a01b03811660009081526001830160205260408120541515610340565b610e83868686868686836001600160a01b0316856001600160a01b031614610e83576001600160a01b0385811660009081527fb31c2c74f86ca3ce94d901f5f5bbe66f7161eec2f7b5aa0b75a86371436424ec6020526040808220928716825281207fb31c2c74f86ca3ce94d901f5f5bbe66f7161eec2f7b5aa0b75a86371436424ea927fb31c2c74f86ca3ce94d901f5f5bbe66f7161eec2f7b5aa0b75a86371436424eb929091905b875181101561226657600087828151811061214557612145612d01565b60200260200101519050600081111561225d57600089838151811061216c5761216c612d01565b6020026020010151905060006001600160a01b03168c6001600160a01b0316036121b957600081815260208890526040812080548492906121ae908490612ded565b909155506121ee9050565b816121c48d83610c2f565b036121ee5760008181526020879052604090206121e1908d612273565b506121ec8582612288565b505b6001600160a01b038b16612225576000818152602088905260408120805484929061221a908490612dc6565b9091555061225b9050565b61222f8b82610c2f565b60000361225b57600081815260208790526040902061224e908c612294565b5061225984826122a9565b505b505b50600101612128565b5050505050505050505050565b6000610340836001600160a01b0384166122b5565b600061034083836122b5565b6000610340836001600160a01b03841661236f565b6000610340838361236f565b60008181526001830160205260408120548015610b13578354600090859060001981019081106122e7576122e7612d01565b906000526020600020015490508085600001600184038154811061230d5761230d612d01565b600091825260208083209091019290925591825260018601905260409020819055835484908061233f5761233f6131a1565b60008281526020808220830160001990810183905590920190925593815260019485019093525050604081205590565b6000818152600183016020526040812054610343575081546001808201845560008481526020808220909301849055845493815293810190915260409092205590565b80356001600160a01b03811681146123c957600080fd5b919050565b600080604083850312156123e157600080fd5b6123ea836123b2565b946020939093013593505050565b6001600160e01b031981168114610dd557600080fd5b60006020828403121561242057600080fd5b8135610340816123f8565b60006020828403121561243d57600080fd5b5035919050565b60005b8381101561245f578181015183820152602001612447565b50506000910152565b60008151808452612480816020860160208601612444565b601f01601f19169290920160200192915050565b6020815260006103406020830184612468565b6000806000606084860312156124bc57600080fd5b6124c5846123b2565b95602085013595506040909401359392505050565b60008083601f8401126124ec57600080fd5b5081356001600160401b0381111561250357600080fd5b60208301915083602082850101111561251b57600080fd5b9250929050565b60008060006040848603121561253757600080fd5b8335925060208401356001600160401b0381111561255457600080fd5b612560868287016124da565b9497909650939450505050565b634e487b7160e01b600052604160045260246000fd5b601f8201601f191681016001600160401b03811182821017156125a8576125a861256d565b6040525050565b60006001600160401b038211156125c8576125c861256d565b5060051b60200190565b600082601f8301126125e357600080fd5b813560206125f0826125af565b6040516125fd8282612583565b83815260059390931b850182019282810191508684111561261d57600080fd5b8286015b848110156126385780358352918301918301612621565b509695505050505050565b600082601f83011261265457600080fd5b81356001600160401b0381111561266d5761266d61256d565b604051612684601f8301601f191660200182612583565b81815284602083860101111561269957600080fd5b816020850160208301376000918101602001919091529392505050565b600080600080600060a086880312156126ce57600080fd5b6126d7866123b2565b94506126e5602087016123b2565b935060408601356001600160401b038082111561270157600080fd5b61270d89838a016125d2565b9450606088013591508082111561272357600080fd5b61272f89838a016125d2565b9350608088013591508082111561274557600080fd5b5061275288828901612643565b9150509295509295909350565b6000806040838503121561277257600080fd5b82356001600160401b038082111561278957600080fd5b818501915085601f83011261279d57600080fd5b813560206127aa826125af565b6040516127b78282612583565b83815260059390931b85018201928281019150898411156127d757600080fd5b948201945b838610156127fc576127ed866123b2565b825294820194908201906127dc565b9650508601359250508082111561281257600080fd5b5061281f858286016125d2565b9150509250929050565b600081518084526020808501945080840160005b838110156128595781518752958201959082019060010161283d565b509495945050505050565b6020815260006103406020830184612829565b60008083601f84011261288957600080fd5b5081356001600160401b038111156128a057600080fd5b6020830191508360208260051b850101111561251b57600080fd5b600080600080600080606087890312156128d457600080fd5b86356001600160401b03808211156128eb57600080fd5b6128f78a838b01612877565b9098509650602089013591508082111561291057600080fd5b61291c8a838b01612877565b9096509450604089013591508082111561293557600080fd5b5061294289828a01612877565b979a9699509497509295939492505050565b6000806020838503121561296757600080fd5b82356001600160401b0381111561297d57600080fd5b612989858286016124da565b90969095509350505050565b6020808252825182820181905260009190848201906040850190845b818110156129d65783516001600160a01b0316835292840192918401916001016129b1565b50909695505050505050565b600080600080606085870312156129f857600080fd5b843593506020850135925060408501356001600160401b03811115612a1c57600080fd5b612a2887828801612877565b95989497509550505050565b600060208284031215612a4657600080fd5b610340826123b2565b60008060408385031215612a6257600080fd5b612a6b836123b2565b915060208301358015158114612a8057600080fd5b809150509250929050565b60008060208385031215612a9e57600080fd5b82356001600160401b03811115612ab457600080fd5b61298985828601612877565b6000602080830181845280855180835260408601915060408160051b870101925083870160005b82811015612b1557603f19888603018452612b03858351612468565b94509285019290850190600101612ae7565b5092979650505050505050565b60008060008060408587031215612b3857600080fd5b84356001600160401b0380821115612b4f57600080fd5b612b5b88838901612877565b90965094506020870135915080821115612b7457600080fd5b50612a2887828801612877565b600080600080600060608688031215612b9957600080fd5b612ba2866123b2565b945060208601356001600160401b0380821115612bbe57600080fd5b612bca89838a01612877565b90965094506040880135915080821115612be357600080fd5b50612bf088828901612877565b969995985093965092949392505050565b60008060408385031215612c1457600080fd5b612c1d836123b2565b9150612c2b602084016123b2565b90509250929050565b600080600080600060a08688031215612c4c57600080fd5b612c55866123b2565b9450612c63602087016123b2565b9350604086013592506060860135915060808601356001600160401b03811115612c8c57600080fd5b61275288828901612643565b600181811c90821680612cac57607f821691505b602082108103612ccc57634e487b7160e01b600052602260045260246000fd5b50919050565b60008351612ce4818460208801612444565b835190830190612cf8818360208801612444565b01949350505050565b634e487b7160e01b600052603260045260246000fd5b6000808335601e19843603018112612d2e57600080fd5b8301803591506001600160401b03821115612d4857600080fd5b60200191503681900382131561251b57600080fd5b8183823760009101908152919050565b634e487b7160e01b600052601160045260246000fd5b600060018201612d9557612d95612d6d565b5060010190565b634e487b7160e01b600052601260045260246000fd5b600082612dc157612dc1612d9c565b500490565b8181038181111561034357610343612d6d565b600082612de857612de8612d9c565b500690565b8082018082111561034357610343612d6d565b601f82111561055e57600081815260208120601f850160051c81016020861015612e275750805b601f850160051c820191505b81811015610e8357828155600101612e33565b81516001600160401b03811115612e5f57612e5f61256d565b612e7381612e6d8454612c98565b84612e00565b602080601f831160018114612ea85760008415612e905750858301515b600019600386901b1c1916600185901b178555610e83565b600085815260208120601f198616915b82811015612ed757888601518255948401946001909101908401612eb8565b5085821015612ef55787850151600019600388901b60f8161c191681555b5050505050600190811b01905550565b6000808335601e19843603018112612f1c57600080fd5b8301803591506001600160401b03821115612f3657600080fd5b6020019150600581901b360382131561251b57600080fd5b7f416363657373436f6e74726f6c3a206163636f756e7420000000000000000000815260008351612f86816017850160208801612444565b7001034b99036b4b9b9b4b733903937b6329607d1b6017918401918201528351612fb7816028840160208801612444565b01602801949350505050565b604081526000612fd66040830185612829565b8281036020840152612fe88185612829565b95945050505050565b60006001600160a01b03808816835280871660208401525060a0604083015261301d60a0830186612829565b828103606084015261302f8186612829565b905082810360808401526130438185612468565b98975050505050505050565b60006020828403121561306157600080fd5b8151610340816123f8565b600060033d11156130855760046000803e5060005160e01c5b90565b600060443d10156130965790565b6040516003193d81016004833e81513d6001600160401b0381602484011181841117156130c557505050505090565b82850191508151818111156130dd5750505050505090565b843d87010160208285010111156130f75750505050505090565b61310660208286010187612583565b509095945050505050565b815160009082906020808601845b8381101561313b5781518552938201939082019060010161311f565b50929695505050505050565b60006001600160a01b03808816835280871660208401525084604083015283606083015260a0608083015261317f60a0830184612468565b979650505050505050565b808202811582820484141761034357610343612d6d565b634e487b7160e01b600052603160045260246000fdfe1799cf914cb0cb442ca7c7ac709ee40d0cb89e87351dc08d517fbda27d50c68ba2646970667358221220923b8857f29c87be33e09c604a45f143d661f0afdabf4dbc58fbd49fd458a8e764736f6c63430008130033",
  "devdoc": {
    "details": "This contract handles the creation and management of items It uses ERC1155 tokens to represent items and provides methods to mint new items, claim items via Merkle tree or a whitelist, and set the base and URIs for the items. It also uses the ReentrancyGuard and Multicall contracts for security and gas efficiency.",
    "kind": "dev",
    "methods": {
      "accountsByToken(uint256)": {
        "params": {
          "id": "token id to query"
        },
        "returns": {
          "_0": "list of holder addresses"
        }
      },
      "balanceOf(address,uint256)": {
        "params": {
          "account": "address to query",
          "id": "token to query"
        },
        "returns": {
          "_0": "token balance"
        }
      },
      "balanceOfBatch(address[],uint256[])": {
        "params": {
          "accounts": "addresss to query",
          "ids": "tokens to query"
        },
        "returns": {
          "_0": "token balances"
        }
      },
      "claimMerkle(uint256,uint256,bytes32[])": {
        "params": {
          "amount": "The amount of the item to claim",
          "itemId": "The ID of the item to claim",
          "proof": "The Merkle proof for the item"
        }
      },
      "claimMerkleBatch(uint256[],uint256[],bytes32[][])": {
        "params": {
          "amounts": "The amounts of the items to claim",
          "itemsIds": "The IDs of the items to claim",
          "proofs": "The Merkle proofs for the items"
        }
      },
      "claimWhitelist(uint256[],uint256[])": {
        "params": {
          "amounts": "The amounts of the items to claim",
          "itemIds": "The IDs of the items to claim"
        }
      },
      "claimedAmount(address,uint256)": {
        "params": {
          "account": "the account to query",
          "itemId": "the item id to query"
        },
        "returns": {
          "amount": "returns the claimed amount given an account and an item id"
        }
      },
      "isApprovedForAll(address,address)": {
        "params": {
          "account": "address to query for approval granted",
          "operator": "address to query for approval received"
        },
        "returns": {
          "_0": "whether operator is approved to spend tokens held by account"
        }
      },
      "mint(address,uint256,uint256)": {
        "params": {
          "amount": "The amount of the items to mint",
          "id": "The ID of the item to mint",
          "to": "The address to mint the item to"
        }
      },
      "mintBatch(address,uint256[],uint256[])": {
        "details": "Only account with minter role can call this function",
        "params": {
          "amounts": "An array of corresponding amounts to be minted for each item ID",
          "ids": "An array of items IDs to be minted",
          "to": "The address to receive the minted items"
        }
      },
      "multicall(bytes[])": {
        "params": {
          "data": "array of function call data payloads"
        },
        "returns": {
          "results": "array of function call results"
        }
      },
      "safeBatchTransferFrom(address,address,uint256[],uint256[],bytes)": {
        "params": {
          "amounts": "list of quantities of tokens to transfer",
          "data": "data payload",
          "from": "sender of tokens",
          "ids": "list of token IDs",
          "to": "receiver of tokens"
        }
      },
      "safeTransferFrom(address,address,uint256,uint256,bytes)": {
        "params": {
          "amount": "quantity of tokens to transfer",
          "data": "data payload",
          "from": "sender of tokens",
          "id": "token ID",
          "to": "receiver of tokens"
        }
      },
      "setApprovalForAll(address,bool)": {
        "params": {
          "operator": "address whose approval status to update",
          "status": "whether operator should be considered approved"
        }
      },
      "setBaseURI(string)": {
        "details": "Only the manager role can call this function",
        "params": {
          "baseURI": "The new base URI"
        }
      },
      "setTokenURI(uint256,string)": {
        "details": "Only the manager role can call this function",
        "params": {
          "tokenId": "The ID of the item to set the URI for",
          "tokenURI": "The new item URI"
        }
      },
      "tokensByAccount(address)": {
        "params": {
          "account": "address to query"
        },
        "returns": {
          "_0": "list of token ids"
        }
      },
      "totalHolders(uint256)": {
        "params": {
          "id": "token id to query"
        },
        "returns": {
          "_0": "quantity of holders"
        }
      },
      "totalSupply(uint256)": {
        "params": {
          "id": "token id to query"
        },
        "returns": {
          "_0": "token supply"
        }
      }
    },
    "title": "ItemsFacet",
    "version": 1
  },
  "userdoc": {
    "kind": "user",
    "methods": {
      "accountsByToken(uint256)": {
        "notice": "query holders of given token"
      },
      "balanceOf(address,uint256)": {
        "notice": "query the balance of given token held by given address"
      },
      "balanceOfBatch(address[],uint256[])": {
        "notice": "query the balances of given tokens held by given addresses"
      },
      "claimMerkle(uint256,uint256,bytes32[])": {
        "notice": "Claims an item if present in the Merkle tree"
      },
      "claimMerkleBatch(uint256[],uint256[],bytes32[][])": {
        "notice": "Claims items if present in the Merkle tree"
      },
      "claimWhitelist(uint256[],uint256[])": {
        "notice": "Claims items from a whitelist"
      },
      "claimedAmount(address,uint256)": {
        "notice": "Amount claimed by an address of a specific item"
      },
      "isApprovedForAll(address,address)": {
        "notice": "query approval status of given operator with respect to given address"
      },
      "mint(address,uint256,uint256)": {
        "notice": "Mints a new item"
      },
      "mintBatch(address,uint256[],uint256[])": {
        "notice": "Mint a batch of items to a specific address"
      },
      "multicall(bytes[])": {
        "notice": "batch function calls to the contract and return the results of each"
      },
      "safeBatchTransferFrom(address,address,uint256[],uint256[],bytes)": {
        "notice": "transfer batch of tokens between given addresses, checking for ERC1155Receiver implementation if applicable"
      },
      "safeTransferFrom(address,address,uint256,uint256,bytes)": {
        "notice": "transfer tokens between given addresses, checking for ERC1155Receiver implementation if applicable"
      },
      "setApprovalForAll(address,bool)": {
        "notice": "grant approval to or revoke approval from given operator to spend held tokens"
      },
      "setBaseURI(string)": {
        "notice": "Set the base URI for all items metadata"
      },
      "setTokenURI(uint256,string)": {
        "notice": "Set the URI for a specific item ID"
      },
      "tokensByAccount(address)": {
        "notice": "query tokens held by given address"
      },
      "totalHolders(uint256)": {
        "notice": "query total number of holders for given token"
      },
      "totalSupply(uint256)": {
        "notice": "query total minted supply of given token"
      },
      "uri(uint256)": {
        "notice": "inheritdoc IERC1155Metadata"
      }
    },
    "version": 1
  },
  "storageLayout": {
    "storage": [],
    "types": null
  }
}