{
  "address": "0x9f4DD749F10d0cf12D9A67553f31351623a275a5",
  "abi": [
    {
      "inputs": [],
      "name": "ERC1155Base__ArrayLengthMismatch",
      "type": "error"
    },
    {
      "inputs": [],
      "name": "ERC1155Base__BalanceQueryZeroAddress",
      "type": "error"
    },
    {
      "inputs": [],
      "name": "ERC1155Base__BurnExceedsBalance",
      "type": "error"
    },
    {
      "inputs": [],
      "name": "ERC1155Base__BurnFromZeroAddress",
      "type": "error"
    },
    {
      "inputs": [],
      "name": "ERC1155Base__ERC1155ReceiverNotImplemented",
      "type": "error"
    },
    {
      "inputs": [],
      "name": "ERC1155Base__ERC1155ReceiverRejected",
      "type": "error"
    },
    {
      "inputs": [],
      "name": "ERC1155Base__MintToZeroAddress",
      "type": "error"
    },
    {
      "inputs": [],
      "name": "ERC1155Base__NotOwnerOrApproved",
      "type": "error"
    },
    {
      "inputs": [],
      "name": "ERC1155Base__SelfApproval",
      "type": "error"
    },
    {
      "inputs": [],
      "name": "ERC1155Base__TransferExceedsBalance",
      "type": "error"
    },
    {
      "inputs": [],
      "name": "ERC1155Base__TransferToZeroAddress",
      "type": "error"
    },
    {
      "inputs": [],
      "name": "EnumerableSet__IndexOutOfBounds",
      "type": "error"
    },
    {
      "inputs": [],
      "name": "ReentrancyGuard__ReentrantCall",
      "type": "error"
    },
    {
      "inputs": [],
      "name": "UintUtils__InsufficientHexLength",
      "type": "error"
    },
    {
      "anonymous": false,
      "inputs": [
        {
          "indexed": true,
          "internalType": "address",
          "name": "account",
          "type": "address"
        },
        {
          "indexed": true,
          "internalType": "address",
          "name": "operator",
          "type": "address"
        },
        {
          "indexed": false,
          "internalType": "bool",
          "name": "approved",
          "type": "bool"
        }
      ],
      "name": "ApprovalForAll",
      "type": "event"
    },
    {
      "anonymous": false,
      "inputs": [
        {
          "indexed": true,
          "internalType": "address",
          "name": "to",
          "type": "address"
        },
        {
          "indexed": true,
          "internalType": "uint256",
          "name": "itemId",
          "type": "uint256"
        },
        {
          "indexed": false,
          "internalType": "uint256",
          "name": "amount",
          "type": "uint256"
        }
      ],
      "name": "ItemClaimed",
      "type": "event"
    },
    {
      "anonymous": false,
      "inputs": [
        {
          "indexed": true,
          "internalType": "bytes32",
          "name": "role",
          "type": "bytes32"
        },
        {
          "indexed": true,
          "internalType": "bytes32",
          "name": "previousAdminRole",
          "type": "bytes32"
        },
        {
          "indexed": true,
          "internalType": "bytes32",
          "name": "newAdminRole",
          "type": "bytes32"
        }
      ],
      "name": "RoleAdminChanged",
      "type": "event"
    },
    {
      "anonymous": false,
      "inputs": [
        {
          "indexed": true,
          "internalType": "bytes32",
          "name": "role",
          "type": "bytes32"
        },
        {
          "indexed": true,
          "internalType": "address",
          "name": "account",
          "type": "address"
        },
        {
          "indexed": true,
          "internalType": "address",
          "name": "sender",
          "type": "address"
        }
      ],
      "name": "RoleGranted",
      "type": "event"
    },
    {
      "anonymous": false,
      "inputs": [
        {
          "indexed": true,
          "internalType": "bytes32",
          "name": "role",
          "type": "bytes32"
        },
        {
          "indexed": true,
          "internalType": "address",
          "name": "account",
          "type": "address"
        },
        {
          "indexed": true,
          "internalType": "address",
          "name": "sender",
          "type": "address"
        }
      ],
      "name": "RoleRevoked",
      "type": "event"
    },
    {
      "anonymous": false,
      "inputs": [
        {
          "indexed": true,
          "internalType": "address",
          "name": "operator",
          "type": "address"
        },
        {
          "indexed": true,
          "internalType": "address",
          "name": "from",
          "type": "address"
        },
        {
          "indexed": true,
          "internalType": "address",
          "name": "to",
          "type": "address"
        },
        {
          "indexed": false,
          "internalType": "uint256[]",
          "name": "ids",
          "type": "uint256[]"
        },
        {
          "indexed": false,
          "internalType": "uint256[]",
          "name": "values",
          "type": "uint256[]"
        }
      ],
      "name": "TransferBatch",
      "type": "event"
    },
    {
      "anonymous": false,
      "inputs": [
        {
          "indexed": true,
          "internalType": "address",
          "name": "operator",
          "type": "address"
        },
        {
          "indexed": true,
          "internalType": "address",
          "name": "from",
          "type": "address"
        },
        {
          "indexed": true,
          "internalType": "address",
          "name": "to",
          "type": "address"
        },
        {
          "indexed": false,
          "internalType": "uint256",
          "name": "id",
          "type": "uint256"
        },
        {
          "indexed": false,
          "internalType": "uint256",
          "name": "value",
          "type": "uint256"
        }
      ],
      "name": "TransferSingle",
      "type": "event"
    },
    {
      "anonymous": false,
      "inputs": [
        {
          "indexed": false,
          "internalType": "string",
          "name": "value",
          "type": "string"
        },
        {
          "indexed": true,
          "internalType": "uint256",
          "name": "tokenId",
          "type": "uint256"
        }
      ],
      "name": "URI",
      "type": "event"
    },
    {
      "inputs": [
        {
          "internalType": "uint256",
          "name": "id",
          "type": "uint256"
        }
      ],
      "name": "accountsByToken",
      "outputs": [
        {
          "internalType": "address[]",
          "name": "",
          "type": "address[]"
        }
      ],
      "stateMutability": "view",
      "type": "function"
    },
    {
      "inputs": [
        {
          "internalType": "address",
          "name": "account",
          "type": "address"
        },
        {
          "internalType": "uint256",
          "name": "id",
          "type": "uint256"
        }
      ],
      "name": "balanceOf",
      "outputs": [
        {
          "internalType": "uint256",
          "name": "",
          "type": "uint256"
        }
      ],
      "stateMutability": "view",
      "type": "function"
    },
    {
      "inputs": [
        {
          "internalType": "address[]",
          "name": "accounts",
          "type": "address[]"
        },
        {
          "internalType": "uint256[]",
          "name": "ids",
          "type": "uint256[]"
        }
      ],
      "name": "balanceOfBatch",
      "outputs": [
        {
          "internalType": "uint256[]",
          "name": "",
          "type": "uint256[]"
        }
      ],
      "stateMutability": "view",
      "type": "function"
    },
    {
      "inputs": [
        {
          "internalType": "uint256",
          "name": "tokenId",
          "type": "uint256"
        },
        {
          "internalType": "uint256",
          "name": "amount",
          "type": "uint256"
        },
        {
          "internalType": "bytes32[]",
          "name": "proof",
          "type": "bytes32[]"
        }
      ],
      "name": "claim",
      "outputs": [],
      "stateMutability": "nonpayable",
      "type": "function"
    },
    {
      "inputs": [
        {
          "internalType": "uint256[]",
          "name": "tokenIds",
          "type": "uint256[]"
        },
        {
          "internalType": "uint256[]",
          "name": "amounts",
          "type": "uint256[]"
        },
        {
          "internalType": "bytes32[][]",
          "name": "proofs",
          "type": "bytes32[][]"
        }
      ],
      "name": "claimBatch",
      "outputs": [],
      "stateMutability": "nonpayable",
      "type": "function"
    },
    {
      "inputs": [
        {
          "internalType": "address",
          "name": "account",
          "type": "address"
        },
        {
          "internalType": "address",
          "name": "operator",
          "type": "address"
        }
      ],
      "name": "isApprovedForAll",
      "outputs": [
        {
          "internalType": "bool",
          "name": "",
          "type": "bool"
        }
      ],
      "stateMutability": "view",
      "type": "function"
    },
    {
      "inputs": [
        {
          "internalType": "address",
          "name": "to",
          "type": "address"
        },
        {
          "internalType": "uint256",
          "name": "id",
          "type": "uint256"
        },
        {
          "internalType": "uint256",
          "name": "amount",
          "type": "uint256"
        }
      ],
      "name": "mint",
      "outputs": [],
      "stateMutability": "nonpayable",
      "type": "function"
    },
    {
      "inputs": [
        {
          "internalType": "address",
          "name": "to",
          "type": "address"
        },
        {
          "internalType": "uint256[]",
          "name": "ids",
          "type": "uint256[]"
        },
        {
          "internalType": "uint256[]",
          "name": "amounts",
          "type": "uint256[]"
        }
      ],
      "name": "mintBatch",
      "outputs": [],
      "stateMutability": "nonpayable",
      "type": "function"
    },
    {
      "inputs": [
        {
          "internalType": "address",
          "name": "from",
          "type": "address"
        },
        {
          "internalType": "address",
          "name": "to",
          "type": "address"
        },
        {
          "internalType": "uint256[]",
          "name": "ids",
          "type": "uint256[]"
        },
        {
          "internalType": "uint256[]",
          "name": "amounts",
          "type": "uint256[]"
        },
        {
          "internalType": "bytes",
          "name": "data",
          "type": "bytes"
        }
      ],
      "name": "safeBatchTransferFrom",
      "outputs": [],
      "stateMutability": "nonpayable",
      "type": "function"
    },
    {
      "inputs": [
        {
          "internalType": "address",
          "name": "from",
          "type": "address"
        },
        {
          "internalType": "address",
          "name": "to",
          "type": "address"
        },
        {
          "internalType": "uint256",
          "name": "id",
          "type": "uint256"
        },
        {
          "internalType": "uint256",
          "name": "amount",
          "type": "uint256"
        },
        {
          "internalType": "bytes",
          "name": "data",
          "type": "bytes"
        }
      ],
      "name": "safeTransferFrom",
      "outputs": [],
      "stateMutability": "nonpayable",
      "type": "function"
    },
    {
      "inputs": [
        {
          "internalType": "address",
          "name": "operator",
          "type": "address"
        },
        {
          "internalType": "bool",
          "name": "status",
          "type": "bool"
        }
      ],
      "name": "setApprovalForAll",
      "outputs": [],
      "stateMutability": "nonpayable",
      "type": "function"
    },
    {
      "inputs": [
        {
          "internalType": "string",
          "name": "baseURI",
          "type": "string"
        }
      ],
      "name": "setBaseURI",
      "outputs": [],
      "stateMutability": "nonpayable",
      "type": "function"
    },
    {
      "inputs": [
        {
          "internalType": "uint256",
          "name": "tokenId",
          "type": "uint256"
        },
        {
          "internalType": "string",
          "name": "tokenURI",
          "type": "string"
        }
      ],
      "name": "setTokenURI",
      "outputs": [],
      "stateMutability": "nonpayable",
      "type": "function"
    },
    {
      "inputs": [
        {
          "internalType": "bytes4",
          "name": "",
          "type": "bytes4"
        }
      ],
      "name": "supportsInterface",
      "outputs": [
        {
          "internalType": "bool",
          "name": "",
          "type": "bool"
        }
      ],
      "stateMutability": "pure",
      "type": "function"
    },
    {
      "inputs": [
        {
          "internalType": "address",
          "name": "account",
          "type": "address"
        }
      ],
      "name": "tokensByAccount",
      "outputs": [
        {
          "internalType": "uint256[]",
          "name": "",
          "type": "uint256[]"
        }
      ],
      "stateMutability": "view",
      "type": "function"
    },
    {
      "inputs": [
        {
          "internalType": "uint256",
          "name": "id",
          "type": "uint256"
        }
      ],
      "name": "totalHolders",
      "outputs": [
        {
          "internalType": "uint256",
          "name": "",
          "type": "uint256"
        }
      ],
      "stateMutability": "view",
      "type": "function"
    },
    {
      "inputs": [
        {
          "internalType": "uint256",
          "name": "id",
          "type": "uint256"
        }
      ],
      "name": "totalSupply",
      "outputs": [
        {
          "internalType": "uint256",
          "name": "",
          "type": "uint256"
        }
      ],
      "stateMutability": "view",
      "type": "function"
    },
    {
      "inputs": [
        {
          "internalType": "uint256",
          "name": "tokenId",
          "type": "uint256"
        }
      ],
      "name": "uri",
      "outputs": [
        {
          "internalType": "string",
          "name": "",
          "type": "string"
        }
      ],
      "stateMutability": "view",
      "type": "function"
    }
  ],
  "transactionHash": "0xaefd968d89690692deb5f58dca317b96b01b8207ce05faad6e2882a7a818a00a",
  "args": [],
  "numDeployments": 2,
  "solcInputHash": "c21516edc60155c906660e263915c827",
  "bytecode": "0x608060405234801561001057600080fd5b50612c71806100206000396000f3fe608060405234801561001057600080fd5b50600436106101155760003560e01c806355f804b3116100a2578063ae0b51df11610071578063ae0b51df1461025e578063bd85b03914610271578063d81d0a1514610284578063e985e9c514610297578063f242432a146102aa57600080fd5b806355f804b3146102055780636dcfd8411461021857806385bff2e714610238578063a22cb4651461024b57600080fd5b8063156e29f6116100e9578063156e29f614610197578063162094c4146101ac57806317a65e10146101bf5780632eb2c2d6146101d25780634e1273f4146101e557600080fd5b8062fdd58e1461011a57806301ffc9a7146101405780630e89341c1461016457806313ba55df14610184575b600080fd5b61012d610128366004611fb4565b6102bd565b6040519081526020015b60405180910390f35b61015461014e366004611ff4565b50600090565b6040519015158152602001610137565b610177610172366004612011565b6102d2565b604051610137919061207a565b61012d610192366004612011565b6104a1565b6101aa6101a536600461208d565b6104ac565b005b6101aa6101ba366004612108565b6104ec565b6101aa6101cd366004612197565b610557565b6101aa6101e0366004612379565b6105b8565b6101f86101f3366004612422565b61060a565b6040516101379190612527565b6101aa61021336600461253a565b610774565b61022b610226366004612011565b6107e2565b604051610137919061257b565b6101f86102463660046125c8565b6107ed565b6101aa6102593660046125e3565b6107f8565b6101aa61026c36600461261f565b6108ac565b61012d61027f366004612011565b610941565b6101aa610292366004612671565b610974565b6101546102a53660046126f1565b6109ac565b6101aa6102b8366004612724565b6109f9565b60006102c98383610a44565b90505b92915050565b60008181527f4281b61aefbe70b3d3f684b428efca5f33077bc240e76f2808f9177c307617f56020526040812080546060927f4281b61aefbe70b3d3f684b428efca5f33077bc240e76f2808f9177c307617f492909161033190612788565b80601f016020809104026020016040519081016040528092919081815260200182805461035d90612788565b80156103aa5780601f1061037f576101008083540402835291602001916103aa565b820191906000526020600020905b81548152906001019060200180831161038d57829003601f168201915b5050505050905060008260000180546103c290612788565b80601f01602080910402602001604051908101604052809291908181526020018280546103ee90612788565b801561043b5780601f106104105761010080835404028352916020019161043b565b820191906000526020600020905b81548152906001019060200180831161041e57829003601f168201915b50505050509050805160000361045357509392505050565b81511561048657808260405160200161046d9291906127c2565b6040516020818303038152906040529350505050919050565b8061049086610aa2565b60405160200161046d9291906127c2565b60006102cc82610baa565b6104dc6104d77ff6deb63e40d71b08820818e006e23fcceb1fce7a499bc15b71b2526cbf9efa735490565b610be0565b6104e7838383610bed565b505050565b6105176104d77ff6deb63e40d71b08820818e006e23fcceb1fce7a499bc15b71b2526cbf9efa725490565b6104e78383838080601f016020809104026020016040519081016040528093929190818152602001838380828437600092019190915250610c0892505050565b7f09acf4e54214992e70883cf7dcd6957ff2c71cd9e14df4bec4383bc0d11607dc805460020361059a57604051635db5c7cd60e11b815260040160405180910390fd5b600281556105ac878787878787610c7c565b60019055505050505050565b6001600160a01b03851633148015906105d857506105d685336109ac565b155b156105f5576040516212efed60e91b815260040160405180910390fd5b610603338686868686610da0565b5050505050565b6060815183511461062e57604051633e7e0b6d60e11b815260040160405180910390fd5b8251600080516020612c1c833981519152906000906001600160401b0381111561065a5761065a612230565b604051908082528060200260200182016040528015610683578160200160208202803683370190505b50905060005b855181101561076b5760006001600160a01b03168682815181106106af576106af6127f1565b60200260200101516001600160a01b0316036106de5760405163db5d879760e01b815260040160405180910390fd5b8260008683815181106106f3576106f36127f1565b60200260200101518152602001908152602001600020600087838151811061071d5761071d6127f1565b60200260200101516001600160a01b03166001600160a01b0316815260200190815260200160002054828281518110610758576107586127f1565b6020908102919091010152600101610689565b50949350505050565b61079f6104d77ff6deb63e40d71b08820818e006e23fcceb1fce7a499bc15b71b2526cbf9efa725490565b6107de82828080601f016020809104026020016040519081016040528093929190818152602001838380828437600092019190915250610dc492505050565b5050565b60606102cc82610def565b60606102cc82610ec2565b6001600160a01b038216330361082157604051637b30a93360e11b815260040160405180910390fd5b3360008181527f1799cf914cb0cb442ca7c7ac709ee40d0cb89e87351dc08d517fbda27d50c68c602090815260408083206001600160a01b03871680855290835292819020805460ff191686151590811790915590519081529192917f17307eab39ab6107e8899845ad3d59bd9653f200f220920489ca2b5937696c31910160405180910390a35050565b7f09acf4e54214992e70883cf7dcd6957ff2c71cd9e14df4bec4383bc0d11607dc80546002036108ef57604051635db5c7cd60e11b815260040160405180910390fd5b600281600001819055506109378585858580806020026020016040519081016040528093929190818152602001838360200280828437600092019190915250610f8a92505050565b6001905550505050565b60008181527fb31c2c74f86ca3ce94d901f5f5bbe66f7161eec2f7b5aa0b75a86371436424ea60205260408120546102cc565b61099f6104d77ff6deb63e40d71b08820818e006e23fcceb1fce7a499bc15b71b2526cbf9efa735490565b61060385858585856110d5565b6001600160a01b0391821660009081527f1799cf914cb0cb442ca7c7ac709ee40d0cb89e87351dc08d517fbda27d50c68c6020908152604080832093909416825291909152205460ff1690565b6001600160a01b0385163314801590610a195750610a1785336109ac565b155b15610a36576040516212efed60e91b815260040160405180910390fd5b610603338686868686611151565b60006001600160a01b038316610a6d5760405163db5d879760e01b815260040160405180910390fd5b600080516020612c1c8339815191526000928352602090815260408084206001600160a01b0395909516845293905250205490565b606081600003610ac95750506040805180820190915260018152600360fc1b602082015290565b8160005b8115610af35780610add8161281d565b9150610aec9050600a8361284c565b9150610acd565b6000816001600160401b03811115610b0d57610b0d612230565b6040519080825280601f01601f191660200182016040528015610b37576020820181803683370190505b5090505b8415610ba257610b4c600183612860565b9150610b59600a86612873565b610b64906030612887565b60f81b818381518110610b7957610b796127f1565b60200101906001600160f81b031916908160001a905350610b9b600a8661284c565b9450610b3b565b949350505050565b60008181527fb31c2c74f86ca3ce94d901f5f5bbe66f7161eec2f7b5aa0b75a86371436424eb602052604081206102cc9061116d565b610bea8133611177565b50565b6104e7838383604051806020016040528060008152506111d9565b60008281527f4281b61aefbe70b3d3f684b428efca5f33077bc240e76f2808f9177c307617f560205260409020610c3f82826128e0565b50817f6bb7ff708619ba0610cba295a58592e0451dee2622938c8755667688daf3529b82604051610c70919061207a565b60405180910390a25050565b848314610cea5760405162461bcd60e51b815260206004820152603160248201527f4974656d73496e7465726e616c2e5f636c61696d42617463683a20496e7075746044820152700e640d8cadccee8d040dad2e6dac2e8c6d607b1b60648201526084015b60405180910390fd5b60005b85811015610d9757610d85878783818110610d0a57610d0a6127f1565b90506020020135868684818110610d2357610d236127f1565b90506020020135858585818110610d3c57610d3c6127f1565b9050602002810190610d4e919061299f565b80806020026020016040519081016040528093929190818152602001838360200280828437600092019190915250610f8a92505050565b80610d8f8161281d565b915050610ced565b50505050505050565b610dae8686868686866112b2565b610dbc86868686868661145b565b505050505050565b7f4281b61aefbe70b3d3f684b428efca5f33077bc240e76f2808f9177c307617f46107de82826128e0565b60008181527fb31c2c74f86ca3ce94d901f5f5bbe66f7161eec2f7b5aa0b75a86371436424eb60205260408120606091610e288261116d565b6001600160401b03811115610e3f57610e3f612230565b604051908082528060200260200182016040528015610e68578160200160208202803683370190505b50905060005b610e778361116d565b811015610eba57610e88838261156b565b828281518110610e9a57610e9a6127f1565b6001600160a01b0390921660209283029190910190910152600101610e6e565b509392505050565b6001600160a01b03811660009081527fb31c2c74f86ca3ce94d901f5f5bbe66f7161eec2f7b5aa0b75a86371436424ec60205260408120606091610f058261116d565b6001600160401b03811115610f1c57610f1c612230565b604051908082528060200260200182016040528015610f45578160200160208202803683370190505b50905060005b610f548361116d565b811015610eba57610f65838261156b565b828281518110610f7757610f776127f1565b6020908102919091010152600101610f4b565b3360009081527f333d4b734a9ca3847483bf4c14a14709d21907ff5f12a881347e2fb2ad8906d6602081815260408084208785529091529091205460ff16156110235760405162461bcd60e51b815260206004820152602560248201527f4974656d73496e7465726e616c2e5f636c61696d3a20416c726561647920636c604482015264185a5b595960da1b6064820152608401610ce1565b336000818152602083815260408083208884528252808320805460ff191660011790558051918201939093529182018690526060820185905290608001604051602081830303815290604052905061107b8382611577565b50611097338686604051806020016040528060008152506111d9565b604051848152859033907fd064733c4c9e98e76c51a33d6697f1a4361a3a7dbc771ba7ebf84ac987befe0a9060200160405180910390a35050505050565b6106038585858080602002602001604051908101604052809392919081815260200183836020028082843760009201919091525050604080516020808902828101820190935288825290935088925087918291850190849080828437600092018290525060408051602081019091529081529250611634915050565b61115f86868686868661178b565b610dbc8686868686866118a1565b60006102cc825490565b611181828261195d565b6107de57611197816001600160a01b0316611994565b6111a28360206119a6565b6040516020016111b39291906129e8565b60408051601f198184030181529082905262461bcd60e51b8252610ce19160040161207a565b6001600160a01b038416611200576040516301c8efbf60e11b815260040160405180910390fd5b61121f3360008661121087611af8565b61121987611af8565b86611b43565b6000838152600080516020612c1c833981519152602090815260408083206001600160a01b03881684529091528120805484929061125e908490612887565b909155505060408051848152602081018490526001600160a01b0386169160009133917fc3d58168c5ae7397731d063d5bbf3d657854427343f4c083240f7aacaa2d0f62910160405180910390a450505050565b6001600160a01b0384166112d95760405163f5cadad560e01b815260040160405180910390fd5b81518351146112fb57604051633e7e0b6d60e11b815260040160405180910390fd5b611309868686868686611b43565b600080516020612c1c83398151915260005b84518110156113fa576000858281518110611338576113386127f1565b602002602001015190506000858381518110611356576113566127f1565b602090810291909101810151600084815286835260408082206001600160a01b038e1683529093529190912054909150808211156113a75760405163119ac6bb60e31b815260040160405180910390fd5b6000838152602086815260408083206001600160a01b038e811685529252808320938590039093558a1681529081208054600195909501948392906113ed908490612887565b9091555061131b92505050565b50846001600160a01b0316866001600160a01b0316886001600160a01b03167f4a39dc06d4c0dbc64b70af90fd698a233a518aa5d07e595d983b8c0526c8f7fb878760405161144a929190612a5d565b60405180910390a450505050505050565b6001600160a01b0384163b15610dbc5760405163bc197c8160e01b81526001600160a01b0385169063bc197c819061149f9089908990889088908890600401612a8b565b6020604051808303816000875af19250505080156114da575060408051601f3d908101601f191682019092526114d791810190612ae9565b60015b61153a576114e6612b06565b806308c379a00361151f57506114fa612b22565b806115055750611521565b8060405162461bcd60e51b8152600401610ce1919061207a565b505b60405163380147a960e01b815260040160405180910390fd5b6001600160e01b0319811663bc197c8160e01b14610d9757604051633744db2960e01b815260040160405180910390fd5b60006102c98383611b51565b600080828051906020012060405160200161159491815260200190565b6040516020818303038152906040528051906020012090506115de846115d77f7a07c093b55ad04e200605cb287859fe4640b7310d62fdbb044e26399da78c0890565b5483611b9d565b91508161162d5760405162461bcd60e51b815260206004820152601b60248201527f44617461206e6f7420696e636c7564656420696e206d65726b6c6500000000006044820152606401610ce1565b5092915050565b6001600160a01b03841661165b576040516301c8efbf60e11b815260040160405180910390fd5b815183511461167d57604051633e7e0b6d60e11b815260040160405180910390fd5b61168c33600086868686611b43565b600080516020612c1c83398151915260005b845181101561172b578381815181106116b9576116b96127f1565b60200260200101518260008784815181106116d6576116d66127f1565b602002602001015181526020019081526020016000206000886001600160a01b03166001600160a01b03168152602001908152602001600020600082825461171e9190612887565b909155505060010161169e565b50846001600160a01b031660006001600160a01b0316336001600160a01b03167f4a39dc06d4c0dbc64b70af90fd698a233a518aa5d07e595d983b8c0526c8f7fb878760405161177c929190612a5d565b60405180910390a45050505050565b6001600160a01b0384166117b25760405163f5cadad560e01b815260040160405180910390fd5b6117c186868661121087611af8565b6000838152600080516020612c1c833981519152602081815260408084206001600160a01b038a16855290915290912054808411156118135760405163119ac6bb60e31b815260040160405180910390fd5b6000858152602083815260408083206001600160a01b038b81168552925280832093879003909355871681529081208054859290611852908490612887565b909155505060408051858152602081018590526001600160a01b038088169289821692918b16917fc3d58168c5ae7397731d063d5bbf3d657854427343f4c083240f7aacaa2d0f62910161144a565b6001600160a01b0384163b15610dbc5760405163f23a6e6160e01b81526001600160a01b0385169063f23a6e61906118e59089908990889088908890600401612bab565b6020604051808303816000875af1925050508015611920575060408051601f3d908101601f1916820190925261191d91810190612ae9565b60015b61192c576114e6612b06565b6001600160e01b0319811663f23a6e6160e01b14610d9757604051633744db2960e01b815260040160405180910390fd5b60008281527fd3889cc5458b268d0544e5534672df1296288ca3f93cbd39bd6f497a5c622811602052604081206102c99083611c42565b60606102cc6001600160a01b03831660145b606060006119b5836002612bee565b6119c0906002612887565b6001600160401b038111156119d7576119d7612230565b6040519080825280601f01601f191660200182016040528015611a01576020820181803683370190505b509050600360fc1b81600081518110611a1c57611a1c6127f1565b60200101906001600160f81b031916908160001a905350600f60fb1b81600181518110611a4b57611a4b6127f1565b60200101906001600160f81b031916908160001a905350600160028402015b6001811115611ad8576f181899199a1a9b1b9c1cb0b131b232b360811b85600f1660108110611a9b57611a9b6127f1565b1a60f81b828281518110611ab157611ab16127f1565b60200101906001600160f81b031916908160001a90535060049490941c9360001901611a6a565b5083156102c95760405163c913478560e01b815260040160405180910390fd5b60408051600180825281830190925260609160009190602080830190803683370190505090508281600081518110611b3257611b326127f1565b602090810291909101015292915050565b610dbc868686868686611c64565b81546000908210611b755760405163e637bf3b60e01b815260040160405180910390fd5b826000018281548110611b8a57611b8a6127f1565b9060005260206000200154905092915050565b600081815b8551811015611c37576000868281518110611bbf57611bbf6127f1565b60200260200101519050808311611c01576040805160208101859052908101829052606001604051602081830303815290604052805190602001209250611c2e565b60408051602081018390529081018490526060016040516020818303038152906040528051906020012092505b50600101611ba2565b509092149392505050565b6001600160a01b038116600090815260018301602052604081205415156102c9565b610dbc868686868686836001600160a01b0316856001600160a01b031614610dbc576001600160a01b0385811660009081527fb31c2c74f86ca3ce94d901f5f5bbe66f7161eec2f7b5aa0b75a86371436424ec6020526040808220928716825281207fb31c2c74f86ca3ce94d901f5f5bbe66f7161eec2f7b5aa0b75a86371436424ea927fb31c2c74f86ca3ce94d901f5f5bbe66f7161eec2f7b5aa0b75a86371436424eb929091905b8751811015611e4c576000878281518110611d2b57611d2b6127f1565b602002602001015190506000811115611e43576000898381518110611d5257611d526127f1565b6020026020010151905060006001600160a01b03168c6001600160a01b031603611d9f5760008181526020889052604081208054849290611d94908490612887565b90915550611dd49050565b81611daa8d83610a44565b03611dd4576000818152602087905260409020611dc7908d611e59565b50611dd28582611e6e565b505b6001600160a01b038b16611e0b5760008181526020889052604081208054849290611e00908490612860565b90915550611e419050565b611e158b82610a44565b600003611e41576000818152602087905260409020611e34908c611e7a565b50611e3f8482611e8f565b505b505b50600101611d0e565b5050505050505050505050565b60006102c9836001600160a01b038416611e9b565b60006102c98383611e9b565b60006102c9836001600160a01b038416611f55565b60006102c98383611f55565b6000818152600183016020526040812054801561162d57835460009085906000198101908110611ecd57611ecd6127f1565b9060005260206000200154905080856000016001840381548110611ef357611ef36127f1565b6000918252602080832090910192909255918252600186019052604090208190558354849080611f2557611f25612c05565b60008281526020808220830160001990810183905590920190925593815260019485019093525050604081205590565b60008181526001830160205260408120546102cc575081546001808201845560008481526020808220909301849055845493815293810190915260409092205590565b80356001600160a01b0381168114611faf57600080fd5b919050565b60008060408385031215611fc757600080fd5b611fd083611f98565b946020939093013593505050565b6001600160e01b031981168114610bea57600080fd5b60006020828403121561200657600080fd5b81356102c981611fde565b60006020828403121561202357600080fd5b5035919050565b60005b8381101561204557818101518382015260200161202d565b50506000910152565b6000815180845261206681602086016020860161202a565b601f01601f19169290920160200192915050565b6020815260006102c9602083018461204e565b6000806000606084860312156120a257600080fd5b6120ab84611f98565b95602085013595506040909401359392505050565b60008083601f8401126120d257600080fd5b5081356001600160401b038111156120e957600080fd5b60208301915083602082850101111561210157600080fd5b9250929050565b60008060006040848603121561211d57600080fd5b8335925060208401356001600160401b0381111561213a57600080fd5b612146868287016120c0565b9497909650939450505050565b60008083601f84011261216557600080fd5b5081356001600160401b0381111561217c57600080fd5b6020830191508360208260051b850101111561210157600080fd5b600080600080600080606087890312156121b057600080fd5b86356001600160401b03808211156121c757600080fd5b6121d38a838b01612153565b909850965060208901359150808211156121ec57600080fd5b6121f88a838b01612153565b9096509450604089013591508082111561221157600080fd5b5061221e89828a01612153565b979a9699509497509295939492505050565b634e487b7160e01b600052604160045260246000fd5b601f8201601f191681016001600160401b038111828210171561226b5761226b612230565b6040525050565b60006001600160401b0382111561228b5761228b612230565b5060051b60200190565b600082601f8301126122a657600080fd5b813560206122b382612272565b6040516122c08282612246565b83815260059390931b85018201928281019150868411156122e057600080fd5b8286015b848110156122fb57803583529183019183016122e4565b509695505050505050565b600082601f83011261231757600080fd5b81356001600160401b0381111561233057612330612230565b604051612347601f8301601f191660200182612246565b81815284602083860101111561235c57600080fd5b816020850160208301376000918101602001919091529392505050565b600080600080600060a0868803121561239157600080fd5b61239a86611f98565b94506123a860208701611f98565b935060408601356001600160401b03808211156123c457600080fd5b6123d089838a01612295565b945060608801359150808211156123e657600080fd5b6123f289838a01612295565b9350608088013591508082111561240857600080fd5b5061241588828901612306565b9150509295509295909350565b6000806040838503121561243557600080fd5b82356001600160401b038082111561244c57600080fd5b818501915085601f83011261246057600080fd5b8135602061246d82612272565b60405161247a8282612246565b83815260059390931b850182019282810191508984111561249a57600080fd5b948201945b838610156124bf576124b086611f98565b8252948201949082019061249f565b965050860135925050808211156124d557600080fd5b506124e285828601612295565b9150509250929050565b600081518084526020808501945080840160005b8381101561251c57815187529582019590820190600101612500565b509495945050505050565b6020815260006102c960208301846124ec565b6000806020838503121561254d57600080fd5b82356001600160401b0381111561256357600080fd5b61256f858286016120c0565b90969095509350505050565b6020808252825182820181905260009190848201906040850190845b818110156125bc5783516001600160a01b031683529284019291840191600101612597565b50909695505050505050565b6000602082840312156125da57600080fd5b6102c982611f98565b600080604083850312156125f657600080fd5b6125ff83611f98565b91506020830135801515811461261457600080fd5b809150509250929050565b6000806000806060858703121561263557600080fd5b843593506020850135925060408501356001600160401b0381111561265957600080fd5b61266587828801612153565b95989497509550505050565b60008060008060006060868803121561268957600080fd5b61269286611f98565b945060208601356001600160401b03808211156126ae57600080fd5b6126ba89838a01612153565b909650945060408801359150808211156126d357600080fd5b506126e088828901612153565b969995985093965092949392505050565b6000806040838503121561270457600080fd5b61270d83611f98565b915061271b60208401611f98565b90509250929050565b600080600080600060a0868803121561273c57600080fd5b61274586611f98565b945061275360208701611f98565b9350604086013592506060860135915060808601356001600160401b0381111561277c57600080fd5b61241588828901612306565b600181811c9082168061279c57607f821691505b6020821081036127bc57634e487b7160e01b600052602260045260246000fd5b50919050565b600083516127d481846020880161202a565b8351908301906127e881836020880161202a565b01949350505050565b634e487b7160e01b600052603260045260246000fd5b634e487b7160e01b600052601160045260246000fd5b60006001820161282f5761282f612807565b5060010190565b634e487b7160e01b600052601260045260246000fd5b60008261285b5761285b612836565b500490565b818103818111156102cc576102cc612807565b60008261288257612882612836565b500690565b808201808211156102cc576102cc612807565b601f8211156104e757600081815260208120601f850160051c810160208610156128c15750805b601f850160051c820191505b81811015610dbc578281556001016128cd565b81516001600160401b038111156128f9576128f9612230565b61290d816129078454612788565b8461289a565b602080601f831160018114612942576000841561292a5750858301515b600019600386901b1c1916600185901b178555610dbc565b600085815260208120601f198616915b8281101561297157888601518255948401946001909101908401612952565b508582101561298f5787850151600019600388901b60f8161c191681555b5050505050600190811b01905550565b6000808335601e198436030181126129b657600080fd5b8301803591506001600160401b038211156129d057600080fd5b6020019150600581901b360382131561210157600080fd5b7f416363657373436f6e74726f6c3a206163636f756e7420000000000000000000815260008351612a2081601785016020880161202a565b7001034b99036b4b9b9b4b733903937b6329607d1b6017918401918201528351612a5181602884016020880161202a565b01602801949350505050565b604081526000612a7060408301856124ec565b8281036020840152612a8281856124ec565b95945050505050565b60006001600160a01b03808816835280871660208401525060a06040830152612ab760a08301866124ec565b8281036060840152612ac981866124ec565b90508281036080840152612add818561204e565b98975050505050505050565b600060208284031215612afb57600080fd5b81516102c981611fde565b600060033d1115612b1f5760046000803e5060005160e01c5b90565b600060443d1015612b305790565b6040516003193d81016004833e81513d6001600160401b038160248401118184111715612b5f57505050505090565b8285019150815181811115612b775750505050505090565b843d8701016020828501011115612b915750505050505090565b612ba060208286010187612246565b509095945050505050565b60006001600160a01b03808816835280871660208401525084604083015283606083015260a06080830152612be360a083018461204e565b979650505050505050565b80820281158282048414176102cc576102cc612807565b634e487b7160e01b600052603160045260246000fdfe1799cf914cb0cb442ca7c7ac709ee40d0cb89e87351dc08d517fbda27d50c68ba26469706673582212201cf1d6d465dc68be673d56af33d664fdade9dc984004ad02e9ae876f1dc8cb7164736f6c63430008130033",
  "devdoc": {
    "kind": "dev",
    "methods": {
      "accountsByToken(uint256)": {
        "params": {
          "id": "token id to query"
        },
        "returns": {
          "_0": "list of holder addresses"
        }
      },
      "balanceOf(address,uint256)": {
        "params": {
          "account": "address to query",
          "id": "token to query"
        },
        "returns": {
          "_0": "token balance"
        }
      },
      "balanceOfBatch(address[],uint256[])": {
        "params": {
          "accounts": "addresss to query",
          "ids": "tokens to query"
        },
        "returns": {
          "_0": "token balances"
        }
      },
      "isApprovedForAll(address,address)": {
        "params": {
          "account": "address to query for approval granted",
          "operator": "address to query for approval received"
        },
        "returns": {
          "_0": "whether operator is approved to spend tokens held by account"
        }
      },
      "safeBatchTransferFrom(address,address,uint256[],uint256[],bytes)": {
        "params": {
          "amounts": "list of quantities of tokens to transfer",
          "data": "data payload",
          "from": "sender of tokens",
          "ids": "list of token IDs",
          "to": "receiver of tokens"
        }
      },
      "safeTransferFrom(address,address,uint256,uint256,bytes)": {
        "params": {
          "amount": "quantity of tokens to transfer",
          "data": "data payload",
          "from": "sender of tokens",
          "id": "token ID",
          "to": "receiver of tokens"
        }
      },
      "setApprovalForAll(address,bool)": {
        "params": {
          "operator": "address whose approval status to update",
          "status": "whether operator should be considered approved"
        }
      },
      "tokensByAccount(address)": {
        "params": {
          "account": "address to query"
        },
        "returns": {
          "_0": "list of token ids"
        }
      },
      "totalHolders(uint256)": {
        "params": {
          "id": "token id to query"
        },
        "returns": {
          "_0": "quantity of holders"
        }
      },
      "totalSupply(uint256)": {
        "params": {
          "id": "token id to query"
        },
        "returns": {
          "_0": "token supply"
        }
      }
    },
    "version": 1
  },
  "userdoc": {
    "kind": "user",
    "methods": {
      "accountsByToken(uint256)": {
        "notice": "query holders of given token"
      },
      "balanceOf(address,uint256)": {
        "notice": "query the balance of given token held by given address"
      },
      "balanceOfBatch(address[],uint256[])": {
        "notice": "query the balances of given tokens held by given addresses"
      },
      "isApprovedForAll(address,address)": {
        "notice": "query approval status of given operator with respect to given address"
      },
      "safeBatchTransferFrom(address,address,uint256[],uint256[],bytes)": {
        "notice": "transfer batch of tokens between given addresses, checking for ERC1155Receiver implementation if applicable"
      },
      "safeTransferFrom(address,address,uint256,uint256,bytes)": {
        "notice": "transfer tokens between given addresses, checking for ERC1155Receiver implementation if applicable"
      },
      "setApprovalForAll(address,bool)": {
        "notice": "grant approval to or revoke approval from given operator to spend held tokens"
      },
      "tokensByAccount(address)": {
        "notice": "query tokens held by given address"
      },
      "totalHolders(uint256)": {
        "notice": "query total number of holders for given token"
      },
      "totalSupply(uint256)": {
        "notice": "query total minted supply of given token"
      },
      "uri(uint256)": {
        "notice": "inheritdoc IERC1155Metadata"
      }
    },
    "version": 1
  },
  "storageLayout": {
    "storage": [],
    "types": null
  }
}