{
  "address": "0x12f74CD659534EfFe4db34cbBe933A9006b9e59c",
  "abi": [
    {
      "inputs": [],
      "name": "ERC1155Base__ArrayLengthMismatch",
      "type": "error"
    },
    {
      "inputs": [],
      "name": "ERC1155Base__BalanceQueryZeroAddress",
      "type": "error"
    },
    {
      "inputs": [],
      "name": "ERC1155Base__BurnExceedsBalance",
      "type": "error"
    },
    {
      "inputs": [],
      "name": "ERC1155Base__BurnFromZeroAddress",
      "type": "error"
    },
    {
      "inputs": [],
      "name": "ERC1155Base__ERC1155ReceiverNotImplemented",
      "type": "error"
    },
    {
      "inputs": [],
      "name": "ERC1155Base__ERC1155ReceiverRejected",
      "type": "error"
    },
    {
      "inputs": [],
      "name": "ERC1155Base__MintToZeroAddress",
      "type": "error"
    },
    {
      "inputs": [],
      "name": "ERC1155Base__NotOwnerOrApproved",
      "type": "error"
    },
    {
      "inputs": [],
      "name": "ERC1155Base__SelfApproval",
      "type": "error"
    },
    {
      "inputs": [],
      "name": "ERC1155Base__TransferExceedsBalance",
      "type": "error"
    },
    {
      "inputs": [],
      "name": "ERC1155Base__TransferToZeroAddress",
      "type": "error"
    },
    {
      "inputs": [],
      "name": "EnumerableSet__IndexOutOfBounds",
      "type": "error"
    },
    {
      "inputs": [],
      "name": "Items_InputsLengthMistatch",
      "type": "error"
    },
    {
      "inputs": [],
      "name": "Items_InvalidItemId",
      "type": "error"
    },
    {
      "inputs": [],
      "name": "Merkle_AlreadyClaimed",
      "type": "error"
    },
    {
      "inputs": [],
      "name": "Merkle_ClaimInactive",
      "type": "error"
    },
    {
      "inputs": [],
      "name": "Merkle_ClaimStateAlreadyUpdated",
      "type": "error"
    },
    {
      "inputs": [],
      "name": "Merkle_InvalidClaimAmount",
      "type": "error"
    },
    {
      "inputs": [],
      "name": "Merkle_NotIncludedInMerkleTree",
      "type": "error"
    },
    {
      "inputs": [],
      "name": "ReentrancyGuard__ReentrantCall",
      "type": "error"
    },
    {
      "inputs": [],
      "name": "UintUtils__InsufficientHexLength",
      "type": "error"
    },
    {
      "inputs": [],
      "name": "Whitelist_ClaimInactive",
      "type": "error"
    },
    {
      "inputs": [],
      "name": "Whitelist_ClaimStateAlreadyUpdated",
      "type": "error"
    },
    {
      "inputs": [],
      "name": "Whitelist_ExceedsElegibleAmount",
      "type": "error"
    },
    {
      "inputs": [],
      "name": "Whitelist_InputDataMismatch",
      "type": "error"
    },
    {
      "anonymous": false,
      "inputs": [
        {
          "indexed": true,
          "internalType": "address",
          "name": "account",
          "type": "address"
        },
        {
          "indexed": true,
          "internalType": "address",
          "name": "operator",
          "type": "address"
        },
        {
          "indexed": false,
          "internalType": "bool",
          "name": "approved",
          "type": "bool"
        }
      ],
      "name": "ApprovalForAll",
      "type": "event"
    },
    {
      "anonymous": false,
      "inputs": [
        {
          "indexed": true,
          "internalType": "address",
          "name": "to",
          "type": "address"
        },
        {
          "indexed": true,
          "internalType": "uint256",
          "name": "itemId",
          "type": "uint256"
        },
        {
          "indexed": false,
          "internalType": "uint256",
          "name": "amount",
          "type": "uint256"
        }
      ],
      "name": "ItemClaimedMerkle",
      "type": "event"
    },
    {
      "anonymous": false,
      "inputs": [
        {
          "indexed": true,
          "internalType": "bytes32",
          "name": "role",
          "type": "bytes32"
        },
        {
          "indexed": true,
          "internalType": "bytes32",
          "name": "previousAdminRole",
          "type": "bytes32"
        },
        {
          "indexed": true,
          "internalType": "bytes32",
          "name": "newAdminRole",
          "type": "bytes32"
        }
      ],
      "name": "RoleAdminChanged",
      "type": "event"
    },
    {
      "anonymous": false,
      "inputs": [
        {
          "indexed": true,
          "internalType": "bytes32",
          "name": "role",
          "type": "bytes32"
        },
        {
          "indexed": true,
          "internalType": "address",
          "name": "account",
          "type": "address"
        },
        {
          "indexed": true,
          "internalType": "address",
          "name": "sender",
          "type": "address"
        }
      ],
      "name": "RoleGranted",
      "type": "event"
    },
    {
      "anonymous": false,
      "inputs": [
        {
          "indexed": true,
          "internalType": "bytes32",
          "name": "role",
          "type": "bytes32"
        },
        {
          "indexed": true,
          "internalType": "address",
          "name": "account",
          "type": "address"
        },
        {
          "indexed": true,
          "internalType": "address",
          "name": "sender",
          "type": "address"
        }
      ],
      "name": "RoleRevoked",
      "type": "event"
    },
    {
      "anonymous": false,
      "inputs": [
        {
          "indexed": true,
          "internalType": "address",
          "name": "operator",
          "type": "address"
        },
        {
          "indexed": true,
          "internalType": "address",
          "name": "from",
          "type": "address"
        },
        {
          "indexed": true,
          "internalType": "address",
          "name": "to",
          "type": "address"
        },
        {
          "indexed": false,
          "internalType": "uint256[]",
          "name": "ids",
          "type": "uint256[]"
        },
        {
          "indexed": false,
          "internalType": "uint256[]",
          "name": "values",
          "type": "uint256[]"
        }
      ],
      "name": "TransferBatch",
      "type": "event"
    },
    {
      "anonymous": false,
      "inputs": [
        {
          "indexed": true,
          "internalType": "address",
          "name": "operator",
          "type": "address"
        },
        {
          "indexed": true,
          "internalType": "address",
          "name": "from",
          "type": "address"
        },
        {
          "indexed": true,
          "internalType": "address",
          "name": "to",
          "type": "address"
        },
        {
          "indexed": false,
          "internalType": "uint256",
          "name": "id",
          "type": "uint256"
        },
        {
          "indexed": false,
          "internalType": "uint256",
          "name": "value",
          "type": "uint256"
        }
      ],
      "name": "TransferSingle",
      "type": "event"
    },
    {
      "anonymous": false,
      "inputs": [
        {
          "indexed": false,
          "internalType": "string",
          "name": "value",
          "type": "string"
        },
        {
          "indexed": true,
          "internalType": "uint256",
          "name": "tokenId",
          "type": "uint256"
        }
      ],
      "name": "URI",
      "type": "event"
    },
    {
      "anonymous": false,
      "inputs": [
        {
          "indexed": false,
          "internalType": "address",
          "name": "account",
          "type": "address"
        },
        {
          "indexed": false,
          "internalType": "uint256",
          "name": "totalElegibleAmount",
          "type": "uint256"
        },
        {
          "indexed": false,
          "internalType": "uint256",
          "name": "totalClaimedAmount",
          "type": "uint256"
        }
      ],
      "name": "WhitelistBalanceChanged",
      "type": "event"
    },
    {
      "inputs": [
        {
          "internalType": "uint256",
          "name": "id",
          "type": "uint256"
        }
      ],
      "name": "accountsByToken",
      "outputs": [
        {
          "internalType": "address[]",
          "name": "",
          "type": "address[]"
        }
      ],
      "stateMutability": "view",
      "type": "function"
    },
    {
      "inputs": [
        {
          "internalType": "address",
          "name": "account",
          "type": "address"
        },
        {
          "internalType": "uint256",
          "name": "id",
          "type": "uint256"
        }
      ],
      "name": "balanceOf",
      "outputs": [
        {
          "internalType": "uint256",
          "name": "",
          "type": "uint256"
        }
      ],
      "stateMutability": "view",
      "type": "function"
    },
    {
      "inputs": [
        {
          "internalType": "address[]",
          "name": "accounts",
          "type": "address[]"
        },
        {
          "internalType": "uint256[]",
          "name": "ids",
          "type": "uint256[]"
        }
      ],
      "name": "balanceOfBatch",
      "outputs": [
        {
          "internalType": "uint256[]",
          "name": "",
          "type": "uint256[]"
        }
      ],
      "stateMutability": "view",
      "type": "function"
    },
    {
      "inputs": [
        {
          "internalType": "uint256",
          "name": "itemId",
          "type": "uint256"
        },
        {
          "internalType": "uint256",
          "name": "amount",
          "type": "uint256"
        },
        {
          "internalType": "bytes32[]",
          "name": "proof",
          "type": "bytes32[]"
        }
      ],
      "name": "claimMerkle",
      "outputs": [],
      "stateMutability": "nonpayable",
      "type": "function"
    },
    {
      "inputs": [
        {
          "internalType": "uint256[]",
          "name": "itemsIds",
          "type": "uint256[]"
        },
        {
          "internalType": "uint256[]",
          "name": "amounts",
          "type": "uint256[]"
        },
        {
          "internalType": "bytes32[][]",
          "name": "proofs",
          "type": "bytes32[][]"
        }
      ],
      "name": "claimMerkleBatch",
      "outputs": [],
      "stateMutability": "nonpayable",
      "type": "function"
    },
    {
      "inputs": [
        {
          "internalType": "uint256[]",
          "name": "itemIds",
          "type": "uint256[]"
        },
        {
          "internalType": "uint256[]",
          "name": "amounts",
          "type": "uint256[]"
        }
      ],
      "name": "claimWhitelist",
      "outputs": [],
      "stateMutability": "nonpayable",
      "type": "function"
    },
    {
      "inputs": [
        {
          "internalType": "address",
          "name": "account",
          "type": "address"
        },
        {
          "internalType": "uint256",
          "name": "itemId",
          "type": "uint256"
        }
      ],
      "name": "claimedAmount",
      "outputs": [
        {
          "internalType": "uint256",
          "name": "amount",
          "type": "uint256"
        }
      ],
      "stateMutability": "view",
      "type": "function"
    },
    {
      "inputs": [
        {
          "internalType": "address",
          "name": "account",
          "type": "address"
        },
        {
          "internalType": "address",
          "name": "operator",
          "type": "address"
        }
      ],
      "name": "isApprovedForAll",
      "outputs": [
        {
          "internalType": "bool",
          "name": "",
          "type": "bool"
        }
      ],
      "stateMutability": "view",
      "type": "function"
    },
    {
      "inputs": [
        {
          "internalType": "string",
          "name": "newBaseURI",
          "type": "string"
        },
        {
          "internalType": "bool",
          "name": "migrate",
          "type": "bool"
        }
      ],
      "name": "migrateToIPFS",
      "outputs": [],
      "stateMutability": "nonpayable",
      "type": "function"
    },
    {
      "inputs": [
        {
          "internalType": "address",
          "name": "to",
          "type": "address"
        },
        {
          "internalType": "uint256",
          "name": "id",
          "type": "uint256"
        },
        {
          "internalType": "uint256",
          "name": "amount",
          "type": "uint256"
        }
      ],
      "name": "mint",
      "outputs": [],
      "stateMutability": "nonpayable",
      "type": "function"
    },
    {
      "inputs": [
        {
          "internalType": "address",
          "name": "to",
          "type": "address"
        },
        {
          "internalType": "uint256[]",
          "name": "ids",
          "type": "uint256[]"
        },
        {
          "internalType": "uint256[]",
          "name": "amounts",
          "type": "uint256[]"
        }
      ],
      "name": "mintBatch",
      "outputs": [],
      "stateMutability": "nonpayable",
      "type": "function"
    },
    {
      "inputs": [
        {
          "internalType": "bytes[]",
          "name": "data",
          "type": "bytes[]"
        }
      ],
      "name": "multicall",
      "outputs": [
        {
          "internalType": "bytes[]",
          "name": "results",
          "type": "bytes[]"
        }
      ],
      "stateMutability": "nonpayable",
      "type": "function"
    },
    {
      "inputs": [
        {
          "internalType": "address",
          "name": "from",
          "type": "address"
        },
        {
          "internalType": "address",
          "name": "to",
          "type": "address"
        },
        {
          "internalType": "uint256[]",
          "name": "ids",
          "type": "uint256[]"
        },
        {
          "internalType": "uint256[]",
          "name": "amounts",
          "type": "uint256[]"
        },
        {
          "internalType": "bytes",
          "name": "data",
          "type": "bytes"
        }
      ],
      "name": "safeBatchTransferFrom",
      "outputs": [],
      "stateMutability": "nonpayable",
      "type": "function"
    },
    {
      "inputs": [
        {
          "internalType": "address",
          "name": "from",
          "type": "address"
        },
        {
          "internalType": "address",
          "name": "to",
          "type": "address"
        },
        {
          "internalType": "uint256",
          "name": "id",
          "type": "uint256"
        },
        {
          "internalType": "uint256",
          "name": "amount",
          "type": "uint256"
        },
        {
          "internalType": "bytes",
          "name": "data",
          "type": "bytes"
        }
      ],
      "name": "safeTransferFrom",
      "outputs": [],
      "stateMutability": "nonpayable",
      "type": "function"
    },
    {
      "inputs": [
        {
          "internalType": "address",
          "name": "operator",
          "type": "address"
        },
        {
          "internalType": "bool",
          "name": "status",
          "type": "bool"
        }
      ],
      "name": "setApprovalForAll",
      "outputs": [],
      "stateMutability": "nonpayable",
      "type": "function"
    },
    {
      "inputs": [
        {
          "internalType": "string",
          "name": "baseURI",
          "type": "string"
        }
      ],
      "name": "setBaseURI",
      "outputs": [],
      "stateMutability": "nonpayable",
      "type": "function"
    },
    {
      "inputs": [
        {
          "internalType": "uint256",
          "name": "tokenId",
          "type": "uint256"
        },
        {
          "internalType": "string",
          "name": "tokenURI",
          "type": "string"
        }
      ],
      "name": "setTokenURI",
      "outputs": [],
      "stateMutability": "nonpayable",
      "type": "function"
    },
    {
      "inputs": [
        {
          "internalType": "bytes4",
          "name": "_interface",
          "type": "bytes4"
        }
      ],
      "name": "supportsInterface",
      "outputs": [
        {
          "internalType": "bool",
          "name": "",
          "type": "bool"
        }
      ],
      "stateMutability": "pure",
      "type": "function"
    },
    {
      "inputs": [
        {
          "internalType": "address",
          "name": "account",
          "type": "address"
        }
      ],
      "name": "tokensByAccount",
      "outputs": [
        {
          "internalType": "uint256[]",
          "name": "",
          "type": "uint256[]"
        }
      ],
      "stateMutability": "view",
      "type": "function"
    },
    {
      "inputs": [
        {
          "internalType": "uint256",
          "name": "id",
          "type": "uint256"
        }
      ],
      "name": "totalHolders",
      "outputs": [
        {
          "internalType": "uint256",
          "name": "",
          "type": "uint256"
        }
      ],
      "stateMutability": "view",
      "type": "function"
    },
    {
      "inputs": [
        {
          "internalType": "uint256",
          "name": "id",
          "type": "uint256"
        }
      ],
      "name": "totalSupply",
      "outputs": [
        {
          "internalType": "uint256",
          "name": "",
          "type": "uint256"
        }
      ],
      "stateMutability": "view",
      "type": "function"
    },
    {
      "inputs": [
        {
          "internalType": "uint256",
          "name": "tokenId",
          "type": "uint256"
        }
      ],
      "name": "uri",
      "outputs": [
        {
          "internalType": "string",
          "name": "",
          "type": "string"
        }
      ],
      "stateMutability": "view",
      "type": "function"
    }
  ],
  "transactionHash": "0x9604cc59a1fb2884f4b80cd5d8c93d6a43b39964fb17142a26d39f055da7af5d",
  "args": [],
  "numDeployments": 1,
  "solcInputHash": "b6e81bc9395a29f02d4340ddb8cf6c81",
  "bytecode": "0x608060405234801561001057600080fd5b5061348a806100206000396000f3fe608060405234801561001057600080fd5b50600436106101415760003560e01c80636dcfd841116100b8578063bd85b0391161007c578063bd85b039146102e0578063cdc11b11146102f3578063ceb60ee614610306578063d81d0a1514610319578063e985e9c51461032c578063f242432a1461033f57600080fd5b80636dcfd8411461026757806384118c5d1461028757806385bff2e71461029a578063a22cb465146102ad578063ac9650d8146102c057600080fd5b8063162094c41161010a578063162094c4146101e85780632eb2c2d6146101fb5780634e1273f41461020e5780634f7fb3321461022e57806355b4b1a41461024157806355f804b31461025457600080fd5b8062fdd58e1461014657806301ffc9a71461016c5780630e89341c146101a057806313ba55df146101c0578063156e29f6146101d3575b600080fd5b6101596101543660046125d1565b610352565b6040519081526020015b60405180910390f35b61019061017a366004612611565b6001600160e01b031916636cdb3d1360e11b1490565b6040519015158152602001610163565b6101b36101ae36600461262e565b610367565b6040516101639190612697565b6101596101ce36600461262e565b6103d1565b6101e66101e13660046126aa565b6103dc565b005b6101e66101f6366004612725565b61041c565b6101e66102093660046128b9565b610487565b61022161021c366004612962565b6104d9565b6040516101639190612a67565b6101e661023c366004612abe565b610643565b61015961024f3660046125d1565b6106a5565b6101e6610262366004612b57565b6106ed565b61027a61027536600461262e565b61075b565b6040516101639190612b98565b6101e6610295366004612be5565b610766565b6102216102a8366004612c37565b6107f6565b6101e66102bb366004612c62565b610801565b6102d36102ce366004612c95565b6108b5565b6040516101639190612cca565b6101596102ee36600461262e565b6109cf565b6101e6610301366004612d2c565b610a02565b6101e6610314366004612d7f565b610a38565b6101e6610327366004612dde565b610a4a565b61019061033a366004612e5e565b610a82565b6101e661034d366004612e88565b610acf565b600061035e8383610b1a565b90505b92915050565b7f333d4b734a9ca3847483bf4c14a14709d21907ff5f12a881347e2fb2ad8906d75460609060ff16156103c35761039d82610b78565b6040516020016103ad9190612eec565b6040516020818303038152906040529050919050565b61036182610b78565b919050565b600061036182610d47565b61040c6104077ff6deb63e40d71b08820818e006e23fcceb1fce7a499bc15b71b2526cbf9efa735490565b610d7d565b610417838383610d8a565b505050565b6104476104077ff6deb63e40d71b08820818e006e23fcceb1fce7a499bc15b71b2526cbf9efa725490565b6104178383838080601f016020809104026020016040519081016040528093929190818152602001838380828437600092019190915250610dc692505050565b6001600160a01b03851633148015906104a757506104a58533610a82565b155b156104c4576040516212efed60e91b815260040160405180910390fd5b6104d2338686868686610e3a565b5050505050565b606081518351146104fd57604051633e7e0b6d60e11b815260040160405180910390fd5b8251600080516020613435833981519152906000906001600160401b0381111561052957610529612770565b604051908082528060200260200182016040528015610552578160200160208202803683370190505b50905060005b855181101561063a5760006001600160a01b031686828151811061057e5761057e612f15565b60200260200101516001600160a01b0316036105ad5760405163db5d879760e01b815260040160405180910390fd5b8260008683815181106105c2576105c2612f15565b6020026020010151815260200190815260200160002060008783815181106105ec576105ec612f15565b60200260200101516001600160a01b03166001600160a01b031681526020019081526020016000205482828151811061062757610627612f15565b6020908102919091010152600101610558565b50949350505050565b7f09acf4e54214992e70883cf7dcd6957ff2c71cd9e14df4bec4383bc0d11607dc805460020361068657604051635db5c7cd60e11b815260040160405180910390fd5b6002815561069933888888888888610e5e565b60019055505050505050565b6001600160a01b03821660009081527f333d4b734a9ca3847483bf4c14a14709d21907ff5f12a881347e2fb2ad8906d66020908152604080832084845290915281205461035e565b6107186104077ff6deb63e40d71b08820818e006e23fcceb1fce7a499bc15b71b2526cbf9efa725490565b61075782828080601f016020809104026020016040519081016040528093929190818152602001838380828437600092019190915250610f3692505050565b5050565b606061036182610f61565b7f09acf4e54214992e70883cf7dcd6957ff2c71cd9e14df4bec4383bc0d11607dc80546002036107a957604051635db5c7cd60e11b815260040160405180910390fd5b6002815560408051602080850282810182019093528482526107ec9233928992899289918991829185019084908082843760009201919091525061103492505050565b6001905550505050565b60606103618261111c565b6001600160a01b038216330361082a57604051637b30a93360e11b815260040160405180910390fd5b3360008181527f1799cf914cb0cb442ca7c7ac709ee40d0cb89e87351dc08d517fbda27d50c68c602090815260408083206001600160a01b03871680855290835292819020805460ff191686151590811790915590519081529192917f17307eab39ab6107e8899845ad3d59bd9653f200f220920489ca2b5937696c31910160405180910390a35050565b6060816001600160401b038111156108cf576108cf612770565b60405190808252806020026020018201604052801561090257816020015b60608152602001906001900390816108ed5790505b50905060005b828110156109c8576000803086868581811061092657610926612f15565b90506020028101906109389190612f2b565b604051610946929190612f71565b600060405180830381855af49150503d8060008114610981576040519150601f19603f3d011682016040523d82523d6000602084013e610986565b606091505b509150915081156109b457808484815181106109a4576109a4612f15565b60200260200101819052506109be565b3d6000803e3d6000fd5b5050600101610908565b5092915050565b60008181527fb31c2c74f86ca3ce94d901f5f5bbe66f7161eec2f7b5aa0b75a86371436424ea6020526040812054610361565b610a2d6104077ff6deb63e40d71b08820818e006e23fcceb1fce7a499bc15b71b2526cbf9efa725490565b6104178383836111e4565b610a4484848484611257565b50505050565b610a756104077ff6deb63e40d71b08820818e006e23fcceb1fce7a499bc15b71b2526cbf9efa735490565b6104d28585858585611301565b6001600160a01b0391821660009081527f1799cf914cb0cb442ca7c7ac709ee40d0cb89e87351dc08d517fbda27d50c68c6020908152604080832093909416825291909152205460ff1690565b6001600160a01b0385163314801590610aef5750610aed8533610a82565b155b15610b0c576040516212efed60e91b815260040160405180910390fd5b6104d23386868686866113da565b60006001600160a01b038316610b435760405163db5d879760e01b815260040160405180910390fd5b6000805160206134358339815191526000928352602090815260408084206001600160a01b0395909516845293905250205490565b60008181527f4281b61aefbe70b3d3f684b428efca5f33077bc240e76f2808f9177c307617f56020526040812080546060927f4281b61aefbe70b3d3f684b428efca5f33077bc240e76f2808f9177c307617f4929091610bd790612f81565b80601f0160208091040260200160405190810160405280929190818152602001828054610c0390612f81565b8015610c505780601f10610c2557610100808354040283529160200191610c50565b820191906000526020600020905b815481529060010190602001808311610c3357829003601f168201915b505050505090506000826000018054610c6890612f81565b80601f0160208091040260200160405190810160405280929190818152602001828054610c9490612f81565b8015610ce15780601f10610cb657610100808354040283529160200191610ce1565b820191906000526020600020905b815481529060010190602001808311610cc457829003601f168201915b505050505090508051600003610cf957509392505050565b815115610d2c578082604051602001610d13929190612fbb565b6040516020818303038152906040529350505050919050565b80610d36866113f6565b604051602001610d13929190612fbb565b60008181527fb31c2c74f86ca3ce94d901f5f5bbe66f7161eec2f7b5aa0b75a86371436424eb60205260408120610361906114fe565b610d878133611508565b50565b81600003610dab5760405163225c19bb60e11b815260040160405180910390fd5b61041783838360405180602001604052806000815250611573565b60008281527f4281b61aefbe70b3d3f684b428efca5f33077bc240e76f2808f9177c307617f560205260409020610dfd8282613030565b50817f6bb7ff708619ba0610cba295a58592e0451dee2622938c8755667688daf3529b82604051610e2e9190612697565b60405180910390a25050565b610e4886868686868661164c565b610e568686868686866117f5565b505050505050565b848314610e7e57604051634e98d26360e01b815260040160405180910390fd5b60005b85811015610f2c57610f1a88888884818110610e9f57610e9f612f15565b90506020020135878785818110610eb857610eb8612f15565b90506020020135868686818110610ed157610ed1612f15565b9050602002810190610ee391906130ef565b8080602002602001604051908101604052809392919081815260200183836020028082843760009201919091525061103492505050565b80610f248161314e565b915050610e81565b5050505050505050565b7f4281b61aefbe70b3d3f684b428efca5f33077bc240e76f2808f9177c307617f46107578282613030565b60008181527fb31c2c74f86ca3ce94d901f5f5bbe66f7161eec2f7b5aa0b75a86371436424eb60205260408120606091610f9a826114fe565b6001600160401b03811115610fb157610fb1612770565b604051908082528060200260200182016040528015610fda578160200160208202803683370190505b50905060005b610fe9836114fe565b81101561102c57610ffa838261190e565b82828151811061100c5761100c612f15565b6001600160a01b0390921660209283029190910190910152600101610fe0565b509392505050565b604080516001600160a01b038616602082015280820185905260608082018590528251808303909101815260809091019091527f333d4b734a9ca3847483bf4c14a14709d21907ff5f12a881347e2fb2ad8906d690611093838261191a565b61109e868686610d8a565b6001600160a01b038616600090815260208381526040808320888452909152812080548692906110cf908490613167565b909155505060405184815285906001600160a01b038816907fd4307fb1338aefb2a030cf5ea0f582a10d28ffee99fe253e5d48946f9a74a59f9060200160405180910390a3505050505050565b6001600160a01b03811660009081527fb31c2c74f86ca3ce94d901f5f5bbe66f7161eec2f7b5aa0b75a86371436424ec6020526040812060609161115f826114fe565b6001600160401b0381111561117657611176612770565b60405190808252806020026020018201604052801561119f578160200160208202803683370190505b50905060005b6111ae836114fe565b81101561102c576111bf838261190e565b8282815181106111d1576111d1612f15565b60209081029190910101526001016111a5565b61122383838080601f016020809104026020016040519081016040528093929190818152602001838380828437600092019190915250610f3692505050565b7f333d4b734a9ca3847483bf4c14a14709d21907ff5f12a881347e2fb2ad8906d7805460ff19169115159190911790555050565b82811461127757604051634e98d26360e01b815260040160405180910390fd5b6000805b848110156112f6576112be3387878481811061129957611299612f15565b905060200201358686858181106112b2576112b2612f15565b90506020020135610d8a565b8383828181106112d0576112d0612f15565b90506020020135826112e29190613167565b9150806112ee8161314e565b91505061127b565b506104d23382611a64565b600161133f858580806020026020016040519081016040528093929190818152602001838360200280828437600092019190915250611c0092505050565b101561135e5760405163225c19bb60e11b815260040160405180910390fd5b6104d28585858080602002602001604051908101604052809392919081815260200183836020028082843760009201919091525050604080516020808902828101820190935288825290935088925087918291850190849080828437600092018290525060408051602081019091529081529250611c56915050565b6113e8868686868686611dad565b610e56868686868686611ec3565b60608160000361141d5750506040805180820190915260018152600360fc1b602082015290565b8160005b811561144757806114318161314e565b91506114409050600a83613190565b9150611421565b6000816001600160401b0381111561146157611461612770565b6040519080825280601f01601f19166020018201604052801561148b576020820181803683370190505b5090505b84156114f6576114a06001836131a4565b91506114ad600a866131b7565b6114b8906030613167565b60f81b8183815181106114cd576114cd612f15565b60200101906001600160f81b031916908160001a9053506114ef600a86613190565b945061148f565b949350505050565b6000610361825490565b6115128282611f7f565b61075757611528816001600160a01b0316611fb6565b611533836020611fc8565b6040516020016115449291906131cb565b60408051601f198184030181529082905262461bcd60e51b825261156a91600401612697565b60405180910390fd5b6001600160a01b03841661159a576040516301c8efbf60e11b815260040160405180910390fd5b6115b9336000866115aa8761211a565b6115b38761211a565b86612165565b6000838152600080516020613435833981519152602090815260408083206001600160a01b0388168452909152812080548492906115f8908490613167565b909155505060408051848152602081018490526001600160a01b0386169160009133917fc3d58168c5ae7397731d063d5bbf3d657854427343f4c083240f7aacaa2d0f62910160405180910390a450505050565b6001600160a01b0384166116735760405163f5cadad560e01b815260040160405180910390fd5b815183511461169557604051633e7e0b6d60e11b815260040160405180910390fd5b6116a3868686868686612165565b60008051602061343583398151915260005b84518110156117945760008582815181106116d2576116d2612f15565b6020026020010151905060008583815181106116f0576116f0612f15565b602090810291909101810151600084815286835260408082206001600160a01b038e1683529093529190912054909150808211156117415760405163119ac6bb60e31b815260040160405180910390fd5b6000838152602086815260408083206001600160a01b038e811685529252808320938590039093558a168152908120805460019590950194839290611787908490613167565b909155506116b592505050565b50846001600160a01b0316866001600160a01b0316886001600160a01b03167f4a39dc06d4c0dbc64b70af90fd698a233a518aa5d07e595d983b8c0526c8f7fb87876040516117e4929190613240565b60405180910390a450505050505050565b6001600160a01b0384163b15610e565760405163bc197c8160e01b81526001600160a01b0385169063bc197c8190611839908990899088908890889060040161326e565b6020604051808303816000875af1925050508015611874575060408051601f3d908101601f19168201909252611871918101906132cc565b60015b6118d4576118806132e9565b806308c379a0036118b95750611894613305565b8061189f57506118bb565b8060405162461bcd60e51b815260040161156a9190612697565b505b60405163380147a960e01b815260040160405180910390fd5b6001600160e01b0319811663bc197c8160e01b1461190557604051633744db2960e01b815260040160405180910390fd5b50505050505050565b600061035e8383612173565b7f7a07c093b55ad04e200605cb287859fe4640b7310d62fdbb044e26399da78c09547f7a07c093b55ad04e200605cb287859fe4640b7310d62fdbb044e26399da78c089060ff161561197f5760405163a2f902f160e01b815260040160405180910390fd5b600083604051602001611992919061338e565b60408051601f19818403018152918152815160209283012060008181526002860190935291205490915060ff16156119dd5760405163dea0a45b60e01b815260040160405180910390fd5b600083805190602001206040516020016119f991815260200190565b6040516020818303038152906040528051906020012090506000611a22868560000154846121bf565b905080611a4257604051631006f83b60e31b815260040160405180910390fd5b50506000908152600290910160205260409020805460ff191660011790555050565b7ff38d3885e664c9638de25f02e645e1955ebebe901d7be2c2037db6a5bcbb358c547ff38d3885e664c9638de25f02e645e1955ebebe901d7be2c2037db6a5bcbb35889060ff1615611ac957604051633137c0e960e11b815260040160405180910390fd5b6001600160a01b0383166000908152600182016020526040902054821115611b0457604051630f8a2c5f60e31b815260040160405180910390fd5b6001600160a01b038316600090815260018201602052604081208054849290611b2e9084906131a4565b90915550506001600160a01b03831660009081526020829052604081208054849290611b5b908490613167565b9250508190555081816002016000828254611b769190613167565b9250508190555081816003016000828254611b9191906131a4565b90915550506001600160a01b038316600090815260018201602090815260408083205484835292819020548151338152928301939093528101919091527fc7ba59c487358e9747ee9c691c213a9b2d30e01bb1b022a3e11d4b1984cd98459060600160405180910390a1505050565b6000600019815b83518110156109c85781848281518110611c2357611c23612f15565b60200260200101511015611c4e57838181518110611c4357611c43612f15565b602002602001015191505b600101611c07565b6001600160a01b038416611c7d576040516301c8efbf60e11b815260040160405180910390fd5b8151835114611c9f57604051633e7e0b6d60e11b815260040160405180910390fd5b611cae33600086868686612165565b60008051602061343583398151915260005b8451811015611d4d57838181518110611cdb57611cdb612f15565b6020026020010151826000878481518110611cf857611cf8612f15565b602002602001015181526020019081526020016000206000886001600160a01b03166001600160a01b031681526020019081526020016000206000828254611d409190613167565b9091555050600101611cc0565b50846001600160a01b031660006001600160a01b0316336001600160a01b03167f4a39dc06d4c0dbc64b70af90fd698a233a518aa5d07e595d983b8c0526c8f7fb8787604051611d9e929190613240565b60405180910390a45050505050565b6001600160a01b038416611dd45760405163f5cadad560e01b815260040160405180910390fd5b611de38686866115aa8761211a565b6000838152600080516020613435833981519152602081815260408084206001600160a01b038a1685529091529091205480841115611e355760405163119ac6bb60e31b815260040160405180910390fd5b6000858152602083815260408083206001600160a01b038b81168552925280832093879003909355871681529081208054859290611e74908490613167565b909155505060408051858152602081018590526001600160a01b038088169289821692918b16917fc3d58168c5ae7397731d063d5bbf3d657854427343f4c083240f7aacaa2d0f6291016117e4565b6001600160a01b0384163b15610e565760405163f23a6e6160e01b81526001600160a01b0385169063f23a6e6190611f0790899089908890889088906004016133c4565b6020604051808303816000875af1925050508015611f42575060408051601f3d908101601f19168201909252611f3f918101906132cc565b60015b611f4e576118806132e9565b6001600160e01b0319811663f23a6e6160e01b1461190557604051633744db2960e01b815260040160405180910390fd5b60008281527fd3889cc5458b268d0544e5534672df1296288ca3f93cbd39bd6f497a5c6228116020526040812061035e9083612264565b60606103616001600160a01b03831660145b60606000611fd7836002613407565b611fe2906002613167565b6001600160401b03811115611ff957611ff9612770565b6040519080825280601f01601f191660200182016040528015612023576020820181803683370190505b509050600360fc1b8160008151811061203e5761203e612f15565b60200101906001600160f81b031916908160001a905350600f60fb1b8160018151811061206d5761206d612f15565b60200101906001600160f81b031916908160001a905350600160028402015b60018111156120fa576f181899199a1a9b1b9c1cb0b131b232b360811b85600f16601081106120bd576120bd612f15565b1a60f81b8282815181106120d3576120d3612f15565b60200101906001600160f81b031916908160001a90535060049490941c936000190161208c565b50831561035e5760405163c913478560e01b815260040160405180910390fd5b6040805160018082528183019092526060916000919060208083019080368337019050509050828160008151811061215457612154612f15565b602090810291909101015292915050565b610e56868686868686612286565b815460009082106121975760405163e637bf3b60e01b815260040160405180910390fd5b8260000182815481106121ac576121ac612f15565b9060005260206000200154905092915050565b600081815b85518110156122595760008682815181106121e1576121e1612f15565b60200260200101519050808311612223576040805160208101859052908101829052606001604051602081830303815290604052805190602001209250612250565b60408051602081018390529081018490526060016040516020818303038152906040528051906020012092505b506001016121c4565b509092149392505050565b6001600160a01b0381166000908152600183016020526040812054151561035e565b610e56868686868686836001600160a01b0316856001600160a01b031614610e56576001600160a01b0385811660009081527fb31c2c74f86ca3ce94d901f5f5bbe66f7161eec2f7b5aa0b75a86371436424ec6020526040808220928716825281207fb31c2c74f86ca3ce94d901f5f5bbe66f7161eec2f7b5aa0b75a86371436424ea927fb31c2c74f86ca3ce94d901f5f5bbe66f7161eec2f7b5aa0b75a86371436424eb929091905b875181101561246e57600087828151811061234d5761234d612f15565b60200260200101519050600081111561246557600089838151811061237457612374612f15565b6020026020010151905060006001600160a01b03168c6001600160a01b0316036123c157600081815260208890526040812080548492906123b6908490613167565b909155506123f69050565b816123cc8d83610b1a565b036123f65760008181526020879052604090206123e9908d61247b565b506123f48582612490565b505b6001600160a01b038b1661242d57600081815260208890526040812080548492906124229084906131a4565b909155506124639050565b6124378b82610b1a565b600003612463576000818152602087905260409020612456908c61249c565b5061246184826124b1565b505b505b50600101612330565b5050505050505050505050565b600061035e836001600160a01b0384166124bd565b600061035e83836124bd565b600061035e836001600160a01b038416612577565b600061035e8383612577565b600081815260018301602052604081205480156109c8578354600090859060001981019081106124ef576124ef612f15565b906000526020600020015490508085600001600184038154811061251557612515612f15565b60009182526020808320909101929092559182526001860190526040902081905583548490806125475761254761341e565b60008281526020808220830160001990810183905590920190925593815260019485019093525050604081205590565b6000818152600183016020526040812054610361575081546001808201845560008481526020808220909301849055845493815293810190915260409092205590565b80356001600160a01b03811681146103cc57600080fd5b600080604083850312156125e457600080fd5b6125ed836125ba565b946020939093013593505050565b6001600160e01b031981168114610d8757600080fd5b60006020828403121561262357600080fd5b813561035e816125fb565b60006020828403121561264057600080fd5b5035919050565b60005b8381101561266257818101518382015260200161264a565b50506000910152565b60008151808452612683816020860160208601612647565b601f01601f19169290920160200192915050565b60208152600061035e602083018461266b565b6000806000606084860312156126bf57600080fd5b6126c8846125ba565b95602085013595506040909401359392505050565b60008083601f8401126126ef57600080fd5b5081356001600160401b0381111561270657600080fd5b60208301915083602082850101111561271e57600080fd5b9250929050565b60008060006040848603121561273a57600080fd5b8335925060208401356001600160401b0381111561275757600080fd5b612763868287016126dd565b9497909650939450505050565b634e487b7160e01b600052604160045260246000fd5b601f8201601f191681016001600160401b03811182821017156127ab576127ab612770565b6040525050565b60006001600160401b038211156127cb576127cb612770565b5060051b60200190565b600082601f8301126127e657600080fd5b813560206127f3826127b2565b6040516128008282612786565b83815260059390931b850182019282810191508684111561282057600080fd5b8286015b8481101561283b5780358352918301918301612824565b509695505050505050565b600082601f83011261285757600080fd5b81356001600160401b0381111561287057612870612770565b604051612887601f8301601f191660200182612786565b81815284602083860101111561289c57600080fd5b816020850160208301376000918101602001919091529392505050565b600080600080600060a086880312156128d157600080fd5b6128da866125ba565b94506128e8602087016125ba565b935060408601356001600160401b038082111561290457600080fd5b61291089838a016127d5565b9450606088013591508082111561292657600080fd5b61293289838a016127d5565b9350608088013591508082111561294857600080fd5b5061295588828901612846565b9150509295509295909350565b6000806040838503121561297557600080fd5b82356001600160401b038082111561298c57600080fd5b818501915085601f8301126129a057600080fd5b813560206129ad826127b2565b6040516129ba8282612786565b83815260059390931b85018201928281019150898411156129da57600080fd5b948201945b838610156129ff576129f0866125ba565b825294820194908201906129df565b96505086013592505080821115612a1557600080fd5b50612a22858286016127d5565b9150509250929050565b600081518084526020808501945080840160005b83811015612a5c57815187529582019590820190600101612a40565b509495945050505050565b60208152600061035e6020830184612a2c565b60008083601f840112612a8c57600080fd5b5081356001600160401b03811115612aa357600080fd5b6020830191508360208260051b850101111561271e57600080fd5b60008060008060008060608789031215612ad757600080fd5b86356001600160401b0380821115612aee57600080fd5b612afa8a838b01612a7a565b90985096506020890135915080821115612b1357600080fd5b612b1f8a838b01612a7a565b90965094506040890135915080821115612b3857600080fd5b50612b4589828a01612a7a565b979a9699509497509295939492505050565b60008060208385031215612b6a57600080fd5b82356001600160401b03811115612b8057600080fd5b612b8c858286016126dd565b90969095509350505050565b6020808252825182820181905260009190848201906040850190845b81811015612bd95783516001600160a01b031683529284019291840191600101612bb4565b50909695505050505050565b60008060008060608587031215612bfb57600080fd5b843593506020850135925060408501356001600160401b03811115612c1f57600080fd5b612c2b87828801612a7a565b95989497509550505050565b600060208284031215612c4957600080fd5b61035e826125ba565b803580151581146103cc57600080fd5b60008060408385031215612c7557600080fd5b612c7e836125ba565b9150612c8c60208401612c52565b90509250929050565b60008060208385031215612ca857600080fd5b82356001600160401b03811115612cbe57600080fd5b612b8c85828601612a7a565b6000602080830181845280855180835260408601915060408160051b870101925083870160005b82811015612d1f57603f19888603018452612d0d85835161266b565b94509285019290850190600101612cf1565b5092979650505050505050565b600080600060408486031215612d4157600080fd5b83356001600160401b03811115612d5757600080fd5b612d63868287016126dd565b9094509250612d76905060208501612c52565b90509250925092565b60008060008060408587031215612d9557600080fd5b84356001600160401b0380821115612dac57600080fd5b612db888838901612a7a565b90965094506020870135915080821115612dd157600080fd5b50612c2b87828801612a7a565b600080600080600060608688031215612df657600080fd5b612dff866125ba565b945060208601356001600160401b0380821115612e1b57600080fd5b612e2789838a01612a7a565b90965094506040880135915080821115612e4057600080fd5b50612e4d88828901612a7a565b969995985093965092949392505050565b60008060408385031215612e7157600080fd5b612e7a836125ba565b9150612c8c602084016125ba565b600080600080600060a08688031215612ea057600080fd5b612ea9866125ba565b9450612eb7602087016125ba565b9350604086013592506060860135915060808601356001600160401b03811115612ee057600080fd5b61295588828901612846565b60008251612efe818460208701612647565b64173539b7b760d91b920191825250600501919050565b634e487b7160e01b600052603260045260246000fd5b6000808335601e19843603018112612f4257600080fd5b8301803591506001600160401b03821115612f5c57600080fd5b60200191503681900382131561271e57600080fd5b8183823760009101908152919050565b600181811c90821680612f9557607f821691505b602082108103612fb557634e487b7160e01b600052602260045260246000fd5b50919050565b60008351612fcd818460208801612647565b835190830190612fe1818360208801612647565b01949350505050565b601f82111561041757600081815260208120601f850160051c810160208610156130115750805b601f850160051c820191505b81811015610e565782815560010161301d565b81516001600160401b0381111561304957613049612770565b61305d816130578454612f81565b84612fea565b602080601f831160018114613092576000841561307a5750858301515b600019600386901b1c1916600185901b178555610e56565b600085815260208120601f198616915b828110156130c1578886015182559484019460019091019084016130a2565b50858210156130df5787850151600019600388901b60f8161c191681555b5050505050600190811b01905550565b6000808335601e1984360301811261310657600080fd5b8301803591506001600160401b0382111561312057600080fd5b6020019150600581901b360382131561271e57600080fd5b634e487b7160e01b600052601160045260246000fd5b60006001820161316057613160613138565b5060010190565b8082018082111561036157610361613138565b634e487b7160e01b600052601260045260246000fd5b60008261319f5761319f61317a565b500490565b8181038181111561036157610361613138565b6000826131c6576131c661317a565b500690565b7f416363657373436f6e74726f6c3a206163636f756e7420000000000000000000815260008351613203816017850160208801612647565b7001034b99036b4b9b9b4b733903937b6329607d1b6017918401918201528351613234816028840160208801612647565b01602801949350505050565b6040815260006132536040830185612a2c565b82810360208401526132658185612a2c565b95945050505050565b60006001600160a01b03808816835280871660208401525060a0604083015261329a60a0830186612a2c565b82810360608401526132ac8186612a2c565b905082810360808401526132c0818561266b565b98975050505050505050565b6000602082840312156132de57600080fd5b815161035e816125fb565b600060033d11156133025760046000803e5060005160e01c5b90565b600060443d10156133135790565b6040516003193d81016004833e81513d6001600160401b03816024840111818411171561334257505050505090565b828501915081518181111561335a5750505050505090565b843d87010160208285010111156133745750505050505090565b61338360208286010187612786565b509095945050505050565b815160009082906020808601845b838110156133b85781518552938201939082019060010161339c565b50929695505050505050565b60006001600160a01b03808816835280871660208401525084604083015283606083015260a060808301526133fc60a083018461266b565b979650505050505050565b808202811582820484141761036157610361613138565b634e487b7160e01b600052603160045260246000fdfe1799cf914cb0cb442ca7c7ac709ee40d0cb89e87351dc08d517fbda27d50c68ba2646970667358221220103e1a7ba7d6366871a345804278fe70f24bcd18475871d11fde0f37d96fa54e64736f6c63430008130033",
  "devdoc": {
    "details": "This contract handles the creation and management of items It uses ERC1155 tokens to represent items and provides methods to mint new items, claim items via Merkle tree or a whitelist, and set the base and URIs for the items. It also uses the ReentrancyGuard and Multicall contracts for security and gas efficiency.",
    "kind": "dev",
    "methods": {
      "accountsByToken(uint256)": {
        "params": {
          "id": "token id to query"
        },
        "returns": {
          "_0": "list of holder addresses"
        }
      },
      "balanceOf(address,uint256)": {
        "params": {
          "account": "address to query",
          "id": "token to query"
        },
        "returns": {
          "_0": "token balance"
        }
      },
      "balanceOfBatch(address[],uint256[])": {
        "params": {
          "accounts": "addresss to query",
          "ids": "tokens to query"
        },
        "returns": {
          "_0": "token balances"
        }
      },
      "claimMerkle(uint256,uint256,bytes32[])": {
        "params": {
          "amount": "The amount of the item to claim",
          "itemId": "The ID of the item to claim",
          "proof": "The Merkle proof for the item"
        }
      },
      "claimMerkleBatch(uint256[],uint256[],bytes32[][])": {
        "params": {
          "amounts": "The amounts of the items to claim",
          "itemsIds": "The IDs of the items to claim",
          "proofs": "The Merkle proofs for the items"
        }
      },
      "claimWhitelist(uint256[],uint256[])": {
        "params": {
          "amounts": "The amounts of the items to claim",
          "itemIds": "The IDs of the items to claim"
        }
      },
      "claimedAmount(address,uint256)": {
        "params": {
          "account": "the account to query",
          "itemId": "the item id to query"
        },
        "returns": {
          "amount": "returns the claimed amount given an account and an item id"
        }
      },
      "isApprovedForAll(address,address)": {
        "params": {
          "account": "address to query for approval granted",
          "operator": "address to query for approval received"
        },
        "returns": {
          "_0": "whether operator is approved to spend tokens held by account"
        }
      },
      "migrateToIPFS(string,bool)": {
        "details": "Only the manager role can call this function",
        "params": {
          "migrate": "Should migrate to IPFS",
          "newBaseURI": "The new base URI"
        }
      },
      "mint(address,uint256,uint256)": {
        "params": {
          "amount": "The amount of the items to mint",
          "id": "The ID of the item to mint",
          "to": "The address to mint the item to"
        }
      },
      "mintBatch(address,uint256[],uint256[])": {
        "details": "Only account with minter role can call this function",
        "params": {
          "amounts": "An array of corresponding amounts to be minted for each item ID",
          "ids": "An array of items IDs to be minted",
          "to": "The address to receive the minted items"
        }
      },
      "multicall(bytes[])": {
        "params": {
          "data": "array of function call data payloads"
        },
        "returns": {
          "results": "array of function call results"
        }
      },
      "safeBatchTransferFrom(address,address,uint256[],uint256[],bytes)": {
        "params": {
          "amounts": "list of quantities of tokens to transfer",
          "data": "data payload",
          "from": "sender of tokens",
          "ids": "list of token IDs",
          "to": "receiver of tokens"
        }
      },
      "safeTransferFrom(address,address,uint256,uint256,bytes)": {
        "params": {
          "amount": "quantity of tokens to transfer",
          "data": "data payload",
          "from": "sender of tokens",
          "id": "token ID",
          "to": "receiver of tokens"
        }
      },
      "setApprovalForAll(address,bool)": {
        "params": {
          "operator": "address whose approval status to update",
          "status": "whether operator should be considered approved"
        }
      },
      "setBaseURI(string)": {
        "details": "Only the manager role can call this function",
        "params": {
          "baseURI": "The new base URI"
        }
      },
      "setTokenURI(uint256,string)": {
        "details": "Only the manager role can call this function",
        "params": {
          "tokenId": "The ID of the item to set the URI for",
          "tokenURI": "The new item URI"
        }
      },
      "tokensByAccount(address)": {
        "params": {
          "account": "address to query"
        },
        "returns": {
          "_0": "list of token ids"
        }
      },
      "totalHolders(uint256)": {
        "params": {
          "id": "token id to query"
        },
        "returns": {
          "_0": "quantity of holders"
        }
      },
      "totalSupply(uint256)": {
        "params": {
          "id": "token id to query"
        },
        "returns": {
          "_0": "token supply"
        }
      }
    },
    "title": "ItemsFacet",
    "version": 1
  },
  "userdoc": {
    "kind": "user",
    "methods": {
      "accountsByToken(uint256)": {
        "notice": "query holders of given token"
      },
      "balanceOf(address,uint256)": {
        "notice": "query the balance of given token held by given address"
      },
      "balanceOfBatch(address[],uint256[])": {
        "notice": "query the balances of given tokens held by given addresses"
      },
      "claimMerkle(uint256,uint256,bytes32[])": {
        "notice": "Claims an item if present in the Merkle tree"
      },
      "claimMerkleBatch(uint256[],uint256[],bytes32[][])": {
        "notice": "Claims items if present in the Merkle tree"
      },
      "claimWhitelist(uint256[],uint256[])": {
        "notice": "Claims items from a whitelist"
      },
      "claimedAmount(address,uint256)": {
        "notice": "Amount claimed by an address of a specific item"
      },
      "isApprovedForAll(address,address)": {
        "notice": "query approval status of given operator with respect to given address"
      },
      "migrateToIPFS(string,bool)": {
        "notice": "Set the base URI for all items metadata"
      },
      "mint(address,uint256,uint256)": {
        "notice": "Mints a new item"
      },
      "mintBatch(address,uint256[],uint256[])": {
        "notice": "Mint a batch of items to a specific address"
      },
      "multicall(bytes[])": {
        "notice": "batch function calls to the contract and return the results of each"
      },
      "safeBatchTransferFrom(address,address,uint256[],uint256[],bytes)": {
        "notice": "transfer batch of tokens between given addresses, checking for ERC1155Receiver implementation if applicable"
      },
      "safeTransferFrom(address,address,uint256,uint256,bytes)": {
        "notice": "transfer tokens between given addresses, checking for ERC1155Receiver implementation if applicable"
      },
      "setApprovalForAll(address,bool)": {
        "notice": "grant approval to or revoke approval from given operator to spend held tokens"
      },
      "setBaseURI(string)": {
        "notice": "Set the base URI for all items metadata"
      },
      "setTokenURI(uint256,string)": {
        "notice": "Set the URI for a specific item ID"
      },
      "tokensByAccount(address)": {
        "notice": "query tokens held by given address"
      },
      "totalHolders(uint256)": {
        "notice": "query total number of holders for given token"
      },
      "totalSupply(uint256)": {
        "notice": "query total minted supply of given token"
      },
      "uri(uint256)": {
        "notice": "Override ERC1155Metadata"
      }
    },
    "version": 1
  },
  "storageLayout": {
    "storage": [],
    "types": null
  }
}