{
  "address": "0x0B1d8e5f637E881Efdbf0F409B4CA660FC1bA8ec",
  "abi": [
    {
      "inputs": [],
      "name": "ERC1155Base__ArrayLengthMismatch",
      "type": "error"
    },
    {
      "inputs": [],
      "name": "ERC1155Base__BalanceQueryZeroAddress",
      "type": "error"
    },
    {
      "inputs": [],
      "name": "ERC1155Base__BurnExceedsBalance",
      "type": "error"
    },
    {
      "inputs": [],
      "name": "ERC1155Base__BurnFromZeroAddress",
      "type": "error"
    },
    {
      "inputs": [],
      "name": "ERC1155Base__ERC1155ReceiverNotImplemented",
      "type": "error"
    },
    {
      "inputs": [],
      "name": "ERC1155Base__ERC1155ReceiverRejected",
      "type": "error"
    },
    {
      "inputs": [],
      "name": "ERC1155Base__MintToZeroAddress",
      "type": "error"
    },
    {
      "inputs": [],
      "name": "ERC1155Base__NotOwnerOrApproved",
      "type": "error"
    },
    {
      "inputs": [],
      "name": "ERC1155Base__SelfApproval",
      "type": "error"
    },
    {
      "inputs": [],
      "name": "ERC1155Base__TransferExceedsBalance",
      "type": "error"
    },
    {
      "inputs": [],
      "name": "ERC1155Base__TransferToZeroAddress",
      "type": "error"
    },
    {
      "inputs": [],
      "name": "ERC165Base__InvalidInterfaceId",
      "type": "error"
    },
    {
      "inputs": [],
      "name": "Inventory_ArcadianNotUnique",
      "type": "error"
    },
    {
      "inputs": [],
      "name": "Inventory_CouponNeededToModifyBaseSlots",
      "type": "error"
    },
    {
      "inputs": [],
      "name": "Inventory_InputDataMismatch",
      "type": "error"
    },
    {
      "inputs": [],
      "name": "Inventory_InsufficientItemBalance",
      "type": "error"
    },
    {
      "inputs": [],
      "name": "Inventory_InvalidERC1155Contract",
      "type": "error"
    },
    {
      "inputs": [],
      "name": "Inventory_InvalidSlotId",
      "type": "error"
    },
    {
      "inputs": [],
      "name": "Inventory_ItemAlreadyEquippedInSlot",
      "type": "error"
    },
    {
      "inputs": [],
      "name": "Inventory_ItemDoesNotHaveSlotAssigned",
      "type": "error"
    },
    {
      "inputs": [],
      "name": "Inventory_ItemNotSpecified",
      "type": "error"
    },
    {
      "inputs": [],
      "name": "Inventory_NonBaseSlot",
      "type": "error"
    },
    {
      "inputs": [],
      "name": "Inventory_NotAllBaseSlotsEquipped",
      "type": "error"
    },
    {
      "inputs": [],
      "name": "Inventory_NotArcadianOwner",
      "type": "error"
    },
    {
      "inputs": [],
      "name": "Inventory_SlotNotSpecified",
      "type": "error"
    },
    {
      "inputs": [],
      "name": "Inventory_UnequippingBaseSlot",
      "type": "error"
    },
    {
      "inputs": [],
      "name": "Inventory_UnequippingEmptySlot",
      "type": "error"
    },
    {
      "inputs": [],
      "name": "Inventory_UnequippingPermanentSlot",
      "type": "error"
    },
    {
      "inputs": [],
      "name": "Items_InputsLengthMistatch",
      "type": "error"
    },
    {
      "inputs": [],
      "name": "Items_InvalidItemId",
      "type": "error"
    },
    {
      "inputs": [],
      "name": "Items_ItemsBasicStatusAlreadyUpdated",
      "type": "error"
    },
    {
      "inputs": [],
      "name": "Items_MaximumItemMintsExceeded",
      "type": "error"
    },
    {
      "inputs": [],
      "name": "Items_MintingNonBasicItem",
      "type": "error"
    },
    {
      "inputs": [],
      "name": "Merkle_AlreadyClaimed",
      "type": "error"
    },
    {
      "inputs": [],
      "name": "Merkle_ClaimInactive",
      "type": "error"
    },
    {
      "inputs": [],
      "name": "Merkle_ClaimStateAlreadyUpdated",
      "type": "error"
    },
    {
      "inputs": [],
      "name": "Merkle_InvalidClaimAmount",
      "type": "error"
    },
    {
      "inputs": [],
      "name": "Merkle_NotIncludedInMerkleTree",
      "type": "error"
    },
    {
      "inputs": [],
      "name": "ReentrancyGuard__ReentrantCall",
      "type": "error"
    },
    {
      "inputs": [],
      "name": "Roles_MissingAdminRole",
      "type": "error"
    },
    {
      "inputs": [],
      "name": "Roles_MissingAutomationRole",
      "type": "error"
    },
    {
      "inputs": [],
      "name": "Roles_MissingManagerRole",
      "type": "error"
    },
    {
      "inputs": [],
      "name": "Whitelist_ClaimInactive",
      "type": "error"
    },
    {
      "inputs": [],
      "name": "Whitelist_ClaimStateAlreadyUpdated",
      "type": "error"
    },
    {
      "inputs": [],
      "name": "Whitelist_ExceedsElegibleAmount",
      "type": "error"
    },
    {
      "inputs": [],
      "name": "Whitelist_InputDataMismatch",
      "type": "error"
    },
    {
      "anonymous": false,
      "inputs": [
        {
          "indexed": true,
          "internalType": "address",
          "name": "account",
          "type": "address"
        },
        {
          "indexed": true,
          "internalType": "address",
          "name": "operator",
          "type": "address"
        },
        {
          "indexed": false,
          "internalType": "bool",
          "name": "approved",
          "type": "bool"
        }
      ],
      "name": "ApprovalForAll",
      "type": "event"
    },
    {
      "anonymous": false,
      "inputs": [
        {
          "indexed": true,
          "internalType": "address",
          "name": "by",
          "type": "address"
        },
        {
          "indexed": true,
          "internalType": "address",
          "name": "to",
          "type": "address"
        },
        {
          "indexed": false,
          "internalType": "uint256[]",
          "name": "slotsIds",
          "type": "uint256[]"
        },
        {
          "indexed": false,
          "internalType": "uint256[]",
          "name": "amounts",
          "type": "uint256[]"
        }
      ],
      "name": "BaseModifierCouponAdded",
      "type": "event"
    },
    {
      "anonymous": false,
      "inputs": [
        {
          "indexed": true,
          "internalType": "address",
          "name": "account",
          "type": "address"
        },
        {
          "indexed": false,
          "internalType": "uint256[]",
          "name": "slotsIds",
          "type": "uint256[]"
        }
      ],
      "name": "BaseModifierCouponConsumed",
      "type": "event"
    },
    {
      "anonymous": false,
      "inputs": [
        {
          "indexed": true,
          "internalType": "address",
          "name": "to",
          "type": "address"
        },
        {
          "indexed": true,
          "internalType": "uint256",
          "name": "itemId",
          "type": "uint256"
        },
        {
          "indexed": false,
          "internalType": "uint256",
          "name": "amount",
          "type": "uint256"
        }
      ],
      "name": "ItemClaimedMerkle",
      "type": "event"
    },
    {
      "anonymous": false,
      "inputs": [
        {
          "indexed": true,
          "internalType": "address",
          "name": "by",
          "type": "address"
        },
        {
          "components": [
            {
              "internalType": "address",
              "name": "erc721Contract",
              "type": "address"
            },
            {
              "internalType": "uint256",
              "name": "id",
              "type": "uint256"
            }
          ],
          "indexed": false,
          "internalType": "struct InventoryStorage.Item[]",
          "name": "items",
          "type": "tuple[]"
        }
      ],
      "name": "ItemsAllowedInSlotUpdated",
      "type": "event"
    },
    {
      "anonymous": false,
      "inputs": [
        {
          "indexed": true,
          "internalType": "address",
          "name": "by",
          "type": "address"
        },
        {
          "indexed": true,
          "internalType": "uint256",
          "name": "arcadianId",
          "type": "uint256"
        },
        {
          "indexed": false,
          "internalType": "uint256[]",
          "name": "slots",
          "type": "uint256[]"
        }
      ],
      "name": "ItemsEquipped",
      "type": "event"
    },
    {
      "anonymous": false,
      "inputs": [
        {
          "indexed": true,
          "internalType": "address",
          "name": "by",
          "type": "address"
        },
        {
          "indexed": true,
          "internalType": "uint256",
          "name": "arcadianId",
          "type": "uint256"
        },
        {
          "indexed": false,
          "internalType": "uint256[]",
          "name": "slots",
          "type": "uint256[]"
        }
      ],
      "name": "ItemsUnequipped",
      "type": "event"
    },
    {
      "anonymous": false,
      "inputs": [
        {
          "indexed": true,
          "internalType": "bytes32",
          "name": "role",
          "type": "bytes32"
        },
        {
          "indexed": true,
          "internalType": "bytes32",
          "name": "previousAdminRole",
          "type": "bytes32"
        },
        {
          "indexed": true,
          "internalType": "bytes32",
          "name": "newAdminRole",
          "type": "bytes32"
        }
      ],
      "name": "RoleAdminChanged",
      "type": "event"
    },
    {
      "anonymous": false,
      "inputs": [
        {
          "indexed": true,
          "internalType": "bytes32",
          "name": "role",
          "type": "bytes32"
        },
        {
          "indexed": true,
          "internalType": "address",
          "name": "account",
          "type": "address"
        },
        {
          "indexed": true,
          "internalType": "address",
          "name": "sender",
          "type": "address"
        }
      ],
      "name": "RoleGranted",
      "type": "event"
    },
    {
      "anonymous": false,
      "inputs": [
        {
          "indexed": true,
          "internalType": "bytes32",
          "name": "role",
          "type": "bytes32"
        },
        {
          "indexed": true,
          "internalType": "address",
          "name": "account",
          "type": "address"
        },
        {
          "indexed": true,
          "internalType": "address",
          "name": "sender",
          "type": "address"
        }
      ],
      "name": "RoleRevoked",
      "type": "event"
    },
    {
      "anonymous": false,
      "inputs": [
        {
          "indexed": true,
          "internalType": "address",
          "name": "by",
          "type": "address"
        },
        {
          "indexed": false,
          "internalType": "uint256",
          "name": "slotId",
          "type": "uint256"
        },
        {
          "indexed": false,
          "internalType": "bool",
          "name": "permanent",
          "type": "bool"
        },
        {
          "indexed": false,
          "internalType": "bool",
          "name": "isBase",
          "type": "bool"
        }
      ],
      "name": "SlotCreated",
      "type": "event"
    },
    {
      "anonymous": false,
      "inputs": [
        {
          "indexed": true,
          "internalType": "address",
          "name": "operator",
          "type": "address"
        },
        {
          "indexed": true,
          "internalType": "address",
          "name": "from",
          "type": "address"
        },
        {
          "indexed": true,
          "internalType": "address",
          "name": "to",
          "type": "address"
        },
        {
          "indexed": false,
          "internalType": "uint256[]",
          "name": "ids",
          "type": "uint256[]"
        },
        {
          "indexed": false,
          "internalType": "uint256[]",
          "name": "values",
          "type": "uint256[]"
        }
      ],
      "name": "TransferBatch",
      "type": "event"
    },
    {
      "anonymous": false,
      "inputs": [
        {
          "indexed": true,
          "internalType": "address",
          "name": "operator",
          "type": "address"
        },
        {
          "indexed": true,
          "internalType": "address",
          "name": "from",
          "type": "address"
        },
        {
          "indexed": true,
          "internalType": "address",
          "name": "to",
          "type": "address"
        },
        {
          "indexed": false,
          "internalType": "uint256",
          "name": "id",
          "type": "uint256"
        },
        {
          "indexed": false,
          "internalType": "uint256",
          "name": "value",
          "type": "uint256"
        }
      ],
      "name": "TransferSingle",
      "type": "event"
    },
    {
      "anonymous": false,
      "inputs": [
        {
          "indexed": false,
          "internalType": "string",
          "name": "value",
          "type": "string"
        },
        {
          "indexed": true,
          "internalType": "uint256",
          "name": "tokenId",
          "type": "uint256"
        }
      ],
      "name": "URI",
      "type": "event"
    },
    {
      "anonymous": false,
      "inputs": [
        {
          "indexed": false,
          "internalType": "address",
          "name": "account",
          "type": "address"
        },
        {
          "indexed": false,
          "internalType": "enum WhitelistStorage.PoolId",
          "name": "poolId",
          "type": "uint8"
        },
        {
          "indexed": false,
          "internalType": "uint256",
          "name": "totalElegibleAmount",
          "type": "uint256"
        },
        {
          "indexed": false,
          "internalType": "uint256",
          "name": "totalClaimedAmount",
          "type": "uint256"
        }
      ],
      "name": "WhitelistBalanceChanged",
      "type": "event"
    },
    {
      "inputs": [
        {
          "internalType": "bytes32",
          "name": "merkleRoot",
          "type": "bytes32"
        },
        {
          "internalType": "string",
          "name": "baseUri",
          "type": "string"
        },
        {
          "internalType": "address",
          "name": "inventoryAddress",
          "type": "address"
        }
      ],
      "name": "init",
      "outputs": [],
      "stateMutability": "nonpayable",
      "type": "function"
    }
  ],
  "transactionHash": "0xe2c38fadc29e859534d307448b1900020b39768980cbd16e7f17300ab6f12eab",
  "args": [],
  "numDeployments": 9,
  "solcInputHash": "eaad4e83ae24a470940510742ed8a7c4",
  "bytecode": "0x608060405234801561001057600080fd5b5061057f806100206000396000f3fe608060405234801561001057600080fd5b506004361061002b5760003560e01c80633d48685414610030575b600080fd5b61004361003e36600461034f565b610045565b005b610057636cdb3d1360e11b6001610113565b61007f847f7a07c093b55ad04e200605cb287859fe4640b7310d62fdbb044e26399da78c0855565b610087610189565b6100c683838080601f01602080910402602001604051908101604052809392919081815260200183838082843760009201919091525061024b92505050565b7f333d4b734a9ca3847483bf4c14a14709d21907ff5f12a881347e2fb2ad8906da805473ffffffffffffffffffffffffffffffffffffffff19166001600160a01b03831617905550505050565b6001600160e01b0319808316900361013e5760405163b0a19dd560e01b815260040160405180910390fd5b6001600160e01b03199190911660009081527ffc606c433378e3a7e0a6a531deac289b66caa1b4aa8554fd4ab2c6f1570f92d860205260409020805460ff1916911515919091179055565b7fb462f6088ae062dff8b9775f21c40e03e3712c046de379405b569825959678c97ff6deb63e40d71b08820818e006e23fcceb1fce7a499bc15b71b2526cbf9efa729081557ffb080cf2db13cf66db1ab91fee56ec02b8eebbce6818d0664d830334432235f07ff6deb63e40d71b08820818e006e23fcceb1fce7a499bc15b71b2526cbf9efa735561021d60005b3361027a565b6102486102177ff6deb63e40d71b08820818e006e23fcceb1fce7a499bc15b71b2526cbf9efa725490565b50565b7f4281b61aefbe70b3d3f684b428efca5f33077bc240e76f2808f9177c307617f46102768282610489565b5050565b60008281527fd3889cc5458b268d0544e5534672df1296288ca3f93cbd39bd6f497a5c622811602052604090206102b190826102ee565b5060405133906001600160a01b0383169084907f2f8788117e7eff1d82e926ec794901d17c78024a50270940304540a733656f0d90600090a45050565b6000610303836001600160a01b03841661030c565b90505b92915050565b6000818152600183016020526040812054610306575081546001808201845560008481526020808220909301849055845493815293810190915260409092205590565b6000806000806060858703121561036557600080fd5b84359350602085013567ffffffffffffffff8082111561038457600080fd5b818701915087601f83011261039857600080fd5b8135818111156103a757600080fd5b8860208285010111156103b957600080fd5b60208301955080945050505060408501356001600160a01b03811681146103df57600080fd5b939692955090935050565b634e487b7160e01b600052604160045260246000fd5b600181811c9082168061041457607f821691505b60208210810361043457634e487b7160e01b600052602260045260246000fd5b50919050565b601f82111561048457600081815260208120601f850160051c810160208610156104615750805b601f850160051c820191505b818110156104805782815560010161046d565b5050505b505050565b815167ffffffffffffffff8111156104a3576104a36103ea565b6104b7816104b18454610400565b8461043a565b602080601f8311600181146104ec57600084156104d45750858301515b600019600386901b1c1916600185901b178555610480565b600085815260208120601f198616915b8281101561051b578886015182559484019460019091019084016104fc565b50858210156105395787850151600019600388901b60f8161c191681555b5050505050600190811b0190555056fea2646970667358221220faac724a593c2932dd5a9390a7919e3b4c517c8bc4a6a5b93192a5a50ab4e92864736f6c63430008130033",
  "devdoc": {
    "kind": "dev",
    "methods": {},
    "version": 1
  },
  "userdoc": {
    "kind": "user",
    "methods": {},
    "version": 1
  },
  "storageLayout": {
    "storage": [],
    "types": null
  }
}