{
  "address": "0x12E38b6cb1449Ef24e0f0291Cd026cB99A845Af7",
  "abi": [
    {
      "inputs": [],
      "name": "ERC1155Base__ArrayLengthMismatch",
      "type": "error"
    },
    {
      "inputs": [],
      "name": "ERC1155Base__BalanceQueryZeroAddress",
      "type": "error"
    },
    {
      "inputs": [],
      "name": "ERC1155Base__BurnExceedsBalance",
      "type": "error"
    },
    {
      "inputs": [],
      "name": "ERC1155Base__BurnFromZeroAddress",
      "type": "error"
    },
    {
      "inputs": [],
      "name": "ERC1155Base__ERC1155ReceiverNotImplemented",
      "type": "error"
    },
    {
      "inputs": [],
      "name": "ERC1155Base__ERC1155ReceiverRejected",
      "type": "error"
    },
    {
      "inputs": [],
      "name": "ERC1155Base__MintToZeroAddress",
      "type": "error"
    },
    {
      "inputs": [],
      "name": "ERC1155Base__NotOwnerOrApproved",
      "type": "error"
    },
    {
      "inputs": [],
      "name": "ERC1155Base__SelfApproval",
      "type": "error"
    },
    {
      "inputs": [],
      "name": "ERC1155Base__TransferExceedsBalance",
      "type": "error"
    },
    {
      "inputs": [],
      "name": "ERC1155Base__TransferToZeroAddress",
      "type": "error"
    },
    {
      "inputs": [],
      "name": "EnumerableSet__IndexOutOfBounds",
      "type": "error"
    },
    {
      "inputs": [],
      "name": "Items_InputsLengthMistatch",
      "type": "error"
    },
    {
      "inputs": [],
      "name": "Items_InvalidItemId",
      "type": "error"
    },
    {
      "inputs": [],
      "name": "Items_ItemsBasicStatusAlreadyUpdated",
      "type": "error"
    },
    {
      "inputs": [],
      "name": "Items_MaximumItemMintsExceeded",
      "type": "error"
    },
    {
      "inputs": [],
      "name": "Items_MintingNonBasicItem",
      "type": "error"
    },
    {
      "inputs": [],
      "name": "Merkle_AlreadyClaimed",
      "type": "error"
    },
    {
      "inputs": [],
      "name": "Merkle_ClaimInactive",
      "type": "error"
    },
    {
      "inputs": [],
      "name": "Merkle_ClaimStateAlreadyUpdated",
      "type": "error"
    },
    {
      "inputs": [],
      "name": "Merkle_InvalidClaimAmount",
      "type": "error"
    },
    {
      "inputs": [],
      "name": "Merkle_NotIncludedInMerkleTree",
      "type": "error"
    },
    {
      "inputs": [],
      "name": "ReentrancyGuard__ReentrantCall",
      "type": "error"
    },
    {
      "inputs": [],
      "name": "Roles_MissingAdminRole",
      "type": "error"
    },
    {
      "inputs": [],
      "name": "Roles_MissingAutomationRole",
      "type": "error"
    },
    {
      "inputs": [],
      "name": "Roles_MissingManagerRole",
      "type": "error"
    },
    {
      "inputs": [],
      "name": "Whitelist_ClaimInactive",
      "type": "error"
    },
    {
      "inputs": [],
      "name": "Whitelist_ClaimStateAlreadyUpdated",
      "type": "error"
    },
    {
      "inputs": [],
      "name": "Whitelist_ExceedsElegibleAmount",
      "type": "error"
    },
    {
      "inputs": [],
      "name": "Whitelist_InputDataMismatch",
      "type": "error"
    },
    {
      "anonymous": false,
      "inputs": [
        {
          "indexed": true,
          "internalType": "address",
          "name": "account",
          "type": "address"
        },
        {
          "indexed": true,
          "internalType": "address",
          "name": "operator",
          "type": "address"
        },
        {
          "indexed": false,
          "internalType": "bool",
          "name": "approved",
          "type": "bool"
        }
      ],
      "name": "ApprovalForAll",
      "type": "event"
    },
    {
      "anonymous": false,
      "inputs": [
        {
          "indexed": true,
          "internalType": "address",
          "name": "to",
          "type": "address"
        },
        {
          "indexed": true,
          "internalType": "uint256",
          "name": "itemId",
          "type": "uint256"
        },
        {
          "indexed": false,
          "internalType": "uint256",
          "name": "amount",
          "type": "uint256"
        }
      ],
      "name": "ItemClaimedMerkle",
      "type": "event"
    },
    {
      "anonymous": false,
      "inputs": [
        {
          "indexed": true,
          "internalType": "bytes32",
          "name": "role",
          "type": "bytes32"
        },
        {
          "indexed": true,
          "internalType": "bytes32",
          "name": "previousAdminRole",
          "type": "bytes32"
        },
        {
          "indexed": true,
          "internalType": "bytes32",
          "name": "newAdminRole",
          "type": "bytes32"
        }
      ],
      "name": "RoleAdminChanged",
      "type": "event"
    },
    {
      "anonymous": false,
      "inputs": [
        {
          "indexed": true,
          "internalType": "bytes32",
          "name": "role",
          "type": "bytes32"
        },
        {
          "indexed": true,
          "internalType": "address",
          "name": "account",
          "type": "address"
        },
        {
          "indexed": true,
          "internalType": "address",
          "name": "sender",
          "type": "address"
        }
      ],
      "name": "RoleGranted",
      "type": "event"
    },
    {
      "anonymous": false,
      "inputs": [
        {
          "indexed": true,
          "internalType": "bytes32",
          "name": "role",
          "type": "bytes32"
        },
        {
          "indexed": true,
          "internalType": "address",
          "name": "account",
          "type": "address"
        },
        {
          "indexed": true,
          "internalType": "address",
          "name": "sender",
          "type": "address"
        }
      ],
      "name": "RoleRevoked",
      "type": "event"
    },
    {
      "anonymous": false,
      "inputs": [
        {
          "indexed": true,
          "internalType": "address",
          "name": "operator",
          "type": "address"
        },
        {
          "indexed": true,
          "internalType": "address",
          "name": "from",
          "type": "address"
        },
        {
          "indexed": true,
          "internalType": "address",
          "name": "to",
          "type": "address"
        },
        {
          "indexed": false,
          "internalType": "uint256[]",
          "name": "ids",
          "type": "uint256[]"
        },
        {
          "indexed": false,
          "internalType": "uint256[]",
          "name": "values",
          "type": "uint256[]"
        }
      ],
      "name": "TransferBatch",
      "type": "event"
    },
    {
      "anonymous": false,
      "inputs": [
        {
          "indexed": true,
          "internalType": "address",
          "name": "operator",
          "type": "address"
        },
        {
          "indexed": true,
          "internalType": "address",
          "name": "from",
          "type": "address"
        },
        {
          "indexed": true,
          "internalType": "address",
          "name": "to",
          "type": "address"
        },
        {
          "indexed": false,
          "internalType": "uint256",
          "name": "id",
          "type": "uint256"
        },
        {
          "indexed": false,
          "internalType": "uint256",
          "name": "value",
          "type": "uint256"
        }
      ],
      "name": "TransferSingle",
      "type": "event"
    },
    {
      "anonymous": false,
      "inputs": [
        {
          "indexed": false,
          "internalType": "string",
          "name": "value",
          "type": "string"
        },
        {
          "indexed": true,
          "internalType": "uint256",
          "name": "tokenId",
          "type": "uint256"
        }
      ],
      "name": "URI",
      "type": "event"
    },
    {
      "anonymous": false,
      "inputs": [
        {
          "indexed": false,
          "internalType": "address",
          "name": "account",
          "type": "address"
        },
        {
          "indexed": false,
          "internalType": "enum WhitelistStorage.PoolId",
          "name": "poolId",
          "type": "uint8"
        },
        {
          "indexed": false,
          "internalType": "uint256",
          "name": "totalElegibleAmount",
          "type": "uint256"
        },
        {
          "indexed": false,
          "internalType": "uint256",
          "name": "totalClaimedAmount",
          "type": "uint256"
        }
      ],
      "name": "WhitelistBalanceChanged",
      "type": "event"
    },
    {
      "inputs": [
        {
          "internalType": "uint256",
          "name": "id",
          "type": "uint256"
        }
      ],
      "name": "accountsByToken",
      "outputs": [
        {
          "internalType": "address[]",
          "name": "",
          "type": "address[]"
        }
      ],
      "stateMutability": "view",
      "type": "function"
    },
    {
      "inputs": [
        {
          "internalType": "address",
          "name": "account",
          "type": "address"
        },
        {
          "internalType": "uint256",
          "name": "id",
          "type": "uint256"
        }
      ],
      "name": "balanceOf",
      "outputs": [
        {
          "internalType": "uint256",
          "name": "",
          "type": "uint256"
        }
      ],
      "stateMutability": "view",
      "type": "function"
    },
    {
      "inputs": [
        {
          "internalType": "address[]",
          "name": "accounts",
          "type": "address[]"
        },
        {
          "internalType": "uint256[]",
          "name": "ids",
          "type": "uint256[]"
        }
      ],
      "name": "balanceOfBatch",
      "outputs": [
        {
          "internalType": "uint256[]",
          "name": "",
          "type": "uint256[]"
        }
      ],
      "stateMutability": "view",
      "type": "function"
    },
    {
      "inputs": [],
      "name": "basicItems",
      "outputs": [
        {
          "internalType": "uint256[]",
          "name": "itemIds",
          "type": "uint256[]"
        }
      ],
      "stateMutability": "view",
      "type": "function"
    },
    {
      "inputs": [
        {
          "internalType": "uint256",
          "name": "itemId",
          "type": "uint256"
        },
        {
          "internalType": "uint256",
          "name": "amount",
          "type": "uint256"
        },
        {
          "internalType": "bytes32[]",
          "name": "proof",
          "type": "bytes32[]"
        }
      ],
      "name": "claimMerkle",
      "outputs": [],
      "stateMutability": "nonpayable",
      "type": "function"
    },
    {
      "inputs": [
        {
          "internalType": "uint256[]",
          "name": "itemsIds",
          "type": "uint256[]"
        },
        {
          "internalType": "uint256[]",
          "name": "amounts",
          "type": "uint256[]"
        },
        {
          "internalType": "bytes32[][]",
          "name": "proofs",
          "type": "bytes32[][]"
        }
      ],
      "name": "claimMerkleBatch",
      "outputs": [],
      "stateMutability": "nonpayable",
      "type": "function"
    },
    {
      "inputs": [
        {
          "internalType": "uint256[]",
          "name": "itemIds",
          "type": "uint256[]"
        },
        {
          "internalType": "uint256[]",
          "name": "amounts",
          "type": "uint256[]"
        }
      ],
      "name": "claimWhitelist",
      "outputs": [],
      "stateMutability": "nonpayable",
      "type": "function"
    },
    {
      "inputs": [
        {
          "internalType": "address",
          "name": "account",
          "type": "address"
        },
        {
          "internalType": "uint256",
          "name": "itemId",
          "type": "uint256"
        }
      ],
      "name": "claimedAmount",
      "outputs": [
        {
          "internalType": "uint256",
          "name": "amount",
          "type": "uint256"
        }
      ],
      "stateMutability": "view",
      "type": "function"
    },
    {
      "inputs": [],
      "name": "getInventoryAddress",
      "outputs": [
        {
          "internalType": "address",
          "name": "",
          "type": "address"
        }
      ],
      "stateMutability": "view",
      "type": "function"
    },
    {
      "inputs": [
        {
          "internalType": "address",
          "name": "account",
          "type": "address"
        },
        {
          "internalType": "address",
          "name": "operator",
          "type": "address"
        }
      ],
      "name": "isApprovedForAll",
      "outputs": [
        {
          "internalType": "bool",
          "name": "",
          "type": "bool"
        }
      ],
      "stateMutability": "view",
      "type": "function"
    },
    {
      "inputs": [
        {
          "internalType": "uint256",
          "name": "itemId",
          "type": "uint256"
        }
      ],
      "name": "isBasic",
      "outputs": [
        {
          "internalType": "bool",
          "name": "",
          "type": "bool"
        }
      ],
      "stateMutability": "view",
      "type": "function"
    },
    {
      "inputs": [
        {
          "internalType": "string",
          "name": "newBaseURI",
          "type": "string"
        },
        {
          "internalType": "bool",
          "name": "migrate",
          "type": "bool"
        }
      ],
      "name": "migrateToIPFS",
      "outputs": [],
      "stateMutability": "nonpayable",
      "type": "function"
    },
    {
      "inputs": [
        {
          "internalType": "address",
          "name": "to",
          "type": "address"
        },
        {
          "internalType": "uint256",
          "name": "itemId",
          "type": "uint256"
        },
        {
          "internalType": "uint256",
          "name": "amount",
          "type": "uint256"
        }
      ],
      "name": "mint",
      "outputs": [],
      "stateMutability": "nonpayable",
      "type": "function"
    },
    {
      "inputs": [
        {
          "internalType": "address",
          "name": "to",
          "type": "address"
        },
        {
          "internalType": "uint256[]",
          "name": "itemIds",
          "type": "uint256[]"
        },
        {
          "internalType": "uint256[]",
          "name": "amounts",
          "type": "uint256[]"
        }
      ],
      "name": "mintBatch",
      "outputs": [],
      "stateMutability": "nonpayable",
      "type": "function"
    },
    {
      "inputs": [
        {
          "internalType": "bytes[]",
          "name": "data",
          "type": "bytes[]"
        }
      ],
      "name": "multicall",
      "outputs": [
        {
          "internalType": "bytes[]",
          "name": "results",
          "type": "bytes[]"
        }
      ],
      "stateMutability": "nonpayable",
      "type": "function"
    },
    {
      "inputs": [
        {
          "internalType": "address",
          "name": "from",
          "type": "address"
        },
        {
          "internalType": "address",
          "name": "to",
          "type": "address"
        },
        {
          "internalType": "uint256[]",
          "name": "ids",
          "type": "uint256[]"
        },
        {
          "internalType": "uint256[]",
          "name": "amounts",
          "type": "uint256[]"
        },
        {
          "internalType": "bytes",
          "name": "data",
          "type": "bytes"
        }
      ],
      "name": "safeBatchTransferFrom",
      "outputs": [],
      "stateMutability": "nonpayable",
      "type": "function"
    },
    {
      "inputs": [
        {
          "internalType": "address",
          "name": "from",
          "type": "address"
        },
        {
          "internalType": "address",
          "name": "to",
          "type": "address"
        },
        {
          "internalType": "uint256",
          "name": "id",
          "type": "uint256"
        },
        {
          "internalType": "uint256",
          "name": "amount",
          "type": "uint256"
        },
        {
          "internalType": "bytes",
          "name": "data",
          "type": "bytes"
        }
      ],
      "name": "safeTransferFrom",
      "outputs": [],
      "stateMutability": "nonpayable",
      "type": "function"
    },
    {
      "inputs": [
        {
          "internalType": "address",
          "name": "operator",
          "type": "address"
        },
        {
          "internalType": "bool",
          "name": "status",
          "type": "bool"
        }
      ],
      "name": "setApprovalForAll",
      "outputs": [],
      "stateMutability": "nonpayable",
      "type": "function"
    },
    {
      "inputs": [
        {
          "internalType": "string",
          "name": "baseURI",
          "type": "string"
        }
      ],
      "name": "setBaseURI",
      "outputs": [],
      "stateMutability": "nonpayable",
      "type": "function"
    },
    {
      "inputs": [
        {
          "internalType": "uint256",
          "name": "itemId",
          "type": "uint256"
        },
        {
          "internalType": "bool",
          "name": "basic",
          "type": "bool"
        }
      ],
      "name": "setBasic",
      "outputs": [],
      "stateMutability": "nonpayable",
      "type": "function"
    },
    {
      "inputs": [
        {
          "internalType": "uint256[]",
          "name": "itemIds",
          "type": "uint256[]"
        },
        {
          "internalType": "bool[]",
          "name": "basic",
          "type": "bool[]"
        }
      ],
      "name": "setBasicBatch",
      "outputs": [],
      "stateMutability": "nonpayable",
      "type": "function"
    },
    {
      "inputs": [
        {
          "internalType": "address",
          "name": "inventoryAddress",
          "type": "address"
        }
      ],
      "name": "setInventoryAddress",
      "outputs": [],
      "stateMutability": "nonpayable",
      "type": "function"
    },
    {
      "inputs": [
        {
          "internalType": "uint256",
          "name": "tokenId",
          "type": "uint256"
        },
        {
          "internalType": "string",
          "name": "tokenURI",
          "type": "string"
        }
      ],
      "name": "setTokenURI",
      "outputs": [],
      "stateMutability": "nonpayable",
      "type": "function"
    },
    {
      "inputs": [
        {
          "internalType": "bytes4",
          "name": "_interface",
          "type": "bytes4"
        }
      ],
      "name": "supportsInterface",
      "outputs": [
        {
          "internalType": "bool",
          "name": "",
          "type": "bool"
        }
      ],
      "stateMutability": "pure",
      "type": "function"
    },
    {
      "inputs": [
        {
          "internalType": "address",
          "name": "account",
          "type": "address"
        }
      ],
      "name": "tokensByAccount",
      "outputs": [
        {
          "internalType": "uint256[]",
          "name": "",
          "type": "uint256[]"
        }
      ],
      "stateMutability": "view",
      "type": "function"
    },
    {
      "inputs": [
        {
          "internalType": "uint256",
          "name": "id",
          "type": "uint256"
        }
      ],
      "name": "totalHolders",
      "outputs": [
        {
          "internalType": "uint256",
          "name": "",
          "type": "uint256"
        }
      ],
      "stateMutability": "view",
      "type": "function"
    },
    {
      "inputs": [
        {
          "internalType": "uint256",
          "name": "id",
          "type": "uint256"
        }
      ],
      "name": "totalSupply",
      "outputs": [
        {
          "internalType": "uint256",
          "name": "",
          "type": "uint256"
        }
      ],
      "stateMutability": "view",
      "type": "function"
    },
    {
      "inputs": [
        {
          "internalType": "uint256",
          "name": "tokenId",
          "type": "uint256"
        }
      ],
      "name": "uri",
      "outputs": [
        {
          "internalType": "string",
          "name": "",
          "type": "string"
        }
      ],
      "stateMutability": "view",
      "type": "function"
    }
  ],
  "transactionHash": "0xb35ed7a33c024ef23ee7edef5cde9766cbc964d18f163d8c5dbcaea3ab9d4246",
  "args": [],
  "numDeployments": 1,
  "solcInputHash": "687a54a673cde10a47d7d892de7d1aa9",
  "bytecode": "0x608060405234801561001057600080fd5b50613b6d806100206000396000f3fe608060405234801561001057600080fd5b50600436106101c35760003560e01c80636dcfd841116100f9578063bd85b03911610097578063ceb60ee611610071578063ceb60ee6146103fc578063d81d0a151461040f578063e985e9c514610422578063f242432a1461043557600080fd5b8063bd85b039146103c3578063c22cbb5d146103d6578063cdc11b11146103e957600080fd5b80639cbf4615116100d35780639cbf461514610368578063a22cb46514610370578063ac9650d814610383578063ba58bb17146103a357600080fd5b80636dcfd8411461032257806384118c5d1461034257806385bff2e71461035557600080fd5b80632eb2c2d6116101665780634e1273f4116101405780634e1273f4146102c95780634f7fb332146102e957806355b4b1a4146102fc57806355f804b31461030f57600080fd5b80632eb2c2d61461029057806346fac3ee146102a3578063471cf1bc146102b657600080fd5b80630fd6d21b116101a25780630fd6d21b1461024257806313ba55df14610257578063156e29f61461026a578063162094c41461027d57600080fd5b8062fdd58e146101c857806301ffc9a7146101ee5780630e89341c14610222575b600080fd5b6101db6101d6366004612c5c565b610448565b6040519081526020015b60405180910390f35b6102126101fc366004612c9c565b6001600160e01b031916636cdb3d1360e11b1490565b60405190151581526020016101e5565b610235610230366004612cc0565b61045d565b6040516101e59190612d29565b610255610250366004612d4c565b6104c7565b005b6101db610265366004612cc0565b610511565b610255610278366004612d78565b61051c565b61025561028b366004612df3565b61052c565b61025561029e366004612f87565b6105a2565b6102126102b1366004612cc0565b6105f4565b6102556102c4366004613074565b61062a565b6102dc6102d73660046130df565b610672565b6040516101e591906131e4565b6102556102f73660046131f7565b6107dc565b6101db61030a366004612c5c565b61083e565b61025561031d366004613290565b610874565b610335610330366004612cc0565b6108e9565b6040516101e591906132d1565b61025561035036600461331e565b6108f4565b6102dc610363366004613364565b610984565b6102dc61098f565b61025561037e36600461337f565b610a06565b6103966103913660046133a9565b610aba565b6040516101e591906133de565b6103ab610bd4565b6040516001600160a01b0390911681526020016101e5565b6101db6103d1366004612cc0565b610c0c565b6102556103e4366004613364565b610c3f565b6102556103f7366004613440565b610cc2565b61025561040a366004613074565b610d03565b61025561041d366004613493565b610d0f565b610212610430366004613513565b610d1c565b61025561044336600461353d565b610d69565b60006104548383610df9565b90505b92915050565b7f333d4b734a9ca3847483bf4c14a14709d21907ff5f12a881347e2fb2ad8906d75460609060ff16156104b95761049382610e57565b6040516020016104a391906135a1565b6040516020818303038152906040529050919050565b61045782610e57565b919050565b6104e66104e0600080516020613ad88339815191525490565b33611026565b6105035760405163d0befa1d60e01b815260040160405180910390fd5b61050d828261105d565b5050565b600061045782611075565b6105278383836110ab565b505050565b6105456104e0600080516020613ad88339815191525490565b6105625760405163d0befa1d60e01b815260040160405180910390fd5b6105278383838080601f01602080910402602001604051908101604052809392919081815260200183838082843760009201919091525061118992505050565b6001600160a01b03851633148015906105c257506105c08533610d1c565b155b156105df576040516212efed60e91b815260040160405180910390fd5b6105ed3386868686866111fd565b5050505050565b60008181527f333d4b734a9ca3847483bf4c14a14709d21907ff5f12a881347e2fb2ad8906d8602052604081205460ff16610457565b6106436104e0600080516020613ad88339815191525490565b6106605760405163d0befa1d60e01b815260040160405180910390fd5b61066c84848484611221565b50505050565b6060815183511461069657604051633e7e0b6d60e11b815260040160405180910390fd5b8251600080516020613b18833981519152906000906001600160401b038111156106c2576106c2612e3e565b6040519080825280602002602001820160405280156106eb578160200160208202803683370190505b50905060005b85518110156107d35760006001600160a01b0316868281518110610717576107176135ca565b60200260200101516001600160a01b0316036107465760405163db5d879760e01b815260040160405180910390fd5b82600086838151811061075b5761075b6135ca565b602002602001015181526020019081526020016000206000878381518110610785576107856135ca565b60200260200101516001600160a01b03166001600160a01b03168152602001908152602001600020548282815181106107c0576107c06135ca565b60209081029190910101526001016106f1565b50949350505050565b7f09acf4e54214992e70883cf7dcd6957ff2c71cd9e14df4bec4383bc0d11607dc805460020361081f57604051635db5c7cd60e11b815260040160405180910390fd5b6002815561083233888888888888611286565b60019055505050505050565b6001600160a01b0382166000908152600080516020613af883398151915260209081526040808320848452909152812054610454565b61088d6104e0600080516020613ad88339815191525490565b6108aa5760405163d0befa1d60e01b815260040160405180910390fd5b61050d82828080601f01602080910402602001604051908101604052809392919081815260200183838082843760009201919091525061135e92505050565b606061045782611389565b7f09acf4e54214992e70883cf7dcd6957ff2c71cd9e14df4bec4383bc0d11607dc805460020361093757604051635db5c7cd60e11b815260040160405180910390fd5b60028155604080516020808502828101820190935284825261097a9233928992899289918991829185019084908082843760009201919091525061145c92505050565b6001905550505050565b606061045782611532565b60607f333d4b734a9ca3847483bf4c14a14709d21907ff5f12a881347e2fb2ad8906d98054806020026020016040519081016040528092919081815260200182805480156109fc57602002820191906000526020600020905b8154815260200190600101908083116109e8575b5050505050905090565b6001600160a01b0382163303610a2f57604051637b30a93360e11b815260040160405180910390fd5b3360008181527f1799cf914cb0cb442ca7c7ac709ee40d0cb89e87351dc08d517fbda27d50c68c602090815260408083206001600160a01b03871680855290835292819020805460ff191686151590811790915590519081529192917f17307eab39ab6107e8899845ad3d59bd9653f200f220920489ca2b5937696c31910160405180910390a35050565b6060816001600160401b03811115610ad457610ad4612e3e565b604051908082528060200260200182016040528015610b0757816020015b6060815260200190600190039081610af25790505b50905060005b82811015610bcd5760008030868685818110610b2b57610b2b6135ca565b9050602002810190610b3d91906135e0565b604051610b4b929190613626565b600060405180830381855af49150503d8060008114610b86576040519150601f19603f3d011682016040523d82523d6000602084013e610b8b565b606091505b50915091508115610bb95780848481518110610ba957610ba96135ca565b6020026020010181905250610bc3565b3d6000803e3d6000fd5b5050600101610b0d565b5092915050565b6000610c077f333d4b734a9ca3847483bf4c14a14709d21907ff5f12a881347e2fb2ad8906da546001600160a01b031690565b905090565b60008181527fb31c2c74f86ca3ce94d901f5f5bbe66f7161eec2f7b5aa0b75a86371436424ea6020526040812054610457565b610c586104e0600080516020613ad88339815191525490565b610c755760405163d0befa1d60e01b815260040160405180910390fd5b7f333d4b734a9ca3847483bf4c14a14709d21907ff5f12a881347e2fb2ad8906da805473ffffffffffffffffffffffffffffffffffffffff19166001600160a01b03831617905550565b50565b610cdb6104e0600080516020613ad88339815191525490565b610cf85760405163d0befa1d60e01b815260040160405180910390fd5b6105278383836115fa565b61066c8484848461166d565b6105ed8585858585611719565b6001600160a01b0391821660009081527f1799cf914cb0cb442ca7c7ac709ee40d0cb89e87351dc08d517fbda27d50c68c6020908152604080832093909416825291909152205460ff1690565b6001600160a01b0385163314801590610d895750610d878533610d1c565b155b8015610dce575033610dc27f333d4b734a9ca3847483bf4c14a14709d21907ff5f12a881347e2fb2ad8906da546001600160a01b031690565b6001600160a01b031614155b15610deb576040516212efed60e91b815260040160405180910390fd5b6105ed3386868686866118f6565b60006001600160a01b038316610e225760405163db5d879760e01b815260040160405180910390fd5b600080516020613b188339815191526000928352602090815260408084206001600160a01b0395909516845293905250205490565b60008181527f4281b61aefbe70b3d3f684b428efca5f33077bc240e76f2808f9177c307617f56020526040812080546060927f4281b61aefbe70b3d3f684b428efca5f33077bc240e76f2808f9177c307617f4929091610eb690613636565b80601f0160208091040260200160405190810160405280929190818152602001828054610ee290613636565b8015610f2f5780601f10610f0457610100808354040283529160200191610f2f565b820191906000526020600020905b815481529060010190602001808311610f1257829003601f168201915b505050505090506000826000018054610f4790613636565b80601f0160208091040260200160405190810160405280929190818152602001828054610f7390613636565b8015610fc05780601f10610f9557610100808354040283529160200191610fc0565b820191906000526020600020905b815481529060010190602001808311610fa357829003601f168201915b505050505090508051600003610fd857509392505050565b81511561100b578082604051602001610ff2929190613670565b6040516020818303038152906040529350505050919050565b8061101586611912565b604051602001610ff2929190613670565b60008281527fd3889cc5458b268d0544e5534672df1296288ca3f93cbd39bd6f497a5c622811602052604081206104549083611a1a565b801561106c5761050d82611a3c565b61050d82611ab5565b60008181527fb31c2c74f86ca3ce94d901f5f5bbe66f7161eec2f7b5aa0b75a86371436424eb6020526040812061045790611bda565b60018210156110cd5760405163225c19bb60e11b815260040160405180910390fd5b6110e66104e0600080516020613ad88339815191525490565b61116e5760008281527f333d4b734a9ca3847483bf4c14a14709d21907ff5f12a881347e2fb2ad8906d8602052604090205460ff16611138576040516339fe614360e01b815260040160405180910390fd5b6003816111453385610df9565b61114f91906136b5565b111561116e576040516344dfbe5360e11b815260040160405180910390fd5b61052783838360405180602001604052806000815250611be4565b60008281527f4281b61aefbe70b3d3f684b428efca5f33077bc240e76f2808f9177c307617f5602052604090206111c0828261370e565b50817f6bb7ff708619ba0610cba295a58592e0451dee2622938c8755667688daf3529b826040516111f19190612d29565b60405180910390a25050565b61120b868686868686611cbd565b611219868686868686611e66565b505050505050565b60005b838110156105ed57611274858583818110611241576112416135ca565b9050602002013584848481811061125a5761125a6135ca565b905060200201602081019061126f91906137cd565b61105d565b8061127e816137e8565b915050611224565b8483146112a657604051634e98d26360e01b815260040160405180910390fd5b60005b8581101561135457611342888888848181106112c7576112c76135ca565b905060200201358787858181106112e0576112e06135ca565b905060200201358686868181106112f9576112f96135ca565b905060200281019061130b9190613801565b8080602002602001604051908101604052809392919081815260200183836020028082843760009201919091525061145c92505050565b8061134c816137e8565b9150506112a9565b5050505050505050565b7f4281b61aefbe70b3d3f684b428efca5f33077bc240e76f2808f9177c307617f461050d828261370e565b60008181527fb31c2c74f86ca3ce94d901f5f5bbe66f7161eec2f7b5aa0b75a86371436424eb602052604081206060916113c282611bda565b6001600160401b038111156113d9576113d9612e3e565b604051908082528060200260200182016040528015611402578160200160208202803683370190505b50905060005b61141183611bda565b811015611454576114228382611f88565b828281518110611434576114346135ca565b6001600160a01b0390921660209283029190910190910152600101611408565b509392505050565b604080516001600160a01b03861660208201528082018590526060808201859052825180830390910181526080909101909152600080516020613af8833981519152906114a98382611f94565b6114b48686866110ab565b6001600160a01b038616600090815260208381526040808320888452909152812080548692906114e59084906136b5565b909155505060405184815285906001600160a01b038816907fd4307fb1338aefb2a030cf5ea0f582a10d28ffee99fe253e5d48946f9a74a59f9060200160405180910390a3505050505050565b6001600160a01b03811660009081527fb31c2c74f86ca3ce94d901f5f5bbe66f7161eec2f7b5aa0b75a86371436424ec6020526040812060609161157582611bda565b6001600160401b0381111561158c5761158c612e3e565b6040519080825280602002602001820160405280156115b5578160200160208202803683370190505b50905060005b6115c483611bda565b811015611454576115d58382611f88565b8282815181106115e7576115e76135ca565b60209081029190910101526001016115bb565b61163983838080601f01602080910402602001604051908101604052809392919081815260200183838082843760009201919091525061135e92505050565b7f333d4b734a9ca3847483bf4c14a14709d21907ff5f12a881347e2fb2ad8906d7805460ff19169115159190911790555050565b82811461168d57604051634e98d26360e01b815260040160405180910390fd5b6000805b8481101561170c576116d4338787848181106116af576116af6135ca565b905060200201358686858181106116c8576116c86135ca565b905060200201356110ab565b8383828181106116e6576116e66135ca565b90506020020135826116f891906136b5565b915080611704816137e8565b915050611691565b506105ed600033836120de565b600161175785858080602002602001604051908101604052809392919081815260200183836020028082843760009201919091525061244892505050565b10156117765760405163225c19bb60e11b815260040160405180910390fd5b61178f6104e0600080516020613ad88339815191525490565b61187a57600080516020613af883398151915260005b84811015611877578160020160008787848181106117c5576117c56135ca565b602090810292909201358352508101919091526040016000205460ff166117ff576040516339fe614360e01b815260040160405180910390fd5b6003848483818110611813576118136135ca565b9050602002013561183c33898986818110611830576118306135ca565b90506020020135610df9565b61184691906136b5565b1115611865576040516344dfbe5360e11b815260040160405180910390fd5b8061186f816137e8565b9150506117a5565b50505b6105ed858585808060200260200160405190810160405280939291908181526020018383602002808284376000920191909152505060408051602080890282810182019093528882529093508892508791829185019084908082843760009201829052506040805160208101909152908152925061249e915050565b6119048686868686866125f5565b61121986868686868661270b565b6060816000036119395750506040805180820190915260018152600360fc1b602082015290565b8160005b8115611963578061194d816137e8565b915061195c9050600a83613860565b915061193d565b6000816001600160401b0381111561197d5761197d612e3e565b6040519080825280601f01601f1916602001820160405280156119a7576020820181803683370190505b5090505b8415611a12576119bc600183613874565b91506119c9600a86613887565b6119d49060306136b5565b60f81b8183815181106119e9576119e96135ca565b60200101906001600160f81b031916908160001a905350611a0b600a86613860565b94506119ab565b949350505050565b6001600160a01b03811660009081526001830160205260408120541515610454565b60008181527f333d4b734a9ca3847483bf4c14a14709d21907ff5f12a881347e2fb2ad8906d86020526040902054600080516020613af88339815191529060ff1661050d57600082815260028201602090815260408220805460ff19166001908117909155600390930180549384018155825290200155565b60008181527f333d4b734a9ca3847483bf4c14a14709d21907ff5f12a881347e2fb2ad8906d86020526040902054600080516020613af88339815191529060ff16611afe575050565b600381015460005b81811015611bbf5783836003018281548110611b2457611b246135ca565b906000526020600020015403611bad5760038301611b43600184613874565b81548110611b5357611b536135ca565b9060005260206000200154836003018281548110611b7357611b736135ca565b60009182526020909120015560038301805480611b9257611b9261389b565b60019003818190600052602060002001600090559055611bbf565b80611bb7816137e8565b915050611b06565b5050600091825260020160205260409020805460ff19169055565b6000610457825490565b6001600160a01b038416611c0b576040516301c8efbf60e11b815260040160405180910390fd5b611c2a33600086611c1b876127c7565b611c24876127c7565b86612812565b6000838152600080516020613b18833981519152602090815260408083206001600160a01b038816845290915281208054849290611c699084906136b5565b909155505060408051848152602081018490526001600160a01b0386169160009133917fc3d58168c5ae7397731d063d5bbf3d657854427343f4c083240f7aacaa2d0f62910160405180910390a450505050565b6001600160a01b038416611ce45760405163f5cadad560e01b815260040160405180910390fd5b8151835114611d0657604051633e7e0b6d60e11b815260040160405180910390fd5b611d14868686868686612812565b600080516020613b1883398151915260005b8451811015611e05576000858281518110611d4357611d436135ca565b602002602001015190506000858381518110611d6157611d616135ca565b602090810291909101810151600084815286835260408082206001600160a01b038e168352909352919091205490915080821115611db25760405163119ac6bb60e31b815260040160405180910390fd5b6000838152602086815260408083206001600160a01b038e811685529252808320938590039093558a168152908120805460019590950194839290611df89084906136b5565b90915550611d2692505050565b50846001600160a01b0316866001600160a01b0316886001600160a01b03167f4a39dc06d4c0dbc64b70af90fd698a233a518aa5d07e595d983b8c0526c8f7fb8787604051611e559291906138b1565b60405180910390a450505050505050565b6001600160a01b0384163b156112195760405163bc197c8160e01b81526001600160a01b0385169063bc197c8190611eaa90899089908890889088906004016138df565b6020604051808303816000875af1925050508015611ee5575060408051601f3d908101601f19168201909252611ee29181019061393d565b60015b611f4e57611ef161395a565b806308c379a003611f335750611f05613976565b80611f105750611f35565b8060405162461bcd60e51b8152600401611f2a9190612d29565b60405180910390fd5b505b60405163380147a960e01b815260040160405180910390fd5b6001600160e01b0319811663bc197c8160e01b14611f7f57604051633744db2960e01b815260040160405180910390fd5b50505050505050565b60006104548383612820565b7f7a07c093b55ad04e200605cb287859fe4640b7310d62fdbb044e26399da78c09547f7a07c093b55ad04e200605cb287859fe4640b7310d62fdbb044e26399da78c089060ff1615611ff95760405163a2f902f160e01b815260040160405180910390fd5b60008360405160200161200c91906139ff565b60408051601f19818403018152918152815160209283012060008181526002860190935291205490915060ff16156120575760405163dea0a45b60e01b815260040160405180910390fd5b6000838051906020012060405160200161207391815260200190565b604051602081830303815290604052805190602001209050600061209c8685600001548461286c565b9050806120bc57604051631006f83b60e31b815260040160405180910390fd5b50506000908152600290910160205260409020805460ff191660011790555050565b7ff38d3885e664c9638de25f02e645e1955ebebe901d7be2c2037db6a5bcbb358880600085600181111561211457612114613a35565b600181111561212557612125613a35565b815260208101919091526040016000206004015460ff1661215957604051633137c0e960e11b815260040160405180910390fd5b8181600086600181111561216f5761216f613a35565b600181111561218057612180613a35565b81526020019081526020016000206001016000856001600160a01b03166001600160a01b031681526020019081526020016000205410156121d457604051630f8a2c5f60e31b815260040160405180910390fd5b818160008660018111156121ea576121ea613a35565b60018111156121fb576121fb613a35565b81526020019081526020016000206001016000856001600160a01b03166001600160a01b03168152602001908152602001600020600082825461223e9190613874565b9091555082905081600086600181111561225a5761225a613a35565b600181111561226b5761226b613a35565b81526020019081526020016000206000016000856001600160a01b03166001600160a01b0316815260200190815260200160002060008282546122ae91906136b5565b909155508290508160008660018111156122ca576122ca613a35565b60018111156122db576122db613a35565b815260200190815260200160002060020160008282546122fb91906136b5565b9091555082905081600086600181111561231757612317613a35565b600181111561232857612328613a35565b815260200190815260200160002060030160008282546123489190613874565b909155507f6526db8cb857c3bc972db45a7984e99efaed17f7a4e51afb85c64450133cb55c9050838583600082600181111561238657612386613a35565b600181111561239757612397613a35565b81526020019081526020016000206001016000876001600160a01b03166001600160a01b03168152602001908152602001600020548460000160008960018111156123e4576123e4613a35565b60018111156123f5576123f5613a35565b81526020019081526020016000206000016000886001600160a01b03166001600160a01b031681526020019081526020016000205460405161243a9493929190613a4b565b60405180910390a150505050565b6000600019815b8351811015610bcd578184828151811061246b5761246b6135ca565b602002602001015110156124965783818151811061248b5761248b6135ca565b602002602001015191505b60010161244f565b6001600160a01b0384166124c5576040516301c8efbf60e11b815260040160405180910390fd5b81518351146124e757604051633e7e0b6d60e11b815260040160405180910390fd5b6124f633600086868686612812565b600080516020613b1883398151915260005b845181101561259557838181518110612523576125236135ca565b6020026020010151826000878481518110612540576125406135ca565b602002602001015181526020019081526020016000206000886001600160a01b03166001600160a01b03168152602001908152602001600020600082825461258891906136b5565b9091555050600101612508565b50846001600160a01b031660006001600160a01b0316336001600160a01b03167f4a39dc06d4c0dbc64b70af90fd698a233a518aa5d07e595d983b8c0526c8f7fb87876040516125e69291906138b1565b60405180910390a45050505050565b6001600160a01b03841661261c5760405163f5cadad560e01b815260040160405180910390fd5b61262b868686611c1b876127c7565b6000838152600080516020613b18833981519152602081815260408084206001600160a01b038a168552909152909120548084111561267d5760405163119ac6bb60e31b815260040160405180910390fd5b6000858152602083815260408083206001600160a01b038b811685529252808320938790039093558716815290812080548592906126bc9084906136b5565b909155505060408051858152602081018590526001600160a01b038088169289821692918b16917fc3d58168c5ae7397731d063d5bbf3d657854427343f4c083240f7aacaa2d0f629101611e55565b6001600160a01b0384163b156112195760405163f23a6e6160e01b81526001600160a01b0385169063f23a6e619061274f9089908990889088908890600401613a94565b6020604051808303816000875af192505050801561278a575060408051601f3d908101601f191682019092526127879181019061393d565b60015b61279657611ef161395a565b6001600160e01b0319811663f23a6e6160e01b14611f7f57604051633744db2960e01b815260040160405180910390fd5b60408051600180825281830190925260609160009190602080830190803683370190505090508281600081518110612801576128016135ca565b602090810291909101015292915050565b611219868686868686612911565b815460009082106128445760405163e637bf3b60e01b815260040160405180910390fd5b826000018281548110612859576128596135ca565b9060005260206000200154905092915050565b600081815b855181101561290657600086828151811061288e5761288e6135ca565b602002602001015190508083116128d05760408051602081018590529081018290526060016040516020818303038152906040528051906020012092506128fd565b60408051602081018390529081018490526060016040516020818303038152906040528051906020012092505b50600101612871565b509092149392505050565b611219868686868686836001600160a01b0316856001600160a01b031614611219576001600160a01b0385811660009081527fb31c2c74f86ca3ce94d901f5f5bbe66f7161eec2f7b5aa0b75a86371436424ec6020526040808220928716825281207fb31c2c74f86ca3ce94d901f5f5bbe66f7161eec2f7b5aa0b75a86371436424ea927fb31c2c74f86ca3ce94d901f5f5bbe66f7161eec2f7b5aa0b75a86371436424eb929091905b8751811015612af95760008782815181106129d8576129d86135ca565b602002602001015190506000811115612af05760008983815181106129ff576129ff6135ca565b6020026020010151905060006001600160a01b03168c6001600160a01b031603612a4c5760008181526020889052604081208054849290612a419084906136b5565b90915550612a819050565b81612a578d83610df9565b03612a81576000818152602087905260409020612a74908d612b06565b50612a7f8582612b1b565b505b6001600160a01b038b16612ab85760008181526020889052604081208054849290612aad908490613874565b90915550612aee9050565b612ac28b82610df9565b600003612aee576000818152602087905260409020612ae1908c612b27565b50612aec8482612b3c565b505b505b506001016129bb565b5050505050505050505050565b6000610454836001600160a01b038416612b48565b60006104548383612b48565b6000610454836001600160a01b038416612c02565b60006104548383612c02565b60008181526001830160205260408120548015610bcd57835460009085906000198101908110612b7a57612b7a6135ca565b9060005260206000200154905080856000016001840381548110612ba057612ba06135ca565b6000918252602080832090910192909255918252600186019052604090208190558354849080612bd257612bd261389b565b60008281526020808220830160001990810183905590920190925593815260019485019093525050604081205590565b6000818152600183016020526040812054610457575081546001808201845560008481526020808220909301849055845493815293810190915260409092205590565b80356001600160a01b03811681146104c257600080fd5b60008060408385031215612c6f57600080fd5b612c7883612c45565b946020939093013593505050565b6001600160e01b031981168114610cbf57600080fd5b600060208284031215612cae57600080fd5b8135612cb981612c86565b9392505050565b600060208284031215612cd257600080fd5b5035919050565b60005b83811015612cf4578181015183820152602001612cdc565b50506000910152565b60008151808452612d15816020860160208601612cd9565b601f01601f19169290920160200192915050565b6020815260006104546020830184612cfd565b803580151581146104c257600080fd5b60008060408385031215612d5f57600080fd5b82359150612d6f60208401612d3c565b90509250929050565b600080600060608486031215612d8d57600080fd5b612d9684612c45565b95602085013595506040909401359392505050565b60008083601f840112612dbd57600080fd5b5081356001600160401b03811115612dd457600080fd5b602083019150836020828501011115612dec57600080fd5b9250929050565b600080600060408486031215612e0857600080fd5b8335925060208401356001600160401b03811115612e2557600080fd5b612e3186828701612dab565b9497909650939450505050565b634e487b7160e01b600052604160045260246000fd5b601f8201601f191681016001600160401b0381118282101715612e7957612e79612e3e565b6040525050565b60006001600160401b03821115612e9957612e99612e3e565b5060051b60200190565b600082601f830112612eb457600080fd5b81356020612ec182612e80565b604051612ece8282612e54565b83815260059390931b8501820192828101915086841115612eee57600080fd5b8286015b84811015612f095780358352918301918301612ef2565b509695505050505050565b600082601f830112612f2557600080fd5b81356001600160401b03811115612f3e57612f3e612e3e565b604051612f55601f8301601f191660200182612e54565b818152846020838601011115612f6a57600080fd5b816020850160208301376000918101602001919091529392505050565b600080600080600060a08688031215612f9f57600080fd5b612fa886612c45565b9450612fb660208701612c45565b935060408601356001600160401b0380821115612fd257600080fd5b612fde89838a01612ea3565b94506060880135915080821115612ff457600080fd5b61300089838a01612ea3565b9350608088013591508082111561301657600080fd5b5061302388828901612f14565b9150509295509295909350565b60008083601f84011261304257600080fd5b5081356001600160401b0381111561305957600080fd5b6020830191508360208260051b8501011115612dec57600080fd5b6000806000806040858703121561308a57600080fd5b84356001600160401b03808211156130a157600080fd5b6130ad88838901613030565b909650945060208701359150808211156130c657600080fd5b506130d387828801613030565b95989497509550505050565b600080604083850312156130f257600080fd5b82356001600160401b038082111561310957600080fd5b818501915085601f83011261311d57600080fd5b8135602061312a82612e80565b6040516131378282612e54565b83815260059390931b850182019282810191508984111561315757600080fd5b948201945b8386101561317c5761316d86612c45565b8252948201949082019061315c565b9650508601359250508082111561319257600080fd5b5061319f85828601612ea3565b9150509250929050565b600081518084526020808501945080840160005b838110156131d9578151875295820195908201906001016131bd565b509495945050505050565b60208152600061045460208301846131a9565b6000806000806000806060878903121561321057600080fd5b86356001600160401b038082111561322757600080fd5b6132338a838b01613030565b9098509650602089013591508082111561324c57600080fd5b6132588a838b01613030565b9096509450604089013591508082111561327157600080fd5b5061327e89828a01613030565b979a9699509497509295939492505050565b600080602083850312156132a357600080fd5b82356001600160401b038111156132b957600080fd5b6132c585828601612dab565b90969095509350505050565b6020808252825182820181905260009190848201906040850190845b818110156133125783516001600160a01b0316835292840192918401916001016132ed565b50909695505050505050565b6000806000806060858703121561333457600080fd5b843593506020850135925060408501356001600160401b0381111561335857600080fd5b6130d387828801613030565b60006020828403121561337657600080fd5b61045482612c45565b6000806040838503121561339257600080fd5b61339b83612c45565b9150612d6f60208401612d3c565b600080602083850312156133bc57600080fd5b82356001600160401b038111156133d257600080fd5b6132c585828601613030565b6000602080830181845280855180835260408601915060408160051b870101925083870160005b8281101561343357603f19888603018452613421858351612cfd565b94509285019290850190600101613405565b5092979650505050505050565b60008060006040848603121561345557600080fd5b83356001600160401b0381111561346b57600080fd5b61347786828701612dab565b909450925061348a905060208501612d3c565b90509250925092565b6000806000806000606086880312156134ab57600080fd5b6134b486612c45565b945060208601356001600160401b03808211156134d057600080fd5b6134dc89838a01613030565b909650945060408801359150808211156134f557600080fd5b5061350288828901613030565b969995985093965092949392505050565b6000806040838503121561352657600080fd5b61352f83612c45565b9150612d6f60208401612c45565b600080600080600060a0868803121561355557600080fd5b61355e86612c45565b945061356c60208701612c45565b9350604086013592506060860135915060808601356001600160401b0381111561359557600080fd5b61302388828901612f14565b600082516135b3818460208701612cd9565b64173539b7b760d91b920191825250600501919050565b634e487b7160e01b600052603260045260246000fd5b6000808335601e198436030181126135f757600080fd5b8301803591506001600160401b0382111561361157600080fd5b602001915036819003821315612dec57600080fd5b8183823760009101908152919050565b600181811c9082168061364a57607f821691505b60208210810361366a57634e487b7160e01b600052602260045260246000fd5b50919050565b60008351613682818460208801612cd9565b835190830190613696818360208801612cd9565b01949350505050565b634e487b7160e01b600052601160045260246000fd5b808201808211156104575761045761369f565b601f82111561052757600081815260208120601f850160051c810160208610156136ef5750805b601f850160051c820191505b81811015611219578281556001016136fb565b81516001600160401b0381111561372757613727612e3e565b61373b816137358454613636565b846136c8565b602080601f83116001811461377057600084156137585750858301515b600019600386901b1c1916600185901b178555611219565b600085815260208120601f198616915b8281101561379f57888601518255948401946001909101908401613780565b50858210156137bd5787850151600019600388901b60f8161c191681555b5050505050600190811b01905550565b6000602082840312156137df57600080fd5b61045482612d3c565b6000600182016137fa576137fa61369f565b5060010190565b6000808335601e1984360301811261381857600080fd5b8301803591506001600160401b0382111561383257600080fd5b6020019150600581901b3603821315612dec57600080fd5b634e487b7160e01b600052601260045260246000fd5b60008261386f5761386f61384a565b500490565b818103818111156104575761045761369f565b6000826138965761389661384a565b500690565b634e487b7160e01b600052603160045260246000fd5b6040815260006138c460408301856131a9565b82810360208401526138d681856131a9565b95945050505050565b60006001600160a01b03808816835280871660208401525060a0604083015261390b60a08301866131a9565b828103606084015261391d81866131a9565b905082810360808401526139318185612cfd565b98975050505050505050565b60006020828403121561394f57600080fd5b8151612cb981612c86565b600060033d11156139735760046000803e5060005160e01c5b90565b600060443d10156139845790565b6040516003193d81016004833e81513d6001600160401b0381602484011181841117156139b357505050505090565b82850191508151818111156139cb5750505050505090565b843d87010160208285010111156139e55750505050505090565b6139f460208286010187612e54565b509095945050505050565b815160009082906020808601845b83811015613a2957815185529382019390820190600101613a0d565b50929695505050505050565b634e487b7160e01b600052602160045260246000fd5b6001600160a01b03851681526080810160028510613a7957634e487b7160e01b600052602160045260246000fd5b84602083015283604083015282606083015295945050505050565b60006001600160a01b03808816835280871660208401525084604083015283606083015260a06080830152613acc60a0830184612cfd565b97965050505050505056fef6deb63e40d71b08820818e006e23fcceb1fce7a499bc15b71b2526cbf9efa72333d4b734a9ca3847483bf4c14a14709d21907ff5f12a881347e2fb2ad8906d61799cf914cb0cb442ca7c7ac709ee40d0cb89e87351dc08d517fbda27d50c68ba2646970667358221220ccc00616afcce079e574b5b940ac13053bcef2deaacfb1b2546d60a717e3996164736f6c63430008130033",
  "devdoc": {
    "details": "This contract handles the creation and management of items It uses ERC1155 tokens to represent items and provides methods to mint new items, claim items via Merkle tree or a whitelist, and set the base and URIs for the items. It also uses the ReentrancyGuard and Multicall contracts for security and gas efficiency.",
    "kind": "dev",
    "methods": {
      "accountsByToken(uint256)": {
        "params": {
          "id": "token id to query"
        },
        "returns": {
          "_0": "list of holder addresses"
        }
      },
      "balanceOf(address,uint256)": {
        "params": {
          "account": "address to query",
          "id": "token to query"
        },
        "returns": {
          "_0": "token balance"
        }
      },
      "balanceOfBatch(address[],uint256[])": {
        "params": {
          "accounts": "addresss to query",
          "ids": "tokens to query"
        },
        "returns": {
          "_0": "token balances"
        }
      },
      "basicItems()": {
        "returns": {
          "itemIds": "The IDs of all the basic items"
        }
      },
      "claimMerkle(uint256,uint256,bytes32[])": {
        "params": {
          "amount": "The amount of the item to claim",
          "itemId": "The ID of the item to claim",
          "proof": "The Merkle proof for the item"
        }
      },
      "claimMerkleBatch(uint256[],uint256[],bytes32[][])": {
        "params": {
          "amounts": "The amounts of the items to claim",
          "itemsIds": "The IDs of the items to claim",
          "proofs": "The Merkle proofs for the items"
        }
      },
      "claimWhitelist(uint256[],uint256[])": {
        "params": {
          "amounts": "The amounts of the items to claim",
          "itemIds": "The IDs of the items to claim"
        }
      },
      "claimedAmount(address,uint256)": {
        "params": {
          "account": "the account to query",
          "itemId": "the item id to query"
        },
        "returns": {
          "amount": "returns the claimed amount given an account and an item id"
        }
      },
      "getInventoryAddress()": {
        "details": "Returns the current inventory address",
        "returns": {
          "_0": "The address of the inventory contract"
        }
      },
      "isApprovedForAll(address,address)": {
        "params": {
          "account": "address to query for approval granted",
          "operator": "address to query for approval received"
        },
        "returns": {
          "_0": "whether operator is approved to spend tokens held by account"
        }
      },
      "isBasic(uint256)": {
        "params": {
          "itemId": "The item ID to query "
        },
        "returns": {
          "_0": "isBasic Bool that indicates if an item is basic"
        }
      },
      "migrateToIPFS(string,bool)": {
        "details": "Only the manager role can call this function",
        "params": {
          "migrate": "Should migrate to IPFS",
          "newBaseURI": "The new base URI"
        }
      },
      "mint(address,uint256,uint256)": {
        "params": {
          "amount": "The item amount to be minted",
          "itemId": "The ID of the item to mint",
          "to": "The address to mint the item to"
        }
      },
      "mintBatch(address,uint256[],uint256[])": {
        "params": {
          "amounts": "The items amounts to be minted",
          "itemIds": "An array of items IDs to be minted",
          "to": "The address to receive the minted items"
        }
      },
      "multicall(bytes[])": {
        "params": {
          "data": "array of function call data payloads"
        },
        "returns": {
          "results": "array of function call results"
        }
      },
      "safeBatchTransferFrom(address,address,uint256[],uint256[],bytes)": {
        "params": {
          "amounts": "list of quantities of tokens to transfer",
          "data": "data payload",
          "from": "sender of tokens",
          "ids": "list of token IDs",
          "to": "receiver of tokens"
        }
      },
      "safeTransferFrom(address,address,uint256,uint256,bytes)": {
        "params": {
          "amount": "quantity of tokens to transfer",
          "data": "data payload",
          "from": "sender of tokens",
          "id": "token ID",
          "to": "receiver of tokens"
        }
      },
      "setApprovalForAll(address,bool)": {
        "params": {
          "operator": "address whose approval status to update",
          "status": "whether operator should be considered approved"
        }
      },
      "setBaseURI(string)": {
        "details": "Only the manager role can call this function",
        "params": {
          "baseURI": "The new base URI"
        }
      },
      "setBasic(uint256,bool)": {
        "params": {
          "basic": "A boolean representing if a item shoud be set as basic",
          "itemId": "The item ID"
        }
      },
      "setBasicBatch(uint256[],bool[])": {
        "params": {
          "basic": "An array of boolean's representing if the items shoud be set as basic",
          "itemIds": "The IDs of the items to set as basic"
        }
      },
      "setInventoryAddress(address)": {
        "details": "Sets the inventory address",
        "params": {
          "inventoryAddress": "The new address of the inventory contract"
        }
      },
      "setTokenURI(uint256,string)": {
        "details": "Only the manager role can call this function",
        "params": {
          "tokenId": "The ID of the item to set the URI for",
          "tokenURI": "The new item URI"
        }
      },
      "tokensByAccount(address)": {
        "params": {
          "account": "address to query"
        },
        "returns": {
          "_0": "list of token ids"
        }
      },
      "totalHolders(uint256)": {
        "params": {
          "id": "token id to query"
        },
        "returns": {
          "_0": "quantity of holders"
        }
      },
      "totalSupply(uint256)": {
        "params": {
          "id": "token id to query"
        },
        "returns": {
          "_0": "token supply"
        }
      }
    },
    "title": "ItemsFacet",
    "version": 1
  },
  "userdoc": {
    "kind": "user",
    "methods": {
      "accountsByToken(uint256)": {
        "notice": "query holders of given token"
      },
      "balanceOf(address,uint256)": {
        "notice": "query the balance of given token held by given address"
      },
      "balanceOfBatch(address[],uint256[])": {
        "notice": "query the balances of given tokens held by given addresses"
      },
      "basicItems()": {
        "notice": "Returns all the basic items"
      },
      "claimMerkle(uint256,uint256,bytes32[])": {
        "notice": "Claims an item if present in the Merkle tree"
      },
      "claimMerkleBatch(uint256[],uint256[],bytes32[][])": {
        "notice": "Claims items if present in the Merkle tree"
      },
      "claimWhitelist(uint256[],uint256[])": {
        "notice": "Claims items from a whitelist"
      },
      "claimedAmount(address,uint256)": {
        "notice": "Amount claimed by an address of a specific item"
      },
      "isApprovedForAll(address,address)": {
        "notice": "query approval status of given operator with respect to given address"
      },
      "isBasic(uint256)": {
        "notice": "Returns true if an item is basic, false otherwise"
      },
      "migrateToIPFS(string,bool)": {
        "notice": "Set the base URI for all items metadata"
      },
      "mint(address,uint256,uint256)": {
        "notice": "Mints a new item. Only minter role account can mint non-basic items"
      },
      "mintBatch(address,uint256[],uint256[])": {
        "notice": "Mint a batch of items to a specific address. Only minter role account can mint non-basic items"
      },
      "multicall(bytes[])": {
        "notice": "batch function calls to the contract and return the results of each"
      },
      "safeBatchTransferFrom(address,address,uint256[],uint256[],bytes)": {
        "notice": "transfer batch of tokens between given addresses, checking for ERC1155Receiver implementation if applicable"
      },
      "safeTransferFrom(address,address,uint256,uint256,bytes)": {
        "notice": "transfer tokens between given addresses, checking for ERC1155Receiver implementation if applicable"
      },
      "setApprovalForAll(address,bool)": {
        "notice": "grant approval to or revoke approval from given operator to spend held tokens"
      },
      "setBaseURI(string)": {
        "notice": "Set the base URI for all items metadata"
      },
      "setBasic(uint256,bool)": {
        "notice": "Add an item to the basic item pool"
      },
      "setBasicBatch(uint256[],bool[])": {
        "notice": "Add items to the basic item pool"
      },
      "setTokenURI(uint256,string)": {
        "notice": "Set the URI for a specific item ID"
      },
      "tokensByAccount(address)": {
        "notice": "query tokens held by given address"
      },
      "totalHolders(uint256)": {
        "notice": "query total number of holders for given token"
      },
      "totalSupply(uint256)": {
        "notice": "query total minted supply of given token"
      },
      "uri(uint256)": {
        "notice": "Override ERC1155Metadata"
      }
    },
    "version": 1
  },
  "storageLayout": {
    "storage": [],
    "types": null
  }
}