{
  "address": "0xc2DF84fa3D0e5212f43DfEE8b2ed65513FF7D8D7",
  "abi": [
    {
      "inputs": [],
      "name": "ERC1155Base__ArrayLengthMismatch",
      "type": "error"
    },
    {
      "inputs": [],
      "name": "ERC1155Base__BalanceQueryZeroAddress",
      "type": "error"
    },
    {
      "inputs": [],
      "name": "ERC1155Base__BurnExceedsBalance",
      "type": "error"
    },
    {
      "inputs": [],
      "name": "ERC1155Base__BurnFromZeroAddress",
      "type": "error"
    },
    {
      "inputs": [],
      "name": "ERC1155Base__ERC1155ReceiverNotImplemented",
      "type": "error"
    },
    {
      "inputs": [],
      "name": "ERC1155Base__ERC1155ReceiverRejected",
      "type": "error"
    },
    {
      "inputs": [],
      "name": "ERC1155Base__MintToZeroAddress",
      "type": "error"
    },
    {
      "inputs": [],
      "name": "ERC1155Base__NotOwnerOrApproved",
      "type": "error"
    },
    {
      "inputs": [],
      "name": "ERC1155Base__SelfApproval",
      "type": "error"
    },
    {
      "inputs": [],
      "name": "ERC1155Base__TransferExceedsBalance",
      "type": "error"
    },
    {
      "inputs": [],
      "name": "ERC1155Base__TransferToZeroAddress",
      "type": "error"
    },
    {
      "inputs": [],
      "name": "EnumerableSet__IndexOutOfBounds",
      "type": "error"
    },
    {
      "inputs": [],
      "name": "ReentrancyGuard__ReentrantCall",
      "type": "error"
    },
    {
      "inputs": [],
      "name": "UintUtils__InsufficientHexLength",
      "type": "error"
    },
    {
      "anonymous": false,
      "inputs": [
        {
          "indexed": true,
          "internalType": "address",
          "name": "account",
          "type": "address"
        },
        {
          "indexed": true,
          "internalType": "address",
          "name": "operator",
          "type": "address"
        },
        {
          "indexed": false,
          "internalType": "bool",
          "name": "approved",
          "type": "bool"
        }
      ],
      "name": "ApprovalForAll",
      "type": "event"
    },
    {
      "anonymous": false,
      "inputs": [
        {
          "indexed": true,
          "internalType": "address",
          "name": "to",
          "type": "address"
        },
        {
          "indexed": true,
          "internalType": "uint256",
          "name": "itemId",
          "type": "uint256"
        },
        {
          "indexed": false,
          "internalType": "uint256",
          "name": "amount",
          "type": "uint256"
        }
      ],
      "name": "ItemClaimedMerkle",
      "type": "event"
    },
    {
      "anonymous": false,
      "inputs": [
        {
          "indexed": true,
          "internalType": "bytes32",
          "name": "role",
          "type": "bytes32"
        },
        {
          "indexed": true,
          "internalType": "bytes32",
          "name": "previousAdminRole",
          "type": "bytes32"
        },
        {
          "indexed": true,
          "internalType": "bytes32",
          "name": "newAdminRole",
          "type": "bytes32"
        }
      ],
      "name": "RoleAdminChanged",
      "type": "event"
    },
    {
      "anonymous": false,
      "inputs": [
        {
          "indexed": true,
          "internalType": "bytes32",
          "name": "role",
          "type": "bytes32"
        },
        {
          "indexed": true,
          "internalType": "address",
          "name": "account",
          "type": "address"
        },
        {
          "indexed": true,
          "internalType": "address",
          "name": "sender",
          "type": "address"
        }
      ],
      "name": "RoleGranted",
      "type": "event"
    },
    {
      "anonymous": false,
      "inputs": [
        {
          "indexed": true,
          "internalType": "bytes32",
          "name": "role",
          "type": "bytes32"
        },
        {
          "indexed": true,
          "internalType": "address",
          "name": "account",
          "type": "address"
        },
        {
          "indexed": true,
          "internalType": "address",
          "name": "sender",
          "type": "address"
        }
      ],
      "name": "RoleRevoked",
      "type": "event"
    },
    {
      "anonymous": false,
      "inputs": [
        {
          "indexed": true,
          "internalType": "address",
          "name": "operator",
          "type": "address"
        },
        {
          "indexed": true,
          "internalType": "address",
          "name": "from",
          "type": "address"
        },
        {
          "indexed": true,
          "internalType": "address",
          "name": "to",
          "type": "address"
        },
        {
          "indexed": false,
          "internalType": "uint256[]",
          "name": "ids",
          "type": "uint256[]"
        },
        {
          "indexed": false,
          "internalType": "uint256[]",
          "name": "values",
          "type": "uint256[]"
        }
      ],
      "name": "TransferBatch",
      "type": "event"
    },
    {
      "anonymous": false,
      "inputs": [
        {
          "indexed": true,
          "internalType": "address",
          "name": "operator",
          "type": "address"
        },
        {
          "indexed": true,
          "internalType": "address",
          "name": "from",
          "type": "address"
        },
        {
          "indexed": true,
          "internalType": "address",
          "name": "to",
          "type": "address"
        },
        {
          "indexed": false,
          "internalType": "uint256",
          "name": "id",
          "type": "uint256"
        },
        {
          "indexed": false,
          "internalType": "uint256",
          "name": "value",
          "type": "uint256"
        }
      ],
      "name": "TransferSingle",
      "type": "event"
    },
    {
      "anonymous": false,
      "inputs": [
        {
          "indexed": false,
          "internalType": "string",
          "name": "value",
          "type": "string"
        },
        {
          "indexed": true,
          "internalType": "uint256",
          "name": "tokenId",
          "type": "uint256"
        }
      ],
      "name": "URI",
      "type": "event"
    },
    {
      "anonymous": false,
      "inputs": [
        {
          "indexed": false,
          "internalType": "address",
          "name": "account",
          "type": "address"
        },
        {
          "indexed": false,
          "internalType": "int256",
          "name": "amount",
          "type": "int256"
        },
        {
          "indexed": false,
          "internalType": "uint256",
          "name": "totalElegibleAmount",
          "type": "uint256"
        },
        {
          "indexed": false,
          "internalType": "uint256",
          "name": "totalClaimedAmount",
          "type": "uint256"
        }
      ],
      "name": "WhitelistBalanceChanged",
      "type": "event"
    },
    {
      "inputs": [
        {
          "internalType": "uint256",
          "name": "id",
          "type": "uint256"
        }
      ],
      "name": "accountsByToken",
      "outputs": [
        {
          "internalType": "address[]",
          "name": "",
          "type": "address[]"
        }
      ],
      "stateMutability": "view",
      "type": "function"
    },
    {
      "inputs": [
        {
          "internalType": "address",
          "name": "account",
          "type": "address"
        },
        {
          "internalType": "uint256",
          "name": "id",
          "type": "uint256"
        }
      ],
      "name": "balanceOf",
      "outputs": [
        {
          "internalType": "uint256",
          "name": "",
          "type": "uint256"
        }
      ],
      "stateMutability": "view",
      "type": "function"
    },
    {
      "inputs": [
        {
          "internalType": "address[]",
          "name": "accounts",
          "type": "address[]"
        },
        {
          "internalType": "uint256[]",
          "name": "ids",
          "type": "uint256[]"
        }
      ],
      "name": "balanceOfBatch",
      "outputs": [
        {
          "internalType": "uint256[]",
          "name": "",
          "type": "uint256[]"
        }
      ],
      "stateMutability": "view",
      "type": "function"
    },
    {
      "inputs": [
        {
          "internalType": "uint256",
          "name": "tokenId",
          "type": "uint256"
        },
        {
          "internalType": "uint256",
          "name": "amount",
          "type": "uint256"
        },
        {
          "internalType": "bytes32[]",
          "name": "proof",
          "type": "bytes32[]"
        }
      ],
      "name": "claimMerkle",
      "outputs": [],
      "stateMutability": "nonpayable",
      "type": "function"
    },
    {
      "inputs": [
        {
          "internalType": "uint256[]",
          "name": "tokenIds",
          "type": "uint256[]"
        },
        {
          "internalType": "uint256[]",
          "name": "amounts",
          "type": "uint256[]"
        },
        {
          "internalType": "bytes32[][]",
          "name": "proofs",
          "type": "bytes32[][]"
        }
      ],
      "name": "claimMerkleBatch",
      "outputs": [],
      "stateMutability": "nonpayable",
      "type": "function"
    },
    {
      "inputs": [
        {
          "internalType": "uint256[]",
          "name": "itemIds",
          "type": "uint256[]"
        },
        {
          "internalType": "uint256[]",
          "name": "amounts",
          "type": "uint256[]"
        }
      ],
      "name": "claimWhitelist",
      "outputs": [],
      "stateMutability": "nonpayable",
      "type": "function"
    },
    {
      "inputs": [
        {
          "internalType": "address",
          "name": "account",
          "type": "address"
        },
        {
          "internalType": "address",
          "name": "operator",
          "type": "address"
        }
      ],
      "name": "isApprovedForAll",
      "outputs": [
        {
          "internalType": "bool",
          "name": "",
          "type": "bool"
        }
      ],
      "stateMutability": "view",
      "type": "function"
    },
    {
      "inputs": [
        {
          "internalType": "address",
          "name": "to",
          "type": "address"
        },
        {
          "internalType": "uint256",
          "name": "id",
          "type": "uint256"
        },
        {
          "internalType": "uint256",
          "name": "amount",
          "type": "uint256"
        }
      ],
      "name": "mint",
      "outputs": [],
      "stateMutability": "nonpayable",
      "type": "function"
    },
    {
      "inputs": [
        {
          "internalType": "address",
          "name": "to",
          "type": "address"
        },
        {
          "internalType": "uint256[]",
          "name": "ids",
          "type": "uint256[]"
        },
        {
          "internalType": "uint256[]",
          "name": "amounts",
          "type": "uint256[]"
        }
      ],
      "name": "mintBatch",
      "outputs": [],
      "stateMutability": "nonpayable",
      "type": "function"
    },
    {
      "inputs": [
        {
          "internalType": "bytes[]",
          "name": "data",
          "type": "bytes[]"
        }
      ],
      "name": "multicall",
      "outputs": [
        {
          "internalType": "bytes[]",
          "name": "results",
          "type": "bytes[]"
        }
      ],
      "stateMutability": "nonpayable",
      "type": "function"
    },
    {
      "inputs": [
        {
          "internalType": "address",
          "name": "from",
          "type": "address"
        },
        {
          "internalType": "address",
          "name": "to",
          "type": "address"
        },
        {
          "internalType": "uint256[]",
          "name": "ids",
          "type": "uint256[]"
        },
        {
          "internalType": "uint256[]",
          "name": "amounts",
          "type": "uint256[]"
        },
        {
          "internalType": "bytes",
          "name": "data",
          "type": "bytes"
        }
      ],
      "name": "safeBatchTransferFrom",
      "outputs": [],
      "stateMutability": "nonpayable",
      "type": "function"
    },
    {
      "inputs": [
        {
          "internalType": "address",
          "name": "from",
          "type": "address"
        },
        {
          "internalType": "address",
          "name": "to",
          "type": "address"
        },
        {
          "internalType": "uint256",
          "name": "id",
          "type": "uint256"
        },
        {
          "internalType": "uint256",
          "name": "amount",
          "type": "uint256"
        },
        {
          "internalType": "bytes",
          "name": "data",
          "type": "bytes"
        }
      ],
      "name": "safeTransferFrom",
      "outputs": [],
      "stateMutability": "nonpayable",
      "type": "function"
    },
    {
      "inputs": [
        {
          "internalType": "address",
          "name": "operator",
          "type": "address"
        },
        {
          "internalType": "bool",
          "name": "status",
          "type": "bool"
        }
      ],
      "name": "setApprovalForAll",
      "outputs": [],
      "stateMutability": "nonpayable",
      "type": "function"
    },
    {
      "inputs": [
        {
          "internalType": "string",
          "name": "baseURI",
          "type": "string"
        }
      ],
      "name": "setBaseURI",
      "outputs": [],
      "stateMutability": "nonpayable",
      "type": "function"
    },
    {
      "inputs": [
        {
          "internalType": "uint256",
          "name": "tokenId",
          "type": "uint256"
        },
        {
          "internalType": "string",
          "name": "tokenURI",
          "type": "string"
        }
      ],
      "name": "setTokenURI",
      "outputs": [],
      "stateMutability": "nonpayable",
      "type": "function"
    },
    {
      "inputs": [
        {
          "internalType": "bytes4",
          "name": "",
          "type": "bytes4"
        }
      ],
      "name": "supportsInterface",
      "outputs": [
        {
          "internalType": "bool",
          "name": "",
          "type": "bool"
        }
      ],
      "stateMutability": "pure",
      "type": "function"
    },
    {
      "inputs": [
        {
          "internalType": "address",
          "name": "account",
          "type": "address"
        }
      ],
      "name": "tokensByAccount",
      "outputs": [
        {
          "internalType": "uint256[]",
          "name": "",
          "type": "uint256[]"
        }
      ],
      "stateMutability": "view",
      "type": "function"
    },
    {
      "inputs": [
        {
          "internalType": "uint256",
          "name": "id",
          "type": "uint256"
        }
      ],
      "name": "totalHolders",
      "outputs": [
        {
          "internalType": "uint256",
          "name": "",
          "type": "uint256"
        }
      ],
      "stateMutability": "view",
      "type": "function"
    },
    {
      "inputs": [
        {
          "internalType": "uint256",
          "name": "id",
          "type": "uint256"
        }
      ],
      "name": "totalSupply",
      "outputs": [
        {
          "internalType": "uint256",
          "name": "",
          "type": "uint256"
        }
      ],
      "stateMutability": "view",
      "type": "function"
    },
    {
      "inputs": [
        {
          "internalType": "uint256",
          "name": "tokenId",
          "type": "uint256"
        }
      ],
      "name": "uri",
      "outputs": [
        {
          "internalType": "string",
          "name": "",
          "type": "string"
        }
      ],
      "stateMutability": "view",
      "type": "function"
    }
  ],
  "transactionHash": "0xb8e98c0e2e8c12d323ac1a18eb2844f15a6484df618e6b8404806e7a75f53a6b",
  "args": [],
  "numDeployments": 3,
  "solcInputHash": "36c22ead28225540fc85e58fc9faf39e",
  "bytecode": "0x608060405234801561001057600080fd5b506131ed806100206000396000f3fe608060405234801561001057600080fd5b506004361061012b5760003560e01c80636dcfd841116100ad578063bd85b03911610071578063bd85b039146102a7578063ceb60ee6146102ba578063d81d0a15146102cd578063e985e9c5146102e0578063f242432a146102f357600080fd5b80636dcfd8411461022e57806384118c5d1461024e57806385bff2e714610261578063a22cb46514610274578063ac9650d81461028757600080fd5b8063162094c4116100f4578063162094c4146101c25780632eb2c2d6146101d55780634e1273f4146101e85780634f7fb3321461020857806355f804b31461021b57600080fd5b8062fdd58e1461013057806301ffc9a7146101565780630e89341c1461017a57806313ba55df1461019a578063156e29f6146101ad575b600080fd5b61014361013e3660046123e4565b610306565b6040519081526020015b60405180910390f35b61016a610164366004612424565b50600090565b604051901515815260200161014d565b61018d610188366004612441565b61031b565b60405161014d91906124aa565b6101436101a8366004612441565b6104ea565b6101c06101bb3660046124bd565b6104f5565b005b6101c06101d0366004612538565b610535565b6101c06101e33660046126cc565b6105a0565b6101fb6101f6366004612775565b6105f2565b60405161014d919061287a565b6101c06102163660046128d1565b61075c565b6101c061022936600461296a565b6107bd565b61024161023c366004612441565b61082b565b60405161014d91906129ab565b6101c061025c3660046129f8565b610836565b6101fb61026f366004612a4a565b6108cb565b6101c0610282366004612a65565b6108d6565b61029a610295366004612aa1565b61098a565b60405161014d9190612ad6565b6101436102b5366004612441565b610aa4565b6101c06102c8366004612b38565b610ad7565b6101c06102db366004612b97565b610ae9565b61016a6102ee366004612c17565b610b21565b6101c0610301366004612c4a565b610b6e565b60006103128383610bb9565b90505b92915050565b60008181527f4281b61aefbe70b3d3f684b428efca5f33077bc240e76f2808f9177c307617f56020526040812080546060927f4281b61aefbe70b3d3f684b428efca5f33077bc240e76f2808f9177c307617f492909161037a90612cae565b80601f01602080910402602001604051908101604052809291908181526020018280546103a690612cae565b80156103f35780601f106103c8576101008083540402835291602001916103f3565b820191906000526020600020905b8154815290600101906020018083116103d657829003601f168201915b50505050509050600082600001805461040b90612cae565b80601f016020809104026020016040519081016040528092919081815260200182805461043790612cae565b80156104845780601f1061045957610100808354040283529160200191610484565b820191906000526020600020905b81548152906001019060200180831161046757829003601f168201915b50505050509050805160000361049c57509392505050565b8151156104cf5780826040516020016104b6929190612ce8565b6040516020818303038152906040529350505050919050565b806104d986610c17565b6040516020016104b6929190612ce8565b600061031582610d1f565b6105256105207ff6deb63e40d71b08820818e006e23fcceb1fce7a499bc15b71b2526cbf9efa735490565b610d55565b610530838383610d62565b505050565b6105606105207ff6deb63e40d71b08820818e006e23fcceb1fce7a499bc15b71b2526cbf9efa725490565b6105308383838080601f016020809104026020016040519081016040528093929190818152602001838380828437600092019190915250610d7d92505050565b6001600160a01b03851633148015906105c057506105be8533610b21565b155b156105dd576040516212efed60e91b815260040160405180910390fd5b6105eb338686868686610df1565b5050505050565b6060815183511461061657604051633e7e0b6d60e11b815260040160405180910390fd5b8251600080516020613198833981519152906000906001600160401b0381111561064257610642612583565b60405190808252806020026020018201604052801561066b578160200160208202803683370190505b50905060005b85518110156107535760006001600160a01b031686828151811061069757610697612d17565b60200260200101516001600160a01b0316036106c65760405163db5d879760e01b815260040160405180910390fd5b8260008683815181106106db576106db612d17565b60200260200101518152602001908152602001600020600087838151811061070557610705612d17565b60200260200101516001600160a01b03166001600160a01b031681526020019081526020016000205482828151811061074057610740612d17565b6020908102919091010152600101610671565b50949350505050565b7f09acf4e54214992e70883cf7dcd6957ff2c71cd9e14df4bec4383bc0d11607dc805460020361079f57604051635db5c7cd60e11b815260040160405180910390fd5b600281556107b1878787878787610e15565b60019055505050505050565b6107e86105207ff6deb63e40d71b08820818e006e23fcceb1fce7a499bc15b71b2526cbf9efa725490565b61082782828080601f016020809104026020016040519081016040528093929190818152602001838380828437600092019190915250610f4592505050565b5050565b606061031582610f70565b7f09acf4e54214992e70883cf7dcd6957ff2c71cd9e14df4bec4383bc0d11607dc805460020361087957604051635db5c7cd60e11b815260040160405180910390fd5b600281600001819055506108c1858585858080602002602001604051908101604052809392919081815260200183836020028082843760009201919091525061104392505050565b6001905550505050565b606061031582611194565b6001600160a01b03821633036108ff57604051637b30a93360e11b815260040160405180910390fd5b3360008181527f1799cf914cb0cb442ca7c7ac709ee40d0cb89e87351dc08d517fbda27d50c68c602090815260408083206001600160a01b03871680855290835292819020805460ff191686151590811790915590519081529192917f17307eab39ab6107e8899845ad3d59bd9653f200f220920489ca2b5937696c31910160405180910390a35050565b6060816001600160401b038111156109a4576109a4612583565b6040519080825280602002602001820160405280156109d757816020015b60608152602001906001900390816109c25790505b50905060005b82811015610a9d57600080308686858181106109fb576109fb612d17565b9050602002810190610a0d9190612d2d565b604051610a1b929190612d73565b600060405180830381855af49150503d8060008114610a56576040519150601f19603f3d011682016040523d82523d6000602084013e610a5b565b606091505b50915091508115610a895780848481518110610a7957610a79612d17565b6020026020010181905250610a93565b3d6000803e3d6000fd5b50506001016109dd565b5092915050565b60008181527fb31c2c74f86ca3ce94d901f5f5bbe66f7161eec2f7b5aa0b75a86371436424ea6020526040812054610315565b610ae38484848461125c565b50505050565b610b146105207ff6deb63e40d71b08820818e006e23fcceb1fce7a499bc15b71b2526cbf9efa735490565b6105eb8585858585611363565b6001600160a01b0391821660009081527f1799cf914cb0cb442ca7c7ac709ee40d0cb89e87351dc08d517fbda27d50c68c6020908152604080832093909416825291909152205460ff1690565b6001600160a01b0385163314801590610b8e5750610b8c8533610b21565b155b15610bab576040516212efed60e91b815260040160405180910390fd5b6105eb3386868686866113df565b60006001600160a01b038316610be25760405163db5d879760e01b815260040160405180910390fd5b6000805160206131988339815191526000928352602090815260408084206001600160a01b0395909516845293905250205490565b606081600003610c3e5750506040805180820190915260018152600360fc1b602082015290565b8160005b8115610c685780610c5281612d99565b9150610c619050600a83612dc8565b9150610c42565b6000816001600160401b03811115610c8257610c82612583565b6040519080825280601f01601f191660200182016040528015610cac576020820181803683370190505b5090505b8415610d1757610cc1600183612ddc565b9150610cce600a86612def565b610cd9906030612e03565b60f81b818381518110610cee57610cee612d17565b60200101906001600160f81b031916908160001a905350610d10600a86612dc8565b9450610cb0565b949350505050565b60008181527fb31c2c74f86ca3ce94d901f5f5bbe66f7161eec2f7b5aa0b75a86371436424eb60205260408120610315906113fb565b610d5f8133611405565b50565b61053083838360405180602001604052806000815250611467565b60008281527f4281b61aefbe70b3d3f684b428efca5f33077bc240e76f2808f9177c307617f560205260409020610db48282612e5c565b50817f6bb7ff708619ba0610cba295a58592e0451dee2622938c8755667688daf3529b82604051610de591906124aa565b60405180910390a25050565b610dff868686868686611540565b610e0d8686868686866116e9565b505050505050565b848314610e8f5760405162461bcd60e51b815260206004820152603760248201527f4974656d73496e7465726e616c2e5f636c61696d4d65726b6c6542617463683a60448201527f20496e70757473206c656e677468206d69736d6174636800000000000000000060648201526084015b60405180910390fd5b60005b85811015610f3c57610f2a878783818110610eaf57610eaf612d17565b90506020020135868684818110610ec857610ec8612d17565b90506020020135858585818110610ee157610ee1612d17565b9050602002810190610ef39190612f1b565b8080602002602001604051908101604052809392919081815260200183836020028082843760009201919091525061104392505050565b80610f3481612d99565b915050610e92565b50505050505050565b7f4281b61aefbe70b3d3f684b428efca5f33077bc240e76f2808f9177c307617f46108278282612e5c565b60008181527fb31c2c74f86ca3ce94d901f5f5bbe66f7161eec2f7b5aa0b75a86371436424eb60205260408120606091610fa9826113fb565b6001600160401b03811115610fc057610fc0612583565b604051908082528060200260200182016040528015610fe9578160200160208202803683370190505b50905060005b610ff8836113fb565b81101561103b5761100983826117f9565b82828151811061101b5761101b612d17565b6001600160a01b0390921660209283029190910190910152600101610fef565b509392505050565b3360009081527f333d4b734a9ca3847483bf4c14a14709d21907ff5f12a881347e2fb2ad8906d6602081815260408084208785529091529091205460ff16156110e25760405162461bcd60e51b815260206004820152602b60248201527f4974656d73496e7465726e616c2e5f636c61696d4d65726b6c653a20416c726560448201526a18591e4818db185a5b595960aa1b6064820152608401610e86565b336000818152602083815260408083208884528252808320805460ff191660011790558051918201939093529182018690526060820185905290608001604051602081830303815290604052905061113a8382611805565b5061115633868660405180602001604052806000815250611467565b604051848152859033907fd4307fb1338aefb2a030cf5ea0f582a10d28ffee99fe253e5d48946f9a74a59f9060200160405180910390a35050505050565b6001600160a01b03811660009081527fb31c2c74f86ca3ce94d901f5f5bbe66f7161eec2f7b5aa0b75a86371436424ec602052604081206060916111d7826113fb565b6001600160401b038111156111ee576111ee612583565b604051908082528060200260200182016040528015611217578160200160208202803683370190505b50905060005b611226836113fb565b81101561103b5761123783826117f9565b82828151811061124957611249612d17565b602090810291909101015260010161121d565b8281146112c95760405162461bcd60e51b815260206004820152603560248201527f4974656d73496e7465726e616c2e5f636c61696d57686974656c6973743a20496044820152740dce0eae8e640d8cadccee8d040dad2e6dac2e8c6d605b1b6064820152608401610e86565b6000805b8481101561135857611320338787848181106112eb576112eb612d17565b9050602002013586868581811061130457611304612d17565b9050602002013560405180602001604052806000815250611467565b83838281811061133257611332612d17565b90506020020135826113449190612e03565b91508061135081612d99565b9150506112cd565b506105eb33826118bb565b6105eb8585858080602002602001604051908101604052809392919081815260200183836020028082843760009201919091525050604080516020808902828101820190935288825290935088925087918291850190849080828437600092018290525060408051602081019091529081529250611a64915050565b6113ed868686868686611bbb565b610e0d868686868686611cd1565b6000610315825490565b61140f8282611d8d565b61082757611425816001600160a01b0316611dc4565b611430836020611dd6565b604051602001611441929190612f64565b60408051601f198184030181529082905262461bcd60e51b8252610e86916004016124aa565b6001600160a01b03841661148e576040516301c8efbf60e11b815260040160405180910390fd5b6114ad3360008661149e87611f28565b6114a787611f28565b86611f73565b6000838152600080516020613198833981519152602090815260408083206001600160a01b0388168452909152812080548492906114ec908490612e03565b909155505060408051848152602081018490526001600160a01b0386169160009133917fc3d58168c5ae7397731d063d5bbf3d657854427343f4c083240f7aacaa2d0f62910160405180910390a450505050565b6001600160a01b0384166115675760405163f5cadad560e01b815260040160405180910390fd5b815183511461158957604051633e7e0b6d60e11b815260040160405180910390fd5b611597868686868686611f73565b60008051602061319883398151915260005b84518110156116885760008582815181106115c6576115c6612d17565b6020026020010151905060008583815181106115e4576115e4612d17565b602090810291909101810151600084815286835260408082206001600160a01b038e1683529093529190912054909150808211156116355760405163119ac6bb60e31b815260040160405180910390fd5b6000838152602086815260408083206001600160a01b038e811685529252808320938590039093558a16815290812080546001959095019483929061167b908490612e03565b909155506115a992505050565b50846001600160a01b0316866001600160a01b0316886001600160a01b03167f4a39dc06d4c0dbc64b70af90fd698a233a518aa5d07e595d983b8c0526c8f7fb87876040516116d8929190612fd9565b60405180910390a450505050505050565b6001600160a01b0384163b15610e0d5760405163bc197c8160e01b81526001600160a01b0385169063bc197c819061172d9089908990889088908890600401613007565b6020604051808303816000875af1925050508015611768575060408051601f3d908101601f1916820190925261176591810190613065565b60015b6117c857611774613082565b806308c379a0036117ad575061178861309e565b8061179357506117af565b8060405162461bcd60e51b8152600401610e8691906124aa565b505b60405163380147a960e01b815260040160405180910390fd5b6001600160e01b0319811663bc197c8160e01b14610f3c57604051633744db2960e01b815260040160405180910390fd5b60006103128383611f81565b600080828051906020012060405160200161182291815260200190565b60405160208183030381529060405280519060200120905061186c846118657f7a07c093b55ad04e200605cb287859fe4640b7310d62fdbb044e26399da78c0890565b5483611fcd565b915081610a9d5760405162461bcd60e51b815260206004820152601b60248201527f44617461206e6f7420696e636c7564656420696e206d65726b6c6500000000006044820152606401610e86565b6001600160a01b03821660009081527ff38d3885e664c9638de25f02e645e1955ebebe901d7be2c2037db6a5bcbb358960205260409020547ff38d3885e664c9638de25f02e645e1955ebebe901d7be2c2037db6a5bcbb3588908211156119965760405162461bcd60e51b815260206004820152604360248201527f57686974656c697374496e7465726e616c2e5f636f6e73756d6557686974656c60448201527f6973743a20616d6f756e74206578636565647320656c656769626c6520616d6f6064820152621d5b9d60ea1b608482015260a401610e86565b6001600160a01b0383166000908152600182016020526040812080548492906119c0908490612ddc565b90915550506001600160a01b038316600090815260208290526040812080548492906119ed908490612e03565b90915550506001600160a01b0383166000908152600182016020908152604080832054848352928190205481513381529283018690529082019290925260608101919091527fdb4f4d78cc1c961ddedd2f43596d41d07e607b7517c7106d83f6421215e1f6a79060800160405180910390a1505050565b6001600160a01b038416611a8b576040516301c8efbf60e11b815260040160405180910390fd5b8151835114611aad57604051633e7e0b6d60e11b815260040160405180910390fd5b611abc33600086868686611f73565b60008051602061319883398151915260005b8451811015611b5b57838181518110611ae957611ae9612d17565b6020026020010151826000878481518110611b0657611b06612d17565b602002602001015181526020019081526020016000206000886001600160a01b03166001600160a01b031681526020019081526020016000206000828254611b4e9190612e03565b9091555050600101611ace565b50846001600160a01b031660006001600160a01b0316336001600160a01b03167f4a39dc06d4c0dbc64b70af90fd698a233a518aa5d07e595d983b8c0526c8f7fb8787604051611bac929190612fd9565b60405180910390a45050505050565b6001600160a01b038416611be25760405163f5cadad560e01b815260040160405180910390fd5b611bf186868661149e87611f28565b6000838152600080516020613198833981519152602081815260408084206001600160a01b038a1685529091529091205480841115611c435760405163119ac6bb60e31b815260040160405180910390fd5b6000858152602083815260408083206001600160a01b038b81168552925280832093879003909355871681529081208054859290611c82908490612e03565b909155505060408051858152602081018590526001600160a01b038088169289821692918b16917fc3d58168c5ae7397731d063d5bbf3d657854427343f4c083240f7aacaa2d0f6291016116d8565b6001600160a01b0384163b15610e0d5760405163f23a6e6160e01b81526001600160a01b0385169063f23a6e6190611d159089908990889088908890600401613127565b6020604051808303816000875af1925050508015611d50575060408051601f3d908101601f19168201909252611d4d91810190613065565b60015b611d5c57611774613082565b6001600160e01b0319811663f23a6e6160e01b14610f3c57604051633744db2960e01b815260040160405180910390fd5b60008281527fd3889cc5458b268d0544e5534672df1296288ca3f93cbd39bd6f497a5c622811602052604081206103129083612072565b60606103156001600160a01b03831660145b60606000611de583600261316a565b611df0906002612e03565b6001600160401b03811115611e0757611e07612583565b6040519080825280601f01601f191660200182016040528015611e31576020820181803683370190505b509050600360fc1b81600081518110611e4c57611e4c612d17565b60200101906001600160f81b031916908160001a905350600f60fb1b81600181518110611e7b57611e7b612d17565b60200101906001600160f81b031916908160001a905350600160028402015b6001811115611f08576f181899199a1a9b1b9c1cb0b131b232b360811b85600f1660108110611ecb57611ecb612d17565b1a60f81b828281518110611ee157611ee1612d17565b60200101906001600160f81b031916908160001a90535060049490941c9360001901611e9a565b5083156103125760405163c913478560e01b815260040160405180910390fd5b60408051600180825281830190925260609160009190602080830190803683370190505090508281600081518110611f6257611f62612d17565b602090810291909101015292915050565b610e0d868686868686612094565b81546000908210611fa55760405163e637bf3b60e01b815260040160405180910390fd5b826000018281548110611fba57611fba612d17565b9060005260206000200154905092915050565b600081815b8551811015612067576000868281518110611fef57611fef612d17565b6020026020010151905080831161203157604080516020810185905290810182905260600160405160208183030381529060405280519060200120925061205e565b60408051602081018390529081018490526060016040516020818303038152906040528051906020012092505b50600101611fd2565b509092149392505050565b6001600160a01b03811660009081526001830160205260408120541515610312565b610e0d868686868686836001600160a01b0316856001600160a01b031614610e0d576001600160a01b0385811660009081527fb31c2c74f86ca3ce94d901f5f5bbe66f7161eec2f7b5aa0b75a86371436424ec6020526040808220928716825281207fb31c2c74f86ca3ce94d901f5f5bbe66f7161eec2f7b5aa0b75a86371436424ea927fb31c2c74f86ca3ce94d901f5f5bbe66f7161eec2f7b5aa0b75a86371436424eb929091905b875181101561227c57600087828151811061215b5761215b612d17565b60200260200101519050600081111561227357600089838151811061218257612182612d17565b6020026020010151905060006001600160a01b03168c6001600160a01b0316036121cf57600081815260208890526040812080548492906121c4908490612e03565b909155506122049050565b816121da8d83610bb9565b036122045760008181526020879052604090206121f7908d612289565b50612202858261229e565b505b6001600160a01b038b1661223b5760008181526020889052604081208054849290612230908490612ddc565b909155506122719050565b6122458b82610bb9565b600003612271576000818152602087905260409020612264908c6122aa565b5061226f84826122bf565b505b505b5060010161213e565b5050505050505050505050565b6000610312836001600160a01b0384166122cb565b600061031283836122cb565b6000610312836001600160a01b038416612385565b60006103128383612385565b60008181526001830160205260408120548015610a9d578354600090859060001981019081106122fd576122fd612d17565b906000526020600020015490508085600001600184038154811061232357612323612d17565b600091825260208083209091019290925591825260018601905260409020819055835484908061235557612355613181565b60008281526020808220830160001990810183905590920190925593815260019485019093525050604081205590565b6000818152600183016020526040812054610315575081546001808201845560008481526020808220909301849055845493815293810190915260409092205590565b80356001600160a01b03811681146123df57600080fd5b919050565b600080604083850312156123f757600080fd5b612400836123c8565b946020939093013593505050565b6001600160e01b031981168114610d5f57600080fd5b60006020828403121561243657600080fd5b81356103128161240e565b60006020828403121561245357600080fd5b5035919050565b60005b8381101561247557818101518382015260200161245d565b50506000910152565b6000815180845261249681602086016020860161245a565b601f01601f19169290920160200192915050565b602081526000610312602083018461247e565b6000806000606084860312156124d257600080fd5b6124db846123c8565b95602085013595506040909401359392505050565b60008083601f84011261250257600080fd5b5081356001600160401b0381111561251957600080fd5b60208301915083602082850101111561253157600080fd5b9250929050565b60008060006040848603121561254d57600080fd5b8335925060208401356001600160401b0381111561256a57600080fd5b612576868287016124f0565b9497909650939450505050565b634e487b7160e01b600052604160045260246000fd5b601f8201601f191681016001600160401b03811182821017156125be576125be612583565b6040525050565b60006001600160401b038211156125de576125de612583565b5060051b60200190565b600082601f8301126125f957600080fd5b81356020612606826125c5565b6040516126138282612599565b83815260059390931b850182019282810191508684111561263357600080fd5b8286015b8481101561264e5780358352918301918301612637565b509695505050505050565b600082601f83011261266a57600080fd5b81356001600160401b0381111561268357612683612583565b60405161269a601f8301601f191660200182612599565b8181528460208386010111156126af57600080fd5b816020850160208301376000918101602001919091529392505050565b600080600080600060a086880312156126e457600080fd5b6126ed866123c8565b94506126fb602087016123c8565b935060408601356001600160401b038082111561271757600080fd5b61272389838a016125e8565b9450606088013591508082111561273957600080fd5b61274589838a016125e8565b9350608088013591508082111561275b57600080fd5b5061276888828901612659565b9150509295509295909350565b6000806040838503121561278857600080fd5b82356001600160401b038082111561279f57600080fd5b818501915085601f8301126127b357600080fd5b813560206127c0826125c5565b6040516127cd8282612599565b83815260059390931b85018201928281019150898411156127ed57600080fd5b948201945b8386101561281257612803866123c8565b825294820194908201906127f2565b9650508601359250508082111561282857600080fd5b50612835858286016125e8565b9150509250929050565b600081518084526020808501945080840160005b8381101561286f57815187529582019590820190600101612853565b509495945050505050565b602081526000610312602083018461283f565b60008083601f84011261289f57600080fd5b5081356001600160401b038111156128b657600080fd5b6020830191508360208260051b850101111561253157600080fd5b600080600080600080606087890312156128ea57600080fd5b86356001600160401b038082111561290157600080fd5b61290d8a838b0161288d565b9098509650602089013591508082111561292657600080fd5b6129328a838b0161288d565b9096509450604089013591508082111561294b57600080fd5b5061295889828a0161288d565b979a9699509497509295939492505050565b6000806020838503121561297d57600080fd5b82356001600160401b0381111561299357600080fd5b61299f858286016124f0565b90969095509350505050565b6020808252825182820181905260009190848201906040850190845b818110156129ec5783516001600160a01b0316835292840192918401916001016129c7565b50909695505050505050565b60008060008060608587031215612a0e57600080fd5b843593506020850135925060408501356001600160401b03811115612a3257600080fd5b612a3e8782880161288d565b95989497509550505050565b600060208284031215612a5c57600080fd5b610312826123c8565b60008060408385031215612a7857600080fd5b612a81836123c8565b915060208301358015158114612a9657600080fd5b809150509250929050565b60008060208385031215612ab457600080fd5b82356001600160401b03811115612aca57600080fd5b61299f8582860161288d565b6000602080830181845280855180835260408601915060408160051b870101925083870160005b82811015612b2b57603f19888603018452612b1985835161247e565b94509285019290850190600101612afd565b5092979650505050505050565b60008060008060408587031215612b4e57600080fd5b84356001600160401b0380821115612b6557600080fd5b612b718883890161288d565b90965094506020870135915080821115612b8a57600080fd5b50612a3e8782880161288d565b600080600080600060608688031215612baf57600080fd5b612bb8866123c8565b945060208601356001600160401b0380821115612bd457600080fd5b612be089838a0161288d565b90965094506040880135915080821115612bf957600080fd5b50612c068882890161288d565b969995985093965092949392505050565b60008060408385031215612c2a57600080fd5b612c33836123c8565b9150612c41602084016123c8565b90509250929050565b600080600080600060a08688031215612c6257600080fd5b612c6b866123c8565b9450612c79602087016123c8565b9350604086013592506060860135915060808601356001600160401b03811115612ca257600080fd5b61276888828901612659565b600181811c90821680612cc257607f821691505b602082108103612ce257634e487b7160e01b600052602260045260246000fd5b50919050565b60008351612cfa81846020880161245a565b835190830190612d0e81836020880161245a565b01949350505050565b634e487b7160e01b600052603260045260246000fd5b6000808335601e19843603018112612d4457600080fd5b8301803591506001600160401b03821115612d5e57600080fd5b60200191503681900382131561253157600080fd5b8183823760009101908152919050565b634e487b7160e01b600052601160045260246000fd5b600060018201612dab57612dab612d83565b5060010190565b634e487b7160e01b600052601260045260246000fd5b600082612dd757612dd7612db2565b500490565b8181038181111561031557610315612d83565b600082612dfe57612dfe612db2565b500690565b8082018082111561031557610315612d83565b601f82111561053057600081815260208120601f850160051c81016020861015612e3d5750805b601f850160051c820191505b81811015610e0d57828155600101612e49565b81516001600160401b03811115612e7557612e75612583565b612e8981612e838454612cae565b84612e16565b602080601f831160018114612ebe5760008415612ea65750858301515b600019600386901b1c1916600185901b178555610e0d565b600085815260208120601f198616915b82811015612eed57888601518255948401946001909101908401612ece565b5085821015612f0b5787850151600019600388901b60f8161c191681555b5050505050600190811b01905550565b6000808335601e19843603018112612f3257600080fd5b8301803591506001600160401b03821115612f4c57600080fd5b6020019150600581901b360382131561253157600080fd5b7f416363657373436f6e74726f6c3a206163636f756e7420000000000000000000815260008351612f9c81601785016020880161245a565b7001034b99036b4b9b9b4b733903937b6329607d1b6017918401918201528351612fcd81602884016020880161245a565b01602801949350505050565b604081526000612fec604083018561283f565b8281036020840152612ffe818561283f565b95945050505050565b60006001600160a01b03808816835280871660208401525060a0604083015261303360a083018661283f565b8281036060840152613045818661283f565b90508281036080840152613059818561247e565b98975050505050505050565b60006020828403121561307757600080fd5b81516103128161240e565b600060033d111561309b5760046000803e5060005160e01c5b90565b600060443d10156130ac5790565b6040516003193d81016004833e81513d6001600160401b0381602484011181841117156130db57505050505090565b82850191508151818111156130f35750505050505090565b843d870101602082850101111561310d5750505050505090565b61311c60208286010187612599565b509095945050505050565b60006001600160a01b03808816835280871660208401525084604083015283606083015260a0608083015261315f60a083018461247e565b979650505050505050565b808202811582820484141761031557610315612d83565b634e487b7160e01b600052603160045260246000fdfe1799cf914cb0cb442ca7c7ac709ee40d0cb89e87351dc08d517fbda27d50c68ba2646970667358221220c697504dbd18ec4ca2ca5f42f567db9d217223eeeffd4141ea3aa659b5f81a9764736f6c63430008130033",
  "devdoc": {
    "kind": "dev",
    "methods": {
      "accountsByToken(uint256)": {
        "params": {
          "id": "token id to query"
        },
        "returns": {
          "_0": "list of holder addresses"
        }
      },
      "balanceOf(address,uint256)": {
        "params": {
          "account": "address to query",
          "id": "token to query"
        },
        "returns": {
          "_0": "token balance"
        }
      },
      "balanceOfBatch(address[],uint256[])": {
        "params": {
          "accounts": "addresss to query",
          "ids": "tokens to query"
        },
        "returns": {
          "_0": "token balances"
        }
      },
      "isApprovedForAll(address,address)": {
        "params": {
          "account": "address to query for approval granted",
          "operator": "address to query for approval received"
        },
        "returns": {
          "_0": "whether operator is approved to spend tokens held by account"
        }
      },
      "multicall(bytes[])": {
        "params": {
          "data": "array of function call data payloads"
        },
        "returns": {
          "results": "array of function call results"
        }
      },
      "safeBatchTransferFrom(address,address,uint256[],uint256[],bytes)": {
        "params": {
          "amounts": "list of quantities of tokens to transfer",
          "data": "data payload",
          "from": "sender of tokens",
          "ids": "list of token IDs",
          "to": "receiver of tokens"
        }
      },
      "safeTransferFrom(address,address,uint256,uint256,bytes)": {
        "params": {
          "amount": "quantity of tokens to transfer",
          "data": "data payload",
          "from": "sender of tokens",
          "id": "token ID",
          "to": "receiver of tokens"
        }
      },
      "setApprovalForAll(address,bool)": {
        "params": {
          "operator": "address whose approval status to update",
          "status": "whether operator should be considered approved"
        }
      },
      "tokensByAccount(address)": {
        "params": {
          "account": "address to query"
        },
        "returns": {
          "_0": "list of token ids"
        }
      },
      "totalHolders(uint256)": {
        "params": {
          "id": "token id to query"
        },
        "returns": {
          "_0": "quantity of holders"
        }
      },
      "totalSupply(uint256)": {
        "params": {
          "id": "token id to query"
        },
        "returns": {
          "_0": "token supply"
        }
      }
    },
    "version": 1
  },
  "userdoc": {
    "kind": "user",
    "methods": {
      "accountsByToken(uint256)": {
        "notice": "query holders of given token"
      },
      "balanceOf(address,uint256)": {
        "notice": "query the balance of given token held by given address"
      },
      "balanceOfBatch(address[],uint256[])": {
        "notice": "query the balances of given tokens held by given addresses"
      },
      "isApprovedForAll(address,address)": {
        "notice": "query approval status of given operator with respect to given address"
      },
      "multicall(bytes[])": {
        "notice": "batch function calls to the contract and return the results of each"
      },
      "safeBatchTransferFrom(address,address,uint256[],uint256[],bytes)": {
        "notice": "transfer batch of tokens between given addresses, checking for ERC1155Receiver implementation if applicable"
      },
      "safeTransferFrom(address,address,uint256,uint256,bytes)": {
        "notice": "transfer tokens between given addresses, checking for ERC1155Receiver implementation if applicable"
      },
      "setApprovalForAll(address,bool)": {
        "notice": "grant approval to or revoke approval from given operator to spend held tokens"
      },
      "tokensByAccount(address)": {
        "notice": "query tokens held by given address"
      },
      "totalHolders(uint256)": {
        "notice": "query total number of holders for given token"
      },
      "totalSupply(uint256)": {
        "notice": "query total minted supply of given token"
      },
      "uri(uint256)": {
        "notice": "inheritdoc IERC1155Metadata"
      }
    },
    "version": 1
  },
  "storageLayout": {
    "storage": [],
    "types": null
  }
}