{
  "address": "0x9AE649Ac93Abbdb82BA73a73154F0dC7b3be38A5",
  "abi": [
    {
      "inputs": [],
      "name": "ERC1155Base__ArrayLengthMismatch",
      "type": "error"
    },
    {
      "inputs": [],
      "name": "ERC1155Base__BalanceQueryZeroAddress",
      "type": "error"
    },
    {
      "inputs": [],
      "name": "ERC1155Base__BurnExceedsBalance",
      "type": "error"
    },
    {
      "inputs": [],
      "name": "ERC1155Base__BurnFromZeroAddress",
      "type": "error"
    },
    {
      "inputs": [],
      "name": "ERC1155Base__ERC1155ReceiverNotImplemented",
      "type": "error"
    },
    {
      "inputs": [],
      "name": "ERC1155Base__ERC1155ReceiverRejected",
      "type": "error"
    },
    {
      "inputs": [],
      "name": "ERC1155Base__MintToZeroAddress",
      "type": "error"
    },
    {
      "inputs": [],
      "name": "ERC1155Base__NotOwnerOrApproved",
      "type": "error"
    },
    {
      "inputs": [],
      "name": "ERC1155Base__SelfApproval",
      "type": "error"
    },
    {
      "inputs": [],
      "name": "ERC1155Base__TransferExceedsBalance",
      "type": "error"
    },
    {
      "inputs": [],
      "name": "ERC1155Base__TransferToZeroAddress",
      "type": "error"
    },
    {
      "inputs": [],
      "name": "EnumerableSet__IndexOutOfBounds",
      "type": "error"
    },
    {
      "inputs": [],
      "name": "Items_InputsLengthMistatch",
      "type": "error"
    },
    {
      "inputs": [],
      "name": "Items_InvalidItemId",
      "type": "error"
    },
    {
      "inputs": [],
      "name": "Items_ItemsBasicStatusAlreadyUpdated",
      "type": "error"
    },
    {
      "inputs": [],
      "name": "Items_MaximumItemMintsExceeded",
      "type": "error"
    },
    {
      "inputs": [],
      "name": "Items_MintingNonBasicItem",
      "type": "error"
    },
    {
      "inputs": [],
      "name": "Merkle_AlreadyClaimed",
      "type": "error"
    },
    {
      "inputs": [],
      "name": "Merkle_ClaimInactive",
      "type": "error"
    },
    {
      "inputs": [],
      "name": "Merkle_ClaimStateAlreadyUpdated",
      "type": "error"
    },
    {
      "inputs": [],
      "name": "Merkle_InvalidClaimAmount",
      "type": "error"
    },
    {
      "inputs": [],
      "name": "Merkle_NotIncludedInMerkleTree",
      "type": "error"
    },
    {
      "inputs": [],
      "name": "ReentrancyGuard__ReentrantCall",
      "type": "error"
    },
    {
      "inputs": [],
      "name": "Roles_MissingAdminRole",
      "type": "error"
    },
    {
      "inputs": [],
      "name": "Roles_MissingAutomationRole",
      "type": "error"
    },
    {
      "inputs": [],
      "name": "Roles_MissingManagerRole",
      "type": "error"
    },
    {
      "inputs": [],
      "name": "Whitelist_ClaimInactive",
      "type": "error"
    },
    {
      "inputs": [],
      "name": "Whitelist_ClaimStateAlreadyUpdated",
      "type": "error"
    },
    {
      "inputs": [],
      "name": "Whitelist_ExceedsElegibleAmount",
      "type": "error"
    },
    {
      "inputs": [],
      "name": "Whitelist_InputDataMismatch",
      "type": "error"
    },
    {
      "anonymous": false,
      "inputs": [
        {
          "indexed": true,
          "internalType": "address",
          "name": "account",
          "type": "address"
        },
        {
          "indexed": true,
          "internalType": "address",
          "name": "operator",
          "type": "address"
        },
        {
          "indexed": false,
          "internalType": "bool",
          "name": "approved",
          "type": "bool"
        }
      ],
      "name": "ApprovalForAll",
      "type": "event"
    },
    {
      "anonymous": false,
      "inputs": [
        {
          "indexed": true,
          "internalType": "address",
          "name": "to",
          "type": "address"
        },
        {
          "indexed": true,
          "internalType": "uint256",
          "name": "itemId",
          "type": "uint256"
        },
        {
          "indexed": false,
          "internalType": "uint256",
          "name": "amount",
          "type": "uint256"
        }
      ],
      "name": "ItemClaimedMerkle",
      "type": "event"
    },
    {
      "anonymous": false,
      "inputs": [
        {
          "indexed": true,
          "internalType": "bytes32",
          "name": "role",
          "type": "bytes32"
        },
        {
          "indexed": true,
          "internalType": "bytes32",
          "name": "previousAdminRole",
          "type": "bytes32"
        },
        {
          "indexed": true,
          "internalType": "bytes32",
          "name": "newAdminRole",
          "type": "bytes32"
        }
      ],
      "name": "RoleAdminChanged",
      "type": "event"
    },
    {
      "anonymous": false,
      "inputs": [
        {
          "indexed": true,
          "internalType": "bytes32",
          "name": "role",
          "type": "bytes32"
        },
        {
          "indexed": true,
          "internalType": "address",
          "name": "account",
          "type": "address"
        },
        {
          "indexed": true,
          "internalType": "address",
          "name": "sender",
          "type": "address"
        }
      ],
      "name": "RoleGranted",
      "type": "event"
    },
    {
      "anonymous": false,
      "inputs": [
        {
          "indexed": true,
          "internalType": "bytes32",
          "name": "role",
          "type": "bytes32"
        },
        {
          "indexed": true,
          "internalType": "address",
          "name": "account",
          "type": "address"
        },
        {
          "indexed": true,
          "internalType": "address",
          "name": "sender",
          "type": "address"
        }
      ],
      "name": "RoleRevoked",
      "type": "event"
    },
    {
      "anonymous": false,
      "inputs": [
        {
          "indexed": true,
          "internalType": "address",
          "name": "operator",
          "type": "address"
        },
        {
          "indexed": true,
          "internalType": "address",
          "name": "from",
          "type": "address"
        },
        {
          "indexed": true,
          "internalType": "address",
          "name": "to",
          "type": "address"
        },
        {
          "indexed": false,
          "internalType": "uint256[]",
          "name": "ids",
          "type": "uint256[]"
        },
        {
          "indexed": false,
          "internalType": "uint256[]",
          "name": "values",
          "type": "uint256[]"
        }
      ],
      "name": "TransferBatch",
      "type": "event"
    },
    {
      "anonymous": false,
      "inputs": [
        {
          "indexed": true,
          "internalType": "address",
          "name": "operator",
          "type": "address"
        },
        {
          "indexed": true,
          "internalType": "address",
          "name": "from",
          "type": "address"
        },
        {
          "indexed": true,
          "internalType": "address",
          "name": "to",
          "type": "address"
        },
        {
          "indexed": false,
          "internalType": "uint256",
          "name": "id",
          "type": "uint256"
        },
        {
          "indexed": false,
          "internalType": "uint256",
          "name": "value",
          "type": "uint256"
        }
      ],
      "name": "TransferSingle",
      "type": "event"
    },
    {
      "anonymous": false,
      "inputs": [
        {
          "indexed": false,
          "internalType": "string",
          "name": "value",
          "type": "string"
        },
        {
          "indexed": true,
          "internalType": "uint256",
          "name": "tokenId",
          "type": "uint256"
        }
      ],
      "name": "URI",
      "type": "event"
    },
    {
      "anonymous": false,
      "inputs": [
        {
          "indexed": true,
          "internalType": "address",
          "name": "account",
          "type": "address"
        },
        {
          "indexed": false,
          "internalType": "enum WhitelistStorage.PoolId",
          "name": "poolId",
          "type": "uint8"
        },
        {
          "indexed": false,
          "internalType": "uint256",
          "name": "totalElegibleAmount",
          "type": "uint256"
        },
        {
          "indexed": false,
          "internalType": "uint256",
          "name": "totalClaimedAmount",
          "type": "uint256"
        }
      ],
      "name": "WhitelistBalanceChanged",
      "type": "event"
    },
    {
      "inputs": [
        {
          "internalType": "uint256",
          "name": "id",
          "type": "uint256"
        }
      ],
      "name": "accountsByToken",
      "outputs": [
        {
          "internalType": "address[]",
          "name": "",
          "type": "address[]"
        }
      ],
      "stateMutability": "view",
      "type": "function"
    },
    {
      "inputs": [
        {
          "internalType": "address",
          "name": "account",
          "type": "address"
        },
        {
          "internalType": "uint256",
          "name": "id",
          "type": "uint256"
        }
      ],
      "name": "balanceOf",
      "outputs": [
        {
          "internalType": "uint256",
          "name": "",
          "type": "uint256"
        }
      ],
      "stateMutability": "view",
      "type": "function"
    },
    {
      "inputs": [
        {
          "internalType": "address[]",
          "name": "accounts",
          "type": "address[]"
        },
        {
          "internalType": "uint256[]",
          "name": "ids",
          "type": "uint256[]"
        }
      ],
      "name": "balanceOfBatch",
      "outputs": [
        {
          "internalType": "uint256[]",
          "name": "",
          "type": "uint256[]"
        }
      ],
      "stateMutability": "view",
      "type": "function"
    },
    {
      "inputs": [
        {
          "internalType": "uint256",
          "name": "itemId",
          "type": "uint256"
        },
        {
          "internalType": "uint256",
          "name": "amount",
          "type": "uint256"
        },
        {
          "internalType": "bytes32[]",
          "name": "proof",
          "type": "bytes32[]"
        }
      ],
      "name": "claimMerkle",
      "outputs": [],
      "stateMutability": "nonpayable",
      "type": "function"
    },
    {
      "inputs": [
        {
          "internalType": "uint256[]",
          "name": "itemsIds",
          "type": "uint256[]"
        },
        {
          "internalType": "uint256[]",
          "name": "amounts",
          "type": "uint256[]"
        },
        {
          "internalType": "bytes32[][]",
          "name": "proofs",
          "type": "bytes32[][]"
        }
      ],
      "name": "claimMerkleBatch",
      "outputs": [],
      "stateMutability": "nonpayable",
      "type": "function"
    },
    {
      "inputs": [
        {
          "internalType": "uint256[]",
          "name": "itemIds",
          "type": "uint256[]"
        },
        {
          "internalType": "uint256[]",
          "name": "amounts",
          "type": "uint256[]"
        }
      ],
      "name": "claimWhitelist",
      "outputs": [],
      "stateMutability": "nonpayable",
      "type": "function"
    },
    {
      "inputs": [
        {
          "internalType": "address",
          "name": "account",
          "type": "address"
        },
        {
          "internalType": "uint256",
          "name": "itemId",
          "type": "uint256"
        }
      ],
      "name": "claimedAmount",
      "outputs": [
        {
          "internalType": "uint256",
          "name": "amount",
          "type": "uint256"
        }
      ],
      "stateMutability": "view",
      "type": "function"
    },
    {
      "inputs": [],
      "name": "getInventoryAddress",
      "outputs": [
        {
          "internalType": "address",
          "name": "",
          "type": "address"
        }
      ],
      "stateMutability": "view",
      "type": "function"
    },
    {
      "inputs": [
        {
          "internalType": "address",
          "name": "account",
          "type": "address"
        },
        {
          "internalType": "address",
          "name": "operator",
          "type": "address"
        }
      ],
      "name": "isApprovedForAll",
      "outputs": [
        {
          "internalType": "bool",
          "name": "",
          "type": "bool"
        }
      ],
      "stateMutability": "view",
      "type": "function"
    },
    {
      "inputs": [
        {
          "internalType": "string",
          "name": "newBaseURI",
          "type": "string"
        },
        {
          "internalType": "bool",
          "name": "migrate",
          "type": "bool"
        }
      ],
      "name": "migrateToIPFS",
      "outputs": [],
      "stateMutability": "nonpayable",
      "type": "function"
    },
    {
      "inputs": [
        {
          "internalType": "address",
          "name": "to",
          "type": "address"
        },
        {
          "internalType": "uint256",
          "name": "itemId",
          "type": "uint256"
        },
        {
          "internalType": "uint256",
          "name": "amount",
          "type": "uint256"
        }
      ],
      "name": "mint",
      "outputs": [],
      "stateMutability": "nonpayable",
      "type": "function"
    },
    {
      "inputs": [
        {
          "internalType": "address",
          "name": "to",
          "type": "address"
        },
        {
          "internalType": "uint256[]",
          "name": "itemIds",
          "type": "uint256[]"
        },
        {
          "internalType": "uint256[]",
          "name": "amounts",
          "type": "uint256[]"
        }
      ],
      "name": "mintBatch",
      "outputs": [],
      "stateMutability": "nonpayable",
      "type": "function"
    },
    {
      "inputs": [
        {
          "internalType": "bytes[]",
          "name": "data",
          "type": "bytes[]"
        }
      ],
      "name": "multicall",
      "outputs": [
        {
          "internalType": "bytes[]",
          "name": "results",
          "type": "bytes[]"
        }
      ],
      "stateMutability": "nonpayable",
      "type": "function"
    },
    {
      "inputs": [
        {
          "internalType": "address",
          "name": "from",
          "type": "address"
        },
        {
          "internalType": "address",
          "name": "to",
          "type": "address"
        },
        {
          "internalType": "uint256[]",
          "name": "ids",
          "type": "uint256[]"
        },
        {
          "internalType": "uint256[]",
          "name": "amounts",
          "type": "uint256[]"
        },
        {
          "internalType": "bytes",
          "name": "data",
          "type": "bytes"
        }
      ],
      "name": "safeBatchTransferFrom",
      "outputs": [],
      "stateMutability": "nonpayable",
      "type": "function"
    },
    {
      "inputs": [
        {
          "internalType": "address",
          "name": "from",
          "type": "address"
        },
        {
          "internalType": "address",
          "name": "to",
          "type": "address"
        },
        {
          "internalType": "uint256",
          "name": "id",
          "type": "uint256"
        },
        {
          "internalType": "uint256",
          "name": "amount",
          "type": "uint256"
        },
        {
          "internalType": "bytes",
          "name": "data",
          "type": "bytes"
        }
      ],
      "name": "safeTransferFrom",
      "outputs": [],
      "stateMutability": "nonpayable",
      "type": "function"
    },
    {
      "inputs": [
        {
          "internalType": "address",
          "name": "operator",
          "type": "address"
        },
        {
          "internalType": "bool",
          "name": "status",
          "type": "bool"
        }
      ],
      "name": "setApprovalForAll",
      "outputs": [],
      "stateMutability": "nonpayable",
      "type": "function"
    },
    {
      "inputs": [
        {
          "internalType": "string",
          "name": "baseURI",
          "type": "string"
        }
      ],
      "name": "setBaseURI",
      "outputs": [],
      "stateMutability": "nonpayable",
      "type": "function"
    },
    {
      "inputs": [
        {
          "internalType": "address",
          "name": "inventoryAddress",
          "type": "address"
        }
      ],
      "name": "setInventoryAddress",
      "outputs": [],
      "stateMutability": "nonpayable",
      "type": "function"
    },
    {
      "inputs": [
        {
          "internalType": "uint256",
          "name": "tokenId",
          "type": "uint256"
        },
        {
          "internalType": "string",
          "name": "tokenURI",
          "type": "string"
        }
      ],
      "name": "setTokenURI",
      "outputs": [],
      "stateMutability": "nonpayable",
      "type": "function"
    },
    {
      "inputs": [
        {
          "internalType": "bytes4",
          "name": "_interface",
          "type": "bytes4"
        }
      ],
      "name": "supportsInterface",
      "outputs": [
        {
          "internalType": "bool",
          "name": "",
          "type": "bool"
        }
      ],
      "stateMutability": "pure",
      "type": "function"
    },
    {
      "inputs": [
        {
          "internalType": "address",
          "name": "account",
          "type": "address"
        }
      ],
      "name": "tokensByAccount",
      "outputs": [
        {
          "internalType": "uint256[]",
          "name": "",
          "type": "uint256[]"
        }
      ],
      "stateMutability": "view",
      "type": "function"
    },
    {
      "inputs": [
        {
          "internalType": "uint256",
          "name": "id",
          "type": "uint256"
        }
      ],
      "name": "totalHolders",
      "outputs": [
        {
          "internalType": "uint256",
          "name": "",
          "type": "uint256"
        }
      ],
      "stateMutability": "view",
      "type": "function"
    },
    {
      "inputs": [
        {
          "internalType": "uint256",
          "name": "id",
          "type": "uint256"
        }
      ],
      "name": "totalSupply",
      "outputs": [
        {
          "internalType": "uint256",
          "name": "",
          "type": "uint256"
        }
      ],
      "stateMutability": "view",
      "type": "function"
    },
    {
      "inputs": [
        {
          "internalType": "uint256",
          "name": "tokenId",
          "type": "uint256"
        }
      ],
      "name": "uri",
      "outputs": [
        {
          "internalType": "string",
          "name": "",
          "type": "string"
        }
      ],
      "stateMutability": "view",
      "type": "function"
    }
  ],
  "transactionHash": "0x0405d565dd77a8c060e878752f2d062133b1c8cbff08a9fbb7be8aa325b6525a",
  "args": [],
  "numDeployments": 4,
  "solcInputHash": "b3598ef5b3b2c0f31fb2ec893bb2a952",
  "bytecode": "0x608060405234801561001057600080fd5b50613484806100206000396000f3fe608060405234801561001057600080fd5b50600436106101575760003560e01c806384118c5d116100c3578063c22cbb5d1161007c578063c22cbb5d14610329578063cdc11b111461033c578063ceb60ee61461034f578063d81d0a1514610362578063e985e9c514610375578063f242432a1461038857600080fd5b806384118c5d1461029d57806385bff2e7146102b0578063a22cb465146102c3578063ac9650d8146102d6578063ba58bb17146102f6578063bd85b0391461031657600080fd5b80632eb2c2d6116101155780632eb2c2d6146102115780634e1273f4146102245780634f7fb3321461024457806355b4b1a41461025757806355f804b31461026a5780636dcfd8411461027d57600080fd5b8062fdd58e1461015c57806301ffc9a7146101825780630e89341c146101b657806313ba55df146101d6578063156e29f6146101e9578063162094c4146101fe575b600080fd5b61016f61016a3660046125e4565b61039b565b6040519081526020015b60405180910390f35b6101a6610190366004612624565b6001600160e01b031916636cdb3d1360e11b1490565b6040519015158152602001610179565b6101c96101c4366004612648565b6103b0565b60405161017991906126b1565b61016f6101e4366004612648565b61041a565b6101fc6101f73660046126c4565b610425565b005b6101fc61020c36600461273f565b610471565b6101fc61021f3660046128d3565b6104e7565b61023761023236600461297c565b610539565b6040516101799190612a81565b6101fc610252366004612ad8565b6106a3565b61016f6102653660046125e4565b610705565b6101fc610278366004612b71565b61074d565b61029061028b366004612648565b6107c6565b6040516101799190612bb2565b6101fc6102ab366004612bff565b6107d1565b6102376102be366004612c51565b610861565b6101fc6102d1366004612c7c565b61086c565b6102e96102e4366004612caf565b610920565b6040516101799190612ce4565b6102fe610a3a565b6040516001600160a01b039091168152602001610179565b61016f610324366004612648565b610a72565b6101fc610337366004612c51565b610aa5565b6101fc61034a366004612d46565b610b28565b6101fc61035d366004612d99565b610b69565b6101fc610370366004612df8565b610b7b565b6101a6610383366004612e78565b610bbe565b6101fc610396366004612ea2565b610c0b565b60006103a78383610c9b565b90505b92915050565b7f333d4b734a9ca3847483bf4c14a14709d21907ff5f12a881347e2fb2ad8906d75460609060ff161561040c576103e682610cf9565b6040516020016103f69190612f06565b6040516020818303038152906040529050919050565b6103aa82610cf9565b919050565b60006103aa82610ec8565b61044461043e60008051602061340f8339815191525490565b33610efe565b6104615760405163d0befa1d60e01b815260040160405180910390fd5b61046c838383610f35565b505050565b61048a61043e60008051602061340f8339815191525490565b6104a75760405163d0befa1d60e01b815260040160405180910390fd5b61046c8383838080601f016020809104026020016040519081016040528093929190818152602001838380828437600092019190915250610f7292505050565b6001600160a01b038516331480159061050757506105058533610bbe565b155b15610524576040516212efed60e91b815260040160405180910390fd5b610532338686868686610fe6565b5050505050565b6060815183511461055d57604051633e7e0b6d60e11b815260040160405180910390fd5b825160008051602061342f833981519152906000906001600160401b038111156105895761058961278a565b6040519080825280602002602001820160405280156105b2578160200160208202803683370190505b50905060005b855181101561069a5760006001600160a01b03168682815181106105de576105de612f2f565b60200260200101516001600160a01b03160361060d5760405163db5d879760e01b815260040160405180910390fd5b82600086838151811061062257610622612f2f565b60200260200101518152602001908152602001600020600087838151811061064c5761064c612f2f565b60200260200101516001600160a01b03166001600160a01b031681526020019081526020016000205482828151811061068757610687612f2f565b60209081029190910101526001016105b8565b50949350505050565b7f09acf4e54214992e70883cf7dcd6957ff2c71cd9e14df4bec4383bc0d11607dc80546002036106e657604051635db5c7cd60e11b815260040160405180910390fd5b600281556106f93388888888888861100a565b60019055505050505050565b6001600160a01b03821660009081527f333d4b734a9ca3847483bf4c14a14709d21907ff5f12a881347e2fb2ad8906d6602090815260408083208484529091528120546103a7565b61076661043e60008051602061340f8339815191525490565b6107835760405163d0befa1d60e01b815260040160405180910390fd5b6107c282828080601f0160208091040260200160405190810160405280939291908181526020018383808284376000920191909152506110e292505050565b5050565b60606103aa8261110d565b7f09acf4e54214992e70883cf7dcd6957ff2c71cd9e14df4bec4383bc0d11607dc805460020361081457604051635db5c7cd60e11b815260040160405180910390fd5b600281556040805160208085028281018201909352848252610857923392899289928991899182918501908490808284376000920191909152506111e092505050565b6001905550505050565b60606103aa826112fa565b6001600160a01b038216330361089557604051637b30a93360e11b815260040160405180910390fd5b3360008181527f1799cf914cb0cb442ca7c7ac709ee40d0cb89e87351dc08d517fbda27d50c68c602090815260408083206001600160a01b03871680855290835292819020805460ff191686151590811790915590519081529192917f17307eab39ab6107e8899845ad3d59bd9653f200f220920489ca2b5937696c31910160405180910390a35050565b6060816001600160401b0381111561093a5761093a61278a565b60405190808252806020026020018201604052801561096d57816020015b60608152602001906001900390816109585790505b50905060005b82811015610a33576000803086868581811061099157610991612f2f565b90506020028101906109a39190612f45565b6040516109b1929190612f8b565b600060405180830381855af49150503d80600081146109ec576040519150601f19603f3d011682016040523d82523d6000602084013e6109f1565b606091505b50915091508115610a1f5780848481518110610a0f57610a0f612f2f565b6020026020010181905250610a29565b3d6000803e3d6000fd5b5050600101610973565b5092915050565b6000610a6d7f333d4b734a9ca3847483bf4c14a14709d21907ff5f12a881347e2fb2ad8906da546001600160a01b031690565b905090565b60008181527fb31c2c74f86ca3ce94d901f5f5bbe66f7161eec2f7b5aa0b75a86371436424ea60205260408120546103aa565b610abe61043e60008051602061340f8339815191525490565b610adb5760405163d0befa1d60e01b815260040160405180910390fd5b7f333d4b734a9ca3847483bf4c14a14709d21907ff5f12a881347e2fb2ad8906da805473ffffffffffffffffffffffffffffffffffffffff19166001600160a01b03831617905550565b50565b610b4161043e60008051602061340f8339815191525490565b610b5e5760405163d0befa1d60e01b815260040160405180910390fd5b61046c8383836113c2565b610b7584848484611435565b50505050565b610b9461043e60008051602061340f8339815191525490565b610bb15760405163d0befa1d60e01b815260040160405180910390fd5b610532858585858561152b565b6001600160a01b0391821660009081527f1799cf914cb0cb442ca7c7ac709ee40d0cb89e87351dc08d517fbda27d50c68c6020908152604080832093909416825291909152205460ff1690565b6001600160a01b0385163314801590610c2b5750610c298533610bbe565b155b8015610c70575033610c647f333d4b734a9ca3847483bf4c14a14709d21907ff5f12a881347e2fb2ad8906da546001600160a01b031690565b6001600160a01b031614155b15610c8d576040516212efed60e91b815260040160405180910390fd5b610532338686868686611604565b60006001600160a01b038316610cc45760405163db5d879760e01b815260040160405180910390fd5b60008051602061342f8339815191526000928352602090815260408084206001600160a01b0395909516845293905250205490565b60008181527f4281b61aefbe70b3d3f684b428efca5f33077bc240e76f2808f9177c307617f56020526040812080546060927f4281b61aefbe70b3d3f684b428efca5f33077bc240e76f2808f9177c307617f4929091610d5890612f9b565b80601f0160208091040260200160405190810160405280929190818152602001828054610d8490612f9b565b8015610dd15780601f10610da657610100808354040283529160200191610dd1565b820191906000526020600020905b815481529060010190602001808311610db457829003601f168201915b505050505090506000826000018054610de990612f9b565b80601f0160208091040260200160405190810160405280929190818152602001828054610e1590612f9b565b8015610e625780601f10610e3757610100808354040283529160200191610e62565b820191906000526020600020905b815481529060010190602001808311610e4557829003601f168201915b505050505090508051600003610e7a57509392505050565b815115610ead578082604051602001610e94929190612fd5565b6040516020818303038152906040529350505050919050565b80610eb786611620565b604051602001610e94929190612fd5565b60008181527fb31c2c74f86ca3ce94d901f5f5bbe66f7161eec2f7b5aa0b75a86371436424eb602052604081206103aa90611728565b60008281527fd3889cc5458b268d0544e5534672df1296288ca3f93cbd39bd6f497a5c622811602052604081206103a79083611732565b6001821015610f575760405163225c19bb60e11b815260040160405180910390fd5b61046c83838360405180602001604052806000815250611754565b60008281527f4281b61aefbe70b3d3f684b428efca5f33077bc240e76f2808f9177c307617f560205260409020610fa9828261304a565b50817f6bb7ff708619ba0610cba295a58592e0451dee2622938c8755667688daf3529b82604051610fda91906126b1565b60405180910390a25050565b610ff486868686868661182d565b6110028686868686866119d6565b505050505050565b84831461102a57604051634e98d26360e01b815260040160405180910390fd5b60005b858110156110d8576110c68888888481811061104b5761104b612f2f565b9050602002013587878581811061106457611064612f2f565b9050602002013586868681811061107d5761107d612f2f565b905060200281019061108f9190613109565b808060200260200160405190810160405280939291908181526020018383602002808284376000920191909152506111e092505050565b806110d081613168565b91505061102d565b5050505050505050565b7f4281b61aefbe70b3d3f684b428efca5f33077bc240e76f2808f9177c307617f46107c2828261304a565b60008181527fb31c2c74f86ca3ce94d901f5f5bbe66f7161eec2f7b5aa0b75a86371436424eb6020526040812060609161114682611728565b6001600160401b0381111561115d5761115d61278a565b604051908082528060200260200182016040528015611186578160200160208202803683370190505b50905060005b61119583611728565b8110156111d8576111a68382611af8565b8282815181106111b8576111b8612f2f565b6001600160a01b039092166020928302919091019091015260010161118c565b509392505050565b60018310156112025760405163225c19bb60e11b815260040160405180910390fd5b604080516001600160a01b038616602082015280820185905260608082018590528251808303909101815260809091019091527f333d4b734a9ca3847483bf4c14a14709d21907ff5f12a881347e2fb2ad8906d6906112618382611b04565b61127c86868660405180602001604052806000815250611754565b6001600160a01b038616600090815260208381526040808320888452909152812080548692906112ad908490613181565b909155505060405184815285906001600160a01b038816907fd4307fb1338aefb2a030cf5ea0f582a10d28ffee99fe253e5d48946f9a74a59f9060200160405180910390a3505050505050565b6001600160a01b03811660009081527fb31c2c74f86ca3ce94d901f5f5bbe66f7161eec2f7b5aa0b75a86371436424ec6020526040812060609161133d82611728565b6001600160401b038111156113545761135461278a565b60405190808252806020026020018201604052801561137d578160200160208202803683370190505b50905060005b61138c83611728565b8110156111d85761139d8382611af8565b8282815181106113af576113af612f2f565b6020908102919091010152600101611383565b61140183838080601f0160208091040260200160405190810160405280939291908181526020018383808284376000920191909152506110e292505050565b7f333d4b734a9ca3847483bf4c14a14709d21907ff5f12a881347e2fb2ad8906d7805460ff19169115159190911790555050565b82811461145557604051634e98d26360e01b815260040160405180910390fd5b6000805b8481101561151e57600186868381811061147557611475612f2f565b90506020020135101561149b5760405163225c19bb60e11b815260040160405180910390fd5b6114e6338787848181106114b1576114b1612f2f565b905060200201358686858181106114ca576114ca612f2f565b9050602002013560405180602001604052806000815250611754565b8383828181106114f8576114f8612f2f565b905060200201358261150a9190613181565b91508061151681613168565b915050611459565b5061053260003383611c1b565b6001611569858580806020026020016040519081016040528093929190818152602001838360200280828437600092019190915250611dd092505050565b10156115885760405163225c19bb60e11b815260040160405180910390fd5b6105328585858080602002602001604051908101604052809392919081815260200183836020028082843760009201919091525050604080516020808902828101820190935288825290935088925087918291850190849080828437600092018290525060408051602081019091529081529250611e26915050565b611612868686868686611f7d565b611002868686868686612093565b6060816000036116475750506040805180820190915260018152600360fc1b602082015290565b8160005b8115611671578061165b81613168565b915061166a9050600a836131aa565b915061164b565b6000816001600160401b0381111561168b5761168b61278a565b6040519080825280601f01601f1916602001820160405280156116b5576020820181803683370190505b5090505b8415611720576116ca6001836131be565b91506116d7600a866131d1565b6116e2906030613181565b60f81b8183815181106116f7576116f7612f2f565b60200101906001600160f81b031916908160001a905350611719600a866131aa565b94506116b9565b949350505050565b60006103aa825490565b6001600160a01b038116600090815260018301602052604081205415156103a7565b6001600160a01b03841661177b576040516301c8efbf60e11b815260040160405180910390fd5b61179a3360008661178b8761214f565b6117948761214f565b8661219a565b600083815260008051602061342f833981519152602090815260408083206001600160a01b0388168452909152812080548492906117d9908490613181565b909155505060408051848152602081018490526001600160a01b0386169160009133917fc3d58168c5ae7397731d063d5bbf3d657854427343f4c083240f7aacaa2d0f62910160405180910390a450505050565b6001600160a01b0384166118545760405163f5cadad560e01b815260040160405180910390fd5b815183511461187657604051633e7e0b6d60e11b815260040160405180910390fd5b61188486868686868661219a565b60008051602061342f83398151915260005b84518110156119755760008582815181106118b3576118b3612f2f565b6020026020010151905060008583815181106118d1576118d1612f2f565b602090810291909101810151600084815286835260408082206001600160a01b038e1683529093529190912054909150808211156119225760405163119ac6bb60e31b815260040160405180910390fd5b6000838152602086815260408083206001600160a01b038e811685529252808320938590039093558a168152908120805460019590950194839290611968908490613181565b9091555061189692505050565b50846001600160a01b0316866001600160a01b0316886001600160a01b03167f4a39dc06d4c0dbc64b70af90fd698a233a518aa5d07e595d983b8c0526c8f7fb87876040516119c59291906131e5565b60405180910390a450505050505050565b6001600160a01b0384163b156110025760405163bc197c8160e01b81526001600160a01b0385169063bc197c8190611a1a9089908990889088908890600401613213565b6020604051808303816000875af1925050508015611a55575060408051601f3d908101601f19168201909252611a5291810190613271565b60015b611abe57611a6161328e565b806308c379a003611aa35750611a756132aa565b80611a805750611aa5565b8060405162461bcd60e51b8152600401611a9a91906126b1565b60405180910390fd5b505b60405163380147a960e01b815260040160405180910390fd5b6001600160e01b0319811663bc197c8160e01b14611aef57604051633744db2960e01b815260040160405180910390fd5b50505050505050565b60006103a783836121a8565b7f7a07c093b55ad04e200605cb287859fe4640b7310d62fdbb044e26399da78c09547f7a07c093b55ad04e200605cb287859fe4640b7310d62fdbb044e26399da78c089060ff1615611b695760405163a2f902f160e01b815260040160405180910390fd5b600083604051602001611b7c9190613333565b60405160208183030381529060405280519060200120905060008380519060200120604051602001611bb091815260200190565b6040516020818303038152906040528051906020012090506000611bd9868560000154846121f4565b905080611bf957604051631006f83b60e31b815260040160405180910390fd5b50506000908152600290910160205260409020805460ff191660011790555050565b7ff38d3885e664c9638de25f02e645e1955ebebe901d7be2c2037db6a5bcbb358860008181866001811115611c5257611c52613369565b6001811115611c6357611c63613369565b81526020810191909152604001600020600481015490915060ff16611c9b57604051633137c0e960e11b815260040160405180910390fd5b6001600160a01b0384166000908152600182016020526040902054831115611cd657604051630f8a2c5f60e31b815260040160405180910390fd5b6001600160a01b038416600090815260018201602052604081208054859290611d009084906131be565b90915550506001600160a01b03841660009081526020829052604081208054859290611d2d908490613181565b9250508190555082816002016000828254611d489190613181565b9250508190555082816003016000828254611d6391906131be565b90915550506001600160a01b038416600081815260018301602090815260408083205491859052918290205491517f6526db8cb857c3bc972db45a7984e99efaed17f7a4e51afb85c64450133cb55c92611dc1928a9290919061337f565b60405180910390a25050505050565b6000600019815b8351811015610a335781848281518110611df357611df3612f2f565b60200260200101511015611e1e57838181518110611e1357611e13612f2f565b602002602001015191505b600101611dd7565b6001600160a01b038416611e4d576040516301c8efbf60e11b815260040160405180910390fd5b8151835114611e6f57604051633e7e0b6d60e11b815260040160405180910390fd5b611e7e3360008686868661219a565b60008051602061342f83398151915260005b8451811015611f1d57838181518110611eab57611eab612f2f565b6020026020010151826000878481518110611ec857611ec8612f2f565b602002602001015181526020019081526020016000206000886001600160a01b03166001600160a01b031681526020019081526020016000206000828254611f109190613181565b9091555050600101611e90565b50846001600160a01b031660006001600160a01b0316336001600160a01b03167f4a39dc06d4c0dbc64b70af90fd698a233a518aa5d07e595d983b8c0526c8f7fb8787604051611f6e9291906131e5565b60405180910390a45050505050565b6001600160a01b038416611fa45760405163f5cadad560e01b815260040160405180910390fd5b611fb386868661178b8761214f565b600083815260008051602061342f833981519152602081815260408084206001600160a01b038a16855290915290912054808411156120055760405163119ac6bb60e31b815260040160405180910390fd5b6000858152602083815260408083206001600160a01b038b81168552925280832093879003909355871681529081208054859290612044908490613181565b909155505060408051858152602081018590526001600160a01b038088169289821692918b16917fc3d58168c5ae7397731d063d5bbf3d657854427343f4c083240f7aacaa2d0f6291016119c5565b6001600160a01b0384163b156110025760405163f23a6e6160e01b81526001600160a01b0385169063f23a6e61906120d790899089908890889088906004016133b5565b6020604051808303816000875af1925050508015612112575060408051601f3d908101601f1916820190925261210f91810190613271565b60015b61211e57611a6161328e565b6001600160e01b0319811663f23a6e6160e01b14611aef57604051633744db2960e01b815260040160405180910390fd5b6040805160018082528183019092526060916000919060208083019080368337019050509050828160008151811061218957612189612f2f565b602090810291909101015292915050565b611002868686868686612299565b815460009082106121cc5760405163e637bf3b60e01b815260040160405180910390fd5b8260000182815481106121e1576121e1612f2f565b9060005260206000200154905092915050565b600081815b855181101561228e57600086828151811061221657612216612f2f565b60200260200101519050808311612258576040805160208101859052908101829052606001604051602081830303815290604052805190602001209250612285565b60408051602081018390529081018490526060016040516020818303038152906040528051906020012092505b506001016121f9565b509092149392505050565b611002868686868686836001600160a01b0316856001600160a01b031614611002576001600160a01b0385811660009081527fb31c2c74f86ca3ce94d901f5f5bbe66f7161eec2f7b5aa0b75a86371436424ec6020526040808220928716825281207fb31c2c74f86ca3ce94d901f5f5bbe66f7161eec2f7b5aa0b75a86371436424ea927fb31c2c74f86ca3ce94d901f5f5bbe66f7161eec2f7b5aa0b75a86371436424eb929091905b875181101561248157600087828151811061236057612360612f2f565b60200260200101519050600081111561247857600089838151811061238757612387612f2f565b6020026020010151905060006001600160a01b03168c6001600160a01b0316036123d457600081815260208890526040812080548492906123c9908490613181565b909155506124099050565b816123df8d83610c9b565b036124095760008181526020879052604090206123fc908d61248e565b5061240785826124a3565b505b6001600160a01b038b1661244057600081815260208890526040812080548492906124359084906131be565b909155506124769050565b61244a8b82610c9b565b600003612476576000818152602087905260409020612469908c6124af565b5061247484826124c4565b505b505b50600101612343565b5050505050505050505050565b60006103a7836001600160a01b0384166124d0565b60006103a783836124d0565b60006103a7836001600160a01b03841661258a565b60006103a7838361258a565b60008181526001830160205260408120548015610a335783546000908590600019810190811061250257612502612f2f565b906000526020600020015490508085600001600184038154811061252857612528612f2f565b600091825260208083209091019290925591825260018601905260409020819055835484908061255a5761255a6133f8565b60008281526020808220830160001990810183905590920190925593815260019485019093525050604081205590565b60008181526001830160205260408120546103aa575081546001808201845560008481526020808220909301849055845493815293810190915260409092205590565b80356001600160a01b038116811461041557600080fd5b600080604083850312156125f757600080fd5b612600836125cd565b946020939093013593505050565b6001600160e01b031981168114610b2557600080fd5b60006020828403121561263657600080fd5b81356126418161260e565b9392505050565b60006020828403121561265a57600080fd5b5035919050565b60005b8381101561267c578181015183820152602001612664565b50506000910152565b6000815180845261269d816020860160208601612661565b601f01601f19169290920160200192915050565b6020815260006103a76020830184612685565b6000806000606084860312156126d957600080fd5b6126e2846125cd565b95602085013595506040909401359392505050565b60008083601f84011261270957600080fd5b5081356001600160401b0381111561272057600080fd5b60208301915083602082850101111561273857600080fd5b9250929050565b60008060006040848603121561275457600080fd5b8335925060208401356001600160401b0381111561277157600080fd5b61277d868287016126f7565b9497909650939450505050565b634e487b7160e01b600052604160045260246000fd5b601f8201601f191681016001600160401b03811182821017156127c5576127c561278a565b6040525050565b60006001600160401b038211156127e5576127e561278a565b5060051b60200190565b600082601f83011261280057600080fd5b8135602061280d826127cc565b60405161281a82826127a0565b83815260059390931b850182019282810191508684111561283a57600080fd5b8286015b84811015612855578035835291830191830161283e565b509695505050505050565b600082601f83011261287157600080fd5b81356001600160401b0381111561288a5761288a61278a565b6040516128a1601f8301601f1916602001826127a0565b8181528460208386010111156128b657600080fd5b816020850160208301376000918101602001919091529392505050565b600080600080600060a086880312156128eb57600080fd5b6128f4866125cd565b9450612902602087016125cd565b935060408601356001600160401b038082111561291e57600080fd5b61292a89838a016127ef565b9450606088013591508082111561294057600080fd5b61294c89838a016127ef565b9350608088013591508082111561296257600080fd5b5061296f88828901612860565b9150509295509295909350565b6000806040838503121561298f57600080fd5b82356001600160401b03808211156129a657600080fd5b818501915085601f8301126129ba57600080fd5b813560206129c7826127cc565b6040516129d482826127a0565b83815260059390931b85018201928281019150898411156129f457600080fd5b948201945b83861015612a1957612a0a866125cd565b825294820194908201906129f9565b96505086013592505080821115612a2f57600080fd5b50612a3c858286016127ef565b9150509250929050565b600081518084526020808501945080840160005b83811015612a7657815187529582019590820190600101612a5a565b509495945050505050565b6020815260006103a76020830184612a46565b60008083601f840112612aa657600080fd5b5081356001600160401b03811115612abd57600080fd5b6020830191508360208260051b850101111561273857600080fd5b60008060008060008060608789031215612af157600080fd5b86356001600160401b0380821115612b0857600080fd5b612b148a838b01612a94565b90985096506020890135915080821115612b2d57600080fd5b612b398a838b01612a94565b90965094506040890135915080821115612b5257600080fd5b50612b5f89828a01612a94565b979a9699509497509295939492505050565b60008060208385031215612b8457600080fd5b82356001600160401b03811115612b9a57600080fd5b612ba6858286016126f7565b90969095509350505050565b6020808252825182820181905260009190848201906040850190845b81811015612bf35783516001600160a01b031683529284019291840191600101612bce565b50909695505050505050565b60008060008060608587031215612c1557600080fd5b843593506020850135925060408501356001600160401b03811115612c3957600080fd5b612c4587828801612a94565b95989497509550505050565b600060208284031215612c6357600080fd5b6103a7826125cd565b8035801515811461041557600080fd5b60008060408385031215612c8f57600080fd5b612c98836125cd565b9150612ca660208401612c6c565b90509250929050565b60008060208385031215612cc257600080fd5b82356001600160401b03811115612cd857600080fd5b612ba685828601612a94565b6000602080830181845280855180835260408601915060408160051b870101925083870160005b82811015612d3957603f19888603018452612d27858351612685565b94509285019290850190600101612d0b565b5092979650505050505050565b600080600060408486031215612d5b57600080fd5b83356001600160401b03811115612d7157600080fd5b612d7d868287016126f7565b9094509250612d90905060208501612c6c565b90509250925092565b60008060008060408587031215612daf57600080fd5b84356001600160401b0380821115612dc657600080fd5b612dd288838901612a94565b90965094506020870135915080821115612deb57600080fd5b50612c4587828801612a94565b600080600080600060608688031215612e1057600080fd5b612e19866125cd565b945060208601356001600160401b0380821115612e3557600080fd5b612e4189838a01612a94565b90965094506040880135915080821115612e5a57600080fd5b50612e6788828901612a94565b969995985093965092949392505050565b60008060408385031215612e8b57600080fd5b612e94836125cd565b9150612ca6602084016125cd565b600080600080600060a08688031215612eba57600080fd5b612ec3866125cd565b9450612ed1602087016125cd565b9350604086013592506060860135915060808601356001600160401b03811115612efa57600080fd5b61296f88828901612860565b60008251612f18818460208701612661565b64173539b7b760d91b920191825250600501919050565b634e487b7160e01b600052603260045260246000fd5b6000808335601e19843603018112612f5c57600080fd5b8301803591506001600160401b03821115612f7657600080fd5b60200191503681900382131561273857600080fd5b8183823760009101908152919050565b600181811c90821680612faf57607f821691505b602082108103612fcf57634e487b7160e01b600052602260045260246000fd5b50919050565b60008351612fe7818460208801612661565b835190830190612ffb818360208801612661565b01949350505050565b601f82111561046c57600081815260208120601f850160051c8101602086101561302b5750805b601f850160051c820191505b8181101561100257828155600101613037565b81516001600160401b038111156130635761306361278a565b613077816130718454612f9b565b84613004565b602080601f8311600181146130ac57600084156130945750858301515b600019600386901b1c1916600185901b178555611002565b600085815260208120601f198616915b828110156130db578886015182559484019460019091019084016130bc565b50858210156130f95787850151600019600388901b60f8161c191681555b5050505050600190811b01905550565b6000808335601e1984360301811261312057600080fd5b8301803591506001600160401b0382111561313a57600080fd5b6020019150600581901b360382131561273857600080fd5b634e487b7160e01b600052601160045260246000fd5b60006001820161317a5761317a613152565b5060010190565b808201808211156103aa576103aa613152565b634e487b7160e01b600052601260045260246000fd5b6000826131b9576131b9613194565b500490565b818103818111156103aa576103aa613152565b6000826131e0576131e0613194565b500690565b6040815260006131f86040830185612a46565b828103602084015261320a8185612a46565b95945050505050565b60006001600160a01b03808816835280871660208401525060a0604083015261323f60a0830186612a46565b82810360608401526132518186612a46565b905082810360808401526132658185612685565b98975050505050505050565b60006020828403121561328357600080fd5b81516126418161260e565b600060033d11156132a75760046000803e5060005160e01c5b90565b600060443d10156132b85790565b6040516003193d81016004833e81513d6001600160401b0381602484011181841117156132e757505050505090565b82850191508151818111156132ff5750505050505090565b843d87010160208285010111156133195750505050505090565b613328602082860101876127a0565b509095945050505050565b815160009082906020808601845b8381101561335d57815185529382019390820190600101613341565b50929695505050505050565b634e487b7160e01b600052602160045260246000fd5b60608101600285106133a157634e487b7160e01b600052602160045260246000fd5b938152602081019290925260409091015290565b60006001600160a01b03808816835280871660208401525084604083015283606083015260a060808301526133ed60a0830184612685565b979650505050505050565b634e487b7160e01b600052603160045260246000fdfef6deb63e40d71b08820818e006e23fcceb1fce7a499bc15b71b2526cbf9efa721799cf914cb0cb442ca7c7ac709ee40d0cb89e87351dc08d517fbda27d50c68ba2646970667358221220e9b461c78d094d12631cbb47adaaba717b27cc0564cbaef0f13dfbf0e409e9fb64736f6c63430008130033",
  "devdoc": {
    "details": "This contract handles the creation and management of items It uses ERC1155 tokens to represent items and provides methods to mint new items, claim items via Merkle tree or a whitelist, and set the base and URIs for the items. It also uses the ReentrancyGuard and Multicall contracts for security and gas efficiency.",
    "kind": "dev",
    "methods": {
      "accountsByToken(uint256)": {
        "params": {
          "id": "token id to query"
        },
        "returns": {
          "_0": "list of holder addresses"
        }
      },
      "balanceOf(address,uint256)": {
        "params": {
          "account": "address to query",
          "id": "token to query"
        },
        "returns": {
          "_0": "token balance"
        }
      },
      "balanceOfBatch(address[],uint256[])": {
        "params": {
          "accounts": "addresss to query",
          "ids": "tokens to query"
        },
        "returns": {
          "_0": "token balances"
        }
      },
      "claimMerkle(uint256,uint256,bytes32[])": {
        "params": {
          "amount": "The amount of the item to claim",
          "itemId": "The ID of the item to claim",
          "proof": "The Merkle proof for the item"
        }
      },
      "claimMerkleBatch(uint256[],uint256[],bytes32[][])": {
        "params": {
          "amounts": "The amounts of the items to claim",
          "itemsIds": "The IDs of the items to claim",
          "proofs": "The Merkle proofs for the items"
        }
      },
      "claimWhitelist(uint256[],uint256[])": {
        "params": {
          "amounts": "The amounts of the items to claim",
          "itemIds": "The IDs of the items to claim"
        }
      },
      "claimedAmount(address,uint256)": {
        "params": {
          "account": "the account to query",
          "itemId": "the item id to query"
        },
        "returns": {
          "amount": "returns the claimed amount given an account and an item id"
        }
      },
      "getInventoryAddress()": {
        "details": "Returns the current inventory address",
        "returns": {
          "_0": "The address of the inventory contract"
        }
      },
      "isApprovedForAll(address,address)": {
        "params": {
          "account": "address to query for approval granted",
          "operator": "address to query for approval received"
        },
        "returns": {
          "_0": "whether operator is approved to spend tokens held by account"
        }
      },
      "migrateToIPFS(string,bool)": {
        "details": "Only the manager role can call this function",
        "params": {
          "migrate": "Should migrate to IPFS",
          "newBaseURI": "The new base URI"
        }
      },
      "mint(address,uint256,uint256)": {
        "params": {
          "amount": "The item amount to be minted",
          "itemId": "The ID of the item to mint",
          "to": "The address to mint the item to"
        }
      },
      "mintBatch(address,uint256[],uint256[])": {
        "params": {
          "amounts": "The items amounts to be minted",
          "itemIds": "An array of items IDs to be minted",
          "to": "The address to receive the minted items"
        }
      },
      "multicall(bytes[])": {
        "params": {
          "data": "array of function call data payloads"
        },
        "returns": {
          "results": "array of function call results"
        }
      },
      "safeBatchTransferFrom(address,address,uint256[],uint256[],bytes)": {
        "params": {
          "amounts": "list of quantities of tokens to transfer",
          "data": "data payload",
          "from": "sender of tokens",
          "ids": "list of token IDs",
          "to": "receiver of tokens"
        }
      },
      "safeTransferFrom(address,address,uint256,uint256,bytes)": {
        "params": {
          "amount": "quantity of tokens to transfer",
          "data": "data payload",
          "from": "sender of tokens",
          "id": "token ID",
          "to": "receiver of tokens"
        }
      },
      "setApprovalForAll(address,bool)": {
        "params": {
          "operator": "address whose approval status to update",
          "status": "whether operator should be considered approved"
        }
      },
      "setBaseURI(string)": {
        "details": "Only the manager role can call this function",
        "params": {
          "baseURI": "The new base URI"
        }
      },
      "setInventoryAddress(address)": {
        "details": "Sets the inventory address",
        "params": {
          "inventoryAddress": "The new address of the inventory contract"
        }
      },
      "setTokenURI(uint256,string)": {
        "details": "Only the manager role can call this function",
        "params": {
          "tokenId": "The ID of the item to set the URI for",
          "tokenURI": "The new item URI"
        }
      },
      "tokensByAccount(address)": {
        "params": {
          "account": "address to query"
        },
        "returns": {
          "_0": "list of token ids"
        }
      },
      "totalHolders(uint256)": {
        "params": {
          "id": "token id to query"
        },
        "returns": {
          "_0": "quantity of holders"
        }
      },
      "totalSupply(uint256)": {
        "params": {
          "id": "token id to query"
        },
        "returns": {
          "_0": "token supply"
        }
      }
    },
    "title": "ItemsFacet",
    "version": 1
  },
  "userdoc": {
    "kind": "user",
    "methods": {
      "accountsByToken(uint256)": {
        "notice": "query holders of given token"
      },
      "balanceOf(address,uint256)": {
        "notice": "query the balance of given token held by given address"
      },
      "balanceOfBatch(address[],uint256[])": {
        "notice": "query the balances of given tokens held by given addresses"
      },
      "claimMerkle(uint256,uint256,bytes32[])": {
        "notice": "Claims an item if present in the Merkle tree"
      },
      "claimMerkleBatch(uint256[],uint256[],bytes32[][])": {
        "notice": "Claims items if present in the Merkle tree"
      },
      "claimWhitelist(uint256[],uint256[])": {
        "notice": "Claims items from a whitelist"
      },
      "claimedAmount(address,uint256)": {
        "notice": "Amount claimed by an address of a specific item"
      },
      "isApprovedForAll(address,address)": {
        "notice": "query approval status of given operator with respect to given address"
      },
      "migrateToIPFS(string,bool)": {
        "notice": "Set the base URI for all items metadata"
      },
      "mint(address,uint256,uint256)": {
        "notice": "Mints a new item. Only minter role account can mint"
      },
      "mintBatch(address,uint256[],uint256[])": {
        "notice": "Mint a batch of items to a specific address. Only minter role account can mint"
      },
      "multicall(bytes[])": {
        "notice": "batch function calls to the contract and return the results of each"
      },
      "safeBatchTransferFrom(address,address,uint256[],uint256[],bytes)": {
        "notice": "transfer batch of tokens between given addresses, checking for ERC1155Receiver implementation if applicable"
      },
      "safeTransferFrom(address,address,uint256,uint256,bytes)": {
        "notice": "transfer tokens between given addresses, checking for ERC1155Receiver implementation if applicable"
      },
      "setApprovalForAll(address,bool)": {
        "notice": "grant approval to or revoke approval from given operator to spend held tokens"
      },
      "setBaseURI(string)": {
        "notice": "Set the base URI for all items metadata"
      },
      "setTokenURI(uint256,string)": {
        "notice": "Set the URI for a specific item ID"
      },
      "tokensByAccount(address)": {
        "notice": "query tokens held by given address"
      },
      "totalHolders(uint256)": {
        "notice": "query total number of holders for given token"
      },
      "totalSupply(uint256)": {
        "notice": "query total minted supply of given token"
      },
      "uri(uint256)": {
        "notice": "Override ERC1155Metadata"
      }
    },
    "version": 1
  },
  "storageLayout": {
    "storage": [],
    "types": null
  }
}