{
  "address": "0xd424Cc571A49893820E1E36Aa86C4Fe60557871e",
  "abi": [
    {
      "inputs": [],
      "name": "ERC1155Base__ArrayLengthMismatch",
      "type": "error"
    },
    {
      "inputs": [],
      "name": "ERC1155Base__BalanceQueryZeroAddress",
      "type": "error"
    },
    {
      "inputs": [],
      "name": "ERC1155Base__BurnExceedsBalance",
      "type": "error"
    },
    {
      "inputs": [],
      "name": "ERC1155Base__BurnFromZeroAddress",
      "type": "error"
    },
    {
      "inputs": [],
      "name": "ERC1155Base__ERC1155ReceiverNotImplemented",
      "type": "error"
    },
    {
      "inputs": [],
      "name": "ERC1155Base__ERC1155ReceiverRejected",
      "type": "error"
    },
    {
      "inputs": [],
      "name": "ERC1155Base__MintToZeroAddress",
      "type": "error"
    },
    {
      "inputs": [],
      "name": "ERC1155Base__NotOwnerOrApproved",
      "type": "error"
    },
    {
      "inputs": [],
      "name": "ERC1155Base__SelfApproval",
      "type": "error"
    },
    {
      "inputs": [],
      "name": "ERC1155Base__TransferExceedsBalance",
      "type": "error"
    },
    {
      "inputs": [],
      "name": "ERC1155Base__TransferToZeroAddress",
      "type": "error"
    },
    {
      "inputs": [],
      "name": "EnumerableSet__IndexOutOfBounds",
      "type": "error"
    },
    {
      "inputs": [],
      "name": "Items_InputsLengthMistatch",
      "type": "error"
    },
    {
      "inputs": [],
      "name": "Items_InvalidItemId",
      "type": "error"
    },
    {
      "inputs": [],
      "name": "Items_ItemsBasicStatusAlreadyUpdated",
      "type": "error"
    },
    {
      "inputs": [],
      "name": "Items_MaximumItemMintsExceeded",
      "type": "error"
    },
    {
      "inputs": [],
      "name": "Items_MintingNonBasicItem",
      "type": "error"
    },
    {
      "inputs": [],
      "name": "Merkle_AlreadyClaimed",
      "type": "error"
    },
    {
      "inputs": [],
      "name": "Merkle_ClaimInactive",
      "type": "error"
    },
    {
      "inputs": [],
      "name": "Merkle_ClaimStateAlreadyUpdated",
      "type": "error"
    },
    {
      "inputs": [],
      "name": "Merkle_InvalidClaimAmount",
      "type": "error"
    },
    {
      "inputs": [],
      "name": "Merkle_NotIncludedInMerkleTree",
      "type": "error"
    },
    {
      "inputs": [],
      "name": "ReentrancyGuard__ReentrantCall",
      "type": "error"
    },
    {
      "inputs": [],
      "name": "Roles_MissingAdminRole",
      "type": "error"
    },
    {
      "inputs": [],
      "name": "Roles_MissingAutomationRole",
      "type": "error"
    },
    {
      "inputs": [],
      "name": "Roles_MissingManagerRole",
      "type": "error"
    },
    {
      "inputs": [],
      "name": "Whitelist_ClaimInactive",
      "type": "error"
    },
    {
      "inputs": [],
      "name": "Whitelist_ClaimStateAlreadyUpdated",
      "type": "error"
    },
    {
      "inputs": [],
      "name": "Whitelist_ExceedsElegibleAmount",
      "type": "error"
    },
    {
      "inputs": [],
      "name": "Whitelist_ExceedsPoolSupply",
      "type": "error"
    },
    {
      "inputs": [],
      "name": "Whitelist_InputDataMismatch",
      "type": "error"
    },
    {
      "anonymous": false,
      "inputs": [
        {
          "indexed": true,
          "internalType": "address",
          "name": "account",
          "type": "address"
        },
        {
          "indexed": true,
          "internalType": "address",
          "name": "operator",
          "type": "address"
        },
        {
          "indexed": false,
          "internalType": "bool",
          "name": "approved",
          "type": "bool"
        }
      ],
      "name": "ApprovalForAll",
      "type": "event"
    },
    {
      "anonymous": false,
      "inputs": [
        {
          "indexed": true,
          "internalType": "address",
          "name": "to",
          "type": "address"
        },
        {
          "indexed": false,
          "internalType": "uint256[]",
          "name": "itemsIds",
          "type": "uint256[]"
        },
        {
          "indexed": false,
          "internalType": "uint256[]",
          "name": "amounts",
          "type": "uint256[]"
        }
      ],
      "name": "ItemsClaimedMerkle",
      "type": "event"
    },
    {
      "anonymous": false,
      "inputs": [
        {
          "indexed": true,
          "internalType": "bytes32",
          "name": "role",
          "type": "bytes32"
        },
        {
          "indexed": true,
          "internalType": "bytes32",
          "name": "previousAdminRole",
          "type": "bytes32"
        },
        {
          "indexed": true,
          "internalType": "bytes32",
          "name": "newAdminRole",
          "type": "bytes32"
        }
      ],
      "name": "RoleAdminChanged",
      "type": "event"
    },
    {
      "anonymous": false,
      "inputs": [
        {
          "indexed": true,
          "internalType": "bytes32",
          "name": "role",
          "type": "bytes32"
        },
        {
          "indexed": true,
          "internalType": "address",
          "name": "account",
          "type": "address"
        },
        {
          "indexed": true,
          "internalType": "address",
          "name": "sender",
          "type": "address"
        }
      ],
      "name": "RoleGranted",
      "type": "event"
    },
    {
      "anonymous": false,
      "inputs": [
        {
          "indexed": true,
          "internalType": "bytes32",
          "name": "role",
          "type": "bytes32"
        },
        {
          "indexed": true,
          "internalType": "address",
          "name": "account",
          "type": "address"
        },
        {
          "indexed": true,
          "internalType": "address",
          "name": "sender",
          "type": "address"
        }
      ],
      "name": "RoleRevoked",
      "type": "event"
    },
    {
      "anonymous": false,
      "inputs": [
        {
          "indexed": true,
          "internalType": "address",
          "name": "operator",
          "type": "address"
        },
        {
          "indexed": true,
          "internalType": "address",
          "name": "from",
          "type": "address"
        },
        {
          "indexed": true,
          "internalType": "address",
          "name": "to",
          "type": "address"
        },
        {
          "indexed": false,
          "internalType": "uint256[]",
          "name": "ids",
          "type": "uint256[]"
        },
        {
          "indexed": false,
          "internalType": "uint256[]",
          "name": "values",
          "type": "uint256[]"
        }
      ],
      "name": "TransferBatch",
      "type": "event"
    },
    {
      "anonymous": false,
      "inputs": [
        {
          "indexed": true,
          "internalType": "address",
          "name": "operator",
          "type": "address"
        },
        {
          "indexed": true,
          "internalType": "address",
          "name": "from",
          "type": "address"
        },
        {
          "indexed": true,
          "internalType": "address",
          "name": "to",
          "type": "address"
        },
        {
          "indexed": false,
          "internalType": "uint256",
          "name": "id",
          "type": "uint256"
        },
        {
          "indexed": false,
          "internalType": "uint256",
          "name": "value",
          "type": "uint256"
        }
      ],
      "name": "TransferSingle",
      "type": "event"
    },
    {
      "anonymous": false,
      "inputs": [
        {
          "indexed": false,
          "internalType": "string",
          "name": "value",
          "type": "string"
        },
        {
          "indexed": true,
          "internalType": "uint256",
          "name": "tokenId",
          "type": "uint256"
        }
      ],
      "name": "URI",
      "type": "event"
    },
    {
      "anonymous": false,
      "inputs": [
        {
          "indexed": true,
          "internalType": "address",
          "name": "account",
          "type": "address"
        },
        {
          "indexed": false,
          "internalType": "enum WhitelistStorage.PoolId",
          "name": "poolId",
          "type": "uint8"
        },
        {
          "indexed": false,
          "internalType": "uint256",
          "name": "totalElegibleAmount",
          "type": "uint256"
        },
        {
          "indexed": false,
          "internalType": "uint256",
          "name": "totalClaimedAmount",
          "type": "uint256"
        }
      ],
      "name": "WhitelistBalanceChanged",
      "type": "event"
    },
    {
      "inputs": [
        {
          "internalType": "uint256",
          "name": "id",
          "type": "uint256"
        }
      ],
      "name": "accountsByToken",
      "outputs": [
        {
          "internalType": "address[]",
          "name": "",
          "type": "address[]"
        }
      ],
      "stateMutability": "view",
      "type": "function"
    },
    {
      "inputs": [
        {
          "internalType": "address",
          "name": "account",
          "type": "address"
        },
        {
          "internalType": "uint256",
          "name": "id",
          "type": "uint256"
        }
      ],
      "name": "balanceOf",
      "outputs": [
        {
          "internalType": "uint256",
          "name": "",
          "type": "uint256"
        }
      ],
      "stateMutability": "view",
      "type": "function"
    },
    {
      "inputs": [
        {
          "internalType": "address[]",
          "name": "accounts",
          "type": "address[]"
        },
        {
          "internalType": "uint256[]",
          "name": "ids",
          "type": "uint256[]"
        }
      ],
      "name": "balanceOfBatch",
      "outputs": [
        {
          "internalType": "uint256[]",
          "name": "",
          "type": "uint256[]"
        }
      ],
      "stateMutability": "view",
      "type": "function"
    },
    {
      "inputs": [
        {
          "internalType": "uint256",
          "name": "itemId",
          "type": "uint256"
        },
        {
          "internalType": "uint256",
          "name": "amount",
          "type": "uint256"
        }
      ],
      "name": "burn",
      "outputs": [],
      "stateMutability": "nonpayable",
      "type": "function"
    },
    {
      "inputs": [
        {
          "internalType": "uint256[]",
          "name": "itemIds",
          "type": "uint256[]"
        },
        {
          "internalType": "uint256[]",
          "name": "amounts",
          "type": "uint256[]"
        }
      ],
      "name": "burnBatch",
      "outputs": [],
      "stateMutability": "nonpayable",
      "type": "function"
    },
    {
      "inputs": [
        {
          "internalType": "uint256",
          "name": "itemId",
          "type": "uint256"
        },
        {
          "internalType": "uint256",
          "name": "amount",
          "type": "uint256"
        },
        {
          "internalType": "bytes32[]",
          "name": "proof",
          "type": "bytes32[]"
        }
      ],
      "name": "claimMerkle",
      "outputs": [],
      "stateMutability": "nonpayable",
      "type": "function"
    },
    {
      "inputs": [
        {
          "internalType": "uint256[]",
          "name": "itemsIds",
          "type": "uint256[]"
        },
        {
          "internalType": "uint256[]",
          "name": "amounts",
          "type": "uint256[]"
        },
        {
          "internalType": "bytes32[][]",
          "name": "proofs",
          "type": "bytes32[][]"
        }
      ],
      "name": "claimMerkleBatch",
      "outputs": [],
      "stateMutability": "nonpayable",
      "type": "function"
    },
    {
      "inputs": [
        {
          "internalType": "uint256[]",
          "name": "itemIds",
          "type": "uint256[]"
        },
        {
          "internalType": "uint256[]",
          "name": "amounts",
          "type": "uint256[]"
        }
      ],
      "name": "claimWhitelist",
      "outputs": [],
      "stateMutability": "nonpayable",
      "type": "function"
    },
    {
      "inputs": [
        {
          "internalType": "address",
          "name": "account",
          "type": "address"
        },
        {
          "internalType": "uint256",
          "name": "itemId",
          "type": "uint256"
        }
      ],
      "name": "claimedAmount",
      "outputs": [
        {
          "internalType": "uint256",
          "name": "amount",
          "type": "uint256"
        }
      ],
      "stateMutability": "view",
      "type": "function"
    },
    {
      "inputs": [],
      "name": "getInventoryAddress",
      "outputs": [
        {
          "internalType": "address",
          "name": "",
          "type": "address"
        }
      ],
      "stateMutability": "view",
      "type": "function"
    },
    {
      "inputs": [
        {
          "internalType": "address",
          "name": "account",
          "type": "address"
        },
        {
          "internalType": "address",
          "name": "operator",
          "type": "address"
        }
      ],
      "name": "isApprovedForAll",
      "outputs": [
        {
          "internalType": "bool",
          "name": "",
          "type": "bool"
        }
      ],
      "stateMutability": "view",
      "type": "function"
    },
    {
      "inputs": [
        {
          "internalType": "string",
          "name": "newBaseURI",
          "type": "string"
        },
        {
          "internalType": "bool",
          "name": "migrate",
          "type": "bool"
        }
      ],
      "name": "migrateToIPFS",
      "outputs": [],
      "stateMutability": "nonpayable",
      "type": "function"
    },
    {
      "inputs": [
        {
          "internalType": "address",
          "name": "to",
          "type": "address"
        },
        {
          "internalType": "uint256",
          "name": "itemId",
          "type": "uint256"
        },
        {
          "internalType": "uint256",
          "name": "amount",
          "type": "uint256"
        }
      ],
      "name": "mint",
      "outputs": [],
      "stateMutability": "nonpayable",
      "type": "function"
    },
    {
      "inputs": [
        {
          "internalType": "address",
          "name": "to",
          "type": "address"
        },
        {
          "internalType": "uint256[]",
          "name": "itemIds",
          "type": "uint256[]"
        },
        {
          "internalType": "uint256[]",
          "name": "amounts",
          "type": "uint256[]"
        }
      ],
      "name": "mintBatch",
      "outputs": [],
      "stateMutability": "nonpayable",
      "type": "function"
    },
    {
      "inputs": [
        {
          "internalType": "bytes[]",
          "name": "data",
          "type": "bytes[]"
        }
      ],
      "name": "multicall",
      "outputs": [
        {
          "internalType": "bytes[]",
          "name": "results",
          "type": "bytes[]"
        }
      ],
      "stateMutability": "nonpayable",
      "type": "function"
    },
    {
      "inputs": [
        {
          "internalType": "address",
          "name": "from",
          "type": "address"
        },
        {
          "internalType": "address",
          "name": "to",
          "type": "address"
        },
        {
          "internalType": "uint256[]",
          "name": "ids",
          "type": "uint256[]"
        },
        {
          "internalType": "uint256[]",
          "name": "amounts",
          "type": "uint256[]"
        },
        {
          "internalType": "bytes",
          "name": "data",
          "type": "bytes"
        }
      ],
      "name": "safeBatchTransferFrom",
      "outputs": [],
      "stateMutability": "nonpayable",
      "type": "function"
    },
    {
      "inputs": [
        {
          "internalType": "address",
          "name": "from",
          "type": "address"
        },
        {
          "internalType": "address",
          "name": "to",
          "type": "address"
        },
        {
          "internalType": "uint256",
          "name": "id",
          "type": "uint256"
        },
        {
          "internalType": "uint256",
          "name": "amount",
          "type": "uint256"
        },
        {
          "internalType": "bytes",
          "name": "data",
          "type": "bytes"
        }
      ],
      "name": "safeTransferFrom",
      "outputs": [],
      "stateMutability": "nonpayable",
      "type": "function"
    },
    {
      "inputs": [
        {
          "internalType": "address",
          "name": "operator",
          "type": "address"
        },
        {
          "internalType": "bool",
          "name": "status",
          "type": "bool"
        }
      ],
      "name": "setApprovalForAll",
      "outputs": [],
      "stateMutability": "nonpayable",
      "type": "function"
    },
    {
      "inputs": [
        {
          "internalType": "string",
          "name": "baseURI",
          "type": "string"
        }
      ],
      "name": "setBaseURI",
      "outputs": [],
      "stateMutability": "nonpayable",
      "type": "function"
    },
    {
      "inputs": [
        {
          "internalType": "address",
          "name": "inventoryAddress",
          "type": "address"
        }
      ],
      "name": "setInventoryAddress",
      "outputs": [],
      "stateMutability": "nonpayable",
      "type": "function"
    },
    {
      "inputs": [
        {
          "internalType": "uint256",
          "name": "tokenId",
          "type": "uint256"
        },
        {
          "internalType": "string",
          "name": "tokenURI",
          "type": "string"
        }
      ],
      "name": "setTokenURI",
      "outputs": [],
      "stateMutability": "nonpayable",
      "type": "function"
    },
    {
      "inputs": [
        {
          "internalType": "bytes4",
          "name": "_interface",
          "type": "bytes4"
        }
      ],
      "name": "supportsInterface",
      "outputs": [
        {
          "internalType": "bool",
          "name": "",
          "type": "bool"
        }
      ],
      "stateMutability": "pure",
      "type": "function"
    },
    {
      "inputs": [
        {
          "internalType": "address",
          "name": "account",
          "type": "address"
        }
      ],
      "name": "tokensByAccount",
      "outputs": [
        {
          "internalType": "uint256[]",
          "name": "",
          "type": "uint256[]"
        }
      ],
      "stateMutability": "view",
      "type": "function"
    },
    {
      "inputs": [
        {
          "internalType": "uint256",
          "name": "id",
          "type": "uint256"
        }
      ],
      "name": "totalHolders",
      "outputs": [
        {
          "internalType": "uint256",
          "name": "",
          "type": "uint256"
        }
      ],
      "stateMutability": "view",
      "type": "function"
    },
    {
      "inputs": [
        {
          "internalType": "uint256",
          "name": "id",
          "type": "uint256"
        }
      ],
      "name": "totalSupply",
      "outputs": [
        {
          "internalType": "uint256",
          "name": "",
          "type": "uint256"
        }
      ],
      "stateMutability": "view",
      "type": "function"
    },
    {
      "inputs": [
        {
          "internalType": "uint256",
          "name": "tokenId",
          "type": "uint256"
        }
      ],
      "name": "uri",
      "outputs": [
        {
          "internalType": "string",
          "name": "",
          "type": "string"
        }
      ],
      "stateMutability": "view",
      "type": "function"
    }
  ],
  "transactionHash": "0xcbd8cc167dda0282d8efb520c2b2f1e8802d715a857e8805a0b6749a89b155f2",
  "args": [],
  "numDeployments": 7,
  "solcInputHash": "ce0e4697df71fb2dd21de94dc4e98852",
  "bytecode": "0x608060405234801561001057600080fd5b50613ae2806100206000396000f3fe608060405234801561001057600080fd5b506004361061018d5760003560e01c806384118c5d116100de578063bd85b03911610097578063ceb60ee611610071578063ceb60ee6146103ab578063d81d0a15146103be578063e985e9c5146103d1578063f242432a146103e457600080fd5b8063bd85b03914610372578063c22cbb5d14610385578063cdc11b111461039857600080fd5b806384118c5d146102e657806385bff2e7146102f9578063a22cb4651461030c578063ac9650d81461031f578063b390c0ab1461033f578063ba58bb171461035257600080fd5b80632eb2c2d61161014b57806355b4b1a41161012557806355b4b1a41461028d57806355f804b3146102a05780636dcfd841146102b357806383ca4b6f146102d357600080fd5b80632eb2c2d6146102475780634e1273f41461025a5780634f7fb3321461027a57600080fd5b8062fdd58e1461019257806301ffc9a7146101b85780630e89341c146101ec57806313ba55df1461020c578063156e29f61461021f578063162094c414610234575b600080fd5b6101a56101a0366004612b7b565b6103f7565b6040519081526020015b60405180910390f35b6101dc6101c6366004612bbb565b6001600160e01b031916636cdb3d1360e11b1490565b60405190151581526020016101af565b6101ff6101fa366004612bdf565b61040c565b6040516101af9190612c48565b6101a561021a366004612bdf565b610476565b61023261022d366004612c5b565b610481565b005b610232610242366004612cd6565b6104cd565b610232610255366004612e6a565b610543565b61026d610268366004612f13565b610595565b6040516101af9190613018565b61023261028836600461306f565b6106ff565b6101a561029b366004612b7b565b610761565b6102326102ae366004613108565b6107a9565b6102c66102c1366004612bdf565b610822565b6040516101af9190613149565b6102326102e1366004613196565b61082d565b6102326102f43660046131e2565b610838565b61026d610307366004613234565b6108c8565b61023261031a36600461325f565b6108d3565b61033261032d366004613292565b610987565b6040516101af91906132c7565b61023261034d366004613329565b610aa1565b61035a610aac565b6040516001600160a01b0390911681526020016101af565b6101a5610380366004612bdf565b610ae4565b610232610393366004613234565b610b17565b6102326103a636600461334b565b610b9a565b6102326103b936600461339e565b610bdb565b6102326103cc3660046133fd565b610c2e565b6101dc6103df36600461347d565b610c71565b6102326103f23660046134a7565b610cbe565b60006104038383610d4e565b90505b92915050565b7f333d4b734a9ca3847483bf4c14a14709d21907ff5f12a881347e2fb2ad8906d75460609060ff16156104685761044282610dac565b604051602001610452919061350b565b6040516020818303038152906040529050919050565b61040682610dac565b919050565b600061040682610f7b565b6104a061049a600080516020613a6d8339815191525490565b33610fb1565b6104bd5760405163d0befa1d60e01b815260040160405180910390fd5b6104c8838383610fe8565b505050565b6104e661049a600080516020613a6d8339815191525490565b6105035760405163d0befa1d60e01b815260040160405180910390fd5b6104c88383838080601f01602080910402602001604051908101604052809392919081815260200183838082843760009201919091525061102592505050565b6001600160a01b038516331480159061056357506105618533610c71565b155b15610580576040516212efed60e91b815260040160405180910390fd5b61058e338686868686611099565b5050505050565b606081518351146105b957604051633e7e0b6d60e11b815260040160405180910390fd5b8251600080516020613a8d833981519152906000906001600160401b038111156105e5576105e5612d21565b60405190808252806020026020018201604052801561060e578160200160208202803683370190505b50905060005b85518110156106f65760006001600160a01b031686828151811061063a5761063a613534565b60200260200101516001600160a01b0316036106695760405163db5d879760e01b815260040160405180910390fd5b82600086838151811061067e5761067e613534565b6020026020010151815260200190815260200160002060008783815181106106a8576106a8613534565b60200260200101516001600160a01b03166001600160a01b03168152602001908152602001600020548282815181106106e3576106e3613534565b6020908102919091010152600101610614565b50949350505050565b7f09acf4e54214992e70883cf7dcd6957ff2c71cd9e14df4bec4383bc0d11607dc805460020361074257604051635db5c7cd60e11b815260040160405180910390fd5b60028155610755338888888888886110bd565b60019055505050505050565b6001600160a01b03821660009081527f333d4b734a9ca3847483bf4c14a14709d21907ff5f12a881347e2fb2ad8906d660209081526040808320848452909152812054610403565b6107c261049a600080516020613a6d8339815191525490565b6107df5760405163d0befa1d60e01b815260040160405180910390fd5b61081e82828080601f01602080910402602001604051908101604052809392919081815260200183838082843760009201919091525061133992505050565b5050565b606061040682611364565b61081e338383611437565b7f09acf4e54214992e70883cf7dcd6957ff2c71cd9e14df4bec4383bc0d11607dc805460020361087b57604051635db5c7cd60e11b815260040160405180910390fd5b6002815560408051602080850282810182019093528482526108be923392899289928991899182918501908490808284376000920191909152506115f192505050565b6001905550505050565b606061040682611783565b6001600160a01b03821633036108fc57604051637b30a93360e11b815260040160405180910390fd5b3360008181527f1799cf914cb0cb442ca7c7ac709ee40d0cb89e87351dc08d517fbda27d50c68c602090815260408083206001600160a01b03871680855290835292819020805460ff191686151590811790915590519081529192917f17307eab39ab6107e8899845ad3d59bd9653f200f220920489ca2b5937696c31910160405180910390a35050565b6060816001600160401b038111156109a1576109a1612d21565b6040519080825280602002602001820160405280156109d457816020015b60608152602001906001900390816109bf5790505b50905060005b82811015610a9a57600080308686858181106109f8576109f8613534565b9050602002810190610a0a919061354a565b604051610a18929190613590565b600060405180830381855af49150503d8060008114610a53576040519150601f19603f3d011682016040523d82523d6000602084013e610a58565b606091505b50915091508115610a865780848481518110610a7657610a76613534565b6020026020010181905250610a90565b3d6000803e3d6000fd5b50506001016109da565b5092915050565b61081e33838361184b565b6000610adf7f333d4b734a9ca3847483bf4c14a14709d21907ff5f12a881347e2fb2ad8906da546001600160a01b031690565b905090565b60008181527fb31c2c74f86ca3ce94d901f5f5bbe66f7161eec2f7b5aa0b75a86371436424ea6020526040812054610406565b610b3061049a600080516020613a6d8339815191525490565b610b4d5760405163d0befa1d60e01b815260040160405180910390fd5b7f333d4b734a9ca3847483bf4c14a14709d21907ff5f12a881347e2fb2ad8906da805473ffffffffffffffffffffffffffffffffffffffff19166001600160a01b03831617905550565b50565b610bb361049a600080516020613a6d8339815191525490565b610bd05760405163d0befa1d60e01b815260040160405180910390fd5b6104c883838361194a565b7f09acf4e54214992e70883cf7dcd6957ff2c71cd9e14df4bec4383bc0d11607dc8054600203610c1e57604051635db5c7cd60e11b815260040160405180910390fd5b600281556108be858585856119bd565b610c4761049a600080516020613a6d8339815191525490565b610c645760405163d0befa1d60e01b815260040160405180910390fd5b61058e8585858585611a97565b6001600160a01b0391821660009081527f1799cf914cb0cb442ca7c7ac709ee40d0cb89e87351dc08d517fbda27d50c68c6020908152604080832093909416825291909152205460ff1690565b6001600160a01b0385163314801590610cde5750610cdc8533610c71565b155b8015610d23575033610d177f333d4b734a9ca3847483bf4c14a14709d21907ff5f12a881347e2fb2ad8906da546001600160a01b031690565b6001600160a01b031614155b15610d40576040516212efed60e91b815260040160405180910390fd5b61058e338686868686611b70565b60006001600160a01b038316610d775760405163db5d879760e01b815260040160405180910390fd5b600080516020613a8d8339815191526000928352602090815260408084206001600160a01b0395909516845293905250205490565b60008181527f4281b61aefbe70b3d3f684b428efca5f33077bc240e76f2808f9177c307617f56020526040812080546060927f4281b61aefbe70b3d3f684b428efca5f33077bc240e76f2808f9177c307617f4929091610e0b906135a0565b80601f0160208091040260200160405190810160405280929190818152602001828054610e37906135a0565b8015610e845780601f10610e5957610100808354040283529160200191610e84565b820191906000526020600020905b815481529060010190602001808311610e6757829003601f168201915b505050505090506000826000018054610e9c906135a0565b80601f0160208091040260200160405190810160405280929190818152602001828054610ec8906135a0565b8015610f155780601f10610eea57610100808354040283529160200191610f15565b820191906000526020600020905b815481529060010190602001808311610ef857829003601f168201915b505050505090508051600003610f2d57509392505050565b815115610f60578082604051602001610f479291906135da565b6040516020818303038152906040529350505050919050565b80610f6a86611b8c565b604051602001610f479291906135da565b60008181527fb31c2c74f86ca3ce94d901f5f5bbe66f7161eec2f7b5aa0b75a86371436424eb6020526040812061040690611c94565b60008281527fd3889cc5458b268d0544e5534672df1296288ca3f93cbd39bd6f497a5c622811602052604081206104039083611c9e565b600182101561100a5760405163225c19bb60e11b815260040160405180910390fd5b6104c883838360405180602001604052806000815250611cc0565b60008281527f4281b61aefbe70b3d3f684b428efca5f33077bc240e76f2808f9177c307617f56020526040902061105c828261364f565b50817f6bb7ff708619ba0610cba295a58592e0451dee2622938c8755667688daf3529b8260405161108d9190612c48565b60405180910390a25050565b6110a7868686868686611d90565b6110b5868686868686611f39565b505050505050565b8483146110dd57604051634e98d26360e01b815260040160405180910390fd5b7f333d4b734a9ca3847483bf4c14a14709d21907ff5f12a881347e2fb2ad8906d660005b868110156112e757600188888381811061111d5761111d613534565b9050602002013510156111435760405163225c19bb60e11b815260040160405180910390fd5b60008989898481811061115857611158613534565b9050602002013588888581811061117157611171613534565b905060200201356040516020016111a6939291906001600160a01b039390931683526020830191909152604082015260600190565b60405160208183030381529060405290506112178585848181106111cc576111cc613534565b90506020028101906111de919061370e565b8080602002602001604051908101604052809392919081815260200183836020028082843760009201919091525085925061205b915050565b6112628a8a8a8581811061122d5761122d613534565b9050602002013589898681811061124657611246613534565b9050602002013560405180602001604052806000815250611cc0565b86868381811061127457611274613534565b6001600160a01b038d16600090815260208781526040822092029390930135929091508b8b868181106112a9576112a9613534565b90506020020135815260200190815260200160002060008282546112cd919061376d565b909155508291506112df905081613780565b915050611101565b50876001600160a01b03167f34b59152bfd6249b4e606f915024f944c88ccc9dfe0c2ee58cf094b5152b1a9d8888888860405161132794939291906137cb565b60405180910390a25050505050505050565b7f4281b61aefbe70b3d3f684b428efca5f33077bc240e76f2808f9177c307617f461081e828261364f565b60008181527fb31c2c74f86ca3ce94d901f5f5bbe66f7161eec2f7b5aa0b75a86371436424eb6020526040812060609161139d82611c94565b6001600160401b038111156113b4576113b4612d21565b6040519080825280602002602001820160405280156113dd578160200160208202803683370190505b50905060005b6113ec83611c94565b81101561142f576113fd8382612172565b82828151811061140f5761140f613534565b6001600160a01b03909216602092830291909101909101526001016113e3565b509392505050565b6001600160a01b03831661145e5760405163baa75df760e01b815260040160405180910390fd5b805182511461148057604051633e7e0b6d60e11b815260040160405180910390fd5b61149e3384600085856040518060200160405280600081525061217e565b600080516020613a8d83398151915260005b83518110156115925760008482815181106114cd576114cd613534565b602002602001015190508260008281526020019081526020016000206000876001600160a01b03166001600160a01b031681526020019081526020016000205484838151811061151f5761151f613534565b6020026020010151111561154657604051634190713d60e01b815260040160405180910390fd5b83828151811061155857611558613534565b602090810291909101810151600092835284825260408084206001600160a01b038a168552909252912080549190910390556001016114b0565b5060006001600160a01b0316846001600160a01b0316336001600160a01b03167f4a39dc06d4c0dbc64b70af90fd698a233a518aa5d07e595d983b8c0526c8f7fb86866040516115e39291906137fd565b60405180910390a450505050565b60018310156116135760405163225c19bb60e11b815260040160405180910390fd5b604080516001600160a01b038616602082015280820185905260608082018590528251808303909101815260809091019091527f333d4b734a9ca3847483bf4c14a14709d21907ff5f12a881347e2fb2ad8906d690611672838261205b565b61168d86868660405180602001604052806000815250611cc0565b6001600160a01b038616600090815260208381526040808320888452909152812080548692906116be90849061376d565b90915550506040805160018082528183019092526000916020808301908036833701905050905085816000815181106116f9576116f9613534565b6020908102919091010152604080516001808252818301909252600091816020016020820280368337019050509050858160008151811061173c5761173c613534565b602002602001018181525050876001600160a01b03167f34b59152bfd6249b4e606f915024f944c88ccc9dfe0c2ee58cf094b5152b1a9d83836040516113279291906137fd565b6001600160a01b03811660009081527fb31c2c74f86ca3ce94d901f5f5bbe66f7161eec2f7b5aa0b75a86371436424ec602052604081206060916117c682611c94565b6001600160401b038111156117dd576117dd612d21565b604051908082528060200260200182016040528015611806578160200160208202803683370190505b50905060005b61181583611c94565b81101561142f576118268382612172565b82828151811061183857611838613534565b602090810291909101015260010161180c565b6001600160a01b0383166118725760405163baa75df760e01b815260040160405180910390fd5b6118a0338460006118828661218c565b61188b8661218c565b6040518060200160405280600081525061217e565b6000828152600080516020613a8d833981519152602090815260408083206001600160a01b038716845291829052909120548211156118f257604051634190713d60e01b815260040160405180910390fd5b6001600160a01b03841660008181526020838152604080832080548790039055805187815291820186905291929133917fc3d58168c5ae7397731d063d5bbf3d657854427343f4c083240f7aacaa2d0f6291016115e3565b61198983838080601f01602080910402602001604051908101604052809392919081815260200183838082843760009201919091525061133992505050565b7f333d4b734a9ca3847483bf4c14a14709d21907ff5f12a881347e2fb2ad8906d7805460ff19169115159190911790555050565b8281146119dd57604051634e98d26360e01b815260040160405180910390fd5b6000805b84811015611a8a5760018686838181106119fd576119fd613534565b905060200201351015611a235760405163225c19bb60e11b815260040160405180910390fd5b611a5233878784818110611a3957611a39613534565b9050602002013586868581811061124657611246613534565b838382818110611a6457611a64613534565b9050602002013582611a76919061376d565b915080611a8281613780565b9150506119e1565b5061058e600033836121d7565b6001611ad58585808060200260200160405190810160405280939291908181526020018383602002808284376000920191909152506123c092505050565b1015611af45760405163225c19bb60e11b815260040160405180910390fd5b61058e8585858080602002602001604051908101604052809392919081815260200183836020028082843760009201919091525050604080516020808902828101820190935288825290935088925087918291850190849080828437600092018290525060408051602081019091529081529250612416915050565b611b7e86868686868661256d565b6110b5868686868686612683565b606081600003611bb35750506040805180820190915260018152600360fc1b602082015290565b8160005b8115611bdd5780611bc781613780565b9150611bd69050600a83613841565b9150611bb7565b6000816001600160401b03811115611bf757611bf7612d21565b6040519080825280601f01601f191660200182016040528015611c21576020820181803683370190505b5090505b8415611c8c57611c36600183613855565b9150611c43600a86613868565b611c4e90603061376d565b60f81b818381518110611c6357611c63613534565b60200101906001600160f81b031916908160001a905350611c85600a86613841565b9450611c25565b949350505050565b6000610406825490565b6001600160a01b03811660009081526001830160205260408120541515610403565b6001600160a01b038416611ce7576040516301c8efbf60e11b815260040160405180910390fd5b611d0633600086611cf78761218c565b611d008761218c565b8661217e565b6000838152600080516020613a8d833981519152602090815260408083206001600160a01b038816845290915281208054849290611d4590849061376d565b909155505060408051848152602081018490526001600160a01b0386169160009133917fc3d58168c5ae7397731d063d5bbf3d657854427343f4c083240f7aacaa2d0f6291016115e3565b6001600160a01b038416611db75760405163f5cadad560e01b815260040160405180910390fd5b8151835114611dd957604051633e7e0b6d60e11b815260040160405180910390fd5b611de786868686868661217e565b600080516020613a8d83398151915260005b8451811015611ed8576000858281518110611e1657611e16613534565b602002602001015190506000858381518110611e3457611e34613534565b602090810291909101810151600084815286835260408082206001600160a01b038e168352909352919091205490915080821115611e855760405163119ac6bb60e31b815260040160405180910390fd5b6000838152602086815260408083206001600160a01b038e811685529252808320938590039093558a168152908120805460019590950194839290611ecb90849061376d565b90915550611df992505050565b50846001600160a01b0316866001600160a01b0316886001600160a01b03167f4a39dc06d4c0dbc64b70af90fd698a233a518aa5d07e595d983b8c0526c8f7fb8787604051611f289291906137fd565b60405180910390a450505050505050565b6001600160a01b0384163b156110b55760405163bc197c8160e01b81526001600160a01b0385169063bc197c8190611f7d908990899088908890889060040161387c565b6020604051808303816000875af1925050508015611fb8575060408051601f3d908101601f19168201909252611fb5918101906138da565b60015b61202157611fc46138f7565b806308c379a0036120065750611fd8613913565b80611fe35750612008565b8060405162461bcd60e51b8152600401611ffd9190612c48565b60405180910390fd5b505b60405163380147a960e01b815260040160405180910390fd5b6001600160e01b0319811663bc197c8160e01b1461205257604051633744db2960e01b815260040160405180910390fd5b50505050505050565b7f7a07c093b55ad04e200605cb287859fe4640b7310d62fdbb044e26399da78c09547f7a07c093b55ad04e200605cb287859fe4640b7310d62fdbb044e26399da78c089060ff16156120c05760405163a2f902f160e01b815260040160405180910390fd5b6000836040516020016120d3919061399c565b6040516020818303038152906040528051906020012090506000838051906020012060405160200161210791815260200190565b60405160208183030381529060405280519060200120905060006121308685600001548461273f565b90508061215057604051631006f83b60e31b815260040160405180910390fd5b50506000908152600290910160205260409020805460ff191660011790555050565b600061040383836127e4565b6110b5868686868686612830565b604080516001808252818301909252606091600091906020808301908036833701905050905082816000815181106121c6576121c6613534565b602090810291909101015292915050565b7ff38d3885e664c9638de25f02e645e1955ebebe901d7be2c2037db6a5bcbb35886000818186600181111561220e5761220e6139d2565b600181111561221f5761221f6139d2565b81526020810191909152604001600020600581015490915060ff1661225757604051633137c0e960e11b815260040160405180910390fd5b6001600160a01b038416600090815260018201602052604090205483111561229257604051630f8a2c5f60e31b815260040160405180910390fd5b600481015460028201546122a790600161376d565b11156122c657604051633a65df5360e11b815260040160405180910390fd5b6001600160a01b0384166000908152600182016020526040812080548592906122f0908490613855565b90915550506001600160a01b0384166000908152602082905260408120805485929061231d90849061376d565b9250508190555082816002016000828254612338919061376d565b92505081905550828160030160008282546123539190613855565b90915550506001600160a01b038416600081815260018301602090815260408083205491859052918290205491517f6526db8cb857c3bc972db45a7984e99efaed17f7a4e51afb85c64450133cb55c926123b1928a929091906139e8565b60405180910390a25050505050565b6000600019815b8351811015610a9a57818482815181106123e3576123e3613534565b6020026020010151101561240e5783818151811061240357612403613534565b602002602001015191505b6001016123c7565b6001600160a01b03841661243d576040516301c8efbf60e11b815260040160405180910390fd5b815183511461245f57604051633e7e0b6d60e11b815260040160405180910390fd5b61246e3360008686868661217e565b600080516020613a8d83398151915260005b845181101561250d5783818151811061249b5761249b613534565b60200260200101518260008784815181106124b8576124b8613534565b602002602001015181526020019081526020016000206000886001600160a01b03166001600160a01b031681526020019081526020016000206000828254612500919061376d565b9091555050600101612480565b50846001600160a01b031660006001600160a01b0316336001600160a01b03167f4a39dc06d4c0dbc64b70af90fd698a233a518aa5d07e595d983b8c0526c8f7fb878760405161255e9291906137fd565b60405180910390a45050505050565b6001600160a01b0384166125945760405163f5cadad560e01b815260040160405180910390fd5b6125a3868686611cf78761218c565b6000838152600080516020613a8d833981519152602081815260408084206001600160a01b038a16855290915290912054808411156125f55760405163119ac6bb60e31b815260040160405180910390fd5b6000858152602083815260408083206001600160a01b038b8116855292528083209387900390935587168152908120805485929061263490849061376d565b909155505060408051858152602081018590526001600160a01b038088169289821692918b16917fc3d58168c5ae7397731d063d5bbf3d657854427343f4c083240f7aacaa2d0f629101611f28565b6001600160a01b0384163b156110b55760405163f23a6e6160e01b81526001600160a01b0385169063f23a6e61906126c79089908990889088908890600401613a1e565b6020604051808303816000875af1925050508015612702575060408051601f3d908101601f191682019092526126ff918101906138da565b60015b61270e57611fc46138f7565b6001600160e01b0319811663f23a6e6160e01b1461205257604051633744db2960e01b815260040160405180910390fd5b600081815b85518110156127d957600086828151811061276157612761613534565b602002602001015190508083116127a35760408051602081018590529081018290526060016040516020818303038152906040528051906020012092506127d0565b60408051602081018390529081018490526060016040516020818303038152906040528051906020012092505b50600101612744565b509092149392505050565b815460009082106128085760405163e637bf3b60e01b815260040160405180910390fd5b82600001828154811061281d5761281d613534565b9060005260206000200154905092915050565b6110b5868686868686836001600160a01b0316856001600160a01b0316146110b5576001600160a01b0385811660009081527fb31c2c74f86ca3ce94d901f5f5bbe66f7161eec2f7b5aa0b75a86371436424ec6020526040808220928716825281207fb31c2c74f86ca3ce94d901f5f5bbe66f7161eec2f7b5aa0b75a86371436424ea927fb31c2c74f86ca3ce94d901f5f5bbe66f7161eec2f7b5aa0b75a86371436424eb929091905b8751811015612a185760008782815181106128f7576128f7613534565b602002602001015190506000811115612a0f57600089838151811061291e5761291e613534565b6020026020010151905060006001600160a01b03168c6001600160a01b03160361296b576000818152602088905260408120805484929061296090849061376d565b909155506129a09050565b816129768d83610d4e565b036129a0576000818152602087905260409020612993908d612a25565b5061299e8582612a3a565b505b6001600160a01b038b166129d757600081815260208890526040812080548492906129cc908490613855565b90915550612a0d9050565b6129e18b82610d4e565b600003612a0d576000818152602087905260409020612a00908c612a46565b50612a0b8482612a5b565b505b505b506001016128da565b5050505050505050505050565b6000610403836001600160a01b038416612a67565b60006104038383612a67565b6000610403836001600160a01b038416612b21565b60006104038383612b21565b60008181526001830160205260408120548015610a9a57835460009085906000198101908110612a9957612a99613534565b9060005260206000200154905080856000016001840381548110612abf57612abf613534565b6000918252602080832090910192909255918252600186019052604090208190558354849080612af157612af1613a56565b60008281526020808220830160001990810183905590920190925593815260019485019093525050604081205590565b6000818152600183016020526040812054610406575081546001808201845560008481526020808220909301849055845493815293810190915260409092205590565b80356001600160a01b038116811461047157600080fd5b60008060408385031215612b8e57600080fd5b612b9783612b64565b946020939093013593505050565b6001600160e01b031981168114610b9757600080fd5b600060208284031215612bcd57600080fd5b8135612bd881612ba5565b9392505050565b600060208284031215612bf157600080fd5b5035919050565b60005b83811015612c13578181015183820152602001612bfb565b50506000910152565b60008151808452612c34816020860160208601612bf8565b601f01601f19169290920160200192915050565b6020815260006104036020830184612c1c565b600080600060608486031215612c7057600080fd5b612c7984612b64565b95602085013595506040909401359392505050565b60008083601f840112612ca057600080fd5b5081356001600160401b03811115612cb757600080fd5b602083019150836020828501011115612ccf57600080fd5b9250929050565b600080600060408486031215612ceb57600080fd5b8335925060208401356001600160401b03811115612d0857600080fd5b612d1486828701612c8e565b9497909650939450505050565b634e487b7160e01b600052604160045260246000fd5b601f8201601f191681016001600160401b0381118282101715612d5c57612d5c612d21565b6040525050565b60006001600160401b03821115612d7c57612d7c612d21565b5060051b60200190565b600082601f830112612d9757600080fd5b81356020612da482612d63565b604051612db18282612d37565b83815260059390931b8501820192828101915086841115612dd157600080fd5b8286015b84811015612dec5780358352918301918301612dd5565b509695505050505050565b600082601f830112612e0857600080fd5b81356001600160401b03811115612e2157612e21612d21565b604051612e38601f8301601f191660200182612d37565b818152846020838601011115612e4d57600080fd5b816020850160208301376000918101602001919091529392505050565b600080600080600060a08688031215612e8257600080fd5b612e8b86612b64565b9450612e9960208701612b64565b935060408601356001600160401b0380821115612eb557600080fd5b612ec189838a01612d86565b94506060880135915080821115612ed757600080fd5b612ee389838a01612d86565b93506080880135915080821115612ef957600080fd5b50612f0688828901612df7565b9150509295509295909350565b60008060408385031215612f2657600080fd5b82356001600160401b0380821115612f3d57600080fd5b818501915085601f830112612f5157600080fd5b81356020612f5e82612d63565b604051612f6b8282612d37565b83815260059390931b8501820192828101915089841115612f8b57600080fd5b948201945b83861015612fb057612fa186612b64565b82529482019490820190612f90565b96505086013592505080821115612fc657600080fd5b50612fd385828601612d86565b9150509250929050565b600081518084526020808501945080840160005b8381101561300d57815187529582019590820190600101612ff1565b509495945050505050565b6020815260006104036020830184612fdd565b60008083601f84011261303d57600080fd5b5081356001600160401b0381111561305457600080fd5b6020830191508360208260051b8501011115612ccf57600080fd5b6000806000806000806060878903121561308857600080fd5b86356001600160401b038082111561309f57600080fd5b6130ab8a838b0161302b565b909850965060208901359150808211156130c457600080fd5b6130d08a838b0161302b565b909650945060408901359150808211156130e957600080fd5b506130f689828a0161302b565b979a9699509497509295939492505050565b6000806020838503121561311b57600080fd5b82356001600160401b0381111561313157600080fd5b61313d85828601612c8e565b90969095509350505050565b6020808252825182820181905260009190848201906040850190845b8181101561318a5783516001600160a01b031683529284019291840191600101613165565b50909695505050505050565b600080604083850312156131a957600080fd5b82356001600160401b03808211156131c057600080fd5b6131cc86838701612d86565b93506020850135915080821115612fc657600080fd5b600080600080606085870312156131f857600080fd5b843593506020850135925060408501356001600160401b0381111561321c57600080fd5b6132288782880161302b565b95989497509550505050565b60006020828403121561324657600080fd5b61040382612b64565b8035801515811461047157600080fd5b6000806040838503121561327257600080fd5b61327b83612b64565b91506132896020840161324f565b90509250929050565b600080602083850312156132a557600080fd5b82356001600160401b038111156132bb57600080fd5b61313d8582860161302b565b6000602080830181845280855180835260408601915060408160051b870101925083870160005b8281101561331c57603f1988860301845261330a858351612c1c565b945092850192908501906001016132ee565b5092979650505050505050565b6000806040838503121561333c57600080fd5b50508035926020909101359150565b60008060006040848603121561336057600080fd5b83356001600160401b0381111561337657600080fd5b61338286828701612c8e565b909450925061339590506020850161324f565b90509250925092565b600080600080604085870312156133b457600080fd5b84356001600160401b03808211156133cb57600080fd5b6133d78883890161302b565b909650945060208701359150808211156133f057600080fd5b506132288782880161302b565b60008060008060006060868803121561341557600080fd5b61341e86612b64565b945060208601356001600160401b038082111561343a57600080fd5b61344689838a0161302b565b9096509450604088013591508082111561345f57600080fd5b5061346c8882890161302b565b969995985093965092949392505050565b6000806040838503121561349057600080fd5b61349983612b64565b915061328960208401612b64565b600080600080600060a086880312156134bf57600080fd5b6134c886612b64565b94506134d660208701612b64565b9350604086013592506060860135915060808601356001600160401b038111156134ff57600080fd5b612f0688828901612df7565b6000825161351d818460208701612bf8565b64173539b7b760d91b920191825250600501919050565b634e487b7160e01b600052603260045260246000fd5b6000808335601e1984360301811261356157600080fd5b8301803591506001600160401b0382111561357b57600080fd5b602001915036819003821315612ccf57600080fd5b8183823760009101908152919050565b600181811c908216806135b457607f821691505b6020821081036135d457634e487b7160e01b600052602260045260246000fd5b50919050565b600083516135ec818460208801612bf8565b835190830190613600818360208801612bf8565b01949350505050565b601f8211156104c857600081815260208120601f850160051c810160208610156136305750805b601f850160051c820191505b818110156110b55782815560010161363c565b81516001600160401b0381111561366857613668612d21565b61367c8161367684546135a0565b84613609565b602080601f8311600181146136b157600084156136995750858301515b600019600386901b1c1916600185901b1785556110b5565b600085815260208120601f198616915b828110156136e0578886015182559484019460019091019084016136c1565b50858210156136fe5787850151600019600388901b60f8161c191681555b5050505050600190811b01905550565b6000808335601e1984360301811261372557600080fd5b8301803591506001600160401b0382111561373f57600080fd5b6020019150600581901b3603821315612ccf57600080fd5b634e487b7160e01b600052601160045260246000fd5b8082018082111561040657610406613757565b60006001820161379257613792613757565b5060010190565b81835260006001600160fb1b038311156137b257600080fd5b8260051b80836020870137939093016020019392505050565b6040815260006137df604083018688613799565b82810360208401526137f2818587613799565b979650505050505050565b6040815260006138106040830185612fdd565b82810360208401526138228185612fdd565b95945050505050565b634e487b7160e01b600052601260045260246000fd5b6000826138505761385061382b565b500490565b8181038181111561040657610406613757565b6000826138775761387761382b565b500690565b60006001600160a01b03808816835280871660208401525060a060408301526138a860a0830186612fdd565b82810360608401526138ba8186612fdd565b905082810360808401526138ce8185612c1c565b98975050505050505050565b6000602082840312156138ec57600080fd5b8151612bd881612ba5565b600060033d11156139105760046000803e5060005160e01c5b90565b600060443d10156139215790565b6040516003193d81016004833e81513d6001600160401b03816024840111818411171561395057505050505090565b82850191508151818111156139685750505050505090565b843d87010160208285010111156139825750505050505090565b61399160208286010187612d37565b509095945050505050565b815160009082906020808601845b838110156139c6578151855293820193908201906001016139aa565b50929695505050505050565b634e487b7160e01b600052602160045260246000fd5b6060810160028510613a0a57634e487b7160e01b600052602160045260246000fd5b938152602081019290925260409091015290565b60006001600160a01b03808816835280871660208401525084604083015283606083015260a060808301526137f260a0830184612c1c565b634e487b7160e01b600052603160045260246000fdfef6deb63e40d71b08820818e006e23fcceb1fce7a499bc15b71b2526cbf9efa721799cf914cb0cb442ca7c7ac709ee40d0cb89e87351dc08d517fbda27d50c68ba2646970667358221220e0df6e13b0e7e702cf85ae9ae6b29ec0484a614ef3d46bc24135bffcc2332c6a64736f6c63430008130033",
  "devdoc": {
    "details": "This contract handles the creation and management of items It uses ERC1155 tokens to represent items and provides methods to mint new items, claim items via Merkle tree or a whitelist, and set the base and URIs for the items. It also uses the ReentrancyGuard and Multicall contracts for security and gas efficiency.",
    "kind": "dev",
    "methods": {
      "accountsByToken(uint256)": {
        "params": {
          "id": "token id to query"
        },
        "returns": {
          "_0": "list of holder addresses"
        }
      },
      "balanceOf(address,uint256)": {
        "params": {
          "account": "address to query",
          "id": "token to query"
        },
        "returns": {
          "_0": "token balance"
        }
      },
      "balanceOfBatch(address[],uint256[])": {
        "params": {
          "accounts": "addresss to query",
          "ids": "tokens to query"
        },
        "returns": {
          "_0": "token balances"
        }
      },
      "burn(uint256,uint256)": {
        "params": {
          "amount": "The item amount to burn",
          "itemId": "The ID of the item to burn"
        }
      },
      "burnBatch(uint256[],uint256[])": {
        "params": {
          "amounts": "The item amounts to be minted",
          "itemIds": "The item ID burn"
        }
      },
      "claimMerkle(uint256,uint256,bytes32[])": {
        "params": {
          "amount": "The amount of the item to claim",
          "itemId": "The ID of the item to claim",
          "proof": "The Merkle proof for the item"
        }
      },
      "claimMerkleBatch(uint256[],uint256[],bytes32[][])": {
        "params": {
          "amounts": "The amounts of the items to claim",
          "itemsIds": "The IDs of the items to claim",
          "proofs": "The Merkle proofs for the items"
        }
      },
      "claimWhitelist(uint256[],uint256[])": {
        "params": {
          "amounts": "The amounts of the items to claim",
          "itemIds": "The IDs of the items to claim"
        }
      },
      "claimedAmount(address,uint256)": {
        "params": {
          "account": "the account to query",
          "itemId": "the item id to query"
        },
        "returns": {
          "amount": "returns the claimed amount given an account and an item id"
        }
      },
      "getInventoryAddress()": {
        "details": "Returns the current inventory address",
        "returns": {
          "_0": "The address of the inventory contract"
        }
      },
      "isApprovedForAll(address,address)": {
        "params": {
          "account": "address to query for approval granted",
          "operator": "address to query for approval received"
        },
        "returns": {
          "_0": "whether operator is approved to spend tokens held by account"
        }
      },
      "migrateToIPFS(string,bool)": {
        "details": "Only the manager role can call this function",
        "params": {
          "migrate": "Should migrate to IPFS",
          "newBaseURI": "The new base URI"
        }
      },
      "mint(address,uint256,uint256)": {
        "params": {
          "amount": "The item amount to be minted",
          "itemId": "The ID of the item to mint",
          "to": "The address to mint the item to"
        }
      },
      "mintBatch(address,uint256[],uint256[])": {
        "params": {
          "amounts": "The items amounts to be minted",
          "itemIds": "An array of items IDs to be minted",
          "to": "The address to receive the minted items"
        }
      },
      "multicall(bytes[])": {
        "params": {
          "data": "array of function call data payloads"
        },
        "returns": {
          "results": "array of function call results"
        }
      },
      "safeBatchTransferFrom(address,address,uint256[],uint256[],bytes)": {
        "params": {
          "amounts": "list of quantities of tokens to transfer",
          "data": "data payload",
          "from": "sender of tokens",
          "ids": "list of token IDs",
          "to": "receiver of tokens"
        }
      },
      "safeTransferFrom(address,address,uint256,uint256,bytes)": {
        "params": {
          "amount": "quantity of tokens to transfer",
          "data": "data payload",
          "from": "sender of tokens",
          "id": "token ID",
          "to": "receiver of tokens"
        }
      },
      "setApprovalForAll(address,bool)": {
        "params": {
          "operator": "address whose approval status to update",
          "status": "whether operator should be considered approved"
        }
      },
      "setBaseURI(string)": {
        "details": "Only the manager role can call this function",
        "params": {
          "baseURI": "The new base URI"
        }
      },
      "setInventoryAddress(address)": {
        "details": "Sets the inventory address",
        "params": {
          "inventoryAddress": "The new address of the inventory contract"
        }
      },
      "setTokenURI(uint256,string)": {
        "details": "Only the manager role can call this function",
        "params": {
          "tokenId": "The ID of the item to set the URI for",
          "tokenURI": "The new item URI"
        }
      },
      "tokensByAccount(address)": {
        "params": {
          "account": "address to query"
        },
        "returns": {
          "_0": "list of token ids"
        }
      },
      "totalHolders(uint256)": {
        "params": {
          "id": "token id to query"
        },
        "returns": {
          "_0": "quantity of holders"
        }
      },
      "totalSupply(uint256)": {
        "params": {
          "id": "token id to query"
        },
        "returns": {
          "_0": "token supply"
        }
      }
    },
    "title": "ItemsFacet",
    "version": 1
  },
  "userdoc": {
    "kind": "user",
    "methods": {
      "accountsByToken(uint256)": {
        "notice": "query holders of given token"
      },
      "balanceOf(address,uint256)": {
        "notice": "query the balance of given token held by given address"
      },
      "balanceOfBatch(address[],uint256[])": {
        "notice": "query the balances of given tokens held by given addresses"
      },
      "burn(uint256,uint256)": {
        "notice": "Burn an amount of an item"
      },
      "burnBatch(uint256[],uint256[])": {
        "notice": "Burn amounts of items"
      },
      "claimMerkle(uint256,uint256,bytes32[])": {
        "notice": "Claims an item if present in the Merkle tree"
      },
      "claimMerkleBatch(uint256[],uint256[],bytes32[][])": {
        "notice": "Claims items if present in the Merkle tree"
      },
      "claimWhitelist(uint256[],uint256[])": {
        "notice": "Claims items from a whitelist"
      },
      "claimedAmount(address,uint256)": {
        "notice": "Amount claimed by an address of a specific item"
      },
      "isApprovedForAll(address,address)": {
        "notice": "query approval status of given operator with respect to given address"
      },
      "migrateToIPFS(string,bool)": {
        "notice": "Set the base URI for all items metadata"
      },
      "mint(address,uint256,uint256)": {
        "notice": "Mints a new item. Only minter role account can mint"
      },
      "mintBatch(address,uint256[],uint256[])": {
        "notice": "Mint a batch of items to a specific address. Only minter role account can mint"
      },
      "multicall(bytes[])": {
        "notice": "batch function calls to the contract and return the results of each"
      },
      "safeBatchTransferFrom(address,address,uint256[],uint256[],bytes)": {
        "notice": "transfer batch of tokens between given addresses, checking for ERC1155Receiver implementation if applicable"
      },
      "safeTransferFrom(address,address,uint256,uint256,bytes)": {
        "notice": "transfer tokens between given addresses, checking for ERC1155Receiver implementation if applicable"
      },
      "setApprovalForAll(address,bool)": {
        "notice": "grant approval to or revoke approval from given operator to spend held tokens"
      },
      "setBaseURI(string)": {
        "notice": "Set the base URI for all items metadata"
      },
      "setTokenURI(uint256,string)": {
        "notice": "Set the URI for a specific item ID"
      },
      "tokensByAccount(address)": {
        "notice": "query tokens held by given address"
      },
      "totalHolders(uint256)": {
        "notice": "query total number of holders for given token"
      },
      "totalSupply(uint256)": {
        "notice": "query total minted supply of given token"
      },
      "uri(uint256)": {
        "notice": "Override ERC1155Metadata"
      }
    },
    "version": 1
  },
  "storageLayout": {
    "storage": [],
    "types": null
  }
}