{
  "address": "0x90771f5A1811502944e5C28D623b90bA1821C4c0",
  "abi": [
    {
      "inputs": [],
      "name": "ERC1155Base__ArrayLengthMismatch",
      "type": "error"
    },
    {
      "inputs": [],
      "name": "ERC1155Base__BalanceQueryZeroAddress",
      "type": "error"
    },
    {
      "inputs": [],
      "name": "ERC1155Base__BurnExceedsBalance",
      "type": "error"
    },
    {
      "inputs": [],
      "name": "ERC1155Base__BurnFromZeroAddress",
      "type": "error"
    },
    {
      "inputs": [],
      "name": "ERC1155Base__ERC1155ReceiverNotImplemented",
      "type": "error"
    },
    {
      "inputs": [],
      "name": "ERC1155Base__ERC1155ReceiverRejected",
      "type": "error"
    },
    {
      "inputs": [],
      "name": "ERC1155Base__MintToZeroAddress",
      "type": "error"
    },
    {
      "inputs": [],
      "name": "ERC1155Base__NotOwnerOrApproved",
      "type": "error"
    },
    {
      "inputs": [],
      "name": "ERC1155Base__SelfApproval",
      "type": "error"
    },
    {
      "inputs": [],
      "name": "ERC1155Base__TransferExceedsBalance",
      "type": "error"
    },
    {
      "inputs": [],
      "name": "ERC1155Base__TransferToZeroAddress",
      "type": "error"
    },
    {
      "inputs": [],
      "name": "EnumerableSet__IndexOutOfBounds",
      "type": "error"
    },
    {
      "inputs": [],
      "name": "ReentrancyGuard__ReentrantCall",
      "type": "error"
    },
    {
      "inputs": [],
      "name": "UintUtils__InsufficientHexLength",
      "type": "error"
    },
    {
      "anonymous": false,
      "inputs": [
        {
          "indexed": true,
          "internalType": "address",
          "name": "account",
          "type": "address"
        },
        {
          "indexed": true,
          "internalType": "address",
          "name": "operator",
          "type": "address"
        },
        {
          "indexed": false,
          "internalType": "bool",
          "name": "approved",
          "type": "bool"
        }
      ],
      "name": "ApprovalForAll",
      "type": "event"
    },
    {
      "anonymous": false,
      "inputs": [
        {
          "indexed": true,
          "internalType": "address",
          "name": "to",
          "type": "address"
        },
        {
          "indexed": true,
          "internalType": "uint256",
          "name": "itemId",
          "type": "uint256"
        },
        {
          "indexed": false,
          "internalType": "uint256",
          "name": "amount",
          "type": "uint256"
        }
      ],
      "name": "ItemClaimedMerkle",
      "type": "event"
    },
    {
      "anonymous": false,
      "inputs": [
        {
          "indexed": true,
          "internalType": "bytes32",
          "name": "role",
          "type": "bytes32"
        },
        {
          "indexed": true,
          "internalType": "bytes32",
          "name": "previousAdminRole",
          "type": "bytes32"
        },
        {
          "indexed": true,
          "internalType": "bytes32",
          "name": "newAdminRole",
          "type": "bytes32"
        }
      ],
      "name": "RoleAdminChanged",
      "type": "event"
    },
    {
      "anonymous": false,
      "inputs": [
        {
          "indexed": true,
          "internalType": "bytes32",
          "name": "role",
          "type": "bytes32"
        },
        {
          "indexed": true,
          "internalType": "address",
          "name": "account",
          "type": "address"
        },
        {
          "indexed": true,
          "internalType": "address",
          "name": "sender",
          "type": "address"
        }
      ],
      "name": "RoleGranted",
      "type": "event"
    },
    {
      "anonymous": false,
      "inputs": [
        {
          "indexed": true,
          "internalType": "bytes32",
          "name": "role",
          "type": "bytes32"
        },
        {
          "indexed": true,
          "internalType": "address",
          "name": "account",
          "type": "address"
        },
        {
          "indexed": true,
          "internalType": "address",
          "name": "sender",
          "type": "address"
        }
      ],
      "name": "RoleRevoked",
      "type": "event"
    },
    {
      "anonymous": false,
      "inputs": [
        {
          "indexed": true,
          "internalType": "address",
          "name": "operator",
          "type": "address"
        },
        {
          "indexed": true,
          "internalType": "address",
          "name": "from",
          "type": "address"
        },
        {
          "indexed": true,
          "internalType": "address",
          "name": "to",
          "type": "address"
        },
        {
          "indexed": false,
          "internalType": "uint256[]",
          "name": "ids",
          "type": "uint256[]"
        },
        {
          "indexed": false,
          "internalType": "uint256[]",
          "name": "values",
          "type": "uint256[]"
        }
      ],
      "name": "TransferBatch",
      "type": "event"
    },
    {
      "anonymous": false,
      "inputs": [
        {
          "indexed": true,
          "internalType": "address",
          "name": "operator",
          "type": "address"
        },
        {
          "indexed": true,
          "internalType": "address",
          "name": "from",
          "type": "address"
        },
        {
          "indexed": true,
          "internalType": "address",
          "name": "to",
          "type": "address"
        },
        {
          "indexed": false,
          "internalType": "uint256",
          "name": "id",
          "type": "uint256"
        },
        {
          "indexed": false,
          "internalType": "uint256",
          "name": "value",
          "type": "uint256"
        }
      ],
      "name": "TransferSingle",
      "type": "event"
    },
    {
      "anonymous": false,
      "inputs": [
        {
          "indexed": false,
          "internalType": "string",
          "name": "value",
          "type": "string"
        },
        {
          "indexed": true,
          "internalType": "uint256",
          "name": "tokenId",
          "type": "uint256"
        }
      ],
      "name": "URI",
      "type": "event"
    },
    {
      "anonymous": false,
      "inputs": [
        {
          "indexed": false,
          "internalType": "address",
          "name": "account",
          "type": "address"
        },
        {
          "indexed": false,
          "internalType": "int256",
          "name": "amount",
          "type": "int256"
        },
        {
          "indexed": false,
          "internalType": "uint256",
          "name": "totalElegibleAmount",
          "type": "uint256"
        },
        {
          "indexed": false,
          "internalType": "uint256",
          "name": "totalClaimedAmount",
          "type": "uint256"
        }
      ],
      "name": "WhitelistBalanceChanged",
      "type": "event"
    },
    {
      "inputs": [
        {
          "internalType": "uint256",
          "name": "id",
          "type": "uint256"
        }
      ],
      "name": "accountsByToken",
      "outputs": [
        {
          "internalType": "address[]",
          "name": "",
          "type": "address[]"
        }
      ],
      "stateMutability": "view",
      "type": "function"
    },
    {
      "inputs": [
        {
          "internalType": "address",
          "name": "account",
          "type": "address"
        },
        {
          "internalType": "uint256",
          "name": "id",
          "type": "uint256"
        }
      ],
      "name": "balanceOf",
      "outputs": [
        {
          "internalType": "uint256",
          "name": "",
          "type": "uint256"
        }
      ],
      "stateMutability": "view",
      "type": "function"
    },
    {
      "inputs": [
        {
          "internalType": "address[]",
          "name": "accounts",
          "type": "address[]"
        },
        {
          "internalType": "uint256[]",
          "name": "ids",
          "type": "uint256[]"
        }
      ],
      "name": "balanceOfBatch",
      "outputs": [
        {
          "internalType": "uint256[]",
          "name": "",
          "type": "uint256[]"
        }
      ],
      "stateMutability": "view",
      "type": "function"
    },
    {
      "inputs": [
        {
          "internalType": "uint256",
          "name": "itemId",
          "type": "uint256"
        },
        {
          "internalType": "uint256",
          "name": "amount",
          "type": "uint256"
        },
        {
          "internalType": "bytes32[]",
          "name": "proof",
          "type": "bytes32[]"
        }
      ],
      "name": "claimMerkle",
      "outputs": [],
      "stateMutability": "nonpayable",
      "type": "function"
    },
    {
      "inputs": [
        {
          "internalType": "uint256[]",
          "name": "itemsIds",
          "type": "uint256[]"
        },
        {
          "internalType": "uint256[]",
          "name": "amounts",
          "type": "uint256[]"
        },
        {
          "internalType": "bytes32[][]",
          "name": "proofs",
          "type": "bytes32[][]"
        }
      ],
      "name": "claimMerkleBatch",
      "outputs": [],
      "stateMutability": "nonpayable",
      "type": "function"
    },
    {
      "inputs": [
        {
          "internalType": "uint256[]",
          "name": "itemIds",
          "type": "uint256[]"
        },
        {
          "internalType": "uint256[]",
          "name": "amounts",
          "type": "uint256[]"
        }
      ],
      "name": "claimWhitelist",
      "outputs": [],
      "stateMutability": "nonpayable",
      "type": "function"
    },
    {
      "inputs": [
        {
          "internalType": "address",
          "name": "account",
          "type": "address"
        },
        {
          "internalType": "address",
          "name": "operator",
          "type": "address"
        }
      ],
      "name": "isApprovedForAll",
      "outputs": [
        {
          "internalType": "bool",
          "name": "",
          "type": "bool"
        }
      ],
      "stateMutability": "view",
      "type": "function"
    },
    {
      "inputs": [
        {
          "internalType": "address",
          "name": "to",
          "type": "address"
        },
        {
          "internalType": "uint256",
          "name": "id",
          "type": "uint256"
        },
        {
          "internalType": "uint256",
          "name": "amount",
          "type": "uint256"
        }
      ],
      "name": "mint",
      "outputs": [],
      "stateMutability": "nonpayable",
      "type": "function"
    },
    {
      "inputs": [
        {
          "internalType": "address",
          "name": "to",
          "type": "address"
        },
        {
          "internalType": "uint256[]",
          "name": "ids",
          "type": "uint256[]"
        },
        {
          "internalType": "uint256[]",
          "name": "amounts",
          "type": "uint256[]"
        }
      ],
      "name": "mintBatch",
      "outputs": [],
      "stateMutability": "nonpayable",
      "type": "function"
    },
    {
      "inputs": [
        {
          "internalType": "bytes[]",
          "name": "data",
          "type": "bytes[]"
        }
      ],
      "name": "multicall",
      "outputs": [
        {
          "internalType": "bytes[]",
          "name": "results",
          "type": "bytes[]"
        }
      ],
      "stateMutability": "nonpayable",
      "type": "function"
    },
    {
      "inputs": [
        {
          "internalType": "address",
          "name": "from",
          "type": "address"
        },
        {
          "internalType": "address",
          "name": "to",
          "type": "address"
        },
        {
          "internalType": "uint256[]",
          "name": "ids",
          "type": "uint256[]"
        },
        {
          "internalType": "uint256[]",
          "name": "amounts",
          "type": "uint256[]"
        },
        {
          "internalType": "bytes",
          "name": "data",
          "type": "bytes"
        }
      ],
      "name": "safeBatchTransferFrom",
      "outputs": [],
      "stateMutability": "nonpayable",
      "type": "function"
    },
    {
      "inputs": [
        {
          "internalType": "address",
          "name": "from",
          "type": "address"
        },
        {
          "internalType": "address",
          "name": "to",
          "type": "address"
        },
        {
          "internalType": "uint256",
          "name": "id",
          "type": "uint256"
        },
        {
          "internalType": "uint256",
          "name": "amount",
          "type": "uint256"
        },
        {
          "internalType": "bytes",
          "name": "data",
          "type": "bytes"
        }
      ],
      "name": "safeTransferFrom",
      "outputs": [],
      "stateMutability": "nonpayable",
      "type": "function"
    },
    {
      "inputs": [
        {
          "internalType": "address",
          "name": "operator",
          "type": "address"
        },
        {
          "internalType": "bool",
          "name": "status",
          "type": "bool"
        }
      ],
      "name": "setApprovalForAll",
      "outputs": [],
      "stateMutability": "nonpayable",
      "type": "function"
    },
    {
      "inputs": [
        {
          "internalType": "string",
          "name": "baseURI",
          "type": "string"
        }
      ],
      "name": "setBaseURI",
      "outputs": [],
      "stateMutability": "nonpayable",
      "type": "function"
    },
    {
      "inputs": [
        {
          "internalType": "uint256",
          "name": "tokenId",
          "type": "uint256"
        },
        {
          "internalType": "string",
          "name": "tokenURI",
          "type": "string"
        }
      ],
      "name": "setTokenURI",
      "outputs": [],
      "stateMutability": "nonpayable",
      "type": "function"
    },
    {
      "inputs": [
        {
          "internalType": "bytes4",
          "name": "_interface",
          "type": "bytes4"
        }
      ],
      "name": "supportsInterface",
      "outputs": [
        {
          "internalType": "bool",
          "name": "",
          "type": "bool"
        }
      ],
      "stateMutability": "pure",
      "type": "function"
    },
    {
      "inputs": [
        {
          "internalType": "address",
          "name": "account",
          "type": "address"
        }
      ],
      "name": "tokensByAccount",
      "outputs": [
        {
          "internalType": "uint256[]",
          "name": "",
          "type": "uint256[]"
        }
      ],
      "stateMutability": "view",
      "type": "function"
    },
    {
      "inputs": [
        {
          "internalType": "uint256",
          "name": "id",
          "type": "uint256"
        }
      ],
      "name": "totalHolders",
      "outputs": [
        {
          "internalType": "uint256",
          "name": "",
          "type": "uint256"
        }
      ],
      "stateMutability": "view",
      "type": "function"
    },
    {
      "inputs": [
        {
          "internalType": "uint256",
          "name": "id",
          "type": "uint256"
        }
      ],
      "name": "totalSupply",
      "outputs": [
        {
          "internalType": "uint256",
          "name": "",
          "type": "uint256"
        }
      ],
      "stateMutability": "view",
      "type": "function"
    },
    {
      "inputs": [
        {
          "internalType": "uint256",
          "name": "tokenId",
          "type": "uint256"
        }
      ],
      "name": "uri",
      "outputs": [
        {
          "internalType": "string",
          "name": "",
          "type": "string"
        }
      ],
      "stateMutability": "view",
      "type": "function"
    }
  ],
  "transactionHash": "0x489b6a6233a10643d9be838c6a6ddf4012acd0c5f7d64287f7d486b802412916",
  "args": [],
  "numDeployments": 5,
  "solcInputHash": "d5e8d2bfc62fcce0683f8c2aa0a5fb01",
  "bytecode": "0x608060405234801561001057600080fd5b506131fd806100206000396000f3fe608060405234801561001057600080fd5b506004361061012b5760003560e01c80636dcfd841116100ad578063bd85b03911610071578063bd85b039146102b7578063ceb60ee6146102ca578063d81d0a15146102dd578063e985e9c5146102f0578063f242432a1461030357600080fd5b80636dcfd8411461023e57806384118c5d1461025e57806385bff2e714610271578063a22cb46514610284578063ac9650d81461029757600080fd5b8063162094c4116100f4578063162094c4146101d25780632eb2c2d6146101e55780634e1273f4146101f85780634f7fb3321461021857806355f804b31461022b57600080fd5b8062fdd58e1461013057806301ffc9a7146101565780630e89341c1461018a57806313ba55df146101aa578063156e29f6146101bd575b600080fd5b61014361013e3660046123f4565b610316565b6040519081526020015b60405180910390f35b61017a610164366004612434565b6001600160e01b031916636cdb3d1360e11b1490565b604051901515815260200161014d565b61019d610198366004612451565b61032b565b60405161014d91906124ba565b6101436101b8366004612451565b6104fa565b6101d06101cb3660046124cd565b610505565b005b6101d06101e0366004612548565b610545565b6101d06101f33660046126dc565b6105b0565b61020b610206366004612785565b610602565b60405161014d919061288a565b6101d06102263660046128e1565b61076c565b6101d061023936600461297a565b6107cd565b61025161024c366004612451565b61083b565b60405161014d91906129bb565b6101d061026c366004612a08565b610846565b61020b61027f366004612a5a565b6108db565b6101d0610292366004612a75565b6108e6565b6102aa6102a5366004612ab1565b61099a565b60405161014d9190612ae6565b6101436102c5366004612451565b610ab4565b6101d06102d8366004612b48565b610ae7565b6101d06102eb366004612ba7565b610af9565b61017a6102fe366004612c27565b610b31565b6101d0610311366004612c5a565b610b7e565b60006103228383610bc9565b90505b92915050565b60008181527f4281b61aefbe70b3d3f684b428efca5f33077bc240e76f2808f9177c307617f56020526040812080546060927f4281b61aefbe70b3d3f684b428efca5f33077bc240e76f2808f9177c307617f492909161038a90612cbe565b80601f01602080910402602001604051908101604052809291908181526020018280546103b690612cbe565b80156104035780601f106103d857610100808354040283529160200191610403565b820191906000526020600020905b8154815290600101906020018083116103e657829003601f168201915b50505050509050600082600001805461041b90612cbe565b80601f016020809104026020016040519081016040528092919081815260200182805461044790612cbe565b80156104945780601f1061046957610100808354040283529160200191610494565b820191906000526020600020905b81548152906001019060200180831161047757829003601f168201915b5050505050905080516000036104ac57509392505050565b8151156104df5780826040516020016104c6929190612cf8565b6040516020818303038152906040529350505050919050565b806104e986610c27565b6040516020016104c6929190612cf8565b600061032582610d2f565b6105356105307ff6deb63e40d71b08820818e006e23fcceb1fce7a499bc15b71b2526cbf9efa735490565b610d65565b610540838383610d72565b505050565b6105706105307ff6deb63e40d71b08820818e006e23fcceb1fce7a499bc15b71b2526cbf9efa725490565b6105408383838080601f016020809104026020016040519081016040528093929190818152602001838380828437600092019190915250610d8d92505050565b6001600160a01b03851633148015906105d057506105ce8533610b31565b155b156105ed576040516212efed60e91b815260040160405180910390fd5b6105fb338686868686610e01565b5050505050565b6060815183511461062657604051633e7e0b6d60e11b815260040160405180910390fd5b82516000805160206131a8833981519152906000906001600160401b0381111561065257610652612593565b60405190808252806020026020018201604052801561067b578160200160208202803683370190505b50905060005b85518110156107635760006001600160a01b03168682815181106106a7576106a7612d27565b60200260200101516001600160a01b0316036106d65760405163db5d879760e01b815260040160405180910390fd5b8260008683815181106106eb576106eb612d27565b60200260200101518152602001908152602001600020600087838151811061071557610715612d27565b60200260200101516001600160a01b03166001600160a01b031681526020019081526020016000205482828151811061075057610750612d27565b6020908102919091010152600101610681565b50949350505050565b7f09acf4e54214992e70883cf7dcd6957ff2c71cd9e14df4bec4383bc0d11607dc80546002036107af57604051635db5c7cd60e11b815260040160405180910390fd5b600281556107c1878787878787610e25565b60019055505050505050565b6107f86105307ff6deb63e40d71b08820818e006e23fcceb1fce7a499bc15b71b2526cbf9efa725490565b61083782828080601f016020809104026020016040519081016040528093929190818152602001838380828437600092019190915250610f5592505050565b5050565b606061032582610f80565b7f09acf4e54214992e70883cf7dcd6957ff2c71cd9e14df4bec4383bc0d11607dc805460020361088957604051635db5c7cd60e11b815260040160405180910390fd5b600281600001819055506108d1858585858080602002602001604051908101604052809392919081815260200183836020028082843760009201919091525061105392505050565b6001905550505050565b6060610325826111a4565b6001600160a01b038216330361090f57604051637b30a93360e11b815260040160405180910390fd5b3360008181527f1799cf914cb0cb442ca7c7ac709ee40d0cb89e87351dc08d517fbda27d50c68c602090815260408083206001600160a01b03871680855290835292819020805460ff191686151590811790915590519081529192917f17307eab39ab6107e8899845ad3d59bd9653f200f220920489ca2b5937696c31910160405180910390a35050565b6060816001600160401b038111156109b4576109b4612593565b6040519080825280602002602001820160405280156109e757816020015b60608152602001906001900390816109d25790505b50905060005b82811015610aad5760008030868685818110610a0b57610a0b612d27565b9050602002810190610a1d9190612d3d565b604051610a2b929190612d83565b600060405180830381855af49150503d8060008114610a66576040519150601f19603f3d011682016040523d82523d6000602084013e610a6b565b606091505b50915091508115610a995780848481518110610a8957610a89612d27565b6020026020010181905250610aa3565b3d6000803e3d6000fd5b50506001016109ed565b5092915050565b60008181527fb31c2c74f86ca3ce94d901f5f5bbe66f7161eec2f7b5aa0b75a86371436424ea6020526040812054610325565b610af38484848461126c565b50505050565b610b246105307ff6deb63e40d71b08820818e006e23fcceb1fce7a499bc15b71b2526cbf9efa735490565b6105fb8585858585611373565b6001600160a01b0391821660009081527f1799cf914cb0cb442ca7c7ac709ee40d0cb89e87351dc08d517fbda27d50c68c6020908152604080832093909416825291909152205460ff1690565b6001600160a01b0385163314801590610b9e5750610b9c8533610b31565b155b15610bbb576040516212efed60e91b815260040160405180910390fd5b6105fb3386868686866113ef565b60006001600160a01b038316610bf25760405163db5d879760e01b815260040160405180910390fd5b6000805160206131a88339815191526000928352602090815260408084206001600160a01b0395909516845293905250205490565b606081600003610c4e5750506040805180820190915260018152600360fc1b602082015290565b8160005b8115610c785780610c6281612da9565b9150610c719050600a83612dd8565b9150610c52565b6000816001600160401b03811115610c9257610c92612593565b6040519080825280601f01601f191660200182016040528015610cbc576020820181803683370190505b5090505b8415610d2757610cd1600183612dec565b9150610cde600a86612dff565b610ce9906030612e13565b60f81b818381518110610cfe57610cfe612d27565b60200101906001600160f81b031916908160001a905350610d20600a86612dd8565b9450610cc0565b949350505050565b60008181527fb31c2c74f86ca3ce94d901f5f5bbe66f7161eec2f7b5aa0b75a86371436424eb602052604081206103259061140b565b610d6f8133611415565b50565b61054083838360405180602001604052806000815250611477565b60008281527f4281b61aefbe70b3d3f684b428efca5f33077bc240e76f2808f9177c307617f560205260409020610dc48282612e6c565b50817f6bb7ff708619ba0610cba295a58592e0451dee2622938c8755667688daf3529b82604051610df591906124ba565b60405180910390a25050565b610e0f868686868686611550565b610e1d8686868686866116f9565b505050505050565b848314610e9f5760405162461bcd60e51b815260206004820152603760248201527f4974656d73496e7465726e616c2e5f636c61696d4d65726b6c6542617463683a60448201527f20496e70757473206c656e677468206d69736d6174636800000000000000000060648201526084015b60405180910390fd5b60005b85811015610f4c57610f3a878783818110610ebf57610ebf612d27565b90506020020135868684818110610ed857610ed8612d27565b90506020020135858585818110610ef157610ef1612d27565b9050602002810190610f039190612f2b565b8080602002602001604051908101604052809392919081815260200183836020028082843760009201919091525061105392505050565b80610f4481612da9565b915050610ea2565b50505050505050565b7f4281b61aefbe70b3d3f684b428efca5f33077bc240e76f2808f9177c307617f46108378282612e6c565b60008181527fb31c2c74f86ca3ce94d901f5f5bbe66f7161eec2f7b5aa0b75a86371436424eb60205260408120606091610fb98261140b565b6001600160401b03811115610fd057610fd0612593565b604051908082528060200260200182016040528015610ff9578160200160208202803683370190505b50905060005b6110088361140b565b81101561104b576110198382611809565b82828151811061102b5761102b612d27565b6001600160a01b0390921660209283029190910190910152600101610fff565b509392505050565b3360009081527f333d4b734a9ca3847483bf4c14a14709d21907ff5f12a881347e2fb2ad8906d6602081815260408084208785529091529091205460ff16156110f25760405162461bcd60e51b815260206004820152602b60248201527f4974656d73496e7465726e616c2e5f636c61696d4d65726b6c653a20416c726560448201526a18591e4818db185a5b595960aa1b6064820152608401610e96565b336000818152602083815260408083208884528252808320805460ff191660011790558051918201939093529182018690526060820185905290608001604051602081830303815290604052905061114a8382611815565b5061116633868660405180602001604052806000815250611477565b604051848152859033907fd4307fb1338aefb2a030cf5ea0f582a10d28ffee99fe253e5d48946f9a74a59f9060200160405180910390a35050505050565b6001600160a01b03811660009081527fb31c2c74f86ca3ce94d901f5f5bbe66f7161eec2f7b5aa0b75a86371436424ec602052604081206060916111e78261140b565b6001600160401b038111156111fe576111fe612593565b604051908082528060200260200182016040528015611227578160200160208202803683370190505b50905060005b6112368361140b565b81101561104b576112478382611809565b82828151811061125957611259612d27565b602090810291909101015260010161122d565b8281146112d95760405162461bcd60e51b815260206004820152603560248201527f4974656d73496e7465726e616c2e5f636c61696d57686974656c6973743a20496044820152740dce0eae8e640d8cadccee8d040dad2e6dac2e8c6d605b1b6064820152608401610e96565b6000805b8481101561136857611330338787848181106112fb576112fb612d27565b9050602002013586868581811061131457611314612d27565b9050602002013560405180602001604052806000815250611477565b83838281811061134257611342612d27565b90506020020135826113549190612e13565b91508061136081612da9565b9150506112dd565b506105fb33826118cb565b6105fb8585858080602002602001604051908101604052809392919081815260200183836020028082843760009201919091525050604080516020808902828101820190935288825290935088925087918291850190849080828437600092018290525060408051602081019091529081529250611a74915050565b6113fd868686868686611bcb565b610e1d868686868686611ce1565b6000610325825490565b61141f8282611d9d565b61083757611435816001600160a01b0316611dd4565b611440836020611de6565b604051602001611451929190612f74565b60408051601f198184030181529082905262461bcd60e51b8252610e96916004016124ba565b6001600160a01b03841661149e576040516301c8efbf60e11b815260040160405180910390fd5b6114bd336000866114ae87611f38565b6114b787611f38565b86611f83565b60008381526000805160206131a8833981519152602090815260408083206001600160a01b0388168452909152812080548492906114fc908490612e13565b909155505060408051848152602081018490526001600160a01b0386169160009133917fc3d58168c5ae7397731d063d5bbf3d657854427343f4c083240f7aacaa2d0f62910160405180910390a450505050565b6001600160a01b0384166115775760405163f5cadad560e01b815260040160405180910390fd5b815183511461159957604051633e7e0b6d60e11b815260040160405180910390fd5b6115a7868686868686611f83565b6000805160206131a883398151915260005b84518110156116985760008582815181106115d6576115d6612d27565b6020026020010151905060008583815181106115f4576115f4612d27565b602090810291909101810151600084815286835260408082206001600160a01b038e1683529093529190912054909150808211156116455760405163119ac6bb60e31b815260040160405180910390fd5b6000838152602086815260408083206001600160a01b038e811685529252808320938590039093558a16815290812080546001959095019483929061168b908490612e13565b909155506115b992505050565b50846001600160a01b0316866001600160a01b0316886001600160a01b03167f4a39dc06d4c0dbc64b70af90fd698a233a518aa5d07e595d983b8c0526c8f7fb87876040516116e8929190612fe9565b60405180910390a450505050505050565b6001600160a01b0384163b15610e1d5760405163bc197c8160e01b81526001600160a01b0385169063bc197c819061173d9089908990889088908890600401613017565b6020604051808303816000875af1925050508015611778575060408051601f3d908101601f1916820190925261177591810190613075565b60015b6117d857611784613092565b806308c379a0036117bd57506117986130ae565b806117a357506117bf565b8060405162461bcd60e51b8152600401610e9691906124ba565b505b60405163380147a960e01b815260040160405180910390fd5b6001600160e01b0319811663bc197c8160e01b14610f4c57604051633744db2960e01b815260040160405180910390fd5b60006103228383611f91565b600080828051906020012060405160200161183291815260200190565b60405160208183030381529060405280519060200120905061187c846118757f7a07c093b55ad04e200605cb287859fe4640b7310d62fdbb044e26399da78c0890565b5483611fdd565b915081610aad5760405162461bcd60e51b815260206004820152601b60248201527f44617461206e6f7420696e636c7564656420696e206d65726b6c6500000000006044820152606401610e96565b6001600160a01b03821660009081527ff38d3885e664c9638de25f02e645e1955ebebe901d7be2c2037db6a5bcbb358960205260409020547ff38d3885e664c9638de25f02e645e1955ebebe901d7be2c2037db6a5bcbb3588908211156119a65760405162461bcd60e51b815260206004820152604360248201527f57686974656c697374496e7465726e616c2e5f636f6e73756d6557686974656c60448201527f6973743a20616d6f756e74206578636565647320656c656769626c6520616d6f6064820152621d5b9d60ea1b608482015260a401610e96565b6001600160a01b0383166000908152600182016020526040812080548492906119d0908490612dec565b90915550506001600160a01b038316600090815260208290526040812080548492906119fd908490612e13565b90915550506001600160a01b0383166000908152600182016020908152604080832054848352928190205481513381529283018690529082019290925260608101919091527fdb4f4d78cc1c961ddedd2f43596d41d07e607b7517c7106d83f6421215e1f6a79060800160405180910390a1505050565b6001600160a01b038416611a9b576040516301c8efbf60e11b815260040160405180910390fd5b8151835114611abd57604051633e7e0b6d60e11b815260040160405180910390fd5b611acc33600086868686611f83565b6000805160206131a883398151915260005b8451811015611b6b57838181518110611af957611af9612d27565b6020026020010151826000878481518110611b1657611b16612d27565b602002602001015181526020019081526020016000206000886001600160a01b03166001600160a01b031681526020019081526020016000206000828254611b5e9190612e13565b9091555050600101611ade565b50846001600160a01b031660006001600160a01b0316336001600160a01b03167f4a39dc06d4c0dbc64b70af90fd698a233a518aa5d07e595d983b8c0526c8f7fb8787604051611bbc929190612fe9565b60405180910390a45050505050565b6001600160a01b038416611bf25760405163f5cadad560e01b815260040160405180910390fd5b611c018686866114ae87611f38565b60008381526000805160206131a8833981519152602081815260408084206001600160a01b038a1685529091529091205480841115611c535760405163119ac6bb60e31b815260040160405180910390fd5b6000858152602083815260408083206001600160a01b038b81168552925280832093879003909355871681529081208054859290611c92908490612e13565b909155505060408051858152602081018590526001600160a01b038088169289821692918b16917fc3d58168c5ae7397731d063d5bbf3d657854427343f4c083240f7aacaa2d0f6291016116e8565b6001600160a01b0384163b15610e1d5760405163f23a6e6160e01b81526001600160a01b0385169063f23a6e6190611d259089908990889088908890600401613137565b6020604051808303816000875af1925050508015611d60575060408051601f3d908101601f19168201909252611d5d91810190613075565b60015b611d6c57611784613092565b6001600160e01b0319811663f23a6e6160e01b14610f4c57604051633744db2960e01b815260040160405180910390fd5b60008281527fd3889cc5458b268d0544e5534672df1296288ca3f93cbd39bd6f497a5c622811602052604081206103229083612082565b60606103256001600160a01b03831660145b60606000611df583600261317a565b611e00906002612e13565b6001600160401b03811115611e1757611e17612593565b6040519080825280601f01601f191660200182016040528015611e41576020820181803683370190505b509050600360fc1b81600081518110611e5c57611e5c612d27565b60200101906001600160f81b031916908160001a905350600f60fb1b81600181518110611e8b57611e8b612d27565b60200101906001600160f81b031916908160001a905350600160028402015b6001811115611f18576f181899199a1a9b1b9c1cb0b131b232b360811b85600f1660108110611edb57611edb612d27565b1a60f81b828281518110611ef157611ef1612d27565b60200101906001600160f81b031916908160001a90535060049490941c9360001901611eaa565b5083156103225760405163c913478560e01b815260040160405180910390fd5b60408051600180825281830190925260609160009190602080830190803683370190505090508281600081518110611f7257611f72612d27565b602090810291909101015292915050565b610e1d8686868686866120a4565b81546000908210611fb55760405163e637bf3b60e01b815260040160405180910390fd5b826000018281548110611fca57611fca612d27565b9060005260206000200154905092915050565b600081815b8551811015612077576000868281518110611fff57611fff612d27565b6020026020010151905080831161204157604080516020810185905290810182905260600160405160208183030381529060405280519060200120925061206e565b60408051602081018390529081018490526060016040516020818303038152906040528051906020012092505b50600101611fe2565b509092149392505050565b6001600160a01b03811660009081526001830160205260408120541515610322565b610e1d868686868686836001600160a01b0316856001600160a01b031614610e1d576001600160a01b0385811660009081527fb31c2c74f86ca3ce94d901f5f5bbe66f7161eec2f7b5aa0b75a86371436424ec6020526040808220928716825281207fb31c2c74f86ca3ce94d901f5f5bbe66f7161eec2f7b5aa0b75a86371436424ea927fb31c2c74f86ca3ce94d901f5f5bbe66f7161eec2f7b5aa0b75a86371436424eb929091905b875181101561228c57600087828151811061216b5761216b612d27565b60200260200101519050600081111561228357600089838151811061219257612192612d27565b6020026020010151905060006001600160a01b03168c6001600160a01b0316036121df57600081815260208890526040812080548492906121d4908490612e13565b909155506122149050565b816121ea8d83610bc9565b03612214576000818152602087905260409020612207908d612299565b5061221285826122ae565b505b6001600160a01b038b1661224b5760008181526020889052604081208054849290612240908490612dec565b909155506122819050565b6122558b82610bc9565b600003612281576000818152602087905260409020612274908c6122ba565b5061227f84826122cf565b505b505b5060010161214e565b5050505050505050505050565b6000610322836001600160a01b0384166122db565b600061032283836122db565b6000610322836001600160a01b038416612395565b60006103228383612395565b60008181526001830160205260408120548015610aad5783546000908590600019810190811061230d5761230d612d27565b906000526020600020015490508085600001600184038154811061233357612333612d27565b600091825260208083209091019290925591825260018601905260409020819055835484908061236557612365613191565b60008281526020808220830160001990810183905590920190925593815260019485019093525050604081205590565b6000818152600183016020526040812054610325575081546001808201845560008481526020808220909301849055845493815293810190915260409092205590565b80356001600160a01b03811681146123ef57600080fd5b919050565b6000806040838503121561240757600080fd5b612410836123d8565b946020939093013593505050565b6001600160e01b031981168114610d6f57600080fd5b60006020828403121561244657600080fd5b81356103228161241e565b60006020828403121561246357600080fd5b5035919050565b60005b8381101561248557818101518382015260200161246d565b50506000910152565b600081518084526124a681602086016020860161246a565b601f01601f19169290920160200192915050565b602081526000610322602083018461248e565b6000806000606084860312156124e257600080fd5b6124eb846123d8565b95602085013595506040909401359392505050565b60008083601f84011261251257600080fd5b5081356001600160401b0381111561252957600080fd5b60208301915083602082850101111561254157600080fd5b9250929050565b60008060006040848603121561255d57600080fd5b8335925060208401356001600160401b0381111561257a57600080fd5b61258686828701612500565b9497909650939450505050565b634e487b7160e01b600052604160045260246000fd5b601f8201601f191681016001600160401b03811182821017156125ce576125ce612593565b6040525050565b60006001600160401b038211156125ee576125ee612593565b5060051b60200190565b600082601f83011261260957600080fd5b81356020612616826125d5565b60405161262382826125a9565b83815260059390931b850182019282810191508684111561264357600080fd5b8286015b8481101561265e5780358352918301918301612647565b509695505050505050565b600082601f83011261267a57600080fd5b81356001600160401b0381111561269357612693612593565b6040516126aa601f8301601f1916602001826125a9565b8181528460208386010111156126bf57600080fd5b816020850160208301376000918101602001919091529392505050565b600080600080600060a086880312156126f457600080fd5b6126fd866123d8565b945061270b602087016123d8565b935060408601356001600160401b038082111561272757600080fd5b61273389838a016125f8565b9450606088013591508082111561274957600080fd5b61275589838a016125f8565b9350608088013591508082111561276b57600080fd5b5061277888828901612669565b9150509295509295909350565b6000806040838503121561279857600080fd5b82356001600160401b03808211156127af57600080fd5b818501915085601f8301126127c357600080fd5b813560206127d0826125d5565b6040516127dd82826125a9565b83815260059390931b85018201928281019150898411156127fd57600080fd5b948201945b8386101561282257612813866123d8565b82529482019490820190612802565b9650508601359250508082111561283857600080fd5b50612845858286016125f8565b9150509250929050565b600081518084526020808501945080840160005b8381101561287f57815187529582019590820190600101612863565b509495945050505050565b602081526000610322602083018461284f565b60008083601f8401126128af57600080fd5b5081356001600160401b038111156128c657600080fd5b6020830191508360208260051b850101111561254157600080fd5b600080600080600080606087890312156128fa57600080fd5b86356001600160401b038082111561291157600080fd5b61291d8a838b0161289d565b9098509650602089013591508082111561293657600080fd5b6129428a838b0161289d565b9096509450604089013591508082111561295b57600080fd5b5061296889828a0161289d565b979a9699509497509295939492505050565b6000806020838503121561298d57600080fd5b82356001600160401b038111156129a357600080fd5b6129af85828601612500565b90969095509350505050565b6020808252825182820181905260009190848201906040850190845b818110156129fc5783516001600160a01b0316835292840192918401916001016129d7565b50909695505050505050565b60008060008060608587031215612a1e57600080fd5b843593506020850135925060408501356001600160401b03811115612a4257600080fd5b612a4e8782880161289d565b95989497509550505050565b600060208284031215612a6c57600080fd5b610322826123d8565b60008060408385031215612a8857600080fd5b612a91836123d8565b915060208301358015158114612aa657600080fd5b809150509250929050565b60008060208385031215612ac457600080fd5b82356001600160401b03811115612ada57600080fd5b6129af8582860161289d565b6000602080830181845280855180835260408601915060408160051b870101925083870160005b82811015612b3b57603f19888603018452612b2985835161248e565b94509285019290850190600101612b0d565b5092979650505050505050565b60008060008060408587031215612b5e57600080fd5b84356001600160401b0380821115612b7557600080fd5b612b818883890161289d565b90965094506020870135915080821115612b9a57600080fd5b50612a4e8782880161289d565b600080600080600060608688031215612bbf57600080fd5b612bc8866123d8565b945060208601356001600160401b0380821115612be457600080fd5b612bf089838a0161289d565b90965094506040880135915080821115612c0957600080fd5b50612c168882890161289d565b969995985093965092949392505050565b60008060408385031215612c3a57600080fd5b612c43836123d8565b9150612c51602084016123d8565b90509250929050565b600080600080600060a08688031215612c7257600080fd5b612c7b866123d8565b9450612c89602087016123d8565b9350604086013592506060860135915060808601356001600160401b03811115612cb257600080fd5b61277888828901612669565b600181811c90821680612cd257607f821691505b602082108103612cf257634e487b7160e01b600052602260045260246000fd5b50919050565b60008351612d0a81846020880161246a565b835190830190612d1e81836020880161246a565b01949350505050565b634e487b7160e01b600052603260045260246000fd5b6000808335601e19843603018112612d5457600080fd5b8301803591506001600160401b03821115612d6e57600080fd5b60200191503681900382131561254157600080fd5b8183823760009101908152919050565b634e487b7160e01b600052601160045260246000fd5b600060018201612dbb57612dbb612d93565b5060010190565b634e487b7160e01b600052601260045260246000fd5b600082612de757612de7612dc2565b500490565b8181038181111561032557610325612d93565b600082612e0e57612e0e612dc2565b500690565b8082018082111561032557610325612d93565b601f82111561054057600081815260208120601f850160051c81016020861015612e4d5750805b601f850160051c820191505b81811015610e1d57828155600101612e59565b81516001600160401b03811115612e8557612e85612593565b612e9981612e938454612cbe565b84612e26565b602080601f831160018114612ece5760008415612eb65750858301515b600019600386901b1c1916600185901b178555610e1d565b600085815260208120601f198616915b82811015612efd57888601518255948401946001909101908401612ede565b5085821015612f1b5787850151600019600388901b60f8161c191681555b5050505050600190811b01905550565b6000808335601e19843603018112612f4257600080fd5b8301803591506001600160401b03821115612f5c57600080fd5b6020019150600581901b360382131561254157600080fd5b7f416363657373436f6e74726f6c3a206163636f756e7420000000000000000000815260008351612fac81601785016020880161246a565b7001034b99036b4b9b9b4b733903937b6329607d1b6017918401918201528351612fdd81602884016020880161246a565b01602801949350505050565b604081526000612ffc604083018561284f565b828103602084015261300e818561284f565b95945050505050565b60006001600160a01b03808816835280871660208401525060a0604083015261304360a083018661284f565b8281036060840152613055818661284f565b90508281036080840152613069818561248e565b98975050505050505050565b60006020828403121561308757600080fd5b81516103228161241e565b600060033d11156130ab5760046000803e5060005160e01c5b90565b600060443d10156130bc5790565b6040516003193d81016004833e81513d6001600160401b0381602484011181841117156130eb57505050505090565b82850191508151818111156131035750505050505090565b843d870101602082850101111561311d5750505050505090565b61312c602082860101876125a9565b509095945050505050565b60006001600160a01b03808816835280871660208401525084604083015283606083015260a0608083015261316f60a083018461248e565b979650505050505050565b808202811582820484141761032557610325612d93565b634e487b7160e01b600052603160045260246000fdfe1799cf914cb0cb442ca7c7ac709ee40d0cb89e87351dc08d517fbda27d50c68ba26469706673582212209068bf3bf29873bf34e2efbcb444b30f7b55d80712fe3decf16a4c6463de61a064736f6c63430008130033",
  "devdoc": {
    "details": "This contract handles the creation and management of items It uses ERC1155 tokens to represent items and provides methods to mint new items, claim items via Merkle tree or a whitelist, and set the base and URIs for the items. It also uses the ReentrancyGuard and Multicall contracts for security and gas efficiency.",
    "kind": "dev",
    "methods": {
      "accountsByToken(uint256)": {
        "params": {
          "id": "token id to query"
        },
        "returns": {
          "_0": "list of holder addresses"
        }
      },
      "balanceOf(address,uint256)": {
        "params": {
          "account": "address to query",
          "id": "token to query"
        },
        "returns": {
          "_0": "token balance"
        }
      },
      "balanceOfBatch(address[],uint256[])": {
        "params": {
          "accounts": "addresss to query",
          "ids": "tokens to query"
        },
        "returns": {
          "_0": "token balances"
        }
      },
      "claimMerkle(uint256,uint256,bytes32[])": {
        "params": {
          "amount": "The amount of the item to claim",
          "itemId": "The ID of the item to claim",
          "proof": "The Merkle proof for the item"
        }
      },
      "claimMerkleBatch(uint256[],uint256[],bytes32[][])": {
        "params": {
          "amounts": "The amounts of the items to claim",
          "itemsIds": "The IDs of the items to claim",
          "proofs": "The Merkle proofs for the items"
        }
      },
      "claimWhitelist(uint256[],uint256[])": {
        "params": {
          "amounts": "The amounts of the items to claim",
          "itemIds": "The IDs of the items to claim"
        }
      },
      "isApprovedForAll(address,address)": {
        "params": {
          "account": "address to query for approval granted",
          "operator": "address to query for approval received"
        },
        "returns": {
          "_0": "whether operator is approved to spend tokens held by account"
        }
      },
      "mint(address,uint256,uint256)": {
        "params": {
          "amount": "The amount of the items to mint",
          "id": "The ID of the item to mint",
          "to": "The address to mint the item to"
        }
      },
      "mintBatch(address,uint256[],uint256[])": {
        "details": "Only account with minter role can call this function",
        "params": {
          "amounts": "An array of corresponding amounts to be minted for each item ID",
          "ids": "An array of items IDs to be minted",
          "to": "The address to receive the minted items"
        }
      },
      "multicall(bytes[])": {
        "params": {
          "data": "array of function call data payloads"
        },
        "returns": {
          "results": "array of function call results"
        }
      },
      "safeBatchTransferFrom(address,address,uint256[],uint256[],bytes)": {
        "params": {
          "amounts": "list of quantities of tokens to transfer",
          "data": "data payload",
          "from": "sender of tokens",
          "ids": "list of token IDs",
          "to": "receiver of tokens"
        }
      },
      "safeTransferFrom(address,address,uint256,uint256,bytes)": {
        "params": {
          "amount": "quantity of tokens to transfer",
          "data": "data payload",
          "from": "sender of tokens",
          "id": "token ID",
          "to": "receiver of tokens"
        }
      },
      "setApprovalForAll(address,bool)": {
        "params": {
          "operator": "address whose approval status to update",
          "status": "whether operator should be considered approved"
        }
      },
      "setBaseURI(string)": {
        "details": "Only the manager role can call this function",
        "params": {
          "baseURI": "The new base URI"
        }
      },
      "setTokenURI(uint256,string)": {
        "details": "Only the manager role can call this function",
        "params": {
          "tokenId": "The ID of the item to set the URI for",
          "tokenURI": "The new item URI"
        }
      },
      "tokensByAccount(address)": {
        "params": {
          "account": "address to query"
        },
        "returns": {
          "_0": "list of token ids"
        }
      },
      "totalHolders(uint256)": {
        "params": {
          "id": "token id to query"
        },
        "returns": {
          "_0": "quantity of holders"
        }
      },
      "totalSupply(uint256)": {
        "params": {
          "id": "token id to query"
        },
        "returns": {
          "_0": "token supply"
        }
      }
    },
    "title": "ItemsFacet",
    "version": 1
  },
  "userdoc": {
    "kind": "user",
    "methods": {
      "accountsByToken(uint256)": {
        "notice": "query holders of given token"
      },
      "balanceOf(address,uint256)": {
        "notice": "query the balance of given token held by given address"
      },
      "balanceOfBatch(address[],uint256[])": {
        "notice": "query the balances of given tokens held by given addresses"
      },
      "claimMerkle(uint256,uint256,bytes32[])": {
        "notice": "Claims an item if present in the Merkle tree"
      },
      "claimMerkleBatch(uint256[],uint256[],bytes32[][])": {
        "notice": "Claims items if present in the Merkle tree"
      },
      "claimWhitelist(uint256[],uint256[])": {
        "notice": "Claims items from a whitelist"
      },
      "isApprovedForAll(address,address)": {
        "notice": "query approval status of given operator with respect to given address"
      },
      "mint(address,uint256,uint256)": {
        "notice": "Mints a new item"
      },
      "mintBatch(address,uint256[],uint256[])": {
        "notice": "Mint a batch of items to a specific address"
      },
      "multicall(bytes[])": {
        "notice": "batch function calls to the contract and return the results of each"
      },
      "safeBatchTransferFrom(address,address,uint256[],uint256[],bytes)": {
        "notice": "transfer batch of tokens between given addresses, checking for ERC1155Receiver implementation if applicable"
      },
      "safeTransferFrom(address,address,uint256,uint256,bytes)": {
        "notice": "transfer tokens between given addresses, checking for ERC1155Receiver implementation if applicable"
      },
      "setApprovalForAll(address,bool)": {
        "notice": "grant approval to or revoke approval from given operator to spend held tokens"
      },
      "setBaseURI(string)": {
        "notice": "Set the base URI for all items metadata"
      },
      "setTokenURI(uint256,string)": {
        "notice": "Set the URI for a specific item ID"
      },
      "tokensByAccount(address)": {
        "notice": "query tokens held by given address"
      },
      "totalHolders(uint256)": {
        "notice": "query total number of holders for given token"
      },
      "totalSupply(uint256)": {
        "notice": "query total minted supply of given token"
      },
      "uri(uint256)": {
        "notice": "inheritdoc IERC1155Metadata"
      }
    },
    "version": 1
  },
  "storageLayout": {
    "storage": [],
    "types": null
  }
}