{
  "address": "0xFdBAd874dC183F5fBf862E4cEac1B0564B260C2f",
  "abi": [
    {
      "inputs": [],
      "name": "ERC1155Base__ArrayLengthMismatch",
      "type": "error"
    },
    {
      "inputs": [],
      "name": "ERC1155Base__BalanceQueryZeroAddress",
      "type": "error"
    },
    {
      "inputs": [],
      "name": "ERC1155Base__BurnExceedsBalance",
      "type": "error"
    },
    {
      "inputs": [],
      "name": "ERC1155Base__BurnFromZeroAddress",
      "type": "error"
    },
    {
      "inputs": [],
      "name": "ERC1155Base__ERC1155ReceiverNotImplemented",
      "type": "error"
    },
    {
      "inputs": [],
      "name": "ERC1155Base__ERC1155ReceiverRejected",
      "type": "error"
    },
    {
      "inputs": [],
      "name": "ERC1155Base__MintToZeroAddress",
      "type": "error"
    },
    {
      "inputs": [],
      "name": "ERC1155Base__NotOwnerOrApproved",
      "type": "error"
    },
    {
      "inputs": [],
      "name": "ERC1155Base__SelfApproval",
      "type": "error"
    },
    {
      "inputs": [],
      "name": "ERC1155Base__TransferExceedsBalance",
      "type": "error"
    },
    {
      "inputs": [],
      "name": "ERC1155Base__TransferToZeroAddress",
      "type": "error"
    },
    {
      "inputs": [],
      "name": "EnumerableSet__IndexOutOfBounds",
      "type": "error"
    },
    {
      "inputs": [],
      "name": "Items_InputsLengthMistatch",
      "type": "error"
    },
    {
      "inputs": [],
      "name": "Items_InvalidItemId",
      "type": "error"
    },
    {
      "inputs": [],
      "name": "Items_ItemsBasicStatusAlreadyUpdated",
      "type": "error"
    },
    {
      "inputs": [],
      "name": "Items_MaximumItemMintsExceeded",
      "type": "error"
    },
    {
      "inputs": [],
      "name": "Items_MintingNonBasicItem",
      "type": "error"
    },
    {
      "inputs": [],
      "name": "Merkle_AlreadyClaimed",
      "type": "error"
    },
    {
      "inputs": [],
      "name": "Merkle_ClaimInactive",
      "type": "error"
    },
    {
      "inputs": [],
      "name": "Merkle_ClaimStateAlreadyUpdated",
      "type": "error"
    },
    {
      "inputs": [],
      "name": "Merkle_InvalidClaimAmount",
      "type": "error"
    },
    {
      "inputs": [],
      "name": "Merkle_NotIncludedInMerkleTree",
      "type": "error"
    },
    {
      "inputs": [],
      "name": "ReentrancyGuard__ReentrantCall",
      "type": "error"
    },
    {
      "inputs": [],
      "name": "Roles_MissingAdminRole",
      "type": "error"
    },
    {
      "inputs": [],
      "name": "Roles_MissingAutomationRole",
      "type": "error"
    },
    {
      "inputs": [],
      "name": "Roles_MissingManagerRole",
      "type": "error"
    },
    {
      "inputs": [],
      "name": "Whitelist_ClaimInactive",
      "type": "error"
    },
    {
      "inputs": [],
      "name": "Whitelist_ClaimStateAlreadyUpdated",
      "type": "error"
    },
    {
      "inputs": [],
      "name": "Whitelist_ExceedsElegibleAmount",
      "type": "error"
    },
    {
      "inputs": [],
      "name": "Whitelist_ExceedsPoolSupply",
      "type": "error"
    },
    {
      "inputs": [],
      "name": "Whitelist_InputDataMismatch",
      "type": "error"
    },
    {
      "anonymous": false,
      "inputs": [
        {
          "indexed": true,
          "internalType": "address",
          "name": "account",
          "type": "address"
        },
        {
          "indexed": true,
          "internalType": "address",
          "name": "operator",
          "type": "address"
        },
        {
          "indexed": false,
          "internalType": "bool",
          "name": "approved",
          "type": "bool"
        }
      ],
      "name": "ApprovalForAll",
      "type": "event"
    },
    {
      "anonymous": false,
      "inputs": [
        {
          "indexed": true,
          "internalType": "address",
          "name": "to",
          "type": "address"
        },
        {
          "indexed": true,
          "internalType": "uint256",
          "name": "itemId",
          "type": "uint256"
        },
        {
          "indexed": false,
          "internalType": "uint256",
          "name": "amount",
          "type": "uint256"
        }
      ],
      "name": "ItemClaimedMerkle",
      "type": "event"
    },
    {
      "anonymous": false,
      "inputs": [
        {
          "indexed": true,
          "internalType": "bytes32",
          "name": "role",
          "type": "bytes32"
        },
        {
          "indexed": true,
          "internalType": "bytes32",
          "name": "previousAdminRole",
          "type": "bytes32"
        },
        {
          "indexed": true,
          "internalType": "bytes32",
          "name": "newAdminRole",
          "type": "bytes32"
        }
      ],
      "name": "RoleAdminChanged",
      "type": "event"
    },
    {
      "anonymous": false,
      "inputs": [
        {
          "indexed": true,
          "internalType": "bytes32",
          "name": "role",
          "type": "bytes32"
        },
        {
          "indexed": true,
          "internalType": "address",
          "name": "account",
          "type": "address"
        },
        {
          "indexed": true,
          "internalType": "address",
          "name": "sender",
          "type": "address"
        }
      ],
      "name": "RoleGranted",
      "type": "event"
    },
    {
      "anonymous": false,
      "inputs": [
        {
          "indexed": true,
          "internalType": "bytes32",
          "name": "role",
          "type": "bytes32"
        },
        {
          "indexed": true,
          "internalType": "address",
          "name": "account",
          "type": "address"
        },
        {
          "indexed": true,
          "internalType": "address",
          "name": "sender",
          "type": "address"
        }
      ],
      "name": "RoleRevoked",
      "type": "event"
    },
    {
      "anonymous": false,
      "inputs": [
        {
          "indexed": true,
          "internalType": "address",
          "name": "operator",
          "type": "address"
        },
        {
          "indexed": true,
          "internalType": "address",
          "name": "from",
          "type": "address"
        },
        {
          "indexed": true,
          "internalType": "address",
          "name": "to",
          "type": "address"
        },
        {
          "indexed": false,
          "internalType": "uint256[]",
          "name": "ids",
          "type": "uint256[]"
        },
        {
          "indexed": false,
          "internalType": "uint256[]",
          "name": "values",
          "type": "uint256[]"
        }
      ],
      "name": "TransferBatch",
      "type": "event"
    },
    {
      "anonymous": false,
      "inputs": [
        {
          "indexed": true,
          "internalType": "address",
          "name": "operator",
          "type": "address"
        },
        {
          "indexed": true,
          "internalType": "address",
          "name": "from",
          "type": "address"
        },
        {
          "indexed": true,
          "internalType": "address",
          "name": "to",
          "type": "address"
        },
        {
          "indexed": false,
          "internalType": "uint256",
          "name": "id",
          "type": "uint256"
        },
        {
          "indexed": false,
          "internalType": "uint256",
          "name": "value",
          "type": "uint256"
        }
      ],
      "name": "TransferSingle",
      "type": "event"
    },
    {
      "anonymous": false,
      "inputs": [
        {
          "indexed": false,
          "internalType": "string",
          "name": "value",
          "type": "string"
        },
        {
          "indexed": true,
          "internalType": "uint256",
          "name": "tokenId",
          "type": "uint256"
        }
      ],
      "name": "URI",
      "type": "event"
    },
    {
      "anonymous": false,
      "inputs": [
        {
          "indexed": true,
          "internalType": "address",
          "name": "account",
          "type": "address"
        },
        {
          "indexed": false,
          "internalType": "enum WhitelistStorage.PoolId",
          "name": "poolId",
          "type": "uint8"
        },
        {
          "indexed": false,
          "internalType": "uint256",
          "name": "totalElegibleAmount",
          "type": "uint256"
        },
        {
          "indexed": false,
          "internalType": "uint256",
          "name": "totalClaimedAmount",
          "type": "uint256"
        }
      ],
      "name": "WhitelistBalanceChanged",
      "type": "event"
    },
    {
      "inputs": [
        {
          "internalType": "uint256",
          "name": "id",
          "type": "uint256"
        }
      ],
      "name": "accountsByToken",
      "outputs": [
        {
          "internalType": "address[]",
          "name": "",
          "type": "address[]"
        }
      ],
      "stateMutability": "view",
      "type": "function"
    },
    {
      "inputs": [
        {
          "internalType": "address",
          "name": "account",
          "type": "address"
        },
        {
          "internalType": "uint256",
          "name": "id",
          "type": "uint256"
        }
      ],
      "name": "balanceOf",
      "outputs": [
        {
          "internalType": "uint256",
          "name": "",
          "type": "uint256"
        }
      ],
      "stateMutability": "view",
      "type": "function"
    },
    {
      "inputs": [
        {
          "internalType": "address[]",
          "name": "accounts",
          "type": "address[]"
        },
        {
          "internalType": "uint256[]",
          "name": "ids",
          "type": "uint256[]"
        }
      ],
      "name": "balanceOfBatch",
      "outputs": [
        {
          "internalType": "uint256[]",
          "name": "",
          "type": "uint256[]"
        }
      ],
      "stateMutability": "view",
      "type": "function"
    },
    {
      "inputs": [
        {
          "internalType": "uint256",
          "name": "itemId",
          "type": "uint256"
        },
        {
          "internalType": "uint256",
          "name": "amount",
          "type": "uint256"
        },
        {
          "internalType": "bytes32[]",
          "name": "proof",
          "type": "bytes32[]"
        }
      ],
      "name": "claimMerkle",
      "outputs": [],
      "stateMutability": "nonpayable",
      "type": "function"
    },
    {
      "inputs": [
        {
          "internalType": "uint256[]",
          "name": "itemsIds",
          "type": "uint256[]"
        },
        {
          "internalType": "uint256[]",
          "name": "amounts",
          "type": "uint256[]"
        },
        {
          "internalType": "bytes32[][]",
          "name": "proofs",
          "type": "bytes32[][]"
        }
      ],
      "name": "claimMerkleBatch",
      "outputs": [],
      "stateMutability": "nonpayable",
      "type": "function"
    },
    {
      "inputs": [
        {
          "internalType": "uint256[]",
          "name": "itemIds",
          "type": "uint256[]"
        },
        {
          "internalType": "uint256[]",
          "name": "amounts",
          "type": "uint256[]"
        }
      ],
      "name": "claimWhitelist",
      "outputs": [],
      "stateMutability": "nonpayable",
      "type": "function"
    },
    {
      "inputs": [
        {
          "internalType": "address",
          "name": "account",
          "type": "address"
        },
        {
          "internalType": "uint256",
          "name": "itemId",
          "type": "uint256"
        }
      ],
      "name": "claimedAmount",
      "outputs": [
        {
          "internalType": "uint256",
          "name": "amount",
          "type": "uint256"
        }
      ],
      "stateMutability": "view",
      "type": "function"
    },
    {
      "inputs": [],
      "name": "getInventoryAddress",
      "outputs": [
        {
          "internalType": "address",
          "name": "",
          "type": "address"
        }
      ],
      "stateMutability": "view",
      "type": "function"
    },
    {
      "inputs": [
        {
          "internalType": "address",
          "name": "account",
          "type": "address"
        },
        {
          "internalType": "address",
          "name": "operator",
          "type": "address"
        }
      ],
      "name": "isApprovedForAll",
      "outputs": [
        {
          "internalType": "bool",
          "name": "",
          "type": "bool"
        }
      ],
      "stateMutability": "view",
      "type": "function"
    },
    {
      "inputs": [
        {
          "internalType": "string",
          "name": "newBaseURI",
          "type": "string"
        },
        {
          "internalType": "bool",
          "name": "migrate",
          "type": "bool"
        }
      ],
      "name": "migrateToIPFS",
      "outputs": [],
      "stateMutability": "nonpayable",
      "type": "function"
    },
    {
      "inputs": [
        {
          "internalType": "address",
          "name": "to",
          "type": "address"
        },
        {
          "internalType": "uint256",
          "name": "itemId",
          "type": "uint256"
        },
        {
          "internalType": "uint256",
          "name": "amount",
          "type": "uint256"
        }
      ],
      "name": "mint",
      "outputs": [],
      "stateMutability": "nonpayable",
      "type": "function"
    },
    {
      "inputs": [
        {
          "internalType": "address",
          "name": "to",
          "type": "address"
        },
        {
          "internalType": "uint256[]",
          "name": "itemIds",
          "type": "uint256[]"
        },
        {
          "internalType": "uint256[]",
          "name": "amounts",
          "type": "uint256[]"
        }
      ],
      "name": "mintBatch",
      "outputs": [],
      "stateMutability": "nonpayable",
      "type": "function"
    },
    {
      "inputs": [
        {
          "internalType": "bytes[]",
          "name": "data",
          "type": "bytes[]"
        }
      ],
      "name": "multicall",
      "outputs": [
        {
          "internalType": "bytes[]",
          "name": "results",
          "type": "bytes[]"
        }
      ],
      "stateMutability": "nonpayable",
      "type": "function"
    },
    {
      "inputs": [
        {
          "internalType": "address",
          "name": "from",
          "type": "address"
        },
        {
          "internalType": "address",
          "name": "to",
          "type": "address"
        },
        {
          "internalType": "uint256[]",
          "name": "ids",
          "type": "uint256[]"
        },
        {
          "internalType": "uint256[]",
          "name": "amounts",
          "type": "uint256[]"
        },
        {
          "internalType": "bytes",
          "name": "data",
          "type": "bytes"
        }
      ],
      "name": "safeBatchTransferFrom",
      "outputs": [],
      "stateMutability": "nonpayable",
      "type": "function"
    },
    {
      "inputs": [
        {
          "internalType": "address",
          "name": "from",
          "type": "address"
        },
        {
          "internalType": "address",
          "name": "to",
          "type": "address"
        },
        {
          "internalType": "uint256",
          "name": "id",
          "type": "uint256"
        },
        {
          "internalType": "uint256",
          "name": "amount",
          "type": "uint256"
        },
        {
          "internalType": "bytes",
          "name": "data",
          "type": "bytes"
        }
      ],
      "name": "safeTransferFrom",
      "outputs": [],
      "stateMutability": "nonpayable",
      "type": "function"
    },
    {
      "inputs": [
        {
          "internalType": "address",
          "name": "operator",
          "type": "address"
        },
        {
          "internalType": "bool",
          "name": "status",
          "type": "bool"
        }
      ],
      "name": "setApprovalForAll",
      "outputs": [],
      "stateMutability": "nonpayable",
      "type": "function"
    },
    {
      "inputs": [
        {
          "internalType": "string",
          "name": "baseURI",
          "type": "string"
        }
      ],
      "name": "setBaseURI",
      "outputs": [],
      "stateMutability": "nonpayable",
      "type": "function"
    },
    {
      "inputs": [
        {
          "internalType": "address",
          "name": "inventoryAddress",
          "type": "address"
        }
      ],
      "name": "setInventoryAddress",
      "outputs": [],
      "stateMutability": "nonpayable",
      "type": "function"
    },
    {
      "inputs": [
        {
          "internalType": "uint256",
          "name": "tokenId",
          "type": "uint256"
        },
        {
          "internalType": "string",
          "name": "tokenURI",
          "type": "string"
        }
      ],
      "name": "setTokenURI",
      "outputs": [],
      "stateMutability": "nonpayable",
      "type": "function"
    },
    {
      "inputs": [
        {
          "internalType": "bytes4",
          "name": "_interface",
          "type": "bytes4"
        }
      ],
      "name": "supportsInterface",
      "outputs": [
        {
          "internalType": "bool",
          "name": "",
          "type": "bool"
        }
      ],
      "stateMutability": "pure",
      "type": "function"
    },
    {
      "inputs": [
        {
          "internalType": "address",
          "name": "account",
          "type": "address"
        }
      ],
      "name": "tokensByAccount",
      "outputs": [
        {
          "internalType": "uint256[]",
          "name": "",
          "type": "uint256[]"
        }
      ],
      "stateMutability": "view",
      "type": "function"
    },
    {
      "inputs": [
        {
          "internalType": "uint256",
          "name": "id",
          "type": "uint256"
        }
      ],
      "name": "totalHolders",
      "outputs": [
        {
          "internalType": "uint256",
          "name": "",
          "type": "uint256"
        }
      ],
      "stateMutability": "view",
      "type": "function"
    },
    {
      "inputs": [
        {
          "internalType": "uint256",
          "name": "id",
          "type": "uint256"
        }
      ],
      "name": "totalSupply",
      "outputs": [
        {
          "internalType": "uint256",
          "name": "",
          "type": "uint256"
        }
      ],
      "stateMutability": "view",
      "type": "function"
    },
    {
      "inputs": [
        {
          "internalType": "uint256",
          "name": "tokenId",
          "type": "uint256"
        }
      ],
      "name": "uri",
      "outputs": [
        {
          "internalType": "string",
          "name": "",
          "type": "string"
        }
      ],
      "stateMutability": "view",
      "type": "function"
    }
  ],
  "transactionHash": "0xd50888e5339dfd92569ee7f23d5222c8807176e42f764410d2cad79fe5ba7994",
  "args": [],
  "numDeployments": 6,
  "solcInputHash": "4bc01ee6977b9266bffa0dc0bc4f535d",
  "bytecode": "0x608060405234801561001057600080fd5b506134f9806100206000396000f3fe608060405234801561001057600080fd5b50600436106101575760003560e01c806384118c5d116100c3578063c22cbb5d1161007c578063c22cbb5d14610329578063cdc11b111461033c578063ceb60ee61461034f578063d81d0a1514610362578063e985e9c514610375578063f242432a1461038857600080fd5b806384118c5d1461029d57806385bff2e7146102b0578063a22cb465146102c3578063ac9650d8146102d6578063ba58bb17146102f6578063bd85b0391461031657600080fd5b80632eb2c2d6116101155780632eb2c2d6146102115780634e1273f4146102245780634f7fb3321461024457806355b4b1a41461025757806355f804b31461026a5780636dcfd8411461027d57600080fd5b8062fdd58e1461015c57806301ffc9a7146101825780630e89341c146101b657806313ba55df146101d6578063156e29f6146101e9578063162094c4146101fe575b600080fd5b61016f61016a366004612659565b61039b565b6040519081526020015b60405180910390f35b6101a6610190366004612699565b6001600160e01b031916636cdb3d1360e11b1490565b6040519015158152602001610179565b6101c96101c43660046126bd565b6103b0565b6040516101799190612726565b61016f6101e43660046126bd565b61041a565b6101fc6101f7366004612739565b610425565b005b6101fc61020c3660046127b4565b610471565b6101fc61021f366004612948565b6104e7565b6102376102323660046129f1565b610539565b6040516101799190612af6565b6101fc610252366004612b4d565b6106a3565b61016f610265366004612659565b610705565b6101fc610278366004612be6565b61074d565b61029061028b3660046126bd565b6107c6565b6040516101799190612c27565b6101fc6102ab366004612c74565b6107d1565b6102376102be366004612cc6565b610861565b6101fc6102d1366004612cf1565b61086c565b6102e96102e4366004612d24565b610920565b6040516101799190612d59565b6102fe610a3a565b6040516001600160a01b039091168152602001610179565b61016f6103243660046126bd565b610a72565b6101fc610337366004612cc6565b610aa5565b6101fc61034a366004612dbb565b610b28565b6101fc61035d366004612e0e565b610b69565b6101fc610370366004612e6d565b610bbc565b6101a6610383366004612eed565b610bff565b6101fc610396366004612f17565b610c4c565b60006103a78383610cdc565b90505b92915050565b7f333d4b734a9ca3847483bf4c14a14709d21907ff5f12a881347e2fb2ad8906d75460609060ff161561040c576103e682610d3a565b6040516020016103f69190612f7b565b6040516020818303038152906040529050919050565b6103aa82610d3a565b919050565b60006103aa82610f09565b61044461043e6000805160206134848339815191525490565b33610f3f565b6104615760405163d0befa1d60e01b815260040160405180910390fd5b61046c838383610f76565b505050565b61048a61043e6000805160206134848339815191525490565b6104a75760405163d0befa1d60e01b815260040160405180910390fd5b61046c8383838080601f016020809104026020016040519081016040528093929190818152602001838380828437600092019190915250610fb392505050565b6001600160a01b038516331480159061050757506105058533610bff565b155b15610524576040516212efed60e91b815260040160405180910390fd5b610532338686868686611027565b5050505050565b6060815183511461055d57604051633e7e0b6d60e11b815260040160405180910390fd5b82516000805160206134a4833981519152906000906001600160401b03811115610589576105896127ff565b6040519080825280602002602001820160405280156105b2578160200160208202803683370190505b50905060005b855181101561069a5760006001600160a01b03168682815181106105de576105de612fa4565b60200260200101516001600160a01b03160361060d5760405163db5d879760e01b815260040160405180910390fd5b82600086838151811061062257610622612fa4565b60200260200101518152602001908152602001600020600087838151811061064c5761064c612fa4565b60200260200101516001600160a01b03166001600160a01b031681526020019081526020016000205482828151811061068757610687612fa4565b60209081029190910101526001016105b8565b50949350505050565b7f09acf4e54214992e70883cf7dcd6957ff2c71cd9e14df4bec4383bc0d11607dc80546002036106e657604051635db5c7cd60e11b815260040160405180910390fd5b600281556106f93388888888888861104b565b60019055505050505050565b6001600160a01b03821660009081527f333d4b734a9ca3847483bf4c14a14709d21907ff5f12a881347e2fb2ad8906d6602090815260408083208484529091528120546103a7565b61076661043e6000805160206134848339815191525490565b6107835760405163d0befa1d60e01b815260040160405180910390fd5b6107c282828080601f01602080910402602001604051908101604052809392919081815260200183838082843760009201919091525061112392505050565b5050565b60606103aa8261114e565b7f09acf4e54214992e70883cf7dcd6957ff2c71cd9e14df4bec4383bc0d11607dc805460020361081457604051635db5c7cd60e11b815260040160405180910390fd5b6002815560408051602080850282810182019093528482526108579233928992899289918991829185019084908082843760009201919091525061122192505050565b6001905550505050565b60606103aa8261133b565b6001600160a01b038216330361089557604051637b30a93360e11b815260040160405180910390fd5b3360008181527f1799cf914cb0cb442ca7c7ac709ee40d0cb89e87351dc08d517fbda27d50c68c602090815260408083206001600160a01b03871680855290835292819020805460ff191686151590811790915590519081529192917f17307eab39ab6107e8899845ad3d59bd9653f200f220920489ca2b5937696c31910160405180910390a35050565b6060816001600160401b0381111561093a5761093a6127ff565b60405190808252806020026020018201604052801561096d57816020015b60608152602001906001900390816109585790505b50905060005b82811015610a33576000803086868581811061099157610991612fa4565b90506020028101906109a39190612fba565b6040516109b1929190613000565b600060405180830381855af49150503d80600081146109ec576040519150601f19603f3d011682016040523d82523d6000602084013e6109f1565b606091505b50915091508115610a1f5780848481518110610a0f57610a0f612fa4565b6020026020010181905250610a29565b3d6000803e3d6000fd5b5050600101610973565b5092915050565b6000610a6d7f333d4b734a9ca3847483bf4c14a14709d21907ff5f12a881347e2fb2ad8906da546001600160a01b031690565b905090565b60008181527fb31c2c74f86ca3ce94d901f5f5bbe66f7161eec2f7b5aa0b75a86371436424ea60205260408120546103aa565b610abe61043e6000805160206134848339815191525490565b610adb5760405163d0befa1d60e01b815260040160405180910390fd5b7f333d4b734a9ca3847483bf4c14a14709d21907ff5f12a881347e2fb2ad8906da805473ffffffffffffffffffffffffffffffffffffffff19166001600160a01b03831617905550565b50565b610b4161043e6000805160206134848339815191525490565b610b5e5760405163d0befa1d60e01b815260040160405180910390fd5b61046c838383611403565b7f09acf4e54214992e70883cf7dcd6957ff2c71cd9e14df4bec4383bc0d11607dc8054600203610bac57604051635db5c7cd60e11b815260040160405180910390fd5b6002815561085785858585611476565b610bd561043e6000805160206134848339815191525490565b610bf25760405163d0befa1d60e01b815260040160405180910390fd5b610532858585858561156c565b6001600160a01b0391821660009081527f1799cf914cb0cb442ca7c7ac709ee40d0cb89e87351dc08d517fbda27d50c68c6020908152604080832093909416825291909152205460ff1690565b6001600160a01b0385163314801590610c6c5750610c6a8533610bff565b155b8015610cb1575033610ca57f333d4b734a9ca3847483bf4c14a14709d21907ff5f12a881347e2fb2ad8906da546001600160a01b031690565b6001600160a01b031614155b15610cce576040516212efed60e91b815260040160405180910390fd5b610532338686868686611645565b60006001600160a01b038316610d055760405163db5d879760e01b815260040160405180910390fd5b6000805160206134a48339815191526000928352602090815260408084206001600160a01b0395909516845293905250205490565b60008181527f4281b61aefbe70b3d3f684b428efca5f33077bc240e76f2808f9177c307617f56020526040812080546060927f4281b61aefbe70b3d3f684b428efca5f33077bc240e76f2808f9177c307617f4929091610d9990613010565b80601f0160208091040260200160405190810160405280929190818152602001828054610dc590613010565b8015610e125780601f10610de757610100808354040283529160200191610e12565b820191906000526020600020905b815481529060010190602001808311610df557829003601f168201915b505050505090506000826000018054610e2a90613010565b80601f0160208091040260200160405190810160405280929190818152602001828054610e5690613010565b8015610ea35780601f10610e7857610100808354040283529160200191610ea3565b820191906000526020600020905b815481529060010190602001808311610e8657829003601f168201915b505050505090508051600003610ebb57509392505050565b815115610eee578082604051602001610ed592919061304a565b6040516020818303038152906040529350505050919050565b80610ef886611661565b604051602001610ed592919061304a565b60008181527fb31c2c74f86ca3ce94d901f5f5bbe66f7161eec2f7b5aa0b75a86371436424eb602052604081206103aa90611769565b60008281527fd3889cc5458b268d0544e5534672df1296288ca3f93cbd39bd6f497a5c622811602052604081206103a79083611773565b6001821015610f985760405163225c19bb60e11b815260040160405180910390fd5b61046c83838360405180602001604052806000815250611795565b60008281527f4281b61aefbe70b3d3f684b428efca5f33077bc240e76f2808f9177c307617f560205260409020610fea82826130bf565b50817f6bb7ff708619ba0610cba295a58592e0451dee2622938c8755667688daf3529b8260405161101b9190612726565b60405180910390a25050565b61103586868686868661186e565b611043868686868686611a17565b505050505050565b84831461106b57604051634e98d26360e01b815260040160405180910390fd5b60005b85811015611119576111078888888481811061108c5761108c612fa4565b905060200201358787858181106110a5576110a5612fa4565b905060200201358686868181106110be576110be612fa4565b90506020028101906110d0919061317e565b8080602002602001604051908101604052809392919081815260200183836020028082843760009201919091525061122192505050565b80611111816131dd565b91505061106e565b5050505050505050565b7f4281b61aefbe70b3d3f684b428efca5f33077bc240e76f2808f9177c307617f46107c282826130bf565b60008181527fb31c2c74f86ca3ce94d901f5f5bbe66f7161eec2f7b5aa0b75a86371436424eb6020526040812060609161118782611769565b6001600160401b0381111561119e5761119e6127ff565b6040519080825280602002602001820160405280156111c7578160200160208202803683370190505b50905060005b6111d683611769565b811015611219576111e78382611b39565b8282815181106111f9576111f9612fa4565b6001600160a01b03909216602092830291909101909101526001016111cd565b509392505050565b60018310156112435760405163225c19bb60e11b815260040160405180910390fd5b604080516001600160a01b038616602082015280820185905260608082018590528251808303909101815260809091019091527f333d4b734a9ca3847483bf4c14a14709d21907ff5f12a881347e2fb2ad8906d6906112a28382611b45565b6112bd86868660405180602001604052806000815250611795565b6001600160a01b038616600090815260208381526040808320888452909152812080548692906112ee9084906131f6565b909155505060405184815285906001600160a01b038816907fd4307fb1338aefb2a030cf5ea0f582a10d28ffee99fe253e5d48946f9a74a59f9060200160405180910390a3505050505050565b6001600160a01b03811660009081527fb31c2c74f86ca3ce94d901f5f5bbe66f7161eec2f7b5aa0b75a86371436424ec6020526040812060609161137e82611769565b6001600160401b03811115611395576113956127ff565b6040519080825280602002602001820160405280156113be578160200160208202803683370190505b50905060005b6113cd83611769565b811015611219576113de8382611b39565b8282815181106113f0576113f0612fa4565b60209081029190910101526001016113c4565b61144283838080601f01602080910402602001604051908101604052809392919081815260200183838082843760009201919091525061112392505050565b7f333d4b734a9ca3847483bf4c14a14709d21907ff5f12a881347e2fb2ad8906d7805460ff19169115159190911790555050565b82811461149657604051634e98d26360e01b815260040160405180910390fd5b6000805b8481101561155f5760018686838181106114b6576114b6612fa4565b9050602002013510156114dc5760405163225c19bb60e11b815260040160405180910390fd5b611527338787848181106114f2576114f2612fa4565b9050602002013586868581811061150b5761150b612fa4565b9050602002013560405180602001604052806000815250611795565b83838281811061153957611539612fa4565b905060200201358261154b91906131f6565b915080611557816131dd565b91505061149a565b5061053260003383611c5c565b60016115aa858580806020026020016040519081016040528093929190818152602001838360200280828437600092019190915250611e4592505050565b10156115c95760405163225c19bb60e11b815260040160405180910390fd5b6105328585858080602002602001604051908101604052809392919081815260200183836020028082843760009201919091525050604080516020808902828101820190935288825290935088925087918291850190849080828437600092018290525060408051602081019091529081529250611e9b915050565b611653868686868686611ff2565b611043868686868686612108565b6060816000036116885750506040805180820190915260018152600360fc1b602082015290565b8160005b81156116b2578061169c816131dd565b91506116ab9050600a8361321f565b915061168c565b6000816001600160401b038111156116cc576116cc6127ff565b6040519080825280601f01601f1916602001820160405280156116f6576020820181803683370190505b5090505b84156117615761170b600183613233565b9150611718600a86613246565b6117239060306131f6565b60f81b81838151811061173857611738612fa4565b60200101906001600160f81b031916908160001a90535061175a600a8661321f565b94506116fa565b949350505050565b60006103aa825490565b6001600160a01b038116600090815260018301602052604081205415156103a7565b6001600160a01b0384166117bc576040516301c8efbf60e11b815260040160405180910390fd5b6117db336000866117cc876121c4565b6117d5876121c4565b8661220f565b60008381526000805160206134a4833981519152602090815260408083206001600160a01b03881684529091528120805484929061181a9084906131f6565b909155505060408051848152602081018490526001600160a01b0386169160009133917fc3d58168c5ae7397731d063d5bbf3d657854427343f4c083240f7aacaa2d0f62910160405180910390a450505050565b6001600160a01b0384166118955760405163f5cadad560e01b815260040160405180910390fd5b81518351146118b757604051633e7e0b6d60e11b815260040160405180910390fd5b6118c586868686868661220f565b6000805160206134a483398151915260005b84518110156119b65760008582815181106118f4576118f4612fa4565b60200260200101519050600085838151811061191257611912612fa4565b602090810291909101810151600084815286835260408082206001600160a01b038e1683529093529190912054909150808211156119635760405163119ac6bb60e31b815260040160405180910390fd5b6000838152602086815260408083206001600160a01b038e811685529252808320938590039093558a1681529081208054600195909501948392906119a99084906131f6565b909155506118d792505050565b50846001600160a01b0316866001600160a01b0316886001600160a01b03167f4a39dc06d4c0dbc64b70af90fd698a233a518aa5d07e595d983b8c0526c8f7fb8787604051611a0692919061325a565b60405180910390a450505050505050565b6001600160a01b0384163b156110435760405163bc197c8160e01b81526001600160a01b0385169063bc197c8190611a5b9089908990889088908890600401613288565b6020604051808303816000875af1925050508015611a96575060408051601f3d908101601f19168201909252611a93918101906132e6565b60015b611aff57611aa2613303565b806308c379a003611ae45750611ab661331f565b80611ac15750611ae6565b8060405162461bcd60e51b8152600401611adb9190612726565b60405180910390fd5b505b60405163380147a960e01b815260040160405180910390fd5b6001600160e01b0319811663bc197c8160e01b14611b3057604051633744db2960e01b815260040160405180910390fd5b50505050505050565b60006103a7838361221d565b7f7a07c093b55ad04e200605cb287859fe4640b7310d62fdbb044e26399da78c09547f7a07c093b55ad04e200605cb287859fe4640b7310d62fdbb044e26399da78c089060ff1615611baa5760405163a2f902f160e01b815260040160405180910390fd5b600083604051602001611bbd91906133a8565b60405160208183030381529060405280519060200120905060008380519060200120604051602001611bf191815260200190565b6040516020818303038152906040528051906020012090506000611c1a86856000015484612269565b905080611c3a57604051631006f83b60e31b815260040160405180910390fd5b50506000908152600290910160205260409020805460ff191660011790555050565b7ff38d3885e664c9638de25f02e645e1955ebebe901d7be2c2037db6a5bcbb358860008181866001811115611c9357611c936133de565b6001811115611ca457611ca46133de565b81526020810191909152604001600020600581015490915060ff16611cdc57604051633137c0e960e11b815260040160405180910390fd5b6001600160a01b0384166000908152600182016020526040902054831115611d1757604051630f8a2c5f60e31b815260040160405180910390fd5b60048101546002820154611d2c9060016131f6565b1115611d4b57604051633a65df5360e11b815260040160405180910390fd5b6001600160a01b038416600090815260018201602052604081208054859290611d75908490613233565b90915550506001600160a01b03841660009081526020829052604081208054859290611da29084906131f6565b9250508190555082816002016000828254611dbd91906131f6565b9250508190555082816003016000828254611dd89190613233565b90915550506001600160a01b038416600081815260018301602090815260408083205491859052918290205491517f6526db8cb857c3bc972db45a7984e99efaed17f7a4e51afb85c64450133cb55c92611e36928a929091906133f4565b60405180910390a25050505050565b6000600019815b8351811015610a335781848281518110611e6857611e68612fa4565b60200260200101511015611e9357838181518110611e8857611e88612fa4565b602002602001015191505b600101611e4c565b6001600160a01b038416611ec2576040516301c8efbf60e11b815260040160405180910390fd5b8151835114611ee457604051633e7e0b6d60e11b815260040160405180910390fd5b611ef33360008686868661220f565b6000805160206134a483398151915260005b8451811015611f9257838181518110611f2057611f20612fa4565b6020026020010151826000878481518110611f3d57611f3d612fa4565b602002602001015181526020019081526020016000206000886001600160a01b03166001600160a01b031681526020019081526020016000206000828254611f8591906131f6565b9091555050600101611f05565b50846001600160a01b031660006001600160a01b0316336001600160a01b03167f4a39dc06d4c0dbc64b70af90fd698a233a518aa5d07e595d983b8c0526c8f7fb8787604051611fe392919061325a565b60405180910390a45050505050565b6001600160a01b0384166120195760405163f5cadad560e01b815260040160405180910390fd5b6120288686866117cc876121c4565b60008381526000805160206134a4833981519152602081815260408084206001600160a01b038a168552909152909120548084111561207a5760405163119ac6bb60e31b815260040160405180910390fd5b6000858152602083815260408083206001600160a01b038b811685529252808320938790039093558716815290812080548592906120b99084906131f6565b909155505060408051858152602081018590526001600160a01b038088169289821692918b16917fc3d58168c5ae7397731d063d5bbf3d657854427343f4c083240f7aacaa2d0f629101611a06565b6001600160a01b0384163b156110435760405163f23a6e6160e01b81526001600160a01b0385169063f23a6e619061214c908990899088908890889060040161342a565b6020604051808303816000875af1925050508015612187575060408051601f3d908101601f19168201909252612184918101906132e6565b60015b61219357611aa2613303565b6001600160e01b0319811663f23a6e6160e01b14611b3057604051633744db2960e01b815260040160405180910390fd5b604080516001808252818301909252606091600091906020808301908036833701905050905082816000815181106121fe576121fe612fa4565b602090810291909101015292915050565b61104386868686868661230e565b815460009082106122415760405163e637bf3b60e01b815260040160405180910390fd5b82600001828154811061225657612256612fa4565b9060005260206000200154905092915050565b600081815b855181101561230357600086828151811061228b5761228b612fa4565b602002602001015190508083116122cd5760408051602081018590529081018290526060016040516020818303038152906040528051906020012092506122fa565b60408051602081018390529081018490526060016040516020818303038152906040528051906020012092505b5060010161226e565b509092149392505050565b611043868686868686836001600160a01b0316856001600160a01b031614611043576001600160a01b0385811660009081527fb31c2c74f86ca3ce94d901f5f5bbe66f7161eec2f7b5aa0b75a86371436424ec6020526040808220928716825281207fb31c2c74f86ca3ce94d901f5f5bbe66f7161eec2f7b5aa0b75a86371436424ea927fb31c2c74f86ca3ce94d901f5f5bbe66f7161eec2f7b5aa0b75a86371436424eb929091905b87518110156124f65760008782815181106123d5576123d5612fa4565b6020026020010151905060008111156124ed5760008983815181106123fc576123fc612fa4565b6020026020010151905060006001600160a01b03168c6001600160a01b031603612449576000818152602088905260408120805484929061243e9084906131f6565b9091555061247e9050565b816124548d83610cdc565b0361247e576000818152602087905260409020612471908d612503565b5061247c8582612518565b505b6001600160a01b038b166124b557600081815260208890526040812080548492906124aa908490613233565b909155506124eb9050565b6124bf8b82610cdc565b6000036124eb5760008181526020879052604090206124de908c612524565b506124e98482612539565b505b505b506001016123b8565b5050505050505050505050565b60006103a7836001600160a01b038416612545565b60006103a78383612545565b60006103a7836001600160a01b0384166125ff565b60006103a783836125ff565b60008181526001830160205260408120548015610a335783546000908590600019810190811061257757612577612fa4565b906000526020600020015490508085600001600184038154811061259d5761259d612fa4565b60009182526020808320909101929092559182526001860190526040902081905583548490806125cf576125cf61346d565b60008281526020808220830160001990810183905590920190925593815260019485019093525050604081205590565b60008181526001830160205260408120546103aa575081546001808201845560008481526020808220909301849055845493815293810190915260409092205590565b80356001600160a01b038116811461041557600080fd5b6000806040838503121561266c57600080fd5b61267583612642565b946020939093013593505050565b6001600160e01b031981168114610b2557600080fd5b6000602082840312156126ab57600080fd5b81356126b681612683565b9392505050565b6000602082840312156126cf57600080fd5b5035919050565b60005b838110156126f15781810151838201526020016126d9565b50506000910152565b600081518084526127128160208601602086016126d6565b601f01601f19169290920160200192915050565b6020815260006103a760208301846126fa565b60008060006060848603121561274e57600080fd5b61275784612642565b95602085013595506040909401359392505050565b60008083601f84011261277e57600080fd5b5081356001600160401b0381111561279557600080fd5b6020830191508360208285010111156127ad57600080fd5b9250929050565b6000806000604084860312156127c957600080fd5b8335925060208401356001600160401b038111156127e657600080fd5b6127f28682870161276c565b9497909650939450505050565b634e487b7160e01b600052604160045260246000fd5b601f8201601f191681016001600160401b038111828210171561283a5761283a6127ff565b6040525050565b60006001600160401b0382111561285a5761285a6127ff565b5060051b60200190565b600082601f83011261287557600080fd5b8135602061288282612841565b60405161288f8282612815565b83815260059390931b85018201928281019150868411156128af57600080fd5b8286015b848110156128ca57803583529183019183016128b3565b509695505050505050565b600082601f8301126128e657600080fd5b81356001600160401b038111156128ff576128ff6127ff565b604051612916601f8301601f191660200182612815565b81815284602083860101111561292b57600080fd5b816020850160208301376000918101602001919091529392505050565b600080600080600060a0868803121561296057600080fd5b61296986612642565b945061297760208701612642565b935060408601356001600160401b038082111561299357600080fd5b61299f89838a01612864565b945060608801359150808211156129b557600080fd5b6129c189838a01612864565b935060808801359150808211156129d757600080fd5b506129e4888289016128d5565b9150509295509295909350565b60008060408385031215612a0457600080fd5b82356001600160401b0380821115612a1b57600080fd5b818501915085601f830112612a2f57600080fd5b81356020612a3c82612841565b604051612a498282612815565b83815260059390931b8501820192828101915089841115612a6957600080fd5b948201945b83861015612a8e57612a7f86612642565b82529482019490820190612a6e565b96505086013592505080821115612aa457600080fd5b50612ab185828601612864565b9150509250929050565b600081518084526020808501945080840160005b83811015612aeb57815187529582019590820190600101612acf565b509495945050505050565b6020815260006103a76020830184612abb565b60008083601f840112612b1b57600080fd5b5081356001600160401b03811115612b3257600080fd5b6020830191508360208260051b85010111156127ad57600080fd5b60008060008060008060608789031215612b6657600080fd5b86356001600160401b0380821115612b7d57600080fd5b612b898a838b01612b09565b90985096506020890135915080821115612ba257600080fd5b612bae8a838b01612b09565b90965094506040890135915080821115612bc757600080fd5b50612bd489828a01612b09565b979a9699509497509295939492505050565b60008060208385031215612bf957600080fd5b82356001600160401b03811115612c0f57600080fd5b612c1b8582860161276c565b90969095509350505050565b6020808252825182820181905260009190848201906040850190845b81811015612c685783516001600160a01b031683529284019291840191600101612c43565b50909695505050505050565b60008060008060608587031215612c8a57600080fd5b843593506020850135925060408501356001600160401b03811115612cae57600080fd5b612cba87828801612b09565b95989497509550505050565b600060208284031215612cd857600080fd5b6103a782612642565b8035801515811461041557600080fd5b60008060408385031215612d0457600080fd5b612d0d83612642565b9150612d1b60208401612ce1565b90509250929050565b60008060208385031215612d3757600080fd5b82356001600160401b03811115612d4d57600080fd5b612c1b85828601612b09565b6000602080830181845280855180835260408601915060408160051b870101925083870160005b82811015612dae57603f19888603018452612d9c8583516126fa565b94509285019290850190600101612d80565b5092979650505050505050565b600080600060408486031215612dd057600080fd5b83356001600160401b03811115612de657600080fd5b612df28682870161276c565b9094509250612e05905060208501612ce1565b90509250925092565b60008060008060408587031215612e2457600080fd5b84356001600160401b0380821115612e3b57600080fd5b612e4788838901612b09565b90965094506020870135915080821115612e6057600080fd5b50612cba87828801612b09565b600080600080600060608688031215612e8557600080fd5b612e8e86612642565b945060208601356001600160401b0380821115612eaa57600080fd5b612eb689838a01612b09565b90965094506040880135915080821115612ecf57600080fd5b50612edc88828901612b09565b969995985093965092949392505050565b60008060408385031215612f0057600080fd5b612f0983612642565b9150612d1b60208401612642565b600080600080600060a08688031215612f2f57600080fd5b612f3886612642565b9450612f4660208701612642565b9350604086013592506060860135915060808601356001600160401b03811115612f6f57600080fd5b6129e4888289016128d5565b60008251612f8d8184602087016126d6565b64173539b7b760d91b920191825250600501919050565b634e487b7160e01b600052603260045260246000fd5b6000808335601e19843603018112612fd157600080fd5b8301803591506001600160401b03821115612feb57600080fd5b6020019150368190038213156127ad57600080fd5b8183823760009101908152919050565b600181811c9082168061302457607f821691505b60208210810361304457634e487b7160e01b600052602260045260246000fd5b50919050565b6000835161305c8184602088016126d6565b8351908301906130708183602088016126d6565b01949350505050565b601f82111561046c57600081815260208120601f850160051c810160208610156130a05750805b601f850160051c820191505b81811015611043578281556001016130ac565b81516001600160401b038111156130d8576130d86127ff565b6130ec816130e68454613010565b84613079565b602080601f83116001811461312157600084156131095750858301515b600019600386901b1c1916600185901b178555611043565b600085815260208120601f198616915b8281101561315057888601518255948401946001909101908401613131565b508582101561316e5787850151600019600388901b60f8161c191681555b5050505050600190811b01905550565b6000808335601e1984360301811261319557600080fd5b8301803591506001600160401b038211156131af57600080fd5b6020019150600581901b36038213156127ad57600080fd5b634e487b7160e01b600052601160045260246000fd5b6000600182016131ef576131ef6131c7565b5060010190565b808201808211156103aa576103aa6131c7565b634e487b7160e01b600052601260045260246000fd5b60008261322e5761322e613209565b500490565b818103818111156103aa576103aa6131c7565b60008261325557613255613209565b500690565b60408152600061326d6040830185612abb565b828103602084015261327f8185612abb565b95945050505050565b60006001600160a01b03808816835280871660208401525060a060408301526132b460a0830186612abb565b82810360608401526132c68186612abb565b905082810360808401526132da81856126fa565b98975050505050505050565b6000602082840312156132f857600080fd5b81516126b681612683565b600060033d111561331c5760046000803e5060005160e01c5b90565b600060443d101561332d5790565b6040516003193d81016004833e81513d6001600160401b03816024840111818411171561335c57505050505090565b82850191508151818111156133745750505050505090565b843d870101602082850101111561338e5750505050505090565b61339d60208286010187612815565b509095945050505050565b815160009082906020808601845b838110156133d2578151855293820193908201906001016133b6565b50929695505050505050565b634e487b7160e01b600052602160045260246000fd5b606081016002851061341657634e487b7160e01b600052602160045260246000fd5b938152602081019290925260409091015290565b60006001600160a01b03808816835280871660208401525084604083015283606083015260a0608083015261346260a08301846126fa565b979650505050505050565b634e487b7160e01b600052603160045260246000fdfef6deb63e40d71b08820818e006e23fcceb1fce7a499bc15b71b2526cbf9efa721799cf914cb0cb442ca7c7ac709ee40d0cb89e87351dc08d517fbda27d50c68ba2646970667358221220a4f0df7208a9bee62fcbb1707fd7050cdbb0897de357f403f9b9b65dc862724964736f6c63430008130033",
  "devdoc": {
    "details": "This contract handles the creation and management of items It uses ERC1155 tokens to represent items and provides methods to mint new items, claim items via Merkle tree or a whitelist, and set the base and URIs for the items. It also uses the ReentrancyGuard and Multicall contracts for security and gas efficiency.",
    "kind": "dev",
    "methods": {
      "accountsByToken(uint256)": {
        "params": {
          "id": "token id to query"
        },
        "returns": {
          "_0": "list of holder addresses"
        }
      },
      "balanceOf(address,uint256)": {
        "params": {
          "account": "address to query",
          "id": "token to query"
        },
        "returns": {
          "_0": "token balance"
        }
      },
      "balanceOfBatch(address[],uint256[])": {
        "params": {
          "accounts": "addresss to query",
          "ids": "tokens to query"
        },
        "returns": {
          "_0": "token balances"
        }
      },
      "claimMerkle(uint256,uint256,bytes32[])": {
        "params": {
          "amount": "The amount of the item to claim",
          "itemId": "The ID of the item to claim",
          "proof": "The Merkle proof for the item"
        }
      },
      "claimMerkleBatch(uint256[],uint256[],bytes32[][])": {
        "params": {
          "amounts": "The amounts of the items to claim",
          "itemsIds": "The IDs of the items to claim",
          "proofs": "The Merkle proofs for the items"
        }
      },
      "claimWhitelist(uint256[],uint256[])": {
        "params": {
          "amounts": "The amounts of the items to claim",
          "itemIds": "The IDs of the items to claim"
        }
      },
      "claimedAmount(address,uint256)": {
        "params": {
          "account": "the account to query",
          "itemId": "the item id to query"
        },
        "returns": {
          "amount": "returns the claimed amount given an account and an item id"
        }
      },
      "getInventoryAddress()": {
        "details": "Returns the current inventory address",
        "returns": {
          "_0": "The address of the inventory contract"
        }
      },
      "isApprovedForAll(address,address)": {
        "params": {
          "account": "address to query for approval granted",
          "operator": "address to query for approval received"
        },
        "returns": {
          "_0": "whether operator is approved to spend tokens held by account"
        }
      },
      "migrateToIPFS(string,bool)": {
        "details": "Only the manager role can call this function",
        "params": {
          "migrate": "Should migrate to IPFS",
          "newBaseURI": "The new base URI"
        }
      },
      "mint(address,uint256,uint256)": {
        "params": {
          "amount": "The item amount to be minted",
          "itemId": "The ID of the item to mint",
          "to": "The address to mint the item to"
        }
      },
      "mintBatch(address,uint256[],uint256[])": {
        "params": {
          "amounts": "The items amounts to be minted",
          "itemIds": "An array of items IDs to be minted",
          "to": "The address to receive the minted items"
        }
      },
      "multicall(bytes[])": {
        "params": {
          "data": "array of function call data payloads"
        },
        "returns": {
          "results": "array of function call results"
        }
      },
      "safeBatchTransferFrom(address,address,uint256[],uint256[],bytes)": {
        "params": {
          "amounts": "list of quantities of tokens to transfer",
          "data": "data payload",
          "from": "sender of tokens",
          "ids": "list of token IDs",
          "to": "receiver of tokens"
        }
      },
      "safeTransferFrom(address,address,uint256,uint256,bytes)": {
        "params": {
          "amount": "quantity of tokens to transfer",
          "data": "data payload",
          "from": "sender of tokens",
          "id": "token ID",
          "to": "receiver of tokens"
        }
      },
      "setApprovalForAll(address,bool)": {
        "params": {
          "operator": "address whose approval status to update",
          "status": "whether operator should be considered approved"
        }
      },
      "setBaseURI(string)": {
        "details": "Only the manager role can call this function",
        "params": {
          "baseURI": "The new base URI"
        }
      },
      "setInventoryAddress(address)": {
        "details": "Sets the inventory address",
        "params": {
          "inventoryAddress": "The new address of the inventory contract"
        }
      },
      "setTokenURI(uint256,string)": {
        "details": "Only the manager role can call this function",
        "params": {
          "tokenId": "The ID of the item to set the URI for",
          "tokenURI": "The new item URI"
        }
      },
      "tokensByAccount(address)": {
        "params": {
          "account": "address to query"
        },
        "returns": {
          "_0": "list of token ids"
        }
      },
      "totalHolders(uint256)": {
        "params": {
          "id": "token id to query"
        },
        "returns": {
          "_0": "quantity of holders"
        }
      },
      "totalSupply(uint256)": {
        "params": {
          "id": "token id to query"
        },
        "returns": {
          "_0": "token supply"
        }
      }
    },
    "title": "ItemsFacet",
    "version": 1
  },
  "userdoc": {
    "kind": "user",
    "methods": {
      "accountsByToken(uint256)": {
        "notice": "query holders of given token"
      },
      "balanceOf(address,uint256)": {
        "notice": "query the balance of given token held by given address"
      },
      "balanceOfBatch(address[],uint256[])": {
        "notice": "query the balances of given tokens held by given addresses"
      },
      "claimMerkle(uint256,uint256,bytes32[])": {
        "notice": "Claims an item if present in the Merkle tree"
      },
      "claimMerkleBatch(uint256[],uint256[],bytes32[][])": {
        "notice": "Claims items if present in the Merkle tree"
      },
      "claimWhitelist(uint256[],uint256[])": {
        "notice": "Claims items from a whitelist"
      },
      "claimedAmount(address,uint256)": {
        "notice": "Amount claimed by an address of a specific item"
      },
      "isApprovedForAll(address,address)": {
        "notice": "query approval status of given operator with respect to given address"
      },
      "migrateToIPFS(string,bool)": {
        "notice": "Set the base URI for all items metadata"
      },
      "mint(address,uint256,uint256)": {
        "notice": "Mints a new item. Only minter role account can mint"
      },
      "mintBatch(address,uint256[],uint256[])": {
        "notice": "Mint a batch of items to a specific address. Only minter role account can mint"
      },
      "multicall(bytes[])": {
        "notice": "batch function calls to the contract and return the results of each"
      },
      "safeBatchTransferFrom(address,address,uint256[],uint256[],bytes)": {
        "notice": "transfer batch of tokens between given addresses, checking for ERC1155Receiver implementation if applicable"
      },
      "safeTransferFrom(address,address,uint256,uint256,bytes)": {
        "notice": "transfer tokens between given addresses, checking for ERC1155Receiver implementation if applicable"
      },
      "setApprovalForAll(address,bool)": {
        "notice": "grant approval to or revoke approval from given operator to spend held tokens"
      },
      "setBaseURI(string)": {
        "notice": "Set the base URI for all items metadata"
      },
      "setTokenURI(uint256,string)": {
        "notice": "Set the URI for a specific item ID"
      },
      "tokensByAccount(address)": {
        "notice": "query tokens held by given address"
      },
      "totalHolders(uint256)": {
        "notice": "query total number of holders for given token"
      },
      "totalSupply(uint256)": {
        "notice": "query total minted supply of given token"
      },
      "uri(uint256)": {
        "notice": "Override ERC1155Metadata"
      }
    },
    "version": 1
  },
  "storageLayout": {
    "storage": [],
    "types": null
  }
}