{
  "address": "0xC5Dca7CBaF5EEde849E6a7dea20f8c6F45DDF9E8",
  "abi": [
    {
      "inputs": [],
      "name": "ERC1155Base__ArrayLengthMismatch",
      "type": "error"
    },
    {
      "inputs": [],
      "name": "ERC1155Base__BalanceQueryZeroAddress",
      "type": "error"
    },
    {
      "inputs": [],
      "name": "ERC1155Base__BurnExceedsBalance",
      "type": "error"
    },
    {
      "inputs": [],
      "name": "ERC1155Base__BurnFromZeroAddress",
      "type": "error"
    },
    {
      "inputs": [],
      "name": "ERC1155Base__ERC1155ReceiverNotImplemented",
      "type": "error"
    },
    {
      "inputs": [],
      "name": "ERC1155Base__ERC1155ReceiverRejected",
      "type": "error"
    },
    {
      "inputs": [],
      "name": "ERC1155Base__MintToZeroAddress",
      "type": "error"
    },
    {
      "inputs": [],
      "name": "ERC1155Base__NotOwnerOrApproved",
      "type": "error"
    },
    {
      "inputs": [],
      "name": "ERC1155Base__SelfApproval",
      "type": "error"
    },
    {
      "inputs": [],
      "name": "ERC1155Base__TransferExceedsBalance",
      "type": "error"
    },
    {
      "inputs": [],
      "name": "ERC1155Base__TransferToZeroAddress",
      "type": "error"
    },
    {
      "inputs": [],
      "name": "EnumerableSet__IndexOutOfBounds",
      "type": "error"
    },
    {
      "inputs": [],
      "name": "Items_InputsLengthMistatch",
      "type": "error"
    },
    {
      "inputs": [],
      "name": "Merkle_AlreadyClaimed",
      "type": "error"
    },
    {
      "inputs": [],
      "name": "Merkle_ClaimInactive",
      "type": "error"
    },
    {
      "inputs": [],
      "name": "Merkle_ClaimStateAlreadyUpdated",
      "type": "error"
    },
    {
      "inputs": [],
      "name": "Merkle_InvalidClaimAmount",
      "type": "error"
    },
    {
      "inputs": [],
      "name": "Merkle_NotIncludedInMerkleTree",
      "type": "error"
    },
    {
      "inputs": [],
      "name": "ReentrancyGuard__ReentrantCall",
      "type": "error"
    },
    {
      "inputs": [],
      "name": "UintUtils__InsufficientHexLength",
      "type": "error"
    },
    {
      "inputs": [],
      "name": "Whitelist_ClaimInactive",
      "type": "error"
    },
    {
      "inputs": [],
      "name": "Whitelist_ClaimStateAlreadyUpdated",
      "type": "error"
    },
    {
      "inputs": [],
      "name": "Whitelist_ExceedsElegibleAmount",
      "type": "error"
    },
    {
      "inputs": [],
      "name": "Whitelist_InputDataMismatch",
      "type": "error"
    },
    {
      "anonymous": false,
      "inputs": [
        {
          "indexed": true,
          "internalType": "address",
          "name": "account",
          "type": "address"
        },
        {
          "indexed": true,
          "internalType": "address",
          "name": "operator",
          "type": "address"
        },
        {
          "indexed": false,
          "internalType": "bool",
          "name": "approved",
          "type": "bool"
        }
      ],
      "name": "ApprovalForAll",
      "type": "event"
    },
    {
      "anonymous": false,
      "inputs": [
        {
          "indexed": true,
          "internalType": "address",
          "name": "to",
          "type": "address"
        },
        {
          "indexed": true,
          "internalType": "uint256",
          "name": "itemId",
          "type": "uint256"
        },
        {
          "indexed": false,
          "internalType": "uint256",
          "name": "amount",
          "type": "uint256"
        }
      ],
      "name": "ItemClaimedMerkle",
      "type": "event"
    },
    {
      "anonymous": false,
      "inputs": [
        {
          "indexed": true,
          "internalType": "bytes32",
          "name": "role",
          "type": "bytes32"
        },
        {
          "indexed": true,
          "internalType": "bytes32",
          "name": "previousAdminRole",
          "type": "bytes32"
        },
        {
          "indexed": true,
          "internalType": "bytes32",
          "name": "newAdminRole",
          "type": "bytes32"
        }
      ],
      "name": "RoleAdminChanged",
      "type": "event"
    },
    {
      "anonymous": false,
      "inputs": [
        {
          "indexed": true,
          "internalType": "bytes32",
          "name": "role",
          "type": "bytes32"
        },
        {
          "indexed": true,
          "internalType": "address",
          "name": "account",
          "type": "address"
        },
        {
          "indexed": true,
          "internalType": "address",
          "name": "sender",
          "type": "address"
        }
      ],
      "name": "RoleGranted",
      "type": "event"
    },
    {
      "anonymous": false,
      "inputs": [
        {
          "indexed": true,
          "internalType": "bytes32",
          "name": "role",
          "type": "bytes32"
        },
        {
          "indexed": true,
          "internalType": "address",
          "name": "account",
          "type": "address"
        },
        {
          "indexed": true,
          "internalType": "address",
          "name": "sender",
          "type": "address"
        }
      ],
      "name": "RoleRevoked",
      "type": "event"
    },
    {
      "anonymous": false,
      "inputs": [
        {
          "indexed": true,
          "internalType": "address",
          "name": "operator",
          "type": "address"
        },
        {
          "indexed": true,
          "internalType": "address",
          "name": "from",
          "type": "address"
        },
        {
          "indexed": true,
          "internalType": "address",
          "name": "to",
          "type": "address"
        },
        {
          "indexed": false,
          "internalType": "uint256[]",
          "name": "ids",
          "type": "uint256[]"
        },
        {
          "indexed": false,
          "internalType": "uint256[]",
          "name": "values",
          "type": "uint256[]"
        }
      ],
      "name": "TransferBatch",
      "type": "event"
    },
    {
      "anonymous": false,
      "inputs": [
        {
          "indexed": true,
          "internalType": "address",
          "name": "operator",
          "type": "address"
        },
        {
          "indexed": true,
          "internalType": "address",
          "name": "from",
          "type": "address"
        },
        {
          "indexed": true,
          "internalType": "address",
          "name": "to",
          "type": "address"
        },
        {
          "indexed": false,
          "internalType": "uint256",
          "name": "id",
          "type": "uint256"
        },
        {
          "indexed": false,
          "internalType": "uint256",
          "name": "value",
          "type": "uint256"
        }
      ],
      "name": "TransferSingle",
      "type": "event"
    },
    {
      "anonymous": false,
      "inputs": [
        {
          "indexed": false,
          "internalType": "string",
          "name": "value",
          "type": "string"
        },
        {
          "indexed": true,
          "internalType": "uint256",
          "name": "tokenId",
          "type": "uint256"
        }
      ],
      "name": "URI",
      "type": "event"
    },
    {
      "anonymous": false,
      "inputs": [
        {
          "indexed": false,
          "internalType": "address",
          "name": "account",
          "type": "address"
        },
        {
          "indexed": false,
          "internalType": "uint256",
          "name": "totalElegibleAmount",
          "type": "uint256"
        },
        {
          "indexed": false,
          "internalType": "uint256",
          "name": "totalClaimedAmount",
          "type": "uint256"
        }
      ],
      "name": "WhitelistBalanceChanged",
      "type": "event"
    },
    {
      "inputs": [
        {
          "internalType": "uint256",
          "name": "id",
          "type": "uint256"
        }
      ],
      "name": "accountsByToken",
      "outputs": [
        {
          "internalType": "address[]",
          "name": "",
          "type": "address[]"
        }
      ],
      "stateMutability": "view",
      "type": "function"
    },
    {
      "inputs": [
        {
          "internalType": "address",
          "name": "account",
          "type": "address"
        },
        {
          "internalType": "uint256",
          "name": "id",
          "type": "uint256"
        }
      ],
      "name": "balanceOf",
      "outputs": [
        {
          "internalType": "uint256",
          "name": "",
          "type": "uint256"
        }
      ],
      "stateMutability": "view",
      "type": "function"
    },
    {
      "inputs": [
        {
          "internalType": "address[]",
          "name": "accounts",
          "type": "address[]"
        },
        {
          "internalType": "uint256[]",
          "name": "ids",
          "type": "uint256[]"
        }
      ],
      "name": "balanceOfBatch",
      "outputs": [
        {
          "internalType": "uint256[]",
          "name": "",
          "type": "uint256[]"
        }
      ],
      "stateMutability": "view",
      "type": "function"
    },
    {
      "inputs": [
        {
          "internalType": "uint256",
          "name": "itemId",
          "type": "uint256"
        },
        {
          "internalType": "uint256",
          "name": "amount",
          "type": "uint256"
        },
        {
          "internalType": "bytes32[]",
          "name": "proof",
          "type": "bytes32[]"
        }
      ],
      "name": "claimMerkle",
      "outputs": [],
      "stateMutability": "nonpayable",
      "type": "function"
    },
    {
      "inputs": [
        {
          "internalType": "uint256[]",
          "name": "itemsIds",
          "type": "uint256[]"
        },
        {
          "internalType": "uint256[]",
          "name": "amounts",
          "type": "uint256[]"
        },
        {
          "internalType": "bytes32[][]",
          "name": "proofs",
          "type": "bytes32[][]"
        }
      ],
      "name": "claimMerkleBatch",
      "outputs": [],
      "stateMutability": "nonpayable",
      "type": "function"
    },
    {
      "inputs": [
        {
          "internalType": "address",
          "name": "to",
          "type": "address"
        },
        {
          "internalType": "uint256[]",
          "name": "itemsIds",
          "type": "uint256[]"
        },
        {
          "internalType": "uint256[]",
          "name": "amounts",
          "type": "uint256[]"
        },
        {
          "internalType": "bytes32[][]",
          "name": "proofs",
          "type": "bytes32[][]"
        }
      ],
      "name": "claimMerkleBatchTEST",
      "outputs": [],
      "stateMutability": "nonpayable",
      "type": "function"
    },
    {
      "inputs": [
        {
          "internalType": "uint256[]",
          "name": "itemIds",
          "type": "uint256[]"
        },
        {
          "internalType": "uint256[]",
          "name": "amounts",
          "type": "uint256[]"
        }
      ],
      "name": "claimWhitelist",
      "outputs": [],
      "stateMutability": "nonpayable",
      "type": "function"
    },
    {
      "inputs": [
        {
          "internalType": "address",
          "name": "account",
          "type": "address"
        },
        {
          "internalType": "uint256",
          "name": "itemId",
          "type": "uint256"
        }
      ],
      "name": "claimedAmount",
      "outputs": [
        {
          "internalType": "uint256",
          "name": "amount",
          "type": "uint256"
        }
      ],
      "stateMutability": "view",
      "type": "function"
    },
    {
      "inputs": [
        {
          "internalType": "address",
          "name": "account",
          "type": "address"
        },
        {
          "internalType": "address",
          "name": "operator",
          "type": "address"
        }
      ],
      "name": "isApprovedForAll",
      "outputs": [
        {
          "internalType": "bool",
          "name": "",
          "type": "bool"
        }
      ],
      "stateMutability": "view",
      "type": "function"
    },
    {
      "inputs": [
        {
          "internalType": "address",
          "name": "to",
          "type": "address"
        },
        {
          "internalType": "uint256",
          "name": "id",
          "type": "uint256"
        },
        {
          "internalType": "uint256",
          "name": "amount",
          "type": "uint256"
        }
      ],
      "name": "mint",
      "outputs": [],
      "stateMutability": "nonpayable",
      "type": "function"
    },
    {
      "inputs": [
        {
          "internalType": "address",
          "name": "to",
          "type": "address"
        },
        {
          "internalType": "uint256[]",
          "name": "ids",
          "type": "uint256[]"
        },
        {
          "internalType": "uint256[]",
          "name": "amounts",
          "type": "uint256[]"
        }
      ],
      "name": "mintBatch",
      "outputs": [],
      "stateMutability": "nonpayable",
      "type": "function"
    },
    {
      "inputs": [
        {
          "internalType": "bytes[]",
          "name": "data",
          "type": "bytes[]"
        }
      ],
      "name": "multicall",
      "outputs": [
        {
          "internalType": "bytes[]",
          "name": "results",
          "type": "bytes[]"
        }
      ],
      "stateMutability": "nonpayable",
      "type": "function"
    },
    {
      "inputs": [
        {
          "internalType": "address",
          "name": "from",
          "type": "address"
        },
        {
          "internalType": "address",
          "name": "to",
          "type": "address"
        },
        {
          "internalType": "uint256[]",
          "name": "ids",
          "type": "uint256[]"
        },
        {
          "internalType": "uint256[]",
          "name": "amounts",
          "type": "uint256[]"
        },
        {
          "internalType": "bytes",
          "name": "data",
          "type": "bytes"
        }
      ],
      "name": "safeBatchTransferFrom",
      "outputs": [],
      "stateMutability": "nonpayable",
      "type": "function"
    },
    {
      "inputs": [
        {
          "internalType": "address",
          "name": "from",
          "type": "address"
        },
        {
          "internalType": "address",
          "name": "to",
          "type": "address"
        },
        {
          "internalType": "uint256",
          "name": "id",
          "type": "uint256"
        },
        {
          "internalType": "uint256",
          "name": "amount",
          "type": "uint256"
        },
        {
          "internalType": "bytes",
          "name": "data",
          "type": "bytes"
        }
      ],
      "name": "safeTransferFrom",
      "outputs": [],
      "stateMutability": "nonpayable",
      "type": "function"
    },
    {
      "inputs": [
        {
          "internalType": "address",
          "name": "operator",
          "type": "address"
        },
        {
          "internalType": "bool",
          "name": "status",
          "type": "bool"
        }
      ],
      "name": "setApprovalForAll",
      "outputs": [],
      "stateMutability": "nonpayable",
      "type": "function"
    },
    {
      "inputs": [
        {
          "internalType": "string",
          "name": "baseURI",
          "type": "string"
        }
      ],
      "name": "setBaseURI",
      "outputs": [],
      "stateMutability": "nonpayable",
      "type": "function"
    },
    {
      "inputs": [
        {
          "internalType": "uint256",
          "name": "tokenId",
          "type": "uint256"
        },
        {
          "internalType": "string",
          "name": "tokenURI",
          "type": "string"
        }
      ],
      "name": "setTokenURI",
      "outputs": [],
      "stateMutability": "nonpayable",
      "type": "function"
    },
    {
      "inputs": [
        {
          "internalType": "bytes4",
          "name": "_interface",
          "type": "bytes4"
        }
      ],
      "name": "supportsInterface",
      "outputs": [
        {
          "internalType": "bool",
          "name": "",
          "type": "bool"
        }
      ],
      "stateMutability": "pure",
      "type": "function"
    },
    {
      "inputs": [
        {
          "internalType": "address",
          "name": "account",
          "type": "address"
        }
      ],
      "name": "tokensByAccount",
      "outputs": [
        {
          "internalType": "uint256[]",
          "name": "",
          "type": "uint256[]"
        }
      ],
      "stateMutability": "view",
      "type": "function"
    },
    {
      "inputs": [
        {
          "internalType": "uint256",
          "name": "id",
          "type": "uint256"
        }
      ],
      "name": "totalHolders",
      "outputs": [
        {
          "internalType": "uint256",
          "name": "",
          "type": "uint256"
        }
      ],
      "stateMutability": "view",
      "type": "function"
    },
    {
      "inputs": [
        {
          "internalType": "uint256",
          "name": "id",
          "type": "uint256"
        }
      ],
      "name": "totalSupply",
      "outputs": [
        {
          "internalType": "uint256",
          "name": "",
          "type": "uint256"
        }
      ],
      "stateMutability": "view",
      "type": "function"
    },
    {
      "inputs": [
        {
          "internalType": "uint256",
          "name": "tokenId",
          "type": "uint256"
        }
      ],
      "name": "uri",
      "outputs": [
        {
          "internalType": "string",
          "name": "",
          "type": "string"
        }
      ],
      "stateMutability": "view",
      "type": "function"
    }
  ],
  "transactionHash": "0x26ec6a1ecc10755d84bec651f3d9ffa55ab3f178fb1330621ec91b1bf99088a2",
  "args": [],
  "numDeployments": 8,
  "solcInputHash": "9f5f28c71accd459e87ba3e6bcfa0741",
  "bytecode": "0x608060405234801561001057600080fd5b5061335b806100206000396000f3fe608060405234801561001057600080fd5b50600436106101415760003560e01c806355f804b3116100b8578063ac9650d81161007c578063ac9650d8146102d3578063bd85b039146102f3578063ceb60ee614610306578063d81d0a1514610319578063e985e9c51461032c578063f242432a1461033f57600080fd5b806355f804b3146102675780636dcfd8411461027a57806384118c5d1461029a57806385bff2e7146102ad578063a22cb465146102c057600080fd5b8063162094c41161010a578063162094c4146101e85780631af5bb7a146101fb5780632eb2c2d61461020e5780634e1273f4146102215780634f7fb3321461024157806355b4b1a41461025457600080fd5b8062fdd58e1461014657806301ffc9a71461016c5780630e89341c146101a057806313ba55df146101c0578063156e29f6146101d3575b600080fd5b610159610154366004612472565b610352565b6040519081526020015b60405180910390f35b61019061017a3660046124b2565b6001600160e01b031916636cdb3d1360e11b1490565b6040519015158152602001610163565b6101b36101ae3660046124cf565b610367565b6040516101639190612538565b6101596101ce3660046124cf565b610536565b6101e66101e136600461254b565b610541565b005b6101e66101f63660046125c6565b610581565b6101e6610209366004612655565b6105ec565b6101e661021c366004612848565b61064f565b61023461022f3660046128f1565b6106a1565b60405161016391906129f6565b6101e661024f366004612a09565b61080b565b610159610262366004612472565b61086d565b6101e6610275366004612aa2565b6108b5565b61028d6102883660046124cf565b610923565b6040516101639190612ae3565b6101e66102a8366004612b30565b61092e565b6102346102bb366004612b82565b6109be565b6101e66102ce366004612b9d565b6109c9565b6102e66102e1366004612bd9565b610a7d565b6040516101639190612c0e565b6101596103013660046124cf565b610b97565b6101e6610314366004612c70565b610bca565b6101e6610327366004612ccf565b610bdc565b61019061033a366004612d4f565b610c14565b6101e661034d366004612d82565b610c61565b600061035e8383610cac565b90505b92915050565b60008181527f4281b61aefbe70b3d3f684b428efca5f33077bc240e76f2808f9177c307617f56020526040812080546060927f4281b61aefbe70b3d3f684b428efca5f33077bc240e76f2808f9177c307617f49290916103c690612de6565b80601f01602080910402602001604051908101604052809291908181526020018280546103f290612de6565b801561043f5780601f106104145761010080835404028352916020019161043f565b820191906000526020600020905b81548152906001019060200180831161042257829003601f168201915b50505050509050600082600001805461045790612de6565b80601f016020809104026020016040519081016040528092919081815260200182805461048390612de6565b80156104d05780601f106104a5576101008083540402835291602001916104d0565b820191906000526020600020905b8154815290600101906020018083116104b357829003601f168201915b5050505050905080516000036104e857509392505050565b81511561051b578082604051602001610502929190612e20565b6040516020818303038152906040529350505050919050565b8061052586610d0a565b604051602001610502929190612e20565b600061036182610e12565b61057161056c7ff6deb63e40d71b08820818e006e23fcceb1fce7a499bc15b71b2526cbf9efa735490565b610e48565b61057c838383610e55565b505050565b6105ac61056c7ff6deb63e40d71b08820818e006e23fcceb1fce7a499bc15b71b2526cbf9efa725490565b61057c8383838080601f016020809104026020016040519081016040528093929190818152602001838380828437600092019190915250610e7092505050565b7f09acf4e54214992e70883cf7dcd6957ff2c71cd9e14df4bec4383bc0d11607dc805460020361062f57604051635db5c7cd60e11b815260040160405180910390fd5b6002815561064288888888888888610ee4565b6001905550505050505050565b6001600160a01b038516331480159061066f575061066d8533610c14565b155b1561068c576040516212efed60e91b815260040160405180910390fd5b61069a338686868686610fbc565b5050505050565b606081518351146106c557604051633e7e0b6d60e11b815260040160405180910390fd5b8251600080516020613306833981519152906000906001600160401b038111156106f1576106f16126ff565b60405190808252806020026020018201604052801561071a578160200160208202803683370190505b50905060005b85518110156108025760006001600160a01b031686828151811061074657610746612e4f565b60200260200101516001600160a01b0316036107755760405163db5d879760e01b815260040160405180910390fd5b82600086838151811061078a5761078a612e4f565b6020026020010151815260200190815260200160002060008783815181106107b4576107b4612e4f565b60200260200101516001600160a01b03166001600160a01b03168152602001908152602001600020548282815181106107ef576107ef612e4f565b6020908102919091010152600101610720565b50949350505050565b7f09acf4e54214992e70883cf7dcd6957ff2c71cd9e14df4bec4383bc0d11607dc805460020361084e57604051635db5c7cd60e11b815260040160405180910390fd5b6002815561086133888888888888610ee4565b60019055505050505050565b6001600160a01b03821660009081527f333d4b734a9ca3847483bf4c14a14709d21907ff5f12a881347e2fb2ad8906d66020908152604080832084845290915281205461035e565b6108e061056c7ff6deb63e40d71b08820818e006e23fcceb1fce7a499bc15b71b2526cbf9efa725490565b61091f82828080601f016020809104026020016040519081016040528093929190818152602001838380828437600092019190915250610fe092505050565b5050565b60606103618261100b565b7f09acf4e54214992e70883cf7dcd6957ff2c71cd9e14df4bec4383bc0d11607dc805460020361097157604051635db5c7cd60e11b815260040160405180910390fd5b6002815560408051602080850282810182019093528482526109b4923392899289928991899182918501908490808284376000920191909152506110de92505050565b6001905550505050565b6060610361826111d6565b6001600160a01b03821633036109f257604051637b30a93360e11b815260040160405180910390fd5b3360008181527f1799cf914cb0cb442ca7c7ac709ee40d0cb89e87351dc08d517fbda27d50c68c602090815260408083206001600160a01b03871680855290835292819020805460ff191686151590811790915590519081529192917f17307eab39ab6107e8899845ad3d59bd9653f200f220920489ca2b5937696c31910160405180910390a35050565b6060816001600160401b03811115610a9757610a976126ff565b604051908082528060200260200182016040528015610aca57816020015b6060815260200190600190039081610ab55790505b50905060005b82811015610b905760008030868685818110610aee57610aee612e4f565b9050602002810190610b009190612e65565b604051610b0e929190612eab565b600060405180830381855af49150503d8060008114610b49576040519150601f19603f3d011682016040523d82523d6000602084013e610b4e565b606091505b50915091508115610b7c5780848481518110610b6c57610b6c612e4f565b6020026020010181905250610b86565b3d6000803e3d6000fd5b5050600101610ad0565b5092915050565b60008181527fb31c2c74f86ca3ce94d901f5f5bbe66f7161eec2f7b5aa0b75a86371436424ea6020526040812054610361565b610bd68484848461129e565b50505050565b610c0761056c7ff6deb63e40d71b08820818e006e23fcceb1fce7a499bc15b71b2526cbf9efa735490565b61069a8585858585611358565b6001600160a01b0391821660009081527f1799cf914cb0cb442ca7c7ac709ee40d0cb89e87351dc08d517fbda27d50c68c6020908152604080832093909416825291909152205460ff1690565b6001600160a01b0385163314801590610c815750610c7f8533610c14565b155b15610c9e576040516212efed60e91b815260040160405180910390fd5b61069a3386868686866113d4565b60006001600160a01b038316610cd55760405163db5d879760e01b815260040160405180910390fd5b6000805160206133068339815191526000928352602090815260408084206001600160a01b0395909516845293905250205490565b606081600003610d315750506040805180820190915260018152600360fc1b602082015290565b8160005b8115610d5b5780610d4581612ed1565b9150610d549050600a83612f00565b9150610d35565b6000816001600160401b03811115610d7557610d756126ff565b6040519080825280601f01601f191660200182016040528015610d9f576020820181803683370190505b5090505b8415610e0a57610db4600183612f14565b9150610dc1600a86612f27565b610dcc906030612f3b565b60f81b818381518110610de157610de1612e4f565b60200101906001600160f81b031916908160001a905350610e03600a86612f00565b9450610da3565b949350505050565b60008181527fb31c2c74f86ca3ce94d901f5f5bbe66f7161eec2f7b5aa0b75a86371436424eb60205260408120610361906113f0565b610e5281336113fa565b50565b61057c83838360405180602001604052806000815250611465565b60008281527f4281b61aefbe70b3d3f684b428efca5f33077bc240e76f2808f9177c307617f560205260409020610ea78282612f94565b50817f6bb7ff708619ba0610cba295a58592e0451dee2622938c8755667688daf3529b82604051610ed89190612538565b60405180910390a25050565b848314610f0457604051634e98d26360e01b815260040160405180910390fd5b60005b85811015610fb257610fa088888884818110610f2557610f25612e4f565b90506020020135878785818110610f3e57610f3e612e4f565b90506020020135868686818110610f5757610f57612e4f565b9050602002810190610f699190613053565b808060200260200160405190810160405280939291908181526020018383602002808284376000920191909152506110de92505050565b80610faa81612ed1565b915050610f07565b5050505050505050565b610fca86868686868661153e565b610fd88686868686866116e7565b505050505050565b7f4281b61aefbe70b3d3f684b428efca5f33077bc240e76f2808f9177c307617f461091f8282612f94565b60008181527fb31c2c74f86ca3ce94d901f5f5bbe66f7161eec2f7b5aa0b75a86371436424eb60205260408120606091611044826113f0565b6001600160401b0381111561105b5761105b6126ff565b604051908082528060200260200182016040528015611084578160200160208202803683370190505b50905060005b611093836113f0565b8110156110d6576110a48382611800565b8282815181106110b6576110b6612e4f565b6001600160a01b039092166020928302919091019091015260010161108a565b509392505050565b604080516001600160a01b038616602082015280820185905260608082018590528251808303909101815260809091019091527f333d4b734a9ca3847483bf4c14a14709d21907ff5f12a881347e2fb2ad8906d69061113d838261180c565b61115886868660405180602001604052806000815250611465565b6001600160a01b03861660009081526020838152604080832088845290915281208054869290611189908490612f3b565b909155505060405184815285906001600160a01b038816907fd4307fb1338aefb2a030cf5ea0f582a10d28ffee99fe253e5d48946f9a74a59f9060200160405180910390a3505050505050565b6001600160a01b03811660009081527fb31c2c74f86ca3ce94d901f5f5bbe66f7161eec2f7b5aa0b75a86371436424ec60205260408120606091611219826113f0565b6001600160401b03811115611230576112306126ff565b604051908082528060200260200182016040528015611259578160200160208202803683370190505b50905060005b611268836113f0565b8110156110d6576112798382611800565b82828151811061128b5761128b612e4f565b602090810291909101015260010161125f565b8281146112be57604051634e98d26360e01b815260040160405180910390fd5b6000805b8481101561134d57611315338787848181106112e0576112e0612e4f565b905060200201358686858181106112f9576112f9612e4f565b9050602002013560405180602001604052806000815250611465565b83838281811061132757611327612e4f565b90506020020135826113399190612f3b565b91508061134581612ed1565b9150506112c2565b5061069a3382611956565b61069a8585858080602002602001604051908101604052809392919081815260200183836020028082843760009201919091525050604080516020808902828101820190935288825290935088925087918291850190849080828437600092018290525060408051602081019091529081529250611af2915050565b6113e2868686868686611c49565b610fd8868686868686611d5f565b6000610361825490565b6114048282611e1b565b61091f5761141a816001600160a01b0316611e52565b611425836020611e64565b60405160200161143692919061309c565b60408051601f198184030181529082905262461bcd60e51b825261145c91600401612538565b60405180910390fd5b6001600160a01b03841661148c576040516301c8efbf60e11b815260040160405180910390fd5b6114ab3360008661149c87611fb6565b6114a587611fb6565b86612001565b6000838152600080516020613306833981519152602090815260408083206001600160a01b0388168452909152812080548492906114ea908490612f3b565b909155505060408051848152602081018490526001600160a01b0386169160009133917fc3d58168c5ae7397731d063d5bbf3d657854427343f4c083240f7aacaa2d0f62910160405180910390a450505050565b6001600160a01b0384166115655760405163f5cadad560e01b815260040160405180910390fd5b815183511461158757604051633e7e0b6d60e11b815260040160405180910390fd5b611595868686868686612001565b60008051602061330683398151915260005b84518110156116865760008582815181106115c4576115c4612e4f565b6020026020010151905060008583815181106115e2576115e2612e4f565b602090810291909101810151600084815286835260408082206001600160a01b038e1683529093529190912054909150808211156116335760405163119ac6bb60e31b815260040160405180910390fd5b6000838152602086815260408083206001600160a01b038e811685529252808320938590039093558a168152908120805460019590950194839290611679908490612f3b565b909155506115a792505050565b50846001600160a01b0316866001600160a01b0316886001600160a01b03167f4a39dc06d4c0dbc64b70af90fd698a233a518aa5d07e595d983b8c0526c8f7fb87876040516116d6929190613111565b60405180910390a450505050505050565b6001600160a01b0384163b15610fd85760405163bc197c8160e01b81526001600160a01b0385169063bc197c819061172b908990899088908890889060040161313f565b6020604051808303816000875af1925050508015611766575060408051601f3d908101601f191682019092526117639181019061319d565b60015b6117c6576117726131ba565b806308c379a0036117ab57506117866131d6565b8061179157506117ad565b8060405162461bcd60e51b815260040161145c9190612538565b505b60405163380147a960e01b815260040160405180910390fd5b6001600160e01b0319811663bc197c8160e01b146117f757604051633744db2960e01b815260040160405180910390fd5b50505050505050565b600061035e838361200f565b7f7a07c093b55ad04e200605cb287859fe4640b7310d62fdbb044e26399da78c09547f7a07c093b55ad04e200605cb287859fe4640b7310d62fdbb044e26399da78c089060ff16156118715760405163a2f902f160e01b815260040160405180910390fd5b600083604051602001611884919061325f565b60408051601f19818403018152918152815160209283012060008181526002860190935291205490915060ff16156118cf5760405163dea0a45b60e01b815260040160405180910390fd5b600083805190602001206040516020016118eb91815260200190565b60405160208183030381529060405280519060200120905060006119148685600001548461205b565b90508061193457604051631006f83b60e31b815260040160405180910390fd5b50506000908152600290910160205260409020805460ff191660011790555050565b7ff38d3885e664c9638de25f02e645e1955ebebe901d7be2c2037db6a5bcbb358c547ff38d3885e664c9638de25f02e645e1955ebebe901d7be2c2037db6a5bcbb35889060ff16156119bb57604051633137c0e960e11b815260040160405180910390fd5b6001600160a01b03831660009081526001820160205260409020548211156119f657604051630f8a2c5f60e31b815260040160405180910390fd5b6001600160a01b038316600090815260018201602052604081208054849290611a20908490612f14565b90915550506001600160a01b03831660009081526020829052604081208054849290611a4d908490612f3b565b9250508190555081816002016000828254611a689190612f3b565b9250508190555081816003016000828254611a839190612f14565b90915550506001600160a01b038316600090815260018201602090815260408083205484835292819020548151338152928301939093528101919091527fc7ba59c487358e9747ee9c691c213a9b2d30e01bb1b022a3e11d4b1984cd98459060600160405180910390a1505050565b6001600160a01b038416611b19576040516301c8efbf60e11b815260040160405180910390fd5b8151835114611b3b57604051633e7e0b6d60e11b815260040160405180910390fd5b611b4a33600086868686612001565b60008051602061330683398151915260005b8451811015611be957838181518110611b7757611b77612e4f565b6020026020010151826000878481518110611b9457611b94612e4f565b602002602001015181526020019081526020016000206000886001600160a01b03166001600160a01b031681526020019081526020016000206000828254611bdc9190612f3b565b9091555050600101611b5c565b50846001600160a01b031660006001600160a01b0316336001600160a01b03167f4a39dc06d4c0dbc64b70af90fd698a233a518aa5d07e595d983b8c0526c8f7fb8787604051611c3a929190613111565b60405180910390a45050505050565b6001600160a01b038416611c705760405163f5cadad560e01b815260040160405180910390fd5b611c7f86868661149c87611fb6565b6000838152600080516020613306833981519152602081815260408084206001600160a01b038a1685529091529091205480841115611cd15760405163119ac6bb60e31b815260040160405180910390fd5b6000858152602083815260408083206001600160a01b038b81168552925280832093879003909355871681529081208054859290611d10908490612f3b565b909155505060408051858152602081018590526001600160a01b038088169289821692918b16917fc3d58168c5ae7397731d063d5bbf3d657854427343f4c083240f7aacaa2d0f6291016116d6565b6001600160a01b0384163b15610fd85760405163f23a6e6160e01b81526001600160a01b0385169063f23a6e6190611da39089908990889088908890600401613295565b6020604051808303816000875af1925050508015611dde575060408051601f3d908101601f19168201909252611ddb9181019061319d565b60015b611dea576117726131ba565b6001600160e01b0319811663f23a6e6160e01b146117f757604051633744db2960e01b815260040160405180910390fd5b60008281527fd3889cc5458b268d0544e5534672df1296288ca3f93cbd39bd6f497a5c6228116020526040812061035e9083612100565b60606103616001600160a01b03831660145b60606000611e738360026132d8565b611e7e906002612f3b565b6001600160401b03811115611e9557611e956126ff565b6040519080825280601f01601f191660200182016040528015611ebf576020820181803683370190505b509050600360fc1b81600081518110611eda57611eda612e4f565b60200101906001600160f81b031916908160001a905350600f60fb1b81600181518110611f0957611f09612e4f565b60200101906001600160f81b031916908160001a905350600160028402015b6001811115611f96576f181899199a1a9b1b9c1cb0b131b232b360811b85600f1660108110611f5957611f59612e4f565b1a60f81b828281518110611f6f57611f6f612e4f565b60200101906001600160f81b031916908160001a90535060049490941c9360001901611f28565b50831561035e5760405163c913478560e01b815260040160405180910390fd5b60408051600180825281830190925260609160009190602080830190803683370190505090508281600081518110611ff057611ff0612e4f565b602090810291909101015292915050565b610fd8868686868686612122565b815460009082106120335760405163e637bf3b60e01b815260040160405180910390fd5b82600001828154811061204857612048612e4f565b9060005260206000200154905092915050565b600081815b85518110156120f557600086828151811061207d5761207d612e4f565b602002602001015190508083116120bf5760408051602081018590529081018290526060016040516020818303038152906040528051906020012092506120ec565b60408051602081018390529081018490526060016040516020818303038152906040528051906020012092505b50600101612060565b509092149392505050565b6001600160a01b0381166000908152600183016020526040812054151561035e565b610fd8868686868686836001600160a01b0316856001600160a01b031614610fd8576001600160a01b0385811660009081527fb31c2c74f86ca3ce94d901f5f5bbe66f7161eec2f7b5aa0b75a86371436424ec6020526040808220928716825281207fb31c2c74f86ca3ce94d901f5f5bbe66f7161eec2f7b5aa0b75a86371436424ea927fb31c2c74f86ca3ce94d901f5f5bbe66f7161eec2f7b5aa0b75a86371436424eb929091905b875181101561230a5760008782815181106121e9576121e9612e4f565b60200260200101519050600081111561230157600089838151811061221057612210612e4f565b6020026020010151905060006001600160a01b03168c6001600160a01b03160361225d5760008181526020889052604081208054849290612252908490612f3b565b909155506122929050565b816122688d83610cac565b03612292576000818152602087905260409020612285908d612317565b50612290858261232c565b505b6001600160a01b038b166122c957600081815260208890526040812080548492906122be908490612f14565b909155506122ff9050565b6122d38b82610cac565b6000036122ff5760008181526020879052604090206122f2908c612338565b506122fd848261234d565b505b505b506001016121cc565b5050505050505050505050565b600061035e836001600160a01b038416612359565b600061035e8383612359565b600061035e836001600160a01b038416612413565b600061035e8383612413565b60008181526001830160205260408120548015610b905783546000908590600019810190811061238b5761238b612e4f565b90600052602060002001549050808560000160018403815481106123b1576123b1612e4f565b60009182526020808320909101929092559182526001860190526040902081905583548490806123e3576123e36132ef565b60008281526020808220830160001990810183905590920190925593815260019485019093525050604081205590565b6000818152600183016020526040812054610361575081546001808201845560008481526020808220909301849055845493815293810190915260409092205590565b80356001600160a01b038116811461246d57600080fd5b919050565b6000806040838503121561248557600080fd5b61248e83612456565b946020939093013593505050565b6001600160e01b031981168114610e5257600080fd5b6000602082840312156124c457600080fd5b813561035e8161249c565b6000602082840312156124e157600080fd5b5035919050565b60005b838110156125035781810151838201526020016124eb565b50506000910152565b600081518084526125248160208601602086016124e8565b601f01601f19169290920160200192915050565b60208152600061035e602083018461250c565b60008060006060848603121561256057600080fd5b61256984612456565b95602085013595506040909401359392505050565b60008083601f84011261259057600080fd5b5081356001600160401b038111156125a757600080fd5b6020830191508360208285010111156125bf57600080fd5b9250929050565b6000806000604084860312156125db57600080fd5b8335925060208401356001600160401b038111156125f857600080fd5b6126048682870161257e565b9497909650939450505050565b60008083601f84011261262357600080fd5b5081356001600160401b0381111561263a57600080fd5b6020830191508360208260051b85010111156125bf57600080fd5b60008060008060008060006080888a03121561267057600080fd5b61267988612456565b965060208801356001600160401b038082111561269557600080fd5b6126a18b838c01612611565b909850965060408a01359150808211156126ba57600080fd5b6126c68b838c01612611565b909650945060608a01359150808211156126df57600080fd5b506126ec8a828b01612611565b989b979a50959850939692959293505050565b634e487b7160e01b600052604160045260246000fd5b601f8201601f191681016001600160401b038111828210171561273a5761273a6126ff565b6040525050565b60006001600160401b0382111561275a5761275a6126ff565b5060051b60200190565b600082601f83011261277557600080fd5b8135602061278282612741565b60405161278f8282612715565b83815260059390931b85018201928281019150868411156127af57600080fd5b8286015b848110156127ca57803583529183019183016127b3565b509695505050505050565b600082601f8301126127e657600080fd5b81356001600160401b038111156127ff576127ff6126ff565b604051612816601f8301601f191660200182612715565b81815284602083860101111561282b57600080fd5b816020850160208301376000918101602001919091529392505050565b600080600080600060a0868803121561286057600080fd5b61286986612456565b945061287760208701612456565b935060408601356001600160401b038082111561289357600080fd5b61289f89838a01612764565b945060608801359150808211156128b557600080fd5b6128c189838a01612764565b935060808801359150808211156128d757600080fd5b506128e4888289016127d5565b9150509295509295909350565b6000806040838503121561290457600080fd5b82356001600160401b038082111561291b57600080fd5b818501915085601f83011261292f57600080fd5b8135602061293c82612741565b6040516129498282612715565b83815260059390931b850182019282810191508984111561296957600080fd5b948201945b8386101561298e5761297f86612456565b8252948201949082019061296e565b965050860135925050808211156129a457600080fd5b506129b185828601612764565b9150509250929050565b600081518084526020808501945080840160005b838110156129eb578151875295820195908201906001016129cf565b509495945050505050565b60208152600061035e60208301846129bb565b60008060008060008060608789031215612a2257600080fd5b86356001600160401b0380821115612a3957600080fd5b612a458a838b01612611565b90985096506020890135915080821115612a5e57600080fd5b612a6a8a838b01612611565b90965094506040890135915080821115612a8357600080fd5b50612a9089828a01612611565b979a9699509497509295939492505050565b60008060208385031215612ab557600080fd5b82356001600160401b03811115612acb57600080fd5b612ad78582860161257e565b90969095509350505050565b6020808252825182820181905260009190848201906040850190845b81811015612b245783516001600160a01b031683529284019291840191600101612aff565b50909695505050505050565b60008060008060608587031215612b4657600080fd5b843593506020850135925060408501356001600160401b03811115612b6a57600080fd5b612b7687828801612611565b95989497509550505050565b600060208284031215612b9457600080fd5b61035e82612456565b60008060408385031215612bb057600080fd5b612bb983612456565b915060208301358015158114612bce57600080fd5b809150509250929050565b60008060208385031215612bec57600080fd5b82356001600160401b03811115612c0257600080fd5b612ad785828601612611565b6000602080830181845280855180835260408601915060408160051b870101925083870160005b82811015612c6357603f19888603018452612c5185835161250c565b94509285019290850190600101612c35565b5092979650505050505050565b60008060008060408587031215612c8657600080fd5b84356001600160401b0380821115612c9d57600080fd5b612ca988838901612611565b90965094506020870135915080821115612cc257600080fd5b50612b7687828801612611565b600080600080600060608688031215612ce757600080fd5b612cf086612456565b945060208601356001600160401b0380821115612d0c57600080fd5b612d1889838a01612611565b90965094506040880135915080821115612d3157600080fd5b50612d3e88828901612611565b969995985093965092949392505050565b60008060408385031215612d6257600080fd5b612d6b83612456565b9150612d7960208401612456565b90509250929050565b600080600080600060a08688031215612d9a57600080fd5b612da386612456565b9450612db160208701612456565b9350604086013592506060860135915060808601356001600160401b03811115612dda57600080fd5b6128e4888289016127d5565b600181811c90821680612dfa57607f821691505b602082108103612e1a57634e487b7160e01b600052602260045260246000fd5b50919050565b60008351612e328184602088016124e8565b835190830190612e468183602088016124e8565b01949350505050565b634e487b7160e01b600052603260045260246000fd5b6000808335601e19843603018112612e7c57600080fd5b8301803591506001600160401b03821115612e9657600080fd5b6020019150368190038213156125bf57600080fd5b8183823760009101908152919050565b634e487b7160e01b600052601160045260246000fd5b600060018201612ee357612ee3612ebb565b5060010190565b634e487b7160e01b600052601260045260246000fd5b600082612f0f57612f0f612eea565b500490565b8181038181111561036157610361612ebb565b600082612f3657612f36612eea565b500690565b8082018082111561036157610361612ebb565b601f82111561057c57600081815260208120601f850160051c81016020861015612f755750805b601f850160051c820191505b81811015610fd857828155600101612f81565b81516001600160401b03811115612fad57612fad6126ff565b612fc181612fbb8454612de6565b84612f4e565b602080601f831160018114612ff65760008415612fde5750858301515b600019600386901b1c1916600185901b178555610fd8565b600085815260208120601f198616915b8281101561302557888601518255948401946001909101908401613006565b50858210156130435787850151600019600388901b60f8161c191681555b5050505050600190811b01905550565b6000808335601e1984360301811261306a57600080fd5b8301803591506001600160401b0382111561308457600080fd5b6020019150600581901b36038213156125bf57600080fd5b7f416363657373436f6e74726f6c3a206163636f756e74200000000000000000008152600083516130d48160178501602088016124e8565b7001034b99036b4b9b9b4b733903937b6329607d1b60179184019182015283516131058160288401602088016124e8565b01602801949350505050565b60408152600061312460408301856129bb565b828103602084015261313681856129bb565b95945050505050565b60006001600160a01b03808816835280871660208401525060a0604083015261316b60a08301866129bb565b828103606084015261317d81866129bb565b90508281036080840152613191818561250c565b98975050505050505050565b6000602082840312156131af57600080fd5b815161035e8161249c565b600060033d11156131d35760046000803e5060005160e01c5b90565b600060443d10156131e45790565b6040516003193d81016004833e81513d6001600160401b03816024840111818411171561321357505050505090565b828501915081518181111561322b5750505050505090565b843d87010160208285010111156132455750505050505090565b61325460208286010187612715565b509095945050505050565b815160009082906020808601845b838110156132895781518552938201939082019060010161326d565b50929695505050505050565b60006001600160a01b03808816835280871660208401525084604083015283606083015260a060808301526132cd60a083018461250c565b979650505050505050565b808202811582820484141761036157610361612ebb565b634e487b7160e01b600052603160045260246000fdfe1799cf914cb0cb442ca7c7ac709ee40d0cb89e87351dc08d517fbda27d50c68ba2646970667358221220f83c101c423a4293f45cbeb40944d643d7448dbb45d54bbf60cc97fea6f2c00c64736f6c63430008130033",
  "devdoc": {
    "details": "This contract handles the creation and management of items It uses ERC1155 tokens to represent items and provides methods to mint new items, claim items via Merkle tree or a whitelist, and set the base and URIs for the items. It also uses the ReentrancyGuard and Multicall contracts for security and gas efficiency.",
    "kind": "dev",
    "methods": {
      "accountsByToken(uint256)": {
        "params": {
          "id": "token id to query"
        },
        "returns": {
          "_0": "list of holder addresses"
        }
      },
      "balanceOf(address,uint256)": {
        "params": {
          "account": "address to query",
          "id": "token to query"
        },
        "returns": {
          "_0": "token balance"
        }
      },
      "balanceOfBatch(address[],uint256[])": {
        "params": {
          "accounts": "addresss to query",
          "ids": "tokens to query"
        },
        "returns": {
          "_0": "token balances"
        }
      },
      "claimMerkle(uint256,uint256,bytes32[])": {
        "params": {
          "amount": "The amount of the item to claim",
          "itemId": "The ID of the item to claim",
          "proof": "The Merkle proof for the item"
        }
      },
      "claimMerkleBatch(uint256[],uint256[],bytes32[][])": {
        "params": {
          "amounts": "The amounts of the items to claim",
          "itemsIds": "The IDs of the items to claim",
          "proofs": "The Merkle proofs for the items"
        }
      },
      "claimMerkleBatchTEST(address,uint256[],uint256[],bytes32[][])": {
        "details": "TODO: DELETE THIS FUNCTION",
        "params": {
          "amounts": "The amounts of the items to claim",
          "itemsIds": "The IDs of the items to claim",
          "proofs": "The Merkle proofs for the items",
          "to": "address to claim"
        }
      },
      "claimWhitelist(uint256[],uint256[])": {
        "params": {
          "amounts": "The amounts of the items to claim",
          "itemIds": "The IDs of the items to claim"
        }
      },
      "claimedAmount(address,uint256)": {
        "params": {
          "account": "the account to query",
          "itemId": "the item id to query"
        },
        "returns": {
          "amount": "returns the claimed amount given an account and an item id"
        }
      },
      "isApprovedForAll(address,address)": {
        "params": {
          "account": "address to query for approval granted",
          "operator": "address to query for approval received"
        },
        "returns": {
          "_0": "whether operator is approved to spend tokens held by account"
        }
      },
      "mint(address,uint256,uint256)": {
        "params": {
          "amount": "The amount of the items to mint",
          "id": "The ID of the item to mint",
          "to": "The address to mint the item to"
        }
      },
      "mintBatch(address,uint256[],uint256[])": {
        "details": "Only account with minter role can call this function",
        "params": {
          "amounts": "An array of corresponding amounts to be minted for each item ID",
          "ids": "An array of items IDs to be minted",
          "to": "The address to receive the minted items"
        }
      },
      "multicall(bytes[])": {
        "params": {
          "data": "array of function call data payloads"
        },
        "returns": {
          "results": "array of function call results"
        }
      },
      "safeBatchTransferFrom(address,address,uint256[],uint256[],bytes)": {
        "params": {
          "amounts": "list of quantities of tokens to transfer",
          "data": "data payload",
          "from": "sender of tokens",
          "ids": "list of token IDs",
          "to": "receiver of tokens"
        }
      },
      "safeTransferFrom(address,address,uint256,uint256,bytes)": {
        "params": {
          "amount": "quantity of tokens to transfer",
          "data": "data payload",
          "from": "sender of tokens",
          "id": "token ID",
          "to": "receiver of tokens"
        }
      },
      "setApprovalForAll(address,bool)": {
        "params": {
          "operator": "address whose approval status to update",
          "status": "whether operator should be considered approved"
        }
      },
      "setBaseURI(string)": {
        "details": "Only the manager role can call this function",
        "params": {
          "baseURI": "The new base URI"
        }
      },
      "setTokenURI(uint256,string)": {
        "details": "Only the manager role can call this function",
        "params": {
          "tokenId": "The ID of the item to set the URI for",
          "tokenURI": "The new item URI"
        }
      },
      "tokensByAccount(address)": {
        "params": {
          "account": "address to query"
        },
        "returns": {
          "_0": "list of token ids"
        }
      },
      "totalHolders(uint256)": {
        "params": {
          "id": "token id to query"
        },
        "returns": {
          "_0": "quantity of holders"
        }
      },
      "totalSupply(uint256)": {
        "params": {
          "id": "token id to query"
        },
        "returns": {
          "_0": "token supply"
        }
      }
    },
    "title": "ItemsFacet",
    "version": 1
  },
  "userdoc": {
    "kind": "user",
    "methods": {
      "accountsByToken(uint256)": {
        "notice": "query holders of given token"
      },
      "balanceOf(address,uint256)": {
        "notice": "query the balance of given token held by given address"
      },
      "balanceOfBatch(address[],uint256[])": {
        "notice": "query the balances of given tokens held by given addresses"
      },
      "claimMerkle(uint256,uint256,bytes32[])": {
        "notice": "Claims an item if present in the Merkle tree"
      },
      "claimMerkleBatch(uint256[],uint256[],bytes32[][])": {
        "notice": "Claims items if present in the Merkle tree"
      },
      "claimMerkleBatchTEST(address,uint256[],uint256[],bytes32[][])": {
        "notice": "Claims items if present in the Merkle tree"
      },
      "claimWhitelist(uint256[],uint256[])": {
        "notice": "Claims items from a whitelist"
      },
      "claimedAmount(address,uint256)": {
        "notice": "Amount claimed by an address of a specific item"
      },
      "isApprovedForAll(address,address)": {
        "notice": "query approval status of given operator with respect to given address"
      },
      "mint(address,uint256,uint256)": {
        "notice": "Mints a new item"
      },
      "mintBatch(address,uint256[],uint256[])": {
        "notice": "Mint a batch of items to a specific address"
      },
      "multicall(bytes[])": {
        "notice": "batch function calls to the contract and return the results of each"
      },
      "safeBatchTransferFrom(address,address,uint256[],uint256[],bytes)": {
        "notice": "transfer batch of tokens between given addresses, checking for ERC1155Receiver implementation if applicable"
      },
      "safeTransferFrom(address,address,uint256,uint256,bytes)": {
        "notice": "transfer tokens between given addresses, checking for ERC1155Receiver implementation if applicable"
      },
      "setApprovalForAll(address,bool)": {
        "notice": "grant approval to or revoke approval from given operator to spend held tokens"
      },
      "setBaseURI(string)": {
        "notice": "Set the base URI for all items metadata"
      },
      "setTokenURI(uint256,string)": {
        "notice": "Set the URI for a specific item ID"
      },
      "tokensByAccount(address)": {
        "notice": "query tokens held by given address"
      },
      "totalHolders(uint256)": {
        "notice": "query total number of holders for given token"
      },
      "totalSupply(uint256)": {
        "notice": "query total minted supply of given token"
      },
      "uri(uint256)": {
        "notice": "inheritdoc IERC1155Metadata"
      }
    },
    "version": 1
  },
  "storageLayout": {
    "storage": [],
    "types": null
  }
}