{
  "address": "0x6492483624650b463e0Ff9Cc2B0dc042ADedb666",
  "abi": [
    {
      "inputs": [],
      "name": "ERC1155Base__ArrayLengthMismatch",
      "type": "error"
    },
    {
      "inputs": [],
      "name": "ERC1155Base__BalanceQueryZeroAddress",
      "type": "error"
    },
    {
      "inputs": [],
      "name": "ERC1155Base__BurnExceedsBalance",
      "type": "error"
    },
    {
      "inputs": [],
      "name": "ERC1155Base__BurnFromZeroAddress",
      "type": "error"
    },
    {
      "inputs": [],
      "name": "ERC1155Base__ERC1155ReceiverNotImplemented",
      "type": "error"
    },
    {
      "inputs": [],
      "name": "ERC1155Base__ERC1155ReceiverRejected",
      "type": "error"
    },
    {
      "inputs": [],
      "name": "ERC1155Base__MintToZeroAddress",
      "type": "error"
    },
    {
      "inputs": [],
      "name": "ERC1155Base__NotOwnerOrApproved",
      "type": "error"
    },
    {
      "inputs": [],
      "name": "ERC1155Base__SelfApproval",
      "type": "error"
    },
    {
      "inputs": [],
      "name": "ERC1155Base__TransferExceedsBalance",
      "type": "error"
    },
    {
      "inputs": [],
      "name": "ERC1155Base__TransferToZeroAddress",
      "type": "error"
    },
    {
      "inputs": [],
      "name": "EnumerableSet__IndexOutOfBounds",
      "type": "error"
    },
    {
      "inputs": [],
      "name": "ReentrancyGuard__ReentrantCall",
      "type": "error"
    },
    {
      "inputs": [],
      "name": "UintUtils__InsufficientHexLength",
      "type": "error"
    },
    {
      "anonymous": false,
      "inputs": [
        {
          "indexed": true,
          "internalType": "address",
          "name": "account",
          "type": "address"
        },
        {
          "indexed": true,
          "internalType": "address",
          "name": "operator",
          "type": "address"
        },
        {
          "indexed": false,
          "internalType": "bool",
          "name": "approved",
          "type": "bool"
        }
      ],
      "name": "ApprovalForAll",
      "type": "event"
    },
    {
      "anonymous": false,
      "inputs": [
        {
          "indexed": true,
          "internalType": "address",
          "name": "to",
          "type": "address"
        },
        {
          "indexed": true,
          "internalType": "uint256",
          "name": "itemId",
          "type": "uint256"
        },
        {
          "indexed": false,
          "internalType": "uint256",
          "name": "amount",
          "type": "uint256"
        }
      ],
      "name": "ItemClaimed",
      "type": "event"
    },
    {
      "anonymous": false,
      "inputs": [
        {
          "indexed": true,
          "internalType": "bytes32",
          "name": "role",
          "type": "bytes32"
        },
        {
          "indexed": true,
          "internalType": "bytes32",
          "name": "previousAdminRole",
          "type": "bytes32"
        },
        {
          "indexed": true,
          "internalType": "bytes32",
          "name": "newAdminRole",
          "type": "bytes32"
        }
      ],
      "name": "RoleAdminChanged",
      "type": "event"
    },
    {
      "anonymous": false,
      "inputs": [
        {
          "indexed": true,
          "internalType": "bytes32",
          "name": "role",
          "type": "bytes32"
        },
        {
          "indexed": true,
          "internalType": "address",
          "name": "account",
          "type": "address"
        },
        {
          "indexed": true,
          "internalType": "address",
          "name": "sender",
          "type": "address"
        }
      ],
      "name": "RoleGranted",
      "type": "event"
    },
    {
      "anonymous": false,
      "inputs": [
        {
          "indexed": true,
          "internalType": "bytes32",
          "name": "role",
          "type": "bytes32"
        },
        {
          "indexed": true,
          "internalType": "address",
          "name": "account",
          "type": "address"
        },
        {
          "indexed": true,
          "internalType": "address",
          "name": "sender",
          "type": "address"
        }
      ],
      "name": "RoleRevoked",
      "type": "event"
    },
    {
      "anonymous": false,
      "inputs": [
        {
          "indexed": true,
          "internalType": "address",
          "name": "operator",
          "type": "address"
        },
        {
          "indexed": true,
          "internalType": "address",
          "name": "from",
          "type": "address"
        },
        {
          "indexed": true,
          "internalType": "address",
          "name": "to",
          "type": "address"
        },
        {
          "indexed": false,
          "internalType": "uint256[]",
          "name": "ids",
          "type": "uint256[]"
        },
        {
          "indexed": false,
          "internalType": "uint256[]",
          "name": "values",
          "type": "uint256[]"
        }
      ],
      "name": "TransferBatch",
      "type": "event"
    },
    {
      "anonymous": false,
      "inputs": [
        {
          "indexed": true,
          "internalType": "address",
          "name": "operator",
          "type": "address"
        },
        {
          "indexed": true,
          "internalType": "address",
          "name": "from",
          "type": "address"
        },
        {
          "indexed": true,
          "internalType": "address",
          "name": "to",
          "type": "address"
        },
        {
          "indexed": false,
          "internalType": "uint256",
          "name": "id",
          "type": "uint256"
        },
        {
          "indexed": false,
          "internalType": "uint256",
          "name": "value",
          "type": "uint256"
        }
      ],
      "name": "TransferSingle",
      "type": "event"
    },
    {
      "anonymous": false,
      "inputs": [
        {
          "indexed": false,
          "internalType": "string",
          "name": "value",
          "type": "string"
        },
        {
          "indexed": true,
          "internalType": "uint256",
          "name": "tokenId",
          "type": "uint256"
        }
      ],
      "name": "URI",
      "type": "event"
    },
    {
      "inputs": [
        {
          "internalType": "uint256",
          "name": "id",
          "type": "uint256"
        }
      ],
      "name": "accountsByToken",
      "outputs": [
        {
          "internalType": "address[]",
          "name": "",
          "type": "address[]"
        }
      ],
      "stateMutability": "view",
      "type": "function"
    },
    {
      "inputs": [
        {
          "internalType": "address",
          "name": "account",
          "type": "address"
        },
        {
          "internalType": "uint256",
          "name": "id",
          "type": "uint256"
        }
      ],
      "name": "balanceOf",
      "outputs": [
        {
          "internalType": "uint256",
          "name": "",
          "type": "uint256"
        }
      ],
      "stateMutability": "view",
      "type": "function"
    },
    {
      "inputs": [
        {
          "internalType": "address[]",
          "name": "accounts",
          "type": "address[]"
        },
        {
          "internalType": "uint256[]",
          "name": "ids",
          "type": "uint256[]"
        }
      ],
      "name": "balanceOfBatch",
      "outputs": [
        {
          "internalType": "uint256[]",
          "name": "",
          "type": "uint256[]"
        }
      ],
      "stateMutability": "view",
      "type": "function"
    },
    {
      "inputs": [
        {
          "internalType": "uint256",
          "name": "tokenId",
          "type": "uint256"
        },
        {
          "internalType": "uint256",
          "name": "amount",
          "type": "uint256"
        },
        {
          "internalType": "bytes32[]",
          "name": "proof",
          "type": "bytes32[]"
        }
      ],
      "name": "claim",
      "outputs": [],
      "stateMutability": "nonpayable",
      "type": "function"
    },
    {
      "inputs": [
        {
          "internalType": "uint256[]",
          "name": "tokenIds",
          "type": "uint256[]"
        },
        {
          "internalType": "uint256[]",
          "name": "amounts",
          "type": "uint256[]"
        },
        {
          "internalType": "bytes32[][]",
          "name": "proofs",
          "type": "bytes32[][]"
        }
      ],
      "name": "claimBatch",
      "outputs": [],
      "stateMutability": "nonpayable",
      "type": "function"
    },
    {
      "inputs": [
        {
          "internalType": "address",
          "name": "account",
          "type": "address"
        },
        {
          "internalType": "address",
          "name": "operator",
          "type": "address"
        }
      ],
      "name": "isApprovedForAll",
      "outputs": [
        {
          "internalType": "bool",
          "name": "",
          "type": "bool"
        }
      ],
      "stateMutability": "view",
      "type": "function"
    },
    {
      "inputs": [
        {
          "internalType": "address",
          "name": "to",
          "type": "address"
        },
        {
          "internalType": "uint256",
          "name": "id",
          "type": "uint256"
        },
        {
          "internalType": "uint256",
          "name": "amount",
          "type": "uint256"
        }
      ],
      "name": "mint",
      "outputs": [],
      "stateMutability": "nonpayable",
      "type": "function"
    },
    {
      "inputs": [
        {
          "internalType": "address",
          "name": "to",
          "type": "address"
        },
        {
          "internalType": "uint256[]",
          "name": "ids",
          "type": "uint256[]"
        },
        {
          "internalType": "uint256[]",
          "name": "amounts",
          "type": "uint256[]"
        }
      ],
      "name": "mintBatch",
      "outputs": [],
      "stateMutability": "nonpayable",
      "type": "function"
    },
    {
      "inputs": [
        {
          "internalType": "address",
          "name": "from",
          "type": "address"
        },
        {
          "internalType": "address",
          "name": "to",
          "type": "address"
        },
        {
          "internalType": "uint256[]",
          "name": "ids",
          "type": "uint256[]"
        },
        {
          "internalType": "uint256[]",
          "name": "amounts",
          "type": "uint256[]"
        },
        {
          "internalType": "bytes",
          "name": "data",
          "type": "bytes"
        }
      ],
      "name": "safeBatchTransferFrom",
      "outputs": [],
      "stateMutability": "nonpayable",
      "type": "function"
    },
    {
      "inputs": [
        {
          "internalType": "address",
          "name": "from",
          "type": "address"
        },
        {
          "internalType": "address",
          "name": "to",
          "type": "address"
        },
        {
          "internalType": "uint256",
          "name": "id",
          "type": "uint256"
        },
        {
          "internalType": "uint256",
          "name": "amount",
          "type": "uint256"
        },
        {
          "internalType": "bytes",
          "name": "data",
          "type": "bytes"
        }
      ],
      "name": "safeTransferFrom",
      "outputs": [],
      "stateMutability": "nonpayable",
      "type": "function"
    },
    {
      "inputs": [
        {
          "internalType": "address",
          "name": "operator",
          "type": "address"
        },
        {
          "internalType": "bool",
          "name": "status",
          "type": "bool"
        }
      ],
      "name": "setApprovalForAll",
      "outputs": [],
      "stateMutability": "nonpayable",
      "type": "function"
    },
    {
      "inputs": [
        {
          "internalType": "string",
          "name": "baseURI",
          "type": "string"
        }
      ],
      "name": "setBaseURI",
      "outputs": [],
      "stateMutability": "nonpayable",
      "type": "function"
    },
    {
      "inputs": [
        {
          "internalType": "uint256",
          "name": "tokenId",
          "type": "uint256"
        },
        {
          "internalType": "string",
          "name": "tokenURI",
          "type": "string"
        }
      ],
      "name": "setTokenURI",
      "outputs": [],
      "stateMutability": "nonpayable",
      "type": "function"
    },
    {
      "inputs": [
        {
          "internalType": "bytes4",
          "name": "",
          "type": "bytes4"
        }
      ],
      "name": "supportsInterface",
      "outputs": [
        {
          "internalType": "bool",
          "name": "",
          "type": "bool"
        }
      ],
      "stateMutability": "pure",
      "type": "function"
    },
    {
      "inputs": [
        {
          "internalType": "address",
          "name": "account",
          "type": "address"
        }
      ],
      "name": "tokensByAccount",
      "outputs": [
        {
          "internalType": "uint256[]",
          "name": "",
          "type": "uint256[]"
        }
      ],
      "stateMutability": "view",
      "type": "function"
    },
    {
      "inputs": [
        {
          "internalType": "uint256",
          "name": "id",
          "type": "uint256"
        }
      ],
      "name": "totalHolders",
      "outputs": [
        {
          "internalType": "uint256",
          "name": "",
          "type": "uint256"
        }
      ],
      "stateMutability": "view",
      "type": "function"
    },
    {
      "inputs": [
        {
          "internalType": "uint256",
          "name": "id",
          "type": "uint256"
        }
      ],
      "name": "totalSupply",
      "outputs": [
        {
          "internalType": "uint256",
          "name": "",
          "type": "uint256"
        }
      ],
      "stateMutability": "view",
      "type": "function"
    },
    {
      "inputs": [
        {
          "internalType": "uint256",
          "name": "tokenId",
          "type": "uint256"
        }
      ],
      "name": "uri",
      "outputs": [
        {
          "internalType": "string",
          "name": "",
          "type": "string"
        }
      ],
      "stateMutability": "view",
      "type": "function"
    }
  ],
  "transactionHash": "0x728eef5b738db93cebc885b500cf85626eecfd7d4e3ddb2423b549616046231d",
  "args": [],
  "numDeployments": 1,
  "solcInputHash": "150ebcc09713912e53c59e3de982ee04",
  "bytecode": "0x608060405234801561001057600080fd5b50612c3b806100206000396000f3fe608060405234801561001057600080fd5b50600436106101155760003560e01c806355f804b3116100a2578063ae0b51df11610071578063ae0b51df1461025e578063bd85b03914610271578063d81d0a1514610284578063e985e9c514610297578063f242432a146102aa57600080fd5b806355f804b3146102055780636dcfd8411461021857806385bff2e714610238578063a22cb4651461024b57600080fd5b8063156e29f6116100e9578063156e29f614610197578063162094c4146101ac57806317a65e10146101bf5780632eb2c2d6146101d25780634e1273f4146101e557600080fd5b8062fdd58e1461011a57806301ffc9a7146101405780630e89341c1461016457806313ba55df14610184575b600080fd5b61012d610128366004611f7e565b6102bd565b6040519081526020015b60405180910390f35b61015461014e366004611fbe565b50600090565b6040519015158152602001610137565b610177610172366004611fdb565b6102d2565b6040516101379190612044565b61012d610192366004611fdb565b6104a1565b6101aa6101a5366004612057565b6104ac565b005b6101aa6101ba3660046120d2565b6104ec565b6101aa6101cd366004612161565b610557565b6101aa6101e0366004612343565b6105b8565b6101f86101f33660046123ec565b61060a565b60405161013791906124f1565b6101aa610213366004612504565b610774565b61022b610226366004611fdb565b6107e2565b6040516101379190612545565b6101f8610246366004612592565b6107ed565b6101aa6102593660046125ad565b6107f8565b6101aa61026c3660046125e9565b6108ac565b61012d61027f366004611fdb565b610941565b6101aa61029236600461263b565b610974565b6101546102a53660046126bb565b6109ac565b6101aa6102b83660046126ee565b6109f9565b60006102c98383610a44565b90505b92915050565b60008181527f4281b61aefbe70b3d3f684b428efca5f33077bc240e76f2808f9177c307617f56020526040812080546060927f4281b61aefbe70b3d3f684b428efca5f33077bc240e76f2808f9177c307617f492909161033190612752565b80601f016020809104026020016040519081016040528092919081815260200182805461035d90612752565b80156103aa5780601f1061037f576101008083540402835291602001916103aa565b820191906000526020600020905b81548152906001019060200180831161038d57829003601f168201915b5050505050905060008260000180546103c290612752565b80601f01602080910402602001604051908101604052809291908181526020018280546103ee90612752565b801561043b5780601f106104105761010080835404028352916020019161043b565b820191906000526020600020905b81548152906001019060200180831161041e57829003601f168201915b50505050509050805160000361045357509392505050565b81511561048657808260405160200161046d92919061278c565b6040516020818303038152906040529350505050919050565b8061049086610aa2565b60405160200161046d92919061278c565b60006102cc82610baa565b6104dc6104d77ff6deb63e40d71b08820818e006e23fcceb1fce7a499bc15b71b2526cbf9efa735490565b610be0565b6104e7838383610bed565b505050565b6105176104d77ff6deb63e40d71b08820818e006e23fcceb1fce7a499bc15b71b2526cbf9efa725490565b6104e78383838080601f016020809104026020016040519081016040528093929190818152602001838380828437600092019190915250610c0892505050565b7f09acf4e54214992e70883cf7dcd6957ff2c71cd9e14df4bec4383bc0d11607dc805460020361059a57604051635db5c7cd60e11b815260040160405180910390fd5b600281556105ac878787878787610c7c565b60019055505050505050565b6001600160a01b03851633148015906105d857506105d685336109ac565b155b156105f5576040516212efed60e91b815260040160405180910390fd5b610603338686868686610d86565b5050505050565b6060815183511461062e57604051633e7e0b6d60e11b815260040160405180910390fd5b8251600080516020612be6833981519152906000906001600160401b0381111561065a5761065a6121fa565b604051908082528060200260200182016040528015610683578160200160208202803683370190505b50905060005b855181101561076b5760006001600160a01b03168682815181106106af576106af6127bb565b60200260200101516001600160a01b0316036106de5760405163db5d879760e01b815260040160405180910390fd5b8260008683815181106106f3576106f36127bb565b60200260200101518152602001908152602001600020600087838151811061071d5761071d6127bb565b60200260200101516001600160a01b03166001600160a01b0316815260200190815260200160002054828281518110610758576107586127bb565b6020908102919091010152600101610689565b50949350505050565b61079f6104d77ff6deb63e40d71b08820818e006e23fcceb1fce7a499bc15b71b2526cbf9efa725490565b6107de82828080601f016020809104026020016040519081016040528093929190818152602001838380828437600092019190915250610daa92505050565b5050565b60606102cc82610dd5565b60606102cc82610ea8565b6001600160a01b038216330361082157604051637b30a93360e11b815260040160405180910390fd5b3360008181527f1799cf914cb0cb442ca7c7ac709ee40d0cb89e87351dc08d517fbda27d50c68c602090815260408083206001600160a01b03871680855290835292819020805460ff191686151590811790915590519081529192917f17307eab39ab6107e8899845ad3d59bd9653f200f220920489ca2b5937696c31910160405180910390a35050565b7f09acf4e54214992e70883cf7dcd6957ff2c71cd9e14df4bec4383bc0d11607dc80546002036108ef57604051635db5c7cd60e11b815260040160405180910390fd5b600281600001819055506109378585858580806020026020016040519081016040528093929190818152602001838360200280828437600092019190915250610f7092505050565b6001905550505050565b60008181527fb31c2c74f86ca3ce94d901f5f5bbe66f7161eec2f7b5aa0b75a86371436424ea60205260408120546102cc565b61099f6104d77ff6deb63e40d71b08820818e006e23fcceb1fce7a499bc15b71b2526cbf9efa735490565b610603858585858561109f565b6001600160a01b0391821660009081527f1799cf914cb0cb442ca7c7ac709ee40d0cb89e87351dc08d517fbda27d50c68c6020908152604080832093909416825291909152205460ff1690565b6001600160a01b0385163314801590610a195750610a1785336109ac565b155b15610a36576040516212efed60e91b815260040160405180910390fd5b61060333868686868661111b565b60006001600160a01b038316610a6d5760405163db5d879760e01b815260040160405180910390fd5b600080516020612be68339815191526000928352602090815260408084206001600160a01b0395909516845293905250205490565b606081600003610ac95750506040805180820190915260018152600360fc1b602082015290565b8160005b8115610af35780610add816127e7565b9150610aec9050600a83612816565b9150610acd565b6000816001600160401b03811115610b0d57610b0d6121fa565b6040519080825280601f01601f191660200182016040528015610b37576020820181803683370190505b5090505b8415610ba257610b4c60018361282a565b9150610b59600a8661283d565b610b64906030612851565b60f81b818381518110610b7957610b796127bb565b60200101906001600160f81b031916908160001a905350610b9b600a86612816565b9450610b3b565b949350505050565b60008181527fb31c2c74f86ca3ce94d901f5f5bbe66f7161eec2f7b5aa0b75a86371436424eb602052604081206102cc90611137565b610bea8133611141565b50565b6104e7838383604051806020016040528060008152506111a3565b60008281527f4281b61aefbe70b3d3f684b428efca5f33077bc240e76f2808f9177c307617f560205260409020610c3f82826128aa565b50817f6bb7ff708619ba0610cba295a58592e0451dee2622938c8755667688daf3529b82604051610c709190612044565b60405180910390a25050565b848314610cd05760405162461bcd60e51b815260206004820152601660248201527f496e70757473206c656e677468206d69736d617463680000000000000000000060448201526064015b60405180910390fd5b60005b85811015610d7d57610d6b878783818110610cf057610cf06127bb565b90506020020135868684818110610d0957610d096127bb565b90506020020135858585818110610d2257610d226127bb565b9050602002810190610d349190612969565b80806020026020016040519081016040528093929190818152602001838360200280828437600092019190915250610f7092505050565b80610d75816127e7565b915050610cd3565b50505050505050565b610d9486868686868661127c565b610da2868686868686611425565b505050505050565b7f4281b61aefbe70b3d3f684b428efca5f33077bc240e76f2808f9177c307617f46107de82826128aa565b60008181527fb31c2c74f86ca3ce94d901f5f5bbe66f7161eec2f7b5aa0b75a86371436424eb60205260408120606091610e0e82611137565b6001600160401b03811115610e2557610e256121fa565b604051908082528060200260200182016040528015610e4e578160200160208202803683370190505b50905060005b610e5d83611137565b811015610ea057610e6e8382611535565b828281518110610e8057610e806127bb565b6001600160a01b0390921660209283029190910190910152600101610e54565b509392505050565b6001600160a01b03811660009081527fb31c2c74f86ca3ce94d901f5f5bbe66f7161eec2f7b5aa0b75a86371436424ec60205260408120606091610eeb82611137565b6001600160401b03811115610f0257610f026121fa565b604051908082528060200260200182016040528015610f2b578160200160208202803683370190505b50905060005b610f3a83611137565b811015610ea057610f4b8382611535565b828281518110610f5d57610f5d6127bb565b6020908102919091010152600101610f31565b3360009081527f333d4b734a9ca3847483bf4c14a14709d21907ff5f12a881347e2fb2ad8906d6602081815260408084208785529091529091205460ff1615610fed5760405162461bcd60e51b815260206004820152600f60248201526e105b1c9958591e4818db185a5b5959608a1b6044820152606401610cc7565b336000818152602083815260408083208884528252808320805460ff19166001179055805191820193909352918201869052606082018590529060800160405160208183030381529060405290506110458382611541565b50611061338686604051806020016040528060008152506111a3565b604051848152859033907fd064733c4c9e98e76c51a33d6697f1a4361a3a7dbc771ba7ebf84ac987befe0a9060200160405180910390a35050505050565b61060385858580806020026020016040519081016040528093929190818152602001838360200280828437600092019190915250506040805160208089028281018201909352888252909350889250879182918501908490808284376000920182905250604080516020810190915290815292506115fe915050565b611129868686868686611755565b610da286868686868661186b565b60006102cc825490565b61114b8282611927565b6107de57611161816001600160a01b031661195e565b61116c836020611970565b60405160200161117d9291906129b2565b60408051601f198184030181529082905262461bcd60e51b8252610cc791600401612044565b6001600160a01b0384166111ca576040516301c8efbf60e11b815260040160405180910390fd5b6111e9336000866111da87611ac2565b6111e387611ac2565b86611b0d565b6000838152600080516020612be6833981519152602090815260408083206001600160a01b038816845290915281208054849290611228908490612851565b909155505060408051848152602081018490526001600160a01b0386169160009133917fc3d58168c5ae7397731d063d5bbf3d657854427343f4c083240f7aacaa2d0f62910160405180910390a450505050565b6001600160a01b0384166112a35760405163f5cadad560e01b815260040160405180910390fd5b81518351146112c557604051633e7e0b6d60e11b815260040160405180910390fd5b6112d3868686868686611b0d565b600080516020612be683398151915260005b84518110156113c4576000858281518110611302576113026127bb565b602002602001015190506000858381518110611320576113206127bb565b602090810291909101810151600084815286835260408082206001600160a01b038e1683529093529190912054909150808211156113715760405163119ac6bb60e31b815260040160405180910390fd5b6000838152602086815260408083206001600160a01b038e811685529252808320938590039093558a1681529081208054600195909501948392906113b7908490612851565b909155506112e592505050565b50846001600160a01b0316866001600160a01b0316886001600160a01b03167f4a39dc06d4c0dbc64b70af90fd698a233a518aa5d07e595d983b8c0526c8f7fb8787604051611414929190612a27565b60405180910390a450505050505050565b6001600160a01b0384163b15610da25760405163bc197c8160e01b81526001600160a01b0385169063bc197c81906114699089908990889088908890600401612a55565b6020604051808303816000875af19250505080156114a4575060408051601f3d908101601f191682019092526114a191810190612ab3565b60015b611504576114b0612ad0565b806308c379a0036114e957506114c4612aec565b806114cf57506114eb565b8060405162461bcd60e51b8152600401610cc79190612044565b505b60405163380147a960e01b815260040160405180910390fd5b6001600160e01b0319811663bc197c8160e01b14610d7d57604051633744db2960e01b815260040160405180910390fd5b60006102c98383611b1b565b600080828051906020012060405160200161155e91815260200190565b6040516020818303038152906040528051906020012090506115a8846115a17f7a07c093b55ad04e200605cb287859fe4640b7310d62fdbb044e26399da78c0890565b5483611b67565b9150816115f75760405162461bcd60e51b815260206004820152601b60248201527f44617461206e6f7420696e636c7564656420696e206d65726b6c6500000000006044820152606401610cc7565b5092915050565b6001600160a01b038416611625576040516301c8efbf60e11b815260040160405180910390fd5b815183511461164757604051633e7e0b6d60e11b815260040160405180910390fd5b61165633600086868686611b0d565b600080516020612be683398151915260005b84518110156116f557838181518110611683576116836127bb565b60200260200101518260008784815181106116a0576116a06127bb565b602002602001015181526020019081526020016000206000886001600160a01b03166001600160a01b0316815260200190815260200160002060008282546116e89190612851565b9091555050600101611668565b50846001600160a01b031660006001600160a01b0316336001600160a01b03167f4a39dc06d4c0dbc64b70af90fd698a233a518aa5d07e595d983b8c0526c8f7fb8787604051611746929190612a27565b60405180910390a45050505050565b6001600160a01b03841661177c5760405163f5cadad560e01b815260040160405180910390fd5b61178b8686866111da87611ac2565b6000838152600080516020612be6833981519152602081815260408084206001600160a01b038a16855290915290912054808411156117dd5760405163119ac6bb60e31b815260040160405180910390fd5b6000858152602083815260408083206001600160a01b038b8116855292528083209387900390935587168152908120805485929061181c908490612851565b909155505060408051858152602081018590526001600160a01b038088169289821692918b16917fc3d58168c5ae7397731d063d5bbf3d657854427343f4c083240f7aacaa2d0f629101611414565b6001600160a01b0384163b15610da25760405163f23a6e6160e01b81526001600160a01b0385169063f23a6e61906118af9089908990889088908890600401612b75565b6020604051808303816000875af19250505080156118ea575060408051601f3d908101601f191682019092526118e791810190612ab3565b60015b6118f6576114b0612ad0565b6001600160e01b0319811663f23a6e6160e01b14610d7d57604051633744db2960e01b815260040160405180910390fd5b60008281527fd3889cc5458b268d0544e5534672df1296288ca3f93cbd39bd6f497a5c622811602052604081206102c99083611c0c565b60606102cc6001600160a01b03831660145b6060600061197f836002612bb8565b61198a906002612851565b6001600160401b038111156119a1576119a16121fa565b6040519080825280601f01601f1916602001820160405280156119cb576020820181803683370190505b509050600360fc1b816000815181106119e6576119e66127bb565b60200101906001600160f81b031916908160001a905350600f60fb1b81600181518110611a1557611a156127bb565b60200101906001600160f81b031916908160001a905350600160028402015b6001811115611aa2576f181899199a1a9b1b9c1cb0b131b232b360811b85600f1660108110611a6557611a656127bb565b1a60f81b828281518110611a7b57611a7b6127bb565b60200101906001600160f81b031916908160001a90535060049490941c9360001901611a34565b5083156102c95760405163c913478560e01b815260040160405180910390fd5b60408051600180825281830190925260609160009190602080830190803683370190505090508281600081518110611afc57611afc6127bb565b602090810291909101015292915050565b610da2868686868686611c2e565b81546000908210611b3f5760405163e637bf3b60e01b815260040160405180910390fd5b826000018281548110611b5457611b546127bb565b9060005260206000200154905092915050565b600081815b8551811015611c01576000868281518110611b8957611b896127bb565b60200260200101519050808311611bcb576040805160208101859052908101829052606001604051602081830303815290604052805190602001209250611bf8565b60408051602081018390529081018490526060016040516020818303038152906040528051906020012092505b50600101611b6c565b509092149392505050565b6001600160a01b038116600090815260018301602052604081205415156102c9565b610da2868686868686836001600160a01b0316856001600160a01b031614610da2576001600160a01b0385811660009081527fb31c2c74f86ca3ce94d901f5f5bbe66f7161eec2f7b5aa0b75a86371436424ec6020526040808220928716825281207fb31c2c74f86ca3ce94d901f5f5bbe66f7161eec2f7b5aa0b75a86371436424ea927fb31c2c74f86ca3ce94d901f5f5bbe66f7161eec2f7b5aa0b75a86371436424eb929091905b8751811015611e16576000878281518110611cf557611cf56127bb565b602002602001015190506000811115611e0d576000898381518110611d1c57611d1c6127bb565b6020026020010151905060006001600160a01b03168c6001600160a01b031603611d695760008181526020889052604081208054849290611d5e908490612851565b90915550611d9e9050565b81611d748d83610a44565b03611d9e576000818152602087905260409020611d91908d611e23565b50611d9c8582611e38565b505b6001600160a01b038b16611dd55760008181526020889052604081208054849290611dca90849061282a565b90915550611e0b9050565b611ddf8b82610a44565b600003611e0b576000818152602087905260409020611dfe908c611e44565b50611e098482611e59565b505b505b50600101611cd8565b5050505050505050505050565b60006102c9836001600160a01b038416611e65565b60006102c98383611e65565b60006102c9836001600160a01b038416611f1f565b60006102c98383611f1f565b600081815260018301602052604081205480156115f757835460009085906000198101908110611e9757611e976127bb565b9060005260206000200154905080856000016001840381548110611ebd57611ebd6127bb565b6000918252602080832090910192909255918252600186019052604090208190558354849080611eef57611eef612bcf565b60008281526020808220830160001990810183905590920190925593815260019485019093525050604081205590565b60008181526001830160205260408120546102cc575081546001808201845560008481526020808220909301849055845493815293810190915260409092205590565b80356001600160a01b0381168114611f7957600080fd5b919050565b60008060408385031215611f9157600080fd5b611f9a83611f62565b946020939093013593505050565b6001600160e01b031981168114610bea57600080fd5b600060208284031215611fd057600080fd5b81356102c981611fa8565b600060208284031215611fed57600080fd5b5035919050565b60005b8381101561200f578181015183820152602001611ff7565b50506000910152565b60008151808452612030816020860160208601611ff4565b601f01601f19169290920160200192915050565b6020815260006102c96020830184612018565b60008060006060848603121561206c57600080fd5b61207584611f62565b95602085013595506040909401359392505050565b60008083601f84011261209c57600080fd5b5081356001600160401b038111156120b357600080fd5b6020830191508360208285010111156120cb57600080fd5b9250929050565b6000806000604084860312156120e757600080fd5b8335925060208401356001600160401b0381111561210457600080fd5b6121108682870161208a565b9497909650939450505050565b60008083601f84011261212f57600080fd5b5081356001600160401b0381111561214657600080fd5b6020830191508360208260051b85010111156120cb57600080fd5b6000806000806000806060878903121561217a57600080fd5b86356001600160401b038082111561219157600080fd5b61219d8a838b0161211d565b909850965060208901359150808211156121b657600080fd5b6121c28a838b0161211d565b909650945060408901359150808211156121db57600080fd5b506121e889828a0161211d565b979a9699509497509295939492505050565b634e487b7160e01b600052604160045260246000fd5b601f8201601f191681016001600160401b0381118282101715612235576122356121fa565b6040525050565b60006001600160401b03821115612255576122556121fa565b5060051b60200190565b600082601f83011261227057600080fd5b8135602061227d8261223c565b60405161228a8282612210565b83815260059390931b85018201928281019150868411156122aa57600080fd5b8286015b848110156122c557803583529183019183016122ae565b509695505050505050565b600082601f8301126122e157600080fd5b81356001600160401b038111156122fa576122fa6121fa565b604051612311601f8301601f191660200182612210565b81815284602083860101111561232657600080fd5b816020850160208301376000918101602001919091529392505050565b600080600080600060a0868803121561235b57600080fd5b61236486611f62565b945061237260208701611f62565b935060408601356001600160401b038082111561238e57600080fd5b61239a89838a0161225f565b945060608801359150808211156123b057600080fd5b6123bc89838a0161225f565b935060808801359150808211156123d257600080fd5b506123df888289016122d0565b9150509295509295909350565b600080604083850312156123ff57600080fd5b82356001600160401b038082111561241657600080fd5b818501915085601f83011261242a57600080fd5b813560206124378261223c565b6040516124448282612210565b83815260059390931b850182019282810191508984111561246457600080fd5b948201945b838610156124895761247a86611f62565b82529482019490820190612469565b9650508601359250508082111561249f57600080fd5b506124ac8582860161225f565b9150509250929050565b600081518084526020808501945080840160005b838110156124e6578151875295820195908201906001016124ca565b509495945050505050565b6020815260006102c960208301846124b6565b6000806020838503121561251757600080fd5b82356001600160401b0381111561252d57600080fd5b6125398582860161208a565b90969095509350505050565b6020808252825182820181905260009190848201906040850190845b818110156125865783516001600160a01b031683529284019291840191600101612561565b50909695505050505050565b6000602082840312156125a457600080fd5b6102c982611f62565b600080604083850312156125c057600080fd5b6125c983611f62565b9150602083013580151581146125de57600080fd5b809150509250929050565b600080600080606085870312156125ff57600080fd5b843593506020850135925060408501356001600160401b0381111561262357600080fd5b61262f8782880161211d565b95989497509550505050565b60008060008060006060868803121561265357600080fd5b61265c86611f62565b945060208601356001600160401b038082111561267857600080fd5b61268489838a0161211d565b9096509450604088013591508082111561269d57600080fd5b506126aa8882890161211d565b969995985093965092949392505050565b600080604083850312156126ce57600080fd5b6126d783611f62565b91506126e560208401611f62565b90509250929050565b600080600080600060a0868803121561270657600080fd5b61270f86611f62565b945061271d60208701611f62565b9350604086013592506060860135915060808601356001600160401b0381111561274657600080fd5b6123df888289016122d0565b600181811c9082168061276657607f821691505b60208210810361278657634e487b7160e01b600052602260045260246000fd5b50919050565b6000835161279e818460208801611ff4565b8351908301906127b2818360208801611ff4565b01949350505050565b634e487b7160e01b600052603260045260246000fd5b634e487b7160e01b600052601160045260246000fd5b6000600182016127f9576127f96127d1565b5060010190565b634e487b7160e01b600052601260045260246000fd5b60008261282557612825612800565b500490565b818103818111156102cc576102cc6127d1565b60008261284c5761284c612800565b500690565b808201808211156102cc576102cc6127d1565b601f8211156104e757600081815260208120601f850160051c8101602086101561288b5750805b601f850160051c820191505b81811015610da257828155600101612897565b81516001600160401b038111156128c3576128c36121fa565b6128d7816128d18454612752565b84612864565b602080601f83116001811461290c57600084156128f45750858301515b600019600386901b1c1916600185901b178555610da2565b600085815260208120601f198616915b8281101561293b5788860151825594840194600190910190840161291c565b50858210156129595787850151600019600388901b60f8161c191681555b5050505050600190811b01905550565b6000808335601e1984360301811261298057600080fd5b8301803591506001600160401b0382111561299a57600080fd5b6020019150600581901b36038213156120cb57600080fd5b7f416363657373436f6e74726f6c3a206163636f756e74200000000000000000008152600083516129ea816017850160208801611ff4565b7001034b99036b4b9b9b4b733903937b6329607d1b6017918401918201528351612a1b816028840160208801611ff4565b01602801949350505050565b604081526000612a3a60408301856124b6565b8281036020840152612a4c81856124b6565b95945050505050565b60006001600160a01b03808816835280871660208401525060a06040830152612a8160a08301866124b6565b8281036060840152612a9381866124b6565b90508281036080840152612aa78185612018565b98975050505050505050565b600060208284031215612ac557600080fd5b81516102c981611fa8565b600060033d1115612ae95760046000803e5060005160e01c5b90565b600060443d1015612afa5790565b6040516003193d81016004833e81513d6001600160401b038160248401118184111715612b2957505050505090565b8285019150815181811115612b415750505050505090565b843d8701016020828501011115612b5b5750505050505090565b612b6a60208286010187612210565b509095945050505050565b60006001600160a01b03808816835280871660208401525084604083015283606083015260a06080830152612bad60a0830184612018565b979650505050505050565b80820281158282048414176102cc576102cc6127d1565b634e487b7160e01b600052603160045260246000fdfe1799cf914cb0cb442ca7c7ac709ee40d0cb89e87351dc08d517fbda27d50c68ba2646970667358221220e136fc0779ecb0766ceb3e5eea3122d461c340f2286c5583ebb0c84574da584d64736f6c63430008130033",
  "devdoc": {
    "kind": "dev",
    "methods": {
      "accountsByToken(uint256)": {
        "params": {
          "id": "token id to query"
        },
        "returns": {
          "_0": "list of holder addresses"
        }
      },
      "balanceOf(address,uint256)": {
        "params": {
          "account": "address to query",
          "id": "token to query"
        },
        "returns": {
          "_0": "token balance"
        }
      },
      "balanceOfBatch(address[],uint256[])": {
        "params": {
          "accounts": "addresss to query",
          "ids": "tokens to query"
        },
        "returns": {
          "_0": "token balances"
        }
      },
      "isApprovedForAll(address,address)": {
        "params": {
          "account": "address to query for approval granted",
          "operator": "address to query for approval received"
        },
        "returns": {
          "_0": "whether operator is approved to spend tokens held by account"
        }
      },
      "safeBatchTransferFrom(address,address,uint256[],uint256[],bytes)": {
        "params": {
          "amounts": "list of quantities of tokens to transfer",
          "data": "data payload",
          "from": "sender of tokens",
          "ids": "list of token IDs",
          "to": "receiver of tokens"
        }
      },
      "safeTransferFrom(address,address,uint256,uint256,bytes)": {
        "params": {
          "amount": "quantity of tokens to transfer",
          "data": "data payload",
          "from": "sender of tokens",
          "id": "token ID",
          "to": "receiver of tokens"
        }
      },
      "setApprovalForAll(address,bool)": {
        "params": {
          "operator": "address whose approval status to update",
          "status": "whether operator should be considered approved"
        }
      },
      "tokensByAccount(address)": {
        "params": {
          "account": "address to query"
        },
        "returns": {
          "_0": "list of token ids"
        }
      },
      "totalHolders(uint256)": {
        "params": {
          "id": "token id to query"
        },
        "returns": {
          "_0": "quantity of holders"
        }
      },
      "totalSupply(uint256)": {
        "params": {
          "id": "token id to query"
        },
        "returns": {
          "_0": "token supply"
        }
      }
    },
    "version": 1
  },
  "userdoc": {
    "kind": "user",
    "methods": {
      "accountsByToken(uint256)": {
        "notice": "query holders of given token"
      },
      "balanceOf(address,uint256)": {
        "notice": "query the balance of given token held by given address"
      },
      "balanceOfBatch(address[],uint256[])": {
        "notice": "query the balances of given tokens held by given addresses"
      },
      "isApprovedForAll(address,address)": {
        "notice": "query approval status of given operator with respect to given address"
      },
      "safeBatchTransferFrom(address,address,uint256[],uint256[],bytes)": {
        "notice": "transfer batch of tokens between given addresses, checking for ERC1155Receiver implementation if applicable"
      },
      "safeTransferFrom(address,address,uint256,uint256,bytes)": {
        "notice": "transfer tokens between given addresses, checking for ERC1155Receiver implementation if applicable"
      },
      "setApprovalForAll(address,bool)": {
        "notice": "grant approval to or revoke approval from given operator to spend held tokens"
      },
      "tokensByAccount(address)": {
        "notice": "query tokens held by given address"
      },
      "totalHolders(uint256)": {
        "notice": "query total number of holders for given token"
      },
      "totalSupply(uint256)": {
        "notice": "query total minted supply of given token"
      },
      "uri(uint256)": {
        "notice": "inheritdoc IERC1155Metadata"
      }
    },
    "version": 1
  },
  "storageLayout": {
    "storage": [],
    "types": null
  }
}