{
  "address": "0x01e38b21cbF54Bcce8d4cB644EE32d990C408607",
  "abi": [
    {
      "inputs": [],
      "name": "ERC1155Base__ArrayLengthMismatch",
      "type": "error"
    },
    {
      "inputs": [],
      "name": "ERC1155Base__BalanceQueryZeroAddress",
      "type": "error"
    },
    {
      "inputs": [],
      "name": "ERC1155Base__BurnExceedsBalance",
      "type": "error"
    },
    {
      "inputs": [],
      "name": "ERC1155Base__BurnFromZeroAddress",
      "type": "error"
    },
    {
      "inputs": [],
      "name": "ERC1155Base__ERC1155ReceiverNotImplemented",
      "type": "error"
    },
    {
      "inputs": [],
      "name": "ERC1155Base__ERC1155ReceiverRejected",
      "type": "error"
    },
    {
      "inputs": [],
      "name": "ERC1155Base__MintToZeroAddress",
      "type": "error"
    },
    {
      "inputs": [],
      "name": "ERC1155Base__NotOwnerOrApproved",
      "type": "error"
    },
    {
      "inputs": [],
      "name": "ERC1155Base__SelfApproval",
      "type": "error"
    },
    {
      "inputs": [],
      "name": "ERC1155Base__TransferExceedsBalance",
      "type": "error"
    },
    {
      "inputs": [],
      "name": "ERC1155Base__TransferToZeroAddress",
      "type": "error"
    },
    {
      "inputs": [],
      "name": "EnumerableSet__IndexOutOfBounds",
      "type": "error"
    },
    {
      "inputs": [],
      "name": "Items_InputsLengthMistatch",
      "type": "error"
    },
    {
      "inputs": [],
      "name": "Items_InvalidItemId",
      "type": "error"
    },
    {
      "inputs": [],
      "name": "Items_ItemsBasicStatusAlreadyUpdated",
      "type": "error"
    },
    {
      "inputs": [],
      "name": "Items_MaximumItemMintsExceeded",
      "type": "error"
    },
    {
      "inputs": [],
      "name": "Items_MintingNonBasicItem",
      "type": "error"
    },
    {
      "inputs": [],
      "name": "Merkle_AlreadyClaimed",
      "type": "error"
    },
    {
      "inputs": [],
      "name": "Merkle_ClaimInactive",
      "type": "error"
    },
    {
      "inputs": [],
      "name": "Merkle_ClaimStateAlreadyUpdated",
      "type": "error"
    },
    {
      "inputs": [],
      "name": "Merkle_InvalidClaimAmount",
      "type": "error"
    },
    {
      "inputs": [],
      "name": "Merkle_NotIncludedInMerkleTree",
      "type": "error"
    },
    {
      "inputs": [],
      "name": "ReentrancyGuard__ReentrantCall",
      "type": "error"
    },
    {
      "inputs": [],
      "name": "UintUtils__InsufficientHexLength",
      "type": "error"
    },
    {
      "inputs": [],
      "name": "Whitelist_ClaimInactive",
      "type": "error"
    },
    {
      "inputs": [],
      "name": "Whitelist_ClaimStateAlreadyUpdated",
      "type": "error"
    },
    {
      "inputs": [],
      "name": "Whitelist_ExceedsElegibleAmount",
      "type": "error"
    },
    {
      "inputs": [],
      "name": "Whitelist_InputDataMismatch",
      "type": "error"
    },
    {
      "anonymous": false,
      "inputs": [
        {
          "indexed": true,
          "internalType": "address",
          "name": "account",
          "type": "address"
        },
        {
          "indexed": true,
          "internalType": "address",
          "name": "operator",
          "type": "address"
        },
        {
          "indexed": false,
          "internalType": "bool",
          "name": "approved",
          "type": "bool"
        }
      ],
      "name": "ApprovalForAll",
      "type": "event"
    },
    {
      "anonymous": false,
      "inputs": [
        {
          "indexed": true,
          "internalType": "address",
          "name": "to",
          "type": "address"
        },
        {
          "indexed": true,
          "internalType": "uint256",
          "name": "itemId",
          "type": "uint256"
        },
        {
          "indexed": false,
          "internalType": "uint256",
          "name": "amount",
          "type": "uint256"
        }
      ],
      "name": "ItemClaimedMerkle",
      "type": "event"
    },
    {
      "anonymous": false,
      "inputs": [
        {
          "indexed": true,
          "internalType": "bytes32",
          "name": "role",
          "type": "bytes32"
        },
        {
          "indexed": true,
          "internalType": "bytes32",
          "name": "previousAdminRole",
          "type": "bytes32"
        },
        {
          "indexed": true,
          "internalType": "bytes32",
          "name": "newAdminRole",
          "type": "bytes32"
        }
      ],
      "name": "RoleAdminChanged",
      "type": "event"
    },
    {
      "anonymous": false,
      "inputs": [
        {
          "indexed": true,
          "internalType": "bytes32",
          "name": "role",
          "type": "bytes32"
        },
        {
          "indexed": true,
          "internalType": "address",
          "name": "account",
          "type": "address"
        },
        {
          "indexed": true,
          "internalType": "address",
          "name": "sender",
          "type": "address"
        }
      ],
      "name": "RoleGranted",
      "type": "event"
    },
    {
      "anonymous": false,
      "inputs": [
        {
          "indexed": true,
          "internalType": "bytes32",
          "name": "role",
          "type": "bytes32"
        },
        {
          "indexed": true,
          "internalType": "address",
          "name": "account",
          "type": "address"
        },
        {
          "indexed": true,
          "internalType": "address",
          "name": "sender",
          "type": "address"
        }
      ],
      "name": "RoleRevoked",
      "type": "event"
    },
    {
      "anonymous": false,
      "inputs": [
        {
          "indexed": true,
          "internalType": "address",
          "name": "operator",
          "type": "address"
        },
        {
          "indexed": true,
          "internalType": "address",
          "name": "from",
          "type": "address"
        },
        {
          "indexed": true,
          "internalType": "address",
          "name": "to",
          "type": "address"
        },
        {
          "indexed": false,
          "internalType": "uint256[]",
          "name": "ids",
          "type": "uint256[]"
        },
        {
          "indexed": false,
          "internalType": "uint256[]",
          "name": "values",
          "type": "uint256[]"
        }
      ],
      "name": "TransferBatch",
      "type": "event"
    },
    {
      "anonymous": false,
      "inputs": [
        {
          "indexed": true,
          "internalType": "address",
          "name": "operator",
          "type": "address"
        },
        {
          "indexed": true,
          "internalType": "address",
          "name": "from",
          "type": "address"
        },
        {
          "indexed": true,
          "internalType": "address",
          "name": "to",
          "type": "address"
        },
        {
          "indexed": false,
          "internalType": "uint256",
          "name": "id",
          "type": "uint256"
        },
        {
          "indexed": false,
          "internalType": "uint256",
          "name": "value",
          "type": "uint256"
        }
      ],
      "name": "TransferSingle",
      "type": "event"
    },
    {
      "anonymous": false,
      "inputs": [
        {
          "indexed": false,
          "internalType": "string",
          "name": "value",
          "type": "string"
        },
        {
          "indexed": true,
          "internalType": "uint256",
          "name": "tokenId",
          "type": "uint256"
        }
      ],
      "name": "URI",
      "type": "event"
    },
    {
      "anonymous": false,
      "inputs": [
        {
          "indexed": false,
          "internalType": "address",
          "name": "account",
          "type": "address"
        },
        {
          "indexed": false,
          "internalType": "enum WhitelistStorage.PoolId",
          "name": "poolId",
          "type": "uint8"
        },
        {
          "indexed": false,
          "internalType": "uint256",
          "name": "totalElegibleAmount",
          "type": "uint256"
        },
        {
          "indexed": false,
          "internalType": "uint256",
          "name": "totalClaimedAmount",
          "type": "uint256"
        }
      ],
      "name": "WhitelistBalanceChanged",
      "type": "event"
    },
    {
      "inputs": [
        {
          "internalType": "uint256",
          "name": "id",
          "type": "uint256"
        }
      ],
      "name": "accountsByToken",
      "outputs": [
        {
          "internalType": "address[]",
          "name": "",
          "type": "address[]"
        }
      ],
      "stateMutability": "view",
      "type": "function"
    },
    {
      "inputs": [
        {
          "internalType": "address",
          "name": "account",
          "type": "address"
        },
        {
          "internalType": "uint256",
          "name": "id",
          "type": "uint256"
        }
      ],
      "name": "balanceOf",
      "outputs": [
        {
          "internalType": "uint256",
          "name": "",
          "type": "uint256"
        }
      ],
      "stateMutability": "view",
      "type": "function"
    },
    {
      "inputs": [
        {
          "internalType": "address[]",
          "name": "accounts",
          "type": "address[]"
        },
        {
          "internalType": "uint256[]",
          "name": "ids",
          "type": "uint256[]"
        }
      ],
      "name": "balanceOfBatch",
      "outputs": [
        {
          "internalType": "uint256[]",
          "name": "",
          "type": "uint256[]"
        }
      ],
      "stateMutability": "view",
      "type": "function"
    },
    {
      "inputs": [],
      "name": "basicItems",
      "outputs": [
        {
          "internalType": "uint256[]",
          "name": "itemIds",
          "type": "uint256[]"
        }
      ],
      "stateMutability": "view",
      "type": "function"
    },
    {
      "inputs": [
        {
          "internalType": "uint256",
          "name": "itemId",
          "type": "uint256"
        },
        {
          "internalType": "uint256",
          "name": "amount",
          "type": "uint256"
        },
        {
          "internalType": "bytes32[]",
          "name": "proof",
          "type": "bytes32[]"
        }
      ],
      "name": "claimMerkle",
      "outputs": [],
      "stateMutability": "nonpayable",
      "type": "function"
    },
    {
      "inputs": [
        {
          "internalType": "uint256[]",
          "name": "itemsIds",
          "type": "uint256[]"
        },
        {
          "internalType": "uint256[]",
          "name": "amounts",
          "type": "uint256[]"
        },
        {
          "internalType": "bytes32[][]",
          "name": "proofs",
          "type": "bytes32[][]"
        }
      ],
      "name": "claimMerkleBatch",
      "outputs": [],
      "stateMutability": "nonpayable",
      "type": "function"
    },
    {
      "inputs": [
        {
          "internalType": "uint256[]",
          "name": "itemIds",
          "type": "uint256[]"
        },
        {
          "internalType": "uint256[]",
          "name": "amounts",
          "type": "uint256[]"
        }
      ],
      "name": "claimWhitelist",
      "outputs": [],
      "stateMutability": "nonpayable",
      "type": "function"
    },
    {
      "inputs": [
        {
          "internalType": "address",
          "name": "account",
          "type": "address"
        },
        {
          "internalType": "uint256",
          "name": "itemId",
          "type": "uint256"
        }
      ],
      "name": "claimedAmount",
      "outputs": [
        {
          "internalType": "uint256",
          "name": "amount",
          "type": "uint256"
        }
      ],
      "stateMutability": "view",
      "type": "function"
    },
    {
      "inputs": [
        {
          "internalType": "address",
          "name": "account",
          "type": "address"
        },
        {
          "internalType": "address",
          "name": "operator",
          "type": "address"
        }
      ],
      "name": "isApprovedForAll",
      "outputs": [
        {
          "internalType": "bool",
          "name": "",
          "type": "bool"
        }
      ],
      "stateMutability": "view",
      "type": "function"
    },
    {
      "inputs": [
        {
          "internalType": "uint256",
          "name": "itemId",
          "type": "uint256"
        }
      ],
      "name": "isBasic",
      "outputs": [
        {
          "internalType": "bool",
          "name": "",
          "type": "bool"
        }
      ],
      "stateMutability": "view",
      "type": "function"
    },
    {
      "inputs": [
        {
          "internalType": "string",
          "name": "newBaseURI",
          "type": "string"
        },
        {
          "internalType": "bool",
          "name": "migrate",
          "type": "bool"
        }
      ],
      "name": "migrateToIPFS",
      "outputs": [],
      "stateMutability": "nonpayable",
      "type": "function"
    },
    {
      "inputs": [
        {
          "internalType": "address",
          "name": "to",
          "type": "address"
        },
        {
          "internalType": "uint256",
          "name": "itemId",
          "type": "uint256"
        },
        {
          "internalType": "uint256",
          "name": "amount",
          "type": "uint256"
        }
      ],
      "name": "mint",
      "outputs": [],
      "stateMutability": "nonpayable",
      "type": "function"
    },
    {
      "inputs": [
        {
          "internalType": "address",
          "name": "to",
          "type": "address"
        },
        {
          "internalType": "uint256[]",
          "name": "itemIds",
          "type": "uint256[]"
        },
        {
          "internalType": "uint256[]",
          "name": "amounts",
          "type": "uint256[]"
        }
      ],
      "name": "mintBatch",
      "outputs": [],
      "stateMutability": "nonpayable",
      "type": "function"
    },
    {
      "inputs": [
        {
          "internalType": "bytes[]",
          "name": "data",
          "type": "bytes[]"
        }
      ],
      "name": "multicall",
      "outputs": [
        {
          "internalType": "bytes[]",
          "name": "results",
          "type": "bytes[]"
        }
      ],
      "stateMutability": "nonpayable",
      "type": "function"
    },
    {
      "inputs": [
        {
          "internalType": "address",
          "name": "from",
          "type": "address"
        },
        {
          "internalType": "address",
          "name": "to",
          "type": "address"
        },
        {
          "internalType": "uint256[]",
          "name": "ids",
          "type": "uint256[]"
        },
        {
          "internalType": "uint256[]",
          "name": "amounts",
          "type": "uint256[]"
        },
        {
          "internalType": "bytes",
          "name": "data",
          "type": "bytes"
        }
      ],
      "name": "safeBatchTransferFrom",
      "outputs": [],
      "stateMutability": "nonpayable",
      "type": "function"
    },
    {
      "inputs": [
        {
          "internalType": "address",
          "name": "from",
          "type": "address"
        },
        {
          "internalType": "address",
          "name": "to",
          "type": "address"
        },
        {
          "internalType": "uint256",
          "name": "id",
          "type": "uint256"
        },
        {
          "internalType": "uint256",
          "name": "amount",
          "type": "uint256"
        },
        {
          "internalType": "bytes",
          "name": "data",
          "type": "bytes"
        }
      ],
      "name": "safeTransferFrom",
      "outputs": [],
      "stateMutability": "nonpayable",
      "type": "function"
    },
    {
      "inputs": [
        {
          "internalType": "address",
          "name": "operator",
          "type": "address"
        },
        {
          "internalType": "bool",
          "name": "status",
          "type": "bool"
        }
      ],
      "name": "setApprovalForAll",
      "outputs": [],
      "stateMutability": "nonpayable",
      "type": "function"
    },
    {
      "inputs": [
        {
          "internalType": "string",
          "name": "baseURI",
          "type": "string"
        }
      ],
      "name": "setBaseURI",
      "outputs": [],
      "stateMutability": "nonpayable",
      "type": "function"
    },
    {
      "inputs": [
        {
          "internalType": "uint256",
          "name": "itemId",
          "type": "uint256"
        },
        {
          "internalType": "bool",
          "name": "basic",
          "type": "bool"
        }
      ],
      "name": "setBasic",
      "outputs": [],
      "stateMutability": "nonpayable",
      "type": "function"
    },
    {
      "inputs": [
        {
          "internalType": "uint256[]",
          "name": "itemIds",
          "type": "uint256[]"
        },
        {
          "internalType": "bool[]",
          "name": "basic",
          "type": "bool[]"
        }
      ],
      "name": "setBasicBatch",
      "outputs": [],
      "stateMutability": "nonpayable",
      "type": "function"
    },
    {
      "inputs": [
        {
          "internalType": "uint256",
          "name": "tokenId",
          "type": "uint256"
        },
        {
          "internalType": "string",
          "name": "tokenURI",
          "type": "string"
        }
      ],
      "name": "setTokenURI",
      "outputs": [],
      "stateMutability": "nonpayable",
      "type": "function"
    },
    {
      "inputs": [
        {
          "internalType": "bytes4",
          "name": "_interface",
          "type": "bytes4"
        }
      ],
      "name": "supportsInterface",
      "outputs": [
        {
          "internalType": "bool",
          "name": "",
          "type": "bool"
        }
      ],
      "stateMutability": "pure",
      "type": "function"
    },
    {
      "inputs": [
        {
          "internalType": "address",
          "name": "account",
          "type": "address"
        }
      ],
      "name": "tokensByAccount",
      "outputs": [
        {
          "internalType": "uint256[]",
          "name": "",
          "type": "uint256[]"
        }
      ],
      "stateMutability": "view",
      "type": "function"
    },
    {
      "inputs": [
        {
          "internalType": "uint256",
          "name": "id",
          "type": "uint256"
        }
      ],
      "name": "totalHolders",
      "outputs": [
        {
          "internalType": "uint256",
          "name": "",
          "type": "uint256"
        }
      ],
      "stateMutability": "view",
      "type": "function"
    },
    {
      "inputs": [
        {
          "internalType": "uint256",
          "name": "id",
          "type": "uint256"
        }
      ],
      "name": "totalSupply",
      "outputs": [
        {
          "internalType": "uint256",
          "name": "",
          "type": "uint256"
        }
      ],
      "stateMutability": "view",
      "type": "function"
    },
    {
      "inputs": [
        {
          "internalType": "uint256",
          "name": "tokenId",
          "type": "uint256"
        }
      ],
      "name": "uri",
      "outputs": [
        {
          "internalType": "string",
          "name": "",
          "type": "string"
        }
      ],
      "stateMutability": "view",
      "type": "function"
    }
  ],
  "transactionHash": "0xc90cc948bebc05cfe7a81fa8d79570d9fd89136eba9d9c58ef164ae018324c6d",
  "args": [],
  "numDeployments": 3,
  "solcInputHash": "1ba264ed86b96569495ccba9dfb3547c",
  "bytecode": "0x608060405234801561001057600080fd5b50613c23806100206000396000f3fe608060405234801561001057600080fd5b506004361061018d5760003560e01c806355f804b3116100de578063ac9650d811610097578063ceb60ee611610071578063ceb60ee614610393578063d81d0a15146103a6578063e985e9c5146103b9578063f242432a146103cc57600080fd5b8063ac9650d81461034d578063bd85b0391461036d578063cdc11b111461038057600080fd5b806355f804b3146102d95780636dcfd841146102ec57806384118c5d1461030c57806385bff2e71461031f5780639cbf461514610332578063a22cb4651461033a57600080fd5b8063162094c41161014b578063471cf1bc11610125578063471cf1bc146102805780634e1273f4146102935780634f7fb332146102b357806355b4b1a4146102c657600080fd5b8063162094c4146102475780632eb2c2d61461025a57806346fac3ee1461026d57600080fd5b8062fdd58e1461019257806301ffc9a7146101b85780630e89341c146101ec5780630fd6d21b1461020c57806313ba55df14610221578063156e29f614610234575b600080fd5b6101a56101a0366004612c8d565b6103df565b6040519081526020015b60405180910390f35b6101dc6101c6366004612ccd565b6001600160e01b031916636cdb3d1360e11b1490565b60405190151581526020016101af565b6101ff6101fa366004612cea565b6103f4565b6040516101af9190612d53565b61021f61021a366004612d76565b61045e565b005b6101a561022f366004612cea565b61048a565b61021f610242366004612da2565b610495565b61021f610255366004612e1d565b6104a5565b61021f610268366004612fb1565b6104fe565b6101dc61027b366004612cea565b610550565b61021f61028e36600461309e565b610586565b6102a66102a1366004613109565b6105b1565b6040516101af919061320e565b61021f6102c1366004613221565b61071b565b6101a56102d4366004612c8d565b61077d565b61021f6102e73660046132ba565b6107b3565b6102ff6102fa366004612cea565b61080b565b6040516101af91906132fb565b61021f61031a366004613348565b610816565b6102a661032d36600461338e565b6108a6565b6102a66108b1565b61021f6103483660046133a9565b610928565b61036061035b3660046133d3565b6109dc565b6040516101af9190613408565b6101a561037b366004612cea565b610af6565b61021f61038e36600461346a565b610b29565b61021f6103a136600461309e565b610b4d565b61021f6103b43660046134bd565b610b59565b6101dc6103c736600461353d565b610b66565b61021f6103da366004613567565b610bb3565b60006103eb8383610bfe565b90505b92915050565b7f333d4b734a9ca3847483bf4c14a14709d21907ff5f12a881347e2fb2ad8906d75460609060ff16156104505761042a82610c5c565b60405160200161043a91906135cb565b6040516020818303038152906040529050919050565b6103ee82610c5c565b919050565b61047c610477600080516020613b8e8339815191525490565b610e2b565b6104868282610e38565b5050565b60006103ee82610e50565b6104a0838383610e86565b505050565b6104be610477600080516020613b8e8339815191525490565b6104a08383838080601f016020809104026020016040519081016040528093929190818152602001838380828437600092019190915250610f7c92505050565b6001600160a01b038516331480159061051e575061051c8533610b66565b155b1561053b576040516212efed60e91b815260040160405180910390fd5b610549338686868686610ff0565b5050505050565b60008181527f333d4b734a9ca3847483bf4c14a14709d21907ff5f12a881347e2fb2ad8906d8602052604081205460ff166103ee565b61059f610477600080516020613b8e8339815191525490565b6105ab84848484611014565b50505050565b606081518351146105d557604051633e7e0b6d60e11b815260040160405180910390fd5b8251600080516020613bce833981519152906000906001600160401b0381111561060157610601612e68565b60405190808252806020026020018201604052801561062a578160200160208202803683370190505b50905060005b85518110156107125760006001600160a01b0316868281518110610656576106566135f4565b60200260200101516001600160a01b0316036106855760405163db5d879760e01b815260040160405180910390fd5b82600086838151811061069a5761069a6135f4565b6020026020010151815260200190815260200160002060008783815181106106c4576106c46135f4565b60200260200101516001600160a01b03166001600160a01b03168152602001908152602001600020548282815181106106ff576106ff6135f4565b6020908102919091010152600101610630565b50949350505050565b7f09acf4e54214992e70883cf7dcd6957ff2c71cd9e14df4bec4383bc0d11607dc805460020361075e57604051635db5c7cd60e11b815260040160405180910390fd5b6002815561077133888888888888611079565b60019055505050505050565b6001600160a01b0382166000908152600080516020613bae833981519152602090815260408083208484529091528120546103eb565b6107cc610477600080516020613b8e8339815191525490565b61048682828080601f01602080910402602001604051908101604052809392919081815260200183838082843760009201919091525061115192505050565b60606103ee8261117c565b7f09acf4e54214992e70883cf7dcd6957ff2c71cd9e14df4bec4383bc0d11607dc805460020361085957604051635db5c7cd60e11b815260040160405180910390fd5b60028155604080516020808502828101820190935284825261089c9233928992899289918991829185019084908082843760009201919091525061124f92505050565b6001905550505050565b60606103ee82611325565b60607f333d4b734a9ca3847483bf4c14a14709d21907ff5f12a881347e2fb2ad8906d980548060200260200160405190810160405280929190818152602001828054801561091e57602002820191906000526020600020905b81548152602001906001019080831161090a575b5050505050905090565b6001600160a01b038216330361095157604051637b30a93360e11b815260040160405180910390fd5b3360008181527f1799cf914cb0cb442ca7c7ac709ee40d0cb89e87351dc08d517fbda27d50c68c602090815260408083206001600160a01b03871680855290835292819020805460ff191686151590811790915590519081529192917f17307eab39ab6107e8899845ad3d59bd9653f200f220920489ca2b5937696c31910160405180910390a35050565b6060816001600160401b038111156109f6576109f6612e68565b604051908082528060200260200182016040528015610a2957816020015b6060815260200190600190039081610a145790505b50905060005b82811015610aef5760008030868685818110610a4d57610a4d6135f4565b9050602002810190610a5f919061360a565b604051610a6d929190613650565b600060405180830381855af49150503d8060008114610aa8576040519150601f19603f3d011682016040523d82523d6000602084013e610aad565b606091505b50915091508115610adb5780848481518110610acb57610acb6135f4565b6020026020010181905250610ae5565b3d6000803e3d6000fd5b5050600101610a2f565b5092915050565b60008181527fb31c2c74f86ca3ce94d901f5f5bbe66f7161eec2f7b5aa0b75a86371436424ea60205260408120546103ee565b610b42610477600080516020613b8e8339815191525490565b6104a08383836113ed565b6105ab84848484611460565b610549858585858561150c565b6001600160a01b0391821660009081527f1799cf914cb0cb442ca7c7ac709ee40d0cb89e87351dc08d517fbda27d50c68c6020908152604080832093909416825291909152205460ff1690565b6001600160a01b0385163314801590610bd35750610bd18533610b66565b155b15610bf0576040516212efed60e91b815260040160405180910390fd5b6105493386868686866116fb565b60006001600160a01b038316610c275760405163db5d879760e01b815260040160405180910390fd5b600080516020613bce8339815191526000928352602090815260408084206001600160a01b0395909516845293905250205490565b60008181527f4281b61aefbe70b3d3f684b428efca5f33077bc240e76f2808f9177c307617f56020526040812080546060927f4281b61aefbe70b3d3f684b428efca5f33077bc240e76f2808f9177c307617f4929091610cbb90613660565b80601f0160208091040260200160405190810160405280929190818152602001828054610ce790613660565b8015610d345780601f10610d0957610100808354040283529160200191610d34565b820191906000526020600020905b815481529060010190602001808311610d1757829003601f168201915b505050505090506000826000018054610d4c90613660565b80601f0160208091040260200160405190810160405280929190818152602001828054610d7890613660565b8015610dc55780601f10610d9a57610100808354040283529160200191610dc5565b820191906000526020600020905b815481529060010190602001808311610da857829003601f168201915b505050505090508051600003610ddd57509392505050565b815115610e10578082604051602001610df792919061369a565b6040516020818303038152906040529350505050919050565b80610e1a86611717565b604051602001610df792919061369a565b610e35813361181f565b50565b8015610e47576104868261188a565b6104868261191d565b60008181527fb31c2c74f86ca3ce94d901f5f5bbe66f7161eec2f7b5aa0b75a86371436424eb602052604081206103ee90611a57565b6001821015610ea85760405163225c19bb60e11b815260040160405180910390fd5b610ed9610ed37ff6deb63e40d71b08820818e006e23fcceb1fce7a499bc15b71b2526cbf9efa735490565b33611a61565b610f615760008281527f333d4b734a9ca3847483bf4c14a14709d21907ff5f12a881347e2fb2ad8906d8602052604090205460ff16610f2b576040516339fe614360e01b815260040160405180910390fd5b600381610f383385610bfe565b610f4291906136df565b1115610f61576040516344dfbe5360e11b815260040160405180910390fd5b6104a083838360405180602001604052806000815250611a98565b60008281527f4281b61aefbe70b3d3f684b428efca5f33077bc240e76f2808f9177c307617f560205260409020610fb38282613738565b50817f6bb7ff708619ba0610cba295a58592e0451dee2622938c8755667688daf3529b82604051610fe49190612d53565b60405180910390a25050565b610ffe868686868686611b71565b61100c868686868686611d1a565b505050505050565b60005b8381101561054957611067858583818110611034576110346135f4565b9050602002013584848481811061104d5761104d6135f4565b905060200201602081019061106291906137f7565b610e38565b8061107181613812565b915050611017565b84831461109957604051634e98d26360e01b815260040160405180910390fd5b60005b8581101561114757611135888888848181106110ba576110ba6135f4565b905060200201358787858181106110d3576110d36135f4565b905060200201358686868181106110ec576110ec6135f4565b90506020028101906110fe919061382b565b8080602002602001604051908101604052809392919081815260200183836020028082843760009201919091525061124f92505050565b8061113f81613812565b91505061109c565b5050505050505050565b7f4281b61aefbe70b3d3f684b428efca5f33077bc240e76f2808f9177c307617f46104868282613738565b60008181527fb31c2c74f86ca3ce94d901f5f5bbe66f7161eec2f7b5aa0b75a86371436424eb602052604081206060916111b582611a57565b6001600160401b038111156111cc576111cc612e68565b6040519080825280602002602001820160405280156111f5578160200160208202803683370190505b50905060005b61120483611a57565b811015611247576112158382611e33565b828281518110611227576112276135f4565b6001600160a01b03909216602092830291909101909101526001016111fb565b509392505050565b604080516001600160a01b03861660208201528082018590526060808201859052825180830390910181526080909101909152600080516020613bae8339815191529061129c8382611e3f565b6112a7868686610e86565b6001600160a01b038616600090815260208381526040808320888452909152812080548692906112d89084906136df565b909155505060405184815285906001600160a01b038816907fd4307fb1338aefb2a030cf5ea0f582a10d28ffee99fe253e5d48946f9a74a59f9060200160405180910390a3505050505050565b6001600160a01b03811660009081527fb31c2c74f86ca3ce94d901f5f5bbe66f7161eec2f7b5aa0b75a86371436424ec6020526040812060609161136882611a57565b6001600160401b0381111561137f5761137f612e68565b6040519080825280602002602001820160405280156113a8578160200160208202803683370190505b50905060005b6113b783611a57565b811015611247576113c88382611e33565b8282815181106113da576113da6135f4565b60209081029190910101526001016113ae565b61142c83838080601f01602080910402602001604051908101604052809392919081815260200183838082843760009201919091525061115192505050565b7f333d4b734a9ca3847483bf4c14a14709d21907ff5f12a881347e2fb2ad8906d7805460ff19169115159190911790555050565b82811461148057604051634e98d26360e01b815260040160405180910390fd5b6000805b848110156114ff576114c7338787848181106114a2576114a26135f4565b905060200201358686858181106114bb576114bb6135f4565b90506020020135610e86565b8383828181106114d9576114d96135f4565b90506020020135826114eb91906136df565b9150806114f781613812565b915050611484565b5061054960003383611f89565b600161154a8585808060200260200160405190810160405280939291908181526020018383602002808284376000920191909152506122f392505050565b10156115695760405163225c19bb60e11b815260040160405180910390fd5b611594610ed37ff6deb63e40d71b08820818e006e23fcceb1fce7a499bc15b71b2526cbf9efa735490565b61167f57600080516020613bae83398151915260005b8481101561167c578160020160008787848181106115ca576115ca6135f4565b602090810292909201358352508101919091526040016000205460ff16611604576040516339fe614360e01b815260040160405180910390fd5b6003848483818110611618576116186135f4565b9050602002013561164133898986818110611635576116356135f4565b90506020020135610bfe565b61164b91906136df565b111561166a576040516344dfbe5360e11b815260040160405180910390fd5b8061167481613812565b9150506115aa565b50505b6105498585858080602002602001604051908101604052809392919081815260200183836020028082843760009201919091525050604080516020808902828101820190935288825290935088925087918291850190849080828437600092018290525060408051602081019091529081529250612349915050565b6117098686868686866124a0565b61100c8686868686866125b6565b60608160000361173e5750506040805180820190915260018152600360fc1b602082015290565b8160005b8115611768578061175281613812565b91506117619050600a8361388a565b9150611742565b6000816001600160401b0381111561178257611782612e68565b6040519080825280601f01601f1916602001820160405280156117ac576020820181803683370190505b5090505b8415611817576117c160018361389e565b91506117ce600a866138b1565b6117d99060306136df565b60f81b8183815181106117ee576117ee6135f4565b60200101906001600160f81b031916908160001a905350611810600a8661388a565b94506117b0565b949350505050565b6118298282611a61565b6104865761183f816001600160a01b0316612672565b61184a836020612684565b60405160200161185b9291906138c5565b60408051601f198184030181529082905262461bcd60e51b825261188191600401612d53565b60405180910390fd5b60008181527f333d4b734a9ca3847483bf4c14a14709d21907ff5f12a881347e2fb2ad8906d86020526040902054600080516020613bae8339815191529060ff16156118e95760405163b37b5a1760e01b815260040160405180910390fd5b600082815260028201602090815260408220805460ff19166001908117909155600390930180549384018155825290200155565b60008181527f333d4b734a9ca3847483bf4c14a14709d21907ff5f12a881347e2fb2ad8906d86020526040902054600080516020613bae8339815191529060ff1661197b5760405163b37b5a1760e01b815260040160405180910390fd5b600381015460005b81811015611a3c57838360030182815481106119a1576119a16135f4565b906000526020600020015403611a2a57600383016119c060018461389e565b815481106119d0576119d06135f4565b90600052602060002001548360030182815481106119f0576119f06135f4565b60009182526020909120015560038301805480611a0f57611a0f61393a565b60019003818190600052602060002001600090559055611a3c565b80611a3481613812565b915050611983565b5050600091825260020160205260409020805460ff19169055565b60006103ee825490565b60008281527fd3889cc5458b268d0544e5534672df1296288ca3f93cbd39bd6f497a5c622811602052604081206103eb90836127d6565b6001600160a01b038416611abf576040516301c8efbf60e11b815260040160405180910390fd5b611ade33600086611acf876127f8565b611ad8876127f8565b86612843565b6000838152600080516020613bce833981519152602090815260408083206001600160a01b038816845290915281208054849290611b1d9084906136df565b909155505060408051848152602081018490526001600160a01b0386169160009133917fc3d58168c5ae7397731d063d5bbf3d657854427343f4c083240f7aacaa2d0f62910160405180910390a450505050565b6001600160a01b038416611b985760405163f5cadad560e01b815260040160405180910390fd5b8151835114611bba57604051633e7e0b6d60e11b815260040160405180910390fd5b611bc8868686868686612843565b600080516020613bce83398151915260005b8451811015611cb9576000858281518110611bf757611bf76135f4565b602002602001015190506000858381518110611c1557611c156135f4565b602090810291909101810151600084815286835260408082206001600160a01b038e168352909352919091205490915080821115611c665760405163119ac6bb60e31b815260040160405180910390fd5b6000838152602086815260408083206001600160a01b038e811685529252808320938590039093558a168152908120805460019590950194839290611cac9084906136df565b90915550611bda92505050565b50846001600160a01b0316866001600160a01b0316886001600160a01b03167f4a39dc06d4c0dbc64b70af90fd698a233a518aa5d07e595d983b8c0526c8f7fb8787604051611d09929190613950565b60405180910390a450505050505050565b6001600160a01b0384163b1561100c5760405163bc197c8160e01b81526001600160a01b0385169063bc197c8190611d5e908990899088908890889060040161397e565b6020604051808303816000875af1925050508015611d99575060408051601f3d908101601f19168201909252611d96918101906139dc565b60015b611df957611da56139f9565b806308c379a003611dde5750611db9613a15565b80611dc45750611de0565b8060405162461bcd60e51b81526004016118819190612d53565b505b60405163380147a960e01b815260040160405180910390fd5b6001600160e01b0319811663bc197c8160e01b14611e2a57604051633744db2960e01b815260040160405180910390fd5b50505050505050565b60006103eb8383612851565b7f7a07c093b55ad04e200605cb287859fe4640b7310d62fdbb044e26399da78c09547f7a07c093b55ad04e200605cb287859fe4640b7310d62fdbb044e26399da78c089060ff1615611ea45760405163a2f902f160e01b815260040160405180910390fd5b600083604051602001611eb79190613a9e565b60408051601f19818403018152918152815160209283012060008181526002860190935291205490915060ff1615611f025760405163dea0a45b60e01b815260040160405180910390fd5b60008380519060200120604051602001611f1e91815260200190565b6040516020818303038152906040528051906020012090506000611f478685600001548461289d565b905080611f6757604051631006f83b60e31b815260040160405180910390fd5b50506000908152600290910160205260409020805460ff191660011790555050565b7ff38d3885e664c9638de25f02e645e1955ebebe901d7be2c2037db6a5bcbb3588806000856001811115611fbf57611fbf613ad4565b6001811115611fd057611fd0613ad4565b815260208101919091526040016000206004015460ff1661200457604051633137c0e960e11b815260040160405180910390fd5b8181600086600181111561201a5761201a613ad4565b600181111561202b5761202b613ad4565b81526020019081526020016000206001016000856001600160a01b03166001600160a01b0316815260200190815260200160002054101561207f57604051630f8a2c5f60e31b815260040160405180910390fd5b8181600086600181111561209557612095613ad4565b60018111156120a6576120a6613ad4565b81526020019081526020016000206001016000856001600160a01b03166001600160a01b0316815260200190815260200160002060008282546120e9919061389e565b9091555082905081600086600181111561210557612105613ad4565b600181111561211657612116613ad4565b81526020019081526020016000206000016000856001600160a01b03166001600160a01b03168152602001908152602001600020600082825461215991906136df565b9091555082905081600086600181111561217557612175613ad4565b600181111561218657612186613ad4565b815260200190815260200160002060020160008282546121a691906136df565b909155508290508160008660018111156121c2576121c2613ad4565b60018111156121d3576121d3613ad4565b815260200190815260200160002060030160008282546121f3919061389e565b909155507f6526db8cb857c3bc972db45a7984e99efaed17f7a4e51afb85c64450133cb55c9050838583600082600181111561223157612231613ad4565b600181111561224257612242613ad4565b81526020019081526020016000206001016000876001600160a01b03166001600160a01b031681526020019081526020016000205484600001600089600181111561228f5761228f613ad4565b60018111156122a0576122a0613ad4565b81526020019081526020016000206000016000886001600160a01b03166001600160a01b03168152602001908152602001600020546040516122e59493929190613aea565b60405180910390a150505050565b6000600019815b8351811015610aef5781848281518110612316576123166135f4565b6020026020010151101561234157838181518110612336576123366135f4565b602002602001015191505b6001016122fa565b6001600160a01b038416612370576040516301c8efbf60e11b815260040160405180910390fd5b815183511461239257604051633e7e0b6d60e11b815260040160405180910390fd5b6123a133600086868686612843565b600080516020613bce83398151915260005b8451811015612440578381815181106123ce576123ce6135f4565b60200260200101518260008784815181106123eb576123eb6135f4565b602002602001015181526020019081526020016000206000886001600160a01b03166001600160a01b03168152602001908152602001600020600082825461243391906136df565b90915550506001016123b3565b50846001600160a01b031660006001600160a01b0316336001600160a01b03167f4a39dc06d4c0dbc64b70af90fd698a233a518aa5d07e595d983b8c0526c8f7fb8787604051612491929190613950565b60405180910390a45050505050565b6001600160a01b0384166124c75760405163f5cadad560e01b815260040160405180910390fd5b6124d6868686611acf876127f8565b6000838152600080516020613bce833981519152602081815260408084206001600160a01b038a16855290915290912054808411156125285760405163119ac6bb60e31b815260040160405180910390fd5b6000858152602083815260408083206001600160a01b038b811685529252808320938790039093558716815290812080548592906125679084906136df565b909155505060408051858152602081018590526001600160a01b038088169289821692918b16917fc3d58168c5ae7397731d063d5bbf3d657854427343f4c083240f7aacaa2d0f629101611d09565b6001600160a01b0384163b1561100c5760405163f23a6e6160e01b81526001600160a01b0385169063f23a6e61906125fa9089908990889088908890600401613b33565b6020604051808303816000875af1925050508015612635575060408051601f3d908101601f19168201909252612632918101906139dc565b60015b61264157611da56139f9565b6001600160e01b0319811663f23a6e6160e01b14611e2a57604051633744db2960e01b815260040160405180910390fd5b60606103ee6001600160a01b03831660145b60606000612693836002613b76565b61269e9060026136df565b6001600160401b038111156126b5576126b5612e68565b6040519080825280601f01601f1916602001820160405280156126df576020820181803683370190505b509050600360fc1b816000815181106126fa576126fa6135f4565b60200101906001600160f81b031916908160001a905350600f60fb1b81600181518110612729576127296135f4565b60200101906001600160f81b031916908160001a905350600160028402015b60018111156127b6576f181899199a1a9b1b9c1cb0b131b232b360811b85600f1660108110612779576127796135f4565b1a60f81b82828151811061278f5761278f6135f4565b60200101906001600160f81b031916908160001a90535060049490941c9360001901612748565b5083156103eb5760405163c913478560e01b815260040160405180910390fd5b6001600160a01b038116600090815260018301602052604081205415156103eb565b60408051600180825281830190925260609160009190602080830190803683370190505090508281600081518110612832576128326135f4565b602090810291909101015292915050565b61100c868686868686612942565b815460009082106128755760405163e637bf3b60e01b815260040160405180910390fd5b82600001828154811061288a5761288a6135f4565b9060005260206000200154905092915050565b600081815b85518110156129375760008682815181106128bf576128bf6135f4565b6020026020010151905080831161290157604080516020810185905290810182905260600160405160208183030381529060405280519060200120925061292e565b60408051602081018390529081018490526060016040516020818303038152906040528051906020012092505b506001016128a2565b509092149392505050565b61100c868686868686836001600160a01b0316856001600160a01b03161461100c576001600160a01b0385811660009081527fb31c2c74f86ca3ce94d901f5f5bbe66f7161eec2f7b5aa0b75a86371436424ec6020526040808220928716825281207fb31c2c74f86ca3ce94d901f5f5bbe66f7161eec2f7b5aa0b75a86371436424ea927fb31c2c74f86ca3ce94d901f5f5bbe66f7161eec2f7b5aa0b75a86371436424eb929091905b8751811015612b2a576000878281518110612a0957612a096135f4565b602002602001015190506000811115612b21576000898381518110612a3057612a306135f4565b6020026020010151905060006001600160a01b03168c6001600160a01b031603612a7d5760008181526020889052604081208054849290612a729084906136df565b90915550612ab29050565b81612a888d83610bfe565b03612ab2576000818152602087905260409020612aa5908d612b37565b50612ab08582612b4c565b505b6001600160a01b038b16612ae95760008181526020889052604081208054849290612ade90849061389e565b90915550612b1f9050565b612af38b82610bfe565b600003612b1f576000818152602087905260409020612b12908c612b58565b50612b1d8482612b6d565b505b505b506001016129ec565b5050505050505050505050565b60006103eb836001600160a01b038416612b79565b60006103eb8383612b79565b60006103eb836001600160a01b038416612c33565b60006103eb8383612c33565b60008181526001830160205260408120548015610aef57835460009085906000198101908110612bab57612bab6135f4565b9060005260206000200154905080856000016001840381548110612bd157612bd16135f4565b6000918252602080832090910192909255918252600186019052604090208190558354849080612c0357612c0361393a565b60008281526020808220830160001990810183905590920190925593815260019485019093525050604081205590565b60008181526001830160205260408120546103ee575081546001808201845560008481526020808220909301849055845493815293810190915260409092205590565b80356001600160a01b038116811461045957600080fd5b60008060408385031215612ca057600080fd5b612ca983612c76565b946020939093013593505050565b6001600160e01b031981168114610e3557600080fd5b600060208284031215612cdf57600080fd5b81356103eb81612cb7565b600060208284031215612cfc57600080fd5b5035919050565b60005b83811015612d1e578181015183820152602001612d06565b50506000910152565b60008151808452612d3f816020860160208601612d03565b601f01601f19169290920160200192915050565b6020815260006103eb6020830184612d27565b8035801515811461045957600080fd5b60008060408385031215612d8957600080fd5b82359150612d9960208401612d66565b90509250929050565b600080600060608486031215612db757600080fd5b612dc084612c76565b95602085013595506040909401359392505050565b60008083601f840112612de757600080fd5b5081356001600160401b03811115612dfe57600080fd5b602083019150836020828501011115612e1657600080fd5b9250929050565b600080600060408486031215612e3257600080fd5b8335925060208401356001600160401b03811115612e4f57600080fd5b612e5b86828701612dd5565b9497909650939450505050565b634e487b7160e01b600052604160045260246000fd5b601f8201601f191681016001600160401b0381118282101715612ea357612ea3612e68565b6040525050565b60006001600160401b03821115612ec357612ec3612e68565b5060051b60200190565b600082601f830112612ede57600080fd5b81356020612eeb82612eaa565b604051612ef88282612e7e565b83815260059390931b8501820192828101915086841115612f1857600080fd5b8286015b84811015612f335780358352918301918301612f1c565b509695505050505050565b600082601f830112612f4f57600080fd5b81356001600160401b03811115612f6857612f68612e68565b604051612f7f601f8301601f191660200182612e7e565b818152846020838601011115612f9457600080fd5b816020850160208301376000918101602001919091529392505050565b600080600080600060a08688031215612fc957600080fd5b612fd286612c76565b9450612fe060208701612c76565b935060408601356001600160401b0380821115612ffc57600080fd5b61300889838a01612ecd565b9450606088013591508082111561301e57600080fd5b61302a89838a01612ecd565b9350608088013591508082111561304057600080fd5b5061304d88828901612f3e565b9150509295509295909350565b60008083601f84011261306c57600080fd5b5081356001600160401b0381111561308357600080fd5b6020830191508360208260051b8501011115612e1657600080fd5b600080600080604085870312156130b457600080fd5b84356001600160401b03808211156130cb57600080fd5b6130d78883890161305a565b909650945060208701359150808211156130f057600080fd5b506130fd8782880161305a565b95989497509550505050565b6000806040838503121561311c57600080fd5b82356001600160401b038082111561313357600080fd5b818501915085601f83011261314757600080fd5b8135602061315482612eaa565b6040516131618282612e7e565b83815260059390931b850182019282810191508984111561318157600080fd5b948201945b838610156131a65761319786612c76565b82529482019490820190613186565b965050860135925050808211156131bc57600080fd5b506131c985828601612ecd565b9150509250929050565b600081518084526020808501945080840160005b83811015613203578151875295820195908201906001016131e7565b509495945050505050565b6020815260006103eb60208301846131d3565b6000806000806000806060878903121561323a57600080fd5b86356001600160401b038082111561325157600080fd5b61325d8a838b0161305a565b9098509650602089013591508082111561327657600080fd5b6132828a838b0161305a565b9096509450604089013591508082111561329b57600080fd5b506132a889828a0161305a565b979a9699509497509295939492505050565b600080602083850312156132cd57600080fd5b82356001600160401b038111156132e357600080fd5b6132ef85828601612dd5565b90969095509350505050565b6020808252825182820181905260009190848201906040850190845b8181101561333c5783516001600160a01b031683529284019291840191600101613317565b50909695505050505050565b6000806000806060858703121561335e57600080fd5b843593506020850135925060408501356001600160401b0381111561338257600080fd5b6130fd8782880161305a565b6000602082840312156133a057600080fd5b6103eb82612c76565b600080604083850312156133bc57600080fd5b6133c583612c76565b9150612d9960208401612d66565b600080602083850312156133e657600080fd5b82356001600160401b038111156133fc57600080fd5b6132ef8582860161305a565b6000602080830181845280855180835260408601915060408160051b870101925083870160005b8281101561345d57603f1988860301845261344b858351612d27565b9450928501929085019060010161342f565b5092979650505050505050565b60008060006040848603121561347f57600080fd5b83356001600160401b0381111561349557600080fd5b6134a186828701612dd5565b90945092506134b4905060208501612d66565b90509250925092565b6000806000806000606086880312156134d557600080fd5b6134de86612c76565b945060208601356001600160401b03808211156134fa57600080fd5b61350689838a0161305a565b9096509450604088013591508082111561351f57600080fd5b5061352c8882890161305a565b969995985093965092949392505050565b6000806040838503121561355057600080fd5b61355983612c76565b9150612d9960208401612c76565b600080600080600060a0868803121561357f57600080fd5b61358886612c76565b945061359660208701612c76565b9350604086013592506060860135915060808601356001600160401b038111156135bf57600080fd5b61304d88828901612f3e565b600082516135dd818460208701612d03565b64173539b7b760d91b920191825250600501919050565b634e487b7160e01b600052603260045260246000fd5b6000808335601e1984360301811261362157600080fd5b8301803591506001600160401b0382111561363b57600080fd5b602001915036819003821315612e1657600080fd5b8183823760009101908152919050565b600181811c9082168061367457607f821691505b60208210810361369457634e487b7160e01b600052602260045260246000fd5b50919050565b600083516136ac818460208801612d03565b8351908301906136c0818360208801612d03565b01949350505050565b634e487b7160e01b600052601160045260246000fd5b808201808211156103ee576103ee6136c9565b601f8211156104a057600081815260208120601f850160051c810160208610156137195750805b601f850160051c820191505b8181101561100c57828155600101613725565b81516001600160401b0381111561375157613751612e68565b6137658161375f8454613660565b846136f2565b602080601f83116001811461379a57600084156137825750858301515b600019600386901b1c1916600185901b17855561100c565b600085815260208120601f198616915b828110156137c9578886015182559484019460019091019084016137aa565b50858210156137e75787850151600019600388901b60f8161c191681555b5050505050600190811b01905550565b60006020828403121561380957600080fd5b6103eb82612d66565b600060018201613824576138246136c9565b5060010190565b6000808335601e1984360301811261384257600080fd5b8301803591506001600160401b0382111561385c57600080fd5b6020019150600581901b3603821315612e1657600080fd5b634e487b7160e01b600052601260045260246000fd5b60008261389957613899613874565b500490565b818103818111156103ee576103ee6136c9565b6000826138c0576138c0613874565b500690565b7f416363657373436f6e74726f6c3a206163636f756e74200000000000000000008152600083516138fd816017850160208801612d03565b7001034b99036b4b9b9b4b733903937b6329607d1b601791840191820152835161392e816028840160208801612d03565b01602801949350505050565b634e487b7160e01b600052603160045260246000fd5b60408152600061396360408301856131d3565b828103602084015261397581856131d3565b95945050505050565b60006001600160a01b03808816835280871660208401525060a060408301526139aa60a08301866131d3565b82810360608401526139bc81866131d3565b905082810360808401526139d08185612d27565b98975050505050505050565b6000602082840312156139ee57600080fd5b81516103eb81612cb7565b600060033d1115613a125760046000803e5060005160e01c5b90565b600060443d1015613a235790565b6040516003193d81016004833e81513d6001600160401b038160248401118184111715613a5257505050505090565b8285019150815181811115613a6a5750505050505090565b843d8701016020828501011115613a845750505050505090565b613a9360208286010187612e7e565b509095945050505050565b815160009082906020808601845b83811015613ac857815185529382019390820190600101613aac565b50929695505050505050565b634e487b7160e01b600052602160045260246000fd5b6001600160a01b03851681526080810160028510613b1857634e487b7160e01b600052602160045260246000fd5b84602083015283604083015282606083015295945050505050565b60006001600160a01b03808816835280871660208401525084604083015283606083015260a06080830152613b6b60a0830184612d27565b979650505050505050565b80820281158282048414176103ee576103ee6136c956fef6deb63e40d71b08820818e006e23fcceb1fce7a499bc15b71b2526cbf9efa72333d4b734a9ca3847483bf4c14a14709d21907ff5f12a881347e2fb2ad8906d61799cf914cb0cb442ca7c7ac709ee40d0cb89e87351dc08d517fbda27d50c68ba2646970667358221220f8525d6be152a5ede7581a3e5a1ef5545364507916e0b2410275b9e9743f6b4764736f6c63430008130033",
  "devdoc": {
    "details": "This contract handles the creation and management of items It uses ERC1155 tokens to represent items and provides methods to mint new items, claim items via Merkle tree or a whitelist, and set the base and URIs for the items. It also uses the ReentrancyGuard and Multicall contracts for security and gas efficiency.",
    "kind": "dev",
    "methods": {
      "accountsByToken(uint256)": {
        "params": {
          "id": "token id to query"
        },
        "returns": {
          "_0": "list of holder addresses"
        }
      },
      "balanceOf(address,uint256)": {
        "params": {
          "account": "address to query",
          "id": "token to query"
        },
        "returns": {
          "_0": "token balance"
        }
      },
      "balanceOfBatch(address[],uint256[])": {
        "params": {
          "accounts": "addresss to query",
          "ids": "tokens to query"
        },
        "returns": {
          "_0": "token balances"
        }
      },
      "basicItems()": {
        "returns": {
          "itemIds": "The IDs of all the basic items"
        }
      },
      "claimMerkle(uint256,uint256,bytes32[])": {
        "params": {
          "amount": "The amount of the item to claim",
          "itemId": "The ID of the item to claim",
          "proof": "The Merkle proof for the item"
        }
      },
      "claimMerkleBatch(uint256[],uint256[],bytes32[][])": {
        "params": {
          "amounts": "The amounts of the items to claim",
          "itemsIds": "The IDs of the items to claim",
          "proofs": "The Merkle proofs for the items"
        }
      },
      "claimWhitelist(uint256[],uint256[])": {
        "params": {
          "amounts": "The amounts of the items to claim",
          "itemIds": "The IDs of the items to claim"
        }
      },
      "claimedAmount(address,uint256)": {
        "params": {
          "account": "the account to query",
          "itemId": "the item id to query"
        },
        "returns": {
          "amount": "returns the claimed amount given an account and an item id"
        }
      },
      "isApprovedForAll(address,address)": {
        "params": {
          "account": "address to query for approval granted",
          "operator": "address to query for approval received"
        },
        "returns": {
          "_0": "whether operator is approved to spend tokens held by account"
        }
      },
      "isBasic(uint256)": {
        "params": {
          "itemId": "The item ID to query "
        },
        "returns": {
          "_0": "isBasic Bool that indicates if an item is basic"
        }
      },
      "migrateToIPFS(string,bool)": {
        "details": "Only the manager role can call this function",
        "params": {
          "migrate": "Should migrate to IPFS",
          "newBaseURI": "The new base URI"
        }
      },
      "mint(address,uint256,uint256)": {
        "params": {
          "amount": "The item amount to be minted",
          "itemId": "The ID of the item to mint",
          "to": "The address to mint the item to"
        }
      },
      "mintBatch(address,uint256[],uint256[])": {
        "params": {
          "amounts": "The items amounts to be minted",
          "itemIds": "An array of items IDs to be minted",
          "to": "The address to receive the minted items"
        }
      },
      "multicall(bytes[])": {
        "params": {
          "data": "array of function call data payloads"
        },
        "returns": {
          "results": "array of function call results"
        }
      },
      "safeBatchTransferFrom(address,address,uint256[],uint256[],bytes)": {
        "params": {
          "amounts": "list of quantities of tokens to transfer",
          "data": "data payload",
          "from": "sender of tokens",
          "ids": "list of token IDs",
          "to": "receiver of tokens"
        }
      },
      "safeTransferFrom(address,address,uint256,uint256,bytes)": {
        "params": {
          "amount": "quantity of tokens to transfer",
          "data": "data payload",
          "from": "sender of tokens",
          "id": "token ID",
          "to": "receiver of tokens"
        }
      },
      "setApprovalForAll(address,bool)": {
        "params": {
          "operator": "address whose approval status to update",
          "status": "whether operator should be considered approved"
        }
      },
      "setBaseURI(string)": {
        "details": "Only the manager role can call this function",
        "params": {
          "baseURI": "The new base URI"
        }
      },
      "setBasic(uint256,bool)": {
        "params": {
          "basic": "A boolean representing if a item shoud be set as basic",
          "itemId": "The item ID"
        }
      },
      "setBasicBatch(uint256[],bool[])": {
        "params": {
          "basic": "An array of boolean's representing if the items shoud be set as basic",
          "itemIds": "The IDs of the items to set as basic"
        }
      },
      "setTokenURI(uint256,string)": {
        "details": "Only the manager role can call this function",
        "params": {
          "tokenId": "The ID of the item to set the URI for",
          "tokenURI": "The new item URI"
        }
      },
      "tokensByAccount(address)": {
        "params": {
          "account": "address to query"
        },
        "returns": {
          "_0": "list of token ids"
        }
      },
      "totalHolders(uint256)": {
        "params": {
          "id": "token id to query"
        },
        "returns": {
          "_0": "quantity of holders"
        }
      },
      "totalSupply(uint256)": {
        "params": {
          "id": "token id to query"
        },
        "returns": {
          "_0": "token supply"
        }
      }
    },
    "title": "ItemsFacet",
    "version": 1
  },
  "userdoc": {
    "kind": "user",
    "methods": {
      "accountsByToken(uint256)": {
        "notice": "query holders of given token"
      },
      "balanceOf(address,uint256)": {
        "notice": "query the balance of given token held by given address"
      },
      "balanceOfBatch(address[],uint256[])": {
        "notice": "query the balances of given tokens held by given addresses"
      },
      "basicItems()": {
        "notice": "Returns all the basic items"
      },
      "claimMerkle(uint256,uint256,bytes32[])": {
        "notice": "Claims an item if present in the Merkle tree"
      },
      "claimMerkleBatch(uint256[],uint256[],bytes32[][])": {
        "notice": "Claims items if present in the Merkle tree"
      },
      "claimWhitelist(uint256[],uint256[])": {
        "notice": "Claims items from a whitelist"
      },
      "claimedAmount(address,uint256)": {
        "notice": "Amount claimed by an address of a specific item"
      },
      "isApprovedForAll(address,address)": {
        "notice": "query approval status of given operator with respect to given address"
      },
      "isBasic(uint256)": {
        "notice": "Returns true if an item is basic, false otherwise"
      },
      "migrateToIPFS(string,bool)": {
        "notice": "Set the base URI for all items metadata"
      },
      "mint(address,uint256,uint256)": {
        "notice": "Mints a new item. Only minter role account can mint non-basic items"
      },
      "mintBatch(address,uint256[],uint256[])": {
        "notice": "Mint a batch of items to a specific address. Only minter role account can mint non-basic items"
      },
      "multicall(bytes[])": {
        "notice": "batch function calls to the contract and return the results of each"
      },
      "safeBatchTransferFrom(address,address,uint256[],uint256[],bytes)": {
        "notice": "transfer batch of tokens between given addresses, checking for ERC1155Receiver implementation if applicable"
      },
      "safeTransferFrom(address,address,uint256,uint256,bytes)": {
        "notice": "transfer tokens between given addresses, checking for ERC1155Receiver implementation if applicable"
      },
      "setApprovalForAll(address,bool)": {
        "notice": "grant approval to or revoke approval from given operator to spend held tokens"
      },
      "setBaseURI(string)": {
        "notice": "Set the base URI for all items metadata"
      },
      "setBasic(uint256,bool)": {
        "notice": "Add an item to the basic item pool"
      },
      "setBasicBatch(uint256[],bool[])": {
        "notice": "Add items to the basic item pool"
      },
      "setTokenURI(uint256,string)": {
        "notice": "Set the URI for a specific item ID"
      },
      "tokensByAccount(address)": {
        "notice": "query tokens held by given address"
      },
      "totalHolders(uint256)": {
        "notice": "query total number of holders for given token"
      },
      "totalSupply(uint256)": {
        "notice": "query total minted supply of given token"
      },
      "uri(uint256)": {
        "notice": "Override ERC1155Metadata"
      }
    },
    "version": 1
  },
  "storageLayout": {
    "storage": [],
    "types": null
  }
}