{
  "address": "0x8ddAbf9b8E2995FaC40198EE070295DA646E7FCf",
  "abi": [
    {
      "inputs": [],
      "name": "ERC1155Base__ArrayLengthMismatch",
      "type": "error"
    },
    {
      "inputs": [],
      "name": "ERC1155Base__BalanceQueryZeroAddress",
      "type": "error"
    },
    {
      "inputs": [],
      "name": "ERC1155Base__BurnExceedsBalance",
      "type": "error"
    },
    {
      "inputs": [],
      "name": "ERC1155Base__BurnFromZeroAddress",
      "type": "error"
    },
    {
      "inputs": [],
      "name": "ERC1155Base__ERC1155ReceiverNotImplemented",
      "type": "error"
    },
    {
      "inputs": [],
      "name": "ERC1155Base__ERC1155ReceiverRejected",
      "type": "error"
    },
    {
      "inputs": [],
      "name": "ERC1155Base__MintToZeroAddress",
      "type": "error"
    },
    {
      "inputs": [],
      "name": "ERC1155Base__NotOwnerOrApproved",
      "type": "error"
    },
    {
      "inputs": [],
      "name": "ERC1155Base__SelfApproval",
      "type": "error"
    },
    {
      "inputs": [],
      "name": "ERC1155Base__TransferExceedsBalance",
      "type": "error"
    },
    {
      "inputs": [],
      "name": "ERC1155Base__TransferToZeroAddress",
      "type": "error"
    },
    {
      "inputs": [],
      "name": "EnumerableSet__IndexOutOfBounds",
      "type": "error"
    },
    {
      "inputs": [],
      "name": "Items_InputsLengthMistatch",
      "type": "error"
    },
    {
      "inputs": [],
      "name": "Items_InvalidItemId",
      "type": "error"
    },
    {
      "inputs": [],
      "name": "Items_ItemsBasicStatusAlreadyUpdated",
      "type": "error"
    },
    {
      "inputs": [],
      "name": "Items_MaximumItemMintsExceeded",
      "type": "error"
    },
    {
      "inputs": [],
      "name": "Items_MintingNonBasicItem",
      "type": "error"
    },
    {
      "inputs": [],
      "name": "Merkle_AlreadyClaimed",
      "type": "error"
    },
    {
      "inputs": [],
      "name": "Merkle_ClaimInactive",
      "type": "error"
    },
    {
      "inputs": [],
      "name": "Merkle_ClaimStateAlreadyUpdated",
      "type": "error"
    },
    {
      "inputs": [],
      "name": "Merkle_InvalidClaimAmount",
      "type": "error"
    },
    {
      "inputs": [],
      "name": "Merkle_NotIncludedInMerkleTree",
      "type": "error"
    },
    {
      "inputs": [],
      "name": "ReentrancyGuard__ReentrantCall",
      "type": "error"
    },
    {
      "inputs": [],
      "name": "Roles_MissingAdminRole",
      "type": "error"
    },
    {
      "inputs": [],
      "name": "Roles_MissingAutomationRole",
      "type": "error"
    },
    {
      "inputs": [],
      "name": "Roles_MissingManagerRole",
      "type": "error"
    },
    {
      "inputs": [],
      "name": "Whitelist_ClaimInactive",
      "type": "error"
    },
    {
      "inputs": [],
      "name": "Whitelist_ClaimStateAlreadyUpdated",
      "type": "error"
    },
    {
      "inputs": [],
      "name": "Whitelist_ExceedsElegibleAmount",
      "type": "error"
    },
    {
      "inputs": [],
      "name": "Whitelist_InputDataMismatch",
      "type": "error"
    },
    {
      "anonymous": false,
      "inputs": [
        {
          "indexed": true,
          "internalType": "address",
          "name": "account",
          "type": "address"
        },
        {
          "indexed": true,
          "internalType": "address",
          "name": "operator",
          "type": "address"
        },
        {
          "indexed": false,
          "internalType": "bool",
          "name": "approved",
          "type": "bool"
        }
      ],
      "name": "ApprovalForAll",
      "type": "event"
    },
    {
      "anonymous": false,
      "inputs": [
        {
          "indexed": true,
          "internalType": "address",
          "name": "to",
          "type": "address"
        },
        {
          "indexed": false,
          "internalType": "uint256[]",
          "name": "itemsIds",
          "type": "uint256[]"
        },
        {
          "indexed": false,
          "internalType": "uint256[]",
          "name": "amounts",
          "type": "uint256[]"
        }
      ],
      "name": "ItemsClaimedMerkle",
      "type": "event"
    },
    {
      "anonymous": false,
      "inputs": [
        {
          "indexed": true,
          "internalType": "bytes32",
          "name": "role",
          "type": "bytes32"
        },
        {
          "indexed": true,
          "internalType": "bytes32",
          "name": "previousAdminRole",
          "type": "bytes32"
        },
        {
          "indexed": true,
          "internalType": "bytes32",
          "name": "newAdminRole",
          "type": "bytes32"
        }
      ],
      "name": "RoleAdminChanged",
      "type": "event"
    },
    {
      "anonymous": false,
      "inputs": [
        {
          "indexed": true,
          "internalType": "bytes32",
          "name": "role",
          "type": "bytes32"
        },
        {
          "indexed": true,
          "internalType": "address",
          "name": "account",
          "type": "address"
        },
        {
          "indexed": true,
          "internalType": "address",
          "name": "sender",
          "type": "address"
        }
      ],
      "name": "RoleGranted",
      "type": "event"
    },
    {
      "anonymous": false,
      "inputs": [
        {
          "indexed": true,
          "internalType": "bytes32",
          "name": "role",
          "type": "bytes32"
        },
        {
          "indexed": true,
          "internalType": "address",
          "name": "account",
          "type": "address"
        },
        {
          "indexed": true,
          "internalType": "address",
          "name": "sender",
          "type": "address"
        }
      ],
      "name": "RoleRevoked",
      "type": "event"
    },
    {
      "anonymous": false,
      "inputs": [
        {
          "indexed": true,
          "internalType": "address",
          "name": "operator",
          "type": "address"
        },
        {
          "indexed": true,
          "internalType": "address",
          "name": "from",
          "type": "address"
        },
        {
          "indexed": true,
          "internalType": "address",
          "name": "to",
          "type": "address"
        },
        {
          "indexed": false,
          "internalType": "uint256[]",
          "name": "ids",
          "type": "uint256[]"
        },
        {
          "indexed": false,
          "internalType": "uint256[]",
          "name": "values",
          "type": "uint256[]"
        }
      ],
      "name": "TransferBatch",
      "type": "event"
    },
    {
      "anonymous": false,
      "inputs": [
        {
          "indexed": true,
          "internalType": "address",
          "name": "operator",
          "type": "address"
        },
        {
          "indexed": true,
          "internalType": "address",
          "name": "from",
          "type": "address"
        },
        {
          "indexed": true,
          "internalType": "address",
          "name": "to",
          "type": "address"
        },
        {
          "indexed": false,
          "internalType": "uint256",
          "name": "id",
          "type": "uint256"
        },
        {
          "indexed": false,
          "internalType": "uint256",
          "name": "value",
          "type": "uint256"
        }
      ],
      "name": "TransferSingle",
      "type": "event"
    },
    {
      "anonymous": false,
      "inputs": [
        {
          "indexed": false,
          "internalType": "string",
          "name": "value",
          "type": "string"
        },
        {
          "indexed": true,
          "internalType": "uint256",
          "name": "tokenId",
          "type": "uint256"
        }
      ],
      "name": "URI",
      "type": "event"
    },
    {
      "anonymous": false,
      "inputs": [
        {
          "indexed": true,
          "internalType": "address",
          "name": "account",
          "type": "address"
        },
        {
          "indexed": false,
          "internalType": "enum WhitelistStorage.PoolId",
          "name": "poolId",
          "type": "uint8"
        },
        {
          "indexed": false,
          "internalType": "uint256",
          "name": "totalElegibleAmount",
          "type": "uint256"
        },
        {
          "indexed": false,
          "internalType": "uint256",
          "name": "totalClaimedAmount",
          "type": "uint256"
        }
      ],
      "name": "WhitelistBalanceChanged",
      "type": "event"
    },
    {
      "inputs": [
        {
          "internalType": "uint256",
          "name": "id",
          "type": "uint256"
        }
      ],
      "name": "accountsByToken",
      "outputs": [
        {
          "internalType": "address[]",
          "name": "",
          "type": "address[]"
        }
      ],
      "stateMutability": "view",
      "type": "function"
    },
    {
      "inputs": [
        {
          "internalType": "address",
          "name": "account",
          "type": "address"
        },
        {
          "internalType": "uint256",
          "name": "id",
          "type": "uint256"
        }
      ],
      "name": "balanceOf",
      "outputs": [
        {
          "internalType": "uint256",
          "name": "",
          "type": "uint256"
        }
      ],
      "stateMutability": "view",
      "type": "function"
    },
    {
      "inputs": [
        {
          "internalType": "address[]",
          "name": "accounts",
          "type": "address[]"
        },
        {
          "internalType": "uint256[]",
          "name": "ids",
          "type": "uint256[]"
        }
      ],
      "name": "balanceOfBatch",
      "outputs": [
        {
          "internalType": "uint256[]",
          "name": "",
          "type": "uint256[]"
        }
      ],
      "stateMutability": "view",
      "type": "function"
    },
    {
      "inputs": [
        {
          "internalType": "uint256",
          "name": "itemId",
          "type": "uint256"
        },
        {
          "internalType": "uint256",
          "name": "amount",
          "type": "uint256"
        }
      ],
      "name": "burn",
      "outputs": [],
      "stateMutability": "nonpayable",
      "type": "function"
    },
    {
      "inputs": [
        {
          "internalType": "uint256[]",
          "name": "itemIds",
          "type": "uint256[]"
        },
        {
          "internalType": "uint256[]",
          "name": "amounts",
          "type": "uint256[]"
        }
      ],
      "name": "burnBatch",
      "outputs": [],
      "stateMutability": "nonpayable",
      "type": "function"
    },
    {
      "inputs": [
        {
          "internalType": "uint256",
          "name": "itemId",
          "type": "uint256"
        },
        {
          "internalType": "uint256",
          "name": "amount",
          "type": "uint256"
        },
        {
          "internalType": "bytes32[]",
          "name": "proof",
          "type": "bytes32[]"
        }
      ],
      "name": "claimMerkle",
      "outputs": [],
      "stateMutability": "nonpayable",
      "type": "function"
    },
    {
      "inputs": [
        {
          "internalType": "uint256[]",
          "name": "itemsIds",
          "type": "uint256[]"
        },
        {
          "internalType": "uint256[]",
          "name": "amounts",
          "type": "uint256[]"
        },
        {
          "internalType": "bytes32[][]",
          "name": "proofs",
          "type": "bytes32[][]"
        }
      ],
      "name": "claimMerkleBatch",
      "outputs": [],
      "stateMutability": "nonpayable",
      "type": "function"
    },
    {
      "inputs": [
        {
          "internalType": "uint256[]",
          "name": "itemIds",
          "type": "uint256[]"
        },
        {
          "internalType": "uint256[]",
          "name": "amounts",
          "type": "uint256[]"
        }
      ],
      "name": "claimWhitelist",
      "outputs": [],
      "stateMutability": "nonpayable",
      "type": "function"
    },
    {
      "inputs": [
        {
          "internalType": "address",
          "name": "account",
          "type": "address"
        },
        {
          "internalType": "uint256",
          "name": "itemId",
          "type": "uint256"
        }
      ],
      "name": "claimedAmount",
      "outputs": [
        {
          "internalType": "uint256",
          "name": "amount",
          "type": "uint256"
        }
      ],
      "stateMutability": "view",
      "type": "function"
    },
    {
      "inputs": [],
      "name": "getInventoryAddress",
      "outputs": [
        {
          "internalType": "address",
          "name": "",
          "type": "address"
        }
      ],
      "stateMutability": "view",
      "type": "function"
    },
    {
      "inputs": [
        {
          "internalType": "address",
          "name": "account",
          "type": "address"
        },
        {
          "internalType": "address",
          "name": "operator",
          "type": "address"
        }
      ],
      "name": "isApprovedForAll",
      "outputs": [
        {
          "internalType": "bool",
          "name": "",
          "type": "bool"
        }
      ],
      "stateMutability": "view",
      "type": "function"
    },
    {
      "inputs": [
        {
          "internalType": "string",
          "name": "newBaseURI",
          "type": "string"
        },
        {
          "internalType": "bool",
          "name": "migrate",
          "type": "bool"
        }
      ],
      "name": "migrateToIPFS",
      "outputs": [],
      "stateMutability": "nonpayable",
      "type": "function"
    },
    {
      "inputs": [
        {
          "internalType": "address",
          "name": "to",
          "type": "address"
        },
        {
          "internalType": "uint256",
          "name": "itemId",
          "type": "uint256"
        },
        {
          "internalType": "uint256",
          "name": "amount",
          "type": "uint256"
        }
      ],
      "name": "mint",
      "outputs": [],
      "stateMutability": "nonpayable",
      "type": "function"
    },
    {
      "inputs": [
        {
          "internalType": "address",
          "name": "to",
          "type": "address"
        },
        {
          "internalType": "uint256[]",
          "name": "itemIds",
          "type": "uint256[]"
        },
        {
          "internalType": "uint256[]",
          "name": "amounts",
          "type": "uint256[]"
        }
      ],
      "name": "mintBatch",
      "outputs": [],
      "stateMutability": "nonpayable",
      "type": "function"
    },
    {
      "inputs": [
        {
          "internalType": "bytes[]",
          "name": "data",
          "type": "bytes[]"
        }
      ],
      "name": "multicall",
      "outputs": [
        {
          "internalType": "bytes[]",
          "name": "results",
          "type": "bytes[]"
        }
      ],
      "stateMutability": "nonpayable",
      "type": "function"
    },
    {
      "inputs": [
        {
          "internalType": "address",
          "name": "from",
          "type": "address"
        },
        {
          "internalType": "address",
          "name": "to",
          "type": "address"
        },
        {
          "internalType": "uint256[]",
          "name": "ids",
          "type": "uint256[]"
        },
        {
          "internalType": "uint256[]",
          "name": "amounts",
          "type": "uint256[]"
        },
        {
          "internalType": "bytes",
          "name": "data",
          "type": "bytes"
        }
      ],
      "name": "safeBatchTransferFrom",
      "outputs": [],
      "stateMutability": "nonpayable",
      "type": "function"
    },
    {
      "inputs": [
        {
          "internalType": "address",
          "name": "from",
          "type": "address"
        },
        {
          "internalType": "address",
          "name": "to",
          "type": "address"
        },
        {
          "internalType": "uint256",
          "name": "id",
          "type": "uint256"
        },
        {
          "internalType": "uint256",
          "name": "amount",
          "type": "uint256"
        },
        {
          "internalType": "bytes",
          "name": "data",
          "type": "bytes"
        }
      ],
      "name": "safeTransferFrom",
      "outputs": [],
      "stateMutability": "nonpayable",
      "type": "function"
    },
    {
      "inputs": [
        {
          "internalType": "address",
          "name": "operator",
          "type": "address"
        },
        {
          "internalType": "bool",
          "name": "status",
          "type": "bool"
        }
      ],
      "name": "setApprovalForAll",
      "outputs": [],
      "stateMutability": "nonpayable",
      "type": "function"
    },
    {
      "inputs": [
        {
          "internalType": "string",
          "name": "baseURI",
          "type": "string"
        }
      ],
      "name": "setBaseURI",
      "outputs": [],
      "stateMutability": "nonpayable",
      "type": "function"
    },
    {
      "inputs": [
        {
          "internalType": "address",
          "name": "inventoryAddress",
          "type": "address"
        }
      ],
      "name": "setInventoryAddress",
      "outputs": [],
      "stateMutability": "nonpayable",
      "type": "function"
    },
    {
      "inputs": [
        {
          "internalType": "uint256",
          "name": "tokenId",
          "type": "uint256"
        },
        {
          "internalType": "string",
          "name": "tokenURI",
          "type": "string"
        }
      ],
      "name": "setTokenURI",
      "outputs": [],
      "stateMutability": "nonpayable",
      "type": "function"
    },
    {
      "inputs": [
        {
          "internalType": "bytes4",
          "name": "_interface",
          "type": "bytes4"
        }
      ],
      "name": "supportsInterface",
      "outputs": [
        {
          "internalType": "bool",
          "name": "",
          "type": "bool"
        }
      ],
      "stateMutability": "pure",
      "type": "function"
    },
    {
      "inputs": [
        {
          "internalType": "address",
          "name": "account",
          "type": "address"
        }
      ],
      "name": "tokensByAccount",
      "outputs": [
        {
          "internalType": "uint256[]",
          "name": "",
          "type": "uint256[]"
        }
      ],
      "stateMutability": "view",
      "type": "function"
    },
    {
      "inputs": [
        {
          "internalType": "uint256",
          "name": "id",
          "type": "uint256"
        }
      ],
      "name": "totalHolders",
      "outputs": [
        {
          "internalType": "uint256",
          "name": "",
          "type": "uint256"
        }
      ],
      "stateMutability": "view",
      "type": "function"
    },
    {
      "inputs": [
        {
          "internalType": "uint256",
          "name": "id",
          "type": "uint256"
        }
      ],
      "name": "totalSupply",
      "outputs": [
        {
          "internalType": "uint256",
          "name": "",
          "type": "uint256"
        }
      ],
      "stateMutability": "view",
      "type": "function"
    },
    {
      "inputs": [
        {
          "internalType": "uint256",
          "name": "tokenId",
          "type": "uint256"
        }
      ],
      "name": "uri",
      "outputs": [
        {
          "internalType": "string",
          "name": "",
          "type": "string"
        }
      ],
      "stateMutability": "view",
      "type": "function"
    }
  ],
  "transactionHash": "0x608abd25ccf3879878e58484e5fa4399e85e5755df90174816882ce86fc777c6",
  "args": [],
  "numDeployments": 8,
  "solcInputHash": "809d7be22097a5c8c827ce9df4fa956c",
  "bytecode": "0x608060405234801561001057600080fd5b50613aae806100206000396000f3fe608060405234801561001057600080fd5b506004361061018d5760003560e01c806384118c5d116100de578063bd85b03911610097578063ceb60ee611610071578063ceb60ee6146103ab578063d81d0a15146103be578063e985e9c5146103d1578063f242432a146103e457600080fd5b8063bd85b03914610372578063c22cbb5d14610385578063cdc11b111461039857600080fd5b806384118c5d146102e657806385bff2e7146102f9578063a22cb4651461030c578063ac9650d81461031f578063b390c0ab1461033f578063ba58bb171461035257600080fd5b80632eb2c2d61161014b57806355b4b1a41161012557806355b4b1a41461028d57806355f804b3146102a05780636dcfd841146102b357806383ca4b6f146102d357600080fd5b80632eb2c2d6146102475780634e1273f41461025a5780634f7fb3321461027a57600080fd5b8062fdd58e1461019257806301ffc9a7146101b85780630e89341c146101ec57806313ba55df1461020c578063156e29f61461021f578063162094c414610234575b600080fd5b6101a56101a0366004612b47565b6103f7565b6040519081526020015b60405180910390f35b6101dc6101c6366004612b87565b6001600160e01b031916636cdb3d1360e11b1490565b60405190151581526020016101af565b6101ff6101fa366004612bab565b61040c565b6040516101af9190612c14565b6101a561021a366004612bab565b610476565b61023261022d366004612c27565b610481565b005b610232610242366004612ca2565b6104cd565b610232610255366004612e36565b610543565b61026d610268366004612edf565b610595565b6040516101af9190612fe4565b61023261028836600461303b565b6106ff565b6101a561029b366004612b47565b610761565b6102326102ae3660046130d4565b6107a9565b6102c66102c1366004612bab565b610822565b6040516101af9190613115565b6102326102e1366004613162565b61082d565b6102326102f43660046131ae565b610838565b61026d610307366004613200565b6108c8565b61023261031a36600461322b565b6108d3565b61033261032d36600461325e565b610987565b6040516101af9190613293565b61023261034d3660046132f5565b610aa1565b61035a610aac565b6040516001600160a01b0390911681526020016101af565b6101a5610380366004612bab565b610ae4565b610232610393366004613200565b610b17565b6102326103a6366004613317565b610b9a565b6102326103b936600461336a565b610bdb565b6102326103cc3660046133c9565b610c2e565b6101dc6103df366004613449565b610c71565b6102326103f2366004613473565b610cbe565b60006104038383610d4e565b90505b92915050565b7f333d4b734a9ca3847483bf4c14a14709d21907ff5f12a881347e2fb2ad8906d75460609060ff16156104685761044282610dac565b60405160200161045291906134d7565b6040516020818303038152906040529050919050565b61040682610dac565b919050565b600061040682610f7b565b6104a061049a600080516020613a398339815191525490565b33610fb1565b6104bd5760405163d0befa1d60e01b815260040160405180910390fd5b6104c8838383610fe8565b505050565b6104e661049a600080516020613a398339815191525490565b6105035760405163d0befa1d60e01b815260040160405180910390fd5b6104c88383838080601f01602080910402602001604051908101604052809392919081815260200183838082843760009201919091525061102592505050565b6001600160a01b038516331480159061056357506105618533610c71565b155b15610580576040516212efed60e91b815260040160405180910390fd5b61058e338686868686611099565b5050505050565b606081518351146105b957604051633e7e0b6d60e11b815260040160405180910390fd5b8251600080516020613a59833981519152906000906001600160401b038111156105e5576105e5612ced565b60405190808252806020026020018201604052801561060e578160200160208202803683370190505b50905060005b85518110156106f65760006001600160a01b031686828151811061063a5761063a613500565b60200260200101516001600160a01b0316036106695760405163db5d879760e01b815260040160405180910390fd5b82600086838151811061067e5761067e613500565b6020026020010151815260200190815260200160002060008783815181106106a8576106a8613500565b60200260200101516001600160a01b03166001600160a01b03168152602001908152602001600020548282815181106106e3576106e3613500565b6020908102919091010152600101610614565b50949350505050565b7f09acf4e54214992e70883cf7dcd6957ff2c71cd9e14df4bec4383bc0d11607dc805460020361074257604051635db5c7cd60e11b815260040160405180910390fd5b60028155610755338888888888886110bd565b60019055505050505050565b6001600160a01b03821660009081527f333d4b734a9ca3847483bf4c14a14709d21907ff5f12a881347e2fb2ad8906d660209081526040808320848452909152812054610403565b6107c261049a600080516020613a398339815191525490565b6107df5760405163d0befa1d60e01b815260040160405180910390fd5b61081e82828080601f01602080910402602001604051908101604052809392919081815260200183838082843760009201919091525061133992505050565b5050565b606061040682611364565b61081e338383611437565b7f09acf4e54214992e70883cf7dcd6957ff2c71cd9e14df4bec4383bc0d11607dc805460020361087b57604051635db5c7cd60e11b815260040160405180910390fd5b6002815560408051602080850282810182019093528482526108be923392899289928991899182918501908490808284376000920191909152506115f192505050565b6001905550505050565b606061040682611783565b6001600160a01b03821633036108fc57604051637b30a93360e11b815260040160405180910390fd5b3360008181527f1799cf914cb0cb442ca7c7ac709ee40d0cb89e87351dc08d517fbda27d50c68c602090815260408083206001600160a01b03871680855290835292819020805460ff191686151590811790915590519081529192917f17307eab39ab6107e8899845ad3d59bd9653f200f220920489ca2b5937696c31910160405180910390a35050565b6060816001600160401b038111156109a1576109a1612ced565b6040519080825280602002602001820160405280156109d457816020015b60608152602001906001900390816109bf5790505b50905060005b82811015610a9a57600080308686858181106109f8576109f8613500565b9050602002810190610a0a9190613516565b604051610a1892919061355c565b600060405180830381855af49150503d8060008114610a53576040519150601f19603f3d011682016040523d82523d6000602084013e610a58565b606091505b50915091508115610a865780848481518110610a7657610a76613500565b6020026020010181905250610a90565b3d6000803e3d6000fd5b50506001016109da565b5092915050565b61081e33838361184b565b6000610adf7f333d4b734a9ca3847483bf4c14a14709d21907ff5f12a881347e2fb2ad8906da546001600160a01b031690565b905090565b60008181527fb31c2c74f86ca3ce94d901f5f5bbe66f7161eec2f7b5aa0b75a86371436424ea6020526040812054610406565b610b3061049a600080516020613a398339815191525490565b610b4d5760405163d0befa1d60e01b815260040160405180910390fd5b7f333d4b734a9ca3847483bf4c14a14709d21907ff5f12a881347e2fb2ad8906da805473ffffffffffffffffffffffffffffffffffffffff19166001600160a01b03831617905550565b50565b610bb361049a600080516020613a398339815191525490565b610bd05760405163d0befa1d60e01b815260040160405180910390fd5b6104c883838361194a565b7f09acf4e54214992e70883cf7dcd6957ff2c71cd9e14df4bec4383bc0d11607dc8054600203610c1e57604051635db5c7cd60e11b815260040160405180910390fd5b600281556108be858585856119bd565b610c4761049a600080516020613a398339815191525490565b610c645760405163d0befa1d60e01b815260040160405180910390fd5b61058e8585858585611a97565b6001600160a01b0391821660009081527f1799cf914cb0cb442ca7c7ac709ee40d0cb89e87351dc08d517fbda27d50c68c6020908152604080832093909416825291909152205460ff1690565b6001600160a01b0385163314801590610cde5750610cdc8533610c71565b155b8015610d23575033610d177f333d4b734a9ca3847483bf4c14a14709d21907ff5f12a881347e2fb2ad8906da546001600160a01b031690565b6001600160a01b031614155b15610d40576040516212efed60e91b815260040160405180910390fd5b61058e338686868686611b70565b60006001600160a01b038316610d775760405163db5d879760e01b815260040160405180910390fd5b600080516020613a598339815191526000928352602090815260408084206001600160a01b0395909516845293905250205490565b60008181527f4281b61aefbe70b3d3f684b428efca5f33077bc240e76f2808f9177c307617f56020526040812080546060927f4281b61aefbe70b3d3f684b428efca5f33077bc240e76f2808f9177c307617f4929091610e0b9061356c565b80601f0160208091040260200160405190810160405280929190818152602001828054610e379061356c565b8015610e845780601f10610e5957610100808354040283529160200191610e84565b820191906000526020600020905b815481529060010190602001808311610e6757829003601f168201915b505050505090506000826000018054610e9c9061356c565b80601f0160208091040260200160405190810160405280929190818152602001828054610ec89061356c565b8015610f155780601f10610eea57610100808354040283529160200191610f15565b820191906000526020600020905b815481529060010190602001808311610ef857829003601f168201915b505050505090508051600003610f2d57509392505050565b815115610f60578082604051602001610f479291906135a6565b6040516020818303038152906040529350505050919050565b80610f6a86611b8c565b604051602001610f479291906135a6565b60008181527fb31c2c74f86ca3ce94d901f5f5bbe66f7161eec2f7b5aa0b75a86371436424eb6020526040812061040690611c94565b60008281527fd3889cc5458b268d0544e5534672df1296288ca3f93cbd39bd6f497a5c622811602052604081206104039083611c9e565b600182101561100a5760405163225c19bb60e11b815260040160405180910390fd5b6104c883838360405180602001604052806000815250611cc0565b60008281527f4281b61aefbe70b3d3f684b428efca5f33077bc240e76f2808f9177c307617f56020526040902061105c828261361b565b50817f6bb7ff708619ba0610cba295a58592e0451dee2622938c8755667688daf3529b8260405161108d9190612c14565b60405180910390a25050565b6110a7868686868686611d90565b6110b5868686868686611f39565b505050505050565b8483146110dd57604051634e98d26360e01b815260040160405180910390fd5b7f333d4b734a9ca3847483bf4c14a14709d21907ff5f12a881347e2fb2ad8906d660005b868110156112e757600188888381811061111d5761111d613500565b9050602002013510156111435760405163225c19bb60e11b815260040160405180910390fd5b60008989898481811061115857611158613500565b9050602002013588888581811061117157611171613500565b905060200201356040516020016111a6939291906001600160a01b039390931683526020830191909152604082015260600190565b60405160208183030381529060405290506112178585848181106111cc576111cc613500565b90506020028101906111de91906136da565b8080602002602001604051908101604052809392919081815260200183836020028082843760009201919091525085925061205b915050565b6112628a8a8a8581811061122d5761122d613500565b9050602002013589898681811061124657611246613500565b9050602002013560405180602001604052806000815250611cc0565b86868381811061127457611274613500565b6001600160a01b038d16600090815260208781526040822092029390930135929091508b8b868181106112a9576112a9613500565b90506020020135815260200190815260200160002060008282546112cd9190613739565b909155508291506112df90508161374c565b915050611101565b50876001600160a01b03167f34b59152bfd6249b4e606f915024f944c88ccc9dfe0c2ee58cf094b5152b1a9d888888886040516113279493929190613797565b60405180910390a25050505050505050565b7f4281b61aefbe70b3d3f684b428efca5f33077bc240e76f2808f9177c307617f461081e828261361b565b60008181527fb31c2c74f86ca3ce94d901f5f5bbe66f7161eec2f7b5aa0b75a86371436424eb6020526040812060609161139d82611c94565b6001600160401b038111156113b4576113b4612ced565b6040519080825280602002602001820160405280156113dd578160200160208202803683370190505b50905060005b6113ec83611c94565b81101561142f576113fd8382612172565b82828151811061140f5761140f613500565b6001600160a01b03909216602092830291909101909101526001016113e3565b509392505050565b6001600160a01b03831661145e5760405163baa75df760e01b815260040160405180910390fd5b805182511461148057604051633e7e0b6d60e11b815260040160405180910390fd5b61149e3384600085856040518060200160405280600081525061217e565b600080516020613a5983398151915260005b83518110156115925760008482815181106114cd576114cd613500565b602002602001015190508260008281526020019081526020016000206000876001600160a01b03166001600160a01b031681526020019081526020016000205484838151811061151f5761151f613500565b6020026020010151111561154657604051634190713d60e01b815260040160405180910390fd5b83828151811061155857611558613500565b602090810291909101810151600092835284825260408084206001600160a01b038a168552909252912080549190910390556001016114b0565b5060006001600160a01b0316846001600160a01b0316336001600160a01b03167f4a39dc06d4c0dbc64b70af90fd698a233a518aa5d07e595d983b8c0526c8f7fb86866040516115e39291906137c9565b60405180910390a450505050565b60018310156116135760405163225c19bb60e11b815260040160405180910390fd5b604080516001600160a01b038616602082015280820185905260608082018590528251808303909101815260809091019091527f333d4b734a9ca3847483bf4c14a14709d21907ff5f12a881347e2fb2ad8906d690611672838261205b565b61168d86868660405180602001604052806000815250611cc0565b6001600160a01b038616600090815260208381526040808320888452909152812080548692906116be908490613739565b90915550506040805160018082528183019092526000916020808301908036833701905050905085816000815181106116f9576116f9613500565b6020908102919091010152604080516001808252818301909252600091816020016020820280368337019050509050858160008151811061173c5761173c613500565b602002602001018181525050876001600160a01b03167f34b59152bfd6249b4e606f915024f944c88ccc9dfe0c2ee58cf094b5152b1a9d83836040516113279291906137c9565b6001600160a01b03811660009081527fb31c2c74f86ca3ce94d901f5f5bbe66f7161eec2f7b5aa0b75a86371436424ec602052604081206060916117c682611c94565b6001600160401b038111156117dd576117dd612ced565b604051908082528060200260200182016040528015611806578160200160208202803683370190505b50905060005b61181583611c94565b81101561142f576118268382612172565b82828151811061183857611838613500565b602090810291909101015260010161180c565b6001600160a01b0383166118725760405163baa75df760e01b815260040160405180910390fd5b6118a0338460006118828661218c565b61188b8661218c565b6040518060200160405280600081525061217e565b6000828152600080516020613a59833981519152602090815260408083206001600160a01b038716845291829052909120548211156118f257604051634190713d60e01b815260040160405180910390fd5b6001600160a01b03841660008181526020838152604080832080548790039055805187815291820186905291929133917fc3d58168c5ae7397731d063d5bbf3d657854427343f4c083240f7aacaa2d0f6291016115e3565b61198983838080601f01602080910402602001604051908101604052809392919081815260200183838082843760009201919091525061133992505050565b7f333d4b734a9ca3847483bf4c14a14709d21907ff5f12a881347e2fb2ad8906d7805460ff19169115159190911790555050565b8281146119dd57604051634e98d26360e01b815260040160405180910390fd5b6000805b84811015611a8a5760018686838181106119fd576119fd613500565b905060200201351015611a235760405163225c19bb60e11b815260040160405180910390fd5b611a5233878784818110611a3957611a39613500565b9050602002013586868581811061124657611246613500565b838382818110611a6457611a64613500565b9050602002013582611a769190613739565b915080611a828161374c565b9150506119e1565b5061058e600033836121d7565b6001611ad585858080602002602001604051908101604052809392919081815260200183836020028082843760009201919091525061238c92505050565b1015611af45760405163225c19bb60e11b815260040160405180910390fd5b61058e85858580806020026020016040519081016040528093929190818152602001838360200280828437600092019190915250506040805160208089028281018201909352888252909350889250879182918501908490808284376000920182905250604080516020810190915290815292506123e2915050565b611b7e868686868686612539565b6110b586868686868661264f565b606081600003611bb35750506040805180820190915260018152600360fc1b602082015290565b8160005b8115611bdd5780611bc78161374c565b9150611bd69050600a8361380d565b9150611bb7565b6000816001600160401b03811115611bf757611bf7612ced565b6040519080825280601f01601f191660200182016040528015611c21576020820181803683370190505b5090505b8415611c8c57611c36600183613821565b9150611c43600a86613834565b611c4e906030613739565b60f81b818381518110611c6357611c63613500565b60200101906001600160f81b031916908160001a905350611c85600a8661380d565b9450611c25565b949350505050565b6000610406825490565b6001600160a01b03811660009081526001830160205260408120541515610403565b6001600160a01b038416611ce7576040516301c8efbf60e11b815260040160405180910390fd5b611d0633600086611cf78761218c565b611d008761218c565b8661217e565b6000838152600080516020613a59833981519152602090815260408083206001600160a01b038816845290915281208054849290611d45908490613739565b909155505060408051848152602081018490526001600160a01b0386169160009133917fc3d58168c5ae7397731d063d5bbf3d657854427343f4c083240f7aacaa2d0f6291016115e3565b6001600160a01b038416611db75760405163f5cadad560e01b815260040160405180910390fd5b8151835114611dd957604051633e7e0b6d60e11b815260040160405180910390fd5b611de786868686868661217e565b600080516020613a5983398151915260005b8451811015611ed8576000858281518110611e1657611e16613500565b602002602001015190506000858381518110611e3457611e34613500565b602090810291909101810151600084815286835260408082206001600160a01b038e168352909352919091205490915080821115611e855760405163119ac6bb60e31b815260040160405180910390fd5b6000838152602086815260408083206001600160a01b038e811685529252808320938590039093558a168152908120805460019590950194839290611ecb908490613739565b90915550611df992505050565b50846001600160a01b0316866001600160a01b0316886001600160a01b03167f4a39dc06d4c0dbc64b70af90fd698a233a518aa5d07e595d983b8c0526c8f7fb8787604051611f289291906137c9565b60405180910390a450505050505050565b6001600160a01b0384163b156110b55760405163bc197c8160e01b81526001600160a01b0385169063bc197c8190611f7d9089908990889088908890600401613848565b6020604051808303816000875af1925050508015611fb8575060408051601f3d908101601f19168201909252611fb5918101906138a6565b60015b61202157611fc46138c3565b806308c379a0036120065750611fd86138df565b80611fe35750612008565b8060405162461bcd60e51b8152600401611ffd9190612c14565b60405180910390fd5b505b60405163380147a960e01b815260040160405180910390fd5b6001600160e01b0319811663bc197c8160e01b1461205257604051633744db2960e01b815260040160405180910390fd5b50505050505050565b7f7a07c093b55ad04e200605cb287859fe4640b7310d62fdbb044e26399da78c09547f7a07c093b55ad04e200605cb287859fe4640b7310d62fdbb044e26399da78c089060ff16156120c05760405163a2f902f160e01b815260040160405180910390fd5b6000836040516020016120d39190613968565b6040516020818303038152906040528051906020012090506000838051906020012060405160200161210791815260200190565b60405160208183030381529060405280519060200120905060006121308685600001548461270b565b90508061215057604051631006f83b60e31b815260040160405180910390fd5b50506000908152600290910160205260409020805460ff191660011790555050565b600061040383836127b0565b6110b58686868686866127fc565b604080516001808252818301909252606091600091906020808301908036833701905050905082816000815181106121c6576121c6613500565b602090810291909101015292915050565b7ff38d3885e664c9638de25f02e645e1955ebebe901d7be2c2037db6a5bcbb35886000818186600181111561220e5761220e61399e565b600181111561221f5761221f61399e565b81526020810191909152604001600020600481015490915060ff1661225757604051633137c0e960e11b815260040160405180910390fd5b6001600160a01b038416600090815260018201602052604090205483111561229257604051630f8a2c5f60e31b815260040160405180910390fd5b6001600160a01b0384166000908152600182016020526040812080548592906122bc908490613821565b90915550506001600160a01b038416600090815260208290526040812080548592906122e9908490613739565b92505081905550828160020160008282546123049190613739565b925050819055508281600301600082825461231f9190613821565b90915550506001600160a01b038416600081815260018301602090815260408083205491859052918290205491517f6526db8cb857c3bc972db45a7984e99efaed17f7a4e51afb85c64450133cb55c9261237d928a929091906139b4565b60405180910390a25050505050565b6000600019815b8351811015610a9a57818482815181106123af576123af613500565b602002602001015110156123da578381815181106123cf576123cf613500565b602002602001015191505b600101612393565b6001600160a01b038416612409576040516301c8efbf60e11b815260040160405180910390fd5b815183511461242b57604051633e7e0b6d60e11b815260040160405180910390fd5b61243a3360008686868661217e565b600080516020613a5983398151915260005b84518110156124d95783818151811061246757612467613500565b602002602001015182600087848151811061248457612484613500565b602002602001015181526020019081526020016000206000886001600160a01b03166001600160a01b0316815260200190815260200160002060008282546124cc9190613739565b909155505060010161244c565b50846001600160a01b031660006001600160a01b0316336001600160a01b03167f4a39dc06d4c0dbc64b70af90fd698a233a518aa5d07e595d983b8c0526c8f7fb878760405161252a9291906137c9565b60405180910390a45050505050565b6001600160a01b0384166125605760405163f5cadad560e01b815260040160405180910390fd5b61256f868686611cf78761218c565b6000838152600080516020613a59833981519152602081815260408084206001600160a01b038a16855290915290912054808411156125c15760405163119ac6bb60e31b815260040160405180910390fd5b6000858152602083815260408083206001600160a01b038b81168552925280832093879003909355871681529081208054859290612600908490613739565b909155505060408051858152602081018590526001600160a01b038088169289821692918b16917fc3d58168c5ae7397731d063d5bbf3d657854427343f4c083240f7aacaa2d0f629101611f28565b6001600160a01b0384163b156110b55760405163f23a6e6160e01b81526001600160a01b0385169063f23a6e619061269390899089908890889088906004016139ea565b6020604051808303816000875af19250505080156126ce575060408051601f3d908101601f191682019092526126cb918101906138a6565b60015b6126da57611fc46138c3565b6001600160e01b0319811663f23a6e6160e01b1461205257604051633744db2960e01b815260040160405180910390fd5b600081815b85518110156127a557600086828151811061272d5761272d613500565b6020026020010151905080831161276f57604080516020810185905290810182905260600160405160208183030381529060405280519060200120925061279c565b60408051602081018390529081018490526060016040516020818303038152906040528051906020012092505b50600101612710565b509092149392505050565b815460009082106127d45760405163e637bf3b60e01b815260040160405180910390fd5b8260000182815481106127e9576127e9613500565b9060005260206000200154905092915050565b6110b5868686868686836001600160a01b0316856001600160a01b0316146110b5576001600160a01b0385811660009081527fb31c2c74f86ca3ce94d901f5f5bbe66f7161eec2f7b5aa0b75a86371436424ec6020526040808220928716825281207fb31c2c74f86ca3ce94d901f5f5bbe66f7161eec2f7b5aa0b75a86371436424ea927fb31c2c74f86ca3ce94d901f5f5bbe66f7161eec2f7b5aa0b75a86371436424eb929091905b87518110156129e45760008782815181106128c3576128c3613500565b6020026020010151905060008111156129db5760008983815181106128ea576128ea613500565b6020026020010151905060006001600160a01b03168c6001600160a01b031603612937576000818152602088905260408120805484929061292c908490613739565b9091555061296c9050565b816129428d83610d4e565b0361296c57600081815260208790526040902061295f908d6129f1565b5061296a8582612a06565b505b6001600160a01b038b166129a35760008181526020889052604081208054849290612998908490613821565b909155506129d99050565b6129ad8b82610d4e565b6000036129d95760008181526020879052604090206129cc908c612a12565b506129d78482612a27565b505b505b506001016128a6565b5050505050505050505050565b6000610403836001600160a01b038416612a33565b60006104038383612a33565b6000610403836001600160a01b038416612aed565b60006104038383612aed565b60008181526001830160205260408120548015610a9a57835460009085906000198101908110612a6557612a65613500565b9060005260206000200154905080856000016001840381548110612a8b57612a8b613500565b6000918252602080832090910192909255918252600186019052604090208190558354849080612abd57612abd613a22565b60008281526020808220830160001990810183905590920190925593815260019485019093525050604081205590565b6000818152600183016020526040812054610406575081546001808201845560008481526020808220909301849055845493815293810190915260409092205590565b80356001600160a01b038116811461047157600080fd5b60008060408385031215612b5a57600080fd5b612b6383612b30565b946020939093013593505050565b6001600160e01b031981168114610b9757600080fd5b600060208284031215612b9957600080fd5b8135612ba481612b71565b9392505050565b600060208284031215612bbd57600080fd5b5035919050565b60005b83811015612bdf578181015183820152602001612bc7565b50506000910152565b60008151808452612c00816020860160208601612bc4565b601f01601f19169290920160200192915050565b6020815260006104036020830184612be8565b600080600060608486031215612c3c57600080fd5b612c4584612b30565b95602085013595506040909401359392505050565b60008083601f840112612c6c57600080fd5b5081356001600160401b03811115612c8357600080fd5b602083019150836020828501011115612c9b57600080fd5b9250929050565b600080600060408486031215612cb757600080fd5b8335925060208401356001600160401b03811115612cd457600080fd5b612ce086828701612c5a565b9497909650939450505050565b634e487b7160e01b600052604160045260246000fd5b601f8201601f191681016001600160401b0381118282101715612d2857612d28612ced565b6040525050565b60006001600160401b03821115612d4857612d48612ced565b5060051b60200190565b600082601f830112612d6357600080fd5b81356020612d7082612d2f565b604051612d7d8282612d03565b83815260059390931b8501820192828101915086841115612d9d57600080fd5b8286015b84811015612db85780358352918301918301612da1565b509695505050505050565b600082601f830112612dd457600080fd5b81356001600160401b03811115612ded57612ded612ced565b604051612e04601f8301601f191660200182612d03565b818152846020838601011115612e1957600080fd5b816020850160208301376000918101602001919091529392505050565b600080600080600060a08688031215612e4e57600080fd5b612e5786612b30565b9450612e6560208701612b30565b935060408601356001600160401b0380821115612e8157600080fd5b612e8d89838a01612d52565b94506060880135915080821115612ea357600080fd5b612eaf89838a01612d52565b93506080880135915080821115612ec557600080fd5b50612ed288828901612dc3565b9150509295509295909350565b60008060408385031215612ef257600080fd5b82356001600160401b0380821115612f0957600080fd5b818501915085601f830112612f1d57600080fd5b81356020612f2a82612d2f565b604051612f378282612d03565b83815260059390931b8501820192828101915089841115612f5757600080fd5b948201945b83861015612f7c57612f6d86612b30565b82529482019490820190612f5c565b96505086013592505080821115612f9257600080fd5b50612f9f85828601612d52565b9150509250929050565b600081518084526020808501945080840160005b83811015612fd957815187529582019590820190600101612fbd565b509495945050505050565b6020815260006104036020830184612fa9565b60008083601f84011261300957600080fd5b5081356001600160401b0381111561302057600080fd5b6020830191508360208260051b8501011115612c9b57600080fd5b6000806000806000806060878903121561305457600080fd5b86356001600160401b038082111561306b57600080fd5b6130778a838b01612ff7565b9098509650602089013591508082111561309057600080fd5b61309c8a838b01612ff7565b909650945060408901359150808211156130b557600080fd5b506130c289828a01612ff7565b979a9699509497509295939492505050565b600080602083850312156130e757600080fd5b82356001600160401b038111156130fd57600080fd5b61310985828601612c5a565b90969095509350505050565b6020808252825182820181905260009190848201906040850190845b818110156131565783516001600160a01b031683529284019291840191600101613131565b50909695505050505050565b6000806040838503121561317557600080fd5b82356001600160401b038082111561318c57600080fd5b61319886838701612d52565b93506020850135915080821115612f9257600080fd5b600080600080606085870312156131c457600080fd5b843593506020850135925060408501356001600160401b038111156131e857600080fd5b6131f487828801612ff7565b95989497509550505050565b60006020828403121561321257600080fd5b61040382612b30565b8035801515811461047157600080fd5b6000806040838503121561323e57600080fd5b61324783612b30565b91506132556020840161321b565b90509250929050565b6000806020838503121561327157600080fd5b82356001600160401b0381111561328757600080fd5b61310985828601612ff7565b6000602080830181845280855180835260408601915060408160051b870101925083870160005b828110156132e857603f198886030184526132d6858351612be8565b945092850192908501906001016132ba565b5092979650505050505050565b6000806040838503121561330857600080fd5b50508035926020909101359150565b60008060006040848603121561332c57600080fd5b83356001600160401b0381111561334257600080fd5b61334e86828701612c5a565b909450925061336190506020850161321b565b90509250925092565b6000806000806040858703121561338057600080fd5b84356001600160401b038082111561339757600080fd5b6133a388838901612ff7565b909650945060208701359150808211156133bc57600080fd5b506131f487828801612ff7565b6000806000806000606086880312156133e157600080fd5b6133ea86612b30565b945060208601356001600160401b038082111561340657600080fd5b61341289838a01612ff7565b9096509450604088013591508082111561342b57600080fd5b5061343888828901612ff7565b969995985093965092949392505050565b6000806040838503121561345c57600080fd5b61346583612b30565b915061325560208401612b30565b600080600080600060a0868803121561348b57600080fd5b61349486612b30565b94506134a260208701612b30565b9350604086013592506060860135915060808601356001600160401b038111156134cb57600080fd5b612ed288828901612dc3565b600082516134e9818460208701612bc4565b64173539b7b760d91b920191825250600501919050565b634e487b7160e01b600052603260045260246000fd5b6000808335601e1984360301811261352d57600080fd5b8301803591506001600160401b0382111561354757600080fd5b602001915036819003821315612c9b57600080fd5b8183823760009101908152919050565b600181811c9082168061358057607f821691505b6020821081036135a057634e487b7160e01b600052602260045260246000fd5b50919050565b600083516135b8818460208801612bc4565b8351908301906135cc818360208801612bc4565b01949350505050565b601f8211156104c857600081815260208120601f850160051c810160208610156135fc5750805b601f850160051c820191505b818110156110b557828155600101613608565b81516001600160401b0381111561363457613634612ced565b61364881613642845461356c565b846135d5565b602080601f83116001811461367d57600084156136655750858301515b600019600386901b1c1916600185901b1785556110b5565b600085815260208120601f198616915b828110156136ac5788860151825594840194600190910190840161368d565b50858210156136ca5787850151600019600388901b60f8161c191681555b5050505050600190811b01905550565b6000808335601e198436030181126136f157600080fd5b8301803591506001600160401b0382111561370b57600080fd5b6020019150600581901b3603821315612c9b57600080fd5b634e487b7160e01b600052601160045260246000fd5b8082018082111561040657610406613723565b60006001820161375e5761375e613723565b5060010190565b81835260006001600160fb1b0383111561377e57600080fd5b8260051b80836020870137939093016020019392505050565b6040815260006137ab604083018688613765565b82810360208401526137be818587613765565b979650505050505050565b6040815260006137dc6040830185612fa9565b82810360208401526137ee8185612fa9565b95945050505050565b634e487b7160e01b600052601260045260246000fd5b60008261381c5761381c6137f7565b500490565b8181038181111561040657610406613723565b600082613843576138436137f7565b500690565b60006001600160a01b03808816835280871660208401525060a0604083015261387460a0830186612fa9565b82810360608401526138868186612fa9565b9050828103608084015261389a8185612be8565b98975050505050505050565b6000602082840312156138b857600080fd5b8151612ba481612b71565b600060033d11156138dc5760046000803e5060005160e01c5b90565b600060443d10156138ed5790565b6040516003193d81016004833e81513d6001600160401b03816024840111818411171561391c57505050505090565b82850191508151818111156139345750505050505090565b843d870101602082850101111561394e5750505050505090565b61395d60208286010187612d03565b509095945050505050565b815160009082906020808601845b8381101561399257815185529382019390820190600101613976565b50929695505050505050565b634e487b7160e01b600052602160045260246000fd5b60608101600285106139d657634e487b7160e01b600052602160045260246000fd5b938152602081019290925260409091015290565b60006001600160a01b03808816835280871660208401525084604083015283606083015260a060808301526137be60a0830184612be8565b634e487b7160e01b600052603160045260246000fdfef6deb63e40d71b08820818e006e23fcceb1fce7a499bc15b71b2526cbf9efa721799cf914cb0cb442ca7c7ac709ee40d0cb89e87351dc08d517fbda27d50c68ba2646970667358221220b1befb9f4a95af1d63dcd5b29e21c8b813616f16fd8dd1f2563b55ee9b49097e64736f6c63430008130033",
  "devdoc": {
    "details": "This contract handles the creation and management of items It uses ERC1155 tokens to represent items and provides methods to mint new items, claim items via Merkle tree or a whitelist, and set the base and URIs for the items. It also uses the ReentrancyGuard and Multicall contracts for security and gas efficiency.",
    "kind": "dev",
    "methods": {
      "accountsByToken(uint256)": {
        "params": {
          "id": "token id to query"
        },
        "returns": {
          "_0": "list of holder addresses"
        }
      },
      "balanceOf(address,uint256)": {
        "params": {
          "account": "address to query",
          "id": "token to query"
        },
        "returns": {
          "_0": "token balance"
        }
      },
      "balanceOfBatch(address[],uint256[])": {
        "params": {
          "accounts": "addresss to query",
          "ids": "tokens to query"
        },
        "returns": {
          "_0": "token balances"
        }
      },
      "burn(uint256,uint256)": {
        "params": {
          "amount": "The item amount to burn",
          "itemId": "The ID of the item to burn"
        }
      },
      "burnBatch(uint256[],uint256[])": {
        "params": {
          "amounts": "The item amounts to be minted",
          "itemIds": "The item ID burn"
        }
      },
      "claimMerkle(uint256,uint256,bytes32[])": {
        "params": {
          "amount": "The amount of the item to claim",
          "itemId": "The ID of the item to claim",
          "proof": "The Merkle proof for the item"
        }
      },
      "claimMerkleBatch(uint256[],uint256[],bytes32[][])": {
        "params": {
          "amounts": "The amounts of the items to claim",
          "itemsIds": "The IDs of the items to claim",
          "proofs": "The Merkle proofs for the items"
        }
      },
      "claimWhitelist(uint256[],uint256[])": {
        "params": {
          "amounts": "The amounts of the items to claim",
          "itemIds": "The IDs of the items to claim"
        }
      },
      "claimedAmount(address,uint256)": {
        "params": {
          "account": "the account to query",
          "itemId": "the item id to query"
        },
        "returns": {
          "amount": "returns the claimed amount given an account and an item id"
        }
      },
      "getInventoryAddress()": {
        "details": "Returns the current inventory address",
        "returns": {
          "_0": "The address of the inventory contract"
        }
      },
      "isApprovedForAll(address,address)": {
        "params": {
          "account": "address to query for approval granted",
          "operator": "address to query for approval received"
        },
        "returns": {
          "_0": "whether operator is approved to spend tokens held by account"
        }
      },
      "migrateToIPFS(string,bool)": {
        "details": "Only the manager role can call this function",
        "params": {
          "migrate": "Should migrate to IPFS",
          "newBaseURI": "The new base URI"
        }
      },
      "mint(address,uint256,uint256)": {
        "params": {
          "amount": "The item amount to be minted",
          "itemId": "The ID of the item to mint",
          "to": "The address to mint the item to"
        }
      },
      "mintBatch(address,uint256[],uint256[])": {
        "params": {
          "amounts": "The items amounts to be minted",
          "itemIds": "An array of items IDs to be minted",
          "to": "The address to receive the minted items"
        }
      },
      "multicall(bytes[])": {
        "params": {
          "data": "array of function call data payloads"
        },
        "returns": {
          "results": "array of function call results"
        }
      },
      "safeBatchTransferFrom(address,address,uint256[],uint256[],bytes)": {
        "params": {
          "amounts": "list of quantities of tokens to transfer",
          "data": "data payload",
          "from": "sender of tokens",
          "ids": "list of token IDs",
          "to": "receiver of tokens"
        }
      },
      "safeTransferFrom(address,address,uint256,uint256,bytes)": {
        "params": {
          "amount": "quantity of tokens to transfer",
          "data": "data payload",
          "from": "sender of tokens",
          "id": "token ID",
          "to": "receiver of tokens"
        }
      },
      "setApprovalForAll(address,bool)": {
        "params": {
          "operator": "address whose approval status to update",
          "status": "whether operator should be considered approved"
        }
      },
      "setBaseURI(string)": {
        "details": "Only the manager role can call this function",
        "params": {
          "baseURI": "The new base URI"
        }
      },
      "setInventoryAddress(address)": {
        "details": "Sets the inventory address",
        "params": {
          "inventoryAddress": "The new address of the inventory contract"
        }
      },
      "setTokenURI(uint256,string)": {
        "details": "Only the manager role can call this function",
        "params": {
          "tokenId": "The ID of the item to set the URI for",
          "tokenURI": "The new item URI"
        }
      },
      "tokensByAccount(address)": {
        "params": {
          "account": "address to query"
        },
        "returns": {
          "_0": "list of token ids"
        }
      },
      "totalHolders(uint256)": {
        "params": {
          "id": "token id to query"
        },
        "returns": {
          "_0": "quantity of holders"
        }
      },
      "totalSupply(uint256)": {
        "params": {
          "id": "token id to query"
        },
        "returns": {
          "_0": "token supply"
        }
      }
    },
    "title": "ItemsFacet",
    "version": 1
  },
  "userdoc": {
    "kind": "user",
    "methods": {
      "accountsByToken(uint256)": {
        "notice": "query holders of given token"
      },
      "balanceOf(address,uint256)": {
        "notice": "query the balance of given token held by given address"
      },
      "balanceOfBatch(address[],uint256[])": {
        "notice": "query the balances of given tokens held by given addresses"
      },
      "burn(uint256,uint256)": {
        "notice": "Burn an amount of an item"
      },
      "burnBatch(uint256[],uint256[])": {
        "notice": "Burn amounts of items"
      },
      "claimMerkle(uint256,uint256,bytes32[])": {
        "notice": "Claims an item if present in the Merkle tree"
      },
      "claimMerkleBatch(uint256[],uint256[],bytes32[][])": {
        "notice": "Claims items if present in the Merkle tree"
      },
      "claimWhitelist(uint256[],uint256[])": {
        "notice": "Claims items from a whitelist"
      },
      "claimedAmount(address,uint256)": {
        "notice": "Amount claimed by an address of a specific item"
      },
      "isApprovedForAll(address,address)": {
        "notice": "query approval status of given operator with respect to given address"
      },
      "migrateToIPFS(string,bool)": {
        "notice": "Set the base URI for all items metadata"
      },
      "mint(address,uint256,uint256)": {
        "notice": "Mints a new item. Only minter role account can mint"
      },
      "mintBatch(address,uint256[],uint256[])": {
        "notice": "Mint a batch of items to a specific address. Only minter role account can mint"
      },
      "multicall(bytes[])": {
        "notice": "batch function calls to the contract and return the results of each"
      },
      "safeBatchTransferFrom(address,address,uint256[],uint256[],bytes)": {
        "notice": "transfer batch of tokens between given addresses, checking for ERC1155Receiver implementation if applicable"
      },
      "safeTransferFrom(address,address,uint256,uint256,bytes)": {
        "notice": "transfer tokens between given addresses, checking for ERC1155Receiver implementation if applicable"
      },
      "setApprovalForAll(address,bool)": {
        "notice": "grant approval to or revoke approval from given operator to spend held tokens"
      },
      "setBaseURI(string)": {
        "notice": "Set the base URI for all items metadata"
      },
      "setTokenURI(uint256,string)": {
        "notice": "Set the URI for a specific item ID"
      },
      "tokensByAccount(address)": {
        "notice": "query tokens held by given address"
      },
      "totalHolders(uint256)": {
        "notice": "query total number of holders for given token"
      },
      "totalSupply(uint256)": {
        "notice": "query total minted supply of given token"
      },
      "uri(uint256)": {
        "notice": "Override ERC1155Metadata"
      }
    },
    "version": 1
  },
  "storageLayout": {
    "storage": [],
    "types": null
  }
}