{
  "address": "0xE7f000419973f3339A83960CC00229631991bDb3",
  "abi": [
    {
      "inputs": [],
      "name": "Merkle_AlreadyClaimed",
      "type": "error"
    },
    {
      "inputs": [],
      "name": "Merkle_ClaimInactive",
      "type": "error"
    },
    {
      "inputs": [],
      "name": "Merkle_ClaimStateAlreadyUpdated",
      "type": "error"
    },
    {
      "inputs": [],
      "name": "Merkle_InvalidClaimAmount",
      "type": "error"
    },
    {
      "inputs": [],
      "name": "Merkle_NotIncludedInMerkleTree",
      "type": "error"
    },
    {
      "inputs": [],
      "name": "Roles_MissingAdminRole",
      "type": "error"
    },
    {
      "inputs": [],
      "name": "Roles_MissingAutomationRole",
      "type": "error"
    },
    {
      "inputs": [],
      "name": "Roles_MissingManagerRole",
      "type": "error"
    },
    {
      "anonymous": false,
      "inputs": [
        {
          "indexed": true,
          "internalType": "bytes32",
          "name": "role",
          "type": "bytes32"
        },
        {
          "indexed": true,
          "internalType": "bytes32",
          "name": "previousAdminRole",
          "type": "bytes32"
        },
        {
          "indexed": true,
          "internalType": "bytes32",
          "name": "newAdminRole",
          "type": "bytes32"
        }
      ],
      "name": "RoleAdminChanged",
      "type": "event"
    },
    {
      "anonymous": false,
      "inputs": [
        {
          "indexed": true,
          "internalType": "bytes32",
          "name": "role",
          "type": "bytes32"
        },
        {
          "indexed": true,
          "internalType": "address",
          "name": "account",
          "type": "address"
        },
        {
          "indexed": true,
          "internalType": "address",
          "name": "sender",
          "type": "address"
        }
      ],
      "name": "RoleGranted",
      "type": "event"
    },
    {
      "anonymous": false,
      "inputs": [
        {
          "indexed": true,
          "internalType": "bytes32",
          "name": "role",
          "type": "bytes32"
        },
        {
          "indexed": true,
          "internalType": "address",
          "name": "account",
          "type": "address"
        },
        {
          "indexed": true,
          "internalType": "address",
          "name": "sender",
          "type": "address"
        }
      ],
      "name": "RoleRevoked",
      "type": "event"
    },
    {
      "inputs": [],
      "name": "isMerkleClaimActive",
      "outputs": [
        {
          "internalType": "bool",
          "name": "active",
          "type": "bool"
        }
      ],
      "stateMutability": "view",
      "type": "function"
    },
    {
      "inputs": [],
      "name": "merkleRoot",
      "outputs": [
        {
          "internalType": "bytes32",
          "name": "",
          "type": "bytes32"
        }
      ],
      "stateMutability": "view",
      "type": "function"
    },
    {
      "inputs": [],
      "name": "setMerkleClaimActive",
      "outputs": [],
      "stateMutability": "nonpayable",
      "type": "function"
    },
    {
      "inputs": [],
      "name": "setMerkleClaimInactive",
      "outputs": [],
      "stateMutability": "nonpayable",
      "type": "function"
    },
    {
      "inputs": [
        {
          "internalType": "bytes32",
          "name": "newMerkleRoot",
          "type": "bytes32"
        }
      ],
      "name": "updateMerkleRoot",
      "outputs": [],
      "stateMutability": "nonpayable",
      "type": "function"
    }
  ],
  "transactionHash": "0x9728689b6c6c5139d92686c18aa23a5d4ec8d9c503e67ae66912a75a7aed7ec8",
  "args": [],
  "numDeployments": 1,
  "solcInputHash": "687a54a673cde10a47d7d892de7d1aa9",
  "bytecode": "0x608060405234801561001057600080fd5b5061039e806100206000396000f3fe608060405234801561001057600080fd5b50600436106100575760003560e01c80632330837c1461005c5780632eb4a7ab1461006657806333f7c37f146100815780634783f0ef14610099578063652e8167146100ac575b600080fd5b6100646100b4565b005b61006e6100ec565b6040519081526020015b60405180910390f35b6100896100fb565b6040519015158152602001610078565b6100646100a736600461034f565b610129565b61006461017c565b6100c56100bf6101ac565b336101d6565b6100e25760405163d0befa1d60e01b815260040160405180910390fd5b6100ea61023f565b565b60006100f66102b6565b905090565b60006100f67f7a07c093b55ad04e200605cb287859fe4640b7310d62fdbb044e26399da78c095460ff161590565b6101346100bf6101ac565b6101515760405163d0befa1d60e01b815260040160405180910390fd5b610179817f7a07c093b55ad04e200605cb287859fe4640b7310d62fdbb044e26399da78c0855565b50565b6101876100bf6101ac565b6101a45760405163d0befa1d60e01b815260040160405180910390fd5b6100ea6102de565b60007ff6deb63e40d71b08820818e006e23fcceb1fce7a499bc15b71b2526cbf9efa725b54919050565b6000610238827fd3889cc5458b268d0544e5534672df1296288ca3f93cbd39bd6f497a5c6228116000868152602091909152604090209073ffffffffffffffffffffffffffffffffffffffff8116600090815260018301602052604081205415155b9392505050565b7f7a07c093b55ad04e200605cb287859fe4640b7310d62fdbb044e26399da78c09547f7a07c093b55ad04e200605cb287859fe4640b7310d62fdbb044e26399da78c089060ff16156102a457604051632c58b32160e11b815260040160405180910390fd5b6001908101805460ff19169091179055565b60007f7a07c093b55ad04e200605cb287859fe4640b7310d62fdbb044e26399da78c086101d0565b7f7a07c093b55ad04e200605cb287859fe4640b7310d62fdbb044e26399da78c09547f7a07c093b55ad04e200605cb287859fe4640b7310d62fdbb044e26399da78c089060ff1661034257604051632c58b32160e11b815260040160405180910390fd5b600101805460ff19169055565b60006020828403121561036157600080fd5b503591905056fea26469706673582212205ef654e151a6188a227e8dd173ac8c55fa063340138ba68091dd63bd07873f8b64736f6c63430008130033",
  "devdoc": {
    "kind": "dev",
    "methods": {
      "isMerkleClaimActive()": {
        "returns": {
          "active": "bool indicating if claim is active"
        }
      },
      "merkleRoot()": {
        "returns": {
          "_0": "The current Merkle root hash"
        }
      },
      "setMerkleClaimActive()": {
        "details": "This function can only be called by an address with the manager role"
      },
      "setMerkleClaimInactive()": {
        "details": "This function can only be called by an address with the manager role"
      },
      "updateMerkleRoot(bytes32)": {
        "details": "This function can only be called by an address with the manager role",
        "params": {
          "newMerkleRoot": "The new Merkle root hash value to be set"
        }
      }
    },
    "title": "MerkleFacet",
    "version": 1
  },
  "userdoc": {
    "kind": "user",
    "methods": {
      "isMerkleClaimActive()": {
        "notice": "Returns true if elegible tokens can be claimed, or false otherwise"
      },
      "merkleRoot()": {
        "notice": "Returns the current Merkle root hash"
      },
      "setMerkleClaimActive()": {
        "notice": "Updates the claim state to active and enables the claim of tokens"
      },
      "setMerkleClaimInactive()": {
        "notice": "Updates the claim state to inactive and disables the claim of tokens"
      },
      "updateMerkleRoot(bytes32)": {
        "notice": "Updates the Merkle root hash with a new value"
      }
    },
    "notice": "This contract provides external functions to retrieve and update the Merkle root hash, which is used to verify the authenticity of data in a Merkle tree. This contract can be used as a facet of a diamond which follows the EIP-2535 diamond standard.",
    "version": 1
  },
  "storageLayout": {
    "storage": [],
    "types": null
  }
}