{
  "address": "0x93456bd0D0fb14536a9d8Fd201640cb97754AB1A",
  "abi": [
    {
      "inputs": [],
      "name": "Merkle_AlreadyClaimed",
      "type": "error"
    },
    {
      "inputs": [],
      "name": "Merkle_ClaimInactive",
      "type": "error"
    },
    {
      "inputs": [],
      "name": "Merkle_ClaimStateAlreadyUpdated",
      "type": "error"
    },
    {
      "inputs": [],
      "name": "Merkle_InvalidClaimAmount",
      "type": "error"
    },
    {
      "inputs": [],
      "name": "Merkle_NotIncludedInMerkleTree",
      "type": "error"
    },
    {
      "inputs": [],
      "name": "UintUtils__InsufficientHexLength",
      "type": "error"
    },
    {
      "anonymous": false,
      "inputs": [
        {
          "indexed": true,
          "internalType": "bytes32",
          "name": "role",
          "type": "bytes32"
        },
        {
          "indexed": true,
          "internalType": "bytes32",
          "name": "previousAdminRole",
          "type": "bytes32"
        },
        {
          "indexed": true,
          "internalType": "bytes32",
          "name": "newAdminRole",
          "type": "bytes32"
        }
      ],
      "name": "RoleAdminChanged",
      "type": "event"
    },
    {
      "anonymous": false,
      "inputs": [
        {
          "indexed": true,
          "internalType": "bytes32",
          "name": "role",
          "type": "bytes32"
        },
        {
          "indexed": true,
          "internalType": "address",
          "name": "account",
          "type": "address"
        },
        {
          "indexed": true,
          "internalType": "address",
          "name": "sender",
          "type": "address"
        }
      ],
      "name": "RoleGranted",
      "type": "event"
    },
    {
      "anonymous": false,
      "inputs": [
        {
          "indexed": true,
          "internalType": "bytes32",
          "name": "role",
          "type": "bytes32"
        },
        {
          "indexed": true,
          "internalType": "address",
          "name": "account",
          "type": "address"
        },
        {
          "indexed": true,
          "internalType": "address",
          "name": "sender",
          "type": "address"
        }
      ],
      "name": "RoleRevoked",
      "type": "event"
    },
    {
      "inputs": [],
      "name": "isMerkleClaimActive",
      "outputs": [
        {
          "internalType": "bool",
          "name": "active",
          "type": "bool"
        }
      ],
      "stateMutability": "view",
      "type": "function"
    },
    {
      "inputs": [],
      "name": "merkleRoot",
      "outputs": [
        {
          "internalType": "bytes32",
          "name": "",
          "type": "bytes32"
        }
      ],
      "stateMutability": "view",
      "type": "function"
    },
    {
      "inputs": [],
      "name": "setMerkleClaimActive",
      "outputs": [],
      "stateMutability": "nonpayable",
      "type": "function"
    },
    {
      "inputs": [],
      "name": "setMerkleClaimInactive",
      "outputs": [],
      "stateMutability": "nonpayable",
      "type": "function"
    },
    {
      "inputs": [
        {
          "internalType": "bytes32",
          "name": "newMerkleRoot",
          "type": "bytes32"
        }
      ],
      "name": "updateMerkleRoot",
      "outputs": [],
      "stateMutability": "nonpayable",
      "type": "function"
    }
  ],
  "transactionHash": "0x8ff4e03d6a4acf0e066c50d2c08d17ee7dab8cac1b8ee0eccb24f5ec23ea9a79",
  "args": [],
  "numDeployments": 1,
  "solcInputHash": "b6e81bc9395a29f02d4340ddb8cf6c81",
  "bytecode": "0x608060405234801561001057600080fd5b50610651806100206000396000f3fe608060405234801561001057600080fd5b50600436106100575760003560e01c80632330837c1461005c5780632eb4a7ab1461006657806333f7c37f146100815780634783f0ef14610099578063652e8167146100ac575b600080fd5b6100646100b4565b005b61006e6100ce565b6040519081526020015b60405180910390f35b6100896100dd565b6040519015158152602001610078565b6100646100a73660046104ca565b61010b565b610064610141565b6100c46100bf610154565b61017e565b6100cc610188565b565b60006100d86101ff565b905090565b60006100d87f7a07c093b55ad04e200605cb287859fe4640b7310d62fdbb044e26399da78c095460ff161590565b6101166100bf610154565b61013e817f7a07c093b55ad04e200605cb287859fe4640b7310d62fdbb044e26399da78c0855565b50565b61014c6100bf610154565b6100cc610227565b60007ff6deb63e40d71b08820818e006e23fcceb1fce7a499bc15b71b2526cbf9efa725b54919050565b61013e8133610298565b7f7a07c093b55ad04e200605cb287859fe4640b7310d62fdbb044e26399da78c09547f7a07c093b55ad04e200605cb287859fe4640b7310d62fdbb044e26399da78c089060ff16156101ed57604051632c58b32160e11b815260040160405180910390fd5b6001908101805460ff19169091179055565b60007f7a07c093b55ad04e200605cb287859fe4640b7310d62fdbb044e26399da78c08610178565b7f7a07c093b55ad04e200605cb287859fe4640b7310d62fdbb044e26399da78c09547f7a07c093b55ad04e200605cb287859fe4640b7310d62fdbb044e26399da78c089060ff1661028b57604051632c58b32160e11b815260040160405180910390fd5b600101805460ff19169055565b6102a28282610307565b610303576102b8816001600160a01b0316610365565b6102c3836020610377565b6040516020016102d4929190610507565b60408051601f198184030181529082905262461bcd60e51b82526102fa9160040161057c565b60405180910390fd5b5050565b600061035c827fd3889cc5458b268d0544e5534672df1296288ca3f93cbd39bd6f497a5c622811600086815260209190915260409020906001600160a01b038116600090815260018301602052604081205415155b90505b92915050565b606061035f6001600160a01b03831660145b606060006103868360026105c5565b6103919060026105dc565b67ffffffffffffffff8111156103a9576103a96105ef565b6040519080825280601f01601f1916602001820160405280156103d3576020820181803683370190505b509050600360fc1b816000815181106103ee576103ee610605565b60200101906001600160f81b031916908160001a905350600f60fb1b8160018151811061041d5761041d610605565b60200101906001600160f81b031916908160001a905350600160028402015b60018111156104aa576f181899199a1a9b1b9c1cb0b131b232b360811b85600f166010811061046d5761046d610605565b1a60f81b82828151811061048357610483610605565b60200101906001600160f81b031916908160001a90535060049490941c936000190161043c565b50831561035c5760405163c913478560e01b815260040160405180910390fd5b6000602082840312156104dc57600080fd5b5035919050565b60005b838110156104fe5781810151838201526020016104e6565b50506000910152565b7f416363657373436f6e74726f6c3a206163636f756e742000000000000000000081526000835161053f8160178501602088016104e3565b7001034b99036b4b9b9b4b733903937b6329607d1b60179184019182015283516105708160288401602088016104e3565b01602801949350505050565b602081526000825180602084015261059b8160408501602087016104e3565b601f01601f19169190910160400192915050565b634e487b7160e01b600052601160045260246000fd5b808202811582820484141761035f5761035f6105af565b8082018082111561035f5761035f6105af565b634e487b7160e01b600052604160045260246000fd5b634e487b7160e01b600052603260045260246000fdfea2646970667358221220071487d8fe135d471fb1fd36fc336b757da38378686fa09b3dd387fd59e553b364736f6c63430008130033",
  "devdoc": {
    "kind": "dev",
    "methods": {
      "isMerkleClaimActive()": {
        "returns": {
          "active": "bool indicating if claim is active"
        }
      },
      "merkleRoot()": {
        "returns": {
          "_0": "The current Merkle root hash"
        }
      },
      "setMerkleClaimActive()": {
        "details": "This function can only be called by an address with the manager role"
      },
      "setMerkleClaimInactive()": {
        "details": "This function can only be called by an address with the manager role"
      },
      "updateMerkleRoot(bytes32)": {
        "details": "This function can only be called by an address with the manager role",
        "params": {
          "newMerkleRoot": "The new Merkle root hash value to be set"
        }
      }
    },
    "title": "MerkleFacet",
    "version": 1
  },
  "userdoc": {
    "kind": "user",
    "methods": {
      "isMerkleClaimActive()": {
        "notice": "Returns true if elegible tokens can be claimed, or false otherwise"
      },
      "merkleRoot()": {
        "notice": "Returns the current Merkle root hash"
      },
      "setMerkleClaimActive()": {
        "notice": "Updates the claim state to active and enables the claim of tokens"
      },
      "setMerkleClaimInactive()": {
        "notice": "Updates the claim state to inactive and disables the claim of tokens"
      },
      "updateMerkleRoot(bytes32)": {
        "notice": "Updates the Merkle root hash with a new value"
      }
    },
    "notice": "This contract provides external functions to retrieve and update the Merkle root hash, which is used to verify the authenticity of data in a Merkle tree. This contract can be used as a facet of a diamond which follows the EIP-2535 diamond standard.",
    "version": 1
  },
  "storageLayout": {
    "storage": [],
    "types": null
  }
}