{
  "address": "0xB8Ce86a6F63AE3aAe5083475cA268d3102b62924",
  "abi": [
    {
      "inputs": [],
      "name": "UintUtils__InsufficientHexLength",
      "type": "error"
    },
    {
      "anonymous": false,
      "inputs": [
        {
          "indexed": true,
          "internalType": "bytes32",
          "name": "role",
          "type": "bytes32"
        },
        {
          "indexed": true,
          "internalType": "bytes32",
          "name": "previousAdminRole",
          "type": "bytes32"
        },
        {
          "indexed": true,
          "internalType": "bytes32",
          "name": "newAdminRole",
          "type": "bytes32"
        }
      ],
      "name": "RoleAdminChanged",
      "type": "event"
    },
    {
      "anonymous": false,
      "inputs": [
        {
          "indexed": true,
          "internalType": "bytes32",
          "name": "role",
          "type": "bytes32"
        },
        {
          "indexed": true,
          "internalType": "address",
          "name": "account",
          "type": "address"
        },
        {
          "indexed": true,
          "internalType": "address",
          "name": "sender",
          "type": "address"
        }
      ],
      "name": "RoleGranted",
      "type": "event"
    },
    {
      "anonymous": false,
      "inputs": [
        {
          "indexed": true,
          "internalType": "bytes32",
          "name": "role",
          "type": "bytes32"
        },
        {
          "indexed": true,
          "internalType": "address",
          "name": "account",
          "type": "address"
        },
        {
          "indexed": true,
          "internalType": "address",
          "name": "sender",
          "type": "address"
        }
      ],
      "name": "RoleRevoked",
      "type": "event"
    },
    {
      "inputs": [],
      "name": "merkleRoot",
      "outputs": [
        {
          "internalType": "bytes32",
          "name": "",
          "type": "bytes32"
        }
      ],
      "stateMutability": "view",
      "type": "function"
    },
    {
      "inputs": [
        {
          "internalType": "bytes32",
          "name": "newMerkleRoot",
          "type": "bytes32"
        }
      ],
      "name": "updateMerkleRoot",
      "outputs": [],
      "stateMutability": "nonpayable",
      "type": "function"
    }
  ],
  "transactionHash": "0xef0657e825ead121650e2a992b0755bbcc5bf4b01173eace5d5245db1c9665e0",
  "args": [],
  "numDeployments": 3,
  "solcInputHash": "f1e3877b8f8ef72bb892491c6379771c",
  "bytecode": "0x608060405234801561001057600080fd5b506104c9806100206000396000f3fe608060405234801561001057600080fd5b50600436106100365760003560e01c80632eb4a7ab1461003b5780634783f0ef14610055575b600080fd5b61004361006a565b60405190815260200160405180910390f35b610068610063366004610342565b610079565b005b6000610074610085565b905090565b610082816100af565b50565b60007f7a07c093b55ad04e200605cb287859fe4640b7310d62fdbb044e26399da78c085b54919050565b6100bf6100ba6100e3565b61010b565b7f7a07c093b55ad04e200605cb287859fe4640b7310d62fdbb044e26399da78c0855565b60007ff6deb63e40d71b08820818e006e23fcceb1fce7a499bc15b71b2526cbf9efa726100a9565b610082813361011a828261017f565b61017b57610130816001600160a01b03166101dd565b61013b8360206101ef565b60405160200161014c92919061037f565b60408051601f198184030181529082905262461bcd60e51b8252610172916004016103f4565b60405180910390fd5b5050565b60006101d4827fd3889cc5458b268d0544e5534672df1296288ca3f93cbd39bd6f497a5c622811600086815260209190915260409020906001600160a01b038116600090815260018301602052604081205415155b90505b92915050565b60606101d76001600160a01b03831660145b606060006101fe83600261043d565b610209906002610454565b67ffffffffffffffff81111561022157610221610467565b6040519080825280601f01601f19166020018201604052801561024b576020820181803683370190505b509050600360fc1b816000815181106102665761026661047d565b60200101906001600160f81b031916908160001a905350600f60fb1b816001815181106102955761029561047d565b60200101906001600160f81b031916908160001a905350600160028402015b6001811115610322576f181899199a1a9b1b9c1cb0b131b232b360811b85600f16601081106102e5576102e561047d565b1a60f81b8282815181106102fb576102fb61047d565b60200101906001600160f81b031916908160001a90535060049490941c93600019016102b4565b5083156101d45760405163c913478560e01b815260040160405180910390fd5b60006020828403121561035457600080fd5b5035919050565b60005b8381101561037657818101518382015260200161035e565b50506000910152565b7f416363657373436f6e74726f6c3a206163636f756e74200000000000000000008152600083516103b781601785016020880161035b565b7001034b99036b4b9b9b4b733903937b6329607d1b60179184019182015283516103e881602884016020880161035b565b01602801949350505050565b602081526000825180602084015261041381604085016020870161035b565b601f01601f19169190910160400192915050565b634e487b7160e01b600052601160045260246000fd5b80820281158282048414176101d7576101d7610427565b808201808211156101d7576101d7610427565b634e487b7160e01b600052604160045260246000fd5b634e487b7160e01b600052603260045260246000fdfea26469706673582212200f48baa07d6b12a2f42aaeebd4190d669267aeb4712efb7b14faf97929480f9764736f6c63430008130033",
  "devdoc": {
    "kind": "dev",
    "methods": {},
    "version": 1
  },
  "userdoc": {
    "kind": "user",
    "methods": {},
    "version": 1
  },
  "storageLayout": {
    "storage": [],
    "types": null
  }
}