{
  "address": "0x7345F5d5333b3817e09E3804AF81a20117E68F87",
  "abi": [
    {
      "inputs": [],
      "name": "Roles_MissingAdminRole",
      "type": "error"
    },
    {
      "inputs": [],
      "name": "Roles_MissingAutomationRole",
      "type": "error"
    },
    {
      "inputs": [],
      "name": "Roles_MissingManagerRole",
      "type": "error"
    },
    {
      "anonymous": false,
      "inputs": [
        {
          "indexed": true,
          "internalType": "address",
          "name": "account",
          "type": "address"
        },
        {
          "indexed": false,
          "internalType": "uint256",
          "name": "tokenId",
          "type": "uint256"
        }
      ],
      "name": "MintPassConsumed",
      "type": "event"
    },
    {
      "anonymous": false,
      "inputs": [
        {
          "indexed": true,
          "internalType": "bytes32",
          "name": "role",
          "type": "bytes32"
        },
        {
          "indexed": true,
          "internalType": "bytes32",
          "name": "previousAdminRole",
          "type": "bytes32"
        },
        {
          "indexed": true,
          "internalType": "bytes32",
          "name": "newAdminRole",
          "type": "bytes32"
        }
      ],
      "name": "RoleAdminChanged",
      "type": "event"
    },
    {
      "anonymous": false,
      "inputs": [
        {
          "indexed": true,
          "internalType": "bytes32",
          "name": "role",
          "type": "bytes32"
        },
        {
          "indexed": true,
          "internalType": "address",
          "name": "account",
          "type": "address"
        },
        {
          "indexed": true,
          "internalType": "address",
          "name": "sender",
          "type": "address"
        }
      ],
      "name": "RoleGranted",
      "type": "event"
    },
    {
      "anonymous": false,
      "inputs": [
        {
          "indexed": true,
          "internalType": "bytes32",
          "name": "role",
          "type": "bytes32"
        },
        {
          "indexed": true,
          "internalType": "address",
          "name": "account",
          "type": "address"
        },
        {
          "indexed": true,
          "internalType": "address",
          "name": "sender",
          "type": "address"
        }
      ],
      "name": "RoleRevoked",
      "type": "event"
    },
    {
      "inputs": [
        {
          "internalType": "address",
          "name": "account",
          "type": "address"
        }
      ],
      "name": "claimedMintPass",
      "outputs": [
        {
          "internalType": "uint256",
          "name": "",
          "type": "uint256"
        }
      ],
      "stateMutability": "view",
      "type": "function"
    },
    {
      "inputs": [
        {
          "internalType": "address",
          "name": "account",
          "type": "address"
        }
      ],
      "name": "elegibleMintPass",
      "outputs": [
        {
          "internalType": "uint256",
          "name": "",
          "type": "uint256"
        }
      ],
      "stateMutability": "view",
      "type": "function"
    },
    {
      "inputs": [],
      "name": "isMintPassClaimActive",
      "outputs": [
        {
          "internalType": "bool",
          "name": "active",
          "type": "bool"
        }
      ],
      "stateMutability": "view",
      "type": "function"
    },
    {
      "inputs": [
        {
          "internalType": "uint256",
          "name": "tokenId",
          "type": "uint256"
        }
      ],
      "name": "isTokenClaimed",
      "outputs": [
        {
          "internalType": "bool",
          "name": "",
          "type": "bool"
        }
      ],
      "stateMutability": "view",
      "type": "function"
    },
    {
      "inputs": [],
      "name": "mintPassContractAddress",
      "outputs": [
        {
          "internalType": "address",
          "name": "",
          "type": "address"
        }
      ],
      "stateMutability": "view",
      "type": "function"
    },
    {
      "inputs": [
        {
          "internalType": "bool",
          "name": "active",
          "type": "bool"
        }
      ],
      "name": "setClaimActiveMintPass",
      "outputs": [],
      "stateMutability": "nonpayable",
      "type": "function"
    },
    {
      "inputs": [
        {
          "internalType": "address",
          "name": "passContractAddress",
          "type": "address"
        }
      ],
      "name": "setMintPassContractAddress",
      "outputs": [],
      "stateMutability": "nonpayable",
      "type": "function"
    },
    {
      "inputs": [
        {
          "internalType": "uint256",
          "name": "supply",
          "type": "uint256"
        }
      ],
      "name": "setSupplyMintPass",
      "outputs": [],
      "stateMutability": "nonpayable",
      "type": "function"
    },
    {
      "inputs": [],
      "name": "supplyMintPass",
      "outputs": [
        {
          "internalType": "uint256",
          "name": "",
          "type": "uint256"
        }
      ],
      "stateMutability": "view",
      "type": "function"
    },
    {
      "inputs": [],
      "name": "totalClaimedMintPass",
      "outputs": [
        {
          "internalType": "uint256",
          "name": "",
          "type": "uint256"
        }
      ],
      "stateMutability": "view",
      "type": "function"
    }
  ],
  "transactionHash": "0xa2777c794f1ed2ac413e7bcf3debfce33f4fb0268ec28f1ef438c566f74c8c66",
  "args": [],
  "numDeployments": 1,
  "solcInputHash": "de2ab80f9a22ce29ad57719e20720f44",
  "bytecode": "0x608060405234801561001057600080fd5b5061070b806100206000396000f3fe608060405234801561001057600080fd5b506004361061009e5760003560e01c80636cedd32b116100665780636cedd32b146101065780637f90c968146101195780639a5736651461012c578063bbafe1621461013f578063c58b8fbf1461018757600080fd5b806309ebb2fe146100a35780630eb346a9146100be57806317ebe541146100d357806349301a9c146100db5780634f0133b4146100f3575b600080fd5b6100ab61019a565b6040519081526020015b60405180910390f35b6100d16100cc366004610616565b6101c9565b005b6100ab610269565b6100e3610293565b60405190151581526020016100b5565b6100ab610101366004610616565b6102c0565b6100e361011436600461063f565b6102d1565b6100d1610127366004610658565b610307565b6100ab61013a366004610616565b61037f565b7fa3ab50e899f598cf35254e9a97be2f97034673b13bdb3ad1ddfaf5a13d0a216b5461010090046001600160a01b03166040516001600160a01b0390911681526020016100b5565b6100d161019536600461063f565b6103bc565b60006101c47fa3ab50e899f598cf35254e9a97be2f97034673b13bdb3ad1ddfaf5a13d0a21695490565b905090565b6101fa6101f47ff6deb63e40d71b08820818e006e23fcceb1fce7a499bc15b71b2526cbf9efa725490565b3361042c565b6102175760405163d0befa1d60e01b815260040160405180910390fd5b7fa3ab50e899f598cf35254e9a97be2f97034673b13bdb3ad1ddfaf5a13d0a216b805474ffffffffffffffffffffffffffffffffffffffff0019166101006001600160a01b0384160217905550565b50565b60006101c47fa3ab50e899f598cf35254e9a97be2f97034673b13bdb3ad1ddfaf5a13d0a216a5490565b60006101c47fa3ab50e899f598cf35254e9a97be2f97034673b13bdb3ad1ddfaf5a13d0a216b5460ff1690565b60006102cb82610488565b92915050565b60008181527fa3ab50e899f598cf35254e9a97be2f97034673b13bdb3ad1ddfaf5a13d0a2167602052604081205460ff166102cb565b6103326101f47ff6deb63e40d71b08820818e006e23fcceb1fce7a499bc15b71b2526cbf9efa725490565b61034f5760405163d0befa1d60e01b815260040160405180910390fd5b7fa3ab50e899f598cf35254e9a97be2f97034673b13bdb3ad1ddfaf5a13d0a216b805460ff191682151517905550565b6001600160a01b03811660009081527fa3ab50e899f598cf35254e9a97be2f97034673b13bdb3ad1ddfaf5a13d0a216860205260408120546102cb565b6103e76101f47ff6deb63e40d71b08820818e006e23fcceb1fce7a499bc15b71b2526cbf9efa725490565b6104045760405163d0befa1d60e01b815260040160405180910390fd5b610266817fa3ab50e899f598cf35254e9a97be2f97034673b13bdb3ad1ddfaf5a13d0a216a55565b6000610481827fd3889cc5458b268d0544e5534672df1296288ca3f93cbd39bd6f497a5c622811600086815260209190915260409020906001600160a01b038116600090815260018301602052604081205415155b9392505050565b6000807fa3ab50e899f598cf35254e9a97be2f97034673b13bdb3ad1ddfaf5a13d0a21676004818101546040516370a0823160e01b81526001600160a01b03878116938201939093529293506101009004169060009082906370a0823190602401602060405180830381865afa158015610506573d6000803e3d6000fd5b505050506040513d601f19601f8201168201806040525081019061052a919061067a565b905082600301548360020154600161054291906106a9565b111561055357506000949350505050565b60005b8181101561060d57604051632f745c5960e01b81526001600160a01b0387811660048301526024820183905260009190851690632f745c5990604401602060405180830381865afa1580156105af573d6000803e3d6000fd5b505050506040513d601f19601f820116820180604052508101906105d3919061067a565b60008181526020879052604090205490915060ff166105fa57856105f6816106bc565b9650505b5080610605816106bc565b915050610556565b50505050919050565b60006020828403121561062857600080fd5b81356001600160a01b038116811461048157600080fd5b60006020828403121561065157600080fd5b5035919050565b60006020828403121561066a57600080fd5b8135801515811461048157600080fd5b60006020828403121561068c57600080fd5b5051919050565b634e487b7160e01b600052601160045260246000fd5b808201808211156102cb576102cb610693565b6000600182016106ce576106ce610693565b506001019056fea26469706673582212201be10fb415011e843e3d624bbdbf2653e22a4af0a3d1583c91167ecbe0dfff9464736f6c63430008130033",
  "devdoc": {
    "kind": "dev",
    "methods": {
      "claimedMintPass(address)": {
        "returns": {
          "_0": "The amount of mint passes redeemed by the account"
        }
      },
      "elegibleMintPass(address)": {
        "returns": {
          "_0": "The amount of mint passes owned by the account that are not redeemed"
        }
      },
      "isMintPassClaimActive()": {
        "returns": {
          "active": "bool indicating if claim is active"
        }
      },
      "setClaimActiveMintPass(bool)": {
        "details": "This function can only be called by an address with the manager role"
      },
      "supplyMintPass()": {
        "returns": {
          "_0": "The max supply for the mint pass"
        }
      },
      "totalClaimedMintPass()": {
        "returns": {
          "_0": "The total claimed amount using the mint pass"
        }
      }
    },
    "title": "WhitelistFacet",
    "version": 1
  },
  "userdoc": {
    "kind": "user",
    "methods": {
      "isMintPassClaimActive()": {
        "notice": "Returns true if the mint pass claim is active, or false otherwise"
      },
      "isTokenClaimed(uint256)": {
        "notice": "Returns true if a token pass was used to mint"
      },
      "mintPassContractAddress()": {
        "notice": "Returns the ERC721 contract address that holds the mint passes tokens"
      },
      "setClaimActiveMintPass(bool)": {
        "notice": "Sets the claim state to active/inactive"
      },
      "setMintPassContractAddress(address)": {
        "notice": "Sets the ERC721 contract address that holds the mint passes tokens"
      },
      "setSupplyMintPass(uint256)": {
        "notice": "Sets the max supply for the mint pass"
      }
    },
    "notice": "This contract allows the admins to whitelist an address with a specific amount, which can then be used to claim tokens in other contracts. To consume the whitelist, the token contracts should call the internal functions from WhitelistInternal. This contract can be used as a facet of a diamond which follows the EIP-2535 diamond standard.",
    "version": 1
  },
  "storageLayout": {
    "storage": [],
    "types": null
  }
}