{
  "address": "0x0E3511464BF922756651C82a2c1053A303e72DE7",
  "abi": [
    {
      "inputs": [],
      "name": "MintPass_ClaimInactive",
      "type": "error"
    },
    {
      "inputs": [],
      "name": "Roles_MissingAdminRole",
      "type": "error"
    },
    {
      "inputs": [],
      "name": "Roles_MissingAutomationRole",
      "type": "error"
    },
    {
      "inputs": [],
      "name": "Roles_MissingManagerRole",
      "type": "error"
    },
    {
      "anonymous": false,
      "inputs": [
        {
          "indexed": true,
          "internalType": "address",
          "name": "account",
          "type": "address"
        },
        {
          "indexed": false,
          "internalType": "uint256",
          "name": "tokenId",
          "type": "uint256"
        }
      ],
      "name": "MintPassConsumed",
      "type": "event"
    },
    {
      "anonymous": false,
      "inputs": [
        {
          "indexed": true,
          "internalType": "bytes32",
          "name": "role",
          "type": "bytes32"
        },
        {
          "indexed": true,
          "internalType": "bytes32",
          "name": "previousAdminRole",
          "type": "bytes32"
        },
        {
          "indexed": true,
          "internalType": "bytes32",
          "name": "newAdminRole",
          "type": "bytes32"
        }
      ],
      "name": "RoleAdminChanged",
      "type": "event"
    },
    {
      "anonymous": false,
      "inputs": [
        {
          "indexed": true,
          "internalType": "bytes32",
          "name": "role",
          "type": "bytes32"
        },
        {
          "indexed": true,
          "internalType": "address",
          "name": "account",
          "type": "address"
        },
        {
          "indexed": true,
          "internalType": "address",
          "name": "sender",
          "type": "address"
        }
      ],
      "name": "RoleGranted",
      "type": "event"
    },
    {
      "anonymous": false,
      "inputs": [
        {
          "indexed": true,
          "internalType": "bytes32",
          "name": "role",
          "type": "bytes32"
        },
        {
          "indexed": true,
          "internalType": "address",
          "name": "account",
          "type": "address"
        },
        {
          "indexed": true,
          "internalType": "address",
          "name": "sender",
          "type": "address"
        }
      ],
      "name": "RoleRevoked",
      "type": "event"
    },
    {
      "inputs": [
        {
          "internalType": "address",
          "name": "account",
          "type": "address"
        }
      ],
      "name": "claimedMintPass",
      "outputs": [
        {
          "internalType": "uint256",
          "name": "",
          "type": "uint256"
        }
      ],
      "stateMutability": "view",
      "type": "function"
    },
    {
      "inputs": [
        {
          "internalType": "address",
          "name": "account",
          "type": "address"
        }
      ],
      "name": "elegibleMintPass",
      "outputs": [
        {
          "internalType": "uint256",
          "name": "",
          "type": "uint256"
        }
      ],
      "stateMutability": "view",
      "type": "function"
    },
    {
      "inputs": [],
      "name": "isMintPassClaimActive",
      "outputs": [
        {
          "internalType": "bool",
          "name": "active",
          "type": "bool"
        }
      ],
      "stateMutability": "view",
      "type": "function"
    },
    {
      "inputs": [
        {
          "internalType": "uint256",
          "name": "tokenId",
          "type": "uint256"
        }
      ],
      "name": "isTokenClaimed",
      "outputs": [
        {
          "internalType": "bool",
          "name": "",
          "type": "bool"
        }
      ],
      "stateMutability": "view",
      "type": "function"
    },
    {
      "inputs": [],
      "name": "mintPassContractAddress",
      "outputs": [
        {
          "internalType": "address",
          "name": "",
          "type": "address"
        }
      ],
      "stateMutability": "view",
      "type": "function"
    },
    {
      "inputs": [
        {
          "internalType": "bool",
          "name": "active",
          "type": "bool"
        }
      ],
      "name": "setClaimActiveMintPass",
      "outputs": [],
      "stateMutability": "nonpayable",
      "type": "function"
    },
    {
      "inputs": [
        {
          "internalType": "address",
          "name": "passContractAddress",
          "type": "address"
        }
      ],
      "name": "setMintPassContractAddress",
      "outputs": [],
      "stateMutability": "nonpayable",
      "type": "function"
    },
    {
      "inputs": [],
      "name": "totalClaimedMintPass",
      "outputs": [
        {
          "internalType": "uint256",
          "name": "",
          "type": "uint256"
        }
      ],
      "stateMutability": "view",
      "type": "function"
    }
  ],
  "transactionHash": "0x70096e660e150fa7eaa181647d1ae3ec9e6d0a09368b06852311d4fb38b0ae20",
  "args": [],
  "numDeployments": 2,
  "solcInputHash": "945fce157fb48017de603e7f5a084bc6",
  "bytecode": "0x608060405234801561001057600080fd5b5061067c806100206000396000f3fe608060405234801561001057600080fd5b50600436106100885760003560e01c80636cedd32b1161005b5780636cedd32b146100e85780637f90c968146100fb5780639a5736651461010e578063bbafe1621461012157600080fd5b806309ebb2fe1461008d5780630eb346a9146100a857806349301a9c146100bd5780634f0133b4146100d5575b600080fd5b610095610169565b6040519081526020015b60405180910390f35b6100bb6100b63660046104d1565b610198565b005b6100c5610235565b604051901515815260200161009f565b6100956100e33660046104d1565b610262565b6100c56100f63660046104fa565b610273565b6100bb610109366004610513565b6102a9565b61009561011c3660046104d1565b610321565b7fa3ab50e899f598cf35254e9a97be2f97034673b13bdb3ad1ddfaf5a13d0a216b5461010090046001600160a01b03166040516001600160a01b03909116815260200161009f565b60006101937fa3ab50e899f598cf35254e9a97be2f97034673b13bdb3ad1ddfaf5a13d0a21695490565b905090565b6101c96101c37ff6deb63e40d71b08820818e006e23fcceb1fce7a499bc15b71b2526cbf9efa725490565b3361035e565b6101e65760405163d0befa1d60e01b815260040160405180910390fd5b7fa3ab50e899f598cf35254e9a97be2f97034673b13bdb3ad1ddfaf5a13d0a216b805474ffffffffffffffffffffffffffffffffffffffff0019166101006001600160a01b0384160217905550565b60006101937fa3ab50e899f598cf35254e9a97be2f97034673b13bdb3ad1ddfaf5a13d0a216b5460ff1690565b600061026d826103ba565b92915050565b60008181527fa3ab50e899f598cf35254e9a97be2f97034673b13bdb3ad1ddfaf5a13d0a2167602052604081205460ff1661026d565b6102d46101c37ff6deb63e40d71b08820818e006e23fcceb1fce7a499bc15b71b2526cbf9efa725490565b6102f15760405163d0befa1d60e01b815260040160405180910390fd5b7fa3ab50e899f598cf35254e9a97be2f97034673b13bdb3ad1ddfaf5a13d0a216b805460ff191682151517905550565b6001600160a01b03811660009081527fa3ab50e899f598cf35254e9a97be2f97034673b13bdb3ad1ddfaf5a13d0a2168602052604081205461026d565b60006103b3827fd3889cc5458b268d0544e5534672df1296288ca3f93cbd39bd6f497a5c622811600086815260209190915260409020906001600160a01b038116600090815260018301602052604081205415155b9392505050565b6000807fa3ab50e899f598cf35254e9a97be2f97034673b13bdb3ad1ddfaf5a13d0a2167600481810154604051632118854760e21b81526001600160a01b0387811693820193909352929350610100900416906000908290638462151c90602401600060405180830381865afa158015610438573d6000803e3d6000fd5b505050506040513d6000823e601f3d908101601f19168201604052610460919081019061054b565b905060005b81518110156104c85783600001600083838151811061048657610486610609565b60209081029190910181015182528101919091526040016000205460ff166104b657846104b28161061f565b9550505b806104c08161061f565b915050610465565b50505050919050565b6000602082840312156104e357600080fd5b81356001600160a01b03811681146103b357600080fd5b60006020828403121561050c57600080fd5b5035919050565b60006020828403121561052557600080fd5b813580151581146103b357600080fd5b634e487b7160e01b600052604160045260246000fd5b6000602080838503121561055e57600080fd5b825167ffffffffffffffff8082111561057657600080fd5b818501915085601f83011261058a57600080fd5b81518181111561059c5761059c610535565b8060051b604051601f19603f830116810181811085821117156105c1576105c1610535565b6040529182528482019250838101850191888311156105df57600080fd5b938501935b828510156105fd578451845293850193928501926105e4565b98975050505050505050565b634e487b7160e01b600052603260045260246000fd5b60006001820161063f57634e487b7160e01b600052601160045260246000fd5b506001019056fea26469706673582212203e02dace5e92a7f0515bc52aad3a546edb8976f4a3b96b9641d6597d9c42888564736f6c63430008130033",
  "devdoc": {
    "kind": "dev",
    "methods": {
      "claimedMintPass(address)": {
        "returns": {
          "_0": "The amount of mint passes redeemed by the account"
        }
      },
      "elegibleMintPass(address)": {
        "returns": {
          "_0": "The amount of mint passes owned by the account that are not redeemed"
        }
      },
      "isMintPassClaimActive()": {
        "returns": {
          "active": "bool indicating if claim is active"
        }
      },
      "setClaimActiveMintPass(bool)": {
        "details": "This function can only be called by an address with the manager role"
      },
      "totalClaimedMintPass()": {
        "returns": {
          "_0": "The total claimed amount using the mint pass"
        }
      }
    },
    "title": "WhitelistFacet",
    "version": 1
  },
  "userdoc": {
    "kind": "user",
    "methods": {
      "isMintPassClaimActive()": {
        "notice": "Returns true if the mint pass claim is active, or false otherwise"
      },
      "isTokenClaimed(uint256)": {
        "notice": "Returns true if a token pass was used to mint"
      },
      "mintPassContractAddress()": {
        "notice": "Returns the ERC721 contract address that holds the mint passes tokens"
      },
      "setClaimActiveMintPass(bool)": {
        "notice": "Sets the claim state to active/inactive"
      },
      "setMintPassContractAddress(address)": {
        "notice": "Sets the ERC721 contract address that holds the mint passes tokens"
      }
    },
    "notice": "This contract allows the admins to whitelist an address with a specific amount, which can then be used to claim tokens in other contracts. To consume the whitelist, the token contracts should call the internal functions from WhitelistInternal. This contract can be used as a facet of a diamond which follows the EIP-2535 diamond standard.",
    "version": 1
  },
  "storageLayout": {
    "storage": [],
    "types": null
  }
}