{
  "address": "0x44AD1E1dB2aB20ba5bd7Cba7DC3a65868af647F7",
  "abi": [
    {
      "inputs": [],
      "name": "UintUtils__InsufficientHexLength",
      "type": "error"
    },
    {
      "anonymous": false,
      "inputs": [
        {
          "indexed": true,
          "internalType": "bytes32",
          "name": "role",
          "type": "bytes32"
        },
        {
          "indexed": true,
          "internalType": "bytes32",
          "name": "previousAdminRole",
          "type": "bytes32"
        },
        {
          "indexed": true,
          "internalType": "bytes32",
          "name": "newAdminRole",
          "type": "bytes32"
        }
      ],
      "name": "RoleAdminChanged",
      "type": "event"
    },
    {
      "anonymous": false,
      "inputs": [
        {
          "indexed": true,
          "internalType": "bytes32",
          "name": "role",
          "type": "bytes32"
        },
        {
          "indexed": true,
          "internalType": "address",
          "name": "account",
          "type": "address"
        },
        {
          "indexed": true,
          "internalType": "address",
          "name": "sender",
          "type": "address"
        }
      ],
      "name": "RoleGranted",
      "type": "event"
    },
    {
      "anonymous": false,
      "inputs": [
        {
          "indexed": true,
          "internalType": "bytes32",
          "name": "role",
          "type": "bytes32"
        },
        {
          "indexed": true,
          "internalType": "address",
          "name": "account",
          "type": "address"
        },
        {
          "indexed": true,
          "internalType": "address",
          "name": "sender",
          "type": "address"
        }
      ],
      "name": "RoleRevoked",
      "type": "event"
    },
    {
      "anonymous": false,
      "inputs": [
        {
          "indexed": false,
          "internalType": "address",
          "name": "account",
          "type": "address"
        },
        {
          "indexed": false,
          "internalType": "int256",
          "name": "amount",
          "type": "int256"
        },
        {
          "indexed": false,
          "internalType": "uint256",
          "name": "totalElegibleAmount",
          "type": "uint256"
        },
        {
          "indexed": false,
          "internalType": "uint256",
          "name": "totalClaimedAmount",
          "type": "uint256"
        }
      ],
      "name": "WhitelistBalanceChanged",
      "type": "event"
    },
    {
      "inputs": [
        {
          "internalType": "address",
          "name": "account",
          "type": "address"
        },
        {
          "internalType": "uint256",
          "name": "amount",
          "type": "uint256"
        }
      ],
      "name": "addToWhitelist",
      "outputs": [],
      "stateMutability": "nonpayable",
      "type": "function"
    },
    {
      "inputs": [
        {
          "internalType": "address[]",
          "name": "accounts",
          "type": "address[]"
        },
        {
          "internalType": "uint256[]",
          "name": "amounts",
          "type": "uint256[]"
        }
      ],
      "name": "addToWhitelistBatch",
      "outputs": [],
      "stateMutability": "nonpayable",
      "type": "function"
    },
    {
      "inputs": [
        {
          "internalType": "address",
          "name": "account",
          "type": "address"
        }
      ],
      "name": "whitelistBalance",
      "outputs": [
        {
          "internalType": "uint256",
          "name": "",
          "type": "uint256"
        }
      ],
      "stateMutability": "view",
      "type": "function"
    },
    {
      "inputs": [
        {
          "internalType": "address",
          "name": "account",
          "type": "address"
        }
      ],
      "name": "whitelistClaimed",
      "outputs": [
        {
          "internalType": "uint256",
          "name": "",
          "type": "uint256"
        }
      ],
      "stateMutability": "view",
      "type": "function"
    }
  ],
  "transactionHash": "0xb7490340065fd7ff4a1dcb54ad62c017649bacd3e6703bf46904bef84db0a7ed",
  "args": [],
  "numDeployments": 5,
  "solcInputHash": "ceec884e4f0fd5652164bc56988e9b64",
  "bytecode": "0x608060405234801561001057600080fd5b506109e1806100206000396000f3fe608060405234801561001057600080fd5b506004361061004c5760003560e01c8063214405fc14610051578063368e186114610066578063601288dc1461008b578063db4bec441461009e575b600080fd5b61006461005f36600461075d565b6100b1565b005b610079610074366004610787565b6100ef565b60405190815260200160405180910390f35b6100646100993660046107ee565b61012e565b6100796100ac366004610787565b61016b565b6100e16100dc7ff6deb63e40d71b08820818e006e23fcceb1fce7a499bc15b71b2526cbf9efa725490565b6101a8565b6100eb82826101b5565b5050565b6001600160a01b03811660009081527ff38d3885e664c9638de25f02e645e1955ebebe901d7be2c2037db6a5bcbb358960205260408120545b92915050565b6101596100dc7ff6deb63e40d71b08820818e006e23fcceb1fce7a499bc15b71b2526cbf9efa725490565b610165848484846102c0565b50505050565b6001600160a01b03811660009081527ff38d3885e664c9638de25f02e645e1955ebebe901d7be2c2037db6a5bcbb35886020526040812054610128565b6101b2813361051e565b50565b6101e06100dc7ff6deb63e40d71b08820818e006e23fcceb1fce7a499bc15b71b2526cbf9efa725490565b6001600160a01b03821660009081527ff38d3885e664c9638de25f02e645e1955ebebe901d7be2c2037db6a5bcbb35896020526040812080547ff38d3885e664c9638de25f02e645e1955ebebe901d7be2c2037db6a5bcbb358892849291610249908490610870565b90915550506001600160a01b0383166000908152600182016020908152604080832054848352928190205481513381529283018690529082019290925260608101919091527fdb4f4d78cc1c961ddedd2f43596d41d07e607b7517c7106d83f6421215e1f6a79060800160405180910390a1505050565b6102eb6100dc7ff6deb63e40d71b08820818e006e23fcceb1fce7a499bc15b71b2526cbf9efa725490565b8281146103655760405162461bcd60e51b815260206004820152603e60248201527f57686974656c697374496e7465726e616c2e5f616464546f57686974656c697360448201527f7442617463683a20496e70757473206c656e677468206d69736d61746368000060648201526084015b60405180910390fd5b7ff38d3885e664c9638de25f02e645e1955ebebe901d7be2c2037db6a5bcbb358860005b84811015610516578383828181106103a3576103a3610883565b905060200201358260010160008888858181106103c2576103c2610883565b90506020020160208101906103d79190610787565b6001600160a01b03166001600160a01b0316815260200190815260200160002060008282546104069190610870565b909155507fdb4f4d78cc1c961ddedd2f43596d41d07e607b7517c7106d83f6421215e1f6a790503385858481811061044057610440610883565b905060200201358460010160008a8a8781811061045f5761045f610883565b90506020020160208101906104749190610787565b6001600160a01b03166001600160a01b03168152602001908152602001600020548560000160008b8b888181106104ad576104ad610883565b90506020020160208101906104c29190610787565b6001600160a01b03908116825260208083019390935260409182016000205482519690911686529185019390935291830152606082015260800160405180910390a18061050e81610899565b915050610389565b505050505050565b6105288282610580565b6100eb5761053e816001600160a01b03166105dc565b6105498360206105ee565b60405160200161055a9291906108d6565b60408051601f198184030181529082905262461bcd60e51b825261035c9160040161094b565b60006105d5827fd3889cc5458b268d0544e5534672df1296288ca3f93cbd39bd6f497a5c622811600086815260209190915260409020906001600160a01b038116600090815260018301602052604081205415155b9392505050565b60606101286001600160a01b03831660145b606060006105fd83600261097e565b610608906002610870565b67ffffffffffffffff81111561062057610620610995565b6040519080825280601f01601f19166020018201604052801561064a576020820181803683370190505b509050600360fc1b8160008151811061066557610665610883565b60200101906001600160f81b031916908160001a905350600f60fb1b8160018151811061069457610694610883565b60200101906001600160f81b031916908160001a905350600160028402015b6001811115610721576f181899199a1a9b1b9c1cb0b131b232b360811b85600f16601081106106e4576106e4610883565b1a60f81b8282815181106106fa576106fa610883565b60200101906001600160f81b031916908160001a90535060049490941c93600019016106b3565b5083156105d55760405163c913478560e01b815260040160405180910390fd5b80356001600160a01b038116811461075857600080fd5b919050565b6000806040838503121561077057600080fd5b61077983610741565b946020939093013593505050565b60006020828403121561079957600080fd5b6105d582610741565b60008083601f8401126107b457600080fd5b50813567ffffffffffffffff8111156107cc57600080fd5b6020830191508360208260051b85010111156107e757600080fd5b9250929050565b6000806000806040858703121561080457600080fd5b843567ffffffffffffffff8082111561081c57600080fd5b610828888389016107a2565b9096509450602087013591508082111561084157600080fd5b5061084e878288016107a2565b95989497509550505050565b634e487b7160e01b600052601160045260246000fd5b808201808211156101285761012861085a565b634e487b7160e01b600052603260045260246000fd5b6000600182016108ab576108ab61085a565b5060010190565b60005b838110156108cd5781810151838201526020016108b5565b50506000910152565b7f416363657373436f6e74726f6c3a206163636f756e742000000000000000000081526000835161090e8160178501602088016108b2565b7001034b99036b4b9b9b4b733903937b6329607d1b601791840191820152835161093f8160288401602088016108b2565b01602801949350505050565b602081526000825180602084015261096a8160408501602087016108b2565b601f01601f19169190910160400192915050565b80820281158282048414176101285761012861085a565b634e487b7160e01b600052604160045260246000fdfea2646970667358221220694acbd01ea7edfff1d67dbcad74e4505e3e770e54b5fe2c239db17651b1d98a64736f6c63430008130033",
  "devdoc": {
    "kind": "dev",
    "methods": {
      "addToWhitelist(address,uint256)": {
        "details": "This function can only be called by an address with the manager role",
        "params": {
          "account": "The address to add to the whitelist",
          "amount": "The amount to whitelist for the address"
        }
      },
      "addToWhitelistBatch(address[],uint256[])": {
        "details": "This function can only be called by an address with the manager role",
        "params": {
          "accounts": "An array of addresses to add to the whitelist",
          "amounts": "An array of amounts to whitelist for each address"
        }
      },
      "whitelistBalance(address)": {
        "params": {
          "account": "The address of the account to query"
        },
        "returns": {
          "_0": "The remaining balance of the account"
        }
      },
      "whitelistClaimed(address)": {
        "params": {
          "account": "The address of the account to query"
        },
        "returns": {
          "_0": "The amount claimed by the account"
        }
      }
    },
    "title": "WhitelistFacet",
    "version": 1
  },
  "userdoc": {
    "kind": "user",
    "methods": {
      "addToWhitelist(address,uint256)": {
        "notice": "Adds a new address to the whitelist with a specific amount"
      },
      "addToWhitelistBatch(address[],uint256[])": {
        "notice": "Adds multiple addresses to the whitelist with specific amounts"
      },
      "whitelistBalance(address)": {
        "notice": "Returns the remaining balance for a whitelisted account"
      },
      "whitelistClaimed(address)": {
        "notice": "Returns the amount claimed by a whitelisted account"
      }
    },
    "notice": "This contract allows the admins to whitelist an address with a specific amount, which can then be used to claim tokens in other contracts. To consume the whitelist, the token contracts should call the internal functions from WhitelistInternal. This contract can be used as a facet of a diamond which follows the EIP-2535 diamond standard.",
    "version": 1
  },
  "storageLayout": {
    "storage": [],
    "types": null
  }
}