{
  "address": "0xFF1Ea206777E09c3fa143d34342956012e436fAf",
  "abi": [
    {
      "inputs": [],
      "name": "Roles_MissingAdminRole",
      "type": "error"
    },
    {
      "inputs": [],
      "name": "Roles_MissingAutomationRole",
      "type": "error"
    },
    {
      "inputs": [],
      "name": "Roles_MissingManagerRole",
      "type": "error"
    },
    {
      "inputs": [],
      "name": "Whitelist_ClaimInactive",
      "type": "error"
    },
    {
      "inputs": [],
      "name": "Whitelist_ClaimStateAlreadyUpdated",
      "type": "error"
    },
    {
      "inputs": [],
      "name": "Whitelist_ExceedsElegibleAmount",
      "type": "error"
    },
    {
      "inputs": [],
      "name": "Whitelist_InputDataMismatch",
      "type": "error"
    },
    {
      "anonymous": false,
      "inputs": [
        {
          "indexed": true,
          "internalType": "bytes32",
          "name": "role",
          "type": "bytes32"
        },
        {
          "indexed": true,
          "internalType": "bytes32",
          "name": "previousAdminRole",
          "type": "bytes32"
        },
        {
          "indexed": true,
          "internalType": "bytes32",
          "name": "newAdminRole",
          "type": "bytes32"
        }
      ],
      "name": "RoleAdminChanged",
      "type": "event"
    },
    {
      "anonymous": false,
      "inputs": [
        {
          "indexed": true,
          "internalType": "bytes32",
          "name": "role",
          "type": "bytes32"
        },
        {
          "indexed": true,
          "internalType": "address",
          "name": "account",
          "type": "address"
        },
        {
          "indexed": true,
          "internalType": "address",
          "name": "sender",
          "type": "address"
        }
      ],
      "name": "RoleGranted",
      "type": "event"
    },
    {
      "anonymous": false,
      "inputs": [
        {
          "indexed": true,
          "internalType": "bytes32",
          "name": "role",
          "type": "bytes32"
        },
        {
          "indexed": true,
          "internalType": "address",
          "name": "account",
          "type": "address"
        },
        {
          "indexed": true,
          "internalType": "address",
          "name": "sender",
          "type": "address"
        }
      ],
      "name": "RoleRevoked",
      "type": "event"
    },
    {
      "anonymous": false,
      "inputs": [
        {
          "indexed": false,
          "internalType": "address",
          "name": "account",
          "type": "address"
        },
        {
          "indexed": false,
          "internalType": "enum WhitelistStorage.PoolId",
          "name": "poolId",
          "type": "uint8"
        },
        {
          "indexed": false,
          "internalType": "uint256",
          "name": "totalElegibleAmount",
          "type": "uint256"
        },
        {
          "indexed": false,
          "internalType": "uint256",
          "name": "totalClaimedAmount",
          "type": "uint256"
        }
      ],
      "name": "WhitelistBalanceChanged",
      "type": "event"
    },
    {
      "inputs": [
        {
          "internalType": "address",
          "name": "account",
          "type": "address"
        }
      ],
      "name": "claimedGuaranteedPool",
      "outputs": [
        {
          "internalType": "uint256",
          "name": "",
          "type": "uint256"
        }
      ],
      "stateMutability": "view",
      "type": "function"
    },
    {
      "inputs": [
        {
          "internalType": "address",
          "name": "account",
          "type": "address"
        }
      ],
      "name": "claimedRestrictedPool",
      "outputs": [
        {
          "internalType": "uint256",
          "name": "",
          "type": "uint256"
        }
      ],
      "stateMutability": "view",
      "type": "function"
    },
    {
      "inputs": [
        {
          "internalType": "address",
          "name": "account",
          "type": "address"
        }
      ],
      "name": "elegibleGuaranteedPool",
      "outputs": [
        {
          "internalType": "uint256",
          "name": "",
          "type": "uint256"
        }
      ],
      "stateMutability": "view",
      "type": "function"
    },
    {
      "inputs": [
        {
          "internalType": "address",
          "name": "account",
          "type": "address"
        }
      ],
      "name": "elegibleRestrictedPool",
      "outputs": [
        {
          "internalType": "uint256",
          "name": "",
          "type": "uint256"
        }
      ],
      "stateMutability": "view",
      "type": "function"
    },
    {
      "inputs": [
        {
          "internalType": "address",
          "name": "account",
          "type": "address"
        },
        {
          "internalType": "uint256",
          "name": "amount",
          "type": "uint256"
        }
      ],
      "name": "increaseElegibleGuaranteedPool",
      "outputs": [],
      "stateMutability": "nonpayable",
      "type": "function"
    },
    {
      "inputs": [
        {
          "internalType": "address[]",
          "name": "accounts",
          "type": "address[]"
        },
        {
          "internalType": "uint256[]",
          "name": "amounts",
          "type": "uint256[]"
        }
      ],
      "name": "increaseElegibleGuaranteedPoolBatch",
      "outputs": [],
      "stateMutability": "nonpayable",
      "type": "function"
    },
    {
      "inputs": [
        {
          "internalType": "address",
          "name": "account",
          "type": "address"
        },
        {
          "internalType": "uint256",
          "name": "amount",
          "type": "uint256"
        }
      ],
      "name": "increaseElegibleRestrictedPool",
      "outputs": [],
      "stateMutability": "nonpayable",
      "type": "function"
    },
    {
      "inputs": [
        {
          "internalType": "address[]",
          "name": "accounts",
          "type": "address[]"
        },
        {
          "internalType": "uint256[]",
          "name": "amounts",
          "type": "uint256[]"
        }
      ],
      "name": "increaseElegibleRestrictedPoolBatch",
      "outputs": [],
      "stateMutability": "nonpayable",
      "type": "function"
    },
    {
      "inputs": [],
      "name": "isClaimActiveGuaranteedPool",
      "outputs": [
        {
          "internalType": "bool",
          "name": "active",
          "type": "bool"
        }
      ],
      "stateMutability": "view",
      "type": "function"
    },
    {
      "inputs": [],
      "name": "isClaimActiveRestrictedPool",
      "outputs": [
        {
          "internalType": "bool",
          "name": "active",
          "type": "bool"
        }
      ],
      "stateMutability": "view",
      "type": "function"
    },
    {
      "inputs": [
        {
          "internalType": "bool",
          "name": "active",
          "type": "bool"
        }
      ],
      "name": "setClaimActiveGuaranteedPool",
      "outputs": [],
      "stateMutability": "nonpayable",
      "type": "function"
    },
    {
      "inputs": [
        {
          "internalType": "bool",
          "name": "active",
          "type": "bool"
        }
      ],
      "name": "setClaimActiveRestrictedPool",
      "outputs": [],
      "stateMutability": "nonpayable",
      "type": "function"
    },
    {
      "inputs": [
        {
          "internalType": "address",
          "name": "account",
          "type": "address"
        },
        {
          "internalType": "uint256",
          "name": "totalAmount",
          "type": "uint256"
        }
      ],
      "name": "setElegibleGuaranteedPool",
      "outputs": [],
      "stateMutability": "nonpayable",
      "type": "function"
    },
    {
      "inputs": [
        {
          "internalType": "address[]",
          "name": "accounts",
          "type": "address[]"
        },
        {
          "internalType": "uint256[]",
          "name": "totalAmounts",
          "type": "uint256[]"
        }
      ],
      "name": "setElegibleGuaranteedPoolBatch",
      "outputs": [],
      "stateMutability": "nonpayable",
      "type": "function"
    },
    {
      "inputs": [
        {
          "internalType": "address",
          "name": "account",
          "type": "address"
        },
        {
          "internalType": "uint256",
          "name": "totalAmount",
          "type": "uint256"
        }
      ],
      "name": "setElegibleRestrictedPool",
      "outputs": [],
      "stateMutability": "nonpayable",
      "type": "function"
    },
    {
      "inputs": [
        {
          "internalType": "address[]",
          "name": "accounts",
          "type": "address[]"
        },
        {
          "internalType": "uint256[]",
          "name": "totalAmounts",
          "type": "uint256[]"
        }
      ],
      "name": "setElegibleRestrictedPoolBatch",
      "outputs": [],
      "stateMutability": "nonpayable",
      "type": "function"
    },
    {
      "inputs": [],
      "name": "totalClaimedGuaranteedPool",
      "outputs": [
        {
          "internalType": "uint256",
          "name": "",
          "type": "uint256"
        }
      ],
      "stateMutability": "view",
      "type": "function"
    },
    {
      "inputs": [],
      "name": "totalClaimedRestrictedPool",
      "outputs": [
        {
          "internalType": "uint256",
          "name": "",
          "type": "uint256"
        }
      ],
      "stateMutability": "view",
      "type": "function"
    },
    {
      "inputs": [],
      "name": "totalElegibleGuaranteedPool",
      "outputs": [
        {
          "internalType": "uint256",
          "name": "",
          "type": "uint256"
        }
      ],
      "stateMutability": "view",
      "type": "function"
    },
    {
      "inputs": [],
      "name": "totalElegibleRestrictedPool",
      "outputs": [
        {
          "internalType": "uint256",
          "name": "",
          "type": "uint256"
        }
      ],
      "stateMutability": "view",
      "type": "function"
    }
  ],
  "transactionHash": "0x9ab505aeb35e661c0e79b7f907cf06f165c6e0881697227c0f9159c23127eed5",
  "args": [],
  "numDeployments": 1,
  "solcInputHash": "687a54a673cde10a47d7d892de7d1aa9",
  "bytecode": "0x608060405234801561001057600080fd5b50611412806100206000396000f3fe608060405234801561001057600080fd5b506004361061012c5760003560e01c80639a211f1a116100ad578063d3442b7a11610071578063d3442b7a1461023c578063d3d7f6f814610244578063d4aa0d0e14610257578063e2d5c0c91461026a578063f154fba31461027d57600080fd5b80639a211f1a146101e8578063b1716b3e146101fb578063b4f212fa1461020e578063b7ad509014610216578063c0e79a3b1461022957600080fd5b806353fb0c80116100f457806353fb0c801461019157806355880dde146101a45780635fcd6d83146101ba5780637017b4a9146101c25780638e94687d146101d557600080fd5b80630599c74514610131578063286fd540146101465780632978261e146101635780633224a303146101765780633e8b5f8414610189575b600080fd5b61014461013f3660046111b3565b610290565b005b61014e6102dc565b60405190151581526020015b60405180910390f35b6101446101713660046111dd565b6102ed565b61014461018436600461124b565b610331565b61014e61037b565b61014461019f36600461124b565b610387565b6101ac6103cb565b60405190815260200161015a565b6101ac6103d7565b6101446101d036600461124b565b6103e3565b6101ac6101e33660046112b7565b610427565b6101ac6101f63660046112b7565b61043a565b6101ac6102093660046112b7565b610447565b6101ac610454565b6101ac6102243660046112b7565b610460565b6101446102373660046111b3565b61046d565b6101ac6104af565b6101446102523660046111b3565b6104bb565b6101446102653660046111b3565b6104fd565b61014461027836600461124b565b61053f565b61014461028b3660046111dd565b610583565b6102af6102a960008051602061139d8339815191525490565b336105c4565b6102cc5760405163d0befa1d60e01b815260040160405180910390fd5b6102d860018383610620565b5050565b60006102e8600061083f565b905090565b6103066102a960008051602061139d8339815191525490565b6103235760405163d0befa1d60e01b815260040160405180910390fd5b61032e600182610892565b50565b61034a6102a960008051602061139d8339815191525490565b6103675760405163d0befa1d60e01b815260040160405180910390fd5b61037560008585858561094f565b50505050565b60006102e8600161083f565b6103a06102a960008051602061139d8339815191525490565b6103bd5760405163d0befa1d60e01b815260040160405180910390fd5b610375600085858585610c23565b60006102e86000610f5b565b60006102e86001610f5b565b6103fc6102a960008051602061139d8339815191525490565b6104195760405163d0befa1d60e01b815260040160405180910390fd5b61037560018585858561094f565b6000610434600083610faa565b92915050565b6000610434600183610faa565b600061043460018361101d565b60006102e86001611082565b600061043460008361101d565b6104866102a960008051602061139d8339815191525490565b6104a35760405163d0befa1d60e01b815260040160405180910390fd5b6102d8600083836110d1565b60006102e86000611082565b6104d46102a960008051602061139d8339815191525490565b6104f15760405163d0befa1d60e01b815260040160405180910390fd5b6102d860008383610620565b6105166102a960008051602061139d8339815191525490565b6105335760405163d0befa1d60e01b815260040160405180910390fd5b6102d8600183836110d1565b6105586102a960008051602061139d8339815191525490565b6105755760405163d0befa1d60e01b815260040160405180910390fd5b610375600185858585610c23565b61059c6102a960008051602061139d8339815191525490565b6105b95760405163d0befa1d60e01b815260040160405180910390fd5b61032e600082610892565b6000610619827fd3889cc5458b268d0544e5534672df1296288ca3f93cbd39bd6f497a5c622811600086815260209190915260409020906001600160a01b038116600090815260018301602052604081205415155b9392505050565b6000805160206113bd833981519152806000856001811115610644576106446112d2565b6001811115610655576106556112d2565b8152602080820192909252604090810160009081206001600160a01b038716825260010190925290205461068990836112fe565b81600086600181111561069e5761069e6112d2565b60018111156106af576106af6112d2565b815260200190815260200160002060030160008282546106cf9190611311565b909155508290508160008660018111156106eb576106eb6112d2565b60018111156106fc576106fc6112d2565b81526020019081526020016000206001016000856001600160a01b03166001600160a01b03168152602001908152602001600020600082825461073f9190611311565b909155507f6526db8cb857c3bc972db45a7984e99efaed17f7a4e51afb85c64450133cb55c9050838583600082600181111561077d5761077d6112d2565b600181111561078e5761078e6112d2565b81526020019081526020016000206001016000876001600160a01b03166001600160a01b03168152602001908152602001600020548460000160008960018111156107db576107db6112d2565b60018111156107ec576107ec6112d2565b81526020019081526020016000206000016000886001600160a01b03166001600160a01b03168152602001908152602001600020546040516108319493929190611324565b60405180910390a150505050565b60006000805160206113bd8339815191526000836001811115610864576108646112d2565b6001811115610875576108756112d2565b815260208101919091526040016000206004015460ff1692915050565b6000805160206113bd8339815191528060008460018111156108b6576108b66112d2565b60018111156108c7576108c76112d2565b815260208101919091526040016000206004015460ff1615158215150361090157604051634151cc7b60e01b815260040160405180910390fd5b81816000856001811115610917576109176112d2565b6001811115610928576109286112d2565b81526020810191909152604001600020600401805460ff1916911515919091179055505050565b82811461096f576040516311bb761360e01b815260040160405180910390fd5b6000805160206113bd83398151915260005b84811015610c1a5783838281811061099b5761099b61136d565b905060200201358260000160008960018111156109ba576109ba6112d2565b60018111156109cb576109cb6112d2565b815260200190815260200160002060010160008888858181106109f0576109f061136d565b9050602002016020810190610a0591906112b7565b6001600160a01b03166001600160a01b031681526020019081526020016000206000828254610a349190611311565b909155508490508382818110610a4c57610a4c61136d565b90506020020135826000016000896001811115610a6b57610a6b6112d2565b6001811115610a7c57610a7c6112d2565b81526020019081526020016000206003016000828254610a9c9190611311565b909155507f6526db8cb857c3bc972db45a7984e99efaed17f7a4e51afb85c64450133cb55c9050868683818110610ad557610ad561136d565b9050602002016020810190610aea91906112b7565b88846000826001811115610b0057610b006112d2565b6001811115610b1157610b116112d2565b815260200190815260200160002060010160008a8a87818110610b3657610b3661136d565b9050602002016020810190610b4b91906112b7565b6001600160a01b03166001600160a01b03168152602001908152602001600020548560000160008c6001811115610b8457610b846112d2565b6001811115610b9557610b956112d2565b815260200190815260200160002060000160008b8b88818110610bba57610bba61136d565b9050602002016020810190610bcf91906112b7565b6001600160a01b03166001600160a01b0316815260200190815260200160002054604051610c009493929190611324565b60405180910390a180610c1281611383565b915050610981565b50505050505050565b828114610c43576040516311bb761360e01b815260040160405180910390fd5b6000805160206113bd83398151915260005b84811015610c1a57816000886001811115610c7257610c726112d2565b6001811115610c8357610c836112d2565b81526020019081526020016000206001016000878784818110610ca857610ca861136d565b9050602002016020810190610cbd91906112b7565b6001600160a01b03166001600160a01b0316815260200190815260200160002054848483818110610cf057610cf061136d565b90506020020135610d0191906112fe565b826000896001811115610d1657610d166112d2565b6001811115610d2757610d276112d2565b81526020019081526020016000206003016000828254610d479190611311565b909155508490508382818110610d5f57610d5f61136d565b90506020020135826000016000896001811115610d7e57610d7e6112d2565b6001811115610d8f57610d8f6112d2565b81526020019081526020016000206001016000888885818110610db457610db461136d565b9050602002016020810190610dc991906112b7565b6001600160a01b031681526020810191909152604001600020557f6526db8cb857c3bc972db45a7984e99efaed17f7a4e51afb85c64450133cb55c868683818110610e1657610e1661136d565b9050602002016020810190610e2b91906112b7565b88846000826001811115610e4157610e416112d2565b6001811115610e5257610e526112d2565b815260200190815260200160002060010160008a8a87818110610e7757610e7761136d565b9050602002016020810190610e8c91906112b7565b6001600160a01b03166001600160a01b03168152602001908152602001600020548560000160008c6001811115610ec557610ec56112d2565b6001811115610ed657610ed66112d2565b815260200190815260200160002060000160008b8b88818110610efb57610efb61136d565b9050602002016020810190610f1091906112b7565b6001600160a01b03166001600160a01b0316815260200190815260200160002054604051610f419493929190611324565b60405180910390a180610f5381611383565b915050610c55565b60006000805160206113bd8339815191526000836001811115610f8057610f806112d2565b6001811115610f9157610f916112d2565b8152602001908152602001600020600201549050919050565b60006000805160206113bd8339815191526000846001811115610fcf57610fcf6112d2565b6001811115610fe057610fe06112d2565b81526020019081526020016000206001016000836001600160a01b03166001600160a01b0316815260200190815260200160002054905092915050565b60006000805160206113bd8339815191526000846001811115611042576110426112d2565b6001811115611053576110536112d2565b8152602080820192909252604090810160009081206001600160a01b0386168252909252902054905092915050565b60006000805160206113bd83398151915260008360018111156110a7576110a76112d2565b60018111156110b8576110b86112d2565b8152602001908152602001600020600301549050919050565b6000805160206113bd833981519152818160008660018111156110f6576110f66112d2565b6001811115611107576111076112d2565b81526020019081526020016000206001016000856001600160a01b03166001600160a01b03168152602001908152602001600020600082825461114a9190611311565b90915550829050816000866001811115611166576111666112d2565b6001811115611177576111776112d2565b8152602001908152602001600020600301600082825461073f9190611311565b80356001600160a01b03811681146111ae57600080fd5b919050565b600080604083850312156111c657600080fd5b6111cf83611197565b946020939093013593505050565b6000602082840312156111ef57600080fd5b8135801515811461061957600080fd5b60008083601f84011261121157600080fd5b50813567ffffffffffffffff81111561122957600080fd5b6020830191508360208260051b850101111561124457600080fd5b9250929050565b6000806000806040858703121561126157600080fd5b843567ffffffffffffffff8082111561127957600080fd5b611285888389016111ff565b9096509450602087013591508082111561129e57600080fd5b506112ab878288016111ff565b95989497509550505050565b6000602082840312156112c957600080fd5b61061982611197565b634e487b7160e01b600052602160045260246000fd5b634e487b7160e01b600052601160045260246000fd5b81810381811115610434576104346112e8565b80820180821115610434576104346112e8565b6001600160a01b0385168152608081016002851061135257634e487b7160e01b600052602160045260246000fd5b84602083015283604083015282606083015295945050505050565b634e487b7160e01b600052603260045260246000fd5b600060018201611395576113956112e8565b506001019056fef6deb63e40d71b08820818e006e23fcceb1fce7a499bc15b71b2526cbf9efa72f38d3885e664c9638de25f02e645e1955ebebe901d7be2c2037db6a5bcbb3588a264697066735822122030da36b2aafacc8abe59be88cb99b7057d90df89bb96148b935699812bd700ce64736f6c63430008130033",
  "devdoc": {
    "kind": "dev",
    "methods": {
      "claimedGuaranteedPool(address)": {
        "returns": {
          "_0": "The amount claimed from the guaranteed pool by the account"
        }
      },
      "claimedRestrictedPool(address)": {
        "returns": {
          "_0": "The amount claimed from the restricted pool by the account "
        }
      },
      "elegibleGuaranteedPool(address)": {
        "returns": {
          "_0": "The account elegible amount from the guaranteed pool"
        }
      },
      "elegibleRestrictedPool(address)": {
        "returns": {
          "_0": "The account elegible amount from the restricted pool"
        }
      },
      "increaseElegibleGuaranteedPool(address,uint256)": {
        "details": "This function can only be called by an address with the manager role",
        "params": {
          "account": "The address to add to the whitelist",
          "amount": "The amount to whitelist for the address"
        }
      },
      "increaseElegibleGuaranteedPoolBatch(address[],uint256[])": {
        "details": "This function can only be called by an address with the manager role",
        "params": {
          "accounts": "An array of addresses to add to the whitelist",
          "amounts": "An array of amounts to whitelist for each address"
        }
      },
      "increaseElegibleRestrictedPool(address,uint256)": {
        "details": "This function can only be called by an address with the manager role",
        "params": {
          "account": "The address to add to the whitelist",
          "amount": "The amount to whitelist for the address"
        }
      },
      "increaseElegibleRestrictedPoolBatch(address[],uint256[])": {
        "details": "This function can only be called by an address with the manager role",
        "params": {
          "accounts": "An array of addresses to add to the whitelist",
          "amounts": "An array of amounts to whitelist for each address"
        }
      },
      "isClaimActiveGuaranteedPool()": {
        "returns": {
          "active": "bool indicating if claim is active"
        }
      },
      "isClaimActiveRestrictedPool()": {
        "returns": {
          "active": "bool indicating if claim is active"
        }
      },
      "setClaimActiveGuaranteedPool(bool)": {
        "details": "This function can only be called by an address with the manager role"
      },
      "setClaimActiveRestrictedPool(bool)": {
        "details": "This function can only be called by an address with the manager role"
      },
      "setElegibleGuaranteedPool(address,uint256)": {
        "details": "This function can only be called by an address with the manager role",
        "params": {
          "account": "The address to add to the whitelist",
          "totalAmount": "The amount to whitelist for the address"
        }
      },
      "setElegibleGuaranteedPoolBatch(address[],uint256[])": {
        "details": "This function can only be called by an address with the manager role",
        "params": {
          "accounts": "An array of addresses to add to the whitelist",
          "totalAmounts": "An array of amounts to whitelist for each address"
        }
      },
      "setElegibleRestrictedPool(address,uint256)": {
        "details": "This function can only be called by an address with the manager role",
        "params": {
          "account": "The address to add to the whitelist",
          "totalAmount": "The amount to whitelist for the address"
        }
      },
      "setElegibleRestrictedPoolBatch(address[],uint256[])": {
        "details": "This function can only be called by an address with the manager role",
        "params": {
          "accounts": "An array of addresses to add to the whitelist",
          "totalAmounts": "An array of amounts to whitelist for each address"
        }
      },
      "totalClaimedGuaranteedPool()": {
        "returns": {
          "_0": "The total claimed amount from the Guaranteed pool"
        }
      },
      "totalClaimedRestrictedPool()": {
        "returns": {
          "_0": "The total claimed amount from the Restricted pool"
        }
      },
      "totalElegibleGuaranteedPool()": {
        "returns": {
          "_0": "The total elegible amount from the Guaranteed pool"
        }
      },
      "totalElegibleRestrictedPool()": {
        "returns": {
          "_0": "The total elegible amount from the Restricted pool"
        }
      }
    },
    "title": "WhitelistFacet",
    "version": 1
  },
  "userdoc": {
    "kind": "user",
    "methods": {
      "increaseElegibleGuaranteedPool(address,uint256)": {
        "notice": "Increase the account whitelist elegible amount in the Guaranteed pool"
      },
      "increaseElegibleGuaranteedPoolBatch(address[],uint256[])": {
        "notice": "Increase the guaranteed pool elegible amounts for multiple addresses"
      },
      "increaseElegibleRestrictedPool(address,uint256)": {
        "notice": "Increase the account whitelist elegible amount in the restricted pool"
      },
      "increaseElegibleRestrictedPoolBatch(address[],uint256[])": {
        "notice": "Increase the restricted pool elegible amounts for multiple addresses"
      },
      "isClaimActiveGuaranteedPool()": {
        "notice": "Returns true if elegible tokens can be claimed in the guaranteed pool, or false otherwise"
      },
      "isClaimActiveRestrictedPool()": {
        "notice": "Returns true if elegible tokens can be claimed in the restricted pool, or false otherwise"
      },
      "setClaimActiveGuaranteedPool(bool)": {
        "notice": "Updates the claim state to active and enables the guaranteed pool token claim"
      },
      "setClaimActiveRestrictedPool(bool)": {
        "notice": "Updates the claim state to active and enables the restricted pool token claim"
      },
      "setElegibleGuaranteedPool(address,uint256)": {
        "notice": "Adds a new address to the Guaranteed Pool with a specific amount"
      },
      "setElegibleGuaranteedPoolBatch(address[],uint256[])": {
        "notice": "Adds multiple addresses to the Guaranteed Pool with specific amounts"
      },
      "setElegibleRestrictedPool(address,uint256)": {
        "notice": "Adds a new address to the Restricted Pool with a specific amount"
      },
      "setElegibleRestrictedPoolBatch(address[],uint256[])": {
        "notice": "Adds multiple addresses to the Restricted Pool with specific amounts"
      }
    },
    "notice": "This contract allows the admins to whitelist an address with a specific amount, which can then be used to claim tokens in other contracts. To consume the whitelist, the token contracts should call the internal functions from WhitelistInternal. This contract can be used as a facet of a diamond which follows the EIP-2535 diamond standard.",
    "version": 1
  },
  "storageLayout": {
    "storage": [],
    "types": null
  }
}