{
  "address": "0x2b1f711A026c5C957bB16cD06b922b07d6AB1953",
  "abi": [
    {
      "inputs": [],
      "name": "UintUtils__InsufficientHexLength",
      "type": "error"
    },
    {
      "anonymous": false,
      "inputs": [
        {
          "indexed": true,
          "internalType": "bytes32",
          "name": "role",
          "type": "bytes32"
        },
        {
          "indexed": true,
          "internalType": "bytes32",
          "name": "previousAdminRole",
          "type": "bytes32"
        },
        {
          "indexed": true,
          "internalType": "bytes32",
          "name": "newAdminRole",
          "type": "bytes32"
        }
      ],
      "name": "RoleAdminChanged",
      "type": "event"
    },
    {
      "anonymous": false,
      "inputs": [
        {
          "indexed": true,
          "internalType": "bytes32",
          "name": "role",
          "type": "bytes32"
        },
        {
          "indexed": true,
          "internalType": "address",
          "name": "account",
          "type": "address"
        },
        {
          "indexed": true,
          "internalType": "address",
          "name": "sender",
          "type": "address"
        }
      ],
      "name": "RoleGranted",
      "type": "event"
    },
    {
      "anonymous": false,
      "inputs": [
        {
          "indexed": true,
          "internalType": "bytes32",
          "name": "role",
          "type": "bytes32"
        },
        {
          "indexed": true,
          "internalType": "address",
          "name": "account",
          "type": "address"
        },
        {
          "indexed": true,
          "internalType": "address",
          "name": "sender",
          "type": "address"
        }
      ],
      "name": "RoleRevoked",
      "type": "event"
    },
    {
      "anonymous": false,
      "inputs": [
        {
          "indexed": false,
          "internalType": "address",
          "name": "account",
          "type": "address"
        },
        {
          "indexed": false,
          "internalType": "int256",
          "name": "amount",
          "type": "int256"
        },
        {
          "indexed": false,
          "internalType": "uint256",
          "name": "totalElegibleAmount",
          "type": "uint256"
        },
        {
          "indexed": false,
          "internalType": "uint256",
          "name": "totalClaimedAmount",
          "type": "uint256"
        }
      ],
      "name": "WhitelistBalanceChanged",
      "type": "event"
    },
    {
      "inputs": [
        {
          "internalType": "address",
          "name": "account",
          "type": "address"
        },
        {
          "internalType": "uint256",
          "name": "amount",
          "type": "uint256"
        }
      ],
      "name": "addToWhitelist",
      "outputs": [],
      "stateMutability": "nonpayable",
      "type": "function"
    },
    {
      "inputs": [
        {
          "internalType": "address[]",
          "name": "accounts",
          "type": "address[]"
        },
        {
          "internalType": "uint256[]",
          "name": "amounts",
          "type": "uint256[]"
        }
      ],
      "name": "addToWhitelistBatch",
      "outputs": [],
      "stateMutability": "nonpayable",
      "type": "function"
    },
    {
      "inputs": [
        {
          "internalType": "address",
          "name": "account",
          "type": "address"
        }
      ],
      "name": "getWhitelistBalance",
      "outputs": [
        {
          "internalType": "uint256",
          "name": "",
          "type": "uint256"
        }
      ],
      "stateMutability": "view",
      "type": "function"
    },
    {
      "inputs": [
        {
          "internalType": "address",
          "name": "account",
          "type": "address"
        }
      ],
      "name": "getWhitelistClaimed",
      "outputs": [
        {
          "internalType": "uint256",
          "name": "",
          "type": "uint256"
        }
      ],
      "stateMutability": "view",
      "type": "function"
    }
  ],
  "transactionHash": "0x3977aa1148016492d8113f87af04ef5177a33450d34713c302f15fa4ecdfdbfa",
  "args": [],
  "numDeployments": 1,
  "solcInputHash": "c21516edc60155c906660e263915c827",
  "bytecode": "0x608060405234801561001057600080fd5b50610940806100206000396000f3fe608060405234801561001057600080fd5b506004361061004c5760003560e01c8063214405fc146100515780633fb7153c14610066578063601288dc1461008b578063752ddfed1461009e575b600080fd5b61006461005f3660046106bc565b6100b1565b005b6100796100743660046106e6565b6100bf565b60405190815260200160405180910390f35b61006461009936600461074d565b6100fe565b6100796100ac3660046106e6565b610110565b6100bb828261014d565b5050565b6001600160a01b03811660009081527ff38d3885e664c9638de25f02e645e1955ebebe901d7be2c2037db6a5bcbb358860205260408120545b92915050565b61010a8484848461025d565b50505050565b6001600160a01b03811660009081527ff38d3885e664c9638de25f02e645e1955ebebe901d7be2c2037db6a5bcbb358960205260408120546100f8565b61017d6101787ff6deb63e40d71b08820818e006e23fcceb1fce7a499bc15b71b2526cbf9efa725490565b610467565b6001600160a01b03821660009081527ff38d3885e664c9638de25f02e645e1955ebebe901d7be2c2037db6a5bcbb35896020526040812080547ff38d3885e664c9638de25f02e645e1955ebebe901d7be2c2037db6a5bcbb3588928492916101e69084906107cf565b90915550506001600160a01b0383166000908152600182016020908152604080832054848352928190205481513381529283018690529082019290925260608101919091527fdb4f4d78cc1c961ddedd2f43596d41d07e607b7517c7106d83f6421215e1f6a79060800160405180910390a1505050565b6102886101787ff6deb63e40d71b08820818e006e23fcceb1fce7a499bc15b71b2526cbf9efa725490565b7ff38d3885e664c9638de25f02e645e1955ebebe901d7be2c2037db6a5bcbb358860005b8481101561045f578383828181106102c6576102c66107e2565b905060200201356102f47ff38d3885e664c9638de25f02e645e1955ebebe901d7be2c2037db6a5bcbb358890565b600101600088888581811061030b5761030b6107e2565b905060200201602081019061032091906106e6565b6001600160a01b03166001600160a01b03168152602001908152602001600020600082825461034f91906107cf565b909155507fdb4f4d78cc1c961ddedd2f43596d41d07e607b7517c7106d83f6421215e1f6a7905033858584818110610389576103896107e2565b905060200201358460010160008a8a878181106103a8576103a86107e2565b90506020020160208101906103bd91906106e6565b6001600160a01b03166001600160a01b03168152602001908152602001600020548560000160008b8b888181106103f6576103f66107e2565b905060200201602081019061040b91906106e6565b6001600160a01b03908116825260208083019390935260409182016000205482519690911686529185019390935291830152606082015260800160405180910390a180610457816107f8565b9150506102ac565b505050505050565b6104718133610474565b50565b61047e82826104df565b6100bb57610494816001600160a01b031661053b565b61049f83602061054d565b6040516020016104b0929190610835565b60408051601f198184030181529082905262461bcd60e51b82526104d6916004016108aa565b60405180910390fd5b6000610534827fd3889cc5458b268d0544e5534672df1296288ca3f93cbd39bd6f497a5c622811600086815260209190915260409020906001600160a01b038116600090815260018301602052604081205415155b9392505050565b60606100f86001600160a01b03831660145b6060600061055c8360026108dd565b6105679060026107cf565b67ffffffffffffffff81111561057f5761057f6108f4565b6040519080825280601f01601f1916602001820160405280156105a9576020820181803683370190505b509050600360fc1b816000815181106105c4576105c46107e2565b60200101906001600160f81b031916908160001a905350600f60fb1b816001815181106105f3576105f36107e2565b60200101906001600160f81b031916908160001a905350600160028402015b6001811115610680576f181899199a1a9b1b9c1cb0b131b232b360811b85600f1660108110610643576106436107e2565b1a60f81b828281518110610659576106596107e2565b60200101906001600160f81b031916908160001a90535060049490941c9360001901610612565b5083156105345760405163c913478560e01b815260040160405180910390fd5b80356001600160a01b03811681146106b757600080fd5b919050565b600080604083850312156106cf57600080fd5b6106d8836106a0565b946020939093013593505050565b6000602082840312156106f857600080fd5b610534826106a0565b60008083601f84011261071357600080fd5b50813567ffffffffffffffff81111561072b57600080fd5b6020830191508360208260051b850101111561074657600080fd5b9250929050565b6000806000806040858703121561076357600080fd5b843567ffffffffffffffff8082111561077b57600080fd5b61078788838901610701565b909650945060208701359150808211156107a057600080fd5b506107ad87828801610701565b95989497509550505050565b634e487b7160e01b600052601160045260246000fd5b808201808211156100f8576100f86107b9565b634e487b7160e01b600052603260045260246000fd5b60006001820161080a5761080a6107b9565b5060010190565b60005b8381101561082c578181015183820152602001610814565b50506000910152565b7f416363657373436f6e74726f6c3a206163636f756e742000000000000000000081526000835161086d816017850160208801610811565b7001034b99036b4b9b9b4b733903937b6329607d1b601791840191820152835161089e816028840160208801610811565b01602801949350505050565b60208152600082518060208401526108c9816040850160208701610811565b601f01601f19169190910160400192915050565b80820281158282048414176100f8576100f86107b9565b634e487b7160e01b600052604160045260246000fdfea26469706673582212205ead33f4fb020330d9df0ccfd83885f3aacf334b50fc2ec5e783adba4ffd8ed464736f6c63430008130033",
  "devdoc": {
    "kind": "dev",
    "methods": {},
    "version": 1
  },
  "userdoc": {
    "kind": "user",
    "methods": {},
    "version": 1
  },
  "storageLayout": {
    "storage": [],
    "types": null
  }
}