{
  "address": "0xb8EA4A3ebb988AED6ea7413F93329060A3e9582A",
  "abi": [
    {
      "inputs": [],
      "name": "UintUtils__InsufficientHexLength",
      "type": "error"
    },
    {
      "inputs": [],
      "name": "Whitelist_ClaimInactive",
      "type": "error"
    },
    {
      "inputs": [],
      "name": "Whitelist_ClaimStateAlreadyUpdated",
      "type": "error"
    },
    {
      "inputs": [],
      "name": "Whitelist_ExceedsElegibleAmount",
      "type": "error"
    },
    {
      "inputs": [],
      "name": "Whitelist_InputDataMismatch",
      "type": "error"
    },
    {
      "anonymous": false,
      "inputs": [
        {
          "indexed": true,
          "internalType": "bytes32",
          "name": "role",
          "type": "bytes32"
        },
        {
          "indexed": true,
          "internalType": "bytes32",
          "name": "previousAdminRole",
          "type": "bytes32"
        },
        {
          "indexed": true,
          "internalType": "bytes32",
          "name": "newAdminRole",
          "type": "bytes32"
        }
      ],
      "name": "RoleAdminChanged",
      "type": "event"
    },
    {
      "anonymous": false,
      "inputs": [
        {
          "indexed": true,
          "internalType": "bytes32",
          "name": "role",
          "type": "bytes32"
        },
        {
          "indexed": true,
          "internalType": "address",
          "name": "account",
          "type": "address"
        },
        {
          "indexed": true,
          "internalType": "address",
          "name": "sender",
          "type": "address"
        }
      ],
      "name": "RoleGranted",
      "type": "event"
    },
    {
      "anonymous": false,
      "inputs": [
        {
          "indexed": true,
          "internalType": "bytes32",
          "name": "role",
          "type": "bytes32"
        },
        {
          "indexed": true,
          "internalType": "address",
          "name": "account",
          "type": "address"
        },
        {
          "indexed": true,
          "internalType": "address",
          "name": "sender",
          "type": "address"
        }
      ],
      "name": "RoleRevoked",
      "type": "event"
    },
    {
      "anonymous": false,
      "inputs": [
        {
          "indexed": false,
          "internalType": "address",
          "name": "account",
          "type": "address"
        },
        {
          "indexed": false,
          "internalType": "uint256",
          "name": "totalElegibleAmount",
          "type": "uint256"
        },
        {
          "indexed": false,
          "internalType": "uint256",
          "name": "totalClaimedAmount",
          "type": "uint256"
        }
      ],
      "name": "WhitelistBalanceChanged",
      "type": "event"
    },
    {
      "inputs": [
        {
          "internalType": "address",
          "name": "account",
          "type": "address"
        }
      ],
      "name": "claimedWhitelist",
      "outputs": [
        {
          "internalType": "uint256",
          "name": "",
          "type": "uint256"
        }
      ],
      "stateMutability": "view",
      "type": "function"
    },
    {
      "inputs": [
        {
          "internalType": "address",
          "name": "account",
          "type": "address"
        }
      ],
      "name": "elegibleWhitelist",
      "outputs": [
        {
          "internalType": "uint256",
          "name": "",
          "type": "uint256"
        }
      ],
      "stateMutability": "view",
      "type": "function"
    },
    {
      "inputs": [
        {
          "internalType": "address",
          "name": "account",
          "type": "address"
        },
        {
          "internalType": "uint256",
          "name": "amount",
          "type": "uint256"
        }
      ],
      "name": "increaseWhitelistElegible",
      "outputs": [],
      "stateMutability": "nonpayable",
      "type": "function"
    },
    {
      "inputs": [
        {
          "internalType": "address[]",
          "name": "accounts",
          "type": "address[]"
        },
        {
          "internalType": "uint256[]",
          "name": "amounts",
          "type": "uint256[]"
        }
      ],
      "name": "increaseWhitelistElegibleBatch",
      "outputs": [],
      "stateMutability": "nonpayable",
      "type": "function"
    },
    {
      "inputs": [],
      "name": "isWhitelistClaimActive",
      "outputs": [
        {
          "internalType": "bool",
          "name": "active",
          "type": "bool"
        }
      ],
      "stateMutability": "view",
      "type": "function"
    },
    {
      "inputs": [],
      "name": "setWhitelistClaimActive",
      "outputs": [],
      "stateMutability": "nonpayable",
      "type": "function"
    },
    {
      "inputs": [],
      "name": "setWhitelistClaimInactive",
      "outputs": [],
      "stateMutability": "nonpayable",
      "type": "function"
    },
    {
      "inputs": [
        {
          "internalType": "address",
          "name": "account",
          "type": "address"
        },
        {
          "internalType": "uint256",
          "name": "totalAmount",
          "type": "uint256"
        }
      ],
      "name": "setWhitelistElegible",
      "outputs": [],
      "stateMutability": "nonpayable",
      "type": "function"
    },
    {
      "inputs": [
        {
          "internalType": "address[]",
          "name": "accounts",
          "type": "address[]"
        },
        {
          "internalType": "uint256[]",
          "name": "totalAmounts",
          "type": "uint256[]"
        }
      ],
      "name": "setWhitelistElegibleBatch",
      "outputs": [],
      "stateMutability": "nonpayable",
      "type": "function"
    },
    {
      "inputs": [],
      "name": "totalClaimedWhitelist",
      "outputs": [
        {
          "internalType": "uint256",
          "name": "",
          "type": "uint256"
        }
      ],
      "stateMutability": "view",
      "type": "function"
    },
    {
      "inputs": [],
      "name": "totalElegibleWhitelist",
      "outputs": [
        {
          "internalType": "uint256",
          "name": "",
          "type": "uint256"
        }
      ],
      "stateMutability": "view",
      "type": "function"
    }
  ],
  "transactionHash": "0xec401fd8fe4ec47cf11b5b63a0a79f8ad7784b411fada68b0a7b2c7ff69d02eb",
  "args": [],
  "numDeployments": 6,
  "solcInputHash": "e1d11ad5ee5467196d54810266d81cef",
  "bytecode": "0x608060405234801561001057600080fd5b50610e99806100206000396000f3fe608060405234801561001057600080fd5b50600436106100a95760003560e01c80635efec59a116100715780635efec59a1461010c5780636f8363fc1461011f578063ae97b54a14610127578063d328d3cb1461013a578063f12b812f14610152578063ffa603231461015a57600080fd5b806319509de1146100ae5780631edf71f1146100c95780632f486ff0146100de57806330c4486f146100e65780634c237daf146100f9575b600080fd5b6100b661016d565b6040519081526020015b60405180910390f35b6100dc6100d7366004610bc2565b61019c565b005b6100dc6101c8565b6100dc6100f4366004610bc2565b6101eb565b6100b6610107366004610bec565b61020e565b6100b661011a366004610bec565b61024d565b6100dc610278565b6100dc610135366004610c53565b610299565b6101426102c4565b60405190151581526020016100c0565b6100b66102f2565b6100dc610168366004610c53565b61031c565b60006101977ff38d3885e664c9638de25f02e645e1955ebebe901d7be2c2037db6a5bcbb358b5490565b905090565b6101ba6101b5600080516020610e248339815191525490565b610341565b6101c4828261034e565b5050565b6101e16101b5600080516020610e248339815191525490565b6101e961042f565b565b6102046101b5600080516020610e248339815191525490565b6101c4828261048e565b6001600160a01b03811660009081527ff38d3885e664c9638de25f02e645e1955ebebe901d7be2c2037db6a5bcbb358960205260408120545b92915050565b6001600160a01b0381166000908152600080516020610e448339815191526020526040812054610247565b6102916101b5600080516020610e248339815191525490565b6101e9610522565b6102b26101b5600080516020610e248339815191525490565b6102be84848484610585565b50505050565b60006101977ff38d3885e664c9638de25f02e645e1955ebebe901d7be2c2037db6a5bcbb358c5460ff161590565b60006101977ff38d3885e664c9638de25f02e645e1955ebebe901d7be2c2037db6a5bcbb358a5490565b6103356101b5600080516020610e248339815191525490565b6102be84848484610760565b61034b813361097a565b50565b6001600160a01b03821660009081527ff38d3885e664c9638de25f02e645e1955ebebe901d7be2c2037db6a5bcbb3589602052604081208054600080516020610e44833981519152928492916103a5908490610cd5565b92505081905550818160030160008282546103c09190610cd5565b90915550506001600160a01b038316600090815260018201602090815260408083205484835292819020548151338152928301939093528101919091527fc7ba59c487358e9747ee9c691c213a9b2d30e01bb1b022a3e11d4b1984cd98459060600160405180910390a1505050565b7ff38d3885e664c9638de25f02e645e1955ebebe901d7be2c2037db6a5bcbb358c54600080516020610e448339815191529060ff1661048157604051633137c0e960e11b815260040160405180910390fd5b600401805460ff19169055565b6001600160a01b03821660009081527ff38d3885e664c9638de25f02e645e1955ebebe901d7be2c2037db6a5bcbb35896020526040902054600080516020610e44833981519152906104e09083610ce8565b8160030160008282546104f39190610cd5565b90915550506001600160a01b0383166000908152600182016020526040812080548492906103c0908490610cd5565b7ff38d3885e664c9638de25f02e645e1955ebebe901d7be2c2037db6a5bcbb358c54600080516020610e448339815191529060ff161561057557604051634151cc7b60e01b815260040160405180910390fd5b600401805460ff19166001179055565b8281146105a5576040516311bb761360e01b815260040160405180910390fd5b600080516020610e4483398151915260005b84811015610758578383828181106105d1576105d1610cfb565b905060200201358260010160008888858181106105f0576105f0610cfb565b90506020020160208101906106059190610bec565b6001600160a01b03166001600160a01b0316815260200190815260200160002060008282546106349190610cd5565b90915550849050838281811061064c5761064c610cfb565b905060200201358260030160008282546106669190610cd5565b909155507fc7ba59c487358e9747ee9c691c213a9b2d30e01bb1b022a3e11d4b1984cd98459050336001840160008989868181106106a6576106a6610cfb565b90506020020160208101906106bb9190610bec565b6001600160a01b03166001600160a01b03168152602001908152602001600020548460000160008a8a878181106106f4576106f4610cfb565b90506020020160208101906107099190610bec565b6001600160a01b0390811682526020808301939093526040918201600020548251959091168552918401929092529082015260600160405180910390a18061075081610d11565b9150506105b7565b505050505050565b828114610780576040516311bb761360e01b815260040160405180910390fd5b600080516020610e4483398151915260005b84811015610758578160010160008787848181106107b2576107b2610cfb565b90506020020160208101906107c79190610bec565b6001600160a01b03166001600160a01b03168152602001908152602001600020548484838181106107fa576107fa610cfb565b9050602002013561080b9190610ce8565b82600301600082825461081e9190610cd5565b90915550849050838281811061083657610836610cfb565b9050602002013582600101600088888581811061085557610855610cfb565b905060200201602081019061086a9190610bec565b6001600160a01b03166001600160a01b03168152602001908152602001600020819055507fc7ba59c487358e9747ee9c691c213a9b2d30e01bb1b022a3e11d4b1984cd9845338360010160008989868181106108c8576108c8610cfb565b90506020020160208101906108dd9190610bec565b6001600160a01b03166001600160a01b03168152602001908152602001600020548460000160008a8a8781811061091657610916610cfb565b905060200201602081019061092b9190610bec565b6001600160a01b0390811682526020808301939093526040918201600020548251959091168552918401929092529082015260600160405180910390a18061097281610d11565b915050610792565b61098482826109e5565b6101c45761099a816001600160a01b0316610a41565b6109a5836020610a53565b6040516020016109b6929190610d4e565b60408051601f198184030181529082905262461bcd60e51b82526109dc91600401610dc3565b60405180910390fd5b6000610a3a827fd3889cc5458b268d0544e5534672df1296288ca3f93cbd39bd6f497a5c622811600086815260209190915260409020906001600160a01b038116600090815260018301602052604081205415155b9392505050565b60606102476001600160a01b03831660145b60606000610a62836002610df6565b610a6d906002610cd5565b67ffffffffffffffff811115610a8557610a85610e0d565b6040519080825280601f01601f191660200182016040528015610aaf576020820181803683370190505b509050600360fc1b81600081518110610aca57610aca610cfb565b60200101906001600160f81b031916908160001a905350600f60fb1b81600181518110610af957610af9610cfb565b60200101906001600160f81b031916908160001a905350600160028402015b6001811115610b86576f181899199a1a9b1b9c1cb0b131b232b360811b85600f1660108110610b4957610b49610cfb565b1a60f81b828281518110610b5f57610b5f610cfb565b60200101906001600160f81b031916908160001a90535060049490941c9360001901610b18565b508315610a3a5760405163c913478560e01b815260040160405180910390fd5b80356001600160a01b0381168114610bbd57600080fd5b919050565b60008060408385031215610bd557600080fd5b610bde83610ba6565b946020939093013593505050565b600060208284031215610bfe57600080fd5b610a3a82610ba6565b60008083601f840112610c1957600080fd5b50813567ffffffffffffffff811115610c3157600080fd5b6020830191508360208260051b8501011115610c4c57600080fd5b9250929050565b60008060008060408587031215610c6957600080fd5b843567ffffffffffffffff80821115610c8157600080fd5b610c8d88838901610c07565b90965094506020870135915080821115610ca657600080fd5b50610cb387828801610c07565b95989497509550505050565b634e487b7160e01b600052601160045260246000fd5b8082018082111561024757610247610cbf565b8181038181111561024757610247610cbf565b634e487b7160e01b600052603260045260246000fd5b600060018201610d2357610d23610cbf565b5060010190565b60005b83811015610d45578181015183820152602001610d2d565b50506000910152565b7f416363657373436f6e74726f6c3a206163636f756e7420000000000000000000815260008351610d86816017850160208801610d2a565b7001034b99036b4b9b9b4b733903937b6329607d1b6017918401918201528351610db7816028840160208801610d2a565b01602801949350505050565b6020815260008251806020840152610de2816040850160208701610d2a565b601f01601f19169190910160400192915050565b808202811582820484141761024757610247610cbf565b634e487b7160e01b600052604160045260246000fdfef6deb63e40d71b08820818e006e23fcceb1fce7a499bc15b71b2526cbf9efa72f38d3885e664c9638de25f02e645e1955ebebe901d7be2c2037db6a5bcbb3588a264697066735822122041ade4007d17df95ca0862328702dec90e3a02355e124ce9a2ff5b7e9df01e4864736f6c63430008130033",
  "devdoc": {
    "kind": "dev",
    "methods": {
      "claimedWhitelist(address)": {
        "params": {
          "account": "The address of the account to query"
        },
        "returns": {
          "_0": "The amount claimed by the account"
        }
      },
      "elegibleWhitelist(address)": {
        "params": {
          "account": "The address of the account to query"
        },
        "returns": {
          "_0": "The elegible amount of the account"
        }
      },
      "increaseWhitelistElegible(address,uint256)": {
        "details": "This function can only be called by an address with the manager role",
        "params": {
          "account": "The address to add to the whitelist",
          "amount": "The amount to whitelist for the address"
        }
      },
      "increaseWhitelistElegibleBatch(address[],uint256[])": {
        "details": "This function can only be called by an address with the manager role",
        "params": {
          "accounts": "An array of addresses to add to the whitelist",
          "amounts": "An array of amounts to whitelist for each address"
        }
      },
      "isWhitelistClaimActive()": {
        "returns": {
          "active": "bool indicating if claim is active"
        }
      },
      "setWhitelistClaimActive()": {
        "details": "This function can only be called by an address with the manager role"
      },
      "setWhitelistClaimInactive()": {
        "details": "This function can only be called by an address with the manager role"
      },
      "setWhitelistElegible(address,uint256)": {
        "details": "This function can only be called by an address with the manager role",
        "params": {
          "account": "The address to add to the whitelist",
          "totalAmount": "The amount to whitelist for the address"
        }
      },
      "setWhitelistElegibleBatch(address[],uint256[])": {
        "details": "This function can only be called by an address with the manager role",
        "params": {
          "accounts": "An array of addresses to add to the whitelist",
          "totalAmounts": "An array of amounts to whitelist for each address"
        }
      },
      "totalClaimedWhitelist()": {
        "returns": {
          "_0": "The total claimed amount"
        }
      },
      "totalElegibleWhitelist()": {
        "returns": {
          "_0": "The total elegible amount"
        }
      }
    },
    "title": "WhitelistFacet",
    "version": 1
  },
  "userdoc": {
    "kind": "user",
    "methods": {
      "claimedWhitelist(address)": {
        "notice": "Returns the amount claimed by a whitelisted account"
      },
      "elegibleWhitelist(address)": {
        "notice": "Returns the remaining elegible amount for a whitelisted account"
      },
      "increaseWhitelistElegible(address,uint256)": {
        "notice": "Increase the whitelist elegible amount for an address"
      },
      "increaseWhitelistElegibleBatch(address[],uint256[])": {
        "notice": "Increase the whitelist elegible amounts for multiple addresses"
      },
      "isWhitelistClaimActive()": {
        "notice": "Returns true if elegible tokens can be claimed, or false otherwise"
      },
      "setWhitelistClaimActive()": {
        "notice": "Updates the claim state to active and enables the claim of tokens"
      },
      "setWhitelistClaimInactive()": {
        "notice": "Updates the claim state to inactive and disables the claim of tokens"
      },
      "setWhitelistElegible(address,uint256)": {
        "notice": "Adds a new address to the whitelist with a specific amount"
      },
      "setWhitelistElegibleBatch(address[],uint256[])": {
        "notice": "Adds multiple addresses to the whitelist with specific amounts"
      },
      "totalClaimedWhitelist()": {
        "notice": "Returns the total claimed amount"
      },
      "totalElegibleWhitelist()": {
        "notice": "Returns the total elegible amount"
      }
    },
    "notice": "This contract allows the admins to whitelist an address with a specific amount, which can then be used to claim tokens in other contracts. To consume the whitelist, the token contracts should call the internal functions from WhitelistInternal. This contract can be used as a facet of a diamond which follows the EIP-2535 diamond standard.",
    "version": 1
  },
  "storageLayout": {
    "storage": [],
    "types": null
  }
}